{
  "_format": "hh-sol-artifact-1",
  "contractName": "StrategyFactory",
  "sourceName": "contracts/libraries/StrategyFactory.sol",
  "abi": [
    {
      "inputs": [],
      "name": "ERC1167FailedCreateClone",
      "type": "error"
    },
    {
      "anonymous": false,
      "inputs": [
        {
          "indexed": true,
          "internalType": "address",
          "name": "newStrategy",
          "type": "address"
        }
      ],
      "name": "StrategyCloned",
      "type": "event"
    },
    {
      "inputs": [
        {
          "internalType": "address",
          "name": "_template",
          "type": "address"
        }
      ],
      "name": "createStrategy",
      "outputs": [
        {
          "internalType": "address",
          "name": "",
          "type": "address"
        }
      ],
      "stateMutability": "nonpayable",
      "type": "function"
    }
  ],
  "bytecode": "0x608060405234801561001057600080fd5b50610180806100206000396000f3fe608060405234801561001057600080fd5b506004361061002b5760003560e01c80637316bcd114610030575b600080fd5b61004361003e36600461011a565b61005f565b6040516001600160a01b03909116815260200160405180910390f35b60008061006b836100a8565b6040519091506001600160a01b038216907fc9b6b451d7b58ecabbcbda1ea04a268cc16b998a878c71d4618fbddec8b38c8c90600090a292915050565b6000763d602d80600a3d3981f3363d3d373d3d3d363d730000008260601b60e81c176000526e5af43d82803e903d91602b57fd5bf38260781b17602052603760096000f090506001600160a01b038116610115576040516330be1a3d60e21b815260040160405180910390fd5b919050565b60006020828403121561012c57600080fd5b81356001600160a01b038116811461014357600080fd5b939250505056fea26469706673582212203724c8e528384c8ee26a7ca968917505c47ebfdceff8b4609a250c385f3d3bbb64736f6c63430008140033",
  "linkReferences": {},
  "deployedLinkReferences": {}
}