{"contracts/Manager.sol":{"Manager":{"abi":[{"inputs":[{"internalType":"address","name":"alloAddress","type":"address"},{"internalType":"address","name":"_strategy","type":"address"},{"internalType":"address","name":"_strategyFactory","type":"address"}],"stateMutability":"nonpayable","type":"constructor"},{"inputs":[],"name":"ALLOCATION_ACTIVE","type":"error"},{"inputs":[],"name":"ALLOCATION_NOT_ACTIVE","type":"error"},{"inputs":[],"name":"ALLOCATION_NOT_ENDED","type":"error"},{"inputs":[],"name":"ALREADY_INITIALIZED","type":"error"},{"inputs":[],"name":"AMOUNT_MISMATCH","type":"error"},{"inputs":[],"name":"ANCHOR_ERROR","type":"error"},{"inputs":[],"name":"ARRAY_MISMATCH","type":"error"},{"inputs":[],"name":"INVALID","type":"error"},{"inputs":[],"name":"INVALID_ADDRESS","type":"error"},{"inputs":[],"name":"INVALID_FEE","type":"error"},{"inputs":[],"name":"INVALID_METADATA","type":"error"},{"inputs":[],"name":"INVALID_MILESTONE_STATUS","type":"error"},{"inputs":[],"name":"INVALID_REGISTRATION","type":"error"},{"inputs":[],"name":"IS_APPROVED_STRATEGY","type":"error"},{"inputs":[],"name":"MISMATCH","type":"error"},{"inputs":[],"name":"NONCE_NOT_AVAILABLE","type":"error"},{"inputs":[],"name":"NOT_APPROVED_STRATEGY","type":"error"},{"inputs":[],"name":"NOT_ENOUGH_FUNDS","type":"error"},{"inputs":[],"name":"NOT_IMPLEMENTED","type":"error"},{"inputs":[],"name":"NOT_INITIALIZED","type":"error"},{"inputs":[],"name":"NOT_PENDING_OWNER","type":"error"},{"inputs":[],"name":"POOL_ACTIVE","type":"error"},{"inputs":[],"name":"POOL_INACTIVE","type":"error"},{"inputs":[],"name":"RECIPIENT_ALREADY_ACCEPTED","type":"error"},{"inputs":[{"internalType":"address","name":"recipientId","type":"address"}],"name":"RECIPIENT_ERROR","type":"error"},{"inputs":[],"name":"RECIPIENT_NOT_ACCEPTED","type":"error"},{"inputs":[],"name":"REGISTRATION_NOT_ACTIVE","type":"error"},{"inputs":[],"name":"ReentrancyGuardReentrantCall","type":"error"},{"inputs":[],"name":"SUPPLY_IS_ALLOWED_ONLY_ONCE","type":"error"},{"inputs":[],"name":"SUPPLY_NOT_FOUND","type":"error"},{"inputs":[],"name":"UNAUTHORIZED","type":"error"},{"inputs":[],"name":"ZERO_ADDRESS","type":"error"},{"anonymous":false,"inputs":[{"indexed":true,"internalType":"bytes32","name":"projectId","type":"bytes32"},{"indexed":false,"internalType":"uint256","name":"amount","type":"uint256"}],"name":"ProjectFunded","type":"event"},{"anonymous":false,"inputs":[{"indexed":false,"internalType":"bytes32","name":"projectId","type":"bytes32"},{"indexed":false,"internalType":"uint256","name":"poolId","type":"uint256"}],"name":"ProjectPoolCreeated","type":"event"},{"inputs":[],"name":"NATIVE","outputs":[{"internalType":"address","name":"","type":"address"}],"stateMutability":"view","type":"function"},{"inputs":[{"internalType":"bytes32","name":"profileId","type":"bytes32"}],"name":"_projectExists","outputs":[{"internalType":"bool","name":"","type":"bool"}],"stateMutability":"view","type":"function"},{"inputs":[{"internalType":"bytes32","name":"_projectId","type":"bytes32"}],"name":"getProfile","outputs":[{"components":[{"internalType":"bytes32","name":"id","type":"bytes32"},{"internalType":"uint256","name":"nonce","type":"uint256"},{"internalType":"string","name":"name","type":"string"},{"components":[{"internalType":"uint256","name":"protocol","type":"uint256"},{"internalType":"string","name":"pointer","type":"string"}],"internalType":"struct Metadata","name":"metadata","type":"tuple"},{"internalType":"address","name":"owner","type":"address"},{"internalType":"address","name":"anchor","type":"address"}],"internalType":"struct IRegistry.Profile","name":"","type":"tuple"}],"stateMutability":"view","type":"function"},{"inputs":[],"name":"getProfiles","outputs":[{"internalType":"bytes32[]","name":"","type":"bytes32[]"}],"stateMutability":"view","type":"function"},{"inputs":[{"internalType":"bytes32","name":"_projectId","type":"bytes32"}],"name":"getProjectExecutor","outputs":[{"internalType":"address","name":"","type":"address"}],"stateMutability":"view","type":"function"},{"inputs":[{"internalType":"bytes32","name":"_projectId","type":"bytes32"}],"name":"getProjectPool","outputs":[{"internalType":"uint256","name":"","type":"uint256"}],"stateMutability":"view","type":"function"},{"inputs":[{"internalType":"bytes32","name":"_projectId","type":"bytes32"}],"name":"getProjectStrategy","outputs":[{"internalType":"address","name":"","type":"address"}],"stateMutability":"view","type":"function"},{"inputs":[{"internalType":"bytes32","name":"_projectId","type":"bytes32"},{"internalType":"address","name":"_supplier","type":"address"}],"name":"getProjectSupplierById","outputs":[{"internalType":"uint256","name":"","type":"uint256"}],"stateMutability":"view","type":"function"},{"inputs":[{"internalType":"bytes32","name":"_projectId","type":"bytes32"}],"name":"getProjectSuppliers","outputs":[{"internalType":"address[]","name":"","type":"address[]"}],"stateMutability":"view","type":"function"},{"inputs":[{"internalType":"bytes32","name":"_projectId","type":"bytes32"}],"name":"getProjectSupply","outputs":[{"components":[{"internalType":"uint256","name":"need","type":"uint256"},{"internalType":"uint256","name":"has","type":"uint256"},{"internalType":"string","name":"name","type":"string"},{"internalType":"string","name":"description","type":"string"}],"internalType":"struct Manager.ProjectSupply","name":"","type":"tuple"}],"stateMutability":"view","type":"function"},{"inputs":[{"internalType":"uint256","name":"_needs","type":"uint256"},{"internalType":"uint256","name":"_nonce","type":"uint256"},{"internalType":"string","name":"_name","type":"string"},{"components":[{"internalType":"uint256","name":"protocol","type":"uint256"},{"internalType":"string","name":"pointer","type":"string"}],"internalType":"struct Metadata","name":"_metadata","type":"tuple"},{"internalType":"address","name":"_recipient","type":"address"},{"internalType":"string","name":"_description","type":"string"}],"name":"registerProject","outputs":[{"internalType":"bytes32","name":"profileId","type":"bytes32"}],"stateMutability":"nonpayable","type":"function"},{"inputs":[{"internalType":"bytes32","name":"_projectId","type":"bytes32"}],"name":"revokeProjectSupply","outputs":[],"stateMutability":"nonpayable","type":"function"},{"inputs":[{"internalType":"bytes32","name":"_projectId","type":"bytes32"},{"internalType":"uint256","name":"_amount","type":"uint256"}],"name":"supplyProject","outputs":[],"stateMutability":"payable","type":"function"},{"stateMutability":"payable","type":"receive"}],"evm":{"bytecode":{"linkReferences":{},"object":"60806040523480156200001157600080fd5b5060405162001ed438038062001ed4833981016040819052620000349162000119565b60016000908155600280546001600160a01b038087166001600160a01b0319928316811790935560038054878316908416179055600480549186169190921617815560408051635ab1bd5360e01b81529051635ab1bd53928281019260209291908290030181865afa158015620000af573d6000803e3d6000fd5b505050506040513d601f19601f82011682018060405250810190620000d591906200016d565b600180546001600160a01b0319166001600160a01b0392909216919091179055506200019492505050565b6001600160a01b03811681146200011657600080fd5b50565b6000806000606084860312156200012f57600080fd5b83516200013c8162000100565b60208501519093506200014f8162000100565b6040850151909250620001628162000100565b809150509250925092565b6000602082840312156200018057600080fd5b81516200018d8162000100565b9392505050565b611d3080620001a46000396000f3fe6080604052600436106100c65760003560e01c806394a8fb4a1161007f578063b50991b411610059578063b50991b414610259578063c42b06f014610286578063d1de78e4146102b6578063df06c273146102d657600080fd5b806394a8fb4a146101e2578063a0cf0aea1461020f578063b21370331461023757600080fd5b806316e46f68146100d257806340f1ab98146101125780635d5bba3f146101275780636617dd66146101755780637144e4b5146101a25780638d363831146101c257600080fd5b366100cd57005b600080fd5b3480156100de57600080fd5b506100ff6100ed366004611390565b6000908152600a602052604090205490565b6040519081526020015b60405180910390f35b6101256101203660046113a9565b61030c565b005b34801561013357600080fd5b5061015d610142366004611390565b6000908152600b60205260409020546001600160a01b031690565b6040516001600160a01b039091168152602001610109565b34801561018157600080fd5b50610195610190366004611390565b61091b565b604051610109919061140f565b3480156101ae57600080fd5b506100ff6101bd36600461155f565b610987565b3480156101ce57600080fd5b506100ff6101dd366004611642565b610b40565b3480156101ee57600080fd5b506102026101fd366004611390565b610b6a565b60405161010991906116c2565b34801561021b57600080fd5b5061015d73eeeeeeeeeeeeeeeeeeeeeeeeeeeeeeeeeeeeeeee81565b34801561024357600080fd5b5061024c610cf2565b6040516101099190611718565b34801561026557600080fd5b50610279610274366004611390565b610d4a565b6040516101099190611783565b34801561029257600080fd5b506102a66102a1366004611390565b610dc2565b6040519015158152602001610109565b3480156102c257600080fd5b506101256102d1366004611390565b610e4d565b3480156102e257600080fd5b5061015d6102f1366004611390565b6000908152600960205260409020546001600160a01b031690565b6103146110c9565b61031d82610dc2565b6103675760405162461bcd60e51b8152602060048201526016602482015275141c9bda9958dd08191bd95cc81b9bdd08195e1a5cdd60521b60448201526064015b60405180910390fd5b8015806103745750348114155b15610392576040516303e09bb960e31b815260040160405180910390fd5b600082815260086020526040812060010180548392906103b3908490611817565b9091555050600082815260076020908152604080832033845290915281205490036104075760008281526006602090815260408220805460018101825590835291200180546001600160a01b031916331790555b600082815260076020908152604080832033845290915281208054839290610430908490611817565b909155505060405181815282907f315cb30dd854bd9e9df31e31754930ba16b498240f74a4ef23531f84c4ee49109060200160405180910390a2600082815260086020526040902080546001909101541061090d576000610490836110f3565b60408051608081018252600080825260208201819052918101829052606081018390528251929350916104c4906001611817565b67ffffffffffffffff8111156104dc576104dc611429565b604051908082528060200260200182016040528015610505578160200160208202803683370190505b50905060005b835181101561056e578381815181106105265761052661182a565b6020026020010151600001518282815181106105445761054461182a565b6001600160a01b03909216602092830291909101909101528061056681611840565b91505061050b565b5030818451815181106105835761058361182a565b6001600160a01b039092166020928302919091018201526040805180820182526001815281518083018352600d81526c32b6b83a3c903837b4b73a32b960991b8185015281840152905190916000916105de91869101611859565b60408051808303601f1901815282825260008a81526008602052919091205460048054600354637316bcd160e01b86526001600160a01b03908116928601929092529294509092911690637316bcd1906024016020604051808303816000875af1158015610650573d6000803e3d6000fd5b505050506040513d601f19601f8201168201806040525081019061067491906118f0565b6000898152600b602052604080822080546001600160a01b0319166001600160a01b0394851690811790915560025491516370803ea560e11b81529293919091169163e1007d4a9134916106ea918e91899073eeeeeeeeeeeeeeeeeeeeeeeeeeeeeeeeeeeeeeee9089908d908f9060040161190d565b60206040518083038185885af1158015610708573d6000803e3d6000fd5b50505050506040513d601f19601f8201168201806040525081019061072d9190611978565b60008a81526008602052604090205490915047101561078e5760405162461bcd60e51b815260206004820181905260248201527f496e73756666696369656e742062616c616e636520696e20636f6e7472616374604482015260640161035e565b60025460008a815260086020526040908190205490516316b35beb60e21b815260048101849052602481018290526001600160a01b0390921691635acd6fac91906044016000604051808303818588803b1580156107eb57600080fd5b505af11580156107ff573d6000803e3d6000fd5b50505060008b815260096020908152604080832054905192945061083493506001600160a01b031691849187918a9101611991565b60408051601f19818403018152908290526002546301d703a760e21b83529092506001600160a01b03169063075c0e9c9061087590859085906004016119ce565b6020604051808303816000875af1158015610894573d6000803e3d6000fd5b505050506040513d601f19601f820116820180604052508101906108b891906118f0565b5060008a8152600a602090815260409182902084905581518c81529081018490527fc5d45cf1508cae377cc227a37ea00b97fa9e86e03ce72364a0b7e85e36baacec910160405180910390a150505050505050505b6109176001600055565b5050565b60008181526006602090815260409182902080548351818402810184019094528084526060939283018282801561097b57602002820191906000526020600020905b81546001600160a01b0316815260019091019060200180831161095d575b50505050509050919050565b6040805160028082526060820183526000928392919060208301908036833701905050905083816000815181106109c0576109c061182a565b60200260200101906001600160a01b031690816001600160a01b03168152505030816001815181106109f4576109f461182a565b6001600160a01b039283166020918202929092010152600154604051633a92f65f60e01b8152911690633a92f65f90610a39908a908a908a90309088906004016119e7565b6020604051808303816000875af1158015610a58573d6000803e3d6000fd5b505050506040513d601f19601f82011682018060405250810190610a7c9190611978565b60058054600181019091557f036b6384b5eca791c62761152d0c79bb0604c104a5fb6f4eb0703f3154bb3db001819055600081815260086020526040812080549294508a92909190610acf908490611817565b90915550506000828152600860205260409020600201610aef8782611ac9565b506000828152600860205260409020600301610b0b8482611ac9565b5050600081815260096020526040902080546001600160a01b0385166001600160a01b03199091161790559695505050505050565b60008281526007602090815260408083206001600160a01b03851684529091529020545b92915050565b610b956040518060800160405280600081526020016000815260200160608152602001606081525090565b600860008381526020019081526020016000206040518060800160405290816000820154815260200160018201548152602001600282018054610bd790611a41565b80601f0160208091040260200160405190810160405280929190818152602001828054610c0390611a41565b8015610c505780601f10610c2557610100808354040283529160200191610c50565b820191906000526020600020905b815481529060010190602001808311610c3357829003601f168201915b50505050508152602001600382018054610c6990611a41565b80601f0160208091040260200160405190810160405280929190818152602001828054610c9590611a41565b8015610ce25780601f10610cb757610100808354040283529160200191610ce2565b820191906000526020600020905b815481529060010190602001808311610cc557829003601f168201915b5050505050815250509050919050565b60606005805480602002602001604051908101604052809291908181526020018280548015610d4057602002820191906000526020600020905b815481526020019060010190808311610d2c575b5050505050905090565b610d526112c2565b600154604051628a678560e11b8152600481018490526001600160a01b0390911690630114cf0a90602401600060405180830381865afa158015610d9a573d6000803e3d6000fd5b505050506040513d6000823e601f3d908101601f19168201604052610b649190810190611c20565b600154604051628a678560e11b81526004810183905260009182916001600160a01b0390911690630114cf0a90602401600060405180830381865afa158015610e0f573d6000803e3d6000fd5b505050506040513d6000823e601f3d908101601f19168201604052610e379190810190611c20565b608001516001600160a01b031615159392505050565b610e556110c9565b610e5e81610dc2565b610ea35760405162461bcd60e51b8152602060048201526016602482015275141c9bda9958dd08191bd95cc81b9bdd08195e1a5cdd60521b604482015260640161035e565b600081815260076020908152604080832033845290915290205480610efd5760405162461bcd60e51b815260206004820152601060248201526f14d554141316481393d5081193d5539160821b604482015260640161035e565b60008281526007602090815260408083203384528252808320839055848352600890915281206001018054839290610f36908490611ce7565b9091555050600082815260066020526040812054610f5690600190611ce7565b67ffffffffffffffff811115610f6e57610f6e611429565b604051908082528060200260200182016040528015610f97578160200160208202803683370190505b5090506000805b600085815260066020526040902054811015611079576000858152600660205260409020805433919083908110610fd757610fd761182a565b6000918252602090912001546001600160a01b0316146110675760008581526006602052604090208054829081106110115761101161182a565b9060005260206000200160009054906101000a90046001600160a01b03168383815181106110415761104161182a565b6001600160a01b03909216602092830291909101909101528161106381611840565b9250505b8061107181611840565b915050610f9e565b506000848152600660209081526040909120835161109992850190611316565b506110b973eeeeeeeeeeeeeeeeeeeeeeeeeeeeeeeeeeeeeeee3385611221565b5050506110c66001600055565b50565b6002600054036110ec57604051633ee5aeb560e01b815260040160405180910390fd5b6002600055565b6000818152600660205260408120546060919067ffffffffffffffff81111561111e5761111e611429565b60405190808252806020026020018201604052801561116357816020015b604080518082019091526000808252602082015281526020019060019003908161113c5790505b50905060005b60008481526006602052604090205481101561121a57600084815260066020526040812080548390811061119f5761119f61182a565b60009182526020808320909101548783526007825260408084206001600160a01b039092168085529183529283902054835180850190945281845291830182905285519093509091908590859081106111fa576111fa61182a565b60200260200101819052505050808061121290611840565b915050611169565b5092915050565b73eeeeeeeeeeeeeeeeeeeeeeeeeeeeeeeeeeeeeeed196001600160a01b03841601611255576112508282611260565b505050565b61125083838361127c565b60003860003884865af16109175763b12d13eb6000526004601cfd5b816014528060345263a9059cbb60601b60005260206000604460106000875af13d1560016000511417166112b8576390b8ec186000526004601cfd5b6000603452505050565b6040518060c00160405280600080191681526020016000815260200160608152602001611302604051806040016040528060008152602001606081525090565b815260006020820181905260409091015290565b82805482825590600052602060002090810192821561136b579160200282015b8281111561136b57825182546001600160a01b0319166001600160a01b03909116178255602090920191600190910190611336565b5061137792915061137b565b5090565b5b80821115611377576000815560010161137c565b6000602082840312156113a257600080fd5b5035919050565b600080604083850312156113bc57600080fd5b50508035926020909101359150565b600081518084526020808501945080840160005b838110156114045781516001600160a01b0316875295820195908201906001016113df565b509495945050505050565b60208152600061142260208301846113cb565b9392505050565b634e487b7160e01b600052604160045260246000fd5b6040805190810167ffffffffffffffff8111828210171561146257611462611429565b60405290565b60405160c0810167ffffffffffffffff8111828210171561146257611462611429565b604051601f8201601f1916810167ffffffffffffffff811182821017156114b4576114b4611429565b604052919050565b600067ffffffffffffffff8211156114d6576114d6611429565b50601f01601f191660200190565b600082601f8301126114f557600080fd5b8135611508611503826114bc565b61148b565b81815284602083860101111561151d57600080fd5b816020850160208301376000918101602001919091529392505050565b6001600160a01b03811681146110c657600080fd5b803561155a8161153a565b919050565b60008060008060008060c0878903121561157857600080fd5b8635955060208701359450604087013567ffffffffffffffff8082111561159e57600080fd5b6115aa8a838b016114e4565b955060608901359150808211156115c057600080fd5b908801906040828b0312156115d457600080fd5b6115dc61143f565b823581526020830135828111156115f257600080fd5b6115fe8c8286016114e4565b602083015250945061161260808a0161154f565b935060a089013591508082111561162857600080fd5b5061163589828a016114e4565b9150509295509295509295565b6000806040838503121561165557600080fd5b8235915060208301356116678161153a565b809150509250929050565b60005b8381101561168d578181015183820152602001611675565b50506000910152565b600081518084526116ae816020860160208601611672565b601f01601f19169290920160200192915050565b60208152815160208201526020820151604082015260006040830151608060608401526116f260a0840182611696565b90506060840151601f1984830301608085015261170f8282611696565b95945050505050565b6020808252825182820181905260009190848201906040850190845b8181101561175057835183529284019291840191600101611734565b50909695505050505050565b80518252600060208201516040602085015261177b6040850182611696565b949350505050565b6020815281516020820152602082015160408201526000604083015160c060608401526117b360e0840182611696565b90506060840151601f198483030160808501526117d0828261175c565b60808601516001600160a01b0390811660a0878101919091529096015190951660c090940193909352509192915050565b634e487b7160e01b600052601160045260246000fd5b80820180821115610b6457610b64611801565b634e487b7160e01b600052603260045260246000fd5b60006001820161185257611852611801565b5060010190565b6000602080835260a0830184511515828501528185015160408115158187015280870151151560608701526060870151915060808087015282825180855260c0880191508584019450600093505b808410156118d957845180516001600160a01b03168352860151868301529385019360019390930192908201906118a7565b50979650505050505050565b805161155a8161153a565b60006020828403121561190257600080fd5b81516114228161153a565b878152600060018060a01b03808916602084015260e0604084015261193560e0840189611696565b818816606085015286608085015283810360a0850152611955818761175c565b91505082810360c084015261196a81856113cb565b9a9950505050505050505050565b60006020828403121561198a57600080fd5b5051919050565b6001600160a01b03858116825284166020820152604081018390526080606082018190526000906119c49083018461175c565b9695505050505050565b82815260406020820152600061177b6040830184611696565b85815260a060208201526000611a0060a0830187611696565b8281036040840152611a12818761175c565b6001600160a01b038616606085015283810360808501529050611a3581856113cb565b98975050505050505050565b600181811c90821680611a5557607f821691505b602082108103611a7557634e487b7160e01b600052602260045260246000fd5b50919050565b601f82111561125057600081815260208120601f850160051c81016020861015611aa25750805b601f850160051c820191505b81811015611ac157828155600101611aae565b505050505050565b815167ffffffffffffffff811115611ae357611ae3611429565b611af781611af18454611a41565b84611a7b565b602080601f831160018114611b2c5760008415611b145750858301515b600019600386901b1c1916600185901b178555611ac1565b600085815260208120601f198616915b82811015611b5b57888601518255948401946001909101908401611b3c565b5085821015611b795787850151600019600388901b60f8161c191681555b5050505050600190811b01905550565b600082601f830112611b9a57600080fd5b8151611ba8611503826114bc565b818152846020838601011115611bbd57600080fd5b61177b826020830160208701611672565b600060408284031215611be057600080fd5b611be861143f565b905081518152602082015167ffffffffffffffff811115611c0857600080fd5b611c1484828501611b89565b60208301525092915050565b600060208284031215611c3257600080fd5b815167ffffffffffffffff80821115611c4a57600080fd5b9083019060c08286031215611c5e57600080fd5b611c66611468565b8251815260208301516020820152604083015182811115611c8657600080fd5b611c9287828601611b89565b604083015250606083015182811115611caa57600080fd5b611cb687828601611bce565b606083015250611cc8608084016118e5565b6080820152611cd960a084016118e5565b60a082015295945050505050565b81810381811115610b6457610b6461180156fea26469706673582212203b3c07d5a94b5312236c43bf6e60289db3194e7a4c34a5c06e463315f1e31ee764736f6c63430008140033","opcodes":"PUSH1 0x80 PUSH1 0x40 MSTORE CALLVALUE DUP1 ISZERO PUSH3 0x11 JUMPI PUSH1 0x0 DUP1 REVERT JUMPDEST POP PUSH1 0x40 MLOAD PUSH3 0x1ED4 CODESIZE SUB DUP1 PUSH3 0x1ED4 DUP4 CODECOPY DUP2 ADD PUSH1 0x40 DUP2 SWAP1 MSTORE PUSH3 0x34 SWAP2 PUSH3 0x119 JUMP JUMPDEST PUSH1 0x1 PUSH1 0x0 SWAP1 DUP2 SSTORE PUSH1 0x2 DUP1 SLOAD PUSH1 0x1 PUSH1 0x1 PUSH1 0xA0 SHL SUB DUP1 DUP8 AND PUSH1 0x1 PUSH1 0x1 PUSH1 0xA0 SHL SUB NOT SWAP3 DUP4 AND DUP2 OR SWAP1 SWAP4 SSTORE PUSH1 0x3 DUP1 SLOAD DUP8 DUP4 AND SWAP1 DUP5 AND OR SWAP1 SSTORE PUSH1 0x4 DUP1 SLOAD SWAP2 DUP7 AND SWAP2 SWAP1 SWAP3 AND OR DUP2 SSTORE PUSH1 0x40 DUP1 MLOAD PUSH4 0x5AB1BD53 PUSH1 0xE0 SHL DUP2 MSTORE SWAP1 MLOAD PUSH4 0x5AB1BD53 SWAP3 DUP3 DUP2 ADD SWAP3 PUSH1 0x20 SWAP3 SWAP2 SWAP1 DUP3 SWAP1 SUB ADD DUP2 DUP7 GAS STATICCALL ISZERO DUP1 ISZERO PUSH3 0xAF JUMPI RETURNDATASIZE PUSH1 0x0 DUP1 RETURNDATACOPY RETURNDATASIZE PUSH1 0x0 REVERT JUMPDEST POP POP POP POP PUSH1 0x40 MLOAD RETURNDATASIZE PUSH1 0x1F NOT PUSH1 0x1F DUP3 ADD AND DUP3 ADD DUP1 PUSH1 0x40 MSTORE POP DUP2 ADD SWAP1 PUSH3 0xD5 SWAP2 SWAP1 PUSH3 0x16D JUMP JUMPDEST PUSH1 0x1 DUP1 SLOAD PUSH1 0x1 PUSH1 0x1 PUSH1 0xA0 SHL SUB NOT AND PUSH1 0x1 PUSH1 0x1 PUSH1 0xA0 SHL SUB SWAP3 SWAP1 SWAP3 AND SWAP2 SWAP1 SWAP2 OR SWAP1 SSTORE POP PUSH3 0x194 SWAP3 POP POP POP JUMP JUMPDEST PUSH1 0x1 PUSH1 0x1 PUSH1 0xA0 SHL SUB DUP2 AND DUP2 EQ PUSH3 0x116 JUMPI PUSH1 0x0 DUP1 REVERT JUMPDEST POP JUMP JUMPDEST PUSH1 0x0 DUP1 PUSH1 0x0 PUSH1 0x60 DUP5 DUP7 SUB SLT ISZERO PUSH3 0x12F JUMPI PUSH1 0x0 DUP1 REVERT JUMPDEST DUP4 MLOAD PUSH3 0x13C DUP2 PUSH3 0x100 JUMP JUMPDEST PUSH1 0x20 DUP6 ADD MLOAD SWAP1 SWAP4 POP PUSH3 0x14F DUP2 PUSH3 0x100 JUMP JUMPDEST PUSH1 0x40 DUP6 ADD MLOAD SWAP1 SWAP3 POP PUSH3 0x162 DUP2 PUSH3 0x100 JUMP JUMPDEST DUP1 SWAP2 POP POP SWAP3 POP SWAP3 POP SWAP3 JUMP JUMPDEST PUSH1 0x0 PUSH1 0x20 DUP3 DUP5 SUB SLT ISZERO PUSH3 0x180 JUMPI PUSH1 0x0 DUP1 REVERT JUMPDEST DUP2 MLOAD PUSH3 0x18D DUP2 PUSH3 0x100 JUMP JUMPDEST SWAP4 SWAP3 POP POP POP JUMP JUMPDEST PUSH2 0x1D30 DUP1 PUSH3 0x1A4 PUSH1 0x0 CODECOPY PUSH1 0x0 RETURN INVALID PUSH1 0x80 PUSH1 0x40 MSTORE PUSH1 0x4 CALLDATASIZE LT PUSH2 0xC6 JUMPI PUSH1 0x0 CALLDATALOAD PUSH1 0xE0 SHR DUP1 PUSH4 0x94A8FB4A GT PUSH2 0x7F JUMPI DUP1 PUSH4 0xB50991B4 GT PUSH2 0x59 JUMPI DUP1 PUSH4 0xB50991B4 EQ PUSH2 0x259 JUMPI DUP1 PUSH4 0xC42B06F0 EQ PUSH2 0x286 JUMPI DUP1 PUSH4 0xD1DE78E4 EQ PUSH2 0x2B6 JUMPI DUP1 PUSH4 0xDF06C273 EQ PUSH2 0x2D6 JUMPI PUSH1 0x0 DUP1 REVERT JUMPDEST DUP1 PUSH4 0x94A8FB4A EQ PUSH2 0x1E2 JUMPI DUP1 PUSH4 0xA0CF0AEA EQ PUSH2 0x20F JUMPI DUP1 PUSH4 0xB2137033 EQ PUSH2 0x237 JUMPI PUSH1 0x0 DUP1 REVERT JUMPDEST DUP1 PUSH4 0x16E46F68 EQ PUSH2 0xD2 JUMPI DUP1 PUSH4 0x40F1AB98 EQ PUSH2 0x112 JUMPI DUP1 PUSH4 0x5D5BBA3F EQ PUSH2 0x127 JUMPI DUP1 PUSH4 0x6617DD66 EQ PUSH2 0x175 JUMPI DUP1 PUSH4 0x7144E4B5 EQ PUSH2 0x1A2 JUMPI DUP1 PUSH4 0x8D363831 EQ PUSH2 0x1C2 JUMPI PUSH1 0x0 DUP1 REVERT JUMPDEST CALLDATASIZE PUSH2 0xCD JUMPI STOP JUMPDEST PUSH1 0x0 DUP1 REVERT JUMPDEST CALLVALUE DUP1 ISZERO PUSH2 0xDE JUMPI PUSH1 0x0 DUP1 REVERT JUMPDEST POP PUSH2 0xFF PUSH2 0xED CALLDATASIZE PUSH1 0x4 PUSH2 0x1390 JUMP JUMPDEST PUSH1 0x0 SWAP1 DUP2 MSTORE PUSH1 0xA PUSH1 0x20 MSTORE PUSH1 0x40 SWAP1 KECCAK256 SLOAD SWAP1 JUMP JUMPDEST PUSH1 0x40 MLOAD SWAP1 DUP2 MSTORE PUSH1 0x20 ADD JUMPDEST PUSH1 0x40 MLOAD DUP1 SWAP2 SUB SWAP1 RETURN JUMPDEST PUSH2 0x125 PUSH2 0x120 CALLDATASIZE PUSH1 0x4 PUSH2 0x13A9 JUMP JUMPDEST PUSH2 0x30C JUMP JUMPDEST STOP JUMPDEST CALLVALUE DUP1 ISZERO PUSH2 0x133 JUMPI PUSH1 0x0 DUP1 REVERT JUMPDEST POP PUSH2 0x15D PUSH2 0x142 CALLDATASIZE PUSH1 0x4 PUSH2 0x1390 JUMP JUMPDEST PUSH1 0x0 SWAP1 DUP2 MSTORE PUSH1 0xB PUSH1 0x20 MSTORE PUSH1 0x40 SWAP1 KECCAK256 SLOAD PUSH1 0x1 PUSH1 0x1 PUSH1 0xA0 SHL SUB AND SWAP1 JUMP JUMPDEST PUSH1 0x40 MLOAD PUSH1 0x1 PUSH1 0x1 PUSH1 0xA0 SHL SUB SWAP1 SWAP2 AND DUP2 MSTORE PUSH1 0x20 ADD PUSH2 0x109 JUMP JUMPDEST CALLVALUE DUP1 ISZERO PUSH2 0x181 JUMPI PUSH1 0x0 DUP1 REVERT JUMPDEST POP PUSH2 0x195 PUSH2 0x190 CALLDATASIZE PUSH1 0x4 PUSH2 0x1390 JUMP JUMPDEST PUSH2 0x91B JUMP JUMPDEST PUSH1 0x40 MLOAD PUSH2 0x109 SWAP2 SWAP1 PUSH2 0x140F JUMP JUMPDEST CALLVALUE DUP1 ISZERO PUSH2 0x1AE JUMPI PUSH1 0x0 DUP1 REVERT JUMPDEST POP PUSH2 0xFF PUSH2 0x1BD CALLDATASIZE PUSH1 0x4 PUSH2 0x155F JUMP JUMPDEST PUSH2 0x987 JUMP JUMPDEST CALLVALUE DUP1 ISZERO PUSH2 0x1CE JUMPI PUSH1 0x0 DUP1 REVERT JUMPDEST POP PUSH2 0xFF PUSH2 0x1DD CALLDATASIZE PUSH1 0x4 PUSH2 0x1642 JUMP JUMPDEST PUSH2 0xB40 JUMP JUMPDEST CALLVALUE DUP1 ISZERO PUSH2 0x1EE JUMPI PUSH1 0x0 DUP1 REVERT JUMPDEST POP PUSH2 0x202 PUSH2 0x1FD CALLDATASIZE PUSH1 0x4 PUSH2 0x1390 JUMP JUMPDEST PUSH2 0xB6A JUMP JUMPDEST PUSH1 0x40 MLOAD PUSH2 0x109 SWAP2 SWAP1 PUSH2 0x16C2 JUMP JUMPDEST CALLVALUE DUP1 ISZERO PUSH2 0x21B JUMPI PUSH1 0x0 DUP1 REVERT JUMPDEST POP PUSH2 0x15D PUSH20 0xEEEEEEEEEEEEEEEEEEEEEEEEEEEEEEEEEEEEEEEE DUP2 JUMP JUMPDEST CALLVALUE DUP1 ISZERO PUSH2 0x243 JUMPI PUSH1 0x0 DUP1 REVERT JUMPDEST POP PUSH2 0x24C PUSH2 0xCF2 JUMP JUMPDEST PUSH1 0x40 MLOAD PUSH2 0x109 SWAP2 SWAP1 PUSH2 0x1718 JUMP JUMPDEST CALLVALUE DUP1 ISZERO PUSH2 0x265 JUMPI PUSH1 0x0 DUP1 REVERT JUMPDEST POP PUSH2 0x279 PUSH2 0x274 CALLDATASIZE PUSH1 0x4 PUSH2 0x1390 JUMP JUMPDEST PUSH2 0xD4A JUMP JUMPDEST PUSH1 0x40 MLOAD PUSH2 0x109 SWAP2 SWAP1 PUSH2 0x1783 JUMP JUMPDEST CALLVALUE DUP1 ISZERO PUSH2 0x292 JUMPI PUSH1 0x0 DUP1 REVERT JUMPDEST POP PUSH2 0x2A6 PUSH2 0x2A1 CALLDATASIZE PUSH1 0x4 PUSH2 0x1390 JUMP JUMPDEST PUSH2 0xDC2 JUMP JUMPDEST PUSH1 0x40 MLOAD SWAP1 ISZERO ISZERO DUP2 MSTORE PUSH1 0x20 ADD PUSH2 0x109 JUMP JUMPDEST CALLVALUE DUP1 ISZERO PUSH2 0x2C2 JUMPI PUSH1 0x0 DUP1 REVERT JUMPDEST POP PUSH2 0x125 PUSH2 0x2D1 CALLDATASIZE PUSH1 0x4 PUSH2 0x1390 JUMP JUMPDEST PUSH2 0xE4D JUMP JUMPDEST CALLVALUE DUP1 ISZERO PUSH2 0x2E2 JUMPI PUSH1 0x0 DUP1 REVERT JUMPDEST POP PUSH2 0x15D PUSH2 0x2F1 CALLDATASIZE PUSH1 0x4 PUSH2 0x1390 JUMP JUMPDEST PUSH1 0x0 SWAP1 DUP2 MSTORE PUSH1 0x9 PUSH1 0x20 MSTORE PUSH1 0x40 SWAP1 KECCAK256 SLOAD PUSH1 0x1 PUSH1 0x1 PUSH1 0xA0 SHL SUB AND SWAP1 JUMP JUMPDEST PUSH2 0x314 PUSH2 0x10C9 JUMP JUMPDEST PUSH2 0x31D DUP3 PUSH2 0xDC2 JUMP JUMPDEST PUSH2 0x367 JUMPI PUSH1 0x40 MLOAD PUSH3 0x461BCD PUSH1 0xE5 SHL DUP2 MSTORE PUSH1 0x20 PUSH1 0x4 DUP3 ADD MSTORE PUSH1 0x16 PUSH1 0x24 DUP3 ADD MSTORE PUSH22 0x141C9BDA9958DD08191BD95CC81B9BDD08195E1A5CDD PUSH1 0x52 SHL PUSH1 0x44 DUP3 ADD MSTORE PUSH1 0x64 ADD JUMPDEST PUSH1 0x40 MLOAD DUP1 SWAP2 SUB SWAP1 REVERT JUMPDEST DUP1 ISZERO DUP1 PUSH2 0x374 JUMPI POP CALLVALUE DUP2 EQ ISZERO JUMPDEST ISZERO PUSH2 0x392 JUMPI PUSH1 0x40 MLOAD PUSH4 0x3E09BB9 PUSH1 0xE3 SHL DUP2 MSTORE PUSH1 0x4 ADD PUSH1 0x40 MLOAD DUP1 SWAP2 SUB SWAP1 REVERT JUMPDEST PUSH1 0x0 DUP3 DUP2 MSTORE PUSH1 0x8 PUSH1 0x20 MSTORE PUSH1 0x40 DUP2 KECCAK256 PUSH1 0x1 ADD DUP1 SLOAD DUP4 SWAP3 SWAP1 PUSH2 0x3B3 SWAP1 DUP5 SWAP1 PUSH2 0x1817 JUMP JUMPDEST SWAP1 SWAP2 SSTORE POP POP PUSH1 0x0 DUP3 DUP2 MSTORE PUSH1 0x7 PUSH1 0x20 SWAP1 DUP2 MSTORE PUSH1 0x40 DUP1 DUP4 KECCAK256 CALLER DUP5 MSTORE SWAP1 SWAP2 MSTORE DUP2 KECCAK256 SLOAD SWAP1 SUB PUSH2 0x407 JUMPI PUSH1 0x0 DUP3 DUP2 MSTORE PUSH1 0x6 PUSH1 0x20 SWAP1 DUP2 MSTORE PUSH1 0x40 DUP3 KECCAK256 DUP1 SLOAD PUSH1 0x1 DUP2 ADD DUP3 SSTORE SWAP1 DUP4 MSTORE SWAP2 KECCAK256 ADD DUP1 SLOAD PUSH1 0x1 PUSH1 0x1 PUSH1 0xA0 SHL SUB NOT AND CALLER OR SWAP1 SSTORE JUMPDEST PUSH1 0x0 DUP3 DUP2 MSTORE PUSH1 0x7 PUSH1 0x20 SWAP1 DUP2 MSTORE PUSH1 0x40 DUP1 DUP4 KECCAK256 CALLER DUP5 MSTORE SWAP1 SWAP2 MSTORE DUP2 KECCAK256 DUP1 SLOAD DUP4 SWAP3 SWAP1 PUSH2 0x430 SWAP1 DUP5 SWAP1 PUSH2 0x1817 JUMP JUMPDEST SWAP1 SWAP2 SSTORE POP POP PUSH1 0x40 MLOAD DUP2 DUP2 MSTORE DUP3 SWAP1 PUSH32 0x315CB30DD854BD9E9DF31E31754930BA16B498240F74A4EF23531F84C4EE4910 SWAP1 PUSH1 0x20 ADD PUSH1 0x40 MLOAD DUP1 SWAP2 SUB SWAP1 LOG2 PUSH1 0x0 DUP3 DUP2 MSTORE PUSH1 0x8 PUSH1 0x20 MSTORE PUSH1 0x40 SWAP1 KECCAK256 DUP1 SLOAD PUSH1 0x1 SWAP1 SWAP2 ADD SLOAD LT PUSH2 0x90D JUMPI PUSH1 0x0 PUSH2 0x490 DUP4 PUSH2 0x10F3 JUMP JUMPDEST PUSH1 0x40 DUP1 MLOAD PUSH1 0x80 DUP2 ADD DUP3 MSTORE PUSH1 0x0 DUP1 DUP3 MSTORE PUSH1 0x20 DUP3 ADD DUP2 SWAP1 MSTORE SWAP2 DUP2 ADD DUP3 SWAP1 MSTORE PUSH1 0x60 DUP2 ADD DUP4 SWAP1 MSTORE DUP3 MLOAD SWAP3 SWAP4 POP SWAP2 PUSH2 0x4C4 SWAP1 PUSH1 0x1 PUSH2 0x1817 JUMP JUMPDEST PUSH8 0xFFFFFFFFFFFFFFFF DUP2 GT ISZERO PUSH2 0x4DC JUMPI PUSH2 0x4DC PUSH2 0x1429 JUMP JUMPDEST PUSH1 0x40 MLOAD SWAP1 DUP1 DUP3 MSTORE DUP1 PUSH1 0x20 MUL PUSH1 0x20 ADD DUP3 ADD PUSH1 0x40 MSTORE DUP1 ISZERO PUSH2 0x505 JUMPI DUP2 PUSH1 0x20 ADD PUSH1 0x20 DUP3 MUL DUP1 CALLDATASIZE DUP4 CALLDATACOPY ADD SWAP1 POP JUMPDEST POP SWAP1 POP PUSH1 0x0 JUMPDEST DUP4 MLOAD DUP2 LT ISZERO PUSH2 0x56E JUMPI DUP4 DUP2 DUP2 MLOAD DUP2 LT PUSH2 0x526 JUMPI PUSH2 0x526 PUSH2 0x182A JUMP JUMPDEST PUSH1 0x20 MUL PUSH1 0x20 ADD ADD MLOAD PUSH1 0x0 ADD MLOAD DUP3 DUP3 DUP2 MLOAD DUP2 LT PUSH2 0x544 JUMPI PUSH2 0x544 PUSH2 0x182A JUMP JUMPDEST PUSH1 0x1 PUSH1 0x1 PUSH1 0xA0 SHL SUB SWAP1 SWAP3 AND PUSH1 0x20 SWAP3 DUP4 MUL SWAP2 SWAP1 SWAP2 ADD SWAP1 SWAP2 ADD MSTORE DUP1 PUSH2 0x566 DUP2 PUSH2 0x1840 JUMP JUMPDEST SWAP2 POP POP PUSH2 0x50B JUMP JUMPDEST POP ADDRESS DUP2 DUP5 MLOAD DUP2 MLOAD DUP2 LT PUSH2 0x583 JUMPI PUSH2 0x583 PUSH2 0x182A JUMP JUMPDEST PUSH1 0x1 PUSH1 0x1 PUSH1 0xA0 SHL SUB SWAP1 SWAP3 AND PUSH1 0x20 SWAP3 DUP4 MUL SWAP2 SWAP1 SWAP2 ADD DUP3 ADD MSTORE PUSH1 0x40 DUP1 MLOAD DUP1 DUP3 ADD DUP3 MSTORE PUSH1 0x1 DUP2 MSTORE DUP2 MLOAD DUP1 DUP4 ADD DUP4 MSTORE PUSH1 0xD DUP2 MSTORE PUSH13 0x32B6B83A3C903837B4B73A32B9 PUSH1 0x99 SHL DUP2 DUP6 ADD MSTORE DUP2 DUP5 ADD MSTORE SWAP1 MLOAD SWAP1 SWAP2 PUSH1 0x0 SWAP2 PUSH2 0x5DE SWAP2 DUP7 SWAP2 ADD PUSH2 0x1859 JUMP JUMPDEST PUSH1 0x40 DUP1 MLOAD DUP1 DUP4 SUB PUSH1 0x1F NOT ADD DUP2 MSTORE DUP3 DUP3 MSTORE PUSH1 0x0 DUP11 DUP2 MSTORE PUSH1 0x8 PUSH1 0x20 MSTORE SWAP2 SWAP1 SWAP2 KECCAK256 SLOAD PUSH1 0x4 DUP1 SLOAD PUSH1 0x3 SLOAD PUSH4 0x7316BCD1 PUSH1 0xE0 SHL DUP7 MSTORE PUSH1 0x1 PUSH1 0x1 PUSH1 0xA0 SHL SUB SWAP1 DUP2 AND SWAP3 DUP7 ADD SWAP3 SWAP1 SWAP3 MSTORE SWAP3 SWAP5 POP SWAP1 SWAP3 SWAP2 AND SWAP1 PUSH4 0x7316BCD1 SWAP1 PUSH1 0x24 ADD PUSH1 0x20 PUSH1 0x40 MLOAD DUP1 DUP4 SUB DUP2 PUSH1 0x0 DUP8 GAS CALL ISZERO DUP1 ISZERO PUSH2 0x650 JUMPI RETURNDATASIZE PUSH1 0x0 DUP1 RETURNDATACOPY RETURNDATASIZE PUSH1 0x0 REVERT JUMPDEST POP POP POP POP PUSH1 0x40 MLOAD RETURNDATASIZE PUSH1 0x1F NOT PUSH1 0x1F DUP3 ADD AND DUP3 ADD DUP1 PUSH1 0x40 MSTORE POP DUP2 ADD SWAP1 PUSH2 0x674 SWAP2 SWAP1 PUSH2 0x18F0 JUMP JUMPDEST PUSH1 0x0 DUP10 DUP2 MSTORE PUSH1 0xB PUSH1 0x20 MSTORE PUSH1 0x40 DUP1 DUP3 KECCAK256 DUP1 SLOAD PUSH1 0x1 PUSH1 0x1 PUSH1 0xA0 SHL SUB NOT AND PUSH1 0x1 PUSH1 0x1 PUSH1 0xA0 SHL SUB SWAP5 DUP6 AND SWAP1 DUP2 OR SWAP1 SWAP2 SSTORE PUSH1 0x2 SLOAD SWAP2 MLOAD PUSH4 0x70803EA5 PUSH1 0xE1 SHL DUP2 MSTORE SWAP3 SWAP4 SWAP2 SWAP1 SWAP2 AND SWAP2 PUSH4 0xE1007D4A SWAP2 CALLVALUE SWAP2 PUSH2 0x6EA SWAP2 DUP15 SWAP2 DUP10 SWAP1 PUSH20 0xEEEEEEEEEEEEEEEEEEEEEEEEEEEEEEEEEEEEEEEE SWAP1 DUP10 SWAP1 DUP14 SWAP1 DUP16 SWAP1 PUSH1 0x4 ADD PUSH2 0x190D JUMP JUMPDEST PUSH1 0x20 PUSH1 0x40 MLOAD DUP1 DUP4 SUB DUP2 DUP6 DUP9 GAS CALL ISZERO DUP1 ISZERO PUSH2 0x708 JUMPI RETURNDATASIZE PUSH1 0x0 DUP1 RETURNDATACOPY RETURNDATASIZE PUSH1 0x0 REVERT JUMPDEST POP POP POP POP POP PUSH1 0x40 MLOAD RETURNDATASIZE PUSH1 0x1F NOT PUSH1 0x1F DUP3 ADD AND DUP3 ADD DUP1 PUSH1 0x40 MSTORE POP DUP2 ADD SWAP1 PUSH2 0x72D SWAP2 SWAP1 PUSH2 0x1978 JUMP JUMPDEST PUSH1 0x0 DUP11 DUP2 MSTORE PUSH1 0x8 PUSH1 0x20 MSTORE PUSH1 0x40 SWAP1 KECCAK256 SLOAD SWAP1 SWAP2 POP SELFBALANCE LT ISZERO PUSH2 0x78E JUMPI PUSH1 0x40 MLOAD PUSH3 0x461BCD PUSH1 0xE5 SHL DUP2 MSTORE PUSH1 0x20 PUSH1 0x4 DUP3 ADD DUP2 SWAP1 MSTORE PUSH1 0x24 DUP3 ADD MSTORE PUSH32 0x496E73756666696369656E742062616C616E636520696E20636F6E7472616374 PUSH1 0x44 DUP3 ADD MSTORE PUSH1 0x64 ADD PUSH2 0x35E JUMP JUMPDEST PUSH1 0x2 SLOAD PUSH1 0x0 DUP11 DUP2 MSTORE PUSH1 0x8 PUSH1 0x20 MSTORE PUSH1 0x40 SWAP1 DUP2 SWAP1 KECCAK256 SLOAD SWAP1 MLOAD PUSH4 0x16B35BEB PUSH1 0xE2 SHL DUP2 MSTORE PUSH1 0x4 DUP2 ADD DUP5 SWAP1 MSTORE PUSH1 0x24 DUP2 ADD DUP3 SWAP1 MSTORE PUSH1 0x1 PUSH1 0x1 PUSH1 0xA0 SHL SUB SWAP1 SWAP3 AND SWAP2 PUSH4 0x5ACD6FAC SWAP2 SWAP1 PUSH1 0x44 ADD PUSH1 0x0 PUSH1 0x40 MLOAD DUP1 DUP4 SUB DUP2 DUP6 DUP9 DUP1 EXTCODESIZE ISZERO DUP1 ISZERO PUSH2 0x7EB JUMPI PUSH1 0x0 DUP1 REVERT JUMPDEST POP GAS CALL ISZERO DUP1 ISZERO PUSH2 0x7FF JUMPI RETURNDATASIZE PUSH1 0x0 DUP1 RETURNDATACOPY RETURNDATASIZE PUSH1 0x0 REVERT JUMPDEST POP POP POP PUSH1 0x0 DUP12 DUP2 MSTORE PUSH1 0x9 PUSH1 0x20 SWAP1 DUP2 MSTORE PUSH1 0x40 DUP1 DUP4 KECCAK256 SLOAD SWAP1 MLOAD SWAP3 SWAP5 POP PUSH2 0x834 SWAP4 POP PUSH1 0x1 PUSH1 0x1 PUSH1 0xA0 SHL SUB AND SWAP2 DUP5 SWAP2 DUP8 SWAP2 DUP11 SWAP2 ADD PUSH2 0x1991 JUMP JUMPDEST PUSH1 0x40 DUP1 MLOAD PUSH1 0x1F NOT DUP2 DUP5 SUB ADD DUP2 MSTORE SWAP1 DUP3 SWAP1 MSTORE PUSH1 0x2 SLOAD PUSH4 0x1D703A7 PUSH1 0xE2 SHL DUP4 MSTORE SWAP1 SWAP3 POP PUSH1 0x1 PUSH1 0x1 PUSH1 0xA0 SHL SUB AND SWAP1 PUSH4 0x75C0E9C SWAP1 PUSH2 0x875 SWAP1 DUP6 SWAP1 DUP6 SWAP1 PUSH1 0x4 ADD PUSH2 0x19CE JUMP JUMPDEST PUSH1 0x20 PUSH1 0x40 MLOAD DUP1 DUP4 SUB DUP2 PUSH1 0x0 DUP8 GAS CALL ISZERO DUP1 ISZERO PUSH2 0x894 JUMPI RETURNDATASIZE PUSH1 0x0 DUP1 RETURNDATACOPY RETURNDATASIZE PUSH1 0x0 REVERT JUMPDEST POP POP POP POP PUSH1 0x40 MLOAD RETURNDATASIZE PUSH1 0x1F NOT PUSH1 0x1F DUP3 ADD AND DUP3 ADD DUP1 PUSH1 0x40 MSTORE POP DUP2 ADD SWAP1 PUSH2 0x8B8 SWAP2 SWAP1 PUSH2 0x18F0 JUMP JUMPDEST POP PUSH1 0x0 DUP11 DUP2 MSTORE PUSH1 0xA PUSH1 0x20 SWAP1 DUP2 MSTORE PUSH1 0x40 SWAP2 DUP3 SWAP1 KECCAK256 DUP5 SWAP1 SSTORE DUP2 MLOAD DUP13 DUP2 MSTORE SWAP1 DUP2 ADD DUP5 SWAP1 MSTORE PUSH32 0xC5D45CF1508CAE377CC227A37EA00B97FA9E86E03CE72364A0B7E85E36BAACEC SWAP2 ADD PUSH1 0x40 MLOAD DUP1 SWAP2 SUB SWAP1 LOG1 POP POP POP POP POP POP POP POP JUMPDEST PUSH2 0x917 PUSH1 0x1 PUSH1 0x0 SSTORE JUMP JUMPDEST POP POP JUMP JUMPDEST PUSH1 0x0 DUP2 DUP2 MSTORE PUSH1 0x6 PUSH1 0x20 SWAP1 DUP2 MSTORE PUSH1 0x40 SWAP2 DUP3 SWAP1 KECCAK256 DUP1 SLOAD DUP4 MLOAD DUP2 DUP5 MUL DUP2 ADD DUP5 ADD SWAP1 SWAP5 MSTORE DUP1 DUP5 MSTORE PUSH1 0x60 SWAP4 SWAP3 DUP4 ADD DUP3 DUP3 DUP1 ISZERO PUSH2 0x97B JUMPI PUSH1 0x20 MUL DUP3 ADD SWAP2 SWAP1 PUSH1 0x0 MSTORE PUSH1 0x20 PUSH1 0x0 KECCAK256 SWAP1 JUMPDEST DUP2 SLOAD PUSH1 0x1 PUSH1 0x1 PUSH1 0xA0 SHL SUB AND DUP2 MSTORE PUSH1 0x1 SWAP1 SWAP2 ADD SWAP1 PUSH1 0x20 ADD DUP1 DUP4 GT PUSH2 0x95D JUMPI JUMPDEST POP POP POP POP POP SWAP1 POP SWAP2 SWAP1 POP JUMP JUMPDEST PUSH1 0x40 DUP1 MLOAD PUSH1 0x2 DUP1 DUP3 MSTORE PUSH1 0x60 DUP3 ADD DUP4 MSTORE PUSH1 0x0 SWAP3 DUP4 SWAP3 SWAP2 SWAP1 PUSH1 0x20 DUP4 ADD SWAP1 DUP1 CALLDATASIZE DUP4 CALLDATACOPY ADD SWAP1 POP POP SWAP1 POP DUP4 DUP2 PUSH1 0x0 DUP2 MLOAD DUP2 LT PUSH2 0x9C0 JUMPI PUSH2 0x9C0 PUSH2 0x182A JUMP JUMPDEST PUSH1 0x20 MUL PUSH1 0x20 ADD ADD SWAP1 PUSH1 0x1 PUSH1 0x1 PUSH1 0xA0 SHL SUB AND SWAP1 DUP2 PUSH1 0x1 PUSH1 0x1 PUSH1 0xA0 SHL SUB AND DUP2 MSTORE POP POP ADDRESS DUP2 PUSH1 0x1 DUP2 MLOAD DUP2 LT PUSH2 0x9F4 JUMPI PUSH2 0x9F4 PUSH2 0x182A JUMP JUMPDEST PUSH1 0x1 PUSH1 0x1 PUSH1 0xA0 SHL SUB SWAP3 DUP4 AND PUSH1 0x20 SWAP2 DUP3 MUL SWAP3 SWAP1 SWAP3 ADD ADD MSTORE PUSH1 0x1 SLOAD PUSH1 0x40 MLOAD PUSH4 0x3A92F65F PUSH1 0xE0 SHL DUP2 MSTORE SWAP2 AND SWAP1 PUSH4 0x3A92F65F SWAP1 PUSH2 0xA39 SWAP1 DUP11 SWAP1 DUP11 SWAP1 DUP11 SWAP1 ADDRESS SWAP1 DUP9 SWAP1 PUSH1 0x4 ADD PUSH2 0x19E7 JUMP JUMPDEST PUSH1 0x20 PUSH1 0x40 MLOAD DUP1 DUP4 SUB DUP2 PUSH1 0x0 DUP8 GAS CALL ISZERO DUP1 ISZERO PUSH2 0xA58 JUMPI RETURNDATASIZE PUSH1 0x0 DUP1 RETURNDATACOPY RETURNDATASIZE PUSH1 0x0 REVERT JUMPDEST POP POP POP POP PUSH1 0x40 MLOAD RETURNDATASIZE PUSH1 0x1F NOT PUSH1 0x1F DUP3 ADD AND DUP3 ADD DUP1 PUSH1 0x40 MSTORE POP DUP2 ADD SWAP1 PUSH2 0xA7C SWAP2 SWAP1 PUSH2 0x1978 JUMP JUMPDEST PUSH1 0x5 DUP1 SLOAD PUSH1 0x1 DUP2 ADD SWAP1 SWAP2 SSTORE PUSH32 0x36B6384B5ECA791C62761152D0C79BB0604C104A5FB6F4EB0703F3154BB3DB0 ADD DUP2 SWAP1 SSTORE PUSH1 0x0 DUP2 DUP2 MSTORE PUSH1 0x8 PUSH1 0x20 MSTORE PUSH1 0x40 DUP2 KECCAK256 DUP1 SLOAD SWAP3 SWAP5 POP DUP11 SWAP3 SWAP1 SWAP2 SWAP1 PUSH2 0xACF SWAP1 DUP5 SWAP1 PUSH2 0x1817 JUMP JUMPDEST SWAP1 SWAP2 SSTORE POP POP PUSH1 0x0 DUP3 DUP2 MSTORE PUSH1 0x8 PUSH1 0x20 MSTORE PUSH1 0x40 SWAP1 KECCAK256 PUSH1 0x2 ADD PUSH2 0xAEF DUP8 DUP3 PUSH2 0x1AC9 JUMP JUMPDEST POP PUSH1 0x0 DUP3 DUP2 MSTORE PUSH1 0x8 PUSH1 0x20 MSTORE PUSH1 0x40 SWAP1 KECCAK256 PUSH1 0x3 ADD PUSH2 0xB0B DUP5 DUP3 PUSH2 0x1AC9 JUMP JUMPDEST POP POP PUSH1 0x0 DUP2 DUP2 MSTORE PUSH1 0x9 PUSH1 0x20 MSTORE PUSH1 0x40 SWAP1 KECCAK256 DUP1 SLOAD PUSH1 0x1 PUSH1 0x1 PUSH1 0xA0 SHL SUB DUP6 AND PUSH1 0x1 PUSH1 0x1 PUSH1 0xA0 SHL SUB NOT SWAP1 SWAP2 AND OR SWAP1 SSTORE SWAP7 SWAP6 POP POP POP POP POP POP JUMP JUMPDEST PUSH1 0x0 DUP3 DUP2 MSTORE PUSH1 0x7 PUSH1 0x20 SWAP1 DUP2 MSTORE PUSH1 0x40 DUP1 DUP4 KECCAK256 PUSH1 0x1 PUSH1 0x1 PUSH1 0xA0 SHL SUB DUP6 AND DUP5 MSTORE SWAP1 SWAP2 MSTORE SWAP1 KECCAK256 SLOAD JUMPDEST SWAP3 SWAP2 POP POP JUMP JUMPDEST PUSH2 0xB95 PUSH1 0x40 MLOAD DUP1 PUSH1 0x80 ADD PUSH1 0x40 MSTORE DUP1 PUSH1 0x0 DUP2 MSTORE PUSH1 0x20 ADD PUSH1 0x0 DUP2 MSTORE PUSH1 0x20 ADD PUSH1 0x60 DUP2 MSTORE PUSH1 0x20 ADD PUSH1 0x60 DUP2 MSTORE POP SWAP1 JUMP JUMPDEST PUSH1 0x8 PUSH1 0x0 DUP4 DUP2 MSTORE PUSH1 0x20 ADD SWAP1 DUP2 MSTORE PUSH1 0x20 ADD PUSH1 0x0 KECCAK256 PUSH1 0x40 MLOAD DUP1 PUSH1 0x80 ADD PUSH1 0x40 MSTORE SWAP1 DUP2 PUSH1 0x0 DUP3 ADD SLOAD DUP2 MSTORE PUSH1 0x20 ADD PUSH1 0x1 DUP3 ADD SLOAD DUP2 MSTORE PUSH1 0x20 ADD PUSH1 0x2 DUP3 ADD DUP1 SLOAD PUSH2 0xBD7 SWAP1 PUSH2 0x1A41 JUMP JUMPDEST DUP1 PUSH1 0x1F ADD PUSH1 0x20 DUP1 SWAP2 DIV MUL PUSH1 0x20 ADD PUSH1 0x40 MLOAD SWAP1 DUP2 ADD PUSH1 0x40 MSTORE DUP1 SWAP3 SWAP2 SWAP1 DUP2 DUP2 MSTORE PUSH1 0x20 ADD DUP3 DUP1 SLOAD PUSH2 0xC03 SWAP1 PUSH2 0x1A41 JUMP JUMPDEST DUP1 ISZERO PUSH2 0xC50 JUMPI DUP1 PUSH1 0x1F LT PUSH2 0xC25 JUMPI PUSH2 0x100 DUP1 DUP4 SLOAD DIV MUL DUP4 MSTORE SWAP2 PUSH1 0x20 ADD SWAP2 PUSH2 0xC50 JUMP JUMPDEST DUP3 ADD SWAP2 SWAP1 PUSH1 0x0 MSTORE PUSH1 0x20 PUSH1 0x0 KECCAK256 SWAP1 JUMPDEST DUP2 SLOAD DUP2 MSTORE SWAP1 PUSH1 0x1 ADD SWAP1 PUSH1 0x20 ADD DUP1 DUP4 GT PUSH2 0xC33 JUMPI DUP3 SWAP1 SUB PUSH1 0x1F AND DUP3 ADD SWAP2 JUMPDEST POP POP POP POP POP DUP2 MSTORE PUSH1 0x20 ADD PUSH1 0x3 DUP3 ADD DUP1 SLOAD PUSH2 0xC69 SWAP1 PUSH2 0x1A41 JUMP JUMPDEST DUP1 PUSH1 0x1F ADD PUSH1 0x20 DUP1 SWAP2 DIV MUL PUSH1 0x20 ADD PUSH1 0x40 MLOAD SWAP1 DUP2 ADD PUSH1 0x40 MSTORE DUP1 SWAP3 SWAP2 SWAP1 DUP2 DUP2 MSTORE PUSH1 0x20 ADD DUP3 DUP1 SLOAD PUSH2 0xC95 SWAP1 PUSH2 0x1A41 JUMP JUMPDEST DUP1 ISZERO PUSH2 0xCE2 JUMPI DUP1 PUSH1 0x1F LT PUSH2 0xCB7 JUMPI PUSH2 0x100 DUP1 DUP4 SLOAD DIV MUL DUP4 MSTORE SWAP2 PUSH1 0x20 ADD SWAP2 PUSH2 0xCE2 JUMP JUMPDEST DUP3 ADD SWAP2 SWAP1 PUSH1 0x0 MSTORE PUSH1 0x20 PUSH1 0x0 KECCAK256 SWAP1 JUMPDEST DUP2 SLOAD DUP2 MSTORE SWAP1 PUSH1 0x1 ADD SWAP1 PUSH1 0x20 ADD DUP1 DUP4 GT PUSH2 0xCC5 JUMPI DUP3 SWAP1 SUB PUSH1 0x1F AND DUP3 ADD SWAP2 JUMPDEST POP POP POP POP POP DUP2 MSTORE POP POP SWAP1 POP SWAP2 SWAP1 POP JUMP JUMPDEST PUSH1 0x60 PUSH1 0x5 DUP1 SLOAD DUP1 PUSH1 0x20 MUL PUSH1 0x20 ADD PUSH1 0x40 MLOAD SWAP1 DUP2 ADD PUSH1 0x40 MSTORE DUP1 SWAP3 SWAP2 SWAP1 DUP2 DUP2 MSTORE PUSH1 0x20 ADD DUP3 DUP1 SLOAD DUP1 ISZERO PUSH2 0xD40 JUMPI PUSH1 0x20 MUL DUP3 ADD SWAP2 SWAP1 PUSH1 0x0 MSTORE PUSH1 0x20 PUSH1 0x0 KECCAK256 SWAP1 JUMPDEST DUP2 SLOAD DUP2 MSTORE PUSH1 0x20 ADD SWAP1 PUSH1 0x1 ADD SWAP1 DUP1 DUP4 GT PUSH2 0xD2C JUMPI JUMPDEST POP POP POP POP POP SWAP1 POP SWAP1 JUMP JUMPDEST PUSH2 0xD52 PUSH2 0x12C2 JUMP JUMPDEST PUSH1 0x1 SLOAD PUSH1 0x40 MLOAD PUSH3 0x8A6785 PUSH1 0xE1 SHL DUP2 MSTORE PUSH1 0x4 DUP2 ADD DUP5 SWAP1 MSTORE PUSH1 0x1 PUSH1 0x1 PUSH1 0xA0 SHL SUB SWAP1 SWAP2 AND SWAP1 PUSH4 0x114CF0A SWAP1 PUSH1 0x24 ADD PUSH1 0x0 PUSH1 0x40 MLOAD DUP1 DUP4 SUB DUP2 DUP7 GAS STATICCALL ISZERO DUP1 ISZERO PUSH2 0xD9A JUMPI RETURNDATASIZE PUSH1 0x0 DUP1 RETURNDATACOPY RETURNDATASIZE PUSH1 0x0 REVERT JUMPDEST POP POP POP POP PUSH1 0x40 MLOAD RETURNDATASIZE PUSH1 0x0 DUP3 RETURNDATACOPY PUSH1 0x1F RETURNDATASIZE SWAP1 DUP2 ADD PUSH1 0x1F NOT AND DUP3 ADD PUSH1 0x40 MSTORE PUSH2 0xB64 SWAP2 SWAP1 DUP2 ADD SWAP1 PUSH2 0x1C20 JUMP JUMPDEST PUSH1 0x1 SLOAD PUSH1 0x40 MLOAD PUSH3 0x8A6785 PUSH1 0xE1 SHL DUP2 MSTORE PUSH1 0x4 DUP2 ADD DUP4 SWAP1 MSTORE PUSH1 0x0 SWAP2 DUP3 SWAP2 PUSH1 0x1 PUSH1 0x1 PUSH1 0xA0 SHL SUB SWAP1 SWAP2 AND SWAP1 PUSH4 0x114CF0A SWAP1 PUSH1 0x24 ADD PUSH1 0x0 PUSH1 0x40 MLOAD DUP1 DUP4 SUB DUP2 DUP7 GAS STATICCALL ISZERO DUP1 ISZERO PUSH2 0xE0F JUMPI RETURNDATASIZE PUSH1 0x0 DUP1 RETURNDATACOPY RETURNDATASIZE PUSH1 0x0 REVERT JUMPDEST POP POP POP POP PUSH1 0x40 MLOAD RETURNDATASIZE PUSH1 0x0 DUP3 RETURNDATACOPY PUSH1 0x1F RETURNDATASIZE SWAP1 DUP2 ADD PUSH1 0x1F NOT AND DUP3 ADD PUSH1 0x40 MSTORE PUSH2 0xE37 SWAP2 SWAP1 DUP2 ADD SWAP1 PUSH2 0x1C20 JUMP JUMPDEST PUSH1 0x80 ADD MLOAD PUSH1 0x1 PUSH1 0x1 PUSH1 0xA0 SHL SUB AND ISZERO ISZERO SWAP4 SWAP3 POP POP POP JUMP JUMPDEST PUSH2 0xE55 PUSH2 0x10C9 JUMP JUMPDEST PUSH2 0xE5E DUP2 PUSH2 0xDC2 JUMP JUMPDEST PUSH2 0xEA3 JUMPI PUSH1 0x40 MLOAD PUSH3 0x461BCD PUSH1 0xE5 SHL DUP2 MSTORE PUSH1 0x20 PUSH1 0x4 DUP3 ADD MSTORE PUSH1 0x16 PUSH1 0x24 DUP3 ADD MSTORE PUSH22 0x141C9BDA9958DD08191BD95CC81B9BDD08195E1A5CDD PUSH1 0x52 SHL PUSH1 0x44 DUP3 ADD MSTORE PUSH1 0x64 ADD PUSH2 0x35E JUMP JUMPDEST PUSH1 0x0 DUP2 DUP2 MSTORE PUSH1 0x7 PUSH1 0x20 SWAP1 DUP2 MSTORE PUSH1 0x40 DUP1 DUP4 KECCAK256 CALLER DUP5 MSTORE SWAP1 SWAP2 MSTORE SWAP1 KECCAK256 SLOAD DUP1 PUSH2 0xEFD JUMPI PUSH1 0x40 MLOAD PUSH3 0x461BCD PUSH1 0xE5 SHL DUP2 MSTORE PUSH1 0x20 PUSH1 0x4 DUP3 ADD MSTORE PUSH1 0x10 PUSH1 0x24 DUP3 ADD MSTORE PUSH16 0x14D554141316481393D5081193D55391 PUSH1 0x82 SHL PUSH1 0x44 DUP3 ADD MSTORE PUSH1 0x64 ADD PUSH2 0x35E JUMP JUMPDEST PUSH1 0x0 DUP3 DUP2 MSTORE PUSH1 0x7 PUSH1 0x20 SWAP1 DUP2 MSTORE PUSH1 0x40 DUP1 DUP4 KECCAK256 CALLER DUP5 MSTORE DUP3 MSTORE DUP1 DUP4 KECCAK256 DUP4 SWAP1 SSTORE DUP5 DUP4 MSTORE PUSH1 0x8 SWAP1 SWAP2 MSTORE DUP2 KECCAK256 PUSH1 0x1 ADD DUP1 SLOAD DUP4 SWAP3 SWAP1 PUSH2 0xF36 SWAP1 DUP5 SWAP1 PUSH2 0x1CE7 JUMP JUMPDEST SWAP1 SWAP2 SSTORE POP POP PUSH1 0x0 DUP3 DUP2 MSTORE PUSH1 0x6 PUSH1 0x20 MSTORE PUSH1 0x40 DUP2 KECCAK256 SLOAD PUSH2 0xF56 SWAP1 PUSH1 0x1 SWAP1 PUSH2 0x1CE7 JUMP JUMPDEST PUSH8 0xFFFFFFFFFFFFFFFF DUP2 GT ISZERO PUSH2 0xF6E JUMPI PUSH2 0xF6E PUSH2 0x1429 JUMP JUMPDEST PUSH1 0x40 MLOAD SWAP1 DUP1 DUP3 MSTORE DUP1 PUSH1 0x20 MUL PUSH1 0x20 ADD DUP3 ADD PUSH1 0x40 MSTORE DUP1 ISZERO PUSH2 0xF97 JUMPI DUP2 PUSH1 0x20 ADD PUSH1 0x20 DUP3 MUL DUP1 CALLDATASIZE DUP4 CALLDATACOPY ADD SWAP1 POP JUMPDEST POP SWAP1 POP PUSH1 0x0 DUP1 JUMPDEST PUSH1 0x0 DUP6 DUP2 MSTORE PUSH1 0x6 PUSH1 0x20 MSTORE PUSH1 0x40 SWAP1 KECCAK256 SLOAD DUP2 LT ISZERO PUSH2 0x1079 JUMPI PUSH1 0x0 DUP6 DUP2 MSTORE PUSH1 0x6 PUSH1 0x20 MSTORE PUSH1 0x40 SWAP1 KECCAK256 DUP1 SLOAD CALLER SWAP2 SWAP1 DUP4 SWAP1 DUP2 LT PUSH2 0xFD7 JUMPI PUSH2 0xFD7 PUSH2 0x182A JUMP JUMPDEST PUSH1 0x0 SWAP2 DUP3 MSTORE PUSH1 0x20 SWAP1 SWAP2 KECCAK256 ADD SLOAD PUSH1 0x1 PUSH1 0x1 PUSH1 0xA0 SHL SUB AND EQ PUSH2 0x1067 JUMPI PUSH1 0x0 DUP6 DUP2 MSTORE PUSH1 0x6 PUSH1 0x20 MSTORE PUSH1 0x40 SWAP1 KECCAK256 DUP1 SLOAD DUP3 SWAP1 DUP2 LT PUSH2 0x1011 JUMPI PUSH2 0x1011 PUSH2 0x182A JUMP JUMPDEST SWAP1 PUSH1 0x0 MSTORE PUSH1 0x20 PUSH1 0x0 KECCAK256 ADD PUSH1 0x0 SWAP1 SLOAD SWAP1 PUSH2 0x100 EXP SWAP1 DIV PUSH1 0x1 PUSH1 0x1 PUSH1 0xA0 SHL SUB AND DUP4 DUP4 DUP2 MLOAD DUP2 LT PUSH2 0x1041 JUMPI PUSH2 0x1041 PUSH2 0x182A JUMP JUMPDEST PUSH1 0x1 PUSH1 0x1 PUSH1 0xA0 SHL SUB SWAP1 SWAP3 AND PUSH1 0x20 SWAP3 DUP4 MUL SWAP2 SWAP1 SWAP2 ADD SWAP1 SWAP2 ADD MSTORE DUP2 PUSH2 0x1063 DUP2 PUSH2 0x1840 JUMP JUMPDEST SWAP3 POP POP JUMPDEST DUP1 PUSH2 0x1071 DUP2 PUSH2 0x1840 JUMP JUMPDEST SWAP2 POP POP PUSH2 0xF9E JUMP JUMPDEST POP PUSH1 0x0 DUP5 DUP2 MSTORE PUSH1 0x6 PUSH1 0x20 SWAP1 DUP2 MSTORE PUSH1 0x40 SWAP1 SWAP2 KECCAK256 DUP4 MLOAD PUSH2 0x1099 SWAP3 DUP6 ADD SWAP1 PUSH2 0x1316 JUMP JUMPDEST POP PUSH2 0x10B9 PUSH20 0xEEEEEEEEEEEEEEEEEEEEEEEEEEEEEEEEEEEEEEEE CALLER DUP6 PUSH2 0x1221 JUMP JUMPDEST POP POP POP PUSH2 0x10C6 PUSH1 0x1 PUSH1 0x0 SSTORE JUMP JUMPDEST POP JUMP JUMPDEST PUSH1 0x2 PUSH1 0x0 SLOAD SUB PUSH2 0x10EC JUMPI PUSH1 0x40 MLOAD PUSH4 0x3EE5AEB5 PUSH1 0xE0 SHL DUP2 MSTORE PUSH1 0x4 ADD PUSH1 0x40 MLOAD DUP1 SWAP2 SUB SWAP1 REVERT JUMPDEST PUSH1 0x2 PUSH1 0x0 SSTORE JUMP JUMPDEST PUSH1 0x0 DUP2 DUP2 MSTORE PUSH1 0x6 PUSH1 0x20 MSTORE PUSH1 0x40 DUP2 KECCAK256 SLOAD PUSH1 0x60 SWAP2 SWAP1 PUSH8 0xFFFFFFFFFFFFFFFF DUP2 GT ISZERO PUSH2 0x111E JUMPI PUSH2 0x111E PUSH2 0x1429 JUMP JUMPDEST PUSH1 0x40 MLOAD SWAP1 DUP1 DUP3 MSTORE DUP1 PUSH1 0x20 MUL PUSH1 0x20 ADD DUP3 ADD PUSH1 0x40 MSTORE DUP1 ISZERO PUSH2 0x1163 JUMPI DUP2 PUSH1 0x20 ADD JUMPDEST PUSH1 0x40 DUP1 MLOAD DUP1 DUP3 ADD SWAP1 SWAP2 MSTORE PUSH1 0x0 DUP1 DUP3 MSTORE PUSH1 0x20 DUP3 ADD MSTORE DUP2 MSTORE PUSH1 0x20 ADD SWAP1 PUSH1 0x1 SWAP1 SUB SWAP1 DUP2 PUSH2 0x113C JUMPI SWAP1 POP JUMPDEST POP SWAP1 POP PUSH1 0x0 JUMPDEST PUSH1 0x0 DUP5 DUP2 MSTORE PUSH1 0x6 PUSH1 0x20 MSTORE PUSH1 0x40 SWAP1 KECCAK256 SLOAD DUP2 LT ISZERO PUSH2 0x121A JUMPI PUSH1 0x0 DUP5 DUP2 MSTORE PUSH1 0x6 PUSH1 0x20 MSTORE PUSH1 0x40 DUP2 KECCAK256 DUP1 SLOAD DUP4 SWAP1 DUP2 LT PUSH2 0x119F JUMPI PUSH2 0x119F PUSH2 0x182A JUMP JUMPDEST PUSH1 0x0 SWAP2 DUP3 MSTORE PUSH1 0x20 DUP1 DUP4 KECCAK256 SWAP1 SWAP2 ADD SLOAD DUP8 DUP4 MSTORE PUSH1 0x7 DUP3 MSTORE PUSH1 0x40 DUP1 DUP5 KECCAK256 PUSH1 0x1 PUSH1 0x1 PUSH1 0xA0 SHL SUB SWAP1 SWAP3 AND DUP1 DUP6 MSTORE SWAP2 DUP4 MSTORE SWAP3 DUP4 SWAP1 KECCAK256 SLOAD DUP4 MLOAD DUP1 DUP6 ADD SWAP1 SWAP5 MSTORE DUP2 DUP5 MSTORE SWAP2 DUP4 ADD DUP3 SWAP1 MSTORE DUP6 MLOAD SWAP1 SWAP4 POP SWAP1 SWAP2 SWAP1 DUP6 SWAP1 DUP6 SWAP1 DUP2 LT PUSH2 0x11FA JUMPI PUSH2 0x11FA PUSH2 0x182A JUMP JUMPDEST PUSH1 0x20 MUL PUSH1 0x20 ADD ADD DUP2 SWAP1 MSTORE POP POP POP DUP1 DUP1 PUSH2 0x1212 SWAP1 PUSH2 0x1840 JUMP JUMPDEST SWAP2 POP POP PUSH2 0x1169 JUMP JUMPDEST POP SWAP3 SWAP2 POP POP JUMP JUMPDEST PUSH20 0xEEEEEEEEEEEEEEEEEEEEEEEEEEEEEEEEEEEEEEED NOT PUSH1 0x1 PUSH1 0x1 PUSH1 0xA0 SHL SUB DUP5 AND ADD PUSH2 0x1255 JUMPI PUSH2 0x1250 DUP3 DUP3 PUSH2 0x1260 JUMP JUMPDEST POP POP POP JUMP JUMPDEST PUSH2 0x1250 DUP4 DUP4 DUP4 PUSH2 0x127C JUMP JUMPDEST PUSH1 0x0 CODESIZE PUSH1 0x0 CODESIZE DUP5 DUP7 GAS CALL PUSH2 0x917 JUMPI PUSH4 0xB12D13EB PUSH1 0x0 MSTORE PUSH1 0x4 PUSH1 0x1C REVERT JUMPDEST DUP2 PUSH1 0x14 MSTORE DUP1 PUSH1 0x34 MSTORE PUSH4 0xA9059CBB PUSH1 0x60 SHL PUSH1 0x0 MSTORE PUSH1 0x20 PUSH1 0x0 PUSH1 0x44 PUSH1 0x10 PUSH1 0x0 DUP8 GAS CALL RETURNDATASIZE ISZERO PUSH1 0x1 PUSH1 0x0 MLOAD EQ OR AND PUSH2 0x12B8 JUMPI PUSH4 0x90B8EC18 PUSH1 0x0 MSTORE PUSH1 0x4 PUSH1 0x1C REVERT JUMPDEST PUSH1 0x0 PUSH1 0x34 MSTORE POP POP POP JUMP JUMPDEST PUSH1 0x40 MLOAD DUP1 PUSH1 0xC0 ADD PUSH1 0x40 MSTORE DUP1 PUSH1 0x0 DUP1 NOT AND DUP2 MSTORE PUSH1 0x20 ADD PUSH1 0x0 DUP2 MSTORE PUSH1 0x20 ADD PUSH1 0x60 DUP2 MSTORE PUSH1 0x20 ADD PUSH2 0x1302 PUSH1 0x40 MLOAD DUP1 PUSH1 0x40 ADD PUSH1 0x40 MSTORE DUP1 PUSH1 0x0 DUP2 MSTORE PUSH1 0x20 ADD PUSH1 0x60 DUP2 MSTORE POP SWAP1 JUMP JUMPDEST DUP2 MSTORE PUSH1 0x0 PUSH1 0x20 DUP3 ADD DUP2 SWAP1 MSTORE PUSH1 0x40 SWAP1 SWAP2 ADD MSTORE SWAP1 JUMP JUMPDEST DUP3 DUP1 SLOAD DUP3 DUP3 SSTORE SWAP1 PUSH1 0x0 MSTORE PUSH1 0x20 PUSH1 0x0 KECCAK256 SWAP1 DUP2 ADD SWAP3 DUP3 ISZERO PUSH2 0x136B JUMPI SWAP2 PUSH1 0x20 MUL DUP3 ADD JUMPDEST DUP3 DUP2 GT ISZERO PUSH2 0x136B JUMPI DUP3 MLOAD DUP3 SLOAD PUSH1 0x1 PUSH1 0x1 PUSH1 0xA0 SHL SUB NOT AND PUSH1 0x1 PUSH1 0x1 PUSH1 0xA0 SHL SUB SWAP1 SWAP2 AND OR DUP3 SSTORE PUSH1 0x20 SWAP1 SWAP3 ADD SWAP2 PUSH1 0x1 SWAP1 SWAP2 ADD SWAP1 PUSH2 0x1336 JUMP JUMPDEST POP PUSH2 0x1377 SWAP3 SWAP2 POP PUSH2 0x137B JUMP JUMPDEST POP SWAP1 JUMP JUMPDEST JUMPDEST DUP1 DUP3 GT ISZERO PUSH2 0x1377 JUMPI PUSH1 0x0 DUP2 SSTORE PUSH1 0x1 ADD PUSH2 0x137C JUMP JUMPDEST PUSH1 0x0 PUSH1 0x20 DUP3 DUP5 SUB SLT ISZERO PUSH2 0x13A2 JUMPI PUSH1 0x0 DUP1 REVERT JUMPDEST POP CALLDATALOAD SWAP2 SWAP1 POP JUMP JUMPDEST PUSH1 0x0 DUP1 PUSH1 0x40 DUP4 DUP6 SUB SLT ISZERO PUSH2 0x13BC JUMPI PUSH1 0x0 DUP1 REVERT JUMPDEST POP POP DUP1 CALLDATALOAD SWAP3 PUSH1 0x20 SWAP1 SWAP2 ADD CALLDATALOAD SWAP2 POP JUMP JUMPDEST PUSH1 0x0 DUP2 MLOAD DUP1 DUP5 MSTORE PUSH1 0x20 DUP1 DUP6 ADD SWAP5 POP DUP1 DUP5 ADD PUSH1 0x0 JUMPDEST DUP4 DUP2 LT ISZERO PUSH2 0x1404 JUMPI DUP2 MLOAD PUSH1 0x1 PUSH1 0x1 PUSH1 0xA0 SHL SUB AND DUP8 MSTORE SWAP6 DUP3 ADD SWAP6 SWAP1 DUP3 ADD SWAP1 PUSH1 0x1 ADD PUSH2 0x13DF JUMP JUMPDEST POP SWAP5 SWAP6 SWAP5 POP POP POP POP POP JUMP JUMPDEST PUSH1 0x20 DUP2 MSTORE PUSH1 0x0 PUSH2 0x1422 PUSH1 0x20 DUP4 ADD DUP5 PUSH2 0x13CB JUMP JUMPDEST SWAP4 SWAP3 POP POP POP JUMP JUMPDEST PUSH4 0x4E487B71 PUSH1 0xE0 SHL PUSH1 0x0 MSTORE PUSH1 0x41 PUSH1 0x4 MSTORE PUSH1 0x24 PUSH1 0x0 REVERT JUMPDEST PUSH1 0x40 DUP1 MLOAD SWAP1 DUP2 ADD PUSH8 0xFFFFFFFFFFFFFFFF DUP2 GT DUP3 DUP3 LT OR ISZERO PUSH2 0x1462 JUMPI PUSH2 0x1462 PUSH2 0x1429 JUMP JUMPDEST PUSH1 0x40 MSTORE SWAP1 JUMP JUMPDEST PUSH1 0x40 MLOAD PUSH1 0xC0 DUP2 ADD PUSH8 0xFFFFFFFFFFFFFFFF DUP2 GT DUP3 DUP3 LT OR ISZERO PUSH2 0x1462 JUMPI PUSH2 0x1462 PUSH2 0x1429 JUMP JUMPDEST PUSH1 0x40 MLOAD PUSH1 0x1F DUP3 ADD PUSH1 0x1F NOT AND DUP2 ADD PUSH8 0xFFFFFFFFFFFFFFFF DUP2 GT DUP3 DUP3 LT OR ISZERO PUSH2 0x14B4 JUMPI PUSH2 0x14B4 PUSH2 0x1429 JUMP JUMPDEST PUSH1 0x40 MSTORE SWAP2 SWAP1 POP JUMP JUMPDEST PUSH1 0x0 PUSH8 0xFFFFFFFFFFFFFFFF DUP3 GT ISZERO PUSH2 0x14D6 JUMPI PUSH2 0x14D6 PUSH2 0x1429 JUMP JUMPDEST POP PUSH1 0x1F ADD PUSH1 0x1F NOT AND PUSH1 0x20 ADD SWAP1 JUMP JUMPDEST PUSH1 0x0 DUP3 PUSH1 0x1F DUP4 ADD SLT PUSH2 0x14F5 JUMPI PUSH1 0x0 DUP1 REVERT JUMPDEST DUP2 CALLDATALOAD PUSH2 0x1508 PUSH2 0x1503 DUP3 PUSH2 0x14BC JUMP JUMPDEST PUSH2 0x148B JUMP JUMPDEST DUP2 DUP2 MSTORE DUP5 PUSH1 0x20 DUP4 DUP7 ADD ADD GT ISZERO PUSH2 0x151D JUMPI PUSH1 0x0 DUP1 REVERT JUMPDEST DUP2 PUSH1 0x20 DUP6 ADD PUSH1 0x20 DUP4 ADD CALLDATACOPY PUSH1 0x0 SWAP2 DUP2 ADD PUSH1 0x20 ADD SWAP2 SWAP1 SWAP2 MSTORE SWAP4 SWAP3 POP POP POP JUMP JUMPDEST PUSH1 0x1 PUSH1 0x1 PUSH1 0xA0 SHL SUB DUP2 AND DUP2 EQ PUSH2 0x10C6 JUMPI PUSH1 0x0 DUP1 REVERT JUMPDEST DUP1 CALLDATALOAD PUSH2 0x155A DUP2 PUSH2 0x153A JUMP JUMPDEST SWAP2 SWAP1 POP JUMP JUMPDEST PUSH1 0x0 DUP1 PUSH1 0x0 DUP1 PUSH1 0x0 DUP1 PUSH1 0xC0 DUP8 DUP10 SUB SLT ISZERO PUSH2 0x1578 JUMPI PUSH1 0x0 DUP1 REVERT JUMPDEST DUP7 CALLDATALOAD SWAP6 POP PUSH1 0x20 DUP8 ADD CALLDATALOAD SWAP5 POP PUSH1 0x40 DUP8 ADD CALLDATALOAD PUSH8 0xFFFFFFFFFFFFFFFF DUP1 DUP3 GT ISZERO PUSH2 0x159E JUMPI PUSH1 0x0 DUP1 REVERT JUMPDEST PUSH2 0x15AA DUP11 DUP4 DUP12 ADD PUSH2 0x14E4 JUMP JUMPDEST SWAP6 POP PUSH1 0x60 DUP10 ADD CALLDATALOAD SWAP2 POP DUP1 DUP3 GT ISZERO PUSH2 0x15C0 JUMPI PUSH1 0x0 DUP1 REVERT JUMPDEST SWAP1 DUP9 ADD SWAP1 PUSH1 0x40 DUP3 DUP12 SUB SLT ISZERO PUSH2 0x15D4 JUMPI PUSH1 0x0 DUP1 REVERT JUMPDEST PUSH2 0x15DC PUSH2 0x143F JUMP JUMPDEST DUP3 CALLDATALOAD DUP2 MSTORE PUSH1 0x20 DUP4 ADD CALLDATALOAD DUP3 DUP2 GT ISZERO PUSH2 0x15F2 JUMPI PUSH1 0x0 DUP1 REVERT JUMPDEST PUSH2 0x15FE DUP13 DUP3 DUP7 ADD PUSH2 0x14E4 JUMP JUMPDEST PUSH1 0x20 DUP4 ADD MSTORE POP SWAP5 POP PUSH2 0x1612 PUSH1 0x80 DUP11 ADD PUSH2 0x154F JUMP JUMPDEST SWAP4 POP PUSH1 0xA0 DUP10 ADD CALLDATALOAD SWAP2 POP DUP1 DUP3 GT ISZERO PUSH2 0x1628 JUMPI PUSH1 0x0 DUP1 REVERT JUMPDEST POP PUSH2 0x1635 DUP10 DUP3 DUP11 ADD PUSH2 0x14E4 JUMP JUMPDEST SWAP2 POP POP SWAP3 SWAP6 POP SWAP3 SWAP6 POP SWAP3 SWAP6 JUMP JUMPDEST PUSH1 0x0 DUP1 PUSH1 0x40 DUP4 DUP6 SUB SLT ISZERO PUSH2 0x1655 JUMPI PUSH1 0x0 DUP1 REVERT JUMPDEST DUP3 CALLDATALOAD SWAP2 POP PUSH1 0x20 DUP4 ADD CALLDATALOAD PUSH2 0x1667 DUP2 PUSH2 0x153A JUMP JUMPDEST DUP1 SWAP2 POP POP SWAP3 POP SWAP3 SWAP1 POP JUMP JUMPDEST PUSH1 0x0 JUMPDEST DUP4 DUP2 LT ISZERO PUSH2 0x168D JUMPI DUP2 DUP2 ADD MLOAD DUP4 DUP3 ADD MSTORE PUSH1 0x20 ADD PUSH2 0x1675 JUMP JUMPDEST POP POP PUSH1 0x0 SWAP2 ADD MSTORE JUMP JUMPDEST PUSH1 0x0 DUP2 MLOAD DUP1 DUP5 MSTORE PUSH2 0x16AE DUP2 PUSH1 0x20 DUP7 ADD PUSH1 0x20 DUP7 ADD PUSH2 0x1672 JUMP JUMPDEST PUSH1 0x1F ADD PUSH1 0x1F NOT AND SWAP3 SWAP1 SWAP3 ADD PUSH1 0x20 ADD SWAP3 SWAP2 POP POP JUMP JUMPDEST PUSH1 0x20 DUP2 MSTORE DUP2 MLOAD PUSH1 0x20 DUP3 ADD MSTORE PUSH1 0x20 DUP3 ADD MLOAD PUSH1 0x40 DUP3 ADD MSTORE PUSH1 0x0 PUSH1 0x40 DUP4 ADD MLOAD PUSH1 0x80 PUSH1 0x60 DUP5 ADD MSTORE PUSH2 0x16F2 PUSH1 0xA0 DUP5 ADD DUP3 PUSH2 0x1696 JUMP JUMPDEST SWAP1 POP PUSH1 0x60 DUP5 ADD MLOAD PUSH1 0x1F NOT DUP5 DUP4 SUB ADD PUSH1 0x80 DUP6 ADD MSTORE PUSH2 0x170F DUP3 DUP3 PUSH2 0x1696 JUMP JUMPDEST SWAP6 SWAP5 POP POP POP POP POP JUMP JUMPDEST PUSH1 0x20 DUP1 DUP3 MSTORE DUP3 MLOAD DUP3 DUP3 ADD DUP2 SWAP1 MSTORE PUSH1 0x0 SWAP2 SWAP1 DUP5 DUP3 ADD SWAP1 PUSH1 0x40 DUP6 ADD SWAP1 DUP5 JUMPDEST DUP2 DUP2 LT ISZERO PUSH2 0x1750 JUMPI DUP4 MLOAD DUP4 MSTORE SWAP3 DUP5 ADD SWAP3 SWAP2 DUP5 ADD SWAP2 PUSH1 0x1 ADD PUSH2 0x1734 JUMP JUMPDEST POP SWAP1 SWAP7 SWAP6 POP POP POP POP POP POP JUMP JUMPDEST DUP1 MLOAD DUP3 MSTORE PUSH1 0x0 PUSH1 0x20 DUP3 ADD MLOAD PUSH1 0x40 PUSH1 0x20 DUP6 ADD MSTORE PUSH2 0x177B PUSH1 0x40 DUP6 ADD DUP3 PUSH2 0x1696 JUMP JUMPDEST SWAP5 SWAP4 POP POP POP POP JUMP JUMPDEST PUSH1 0x20 DUP2 MSTORE DUP2 MLOAD PUSH1 0x20 DUP3 ADD MSTORE PUSH1 0x20 DUP3 ADD MLOAD PUSH1 0x40 DUP3 ADD MSTORE PUSH1 0x0 PUSH1 0x40 DUP4 ADD MLOAD PUSH1 0xC0 PUSH1 0x60 DUP5 ADD MSTORE PUSH2 0x17B3 PUSH1 0xE0 DUP5 ADD DUP3 PUSH2 0x1696 JUMP JUMPDEST SWAP1 POP PUSH1 0x60 DUP5 ADD MLOAD PUSH1 0x1F NOT DUP5 DUP4 SUB ADD PUSH1 0x80 DUP6 ADD MSTORE PUSH2 0x17D0 DUP3 DUP3 PUSH2 0x175C JUMP JUMPDEST PUSH1 0x80 DUP7 ADD MLOAD PUSH1 0x1 PUSH1 0x1 PUSH1 0xA0 SHL SUB SWAP1 DUP2 AND PUSH1 0xA0 DUP8 DUP2 ADD SWAP2 SWAP1 SWAP2 MSTORE SWAP1 SWAP7 ADD MLOAD SWAP1 SWAP6 AND PUSH1 0xC0 SWAP1 SWAP5 ADD SWAP4 SWAP1 SWAP4 MSTORE POP SWAP2 SWAP3 SWAP2 POP POP JUMP JUMPDEST PUSH4 0x4E487B71 PUSH1 0xE0 SHL PUSH1 0x0 MSTORE PUSH1 0x11 PUSH1 0x4 MSTORE PUSH1 0x24 PUSH1 0x0 REVERT JUMPDEST DUP1 DUP3 ADD DUP1 DUP3 GT ISZERO PUSH2 0xB64 JUMPI PUSH2 0xB64 PUSH2 0x1801 JUMP JUMPDEST PUSH4 0x4E487B71 PUSH1 0xE0 SHL PUSH1 0x0 MSTORE PUSH1 0x32 PUSH1 0x4 MSTORE PUSH1 0x24 PUSH1 0x0 REVERT JUMPDEST PUSH1 0x0 PUSH1 0x1 DUP3 ADD PUSH2 0x1852 JUMPI PUSH2 0x1852 PUSH2 0x1801 JUMP JUMPDEST POP PUSH1 0x1 ADD SWAP1 JUMP JUMPDEST PUSH1 0x0 PUSH1 0x20 DUP1 DUP4 MSTORE PUSH1 0xA0 DUP4 ADD DUP5 MLOAD ISZERO ISZERO DUP3 DUP6 ADD MSTORE DUP2 DUP6 ADD MLOAD PUSH1 0x40 DUP2 ISZERO ISZERO DUP2 DUP8 ADD MSTORE DUP1 DUP8 ADD MLOAD ISZERO ISZERO PUSH1 0x60 DUP8 ADD MSTORE PUSH1 0x60 DUP8 ADD MLOAD SWAP2 POP PUSH1 0x80 DUP1 DUP8 ADD MSTORE DUP3 DUP3 MLOAD DUP1 DUP6 MSTORE PUSH1 0xC0 DUP9 ADD SWAP2 POP DUP6 DUP5 ADD SWAP5 POP PUSH1 0x0 SWAP4 POP JUMPDEST DUP1 DUP5 LT ISZERO PUSH2 0x18D9 JUMPI DUP5 MLOAD DUP1 MLOAD PUSH1 0x1 PUSH1 0x1 PUSH1 0xA0 SHL SUB AND DUP4 MSTORE DUP7 ADD MLOAD DUP7 DUP4 ADD MSTORE SWAP4 DUP6 ADD SWAP4 PUSH1 0x1 SWAP4 SWAP1 SWAP4 ADD SWAP3 SWAP1 DUP3 ADD SWAP1 PUSH2 0x18A7 JUMP JUMPDEST POP SWAP8 SWAP7 POP POP POP POP POP POP POP JUMP JUMPDEST DUP1 MLOAD PUSH2 0x155A DUP2 PUSH2 0x153A JUMP JUMPDEST PUSH1 0x0 PUSH1 0x20 DUP3 DUP5 SUB SLT ISZERO PUSH2 0x1902 JUMPI PUSH1 0x0 DUP1 REVERT JUMPDEST DUP2 MLOAD PUSH2 0x1422 DUP2 PUSH2 0x153A JUMP JUMPDEST DUP8 DUP2 MSTORE PUSH1 0x0 PUSH1 0x1 DUP1 PUSH1 0xA0 SHL SUB DUP1 DUP10 AND PUSH1 0x20 DUP5 ADD MSTORE PUSH1 0xE0 PUSH1 0x40 DUP5 ADD MSTORE PUSH2 0x1935 PUSH1 0xE0 DUP5 ADD DUP10 PUSH2 0x1696 JUMP JUMPDEST DUP2 DUP9 AND PUSH1 0x60 DUP6 ADD MSTORE DUP7 PUSH1 0x80 DUP6 ADD MSTORE DUP4 DUP2 SUB PUSH1 0xA0 DUP6 ADD MSTORE PUSH2 0x1955 DUP2 DUP8 PUSH2 0x175C JUMP JUMPDEST SWAP2 POP POP DUP3 DUP2 SUB PUSH1 0xC0 DUP5 ADD MSTORE PUSH2 0x196A DUP2 DUP6 PUSH2 0x13CB JUMP JUMPDEST SWAP11 SWAP10 POP POP POP POP POP POP POP POP POP POP JUMP JUMPDEST PUSH1 0x0 PUSH1 0x20 DUP3 DUP5 SUB SLT ISZERO PUSH2 0x198A JUMPI PUSH1 0x0 DUP1 REVERT JUMPDEST POP MLOAD SWAP2 SWAP1 POP JUMP JUMPDEST PUSH1 0x1 PUSH1 0x1 PUSH1 0xA0 SHL SUB DUP6 DUP2 AND DUP3 MSTORE DUP5 AND PUSH1 0x20 DUP3 ADD MSTORE PUSH1 0x40 DUP2 ADD DUP4 SWAP1 MSTORE PUSH1 0x80 PUSH1 0x60 DUP3 ADD DUP2 SWAP1 MSTORE PUSH1 0x0 SWAP1 PUSH2 0x19C4 SWAP1 DUP4 ADD DUP5 PUSH2 0x175C JUMP JUMPDEST SWAP7 SWAP6 POP POP POP POP POP POP JUMP JUMPDEST DUP3 DUP2 MSTORE PUSH1 0x40 PUSH1 0x20 DUP3 ADD MSTORE PUSH1 0x0 PUSH2 0x177B PUSH1 0x40 DUP4 ADD DUP5 PUSH2 0x1696 JUMP JUMPDEST DUP6 DUP2 MSTORE PUSH1 0xA0 PUSH1 0x20 DUP3 ADD MSTORE PUSH1 0x0 PUSH2 0x1A00 PUSH1 0xA0 DUP4 ADD DUP8 PUSH2 0x1696 JUMP JUMPDEST DUP3 DUP2 SUB PUSH1 0x40 DUP5 ADD MSTORE PUSH2 0x1A12 DUP2 DUP8 PUSH2 0x175C JUMP JUMPDEST PUSH1 0x1 PUSH1 0x1 PUSH1 0xA0 SHL SUB DUP7 AND PUSH1 0x60 DUP6 ADD MSTORE DUP4 DUP2 SUB PUSH1 0x80 DUP6 ADD MSTORE SWAP1 POP PUSH2 0x1A35 DUP2 DUP6 PUSH2 0x13CB JUMP JUMPDEST SWAP9 SWAP8 POP POP POP POP POP POP POP POP JUMP JUMPDEST PUSH1 0x1 DUP2 DUP2 SHR SWAP1 DUP3 AND DUP1 PUSH2 0x1A55 JUMPI PUSH1 0x7F DUP3 AND SWAP2 POP JUMPDEST PUSH1 0x20 DUP3 LT DUP2 SUB PUSH2 0x1A75 JUMPI PUSH4 0x4E487B71 PUSH1 0xE0 SHL PUSH1 0x0 MSTORE PUSH1 0x22 PUSH1 0x4 MSTORE PUSH1 0x24 PUSH1 0x0 REVERT JUMPDEST POP SWAP2 SWAP1 POP JUMP JUMPDEST PUSH1 0x1F DUP3 GT ISZERO PUSH2 0x1250 JUMPI PUSH1 0x0 DUP2 DUP2 MSTORE PUSH1 0x20 DUP2 KECCAK256 PUSH1 0x1F DUP6 ADD PUSH1 0x5 SHR DUP2 ADD PUSH1 0x20 DUP7 LT ISZERO PUSH2 0x1AA2 JUMPI POP DUP1 JUMPDEST PUSH1 0x1F DUP6 ADD PUSH1 0x5 SHR DUP3 ADD SWAP2 POP JUMPDEST DUP2 DUP2 LT ISZERO PUSH2 0x1AC1 JUMPI DUP3 DUP2 SSTORE PUSH1 0x1 ADD PUSH2 0x1AAE JUMP JUMPDEST POP POP POP POP POP POP JUMP JUMPDEST DUP2 MLOAD PUSH8 0xFFFFFFFFFFFFFFFF DUP2 GT ISZERO PUSH2 0x1AE3 JUMPI PUSH2 0x1AE3 PUSH2 0x1429 JUMP JUMPDEST PUSH2 0x1AF7 DUP2 PUSH2 0x1AF1 DUP5 SLOAD PUSH2 0x1A41 JUMP JUMPDEST DUP5 PUSH2 0x1A7B JUMP JUMPDEST PUSH1 0x20 DUP1 PUSH1 0x1F DUP4 GT PUSH1 0x1 DUP2 EQ PUSH2 0x1B2C JUMPI PUSH1 0x0 DUP5 ISZERO PUSH2 0x1B14 JUMPI POP DUP6 DUP4 ADD MLOAD JUMPDEST PUSH1 0x0 NOT PUSH1 0x3 DUP7 SWAP1 SHL SHR NOT AND PUSH1 0x1 DUP6 SWAP1 SHL OR DUP6 SSTORE PUSH2 0x1AC1 JUMP JUMPDEST PUSH1 0x0 DUP6 DUP2 MSTORE PUSH1 0x20 DUP2 KECCAK256 PUSH1 0x1F NOT DUP7 AND SWAP2 JUMPDEST DUP3 DUP2 LT ISZERO PUSH2 0x1B5B JUMPI DUP9 DUP7 ADD MLOAD DUP3 SSTORE SWAP5 DUP5 ADD SWAP5 PUSH1 0x1 SWAP1 SWAP2 ADD SWAP1 DUP5 ADD PUSH2 0x1B3C JUMP JUMPDEST POP DUP6 DUP3 LT ISZERO PUSH2 0x1B79 JUMPI DUP8 DUP6 ADD MLOAD PUSH1 0x0 NOT PUSH1 0x3 DUP9 SWAP1 SHL PUSH1 0xF8 AND SHR NOT AND DUP2 SSTORE JUMPDEST POP POP POP POP POP PUSH1 0x1 SWAP1 DUP2 SHL ADD SWAP1 SSTORE POP JUMP JUMPDEST PUSH1 0x0 DUP3 PUSH1 0x1F DUP4 ADD SLT PUSH2 0x1B9A JUMPI PUSH1 0x0 DUP1 REVERT JUMPDEST DUP2 MLOAD PUSH2 0x1BA8 PUSH2 0x1503 DUP3 PUSH2 0x14BC JUMP JUMPDEST DUP2 DUP2 MSTORE DUP5 PUSH1 0x20 DUP4 DUP7 ADD ADD GT ISZERO PUSH2 0x1BBD JUMPI PUSH1 0x0 DUP1 REVERT JUMPDEST PUSH2 0x177B DUP3 PUSH1 0x20 DUP4 ADD PUSH1 0x20 DUP8 ADD PUSH2 0x1672 JUMP JUMPDEST PUSH1 0x0 PUSH1 0x40 DUP3 DUP5 SUB SLT ISZERO PUSH2 0x1BE0 JUMPI PUSH1 0x0 DUP1 REVERT JUMPDEST PUSH2 0x1BE8 PUSH2 0x143F JUMP JUMPDEST SWAP1 POP DUP2 MLOAD DUP2 MSTORE PUSH1 0x20 DUP3 ADD MLOAD PUSH8 0xFFFFFFFFFFFFFFFF DUP2 GT ISZERO PUSH2 0x1C08 JUMPI PUSH1 0x0 DUP1 REVERT JUMPDEST PUSH2 0x1C14 DUP5 DUP3 DUP6 ADD PUSH2 0x1B89 JUMP JUMPDEST PUSH1 0x20 DUP4 ADD MSTORE POP SWAP3 SWAP2 POP POP JUMP JUMPDEST PUSH1 0x0 PUSH1 0x20 DUP3 DUP5 SUB SLT ISZERO PUSH2 0x1C32 JUMPI PUSH1 0x0 DUP1 REVERT JUMPDEST DUP2 MLOAD PUSH8 0xFFFFFFFFFFFFFFFF DUP1 DUP3 GT ISZERO PUSH2 0x1C4A JUMPI PUSH1 0x0 DUP1 REVERT JUMPDEST SWAP1 DUP4 ADD SWAP1 PUSH1 0xC0 DUP3 DUP7 SUB SLT ISZERO PUSH2 0x1C5E JUMPI PUSH1 0x0 DUP1 REVERT JUMPDEST PUSH2 0x1C66 PUSH2 0x1468 JUMP JUMPDEST DUP3 MLOAD DUP2 MSTORE PUSH1 0x20 DUP4 ADD MLOAD PUSH1 0x20 DUP3 ADD MSTORE PUSH1 0x40 DUP4 ADD MLOAD DUP3 DUP2 GT ISZERO PUSH2 0x1C86 JUMPI PUSH1 0x0 DUP1 REVERT JUMPDEST PUSH2 0x1C92 DUP8 DUP3 DUP7 ADD PUSH2 0x1B89 JUMP JUMPDEST PUSH1 0x40 DUP4 ADD MSTORE POP PUSH1 0x60 DUP4 ADD MLOAD DUP3 DUP2 GT ISZERO PUSH2 0x1CAA JUMPI PUSH1 0x0 DUP1 REVERT JUMPDEST PUSH2 0x1CB6 DUP8 DUP3 DUP7 ADD PUSH2 0x1BCE JUMP JUMPDEST PUSH1 0x60 DUP4 ADD MSTORE POP PUSH2 0x1CC8 PUSH1 0x80 DUP5 ADD PUSH2 0x18E5 JUMP JUMPDEST PUSH1 0x80 DUP3 ADD MSTORE PUSH2 0x1CD9 PUSH1 0xA0 DUP5 ADD PUSH2 0x18E5 JUMP JUMPDEST PUSH1 0xA0 DUP3 ADD MSTORE SWAP6 SWAP5 POP POP POP POP POP JUMP JUMPDEST DUP2 DUP2 SUB DUP2 DUP2 GT ISZERO PUSH2 0xB64 JUMPI PUSH2 0xB64 PUSH2 0x1801 JUMP INVALID LOG2 PUSH5 0x6970667358 0x22 SLT KECCAK256 EXTCODESIZE EXTCODECOPY SMOD 0xD5 0xA9 0x4B MSTORE8 SLT 0x23 PUSH13 0x43BF6E60289DB3194E7A4C34A5 0xC0 PUSH15 0x463315F1E31EE764736F6C63430008 EQ STOP CALLER "},"methodIdentifiers":{"NATIVE()":"a0cf0aea","_projectExists(bytes32)":"c42b06f0","getProfile(bytes32)":"b50991b4","getProfiles()":"b2137033","getProjectExecutor(bytes32)":"df06c273","getProjectPool(bytes32)":"16e46f68","getProjectStrategy(bytes32)":"5d5bba3f","getProjectSupplierById(bytes32,address)":"8d363831","getProjectSuppliers(bytes32)":"6617dd66","getProjectSupply(bytes32)":"94a8fb4a","registerProject(uint256,uint256,string,(uint256,string),address,string)":"7144e4b5","revokeProjectSupply(bytes32)":"d1de78e4","supplyProject(bytes32,uint256)":"40f1ab98"}}}}}