{"contracts/MicroGrantsStrategy.sol":{"MicroGrantsStrategy":{"abi":[{"inputs":[{"internalType":"address","name":"_allo","type":"address"},{"internalType":"string","name":"_name","type":"string"}],"stateMutability":"nonpayable","type":"constructor"},{"inputs":[],"name":"ALLOCATION_ACTIVE","type":"error"},{"inputs":[],"name":"ALLOCATION_NOT_ACTIVE","type":"error"},{"inputs":[],"name":"ALLOCATION_NOT_ENDED","type":"error"},{"inputs":[],"name":"ALREADY_INITIALIZED","type":"error"},{"inputs":[],"name":"AMOUNT_MISMATCH","type":"error"},{"inputs":[],"name":"AMOUNT_TOO_LOW","type":"error"},{"inputs":[],"name":"ANCHOR_ERROR","type":"error"},{"inputs":[],"name":"ARRAY_MISMATCH","type":"error"},{"inputs":[],"name":"EXCEEDING_MAX_AMOUNT","type":"error"},{"inputs":[],"name":"INVALID","type":"error"},{"inputs":[],"name":"INVALID_ADDRESS","type":"error"},{"inputs":[],"name":"INVALID_FEE","type":"error"},{"inputs":[],"name":"INVALID_METADATA","type":"error"},{"inputs":[],"name":"INVALID_REGISTRATION","type":"error"},{"inputs":[],"name":"IS_APPROVED_STRATEGY","type":"error"},{"inputs":[],"name":"MISMATCH","type":"error"},{"inputs":[],"name":"NONCE_NOT_AVAILABLE","type":"error"},{"inputs":[],"name":"NOT_APPROVED_STRATEGY","type":"error"},{"inputs":[],"name":"NOT_ENOUGH_FUNDS","type":"error"},{"inputs":[],"name":"NOT_IMPLEMENTED","type":"error"},{"inputs":[],"name":"NOT_INITIALIZED","type":"error"},{"inputs":[],"name":"NOT_PENDING_OWNER","type":"error"},{"inputs":[],"name":"POOL_ACTIVE","type":"error"},{"inputs":[],"name":"POOL_INACTIVE","type":"error"},{"inputs":[],"name":"RECIPIENT_ALREADY_ACCEPTED","type":"error"},{"inputs":[{"internalType":"address","name":"recipientId","type":"address"}],"name":"RECIPIENT_ERROR","type":"error"},{"inputs":[],"name":"RECIPIENT_NOT_ACCEPTED","type":"error"},{"inputs":[],"name":"REGISTRATION_NOT_ACTIVE","type":"error"},{"inputs":[],"name":"ReentrancyGuardReentrantCall","type":"error"},{"inputs":[],"name":"UNAUTHORIZED","type":"error"},{"inputs":[],"name":"ZERO_ADDRESS","type":"error"},{"anonymous":false,"inputs":[{"indexed":true,"internalType":"address","name":"recipientId","type":"address"},{"indexed":false,"internalType":"enum IStrategy.Status","name":"status","type":"uint8"},{"indexed":false,"internalType":"address","name":"sender","type":"address"}],"name":"Allocated","type":"event"},{"anonymous":false,"inputs":[{"indexed":true,"internalType":"address","name":"recipientId","type":"address"},{"indexed":false,"internalType":"uint256","name":"amount","type":"uint256"},{"indexed":false,"internalType":"address","name":"token","type":"address"},{"indexed":false,"internalType":"address","name":"sender","type":"address"}],"name":"Allocated","type":"event"},{"anonymous":false,"inputs":[{"indexed":true,"internalType":"address","name":"allocator","type":"address"},{"indexed":true,"internalType":"bool","name":"_flag","type":"bool"},{"indexed":false,"internalType":"address","name":"sender","type":"address"}],"name":"AllocatorSet","type":"event"},{"anonymous":false,"inputs":[{"indexed":false,"internalType":"uint256","name":"approvalThreshold","type":"uint256"}],"name":"ApprovalThresholdUpdated","type":"event"},{"anonymous":false,"inputs":[{"indexed":true,"internalType":"address","name":"recipientId","type":"address"},{"indexed":false,"internalType":"address","name":"recipientAddress","type":"address"},{"indexed":false,"internalType":"uint256","name":"amount","type":"uint256"},{"indexed":false,"internalType":"address","name":"sender","type":"address"}],"name":"Distributed","type":"event"},{"anonymous":false,"inputs":[{"indexed":false,"internalType":"uint256","name":"poolId","type":"uint256"},{"indexed":false,"internalType":"bytes","name":"data","type":"bytes"}],"name":"Initialized","type":"event"},{"anonymous":false,"inputs":[{"indexed":false,"internalType":"uint256","name":"maxRequestedAmount","type":"uint256"}],"name":"MaxRequestedAmountIncreased","type":"event"},{"anonymous":false,"inputs":[{"indexed":false,"internalType":"bool","name":"active","type":"bool"}],"name":"PoolActive","type":"event"},{"anonymous":false,"inputs":[{"indexed":true,"internalType":"address","name":"recipientId","type":"address"},{"indexed":false,"internalType":"bytes","name":"data","type":"bytes"},{"indexed":false,"internalType":"address","name":"sender","type":"address"}],"name":"Registered","type":"event"},{"anonymous":false,"inputs":[{"indexed":false,"internalType":"uint64","name":"allocationStartTime","type":"uint64"},{"indexed":false,"internalType":"uint64","name":"allocationEndTime","type":"uint64"},{"indexed":false,"internalType":"address","name":"sender","type":"address"}],"name":"TimestampsUpdated","type":"event"},{"anonymous":false,"inputs":[{"indexed":true,"internalType":"address","name":"recipientId","type":"address"},{"indexed":false,"internalType":"bytes","name":"data","type":"bytes"},{"indexed":false,"internalType":"address","name":"sender","type":"address"}],"name":"UpdatedRegistration","type":"event"},{"inputs":[],"name":"NATIVE","outputs":[{"internalType":"address","name":"","type":"address"}],"stateMutability":"view","type":"function"},{"inputs":[{"internalType":"bytes","name":"_data","type":"bytes"},{"internalType":"address","name":"_sender","type":"address"}],"name":"allocate","outputs":[],"stateMutability":"payable","type":"function"},{"inputs":[{"internalType":"address","name":"","type":"address"},{"internalType":"address","name":"","type":"address"}],"name":"allocated","outputs":[{"internalType":"bool","name":"","type":"bool"}],"stateMutability":"view","type":"function"},{"inputs":[],"name":"allocationEndTime","outputs":[{"internalType":"uint64","name":"","type":"uint64"}],"stateMutability":"view","type":"function"},{"inputs":[],"name":"allocationStartTime","outputs":[{"internalType":"uint64","name":"","type":"uint64"}],"stateMutability":"view","type":"function"},{"inputs":[{"internalType":"address","name":"","type":"address"}],"name":"allocators","outputs":[{"internalType":"bool","name":"","type":"bool"}],"stateMutability":"view","type":"function"},{"inputs":[],"name":"approvalThreshold","outputs":[{"internalType":"uint256","name":"","type":"uint256"}],"stateMutability":"view","type":"function"},{"inputs":[{"internalType":"address[]","name":"_allocators","type":"address[]"},{"internalType":"bool[]","name":"_flags","type":"bool[]"}],"name":"batchSetAllocator","outputs":[],"stateMutability":"nonpayable","type":"function"},{"inputs":[{"internalType":"address[]","name":"_recipientIds","type":"address[]"},{"internalType":"bytes","name":"_data","type":"bytes"},{"internalType":"address","name":"_sender","type":"address"}],"name":"distribute","outputs":[],"stateMutability":"nonpayable","type":"function"},{"inputs":[],"name":"getAllo","outputs":[{"internalType":"contract IAllo","name":"","type":"address"}],"stateMutability":"view","type":"function"},{"inputs":[{"internalType":"address[]","name":"_recipientIds","type":"address[]"},{"internalType":"bytes[]","name":"_data","type":"bytes[]"}],"name":"getPayouts","outputs":[{"components":[{"internalType":"address","name":"recipientAddress","type":"address"},{"internalType":"uint256","name":"amount","type":"uint256"}],"internalType":"struct IStrategy.PayoutSummary[]","name":"","type":"tuple[]"}],"stateMutability":"view","type":"function"},{"inputs":[],"name":"getPoolAmount","outputs":[{"internalType":"uint256","name":"","type":"uint256"}],"stateMutability":"view","type":"function"},{"inputs":[],"name":"getPoolId","outputs":[{"internalType":"uint256","name":"","type":"uint256"}],"stateMutability":"view","type":"function"},{"inputs":[{"internalType":"address","name":"_recipientId","type":"address"}],"name":"getRecipient","outputs":[{"components":[{"internalType":"bool","name":"useRegistryAnchor","type":"bool"},{"internalType":"address","name":"recipientAddress","type":"address"},{"internalType":"uint256","name":"requestedAmount","type":"uint256"},{"internalType":"enum IStrategy.Status","name":"recipientStatus","type":"uint8"},{"components":[{"internalType":"uint256","name":"protocol","type":"uint256"},{"internalType":"string","name":"pointer","type":"string"}],"internalType":"struct Metadata","name":"metadata","type":"tuple"}],"internalType":"struct MicroGrantsBaseStrategy.Recipient","name":"","type":"tuple"}],"stateMutability":"view","type":"function"},{"inputs":[{"internalType":"address","name":"_recipientId","type":"address"}],"name":"getRecipientStatus","outputs":[{"internalType":"enum IStrategy.Status","name":"","type":"uint8"}],"stateMutability":"view","type":"function"},{"inputs":[],"name":"getStrategyId","outputs":[{"internalType":"bytes32","name":"","type":"bytes32"}],"stateMutability":"view","type":"function"},{"inputs":[{"internalType":"uint256","name":"_maxRequestedAmount","type":"uint256"}],"name":"increaseMaxRequestedAmount","outputs":[],"stateMutability":"nonpayable","type":"function"},{"inputs":[{"internalType":"uint256","name":"_amount","type":"uint256"}],"name":"increasePoolAmount","outputs":[],"stateMutability":"nonpayable","type":"function"},{"inputs":[{"internalType":"uint256","name":"_poolId","type":"uint256"},{"internalType":"bytes","name":"_data","type":"bytes"}],"name":"initialize","outputs":[],"stateMutability":"nonpayable","type":"function"},{"inputs":[],"name":"isPoolActive","outputs":[{"internalType":"bool","name":"","type":"bool"}],"stateMutability":"view","type":"function"},{"inputs":[{"internalType":"address","name":"_allocator","type":"address"}],"name":"isValidAllocator","outputs":[{"internalType":"bool","name":"","type":"bool"}],"stateMutability":"view","type":"function"},{"inputs":[],"name":"maxRequestedAmount","outputs":[{"internalType":"uint256","name":"","type":"uint256"}],"stateMutability":"view","type":"function"},{"inputs":[{"internalType":"address","name":"","type":"address"},{"internalType":"enum IStrategy.Status","name":"","type":"uint8"}],"name":"recipientAllocations","outputs":[{"internalType":"uint256","name":"","type":"uint256"}],"stateMutability":"view","type":"function"},{"inputs":[{"internalType":"bytes","name":"_data","type":"bytes"},{"internalType":"address","name":"_sender","type":"address"}],"name":"registerRecipient","outputs":[{"internalType":"address","name":"recipientId","type":"address"}],"stateMutability":"payable","type":"function"},{"inputs":[{"internalType":"address","name":"_allocator","type":"address"},{"internalType":"bool","name":"_flag","type":"bool"}],"name":"setAllocator","outputs":[],"stateMutability":"nonpayable","type":"function"},{"inputs":[{"internalType":"uint256","name":"_approvalThreshold","type":"uint256"}],"name":"setApprovalThreshold","outputs":[],"stateMutability":"nonpayable","type":"function"},{"inputs":[{"internalType":"uint64","name":"_allocationStartTime","type":"uint64"},{"internalType":"uint64","name":"_allocationEndTime","type":"uint64"}],"name":"updatePoolTimestamps","outputs":[],"stateMutability":"nonpayable","type":"function"},{"inputs":[],"name":"useRegistryAnchor","outputs":[{"internalType":"bool","name":"","type":"bool"}],"stateMutability":"view","type":"function"},{"inputs":[{"internalType":"address","name":"_token","type":"address"}],"name":"withdraw","outputs":[],"stateMutability":"nonpayable","type":"function"},{"stateMutability":"payable","type":"receive"}],"evm":{"bytecode":{"linkReferences":{},"object":"60c06040523480156200001157600080fd5b506040516200415c3803806200415c8339818101604052810190620000379190620002ab565b818181818173ffffffffffffffffffffffffffffffffffffffff1660808173ffffffffffffffffffffffffffffffffffffffff1681525050806040516020016200008291906200036e565b6040516020818303038152906040528051906020012060a08181525050505060016003819055505050505062000392565b6000604051905090565b600080fd5b600080fd5b600073ffffffffffffffffffffffffffffffffffffffff82169050919050565b6000620000f482620000c7565b9050919050565b6200010681620000e7565b81146200011257600080fd5b50565b6000815190506200012681620000fb565b92915050565b600080fd5b600080fd5b6000601f19601f8301169050919050565b7f4e487b7100000000000000000000000000000000000000000000000000000000600052604160045260246000fd5b620001818262000136565b810181811067ffffffffffffffff82111715620001a357620001a262000147565b5b80604052505050565b6000620001b8620000b3565b9050620001c6828262000176565b919050565b600067ffffffffffffffff821115620001e957620001e862000147565b5b620001f48262000136565b9050602081019050919050565b60005b838110156200022157808201518184015260208101905062000204565b60008484015250505050565b6000620002446200023e84620001cb565b620001ac565b90508281526020810184848401111562000263576200026262000131565b5b6200027084828562000201565b509392505050565b600082601f83011262000290576200028f6200012c565b5b8151620002a28482602086016200022d565b91505092915050565b60008060408385031215620002c557620002c4620000bd565b5b6000620002d58582860162000115565b925050602083015167ffffffffffffffff811115620002f957620002f8620000c2565b5b620003078582860162000278565b9150509250929050565b600081519050919050565b600082825260208201905092915050565b60006200033a8262000311565b6200034681856200031c565b93506200035881856020860162000201565b620003638162000136565b840191505092915050565b600060208201905081810360008301526200038a81846200032d565b905092915050565b60805160a051613d88620003d4600039600061080601526000818161076d01528181610bee01528181611230015281816119e10152611ef70152613d886000f3fe6080604052600436106101c65760003560e01c806375777aaa116100f7578063ba539f8f11610095578063eb11af9311610064578063eb11af9314610668578063edd146cc146106a5578063ef2920fc146106ce578063f5b0dfb7146106ea576101cd565b8063ba539f8f146105be578063bfa80731146105e9578063d2e17f5914610612578063df868ed31461063d576101cd565b8063a0016b8c116100d1578063a0016b8c14610504578063a0cf0aea1461052d578063a15acfd514610558578063b2b878d014610581576101cd565b806375777aaa146104875780637d0eef61146104b057806380faddeb146104db576101cd565b80634533d6781161016457806351cff8d91161013e57806351cff8d9146103b957806357089739146103e257806362812a391461040d5780636f46ffb91461044a576101cd565b80634533d678146103265780634ab4ba42146103515780634d31d0871461037c576101cd565b80632b302cbd116101a05780632b302cbd146102635780632bbe0cae146102a057806338fff2d0146102d057806342fda9c7146102fb576101cd565b8063084ea36e146101d25780630a6f0ee91461020f57806315cc481e14610238576101cd565b366101cd57005b600080fd5b3480156101de57600080fd5b506101f960048036038101906101f491906124ff565b610713565b6040516102069190612547565b60405180910390f35b34801561021b57600080fd5b5061023660048036038101906102319190612770565b610733565b005b34801561024457600080fd5b5061024d610769565b60405161025a919061285a565b60405180910390f35b34801561026f57600080fd5b5061028a60048036038101906102859190612875565b610791565b6040516102979190612547565b60405180910390f35b6102ba60048036038101906102b591906128b5565b6107c0565b6040516102c79190612920565b60405180910390f35b3480156102dc57600080fd5b506102e56107f8565b6040516102f29190612954565b60405180910390f35b34801561030757600080fd5b50610310610802565b60405161031d9190612988565b60405180910390f35b34801561033257600080fd5b5061033b61082a565b60405161034891906129c6565b60405180910390f35b34801561035d57600080fd5b50610366610844565b6040516103739190612954565b60405180910390f35b34801561038857600080fd5b506103a3600480360381019061039e91906124ff565b61084e565b6040516103b09190612547565b60405180910390f35b3480156103c557600080fd5b506103e060048036038101906103db91906124ff565b610860565b005b3480156103ee57600080fd5b506103f7610890565b6040516104049190612547565b60405180910390f35b34801561041957600080fd5b50610434600480360381019061042f91906124ff565b6108a3565b6040516104419190612bb7565b60405180910390f35b34801561045657600080fd5b50610471600480360381019061046c9190612bfe565b6108bb565b60405161047e9190612954565b60405180910390f35b34801561049357600080fd5b506104ae60048036038101906104a99190612c6a565b6108e0565b005b3480156104bc57600080fd5b506104c56108f9565b6040516104d29190612954565b60405180910390f35b3480156104e757600080fd5b5061050260048036038101906104fd9190612cd6565b6108ff565b005b34801561051057600080fd5b5061052b60048036038101906105269190612d42565b610918565b005b34801561053957600080fd5b5061054261092f565b60405161054f9190612920565b60405180910390f35b34801561056457600080fd5b5061057f600480360381019061057a9190612e32565b610947565b005b34801561058d57600080fd5b506105a860048036038101906105a39190612f8b565b6109b2565b6040516105b591906130e1565b60405180910390f35b3480156105ca57600080fd5b506105d3610acc565b6040516105e09190612954565b60405180910390f35b3480156105f557600080fd5b50610610600480360381019061060b9190612d42565b610ad2565b005b34801561061e57600080fd5b50610627610ae9565b60405161063491906129c6565b60405180910390f35b34801561064957600080fd5b50610652610b03565b60405161065f9190612547565b60405180910390f35b34801561067457600080fd5b5061068f600480360381019061068a91906124ff565b610b12565b60405161069c9190613112565b60405180910390f35b3480156106b157600080fd5b506106cc60048036038101906106c7919061312d565b610b24565b005b6106e860048036038101906106e391906128b5565b610b84565b005b3480156106f657600080fd5b50610711600480360381019061070c9190612d42565b610bb6565b005b600b6020528060005260406000206000915054906101000a900460ff1681565b61073b610bec565b610743610c73565b61074e838383610cb1565b610759838383610cb6565b610764838383610cca565b505050565b60007f0000000000000000000000000000000000000000000000000000000000000000905090565b60096020528160005260406000206020528060005260406000206000915091509054906101000a900460ff1681565b60006107ca610bec565b6107d2610c73565b6107dc8383610ccf565b6107e68383610cd3565b90506107f283836111d4565b92915050565b6000600154905090565b60007f0000000000000000000000000000000000000000000000000000000000000000905090565b600560009054906101000a900467ffffffffffffffff1681565b6000600254905090565b6000610859826111d8565b9050919050565b3361086a8161122e565b610872611305565b600061087e833061134c565b905061088b8333836113c7565b505050565b600460009054906101000a900460ff1681565b6108ab6123e4565b6108b48261142e565b9050919050565b600a602052816000526040600020602052806000526040600020600091509150505481565b336108ea8161122e565b6108f4838361167c565b505050565b60075481565b336109098161122e565b6109138383611743565b505050565b336109228161122e565b61092b826117ef565b5050565b73eeeeeeeeeeeeeeeeeeeeeeeeeeeeeeeeeeeeeeee81565b336109518161122e565b60008351905060005b818110156109ab576109a085828151811061097857610977613189565b5b602002602001015185838151811061099357610992613189565b5b6020026020010151611743565b80600101905061095a565b5050505050565b6060600083519050825181146109f4576040517f7b49805600000000000000000000000000000000000000000000000000000000815260040160405180910390fd5b60008167ffffffffffffffff811115610a1057610a0f612578565b5b604051908082528060200260200182016040528015610a4957816020015b610a36612443565b815260200190600190039081610a2e5790505b50905060005b82811015610ac057610a95868281518110610a6d57610a6c613189565b5b6020026020010151868381518110610a8857610a87613189565b5b6020026020010151611832565b828281518110610aa857610aa7613189565b5b60200260200101819052508080600101915050610a4f565b50809250505092915050565b60065481565b33610adc8161122e565b610ae5826118be565b5050565b600460159054906101000a900467ffffffffffffffff1681565b6000610b0d61193d565b905090565b6000610b1d826119a2565b9050919050565b600081806020019051810190610b3a919061328d565b9050610b4683826119b8565b7f91efa3d50feccde0d0d202f8ae5c41ca0b2be614cebcb2bd2f4b019396e6568a8383604051610b7792919061330f565b60405180910390a1505050565b610b8c610bec565b610b94610c73565b610b9e8282611ade565b610ba88282611b65565b610bb28282612071565b5050565b610bbe610bec565b610bc781612075565b8060026000828254610bd9919061336e565b92505081905550610be981612078565b50565b7f000000000000000000000000000000000000000000000000000000000000000073ffffffffffffffffffffffffffffffffffffffff163373ffffffffffffffffffffffffffffffffffffffff1614610c71576040517f075fd2b100000000000000000000000000000000000000000000000000000000815260040160405180910390fd5b565b600060015403610caf576040517f3da3f98c00000000000000000000000000000000000000000000000000000000815260040160405180910390fd5b565b505050565b6000610cc557610cc46133a2565b5b505050565b505050565b5050565b6000806000806000610ce3612473565b87806020019051810190610cf7919061351c565b80945081955082975083965050505050600460009054906101000a900460ff1680610d4f5750600073ffffffffffffffffffffffffffffffffffffffff168373ffffffffffffffffffffffffffffffffffffffff1614155b945084610d5c5786610d5e565b825b9550848015610d745750610d72868861207b565b155b15610dab576040517f075fd2b100000000000000000000000000000000000000000000000000000000815260040160405180910390fd5b60008160200151511480610dc3575060008160000151145b15610dfa576040517fc19e07c500000000000000000000000000000000000000000000000000000000815260040160405180910390fd5b600654821115610e36576040517f51c7ab5100000000000000000000000000000000000000000000000000000000815260040160405180910390fd5b60008203610e445760065491505b600073ffffffffffffffffffffffffffffffffffffffff168473ffffffffffffffffffffffffffffffffffffffff1603610eb557856040517ff4a513b9000000000000000000000000000000000000000000000000000000008152600401610eac9190612920565b60405180910390fd5b6000600860008873ffffffffffffffffffffffffffffffffffffffff1673ffffffffffffffffffffffffffffffffffffffff16815260200190815260200160002090506000600a60008973ffffffffffffffffffffffffffffffffffffffff1673ffffffffffffffffffffffffffffffffffffffff168152602001908152602001600020600060026006811115610f4f57610f4e612a0e565b5b6006811115610f6157610f60612a0e565b5b8152602001908152602001600020541180610ff157506000600a60008973ffffffffffffffffffffffffffffffffffffffff1673ffffffffffffffffffffffffffffffffffffffff168152602001908152602001600020600060036006811115610fce57610fcd612a0e565b5b6006811115610fe057610fdf612a0e565b5b815260200190815260200160002054115b15611028576040517f075fd2b100000000000000000000000000000000000000000000000000000000815260040160405180910390fd5b6000600681111561103c5761103b612a0e565b5b8160020160009054906101000a900460ff1660068111156110605761105f612a0e565b5b036110ba578673ffffffffffffffffffffffffffffffffffffffff167fa197306e3dd5494a61a695381aa809a53b8e377a685e84e404a85d5a8da6cc628a8a6040516110ad92919061359f565b60405180910390a261110b565b8673ffffffffffffffffffffffffffffffffffffffff167faf5977db3aa7e6fc7d05e21c791ebd214afa76da27c8d8ddc8e4a9f742d7b2368a8a60405161110292919061359f565b60405180910390a25b848160000160016101000a81548173ffffffffffffffffffffffffffffffffffffffff021916908373ffffffffffffffffffffffffffffffffffffffff160217905550858160000160006101000a81548160ff021916908315150217905550828160010181905550818160030160008201518160000155602082015181600101908161119791906137d1565b5090505060018160020160006101000a81548160ff021916908360068111156111c3576111c2612a0e565b5b021790555050505050505092915050565b5050565b6000600b60008373ffffffffffffffffffffffffffffffffffffffff1673ffffffffffffffffffffffffffffffffffffffff16815260200190815260200160002060009054906101000a900460ff169050919050565b7f000000000000000000000000000000000000000000000000000000000000000073ffffffffffffffffffffffffffffffffffffffff166329e40d4b600154836040518363ffffffff1660e01b815260040161128b9291906138a3565b602060405180830381865afa1580156112a8573d6000803e3d6000fd5b505050506040513d601f19601f820116820180604052508101906112cc91906138cc565b611302576040517f075fd2b100000000000000000000000000000000000000000000000000000000815260040160405180910390fd5b50565b60008054906101000a900460ff161561134a576040517fb186267000000000000000000000000000000000000000000000000000000000815260040160405180910390fd5b565b600073eeeeeeeeeeeeeeeeeeeeeeeeeeeeeeeeeeeeeeee73ffffffffffffffffffffffffffffffffffffffff168373ffffffffffffffffffffffffffffffffffffffff16036113b4578173ffffffffffffffffffffffffffffffffffffffff163190506113c1565b6113be83836121cc565b90505b92915050565b73eeeeeeeeeeeeeeeeeeeeeeeeeeeeeeeeeeeeeeee73ffffffffffffffffffffffffffffffffffffffff168373ffffffffffffffffffffffffffffffffffffffff160361141d576114188282612201565b611429565b611428838383612221565b5b505050565b6114366123e4565b600860008373ffffffffffffffffffffffffffffffffffffffff1673ffffffffffffffffffffffffffffffffffffffff1681526020019081526020016000206040518060a00160405290816000820160009054906101000a900460ff161515151581526020016000820160019054906101000a900473ffffffffffffffffffffffffffffffffffffffff1673ffffffffffffffffffffffffffffffffffffffff1673ffffffffffffffffffffffffffffffffffffffff168152602001600182015481526020016002820160009054906101000a900460ff1660068111156115205761151f612a0e565b5b600681111561153257611531612a0e565b5b81526020016003820160405180604001604052908160008201548152602001600182018054611560906135fe565b80601f016020809104026020016040519081016040528092919081815260200182805461158c906135fe565b80156115d95780601f106115ae576101008083540402835291602001916115d9565b820191906000526020600020905b8154815290600101906020018083116115bc57829003601f168201915b505050505081525050815250509050600560009054906101000a900467ffffffffffffffff1667ffffffffffffffff164211801561164057506002600681111561162657611625612a0e565b5b8160600151600681111561163d5761163c612a0e565b5b14155b156116775760038160600190600681111561165e5761165d612a0e565b5b9081600681111561167257611671612a0e565b5b815250505b919050565b6116868282612270565b81600460156101000a81548167ffffffffffffffff021916908367ffffffffffffffff16021790555080600560006101000a81548167ffffffffffffffff021916908367ffffffffffffffff1602179055507f70d34c8836b996cffd8970ba5edf940d83ca7c8f30f738ea4fd8566a37d93359600460159054906101000a900467ffffffffffffffff16600560009054906101000a900467ffffffffffffffff1633604051611737939291906138f9565b60405180910390a15050565b80600b60008473ffffffffffffffffffffffffffffffffffffffff1673ffffffffffffffffffffffffffffffffffffffff16815260200190815260200160002060006101000a81548160ff0219169083151502179055508015158273ffffffffffffffffffffffffffffffffffffffff167fb50515ac68c6752ce8d118ee9c125360859a03dcb13a0cfb6b3faad68217f4bd336040516117e39190612920565b60405180910390a35050565b806007819055507f3105a3dc553e12034caac9827a83c245fe17eef4ee1eedb45238ac7449a5bbec6007546040516118279190612954565b60405180910390a150565b61183a612443565b60006118458461142e565b90506000816040015190506002600681111561186457611863612a0e565b5b8260600151600681111561187b5761187a612a0e565b5b0361188557600090505b6040518060400160405280836020015173ffffffffffffffffffffffffffffffffffffffff168152602001828152509250505092915050565b6006548110156118fa576040517ff96c278800000000000000000000000000000000000000000000000000000000815260040160405180910390fd5b806006819055507fbcd4e1b1c11d47ad4c6c51ad73d8e77d29313bc1a491330186316a74a1f995f46006546040516119329190612954565b60405180910390a150565b600042600460159054906101000a900467ffffffffffffffff1667ffffffffffffffff16118061198c5750600560009054906101000a900467ffffffffffffffff1667ffffffffffffffff1642115b1561199a576000905061199f565b600190505b90565b60006119ad8261142e565b606001519050919050565b6119c1826122d6565b8060000151600460006101000a81548160ff0219169083151502179055507f000000000000000000000000000000000000000000000000000000000000000073ffffffffffffffffffffffffffffffffffffffff16635ab1bd536040518163ffffffff1660e01b8152600401602060405180830381865afa158015611a4a573d6000803e3d6000fd5b505050506040513d601f19601f82011682018060405250810190611a6e919061396e565b600460016101000a81548173ffffffffffffffffffffffffffffffffffffffff021916908373ffffffffffffffffffffffffffffffffffffffff160217905550611ac08160200151826040015161167c565b611acd81608001516118be565b611ada81606001516117ef565b5050565b600b60008273ffffffffffffffffffffffffffffffffffffffff1673ffffffffffffffffffffffffffffffffffffffff16815260200190815260200160002060009054906101000a900460ff16611b61576040517f075fd2b100000000000000000000000000000000000000000000000000000000815260040160405180910390fd5b5050565b611b6d61235e565b60008083806020019051810190611b8491906139b0565b915091506000600860008473ffffffffffffffffffffffffffffffffffffffff1673ffffffffffffffffffffffffffffffffffffffff1681526020019081526020016000209050600960008573ffffffffffffffffffffffffffffffffffffffff1673ffffffffffffffffffffffffffffffffffffffff16815260200190815260200160002060008473ffffffffffffffffffffffffffffffffffffffff1673ffffffffffffffffffffffffffffffffffffffff16815260200190815260200160002060009054906101000a900460ff1680611c95575060026006811115611c6f57611c6e612a0e565b5b8160020160009054906101000a900460ff166006811115611c9357611c92612a0e565b5b145b15611cd757826040517ff4a513b9000000000000000000000000000000000000000000000000000000008152600401611cce9190612920565b60405180910390fd5b6001600960008673ffffffffffffffffffffffffffffffffffffffff1673ffffffffffffffffffffffffffffffffffffffff16815260200190815260200160002060008573ffffffffffffffffffffffffffffffffffffffff1673ffffffffffffffffffffffffffffffffffffffff16815260200190815260200160002060006101000a81548160ff0219169083151502179055506001600a60008573ffffffffffffffffffffffffffffffffffffffff1673ffffffffffffffffffffffffffffffffffffffff1681526020019081526020016000206000846006811115611dc257611dc1612a0e565b5b6006811115611dd457611dd3612a0e565b5b81526020019081526020016000206000828254611df1919061336e565b925050819055508273ffffffffffffffffffffffffffffffffffffffff167fb735720d94de3d169791e2f713cbac8da02eb4d5a344d5a6d5ef542fdf3b24388386604051611e409291906139f0565b60405180910390a2600754600a60008573ffffffffffffffffffffffffffffffffffffffff1673ffffffffffffffffffffffffffffffffffffffff168152602001908152602001600020600060026006811115611ea057611e9f612a0e565b5b6006811115611eb257611eb1612a0e565b5b8152602001908152602001600020540361206a5760028160020160006101000a81548160ff02191690836006811115611eee57611eed612a0e565b5b021790555060007f000000000000000000000000000000000000000000000000000000000000000073ffffffffffffffffffffffffffffffffffffffff1663068bcd8d6001546040518263ffffffff1660e01b8152600401611f509190612954565b600060405180830381865afa158015611f6d573d6000803e3d6000fd5b505050506040513d6000823e3d601f19601f82011682018060405250810190611f969190613b54565b90506000826001015490508060026000828254611fb39190613b9d565b92505081905550611fed82604001518460000160019054906101000a900473ffffffffffffffffffffffffffffffffffffffff16836113c7565b8473ffffffffffffffffffffffffffffffffffffffff167fb5b51454adfa840bd593658325a60a50b0216f12eb5d2937efe6cea935675b7d8460000160019054906101000a900473ffffffffffffffffffffffffffffffffffffffff1685600101548960405161205f93929190613bd1565b60405180910390a250505b5050505050565b5050565b50565b50565b600080600460019054906101000a900473ffffffffffffffffffffffffffffffffffffffff1673ffffffffffffffffffffffffffffffffffffffff1663dd93da43856040518263ffffffff1660e01b81526004016120d99190612920565b600060405180830381865afa1580156120f6573d6000803e3d6000fd5b505050506040513d6000823e3d601f19601f8201168201806040525081019061211f9190613ce0565b9050600460019054906101000a900473ffffffffffffffffffffffffffffffffffffffff1673ffffffffffffffffffffffffffffffffffffffff16635e8a79158260000151856040518363ffffffff1660e01b8152600401612182929190613d29565b602060405180830381865afa15801561219f573d6000803e3d6000fd5b505050506040513d601f19601f820116820180604052508101906121c391906138cc565b91505092915050565b6000816014526f70a0823100000000000000000000000060005260208060246010865afa601f3d111660205102905092915050565b60003860003884865af161221d5763b12d13eb6000526004601cfd5b5050565b81601452806034526fa9059cbb00000000000000000000000060005260206000604460106000875af13d156001600051141716612266576390b8ec186000526004601cfd5b6000603452505050565b8167ffffffffffffffff1642118061229b57508067ffffffffffffffff168267ffffffffffffffff16115b156122d2576040517f7fcce2a900000000000000000000000000000000000000000000000000000000815260040160405180910390fd5b5050565b6122de610bec565b60006001541461231a576040517f439a74c900000000000000000000000000000000000000000000000000000000815260040160405180910390fd5b60008103612354576040517f7fcce2a900000000000000000000000000000000000000000000000000000000815260040160405180910390fd5b8060018190555050565b42600460159054906101000a900467ffffffffffffffff1667ffffffffffffffff1611806123ab5750600560009054906101000a900467ffffffffffffffff1667ffffffffffffffff1642115b156123e2576040517fb828c90000000000000000000000000000000000000000000000000000000000815260040160405180910390fd5b565b6040518060a00160405280600015158152602001600073ffffffffffffffffffffffffffffffffffffffff16815260200160008152602001600060068111156124305761242f612a0e565b5b815260200161243d612473565b81525090565b6040518060400160405280600073ffffffffffffffffffffffffffffffffffffffff168152602001600081525090565b604051806040016040528060008152602001606081525090565b6000604051905090565b600080fd5b600080fd5b600073ffffffffffffffffffffffffffffffffffffffff82169050919050565b60006124cc826124a1565b9050919050565b6124dc816124c1565b81146124e757600080fd5b50565b6000813590506124f9816124d3565b92915050565b60006020828403121561251557612514612497565b5b6000612523848285016124ea565b91505092915050565b60008115159050919050565b6125418161252c565b82525050565b600060208201905061255c6000830184612538565b92915050565b600080fd5b6000601f19601f8301169050919050565b7f4e487b7100000000000000000000000000000000000000000000000000000000600052604160045260246000fd5b6125b082612567565b810181811067ffffffffffffffff821117156125cf576125ce612578565b5b80604052505050565b60006125e261248d565b90506125ee82826125a7565b919050565b600067ffffffffffffffff82111561260e5761260d612578565b5b602082029050602081019050919050565b600080fd5b6000612637612632846125f3565b6125d8565b9050808382526020820190506020840283018581111561265a5761265961261f565b5b835b81811015612683578061266f88826124ea565b84526020840193505060208101905061265c565b5050509392505050565b600082601f8301126126a2576126a1612562565b5b81356126b2848260208601612624565b91505092915050565b600080fd5b600067ffffffffffffffff8211156126db576126da612578565b5b6126e482612567565b9050602081019050919050565b82818337600083830152505050565b600061271361270e846126c0565b6125d8565b90508281526020810184848401111561272f5761272e6126bb565b5b61273a8482856126f1565b509392505050565b600082601f83011261275757612756612562565b5b8135612767848260208601612700565b91505092915050565b60008060006060848603121561278957612788612497565b5b600084013567ffffffffffffffff8111156127a7576127a661249c565b5b6127b38682870161268d565b935050602084013567ffffffffffffffff8111156127d4576127d361249c565b5b6127e086828701612742565b92505060406127f1868287016124ea565b9150509250925092565b6000819050919050565b600061282061281b612816846124a1565b6127fb565b6124a1565b9050919050565b600061283282612805565b9050919050565b600061284482612827565b9050919050565b61285481612839565b82525050565b600060208201905061286f600083018461284b565b92915050565b6000806040838503121561288c5761288b612497565b5b600061289a858286016124ea565b92505060206128ab858286016124ea565b9150509250929050565b600080604083850312156128cc576128cb612497565b5b600083013567ffffffffffffffff8111156128ea576128e961249c565b5b6128f685828601612742565b9250506020612907858286016124ea565b9150509250929050565b61291a816124c1565b82525050565b60006020820190506129356000830184612911565b92915050565b6000819050919050565b61294e8161293b565b82525050565b60006020820190506129696000830184612945565b92915050565b6000819050919050565b6129828161296f565b82525050565b600060208201905061299d6000830184612979565b92915050565b600067ffffffffffffffff82169050919050565b6129c0816129a3565b82525050565b60006020820190506129db60008301846129b7565b92915050565b6129ea8161252c565b82525050565b6129f9816124c1565b82525050565b612a088161293b565b82525050565b7f4e487b7100000000000000000000000000000000000000000000000000000000600052602160045260246000fd5b60078110612a4e57612a4d612a0e565b5b50565b6000819050612a5f82612a3d565b919050565b6000612a6f82612a51565b9050919050565b612a7f81612a64565b82525050565b600081519050919050565b600082825260208201905092915050565b60005b83811015612abf578082015181840152602081019050612aa4565b60008484015250505050565b6000612ad682612a85565b612ae08185612a90565b9350612af0818560208601612aa1565b612af981612567565b840191505092915050565b6000604083016000830151612b1c60008601826129ff565b5060208301518482036020860152612b348282612acb565b9150508091505092915050565b600060a083016000830151612b5960008601826129e1565b506020830151612b6c60208601826129f0565b506040830151612b7f60408601826129ff565b506060830151612b926060860182612a76565b5060808301518482036080860152612baa8282612b04565b9150508091505092915050565b60006020820190508181036000830152612bd18184612b41565b905092915050565b60078110612be657600080fd5b50565b600081359050612bf881612bd9565b92915050565b60008060408385031215612c1557612c14612497565b5b6000612c23858286016124ea565b9250506020612c3485828601612be9565b9150509250929050565b612c47816129a3565b8114612c5257600080fd5b50565b600081359050612c6481612c3e565b92915050565b60008060408385031215612c8157612c80612497565b5b6000612c8f85828601612c55565b9250506020612ca085828601612c55565b9150509250929050565b612cb38161252c565b8114612cbe57600080fd5b50565b600081359050612cd081612caa565b92915050565b60008060408385031215612ced57612cec612497565b5b6000612cfb858286016124ea565b9250506020612d0c85828601612cc1565b9150509250929050565b612d1f8161293b565b8114612d2a57600080fd5b50565b600081359050612d3c81612d16565b92915050565b600060208284031215612d5857612d57612497565b5b6000612d6684828501612d2d565b91505092915050565b600067ffffffffffffffff821115612d8a57612d89612578565b5b602082029050602081019050919050565b6000612dae612da984612d6f565b6125d8565b90508083825260208201905060208402830185811115612dd157612dd061261f565b5b835b81811015612dfa5780612de68882612cc1565b845260208401935050602081019050612dd3565b5050509392505050565b600082601f830112612e1957612e18612562565b5b8135612e29848260208601612d9b565b91505092915050565b60008060408385031215612e4957612e48612497565b5b600083013567ffffffffffffffff811115612e6757612e6661249c565b5b612e738582860161268d565b925050602083013567ffffffffffffffff811115612e9457612e9361249c565b5b612ea085828601612e04565b9150509250929050565b600067ffffffffffffffff821115612ec557612ec4612578565b5b602082029050602081019050919050565b6000612ee9612ee484612eaa565b6125d8565b90508083825260208201905060208402830185811115612f0c57612f0b61261f565b5b835b81811015612f5357803567ffffffffffffffff811115612f3157612f30612562565b5b808601612f3e8982612742565b85526020850194505050602081019050612f0e565b5050509392505050565b600082601f830112612f7257612f71612562565b5b8135612f82848260208601612ed6565b91505092915050565b60008060408385031215612fa257612fa1612497565b5b600083013567ffffffffffffffff811115612fc057612fbf61249c565b5b612fcc8582860161268d565b925050602083013567ffffffffffffffff811115612fed57612fec61249c565b5b612ff985828601612f5d565b9150509250929050565b600081519050919050565b600082825260208201905092915050565b6000819050602082019050919050565b60408201600082015161304560008501826129f0565b50602082015161305860208501826129ff565b50505050565b600061306a838361302f565b60408301905092915050565b6000602082019050919050565b600061308e82613003565b613098818561300e565b93506130a38361301f565b8060005b838110156130d45781516130bb888261305e565b97506130c683613076565b9250506001810190506130a7565b5085935050505092915050565b600060208201905081810360008301526130fb8184613083565b905092915050565b61310c81612a64565b82525050565b60006020820190506131276000830184613103565b92915050565b6000806040838503121561314457613143612497565b5b600061315285828601612d2d565b925050602083013567ffffffffffffffff8111156131735761317261249c565b5b61317f85828601612742565b9150509250929050565b7f4e487b7100000000000000000000000000000000000000000000000000000000600052603260045260246000fd5b600080fd5b600080fd5b6000815190506131d181612caa565b92915050565b6000815190506131e681612c3e565b92915050565b6000815190506131fb81612d16565b92915050565b600060a08284031215613217576132166131b8565b5b61322160a06125d8565b90506000613231848285016131c2565b6000830152506020613245848285016131d7565b6020830152506040613259848285016131d7565b604083015250606061326d848285016131ec565b6060830152506080613281848285016131ec565b60808301525092915050565b600060a082840312156132a3576132a2612497565b5b60006132b184828501613201565b91505092915050565b600081519050919050565b600082825260208201905092915050565b60006132e1826132ba565b6132eb81856132c5565b93506132fb818560208601612aa1565b61330481612567565b840191505092915050565b60006040820190506133246000830185612945565b818103602083015261333681846132d6565b90509392505050565b7f4e487b7100000000000000000000000000000000000000000000000000000000600052601160045260246000fd5b60006133798261293b565b91506133848361293b565b925082820190508082111561339c5761339b61333f565b5b92915050565b7f4e487b7100000000000000000000000000000000000000000000000000000000600052600160045260246000fd5b60006133dc826124a1565b9050919050565b6133ec816133d1565b81146133f757600080fd5b50565b600081519050613409816133e3565b92915050565b600067ffffffffffffffff82111561342a57613429612578565b5b61343382612567565b9050602081019050919050565b600061345361344e8461340f565b6125d8565b90508281526020810184848401111561346f5761346e6126bb565b5b61347a848285612aa1565b509392505050565b600082601f83011261349757613496612562565b5b81516134a7848260208601613440565b91505092915050565b6000604082840312156134c6576134c56131b8565b5b6134d060406125d8565b905060006134e0848285016131ec565b600083015250602082015167ffffffffffffffff811115613504576135036131bd565b5b61351084828501613482565b60208301525092915050565b6000806000806080858703121561353657613535612497565b5b6000613544878288016133fa565b9450506020613555878288016133fa565b9350506040613566878288016131ec565b925050606085015167ffffffffffffffff8111156135875761358661249c565b5b613593878288016134b0565b91505092959194509250565b600060408201905081810360008301526135b981856132d6565b90506135c86020830184612911565b9392505050565b7f4e487b7100000000000000000000000000000000000000000000000000000000600052602260045260246000fd5b6000600282049050600182168061361657607f821691505b602082108103613629576136286135cf565b5b50919050565b60008190508160005260206000209050919050565b60006020601f8301049050919050565b600082821b905092915050565b6000600883026136917fffffffffffffffffffffffffffffffffffffffffffffffffffffffffffffffff82613654565b61369b8683613654565b95508019841693508086168417925050509392505050565b60006136ce6136c96136c48461293b565b6127fb565b61293b565b9050919050565b6000819050919050565b6136e8836136b3565b6136fc6136f4826136d5565b848454613661565b825550505050565b600090565b613711613704565b61371c8184846136df565b505050565b5b8181101561374057613735600082613709565b600181019050613722565b5050565b601f821115613785576137568161362f565b61375f84613644565b8101602085101561376e578190505b61378261377a85613644565b830182613721565b50505b505050565b600082821c905092915050565b60006137a86000198460080261378a565b1980831691505092915050565b60006137c18383613797565b9150826002028217905092915050565b6137da82612a85565b67ffffffffffffffff8111156137f3576137f2612578565b5b6137fd82546135fe565b613808828285613744565b600060209050601f83116001811461383b5760008415613829578287015190505b61383385826137b5565b86555061389b565b601f1984166138498661362f565b60005b828110156138715784890151825560018201915060208501945060208101905061384c565b8683101561388e578489015161388a601f891682613797565b8355505b6001600288020188555050505b505050505050565b60006040820190506138b86000830185612945565b6138c56020830184612911565b9392505050565b6000602082840312156138e2576138e1612497565b5b60006138f0848285016131c2565b91505092915050565b600060608201905061390e60008301866129b7565b61391b60208301856129b7565b6139286040830184612911565b949350505050565b600061393b826124c1565b9050919050565b61394b81613930565b811461395657600080fd5b50565b60008151905061396881613942565b92915050565b60006020828403121561398457613983612497565b5b600061399284828501613959565b91505092915050565b6000815190506139aa81612bd9565b92915050565b600080604083850312156139c7576139c6612497565b5b60006139d5858286016133fa565b92505060206139e68582860161399b565b9150509250929050565b6000604082019050613a056000830185613103565b613a126020830184612911565b9392505050565b613a228161296f565b8114613a2d57600080fd5b50565b600081519050613a3f81613a19565b92915050565b6000613a50826124c1565b9050919050565b613a6081613a45565b8114613a6b57600080fd5b50565b600081519050613a7d81613a57565b92915050565b600081519050613a92816124d3565b92915050565b600060c08284031215613aae57613aad6131b8565b5b613ab860c06125d8565b90506000613ac884828501613a30565b6000830152506020613adc84828501613a6e565b6020830152506040613af084828501613a83565b604083015250606082015167ffffffffffffffff811115613b1457613b136131bd565b5b613b20848285016134b0565b6060830152506080613b3484828501613a30565b60808301525060a0613b4884828501613a30565b60a08301525092915050565b600060208284031215613b6a57613b69612497565b5b600082015167ffffffffffffffff811115613b8857613b8761249c565b5b613b9484828501613a98565b91505092915050565b6000613ba88261293b565b9150613bb38361293b565b9250828203905081811115613bcb57613bca61333f565b5b92915050565b6000606082019050613be66000830186612911565b613bf36020830185612945565b613c006040830184612911565b949350505050565b600060c08284031215613c1e57613c1d6131b8565b5b613c2860c06125d8565b90506000613c3884828501613a30565b6000830152506020613c4c848285016131ec565b602083015250604082015167ffffffffffffffff811115613c7057613c6f6131bd565b5b613c7c84828501613482565b604083015250606082015167ffffffffffffffff811115613ca057613c9f6131bd565b5b613cac848285016134b0565b6060830152506080613cc084828501613a83565b60808301525060a0613cd484828501613a83565b60a08301525092915050565b600060208284031215613cf657613cf5612497565b5b600082015167ffffffffffffffff811115613d1457613d1361249c565b5b613d2084828501613c08565b91505092915050565b6000604082019050613d3e6000830185612979565b613d4b6020830184612911565b939250505056fea26469706673582212203bf70a2232cddc01ff41c9cc0bd90eb0c78d7071c5f159429009656550e1fe4b64736f6c63430008140033","opcodes":"PUSH1 0xC0 PUSH1 0x40 MSTORE CALLVALUE DUP1 ISZERO PUSH3 0x11 JUMPI PUSH1 0x0 DUP1 REVERT JUMPDEST POP PUSH1 0x40 MLOAD PUSH3 0x415C CODESIZE SUB DUP1 PUSH3 0x415C DUP4 CODECOPY DUP2 DUP2 ADD PUSH1 0x40 MSTORE DUP2 ADD SWAP1 PUSH3 0x37 SWAP2 SWAP1 PUSH3 0x2AB JUMP JUMPDEST DUP2 DUP2 DUP2 DUP2 DUP2 PUSH20 0xFFFFFFFFFFFFFFFFFFFFFFFFFFFFFFFFFFFFFFFF AND PUSH1 0x80 DUP2 PUSH20 0xFFFFFFFFFFFFFFFFFFFFFFFFFFFFFFFFFFFFFFFF AND DUP2 MSTORE POP POP DUP1 PUSH1 0x40 MLOAD PUSH1 0x20 ADD PUSH3 0x82 SWAP2 SWAP1 PUSH3 0x36E JUMP JUMPDEST PUSH1 0x40 MLOAD PUSH1 0x20 DUP2 DUP4 SUB SUB DUP2 MSTORE SWAP1 PUSH1 0x40 MSTORE DUP1 MLOAD SWAP1 PUSH1 0x20 ADD KECCAK256 PUSH1 0xA0 DUP2 DUP2 MSTORE POP POP POP POP PUSH1 0x1 PUSH1 0x3 DUP2 SWAP1 SSTORE POP POP POP POP POP PUSH3 0x392 JUMP JUMPDEST PUSH1 0x0 PUSH1 0x40 MLOAD SWAP1 POP SWAP1 JUMP JUMPDEST PUSH1 0x0 DUP1 REVERT JUMPDEST PUSH1 0x0 DUP1 REVERT JUMPDEST PUSH1 0x0 PUSH20 0xFFFFFFFFFFFFFFFFFFFFFFFFFFFFFFFFFFFFFFFF DUP3 AND SWAP1 POP SWAP2 SWAP1 POP JUMP JUMPDEST PUSH1 0x0 PUSH3 0xF4 DUP3 PUSH3 0xC7 JUMP JUMPDEST SWAP1 POP SWAP2 SWAP1 POP JUMP JUMPDEST PUSH3 0x106 DUP2 PUSH3 0xE7 JUMP JUMPDEST DUP2 EQ PUSH3 0x112 JUMPI PUSH1 0x0 DUP1 REVERT JUMPDEST POP JUMP JUMPDEST PUSH1 0x0 DUP2 MLOAD SWAP1 POP PUSH3 0x126 DUP2 PUSH3 0xFB JUMP JUMPDEST SWAP3 SWAP2 POP POP JUMP JUMPDEST PUSH1 0x0 DUP1 REVERT JUMPDEST PUSH1 0x0 DUP1 REVERT JUMPDEST PUSH1 0x0 PUSH1 0x1F NOT PUSH1 0x1F DUP4 ADD AND SWAP1 POP SWAP2 SWAP1 POP JUMP JUMPDEST PUSH32 0x4E487B7100000000000000000000000000000000000000000000000000000000 PUSH1 0x0 MSTORE PUSH1 0x41 PUSH1 0x4 MSTORE PUSH1 0x24 PUSH1 0x0 REVERT JUMPDEST PUSH3 0x181 DUP3 PUSH3 0x136 JUMP JUMPDEST DUP2 ADD DUP2 DUP2 LT PUSH8 0xFFFFFFFFFFFFFFFF DUP3 GT OR ISZERO PUSH3 0x1A3 JUMPI PUSH3 0x1A2 PUSH3 0x147 JUMP JUMPDEST JUMPDEST DUP1 PUSH1 0x40 MSTORE POP POP POP JUMP JUMPDEST PUSH1 0x0 PUSH3 0x1B8 PUSH3 0xB3 JUMP JUMPDEST SWAP1 POP PUSH3 0x1C6 DUP3 DUP3 PUSH3 0x176 JUMP JUMPDEST SWAP2 SWAP1 POP JUMP JUMPDEST PUSH1 0x0 PUSH8 0xFFFFFFFFFFFFFFFF DUP3 GT ISZERO PUSH3 0x1E9 JUMPI PUSH3 0x1E8 PUSH3 0x147 JUMP JUMPDEST JUMPDEST PUSH3 0x1F4 DUP3 PUSH3 0x136 JUMP JUMPDEST SWAP1 POP PUSH1 0x20 DUP2 ADD SWAP1 POP SWAP2 SWAP1 POP JUMP JUMPDEST PUSH1 0x0 JUMPDEST DUP4 DUP2 LT ISZERO PUSH3 0x221 JUMPI DUP1 DUP3 ADD MLOAD DUP2 DUP5 ADD MSTORE PUSH1 0x20 DUP2 ADD SWAP1 POP PUSH3 0x204 JUMP JUMPDEST PUSH1 0x0 DUP5 DUP5 ADD MSTORE POP POP POP POP JUMP JUMPDEST PUSH1 0x0 PUSH3 0x244 PUSH3 0x23E DUP5 PUSH3 0x1CB JUMP JUMPDEST PUSH3 0x1AC JUMP JUMPDEST SWAP1 POP DUP3 DUP2 MSTORE PUSH1 0x20 DUP2 ADD DUP5 DUP5 DUP5 ADD GT ISZERO PUSH3 0x263 JUMPI PUSH3 0x262 PUSH3 0x131 JUMP JUMPDEST JUMPDEST PUSH3 0x270 DUP5 DUP3 DUP6 PUSH3 0x201 JUMP JUMPDEST POP SWAP4 SWAP3 POP POP POP JUMP JUMPDEST PUSH1 0x0 DUP3 PUSH1 0x1F DUP4 ADD SLT PUSH3 0x290 JUMPI PUSH3 0x28F PUSH3 0x12C JUMP JUMPDEST JUMPDEST DUP2 MLOAD PUSH3 0x2A2 DUP5 DUP3 PUSH1 0x20 DUP7 ADD PUSH3 0x22D JUMP JUMPDEST SWAP2 POP POP SWAP3 SWAP2 POP POP JUMP JUMPDEST PUSH1 0x0 DUP1 PUSH1 0x40 DUP4 DUP6 SUB SLT ISZERO PUSH3 0x2C5 JUMPI PUSH3 0x2C4 PUSH3 0xBD JUMP JUMPDEST JUMPDEST PUSH1 0x0 PUSH3 0x2D5 DUP6 DUP3 DUP7 ADD PUSH3 0x115 JUMP JUMPDEST SWAP3 POP POP PUSH1 0x20 DUP4 ADD MLOAD PUSH8 0xFFFFFFFFFFFFFFFF DUP2 GT ISZERO PUSH3 0x2F9 JUMPI PUSH3 0x2F8 PUSH3 0xC2 JUMP JUMPDEST JUMPDEST PUSH3 0x307 DUP6 DUP3 DUP7 ADD PUSH3 0x278 JUMP JUMPDEST SWAP2 POP POP SWAP3 POP SWAP3 SWAP1 POP JUMP JUMPDEST PUSH1 0x0 DUP2 MLOAD SWAP1 POP SWAP2 SWAP1 POP JUMP JUMPDEST PUSH1 0x0 DUP3 DUP3 MSTORE PUSH1 0x20 DUP3 ADD SWAP1 POP SWAP3 SWAP2 POP POP JUMP JUMPDEST PUSH1 0x0 PUSH3 0x33A DUP3 PUSH3 0x311 JUMP JUMPDEST PUSH3 0x346 DUP2 DUP6 PUSH3 0x31C JUMP JUMPDEST SWAP4 POP PUSH3 0x358 DUP2 DUP6 PUSH1 0x20 DUP7 ADD PUSH3 0x201 JUMP JUMPDEST PUSH3 0x363 DUP2 PUSH3 0x136 JUMP JUMPDEST DUP5 ADD SWAP2 POP POP SWAP3 SWAP2 POP POP JUMP JUMPDEST PUSH1 0x0 PUSH1 0x20 DUP3 ADD SWAP1 POP DUP2 DUP2 SUB PUSH1 0x0 DUP4 ADD MSTORE PUSH3 0x38A DUP2 DUP5 PUSH3 0x32D JUMP JUMPDEST SWAP1 POP SWAP3 SWAP2 POP POP JUMP JUMPDEST PUSH1 0x80 MLOAD PUSH1 0xA0 MLOAD PUSH2 0x3D88 PUSH3 0x3D4 PUSH1 0x0 CODECOPY PUSH1 0x0 PUSH2 0x806 ADD MSTORE PUSH1 0x0 DUP2 DUP2 PUSH2 0x76D ADD MSTORE DUP2 DUP2 PUSH2 0xBEE ADD MSTORE DUP2 DUP2 PUSH2 0x1230 ADD MSTORE DUP2 DUP2 PUSH2 0x19E1 ADD MSTORE PUSH2 0x1EF7 ADD MSTORE PUSH2 0x3D88 PUSH1 0x0 RETURN INVALID PUSH1 0x80 PUSH1 0x40 MSTORE PUSH1 0x4 CALLDATASIZE LT PUSH2 0x1C6 JUMPI PUSH1 0x0 CALLDATALOAD PUSH1 0xE0 SHR DUP1 PUSH4 0x75777AAA GT PUSH2 0xF7 JUMPI DUP1 PUSH4 0xBA539F8F GT PUSH2 0x95 JUMPI DUP1 PUSH4 0xEB11AF93 GT PUSH2 0x64 JUMPI DUP1 PUSH4 0xEB11AF93 EQ PUSH2 0x668 JUMPI DUP1 PUSH4 0xEDD146CC EQ PUSH2 0x6A5 JUMPI DUP1 PUSH4 0xEF2920FC EQ PUSH2 0x6CE JUMPI DUP1 PUSH4 0xF5B0DFB7 EQ PUSH2 0x6EA JUMPI PUSH2 0x1CD JUMP JUMPDEST DUP1 PUSH4 0xBA539F8F EQ PUSH2 0x5BE JUMPI DUP1 PUSH4 0xBFA80731 EQ PUSH2 0x5E9 JUMPI DUP1 PUSH4 0xD2E17F59 EQ PUSH2 0x612 JUMPI DUP1 PUSH4 0xDF868ED3 EQ PUSH2 0x63D JUMPI PUSH2 0x1CD JUMP JUMPDEST DUP1 PUSH4 0xA0016B8C GT PUSH2 0xD1 JUMPI DUP1 PUSH4 0xA0016B8C EQ PUSH2 0x504 JUMPI DUP1 PUSH4 0xA0CF0AEA EQ PUSH2 0x52D JUMPI DUP1 PUSH4 0xA15ACFD5 EQ PUSH2 0x558 JUMPI DUP1 PUSH4 0xB2B878D0 EQ PUSH2 0x581 JUMPI PUSH2 0x1CD JUMP JUMPDEST DUP1 PUSH4 0x75777AAA EQ PUSH2 0x487 JUMPI DUP1 PUSH4 0x7D0EEF61 EQ PUSH2 0x4B0 JUMPI DUP1 PUSH4 0x80FADDEB EQ PUSH2 0x4DB JUMPI PUSH2 0x1CD JUMP JUMPDEST DUP1 PUSH4 0x4533D678 GT PUSH2 0x164 JUMPI DUP1 PUSH4 0x51CFF8D9 GT PUSH2 0x13E JUMPI DUP1 PUSH4 0x51CFF8D9 EQ PUSH2 0x3B9 JUMPI DUP1 PUSH4 0x57089739 EQ PUSH2 0x3E2 JUMPI DUP1 PUSH4 0x62812A39 EQ PUSH2 0x40D JUMPI DUP1 PUSH4 0x6F46FFB9 EQ PUSH2 0x44A JUMPI PUSH2 0x1CD JUMP JUMPDEST DUP1 PUSH4 0x4533D678 EQ PUSH2 0x326 JUMPI DUP1 PUSH4 0x4AB4BA42 EQ PUSH2 0x351 JUMPI DUP1 PUSH4 0x4D31D087 EQ PUSH2 0x37C JUMPI PUSH2 0x1CD JUMP JUMPDEST DUP1 PUSH4 0x2B302CBD GT PUSH2 0x1A0 JUMPI DUP1 PUSH4 0x2B302CBD EQ PUSH2 0x263 JUMPI DUP1 PUSH4 0x2BBE0CAE EQ PUSH2 0x2A0 JUMPI DUP1 PUSH4 0x38FFF2D0 EQ PUSH2 0x2D0 JUMPI DUP1 PUSH4 0x42FDA9C7 EQ PUSH2 0x2FB JUMPI PUSH2 0x1CD JUMP JUMPDEST DUP1 PUSH4 0x84EA36E EQ PUSH2 0x1D2 JUMPI DUP1 PUSH4 0xA6F0EE9 EQ PUSH2 0x20F JUMPI DUP1 PUSH4 0x15CC481E EQ PUSH2 0x238 JUMPI PUSH2 0x1CD JUMP JUMPDEST CALLDATASIZE PUSH2 0x1CD JUMPI STOP JUMPDEST PUSH1 0x0 DUP1 REVERT JUMPDEST CALLVALUE DUP1 ISZERO PUSH2 0x1DE JUMPI PUSH1 0x0 DUP1 REVERT JUMPDEST POP PUSH2 0x1F9 PUSH1 0x4 DUP1 CALLDATASIZE SUB DUP2 ADD SWAP1 PUSH2 0x1F4 SWAP2 SWAP1 PUSH2 0x24FF JUMP JUMPDEST PUSH2 0x713 JUMP JUMPDEST PUSH1 0x40 MLOAD PUSH2 0x206 SWAP2 SWAP1 PUSH2 0x2547 JUMP JUMPDEST PUSH1 0x40 MLOAD DUP1 SWAP2 SUB SWAP1 RETURN JUMPDEST CALLVALUE DUP1 ISZERO PUSH2 0x21B JUMPI PUSH1 0x0 DUP1 REVERT JUMPDEST POP PUSH2 0x236 PUSH1 0x4 DUP1 CALLDATASIZE SUB DUP2 ADD SWAP1 PUSH2 0x231 SWAP2 SWAP1 PUSH2 0x2770 JUMP JUMPDEST PUSH2 0x733 JUMP JUMPDEST STOP JUMPDEST CALLVALUE DUP1 ISZERO PUSH2 0x244 JUMPI PUSH1 0x0 DUP1 REVERT JUMPDEST POP PUSH2 0x24D PUSH2 0x769 JUMP JUMPDEST PUSH1 0x40 MLOAD PUSH2 0x25A SWAP2 SWAP1 PUSH2 0x285A JUMP JUMPDEST PUSH1 0x40 MLOAD DUP1 SWAP2 SUB SWAP1 RETURN JUMPDEST CALLVALUE DUP1 ISZERO PUSH2 0x26F JUMPI PUSH1 0x0 DUP1 REVERT JUMPDEST POP PUSH2 0x28A PUSH1 0x4 DUP1 CALLDATASIZE SUB DUP2 ADD SWAP1 PUSH2 0x285 SWAP2 SWAP1 PUSH2 0x2875 JUMP JUMPDEST PUSH2 0x791 JUMP JUMPDEST PUSH1 0x40 MLOAD PUSH2 0x297 SWAP2 SWAP1 PUSH2 0x2547 JUMP JUMPDEST PUSH1 0x40 MLOAD DUP1 SWAP2 SUB SWAP1 RETURN JUMPDEST PUSH2 0x2BA PUSH1 0x4 DUP1 CALLDATASIZE SUB DUP2 ADD SWAP1 PUSH2 0x2B5 SWAP2 SWAP1 PUSH2 0x28B5 JUMP JUMPDEST PUSH2 0x7C0 JUMP JUMPDEST PUSH1 0x40 MLOAD PUSH2 0x2C7 SWAP2 SWAP1 PUSH2 0x2920 JUMP JUMPDEST PUSH1 0x40 MLOAD DUP1 SWAP2 SUB SWAP1 RETURN JUMPDEST CALLVALUE DUP1 ISZERO PUSH2 0x2DC JUMPI PUSH1 0x0 DUP1 REVERT JUMPDEST POP PUSH2 0x2E5 PUSH2 0x7F8 JUMP JUMPDEST PUSH1 0x40 MLOAD PUSH2 0x2F2 SWAP2 SWAP1 PUSH2 0x2954 JUMP JUMPDEST PUSH1 0x40 MLOAD DUP1 SWAP2 SUB SWAP1 RETURN JUMPDEST CALLVALUE DUP1 ISZERO PUSH2 0x307 JUMPI PUSH1 0x0 DUP1 REVERT JUMPDEST POP PUSH2 0x310 PUSH2 0x802 JUMP JUMPDEST PUSH1 0x40 MLOAD PUSH2 0x31D SWAP2 SWAP1 PUSH2 0x2988 JUMP JUMPDEST PUSH1 0x40 MLOAD DUP1 SWAP2 SUB SWAP1 RETURN JUMPDEST CALLVALUE DUP1 ISZERO PUSH2 0x332 JUMPI PUSH1 0x0 DUP1 REVERT JUMPDEST POP PUSH2 0x33B PUSH2 0x82A JUMP JUMPDEST PUSH1 0x40 MLOAD PUSH2 0x348 SWAP2 SWAP1 PUSH2 0x29C6 JUMP JUMPDEST PUSH1 0x40 MLOAD DUP1 SWAP2 SUB SWAP1 RETURN JUMPDEST CALLVALUE DUP1 ISZERO PUSH2 0x35D JUMPI PUSH1 0x0 DUP1 REVERT JUMPDEST POP PUSH2 0x366 PUSH2 0x844 JUMP JUMPDEST PUSH1 0x40 MLOAD PUSH2 0x373 SWAP2 SWAP1 PUSH2 0x2954 JUMP JUMPDEST PUSH1 0x40 MLOAD DUP1 SWAP2 SUB SWAP1 RETURN JUMPDEST CALLVALUE DUP1 ISZERO PUSH2 0x388 JUMPI PUSH1 0x0 DUP1 REVERT JUMPDEST POP PUSH2 0x3A3 PUSH1 0x4 DUP1 CALLDATASIZE SUB DUP2 ADD SWAP1 PUSH2 0x39E SWAP2 SWAP1 PUSH2 0x24FF JUMP JUMPDEST PUSH2 0x84E JUMP JUMPDEST PUSH1 0x40 MLOAD PUSH2 0x3B0 SWAP2 SWAP1 PUSH2 0x2547 JUMP JUMPDEST PUSH1 0x40 MLOAD DUP1 SWAP2 SUB SWAP1 RETURN JUMPDEST CALLVALUE DUP1 ISZERO PUSH2 0x3C5 JUMPI PUSH1 0x0 DUP1 REVERT JUMPDEST POP PUSH2 0x3E0 PUSH1 0x4 DUP1 CALLDATASIZE SUB DUP2 ADD SWAP1 PUSH2 0x3DB SWAP2 SWAP1 PUSH2 0x24FF JUMP JUMPDEST PUSH2 0x860 JUMP JUMPDEST STOP JUMPDEST CALLVALUE DUP1 ISZERO PUSH2 0x3EE JUMPI PUSH1 0x0 DUP1 REVERT JUMPDEST POP PUSH2 0x3F7 PUSH2 0x890 JUMP JUMPDEST PUSH1 0x40 MLOAD PUSH2 0x404 SWAP2 SWAP1 PUSH2 0x2547 JUMP JUMPDEST PUSH1 0x40 MLOAD DUP1 SWAP2 SUB SWAP1 RETURN JUMPDEST CALLVALUE DUP1 ISZERO PUSH2 0x419 JUMPI PUSH1 0x0 DUP1 REVERT JUMPDEST POP PUSH2 0x434 PUSH1 0x4 DUP1 CALLDATASIZE SUB DUP2 ADD SWAP1 PUSH2 0x42F SWAP2 SWAP1 PUSH2 0x24FF JUMP JUMPDEST PUSH2 0x8A3 JUMP JUMPDEST PUSH1 0x40 MLOAD PUSH2 0x441 SWAP2 SWAP1 PUSH2 0x2BB7 JUMP JUMPDEST PUSH1 0x40 MLOAD DUP1 SWAP2 SUB SWAP1 RETURN JUMPDEST CALLVALUE DUP1 ISZERO PUSH2 0x456 JUMPI PUSH1 0x0 DUP1 REVERT JUMPDEST POP PUSH2 0x471 PUSH1 0x4 DUP1 CALLDATASIZE SUB DUP2 ADD SWAP1 PUSH2 0x46C SWAP2 SWAP1 PUSH2 0x2BFE JUMP JUMPDEST PUSH2 0x8BB JUMP JUMPDEST PUSH1 0x40 MLOAD PUSH2 0x47E SWAP2 SWAP1 PUSH2 0x2954 JUMP JUMPDEST PUSH1 0x40 MLOAD DUP1 SWAP2 SUB SWAP1 RETURN JUMPDEST CALLVALUE DUP1 ISZERO PUSH2 0x493 JUMPI PUSH1 0x0 DUP1 REVERT JUMPDEST POP PUSH2 0x4AE PUSH1 0x4 DUP1 CALLDATASIZE SUB DUP2 ADD SWAP1 PUSH2 0x4A9 SWAP2 SWAP1 PUSH2 0x2C6A JUMP JUMPDEST PUSH2 0x8E0 JUMP JUMPDEST STOP JUMPDEST CALLVALUE DUP1 ISZERO PUSH2 0x4BC JUMPI PUSH1 0x0 DUP1 REVERT JUMPDEST POP PUSH2 0x4C5 PUSH2 0x8F9 JUMP JUMPDEST PUSH1 0x40 MLOAD PUSH2 0x4D2 SWAP2 SWAP1 PUSH2 0x2954 JUMP JUMPDEST PUSH1 0x40 MLOAD DUP1 SWAP2 SUB SWAP1 RETURN JUMPDEST CALLVALUE DUP1 ISZERO PUSH2 0x4E7 JUMPI PUSH1 0x0 DUP1 REVERT JUMPDEST POP PUSH2 0x502 PUSH1 0x4 DUP1 CALLDATASIZE SUB DUP2 ADD SWAP1 PUSH2 0x4FD SWAP2 SWAP1 PUSH2 0x2CD6 JUMP JUMPDEST PUSH2 0x8FF JUMP JUMPDEST STOP JUMPDEST CALLVALUE DUP1 ISZERO PUSH2 0x510 JUMPI PUSH1 0x0 DUP1 REVERT JUMPDEST POP PUSH2 0x52B PUSH1 0x4 DUP1 CALLDATASIZE SUB DUP2 ADD SWAP1 PUSH2 0x526 SWAP2 SWAP1 PUSH2 0x2D42 JUMP JUMPDEST PUSH2 0x918 JUMP JUMPDEST STOP JUMPDEST CALLVALUE DUP1 ISZERO PUSH2 0x539 JUMPI PUSH1 0x0 DUP1 REVERT JUMPDEST POP PUSH2 0x542 PUSH2 0x92F JUMP JUMPDEST PUSH1 0x40 MLOAD PUSH2 0x54F SWAP2 SWAP1 PUSH2 0x2920 JUMP JUMPDEST PUSH1 0x40 MLOAD DUP1 SWAP2 SUB SWAP1 RETURN JUMPDEST CALLVALUE DUP1 ISZERO PUSH2 0x564 JUMPI PUSH1 0x0 DUP1 REVERT JUMPDEST POP PUSH2 0x57F PUSH1 0x4 DUP1 CALLDATASIZE SUB DUP2 ADD SWAP1 PUSH2 0x57A SWAP2 SWAP1 PUSH2 0x2E32 JUMP JUMPDEST PUSH2 0x947 JUMP JUMPDEST STOP JUMPDEST CALLVALUE DUP1 ISZERO PUSH2 0x58D JUMPI PUSH1 0x0 DUP1 REVERT JUMPDEST POP PUSH2 0x5A8 PUSH1 0x4 DUP1 CALLDATASIZE SUB DUP2 ADD SWAP1 PUSH2 0x5A3 SWAP2 SWAP1 PUSH2 0x2F8B JUMP JUMPDEST PUSH2 0x9B2 JUMP JUMPDEST PUSH1 0x40 MLOAD PUSH2 0x5B5 SWAP2 SWAP1 PUSH2 0x30E1 JUMP JUMPDEST PUSH1 0x40 MLOAD DUP1 SWAP2 SUB SWAP1 RETURN JUMPDEST CALLVALUE DUP1 ISZERO PUSH2 0x5CA JUMPI PUSH1 0x0 DUP1 REVERT JUMPDEST POP PUSH2 0x5D3 PUSH2 0xACC JUMP JUMPDEST PUSH1 0x40 MLOAD PUSH2 0x5E0 SWAP2 SWAP1 PUSH2 0x2954 JUMP JUMPDEST PUSH1 0x40 MLOAD DUP1 SWAP2 SUB SWAP1 RETURN JUMPDEST CALLVALUE DUP1 ISZERO PUSH2 0x5F5 JUMPI PUSH1 0x0 DUP1 REVERT JUMPDEST POP PUSH2 0x610 PUSH1 0x4 DUP1 CALLDATASIZE SUB DUP2 ADD SWAP1 PUSH2 0x60B SWAP2 SWAP1 PUSH2 0x2D42 JUMP JUMPDEST PUSH2 0xAD2 JUMP JUMPDEST STOP JUMPDEST CALLVALUE DUP1 ISZERO PUSH2 0x61E JUMPI PUSH1 0x0 DUP1 REVERT JUMPDEST POP PUSH2 0x627 PUSH2 0xAE9 JUMP JUMPDEST PUSH1 0x40 MLOAD PUSH2 0x634 SWAP2 SWAP1 PUSH2 0x29C6 JUMP JUMPDEST PUSH1 0x40 MLOAD DUP1 SWAP2 SUB SWAP1 RETURN JUMPDEST CALLVALUE DUP1 ISZERO PUSH2 0x649 JUMPI PUSH1 0x0 DUP1 REVERT JUMPDEST POP PUSH2 0x652 PUSH2 0xB03 JUMP JUMPDEST PUSH1 0x40 MLOAD PUSH2 0x65F SWAP2 SWAP1 PUSH2 0x2547 JUMP JUMPDEST PUSH1 0x40 MLOAD DUP1 SWAP2 SUB SWAP1 RETURN JUMPDEST CALLVALUE DUP1 ISZERO PUSH2 0x674 JUMPI PUSH1 0x0 DUP1 REVERT JUMPDEST POP PUSH2 0x68F PUSH1 0x4 DUP1 CALLDATASIZE SUB DUP2 ADD SWAP1 PUSH2 0x68A SWAP2 SWAP1 PUSH2 0x24FF JUMP JUMPDEST PUSH2 0xB12 JUMP JUMPDEST PUSH1 0x40 MLOAD PUSH2 0x69C SWAP2 SWAP1 PUSH2 0x3112 JUMP JUMPDEST PUSH1 0x40 MLOAD DUP1 SWAP2 SUB SWAP1 RETURN JUMPDEST CALLVALUE DUP1 ISZERO PUSH2 0x6B1 JUMPI PUSH1 0x0 DUP1 REVERT JUMPDEST POP PUSH2 0x6CC PUSH1 0x4 DUP1 CALLDATASIZE SUB DUP2 ADD SWAP1 PUSH2 0x6C7 SWAP2 SWAP1 PUSH2 0x312D JUMP JUMPDEST PUSH2 0xB24 JUMP JUMPDEST STOP JUMPDEST PUSH2 0x6E8 PUSH1 0x4 DUP1 CALLDATASIZE SUB DUP2 ADD SWAP1 PUSH2 0x6E3 SWAP2 SWAP1 PUSH2 0x28B5 JUMP JUMPDEST PUSH2 0xB84 JUMP JUMPDEST STOP JUMPDEST CALLVALUE DUP1 ISZERO PUSH2 0x6F6 JUMPI PUSH1 0x0 DUP1 REVERT JUMPDEST POP PUSH2 0x711 PUSH1 0x4 DUP1 CALLDATASIZE SUB DUP2 ADD SWAP1 PUSH2 0x70C SWAP2 SWAP1 PUSH2 0x2D42 JUMP JUMPDEST PUSH2 0xBB6 JUMP JUMPDEST STOP JUMPDEST PUSH1 0xB PUSH1 0x20 MSTORE DUP1 PUSH1 0x0 MSTORE PUSH1 0x40 PUSH1 0x0 KECCAK256 PUSH1 0x0 SWAP2 POP SLOAD SWAP1 PUSH2 0x100 EXP SWAP1 DIV PUSH1 0xFF AND DUP2 JUMP JUMPDEST PUSH2 0x73B PUSH2 0xBEC JUMP JUMPDEST PUSH2 0x743 PUSH2 0xC73 JUMP JUMPDEST PUSH2 0x74E DUP4 DUP4 DUP4 PUSH2 0xCB1 JUMP JUMPDEST PUSH2 0x759 DUP4 DUP4 DUP4 PUSH2 0xCB6 JUMP JUMPDEST PUSH2 0x764 DUP4 DUP4 DUP4 PUSH2 0xCCA JUMP JUMPDEST POP POP POP JUMP JUMPDEST PUSH1 0x0 PUSH32 0x0 SWAP1 POP SWAP1 JUMP JUMPDEST PUSH1 0x9 PUSH1 0x20 MSTORE DUP2 PUSH1 0x0 MSTORE PUSH1 0x40 PUSH1 0x0 KECCAK256 PUSH1 0x20 MSTORE DUP1 PUSH1 0x0 MSTORE PUSH1 0x40 PUSH1 0x0 KECCAK256 PUSH1 0x0 SWAP2 POP SWAP2 POP SWAP1 SLOAD SWAP1 PUSH2 0x100 EXP SWAP1 DIV PUSH1 0xFF AND DUP2 JUMP JUMPDEST PUSH1 0x0 PUSH2 0x7CA PUSH2 0xBEC JUMP JUMPDEST PUSH2 0x7D2 PUSH2 0xC73 JUMP JUMPDEST PUSH2 0x7DC DUP4 DUP4 PUSH2 0xCCF JUMP JUMPDEST PUSH2 0x7E6 DUP4 DUP4 PUSH2 0xCD3 JUMP JUMPDEST SWAP1 POP PUSH2 0x7F2 DUP4 DUP4 PUSH2 0x11D4 JUMP JUMPDEST SWAP3 SWAP2 POP POP JUMP JUMPDEST PUSH1 0x0 PUSH1 0x1 SLOAD SWAP1 POP SWAP1 JUMP JUMPDEST PUSH1 0x0 PUSH32 0x0 SWAP1 POP SWAP1 JUMP JUMPDEST PUSH1 0x5 PUSH1 0x0 SWAP1 SLOAD SWAP1 PUSH2 0x100 EXP SWAP1 DIV PUSH8 0xFFFFFFFFFFFFFFFF AND DUP2 JUMP JUMPDEST PUSH1 0x0 PUSH1 0x2 SLOAD SWAP1 POP SWAP1 JUMP JUMPDEST PUSH1 0x0 PUSH2 0x859 DUP3 PUSH2 0x11D8 JUMP JUMPDEST SWAP1 POP SWAP2 SWAP1 POP JUMP JUMPDEST CALLER PUSH2 0x86A DUP2 PUSH2 0x122E JUMP JUMPDEST PUSH2 0x872 PUSH2 0x1305 JUMP JUMPDEST PUSH1 0x0 PUSH2 0x87E DUP4 ADDRESS PUSH2 0x134C JUMP JUMPDEST SWAP1 POP PUSH2 0x88B DUP4 CALLER DUP4 PUSH2 0x13C7 JUMP JUMPDEST POP POP POP JUMP JUMPDEST PUSH1 0x4 PUSH1 0x0 SWAP1 SLOAD SWAP1 PUSH2 0x100 EXP SWAP1 DIV PUSH1 0xFF AND DUP2 JUMP JUMPDEST PUSH2 0x8AB PUSH2 0x23E4 JUMP JUMPDEST PUSH2 0x8B4 DUP3 PUSH2 0x142E JUMP JUMPDEST SWAP1 POP SWAP2 SWAP1 POP JUMP JUMPDEST PUSH1 0xA PUSH1 0x20 MSTORE DUP2 PUSH1 0x0 MSTORE PUSH1 0x40 PUSH1 0x0 KECCAK256 PUSH1 0x20 MSTORE DUP1 PUSH1 0x0 MSTORE PUSH1 0x40 PUSH1 0x0 KECCAK256 PUSH1 0x0 SWAP2 POP SWAP2 POP POP SLOAD DUP2 JUMP JUMPDEST CALLER PUSH2 0x8EA DUP2 PUSH2 0x122E JUMP JUMPDEST PUSH2 0x8F4 DUP4 DUP4 PUSH2 0x167C JUMP JUMPDEST POP POP POP JUMP JUMPDEST PUSH1 0x7 SLOAD DUP2 JUMP JUMPDEST CALLER PUSH2 0x909 DUP2 PUSH2 0x122E JUMP JUMPDEST PUSH2 0x913 DUP4 DUP4 PUSH2 0x1743 JUMP JUMPDEST POP POP POP JUMP JUMPDEST CALLER PUSH2 0x922 DUP2 PUSH2 0x122E JUMP JUMPDEST PUSH2 0x92B DUP3 PUSH2 0x17EF JUMP JUMPDEST POP POP JUMP JUMPDEST PUSH20 0xEEEEEEEEEEEEEEEEEEEEEEEEEEEEEEEEEEEEEEEE DUP2 JUMP JUMPDEST CALLER PUSH2 0x951 DUP2 PUSH2 0x122E JUMP JUMPDEST PUSH1 0x0 DUP4 MLOAD SWAP1 POP PUSH1 0x0 JUMPDEST DUP2 DUP2 LT ISZERO PUSH2 0x9AB JUMPI PUSH2 0x9A0 DUP6 DUP3 DUP2 MLOAD DUP2 LT PUSH2 0x978 JUMPI PUSH2 0x977 PUSH2 0x3189 JUMP JUMPDEST JUMPDEST PUSH1 0x20 MUL PUSH1 0x20 ADD ADD MLOAD DUP6 DUP4 DUP2 MLOAD DUP2 LT PUSH2 0x993 JUMPI PUSH2 0x992 PUSH2 0x3189 JUMP JUMPDEST JUMPDEST PUSH1 0x20 MUL PUSH1 0x20 ADD ADD MLOAD PUSH2 0x1743 JUMP JUMPDEST DUP1 PUSH1 0x1 ADD SWAP1 POP PUSH2 0x95A JUMP JUMPDEST POP POP POP POP POP JUMP JUMPDEST PUSH1 0x60 PUSH1 0x0 DUP4 MLOAD SWAP1 POP DUP3 MLOAD DUP2 EQ PUSH2 0x9F4 JUMPI PUSH1 0x40 MLOAD PUSH32 0x7B49805600000000000000000000000000000000000000000000000000000000 DUP2 MSTORE PUSH1 0x4 ADD PUSH1 0x40 MLOAD DUP1 SWAP2 SUB SWAP1 REVERT JUMPDEST PUSH1 0x0 DUP2 PUSH8 0xFFFFFFFFFFFFFFFF DUP2 GT ISZERO PUSH2 0xA10 JUMPI PUSH2 0xA0F PUSH2 0x2578 JUMP JUMPDEST JUMPDEST PUSH1 0x40 MLOAD SWAP1 DUP1 DUP3 MSTORE DUP1 PUSH1 0x20 MUL PUSH1 0x20 ADD DUP3 ADD PUSH1 0x40 MSTORE DUP1 ISZERO PUSH2 0xA49 JUMPI DUP2 PUSH1 0x20 ADD JUMPDEST PUSH2 0xA36 PUSH2 0x2443 JUMP JUMPDEST DUP2 MSTORE PUSH1 0x20 ADD SWAP1 PUSH1 0x1 SWAP1 SUB SWAP1 DUP2 PUSH2 0xA2E JUMPI SWAP1 POP JUMPDEST POP SWAP1 POP PUSH1 0x0 JUMPDEST DUP3 DUP2 LT ISZERO PUSH2 0xAC0 JUMPI PUSH2 0xA95 DUP7 DUP3 DUP2 MLOAD DUP2 LT PUSH2 0xA6D JUMPI PUSH2 0xA6C PUSH2 0x3189 JUMP JUMPDEST JUMPDEST PUSH1 0x20 MUL PUSH1 0x20 ADD ADD MLOAD DUP7 DUP4 DUP2 MLOAD DUP2 LT PUSH2 0xA88 JUMPI PUSH2 0xA87 PUSH2 0x3189 JUMP JUMPDEST JUMPDEST PUSH1 0x20 MUL PUSH1 0x20 ADD ADD MLOAD PUSH2 0x1832 JUMP JUMPDEST DUP3 DUP3 DUP2 MLOAD DUP2 LT PUSH2 0xAA8 JUMPI PUSH2 0xAA7 PUSH2 0x3189 JUMP JUMPDEST JUMPDEST PUSH1 0x20 MUL PUSH1 0x20 ADD ADD DUP2 SWAP1 MSTORE POP DUP1 DUP1 PUSH1 0x1 ADD SWAP2 POP POP PUSH2 0xA4F JUMP JUMPDEST POP DUP1 SWAP3 POP POP POP SWAP3 SWAP2 POP POP JUMP JUMPDEST PUSH1 0x6 SLOAD DUP2 JUMP JUMPDEST CALLER PUSH2 0xADC DUP2 PUSH2 0x122E JUMP JUMPDEST PUSH2 0xAE5 DUP3 PUSH2 0x18BE JUMP JUMPDEST POP POP JUMP JUMPDEST PUSH1 0x4 PUSH1 0x15 SWAP1 SLOAD SWAP1 PUSH2 0x100 EXP SWAP1 DIV PUSH8 0xFFFFFFFFFFFFFFFF AND DUP2 JUMP JUMPDEST PUSH1 0x0 PUSH2 0xB0D PUSH2 0x193D JUMP JUMPDEST SWAP1 POP SWAP1 JUMP JUMPDEST PUSH1 0x0 PUSH2 0xB1D DUP3 PUSH2 0x19A2 JUMP JUMPDEST SWAP1 POP SWAP2 SWAP1 POP JUMP JUMPDEST PUSH1 0x0 DUP2 DUP1 PUSH1 0x20 ADD SWAP1 MLOAD DUP2 ADD SWAP1 PUSH2 0xB3A SWAP2 SWAP1 PUSH2 0x328D JUMP JUMPDEST SWAP1 POP PUSH2 0xB46 DUP4 DUP3 PUSH2 0x19B8 JUMP JUMPDEST PUSH32 0x91EFA3D50FECCDE0D0D202F8AE5C41CA0B2BE614CEBCB2BD2F4B019396E6568A DUP4 DUP4 PUSH1 0x40 MLOAD PUSH2 0xB77 SWAP3 SWAP2 SWAP1 PUSH2 0x330F JUMP JUMPDEST PUSH1 0x40 MLOAD DUP1 SWAP2 SUB SWAP1 LOG1 POP POP POP JUMP JUMPDEST PUSH2 0xB8C PUSH2 0xBEC JUMP JUMPDEST PUSH2 0xB94 PUSH2 0xC73 JUMP JUMPDEST PUSH2 0xB9E DUP3 DUP3 PUSH2 0x1ADE JUMP JUMPDEST PUSH2 0xBA8 DUP3 DUP3 PUSH2 0x1B65 JUMP JUMPDEST PUSH2 0xBB2 DUP3 DUP3 PUSH2 0x2071 JUMP JUMPDEST POP POP JUMP JUMPDEST PUSH2 0xBBE PUSH2 0xBEC JUMP JUMPDEST PUSH2 0xBC7 DUP2 PUSH2 0x2075 JUMP JUMPDEST DUP1 PUSH1 0x2 PUSH1 0x0 DUP3 DUP3 SLOAD PUSH2 0xBD9 SWAP2 SWAP1 PUSH2 0x336E JUMP JUMPDEST SWAP3 POP POP DUP2 SWAP1 SSTORE POP PUSH2 0xBE9 DUP2 PUSH2 0x2078 JUMP JUMPDEST POP JUMP JUMPDEST PUSH32 0x0 PUSH20 0xFFFFFFFFFFFFFFFFFFFFFFFFFFFFFFFFFFFFFFFF AND CALLER PUSH20 0xFFFFFFFFFFFFFFFFFFFFFFFFFFFFFFFFFFFFFFFF AND EQ PUSH2 0xC71 JUMPI PUSH1 0x40 MLOAD PUSH32 0x75FD2B100000000000000000000000000000000000000000000000000000000 DUP2 MSTORE PUSH1 0x4 ADD PUSH1 0x40 MLOAD DUP1 SWAP2 SUB SWAP1 REVERT JUMPDEST JUMP JUMPDEST PUSH1 0x0 PUSH1 0x1 SLOAD SUB PUSH2 0xCAF JUMPI PUSH1 0x40 MLOAD PUSH32 0x3DA3F98C00000000000000000000000000000000000000000000000000000000 DUP2 MSTORE PUSH1 0x4 ADD PUSH1 0x40 MLOAD DUP1 SWAP2 SUB SWAP1 REVERT JUMPDEST JUMP JUMPDEST POP POP POP JUMP JUMPDEST PUSH1 0x0 PUSH2 0xCC5 JUMPI PUSH2 0xCC4 PUSH2 0x33A2 JUMP JUMPDEST JUMPDEST POP POP POP JUMP JUMPDEST POP POP POP JUMP JUMPDEST POP POP JUMP JUMPDEST PUSH1 0x0 DUP1 PUSH1 0x0 DUP1 PUSH1 0x0 PUSH2 0xCE3 PUSH2 0x2473 JUMP JUMPDEST DUP8 DUP1 PUSH1 0x20 ADD SWAP1 MLOAD DUP2 ADD SWAP1 PUSH2 0xCF7 SWAP2 SWAP1 PUSH2 0x351C JUMP JUMPDEST DUP1 SWAP5 POP DUP2 SWAP6 POP DUP3 SWAP8 POP DUP4 SWAP7 POP POP POP POP POP PUSH1 0x4 PUSH1 0x0 SWAP1 SLOAD SWAP1 PUSH2 0x100 EXP SWAP1 DIV PUSH1 0xFF AND DUP1 PUSH2 0xD4F JUMPI POP PUSH1 0x0 PUSH20 0xFFFFFFFFFFFFFFFFFFFFFFFFFFFFFFFFFFFFFFFF AND DUP4 PUSH20 0xFFFFFFFFFFFFFFFFFFFFFFFFFFFFFFFFFFFFFFFF AND EQ ISZERO JUMPDEST SWAP5 POP DUP5 PUSH2 0xD5C JUMPI DUP7 PUSH2 0xD5E JUMP JUMPDEST DUP3 JUMPDEST SWAP6 POP DUP5 DUP1 ISZERO PUSH2 0xD74 JUMPI POP PUSH2 0xD72 DUP7 DUP9 PUSH2 0x207B JUMP JUMPDEST ISZERO JUMPDEST ISZERO PUSH2 0xDAB JUMPI PUSH1 0x40 MLOAD PUSH32 0x75FD2B100000000000000000000000000000000000000000000000000000000 DUP2 MSTORE PUSH1 0x4 ADD PUSH1 0x40 MLOAD DUP1 SWAP2 SUB SWAP1 REVERT JUMPDEST PUSH1 0x0 DUP2 PUSH1 0x20 ADD MLOAD MLOAD EQ DUP1 PUSH2 0xDC3 JUMPI POP PUSH1 0x0 DUP2 PUSH1 0x0 ADD MLOAD EQ JUMPDEST ISZERO PUSH2 0xDFA JUMPI PUSH1 0x40 MLOAD PUSH32 0xC19E07C500000000000000000000000000000000000000000000000000000000 DUP2 MSTORE PUSH1 0x4 ADD PUSH1 0x40 MLOAD DUP1 SWAP2 SUB SWAP1 REVERT JUMPDEST PUSH1 0x6 SLOAD DUP3 GT ISZERO PUSH2 0xE36 JUMPI PUSH1 0x40 MLOAD PUSH32 0x51C7AB5100000000000000000000000000000000000000000000000000000000 DUP2 MSTORE PUSH1 0x4 ADD PUSH1 0x40 MLOAD DUP1 SWAP2 SUB SWAP1 REVERT JUMPDEST PUSH1 0x0 DUP3 SUB PUSH2 0xE44 JUMPI PUSH1 0x6 SLOAD SWAP2 POP JUMPDEST PUSH1 0x0 PUSH20 0xFFFFFFFFFFFFFFFFFFFFFFFFFFFFFFFFFFFFFFFF AND DUP5 PUSH20 0xFFFFFFFFFFFFFFFFFFFFFFFFFFFFFFFFFFFFFFFF AND SUB PUSH2 0xEB5 JUMPI DUP6 PUSH1 0x40 MLOAD PUSH32 0xF4A513B900000000000000000000000000000000000000000000000000000000 DUP2 MSTORE PUSH1 0x4 ADD PUSH2 0xEAC SWAP2 SWAP1 PUSH2 0x2920 JUMP JUMPDEST PUSH1 0x40 MLOAD DUP1 SWAP2 SUB SWAP1 REVERT JUMPDEST PUSH1 0x0 PUSH1 0x8 PUSH1 0x0 DUP9 PUSH20 0xFFFFFFFFFFFFFFFFFFFFFFFFFFFFFFFFFFFFFFFF AND PUSH20 0xFFFFFFFFFFFFFFFFFFFFFFFFFFFFFFFFFFFFFFFF AND DUP2 MSTORE PUSH1 0x20 ADD SWAP1 DUP2 MSTORE PUSH1 0x20 ADD PUSH1 0x0 KECCAK256 SWAP1 POP PUSH1 0x0 PUSH1 0xA PUSH1 0x0 DUP10 PUSH20 0xFFFFFFFFFFFFFFFFFFFFFFFFFFFFFFFFFFFFFFFF AND PUSH20 0xFFFFFFFFFFFFFFFFFFFFFFFFFFFFFFFFFFFFFFFF AND DUP2 MSTORE PUSH1 0x20 ADD SWAP1 DUP2 MSTORE PUSH1 0x20 ADD PUSH1 0x0 KECCAK256 PUSH1 0x0 PUSH1 0x2 PUSH1 0x6 DUP2 GT ISZERO PUSH2 0xF4F JUMPI PUSH2 0xF4E PUSH2 0x2A0E JUMP JUMPDEST JUMPDEST PUSH1 0x6 DUP2 GT ISZERO PUSH2 0xF61 JUMPI PUSH2 0xF60 PUSH2 0x2A0E JUMP JUMPDEST JUMPDEST DUP2 MSTORE PUSH1 0x20 ADD SWAP1 DUP2 MSTORE PUSH1 0x20 ADD PUSH1 0x0 KECCAK256 SLOAD GT DUP1 PUSH2 0xFF1 JUMPI POP PUSH1 0x0 PUSH1 0xA PUSH1 0x0 DUP10 PUSH20 0xFFFFFFFFFFFFFFFFFFFFFFFFFFFFFFFFFFFFFFFF AND PUSH20 0xFFFFFFFFFFFFFFFFFFFFFFFFFFFFFFFFFFFFFFFF AND DUP2 MSTORE PUSH1 0x20 ADD SWAP1 DUP2 MSTORE PUSH1 0x20 ADD PUSH1 0x0 KECCAK256 PUSH1 0x0 PUSH1 0x3 PUSH1 0x6 DUP2 GT ISZERO PUSH2 0xFCE JUMPI PUSH2 0xFCD PUSH2 0x2A0E JUMP JUMPDEST JUMPDEST PUSH1 0x6 DUP2 GT ISZERO PUSH2 0xFE0 JUMPI PUSH2 0xFDF PUSH2 0x2A0E JUMP JUMPDEST JUMPDEST DUP2 MSTORE PUSH1 0x20 ADD SWAP1 DUP2 MSTORE PUSH1 0x20 ADD PUSH1 0x0 KECCAK256 SLOAD GT JUMPDEST ISZERO PUSH2 0x1028 JUMPI PUSH1 0x40 MLOAD PUSH32 0x75FD2B100000000000000000000000000000000000000000000000000000000 DUP2 MSTORE PUSH1 0x4 ADD PUSH1 0x40 MLOAD DUP1 SWAP2 SUB SWAP1 REVERT JUMPDEST PUSH1 0x0 PUSH1 0x6 DUP2 GT ISZERO PUSH2 0x103C JUMPI PUSH2 0x103B PUSH2 0x2A0E JUMP JUMPDEST JUMPDEST DUP2 PUSH1 0x2 ADD PUSH1 0x0 SWAP1 SLOAD SWAP1 PUSH2 0x100 EXP SWAP1 DIV PUSH1 0xFF AND PUSH1 0x6 DUP2 GT ISZERO PUSH2 0x1060 JUMPI PUSH2 0x105F PUSH2 0x2A0E JUMP JUMPDEST JUMPDEST SUB PUSH2 0x10BA JUMPI DUP7 PUSH20 0xFFFFFFFFFFFFFFFFFFFFFFFFFFFFFFFFFFFFFFFF AND PUSH32 0xA197306E3DD5494A61A695381AA809A53B8E377A685E84E404A85D5A8DA6CC62 DUP11 DUP11 PUSH1 0x40 MLOAD PUSH2 0x10AD SWAP3 SWAP2 SWAP1 PUSH2 0x359F JUMP JUMPDEST PUSH1 0x40 MLOAD DUP1 SWAP2 SUB SWAP1 LOG2 PUSH2 0x110B JUMP JUMPDEST DUP7 PUSH20 0xFFFFFFFFFFFFFFFFFFFFFFFFFFFFFFFFFFFFFFFF AND PUSH32 0xAF5977DB3AA7E6FC7D05E21C791EBD214AFA76DA27C8D8DDC8E4A9F742D7B236 DUP11 DUP11 PUSH1 0x40 MLOAD PUSH2 0x1102 SWAP3 SWAP2 SWAP1 PUSH2 0x359F JUMP JUMPDEST PUSH1 0x40 MLOAD DUP1 SWAP2 SUB SWAP1 LOG2 JUMPDEST DUP5 DUP2 PUSH1 0x0 ADD PUSH1 0x1 PUSH2 0x100 EXP DUP2 SLOAD DUP2 PUSH20 0xFFFFFFFFFFFFFFFFFFFFFFFFFFFFFFFFFFFFFFFF MUL NOT AND SWAP1 DUP4 PUSH20 0xFFFFFFFFFFFFFFFFFFFFFFFFFFFFFFFFFFFFFFFF AND MUL OR SWAP1 SSTORE POP DUP6 DUP2 PUSH1 0x0 ADD PUSH1 0x0 PUSH2 0x100 EXP DUP2 SLOAD DUP2 PUSH1 0xFF MUL NOT AND SWAP1 DUP4 ISZERO ISZERO MUL OR SWAP1 SSTORE POP DUP3 DUP2 PUSH1 0x1 ADD DUP2 SWAP1 SSTORE POP DUP2 DUP2 PUSH1 0x3 ADD PUSH1 0x0 DUP3 ADD MLOAD DUP2 PUSH1 0x0 ADD SSTORE PUSH1 0x20 DUP3 ADD MLOAD DUP2 PUSH1 0x1 ADD SWAP1 DUP2 PUSH2 0x1197 SWAP2 SWAP1 PUSH2 0x37D1 JUMP JUMPDEST POP SWAP1 POP POP PUSH1 0x1 DUP2 PUSH1 0x2 ADD PUSH1 0x0 PUSH2 0x100 EXP DUP2 SLOAD DUP2 PUSH1 0xFF MUL NOT AND SWAP1 DUP4 PUSH1 0x6 DUP2 GT ISZERO PUSH2 0x11C3 JUMPI PUSH2 0x11C2 PUSH2 0x2A0E JUMP JUMPDEST JUMPDEST MUL OR SWAP1 SSTORE POP POP POP POP POP POP POP SWAP3 SWAP2 POP POP JUMP JUMPDEST POP POP JUMP JUMPDEST PUSH1 0x0 PUSH1 0xB PUSH1 0x0 DUP4 PUSH20 0xFFFFFFFFFFFFFFFFFFFFFFFFFFFFFFFFFFFFFFFF AND PUSH20 0xFFFFFFFFFFFFFFFFFFFFFFFFFFFFFFFFFFFFFFFF AND DUP2 MSTORE PUSH1 0x20 ADD SWAP1 DUP2 MSTORE PUSH1 0x20 ADD PUSH1 0x0 KECCAK256 PUSH1 0x0 SWAP1 SLOAD SWAP1 PUSH2 0x100 EXP SWAP1 DIV PUSH1 0xFF AND SWAP1 POP SWAP2 SWAP1 POP JUMP JUMPDEST PUSH32 0x0 PUSH20 0xFFFFFFFFFFFFFFFFFFFFFFFFFFFFFFFFFFFFFFFF AND PUSH4 0x29E40D4B PUSH1 0x1 SLOAD DUP4 PUSH1 0x40 MLOAD DUP4 PUSH4 0xFFFFFFFF AND PUSH1 0xE0 SHL DUP2 MSTORE PUSH1 0x4 ADD PUSH2 0x128B SWAP3 SWAP2 SWAP1 PUSH2 0x38A3 JUMP JUMPDEST PUSH1 0x20 PUSH1 0x40 MLOAD DUP1 DUP4 SUB DUP2 DUP7 GAS STATICCALL ISZERO DUP1 ISZERO PUSH2 0x12A8 JUMPI RETURNDATASIZE PUSH1 0x0 DUP1 RETURNDATACOPY RETURNDATASIZE PUSH1 0x0 REVERT JUMPDEST POP POP POP POP PUSH1 0x40 MLOAD RETURNDATASIZE PUSH1 0x1F NOT PUSH1 0x1F DUP3 ADD AND DUP3 ADD DUP1 PUSH1 0x40 MSTORE POP DUP2 ADD SWAP1 PUSH2 0x12CC SWAP2 SWAP1 PUSH2 0x38CC JUMP JUMPDEST PUSH2 0x1302 JUMPI PUSH1 0x40 MLOAD PUSH32 0x75FD2B100000000000000000000000000000000000000000000000000000000 DUP2 MSTORE PUSH1 0x4 ADD PUSH1 0x40 MLOAD DUP1 SWAP2 SUB SWAP1 REVERT JUMPDEST POP JUMP JUMPDEST PUSH1 0x0 DUP1 SLOAD SWAP1 PUSH2 0x100 EXP SWAP1 DIV PUSH1 0xFF AND ISZERO PUSH2 0x134A JUMPI PUSH1 0x40 MLOAD PUSH32 0xB186267000000000000000000000000000000000000000000000000000000000 DUP2 MSTORE PUSH1 0x4 ADD PUSH1 0x40 MLOAD DUP1 SWAP2 SUB SWAP1 REVERT JUMPDEST JUMP JUMPDEST PUSH1 0x0 PUSH20 0xEEEEEEEEEEEEEEEEEEEEEEEEEEEEEEEEEEEEEEEE PUSH20 0xFFFFFFFFFFFFFFFFFFFFFFFFFFFFFFFFFFFFFFFF AND DUP4 PUSH20 0xFFFFFFFFFFFFFFFFFFFFFFFFFFFFFFFFFFFFFFFF AND SUB PUSH2 0x13B4 JUMPI DUP2 PUSH20 0xFFFFFFFFFFFFFFFFFFFFFFFFFFFFFFFFFFFFFFFF AND BALANCE SWAP1 POP PUSH2 0x13C1 JUMP JUMPDEST PUSH2 0x13BE DUP4 DUP4 PUSH2 0x21CC JUMP JUMPDEST SWAP1 POP JUMPDEST SWAP3 SWAP2 POP POP JUMP JUMPDEST PUSH20 0xEEEEEEEEEEEEEEEEEEEEEEEEEEEEEEEEEEEEEEEE PUSH20 0xFFFFFFFFFFFFFFFFFFFFFFFFFFFFFFFFFFFFFFFF AND DUP4 PUSH20 0xFFFFFFFFFFFFFFFFFFFFFFFFFFFFFFFFFFFFFFFF AND SUB PUSH2 0x141D JUMPI PUSH2 0x1418 DUP3 DUP3 PUSH2 0x2201 JUMP JUMPDEST PUSH2 0x1429 JUMP JUMPDEST PUSH2 0x1428 DUP4 DUP4 DUP4 PUSH2 0x2221 JUMP JUMPDEST JUMPDEST POP POP POP JUMP JUMPDEST PUSH2 0x1436 PUSH2 0x23E4 JUMP JUMPDEST PUSH1 0x8 PUSH1 0x0 DUP4 PUSH20 0xFFFFFFFFFFFFFFFFFFFFFFFFFFFFFFFFFFFFFFFF AND PUSH20 0xFFFFFFFFFFFFFFFFFFFFFFFFFFFFFFFFFFFFFFFF AND DUP2 MSTORE PUSH1 0x20 ADD SWAP1 DUP2 MSTORE PUSH1 0x20 ADD PUSH1 0x0 KECCAK256 PUSH1 0x40 MLOAD DUP1 PUSH1 0xA0 ADD PUSH1 0x40 MSTORE SWAP1 DUP2 PUSH1 0x0 DUP3 ADD PUSH1 0x0 SWAP1 SLOAD SWAP1 PUSH2 0x100 EXP SWAP1 DIV PUSH1 0xFF AND ISZERO ISZERO ISZERO ISZERO DUP2 MSTORE PUSH1 0x20 ADD PUSH1 0x0 DUP3 ADD PUSH1 0x1 SWAP1 SLOAD SWAP1 PUSH2 0x100 EXP SWAP1 DIV PUSH20 0xFFFFFFFFFFFFFFFFFFFFFFFFFFFFFFFFFFFFFFFF AND PUSH20 0xFFFFFFFFFFFFFFFFFFFFFFFFFFFFFFFFFFFFFFFF AND PUSH20 0xFFFFFFFFFFFFFFFFFFFFFFFFFFFFFFFFFFFFFFFF AND DUP2 MSTORE PUSH1 0x20 ADD PUSH1 0x1 DUP3 ADD SLOAD DUP2 MSTORE PUSH1 0x20 ADD PUSH1 0x2 DUP3 ADD PUSH1 0x0 SWAP1 SLOAD SWAP1 PUSH2 0x100 EXP SWAP1 DIV PUSH1 0xFF AND PUSH1 0x6 DUP2 GT ISZERO PUSH2 0x1520 JUMPI PUSH2 0x151F PUSH2 0x2A0E JUMP JUMPDEST JUMPDEST PUSH1 0x6 DUP2 GT ISZERO PUSH2 0x1532 JUMPI PUSH2 0x1531 PUSH2 0x2A0E JUMP JUMPDEST JUMPDEST DUP2 MSTORE PUSH1 0x20 ADD PUSH1 0x3 DUP3 ADD PUSH1 0x40 MLOAD DUP1 PUSH1 0x40 ADD PUSH1 0x40 MSTORE SWAP1 DUP2 PUSH1 0x0 DUP3 ADD SLOAD DUP2 MSTORE PUSH1 0x20 ADD PUSH1 0x1 DUP3 ADD DUP1 SLOAD PUSH2 0x1560 SWAP1 PUSH2 0x35FE JUMP JUMPDEST DUP1 PUSH1 0x1F ADD PUSH1 0x20 DUP1 SWAP2 DIV MUL PUSH1 0x20 ADD PUSH1 0x40 MLOAD SWAP1 DUP2 ADD PUSH1 0x40 MSTORE DUP1 SWAP3 SWAP2 SWAP1 DUP2 DUP2 MSTORE PUSH1 0x20 ADD DUP3 DUP1 SLOAD PUSH2 0x158C SWAP1 PUSH2 0x35FE JUMP JUMPDEST DUP1 ISZERO PUSH2 0x15D9 JUMPI DUP1 PUSH1 0x1F LT PUSH2 0x15AE JUMPI PUSH2 0x100 DUP1 DUP4 SLOAD DIV MUL DUP4 MSTORE SWAP2 PUSH1 0x20 ADD SWAP2 PUSH2 0x15D9 JUMP JUMPDEST DUP3 ADD SWAP2 SWAP1 PUSH1 0x0 MSTORE PUSH1 0x20 PUSH1 0x0 KECCAK256 SWAP1 JUMPDEST DUP2 SLOAD DUP2 MSTORE SWAP1 PUSH1 0x1 ADD SWAP1 PUSH1 0x20 ADD DUP1 DUP4 GT PUSH2 0x15BC JUMPI DUP3 SWAP1 SUB PUSH1 0x1F AND DUP3 ADD SWAP2 JUMPDEST POP POP POP POP POP DUP2 MSTORE POP POP DUP2 MSTORE POP POP SWAP1 POP PUSH1 0x5 PUSH1 0x0 SWAP1 SLOAD SWAP1 PUSH2 0x100 EXP SWAP1 DIV PUSH8 0xFFFFFFFFFFFFFFFF AND PUSH8 0xFFFFFFFFFFFFFFFF AND TIMESTAMP GT DUP1 ISZERO PUSH2 0x1640 JUMPI POP PUSH1 0x2 PUSH1 0x6 DUP2 GT ISZERO PUSH2 0x1626 JUMPI PUSH2 0x1625 PUSH2 0x2A0E JUMP JUMPDEST JUMPDEST DUP2 PUSH1 0x60 ADD MLOAD PUSH1 0x6 DUP2 GT ISZERO PUSH2 0x163D JUMPI PUSH2 0x163C PUSH2 0x2A0E JUMP JUMPDEST JUMPDEST EQ ISZERO JUMPDEST ISZERO PUSH2 0x1677 JUMPI PUSH1 0x3 DUP2 PUSH1 0x60 ADD SWAP1 PUSH1 0x6 DUP2 GT ISZERO PUSH2 0x165E JUMPI PUSH2 0x165D PUSH2 0x2A0E JUMP JUMPDEST JUMPDEST SWAP1 DUP2 PUSH1 0x6 DUP2 GT ISZERO PUSH2 0x1672 JUMPI PUSH2 0x1671 PUSH2 0x2A0E JUMP JUMPDEST JUMPDEST DUP2 MSTORE POP POP JUMPDEST SWAP2 SWAP1 POP JUMP JUMPDEST PUSH2 0x1686 DUP3 DUP3 PUSH2 0x2270 JUMP JUMPDEST DUP2 PUSH1 0x4 PUSH1 0x15 PUSH2 0x100 EXP DUP2 SLOAD DUP2 PUSH8 0xFFFFFFFFFFFFFFFF MUL NOT AND SWAP1 DUP4 PUSH8 0xFFFFFFFFFFFFFFFF AND MUL OR SWAP1 SSTORE POP DUP1 PUSH1 0x5 PUSH1 0x0 PUSH2 0x100 EXP DUP2 SLOAD DUP2 PUSH8 0xFFFFFFFFFFFFFFFF MUL NOT AND SWAP1 DUP4 PUSH8 0xFFFFFFFFFFFFFFFF AND MUL OR SWAP1 SSTORE POP PUSH32 0x70D34C8836B996CFFD8970BA5EDF940D83CA7C8F30F738EA4FD8566A37D93359 PUSH1 0x4 PUSH1 0x15 SWAP1 SLOAD SWAP1 PUSH2 0x100 EXP SWAP1 DIV PUSH8 0xFFFFFFFFFFFFFFFF AND PUSH1 0x5 PUSH1 0x0 SWAP1 SLOAD SWAP1 PUSH2 0x100 EXP SWAP1 DIV PUSH8 0xFFFFFFFFFFFFFFFF AND CALLER PUSH1 0x40 MLOAD PUSH2 0x1737 SWAP4 SWAP3 SWAP2 SWAP1 PUSH2 0x38F9 JUMP JUMPDEST PUSH1 0x40 MLOAD DUP1 SWAP2 SUB SWAP1 LOG1 POP POP JUMP JUMPDEST DUP1 PUSH1 0xB PUSH1 0x0 DUP5 PUSH20 0xFFFFFFFFFFFFFFFFFFFFFFFFFFFFFFFFFFFFFFFF AND PUSH20 0xFFFFFFFFFFFFFFFFFFFFFFFFFFFFFFFFFFFFFFFF AND DUP2 MSTORE PUSH1 0x20 ADD SWAP1 DUP2 MSTORE PUSH1 0x20 ADD PUSH1 0x0 KECCAK256 PUSH1 0x0 PUSH2 0x100 EXP DUP2 SLOAD DUP2 PUSH1 0xFF MUL NOT AND SWAP1 DUP4 ISZERO ISZERO MUL OR SWAP1 SSTORE POP DUP1 ISZERO ISZERO DUP3 PUSH20 0xFFFFFFFFFFFFFFFFFFFFFFFFFFFFFFFFFFFFFFFF AND PUSH32 0xB50515AC68C6752CE8D118EE9C125360859A03DCB13A0CFB6B3FAAD68217F4BD CALLER PUSH1 0x40 MLOAD PUSH2 0x17E3 SWAP2 SWAP1 PUSH2 0x2920 JUMP JUMPDEST PUSH1 0x40 MLOAD DUP1 SWAP2 SUB SWAP1 LOG3 POP POP JUMP JUMPDEST DUP1 PUSH1 0x7 DUP2 SWAP1 SSTORE POP PUSH32 0x3105A3DC553E12034CAAC9827A83C245FE17EEF4EE1EEDB45238AC7449A5BBEC PUSH1 0x7 SLOAD PUSH1 0x40 MLOAD PUSH2 0x1827 SWAP2 SWAP1 PUSH2 0x2954 JUMP JUMPDEST PUSH1 0x40 MLOAD DUP1 SWAP2 SUB SWAP1 LOG1 POP JUMP JUMPDEST PUSH2 0x183A PUSH2 0x2443 JUMP JUMPDEST PUSH1 0x0 PUSH2 0x1845 DUP5 PUSH2 0x142E JUMP JUMPDEST SWAP1 POP PUSH1 0x0 DUP2 PUSH1 0x40 ADD MLOAD SWAP1 POP PUSH1 0x2 PUSH1 0x6 DUP2 GT ISZERO PUSH2 0x1864 JUMPI PUSH2 0x1863 PUSH2 0x2A0E JUMP JUMPDEST JUMPDEST DUP3 PUSH1 0x60 ADD MLOAD PUSH1 0x6 DUP2 GT ISZERO PUSH2 0x187B JUMPI PUSH2 0x187A PUSH2 0x2A0E JUMP JUMPDEST JUMPDEST SUB PUSH2 0x1885 JUMPI PUSH1 0x0 SWAP1 POP JUMPDEST PUSH1 0x40 MLOAD DUP1 PUSH1 0x40 ADD PUSH1 0x40 MSTORE DUP1 DUP4 PUSH1 0x20 ADD MLOAD PUSH20 0xFFFFFFFFFFFFFFFFFFFFFFFFFFFFFFFFFFFFFFFF AND DUP2 MSTORE PUSH1 0x20 ADD DUP3 DUP2 MSTORE POP SWAP3 POP POP POP SWAP3 SWAP2 POP POP JUMP JUMPDEST PUSH1 0x6 SLOAD DUP2 LT ISZERO PUSH2 0x18FA JUMPI PUSH1 0x40 MLOAD PUSH32 0xF96C278800000000000000000000000000000000000000000000000000000000 DUP2 MSTORE PUSH1 0x4 ADD PUSH1 0x40 MLOAD DUP1 SWAP2 SUB SWAP1 REVERT JUMPDEST DUP1 PUSH1 0x6 DUP2 SWAP1 SSTORE POP PUSH32 0xBCD4E1B1C11D47AD4C6C51AD73D8E77D29313BC1A491330186316A74A1F995F4 PUSH1 0x6 SLOAD PUSH1 0x40 MLOAD PUSH2 0x1932 SWAP2 SWAP1 PUSH2 0x2954 JUMP JUMPDEST PUSH1 0x40 MLOAD DUP1 SWAP2 SUB SWAP1 LOG1 POP JUMP JUMPDEST PUSH1 0x0 TIMESTAMP PUSH1 0x4 PUSH1 0x15 SWAP1 SLOAD SWAP1 PUSH2 0x100 EXP SWAP1 DIV PUSH8 0xFFFFFFFFFFFFFFFF AND PUSH8 0xFFFFFFFFFFFFFFFF AND GT DUP1 PUSH2 0x198C JUMPI POP PUSH1 0x5 PUSH1 0x0 SWAP1 SLOAD SWAP1 PUSH2 0x100 EXP SWAP1 DIV PUSH8 0xFFFFFFFFFFFFFFFF AND PUSH8 0xFFFFFFFFFFFFFFFF AND TIMESTAMP GT JUMPDEST ISZERO PUSH2 0x199A JUMPI PUSH1 0x0 SWAP1 POP PUSH2 0x199F JUMP JUMPDEST PUSH1 0x1 SWAP1 POP JUMPDEST SWAP1 JUMP JUMPDEST PUSH1 0x0 PUSH2 0x19AD DUP3 PUSH2 0x142E JUMP JUMPDEST PUSH1 0x60 ADD MLOAD SWAP1 POP SWAP2 SWAP1 POP JUMP JUMPDEST PUSH2 0x19C1 DUP3 PUSH2 0x22D6 JUMP JUMPDEST DUP1 PUSH1 0x0 ADD MLOAD PUSH1 0x4 PUSH1 0x0 PUSH2 0x100 EXP DUP2 SLOAD DUP2 PUSH1 0xFF MUL NOT AND SWAP1 DUP4 ISZERO ISZERO MUL OR SWAP1 SSTORE POP PUSH32 0x0 PUSH20 0xFFFFFFFFFFFFFFFFFFFFFFFFFFFFFFFFFFFFFFFF AND PUSH4 0x5AB1BD53 PUSH1 0x40 MLOAD DUP2 PUSH4 0xFFFFFFFF AND PUSH1 0xE0 SHL DUP2 MSTORE PUSH1 0x4 ADD PUSH1 0x20 PUSH1 0x40 MLOAD DUP1 DUP4 SUB DUP2 DUP7 GAS STATICCALL ISZERO DUP1 ISZERO PUSH2 0x1A4A JUMPI RETURNDATASIZE PUSH1 0x0 DUP1 RETURNDATACOPY RETURNDATASIZE PUSH1 0x0 REVERT JUMPDEST POP POP POP POP PUSH1 0x40 MLOAD RETURNDATASIZE PUSH1 0x1F NOT PUSH1 0x1F DUP3 ADD AND DUP3 ADD DUP1 PUSH1 0x40 MSTORE POP DUP2 ADD SWAP1 PUSH2 0x1A6E SWAP2 SWAP1 PUSH2 0x396E JUMP JUMPDEST PUSH1 0x4 PUSH1 0x1 PUSH2 0x100 EXP DUP2 SLOAD DUP2 PUSH20 0xFFFFFFFFFFFFFFFFFFFFFFFFFFFFFFFFFFFFFFFF MUL NOT AND SWAP1 DUP4 PUSH20 0xFFFFFFFFFFFFFFFFFFFFFFFFFFFFFFFFFFFFFFFF AND MUL OR SWAP1 SSTORE POP PUSH2 0x1AC0 DUP2 PUSH1 0x20 ADD MLOAD DUP3 PUSH1 0x40 ADD MLOAD PUSH2 0x167C JUMP JUMPDEST PUSH2 0x1ACD DUP2 PUSH1 0x80 ADD MLOAD PUSH2 0x18BE JUMP JUMPDEST PUSH2 0x1ADA DUP2 PUSH1 0x60 ADD MLOAD PUSH2 0x17EF JUMP JUMPDEST POP POP JUMP JUMPDEST PUSH1 0xB PUSH1 0x0 DUP3 PUSH20 0xFFFFFFFFFFFFFFFFFFFFFFFFFFFFFFFFFFFFFFFF AND PUSH20 0xFFFFFFFFFFFFFFFFFFFFFFFFFFFFFFFFFFFFFFFF AND DUP2 MSTORE PUSH1 0x20 ADD SWAP1 DUP2 MSTORE PUSH1 0x20 ADD PUSH1 0x0 KECCAK256 PUSH1 0x0 SWAP1 SLOAD SWAP1 PUSH2 0x100 EXP SWAP1 DIV PUSH1 0xFF AND PUSH2 0x1B61 JUMPI PUSH1 0x40 MLOAD PUSH32 0x75FD2B100000000000000000000000000000000000000000000000000000000 DUP2 MSTORE PUSH1 0x4 ADD PUSH1 0x40 MLOAD DUP1 SWAP2 SUB SWAP1 REVERT JUMPDEST POP POP JUMP JUMPDEST PUSH2 0x1B6D PUSH2 0x235E JUMP JUMPDEST PUSH1 0x0 DUP1 DUP4 DUP1 PUSH1 0x20 ADD SWAP1 MLOAD DUP2 ADD SWAP1 PUSH2 0x1B84 SWAP2 SWAP1 PUSH2 0x39B0 JUMP JUMPDEST SWAP2 POP SWAP2 POP PUSH1 0x0 PUSH1 0x8 PUSH1 0x0 DUP5 PUSH20 0xFFFFFFFFFFFFFFFFFFFFFFFFFFFFFFFFFFFFFFFF AND PUSH20 0xFFFFFFFFFFFFFFFFFFFFFFFFFFFFFFFFFFFFFFFF AND DUP2 MSTORE PUSH1 0x20 ADD SWAP1 DUP2 MSTORE PUSH1 0x20 ADD PUSH1 0x0 KECCAK256 SWAP1 POP PUSH1 0x9 PUSH1 0x0 DUP6 PUSH20 0xFFFFFFFFFFFFFFFFFFFFFFFFFFFFFFFFFFFFFFFF AND PUSH20 0xFFFFFFFFFFFFFFFFFFFFFFFFFFFFFFFFFFFFFFFF AND DUP2 MSTORE PUSH1 0x20 ADD SWAP1 DUP2 MSTORE PUSH1 0x20 ADD PUSH1 0x0 KECCAK256 PUSH1 0x0 DUP5 PUSH20 0xFFFFFFFFFFFFFFFFFFFFFFFFFFFFFFFFFFFFFFFF AND PUSH20 0xFFFFFFFFFFFFFFFFFFFFFFFFFFFFFFFFFFFFFFFF AND DUP2 MSTORE PUSH1 0x20 ADD SWAP1 DUP2 MSTORE PUSH1 0x20 ADD PUSH1 0x0 KECCAK256 PUSH1 0x0 SWAP1 SLOAD SWAP1 PUSH2 0x100 EXP SWAP1 DIV PUSH1 0xFF AND DUP1 PUSH2 0x1C95 JUMPI POP PUSH1 0x2 PUSH1 0x6 DUP2 GT ISZERO PUSH2 0x1C6F JUMPI PUSH2 0x1C6E PUSH2 0x2A0E JUMP JUMPDEST JUMPDEST DUP2 PUSH1 0x2 ADD PUSH1 0x0 SWAP1 SLOAD SWAP1 PUSH2 0x100 EXP SWAP1 DIV PUSH1 0xFF AND PUSH1 0x6 DUP2 GT ISZERO PUSH2 0x1C93 JUMPI PUSH2 0x1C92 PUSH2 0x2A0E JUMP JUMPDEST JUMPDEST EQ JUMPDEST ISZERO PUSH2 0x1CD7 JUMPI DUP3 PUSH1 0x40 MLOAD PUSH32 0xF4A513B900000000000000000000000000000000000000000000000000000000 DUP2 MSTORE PUSH1 0x4 ADD PUSH2 0x1CCE SWAP2 SWAP1 PUSH2 0x2920 JUMP JUMPDEST PUSH1 0x40 MLOAD DUP1 SWAP2 SUB SWAP1 REVERT JUMPDEST PUSH1 0x1 PUSH1 0x9 PUSH1 0x0 DUP7 PUSH20 0xFFFFFFFFFFFFFFFFFFFFFFFFFFFFFFFFFFFFFFFF AND PUSH20 0xFFFFFFFFFFFFFFFFFFFFFFFFFFFFFFFFFFFFFFFF AND DUP2 MSTORE PUSH1 0x20 ADD SWAP1 DUP2 MSTORE PUSH1 0x20 ADD PUSH1 0x0 KECCAK256 PUSH1 0x0 DUP6 PUSH20 0xFFFFFFFFFFFFFFFFFFFFFFFFFFFFFFFFFFFFFFFF AND PUSH20 0xFFFFFFFFFFFFFFFFFFFFFFFFFFFFFFFFFFFFFFFF AND DUP2 MSTORE PUSH1 0x20 ADD SWAP1 DUP2 MSTORE PUSH1 0x20 ADD PUSH1 0x0 KECCAK256 PUSH1 0x0 PUSH2 0x100 EXP DUP2 SLOAD DUP2 PUSH1 0xFF MUL NOT AND SWAP1 DUP4 ISZERO ISZERO MUL OR SWAP1 SSTORE POP PUSH1 0x1 PUSH1 0xA PUSH1 0x0 DUP6 PUSH20 0xFFFFFFFFFFFFFFFFFFFFFFFFFFFFFFFFFFFFFFFF AND PUSH20 0xFFFFFFFFFFFFFFFFFFFFFFFFFFFFFFFFFFFFFFFF AND DUP2 MSTORE PUSH1 0x20 ADD SWAP1 DUP2 MSTORE PUSH1 0x20 ADD PUSH1 0x0 KECCAK256 PUSH1 0x0 DUP5 PUSH1 0x6 DUP2 GT ISZERO PUSH2 0x1DC2 JUMPI PUSH2 0x1DC1 PUSH2 0x2A0E JUMP JUMPDEST JUMPDEST PUSH1 0x6 DUP2 GT ISZERO PUSH2 0x1DD4 JUMPI PUSH2 0x1DD3 PUSH2 0x2A0E JUMP JUMPDEST JUMPDEST DUP2 MSTORE PUSH1 0x20 ADD SWAP1 DUP2 MSTORE PUSH1 0x20 ADD PUSH1 0x0 KECCAK256 PUSH1 0x0 DUP3 DUP3 SLOAD PUSH2 0x1DF1 SWAP2 SWAP1 PUSH2 0x336E JUMP JUMPDEST SWAP3 POP POP DUP2 SWAP1 SSTORE POP DUP3 PUSH20 0xFFFFFFFFFFFFFFFFFFFFFFFFFFFFFFFFFFFFFFFF AND PUSH32 0xB735720D94DE3D169791E2F713CBAC8DA02EB4D5A344D5A6D5EF542FDF3B2438 DUP4 DUP7 PUSH1 0x40 MLOAD PUSH2 0x1E40 SWAP3 SWAP2 SWAP1 PUSH2 0x39F0 JUMP JUMPDEST PUSH1 0x40 MLOAD DUP1 SWAP2 SUB SWAP1 LOG2 PUSH1 0x7 SLOAD PUSH1 0xA PUSH1 0x0 DUP6 PUSH20 0xFFFFFFFFFFFFFFFFFFFFFFFFFFFFFFFFFFFFFFFF AND PUSH20 0xFFFFFFFFFFFFFFFFFFFFFFFFFFFFFFFFFFFFFFFF AND DUP2 MSTORE PUSH1 0x20 ADD SWAP1 DUP2 MSTORE PUSH1 0x20 ADD PUSH1 0x0 KECCAK256 PUSH1 0x0 PUSH1 0x2 PUSH1 0x6 DUP2 GT ISZERO PUSH2 0x1EA0 JUMPI PUSH2 0x1E9F PUSH2 0x2A0E JUMP JUMPDEST JUMPDEST PUSH1 0x6 DUP2 GT ISZERO PUSH2 0x1EB2 JUMPI PUSH2 0x1EB1 PUSH2 0x2A0E JUMP JUMPDEST JUMPDEST DUP2 MSTORE PUSH1 0x20 ADD SWAP1 DUP2 MSTORE PUSH1 0x20 ADD PUSH1 0x0 KECCAK256 SLOAD SUB PUSH2 0x206A JUMPI PUSH1 0x2 DUP2 PUSH1 0x2 ADD PUSH1 0x0 PUSH2 0x100 EXP DUP2 SLOAD DUP2 PUSH1 0xFF MUL NOT AND SWAP1 DUP4 PUSH1 0x6 DUP2 GT ISZERO PUSH2 0x1EEE JUMPI PUSH2 0x1EED PUSH2 0x2A0E JUMP JUMPDEST JUMPDEST MUL OR SWAP1 SSTORE POP PUSH1 0x0 PUSH32 0x0 PUSH20 0xFFFFFFFFFFFFFFFFFFFFFFFFFFFFFFFFFFFFFFFF AND PUSH4 0x68BCD8D PUSH1 0x1 SLOAD PUSH1 0x40 MLOAD DUP3 PUSH4 0xFFFFFFFF AND PUSH1 0xE0 SHL DUP2 MSTORE PUSH1 0x4 ADD PUSH2 0x1F50 SWAP2 SWAP1 PUSH2 0x2954 JUMP JUMPDEST PUSH1 0x0 PUSH1 0x40 MLOAD DUP1 DUP4 SUB DUP2 DUP7 GAS STATICCALL ISZERO DUP1 ISZERO PUSH2 0x1F6D JUMPI RETURNDATASIZE PUSH1 0x0 DUP1 RETURNDATACOPY RETURNDATASIZE PUSH1 0x0 REVERT JUMPDEST POP POP POP POP PUSH1 0x40 MLOAD RETURNDATASIZE PUSH1 0x0 DUP3 RETURNDATACOPY RETURNDATASIZE PUSH1 0x1F NOT PUSH1 0x1F DUP3 ADD AND DUP3 ADD DUP1 PUSH1 0x40 MSTORE POP DUP2 ADD SWAP1 PUSH2 0x1F96 SWAP2 SWAP1 PUSH2 0x3B54 JUMP JUMPDEST SWAP1 POP PUSH1 0x0 DUP3 PUSH1 0x1 ADD SLOAD SWAP1 POP DUP1 PUSH1 0x2 PUSH1 0x0 DUP3 DUP3 SLOAD PUSH2 0x1FB3 SWAP2 SWAP1 PUSH2 0x3B9D JUMP JUMPDEST SWAP3 POP POP DUP2 SWAP1 SSTORE POP PUSH2 0x1FED DUP3 PUSH1 0x40 ADD MLOAD DUP5 PUSH1 0x0 ADD PUSH1 0x1 SWAP1 SLOAD SWAP1 PUSH2 0x100 EXP SWAP1 DIV PUSH20 0xFFFFFFFFFFFFFFFFFFFFFFFFFFFFFFFFFFFFFFFF AND DUP4 PUSH2 0x13C7 JUMP JUMPDEST DUP5 PUSH20 0xFFFFFFFFFFFFFFFFFFFFFFFFFFFFFFFFFFFFFFFF AND PUSH32 0xB5B51454ADFA840BD593658325A60A50B0216F12EB5D2937EFE6CEA935675B7D DUP5 PUSH1 0x0 ADD PUSH1 0x1 SWAP1 SLOAD SWAP1 PUSH2 0x100 EXP SWAP1 DIV PUSH20 0xFFFFFFFFFFFFFFFFFFFFFFFFFFFFFFFFFFFFFFFF AND DUP6 PUSH1 0x1 ADD SLOAD DUP10 PUSH1 0x40 MLOAD PUSH2 0x205F SWAP4 SWAP3 SWAP2 SWAP1 PUSH2 0x3BD1 JUMP JUMPDEST PUSH1 0x40 MLOAD DUP1 SWAP2 SUB SWAP1 LOG2 POP POP JUMPDEST POP POP POP POP POP JUMP JUMPDEST POP POP JUMP JUMPDEST POP JUMP JUMPDEST POP JUMP JUMPDEST PUSH1 0x0 DUP1 PUSH1 0x4 PUSH1 0x1 SWAP1 SLOAD SWAP1 PUSH2 0x100 EXP SWAP1 DIV PUSH20 0xFFFFFFFFFFFFFFFFFFFFFFFFFFFFFFFFFFFFFFFF AND PUSH20 0xFFFFFFFFFFFFFFFFFFFFFFFFFFFFFFFFFFFFFFFF AND PUSH4 0xDD93DA43 DUP6 PUSH1 0x40 MLOAD DUP3 PUSH4 0xFFFFFFFF AND PUSH1 0xE0 SHL DUP2 MSTORE PUSH1 0x4 ADD PUSH2 0x20D9 SWAP2 SWAP1 PUSH2 0x2920 JUMP JUMPDEST PUSH1 0x0 PUSH1 0x40 MLOAD DUP1 DUP4 SUB DUP2 DUP7 GAS STATICCALL ISZERO DUP1 ISZERO PUSH2 0x20F6 JUMPI RETURNDATASIZE PUSH1 0x0 DUP1 RETURNDATACOPY RETURNDATASIZE PUSH1 0x0 REVERT JUMPDEST POP POP POP POP PUSH1 0x40 MLOAD RETURNDATASIZE PUSH1 0x0 DUP3 RETURNDATACOPY RETURNDATASIZE PUSH1 0x1F NOT PUSH1 0x1F DUP3 ADD AND DUP3 ADD DUP1 PUSH1 0x40 MSTORE POP DUP2 ADD SWAP1 PUSH2 0x211F SWAP2 SWAP1 PUSH2 0x3CE0 JUMP JUMPDEST SWAP1 POP PUSH1 0x4 PUSH1 0x1 SWAP1 SLOAD SWAP1 PUSH2 0x100 EXP SWAP1 DIV PUSH20 0xFFFFFFFFFFFFFFFFFFFFFFFFFFFFFFFFFFFFFFFF AND PUSH20 0xFFFFFFFFFFFFFFFFFFFFFFFFFFFFFFFFFFFFFFFF AND PUSH4 0x5E8A7915 DUP3 PUSH1 0x0 ADD MLOAD DUP6 PUSH1 0x40 MLOAD DUP4 PUSH4 0xFFFFFFFF AND PUSH1 0xE0 SHL DUP2 MSTORE PUSH1 0x4 ADD PUSH2 0x2182 SWAP3 SWAP2 SWAP1 PUSH2 0x3D29 JUMP JUMPDEST PUSH1 0x20 PUSH1 0x40 MLOAD DUP1 DUP4 SUB DUP2 DUP7 GAS STATICCALL ISZERO DUP1 ISZERO PUSH2 0x219F JUMPI RETURNDATASIZE PUSH1 0x0 DUP1 RETURNDATACOPY RETURNDATASIZE PUSH1 0x0 REVERT JUMPDEST POP POP POP POP PUSH1 0x40 MLOAD RETURNDATASIZE PUSH1 0x1F NOT PUSH1 0x1F DUP3 ADD AND DUP3 ADD DUP1 PUSH1 0x40 MSTORE POP DUP2 ADD SWAP1 PUSH2 0x21C3 SWAP2 SWAP1 PUSH2 0x38CC JUMP JUMPDEST SWAP2 POP POP SWAP3 SWAP2 POP POP JUMP JUMPDEST PUSH1 0x0 DUP2 PUSH1 0x14 MSTORE PUSH16 0x70A08231000000000000000000000000 PUSH1 0x0 MSTORE PUSH1 0x20 DUP1 PUSH1 0x24 PUSH1 0x10 DUP7 GAS STATICCALL PUSH1 0x1F RETURNDATASIZE GT AND PUSH1 0x20 MLOAD MUL SWAP1 POP SWAP3 SWAP2 POP POP JUMP JUMPDEST PUSH1 0x0 CODESIZE PUSH1 0x0 CODESIZE DUP5 DUP7 GAS CALL PUSH2 0x221D JUMPI PUSH4 0xB12D13EB PUSH1 0x0 MSTORE PUSH1 0x4 PUSH1 0x1C REVERT JUMPDEST POP POP JUMP JUMPDEST DUP2 PUSH1 0x14 MSTORE DUP1 PUSH1 0x34 MSTORE PUSH16 0xA9059CBB000000000000000000000000 PUSH1 0x0 MSTORE PUSH1 0x20 PUSH1 0x0 PUSH1 0x44 PUSH1 0x10 PUSH1 0x0 DUP8 GAS CALL RETURNDATASIZE ISZERO PUSH1 0x1 PUSH1 0x0 MLOAD EQ OR AND PUSH2 0x2266 JUMPI PUSH4 0x90B8EC18 PUSH1 0x0 MSTORE PUSH1 0x4 PUSH1 0x1C REVERT JUMPDEST PUSH1 0x0 PUSH1 0x34 MSTORE POP POP POP JUMP JUMPDEST DUP2 PUSH8 0xFFFFFFFFFFFFFFFF AND TIMESTAMP GT DUP1 PUSH2 0x229B JUMPI POP DUP1 PUSH8 0xFFFFFFFFFFFFFFFF AND DUP3 PUSH8 0xFFFFFFFFFFFFFFFF AND GT JUMPDEST ISZERO PUSH2 0x22D2 JUMPI PUSH1 0x40 MLOAD PUSH32 0x7FCCE2A900000000000000000000000000000000000000000000000000000000 DUP2 MSTORE PUSH1 0x4 ADD PUSH1 0x40 MLOAD DUP1 SWAP2 SUB SWAP1 REVERT JUMPDEST POP POP JUMP JUMPDEST PUSH2 0x22DE PUSH2 0xBEC JUMP JUMPDEST PUSH1 0x0 PUSH1 0x1 SLOAD EQ PUSH2 0x231A JUMPI PUSH1 0x40 MLOAD PUSH32 0x439A74C900000000000000000000000000000000000000000000000000000000 DUP2 MSTORE PUSH1 0x4 ADD PUSH1 0x40 MLOAD DUP1 SWAP2 SUB SWAP1 REVERT JUMPDEST PUSH1 0x0 DUP2 SUB PUSH2 0x2354 JUMPI PUSH1 0x40 MLOAD PUSH32 0x7FCCE2A900000000000000000000000000000000000000000000000000000000 DUP2 MSTORE PUSH1 0x4 ADD PUSH1 0x40 MLOAD DUP1 SWAP2 SUB SWAP1 REVERT JUMPDEST DUP1 PUSH1 0x1 DUP2 SWAP1 SSTORE POP POP JUMP JUMPDEST TIMESTAMP PUSH1 0x4 PUSH1 0x15 SWAP1 SLOAD SWAP1 PUSH2 0x100 EXP SWAP1 DIV PUSH8 0xFFFFFFFFFFFFFFFF AND PUSH8 0xFFFFFFFFFFFFFFFF AND GT DUP1 PUSH2 0x23AB JUMPI POP PUSH1 0x5 PUSH1 0x0 SWAP1 SLOAD SWAP1 PUSH2 0x100 EXP SWAP1 DIV PUSH8 0xFFFFFFFFFFFFFFFF AND PUSH8 0xFFFFFFFFFFFFFFFF AND TIMESTAMP GT JUMPDEST ISZERO PUSH2 0x23E2 JUMPI PUSH1 0x40 MLOAD PUSH32 0xB828C90000000000000000000000000000000000000000000000000000000000 DUP2 MSTORE PUSH1 0x4 ADD PUSH1 0x40 MLOAD DUP1 SWAP2 SUB SWAP1 REVERT JUMPDEST JUMP JUMPDEST PUSH1 0x40 MLOAD DUP1 PUSH1 0xA0 ADD PUSH1 0x40 MSTORE DUP1 PUSH1 0x0 ISZERO ISZERO DUP2 MSTORE PUSH1 0x20 ADD PUSH1 0x0 PUSH20 0xFFFFFFFFFFFFFFFFFFFFFFFFFFFFFFFFFFFFFFFF AND DUP2 MSTORE PUSH1 0x20 ADD PUSH1 0x0 DUP2 MSTORE PUSH1 0x20 ADD PUSH1 0x0 PUSH1 0x6 DUP2 GT ISZERO PUSH2 0x2430 JUMPI PUSH2 0x242F PUSH2 0x2A0E JUMP JUMPDEST JUMPDEST DUP2 MSTORE PUSH1 0x20 ADD PUSH2 0x243D PUSH2 0x2473 JUMP JUMPDEST DUP2 MSTORE POP SWAP1 JUMP JUMPDEST PUSH1 0x40 MLOAD DUP1 PUSH1 0x40 ADD PUSH1 0x40 MSTORE DUP1 PUSH1 0x0 PUSH20 0xFFFFFFFFFFFFFFFFFFFFFFFFFFFFFFFFFFFFFFFF AND DUP2 MSTORE PUSH1 0x20 ADD PUSH1 0x0 DUP2 MSTORE POP SWAP1 JUMP JUMPDEST PUSH1 0x40 MLOAD DUP1 PUSH1 0x40 ADD PUSH1 0x40 MSTORE DUP1 PUSH1 0x0 DUP2 MSTORE PUSH1 0x20 ADD PUSH1 0x60 DUP2 MSTORE POP SWAP1 JUMP JUMPDEST PUSH1 0x0 PUSH1 0x40 MLOAD SWAP1 POP SWAP1 JUMP JUMPDEST PUSH1 0x0 DUP1 REVERT JUMPDEST PUSH1 0x0 DUP1 REVERT JUMPDEST PUSH1 0x0 PUSH20 0xFFFFFFFFFFFFFFFFFFFFFFFFFFFFFFFFFFFFFFFF DUP3 AND SWAP1 POP SWAP2 SWAP1 POP JUMP JUMPDEST PUSH1 0x0 PUSH2 0x24CC DUP3 PUSH2 0x24A1 JUMP JUMPDEST SWAP1 POP SWAP2 SWAP1 POP JUMP JUMPDEST PUSH2 0x24DC DUP2 PUSH2 0x24C1 JUMP JUMPDEST DUP2 EQ PUSH2 0x24E7 JUMPI PUSH1 0x0 DUP1 REVERT JUMPDEST POP JUMP JUMPDEST PUSH1 0x0 DUP2 CALLDATALOAD SWAP1 POP PUSH2 0x24F9 DUP2 PUSH2 0x24D3 JUMP JUMPDEST SWAP3 SWAP2 POP POP JUMP JUMPDEST PUSH1 0x0 PUSH1 0x20 DUP3 DUP5 SUB SLT ISZERO PUSH2 0x2515 JUMPI PUSH2 0x2514 PUSH2 0x2497 JUMP JUMPDEST JUMPDEST PUSH1 0x0 PUSH2 0x2523 DUP5 DUP3 DUP6 ADD PUSH2 0x24EA JUMP JUMPDEST SWAP2 POP POP SWAP3 SWAP2 POP POP JUMP JUMPDEST PUSH1 0x0 DUP2 ISZERO ISZERO SWAP1 POP SWAP2 SWAP1 POP JUMP JUMPDEST PUSH2 0x2541 DUP2 PUSH2 0x252C JUMP JUMPDEST DUP3 MSTORE POP POP JUMP JUMPDEST PUSH1 0x0 PUSH1 0x20 DUP3 ADD SWAP1 POP PUSH2 0x255C PUSH1 0x0 DUP4 ADD DUP5 PUSH2 0x2538 JUMP JUMPDEST SWAP3 SWAP2 POP POP JUMP JUMPDEST PUSH1 0x0 DUP1 REVERT JUMPDEST PUSH1 0x0 PUSH1 0x1F NOT PUSH1 0x1F DUP4 ADD AND SWAP1 POP SWAP2 SWAP1 POP JUMP JUMPDEST PUSH32 0x4E487B7100000000000000000000000000000000000000000000000000000000 PUSH1 0x0 MSTORE PUSH1 0x41 PUSH1 0x4 MSTORE PUSH1 0x24 PUSH1 0x0 REVERT JUMPDEST PUSH2 0x25B0 DUP3 PUSH2 0x2567 JUMP JUMPDEST DUP2 ADD DUP2 DUP2 LT PUSH8 0xFFFFFFFFFFFFFFFF DUP3 GT OR ISZERO PUSH2 0x25CF JUMPI PUSH2 0x25CE PUSH2 0x2578 JUMP JUMPDEST JUMPDEST DUP1 PUSH1 0x40 MSTORE POP POP POP JUMP JUMPDEST PUSH1 0x0 PUSH2 0x25E2 PUSH2 0x248D JUMP JUMPDEST SWAP1 POP PUSH2 0x25EE DUP3 DUP3 PUSH2 0x25A7 JUMP JUMPDEST SWAP2 SWAP1 POP JUMP JUMPDEST PUSH1 0x0 PUSH8 0xFFFFFFFFFFFFFFFF DUP3 GT ISZERO PUSH2 0x260E JUMPI PUSH2 0x260D PUSH2 0x2578 JUMP JUMPDEST JUMPDEST PUSH1 0x20 DUP3 MUL SWAP1 POP PUSH1 0x20 DUP2 ADD SWAP1 POP SWAP2 SWAP1 POP JUMP JUMPDEST PUSH1 0x0 DUP1 REVERT JUMPDEST PUSH1 0x0 PUSH2 0x2637 PUSH2 0x2632 DUP5 PUSH2 0x25F3 JUMP JUMPDEST PUSH2 0x25D8 JUMP JUMPDEST SWAP1 POP DUP1 DUP4 DUP3 MSTORE PUSH1 0x20 DUP3 ADD SWAP1 POP PUSH1 0x20 DUP5 MUL DUP4 ADD DUP6 DUP2 GT ISZERO PUSH2 0x265A JUMPI PUSH2 0x2659 PUSH2 0x261F JUMP JUMPDEST JUMPDEST DUP4 JUMPDEST DUP2 DUP2 LT ISZERO PUSH2 0x2683 JUMPI DUP1 PUSH2 0x266F DUP9 DUP3 PUSH2 0x24EA JUMP JUMPDEST DUP5 MSTORE PUSH1 0x20 DUP5 ADD SWAP4 POP POP PUSH1 0x20 DUP2 ADD SWAP1 POP PUSH2 0x265C JUMP JUMPDEST POP POP POP SWAP4 SWAP3 POP POP POP JUMP JUMPDEST PUSH1 0x0 DUP3 PUSH1 0x1F DUP4 ADD SLT PUSH2 0x26A2 JUMPI PUSH2 0x26A1 PUSH2 0x2562 JUMP JUMPDEST JUMPDEST DUP2 CALLDATALOAD PUSH2 0x26B2 DUP5 DUP3 PUSH1 0x20 DUP7 ADD PUSH2 0x2624 JUMP JUMPDEST SWAP2 POP POP SWAP3 SWAP2 POP POP JUMP JUMPDEST PUSH1 0x0 DUP1 REVERT JUMPDEST PUSH1 0x0 PUSH8 0xFFFFFFFFFFFFFFFF DUP3 GT ISZERO PUSH2 0x26DB JUMPI PUSH2 0x26DA PUSH2 0x2578 JUMP JUMPDEST JUMPDEST PUSH2 0x26E4 DUP3 PUSH2 0x2567 JUMP JUMPDEST SWAP1 POP PUSH1 0x20 DUP2 ADD SWAP1 POP SWAP2 SWAP1 POP JUMP JUMPDEST DUP3 DUP2 DUP4 CALLDATACOPY PUSH1 0x0 DUP4 DUP4 ADD MSTORE POP POP POP JUMP JUMPDEST PUSH1 0x0 PUSH2 0x2713 PUSH2 0x270E DUP5 PUSH2 0x26C0 JUMP JUMPDEST PUSH2 0x25D8 JUMP JUMPDEST SWAP1 POP DUP3 DUP2 MSTORE PUSH1 0x20 DUP2 ADD DUP5 DUP5 DUP5 ADD GT ISZERO PUSH2 0x272F JUMPI PUSH2 0x272E PUSH2 0x26BB JUMP JUMPDEST JUMPDEST PUSH2 0x273A DUP5 DUP3 DUP6 PUSH2 0x26F1 JUMP JUMPDEST POP SWAP4 SWAP3 POP POP POP JUMP JUMPDEST PUSH1 0x0 DUP3 PUSH1 0x1F DUP4 ADD SLT PUSH2 0x2757 JUMPI PUSH2 0x2756 PUSH2 0x2562 JUMP JUMPDEST JUMPDEST DUP2 CALLDATALOAD PUSH2 0x2767 DUP5 DUP3 PUSH1 0x20 DUP7 ADD PUSH2 0x2700 JUMP JUMPDEST SWAP2 POP POP SWAP3 SWAP2 POP POP JUMP JUMPDEST PUSH1 0x0 DUP1 PUSH1 0x0 PUSH1 0x60 DUP5 DUP7 SUB SLT ISZERO PUSH2 0x2789 JUMPI PUSH2 0x2788 PUSH2 0x2497 JUMP JUMPDEST JUMPDEST PUSH1 0x0 DUP5 ADD CALLDATALOAD PUSH8 0xFFFFFFFFFFFFFFFF DUP2 GT ISZERO PUSH2 0x27A7 JUMPI PUSH2 0x27A6 PUSH2 0x249C JUMP JUMPDEST JUMPDEST PUSH2 0x27B3 DUP7 DUP3 DUP8 ADD PUSH2 0x268D JUMP JUMPDEST SWAP4 POP POP PUSH1 0x20 DUP5 ADD CALLDATALOAD PUSH8 0xFFFFFFFFFFFFFFFF DUP2 GT ISZERO PUSH2 0x27D4 JUMPI PUSH2 0x27D3 PUSH2 0x249C JUMP JUMPDEST JUMPDEST PUSH2 0x27E0 DUP7 DUP3 DUP8 ADD PUSH2 0x2742 JUMP JUMPDEST SWAP3 POP POP PUSH1 0x40 PUSH2 0x27F1 DUP7 DUP3 DUP8 ADD PUSH2 0x24EA JUMP JUMPDEST SWAP2 POP POP SWAP3 POP SWAP3 POP SWAP3 JUMP JUMPDEST PUSH1 0x0 DUP2 SWAP1 POP SWAP2 SWAP1 POP JUMP JUMPDEST PUSH1 0x0 PUSH2 0x2820 PUSH2 0x281B PUSH2 0x2816 DUP5 PUSH2 0x24A1 JUMP JUMPDEST PUSH2 0x27FB JUMP JUMPDEST PUSH2 0x24A1 JUMP JUMPDEST SWAP1 POP SWAP2 SWAP1 POP JUMP JUMPDEST PUSH1 0x0 PUSH2 0x2832 DUP3 PUSH2 0x2805 JUMP JUMPDEST SWAP1 POP SWAP2 SWAP1 POP JUMP JUMPDEST PUSH1 0x0 PUSH2 0x2844 DUP3 PUSH2 0x2827 JUMP JUMPDEST SWAP1 POP SWAP2 SWAP1 POP JUMP JUMPDEST PUSH2 0x2854 DUP2 PUSH2 0x2839 JUMP JUMPDEST DUP3 MSTORE POP POP JUMP JUMPDEST PUSH1 0x0 PUSH1 0x20 DUP3 ADD SWAP1 POP PUSH2 0x286F PUSH1 0x0 DUP4 ADD DUP5 PUSH2 0x284B JUMP JUMPDEST SWAP3 SWAP2 POP POP JUMP JUMPDEST PUSH1 0x0 DUP1 PUSH1 0x40 DUP4 DUP6 SUB SLT ISZERO PUSH2 0x288C JUMPI PUSH2 0x288B PUSH2 0x2497 JUMP JUMPDEST JUMPDEST PUSH1 0x0 PUSH2 0x289A DUP6 DUP3 DUP7 ADD PUSH2 0x24EA JUMP JUMPDEST SWAP3 POP POP PUSH1 0x20 PUSH2 0x28AB DUP6 DUP3 DUP7 ADD PUSH2 0x24EA JUMP JUMPDEST SWAP2 POP POP SWAP3 POP SWAP3 SWAP1 POP JUMP JUMPDEST PUSH1 0x0 DUP1 PUSH1 0x40 DUP4 DUP6 SUB SLT ISZERO PUSH2 0x28CC JUMPI PUSH2 0x28CB PUSH2 0x2497 JUMP JUMPDEST JUMPDEST PUSH1 0x0 DUP4 ADD CALLDATALOAD PUSH8 0xFFFFFFFFFFFFFFFF DUP2 GT ISZERO PUSH2 0x28EA JUMPI PUSH2 0x28E9 PUSH2 0x249C JUMP JUMPDEST JUMPDEST PUSH2 0x28F6 DUP6 DUP3 DUP7 ADD PUSH2 0x2742 JUMP JUMPDEST SWAP3 POP POP PUSH1 0x20 PUSH2 0x2907 DUP6 DUP3 DUP7 ADD PUSH2 0x24EA JUMP JUMPDEST SWAP2 POP POP SWAP3 POP SWAP3 SWAP1 POP JUMP JUMPDEST PUSH2 0x291A DUP2 PUSH2 0x24C1 JUMP JUMPDEST DUP3 MSTORE POP POP JUMP JUMPDEST PUSH1 0x0 PUSH1 0x20 DUP3 ADD SWAP1 POP PUSH2 0x2935 PUSH1 0x0 DUP4 ADD DUP5 PUSH2 0x2911 JUMP JUMPDEST SWAP3 SWAP2 POP POP JUMP JUMPDEST PUSH1 0x0 DUP2 SWAP1 POP SWAP2 SWAP1 POP JUMP JUMPDEST PUSH2 0x294E DUP2 PUSH2 0x293B JUMP JUMPDEST DUP3 MSTORE POP POP JUMP JUMPDEST PUSH1 0x0 PUSH1 0x20 DUP3 ADD SWAP1 POP PUSH2 0x2969 PUSH1 0x0 DUP4 ADD DUP5 PUSH2 0x2945 JUMP JUMPDEST SWAP3 SWAP2 POP POP JUMP JUMPDEST PUSH1 0x0 DUP2 SWAP1 POP SWAP2 SWAP1 POP JUMP JUMPDEST PUSH2 0x2982 DUP2 PUSH2 0x296F JUMP JUMPDEST DUP3 MSTORE POP POP JUMP JUMPDEST PUSH1 0x0 PUSH1 0x20 DUP3 ADD SWAP1 POP PUSH2 0x299D PUSH1 0x0 DUP4 ADD DUP5 PUSH2 0x2979 JUMP JUMPDEST SWAP3 SWAP2 POP POP JUMP JUMPDEST PUSH1 0x0 PUSH8 0xFFFFFFFFFFFFFFFF DUP3 AND SWAP1 POP SWAP2 SWAP1 POP JUMP JUMPDEST PUSH2 0x29C0 DUP2 PUSH2 0x29A3 JUMP JUMPDEST DUP3 MSTORE POP POP JUMP JUMPDEST PUSH1 0x0 PUSH1 0x20 DUP3 ADD SWAP1 POP PUSH2 0x29DB PUSH1 0x0 DUP4 ADD DUP5 PUSH2 0x29B7 JUMP JUMPDEST SWAP3 SWAP2 POP POP JUMP JUMPDEST PUSH2 0x29EA DUP2 PUSH2 0x252C JUMP JUMPDEST DUP3 MSTORE POP POP JUMP JUMPDEST PUSH2 0x29F9 DUP2 PUSH2 0x24C1 JUMP JUMPDEST DUP3 MSTORE POP POP JUMP JUMPDEST PUSH2 0x2A08 DUP2 PUSH2 0x293B JUMP JUMPDEST DUP3 MSTORE POP POP JUMP JUMPDEST PUSH32 0x4E487B7100000000000000000000000000000000000000000000000000000000 PUSH1 0x0 MSTORE PUSH1 0x21 PUSH1 0x4 MSTORE PUSH1 0x24 PUSH1 0x0 REVERT JUMPDEST PUSH1 0x7 DUP2 LT PUSH2 0x2A4E JUMPI PUSH2 0x2A4D PUSH2 0x2A0E JUMP JUMPDEST JUMPDEST POP JUMP JUMPDEST PUSH1 0x0 DUP2 SWAP1 POP PUSH2 0x2A5F DUP3 PUSH2 0x2A3D JUMP JUMPDEST SWAP2 SWAP1 POP JUMP JUMPDEST PUSH1 0x0 PUSH2 0x2A6F DUP3 PUSH2 0x2A51 JUMP JUMPDEST SWAP1 POP SWAP2 SWAP1 POP JUMP JUMPDEST PUSH2 0x2A7F DUP2 PUSH2 0x2A64 JUMP JUMPDEST DUP3 MSTORE POP POP JUMP JUMPDEST PUSH1 0x0 DUP2 MLOAD SWAP1 POP SWAP2 SWAP1 POP JUMP JUMPDEST PUSH1 0x0 DUP3 DUP3 MSTORE PUSH1 0x20 DUP3 ADD SWAP1 POP SWAP3 SWAP2 POP POP JUMP JUMPDEST PUSH1 0x0 JUMPDEST DUP4 DUP2 LT ISZERO PUSH2 0x2ABF JUMPI DUP1 DUP3 ADD MLOAD DUP2 DUP5 ADD MSTORE PUSH1 0x20 DUP2 ADD SWAP1 POP PUSH2 0x2AA4 JUMP JUMPDEST PUSH1 0x0 DUP5 DUP5 ADD MSTORE POP POP POP POP JUMP JUMPDEST PUSH1 0x0 PUSH2 0x2AD6 DUP3 PUSH2 0x2A85 JUMP JUMPDEST PUSH2 0x2AE0 DUP2 DUP6 PUSH2 0x2A90 JUMP JUMPDEST SWAP4 POP PUSH2 0x2AF0 DUP2 DUP6 PUSH1 0x20 DUP7 ADD PUSH2 0x2AA1 JUMP JUMPDEST PUSH2 0x2AF9 DUP2 PUSH2 0x2567 JUMP JUMPDEST DUP5 ADD SWAP2 POP POP SWAP3 SWAP2 POP POP JUMP JUMPDEST PUSH1 0x0 PUSH1 0x40 DUP4 ADD PUSH1 0x0 DUP4 ADD MLOAD PUSH2 0x2B1C PUSH1 0x0 DUP7 ADD DUP3 PUSH2 0x29FF JUMP JUMPDEST POP PUSH1 0x20 DUP4 ADD MLOAD DUP5 DUP3 SUB PUSH1 0x20 DUP7 ADD MSTORE PUSH2 0x2B34 DUP3 DUP3 PUSH2 0x2ACB JUMP JUMPDEST SWAP2 POP POP DUP1 SWAP2 POP POP SWAP3 SWAP2 POP POP JUMP JUMPDEST PUSH1 0x0 PUSH1 0xA0 DUP4 ADD PUSH1 0x0 DUP4 ADD MLOAD PUSH2 0x2B59 PUSH1 0x0 DUP7 ADD DUP3 PUSH2 0x29E1 JUMP JUMPDEST POP PUSH1 0x20 DUP4 ADD MLOAD PUSH2 0x2B6C PUSH1 0x20 DUP7 ADD DUP3 PUSH2 0x29F0 JUMP JUMPDEST POP PUSH1 0x40 DUP4 ADD MLOAD PUSH2 0x2B7F PUSH1 0x40 DUP7 ADD DUP3 PUSH2 0x29FF JUMP JUMPDEST POP PUSH1 0x60 DUP4 ADD MLOAD PUSH2 0x2B92 PUSH1 0x60 DUP7 ADD DUP3 PUSH2 0x2A76 JUMP JUMPDEST POP PUSH1 0x80 DUP4 ADD MLOAD DUP5 DUP3 SUB PUSH1 0x80 DUP7 ADD MSTORE PUSH2 0x2BAA DUP3 DUP3 PUSH2 0x2B04 JUMP JUMPDEST SWAP2 POP POP DUP1 SWAP2 POP POP SWAP3 SWAP2 POP POP JUMP JUMPDEST PUSH1 0x0 PUSH1 0x20 DUP3 ADD SWAP1 POP DUP2 DUP2 SUB PUSH1 0x0 DUP4 ADD MSTORE PUSH2 0x2BD1 DUP2 DUP5 PUSH2 0x2B41 JUMP JUMPDEST SWAP1 POP SWAP3 SWAP2 POP POP JUMP JUMPDEST PUSH1 0x7 DUP2 LT PUSH2 0x2BE6 JUMPI PUSH1 0x0 DUP1 REVERT JUMPDEST POP JUMP JUMPDEST PUSH1 0x0 DUP2 CALLDATALOAD SWAP1 POP PUSH2 0x2BF8 DUP2 PUSH2 0x2BD9 JUMP JUMPDEST SWAP3 SWAP2 POP POP JUMP JUMPDEST PUSH1 0x0 DUP1 PUSH1 0x40 DUP4 DUP6 SUB SLT ISZERO PUSH2 0x2C15 JUMPI PUSH2 0x2C14 PUSH2 0x2497 JUMP JUMPDEST JUMPDEST PUSH1 0x0 PUSH2 0x2C23 DUP6 DUP3 DUP7 ADD PUSH2 0x24EA JUMP JUMPDEST SWAP3 POP POP PUSH1 0x20 PUSH2 0x2C34 DUP6 DUP3 DUP7 ADD PUSH2 0x2BE9 JUMP JUMPDEST SWAP2 POP POP SWAP3 POP SWAP3 SWAP1 POP JUMP JUMPDEST PUSH2 0x2C47 DUP2 PUSH2 0x29A3 JUMP JUMPDEST DUP2 EQ PUSH2 0x2C52 JUMPI PUSH1 0x0 DUP1 REVERT JUMPDEST POP JUMP JUMPDEST PUSH1 0x0 DUP2 CALLDATALOAD SWAP1 POP PUSH2 0x2C64 DUP2 PUSH2 0x2C3E JUMP JUMPDEST SWAP3 SWAP2 POP POP JUMP JUMPDEST PUSH1 0x0 DUP1 PUSH1 0x40 DUP4 DUP6 SUB SLT ISZERO PUSH2 0x2C81 JUMPI PUSH2 0x2C80 PUSH2 0x2497 JUMP JUMPDEST JUMPDEST PUSH1 0x0 PUSH2 0x2C8F DUP6 DUP3 DUP7 ADD PUSH2 0x2C55 JUMP JUMPDEST SWAP3 POP POP PUSH1 0x20 PUSH2 0x2CA0 DUP6 DUP3 DUP7 ADD PUSH2 0x2C55 JUMP JUMPDEST SWAP2 POP POP SWAP3 POP SWAP3 SWAP1 POP JUMP JUMPDEST PUSH2 0x2CB3 DUP2 PUSH2 0x252C JUMP JUMPDEST DUP2 EQ PUSH2 0x2CBE JUMPI PUSH1 0x0 DUP1 REVERT JUMPDEST POP JUMP JUMPDEST PUSH1 0x0 DUP2 CALLDATALOAD SWAP1 POP PUSH2 0x2CD0 DUP2 PUSH2 0x2CAA JUMP JUMPDEST SWAP3 SWAP2 POP POP JUMP JUMPDEST PUSH1 0x0 DUP1 PUSH1 0x40 DUP4 DUP6 SUB SLT ISZERO PUSH2 0x2CED JUMPI PUSH2 0x2CEC PUSH2 0x2497 JUMP JUMPDEST JUMPDEST PUSH1 0x0 PUSH2 0x2CFB DUP6 DUP3 DUP7 ADD PUSH2 0x24EA JUMP JUMPDEST SWAP3 POP POP PUSH1 0x20 PUSH2 0x2D0C DUP6 DUP3 DUP7 ADD PUSH2 0x2CC1 JUMP JUMPDEST SWAP2 POP POP SWAP3 POP SWAP3 SWAP1 POP JUMP JUMPDEST PUSH2 0x2D1F DUP2 PUSH2 0x293B JUMP JUMPDEST DUP2 EQ PUSH2 0x2D2A JUMPI PUSH1 0x0 DUP1 REVERT JUMPDEST POP JUMP JUMPDEST PUSH1 0x0 DUP2 CALLDATALOAD SWAP1 POP PUSH2 0x2D3C DUP2 PUSH2 0x2D16 JUMP JUMPDEST SWAP3 SWAP2 POP POP JUMP JUMPDEST PUSH1 0x0 PUSH1 0x20 DUP3 DUP5 SUB SLT ISZERO PUSH2 0x2D58 JUMPI PUSH2 0x2D57 PUSH2 0x2497 JUMP JUMPDEST JUMPDEST PUSH1 0x0 PUSH2 0x2D66 DUP5 DUP3 DUP6 ADD PUSH2 0x2D2D JUMP JUMPDEST SWAP2 POP POP SWAP3 SWAP2 POP POP JUMP JUMPDEST PUSH1 0x0 PUSH8 0xFFFFFFFFFFFFFFFF DUP3 GT ISZERO PUSH2 0x2D8A JUMPI PUSH2 0x2D89 PUSH2 0x2578 JUMP JUMPDEST JUMPDEST PUSH1 0x20 DUP3 MUL SWAP1 POP PUSH1 0x20 DUP2 ADD SWAP1 POP SWAP2 SWAP1 POP JUMP JUMPDEST PUSH1 0x0 PUSH2 0x2DAE PUSH2 0x2DA9 DUP5 PUSH2 0x2D6F JUMP JUMPDEST PUSH2 0x25D8 JUMP JUMPDEST SWAP1 POP DUP1 DUP4 DUP3 MSTORE PUSH1 0x20 DUP3 ADD SWAP1 POP PUSH1 0x20 DUP5 MUL DUP4 ADD DUP6 DUP2 GT ISZERO PUSH2 0x2DD1 JUMPI PUSH2 0x2DD0 PUSH2 0x261F JUMP JUMPDEST JUMPDEST DUP4 JUMPDEST DUP2 DUP2 LT ISZERO PUSH2 0x2DFA JUMPI DUP1 PUSH2 0x2DE6 DUP9 DUP3 PUSH2 0x2CC1 JUMP JUMPDEST DUP5 MSTORE PUSH1 0x20 DUP5 ADD SWAP4 POP POP PUSH1 0x20 DUP2 ADD SWAP1 POP PUSH2 0x2DD3 JUMP JUMPDEST POP POP POP SWAP4 SWAP3 POP POP POP JUMP JUMPDEST PUSH1 0x0 DUP3 PUSH1 0x1F DUP4 ADD SLT PUSH2 0x2E19 JUMPI PUSH2 0x2E18 PUSH2 0x2562 JUMP JUMPDEST JUMPDEST DUP2 CALLDATALOAD PUSH2 0x2E29 DUP5 DUP3 PUSH1 0x20 DUP7 ADD PUSH2 0x2D9B JUMP JUMPDEST SWAP2 POP POP SWAP3 SWAP2 POP POP JUMP JUMPDEST PUSH1 0x0 DUP1 PUSH1 0x40 DUP4 DUP6 SUB SLT ISZERO PUSH2 0x2E49 JUMPI PUSH2 0x2E48 PUSH2 0x2497 JUMP JUMPDEST JUMPDEST PUSH1 0x0 DUP4 ADD CALLDATALOAD PUSH8 0xFFFFFFFFFFFFFFFF DUP2 GT ISZERO PUSH2 0x2E67 JUMPI PUSH2 0x2E66 PUSH2 0x249C JUMP JUMPDEST JUMPDEST PUSH2 0x2E73 DUP6 DUP3 DUP7 ADD PUSH2 0x268D JUMP JUMPDEST SWAP3 POP POP PUSH1 0x20 DUP4 ADD CALLDATALOAD PUSH8 0xFFFFFFFFFFFFFFFF DUP2 GT ISZERO PUSH2 0x2E94 JUMPI PUSH2 0x2E93 PUSH2 0x249C JUMP JUMPDEST JUMPDEST PUSH2 0x2EA0 DUP6 DUP3 DUP7 ADD PUSH2 0x2E04 JUMP JUMPDEST SWAP2 POP POP SWAP3 POP SWAP3 SWAP1 POP JUMP JUMPDEST PUSH1 0x0 PUSH8 0xFFFFFFFFFFFFFFFF DUP3 GT ISZERO PUSH2 0x2EC5 JUMPI PUSH2 0x2EC4 PUSH2 0x2578 JUMP JUMPDEST JUMPDEST PUSH1 0x20 DUP3 MUL SWAP1 POP PUSH1 0x20 DUP2 ADD SWAP1 POP SWAP2 SWAP1 POP JUMP JUMPDEST PUSH1 0x0 PUSH2 0x2EE9 PUSH2 0x2EE4 DUP5 PUSH2 0x2EAA JUMP JUMPDEST PUSH2 0x25D8 JUMP JUMPDEST SWAP1 POP DUP1 DUP4 DUP3 MSTORE PUSH1 0x20 DUP3 ADD SWAP1 POP PUSH1 0x20 DUP5 MUL DUP4 ADD DUP6 DUP2 GT ISZERO PUSH2 0x2F0C JUMPI PUSH2 0x2F0B PUSH2 0x261F JUMP JUMPDEST JUMPDEST DUP4 JUMPDEST DUP2 DUP2 LT ISZERO PUSH2 0x2F53 JUMPI DUP1 CALLDATALOAD PUSH8 0xFFFFFFFFFFFFFFFF DUP2 GT ISZERO PUSH2 0x2F31 JUMPI PUSH2 0x2F30 PUSH2 0x2562 JUMP JUMPDEST JUMPDEST DUP1 DUP7 ADD PUSH2 0x2F3E DUP10 DUP3 PUSH2 0x2742 JUMP JUMPDEST DUP6 MSTORE PUSH1 0x20 DUP6 ADD SWAP5 POP POP POP PUSH1 0x20 DUP2 ADD SWAP1 POP PUSH2 0x2F0E JUMP JUMPDEST POP POP POP SWAP4 SWAP3 POP POP POP JUMP JUMPDEST PUSH1 0x0 DUP3 PUSH1 0x1F DUP4 ADD SLT PUSH2 0x2F72 JUMPI PUSH2 0x2F71 PUSH2 0x2562 JUMP JUMPDEST JUMPDEST DUP2 CALLDATALOAD PUSH2 0x2F82 DUP5 DUP3 PUSH1 0x20 DUP7 ADD PUSH2 0x2ED6 JUMP JUMPDEST SWAP2 POP POP SWAP3 SWAP2 POP POP JUMP JUMPDEST PUSH1 0x0 DUP1 PUSH1 0x40 DUP4 DUP6 SUB SLT ISZERO PUSH2 0x2FA2 JUMPI PUSH2 0x2FA1 PUSH2 0x2497 JUMP JUMPDEST JUMPDEST PUSH1 0x0 DUP4 ADD CALLDATALOAD PUSH8 0xFFFFFFFFFFFFFFFF DUP2 GT ISZERO PUSH2 0x2FC0 JUMPI PUSH2 0x2FBF PUSH2 0x249C JUMP JUMPDEST JUMPDEST PUSH2 0x2FCC DUP6 DUP3 DUP7 ADD PUSH2 0x268D JUMP JUMPDEST SWAP3 POP POP PUSH1 0x20 DUP4 ADD CALLDATALOAD PUSH8 0xFFFFFFFFFFFFFFFF DUP2 GT ISZERO PUSH2 0x2FED JUMPI PUSH2 0x2FEC PUSH2 0x249C JUMP JUMPDEST JUMPDEST PUSH2 0x2FF9 DUP6 DUP3 DUP7 ADD PUSH2 0x2F5D JUMP JUMPDEST SWAP2 POP POP SWAP3 POP SWAP3 SWAP1 POP JUMP JUMPDEST PUSH1 0x0 DUP2 MLOAD SWAP1 POP SWAP2 SWAP1 POP JUMP JUMPDEST PUSH1 0x0 DUP3 DUP3 MSTORE PUSH1 0x20 DUP3 ADD SWAP1 POP SWAP3 SWAP2 POP POP JUMP JUMPDEST PUSH1 0x0 DUP2 SWAP1 POP PUSH1 0x20 DUP3 ADD SWAP1 POP SWAP2 SWAP1 POP JUMP JUMPDEST PUSH1 0x40 DUP3 ADD PUSH1 0x0 DUP3 ADD MLOAD PUSH2 0x3045 PUSH1 0x0 DUP6 ADD DUP3 PUSH2 0x29F0 JUMP JUMPDEST POP PUSH1 0x20 DUP3 ADD MLOAD PUSH2 0x3058 PUSH1 0x20 DUP6 ADD DUP3 PUSH2 0x29FF JUMP JUMPDEST POP POP POP POP JUMP JUMPDEST PUSH1 0x0 PUSH2 0x306A DUP4 DUP4 PUSH2 0x302F JUMP JUMPDEST PUSH1 0x40 DUP4 ADD SWAP1 POP SWAP3 SWAP2 POP POP JUMP JUMPDEST PUSH1 0x0 PUSH1 0x20 DUP3 ADD SWAP1 POP SWAP2 SWAP1 POP JUMP JUMPDEST PUSH1 0x0 PUSH2 0x308E DUP3 PUSH2 0x3003 JUMP JUMPDEST PUSH2 0x3098 DUP2 DUP6 PUSH2 0x300E JUMP JUMPDEST SWAP4 POP PUSH2 0x30A3 DUP4 PUSH2 0x301F JUMP JUMPDEST DUP1 PUSH1 0x0 JUMPDEST DUP4 DUP2 LT ISZERO PUSH2 0x30D4 JUMPI DUP2 MLOAD PUSH2 0x30BB DUP9 DUP3 PUSH2 0x305E JUMP JUMPDEST SWAP8 POP PUSH2 0x30C6 DUP4 PUSH2 0x3076 JUMP JUMPDEST SWAP3 POP POP PUSH1 0x1 DUP2 ADD SWAP1 POP PUSH2 0x30A7 JUMP JUMPDEST POP DUP6 SWAP4 POP POP POP POP SWAP3 SWAP2 POP POP JUMP JUMPDEST PUSH1 0x0 PUSH1 0x20 DUP3 ADD SWAP1 POP DUP2 DUP2 SUB PUSH1 0x0 DUP4 ADD MSTORE PUSH2 0x30FB DUP2 DUP5 PUSH2 0x3083 JUMP JUMPDEST SWAP1 POP SWAP3 SWAP2 POP POP JUMP JUMPDEST PUSH2 0x310C DUP2 PUSH2 0x2A64 JUMP JUMPDEST DUP3 MSTORE POP POP JUMP JUMPDEST PUSH1 0x0 PUSH1 0x20 DUP3 ADD SWAP1 POP PUSH2 0x3127 PUSH1 0x0 DUP4 ADD DUP5 PUSH2 0x3103 JUMP JUMPDEST SWAP3 SWAP2 POP POP JUMP JUMPDEST PUSH1 0x0 DUP1 PUSH1 0x40 DUP4 DUP6 SUB SLT ISZERO PUSH2 0x3144 JUMPI PUSH2 0x3143 PUSH2 0x2497 JUMP JUMPDEST JUMPDEST PUSH1 0x0 PUSH2 0x3152 DUP6 DUP3 DUP7 ADD PUSH2 0x2D2D JUMP JUMPDEST SWAP3 POP POP PUSH1 0x20 DUP4 ADD CALLDATALOAD PUSH8 0xFFFFFFFFFFFFFFFF DUP2 GT ISZERO PUSH2 0x3173 JUMPI PUSH2 0x3172 PUSH2 0x249C JUMP JUMPDEST JUMPDEST PUSH2 0x317F DUP6 DUP3 DUP7 ADD PUSH2 0x2742 JUMP JUMPDEST SWAP2 POP POP SWAP3 POP SWAP3 SWAP1 POP JUMP JUMPDEST PUSH32 0x4E487B7100000000000000000000000000000000000000000000000000000000 PUSH1 0x0 MSTORE PUSH1 0x32 PUSH1 0x4 MSTORE PUSH1 0x24 PUSH1 0x0 REVERT JUMPDEST PUSH1 0x0 DUP1 REVERT JUMPDEST PUSH1 0x0 DUP1 REVERT JUMPDEST PUSH1 0x0 DUP2 MLOAD SWAP1 POP PUSH2 0x31D1 DUP2 PUSH2 0x2CAA JUMP JUMPDEST SWAP3 SWAP2 POP POP JUMP JUMPDEST PUSH1 0x0 DUP2 MLOAD SWAP1 POP PUSH2 0x31E6 DUP2 PUSH2 0x2C3E JUMP JUMPDEST SWAP3 SWAP2 POP POP JUMP JUMPDEST PUSH1 0x0 DUP2 MLOAD SWAP1 POP PUSH2 0x31FB DUP2 PUSH2 0x2D16 JUMP JUMPDEST SWAP3 SWAP2 POP POP JUMP JUMPDEST PUSH1 0x0 PUSH1 0xA0 DUP3 DUP5 SUB SLT ISZERO PUSH2 0x3217 JUMPI PUSH2 0x3216 PUSH2 0x31B8 JUMP JUMPDEST JUMPDEST PUSH2 0x3221 PUSH1 0xA0 PUSH2 0x25D8 JUMP JUMPDEST SWAP1 POP PUSH1 0x0 PUSH2 0x3231 DUP5 DUP3 DUP6 ADD PUSH2 0x31C2 JUMP JUMPDEST PUSH1 0x0 DUP4 ADD MSTORE POP PUSH1 0x20 PUSH2 0x3245 DUP5 DUP3 DUP6 ADD PUSH2 0x31D7 JUMP JUMPDEST PUSH1 0x20 DUP4 ADD MSTORE POP PUSH1 0x40 PUSH2 0x3259 DUP5 DUP3 DUP6 ADD PUSH2 0x31D7 JUMP JUMPDEST PUSH1 0x40 DUP4 ADD MSTORE POP PUSH1 0x60 PUSH2 0x326D DUP5 DUP3 DUP6 ADD PUSH2 0x31EC JUMP JUMPDEST PUSH1 0x60 DUP4 ADD MSTORE POP PUSH1 0x80 PUSH2 0x3281 DUP5 DUP3 DUP6 ADD PUSH2 0x31EC JUMP JUMPDEST PUSH1 0x80 DUP4 ADD MSTORE POP SWAP3 SWAP2 POP POP JUMP JUMPDEST PUSH1 0x0 PUSH1 0xA0 DUP3 DUP5 SUB SLT ISZERO PUSH2 0x32A3 JUMPI PUSH2 0x32A2 PUSH2 0x2497 JUMP JUMPDEST JUMPDEST PUSH1 0x0 PUSH2 0x32B1 DUP5 DUP3 DUP6 ADD PUSH2 0x3201 JUMP JUMPDEST SWAP2 POP POP SWAP3 SWAP2 POP POP JUMP JUMPDEST PUSH1 0x0 DUP2 MLOAD SWAP1 POP SWAP2 SWAP1 POP JUMP JUMPDEST PUSH1 0x0 DUP3 DUP3 MSTORE PUSH1 0x20 DUP3 ADD SWAP1 POP SWAP3 SWAP2 POP POP JUMP JUMPDEST PUSH1 0x0 PUSH2 0x32E1 DUP3 PUSH2 0x32BA JUMP JUMPDEST PUSH2 0x32EB DUP2 DUP6 PUSH2 0x32C5 JUMP JUMPDEST SWAP4 POP PUSH2 0x32FB DUP2 DUP6 PUSH1 0x20 DUP7 ADD PUSH2 0x2AA1 JUMP JUMPDEST PUSH2 0x3304 DUP2 PUSH2 0x2567 JUMP JUMPDEST DUP5 ADD SWAP2 POP POP SWAP3 SWAP2 POP POP JUMP JUMPDEST PUSH1 0x0 PUSH1 0x40 DUP3 ADD SWAP1 POP PUSH2 0x3324 PUSH1 0x0 DUP4 ADD DUP6 PUSH2 0x2945 JUMP JUMPDEST DUP2 DUP2 SUB PUSH1 0x20 DUP4 ADD MSTORE PUSH2 0x3336 DUP2 DUP5 PUSH2 0x32D6 JUMP JUMPDEST SWAP1 POP SWAP4 SWAP3 POP POP POP JUMP JUMPDEST PUSH32 0x4E487B7100000000000000000000000000000000000000000000000000000000 PUSH1 0x0 MSTORE PUSH1 0x11 PUSH1 0x4 MSTORE PUSH1 0x24 PUSH1 0x0 REVERT JUMPDEST PUSH1 0x0 PUSH2 0x3379 DUP3 PUSH2 0x293B JUMP JUMPDEST SWAP2 POP PUSH2 0x3384 DUP4 PUSH2 0x293B JUMP JUMPDEST SWAP3 POP DUP3 DUP3 ADD SWAP1 POP DUP1 DUP3 GT ISZERO PUSH2 0x339C JUMPI PUSH2 0x339B PUSH2 0x333F JUMP JUMPDEST JUMPDEST SWAP3 SWAP2 POP POP JUMP JUMPDEST PUSH32 0x4E487B7100000000000000000000000000000000000000000000000000000000 PUSH1 0x0 MSTORE PUSH1 0x1 PUSH1 0x4 MSTORE PUSH1 0x24 PUSH1 0x0 REVERT JUMPDEST PUSH1 0x0 PUSH2 0x33DC DUP3 PUSH2 0x24A1 JUMP JUMPDEST SWAP1 POP SWAP2 SWAP1 POP JUMP JUMPDEST PUSH2 0x33EC DUP2 PUSH2 0x33D1 JUMP JUMPDEST DUP2 EQ PUSH2 0x33F7 JUMPI PUSH1 0x0 DUP1 REVERT JUMPDEST POP JUMP JUMPDEST PUSH1 0x0 DUP2 MLOAD SWAP1 POP PUSH2 0x3409 DUP2 PUSH2 0x33E3 JUMP JUMPDEST SWAP3 SWAP2 POP POP JUMP JUMPDEST PUSH1 0x0 PUSH8 0xFFFFFFFFFFFFFFFF DUP3 GT ISZERO PUSH2 0x342A JUMPI PUSH2 0x3429 PUSH2 0x2578 JUMP JUMPDEST JUMPDEST PUSH2 0x3433 DUP3 PUSH2 0x2567 JUMP JUMPDEST SWAP1 POP PUSH1 0x20 DUP2 ADD SWAP1 POP SWAP2 SWAP1 POP JUMP JUMPDEST PUSH1 0x0 PUSH2 0x3453 PUSH2 0x344E DUP5 PUSH2 0x340F JUMP JUMPDEST PUSH2 0x25D8 JUMP JUMPDEST SWAP1 POP DUP3 DUP2 MSTORE PUSH1 0x20 DUP2 ADD DUP5 DUP5 DUP5 ADD GT ISZERO PUSH2 0x346F JUMPI PUSH2 0x346E PUSH2 0x26BB JUMP JUMPDEST JUMPDEST PUSH2 0x347A DUP5 DUP3 DUP6 PUSH2 0x2AA1 JUMP JUMPDEST POP SWAP4 SWAP3 POP POP POP JUMP JUMPDEST PUSH1 0x0 DUP3 PUSH1 0x1F DUP4 ADD SLT PUSH2 0x3497 JUMPI PUSH2 0x3496 PUSH2 0x2562 JUMP JUMPDEST JUMPDEST DUP2 MLOAD PUSH2 0x34A7 DUP5 DUP3 PUSH1 0x20 DUP7 ADD PUSH2 0x3440 JUMP JUMPDEST SWAP2 POP POP SWAP3 SWAP2 POP POP JUMP JUMPDEST PUSH1 0x0 PUSH1 0x40 DUP3 DUP5 SUB SLT ISZERO PUSH2 0x34C6 JUMPI PUSH2 0x34C5 PUSH2 0x31B8 JUMP JUMPDEST JUMPDEST PUSH2 0x34D0 PUSH1 0x40 PUSH2 0x25D8 JUMP JUMPDEST SWAP1 POP PUSH1 0x0 PUSH2 0x34E0 DUP5 DUP3 DUP6 ADD PUSH2 0x31EC JUMP JUMPDEST PUSH1 0x0 DUP4 ADD MSTORE POP PUSH1 0x20 DUP3 ADD MLOAD PUSH8 0xFFFFFFFFFFFFFFFF DUP2 GT ISZERO PUSH2 0x3504 JUMPI PUSH2 0x3503 PUSH2 0x31BD JUMP JUMPDEST JUMPDEST PUSH2 0x3510 DUP5 DUP3 DUP6 ADD PUSH2 0x3482 JUMP JUMPDEST PUSH1 0x20 DUP4 ADD MSTORE POP SWAP3 SWAP2 POP POP JUMP JUMPDEST PUSH1 0x0 DUP1 PUSH1 0x0 DUP1 PUSH1 0x80 DUP6 DUP8 SUB SLT ISZERO PUSH2 0x3536 JUMPI PUSH2 0x3535 PUSH2 0x2497 JUMP JUMPDEST JUMPDEST PUSH1 0x0 PUSH2 0x3544 DUP8 DUP3 DUP9 ADD PUSH2 0x33FA JUMP JUMPDEST SWAP5 POP POP PUSH1 0x20 PUSH2 0x3555 DUP8 DUP3 DUP9 ADD PUSH2 0x33FA JUMP JUMPDEST SWAP4 POP POP PUSH1 0x40 PUSH2 0x3566 DUP8 DUP3 DUP9 ADD PUSH2 0x31EC JUMP JUMPDEST SWAP3 POP POP PUSH1 0x60 DUP6 ADD MLOAD PUSH8 0xFFFFFFFFFFFFFFFF DUP2 GT ISZERO PUSH2 0x3587 JUMPI PUSH2 0x3586 PUSH2 0x249C JUMP JUMPDEST JUMPDEST PUSH2 0x3593 DUP8 DUP3 DUP9 ADD PUSH2 0x34B0 JUMP JUMPDEST SWAP2 POP POP SWAP3 SWAP6 SWAP2 SWAP5 POP SWAP3 POP JUMP JUMPDEST PUSH1 0x0 PUSH1 0x40 DUP3 ADD SWAP1 POP DUP2 DUP2 SUB PUSH1 0x0 DUP4 ADD MSTORE PUSH2 0x35B9 DUP2 DUP6 PUSH2 0x32D6 JUMP JUMPDEST SWAP1 POP PUSH2 0x35C8 PUSH1 0x20 DUP4 ADD DUP5 PUSH2 0x2911 JUMP JUMPDEST SWAP4 SWAP3 POP POP POP JUMP JUMPDEST PUSH32 0x4E487B7100000000000000000000000000000000000000000000000000000000 PUSH1 0x0 MSTORE PUSH1 0x22 PUSH1 0x4 MSTORE PUSH1 0x24 PUSH1 0x0 REVERT JUMPDEST PUSH1 0x0 PUSH1 0x2 DUP3 DIV SWAP1 POP PUSH1 0x1 DUP3 AND DUP1 PUSH2 0x3616 JUMPI PUSH1 0x7F DUP3 AND SWAP2 POP JUMPDEST PUSH1 0x20 DUP3 LT DUP2 SUB PUSH2 0x3629 JUMPI PUSH2 0x3628 PUSH2 0x35CF JUMP JUMPDEST JUMPDEST POP SWAP2 SWAP1 POP JUMP JUMPDEST PUSH1 0x0 DUP2 SWAP1 POP DUP2 PUSH1 0x0 MSTORE PUSH1 0x20 PUSH1 0x0 KECCAK256 SWAP1 POP SWAP2 SWAP1 POP JUMP JUMPDEST PUSH1 0x0 PUSH1 0x20 PUSH1 0x1F DUP4 ADD DIV SWAP1 POP SWAP2 SWAP1 POP JUMP JUMPDEST PUSH1 0x0 DUP3 DUP3 SHL SWAP1 POP SWAP3 SWAP2 POP POP JUMP JUMPDEST PUSH1 0x0 PUSH1 0x8 DUP4 MUL PUSH2 0x3691 PUSH32 0xFFFFFFFFFFFFFFFFFFFFFFFFFFFFFFFFFFFFFFFFFFFFFFFFFFFFFFFFFFFFFFFF DUP3 PUSH2 0x3654 JUMP JUMPDEST PUSH2 0x369B DUP7 DUP4 PUSH2 0x3654 JUMP JUMPDEST SWAP6 POP DUP1 NOT DUP5 AND SWAP4 POP DUP1 DUP7 AND DUP5 OR SWAP3 POP POP POP SWAP4 SWAP3 POP POP POP JUMP JUMPDEST PUSH1 0x0 PUSH2 0x36CE PUSH2 0x36C9 PUSH2 0x36C4 DUP5 PUSH2 0x293B JUMP JUMPDEST PUSH2 0x27FB JUMP JUMPDEST PUSH2 0x293B JUMP JUMPDEST SWAP1 POP SWAP2 SWAP1 POP JUMP JUMPDEST PUSH1 0x0 DUP2 SWAP1 POP SWAP2 SWAP1 POP JUMP JUMPDEST PUSH2 0x36E8 DUP4 PUSH2 0x36B3 JUMP JUMPDEST PUSH2 0x36FC PUSH2 0x36F4 DUP3 PUSH2 0x36D5 JUMP JUMPDEST DUP5 DUP5 SLOAD PUSH2 0x3661 JUMP JUMPDEST DUP3 SSTORE POP POP POP POP JUMP JUMPDEST PUSH1 0x0 SWAP1 JUMP JUMPDEST PUSH2 0x3711 PUSH2 0x3704 JUMP JUMPDEST PUSH2 0x371C DUP2 DUP5 DUP5 PUSH2 0x36DF JUMP JUMPDEST POP POP POP JUMP JUMPDEST JUMPDEST DUP2 DUP2 LT ISZERO PUSH2 0x3740 JUMPI PUSH2 0x3735 PUSH1 0x0 DUP3 PUSH2 0x3709 JUMP JUMPDEST PUSH1 0x1 DUP2 ADD SWAP1 POP PUSH2 0x3722 JUMP JUMPDEST POP POP JUMP JUMPDEST PUSH1 0x1F DUP3 GT ISZERO PUSH2 0x3785 JUMPI PUSH2 0x3756 DUP2 PUSH2 0x362F JUMP JUMPDEST PUSH2 0x375F DUP5 PUSH2 0x3644 JUMP JUMPDEST DUP2 ADD PUSH1 0x20 DUP6 LT ISZERO PUSH2 0x376E JUMPI DUP2 SWAP1 POP JUMPDEST PUSH2 0x3782 PUSH2 0x377A DUP6 PUSH2 0x3644 JUMP JUMPDEST DUP4 ADD DUP3 PUSH2 0x3721 JUMP JUMPDEST POP POP JUMPDEST POP POP POP JUMP JUMPDEST PUSH1 0x0 DUP3 DUP3 SHR SWAP1 POP SWAP3 SWAP2 POP POP JUMP JUMPDEST PUSH1 0x0 PUSH2 0x37A8 PUSH1 0x0 NOT DUP5 PUSH1 0x8 MUL PUSH2 0x378A JUMP JUMPDEST NOT DUP1 DUP4 AND SWAP2 POP POP SWAP3 SWAP2 POP POP JUMP JUMPDEST PUSH1 0x0 PUSH2 0x37C1 DUP4 DUP4 PUSH2 0x3797 JUMP JUMPDEST SWAP2 POP DUP3 PUSH1 0x2 MUL DUP3 OR SWAP1 POP SWAP3 SWAP2 POP POP JUMP JUMPDEST PUSH2 0x37DA DUP3 PUSH2 0x2A85 JUMP JUMPDEST PUSH8 0xFFFFFFFFFFFFFFFF DUP2 GT ISZERO PUSH2 0x37F3 JUMPI PUSH2 0x37F2 PUSH2 0x2578 JUMP JUMPDEST JUMPDEST PUSH2 0x37FD DUP3 SLOAD PUSH2 0x35FE JUMP JUMPDEST PUSH2 0x3808 DUP3 DUP3 DUP6 PUSH2 0x3744 JUMP JUMPDEST PUSH1 0x0 PUSH1 0x20 SWAP1 POP PUSH1 0x1F DUP4 GT PUSH1 0x1 DUP2 EQ PUSH2 0x383B JUMPI PUSH1 0x0 DUP5 ISZERO PUSH2 0x3829 JUMPI DUP3 DUP8 ADD MLOAD SWAP1 POP JUMPDEST PUSH2 0x3833 DUP6 DUP3 PUSH2 0x37B5 JUMP JUMPDEST DUP7 SSTORE POP PUSH2 0x389B JUMP JUMPDEST PUSH1 0x1F NOT DUP5 AND PUSH2 0x3849 DUP7 PUSH2 0x362F JUMP JUMPDEST PUSH1 0x0 JUMPDEST DUP3 DUP2 LT ISZERO PUSH2 0x3871 JUMPI DUP5 DUP10 ADD MLOAD DUP3 SSTORE PUSH1 0x1 DUP3 ADD SWAP2 POP PUSH1 0x20 DUP6 ADD SWAP5 POP PUSH1 0x20 DUP2 ADD SWAP1 POP PUSH2 0x384C JUMP JUMPDEST DUP7 DUP4 LT ISZERO PUSH2 0x388E JUMPI DUP5 DUP10 ADD MLOAD PUSH2 0x388A PUSH1 0x1F DUP10 AND DUP3 PUSH2 0x3797 JUMP JUMPDEST DUP4 SSTORE POP JUMPDEST PUSH1 0x1 PUSH1 0x2 DUP9 MUL ADD DUP9 SSTORE POP POP POP JUMPDEST POP POP POP POP POP POP JUMP JUMPDEST PUSH1 0x0 PUSH1 0x40 DUP3 ADD SWAP1 POP PUSH2 0x38B8 PUSH1 0x0 DUP4 ADD DUP6 PUSH2 0x2945 JUMP JUMPDEST PUSH2 0x38C5 PUSH1 0x20 DUP4 ADD DUP5 PUSH2 0x2911 JUMP JUMPDEST SWAP4 SWAP3 POP POP POP JUMP JUMPDEST PUSH1 0x0 PUSH1 0x20 DUP3 DUP5 SUB SLT ISZERO PUSH2 0x38E2 JUMPI PUSH2 0x38E1 PUSH2 0x2497 JUMP JUMPDEST JUMPDEST PUSH1 0x0 PUSH2 0x38F0 DUP5 DUP3 DUP6 ADD PUSH2 0x31C2 JUMP JUMPDEST SWAP2 POP POP SWAP3 SWAP2 POP POP JUMP JUMPDEST PUSH1 0x0 PUSH1 0x60 DUP3 ADD SWAP1 POP PUSH2 0x390E PUSH1 0x0 DUP4 ADD DUP7 PUSH2 0x29B7 JUMP JUMPDEST PUSH2 0x391B PUSH1 0x20 DUP4 ADD DUP6 PUSH2 0x29B7 JUMP JUMPDEST PUSH2 0x3928 PUSH1 0x40 DUP4 ADD DUP5 PUSH2 0x2911 JUMP JUMPDEST SWAP5 SWAP4 POP POP POP POP JUMP JUMPDEST PUSH1 0x0 PUSH2 0x393B DUP3 PUSH2 0x24C1 JUMP JUMPDEST SWAP1 POP SWAP2 SWAP1 POP JUMP JUMPDEST PUSH2 0x394B DUP2 PUSH2 0x3930 JUMP JUMPDEST DUP2 EQ PUSH2 0x3956 JUMPI PUSH1 0x0 DUP1 REVERT JUMPDEST POP JUMP JUMPDEST PUSH1 0x0 DUP2 MLOAD SWAP1 POP PUSH2 0x3968 DUP2 PUSH2 0x3942 JUMP JUMPDEST SWAP3 SWAP2 POP POP JUMP JUMPDEST PUSH1 0x0 PUSH1 0x20 DUP3 DUP5 SUB SLT ISZERO PUSH2 0x3984 JUMPI PUSH2 0x3983 PUSH2 0x2497 JUMP JUMPDEST JUMPDEST PUSH1 0x0 PUSH2 0x3992 DUP5 DUP3 DUP6 ADD PUSH2 0x3959 JUMP JUMPDEST SWAP2 POP POP SWAP3 SWAP2 POP POP JUMP JUMPDEST PUSH1 0x0 DUP2 MLOAD SWAP1 POP PUSH2 0x39AA DUP2 PUSH2 0x2BD9 JUMP JUMPDEST SWAP3 SWAP2 POP POP JUMP JUMPDEST PUSH1 0x0 DUP1 PUSH1 0x40 DUP4 DUP6 SUB SLT ISZERO PUSH2 0x39C7 JUMPI PUSH2 0x39C6 PUSH2 0x2497 JUMP JUMPDEST JUMPDEST PUSH1 0x0 PUSH2 0x39D5 DUP6 DUP3 DUP7 ADD PUSH2 0x33FA JUMP JUMPDEST SWAP3 POP POP PUSH1 0x20 PUSH2 0x39E6 DUP6 DUP3 DUP7 ADD PUSH2 0x399B JUMP JUMPDEST SWAP2 POP POP SWAP3 POP SWAP3 SWAP1 POP JUMP JUMPDEST PUSH1 0x0 PUSH1 0x40 DUP3 ADD SWAP1 POP PUSH2 0x3A05 PUSH1 0x0 DUP4 ADD DUP6 PUSH2 0x3103 JUMP JUMPDEST PUSH2 0x3A12 PUSH1 0x20 DUP4 ADD DUP5 PUSH2 0x2911 JUMP JUMPDEST SWAP4 SWAP3 POP POP POP JUMP JUMPDEST PUSH2 0x3A22 DUP2 PUSH2 0x296F JUMP JUMPDEST DUP2 EQ PUSH2 0x3A2D JUMPI PUSH1 0x0 DUP1 REVERT JUMPDEST POP JUMP JUMPDEST PUSH1 0x0 DUP2 MLOAD SWAP1 POP PUSH2 0x3A3F DUP2 PUSH2 0x3A19 JUMP JUMPDEST SWAP3 SWAP2 POP POP JUMP JUMPDEST PUSH1 0x0 PUSH2 0x3A50 DUP3 PUSH2 0x24C1 JUMP JUMPDEST SWAP1 POP SWAP2 SWAP1 POP JUMP JUMPDEST PUSH2 0x3A60 DUP2 PUSH2 0x3A45 JUMP JUMPDEST DUP2 EQ PUSH2 0x3A6B JUMPI PUSH1 0x0 DUP1 REVERT JUMPDEST POP JUMP JUMPDEST PUSH1 0x0 DUP2 MLOAD SWAP1 POP PUSH2 0x3A7D DUP2 PUSH2 0x3A57 JUMP JUMPDEST SWAP3 SWAP2 POP POP JUMP JUMPDEST PUSH1 0x0 DUP2 MLOAD SWAP1 POP PUSH2 0x3A92 DUP2 PUSH2 0x24D3 JUMP JUMPDEST SWAP3 SWAP2 POP POP JUMP JUMPDEST PUSH1 0x0 PUSH1 0xC0 DUP3 DUP5 SUB SLT ISZERO PUSH2 0x3AAE JUMPI PUSH2 0x3AAD PUSH2 0x31B8 JUMP JUMPDEST JUMPDEST PUSH2 0x3AB8 PUSH1 0xC0 PUSH2 0x25D8 JUMP JUMPDEST SWAP1 POP PUSH1 0x0 PUSH2 0x3AC8 DUP5 DUP3 DUP6 ADD PUSH2 0x3A30 JUMP JUMPDEST PUSH1 0x0 DUP4 ADD MSTORE POP PUSH1 0x20 PUSH2 0x3ADC DUP5 DUP3 DUP6 ADD PUSH2 0x3A6E JUMP JUMPDEST PUSH1 0x20 DUP4 ADD MSTORE POP PUSH1 0x40 PUSH2 0x3AF0 DUP5 DUP3 DUP6 ADD PUSH2 0x3A83 JUMP JUMPDEST PUSH1 0x40 DUP4 ADD MSTORE POP PUSH1 0x60 DUP3 ADD MLOAD PUSH8 0xFFFFFFFFFFFFFFFF DUP2 GT ISZERO PUSH2 0x3B14 JUMPI PUSH2 0x3B13 PUSH2 0x31BD JUMP JUMPDEST JUMPDEST PUSH2 0x3B20 DUP5 DUP3 DUP6 ADD PUSH2 0x34B0 JUMP JUMPDEST PUSH1 0x60 DUP4 ADD MSTORE POP PUSH1 0x80 PUSH2 0x3B34 DUP5 DUP3 DUP6 ADD PUSH2 0x3A30 JUMP JUMPDEST PUSH1 0x80 DUP4 ADD MSTORE POP PUSH1 0xA0 PUSH2 0x3B48 DUP5 DUP3 DUP6 ADD PUSH2 0x3A30 JUMP JUMPDEST PUSH1 0xA0 DUP4 ADD MSTORE POP SWAP3 SWAP2 POP POP JUMP JUMPDEST PUSH1 0x0 PUSH1 0x20 DUP3 DUP5 SUB SLT ISZERO PUSH2 0x3B6A JUMPI PUSH2 0x3B69 PUSH2 0x2497 JUMP JUMPDEST JUMPDEST PUSH1 0x0 DUP3 ADD MLOAD PUSH8 0xFFFFFFFFFFFFFFFF DUP2 GT ISZERO PUSH2 0x3B88 JUMPI PUSH2 0x3B87 PUSH2 0x249C JUMP JUMPDEST JUMPDEST PUSH2 0x3B94 DUP5 DUP3 DUP6 ADD PUSH2 0x3A98 JUMP JUMPDEST SWAP2 POP POP SWAP3 SWAP2 POP POP JUMP JUMPDEST PUSH1 0x0 PUSH2 0x3BA8 DUP3 PUSH2 0x293B JUMP JUMPDEST SWAP2 POP PUSH2 0x3BB3 DUP4 PUSH2 0x293B JUMP JUMPDEST SWAP3 POP DUP3 DUP3 SUB SWAP1 POP DUP2 DUP2 GT ISZERO PUSH2 0x3BCB JUMPI PUSH2 0x3BCA PUSH2 0x333F JUMP JUMPDEST JUMPDEST SWAP3 SWAP2 POP POP JUMP JUMPDEST PUSH1 0x0 PUSH1 0x60 DUP3 ADD SWAP1 POP PUSH2 0x3BE6 PUSH1 0x0 DUP4 ADD DUP7 PUSH2 0x2911 JUMP JUMPDEST PUSH2 0x3BF3 PUSH1 0x20 DUP4 ADD DUP6 PUSH2 0x2945 JUMP JUMPDEST PUSH2 0x3C00 PUSH1 0x40 DUP4 ADD DUP5 PUSH2 0x2911 JUMP JUMPDEST SWAP5 SWAP4 POP POP POP POP JUMP JUMPDEST PUSH1 0x0 PUSH1 0xC0 DUP3 DUP5 SUB SLT ISZERO PUSH2 0x3C1E JUMPI PUSH2 0x3C1D PUSH2 0x31B8 JUMP JUMPDEST JUMPDEST PUSH2 0x3C28 PUSH1 0xC0 PUSH2 0x25D8 JUMP JUMPDEST SWAP1 POP PUSH1 0x0 PUSH2 0x3C38 DUP5 DUP3 DUP6 ADD PUSH2 0x3A30 JUMP JUMPDEST PUSH1 0x0 DUP4 ADD MSTORE POP PUSH1 0x20 PUSH2 0x3C4C DUP5 DUP3 DUP6 ADD PUSH2 0x31EC JUMP JUMPDEST PUSH1 0x20 DUP4 ADD MSTORE POP PUSH1 0x40 DUP3 ADD MLOAD PUSH8 0xFFFFFFFFFFFFFFFF DUP2 GT ISZERO PUSH2 0x3C70 JUMPI PUSH2 0x3C6F PUSH2 0x31BD JUMP JUMPDEST JUMPDEST PUSH2 0x3C7C DUP5 DUP3 DUP6 ADD PUSH2 0x3482 JUMP JUMPDEST PUSH1 0x40 DUP4 ADD MSTORE POP PUSH1 0x60 DUP3 ADD MLOAD PUSH8 0xFFFFFFFFFFFFFFFF DUP2 GT ISZERO PUSH2 0x3CA0 JUMPI PUSH2 0x3C9F PUSH2 0x31BD JUMP JUMPDEST JUMPDEST PUSH2 0x3CAC DUP5 DUP3 DUP6 ADD PUSH2 0x34B0 JUMP JUMPDEST PUSH1 0x60 DUP4 ADD MSTORE POP PUSH1 0x80 PUSH2 0x3CC0 DUP5 DUP3 DUP6 ADD PUSH2 0x3A83 JUMP JUMPDEST PUSH1 0x80 DUP4 ADD MSTORE POP PUSH1 0xA0 PUSH2 0x3CD4 DUP5 DUP3 DUP6 ADD PUSH2 0x3A83 JUMP JUMPDEST PUSH1 0xA0 DUP4 ADD MSTORE POP SWAP3 SWAP2 POP POP JUMP JUMPDEST PUSH1 0x0 PUSH1 0x20 DUP3 DUP5 SUB SLT ISZERO PUSH2 0x3CF6 JUMPI PUSH2 0x3CF5 PUSH2 0x2497 JUMP JUMPDEST JUMPDEST PUSH1 0x0 DUP3 ADD MLOAD PUSH8 0xFFFFFFFFFFFFFFFF DUP2 GT ISZERO PUSH2 0x3D14 JUMPI PUSH2 0x3D13 PUSH2 0x249C JUMP JUMPDEST JUMPDEST PUSH2 0x3D20 DUP5 DUP3 DUP6 ADD PUSH2 0x3C08 JUMP JUMPDEST SWAP2 POP POP SWAP3 SWAP2 POP POP JUMP JUMPDEST PUSH1 0x0 PUSH1 0x40 DUP3 ADD SWAP1 POP PUSH2 0x3D3E PUSH1 0x0 DUP4 ADD DUP6 PUSH2 0x2979 JUMP JUMPDEST PUSH2 0x3D4B PUSH1 0x20 DUP4 ADD DUP5 PUSH2 0x2911 JUMP JUMPDEST SWAP4 SWAP3 POP POP POP JUMP INVALID LOG2 PUSH5 0x6970667358 0x22 SLT KECCAK256 EXTCODESIZE 0xF7 EXP 0x22 ORIGIN 0xCD 0xDC ADD SELFDESTRUCT COINBASE 0xC9 0xCC SIGNEXTEND 0xD9 0xE 0xB0 0xC7 DUP14 PUSH17 0x71C5F159429009656550E1FE4B64736F6C PUSH4 0x43000814 STOP CALLER "},"methodIdentifiers":{"NATIVE()":"a0cf0aea","allocate(bytes,address)":"ef2920fc","allocated(address,address)":"2b302cbd","allocationEndTime()":"4533d678","allocationStartTime()":"d2e17f59","allocators(address)":"084ea36e","approvalThreshold()":"7d0eef61","batchSetAllocator(address[],bool[])":"a15acfd5","distribute(address[],bytes,address)":"0a6f0ee9","getAllo()":"15cc481e","getPayouts(address[],bytes[])":"b2b878d0","getPoolAmount()":"4ab4ba42","getPoolId()":"38fff2d0","getRecipient(address)":"62812a39","getRecipientStatus(address)":"eb11af93","getStrategyId()":"42fda9c7","increaseMaxRequestedAmount(uint256)":"bfa80731","increasePoolAmount(uint256)":"f5b0dfb7","initialize(uint256,bytes)":"edd146cc","isPoolActive()":"df868ed3","isValidAllocator(address)":"4d31d087","maxRequestedAmount()":"ba539f8f","recipientAllocations(address,uint8)":"6f46ffb9","registerRecipient(bytes,address)":"2bbe0cae","setAllocator(address,bool)":"80faddeb","setApprovalThreshold(uint256)":"a0016b8c","updatePoolTimestamps(uint64,uint64)":"75777aaa","useRegistryAnchor()":"57089739","withdraw(address)":"51cff8d9"}}}}}