{"contracts/libraries/Transfer.sol":{"Transfer":{"abi":[{"inputs":[],"name":"AMOUNT_MISMATCH","type":"error"},{"inputs":[],"name":"NATIVE","outputs":[{"internalType":"address","name":"","type":"address"}],"stateMutability":"view","type":"function"}],"evm":{"bytecode":{"linkReferences":{},"object":"608060405234801561001057600080fd5b5060eb8061001f6000396000f3fe6080604052348015600f57600080fd5b506004361060285760003560e01c8063a0cf0aea14602d575b600080fd5b60336047565b604051603e9190609c565b60405180910390f35b73eeeeeeeeeeeeeeeeeeeeeeeeeeeeeeeeeeeeeeee81565b600073ffffffffffffffffffffffffffffffffffffffff82169050919050565b6000608882605f565b9050919050565b609681607f565b82525050565b600060208201905060af6000830184608f565b9291505056fea26469706673582212204b67ddb9e0b4947760cd4f7be53aab2d4241b88ef9aa93ebf264a422ef698e5c64736f6c63430008140033","opcodes":"PUSH1 0x80 PUSH1 0x40 MSTORE CALLVALUE DUP1 ISZERO PUSH2 0x10 JUMPI PUSH1 0x0 DUP1 REVERT JUMPDEST POP PUSH1 0xEB DUP1 PUSH2 0x1F PUSH1 0x0 CODECOPY PUSH1 0x0 RETURN INVALID PUSH1 0x80 PUSH1 0x40 MSTORE CALLVALUE DUP1 ISZERO PUSH1 0xF JUMPI PUSH1 0x0 DUP1 REVERT JUMPDEST POP PUSH1 0x4 CALLDATASIZE LT PUSH1 0x28 JUMPI PUSH1 0x0 CALLDATALOAD PUSH1 0xE0 SHR DUP1 PUSH4 0xA0CF0AEA EQ PUSH1 0x2D JUMPI JUMPDEST PUSH1 0x0 DUP1 REVERT JUMPDEST PUSH1 0x33 PUSH1 0x47 JUMP JUMPDEST PUSH1 0x40 MLOAD PUSH1 0x3E SWAP2 SWAP1 PUSH1 0x9C JUMP JUMPDEST PUSH1 0x40 MLOAD DUP1 SWAP2 SUB SWAP1 RETURN JUMPDEST PUSH20 0xEEEEEEEEEEEEEEEEEEEEEEEEEEEEEEEEEEEEEEEE DUP2 JUMP JUMPDEST PUSH1 0x0 PUSH20 0xFFFFFFFFFFFFFFFFFFFFFFFFFFFFFFFFFFFFFFFF DUP3 AND SWAP1 POP SWAP2 SWAP1 POP JUMP JUMPDEST PUSH1 0x0 PUSH1 0x88 DUP3 PUSH1 0x5F JUMP JUMPDEST SWAP1 POP SWAP2 SWAP1 POP JUMP JUMPDEST PUSH1 0x96 DUP2 PUSH1 0x7F JUMP JUMPDEST DUP3 MSTORE POP POP JUMP JUMPDEST PUSH1 0x0 PUSH1 0x20 DUP3 ADD SWAP1 POP PUSH1 0xAF PUSH1 0x0 DUP4 ADD DUP5 PUSH1 0x8F JUMP JUMPDEST SWAP3 SWAP2 POP POP JUMP INVALID LOG2 PUSH5 0x6970667358 0x22 SLT KECCAK256 0x4B PUSH8 0xDDB9E0B4947760CD 0x4F PUSH28 0xE53AAB2D4241B88EF9AA93EBF264A422EF698E5C64736F6C63430008 EQ STOP CALLER "},"methodIdentifiers":{"NATIVE()":"a0cf0aea"}}}}}