{"contracts/ExecutorSupplierVotingStrategy.sol":{"ExecutorSupplierVotingStrategy":{"abi":[{"inputs":[{"internalType":"address","name":"_allo","type":"address"},{"internalType":"string","name":"_name","type":"string"}],"stateMutability":"nonpayable","type":"constructor"},{"inputs":[],"name":"ALLOCATION_ACTIVE","type":"error"},{"inputs":[],"name":"ALLOCATION_EXCEEDS_POOL_AMOUNT","type":"error"},{"inputs":[],"name":"ALLOCATION_NOT_ACTIVE","type":"error"},{"inputs":[],"name":"ALLOCATION_NOT_ENDED","type":"error"},{"inputs":[],"name":"ALREADY_INITIALIZED","type":"error"},{"inputs":[],"name":"AMOUNT_MISMATCH","type":"error"},{"inputs":[],"name":"ANCHOR_ERROR","type":"error"},{"inputs":[],"name":"ARRAY_MISMATCH","type":"error"},{"inputs":[],"name":"INVALID","type":"error"},{"inputs":[],"name":"INVALID_ADDRESS","type":"error"},{"inputs":[],"name":"INVALID_FEE","type":"error"},{"inputs":[],"name":"INVALID_METADATA","type":"error"},{"inputs":[],"name":"INVALID_MILESTONE","type":"error"},{"inputs":[],"name":"INVALID_REGISTRATION","type":"error"},{"inputs":[],"name":"IS_APPROVED_STRATEGY","type":"error"},{"inputs":[],"name":"MILESTONES_ALREADY_SET","type":"error"},{"inputs":[],"name":"MILESTONE_ALREADY_ACCEPTED","type":"error"},{"inputs":[],"name":"MISMATCH","type":"error"},{"inputs":[],"name":"NONCE_NOT_AVAILABLE","type":"error"},{"inputs":[],"name":"NOT_APPROVED_STRATEGY","type":"error"},{"inputs":[],"name":"NOT_ENOUGH_FUNDS","type":"error"},{"inputs":[],"name":"NOT_IMPLEMENTED","type":"error"},{"inputs":[],"name":"NOT_INITIALIZED","type":"error"},{"inputs":[],"name":"NOT_PENDING_OWNER","type":"error"},{"inputs":[],"name":"POOL_ACTIVE","type":"error"},{"inputs":[],"name":"POOL_INACTIVE","type":"error"},{"inputs":[],"name":"RECIPIENT_ALREADY_ACCEPTED","type":"error"},{"inputs":[{"internalType":"address","name":"recipientId","type":"address"}],"name":"RECIPIENT_ERROR","type":"error"},{"inputs":[],"name":"RECIPIENT_NOT_ACCEPTED","type":"error"},{"inputs":[],"name":"REGISTRATION_NOT_ACTIVE","type":"error"},{"inputs":[],"name":"ReentrancyGuardReentrantCall","type":"error"},{"inputs":[],"name":"SUPPLY_IS_ALLOWED_ONLY_ONCE","type":"error"},{"inputs":[],"name":"SUPPLY_NOT_FOUND","type":"error"},{"inputs":[],"name":"UNAUTHORIZED","type":"error"},{"inputs":[],"name":"ZERO_ADDRESS","type":"error"},{"anonymous":false,"inputs":[{"indexed":true,"internalType":"address","name":"recipientId","type":"address"},{"indexed":false,"internalType":"uint256","name":"amount","type":"uint256"},{"indexed":false,"internalType":"address","name":"token","type":"address"},{"indexed":false,"internalType":"address","name":"sender","type":"address"}],"name":"Allocated","type":"event"},{"anonymous":false,"inputs":[{"indexed":true,"internalType":"address","name":"recipientId","type":"address"},{"indexed":false,"internalType":"address","name":"recipientAddress","type":"address"},{"indexed":false,"internalType":"uint256","name":"amount","type":"uint256"},{"indexed":false,"internalType":"address","name":"sender","type":"address"}],"name":"Distributed","type":"event"},{"anonymous":false,"inputs":[{"indexed":false,"internalType":"uint256","name":"poolId","type":"uint256"},{"indexed":false,"internalType":"bytes","name":"data","type":"bytes"}],"name":"Initialized","type":"event"},{"anonymous":false,"inputs":[{"indexed":false,"internalType":"address","name":"recipientId","type":"address"},{"indexed":false,"internalType":"uint256","name":"milestoneId","type":"uint256"},{"indexed":false,"internalType":"enum IStrategy.Status","name":"status","type":"uint8"}],"name":"MilestoneStatusChanged","type":"event"},{"anonymous":false,"inputs":[{"indexed":false,"internalType":"address","name":"recipientId","type":"address"},{"indexed":false,"internalType":"uint256","name":"milestoneId","type":"uint256"},{"components":[{"internalType":"uint256","name":"protocol","type":"uint256"},{"internalType":"string","name":"pointer","type":"string"}],"indexed":false,"internalType":"struct Metadata","name":"metadata","type":"tuple"}],"name":"MilestoneSubmitted","type":"event"},{"anonymous":false,"inputs":[{"indexed":false,"internalType":"address","name":"recipientId","type":"address"},{"indexed":false,"internalType":"uint256","name":"milestonesLength","type":"uint256"}],"name":"MilestonesOffered","type":"event"},{"anonymous":false,"inputs":[{"indexed":false,"internalType":"address","name":"recipientId","type":"address"},{"indexed":false,"internalType":"enum IStrategy.Status","name":"status","type":"uint8"}],"name":"MilestonesReviewed","type":"event"},{"anonymous":false,"inputs":[{"indexed":false,"internalType":"address","name":"recipientId","type":"address"},{"indexed":false,"internalType":"uint256","name":"milestonesLength","type":"uint256"}],"name":"MilestonesSet","type":"event"},{"anonymous":false,"inputs":[{"indexed":false,"internalType":"address","name":"recipientId","type":"address"}],"name":"OfferedMilestonesAccepted","type":"event"},{"anonymous":false,"inputs":[{"indexed":false,"internalType":"address","name":"recipientId","type":"address"}],"name":"OfferedMilestonesRejected","type":"event"},{"anonymous":false,"inputs":[{"indexed":false,"internalType":"bool","name":"active","type":"bool"}],"name":"PoolActive","type":"event"},{"anonymous":false,"inputs":[{"indexed":false,"internalType":"address","name":"recipientId","type":"address"},{"indexed":false,"internalType":"enum IStrategy.Status","name":"status","type":"uint8"}],"name":"RecipientStatusChanged","type":"event"},{"anonymous":false,"inputs":[{"indexed":true,"internalType":"address","name":"recipientId","type":"address"},{"indexed":false,"internalType":"bytes","name":"data","type":"bytes"},{"indexed":false,"internalType":"address","name":"sender","type":"address"}],"name":"Registered","type":"event"},{"inputs":[],"name":"NATIVE","outputs":[{"internalType":"address","name":"","type":"address"}],"stateMutability":"view","type":"function"},{"inputs":[{"internalType":"bytes","name":"_data","type":"bytes"},{"internalType":"address","name":"_sender","type":"address"}],"name":"allocate","outputs":[],"stateMutability":"payable","type":"function"},{"inputs":[],"name":"allocatedGrantAmount","outputs":[{"internalType":"uint256","name":"","type":"uint256"}],"stateMutability":"view","type":"function"},{"inputs":[{"internalType":"address[]","name":"_recipientIds","type":"address[]"},{"internalType":"bytes","name":"_data","type":"bytes"},{"internalType":"address","name":"_sender","type":"address"}],"name":"distribute","outputs":[],"stateMutability":"nonpayable","type":"function"},{"inputs":[],"name":"getAllo","outputs":[{"internalType":"contract IAllo","name":"","type":"address"}],"stateMutability":"view","type":"function"},{"inputs":[{"internalType":"address","name":"_recipientId","type":"address"},{"internalType":"uint256","name":"_milestoneId","type":"uint256"}],"name":"getMilestoneStatus","outputs":[{"internalType":"enum IStrategy.Status","name":"","type":"uint8"}],"stateMutability":"view","type":"function"},{"inputs":[{"internalType":"address","name":"_recipientId","type":"address"}],"name":"getMilestones","outputs":[{"components":[{"internalType":"uint256","name":"amountPercentage","type":"uint256"},{"components":[{"internalType":"uint256","name":"protocol","type":"uint256"},{"internalType":"string","name":"pointer","type":"string"}],"internalType":"struct Metadata","name":"metadata","type":"tuple"},{"internalType":"enum IStrategy.Status","name":"milestoneStatus","type":"uint8"},{"internalType":"string","name":"description","type":"string"}],"internalType":"struct ExecutorSupplierVotingStrategy.Milestone[]","name":"","type":"tuple[]"}],"stateMutability":"view","type":"function"},{"inputs":[{"internalType":"address","name":"_recipientId","type":"address"}],"name":"getOffeeredMilestones","outputs":[{"components":[{"internalType":"uint256","name":"amountPercentage","type":"uint256"},{"components":[{"internalType":"uint256","name":"protocol","type":"uint256"},{"internalType":"string","name":"pointer","type":"string"}],"internalType":"struct Metadata","name":"metadata","type":"tuple"},{"internalType":"enum IStrategy.Status","name":"milestoneStatus","type":"uint8"},{"internalType":"string","name":"description","type":"string"}],"internalType":"struct ExecutorSupplierVotingStrategy.Milestone[]","name":"","type":"tuple[]"}],"stateMutability":"view","type":"function"},{"inputs":[{"internalType":"address[]","name":"_recipientIds","type":"address[]"},{"internalType":"bytes[]","name":"_data","type":"bytes[]"}],"name":"getPayouts","outputs":[{"components":[{"internalType":"address","name":"recipientAddress","type":"address"},{"internalType":"uint256","name":"amount","type":"uint256"}],"internalType":"struct IStrategy.PayoutSummary[]","name":"","type":"tuple[]"}],"stateMutability":"view","type":"function"},{"inputs":[],"name":"getPoolAmount","outputs":[{"internalType":"uint256","name":"","type":"uint256"}],"stateMutability":"view","type":"function"},{"inputs":[],"name":"getPoolId","outputs":[{"internalType":"uint256","name":"","type":"uint256"}],"stateMutability":"view","type":"function"},{"inputs":[{"internalType":"address","name":"_recipientId","type":"address"}],"name":"getRecipient","outputs":[{"components":[{"internalType":"bool","name":"useRegistryAnchor","type":"bool"},{"internalType":"address","name":"recipientAddress","type":"address"},{"internalType":"uint256","name":"grantAmount","type":"uint256"},{"components":[{"internalType":"uint256","name":"protocol","type":"uint256"},{"internalType":"string","name":"pointer","type":"string"}],"internalType":"struct Metadata","name":"metadata","type":"tuple"},{"internalType":"enum IStrategy.Status","name":"recipientStatus","type":"uint8"},{"internalType":"enum IStrategy.Status","name":"milestonesReviewStatus","type":"uint8"}],"internalType":"struct ExecutorSupplierVotingStrategy.Recipient","name":"","type":"tuple"}],"stateMutability":"view","type":"function"},{"inputs":[{"internalType":"address","name":"_recipientId","type":"address"}],"name":"getRecipientStatus","outputs":[{"internalType":"enum IStrategy.Status","name":"","type":"uint8"}],"stateMutability":"view","type":"function"},{"inputs":[],"name":"getStrategyId","outputs":[{"internalType":"bytes32","name":"","type":"bytes32"}],"stateMutability":"view","type":"function"},{"inputs":[],"name":"grantAmountRequired","outputs":[{"internalType":"bool","name":"","type":"bool"}],"stateMutability":"view","type":"function"},{"inputs":[{"internalType":"uint256","name":"_amount","type":"uint256"}],"name":"increasePoolAmount","outputs":[],"stateMutability":"nonpayable","type":"function"},{"inputs":[{"internalType":"uint256","name":"_poolId","type":"uint256"},{"internalType":"bytes","name":"_data","type":"bytes"}],"name":"initialize","outputs":[],"stateMutability":"nonpayable","type":"function"},{"inputs":[],"name":"isPoolActive","outputs":[{"internalType":"bool","name":"","type":"bool"}],"stateMutability":"view","type":"function"},{"inputs":[{"internalType":"address","name":"_allocator","type":"address"}],"name":"isValidAllocator","outputs":[{"internalType":"bool","name":"","type":"bool"}],"stateMutability":"view","type":"function"},{"inputs":[],"name":"metadataRequired","outputs":[{"internalType":"bool","name":"","type":"bool"}],"stateMutability":"view","type":"function"},{"inputs":[{"internalType":"address","name":"","type":"address"},{"internalType":"uint256","name":"","type":"uint256"}],"name":"milestones","outputs":[{"internalType":"uint256","name":"amountPercentage","type":"uint256"},{"components":[{"internalType":"uint256","name":"protocol","type":"uint256"},{"internalType":"string","name":"pointer","type":"string"}],"internalType":"struct Metadata","name":"metadata","type":"tuple"},{"internalType":"enum IStrategy.Status","name":"milestoneStatus","type":"uint8"},{"internalType":"string","name":"description","type":"string"}],"stateMutability":"view","type":"function"},{"inputs":[{"internalType":"address","name":"_recipientId","type":"address"},{"components":[{"internalType":"uint256","name":"amountPercentage","type":"uint256"},{"components":[{"internalType":"uint256","name":"protocol","type":"uint256"},{"internalType":"string","name":"pointer","type":"string"}],"internalType":"struct Metadata","name":"metadata","type":"tuple"},{"internalType":"enum IStrategy.Status","name":"milestoneStatus","type":"uint8"},{"internalType":"string","name":"description","type":"string"}],"internalType":"struct ExecutorSupplierVotingStrategy.Milestone[]","name":"_milestones","type":"tuple[]"}],"name":"offerMilestones","outputs":[],"stateMutability":"nonpayable","type":"function"},{"inputs":[{"internalType":"bytes","name":"_data","type":"bytes"},{"internalType":"address","name":"_sender","type":"address"}],"name":"registerRecipient","outputs":[{"internalType":"address","name":"recipientId","type":"address"}],"stateMutability":"payable","type":"function"},{"inputs":[],"name":"registryGating","outputs":[{"internalType":"bool","name":"","type":"bool"}],"stateMutability":"view","type":"function"},{"inputs":[{"internalType":"address","name":"_recipientId","type":"address"},{"internalType":"enum IStrategy.Status","name":"_status","type":"uint8"}],"name":"reviewOfferedtMilestones","outputs":[],"stateMutability":"nonpayable","type":"function"},{"inputs":[{"internalType":"bool","name":"_flag","type":"bool"}],"name":"setPoolActive","outputs":[],"stateMutability":"nonpayable","type":"function"},{"inputs":[{"internalType":"uint256","name":"_newPercentage","type":"uint256"},{"internalType":"bytes32","name":"_profileId","type":"bytes32"}],"name":"setThresholdPercentage","outputs":[],"stateMutability":"nonpayable","type":"function"},{"inputs":[{"internalType":"address","name":"_recipientId","type":"address"},{"internalType":"uint256","name":"_milestoneId","type":"uint256"},{"components":[{"internalType":"uint256","name":"protocol","type":"uint256"},{"internalType":"string","name":"pointer","type":"string"}],"internalType":"struct Metadata","name":"_metadata","type":"tuple"}],"name":"submitMilestone","outputs":[],"stateMutability":"nonpayable","type":"function"},{"inputs":[],"name":"thresholdPercentage","outputs":[{"internalType":"uint256","name":"","type":"uint256"}],"stateMutability":"view","type":"function"},{"inputs":[],"name":"totalSupply","outputs":[{"internalType":"uint256","name":"","type":"uint256"}],"stateMutability":"view","type":"function"},{"inputs":[{"internalType":"address","name":"","type":"address"}],"name":"upcomingMilestone","outputs":[{"internalType":"uint256","name":"","type":"uint256"}],"stateMutability":"view","type":"function"},{"stateMutability":"payable","type":"receive"}],"evm":{"bytecode":{"linkReferences":{},"object":"60c060405260466006553480156200001657600080fd5b50604051620041ee380380620041ee8339810160408190526200003991620000c4565b6001600160a01b038216608052604051829082906200005d9082906020016200019f565b60408051601f19818403018152919052805160209091012060a0525050600160035550620001d49050565b634e487b7160e01b600052604160045260246000fd5b60005b83811015620000bb578181015183820152602001620000a1565b50506000910152565b60008060408385031215620000d857600080fd5b82516001600160a01b0381168114620000f057600080fd5b60208401519092506001600160401b03808211156200010e57600080fd5b818501915085601f8301126200012357600080fd5b81518181111562000138576200013862000088565b604051601f8201601f19908116603f0116810190838211818310171562000163576200016362000088565b816040528281528860208487010111156200017d57600080fd5b620001908360208301602088016200009e565b80955050505050509250929050565b6020815260008251806020840152620001c08160408501602087016200009e565b601f01601f19169190910160400192915050565b60805160a051613fc36200022b600039600061033e0152600081816102190152818161188301528181611c76015281816120110152818161226c01528181612488015281816126410152612a660152613fc36000f3fe6080604052600436106101dc5760003560e01c80639be2ccf511610102578063df868ed311610095578063edd146cc11610064578063edd146cc146105b0578063ef2920fc146105d0578063f5b0dfb7146105e3578063f83067e71461060357600080fd5b8063df868ed314610528578063e2372b5814610540578063e8eeb8061461056d578063eb11af931461058357600080fd5b8063b3eae7ab116100d1578063b3eae7ab14610499578063b5f620ce146104b9578063c7a892bf146104d9578063cb0e85a61461050957600080fd5b80639be2ccf51461040a578063a0cf0aea1461042a578063a647d23e14610452578063b2b878d01461046c57600080fd5b806338fff2d01161017a5780634d31d087116101495780634d31d087146103775780634ed2859e146103a757806362812a39146103bd57806378f0184d146103ea57600080fd5b806338fff2d0146102fa5780633bf3577d1461030f57806342fda9c71461032f5780634ab4ba421461036257600080fd5b806322a4e42d116101b657806322a4e42d1461027a5780632a835b4b146102a75780632bbe0cae146102c757806336592c0e146102da57600080fd5b80630a6f0ee9146101e857806315cc481e1461020a57806318160ddd1461025657600080fd5b366101e357005b600080fd5b3480156101f457600080fd5b50610208610203366004613014565b610623565b005b34801561021657600080fd5b507f00000000000000000000000000000000000000000000000000000000000000005b6040516001600160a01b0390911681526020015b60405180910390f35b34801561026257600080fd5b5061026c60055481565b60405190815260200161024d565b34801561028657600080fd5b5061029a61029536600461308b565b610643565b60405161024d9190613156565b3480156102b357600080fd5b506102086102c23660046131fb565b610837565b6102396102d536600461321d565b610936565b3480156102e657600080fd5b5061029a6102f536600461308b565b61095b565b34801561030657600080fd5b5060015461026c565b34801561031b57600080fd5b5061020861032a36600461326e565b610b44565b34801561033b57600080fd5b507f000000000000000000000000000000000000000000000000000000000000000061026c565b34801561036e57600080fd5b5060025461026c565b34801561038357600080fd5b5061039761039236600461308b565b610e05565b604051901515815260200161024d565b3480156103b357600080fd5b5061026c60065481565b3480156103c957600080fd5b506103dd6103d836600461308b565b610e10565b60405161024d91906132c2565b3480156103f657600080fd5b50610208610405366004613352565b610e21565b34801561041657600080fd5b506004546103979062010000900460ff1681565b34801561043657600080fd5b5061023973eeeeeeeeeeeeeeeeeeeeeeeeeeeeeeeeeeeeeeee81565b34801561045e57600080fd5b506004546103979060ff1681565b34801561047857600080fd5b5061048c6104873660046134dd565b61101d565b60405161024d91906135b1565b3480156104a557600080fd5b506102086104b4366004613609565b61111b565b3480156104c557600080fd5b506102086104d4366004613645565b6115af565b3480156104e557600080fd5b506104f96104f4366004613662565b6115fb565b60405161024d949392919061368e565b34801561051557600080fd5b5060045461039790610100900460ff1681565b34801561053457600080fd5b5060005460ff16610397565b34801561054c57600080fd5b5061026c61055b36600461308b565b600e6020526000908152604090205481565b34801561057957600080fd5b5061026c60085481565b34801561058f57600080fd5b506105a361059e36600461308b565b61177d565b60405161024d91906136d1565b3480156105bc57600080fd5b506102086105cb3660046136df565b611788565b6102086105de36600461321d565b6117e8565b3480156105ef57600080fd5b506102086105fe366004613725565b611806565b34801561060f57600080fd5b506105a361061e366004613662565b611830565b61062b611878565b6106336118c3565b61063e8383836118e6565b505050565b6001600160a01b0381166000908152600d60209081526040808320805482518185028101850190935280835260609492939192909184015b8282101561082c57838290600052602060002090600502016040518060800160405290816000820154815260200160018201604051806040016040529081600082015481526020016001820180546106d29061373e565b80601f01602080910402602001604051908101604052809291908181526020018280546106fe9061373e565b801561074b5780601f106107205761010080835404028352916020019161074b565b820191906000526020600020905b81548152906001019060200180831161072e57829003601f168201915b505050919092525050508152600382015460209091019060ff1660068111156107765761077661311e565b60068111156107875761078761311e565b815260200160048201805461079b9061373e565b80601f01602080910402602001604051908101604052809291908181526020018280546107c79061373e565b80156108145780601f106107e957610100808354040283529160200191610814565b820191906000526020600020905b8154815290600101906020018083116107f757829003601f168201915b5050505050815250508152602001906001019061067b565b505050509050919050565b600754604051630e6e1ae360e21b8152600481018390523360248201526001600160a01b03909116906339b86b8c90604401602060405180830381865afa158015610886573d6000803e3d6000fd5b505050506040513d601f19601f820116820180604052508101906108aa9190613778565b6108ea5760405162461bcd60e51b815260206004820152600c60248201526b15539055551213d49256915160a21b60448201526064015b60405180910390fd5b60648211156109305760405162461bcd60e51b8152602060048201526012602482015271496e76616c69642070657263656e7461676560701b60448201526064016108e1565b50600655565b6000610940611878565b6109486118c3565b6109528383611928565b90505b92915050565b6001600160a01b0381166000908152600c60209081526040808320805482518185028101850190935280835260609492939192909184015b8282101561082c57838290600052602060002090600502016040518060800160405290816000820154815260200160018201604051806040016040529081600082015481526020016001820180546109ea9061373e565b80601f0160208091040260200160405190810160405280929190818152602001828054610a169061373e565b8015610a635780601f10610a3857610100808354040283529160200191610a63565b820191906000526020600020905b815481529060010190602001808311610a4657829003601f168201915b505050919092525050508152600382015460209091019060ff166006811115610a8e57610a8e61311e565b6006811115610a9f57610a9f61311e565b8152602001600482018054610ab39061373e565b80601f0160208091040260200160405190810160405280929190818152602001828054610adf9061373e565b8015610b2c5780601f10610b0157610100808354040283529160200191610b2c565b820191906000526020600020905b815481529060010190602001808311610b0f57829003601f168201915b50505050508152505081526020019060010190610993565b6001600160a01b0383163314610b6d5760405163075fd2b160e01b815260040160405180910390fd5b6001600160a01b038084166000908152600a60209081526040808320815160c081018352815460ff8116151582526101009004909516858401526001810154858301528151808301909252600281018054835260038201805495969592946060870194939084019190610bdf9061373e565b80601f0160208091040260200160405190810160405280929190818152602001828054610c0b9061373e565b8015610c585780601f10610c2d57610100808354040283529160200191610c58565b820191906000526020600020905b815481529060010190602001808311610c3b57829003601f168201915b505050919092525050508152600482015460209091019060ff166006811115610c8357610c8361311e565b6006811115610c9457610c9461311e565b81526020016004820160019054906101000a900460ff166006811115610cbc57610cbc61311e565b6006811115610ccd57610ccd61311e565b9052509050600281608001516006811115610cea57610cea61311e565b14610d085760405163392c16fb60e21b815260040160405180910390fd5b6001600160a01b0384166000908152600d602052604090208054841115610d4257604051632f1f68e160e11b815260040160405180910390fd5b6000818581548110610d5657610d56613795565b6000918252602090912060059091020190506002600382015460ff166006811115610d8357610d8361311e565b03610da157604051637f46ed2760e11b815260040160405180910390fd5b8360018201610db082826137f1565b505060038101805460ff191660011790556040517f8673cfb5a2cbad812463bdfd7c85511f29c804579a86d318889ab9251553996190610df5908890889088906138e9565b60405180910390a1505050505050565b600061095582611c59565b610e18612d31565b61095582611cfe565b6000336001600160a01b0384161480610e3f5750610e3f8333611e6e565b905080610e5f5760405163075fd2b160e01b815260040160405180910390fd5b6001600160a01b0383166000908152600a602052604090206002600482015460ff166006811115610e9257610e9261311e565b14610eb05760405163392c16fb60e21b815260040160405180910390fd5b60026004820154610100900460ff166006811115610ed057610ed061311e565b03610eee576040516305ca31d360e51b815260040160405180910390fd5b610ef784611f66565b60005b8351811015610fd1576001600160a01b0385166000908152600c602052604090208451859083908110610f2f57610f2f613795565b60209081029190910181015182546001818101855560009485529383902082516005909202019081558183015180519482019485559283015191939092916002840190610f7c9082613982565b505050604082015160038201805460ff19166001836006811115610fa257610fa261311e565b021790555060608201516004820190610fbb9082613982565b5050508080610fc990613a57565b915050610efa565b508251604080516001600160a01b038716815260208101929092527f8a5603111f154f43104afe04452c6a93024a972cb6a0af72e6f38bcce68625d5910160405180910390a150505050565b8151815160609190811461104457604051633da4c02b60e11b815260040160405180910390fd5b6000816001600160401b0381111561105e5761105e612e3e565b6040519080825280602002602001820160405280156110a357816020015b604080518082019091526000808252602082015281526020019060019003908161107c5790505b50905060005b82811015611112576110ed8682815181106110c6576110c6613795565b60200260200101518683815181106110e0576110e0613795565b6020026020010151611f9c565b8282815181106110ff576110ff613795565b60209081029190910101526001016110a9565b50949350505050565b3361112581611fe7565b6001600160a01b0383166000908152600a6020526040902060026004820154610100900460ff16600681111561115d5761115d61311e565b0361117b576040516305ca31d360e51b815260040160405180910390fd5b336000908152600b60205260408120546006546005549192916064916111a091613a70565b6111aa9190613a87565b905060028560068111156111c0576111c061311e565b03611489576001600160a01b0386166000908152600c6020526040812060010180548492906111f0908490613aa9565b90915550506001600160a01b0386166000908152600c6020526040902060010154811015611484576001600160a01b0386166000908152600a60205260409020600401805486919061ff0019166101008360068111156112525761125261311e565b02179055506001600160a01b0386166000908152600c602090815260408083208054825181850281018501909352808352611446948b9484015b8282101561143d57838290600052602060002090600502016040518060800160405290816000820154815260200160018201604051806040016040529081600082015481526020016001820180546112e39061373e565b80601f016020809104026020016040519081016040528092919081815260200182805461130f9061373e565b801561135c5780601f106113315761010080835404028352916020019161135c565b820191906000526020600020905b81548152906001019060200180831161133f57829003601f168201915b505050919092525050508152600382015460209091019060ff1660068111156113875761138761311e565b60068111156113985761139861311e565b81526020016004820180546113ac9061373e565b80601f01602080910402602001604051908101604052809291908181526020018280546113d89061373e565b80156114255780601f106113fa57610100808354040283529160200191611425565b820191906000526020600020905b81548152906001019060200180831161140857829003601f168201915b5050505050815250508152602001906001019061128c565b50505050612099565b6040516001600160a01b03871681527f7b05d1f85b1ac2e76c0d8dbb0dfa809df6788f66bbeeb837b2b5fae4f64c0063906020015b60405180910390a15b6115a7565b600385600681111561149d5761149d61311e565b03611576576001600160a01b0386166000908152600c6020526040812060020180548492906114cd908490613aa9565b90915550506001600160a01b0386166000908152600c6020526040902060020154811015611484576001600160a01b0386166000908152600a60205260409020600401805486919061ff00191661010083600681111561152f5761152f61311e565b021790555061153d86611f66565b6040516001600160a01b03871681527f5a90817477dd8f83cfe5d429e1dc84ad5a25cb72b83291c707c6f8f5c4f2ac849060200161147b565b7f30dae55c386c6176f3f7b7ee6ad4df33970f2e442cb0142e978cf78fd8ae138d8686604051610df5929190613abc565b505050505050565b336115b981611fe7565b6115c28261231d565b60405182151581527fd94c9bc4d43c51d8dc345a016d8e3d994432fac68e72832e4cf3a616bd8efae09060200160405180910390a15050565b600d602052816000526040600020818154811061161757600080fd5b906000526020600020906005020160009150915050806000015490806001016040518060400160405290816000820154815260200160018201805461165b9061373e565b80601f01602080910402602001604051908101604052809291908181526020018280546116879061373e565b80156116d45780601f106116a9576101008083540402835291602001916116d4565b820191906000526020600020905b8154815290600101906020018083116116b757829003601f168201915b505050919092525050506003820154600483018054929360ff909216926116fa9061373e565b80601f01602080910402602001604051908101604052809291908181526020018280546117269061373e565b80156117735780601f1061174857610100808354040283529160200191611773565b820191906000526020600020905b81548152906001019060200180831161175657829003601f168201915b5050505050905084565b600061095582612364565b60008180602001905181019061179e9190613ae4565b90506117aa8382612379565b7f91efa3d50feccde0d0d202f8ae5c41ca0b2be614cebcb2bd2f4b019396e6568a83836040516117db929190613c0c565b60405180910390a1505050565b6117f0611878565b6117f86118c3565b6118028282612532565b5050565b61180e611878565b80600260008282546118209190613aa9565b9091555061182d90508181565b50565b6001600160a01b0382166000908152600d6020526040812080548390811061185a5761185a613795565b600091825260209091206005909102016003015460ff169392505050565b336001600160a01b037f000000000000000000000000000000000000000000000000000000000000000016146118c15760405163075fd2b160e01b815260040160405180910390fd5b565b6001546000036118c157604051630f68fe6360e21b815260040160405180910390fd5b806118f081611fe7565b835160005b818110156115a75761192086828151811061191257611912613795565b602002602001015185612853565b6001016118f5565b6000611932612bf9565b600080600080611955604051806040016040528060008152602001606081525090565b60045460ff16156119aa57878060200190518101906119749190613cbb565b929850909650925090506119888688611e6e565b6119a55760405163075fd2b160e01b815260040160405180910390fd5b611a17565b878060200190518101906119be9190613cbb565b9297509095506001600160a01b0386161515945092509050826119e157846119e3565b835b95508280156119f957506119f78688611e6e565b155b15611a175760405163075fd2b160e01b815260040160405180910390fd5b60045462010000900460ff168015611a2d575081155b15611a4b576040516303b167dd60e01b815260040160405180910390fd5b60026001600160a01b0387166000908152600a602052604090206004015460ff166006811115611a7d57611a7d61311e565b03611a9b5760405163083a81f760e31b815260040160405180910390fd5b600454610100900460ff168015611abe57506020810151511580611abe57508051155b15611adc5760405163c19e07c560e01b815260040160405180910390fd5b6040805160c0810190915260045460009190819060ff16611afd5785611b00565b60015b151581526001600160a01b0388166020820152604081018590526060810184905260800160028152602001600190526001600160a01b038881166000908152600a602090815260409182902084518154868401516001600160a81b0319909116911515610100600160a81b03191691909117610100919095160293909317835590830151600183015560608301518051600284019081559181015193945084939091906003840190611bb29082613982565b505050608082015160048201805460ff19166001836006811115611bd857611bd861311e565b021790555060a082015160048201805461ff001916610100836006811115611c0257611c0261311e565b0217905550905050866001600160a01b03167fa197306e3dd5494a61a695381aa809a53b8e377a685e84e404a85d5a8da6cc628a8a604051611c45929190613d28565b60405180910390a250505050505092915050565b6001546040516329e40d4b60e01b81526000916001600160a01b037f000000000000000000000000000000000000000000000000000000000000000016916329e40d4b91611cbd9186906004019182526001600160a01b0316602082015260400190565b602060405180830381865afa158015611cda573d6000803e3d6000fd5b505050506040513d601f19601f820116820180604052508101906109559190613778565b611d06612d31565b6001600160a01b038083166000908152600a6020908152604091829020825160c081018452815460ff811615158252610100900490941684830152600181015484840152825180840190935260028101805484526003820180549294606087019490939084019190611d779061373e565b80601f0160208091040260200160405190810160405280929190818152602001828054611da39061373e565b8015611df05780601f10611dc557610100808354040283529160200191611df0565b820191906000526020600020905b815481529060010190602001808311611dd357829003601f168201915b505050919092525050508152600482015460209091019060ff166006811115611e1b57611e1b61311e565b6006811115611e2c57611e2c61311e565b81526020016004820160019054906101000a900460ff166006811115611e5457611e5461311e565b6006811115611e6557611e6561311e565b90525092915050565b60075460405163dd93da4360e01b81526001600160a01b038481166004830152600092839291169063dd93da4390602401600060405180830381865afa158015611ebc573d6000803e3d6000fd5b505050506040513d6000823e601f3d908101601f19168201604052611ee49190810190613d52565b6007548151604051635e8a791560e01b815260048101919091526001600160a01b038681166024830152929350911690635e8a791590604401602060405180830381865afa158015611f3a573d6000803e3d6000fd5b505050506040513d601f19601f82011682018060405250810190611f5e9190613778565b949350505050565b6001600160a01b0381166000908152600c6020526040812090611f898282612d8c565b5060006001820181905560029091015550565b60408051808201909152600080825260208201526000611fbb84611cfe565b6040805180820182526020808401516001600160a01b0316825291909201519082015291505092915050565b6001546040516329e40d4b60e01b815260048101919091526001600160a01b0382811660248301527f000000000000000000000000000000000000000000000000000000000000000016906329e40d4b90604401602060405180830381865afa158015612058573d6000803e3d6000fd5b505050506040513d601f19601f8201168201806040525081019061207c9190613778565b61182d5760405163075fd2b160e01b815260040160405180910390fd5b6001600160a01b0382166000908152600d6020526040812054156120d8576001600160a01b0383166000908152600d602052604081206120d891612d8c565b815160005b818110156121fe5760008482815181106120f9576120f9613795565b60200260200101519050600060068111156121165761211661311e565b8160400151600681111561212c5761212c61311e565b1461214a57604051632f1f68e160e11b815260040160405180910390fd5b80516121569085613aa9565b6001600160a01b0387166000908152600d60209081526040822080546001818101835591845292829020855160059094020192835584820151805191840191825591820151939750849360028401906121af9082613982565b505050604082015160038201805460ff191660018360068111156121d5576121d561311e565b0217905550606082015160048201906121ee9082613982565b5050600190920191506120dd9050565b5081670de0b6b3a76400001461222757604051632f1f68e160e11b815260040160405180910390fd5b600084600260055460405160200161224193929190613e18565b60408051601f19818403018152908290526001546305d8703160e31b83529092506001600160a01b037f00000000000000000000000000000000000000000000000000000000000000001691632ec38188916122a1918590600401613c0c565b600060405180830381600087803b1580156122bb57600080fd5b505af11580156122cf573d6000803e3d6000fd5b5050604080516001600160a01b0389168152602081018690527fb000fb1507aac2465ccb4f6bd1b601c7053279005e9e9932c41946b35c84949b935001905060405180910390a15050505050565b6000805460ff19168215159081179091556040519081527fd94c9bc4d43c51d8dc345a016d8e3d994432fac68e72832e4cf3a616bd8efae09060200160405180910390a150565b600061236f82611cfe565b6080015192915050565b61238282612c1c565b805160048054602084015160408501511515620100000262ff0000199115156101000261ff00199515159590951661ffff19909316929092179390931792909216919091179055606081015160005b8151811015612485578181815181106123ec576123ec613795565b602002602001015160200151600b600084848151811061240e5761240e613795565b6020026020010151600001516001600160a01b03166001600160a01b031681526020019081526020016000208190555081818151811061245057612450613795565b6020026020010151602001516005600082825461246d9190613aa9565b9091555081905061247d81613a57565b9150506123d1565b507f00000000000000000000000000000000000000000000000000000000000000006001600160a01b0316635ab1bd536040518163ffffffff1660e01b8152600401602060405180830381865afa1580156124e4573d6000803e3d6000fd5b505050506040513d601f19601f820116820180604052508101906125089190613e43565b600780546001600160a01b0319166001600160a01b039290921691909117905561063e600161231d565b61253a612c6b565b6001600160a01b03811630146125815760405162461bcd60e51b815260206004820152600c60248201526b15539055551213d49256915160a21b60448201526064016108e1565b60008060008480602001905181019061259a9190613e60565b6001600160a01b0383166000908152600a60209081526040808320600e90925290912054939650919450925090156125e5576040516305ca31d360e51b815260040160405180910390fd5b6002600482015460ff1660068111156126005761260061311e565b1415801561261f5750600283600681111561261d5761261d61311e565b145b156127ba5760015460405163068bcd8d60e01b81526000916001600160a01b037f0000000000000000000000000000000000000000000000000000000000000000169163068bcd8d916126789160040190815260200190565b600060405180830381865afa158015612695573d6000803e3d6000fd5b505050506040513d6000823e601f3d908101601f191682016040526126bd9190810190613ea3565b905082600860008282546126d19190613aa9565b909155505060025460085411156126fb57604051638e81b16f60e01b815260040160405180910390fd5b6001820183905560048201805460ff191660029081179091556040517f94593b52aa436dd31a63e313045c2eb23d43eb2d6f5b4d7797b4432e7b2774909161274591889190613abc565b60405180910390a1846001600160a01b03167f463ffc2cf8b1596445c417388ed30e53eb67cf6668cb2be7f0addf8a78c8441b83600101548360400151896040516127ac939291909283526001600160a01b03918216602084015216604082015260600190565b60405180910390a250612845565b6003600482015460ff1660068111156127d5576127d561311e565b141580156127f4575060038360068111156127f2576127f261311e565b145b156128455760048101805460ff191660039081179091556040517f94593b52aa436dd31a63e313045c2eb23d43eb2d6f5b4d7797b4432e7b2774909161283c91879190613abc565b60405180910390a15b505050506118026001600355565b6001600160a01b038083166000908152600e6020908152604080832054600d8352818420600a8452828520835160c081018552815460ff811615158252610100900490971687860152600181015487850152835180850190945260028101805485526003820180549498939796939592946060870194840191906128d69061373e565b80601f01602080910402602001604051908101604052809291908181526020018280546129029061373e565b801561294f5780601f106129245761010080835404028352916020019161294f565b820191906000526020600020905b81548152906001019060200180831161293257829003601f168201915b505050919092525050508152600482015460209091019060ff16600681111561297a5761297a61311e565b600681111561298b5761298b61311e565b81526020016004820160019054906101000a900460ff1660068111156129b3576129b361311e565b60068111156129c4576129c461311e565b81525050905060008284815481106129de576129de613795565b906000526020600020906005020190508280549050841180612a1957506001600382015460ff166006811115612a1657612a1661311e565b14155b15612a3757604051632f1f68e160e11b815260040160405180910390fd5b6000670de0b6b3a764000082600001548460400151612a569190613a70565b612a609190613a87565b905060007f00000000000000000000000000000000000000000000000000000000000000006001600160a01b031663068bcd8d6001546040518263ffffffff1660e01b8152600401612ab491815260200190565b600060405180830381865afa158015612ad1573d6000803e3d6000fd5b505050506040513d6000823e601f3d908101601f19168201604052612af99190810190613ea3565b90508160026000828254612b0d9190613f56565b92505081905550612b278160400151856020015184612c95565b60038301805460ff191660021790556001600160a01b0388166000908152600e60205260408120805491612b5a83613a57565b91905055507ff1af82b65c631a030029b10ea8f00f68290285c7c797644155b8f23969ca1d6388876002604051612b9393929190613f69565b60405180910390a1602080850151604080516001600160a01b039283168152928301859052898216908301528916907fb5b51454adfa840bd593658325a60a50b0216f12eb5d2937efe6cea935675b7d9060600160405180910390a25050505050505050565b60005460ff166118c15760405163cfe7975b60e01b815260040160405180910390fd5b612c24611878565b60015415612c455760405163439a74c960e01b815260040160405180910390fd5b80600003612c6657604051637fcce2a960e01b815260040160405180910390fd5b600155565b600260035403612c8e57604051633ee5aeb560e01b815260040160405180910390fd5b6002600355565b73eeeeeeeeeeeeeeeeeeeeeeeeeeeeeeeeeeeeeeed196001600160a01b03841601612cc45761063e8282612ccf565b61063e838383612ceb565b60003860003884865af16118025763b12d13eb6000526004601cfd5b816014528060345263a9059cbb60601b60005260206000604460106000875af13d156001600051141716612d27576390b8ec186000526004601cfd5b6000603452505050565b6040518060c0016040528060001515815260200160006001600160a01b0316815260200160008152602001612d79604051806040016040528060008152602001606081525090565b8152602001600081526020016000905290565b508054600082556005029060005260206000209081019061182d91905b80821115612df05760008082556001820181815581612dcb6002850182612df4565b505060038201805460ff19169055612de7600483016000612df4565b50600501612da9565b5090565b508054612e009061373e565b6000825580601f10612e10575050565b601f01602090049060005260206000209081019061182d91905b80821115612df05760008155600101612e2a565b634e487b7160e01b600052604160045260246000fd5b604051608081016001600160401b0381118282101715612e7657612e76612e3e565b60405290565b604080519081016001600160401b0381118282101715612e7657612e76612e3e565b60405160c081016001600160401b0381118282101715612e7657612e76612e3e565b604051601f8201601f191681016001600160401b0381118282101715612ee857612ee8612e3e565b604052919050565b60006001600160401b03821115612f0957612f09612e3e565b5060051b60200190565b6001600160a01b038116811461182d57600080fd5b600082601f830112612f3957600080fd5b81356020612f4e612f4983612ef0565b612ec0565b82815260059290921b84018101918181019086841115612f6d57600080fd5b8286015b84811015612f91578035612f8481612f13565b8352918301918301612f71565b509695505050505050565b60006001600160401b03821115612fb557612fb5612e3e565b50601f01601f191660200190565b600082601f830112612fd457600080fd5b8135612fe2612f4982612f9c565b818152846020838601011115612ff757600080fd5b816020850160208301376000918101602001919091529392505050565b60008060006060848603121561302957600080fd5b83356001600160401b038082111561304057600080fd5b61304c87838801612f28565b9450602086013591508082111561306257600080fd5b5061306f86828701612fc3565b925050604084013561308081612f13565b809150509250925092565b60006020828403121561309d57600080fd5b81356130a881612f13565b9392505050565b60005b838110156130ca5781810151838201526020016130b2565b50506000910152565b600081518084526130eb8160208601602086016130af565b601f01601f19169290920160200192915050565b805182526000602082015160406020850152611f5e60408501826130d3565b634e487b7160e01b600052602160045260246000fd5b6007811061315257634e487b7160e01b600052602160045260246000fd5b9052565b60006020808301818452808551808352604092508286019150828160051b87010184880160005b838110156131ed57603f19898403018552815160808151855288820151818a8701526131ab828701826130ff565b915050878201516131be89870182613134565b50606080830151925085820381870152506131d981836130d3565b96890196945050509086019060010161317d565b509098975050505050505050565b6000806040838503121561320e57600080fd5b50508035926020909101359150565b6000806040838503121561323057600080fd5b82356001600160401b0381111561324657600080fd5b61325285828601612fc3565b925050602083013561326381612f13565b809150509250929050565b60008060006060848603121561328357600080fd5b833561328e81612f13565b92506020840135915060408401356001600160401b038111156132b057600080fd5b84016040818703121561308057600080fd5b6020815281511515602082015260018060a01b036020830151166040820152604082015160608201526000606083015160c0608084015261330660e08401826130ff565b9050608084015161331a60a0850182613134565b5060a084015161332d60c0850182613134565b509392505050565b6007811061182d57600080fd5b803561334d81613335565b919050565b6000806040838503121561336557600080fd5b61336f8335612f13565b823591506001600160401b03806020850135111561338c57600080fd5b6020840135840185601f8201126133a257600080fd5b6133af612f498235612ef0565b81358082526020808301929160051b8401018810156133cd57600080fd5b602083015b6020843560051b8501018110156134ce5784813511156133f157600080fd5b80358401601f196080828c038201121561340a57600080fd5b613412612e54565b60208301358152876040840135111561342a57600080fd5b60408301358301604083828f0301121561344357600080fd5b61344b612e7c565b925060208101358352886040820135111561346557600080fd5b6134788d60206040840135840101612fc3565b60208401525081602082015261349060608401613342565b604082015287608084013511156134a657600080fd5b6134b98c60206080860135860101612fc3565b606082015285525050602092830192016133d2565b50809450505050509250929050565b600080604083850312156134f057600080fd5b82356001600160401b038082111561350757600080fd5b61351386838701612f28565b935060209150818501358181111561352a57600080fd5b8501601f8101871361353b57600080fd5b8035613549612f4982612ef0565b81815260059190911b8201840190848101908983111561356857600080fd5b8584015b838110156135a0578035868111156135845760008081fd5b6135928c8983890101612fc3565b84525091860191860161356c565b508096505050505050509250929050565b602080825282518282018190526000919060409081850190868401855b828110156135fc57815180516001600160a01b031685528601518685015292840192908501906001016135ce565b5091979650505050505050565b6000806040838503121561361c57600080fd5b823561362781612f13565b9150602083013561326381613335565b801515811461182d57600080fd5b60006020828403121561365757600080fd5b81356130a881613637565b6000806040838503121561367557600080fd5b823561368081612f13565b946020939093013593505050565b8481526080602082015260006136a760808301866130ff565b6136b46040840186613134565b82810360608401526136c681856130d3565b979650505050505050565b602081016109558284613134565b600080604083850312156136f257600080fd5b8235915060208301356001600160401b0381111561370f57600080fd5b61371b85828601612fc3565b9150509250929050565b60006020828403121561373757600080fd5b5035919050565b600181811c9082168061375257607f821691505b60208210810361377257634e487b7160e01b600052602260045260246000fd5b50919050565b60006020828403121561378a57600080fd5b81516130a881613637565b634e487b7160e01b600052603260045260246000fd5b601f82111561063e57600081815260208120601f850160051c810160208610156137d25750805b601f850160051c820191505b818110156115a7578281556001016137de565b813581556001808201602080850135601e1986360301811261381257600080fd5b850180356001600160401b0381111561382a57600080fd5b803603838301131561383b57600080fd5b61384f81613849865461373e565b866137ab565b6000601f821160018114613885576000831561386d57508382018501355b600019600385901b1c1916600184901b1786556138de565b600086815260209020601f19841690835b828110156138b557868501880135825593870193908901908701613896565b50848210156138d45760001960f88660031b161c198785880101351681555b50508683881b0186555b505050505050505050565b60018060a01b0384168152826020820152606060408201528135606082015260006020830135601e1984360301811261392157600080fd5b83016020810190356001600160401b0381111561393d57600080fd5b80360382131561394c57600080fd5b604060808501528060a0850152808260c0860137600060c0828601015260c0601f19601f83011685010192505050949350505050565b81516001600160401b0381111561399b5761399b612e3e565b6139af816139a9845461373e565b846137ab565b602080601f8311600181146139e457600084156139cc5750858301515b600019600386901b1c1916600185901b1785556115a7565b600085815260208120601f198616915b82811015613a13578886015182559484019460019091019084016139f4565b5085821015613a315787850151600019600388901b60f8161c191681555b5050505050600190811b01905550565b634e487b7160e01b600052601160045260246000fd5b600060018201613a6957613a69613a41565b5060010190565b808202811582820484141761095557610955613a41565b600082613aa457634e487b7160e01b600052601260045260246000fd5b500490565b8082018082111561095557610955613a41565b6001600160a01b0383168152604081016130a86020830184613134565b805161334d81612f13565b60006020808385031215613af757600080fd5b82516001600160401b0380821115613b0e57600080fd5b9084019060808287031215613b2257600080fd5b613b2a612e54565b8251613b3581613637565b815282840151613b4481613637565b81850152604083810151613b5781613637565b82820152606084015183811115613b6d57600080fd5b80850194505087601f850112613b8257600080fd5b83519250613b92612f4984612ef0565b83815260069390931b84018501928581019089851115613bb157600080fd5b948601945b84861015613bfa5782868b031215613bce5760008081fd5b613bd6612e7c565b8651613be181612f13565b8152868801518882015282529482019490860190613bb6565b60608401525090979650505050505050565b828152604060208201526000611f5e60408301846130d3565b600082601f830112613c3657600080fd5b8151613c44612f4982612f9c565b818152846020838601011115613c5957600080fd5b611f5e8260208301602087016130af565b600060408284031215613c7c57600080fd5b613c84612e7c565b90508151815260208201516001600160401b03811115613ca357600080fd5b613caf84828501613c25565b60208301525092915050565b60008060008060808587031215613cd157600080fd5b8451613cdc81612f13565b6020860151909450613ced81612f13565b6040860151606087015191945092506001600160401b03811115613d1057600080fd5b613d1c87828801613c6a565b91505092959194509250565b604081526000613d3b60408301856130d3565b905060018060a01b03831660208301529392505050565b600060208284031215613d6457600080fd5b81516001600160401b0380821115613d7b57600080fd5b9083019060c08286031215613d8f57600080fd5b613d97612e9e565b8251815260208301516020820152604083015182811115613db757600080fd5b613dc387828601613c25565b604083015250606083015182811115613ddb57600080fd5b613de787828601613c6a565b606083015250613df960808401613ad9565b6080820152613e0a60a08401613ad9565b60a082015295945050505050565b6001600160a01b038416815260608101613e356020830185613134565b826040830152949350505050565b600060208284031215613e5557600080fd5b81516130a881612f13565b600080600060608486031215613e7557600080fd5b8351613e8081612f13565b6020850151909350613e9181613335565b80925050604084015190509250925092565b600060208284031215613eb557600080fd5b81516001600160401b0380821115613ecc57600080fd5b9083019060c08286031215613ee057600080fd5b613ee8612e9e565b825181526020830151613efa81612f13565b60208201526040830151613f0d81612f13565b6040820152606083015182811115613f2457600080fd5b613f3087828601613c6a565b6060830152506080830151608082015260a083015160a082015280935050505092915050565b8181038181111561095557610955613a41565b6001600160a01b03841681526020810183905260608101611f5e604083018461313456fea2646970667358221220101501ffdad9ca0aef6c321e8c457671b6a4f3f4c6e0077323d345cf0ae4393364736f6c63430008140033","opcodes":"PUSH1 0xC0 PUSH1 0x40 MSTORE PUSH1 0x46 PUSH1 0x6 SSTORE CALLVALUE DUP1 ISZERO PUSH3 0x16 JUMPI PUSH1 0x0 DUP1 REVERT JUMPDEST POP PUSH1 0x40 MLOAD PUSH3 0x41EE CODESIZE SUB DUP1 PUSH3 0x41EE DUP4 CODECOPY DUP2 ADD PUSH1 0x40 DUP2 SWAP1 MSTORE PUSH3 0x39 SWAP2 PUSH3 0xC4 JUMP JUMPDEST PUSH1 0x1 PUSH1 0x1 PUSH1 0xA0 SHL SUB DUP3 AND PUSH1 0x80 MSTORE PUSH1 0x40 MLOAD DUP3 SWAP1 DUP3 SWAP1 PUSH3 0x5D SWAP1 DUP3 SWAP1 PUSH1 0x20 ADD PUSH3 0x19F JUMP JUMPDEST PUSH1 0x40 DUP1 MLOAD PUSH1 0x1F NOT DUP2 DUP5 SUB ADD DUP2 MSTORE SWAP2 SWAP1 MSTORE DUP1 MLOAD PUSH1 0x20 SWAP1 SWAP2 ADD KECCAK256 PUSH1 0xA0 MSTORE POP POP PUSH1 0x1 PUSH1 0x3 SSTORE POP PUSH3 0x1D4 SWAP1 POP JUMP JUMPDEST PUSH4 0x4E487B71 PUSH1 0xE0 SHL PUSH1 0x0 MSTORE PUSH1 0x41 PUSH1 0x4 MSTORE PUSH1 0x24 PUSH1 0x0 REVERT JUMPDEST PUSH1 0x0 JUMPDEST DUP4 DUP2 LT ISZERO PUSH3 0xBB JUMPI DUP2 DUP2 ADD MLOAD DUP4 DUP3 ADD MSTORE PUSH1 0x20 ADD PUSH3 0xA1 JUMP JUMPDEST POP POP PUSH1 0x0 SWAP2 ADD MSTORE JUMP JUMPDEST PUSH1 0x0 DUP1 PUSH1 0x40 DUP4 DUP6 SUB SLT ISZERO PUSH3 0xD8 JUMPI PUSH1 0x0 DUP1 REVERT JUMPDEST DUP3 MLOAD PUSH1 0x1 PUSH1 0x1 PUSH1 0xA0 SHL SUB DUP2 AND DUP2 EQ PUSH3 0xF0 JUMPI PUSH1 0x0 DUP1 REVERT JUMPDEST PUSH1 0x20 DUP5 ADD MLOAD SWAP1 SWAP3 POP PUSH1 0x1 PUSH1 0x1 PUSH1 0x40 SHL SUB DUP1 DUP3 GT ISZERO PUSH3 0x10E JUMPI PUSH1 0x0 DUP1 REVERT JUMPDEST DUP2 DUP6 ADD SWAP2 POP DUP6 PUSH1 0x1F DUP4 ADD SLT PUSH3 0x123 JUMPI PUSH1 0x0 DUP1 REVERT JUMPDEST DUP2 MLOAD DUP2 DUP2 GT ISZERO PUSH3 0x138 JUMPI PUSH3 0x138 PUSH3 0x88 JUMP JUMPDEST PUSH1 0x40 MLOAD PUSH1 0x1F DUP3 ADD PUSH1 0x1F NOT SWAP1 DUP2 AND PUSH1 0x3F ADD AND DUP2 ADD SWAP1 DUP4 DUP3 GT DUP2 DUP4 LT OR ISZERO PUSH3 0x163 JUMPI PUSH3 0x163 PUSH3 0x88 JUMP JUMPDEST DUP2 PUSH1 0x40 MSTORE DUP3 DUP2 MSTORE DUP9 PUSH1 0x20 DUP5 DUP8 ADD ADD GT ISZERO PUSH3 0x17D JUMPI PUSH1 0x0 DUP1 REVERT JUMPDEST PUSH3 0x190 DUP4 PUSH1 0x20 DUP4 ADD PUSH1 0x20 DUP9 ADD PUSH3 0x9E JUMP JUMPDEST DUP1 SWAP6 POP POP POP POP POP POP SWAP3 POP SWAP3 SWAP1 POP JUMP JUMPDEST PUSH1 0x20 DUP2 MSTORE PUSH1 0x0 DUP3 MLOAD DUP1 PUSH1 0x20 DUP5 ADD MSTORE PUSH3 0x1C0 DUP2 PUSH1 0x40 DUP6 ADD PUSH1 0x20 DUP8 ADD PUSH3 0x9E JUMP JUMPDEST PUSH1 0x1F ADD PUSH1 0x1F NOT AND SWAP2 SWAP1 SWAP2 ADD PUSH1 0x40 ADD SWAP3 SWAP2 POP POP JUMP JUMPDEST PUSH1 0x80 MLOAD PUSH1 0xA0 MLOAD PUSH2 0x3FC3 PUSH3 0x22B PUSH1 0x0 CODECOPY PUSH1 0x0 PUSH2 0x33E ADD MSTORE PUSH1 0x0 DUP2 DUP2 PUSH2 0x219 ADD MSTORE DUP2 DUP2 PUSH2 0x1883 ADD MSTORE DUP2 DUP2 PUSH2 0x1C76 ADD MSTORE DUP2 DUP2 PUSH2 0x2011 ADD MSTORE DUP2 DUP2 PUSH2 0x226C ADD MSTORE DUP2 DUP2 PUSH2 0x2488 ADD MSTORE DUP2 DUP2 PUSH2 0x2641 ADD MSTORE PUSH2 0x2A66 ADD MSTORE PUSH2 0x3FC3 PUSH1 0x0 RETURN INVALID PUSH1 0x80 PUSH1 0x40 MSTORE PUSH1 0x4 CALLDATASIZE LT PUSH2 0x1DC JUMPI PUSH1 0x0 CALLDATALOAD PUSH1 0xE0 SHR DUP1 PUSH4 0x9BE2CCF5 GT PUSH2 0x102 JUMPI DUP1 PUSH4 0xDF868ED3 GT PUSH2 0x95 JUMPI DUP1 PUSH4 0xEDD146CC GT PUSH2 0x64 JUMPI DUP1 PUSH4 0xEDD146CC EQ PUSH2 0x5B0 JUMPI DUP1 PUSH4 0xEF2920FC EQ PUSH2 0x5D0 JUMPI DUP1 PUSH4 0xF5B0DFB7 EQ PUSH2 0x5E3 JUMPI DUP1 PUSH4 0xF83067E7 EQ PUSH2 0x603 JUMPI PUSH1 0x0 DUP1 REVERT JUMPDEST DUP1 PUSH4 0xDF868ED3 EQ PUSH2 0x528 JUMPI DUP1 PUSH4 0xE2372B58 EQ PUSH2 0x540 JUMPI DUP1 PUSH4 0xE8EEB806 EQ PUSH2 0x56D JUMPI DUP1 PUSH4 0xEB11AF93 EQ PUSH2 0x583 JUMPI PUSH1 0x0 DUP1 REVERT JUMPDEST DUP1 PUSH4 0xB3EAE7AB GT PUSH2 0xD1 JUMPI DUP1 PUSH4 0xB3EAE7AB EQ PUSH2 0x499 JUMPI DUP1 PUSH4 0xB5F620CE EQ PUSH2 0x4B9 JUMPI DUP1 PUSH4 0xC7A892BF EQ PUSH2 0x4D9 JUMPI DUP1 PUSH4 0xCB0E85A6 EQ PUSH2 0x509 JUMPI PUSH1 0x0 DUP1 REVERT JUMPDEST DUP1 PUSH4 0x9BE2CCF5 EQ PUSH2 0x40A JUMPI DUP1 PUSH4 0xA0CF0AEA EQ PUSH2 0x42A JUMPI DUP1 PUSH4 0xA647D23E EQ PUSH2 0x452 JUMPI DUP1 PUSH4 0xB2B878D0 EQ PUSH2 0x46C JUMPI PUSH1 0x0 DUP1 REVERT JUMPDEST DUP1 PUSH4 0x38FFF2D0 GT PUSH2 0x17A JUMPI DUP1 PUSH4 0x4D31D087 GT PUSH2 0x149 JUMPI DUP1 PUSH4 0x4D31D087 EQ PUSH2 0x377 JUMPI DUP1 PUSH4 0x4ED2859E EQ PUSH2 0x3A7 JUMPI DUP1 PUSH4 0x62812A39 EQ PUSH2 0x3BD JUMPI DUP1 PUSH4 0x78F0184D EQ PUSH2 0x3EA JUMPI PUSH1 0x0 DUP1 REVERT JUMPDEST DUP1 PUSH4 0x38FFF2D0 EQ PUSH2 0x2FA JUMPI DUP1 PUSH4 0x3BF3577D EQ PUSH2 0x30F JUMPI DUP1 PUSH4 0x42FDA9C7 EQ PUSH2 0x32F JUMPI DUP1 PUSH4 0x4AB4BA42 EQ PUSH2 0x362 JUMPI PUSH1 0x0 DUP1 REVERT JUMPDEST DUP1 PUSH4 0x22A4E42D GT PUSH2 0x1B6 JUMPI DUP1 PUSH4 0x22A4E42D EQ PUSH2 0x27A JUMPI DUP1 PUSH4 0x2A835B4B EQ PUSH2 0x2A7 JUMPI DUP1 PUSH4 0x2BBE0CAE EQ PUSH2 0x2C7 JUMPI DUP1 PUSH4 0x36592C0E EQ PUSH2 0x2DA JUMPI PUSH1 0x0 DUP1 REVERT JUMPDEST DUP1 PUSH4 0xA6F0EE9 EQ PUSH2 0x1E8 JUMPI DUP1 PUSH4 0x15CC481E EQ PUSH2 0x20A JUMPI DUP1 PUSH4 0x18160DDD EQ PUSH2 0x256 JUMPI PUSH1 0x0 DUP1 REVERT JUMPDEST CALLDATASIZE PUSH2 0x1E3 JUMPI STOP JUMPDEST PUSH1 0x0 DUP1 REVERT JUMPDEST CALLVALUE DUP1 ISZERO PUSH2 0x1F4 JUMPI PUSH1 0x0 DUP1 REVERT JUMPDEST POP PUSH2 0x208 PUSH2 0x203 CALLDATASIZE PUSH1 0x4 PUSH2 0x3014 JUMP JUMPDEST PUSH2 0x623 JUMP JUMPDEST STOP JUMPDEST CALLVALUE DUP1 ISZERO PUSH2 0x216 JUMPI PUSH1 0x0 DUP1 REVERT JUMPDEST POP PUSH32 0x0 JUMPDEST PUSH1 0x40 MLOAD PUSH1 0x1 PUSH1 0x1 PUSH1 0xA0 SHL SUB SWAP1 SWAP2 AND DUP2 MSTORE PUSH1 0x20 ADD JUMPDEST PUSH1 0x40 MLOAD DUP1 SWAP2 SUB SWAP1 RETURN JUMPDEST CALLVALUE DUP1 ISZERO PUSH2 0x262 JUMPI PUSH1 0x0 DUP1 REVERT JUMPDEST POP PUSH2 0x26C PUSH1 0x5 SLOAD DUP2 JUMP JUMPDEST PUSH1 0x40 MLOAD SWAP1 DUP2 MSTORE PUSH1 0x20 ADD PUSH2 0x24D JUMP JUMPDEST CALLVALUE DUP1 ISZERO PUSH2 0x286 JUMPI PUSH1 0x0 DUP1 REVERT JUMPDEST POP PUSH2 0x29A PUSH2 0x295 CALLDATASIZE PUSH1 0x4 PUSH2 0x308B JUMP JUMPDEST PUSH2 0x643 JUMP JUMPDEST PUSH1 0x40 MLOAD PUSH2 0x24D SWAP2 SWAP1 PUSH2 0x3156 JUMP JUMPDEST CALLVALUE DUP1 ISZERO PUSH2 0x2B3 JUMPI PUSH1 0x0 DUP1 REVERT JUMPDEST POP PUSH2 0x208 PUSH2 0x2C2 CALLDATASIZE PUSH1 0x4 PUSH2 0x31FB JUMP JUMPDEST PUSH2 0x837 JUMP JUMPDEST PUSH2 0x239 PUSH2 0x2D5 CALLDATASIZE PUSH1 0x4 PUSH2 0x321D JUMP JUMPDEST PUSH2 0x936 JUMP JUMPDEST CALLVALUE DUP1 ISZERO PUSH2 0x2E6 JUMPI PUSH1 0x0 DUP1 REVERT JUMPDEST POP PUSH2 0x29A PUSH2 0x2F5 CALLDATASIZE PUSH1 0x4 PUSH2 0x308B JUMP JUMPDEST PUSH2 0x95B JUMP JUMPDEST CALLVALUE DUP1 ISZERO PUSH2 0x306 JUMPI PUSH1 0x0 DUP1 REVERT JUMPDEST POP PUSH1 0x1 SLOAD PUSH2 0x26C JUMP JUMPDEST CALLVALUE DUP1 ISZERO PUSH2 0x31B JUMPI PUSH1 0x0 DUP1 REVERT JUMPDEST POP PUSH2 0x208 PUSH2 0x32A CALLDATASIZE PUSH1 0x4 PUSH2 0x326E JUMP JUMPDEST PUSH2 0xB44 JUMP JUMPDEST CALLVALUE DUP1 ISZERO PUSH2 0x33B JUMPI PUSH1 0x0 DUP1 REVERT JUMPDEST POP PUSH32 0x0 PUSH2 0x26C JUMP JUMPDEST CALLVALUE DUP1 ISZERO PUSH2 0x36E JUMPI PUSH1 0x0 DUP1 REVERT JUMPDEST POP PUSH1 0x2 SLOAD PUSH2 0x26C JUMP JUMPDEST CALLVALUE DUP1 ISZERO PUSH2 0x383 JUMPI PUSH1 0x0 DUP1 REVERT JUMPDEST POP PUSH2 0x397 PUSH2 0x392 CALLDATASIZE PUSH1 0x4 PUSH2 0x308B JUMP JUMPDEST PUSH2 0xE05 JUMP JUMPDEST PUSH1 0x40 MLOAD SWAP1 ISZERO ISZERO DUP2 MSTORE PUSH1 0x20 ADD PUSH2 0x24D JUMP JUMPDEST CALLVALUE DUP1 ISZERO PUSH2 0x3B3 JUMPI PUSH1 0x0 DUP1 REVERT JUMPDEST POP PUSH2 0x26C PUSH1 0x6 SLOAD DUP2 JUMP JUMPDEST CALLVALUE DUP1 ISZERO PUSH2 0x3C9 JUMPI PUSH1 0x0 DUP1 REVERT JUMPDEST POP PUSH2 0x3DD PUSH2 0x3D8 CALLDATASIZE PUSH1 0x4 PUSH2 0x308B JUMP JUMPDEST PUSH2 0xE10 JUMP JUMPDEST PUSH1 0x40 MLOAD PUSH2 0x24D SWAP2 SWAP1 PUSH2 0x32C2 JUMP JUMPDEST CALLVALUE DUP1 ISZERO PUSH2 0x3F6 JUMPI PUSH1 0x0 DUP1 REVERT JUMPDEST POP PUSH2 0x208 PUSH2 0x405 CALLDATASIZE PUSH1 0x4 PUSH2 0x3352 JUMP JUMPDEST PUSH2 0xE21 JUMP JUMPDEST CALLVALUE DUP1 ISZERO PUSH2 0x416 JUMPI PUSH1 0x0 DUP1 REVERT JUMPDEST POP PUSH1 0x4 SLOAD PUSH2 0x397 SWAP1 PUSH3 0x10000 SWAP1 DIV PUSH1 0xFF AND DUP2 JUMP JUMPDEST CALLVALUE DUP1 ISZERO PUSH2 0x436 JUMPI PUSH1 0x0 DUP1 REVERT JUMPDEST POP PUSH2 0x239 PUSH20 0xEEEEEEEEEEEEEEEEEEEEEEEEEEEEEEEEEEEEEEEE DUP2 JUMP JUMPDEST CALLVALUE DUP1 ISZERO PUSH2 0x45E JUMPI PUSH1 0x0 DUP1 REVERT JUMPDEST POP PUSH1 0x4 SLOAD PUSH2 0x397 SWAP1 PUSH1 0xFF AND DUP2 JUMP JUMPDEST CALLVALUE DUP1 ISZERO PUSH2 0x478 JUMPI PUSH1 0x0 DUP1 REVERT JUMPDEST POP PUSH2 0x48C PUSH2 0x487 CALLDATASIZE PUSH1 0x4 PUSH2 0x34DD JUMP JUMPDEST PUSH2 0x101D JUMP JUMPDEST PUSH1 0x40 MLOAD PUSH2 0x24D SWAP2 SWAP1 PUSH2 0x35B1 JUMP JUMPDEST CALLVALUE DUP1 ISZERO PUSH2 0x4A5 JUMPI PUSH1 0x0 DUP1 REVERT JUMPDEST POP PUSH2 0x208 PUSH2 0x4B4 CALLDATASIZE PUSH1 0x4 PUSH2 0x3609 JUMP JUMPDEST PUSH2 0x111B JUMP JUMPDEST CALLVALUE DUP1 ISZERO PUSH2 0x4C5 JUMPI PUSH1 0x0 DUP1 REVERT JUMPDEST POP PUSH2 0x208 PUSH2 0x4D4 CALLDATASIZE PUSH1 0x4 PUSH2 0x3645 JUMP JUMPDEST PUSH2 0x15AF JUMP JUMPDEST CALLVALUE DUP1 ISZERO PUSH2 0x4E5 JUMPI PUSH1 0x0 DUP1 REVERT JUMPDEST POP PUSH2 0x4F9 PUSH2 0x4F4 CALLDATASIZE PUSH1 0x4 PUSH2 0x3662 JUMP JUMPDEST PUSH2 0x15FB JUMP JUMPDEST PUSH1 0x40 MLOAD PUSH2 0x24D SWAP5 SWAP4 SWAP3 SWAP2 SWAP1 PUSH2 0x368E JUMP JUMPDEST CALLVALUE DUP1 ISZERO PUSH2 0x515 JUMPI PUSH1 0x0 DUP1 REVERT JUMPDEST POP PUSH1 0x4 SLOAD PUSH2 0x397 SWAP1 PUSH2 0x100 SWAP1 DIV PUSH1 0xFF AND DUP2 JUMP JUMPDEST CALLVALUE DUP1 ISZERO PUSH2 0x534 JUMPI PUSH1 0x0 DUP1 REVERT JUMPDEST POP PUSH1 0x0 SLOAD PUSH1 0xFF AND PUSH2 0x397 JUMP JUMPDEST CALLVALUE DUP1 ISZERO PUSH2 0x54C JUMPI PUSH1 0x0 DUP1 REVERT JUMPDEST POP PUSH2 0x26C PUSH2 0x55B CALLDATASIZE PUSH1 0x4 PUSH2 0x308B JUMP JUMPDEST PUSH1 0xE PUSH1 0x20 MSTORE PUSH1 0x0 SWAP1 DUP2 MSTORE PUSH1 0x40 SWAP1 KECCAK256 SLOAD DUP2 JUMP JUMPDEST CALLVALUE DUP1 ISZERO PUSH2 0x579 JUMPI PUSH1 0x0 DUP1 REVERT JUMPDEST POP PUSH2 0x26C PUSH1 0x8 SLOAD DUP2 JUMP JUMPDEST CALLVALUE DUP1 ISZERO PUSH2 0x58F JUMPI PUSH1 0x0 DUP1 REVERT JUMPDEST POP PUSH2 0x5A3 PUSH2 0x59E CALLDATASIZE PUSH1 0x4 PUSH2 0x308B JUMP JUMPDEST PUSH2 0x177D JUMP JUMPDEST PUSH1 0x40 MLOAD PUSH2 0x24D SWAP2 SWAP1 PUSH2 0x36D1 JUMP JUMPDEST CALLVALUE DUP1 ISZERO PUSH2 0x5BC JUMPI PUSH1 0x0 DUP1 REVERT JUMPDEST POP PUSH2 0x208 PUSH2 0x5CB CALLDATASIZE PUSH1 0x4 PUSH2 0x36DF JUMP JUMPDEST PUSH2 0x1788 JUMP JUMPDEST PUSH2 0x208 PUSH2 0x5DE CALLDATASIZE PUSH1 0x4 PUSH2 0x321D JUMP JUMPDEST PUSH2 0x17E8 JUMP JUMPDEST CALLVALUE DUP1 ISZERO PUSH2 0x5EF JUMPI PUSH1 0x0 DUP1 REVERT JUMPDEST POP PUSH2 0x208 PUSH2 0x5FE CALLDATASIZE PUSH1 0x4 PUSH2 0x3725 JUMP JUMPDEST PUSH2 0x1806 JUMP JUMPDEST CALLVALUE DUP1 ISZERO PUSH2 0x60F JUMPI PUSH1 0x0 DUP1 REVERT JUMPDEST POP PUSH2 0x5A3 PUSH2 0x61E CALLDATASIZE PUSH1 0x4 PUSH2 0x3662 JUMP JUMPDEST PUSH2 0x1830 JUMP JUMPDEST PUSH2 0x62B PUSH2 0x1878 JUMP JUMPDEST PUSH2 0x633 PUSH2 0x18C3 JUMP JUMPDEST PUSH2 0x63E DUP4 DUP4 DUP4 PUSH2 0x18E6 JUMP JUMPDEST POP POP POP JUMP JUMPDEST PUSH1 0x1 PUSH1 0x1 PUSH1 0xA0 SHL SUB DUP2 AND PUSH1 0x0 SWAP1 DUP2 MSTORE PUSH1 0xD PUSH1 0x20 SWAP1 DUP2 MSTORE PUSH1 0x40 DUP1 DUP4 KECCAK256 DUP1 SLOAD DUP3 MLOAD DUP2 DUP6 MUL DUP2 ADD DUP6 ADD SWAP1 SWAP4 MSTORE DUP1 DUP4 MSTORE PUSH1 0x60 SWAP5 SWAP3 SWAP4 SWAP2 SWAP3 SWAP1 SWAP2 DUP5 ADD JUMPDEST DUP3 DUP3 LT ISZERO PUSH2 0x82C JUMPI DUP4 DUP3 SWAP1 PUSH1 0x0 MSTORE PUSH1 0x20 PUSH1 0x0 KECCAK256 SWAP1 PUSH1 0x5 MUL ADD PUSH1 0x40 MLOAD DUP1 PUSH1 0x80 ADD PUSH1 0x40 MSTORE SWAP1 DUP2 PUSH1 0x0 DUP3 ADD SLOAD DUP2 MSTORE PUSH1 0x20 ADD PUSH1 0x1 DUP3 ADD PUSH1 0x40 MLOAD DUP1 PUSH1 0x40 ADD PUSH1 0x40 MSTORE SWAP1 DUP2 PUSH1 0x0 DUP3 ADD SLOAD DUP2 MSTORE PUSH1 0x20 ADD PUSH1 0x1 DUP3 ADD DUP1 SLOAD PUSH2 0x6D2 SWAP1 PUSH2 0x373E JUMP JUMPDEST DUP1 PUSH1 0x1F ADD PUSH1 0x20 DUP1 SWAP2 DIV MUL PUSH1 0x20 ADD PUSH1 0x40 MLOAD SWAP1 DUP2 ADD PUSH1 0x40 MSTORE DUP1 SWAP3 SWAP2 SWAP1 DUP2 DUP2 MSTORE PUSH1 0x20 ADD DUP3 DUP1 SLOAD PUSH2 0x6FE SWAP1 PUSH2 0x373E JUMP JUMPDEST DUP1 ISZERO PUSH2 0x74B JUMPI DUP1 PUSH1 0x1F LT PUSH2 0x720 JUMPI PUSH2 0x100 DUP1 DUP4 SLOAD DIV MUL DUP4 MSTORE SWAP2 PUSH1 0x20 ADD SWAP2 PUSH2 0x74B JUMP JUMPDEST DUP3 ADD SWAP2 SWAP1 PUSH1 0x0 MSTORE PUSH1 0x20 PUSH1 0x0 KECCAK256 SWAP1 JUMPDEST DUP2 SLOAD DUP2 MSTORE SWAP1 PUSH1 0x1 ADD SWAP1 PUSH1 0x20 ADD DUP1 DUP4 GT PUSH2 0x72E JUMPI DUP3 SWAP1 SUB PUSH1 0x1F AND DUP3 ADD SWAP2 JUMPDEST POP POP POP SWAP2 SWAP1 SWAP3 MSTORE POP POP POP DUP2 MSTORE PUSH1 0x3 DUP3 ADD SLOAD PUSH1 0x20 SWAP1 SWAP2 ADD SWAP1 PUSH1 0xFF AND PUSH1 0x6 DUP2 GT ISZERO PUSH2 0x776 JUMPI PUSH2 0x776 PUSH2 0x311E JUMP JUMPDEST PUSH1 0x6 DUP2 GT ISZERO PUSH2 0x787 JUMPI PUSH2 0x787 PUSH2 0x311E JUMP JUMPDEST DUP2 MSTORE PUSH1 0x20 ADD PUSH1 0x4 DUP3 ADD DUP1 SLOAD PUSH2 0x79B SWAP1 PUSH2 0x373E JUMP JUMPDEST DUP1 PUSH1 0x1F ADD PUSH1 0x20 DUP1 SWAP2 DIV MUL PUSH1 0x20 ADD PUSH1 0x40 MLOAD SWAP1 DUP2 ADD PUSH1 0x40 MSTORE DUP1 SWAP3 SWAP2 SWAP1 DUP2 DUP2 MSTORE PUSH1 0x20 ADD DUP3 DUP1 SLOAD PUSH2 0x7C7 SWAP1 PUSH2 0x373E JUMP JUMPDEST DUP1 ISZERO PUSH2 0x814 JUMPI DUP1 PUSH1 0x1F LT PUSH2 0x7E9 JUMPI PUSH2 0x100 DUP1 DUP4 SLOAD DIV MUL DUP4 MSTORE SWAP2 PUSH1 0x20 ADD SWAP2 PUSH2 0x814 JUMP JUMPDEST DUP3 ADD SWAP2 SWAP1 PUSH1 0x0 MSTORE PUSH1 0x20 PUSH1 0x0 KECCAK256 SWAP1 JUMPDEST DUP2 SLOAD DUP2 MSTORE SWAP1 PUSH1 0x1 ADD SWAP1 PUSH1 0x20 ADD DUP1 DUP4 GT PUSH2 0x7F7 JUMPI DUP3 SWAP1 SUB PUSH1 0x1F AND DUP3 ADD SWAP2 JUMPDEST POP POP POP POP POP DUP2 MSTORE POP POP DUP2 MSTORE PUSH1 0x20 ADD SWAP1 PUSH1 0x1 ADD SWAP1 PUSH2 0x67B JUMP JUMPDEST POP POP POP POP SWAP1 POP SWAP2 SWAP1 POP JUMP JUMPDEST PUSH1 0x7 SLOAD PUSH1 0x40 MLOAD PUSH4 0xE6E1AE3 PUSH1 0xE2 SHL DUP2 MSTORE PUSH1 0x4 DUP2 ADD DUP4 SWAP1 MSTORE CALLER PUSH1 0x24 DUP3 ADD MSTORE PUSH1 0x1 PUSH1 0x1 PUSH1 0xA0 SHL SUB SWAP1 SWAP2 AND SWAP1 PUSH4 0x39B86B8C SWAP1 PUSH1 0x44 ADD PUSH1 0x20 PUSH1 0x40 MLOAD DUP1 DUP4 SUB DUP2 DUP7 GAS STATICCALL ISZERO DUP1 ISZERO PUSH2 0x886 JUMPI RETURNDATASIZE PUSH1 0x0 DUP1 RETURNDATACOPY RETURNDATASIZE PUSH1 0x0 REVERT JUMPDEST POP POP POP POP PUSH1 0x40 MLOAD RETURNDATASIZE PUSH1 0x1F NOT PUSH1 0x1F DUP3 ADD AND DUP3 ADD DUP1 PUSH1 0x40 MSTORE POP DUP2 ADD SWAP1 PUSH2 0x8AA SWAP2 SWAP1 PUSH2 0x3778 JUMP JUMPDEST PUSH2 0x8EA JUMPI PUSH1 0x40 MLOAD PUSH3 0x461BCD PUSH1 0xE5 SHL DUP2 MSTORE PUSH1 0x20 PUSH1 0x4 DUP3 ADD MSTORE PUSH1 0xC PUSH1 0x24 DUP3 ADD MSTORE PUSH12 0x15539055551213D492569151 PUSH1 0xA2 SHL PUSH1 0x44 DUP3 ADD MSTORE PUSH1 0x64 ADD JUMPDEST PUSH1 0x40 MLOAD DUP1 SWAP2 SUB SWAP1 REVERT JUMPDEST PUSH1 0x64 DUP3 GT ISZERO PUSH2 0x930 JUMPI PUSH1 0x40 MLOAD PUSH3 0x461BCD PUSH1 0xE5 SHL DUP2 MSTORE PUSH1 0x20 PUSH1 0x4 DUP3 ADD MSTORE PUSH1 0x12 PUSH1 0x24 DUP3 ADD MSTORE PUSH18 0x496E76616C69642070657263656E74616765 PUSH1 0x70 SHL PUSH1 0x44 DUP3 ADD MSTORE PUSH1 0x64 ADD PUSH2 0x8E1 JUMP JUMPDEST POP PUSH1 0x6 SSTORE JUMP JUMPDEST PUSH1 0x0 PUSH2 0x940 PUSH2 0x1878 JUMP JUMPDEST PUSH2 0x948 PUSH2 0x18C3 JUMP JUMPDEST PUSH2 0x952 DUP4 DUP4 PUSH2 0x1928 JUMP JUMPDEST SWAP1 POP JUMPDEST SWAP3 SWAP2 POP POP JUMP JUMPDEST PUSH1 0x1 PUSH1 0x1 PUSH1 0xA0 SHL SUB DUP2 AND PUSH1 0x0 SWAP1 DUP2 MSTORE PUSH1 0xC PUSH1 0x20 SWAP1 DUP2 MSTORE PUSH1 0x40 DUP1 DUP4 KECCAK256 DUP1 SLOAD DUP3 MLOAD DUP2 DUP6 MUL DUP2 ADD DUP6 ADD SWAP1 SWAP4 MSTORE DUP1 DUP4 MSTORE PUSH1 0x60 SWAP5 SWAP3 SWAP4 SWAP2 SWAP3 SWAP1 SWAP2 DUP5 ADD JUMPDEST DUP3 DUP3 LT ISZERO PUSH2 0x82C JUMPI DUP4 DUP3 SWAP1 PUSH1 0x0 MSTORE PUSH1 0x20 PUSH1 0x0 KECCAK256 SWAP1 PUSH1 0x5 MUL ADD PUSH1 0x40 MLOAD DUP1 PUSH1 0x80 ADD PUSH1 0x40 MSTORE SWAP1 DUP2 PUSH1 0x0 DUP3 ADD SLOAD DUP2 MSTORE PUSH1 0x20 ADD PUSH1 0x1 DUP3 ADD PUSH1 0x40 MLOAD DUP1 PUSH1 0x40 ADD PUSH1 0x40 MSTORE SWAP1 DUP2 PUSH1 0x0 DUP3 ADD SLOAD DUP2 MSTORE PUSH1 0x20 ADD PUSH1 0x1 DUP3 ADD DUP1 SLOAD PUSH2 0x9EA SWAP1 PUSH2 0x373E JUMP JUMPDEST DUP1 PUSH1 0x1F ADD PUSH1 0x20 DUP1 SWAP2 DIV MUL PUSH1 0x20 ADD PUSH1 0x40 MLOAD SWAP1 DUP2 ADD PUSH1 0x40 MSTORE DUP1 SWAP3 SWAP2 SWAP1 DUP2 DUP2 MSTORE PUSH1 0x20 ADD DUP3 DUP1 SLOAD PUSH2 0xA16 SWAP1 PUSH2 0x373E JUMP JUMPDEST DUP1 ISZERO PUSH2 0xA63 JUMPI DUP1 PUSH1 0x1F LT PUSH2 0xA38 JUMPI PUSH2 0x100 DUP1 DUP4 SLOAD DIV MUL DUP4 MSTORE SWAP2 PUSH1 0x20 ADD SWAP2 PUSH2 0xA63 JUMP JUMPDEST DUP3 ADD SWAP2 SWAP1 PUSH1 0x0 MSTORE PUSH1 0x20 PUSH1 0x0 KECCAK256 SWAP1 JUMPDEST DUP2 SLOAD DUP2 MSTORE SWAP1 PUSH1 0x1 ADD SWAP1 PUSH1 0x20 ADD DUP1 DUP4 GT PUSH2 0xA46 JUMPI DUP3 SWAP1 SUB PUSH1 0x1F AND DUP3 ADD SWAP2 JUMPDEST POP POP POP SWAP2 SWAP1 SWAP3 MSTORE POP POP POP DUP2 MSTORE PUSH1 0x3 DUP3 ADD SLOAD PUSH1 0x20 SWAP1 SWAP2 ADD SWAP1 PUSH1 0xFF AND PUSH1 0x6 DUP2 GT ISZERO PUSH2 0xA8E JUMPI PUSH2 0xA8E PUSH2 0x311E JUMP JUMPDEST PUSH1 0x6 DUP2 GT ISZERO PUSH2 0xA9F JUMPI PUSH2 0xA9F PUSH2 0x311E JUMP JUMPDEST DUP2 MSTORE PUSH1 0x20 ADD PUSH1 0x4 DUP3 ADD DUP1 SLOAD PUSH2 0xAB3 SWAP1 PUSH2 0x373E JUMP JUMPDEST DUP1 PUSH1 0x1F ADD PUSH1 0x20 DUP1 SWAP2 DIV MUL PUSH1 0x20 ADD PUSH1 0x40 MLOAD SWAP1 DUP2 ADD PUSH1 0x40 MSTORE DUP1 SWAP3 SWAP2 SWAP1 DUP2 DUP2 MSTORE PUSH1 0x20 ADD DUP3 DUP1 SLOAD PUSH2 0xADF SWAP1 PUSH2 0x373E JUMP JUMPDEST DUP1 ISZERO PUSH2 0xB2C JUMPI DUP1 PUSH1 0x1F LT PUSH2 0xB01 JUMPI PUSH2 0x100 DUP1 DUP4 SLOAD DIV MUL DUP4 MSTORE SWAP2 PUSH1 0x20 ADD SWAP2 PUSH2 0xB2C JUMP JUMPDEST DUP3 ADD SWAP2 SWAP1 PUSH1 0x0 MSTORE PUSH1 0x20 PUSH1 0x0 KECCAK256 SWAP1 JUMPDEST DUP2 SLOAD DUP2 MSTORE SWAP1 PUSH1 0x1 ADD SWAP1 PUSH1 0x20 ADD DUP1 DUP4 GT PUSH2 0xB0F JUMPI DUP3 SWAP1 SUB PUSH1 0x1F AND DUP3 ADD SWAP2 JUMPDEST POP POP POP POP POP DUP2 MSTORE POP POP DUP2 MSTORE PUSH1 0x20 ADD SWAP1 PUSH1 0x1 ADD SWAP1 PUSH2 0x993 JUMP JUMPDEST PUSH1 0x1 PUSH1 0x1 PUSH1 0xA0 SHL SUB DUP4 AND CALLER EQ PUSH2 0xB6D JUMPI PUSH1 0x40 MLOAD PUSH4 0x75FD2B1 PUSH1 0xE0 SHL DUP2 MSTORE PUSH1 0x4 ADD PUSH1 0x40 MLOAD DUP1 SWAP2 SUB SWAP1 REVERT JUMPDEST PUSH1 0x1 PUSH1 0x1 PUSH1 0xA0 SHL SUB DUP1 DUP5 AND PUSH1 0x0 SWAP1 DUP2 MSTORE PUSH1 0xA PUSH1 0x20 SWAP1 DUP2 MSTORE PUSH1 0x40 DUP1 DUP4 KECCAK256 DUP2 MLOAD PUSH1 0xC0 DUP2 ADD DUP4 MSTORE DUP2 SLOAD PUSH1 0xFF DUP2 AND ISZERO ISZERO DUP3 MSTORE PUSH2 0x100 SWAP1 DIV SWAP1 SWAP6 AND DUP6 DUP5 ADD MSTORE PUSH1 0x1 DUP2 ADD SLOAD DUP6 DUP4 ADD MSTORE DUP2 MLOAD DUP1 DUP4 ADD SWAP1 SWAP3 MSTORE PUSH1 0x2 DUP2 ADD DUP1 SLOAD DUP4 MSTORE PUSH1 0x3 DUP3 ADD DUP1 SLOAD SWAP6 SWAP7 SWAP6 SWAP3 SWAP5 PUSH1 0x60 DUP8 ADD SWAP5 SWAP4 SWAP1 DUP5 ADD SWAP2 SWAP1 PUSH2 0xBDF SWAP1 PUSH2 0x373E JUMP JUMPDEST DUP1 PUSH1 0x1F ADD PUSH1 0x20 DUP1 SWAP2 DIV MUL PUSH1 0x20 ADD PUSH1 0x40 MLOAD SWAP1 DUP2 ADD PUSH1 0x40 MSTORE DUP1 SWAP3 SWAP2 SWAP1 DUP2 DUP2 MSTORE PUSH1 0x20 ADD DUP3 DUP1 SLOAD PUSH2 0xC0B SWAP1 PUSH2 0x373E JUMP JUMPDEST DUP1 ISZERO PUSH2 0xC58 JUMPI DUP1 PUSH1 0x1F LT PUSH2 0xC2D JUMPI PUSH2 0x100 DUP1 DUP4 SLOAD DIV MUL DUP4 MSTORE SWAP2 PUSH1 0x20 ADD SWAP2 PUSH2 0xC58 JUMP JUMPDEST DUP3 ADD SWAP2 SWAP1 PUSH1 0x0 MSTORE PUSH1 0x20 PUSH1 0x0 KECCAK256 SWAP1 JUMPDEST DUP2 SLOAD DUP2 MSTORE SWAP1 PUSH1 0x1 ADD SWAP1 PUSH1 0x20 ADD DUP1 DUP4 GT PUSH2 0xC3B JUMPI DUP3 SWAP1 SUB PUSH1 0x1F AND DUP3 ADD SWAP2 JUMPDEST POP POP POP SWAP2 SWAP1 SWAP3 MSTORE POP POP POP DUP2 MSTORE PUSH1 0x4 DUP3 ADD SLOAD PUSH1 0x20 SWAP1 SWAP2 ADD SWAP1 PUSH1 0xFF AND PUSH1 0x6 DUP2 GT ISZERO PUSH2 0xC83 JUMPI PUSH2 0xC83 PUSH2 0x311E JUMP JUMPDEST PUSH1 0x6 DUP2 GT ISZERO PUSH2 0xC94 JUMPI PUSH2 0xC94 PUSH2 0x311E JUMP JUMPDEST DUP2 MSTORE PUSH1 0x20 ADD PUSH1 0x4 DUP3 ADD PUSH1 0x1 SWAP1 SLOAD SWAP1 PUSH2 0x100 EXP SWAP1 DIV PUSH1 0xFF AND PUSH1 0x6 DUP2 GT ISZERO PUSH2 0xCBC JUMPI PUSH2 0xCBC PUSH2 0x311E JUMP JUMPDEST PUSH1 0x6 DUP2 GT ISZERO PUSH2 0xCCD JUMPI PUSH2 0xCCD PUSH2 0x311E JUMP JUMPDEST SWAP1 MSTORE POP SWAP1 POP PUSH1 0x2 DUP2 PUSH1 0x80 ADD MLOAD PUSH1 0x6 DUP2 GT ISZERO PUSH2 0xCEA JUMPI PUSH2 0xCEA PUSH2 0x311E JUMP JUMPDEST EQ PUSH2 0xD08 JUMPI PUSH1 0x40 MLOAD PUSH4 0x392C16FB PUSH1 0xE2 SHL DUP2 MSTORE PUSH1 0x4 ADD PUSH1 0x40 MLOAD DUP1 SWAP2 SUB SWAP1 REVERT JUMPDEST PUSH1 0x1 PUSH1 0x1 PUSH1 0xA0 SHL SUB DUP5 AND PUSH1 0x0 SWAP1 DUP2 MSTORE PUSH1 0xD PUSH1 0x20 MSTORE PUSH1 0x40 SWAP1 KECCAK256 DUP1 SLOAD DUP5 GT ISZERO PUSH2 0xD42 JUMPI PUSH1 0x40 MLOAD PUSH4 0x2F1F68E1 PUSH1 0xE1 SHL DUP2 MSTORE PUSH1 0x4 ADD PUSH1 0x40 MLOAD DUP1 SWAP2 SUB SWAP1 REVERT JUMPDEST PUSH1 0x0 DUP2 DUP6 DUP2 SLOAD DUP2 LT PUSH2 0xD56 JUMPI PUSH2 0xD56 PUSH2 0x3795 JUMP JUMPDEST PUSH1 0x0 SWAP2 DUP3 MSTORE PUSH1 0x20 SWAP1 SWAP2 KECCAK256 PUSH1 0x5 SWAP1 SWAP2 MUL ADD SWAP1 POP PUSH1 0x2 PUSH1 0x3 DUP3 ADD SLOAD PUSH1 0xFF AND PUSH1 0x6 DUP2 GT ISZERO PUSH2 0xD83 JUMPI PUSH2 0xD83 PUSH2 0x311E JUMP JUMPDEST SUB PUSH2 0xDA1 JUMPI PUSH1 0x40 MLOAD PUSH4 0x7F46ED27 PUSH1 0xE1 SHL DUP2 MSTORE PUSH1 0x4 ADD PUSH1 0x40 MLOAD DUP1 SWAP2 SUB SWAP1 REVERT JUMPDEST DUP4 PUSH1 0x1 DUP3 ADD PUSH2 0xDB0 DUP3 DUP3 PUSH2 0x37F1 JUMP JUMPDEST POP POP PUSH1 0x3 DUP2 ADD DUP1 SLOAD PUSH1 0xFF NOT AND PUSH1 0x1 OR SWAP1 SSTORE PUSH1 0x40 MLOAD PUSH32 0x8673CFB5A2CBAD812463BDFD7C85511F29C804579A86D318889AB92515539961 SWAP1 PUSH2 0xDF5 SWAP1 DUP9 SWAP1 DUP9 SWAP1 DUP9 SWAP1 PUSH2 0x38E9 JUMP JUMPDEST PUSH1 0x40 MLOAD DUP1 SWAP2 SUB SWAP1 LOG1 POP POP POP POP POP POP JUMP JUMPDEST PUSH1 0x0 PUSH2 0x955 DUP3 PUSH2 0x1C59 JUMP JUMPDEST PUSH2 0xE18 PUSH2 0x2D31 JUMP JUMPDEST PUSH2 0x955 DUP3 PUSH2 0x1CFE JUMP JUMPDEST PUSH1 0x0 CALLER PUSH1 0x1 PUSH1 0x1 PUSH1 0xA0 SHL SUB DUP5 AND EQ DUP1 PUSH2 0xE3F JUMPI POP PUSH2 0xE3F DUP4 CALLER PUSH2 0x1E6E JUMP JUMPDEST SWAP1 POP DUP1 PUSH2 0xE5F JUMPI PUSH1 0x40 MLOAD PUSH4 0x75FD2B1 PUSH1 0xE0 SHL DUP2 MSTORE PUSH1 0x4 ADD PUSH1 0x40 MLOAD DUP1 SWAP2 SUB SWAP1 REVERT JUMPDEST PUSH1 0x1 PUSH1 0x1 PUSH1 0xA0 SHL SUB DUP4 AND PUSH1 0x0 SWAP1 DUP2 MSTORE PUSH1 0xA PUSH1 0x20 MSTORE PUSH1 0x40 SWAP1 KECCAK256 PUSH1 0x2 PUSH1 0x4 DUP3 ADD SLOAD PUSH1 0xFF AND PUSH1 0x6 DUP2 GT ISZERO PUSH2 0xE92 JUMPI PUSH2 0xE92 PUSH2 0x311E JUMP JUMPDEST EQ PUSH2 0xEB0 JUMPI PUSH1 0x40 MLOAD PUSH4 0x392C16FB PUSH1 0xE2 SHL DUP2 MSTORE PUSH1 0x4 ADD PUSH1 0x40 MLOAD DUP1 SWAP2 SUB SWAP1 REVERT JUMPDEST PUSH1 0x2 PUSH1 0x4 DUP3 ADD SLOAD PUSH2 0x100 SWAP1 DIV PUSH1 0xFF AND PUSH1 0x6 DUP2 GT ISZERO PUSH2 0xED0 JUMPI PUSH2 0xED0 PUSH2 0x311E JUMP JUMPDEST SUB PUSH2 0xEEE JUMPI PUSH1 0x40 MLOAD PUSH4 0x5CA31D3 PUSH1 0xE5 SHL DUP2 MSTORE PUSH1 0x4 ADD PUSH1 0x40 MLOAD DUP1 SWAP2 SUB SWAP1 REVERT JUMPDEST PUSH2 0xEF7 DUP5 PUSH2 0x1F66 JUMP JUMPDEST PUSH1 0x0 JUMPDEST DUP4 MLOAD DUP2 LT ISZERO PUSH2 0xFD1 JUMPI PUSH1 0x1 PUSH1 0x1 PUSH1 0xA0 SHL SUB DUP6 AND PUSH1 0x0 SWAP1 DUP2 MSTORE PUSH1 0xC PUSH1 0x20 MSTORE PUSH1 0x40 SWAP1 KECCAK256 DUP5 MLOAD DUP6 SWAP1 DUP4 SWAP1 DUP2 LT PUSH2 0xF2F JUMPI PUSH2 0xF2F PUSH2 0x3795 JUMP JUMPDEST PUSH1 0x20 SWAP1 DUP2 MUL SWAP2 SWAP1 SWAP2 ADD DUP2 ADD MLOAD DUP3 SLOAD PUSH1 0x1 DUP2 DUP2 ADD DUP6 SSTORE PUSH1 0x0 SWAP5 DUP6 MSTORE SWAP4 DUP4 SWAP1 KECCAK256 DUP3 MLOAD PUSH1 0x5 SWAP1 SWAP3 MUL ADD SWAP1 DUP2 SSTORE DUP2 DUP4 ADD MLOAD DUP1 MLOAD SWAP5 DUP3 ADD SWAP5 DUP6 SSTORE SWAP3 DUP4 ADD MLOAD SWAP2 SWAP4 SWAP1 SWAP3 SWAP2 PUSH1 0x2 DUP5 ADD SWAP1 PUSH2 0xF7C SWAP1 DUP3 PUSH2 0x3982 JUMP JUMPDEST POP POP POP PUSH1 0x40 DUP3 ADD MLOAD PUSH1 0x3 DUP3 ADD DUP1 SLOAD PUSH1 0xFF NOT AND PUSH1 0x1 DUP4 PUSH1 0x6 DUP2 GT ISZERO PUSH2 0xFA2 JUMPI PUSH2 0xFA2 PUSH2 0x311E JUMP JUMPDEST MUL OR SWAP1 SSTORE POP PUSH1 0x60 DUP3 ADD MLOAD PUSH1 0x4 DUP3 ADD SWAP1 PUSH2 0xFBB SWAP1 DUP3 PUSH2 0x3982 JUMP JUMPDEST POP POP POP DUP1 DUP1 PUSH2 0xFC9 SWAP1 PUSH2 0x3A57 JUMP JUMPDEST SWAP2 POP POP PUSH2 0xEFA JUMP JUMPDEST POP DUP3 MLOAD PUSH1 0x40 DUP1 MLOAD PUSH1 0x1 PUSH1 0x1 PUSH1 0xA0 SHL SUB DUP8 AND DUP2 MSTORE PUSH1 0x20 DUP2 ADD SWAP3 SWAP1 SWAP3 MSTORE PUSH32 0x8A5603111F154F43104AFE04452C6A93024A972CB6A0AF72E6F38BCCE68625D5 SWAP2 ADD PUSH1 0x40 MLOAD DUP1 SWAP2 SUB SWAP1 LOG1 POP POP POP POP JUMP JUMPDEST DUP2 MLOAD DUP2 MLOAD PUSH1 0x60 SWAP2 SWAP1 DUP2 EQ PUSH2 0x1044 JUMPI PUSH1 0x40 MLOAD PUSH4 0x3DA4C02B PUSH1 0xE1 SHL DUP2 MSTORE PUSH1 0x4 ADD PUSH1 0x40 MLOAD DUP1 SWAP2 SUB SWAP1 REVERT JUMPDEST PUSH1 0x0 DUP2 PUSH1 0x1 PUSH1 0x1 PUSH1 0x40 SHL SUB DUP2 GT ISZERO PUSH2 0x105E JUMPI PUSH2 0x105E PUSH2 0x2E3E JUMP JUMPDEST PUSH1 0x40 MLOAD SWAP1 DUP1 DUP3 MSTORE DUP1 PUSH1 0x20 MUL PUSH1 0x20 ADD DUP3 ADD PUSH1 0x40 MSTORE DUP1 ISZERO PUSH2 0x10A3 JUMPI DUP2 PUSH1 0x20 ADD JUMPDEST PUSH1 0x40 DUP1 MLOAD DUP1 DUP3 ADD SWAP1 SWAP2 MSTORE PUSH1 0x0 DUP1 DUP3 MSTORE PUSH1 0x20 DUP3 ADD MSTORE DUP2 MSTORE PUSH1 0x20 ADD SWAP1 PUSH1 0x1 SWAP1 SUB SWAP1 DUP2 PUSH2 0x107C JUMPI SWAP1 POP JUMPDEST POP SWAP1 POP PUSH1 0x0 JUMPDEST DUP3 DUP2 LT ISZERO PUSH2 0x1112 JUMPI PUSH2 0x10ED DUP7 DUP3 DUP2 MLOAD DUP2 LT PUSH2 0x10C6 JUMPI PUSH2 0x10C6 PUSH2 0x3795 JUMP JUMPDEST PUSH1 0x20 MUL PUSH1 0x20 ADD ADD MLOAD DUP7 DUP4 DUP2 MLOAD DUP2 LT PUSH2 0x10E0 JUMPI PUSH2 0x10E0 PUSH2 0x3795 JUMP JUMPDEST PUSH1 0x20 MUL PUSH1 0x20 ADD ADD MLOAD PUSH2 0x1F9C JUMP JUMPDEST DUP3 DUP3 DUP2 MLOAD DUP2 LT PUSH2 0x10FF JUMPI PUSH2 0x10FF PUSH2 0x3795 JUMP JUMPDEST PUSH1 0x20 SWAP1 DUP2 MUL SWAP2 SWAP1 SWAP2 ADD ADD MSTORE PUSH1 0x1 ADD PUSH2 0x10A9 JUMP JUMPDEST POP SWAP5 SWAP4 POP POP POP POP JUMP JUMPDEST CALLER PUSH2 0x1125 DUP2 PUSH2 0x1FE7 JUMP JUMPDEST PUSH1 0x1 PUSH1 0x1 PUSH1 0xA0 SHL SUB DUP4 AND PUSH1 0x0 SWAP1 DUP2 MSTORE PUSH1 0xA PUSH1 0x20 MSTORE PUSH1 0x40 SWAP1 KECCAK256 PUSH1 0x2 PUSH1 0x4 DUP3 ADD SLOAD PUSH2 0x100 SWAP1 DIV PUSH1 0xFF AND PUSH1 0x6 DUP2 GT ISZERO PUSH2 0x115D JUMPI PUSH2 0x115D PUSH2 0x311E JUMP JUMPDEST SUB PUSH2 0x117B JUMPI PUSH1 0x40 MLOAD PUSH4 0x5CA31D3 PUSH1 0xE5 SHL DUP2 MSTORE PUSH1 0x4 ADD PUSH1 0x40 MLOAD DUP1 SWAP2 SUB SWAP1 REVERT JUMPDEST CALLER PUSH1 0x0 SWAP1 DUP2 MSTORE PUSH1 0xB PUSH1 0x20 MSTORE PUSH1 0x40 DUP2 KECCAK256 SLOAD PUSH1 0x6 SLOAD PUSH1 0x5 SLOAD SWAP2 SWAP3 SWAP2 PUSH1 0x64 SWAP2 PUSH2 0x11A0 SWAP2 PUSH2 0x3A70 JUMP JUMPDEST PUSH2 0x11AA SWAP2 SWAP1 PUSH2 0x3A87 JUMP JUMPDEST SWAP1 POP PUSH1 0x2 DUP6 PUSH1 0x6 DUP2 GT ISZERO PUSH2 0x11C0 JUMPI PUSH2 0x11C0 PUSH2 0x311E JUMP JUMPDEST SUB PUSH2 0x1489 JUMPI PUSH1 0x1 PUSH1 0x1 PUSH1 0xA0 SHL SUB DUP7 AND PUSH1 0x0 SWAP1 DUP2 MSTORE PUSH1 0xC PUSH1 0x20 MSTORE PUSH1 0x40 DUP2 KECCAK256 PUSH1 0x1 ADD DUP1 SLOAD DUP5 SWAP3 SWAP1 PUSH2 0x11F0 SWAP1 DUP5 SWAP1 PUSH2 0x3AA9 JUMP JUMPDEST SWAP1 SWAP2 SSTORE POP POP PUSH1 0x1 PUSH1 0x1 PUSH1 0xA0 SHL SUB DUP7 AND PUSH1 0x0 SWAP1 DUP2 MSTORE PUSH1 0xC PUSH1 0x20 MSTORE PUSH1 0x40 SWAP1 KECCAK256 PUSH1 0x1 ADD SLOAD DUP2 LT ISZERO PUSH2 0x1484 JUMPI PUSH1 0x1 PUSH1 0x1 PUSH1 0xA0 SHL SUB DUP7 AND PUSH1 0x0 SWAP1 DUP2 MSTORE PUSH1 0xA PUSH1 0x20 MSTORE PUSH1 0x40 SWAP1 KECCAK256 PUSH1 0x4 ADD DUP1 SLOAD DUP7 SWAP2 SWAP1 PUSH2 0xFF00 NOT AND PUSH2 0x100 DUP4 PUSH1 0x6 DUP2 GT ISZERO PUSH2 0x1252 JUMPI PUSH2 0x1252 PUSH2 0x311E JUMP JUMPDEST MUL OR SWAP1 SSTORE POP PUSH1 0x1 PUSH1 0x1 PUSH1 0xA0 SHL SUB DUP7 AND PUSH1 0x0 SWAP1 DUP2 MSTORE PUSH1 0xC PUSH1 0x20 SWAP1 DUP2 MSTORE PUSH1 0x40 DUP1 DUP4 KECCAK256 DUP1 SLOAD DUP3 MLOAD DUP2 DUP6 MUL DUP2 ADD DUP6 ADD SWAP1 SWAP4 MSTORE DUP1 DUP4 MSTORE PUSH2 0x1446 SWAP5 DUP12 SWAP5 DUP5 ADD JUMPDEST DUP3 DUP3 LT ISZERO PUSH2 0x143D JUMPI DUP4 DUP3 SWAP1 PUSH1 0x0 MSTORE PUSH1 0x20 PUSH1 0x0 KECCAK256 SWAP1 PUSH1 0x5 MUL ADD PUSH1 0x40 MLOAD DUP1 PUSH1 0x80 ADD PUSH1 0x40 MSTORE SWAP1 DUP2 PUSH1 0x0 DUP3 ADD SLOAD DUP2 MSTORE PUSH1 0x20 ADD PUSH1 0x1 DUP3 ADD PUSH1 0x40 MLOAD DUP1 PUSH1 0x40 ADD PUSH1 0x40 MSTORE SWAP1 DUP2 PUSH1 0x0 DUP3 ADD SLOAD DUP2 MSTORE PUSH1 0x20 ADD PUSH1 0x1 DUP3 ADD DUP1 SLOAD PUSH2 0x12E3 SWAP1 PUSH2 0x373E JUMP JUMPDEST DUP1 PUSH1 0x1F ADD PUSH1 0x20 DUP1 SWAP2 DIV MUL PUSH1 0x20 ADD PUSH1 0x40 MLOAD SWAP1 DUP2 ADD PUSH1 0x40 MSTORE DUP1 SWAP3 SWAP2 SWAP1 DUP2 DUP2 MSTORE PUSH1 0x20 ADD DUP3 DUP1 SLOAD PUSH2 0x130F SWAP1 PUSH2 0x373E JUMP JUMPDEST DUP1 ISZERO PUSH2 0x135C JUMPI DUP1 PUSH1 0x1F LT PUSH2 0x1331 JUMPI PUSH2 0x100 DUP1 DUP4 SLOAD DIV MUL DUP4 MSTORE SWAP2 PUSH1 0x20 ADD SWAP2 PUSH2 0x135C JUMP JUMPDEST DUP3 ADD SWAP2 SWAP1 PUSH1 0x0 MSTORE PUSH1 0x20 PUSH1 0x0 KECCAK256 SWAP1 JUMPDEST DUP2 SLOAD DUP2 MSTORE SWAP1 PUSH1 0x1 ADD SWAP1 PUSH1 0x20 ADD DUP1 DUP4 GT PUSH2 0x133F JUMPI DUP3 SWAP1 SUB PUSH1 0x1F AND DUP3 ADD SWAP2 JUMPDEST POP POP POP SWAP2 SWAP1 SWAP3 MSTORE POP POP POP DUP2 MSTORE PUSH1 0x3 DUP3 ADD SLOAD PUSH1 0x20 SWAP1 SWAP2 ADD SWAP1 PUSH1 0xFF AND PUSH1 0x6 DUP2 GT ISZERO PUSH2 0x1387 JUMPI PUSH2 0x1387 PUSH2 0x311E JUMP JUMPDEST PUSH1 0x6 DUP2 GT ISZERO PUSH2 0x1398 JUMPI PUSH2 0x1398 PUSH2 0x311E JUMP JUMPDEST DUP2 MSTORE PUSH1 0x20 ADD PUSH1 0x4 DUP3 ADD DUP1 SLOAD PUSH2 0x13AC SWAP1 PUSH2 0x373E JUMP JUMPDEST DUP1 PUSH1 0x1F ADD PUSH1 0x20 DUP1 SWAP2 DIV MUL PUSH1 0x20 ADD PUSH1 0x40 MLOAD SWAP1 DUP2 ADD PUSH1 0x40 MSTORE DUP1 SWAP3 SWAP2 SWAP1 DUP2 DUP2 MSTORE PUSH1 0x20 ADD DUP3 DUP1 SLOAD PUSH2 0x13D8 SWAP1 PUSH2 0x373E JUMP JUMPDEST DUP1 ISZERO PUSH2 0x1425 JUMPI DUP1 PUSH1 0x1F LT PUSH2 0x13FA JUMPI PUSH2 0x100 DUP1 DUP4 SLOAD DIV MUL DUP4 MSTORE SWAP2 PUSH1 0x20 ADD SWAP2 PUSH2 0x1425 JUMP JUMPDEST DUP3 ADD SWAP2 SWAP1 PUSH1 0x0 MSTORE PUSH1 0x20 PUSH1 0x0 KECCAK256 SWAP1 JUMPDEST DUP2 SLOAD DUP2 MSTORE SWAP1 PUSH1 0x1 ADD SWAP1 PUSH1 0x20 ADD DUP1 DUP4 GT PUSH2 0x1408 JUMPI DUP3 SWAP1 SUB PUSH1 0x1F AND DUP3 ADD SWAP2 JUMPDEST POP POP POP POP POP DUP2 MSTORE POP POP DUP2 MSTORE PUSH1 0x20 ADD SWAP1 PUSH1 0x1 ADD SWAP1 PUSH2 0x128C JUMP JUMPDEST POP POP POP POP PUSH2 0x2099 JUMP JUMPDEST PUSH1 0x40 MLOAD PUSH1 0x1 PUSH1 0x1 PUSH1 0xA0 SHL SUB DUP8 AND DUP2 MSTORE PUSH32 0x7B05D1F85B1AC2E76C0D8DBB0DFA809DF6788F66BBEEB837B2B5FAE4F64C0063 SWAP1 PUSH1 0x20 ADD JUMPDEST PUSH1 0x40 MLOAD DUP1 SWAP2 SUB SWAP1 LOG1 JUMPDEST PUSH2 0x15A7 JUMP JUMPDEST PUSH1 0x3 DUP6 PUSH1 0x6 DUP2 GT ISZERO PUSH2 0x149D JUMPI PUSH2 0x149D PUSH2 0x311E JUMP JUMPDEST SUB PUSH2 0x1576 JUMPI PUSH1 0x1 PUSH1 0x1 PUSH1 0xA0 SHL SUB DUP7 AND PUSH1 0x0 SWAP1 DUP2 MSTORE PUSH1 0xC PUSH1 0x20 MSTORE PUSH1 0x40 DUP2 KECCAK256 PUSH1 0x2 ADD DUP1 SLOAD DUP5 SWAP3 SWAP1 PUSH2 0x14CD SWAP1 DUP5 SWAP1 PUSH2 0x3AA9 JUMP JUMPDEST SWAP1 SWAP2 SSTORE POP POP PUSH1 0x1 PUSH1 0x1 PUSH1 0xA0 SHL SUB DUP7 AND PUSH1 0x0 SWAP1 DUP2 MSTORE PUSH1 0xC PUSH1 0x20 MSTORE PUSH1 0x40 SWAP1 KECCAK256 PUSH1 0x2 ADD SLOAD DUP2 LT ISZERO PUSH2 0x1484 JUMPI PUSH1 0x1 PUSH1 0x1 PUSH1 0xA0 SHL SUB DUP7 AND PUSH1 0x0 SWAP1 DUP2 MSTORE PUSH1 0xA PUSH1 0x20 MSTORE PUSH1 0x40 SWAP1 KECCAK256 PUSH1 0x4 ADD DUP1 SLOAD DUP7 SWAP2 SWAP1 PUSH2 0xFF00 NOT AND PUSH2 0x100 DUP4 PUSH1 0x6 DUP2 GT ISZERO PUSH2 0x152F JUMPI PUSH2 0x152F PUSH2 0x311E JUMP JUMPDEST MUL OR SWAP1 SSTORE POP PUSH2 0x153D DUP7 PUSH2 0x1F66 JUMP JUMPDEST PUSH1 0x40 MLOAD PUSH1 0x1 PUSH1 0x1 PUSH1 0xA0 SHL SUB DUP8 AND DUP2 MSTORE PUSH32 0x5A90817477DD8F83CFE5D429E1DC84AD5A25CB72B83291C707C6F8F5C4F2AC84 SWAP1 PUSH1 0x20 ADD PUSH2 0x147B JUMP JUMPDEST PUSH32 0x30DAE55C386C6176F3F7B7EE6AD4DF33970F2E442CB0142E978CF78FD8AE138D DUP7 DUP7 PUSH1 0x40 MLOAD PUSH2 0xDF5 SWAP3 SWAP2 SWAP1 PUSH2 0x3ABC JUMP JUMPDEST POP POP POP POP POP POP JUMP JUMPDEST CALLER PUSH2 0x15B9 DUP2 PUSH2 0x1FE7 JUMP JUMPDEST PUSH2 0x15C2 DUP3 PUSH2 0x231D JUMP JUMPDEST PUSH1 0x40 MLOAD DUP3 ISZERO ISZERO DUP2 MSTORE PUSH32 0xD94C9BC4D43C51D8DC345A016D8E3D994432FAC68E72832E4CF3A616BD8EFAE0 SWAP1 PUSH1 0x20 ADD PUSH1 0x40 MLOAD DUP1 SWAP2 SUB SWAP1 LOG1 POP POP JUMP JUMPDEST PUSH1 0xD PUSH1 0x20 MSTORE DUP2 PUSH1 0x0 MSTORE PUSH1 0x40 PUSH1 0x0 KECCAK256 DUP2 DUP2 SLOAD DUP2 LT PUSH2 0x1617 JUMPI PUSH1 0x0 DUP1 REVERT JUMPDEST SWAP1 PUSH1 0x0 MSTORE PUSH1 0x20 PUSH1 0x0 KECCAK256 SWAP1 PUSH1 0x5 MUL ADD PUSH1 0x0 SWAP2 POP SWAP2 POP POP DUP1 PUSH1 0x0 ADD SLOAD SWAP1 DUP1 PUSH1 0x1 ADD PUSH1 0x40 MLOAD DUP1 PUSH1 0x40 ADD PUSH1 0x40 MSTORE SWAP1 DUP2 PUSH1 0x0 DUP3 ADD SLOAD DUP2 MSTORE PUSH1 0x20 ADD PUSH1 0x1 DUP3 ADD DUP1 SLOAD PUSH2 0x165B SWAP1 PUSH2 0x373E JUMP JUMPDEST DUP1 PUSH1 0x1F ADD PUSH1 0x20 DUP1 SWAP2 DIV MUL PUSH1 0x20 ADD PUSH1 0x40 MLOAD SWAP1 DUP2 ADD PUSH1 0x40 MSTORE DUP1 SWAP3 SWAP2 SWAP1 DUP2 DUP2 MSTORE PUSH1 0x20 ADD DUP3 DUP1 SLOAD PUSH2 0x1687 SWAP1 PUSH2 0x373E JUMP JUMPDEST DUP1 ISZERO PUSH2 0x16D4 JUMPI DUP1 PUSH1 0x1F LT PUSH2 0x16A9 JUMPI PUSH2 0x100 DUP1 DUP4 SLOAD DIV MUL DUP4 MSTORE SWAP2 PUSH1 0x20 ADD SWAP2 PUSH2 0x16D4 JUMP JUMPDEST DUP3 ADD SWAP2 SWAP1 PUSH1 0x0 MSTORE PUSH1 0x20 PUSH1 0x0 KECCAK256 SWAP1 JUMPDEST DUP2 SLOAD DUP2 MSTORE SWAP1 PUSH1 0x1 ADD SWAP1 PUSH1 0x20 ADD DUP1 DUP4 GT PUSH2 0x16B7 JUMPI DUP3 SWAP1 SUB PUSH1 0x1F AND DUP3 ADD SWAP2 JUMPDEST POP POP POP SWAP2 SWAP1 SWAP3 MSTORE POP POP POP PUSH1 0x3 DUP3 ADD SLOAD PUSH1 0x4 DUP4 ADD DUP1 SLOAD SWAP3 SWAP4 PUSH1 0xFF SWAP1 SWAP3 AND SWAP3 PUSH2 0x16FA SWAP1 PUSH2 0x373E JUMP JUMPDEST DUP1 PUSH1 0x1F ADD PUSH1 0x20 DUP1 SWAP2 DIV MUL PUSH1 0x20 ADD PUSH1 0x40 MLOAD SWAP1 DUP2 ADD PUSH1 0x40 MSTORE DUP1 SWAP3 SWAP2 SWAP1 DUP2 DUP2 MSTORE PUSH1 0x20 ADD DUP3 DUP1 SLOAD PUSH2 0x1726 SWAP1 PUSH2 0x373E JUMP JUMPDEST DUP1 ISZERO PUSH2 0x1773 JUMPI DUP1 PUSH1 0x1F LT PUSH2 0x1748 JUMPI PUSH2 0x100 DUP1 DUP4 SLOAD DIV MUL DUP4 MSTORE SWAP2 PUSH1 0x20 ADD SWAP2 PUSH2 0x1773 JUMP JUMPDEST DUP3 ADD SWAP2 SWAP1 PUSH1 0x0 MSTORE PUSH1 0x20 PUSH1 0x0 KECCAK256 SWAP1 JUMPDEST DUP2 SLOAD DUP2 MSTORE SWAP1 PUSH1 0x1 ADD SWAP1 PUSH1 0x20 ADD DUP1 DUP4 GT PUSH2 0x1756 JUMPI DUP3 SWAP1 SUB PUSH1 0x1F AND DUP3 ADD SWAP2 JUMPDEST POP POP POP POP POP SWAP1 POP DUP5 JUMP JUMPDEST PUSH1 0x0 PUSH2 0x955 DUP3 PUSH2 0x2364 JUMP JUMPDEST PUSH1 0x0 DUP2 DUP1 PUSH1 0x20 ADD SWAP1 MLOAD DUP2 ADD SWAP1 PUSH2 0x179E SWAP2 SWAP1 PUSH2 0x3AE4 JUMP JUMPDEST SWAP1 POP PUSH2 0x17AA DUP4 DUP3 PUSH2 0x2379 JUMP JUMPDEST PUSH32 0x91EFA3D50FECCDE0D0D202F8AE5C41CA0B2BE614CEBCB2BD2F4B019396E6568A DUP4 DUP4 PUSH1 0x40 MLOAD PUSH2 0x17DB SWAP3 SWAP2 SWAP1 PUSH2 0x3C0C JUMP JUMPDEST PUSH1 0x40 MLOAD DUP1 SWAP2 SUB SWAP1 LOG1 POP POP POP JUMP JUMPDEST PUSH2 0x17F0 PUSH2 0x1878 JUMP JUMPDEST PUSH2 0x17F8 PUSH2 0x18C3 JUMP JUMPDEST PUSH2 0x1802 DUP3 DUP3 PUSH2 0x2532 JUMP JUMPDEST POP POP JUMP JUMPDEST PUSH2 0x180E PUSH2 0x1878 JUMP JUMPDEST DUP1 PUSH1 0x2 PUSH1 0x0 DUP3 DUP3 SLOAD PUSH2 0x1820 SWAP2 SWAP1 PUSH2 0x3AA9 JUMP JUMPDEST SWAP1 SWAP2 SSTORE POP PUSH2 0x182D SWAP1 POP DUP2 DUP2 JUMP JUMPDEST POP JUMP JUMPDEST PUSH1 0x1 PUSH1 0x1 PUSH1 0xA0 SHL SUB DUP3 AND PUSH1 0x0 SWAP1 DUP2 MSTORE PUSH1 0xD PUSH1 0x20 MSTORE PUSH1 0x40 DUP2 KECCAK256 DUP1 SLOAD DUP4 SWAP1 DUP2 LT PUSH2 0x185A JUMPI PUSH2 0x185A PUSH2 0x3795 JUMP JUMPDEST PUSH1 0x0 SWAP2 DUP3 MSTORE PUSH1 0x20 SWAP1 SWAP2 KECCAK256 PUSH1 0x5 SWAP1 SWAP2 MUL ADD PUSH1 0x3 ADD SLOAD PUSH1 0xFF AND SWAP4 SWAP3 POP POP POP JUMP JUMPDEST CALLER PUSH1 0x1 PUSH1 0x1 PUSH1 0xA0 SHL SUB PUSH32 0x0 AND EQ PUSH2 0x18C1 JUMPI PUSH1 0x40 MLOAD PUSH4 0x75FD2B1 PUSH1 0xE0 SHL DUP2 MSTORE PUSH1 0x4 ADD PUSH1 0x40 MLOAD DUP1 SWAP2 SUB SWAP1 REVERT JUMPDEST JUMP JUMPDEST PUSH1 0x1 SLOAD PUSH1 0x0 SUB PUSH2 0x18C1 JUMPI PUSH1 0x40 MLOAD PUSH4 0xF68FE63 PUSH1 0xE2 SHL DUP2 MSTORE PUSH1 0x4 ADD PUSH1 0x40 MLOAD DUP1 SWAP2 SUB SWAP1 REVERT JUMPDEST DUP1 PUSH2 0x18F0 DUP2 PUSH2 0x1FE7 JUMP JUMPDEST DUP4 MLOAD PUSH1 0x0 JUMPDEST DUP2 DUP2 LT ISZERO PUSH2 0x15A7 JUMPI PUSH2 0x1920 DUP7 DUP3 DUP2 MLOAD DUP2 LT PUSH2 0x1912 JUMPI PUSH2 0x1912 PUSH2 0x3795 JUMP JUMPDEST PUSH1 0x20 MUL PUSH1 0x20 ADD ADD MLOAD DUP6 PUSH2 0x2853 JUMP JUMPDEST PUSH1 0x1 ADD PUSH2 0x18F5 JUMP JUMPDEST PUSH1 0x0 PUSH2 0x1932 PUSH2 0x2BF9 JUMP JUMPDEST PUSH1 0x0 DUP1 PUSH1 0x0 DUP1 PUSH2 0x1955 PUSH1 0x40 MLOAD DUP1 PUSH1 0x40 ADD PUSH1 0x40 MSTORE DUP1 PUSH1 0x0 DUP2 MSTORE PUSH1 0x20 ADD PUSH1 0x60 DUP2 MSTORE POP SWAP1 JUMP JUMPDEST PUSH1 0x4 SLOAD PUSH1 0xFF AND ISZERO PUSH2 0x19AA JUMPI DUP8 DUP1 PUSH1 0x20 ADD SWAP1 MLOAD DUP2 ADD SWAP1 PUSH2 0x1974 SWAP2 SWAP1 PUSH2 0x3CBB JUMP JUMPDEST SWAP3 SWAP9 POP SWAP1 SWAP7 POP SWAP3 POP SWAP1 POP PUSH2 0x1988 DUP7 DUP9 PUSH2 0x1E6E JUMP JUMPDEST PUSH2 0x19A5 JUMPI PUSH1 0x40 MLOAD PUSH4 0x75FD2B1 PUSH1 0xE0 SHL DUP2 MSTORE PUSH1 0x4 ADD PUSH1 0x40 MLOAD DUP1 SWAP2 SUB SWAP1 REVERT JUMPDEST PUSH2 0x1A17 JUMP JUMPDEST DUP8 DUP1 PUSH1 0x20 ADD SWAP1 MLOAD DUP2 ADD SWAP1 PUSH2 0x19BE SWAP2 SWAP1 PUSH2 0x3CBB JUMP JUMPDEST SWAP3 SWAP8 POP SWAP1 SWAP6 POP PUSH1 0x1 PUSH1 0x1 PUSH1 0xA0 SHL SUB DUP7 AND ISZERO ISZERO SWAP5 POP SWAP3 POP SWAP1 POP DUP3 PUSH2 0x19E1 JUMPI DUP5 PUSH2 0x19E3 JUMP JUMPDEST DUP4 JUMPDEST SWAP6 POP DUP3 DUP1 ISZERO PUSH2 0x19F9 JUMPI POP PUSH2 0x19F7 DUP7 DUP9 PUSH2 0x1E6E JUMP JUMPDEST ISZERO JUMPDEST ISZERO PUSH2 0x1A17 JUMPI PUSH1 0x40 MLOAD PUSH4 0x75FD2B1 PUSH1 0xE0 SHL DUP2 MSTORE PUSH1 0x4 ADD PUSH1 0x40 MLOAD DUP1 SWAP2 SUB SWAP1 REVERT JUMPDEST PUSH1 0x4 SLOAD PUSH3 0x10000 SWAP1 DIV PUSH1 0xFF AND DUP1 ISZERO PUSH2 0x1A2D JUMPI POP DUP2 ISZERO JUMPDEST ISZERO PUSH2 0x1A4B JUMPI PUSH1 0x40 MLOAD PUSH4 0x3B167DD PUSH1 0xE0 SHL DUP2 MSTORE PUSH1 0x4 ADD PUSH1 0x40 MLOAD DUP1 SWAP2 SUB SWAP1 REVERT JUMPDEST PUSH1 0x2 PUSH1 0x1 PUSH1 0x1 PUSH1 0xA0 SHL SUB DUP8 AND PUSH1 0x0 SWAP1 DUP2 MSTORE PUSH1 0xA PUSH1 0x20 MSTORE PUSH1 0x40 SWAP1 KECCAK256 PUSH1 0x4 ADD SLOAD PUSH1 0xFF AND PUSH1 0x6 DUP2 GT ISZERO PUSH2 0x1A7D JUMPI PUSH2 0x1A7D PUSH2 0x311E JUMP JUMPDEST SUB PUSH2 0x1A9B JUMPI PUSH1 0x40 MLOAD PUSH4 0x83A81F7 PUSH1 0xE3 SHL DUP2 MSTORE PUSH1 0x4 ADD PUSH1 0x40 MLOAD DUP1 SWAP2 SUB SWAP1 REVERT JUMPDEST PUSH1 0x4 SLOAD PUSH2 0x100 SWAP1 DIV PUSH1 0xFF AND DUP1 ISZERO PUSH2 0x1ABE JUMPI POP PUSH1 0x20 DUP2 ADD MLOAD MLOAD ISZERO DUP1 PUSH2 0x1ABE JUMPI POP DUP1 MLOAD ISZERO JUMPDEST ISZERO PUSH2 0x1ADC JUMPI PUSH1 0x40 MLOAD PUSH4 0xC19E07C5 PUSH1 0xE0 SHL DUP2 MSTORE PUSH1 0x4 ADD PUSH1 0x40 MLOAD DUP1 SWAP2 SUB SWAP1 REVERT JUMPDEST PUSH1 0x40 DUP1 MLOAD PUSH1 0xC0 DUP2 ADD SWAP1 SWAP2 MSTORE PUSH1 0x4 SLOAD PUSH1 0x0 SWAP2 SWAP1 DUP2 SWAP1 PUSH1 0xFF AND PUSH2 0x1AFD JUMPI DUP6 PUSH2 0x1B00 JUMP JUMPDEST PUSH1 0x1 JUMPDEST ISZERO ISZERO DUP2 MSTORE PUSH1 0x1 PUSH1 0x1 PUSH1 0xA0 SHL SUB DUP9 AND PUSH1 0x20 DUP3 ADD MSTORE PUSH1 0x40 DUP2 ADD DUP6 SWAP1 MSTORE PUSH1 0x60 DUP2 ADD DUP5 SWAP1 MSTORE PUSH1 0x80 ADD PUSH1 0x2 DUP2 MSTORE PUSH1 0x20 ADD PUSH1 0x1 SWAP1 MSTORE PUSH1 0x1 PUSH1 0x1 PUSH1 0xA0 SHL SUB DUP9 DUP2 AND PUSH1 0x0 SWAP1 DUP2 MSTORE PUSH1 0xA PUSH1 0x20 SWAP1 DUP2 MSTORE PUSH1 0x40 SWAP2 DUP3 SWAP1 KECCAK256 DUP5 MLOAD DUP2 SLOAD DUP7 DUP5 ADD MLOAD PUSH1 0x1 PUSH1 0x1 PUSH1 0xA8 SHL SUB NOT SWAP1 SWAP2 AND SWAP2 ISZERO ISZERO PUSH2 0x100 PUSH1 0x1 PUSH1 0xA8 SHL SUB NOT AND SWAP2 SWAP1 SWAP2 OR PUSH2 0x100 SWAP2 SWAP1 SWAP6 AND MUL SWAP4 SWAP1 SWAP4 OR DUP4 SSTORE SWAP1 DUP4 ADD MLOAD PUSH1 0x1 DUP4 ADD SSTORE PUSH1 0x60 DUP4 ADD MLOAD DUP1 MLOAD PUSH1 0x2 DUP5 ADD SWAP1 DUP2 SSTORE SWAP2 DUP2 ADD MLOAD SWAP4 SWAP5 POP DUP5 SWAP4 SWAP1 SWAP2 SWAP1 PUSH1 0x3 DUP5 ADD SWAP1 PUSH2 0x1BB2 SWAP1 DUP3 PUSH2 0x3982 JUMP JUMPDEST POP POP POP PUSH1 0x80 DUP3 ADD MLOAD PUSH1 0x4 DUP3 ADD DUP1 SLOAD PUSH1 0xFF NOT AND PUSH1 0x1 DUP4 PUSH1 0x6 DUP2 GT ISZERO PUSH2 0x1BD8 JUMPI PUSH2 0x1BD8 PUSH2 0x311E JUMP JUMPDEST MUL OR SWAP1 SSTORE POP PUSH1 0xA0 DUP3 ADD MLOAD PUSH1 0x4 DUP3 ADD DUP1 SLOAD PUSH2 0xFF00 NOT AND PUSH2 0x100 DUP4 PUSH1 0x6 DUP2 GT ISZERO PUSH2 0x1C02 JUMPI PUSH2 0x1C02 PUSH2 0x311E JUMP JUMPDEST MUL OR SWAP1 SSTORE POP SWAP1 POP POP DUP7 PUSH1 0x1 PUSH1 0x1 PUSH1 0xA0 SHL SUB AND PUSH32 0xA197306E3DD5494A61A695381AA809A53B8E377A685E84E404A85D5A8DA6CC62 DUP11 DUP11 PUSH1 0x40 MLOAD PUSH2 0x1C45 SWAP3 SWAP2 SWAP1 PUSH2 0x3D28 JUMP JUMPDEST PUSH1 0x40 MLOAD DUP1 SWAP2 SUB SWAP1 LOG2 POP POP POP POP POP POP SWAP3 SWAP2 POP POP JUMP JUMPDEST PUSH1 0x1 SLOAD PUSH1 0x40 MLOAD PUSH4 0x29E40D4B PUSH1 0xE0 SHL DUP2 MSTORE PUSH1 0x0 SWAP2 PUSH1 0x1 PUSH1 0x1 PUSH1 0xA0 SHL SUB PUSH32 0x0 AND SWAP2 PUSH4 0x29E40D4B SWAP2 PUSH2 0x1CBD SWAP2 DUP7 SWAP1 PUSH1 0x4 ADD SWAP2 DUP3 MSTORE PUSH1 0x1 PUSH1 0x1 PUSH1 0xA0 SHL SUB AND PUSH1 0x20 DUP3 ADD MSTORE PUSH1 0x40 ADD SWAP1 JUMP JUMPDEST PUSH1 0x20 PUSH1 0x40 MLOAD DUP1 DUP4 SUB DUP2 DUP7 GAS STATICCALL ISZERO DUP1 ISZERO PUSH2 0x1CDA JUMPI RETURNDATASIZE PUSH1 0x0 DUP1 RETURNDATACOPY RETURNDATASIZE PUSH1 0x0 REVERT JUMPDEST POP POP POP POP PUSH1 0x40 MLOAD RETURNDATASIZE PUSH1 0x1F NOT PUSH1 0x1F DUP3 ADD AND DUP3 ADD DUP1 PUSH1 0x40 MSTORE POP DUP2 ADD SWAP1 PUSH2 0x955 SWAP2 SWAP1 PUSH2 0x3778 JUMP JUMPDEST PUSH2 0x1D06 PUSH2 0x2D31 JUMP JUMPDEST PUSH1 0x1 PUSH1 0x1 PUSH1 0xA0 SHL SUB DUP1 DUP4 AND PUSH1 0x0 SWAP1 DUP2 MSTORE PUSH1 0xA PUSH1 0x20 SWAP1 DUP2 MSTORE PUSH1 0x40 SWAP2 DUP3 SWAP1 KECCAK256 DUP3 MLOAD PUSH1 0xC0 DUP2 ADD DUP5 MSTORE DUP2 SLOAD PUSH1 0xFF DUP2 AND ISZERO ISZERO DUP3 MSTORE PUSH2 0x100 SWAP1 DIV SWAP1 SWAP5 AND DUP5 DUP4 ADD MSTORE PUSH1 0x1 DUP2 ADD SLOAD DUP5 DUP5 ADD MSTORE DUP3 MLOAD DUP1 DUP5 ADD SWAP1 SWAP4 MSTORE PUSH1 0x2 DUP2 ADD DUP1 SLOAD DUP5 MSTORE PUSH1 0x3 DUP3 ADD DUP1 SLOAD SWAP3 SWAP5 PUSH1 0x60 DUP8 ADD SWAP5 SWAP1 SWAP4 SWAP1 DUP5 ADD SWAP2 SWAP1 PUSH2 0x1D77 SWAP1 PUSH2 0x373E JUMP JUMPDEST DUP1 PUSH1 0x1F ADD PUSH1 0x20 DUP1 SWAP2 DIV MUL PUSH1 0x20 ADD PUSH1 0x40 MLOAD SWAP1 DUP2 ADD PUSH1 0x40 MSTORE DUP1 SWAP3 SWAP2 SWAP1 DUP2 DUP2 MSTORE PUSH1 0x20 ADD DUP3 DUP1 SLOAD PUSH2 0x1DA3 SWAP1 PUSH2 0x373E JUMP JUMPDEST DUP1 ISZERO PUSH2 0x1DF0 JUMPI DUP1 PUSH1 0x1F LT PUSH2 0x1DC5 JUMPI PUSH2 0x100 DUP1 DUP4 SLOAD DIV MUL DUP4 MSTORE SWAP2 PUSH1 0x20 ADD SWAP2 PUSH2 0x1DF0 JUMP JUMPDEST DUP3 ADD SWAP2 SWAP1 PUSH1 0x0 MSTORE PUSH1 0x20 PUSH1 0x0 KECCAK256 SWAP1 JUMPDEST DUP2 SLOAD DUP2 MSTORE SWAP1 PUSH1 0x1 ADD SWAP1 PUSH1 0x20 ADD DUP1 DUP4 GT PUSH2 0x1DD3 JUMPI DUP3 SWAP1 SUB PUSH1 0x1F AND DUP3 ADD SWAP2 JUMPDEST POP POP POP SWAP2 SWAP1 SWAP3 MSTORE POP POP POP DUP2 MSTORE PUSH1 0x4 DUP3 ADD SLOAD PUSH1 0x20 SWAP1 SWAP2 ADD SWAP1 PUSH1 0xFF AND PUSH1 0x6 DUP2 GT ISZERO PUSH2 0x1E1B JUMPI PUSH2 0x1E1B PUSH2 0x311E JUMP JUMPDEST PUSH1 0x6 DUP2 GT ISZERO PUSH2 0x1E2C JUMPI PUSH2 0x1E2C PUSH2 0x311E JUMP JUMPDEST DUP2 MSTORE PUSH1 0x20 ADD PUSH1 0x4 DUP3 ADD PUSH1 0x1 SWAP1 SLOAD SWAP1 PUSH2 0x100 EXP SWAP1 DIV PUSH1 0xFF AND PUSH1 0x6 DUP2 GT ISZERO PUSH2 0x1E54 JUMPI PUSH2 0x1E54 PUSH2 0x311E JUMP JUMPDEST PUSH1 0x6 DUP2 GT ISZERO PUSH2 0x1E65 JUMPI PUSH2 0x1E65 PUSH2 0x311E JUMP JUMPDEST SWAP1 MSTORE POP SWAP3 SWAP2 POP POP JUMP JUMPDEST PUSH1 0x7 SLOAD PUSH1 0x40 MLOAD PUSH4 0xDD93DA43 PUSH1 0xE0 SHL DUP2 MSTORE PUSH1 0x1 PUSH1 0x1 PUSH1 0xA0 SHL SUB DUP5 DUP2 AND PUSH1 0x4 DUP4 ADD MSTORE PUSH1 0x0 SWAP3 DUP4 SWAP3 SWAP2 AND SWAP1 PUSH4 0xDD93DA43 SWAP1 PUSH1 0x24 ADD PUSH1 0x0 PUSH1 0x40 MLOAD DUP1 DUP4 SUB DUP2 DUP7 GAS STATICCALL ISZERO DUP1 ISZERO PUSH2 0x1EBC JUMPI RETURNDATASIZE PUSH1 0x0 DUP1 RETURNDATACOPY RETURNDATASIZE PUSH1 0x0 REVERT JUMPDEST POP POP POP POP PUSH1 0x40 MLOAD RETURNDATASIZE PUSH1 0x0 DUP3 RETURNDATACOPY PUSH1 0x1F RETURNDATASIZE SWAP1 DUP2 ADD PUSH1 0x1F NOT AND DUP3 ADD PUSH1 0x40 MSTORE PUSH2 0x1EE4 SWAP2 SWAP1 DUP2 ADD SWAP1 PUSH2 0x3D52 JUMP JUMPDEST PUSH1 0x7 SLOAD DUP2 MLOAD PUSH1 0x40 MLOAD PUSH4 0x5E8A7915 PUSH1 0xE0 SHL DUP2 MSTORE PUSH1 0x4 DUP2 ADD SWAP2 SWAP1 SWAP2 MSTORE PUSH1 0x1 PUSH1 0x1 PUSH1 0xA0 SHL SUB DUP7 DUP2 AND PUSH1 0x24 DUP4 ADD MSTORE SWAP3 SWAP4 POP SWAP2 AND SWAP1 PUSH4 0x5E8A7915 SWAP1 PUSH1 0x44 ADD PUSH1 0x20 PUSH1 0x40 MLOAD DUP1 DUP4 SUB DUP2 DUP7 GAS STATICCALL ISZERO DUP1 ISZERO PUSH2 0x1F3A JUMPI RETURNDATASIZE PUSH1 0x0 DUP1 RETURNDATACOPY RETURNDATASIZE PUSH1 0x0 REVERT JUMPDEST POP POP POP POP PUSH1 0x40 MLOAD RETURNDATASIZE PUSH1 0x1F NOT PUSH1 0x1F DUP3 ADD AND DUP3 ADD DUP1 PUSH1 0x40 MSTORE POP DUP2 ADD SWAP1 PUSH2 0x1F5E SWAP2 SWAP1 PUSH2 0x3778 JUMP JUMPDEST SWAP5 SWAP4 POP POP POP POP JUMP JUMPDEST PUSH1 0x1 PUSH1 0x1 PUSH1 0xA0 SHL SUB DUP2 AND PUSH1 0x0 SWAP1 DUP2 MSTORE PUSH1 0xC PUSH1 0x20 MSTORE PUSH1 0x40 DUP2 KECCAK256 SWAP1 PUSH2 0x1F89 DUP3 DUP3 PUSH2 0x2D8C JUMP JUMPDEST POP PUSH1 0x0 PUSH1 0x1 DUP3 ADD DUP2 SWAP1 SSTORE PUSH1 0x2 SWAP1 SWAP2 ADD SSTORE POP JUMP JUMPDEST PUSH1 0x40 DUP1 MLOAD DUP1 DUP3 ADD SWAP1 SWAP2 MSTORE PUSH1 0x0 DUP1 DUP3 MSTORE PUSH1 0x20 DUP3 ADD MSTORE PUSH1 0x0 PUSH2 0x1FBB DUP5 PUSH2 0x1CFE JUMP JUMPDEST PUSH1 0x40 DUP1 MLOAD DUP1 DUP3 ADD DUP3 MSTORE PUSH1 0x20 DUP1 DUP5 ADD MLOAD PUSH1 0x1 PUSH1 0x1 PUSH1 0xA0 SHL SUB AND DUP3 MSTORE SWAP2 SWAP1 SWAP3 ADD MLOAD SWAP1 DUP3 ADD MSTORE SWAP2 POP POP SWAP3 SWAP2 POP POP JUMP JUMPDEST PUSH1 0x1 SLOAD PUSH1 0x40 MLOAD PUSH4 0x29E40D4B PUSH1 0xE0 SHL DUP2 MSTORE PUSH1 0x4 DUP2 ADD SWAP2 SWAP1 SWAP2 MSTORE PUSH1 0x1 PUSH1 0x1 PUSH1 0xA0 SHL SUB DUP3 DUP2 AND PUSH1 0x24 DUP4 ADD MSTORE PUSH32 0x0 AND SWAP1 PUSH4 0x29E40D4B SWAP1 PUSH1 0x44 ADD PUSH1 0x20 PUSH1 0x40 MLOAD DUP1 DUP4 SUB DUP2 DUP7 GAS STATICCALL ISZERO DUP1 ISZERO PUSH2 0x2058 JUMPI RETURNDATASIZE PUSH1 0x0 DUP1 RETURNDATACOPY RETURNDATASIZE PUSH1 0x0 REVERT JUMPDEST POP POP POP POP PUSH1 0x40 MLOAD RETURNDATASIZE PUSH1 0x1F NOT PUSH1 0x1F DUP3 ADD AND DUP3 ADD DUP1 PUSH1 0x40 MSTORE POP DUP2 ADD SWAP1 PUSH2 0x207C SWAP2 SWAP1 PUSH2 0x3778 JUMP JUMPDEST PUSH2 0x182D JUMPI PUSH1 0x40 MLOAD PUSH4 0x75FD2B1 PUSH1 0xE0 SHL DUP2 MSTORE PUSH1 0x4 ADD PUSH1 0x40 MLOAD DUP1 SWAP2 SUB SWAP1 REVERT JUMPDEST PUSH1 0x1 PUSH1 0x1 PUSH1 0xA0 SHL SUB DUP3 AND PUSH1 0x0 SWAP1 DUP2 MSTORE PUSH1 0xD PUSH1 0x20 MSTORE PUSH1 0x40 DUP2 KECCAK256 SLOAD ISZERO PUSH2 0x20D8 JUMPI PUSH1 0x1 PUSH1 0x1 PUSH1 0xA0 SHL SUB DUP4 AND PUSH1 0x0 SWAP1 DUP2 MSTORE PUSH1 0xD PUSH1 0x20 MSTORE PUSH1 0x40 DUP2 KECCAK256 PUSH2 0x20D8 SWAP2 PUSH2 0x2D8C JUMP JUMPDEST DUP2 MLOAD PUSH1 0x0 JUMPDEST DUP2 DUP2 LT ISZERO PUSH2 0x21FE JUMPI PUSH1 0x0 DUP5 DUP3 DUP2 MLOAD DUP2 LT PUSH2 0x20F9 JUMPI PUSH2 0x20F9 PUSH2 0x3795 JUMP JUMPDEST PUSH1 0x20 MUL PUSH1 0x20 ADD ADD MLOAD SWAP1 POP PUSH1 0x0 PUSH1 0x6 DUP2 GT ISZERO PUSH2 0x2116 JUMPI PUSH2 0x2116 PUSH2 0x311E JUMP JUMPDEST DUP2 PUSH1 0x40 ADD MLOAD PUSH1 0x6 DUP2 GT ISZERO PUSH2 0x212C JUMPI PUSH2 0x212C PUSH2 0x311E JUMP JUMPDEST EQ PUSH2 0x214A JUMPI PUSH1 0x40 MLOAD PUSH4 0x2F1F68E1 PUSH1 0xE1 SHL DUP2 MSTORE PUSH1 0x4 ADD PUSH1 0x40 MLOAD DUP1 SWAP2 SUB SWAP1 REVERT JUMPDEST DUP1 MLOAD PUSH2 0x2156 SWAP1 DUP6 PUSH2 0x3AA9 JUMP JUMPDEST PUSH1 0x1 PUSH1 0x1 PUSH1 0xA0 SHL SUB DUP8 AND PUSH1 0x0 SWAP1 DUP2 MSTORE PUSH1 0xD PUSH1 0x20 SWAP1 DUP2 MSTORE PUSH1 0x40 DUP3 KECCAK256 DUP1 SLOAD PUSH1 0x1 DUP2 DUP2 ADD DUP4 SSTORE SWAP2 DUP5 MSTORE SWAP3 DUP3 SWAP1 KECCAK256 DUP6 MLOAD PUSH1 0x5 SWAP1 SWAP5 MUL ADD SWAP3 DUP4 SSTORE DUP5 DUP3 ADD MLOAD DUP1 MLOAD SWAP2 DUP5 ADD SWAP2 DUP3 SSTORE SWAP2 DUP3 ADD MLOAD SWAP4 SWAP8 POP DUP5 SWAP4 PUSH1 0x2 DUP5 ADD SWAP1 PUSH2 0x21AF SWAP1 DUP3 PUSH2 0x3982 JUMP JUMPDEST POP POP POP PUSH1 0x40 DUP3 ADD MLOAD PUSH1 0x3 DUP3 ADD DUP1 SLOAD PUSH1 0xFF NOT AND PUSH1 0x1 DUP4 PUSH1 0x6 DUP2 GT ISZERO PUSH2 0x21D5 JUMPI PUSH2 0x21D5 PUSH2 0x311E JUMP JUMPDEST MUL OR SWAP1 SSTORE POP PUSH1 0x60 DUP3 ADD MLOAD PUSH1 0x4 DUP3 ADD SWAP1 PUSH2 0x21EE SWAP1 DUP3 PUSH2 0x3982 JUMP JUMPDEST POP POP PUSH1 0x1 SWAP1 SWAP3 ADD SWAP2 POP PUSH2 0x20DD SWAP1 POP JUMP JUMPDEST POP DUP2 PUSH8 0xDE0B6B3A7640000 EQ PUSH2 0x2227 JUMPI PUSH1 0x40 MLOAD PUSH4 0x2F1F68E1 PUSH1 0xE1 SHL DUP2 MSTORE PUSH1 0x4 ADD PUSH1 0x40 MLOAD DUP1 SWAP2 SUB SWAP1 REVERT JUMPDEST PUSH1 0x0 DUP5 PUSH1 0x2 PUSH1 0x5 SLOAD PUSH1 0x40 MLOAD PUSH1 0x20 ADD PUSH2 0x2241 SWAP4 SWAP3 SWAP2 SWAP1 PUSH2 0x3E18 JUMP JUMPDEST PUSH1 0x40 DUP1 MLOAD PUSH1 0x1F NOT DUP2 DUP5 SUB ADD DUP2 MSTORE SWAP1 DUP3 SWAP1 MSTORE PUSH1 0x1 SLOAD PUSH4 0x5D87031 PUSH1 0xE3 SHL DUP4 MSTORE SWAP1 SWAP3 POP PUSH1 0x1 PUSH1 0x1 PUSH1 0xA0 SHL SUB PUSH32 0x0 AND SWAP2 PUSH4 0x2EC38188 SWAP2 PUSH2 0x22A1 SWAP2 DUP6 SWAP1 PUSH1 0x4 ADD PUSH2 0x3C0C JUMP JUMPDEST PUSH1 0x0 PUSH1 0x40 MLOAD DUP1 DUP4 SUB DUP2 PUSH1 0x0 DUP8 DUP1 EXTCODESIZE ISZERO DUP1 ISZERO PUSH2 0x22BB JUMPI PUSH1 0x0 DUP1 REVERT JUMPDEST POP GAS CALL ISZERO DUP1 ISZERO PUSH2 0x22CF JUMPI RETURNDATASIZE PUSH1 0x0 DUP1 RETURNDATACOPY RETURNDATASIZE PUSH1 0x0 REVERT JUMPDEST POP POP PUSH1 0x40 DUP1 MLOAD PUSH1 0x1 PUSH1 0x1 PUSH1 0xA0 SHL SUB DUP10 AND DUP2 MSTORE PUSH1 0x20 DUP2 ADD DUP7 SWAP1 MSTORE PUSH32 0xB000FB1507AAC2465CCB4F6BD1B601C7053279005E9E9932C41946B35C84949B SWAP4 POP ADD SWAP1 POP PUSH1 0x40 MLOAD DUP1 SWAP2 SUB SWAP1 LOG1 POP POP POP POP POP JUMP JUMPDEST PUSH1 0x0 DUP1 SLOAD PUSH1 0xFF NOT AND DUP3 ISZERO ISZERO SWAP1 DUP2 OR SWAP1 SWAP2 SSTORE PUSH1 0x40 MLOAD SWAP1 DUP2 MSTORE PUSH32 0xD94C9BC4D43C51D8DC345A016D8E3D994432FAC68E72832E4CF3A616BD8EFAE0 SWAP1 PUSH1 0x20 ADD PUSH1 0x40 MLOAD DUP1 SWAP2 SUB SWAP1 LOG1 POP JUMP JUMPDEST PUSH1 0x0 PUSH2 0x236F DUP3 PUSH2 0x1CFE JUMP JUMPDEST PUSH1 0x80 ADD MLOAD SWAP3 SWAP2 POP POP JUMP JUMPDEST PUSH2 0x2382 DUP3 PUSH2 0x2C1C JUMP JUMPDEST DUP1 MLOAD PUSH1 0x4 DUP1 SLOAD PUSH1 0x20 DUP5 ADD MLOAD PUSH1 0x40 DUP6 ADD MLOAD ISZERO ISZERO PUSH3 0x10000 MUL PUSH3 0xFF0000 NOT SWAP2 ISZERO ISZERO PUSH2 0x100 MUL PUSH2 0xFF00 NOT SWAP6 ISZERO ISZERO SWAP6 SWAP1 SWAP6 AND PUSH2 0xFFFF NOT SWAP1 SWAP4 AND SWAP3 SWAP1 SWAP3 OR SWAP4 SWAP1 SWAP4 OR SWAP3 SWAP1 SWAP3 AND SWAP2 SWAP1 SWAP2 OR SWAP1 SSTORE PUSH1 0x60 DUP2 ADD MLOAD PUSH1 0x0 JUMPDEST DUP2 MLOAD DUP2 LT ISZERO PUSH2 0x2485 JUMPI DUP2 DUP2 DUP2 MLOAD DUP2 LT PUSH2 0x23EC JUMPI PUSH2 0x23EC PUSH2 0x3795 JUMP JUMPDEST PUSH1 0x20 MUL PUSH1 0x20 ADD ADD MLOAD PUSH1 0x20 ADD MLOAD PUSH1 0xB PUSH1 0x0 DUP5 DUP5 DUP2 MLOAD DUP2 LT PUSH2 0x240E JUMPI PUSH2 0x240E PUSH2 0x3795 JUMP JUMPDEST PUSH1 0x20 MUL PUSH1 0x20 ADD ADD MLOAD PUSH1 0x0 ADD MLOAD PUSH1 0x1 PUSH1 0x1 PUSH1 0xA0 SHL SUB AND PUSH1 0x1 PUSH1 0x1 PUSH1 0xA0 SHL SUB AND DUP2 MSTORE PUSH1 0x20 ADD SWAP1 DUP2 MSTORE PUSH1 0x20 ADD PUSH1 0x0 KECCAK256 DUP2 SWAP1 SSTORE POP DUP2 DUP2 DUP2 MLOAD DUP2 LT PUSH2 0x2450 JUMPI PUSH2 0x2450 PUSH2 0x3795 JUMP JUMPDEST PUSH1 0x20 MUL PUSH1 0x20 ADD ADD MLOAD PUSH1 0x20 ADD MLOAD PUSH1 0x5 PUSH1 0x0 DUP3 DUP3 SLOAD PUSH2 0x246D SWAP2 SWAP1 PUSH2 0x3AA9 JUMP JUMPDEST SWAP1 SWAP2 SSTORE POP DUP2 SWAP1 POP PUSH2 0x247D DUP2 PUSH2 0x3A57 JUMP JUMPDEST SWAP2 POP POP PUSH2 0x23D1 JUMP JUMPDEST POP PUSH32 0x0 PUSH1 0x1 PUSH1 0x1 PUSH1 0xA0 SHL SUB AND PUSH4 0x5AB1BD53 PUSH1 0x40 MLOAD DUP2 PUSH4 0xFFFFFFFF AND PUSH1 0xE0 SHL DUP2 MSTORE PUSH1 0x4 ADD PUSH1 0x20 PUSH1 0x40 MLOAD DUP1 DUP4 SUB DUP2 DUP7 GAS STATICCALL ISZERO DUP1 ISZERO PUSH2 0x24E4 JUMPI RETURNDATASIZE PUSH1 0x0 DUP1 RETURNDATACOPY RETURNDATASIZE PUSH1 0x0 REVERT JUMPDEST POP POP POP POP PUSH1 0x40 MLOAD RETURNDATASIZE PUSH1 0x1F NOT PUSH1 0x1F DUP3 ADD AND DUP3 ADD DUP1 PUSH1 0x40 MSTORE POP DUP2 ADD SWAP1 PUSH2 0x2508 SWAP2 SWAP1 PUSH2 0x3E43 JUMP JUMPDEST PUSH1 0x7 DUP1 SLOAD PUSH1 0x1 PUSH1 0x1 PUSH1 0xA0 SHL SUB NOT AND PUSH1 0x1 PUSH1 0x1 PUSH1 0xA0 SHL SUB SWAP3 SWAP1 SWAP3 AND SWAP2 SWAP1 SWAP2 OR SWAP1 SSTORE PUSH2 0x63E PUSH1 0x1 PUSH2 0x231D JUMP JUMPDEST PUSH2 0x253A PUSH2 0x2C6B JUMP JUMPDEST PUSH1 0x1 PUSH1 0x1 PUSH1 0xA0 SHL SUB DUP2 AND ADDRESS EQ PUSH2 0x2581 JUMPI PUSH1 0x40 MLOAD PUSH3 0x461BCD PUSH1 0xE5 SHL DUP2 MSTORE PUSH1 0x20 PUSH1 0x4 DUP3 ADD MSTORE PUSH1 0xC PUSH1 0x24 DUP3 ADD MSTORE PUSH12 0x15539055551213D492569151 PUSH1 0xA2 SHL PUSH1 0x44 DUP3 ADD MSTORE PUSH1 0x64 ADD PUSH2 0x8E1 JUMP JUMPDEST PUSH1 0x0 DUP1 PUSH1 0x0 DUP5 DUP1 PUSH1 0x20 ADD SWAP1 MLOAD DUP2 ADD SWAP1 PUSH2 0x259A SWAP2 SWAP1 PUSH2 0x3E60 JUMP JUMPDEST PUSH1 0x1 PUSH1 0x1 PUSH1 0xA0 SHL SUB DUP4 AND PUSH1 0x0 SWAP1 DUP2 MSTORE PUSH1 0xA PUSH1 0x20 SWAP1 DUP2 MSTORE PUSH1 0x40 DUP1 DUP4 KECCAK256 PUSH1 0xE SWAP1 SWAP3 MSTORE SWAP1 SWAP2 KECCAK256 SLOAD SWAP4 SWAP7 POP SWAP2 SWAP5 POP SWAP3 POP SWAP1 ISZERO PUSH2 0x25E5 JUMPI PUSH1 0x40 MLOAD PUSH4 0x5CA31D3 PUSH1 0xE5 SHL DUP2 MSTORE PUSH1 0x4 ADD PUSH1 0x40 MLOAD DUP1 SWAP2 SUB SWAP1 REVERT JUMPDEST PUSH1 0x2 PUSH1 0x4 DUP3 ADD SLOAD PUSH1 0xFF AND PUSH1 0x6 DUP2 GT ISZERO PUSH2 0x2600 JUMPI PUSH2 0x2600 PUSH2 0x311E JUMP JUMPDEST EQ ISZERO DUP1 ISZERO PUSH2 0x261F JUMPI POP PUSH1 0x2 DUP4 PUSH1 0x6 DUP2 GT ISZERO PUSH2 0x261D JUMPI PUSH2 0x261D PUSH2 0x311E JUMP JUMPDEST EQ JUMPDEST ISZERO PUSH2 0x27BA JUMPI PUSH1 0x1 SLOAD PUSH1 0x40 MLOAD PUSH4 0x68BCD8D PUSH1 0xE0 SHL DUP2 MSTORE PUSH1 0x0 SWAP2 PUSH1 0x1 PUSH1 0x1 PUSH1 0xA0 SHL SUB PUSH32 0x0 AND SWAP2 PUSH4 0x68BCD8D SWAP2 PUSH2 0x2678 SWAP2 PUSH1 0x4 ADD SWAP1 DUP2 MSTORE PUSH1 0x20 ADD SWAP1 JUMP JUMPDEST PUSH1 0x0 PUSH1 0x40 MLOAD DUP1 DUP4 SUB DUP2 DUP7 GAS STATICCALL ISZERO DUP1 ISZERO PUSH2 0x2695 JUMPI RETURNDATASIZE PUSH1 0x0 DUP1 RETURNDATACOPY RETURNDATASIZE PUSH1 0x0 REVERT JUMPDEST POP POP POP POP PUSH1 0x40 MLOAD RETURNDATASIZE PUSH1 0x0 DUP3 RETURNDATACOPY PUSH1 0x1F RETURNDATASIZE SWAP1 DUP2 ADD PUSH1 0x1F NOT AND DUP3 ADD PUSH1 0x40 MSTORE PUSH2 0x26BD SWAP2 SWAP1 DUP2 ADD SWAP1 PUSH2 0x3EA3 JUMP JUMPDEST SWAP1 POP DUP3 PUSH1 0x8 PUSH1 0x0 DUP3 DUP3 SLOAD PUSH2 0x26D1 SWAP2 SWAP1 PUSH2 0x3AA9 JUMP JUMPDEST SWAP1 SWAP2 SSTORE POP POP PUSH1 0x2 SLOAD PUSH1 0x8 SLOAD GT ISZERO PUSH2 0x26FB JUMPI PUSH1 0x40 MLOAD PUSH4 0x8E81B16F PUSH1 0xE0 SHL DUP2 MSTORE PUSH1 0x4 ADD PUSH1 0x40 MLOAD DUP1 SWAP2 SUB SWAP1 REVERT JUMPDEST PUSH1 0x1 DUP3 ADD DUP4 SWAP1 SSTORE PUSH1 0x4 DUP3 ADD DUP1 SLOAD PUSH1 0xFF NOT AND PUSH1 0x2 SWAP1 DUP2 OR SWAP1 SWAP2 SSTORE PUSH1 0x40 MLOAD PUSH32 0x94593B52AA436DD31A63E313045C2EB23D43EB2D6F5B4D7797B4432E7B277490 SWAP2 PUSH2 0x2745 SWAP2 DUP9 SWAP2 SWAP1 PUSH2 0x3ABC JUMP JUMPDEST PUSH1 0x40 MLOAD DUP1 SWAP2 SUB SWAP1 LOG1 DUP5 PUSH1 0x1 PUSH1 0x1 PUSH1 0xA0 SHL SUB AND PUSH32 0x463FFC2CF8B1596445C417388ED30E53EB67CF6668CB2BE7F0ADDF8A78C8441B DUP4 PUSH1 0x1 ADD SLOAD DUP4 PUSH1 0x40 ADD MLOAD DUP10 PUSH1 0x40 MLOAD PUSH2 0x27AC SWAP4 SWAP3 SWAP2 SWAP1 SWAP3 DUP4 MSTORE PUSH1 0x1 PUSH1 0x1 PUSH1 0xA0 SHL SUB SWAP2 DUP3 AND PUSH1 0x20 DUP5 ADD MSTORE AND PUSH1 0x40 DUP3 ADD MSTORE PUSH1 0x60 ADD SWAP1 JUMP JUMPDEST PUSH1 0x40 MLOAD DUP1 SWAP2 SUB SWAP1 LOG2 POP PUSH2 0x2845 JUMP JUMPDEST PUSH1 0x3 PUSH1 0x4 DUP3 ADD SLOAD PUSH1 0xFF AND PUSH1 0x6 DUP2 GT ISZERO PUSH2 0x27D5 JUMPI PUSH2 0x27D5 PUSH2 0x311E JUMP JUMPDEST EQ ISZERO DUP1 ISZERO PUSH2 0x27F4 JUMPI POP PUSH1 0x3 DUP4 PUSH1 0x6 DUP2 GT ISZERO PUSH2 0x27F2 JUMPI PUSH2 0x27F2 PUSH2 0x311E JUMP JUMPDEST EQ JUMPDEST ISZERO PUSH2 0x2845 JUMPI PUSH1 0x4 DUP2 ADD DUP1 SLOAD PUSH1 0xFF NOT AND PUSH1 0x3 SWAP1 DUP2 OR SWAP1 SWAP2 SSTORE PUSH1 0x40 MLOAD PUSH32 0x94593B52AA436DD31A63E313045C2EB23D43EB2D6F5B4D7797B4432E7B277490 SWAP2 PUSH2 0x283C SWAP2 DUP8 SWAP2 SWAP1 PUSH2 0x3ABC JUMP JUMPDEST PUSH1 0x40 MLOAD DUP1 SWAP2 SUB SWAP1 LOG1 JUMPDEST POP POP POP POP PUSH2 0x1802 PUSH1 0x1 PUSH1 0x3 SSTORE JUMP JUMPDEST PUSH1 0x1 PUSH1 0x1 PUSH1 0xA0 SHL SUB DUP1 DUP4 AND PUSH1 0x0 SWAP1 DUP2 MSTORE PUSH1 0xE PUSH1 0x20 SWAP1 DUP2 MSTORE PUSH1 0x40 DUP1 DUP4 KECCAK256 SLOAD PUSH1 0xD DUP4 MSTORE DUP2 DUP5 KECCAK256 PUSH1 0xA DUP5 MSTORE DUP3 DUP6 KECCAK256 DUP4 MLOAD PUSH1 0xC0 DUP2 ADD DUP6 MSTORE DUP2 SLOAD PUSH1 0xFF DUP2 AND ISZERO ISZERO DUP3 MSTORE PUSH2 0x100 SWAP1 DIV SWAP1 SWAP8 AND DUP8 DUP7 ADD MSTORE PUSH1 0x1 DUP2 ADD SLOAD DUP8 DUP6 ADD MSTORE DUP4 MLOAD DUP1 DUP6 ADD SWAP1 SWAP5 MSTORE PUSH1 0x2 DUP2 ADD DUP1 SLOAD DUP6 MSTORE PUSH1 0x3 DUP3 ADD DUP1 SLOAD SWAP5 SWAP9 SWAP4 SWAP8 SWAP7 SWAP4 SWAP6 SWAP3 SWAP5 PUSH1 0x60 DUP8 ADD SWAP5 DUP5 ADD SWAP2 SWAP1 PUSH2 0x28D6 SWAP1 PUSH2 0x373E JUMP JUMPDEST DUP1 PUSH1 0x1F ADD PUSH1 0x20 DUP1 SWAP2 DIV MUL PUSH1 0x20 ADD PUSH1 0x40 MLOAD SWAP1 DUP2 ADD PUSH1 0x40 MSTORE DUP1 SWAP3 SWAP2 SWAP1 DUP2 DUP2 MSTORE PUSH1 0x20 ADD DUP3 DUP1 SLOAD PUSH2 0x2902 SWAP1 PUSH2 0x373E JUMP JUMPDEST DUP1 ISZERO PUSH2 0x294F JUMPI DUP1 PUSH1 0x1F LT PUSH2 0x2924 JUMPI PUSH2 0x100 DUP1 DUP4 SLOAD DIV MUL DUP4 MSTORE SWAP2 PUSH1 0x20 ADD SWAP2 PUSH2 0x294F JUMP JUMPDEST DUP3 ADD SWAP2 SWAP1 PUSH1 0x0 MSTORE PUSH1 0x20 PUSH1 0x0 KECCAK256 SWAP1 JUMPDEST DUP2 SLOAD DUP2 MSTORE SWAP1 PUSH1 0x1 ADD SWAP1 PUSH1 0x20 ADD DUP1 DUP4 GT PUSH2 0x2932 JUMPI DUP3 SWAP1 SUB PUSH1 0x1F AND DUP3 ADD SWAP2 JUMPDEST POP POP POP SWAP2 SWAP1 SWAP3 MSTORE POP POP POP DUP2 MSTORE PUSH1 0x4 DUP3 ADD SLOAD PUSH1 0x20 SWAP1 SWAP2 ADD SWAP1 PUSH1 0xFF AND PUSH1 0x6 DUP2 GT ISZERO PUSH2 0x297A JUMPI PUSH2 0x297A PUSH2 0x311E JUMP JUMPDEST PUSH1 0x6 DUP2 GT ISZERO PUSH2 0x298B JUMPI PUSH2 0x298B PUSH2 0x311E JUMP JUMPDEST DUP2 MSTORE PUSH1 0x20 ADD PUSH1 0x4 DUP3 ADD PUSH1 0x1 SWAP1 SLOAD SWAP1 PUSH2 0x100 EXP SWAP1 DIV PUSH1 0xFF AND PUSH1 0x6 DUP2 GT ISZERO PUSH2 0x29B3 JUMPI PUSH2 0x29B3 PUSH2 0x311E JUMP JUMPDEST PUSH1 0x6 DUP2 GT ISZERO PUSH2 0x29C4 JUMPI PUSH2 0x29C4 PUSH2 0x311E JUMP JUMPDEST DUP2 MSTORE POP POP SWAP1 POP PUSH1 0x0 DUP3 DUP5 DUP2 SLOAD DUP2 LT PUSH2 0x29DE JUMPI PUSH2 0x29DE PUSH2 0x3795 JUMP JUMPDEST SWAP1 PUSH1 0x0 MSTORE PUSH1 0x20 PUSH1 0x0 KECCAK256 SWAP1 PUSH1 0x5 MUL ADD SWAP1 POP DUP3 DUP1 SLOAD SWAP1 POP DUP5 GT DUP1 PUSH2 0x2A19 JUMPI POP PUSH1 0x1 PUSH1 0x3 DUP3 ADD SLOAD PUSH1 0xFF AND PUSH1 0x6 DUP2 GT ISZERO PUSH2 0x2A16 JUMPI PUSH2 0x2A16 PUSH2 0x311E JUMP JUMPDEST EQ ISZERO JUMPDEST ISZERO PUSH2 0x2A37 JUMPI PUSH1 0x40 MLOAD PUSH4 0x2F1F68E1 PUSH1 0xE1 SHL DUP2 MSTORE PUSH1 0x4 ADD PUSH1 0x40 MLOAD DUP1 SWAP2 SUB SWAP1 REVERT JUMPDEST PUSH1 0x0 PUSH8 0xDE0B6B3A7640000 DUP3 PUSH1 0x0 ADD SLOAD DUP5 PUSH1 0x40 ADD MLOAD PUSH2 0x2A56 SWAP2 SWAP1 PUSH2 0x3A70 JUMP JUMPDEST PUSH2 0x2A60 SWAP2 SWAP1 PUSH2 0x3A87 JUMP JUMPDEST SWAP1 POP PUSH1 0x0 PUSH32 0x0 PUSH1 0x1 PUSH1 0x1 PUSH1 0xA0 SHL SUB AND PUSH4 0x68BCD8D PUSH1 0x1 SLOAD PUSH1 0x40 MLOAD DUP3 PUSH4 0xFFFFFFFF AND PUSH1 0xE0 SHL DUP2 MSTORE PUSH1 0x4 ADD PUSH2 0x2AB4 SWAP2 DUP2 MSTORE PUSH1 0x20 ADD SWAP1 JUMP JUMPDEST PUSH1 0x0 PUSH1 0x40 MLOAD DUP1 DUP4 SUB DUP2 DUP7 GAS STATICCALL ISZERO DUP1 ISZERO PUSH2 0x2AD1 JUMPI RETURNDATASIZE PUSH1 0x0 DUP1 RETURNDATACOPY RETURNDATASIZE PUSH1 0x0 REVERT JUMPDEST POP POP POP POP PUSH1 0x40 MLOAD RETURNDATASIZE PUSH1 0x0 DUP3 RETURNDATACOPY PUSH1 0x1F RETURNDATASIZE SWAP1 DUP2 ADD PUSH1 0x1F NOT AND DUP3 ADD PUSH1 0x40 MSTORE PUSH2 0x2AF9 SWAP2 SWAP1 DUP2 ADD SWAP1 PUSH2 0x3EA3 JUMP JUMPDEST SWAP1 POP DUP2 PUSH1 0x2 PUSH1 0x0 DUP3 DUP3 SLOAD PUSH2 0x2B0D SWAP2 SWAP1 PUSH2 0x3F56 JUMP JUMPDEST SWAP3 POP POP DUP2 SWAP1 SSTORE POP PUSH2 0x2B27 DUP2 PUSH1 0x40 ADD MLOAD DUP6 PUSH1 0x20 ADD MLOAD DUP5 PUSH2 0x2C95 JUMP JUMPDEST PUSH1 0x3 DUP4 ADD DUP1 SLOAD PUSH1 0xFF NOT AND PUSH1 0x2 OR SWAP1 SSTORE PUSH1 0x1 PUSH1 0x1 PUSH1 0xA0 SHL SUB DUP9 AND PUSH1 0x0 SWAP1 DUP2 MSTORE PUSH1 0xE PUSH1 0x20 MSTORE PUSH1 0x40 DUP2 KECCAK256 DUP1 SLOAD SWAP2 PUSH2 0x2B5A DUP4 PUSH2 0x3A57 JUMP JUMPDEST SWAP2 SWAP1 POP SSTORE POP PUSH32 0xF1AF82B65C631A030029B10EA8F00F68290285C7C797644155B8F23969CA1D63 DUP9 DUP8 PUSH1 0x2 PUSH1 0x40 MLOAD PUSH2 0x2B93 SWAP4 SWAP3 SWAP2 SWAP1 PUSH2 0x3F69 JUMP JUMPDEST PUSH1 0x40 MLOAD DUP1 SWAP2 SUB SWAP1 LOG1 PUSH1 0x20 DUP1 DUP6 ADD MLOAD PUSH1 0x40 DUP1 MLOAD PUSH1 0x1 PUSH1 0x1 PUSH1 0xA0 SHL SUB SWAP3 DUP4 AND DUP2 MSTORE SWAP3 DUP4 ADD DUP6 SWAP1 MSTORE DUP10 DUP3 AND SWAP1 DUP4 ADD MSTORE DUP10 AND SWAP1 PUSH32 0xB5B51454ADFA840BD593658325A60A50B0216F12EB5D2937EFE6CEA935675B7D SWAP1 PUSH1 0x60 ADD PUSH1 0x40 MLOAD DUP1 SWAP2 SUB SWAP1 LOG2 POP POP POP POP POP POP POP POP JUMP JUMPDEST PUSH1 0x0 SLOAD PUSH1 0xFF AND PUSH2 0x18C1 JUMPI PUSH1 0x40 MLOAD PUSH4 0xCFE7975B PUSH1 0xE0 SHL DUP2 MSTORE PUSH1 0x4 ADD PUSH1 0x40 MLOAD DUP1 SWAP2 SUB SWAP1 REVERT JUMPDEST PUSH2 0x2C24 PUSH2 0x1878 JUMP JUMPDEST PUSH1 0x1 SLOAD ISZERO PUSH2 0x2C45 JUMPI PUSH1 0x40 MLOAD PUSH4 0x439A74C9 PUSH1 0xE0 SHL DUP2 MSTORE PUSH1 0x4 ADD PUSH1 0x40 MLOAD DUP1 SWAP2 SUB SWAP1 REVERT JUMPDEST DUP1 PUSH1 0x0 SUB PUSH2 0x2C66 JUMPI PUSH1 0x40 MLOAD PUSH4 0x7FCCE2A9 PUSH1 0xE0 SHL DUP2 MSTORE PUSH1 0x4 ADD PUSH1 0x40 MLOAD DUP1 SWAP2 SUB SWAP1 REVERT JUMPDEST PUSH1 0x1 SSTORE JUMP JUMPDEST PUSH1 0x2 PUSH1 0x3 SLOAD SUB PUSH2 0x2C8E JUMPI PUSH1 0x40 MLOAD PUSH4 0x3EE5AEB5 PUSH1 0xE0 SHL DUP2 MSTORE PUSH1 0x4 ADD PUSH1 0x40 MLOAD DUP1 SWAP2 SUB SWAP1 REVERT JUMPDEST PUSH1 0x2 PUSH1 0x3 SSTORE JUMP JUMPDEST PUSH20 0xEEEEEEEEEEEEEEEEEEEEEEEEEEEEEEEEEEEEEEED NOT PUSH1 0x1 PUSH1 0x1 PUSH1 0xA0 SHL SUB DUP5 AND ADD PUSH2 0x2CC4 JUMPI PUSH2 0x63E DUP3 DUP3 PUSH2 0x2CCF JUMP JUMPDEST PUSH2 0x63E DUP4 DUP4 DUP4 PUSH2 0x2CEB JUMP JUMPDEST PUSH1 0x0 CODESIZE PUSH1 0x0 CODESIZE DUP5 DUP7 GAS CALL PUSH2 0x1802 JUMPI PUSH4 0xB12D13EB PUSH1 0x0 MSTORE PUSH1 0x4 PUSH1 0x1C REVERT JUMPDEST DUP2 PUSH1 0x14 MSTORE DUP1 PUSH1 0x34 MSTORE PUSH4 0xA9059CBB PUSH1 0x60 SHL PUSH1 0x0 MSTORE PUSH1 0x20 PUSH1 0x0 PUSH1 0x44 PUSH1 0x10 PUSH1 0x0 DUP8 GAS CALL RETURNDATASIZE ISZERO PUSH1 0x1 PUSH1 0x0 MLOAD EQ OR AND PUSH2 0x2D27 JUMPI PUSH4 0x90B8EC18 PUSH1 0x0 MSTORE PUSH1 0x4 PUSH1 0x1C REVERT JUMPDEST PUSH1 0x0 PUSH1 0x34 MSTORE POP POP POP JUMP JUMPDEST PUSH1 0x40 MLOAD DUP1 PUSH1 0xC0 ADD PUSH1 0x40 MSTORE DUP1 PUSH1 0x0 ISZERO ISZERO DUP2 MSTORE PUSH1 0x20 ADD PUSH1 0x0 PUSH1 0x1 PUSH1 0x1 PUSH1 0xA0 SHL SUB AND DUP2 MSTORE PUSH1 0x20 ADD PUSH1 0x0 DUP2 MSTORE PUSH1 0x20 ADD PUSH2 0x2D79 PUSH1 0x40 MLOAD DUP1 PUSH1 0x40 ADD PUSH1 0x40 MSTORE DUP1 PUSH1 0x0 DUP2 MSTORE PUSH1 0x20 ADD PUSH1 0x60 DUP2 MSTORE POP SWAP1 JUMP JUMPDEST DUP2 MSTORE PUSH1 0x20 ADD PUSH1 0x0 DUP2 MSTORE PUSH1 0x20 ADD PUSH1 0x0 SWAP1 MSTORE SWAP1 JUMP JUMPDEST POP DUP1 SLOAD PUSH1 0x0 DUP3 SSTORE PUSH1 0x5 MUL SWAP1 PUSH1 0x0 MSTORE PUSH1 0x20 PUSH1 0x0 KECCAK256 SWAP1 DUP2 ADD SWAP1 PUSH2 0x182D SWAP2 SWAP1 JUMPDEST DUP1 DUP3 GT ISZERO PUSH2 0x2DF0 JUMPI PUSH1 0x0 DUP1 DUP3 SSTORE PUSH1 0x1 DUP3 ADD DUP2 DUP2 SSTORE DUP2 PUSH2 0x2DCB PUSH1 0x2 DUP6 ADD DUP3 PUSH2 0x2DF4 JUMP JUMPDEST POP POP PUSH1 0x3 DUP3 ADD DUP1 SLOAD PUSH1 0xFF NOT AND SWAP1 SSTORE PUSH2 0x2DE7 PUSH1 0x4 DUP4 ADD PUSH1 0x0 PUSH2 0x2DF4 JUMP JUMPDEST POP PUSH1 0x5 ADD PUSH2 0x2DA9 JUMP JUMPDEST POP SWAP1 JUMP JUMPDEST POP DUP1 SLOAD PUSH2 0x2E00 SWAP1 PUSH2 0x373E JUMP JUMPDEST PUSH1 0x0 DUP3 SSTORE DUP1 PUSH1 0x1F LT PUSH2 0x2E10 JUMPI POP POP JUMP JUMPDEST PUSH1 0x1F ADD PUSH1 0x20 SWAP1 DIV SWAP1 PUSH1 0x0 MSTORE PUSH1 0x20 PUSH1 0x0 KECCAK256 SWAP1 DUP2 ADD SWAP1 PUSH2 0x182D SWAP2 SWAP1 JUMPDEST DUP1 DUP3 GT ISZERO PUSH2 0x2DF0 JUMPI PUSH1 0x0 DUP2 SSTORE PUSH1 0x1 ADD PUSH2 0x2E2A JUMP JUMPDEST PUSH4 0x4E487B71 PUSH1 0xE0 SHL PUSH1 0x0 MSTORE PUSH1 0x41 PUSH1 0x4 MSTORE PUSH1 0x24 PUSH1 0x0 REVERT JUMPDEST PUSH1 0x40 MLOAD PUSH1 0x80 DUP2 ADD PUSH1 0x1 PUSH1 0x1 PUSH1 0x40 SHL SUB DUP2 GT DUP3 DUP3 LT OR ISZERO PUSH2 0x2E76 JUMPI PUSH2 0x2E76 PUSH2 0x2E3E JUMP JUMPDEST PUSH1 0x40 MSTORE SWAP1 JUMP JUMPDEST PUSH1 0x40 DUP1 MLOAD SWAP1 DUP2 ADD PUSH1 0x1 PUSH1 0x1 PUSH1 0x40 SHL SUB DUP2 GT DUP3 DUP3 LT OR ISZERO PUSH2 0x2E76 JUMPI PUSH2 0x2E76 PUSH2 0x2E3E JUMP JUMPDEST PUSH1 0x40 MLOAD PUSH1 0xC0 DUP2 ADD PUSH1 0x1 PUSH1 0x1 PUSH1 0x40 SHL SUB DUP2 GT DUP3 DUP3 LT OR ISZERO PUSH2 0x2E76 JUMPI PUSH2 0x2E76 PUSH2 0x2E3E JUMP JUMPDEST PUSH1 0x40 MLOAD PUSH1 0x1F DUP3 ADD PUSH1 0x1F NOT AND DUP2 ADD PUSH1 0x1 PUSH1 0x1 PUSH1 0x40 SHL SUB DUP2 GT DUP3 DUP3 LT OR ISZERO PUSH2 0x2EE8 JUMPI PUSH2 0x2EE8 PUSH2 0x2E3E JUMP JUMPDEST PUSH1 0x40 MSTORE SWAP2 SWAP1 POP JUMP JUMPDEST PUSH1 0x0 PUSH1 0x1 PUSH1 0x1 PUSH1 0x40 SHL SUB DUP3 GT ISZERO PUSH2 0x2F09 JUMPI PUSH2 0x2F09 PUSH2 0x2E3E JUMP JUMPDEST POP PUSH1 0x5 SHL PUSH1 0x20 ADD SWAP1 JUMP JUMPDEST PUSH1 0x1 PUSH1 0x1 PUSH1 0xA0 SHL SUB DUP2 AND DUP2 EQ PUSH2 0x182D JUMPI PUSH1 0x0 DUP1 REVERT JUMPDEST PUSH1 0x0 DUP3 PUSH1 0x1F DUP4 ADD SLT PUSH2 0x2F39 JUMPI PUSH1 0x0 DUP1 REVERT JUMPDEST DUP2 CALLDATALOAD PUSH1 0x20 PUSH2 0x2F4E PUSH2 0x2F49 DUP4 PUSH2 0x2EF0 JUMP JUMPDEST PUSH2 0x2EC0 JUMP JUMPDEST DUP3 DUP2 MSTORE PUSH1 0x5 SWAP3 SWAP1 SWAP3 SHL DUP5 ADD DUP2 ADD SWAP2 DUP2 DUP2 ADD SWAP1 DUP7 DUP5 GT ISZERO PUSH2 0x2F6D JUMPI PUSH1 0x0 DUP1 REVERT JUMPDEST DUP3 DUP7 ADD JUMPDEST DUP5 DUP2 LT ISZERO PUSH2 0x2F91 JUMPI DUP1 CALLDATALOAD PUSH2 0x2F84 DUP2 PUSH2 0x2F13 JUMP JUMPDEST DUP4 MSTORE SWAP2 DUP4 ADD SWAP2 DUP4 ADD PUSH2 0x2F71 JUMP JUMPDEST POP SWAP7 SWAP6 POP POP POP POP POP POP JUMP JUMPDEST PUSH1 0x0 PUSH1 0x1 PUSH1 0x1 PUSH1 0x40 SHL SUB DUP3 GT ISZERO PUSH2 0x2FB5 JUMPI PUSH2 0x2FB5 PUSH2 0x2E3E JUMP JUMPDEST POP PUSH1 0x1F ADD PUSH1 0x1F NOT AND PUSH1 0x20 ADD SWAP1 JUMP JUMPDEST PUSH1 0x0 DUP3 PUSH1 0x1F DUP4 ADD SLT PUSH2 0x2FD4 JUMPI PUSH1 0x0 DUP1 REVERT JUMPDEST DUP2 CALLDATALOAD PUSH2 0x2FE2 PUSH2 0x2F49 DUP3 PUSH2 0x2F9C JUMP JUMPDEST DUP2 DUP2 MSTORE DUP5 PUSH1 0x20 DUP4 DUP7 ADD ADD GT ISZERO PUSH2 0x2FF7 JUMPI PUSH1 0x0 DUP1 REVERT JUMPDEST DUP2 PUSH1 0x20 DUP6 ADD PUSH1 0x20 DUP4 ADD CALLDATACOPY PUSH1 0x0 SWAP2 DUP2 ADD PUSH1 0x20 ADD SWAP2 SWAP1 SWAP2 MSTORE SWAP4 SWAP3 POP POP POP JUMP JUMPDEST PUSH1 0x0 DUP1 PUSH1 0x0 PUSH1 0x60 DUP5 DUP7 SUB SLT ISZERO PUSH2 0x3029 JUMPI PUSH1 0x0 DUP1 REVERT JUMPDEST DUP4 CALLDATALOAD PUSH1 0x1 PUSH1 0x1 PUSH1 0x40 SHL SUB DUP1 DUP3 GT ISZERO PUSH2 0x3040 JUMPI PUSH1 0x0 DUP1 REVERT JUMPDEST PUSH2 0x304C DUP8 DUP4 DUP9 ADD PUSH2 0x2F28 JUMP JUMPDEST SWAP5 POP PUSH1 0x20 DUP7 ADD CALLDATALOAD SWAP2 POP DUP1 DUP3 GT ISZERO PUSH2 0x3062 JUMPI PUSH1 0x0 DUP1 REVERT JUMPDEST POP PUSH2 0x306F DUP7 DUP3 DUP8 ADD PUSH2 0x2FC3 JUMP JUMPDEST SWAP3 POP POP PUSH1 0x40 DUP5 ADD CALLDATALOAD PUSH2 0x3080 DUP2 PUSH2 0x2F13 JUMP JUMPDEST DUP1 SWAP2 POP POP SWAP3 POP SWAP3 POP SWAP3 JUMP JUMPDEST PUSH1 0x0 PUSH1 0x20 DUP3 DUP5 SUB SLT ISZERO PUSH2 0x309D JUMPI PUSH1 0x0 DUP1 REVERT JUMPDEST DUP2 CALLDATALOAD PUSH2 0x30A8 DUP2 PUSH2 0x2F13 JUMP JUMPDEST SWAP4 SWAP3 POP POP POP JUMP JUMPDEST PUSH1 0x0 JUMPDEST DUP4 DUP2 LT ISZERO PUSH2 0x30CA JUMPI DUP2 DUP2 ADD MLOAD DUP4 DUP3 ADD MSTORE PUSH1 0x20 ADD PUSH2 0x30B2 JUMP JUMPDEST POP POP PUSH1 0x0 SWAP2 ADD MSTORE JUMP JUMPDEST PUSH1 0x0 DUP2 MLOAD DUP1 DUP5 MSTORE PUSH2 0x30EB DUP2 PUSH1 0x20 DUP7 ADD PUSH1 0x20 DUP7 ADD PUSH2 0x30AF JUMP JUMPDEST PUSH1 0x1F ADD PUSH1 0x1F NOT AND SWAP3 SWAP1 SWAP3 ADD PUSH1 0x20 ADD SWAP3 SWAP2 POP POP JUMP JUMPDEST DUP1 MLOAD DUP3 MSTORE PUSH1 0x0 PUSH1 0x20 DUP3 ADD MLOAD PUSH1 0x40 PUSH1 0x20 DUP6 ADD MSTORE PUSH2 0x1F5E PUSH1 0x40 DUP6 ADD DUP3 PUSH2 0x30D3 JUMP JUMPDEST PUSH4 0x4E487B71 PUSH1 0xE0 SHL PUSH1 0x0 MSTORE PUSH1 0x21 PUSH1 0x4 MSTORE PUSH1 0x24 PUSH1 0x0 REVERT JUMPDEST PUSH1 0x7 DUP2 LT PUSH2 0x3152 JUMPI PUSH4 0x4E487B71 PUSH1 0xE0 SHL PUSH1 0x0 MSTORE PUSH1 0x21 PUSH1 0x4 MSTORE PUSH1 0x24 PUSH1 0x0 REVERT JUMPDEST SWAP1 MSTORE JUMP JUMPDEST PUSH1 0x0 PUSH1 0x20 DUP1 DUP4 ADD DUP2 DUP5 MSTORE DUP1 DUP6 MLOAD DUP1 DUP4 MSTORE PUSH1 0x40 SWAP3 POP DUP3 DUP7 ADD SWAP2 POP DUP3 DUP2 PUSH1 0x5 SHL DUP8 ADD ADD DUP5 DUP9 ADD PUSH1 0x0 JUMPDEST DUP4 DUP2 LT ISZERO PUSH2 0x31ED JUMPI PUSH1 0x3F NOT DUP10 DUP5 SUB ADD DUP6 MSTORE DUP2 MLOAD PUSH1 0x80 DUP2 MLOAD DUP6 MSTORE DUP9 DUP3 ADD MLOAD DUP2 DUP11 DUP8 ADD MSTORE PUSH2 0x31AB DUP3 DUP8 ADD DUP3 PUSH2 0x30FF JUMP JUMPDEST SWAP2 POP POP DUP8 DUP3 ADD MLOAD PUSH2 0x31BE DUP10 DUP8 ADD DUP3 PUSH2 0x3134 JUMP JUMPDEST POP PUSH1 0x60 DUP1 DUP4 ADD MLOAD SWAP3 POP DUP6 DUP3 SUB DUP2 DUP8 ADD MSTORE POP PUSH2 0x31D9 DUP2 DUP4 PUSH2 0x30D3 JUMP JUMPDEST SWAP7 DUP10 ADD SWAP7 SWAP5 POP POP POP SWAP1 DUP7 ADD SWAP1 PUSH1 0x1 ADD PUSH2 0x317D JUMP JUMPDEST POP SWAP1 SWAP9 SWAP8 POP POP POP POP POP POP POP POP JUMP JUMPDEST PUSH1 0x0 DUP1 PUSH1 0x40 DUP4 DUP6 SUB SLT ISZERO PUSH2 0x320E JUMPI PUSH1 0x0 DUP1 REVERT JUMPDEST POP POP DUP1 CALLDATALOAD SWAP3 PUSH1 0x20 SWAP1 SWAP2 ADD CALLDATALOAD SWAP2 POP JUMP JUMPDEST PUSH1 0x0 DUP1 PUSH1 0x40 DUP4 DUP6 SUB SLT ISZERO PUSH2 0x3230 JUMPI PUSH1 0x0 DUP1 REVERT JUMPDEST DUP3 CALLDATALOAD PUSH1 0x1 PUSH1 0x1 PUSH1 0x40 SHL SUB DUP2 GT ISZERO PUSH2 0x3246 JUMPI PUSH1 0x0 DUP1 REVERT JUMPDEST PUSH2 0x3252 DUP6 DUP3 DUP7 ADD PUSH2 0x2FC3 JUMP JUMPDEST SWAP3 POP POP PUSH1 0x20 DUP4 ADD CALLDATALOAD PUSH2 0x3263 DUP2 PUSH2 0x2F13 JUMP JUMPDEST DUP1 SWAP2 POP POP SWAP3 POP SWAP3 SWAP1 POP JUMP JUMPDEST PUSH1 0x0 DUP1 PUSH1 0x0 PUSH1 0x60 DUP5 DUP7 SUB SLT ISZERO PUSH2 0x3283 JUMPI PUSH1 0x0 DUP1 REVERT JUMPDEST DUP4 CALLDATALOAD PUSH2 0x328E DUP2 PUSH2 0x2F13 JUMP JUMPDEST SWAP3 POP PUSH1 0x20 DUP5 ADD CALLDATALOAD SWAP2 POP PUSH1 0x40 DUP5 ADD CALLDATALOAD PUSH1 0x1 PUSH1 0x1 PUSH1 0x40 SHL SUB DUP2 GT ISZERO PUSH2 0x32B0 JUMPI PUSH1 0x0 DUP1 REVERT JUMPDEST DUP5 ADD PUSH1 0x40 DUP2 DUP8 SUB SLT ISZERO PUSH2 0x3080 JUMPI PUSH1 0x0 DUP1 REVERT JUMPDEST PUSH1 0x20 DUP2 MSTORE DUP2 MLOAD ISZERO ISZERO PUSH1 0x20 DUP3 ADD MSTORE PUSH1 0x1 DUP1 PUSH1 0xA0 SHL SUB PUSH1 0x20 DUP4 ADD MLOAD AND PUSH1 0x40 DUP3 ADD MSTORE PUSH1 0x40 DUP3 ADD MLOAD PUSH1 0x60 DUP3 ADD MSTORE PUSH1 0x0 PUSH1 0x60 DUP4 ADD MLOAD PUSH1 0xC0 PUSH1 0x80 DUP5 ADD MSTORE PUSH2 0x3306 PUSH1 0xE0 DUP5 ADD DUP3 PUSH2 0x30FF JUMP JUMPDEST SWAP1 POP PUSH1 0x80 DUP5 ADD MLOAD PUSH2 0x331A PUSH1 0xA0 DUP6 ADD DUP3 PUSH2 0x3134 JUMP JUMPDEST POP PUSH1 0xA0 DUP5 ADD MLOAD PUSH2 0x332D PUSH1 0xC0 DUP6 ADD DUP3 PUSH2 0x3134 JUMP JUMPDEST POP SWAP4 SWAP3 POP POP POP JUMP JUMPDEST PUSH1 0x7 DUP2 LT PUSH2 0x182D JUMPI PUSH1 0x0 DUP1 REVERT JUMPDEST DUP1 CALLDATALOAD PUSH2 0x334D DUP2 PUSH2 0x3335 JUMP JUMPDEST SWAP2 SWAP1 POP JUMP JUMPDEST PUSH1 0x0 DUP1 PUSH1 0x40 DUP4 DUP6 SUB SLT ISZERO PUSH2 0x3365 JUMPI PUSH1 0x0 DUP1 REVERT JUMPDEST PUSH2 0x336F DUP4 CALLDATALOAD PUSH2 0x2F13 JUMP JUMPDEST DUP3 CALLDATALOAD SWAP2 POP PUSH1 0x1 PUSH1 0x1 PUSH1 0x40 SHL SUB DUP1 PUSH1 0x20 DUP6 ADD CALLDATALOAD GT ISZERO PUSH2 0x338C JUMPI PUSH1 0x0 DUP1 REVERT JUMPDEST PUSH1 0x20 DUP5 ADD CALLDATALOAD DUP5 ADD DUP6 PUSH1 0x1F DUP3 ADD SLT PUSH2 0x33A2 JUMPI PUSH1 0x0 DUP1 REVERT JUMPDEST PUSH2 0x33AF PUSH2 0x2F49 DUP3 CALLDATALOAD PUSH2 0x2EF0 JUMP JUMPDEST DUP2 CALLDATALOAD DUP1 DUP3 MSTORE PUSH1 0x20 DUP1 DUP4 ADD SWAP3 SWAP2 PUSH1 0x5 SHL DUP5 ADD ADD DUP9 LT ISZERO PUSH2 0x33CD JUMPI PUSH1 0x0 DUP1 REVERT JUMPDEST PUSH1 0x20 DUP4 ADD JUMPDEST PUSH1 0x20 DUP5 CALLDATALOAD PUSH1 0x5 SHL DUP6 ADD ADD DUP2 LT ISZERO PUSH2 0x34CE JUMPI DUP5 DUP2 CALLDATALOAD GT ISZERO PUSH2 0x33F1 JUMPI PUSH1 0x0 DUP1 REVERT JUMPDEST DUP1 CALLDATALOAD DUP5 ADD PUSH1 0x1F NOT PUSH1 0x80 DUP3 DUP13 SUB DUP3 ADD SLT ISZERO PUSH2 0x340A JUMPI PUSH1 0x0 DUP1 REVERT JUMPDEST PUSH2 0x3412 PUSH2 0x2E54 JUMP JUMPDEST PUSH1 0x20 DUP4 ADD CALLDATALOAD DUP2 MSTORE DUP8 PUSH1 0x40 DUP5 ADD CALLDATALOAD GT ISZERO PUSH2 0x342A JUMPI PUSH1 0x0 DUP1 REVERT JUMPDEST PUSH1 0x40 DUP4 ADD CALLDATALOAD DUP4 ADD PUSH1 0x40 DUP4 DUP3 DUP16 SUB ADD SLT ISZERO PUSH2 0x3443 JUMPI PUSH1 0x0 DUP1 REVERT JUMPDEST PUSH2 0x344B PUSH2 0x2E7C JUMP JUMPDEST SWAP3 POP PUSH1 0x20 DUP2 ADD CALLDATALOAD DUP4 MSTORE DUP9 PUSH1 0x40 DUP3 ADD CALLDATALOAD GT ISZERO PUSH2 0x3465 JUMPI PUSH1 0x0 DUP1 REVERT JUMPDEST PUSH2 0x3478 DUP14 PUSH1 0x20 PUSH1 0x40 DUP5 ADD CALLDATALOAD DUP5 ADD ADD PUSH2 0x2FC3 JUMP JUMPDEST PUSH1 0x20 DUP5 ADD MSTORE POP DUP2 PUSH1 0x20 DUP3 ADD MSTORE PUSH2 0x3490 PUSH1 0x60 DUP5 ADD PUSH2 0x3342 JUMP JUMPDEST PUSH1 0x40 DUP3 ADD MSTORE DUP8 PUSH1 0x80 DUP5 ADD CALLDATALOAD GT ISZERO PUSH2 0x34A6 JUMPI PUSH1 0x0 DUP1 REVERT JUMPDEST PUSH2 0x34B9 DUP13 PUSH1 0x20 PUSH1 0x80 DUP7 ADD CALLDATALOAD DUP7 ADD ADD PUSH2 0x2FC3 JUMP JUMPDEST PUSH1 0x60 DUP3 ADD MSTORE DUP6 MSTORE POP POP PUSH1 0x20 SWAP3 DUP4 ADD SWAP3 ADD PUSH2 0x33D2 JUMP JUMPDEST POP DUP1 SWAP5 POP POP POP POP POP SWAP3 POP SWAP3 SWAP1 POP JUMP JUMPDEST PUSH1 0x0 DUP1 PUSH1 0x40 DUP4 DUP6 SUB SLT ISZERO PUSH2 0x34F0 JUMPI PUSH1 0x0 DUP1 REVERT JUMPDEST DUP3 CALLDATALOAD PUSH1 0x1 PUSH1 0x1 PUSH1 0x40 SHL SUB DUP1 DUP3 GT ISZERO PUSH2 0x3507 JUMPI PUSH1 0x0 DUP1 REVERT JUMPDEST PUSH2 0x3513 DUP7 DUP4 DUP8 ADD PUSH2 0x2F28 JUMP JUMPDEST SWAP4 POP PUSH1 0x20 SWAP2 POP DUP2 DUP6 ADD CALLDATALOAD DUP2 DUP2 GT ISZERO PUSH2 0x352A JUMPI PUSH1 0x0 DUP1 REVERT JUMPDEST DUP6 ADD PUSH1 0x1F DUP2 ADD DUP8 SGT PUSH2 0x353B JUMPI PUSH1 0x0 DUP1 REVERT JUMPDEST DUP1 CALLDATALOAD PUSH2 0x3549 PUSH2 0x2F49 DUP3 PUSH2 0x2EF0 JUMP JUMPDEST DUP2 DUP2 MSTORE PUSH1 0x5 SWAP2 SWAP1 SWAP2 SHL DUP3 ADD DUP5 ADD SWAP1 DUP5 DUP2 ADD SWAP1 DUP10 DUP4 GT ISZERO PUSH2 0x3568 JUMPI PUSH1 0x0 DUP1 REVERT JUMPDEST DUP6 DUP5 ADD JUMPDEST DUP4 DUP2 LT ISZERO PUSH2 0x35A0 JUMPI DUP1 CALLDATALOAD DUP7 DUP2 GT ISZERO PUSH2 0x3584 JUMPI PUSH1 0x0 DUP1 DUP2 REVERT JUMPDEST PUSH2 0x3592 DUP13 DUP10 DUP4 DUP10 ADD ADD PUSH2 0x2FC3 JUMP JUMPDEST DUP5 MSTORE POP SWAP2 DUP7 ADD SWAP2 DUP7 ADD PUSH2 0x356C JUMP JUMPDEST POP DUP1 SWAP7 POP POP POP POP POP POP POP SWAP3 POP SWAP3 SWAP1 POP JUMP JUMPDEST PUSH1 0x20 DUP1 DUP3 MSTORE DUP3 MLOAD DUP3 DUP3 ADD DUP2 SWAP1 MSTORE PUSH1 0x0 SWAP2 SWAP1 PUSH1 0x40 SWAP1 DUP2 DUP6 ADD SWAP1 DUP7 DUP5 ADD DUP6 JUMPDEST DUP3 DUP2 LT ISZERO PUSH2 0x35FC JUMPI DUP2 MLOAD DUP1 MLOAD PUSH1 0x1 PUSH1 0x1 PUSH1 0xA0 SHL SUB AND DUP6 MSTORE DUP7 ADD MLOAD DUP7 DUP6 ADD MSTORE SWAP3 DUP5 ADD SWAP3 SWAP1 DUP6 ADD SWAP1 PUSH1 0x1 ADD PUSH2 0x35CE JUMP JUMPDEST POP SWAP2 SWAP8 SWAP7 POP POP POP POP POP POP POP JUMP JUMPDEST PUSH1 0x0 DUP1 PUSH1 0x40 DUP4 DUP6 SUB SLT ISZERO PUSH2 0x361C JUMPI PUSH1 0x0 DUP1 REVERT JUMPDEST DUP3 CALLDATALOAD PUSH2 0x3627 DUP2 PUSH2 0x2F13 JUMP JUMPDEST SWAP2 POP PUSH1 0x20 DUP4 ADD CALLDATALOAD PUSH2 0x3263 DUP2 PUSH2 0x3335 JUMP JUMPDEST DUP1 ISZERO ISZERO DUP2 EQ PUSH2 0x182D JUMPI PUSH1 0x0 DUP1 REVERT JUMPDEST PUSH1 0x0 PUSH1 0x20 DUP3 DUP5 SUB SLT ISZERO PUSH2 0x3657 JUMPI PUSH1 0x0 DUP1 REVERT JUMPDEST DUP2 CALLDATALOAD PUSH2 0x30A8 DUP2 PUSH2 0x3637 JUMP JUMPDEST PUSH1 0x0 DUP1 PUSH1 0x40 DUP4 DUP6 SUB SLT ISZERO PUSH2 0x3675 JUMPI PUSH1 0x0 DUP1 REVERT JUMPDEST DUP3 CALLDATALOAD PUSH2 0x3680 DUP2 PUSH2 0x2F13 JUMP JUMPDEST SWAP5 PUSH1 0x20 SWAP4 SWAP1 SWAP4 ADD CALLDATALOAD SWAP4 POP POP POP JUMP JUMPDEST DUP5 DUP2 MSTORE PUSH1 0x80 PUSH1 0x20 DUP3 ADD MSTORE PUSH1 0x0 PUSH2 0x36A7 PUSH1 0x80 DUP4 ADD DUP7 PUSH2 0x30FF JUMP JUMPDEST PUSH2 0x36B4 PUSH1 0x40 DUP5 ADD DUP7 PUSH2 0x3134 JUMP JUMPDEST DUP3 DUP2 SUB PUSH1 0x60 DUP5 ADD MSTORE PUSH2 0x36C6 DUP2 DUP6 PUSH2 0x30D3 JUMP JUMPDEST SWAP8 SWAP7 POP POP POP POP POP POP POP JUMP JUMPDEST PUSH1 0x20 DUP2 ADD PUSH2 0x955 DUP3 DUP5 PUSH2 0x3134 JUMP JUMPDEST PUSH1 0x0 DUP1 PUSH1 0x40 DUP4 DUP6 SUB SLT ISZERO PUSH2 0x36F2 JUMPI PUSH1 0x0 DUP1 REVERT JUMPDEST DUP3 CALLDATALOAD SWAP2 POP PUSH1 0x20 DUP4 ADD CALLDATALOAD PUSH1 0x1 PUSH1 0x1 PUSH1 0x40 SHL SUB DUP2 GT ISZERO PUSH2 0x370F JUMPI PUSH1 0x0 DUP1 REVERT JUMPDEST PUSH2 0x371B DUP6 DUP3 DUP7 ADD PUSH2 0x2FC3 JUMP JUMPDEST SWAP2 POP POP SWAP3 POP SWAP3 SWAP1 POP JUMP JUMPDEST PUSH1 0x0 PUSH1 0x20 DUP3 DUP5 SUB SLT ISZERO PUSH2 0x3737 JUMPI PUSH1 0x0 DUP1 REVERT JUMPDEST POP CALLDATALOAD SWAP2 SWAP1 POP JUMP JUMPDEST PUSH1 0x1 DUP2 DUP2 SHR SWAP1 DUP3 AND DUP1 PUSH2 0x3752 JUMPI PUSH1 0x7F DUP3 AND SWAP2 POP JUMPDEST PUSH1 0x20 DUP3 LT DUP2 SUB PUSH2 0x3772 JUMPI PUSH4 0x4E487B71 PUSH1 0xE0 SHL PUSH1 0x0 MSTORE PUSH1 0x22 PUSH1 0x4 MSTORE PUSH1 0x24 PUSH1 0x0 REVERT JUMPDEST POP SWAP2 SWAP1 POP JUMP JUMPDEST PUSH1 0x0 PUSH1 0x20 DUP3 DUP5 SUB SLT ISZERO PUSH2 0x378A JUMPI PUSH1 0x0 DUP1 REVERT JUMPDEST DUP2 MLOAD PUSH2 0x30A8 DUP2 PUSH2 0x3637 JUMP JUMPDEST PUSH4 0x4E487B71 PUSH1 0xE0 SHL PUSH1 0x0 MSTORE PUSH1 0x32 PUSH1 0x4 MSTORE PUSH1 0x24 PUSH1 0x0 REVERT JUMPDEST PUSH1 0x1F DUP3 GT ISZERO PUSH2 0x63E JUMPI PUSH1 0x0 DUP2 DUP2 MSTORE PUSH1 0x20 DUP2 KECCAK256 PUSH1 0x1F DUP6 ADD PUSH1 0x5 SHR DUP2 ADD PUSH1 0x20 DUP7 LT ISZERO PUSH2 0x37D2 JUMPI POP DUP1 JUMPDEST PUSH1 0x1F DUP6 ADD PUSH1 0x5 SHR DUP3 ADD SWAP2 POP JUMPDEST DUP2 DUP2 LT ISZERO PUSH2 0x15A7 JUMPI DUP3 DUP2 SSTORE PUSH1 0x1 ADD PUSH2 0x37DE JUMP JUMPDEST DUP2 CALLDATALOAD DUP2 SSTORE PUSH1 0x1 DUP1 DUP3 ADD PUSH1 0x20 DUP1 DUP6 ADD CALLDATALOAD PUSH1 0x1E NOT DUP7 CALLDATASIZE SUB ADD DUP2 SLT PUSH2 0x3812 JUMPI PUSH1 0x0 DUP1 REVERT JUMPDEST DUP6 ADD DUP1 CALLDATALOAD PUSH1 0x1 PUSH1 0x1 PUSH1 0x40 SHL SUB DUP2 GT ISZERO PUSH2 0x382A JUMPI PUSH1 0x0 DUP1 REVERT JUMPDEST DUP1 CALLDATASIZE SUB DUP4 DUP4 ADD SGT ISZERO PUSH2 0x383B JUMPI PUSH1 0x0 DUP1 REVERT JUMPDEST PUSH2 0x384F DUP2 PUSH2 0x3849 DUP7 SLOAD PUSH2 0x373E JUMP JUMPDEST DUP7 PUSH2 0x37AB JUMP JUMPDEST PUSH1 0x0 PUSH1 0x1F DUP3 GT PUSH1 0x1 DUP2 EQ PUSH2 0x3885 JUMPI PUSH1 0x0 DUP4 ISZERO PUSH2 0x386D JUMPI POP DUP4 DUP3 ADD DUP6 ADD CALLDATALOAD JUMPDEST PUSH1 0x0 NOT PUSH1 0x3 DUP6 SWAP1 SHL SHR NOT AND PUSH1 0x1 DUP5 SWAP1 SHL OR DUP7 SSTORE PUSH2 0x38DE JUMP JUMPDEST PUSH1 0x0 DUP7 DUP2 MSTORE PUSH1 0x20 SWAP1 KECCAK256 PUSH1 0x1F NOT DUP5 AND SWAP1 DUP4 JUMPDEST DUP3 DUP2 LT ISZERO PUSH2 0x38B5 JUMPI DUP7 DUP6 ADD DUP9 ADD CALLDATALOAD DUP3 SSTORE SWAP4 DUP8 ADD SWAP4 SWAP1 DUP10 ADD SWAP1 DUP8 ADD PUSH2 0x3896 JUMP JUMPDEST POP DUP5 DUP3 LT ISZERO PUSH2 0x38D4 JUMPI PUSH1 0x0 NOT PUSH1 0xF8 DUP7 PUSH1 0x3 SHL AND SHR NOT DUP8 DUP6 DUP9 ADD ADD CALLDATALOAD AND DUP2 SSTORE JUMPDEST POP POP DUP7 DUP4 DUP9 SHL ADD DUP7 SSTORE JUMPDEST POP POP POP POP POP POP POP POP POP JUMP JUMPDEST PUSH1 0x1 DUP1 PUSH1 0xA0 SHL SUB DUP5 AND DUP2 MSTORE DUP3 PUSH1 0x20 DUP3 ADD MSTORE PUSH1 0x60 PUSH1 0x40 DUP3 ADD MSTORE DUP2 CALLDATALOAD PUSH1 0x60 DUP3 ADD MSTORE PUSH1 0x0 PUSH1 0x20 DUP4 ADD CALLDATALOAD PUSH1 0x1E NOT DUP5 CALLDATASIZE SUB ADD DUP2 SLT PUSH2 0x3921 JUMPI PUSH1 0x0 DUP1 REVERT JUMPDEST DUP4 ADD PUSH1 0x20 DUP2 ADD SWAP1 CALLDATALOAD PUSH1 0x1 PUSH1 0x1 PUSH1 0x40 SHL SUB DUP2 GT ISZERO PUSH2 0x393D JUMPI PUSH1 0x0 DUP1 REVERT JUMPDEST DUP1 CALLDATASIZE SUB DUP3 SGT ISZERO PUSH2 0x394C JUMPI PUSH1 0x0 DUP1 REVERT JUMPDEST PUSH1 0x40 PUSH1 0x80 DUP6 ADD MSTORE DUP1 PUSH1 0xA0 DUP6 ADD MSTORE DUP1 DUP3 PUSH1 0xC0 DUP7 ADD CALLDATACOPY PUSH1 0x0 PUSH1 0xC0 DUP3 DUP7 ADD ADD MSTORE PUSH1 0xC0 PUSH1 0x1F NOT PUSH1 0x1F DUP4 ADD AND DUP6 ADD ADD SWAP3 POP POP POP SWAP5 SWAP4 POP POP POP POP JUMP JUMPDEST DUP2 MLOAD PUSH1 0x1 PUSH1 0x1 PUSH1 0x40 SHL SUB DUP2 GT ISZERO PUSH2 0x399B JUMPI PUSH2 0x399B PUSH2 0x2E3E JUMP JUMPDEST PUSH2 0x39AF DUP2 PUSH2 0x39A9 DUP5 SLOAD PUSH2 0x373E JUMP JUMPDEST DUP5 PUSH2 0x37AB JUMP JUMPDEST PUSH1 0x20 DUP1 PUSH1 0x1F DUP4 GT PUSH1 0x1 DUP2 EQ PUSH2 0x39E4 JUMPI PUSH1 0x0 DUP5 ISZERO PUSH2 0x39CC JUMPI POP DUP6 DUP4 ADD MLOAD JUMPDEST PUSH1 0x0 NOT PUSH1 0x3 DUP7 SWAP1 SHL SHR NOT AND PUSH1 0x1 DUP6 SWAP1 SHL OR DUP6 SSTORE PUSH2 0x15A7 JUMP JUMPDEST PUSH1 0x0 DUP6 DUP2 MSTORE PUSH1 0x20 DUP2 KECCAK256 PUSH1 0x1F NOT DUP7 AND SWAP2 JUMPDEST DUP3 DUP2 LT ISZERO PUSH2 0x3A13 JUMPI DUP9 DUP7 ADD MLOAD DUP3 SSTORE SWAP5 DUP5 ADD SWAP5 PUSH1 0x1 SWAP1 SWAP2 ADD SWAP1 DUP5 ADD PUSH2 0x39F4 JUMP JUMPDEST POP DUP6 DUP3 LT ISZERO PUSH2 0x3A31 JUMPI DUP8 DUP6 ADD MLOAD PUSH1 0x0 NOT PUSH1 0x3 DUP9 SWAP1 SHL PUSH1 0xF8 AND SHR NOT AND DUP2 SSTORE JUMPDEST POP POP POP POP POP PUSH1 0x1 SWAP1 DUP2 SHL ADD SWAP1 SSTORE POP JUMP JUMPDEST PUSH4 0x4E487B71 PUSH1 0xE0 SHL PUSH1 0x0 MSTORE PUSH1 0x11 PUSH1 0x4 MSTORE PUSH1 0x24 PUSH1 0x0 REVERT JUMPDEST PUSH1 0x0 PUSH1 0x1 DUP3 ADD PUSH2 0x3A69 JUMPI PUSH2 0x3A69 PUSH2 0x3A41 JUMP JUMPDEST POP PUSH1 0x1 ADD SWAP1 JUMP JUMPDEST DUP1 DUP3 MUL DUP2 ISZERO DUP3 DUP3 DIV DUP5 EQ OR PUSH2 0x955 JUMPI PUSH2 0x955 PUSH2 0x3A41 JUMP JUMPDEST PUSH1 0x0 DUP3 PUSH2 0x3AA4 JUMPI PUSH4 0x4E487B71 PUSH1 0xE0 SHL PUSH1 0x0 MSTORE PUSH1 0x12 PUSH1 0x4 MSTORE PUSH1 0x24 PUSH1 0x0 REVERT JUMPDEST POP DIV SWAP1 JUMP JUMPDEST DUP1 DUP3 ADD DUP1 DUP3 GT ISZERO PUSH2 0x955 JUMPI PUSH2 0x955 PUSH2 0x3A41 JUMP JUMPDEST PUSH1 0x1 PUSH1 0x1 PUSH1 0xA0 SHL SUB DUP4 AND DUP2 MSTORE PUSH1 0x40 DUP2 ADD PUSH2 0x30A8 PUSH1 0x20 DUP4 ADD DUP5 PUSH2 0x3134 JUMP JUMPDEST DUP1 MLOAD PUSH2 0x334D DUP2 PUSH2 0x2F13 JUMP JUMPDEST PUSH1 0x0 PUSH1 0x20 DUP1 DUP4 DUP6 SUB SLT ISZERO PUSH2 0x3AF7 JUMPI PUSH1 0x0 DUP1 REVERT JUMPDEST DUP3 MLOAD PUSH1 0x1 PUSH1 0x1 PUSH1 0x40 SHL SUB DUP1 DUP3 GT ISZERO PUSH2 0x3B0E JUMPI PUSH1 0x0 DUP1 REVERT JUMPDEST SWAP1 DUP5 ADD SWAP1 PUSH1 0x80 DUP3 DUP8 SUB SLT ISZERO PUSH2 0x3B22 JUMPI PUSH1 0x0 DUP1 REVERT JUMPDEST PUSH2 0x3B2A PUSH2 0x2E54 JUMP JUMPDEST DUP3 MLOAD PUSH2 0x3B35 DUP2 PUSH2 0x3637 JUMP JUMPDEST DUP2 MSTORE DUP3 DUP5 ADD MLOAD PUSH2 0x3B44 DUP2 PUSH2 0x3637 JUMP JUMPDEST DUP2 DUP6 ADD MSTORE PUSH1 0x40 DUP4 DUP2 ADD MLOAD PUSH2 0x3B57 DUP2 PUSH2 0x3637 JUMP JUMPDEST DUP3 DUP3 ADD MSTORE PUSH1 0x60 DUP5 ADD MLOAD DUP4 DUP2 GT ISZERO PUSH2 0x3B6D JUMPI PUSH1 0x0 DUP1 REVERT JUMPDEST DUP1 DUP6 ADD SWAP5 POP POP DUP8 PUSH1 0x1F DUP6 ADD SLT PUSH2 0x3B82 JUMPI PUSH1 0x0 DUP1 REVERT JUMPDEST DUP4 MLOAD SWAP3 POP PUSH2 0x3B92 PUSH2 0x2F49 DUP5 PUSH2 0x2EF0 JUMP JUMPDEST DUP4 DUP2 MSTORE PUSH1 0x6 SWAP4 SWAP1 SWAP4 SHL DUP5 ADD DUP6 ADD SWAP3 DUP6 DUP2 ADD SWAP1 DUP10 DUP6 GT ISZERO PUSH2 0x3BB1 JUMPI PUSH1 0x0 DUP1 REVERT JUMPDEST SWAP5 DUP7 ADD SWAP5 JUMPDEST DUP5 DUP7 LT ISZERO PUSH2 0x3BFA JUMPI DUP3 DUP7 DUP12 SUB SLT ISZERO PUSH2 0x3BCE JUMPI PUSH1 0x0 DUP1 DUP2 REVERT JUMPDEST PUSH2 0x3BD6 PUSH2 0x2E7C JUMP JUMPDEST DUP7 MLOAD PUSH2 0x3BE1 DUP2 PUSH2 0x2F13 JUMP JUMPDEST DUP2 MSTORE DUP7 DUP9 ADD MLOAD DUP9 DUP3 ADD MSTORE DUP3 MSTORE SWAP5 DUP3 ADD SWAP5 SWAP1 DUP7 ADD SWAP1 PUSH2 0x3BB6 JUMP JUMPDEST PUSH1 0x60 DUP5 ADD MSTORE POP SWAP1 SWAP8 SWAP7 POP POP POP POP POP POP POP JUMP JUMPDEST DUP3 DUP2 MSTORE PUSH1 0x40 PUSH1 0x20 DUP3 ADD MSTORE PUSH1 0x0 PUSH2 0x1F5E PUSH1 0x40 DUP4 ADD DUP5 PUSH2 0x30D3 JUMP JUMPDEST PUSH1 0x0 DUP3 PUSH1 0x1F DUP4 ADD SLT PUSH2 0x3C36 JUMPI PUSH1 0x0 DUP1 REVERT JUMPDEST DUP2 MLOAD PUSH2 0x3C44 PUSH2 0x2F49 DUP3 PUSH2 0x2F9C JUMP JUMPDEST DUP2 DUP2 MSTORE DUP5 PUSH1 0x20 DUP4 DUP7 ADD ADD GT ISZERO PUSH2 0x3C59 JUMPI PUSH1 0x0 DUP1 REVERT JUMPDEST PUSH2 0x1F5E DUP3 PUSH1 0x20 DUP4 ADD PUSH1 0x20 DUP8 ADD PUSH2 0x30AF JUMP JUMPDEST PUSH1 0x0 PUSH1 0x40 DUP3 DUP5 SUB SLT ISZERO PUSH2 0x3C7C JUMPI PUSH1 0x0 DUP1 REVERT JUMPDEST PUSH2 0x3C84 PUSH2 0x2E7C JUMP JUMPDEST SWAP1 POP DUP2 MLOAD DUP2 MSTORE PUSH1 0x20 DUP3 ADD MLOAD PUSH1 0x1 PUSH1 0x1 PUSH1 0x40 SHL SUB DUP2 GT ISZERO PUSH2 0x3CA3 JUMPI PUSH1 0x0 DUP1 REVERT JUMPDEST PUSH2 0x3CAF DUP5 DUP3 DUP6 ADD PUSH2 0x3C25 JUMP JUMPDEST PUSH1 0x20 DUP4 ADD MSTORE POP SWAP3 SWAP2 POP POP JUMP JUMPDEST PUSH1 0x0 DUP1 PUSH1 0x0 DUP1 PUSH1 0x80 DUP6 DUP8 SUB SLT ISZERO PUSH2 0x3CD1 JUMPI PUSH1 0x0 DUP1 REVERT JUMPDEST DUP5 MLOAD PUSH2 0x3CDC DUP2 PUSH2 0x2F13 JUMP JUMPDEST PUSH1 0x20 DUP7 ADD MLOAD SWAP1 SWAP5 POP PUSH2 0x3CED DUP2 PUSH2 0x2F13 JUMP JUMPDEST PUSH1 0x40 DUP7 ADD MLOAD PUSH1 0x60 DUP8 ADD MLOAD SWAP2 SWAP5 POP SWAP3 POP PUSH1 0x1 PUSH1 0x1 PUSH1 0x40 SHL SUB DUP2 GT ISZERO PUSH2 0x3D10 JUMPI PUSH1 0x0 DUP1 REVERT JUMPDEST PUSH2 0x3D1C DUP8 DUP3 DUP9 ADD PUSH2 0x3C6A JUMP JUMPDEST SWAP2 POP POP SWAP3 SWAP6 SWAP2 SWAP5 POP SWAP3 POP JUMP JUMPDEST PUSH1 0x40 DUP2 MSTORE PUSH1 0x0 PUSH2 0x3D3B PUSH1 0x40 DUP4 ADD DUP6 PUSH2 0x30D3 JUMP JUMPDEST SWAP1 POP PUSH1 0x1 DUP1 PUSH1 0xA0 SHL SUB DUP4 AND PUSH1 0x20 DUP4 ADD MSTORE SWAP4 SWAP3 POP POP POP JUMP JUMPDEST PUSH1 0x0 PUSH1 0x20 DUP3 DUP5 SUB SLT ISZERO PUSH2 0x3D64 JUMPI PUSH1 0x0 DUP1 REVERT JUMPDEST DUP2 MLOAD PUSH1 0x1 PUSH1 0x1 PUSH1 0x40 SHL SUB DUP1 DUP3 GT ISZERO PUSH2 0x3D7B JUMPI PUSH1 0x0 DUP1 REVERT JUMPDEST SWAP1 DUP4 ADD SWAP1 PUSH1 0xC0 DUP3 DUP7 SUB SLT ISZERO PUSH2 0x3D8F JUMPI PUSH1 0x0 DUP1 REVERT JUMPDEST PUSH2 0x3D97 PUSH2 0x2E9E JUMP JUMPDEST DUP3 MLOAD DUP2 MSTORE PUSH1 0x20 DUP4 ADD MLOAD PUSH1 0x20 DUP3 ADD MSTORE PUSH1 0x40 DUP4 ADD MLOAD DUP3 DUP2 GT ISZERO PUSH2 0x3DB7 JUMPI PUSH1 0x0 DUP1 REVERT JUMPDEST PUSH2 0x3DC3 DUP8 DUP3 DUP7 ADD PUSH2 0x3C25 JUMP JUMPDEST PUSH1 0x40 DUP4 ADD MSTORE POP PUSH1 0x60 DUP4 ADD MLOAD DUP3 DUP2 GT ISZERO PUSH2 0x3DDB JUMPI PUSH1 0x0 DUP1 REVERT JUMPDEST PUSH2 0x3DE7 DUP8 DUP3 DUP7 ADD PUSH2 0x3C6A JUMP JUMPDEST PUSH1 0x60 DUP4 ADD MSTORE POP PUSH2 0x3DF9 PUSH1 0x80 DUP5 ADD PUSH2 0x3AD9 JUMP JUMPDEST PUSH1 0x80 DUP3 ADD MSTORE PUSH2 0x3E0A PUSH1 0xA0 DUP5 ADD PUSH2 0x3AD9 JUMP JUMPDEST PUSH1 0xA0 DUP3 ADD MSTORE SWAP6 SWAP5 POP POP POP POP POP JUMP JUMPDEST PUSH1 0x1 PUSH1 0x1 PUSH1 0xA0 SHL SUB DUP5 AND DUP2 MSTORE PUSH1 0x60 DUP2 ADD PUSH2 0x3E35 PUSH1 0x20 DUP4 ADD DUP6 PUSH2 0x3134 JUMP JUMPDEST DUP3 PUSH1 0x40 DUP4 ADD MSTORE SWAP5 SWAP4 POP POP POP POP JUMP JUMPDEST PUSH1 0x0 PUSH1 0x20 DUP3 DUP5 SUB SLT ISZERO PUSH2 0x3E55 JUMPI PUSH1 0x0 DUP1 REVERT JUMPDEST DUP2 MLOAD PUSH2 0x30A8 DUP2 PUSH2 0x2F13 JUMP JUMPDEST PUSH1 0x0 DUP1 PUSH1 0x0 PUSH1 0x60 DUP5 DUP7 SUB SLT ISZERO PUSH2 0x3E75 JUMPI PUSH1 0x0 DUP1 REVERT JUMPDEST DUP4 MLOAD PUSH2 0x3E80 DUP2 PUSH2 0x2F13 JUMP JUMPDEST PUSH1 0x20 DUP6 ADD MLOAD SWAP1 SWAP4 POP PUSH2 0x3E91 DUP2 PUSH2 0x3335 JUMP JUMPDEST DUP1 SWAP3 POP POP PUSH1 0x40 DUP5 ADD MLOAD SWAP1 POP SWAP3 POP SWAP3 POP SWAP3 JUMP JUMPDEST PUSH1 0x0 PUSH1 0x20 DUP3 DUP5 SUB SLT ISZERO PUSH2 0x3EB5 JUMPI PUSH1 0x0 DUP1 REVERT JUMPDEST DUP2 MLOAD PUSH1 0x1 PUSH1 0x1 PUSH1 0x40 SHL SUB DUP1 DUP3 GT ISZERO PUSH2 0x3ECC JUMPI PUSH1 0x0 DUP1 REVERT JUMPDEST SWAP1 DUP4 ADD SWAP1 PUSH1 0xC0 DUP3 DUP7 SUB SLT ISZERO PUSH2 0x3EE0 JUMPI PUSH1 0x0 DUP1 REVERT JUMPDEST PUSH2 0x3EE8 PUSH2 0x2E9E JUMP JUMPDEST DUP3 MLOAD DUP2 MSTORE PUSH1 0x20 DUP4 ADD MLOAD PUSH2 0x3EFA DUP2 PUSH2 0x2F13 JUMP JUMPDEST PUSH1 0x20 DUP3 ADD MSTORE PUSH1 0x40 DUP4 ADD MLOAD PUSH2 0x3F0D DUP2 PUSH2 0x2F13 JUMP JUMPDEST PUSH1 0x40 DUP3 ADD MSTORE PUSH1 0x60 DUP4 ADD MLOAD DUP3 DUP2 GT ISZERO PUSH2 0x3F24 JUMPI PUSH1 0x0 DUP1 REVERT JUMPDEST PUSH2 0x3F30 DUP8 DUP3 DUP7 ADD PUSH2 0x3C6A JUMP JUMPDEST PUSH1 0x60 DUP4 ADD MSTORE POP PUSH1 0x80 DUP4 ADD MLOAD PUSH1 0x80 DUP3 ADD MSTORE PUSH1 0xA0 DUP4 ADD MLOAD PUSH1 0xA0 DUP3 ADD MSTORE DUP1 SWAP4 POP POP POP POP SWAP3 SWAP2 POP POP JUMP JUMPDEST DUP2 DUP2 SUB DUP2 DUP2 GT ISZERO PUSH2 0x955 JUMPI PUSH2 0x955 PUSH2 0x3A41 JUMP JUMPDEST PUSH1 0x1 PUSH1 0x1 PUSH1 0xA0 SHL SUB DUP5 AND DUP2 MSTORE PUSH1 0x20 DUP2 ADD DUP4 SWAP1 MSTORE PUSH1 0x60 DUP2 ADD PUSH2 0x1F5E PUSH1 0x40 DUP4 ADD DUP5 PUSH2 0x3134 JUMP INVALID LOG2 PUSH5 0x6970667358 0x22 SLT KECCAK256 LT ISZERO ADD SELFDESTRUCT 0xDA 0xD9 0xCA EXP 0xEF PUSH13 0x321E8C457671B6A4F3F4C6E007 PUSH20 0x23D345CF0AE4393364736F6C6343000814003300 "},"methodIdentifiers":{"NATIVE()":"a0cf0aea","allocate(bytes,address)":"ef2920fc","allocatedGrantAmount()":"e8eeb806","distribute(address[],bytes,address)":"0a6f0ee9","getAllo()":"15cc481e","getMilestoneStatus(address,uint256)":"f83067e7","getMilestones(address)":"22a4e42d","getOffeeredMilestones(address)":"36592c0e","getPayouts(address[],bytes[])":"b2b878d0","getPoolAmount()":"4ab4ba42","getPoolId()":"38fff2d0","getRecipient(address)":"62812a39","getRecipientStatus(address)":"eb11af93","getStrategyId()":"42fda9c7","grantAmountRequired()":"9be2ccf5","increasePoolAmount(uint256)":"f5b0dfb7","initialize(uint256,bytes)":"edd146cc","isPoolActive()":"df868ed3","isValidAllocator(address)":"4d31d087","metadataRequired()":"cb0e85a6","milestones(address,uint256)":"c7a892bf","offerMilestones(address,(uint256,(uint256,string),uint8,string)[])":"78f0184d","registerRecipient(bytes,address)":"2bbe0cae","registryGating()":"a647d23e","reviewOfferedtMilestones(address,uint8)":"b3eae7ab","setPoolActive(bool)":"b5f620ce","setThresholdPercentage(uint256,bytes32)":"2a835b4b","submitMilestone(address,uint256,(uint256,string))":"3bf3577d","thresholdPercentage()":"4ed2859e","totalSupply()":"18160ddd","upcomingMilestone(address)":"e2372b58"}}}}}