{"contracts/ExecutorSupplierVotingStrategy.sol":{"ExecutorSupplierVotingStrategy":{"abi":[{"inputs":[{"internalType":"address","name":"_allo","type":"address"},{"internalType":"string","name":"_name","type":"string"}],"stateMutability":"nonpayable","type":"constructor"},{"inputs":[],"name":"ALLOCATION_ACTIVE","type":"error"},{"inputs":[],"name":"ALLOCATION_EXCEEDS_POOL_AMOUNT","type":"error"},{"inputs":[],"name":"ALLOCATION_NOT_ACTIVE","type":"error"},{"inputs":[],"name":"ALLOCATION_NOT_ENDED","type":"error"},{"inputs":[],"name":"ALREADY_INITIALIZED","type":"error"},{"inputs":[],"name":"ALREADY_REVIEWED","type":"error"},{"inputs":[],"name":"AMOUNT_MISMATCH","type":"error"},{"inputs":[],"name":"ANCHOR_ERROR","type":"error"},{"inputs":[],"name":"ARRAY_MISMATCH","type":"error"},{"inputs":[],"name":"INVALID","type":"error"},{"inputs":[],"name":"INVALID_ADDRESS","type":"error"},{"inputs":[],"name":"INVALID_FEE","type":"error"},{"inputs":[],"name":"INVALID_METADATA","type":"error"},{"inputs":[],"name":"INVALID_MILESTONE","type":"error"},{"inputs":[],"name":"INVALID_MILESTONES_PERCENTAGE","type":"error"},{"inputs":[],"name":"INVALID_MILESTONE_STATUS","type":"error"},{"inputs":[],"name":"INVALID_REGISTRATION","type":"error"},{"inputs":[],"name":"IS_APPROVED_STRATEGY","type":"error"},{"inputs":[],"name":"MILESTONES_ALREADY_SET","type":"error"},{"inputs":[],"name":"MILESTONE_ALREADY_ACCEPTED","type":"error"},{"inputs":[],"name":"MISMATCH","type":"error"},{"inputs":[],"name":"NONCE_NOT_AVAILABLE","type":"error"},{"inputs":[],"name":"NOT_APPROVED_STRATEGY","type":"error"},{"inputs":[],"name":"NOT_ENOUGH_FUNDS","type":"error"},{"inputs":[],"name":"NOT_IMPLEMENTED","type":"error"},{"inputs":[],"name":"NOT_INITIALIZED","type":"error"},{"inputs":[],"name":"NOT_PENDING_OWNER","type":"error"},{"inputs":[],"name":"POOL_ACTIVE","type":"error"},{"inputs":[],"name":"POOL_INACTIVE","type":"error"},{"inputs":[],"name":"RECIPIENT_ALREADY_ACCEPTED","type":"error"},{"inputs":[{"internalType":"address","name":"recipientId","type":"address"}],"name":"RECIPIENT_ERROR","type":"error"},{"inputs":[],"name":"RECIPIENT_NOT_ACCEPTED","type":"error"},{"inputs":[],"name":"REGISTRATION_NOT_ACTIVE","type":"error"},{"inputs":[],"name":"ReentrancyGuardReentrantCall","type":"error"},{"inputs":[],"name":"SUPPLY_IS_ALLOWED_ONLY_ONCE","type":"error"},{"inputs":[],"name":"SUPPLY_NOT_FOUND","type":"error"},{"inputs":[],"name":"UNAUTHORIZED","type":"error"},{"inputs":[],"name":"ZERO_ADDRESS","type":"error"},{"anonymous":false,"inputs":[{"indexed":true,"internalType":"address","name":"recipientId","type":"address"},{"indexed":false,"internalType":"uint256","name":"amount","type":"uint256"},{"indexed":false,"internalType":"address","name":"token","type":"address"},{"indexed":false,"internalType":"address","name":"sender","type":"address"}],"name":"Allocated","type":"event"},{"anonymous":false,"inputs":[{"indexed":true,"internalType":"address","name":"recipientId","type":"address"},{"indexed":false,"internalType":"address","name":"recipientAddress","type":"address"},{"indexed":false,"internalType":"uint256","name":"amount","type":"uint256"},{"indexed":false,"internalType":"address","name":"sender","type":"address"}],"name":"Distributed","type":"event"},{"anonymous":false,"inputs":[{"indexed":false,"internalType":"uint256","name":"poolId","type":"uint256"},{"indexed":false,"internalType":"bytes","name":"data","type":"bytes"}],"name":"Initialized","type":"event"},{"anonymous":false,"inputs":[{"indexed":false,"internalType":"address","name":"recipientId","type":"address"},{"indexed":false,"internalType":"uint256","name":"milestoneId","type":"uint256"},{"indexed":false,"internalType":"enum IStrategy.Status","name":"status","type":"uint8"}],"name":"MilestoneStatusChanged","type":"event"},{"anonymous":false,"inputs":[{"indexed":false,"internalType":"address","name":"recipientId","type":"address"},{"indexed":false,"internalType":"uint256","name":"milestoneId","type":"uint256"},{"components":[{"internalType":"uint256","name":"protocol","type":"uint256"},{"internalType":"string","name":"pointer","type":"string"}],"indexed":false,"internalType":"struct Metadata","name":"metadata","type":"tuple"}],"name":"MilestoneSubmitted","type":"event"},{"anonymous":false,"inputs":[{"indexed":false,"internalType":"address","name":"recipientId","type":"address"},{"indexed":false,"internalType":"uint256","name":"milestonesLength","type":"uint256"}],"name":"MilestonesOffered","type":"event"},{"anonymous":false,"inputs":[{"indexed":false,"internalType":"address","name":"recipientId","type":"address"},{"indexed":false,"internalType":"enum IStrategy.Status","name":"status","type":"uint8"}],"name":"MilestonesReviewed","type":"event"},{"anonymous":false,"inputs":[{"indexed":false,"internalType":"address","name":"recipientId","type":"address"},{"indexed":false,"internalType":"uint256","name":"milestonesLength","type":"uint256"}],"name":"MilestonesSet","type":"event"},{"anonymous":false,"inputs":[{"indexed":false,"internalType":"address","name":"recipientId","type":"address"}],"name":"OfferedMilestonesAccepted","type":"event"},{"anonymous":false,"inputs":[{"indexed":false,"internalType":"address","name":"recipientId","type":"address"}],"name":"OfferedMilestonesRejected","type":"event"},{"anonymous":false,"inputs":[{"indexed":false,"internalType":"bool","name":"active","type":"bool"}],"name":"PoolActive","type":"event"},{"anonymous":false,"inputs":[{"indexed":false,"internalType":"address","name":"recipientId","type":"address"},{"indexed":false,"internalType":"enum IStrategy.Status","name":"status","type":"uint8"}],"name":"RecipientStatusChanged","type":"event"},{"anonymous":false,"inputs":[{"indexed":true,"internalType":"address","name":"recipientId","type":"address"},{"indexed":false,"internalType":"bytes","name":"data","type":"bytes"},{"indexed":false,"internalType":"address","name":"sender","type":"address"}],"name":"Registered","type":"event"},{"anonymous":false,"inputs":[{"indexed":false,"internalType":"address","name":"recipientId","type":"address"},{"indexed":false,"internalType":"uint256","name":"milestoneId","type":"uint256"},{"indexed":false,"internalType":"enum IStrategy.Status","name":"status","type":"uint8"}],"name":"SubmittedvMilestoneReviewed","type":"event"},{"inputs":[],"name":"NATIVE","outputs":[{"internalType":"address","name":"","type":"address"}],"stateMutability":"view","type":"function"},{"inputs":[{"internalType":"bytes","name":"_data","type":"bytes"},{"internalType":"address","name":"_sender","type":"address"}],"name":"allocate","outputs":[],"stateMutability":"payable","type":"function"},{"inputs":[],"name":"allocatedGrantAmount","outputs":[{"internalType":"uint256","name":"","type":"uint256"}],"stateMutability":"view","type":"function"},{"inputs":[{"internalType":"address[]","name":"_recipientIds","type":"address[]"},{"internalType":"bytes","name":"_data","type":"bytes"},{"internalType":"address","name":"_sender","type":"address"}],"name":"distribute","outputs":[],"stateMutability":"nonpayable","type":"function"},{"inputs":[],"name":"getAllo","outputs":[{"internalType":"contract IAllo","name":"","type":"address"}],"stateMutability":"view","type":"function"},{"inputs":[{"internalType":"address","name":"_recipientId","type":"address"},{"internalType":"uint256","name":"_milestoneId","type":"uint256"}],"name":"getMilestoneStatus","outputs":[{"internalType":"enum IStrategy.Status","name":"","type":"uint8"}],"stateMutability":"view","type":"function"},{"inputs":[{"internalType":"address","name":"_recipientId","type":"address"}],"name":"getMilestones","outputs":[{"components":[{"internalType":"uint256","name":"amountPercentage","type":"uint256"},{"components":[{"internalType":"uint256","name":"protocol","type":"uint256"},{"internalType":"string","name":"pointer","type":"string"}],"internalType":"struct Metadata","name":"metadata","type":"tuple"},{"internalType":"enum IStrategy.Status","name":"milestoneStatus","type":"uint8"},{"internalType":"string","name":"description","type":"string"}],"internalType":"struct ExecutorSupplierVotingStrategy.Milestone[]","name":"","type":"tuple[]"}],"stateMutability":"view","type":"function"},{"inputs":[{"internalType":"address","name":"_recipientId","type":"address"}],"name":"getOffeeredMilestones","outputs":[{"components":[{"internalType":"uint256","name":"amountPercentage","type":"uint256"},{"components":[{"internalType":"uint256","name":"protocol","type":"uint256"},{"internalType":"string","name":"pointer","type":"string"}],"internalType":"struct Metadata","name":"metadata","type":"tuple"},{"internalType":"enum IStrategy.Status","name":"milestoneStatus","type":"uint8"},{"internalType":"string","name":"description","type":"string"}],"internalType":"struct ExecutorSupplierVotingStrategy.Milestone[]","name":"","type":"tuple[]"}],"stateMutability":"view","type":"function"},{"inputs":[{"internalType":"address","name":"_recipientId","type":"address"}],"name":"getOfferedMilestonesVotesAgainst","outputs":[{"internalType":"uint256","name":"","type":"uint256"}],"stateMutability":"view","type":"function"},{"inputs":[{"internalType":"address","name":"_recipientId","type":"address"}],"name":"getOfferedMilestonesVotesFor","outputs":[{"internalType":"uint256","name":"","type":"uint256"}],"stateMutability":"view","type":"function"},{"inputs":[{"internalType":"address[]","name":"_recipientIds","type":"address[]"},{"internalType":"bytes[]","name":"_data","type":"bytes[]"}],"name":"getPayouts","outputs":[{"components":[{"internalType":"address","name":"recipientAddress","type":"address"},{"internalType":"uint256","name":"amount","type":"uint256"}],"internalType":"struct IStrategy.PayoutSummary[]","name":"","type":"tuple[]"}],"stateMutability":"view","type":"function"},{"inputs":[],"name":"getPoolAmount","outputs":[{"internalType":"uint256","name":"","type":"uint256"}],"stateMutability":"view","type":"function"},{"inputs":[],"name":"getPoolId","outputs":[{"internalType":"uint256","name":"","type":"uint256"}],"stateMutability":"view","type":"function"},{"inputs":[{"internalType":"address","name":"_recipientId","type":"address"}],"name":"getRecipient","outputs":[{"components":[{"internalType":"bool","name":"useRegistryAnchor","type":"bool"},{"internalType":"address","name":"recipientAddress","type":"address"},{"internalType":"uint256","name":"grantAmount","type":"uint256"},{"components":[{"internalType":"uint256","name":"protocol","type":"uint256"},{"internalType":"string","name":"pointer","type":"string"}],"internalType":"struct Metadata","name":"metadata","type":"tuple"},{"internalType":"enum IStrategy.Status","name":"recipientStatus","type":"uint8"},{"internalType":"enum IStrategy.Status","name":"milestonesReviewStatus","type":"uint8"}],"internalType":"struct ExecutorSupplierVotingStrategy.Recipient","name":"","type":"tuple"}],"stateMutability":"view","type":"function"},{"inputs":[{"internalType":"address","name":"_recipientId","type":"address"}],"name":"getRecipientStatus","outputs":[{"internalType":"enum IStrategy.Status","name":"","type":"uint8"}],"stateMutability":"view","type":"function"},{"inputs":[],"name":"getStrategyId","outputs":[{"internalType":"bytes32","name":"","type":"bytes32"}],"stateMutability":"view","type":"function"},{"inputs":[{"internalType":"uint256","name":"_milestoneId","type":"uint256"}],"name":"getSubmittedMilestonesVotesAgainst","outputs":[{"internalType":"uint256","name":"","type":"uint256"}],"stateMutability":"view","type":"function"},{"inputs":[{"internalType":"uint256","name":"_milestoneId","type":"uint256"}],"name":"getSubmittedMilestonesVotesFor","outputs":[{"internalType":"uint256","name":"","type":"uint256"}],"stateMutability":"view","type":"function"},{"inputs":[{"internalType":"address","name":"_recipientId","type":"address"},{"internalType":"address","name":"_supplier","type":"address"}],"name":"getSupplierOfferedMilestonesVote","outputs":[{"internalType":"uint256","name":"","type":"uint256"}],"stateMutability":"view","type":"function"},{"inputs":[{"internalType":"uint256","name":"_milestoneId","type":"uint256"},{"internalType":"address","name":"_supplier","type":"address"}],"name":"getSupplierSubmittedMilestonesVote","outputs":[{"internalType":"uint256","name":"","type":"uint256"}],"stateMutability":"view","type":"function"},{"inputs":[{"internalType":"address","name":"_recipientId","type":"address"}],"name":"getUpcomingMilestone","outputs":[{"internalType":"uint256","name":"","type":"uint256"}],"stateMutability":"view","type":"function"},{"inputs":[],"name":"grantAmountRequired","outputs":[{"internalType":"bool","name":"","type":"bool"}],"stateMutability":"view","type":"function"},{"inputs":[{"internalType":"uint256","name":"_amount","type":"uint256"}],"name":"increasePoolAmount","outputs":[],"stateMutability":"nonpayable","type":"function"},{"inputs":[{"internalType":"uint256","name":"_poolId","type":"uint256"},{"internalType":"bytes","name":"_data","type":"bytes"}],"name":"initialize","outputs":[],"stateMutability":"nonpayable","type":"function"},{"inputs":[],"name":"isPoolActive","outputs":[{"internalType":"bool","name":"","type":"bool"}],"stateMutability":"view","type":"function"},{"inputs":[{"internalType":"address","name":"_allocator","type":"address"}],"name":"isValidAllocator","outputs":[{"internalType":"bool","name":"","type":"bool"}],"stateMutability":"view","type":"function"},{"inputs":[],"name":"metadataRequired","outputs":[{"internalType":"bool","name":"","type":"bool"}],"stateMutability":"view","type":"function"},{"inputs":[{"internalType":"address","name":"","type":"address"},{"internalType":"uint256","name":"","type":"uint256"}],"name":"milestones","outputs":[{"internalType":"uint256","name":"amountPercentage","type":"uint256"},{"components":[{"internalType":"uint256","name":"protocol","type":"uint256"},{"internalType":"string","name":"pointer","type":"string"}],"internalType":"struct Metadata","name":"metadata","type":"tuple"},{"internalType":"enum IStrategy.Status","name":"milestoneStatus","type":"uint8"},{"internalType":"string","name":"description","type":"string"}],"stateMutability":"view","type":"function"},{"inputs":[{"internalType":"address","name":"_recipientId","type":"address"},{"components":[{"internalType":"uint256","name":"amountPercentage","type":"uint256"},{"components":[{"internalType":"uint256","name":"protocol","type":"uint256"},{"internalType":"string","name":"pointer","type":"string"}],"internalType":"struct Metadata","name":"metadata","type":"tuple"},{"internalType":"enum IStrategy.Status","name":"milestoneStatus","type":"uint8"},{"internalType":"string","name":"description","type":"string"}],"internalType":"struct ExecutorSupplierVotingStrategy.Milestone[]","name":"_milestones","type":"tuple[]"}],"name":"offerMilestones","outputs":[],"stateMutability":"nonpayable","type":"function"},{"inputs":[{"internalType":"bytes","name":"_data","type":"bytes"},{"internalType":"address","name":"_sender","type":"address"}],"name":"registerRecipient","outputs":[{"internalType":"address","name":"recipientId","type":"address"}],"stateMutability":"payable","type":"function"},{"inputs":[],"name":"registryGating","outputs":[{"internalType":"bool","name":"","type":"bool"}],"stateMutability":"view","type":"function"},{"inputs":[{"internalType":"address","name":"_recipientId","type":"address"},{"internalType":"enum IStrategy.Status","name":"_status","type":"uint8"}],"name":"reviewOfferedtMilestones","outputs":[],"stateMutability":"nonpayable","type":"function"},{"inputs":[{"internalType":"address","name":"_recipientId","type":"address"},{"internalType":"uint256","name":"_milestoneId","type":"uint256"},{"internalType":"enum IStrategy.Status","name":"_status","type":"uint8"}],"name":"reviewSubmitedMilestone","outputs":[],"stateMutability":"nonpayable","type":"function"},{"inputs":[{"internalType":"bool","name":"_flag","type":"bool"}],"name":"setPoolActive","outputs":[],"stateMutability":"nonpayable","type":"function"},{"inputs":[{"internalType":"uint256","name":"_newPercentage","type":"uint256"},{"internalType":"bytes32","name":"_profileId","type":"bytes32"}],"name":"setThresholdPercentage","outputs":[],"stateMutability":"nonpayable","type":"function"},{"inputs":[{"internalType":"address","name":"_recipientId","type":"address"},{"internalType":"uint256","name":"_milestoneId","type":"uint256"},{"components":[{"internalType":"uint256","name":"protocol","type":"uint256"},{"internalType":"string","name":"pointer","type":"string"}],"internalType":"struct Metadata","name":"_metadata","type":"tuple"}],"name":"submitMilestone","outputs":[],"stateMutability":"nonpayable","type":"function"},{"inputs":[{"internalType":"uint256","name":"","type":"uint256"}],"name":"submittedvMilestones","outputs":[{"internalType":"uint256","name":"votesFor","type":"uint256"},{"internalType":"uint256","name":"votesAgainst","type":"uint256"}],"stateMutability":"view","type":"function"},{"inputs":[],"name":"thresholdPercentage","outputs":[{"internalType":"uint256","name":"","type":"uint256"}],"stateMutability":"view","type":"function"},{"inputs":[],"name":"totalSupply","outputs":[{"internalType":"uint256","name":"","type":"uint256"}],"stateMutability":"view","type":"function"},{"inputs":[{"internalType":"address","name":"","type":"address"}],"name":"upcomingMilestone","outputs":[{"internalType":"uint256","name":"","type":"uint256"}],"stateMutability":"view","type":"function"},{"stateMutability":"payable","type":"receive"}],"evm":{"bytecode":{"linkReferences":{},"object":"60c060405260466006553480156200001657600080fd5b5060405162004c9238038062004c928339810160408190526200003991620000c4565b6001600160a01b038216608052604051829082906200005d9082906020016200019f565b60408051601f19818403018152919052805160209091012060a0525050600160035550620001d49050565b634e487b7160e01b600052604160045260246000fd5b60005b83811015620000bb578181015183820152602001620000a1565b50506000910152565b60008060408385031215620000d857600080fd5b82516001600160a01b0381168114620000f057600080fd5b60208401519092506001600160401b03808211156200010e57600080fd5b818501915085601f8301126200012357600080fd5b81518181111562000138576200013862000088565b604051601f8201601f19908116603f0116810190838211818310171562000163576200016362000088565b816040528281528860208487010111156200017d57600080fd5b620001908360208301602088016200009e565b80955050505050509250929050565b6020815260008251806020840152620001c08160408501602087016200009e565b601f01601f19169190910160400192915050565b60805160a051614a6062000232600039600061044001526000818161027c0152818161162501528181612129015281816125710152818161294501528181612beb01528181612e590152818161301b01526134550152614a606000f3fe60806040526004361061023f5760003560e01c80639ffaa8751161012e578063df868ed3116100ab578063edd146cc1161006f578063edd146cc146107b8578063ee120300146107d8578063ef2920fc14610808578063f5b0dfb71461081b578063f83067e71461083b57600080fd5b8063df868ed3146106f7578063e2372b581461070f578063e477b6bd1461073c578063e8eeb80614610775578063eb11af931461078b57600080fd5b8063b5f620ce116100f2578063b5f620ce14610622578063c1aaf44a14610642578063c7a892bf1461066f578063cb0e85a61461069f578063cb2415fb146106be57600080fd5b80639ffaa87514610573578063a0cf0aea14610593578063a647d23e146105bb578063b2b878d0146105d5578063b3eae7ab1461060257600080fd5b80633bf3577d116101bc5780634ed2859e116101805780634ed2859e146104a9578063605e1c66146104bf57806362812a391461050657806378f0184d146105335780639be2ccf51461055357600080fd5b80633bf3577d146103c8578063404e73e2146103e857806342fda9c7146104315780634ab4ba42146104645780634d31d0871461047957600080fd5b80632a835b4b116102035780632a835b4b1461032a5780632bbe0cae1461034a5780632ff0e6c41461035d57806336592c0e1461039357806338fff2d0146103b357600080fd5b80630a6f0ee91461024b57806315cc481e1461026d57806318160ddd146102b9578063197ea814146102dd57806322a4e42d146102fd57600080fd5b3661024657005b600080fd5b34801561025757600080fd5b5061026b6102663660046139b8565b61085b565b005b34801561027957600080fd5b507f00000000000000000000000000000000000000000000000000000000000000005b6040516001600160a01b0390911681526020015b60405180910390f35b3480156102c557600080fd5b506102cf60055481565b6040519081526020016102b0565b3480156102e957600080fd5b506102cf6102f8366004613a2f565b61087b565b34801561030957600080fd5b5061031d610318366004613a68565b6108ac565b6040516102b09190613b33565b34801561033657600080fd5b5061026b610345366004613bd8565b610aa0565b61029c610358366004613bfa565b610b9f565b34801561036957600080fd5b506102cf610378366004613a68565b6001600160a01b03166000908152600f602052604090205490565b34801561039f57600080fd5b5061031d6103ae366004613a68565b610bc2565b3480156103bf57600080fd5b506001546102cf565b3480156103d457600080fd5b5061026b6103e3366004613c40565b610dab565b3480156103f457600080fd5b5061041c610403366004613c94565b6010602052600090815260409020805460019091015482565b604080519283526020830191909152016102b0565b34801561043d57600080fd5b507f00000000000000000000000000000000000000000000000000000000000000006102cf565b34801561047057600080fd5b506002546102cf565b34801561048557600080fd5b50610499610494366004613a68565b61106c565b60405190151581526020016102b0565b3480156104b557600080fd5b506102cf60065481565b3480156104cb57600080fd5b506102cf6104da366004613cad565b60008281526010602090815260408083206001600160a01b038516845260020190915290205492915050565b34801561051257600080fd5b50610526610521366004613a68565b611077565b6040516102b09190613cd2565b34801561053f57600080fd5b5061026b61054e366004613d62565b611088565b34801561055f57600080fd5b506004546104999062010000900460ff1681565b34801561057f57600080fd5b5061026b61058e366004613eed565b611284565b34801561059f57600080fd5b5061029c73eeeeeeeeeeeeeeeeeeeeeeeeeeeeeeeeeeeeeeee81565b3480156105c757600080fd5b506004546104999060ff1681565b3480156105e157600080fd5b506105f56105f0366004613f24565b61185a565b6040516102b09190613ff8565b34801561060e57600080fd5b5061026b61061d366004614050565b611958565b34801561062e57600080fd5b5061026b61063d36600461408c565b611e55565b34801561064e57600080fd5b506102cf61065d366004613c94565b60009081526010602052604090205490565b34801561067b57600080fd5b5061068f61068a3660046140a9565b611ea1565b6040516102b094939291906140d5565b3480156106ab57600080fd5b5060045461049990610100900460ff1681565b3480156106ca57600080fd5b506102cf6106d9366004613a68565b6001600160a01b03166000908152600d602052604090206002015490565b34801561070357600080fd5b5060005460ff16610499565b34801561071b57600080fd5b506102cf61072a366004613a68565b600f6020526000908152604090205481565b34801561074857600080fd5b506102cf610757366004613a68565b6001600160a01b03166000908152600d602052604090206001015490565b34801561078157600080fd5b506102cf60085481565b34801561079757600080fd5b506107ab6107a6366004613a68565b612023565b6040516102b09190614118565b3480156107c457600080fd5b5061026b6107d3366004614126565b61202e565b3480156107e457600080fd5b506102cf6107f3366004613c94565b60009081526010602052604090206001015490565b61026b610816366004613bfa565b61208e565b34801561082757600080fd5b5061026b610836366004613c94565b6120ac565b34801561084757600080fd5b506107ab6108563660046140a9565b6120d6565b61086361211e565b61086b612169565b61087683838361218c565b505050565b6001600160a01b038083166000908152600d6020908152604080832093851683526003909301905220545b92915050565b6001600160a01b0381166000908152600e60209081526040808320805482518185028101850190935280835260609492939192909184015b82821015610a95578382906000526020600020906005020160405180608001604052908160008201548152602001600182016040518060400160405290816000820154815260200160018201805461093b9061416c565b80601f01602080910402602001604051908101604052809291908181526020018280546109679061416c565b80156109b45780601f10610989576101008083540402835291602001916109b4565b820191906000526020600020905b81548152906001019060200180831161099757829003601f168201915b505050919092525050508152600382015460209091019060ff1660068111156109df576109df613afb565b60068111156109f0576109f0613afb565b8152602001600482018054610a049061416c565b80601f0160208091040260200160405190810160405280929190818152602001828054610a309061416c565b8015610a7d5780601f10610a5257610100808354040283529160200191610a7d565b820191906000526020600020905b815481529060010190602001808311610a6057829003601f168201915b505050505081525050815260200190600101906108e4565b505050509050919050565b600754604051630e6e1ae360e21b8152600481018390523360248201526001600160a01b03909116906339b86b8c90604401602060405180830381865afa158015610aef573d6000803e3d6000fd5b505050506040513d601f19601f82011682018060405250810190610b1391906141a6565b610b535760405162461bcd60e51b815260206004820152600c60248201526b15539055551213d49256915160a21b60448201526064015b60405180910390fd5b6064821115610b995760405162461bcd60e51b8152602060048201526012602482015271496e76616c69642070657263656e7461676560701b6044820152606401610b4a565b50600655565b6000610ba961211e565b610bb1612169565b610bbb8383612223565b90506108a6565b6001600160a01b0381166000908152600d60209081526040808320805482518185028101850190935280835260609492939192909184015b82821015610a955783829060005260206000209060050201604051806080016040529081600082015481526020016001820160405180604001604052908160008201548152602001600182018054610c519061416c565b80601f0160208091040260200160405190810160405280929190818152602001828054610c7d9061416c565b8015610cca5780601f10610c9f57610100808354040283529160200191610cca565b820191906000526020600020905b815481529060010190602001808311610cad57829003601f168201915b505050919092525050508152600382015460209091019060ff166006811115610cf557610cf5613afb565b6006811115610d0657610d06613afb565b8152602001600482018054610d1a9061416c565b80601f0160208091040260200160405190810160405280929190818152602001828054610d469061416c565b8015610d935780601f10610d6857610100808354040283529160200191610d93565b820191906000526020600020905b815481529060010190602001808311610d7657829003601f168201915b50505050508152505081526020019060010190610bfa565b6001600160a01b0383163314610dd45760405163075fd2b160e01b815260040160405180910390fd5b6001600160a01b038084166000908152600b60209081526040808320815160c081018352815460ff8116151582526101009004909516858401526001810154858301528151808301909252600281018054835260038201805495969592946060870194939084019190610e469061416c565b80601f0160208091040260200160405190810160405280929190818152602001828054610e729061416c565b8015610ebf5780601f10610e9457610100808354040283529160200191610ebf565b820191906000526020600020905b815481529060010190602001808311610ea257829003601f168201915b505050919092525050508152600482015460209091019060ff166006811115610eea57610eea613afb565b6006811115610efb57610efb613afb565b81526020016004820160019054906101000a900460ff166006811115610f2357610f23613afb565b6006811115610f3457610f34613afb565b9052509050600281608001516006811115610f5157610f51613afb565b14610f6f5760405163392c16fb60e21b815260040160405180910390fd5b6001600160a01b0384166000908152600e602052604090208054841115610fa957604051632f1f68e160e11b815260040160405180910390fd5b6000818581548110610fbd57610fbd6141c3565b6000918252602090912060059091020190506002600382015460ff166006811115610fea57610fea613afb565b0361100857604051637f46ed2760e11b815260040160405180910390fd5b83600182016110178282614227565b505060038101805460ff191660011790556040517f8673cfb5a2cbad812463bdfd7c85511f29c804579a86d318889ab925155399619061105c9088908890889061431f565b60405180910390a1505050505050565b60006108a682612554565b61107f6136d5565b6108a6826125f9565b6000336001600160a01b03841614806110a657506110a68333612769565b9050806110c65760405163075fd2b160e01b815260040160405180910390fd5b6001600160a01b0383166000908152600b602052604090206002600482015460ff1660068111156110f9576110f9613afb565b146111175760405163392c16fb60e21b815260040160405180910390fd5b60026004820154610100900460ff16600681111561113757611137613afb565b03611155576040516305ca31d360e51b815260040160405180910390fd5b61115e84612861565b60005b8351811015611238576001600160a01b0385166000908152600d602052604090208451859083908110611196576111966141c3565b602090810291909101810151825460018181018555600094855293839020825160059092020190815581830151805194820194855592830151919390929160028401906111e390826143b8565b505050604082015160038201805460ff1916600183600681111561120957611209613afb565b02179055506060820151600482019061122290826143b8565b50505080806112309061448d565b915050611161565b508251604080516001600160a01b038716815260208101929092527f8a5603111f154f43104afe04452c6a93024a972cb6a0af72e6f38bcce68625d5910160405180910390a150505050565b3361128e8161291b565b6000838152601060209081526040808320338452600201909152902054156112c95760405163448bae6f60e01b815260040160405180910390fd5b6001600160a01b038085166000908152600b60209081526040808320815160c081018352815460ff811615158252610100900490951685840152600181015485830152815180830190925260028101805483526003820180549596959294606087019493908401919061133b9061416c565b80601f01602080910402602001604051908101604052809291908181526020018280546113679061416c565b80156113b45780601f10611389576101008083540402835291602001916113b4565b820191906000526020600020905b81548152906001019060200180831161139757829003601f168201915b505050919092525050508152600482015460209091019060ff1660068111156113df576113df613afb565b60068111156113f0576113f0613afb565b81526020016004820160019054906101000a900460ff16600681111561141857611418613afb565b600681111561142957611429613afb565b905250905060028160800151600681111561144657611446613afb565b146114645760405163392c16fb60e21b815260040160405180910390fd5b6001600160a01b0385166000908152600e60205260409020805485111561149e57604051632f1f68e160e11b815260040160405180910390fd5b60008186815481106114b2576114b26141c3565b6000918252602090912060059091020190506001600382015460ff1660068111156114df576114df613afb565b146114fd57604051635b2fe71d60e11b815260040160405180910390fd5b336000908152600c6020526040812054600654600554919291606491611522916144a6565b61152c91906144bd565b6000898152601060209081526040808320338452600290810190925290912084905590915087600681111561156357611563613afb565b036116d057600088815260106020526040812080548492906115869084906144df565b90915550506000888152601060205260409020548110156116cb5760038301805488919060ff191660018360068111156115c2576115c2613afb565b02179055506040805160018082528183019092526000916020808301908036833701905050905089816000815181106115fd576115fd6141c3565b6001600160a01b039283166020918202929092010152600154604051631d2fdec960e11b81527f000000000000000000000000000000000000000000000000000000000000000090921691633a5fbd929161165c9185906004016144f2565b600060405180830381600087803b15801561167657600080fd5b505af115801561168a573d6000803e3d6000fd5b505050507ff1af82b65c631a030029b10ea8f00f68290285c7c797644155b8f23969ca1d638a8a8a6040516116c193929190614559565b60405180910390a1505b611814565b60038760068111156116e4576116e4613afb565b03611814576000888152601060205260408120600101805484929061170a9084906144df565b90915550506000888152601060205260409020600101548110156118145760038301805488919060ff1916600183600681111561174957611749613afb565b021790555060005b600a548110156117bf576000601060008b81526020019081526020016000206002016000600a8481548110611788576117886141c3565b60009182526020808320909101546001600160a01b03168352820192909252604001902055806117b78161448d565b915050611751565b5060008881526010602052604080822082815560010191909155517ff1af82b65c631a030029b10ea8f00f68290285c7c797644155b8f23969ca1d639061180b908b908b908b90614559565b60405180910390a15b7f4460beb477b3843656610a89bd67c551d2a78131b5a955ddccd5eb9aa218c8c389898960405161184793929190614559565b60405180910390a1505050505050505050565b8151815160609190811461188157604051633da4c02b60e11b815260040160405180910390fd5b6000816001600160401b0381111561189b5761189b6137e2565b6040519080825280602002602001820160405280156118e057816020015b60408051808201909152600080825260208201528152602001906001900390816118b95790505b50905060005b8281101561194f5761192a868281518110611903576119036141c3565b602002602001015186838151811061191d5761191d6141c3565b60200260200101516129cd565b82828151811061193c5761193c6141c3565b60209081029190910101526001016118e6565b50949350505050565b336119628161291b565b6001600160a01b0383166000908152600d60209081526040808320338452600301909152902054156119a75760405163448bae6f60e01b815260040160405180910390fd5b6001600160a01b0383166000908152600b6020526040902060026004820154610100900460ff1660068111156119df576119df613afb565b036119fd576040516305ca31d360e51b815260040160405180910390fd5b336000908152600c6020526040812054600654600554919291606491611a22916144a6565b611a2c91906144bd565b6001600160a01b0387166000908152600d60209081526040808320338452600301909152902083905590506002856006811115611a6b57611a6b613afb565b03611d33576001600160a01b0386166000908152600d602052604081206001018054849290611a9b9084906144df565b90915550506001600160a01b0386166000908152600d6020526040902060010154811015611d2e576001600160a01b0386166000908152600b60205260409020600401805486919061ff001916610100836006811115611afd57611afd613afb565b02179055506001600160a01b0386166000908152600d602090815260408083208054825181850281018501909352808352611cf1948b9484015b82821015611ce85783829060005260206000209060050201604051806080016040529081600082015481526020016001820160405180604001604052908160008201548152602001600182018054611b8e9061416c565b80601f0160208091040260200160405190810160405280929190818152602001828054611bba9061416c565b8015611c075780601f10611bdc57610100808354040283529160200191611c07565b820191906000526020600020905b815481529060010190602001808311611bea57829003601f168201915b505050919092525050508152600382015460209091019060ff166006811115611c3257611c32613afb565b6006811115611c4357611c43613afb565b8152602001600482018054611c579061416c565b80601f0160208091040260200160405190810160405280929190818152602001828054611c839061416c565b8015611cd05780601f10611ca557610100808354040283529160200191611cd0565b820191906000526020600020905b815481529060010190602001808311611cb357829003601f168201915b50505050508152505081526020019060010190611b37565b50505050612a18565b6040516001600160a01b03871681527f7b05d1f85b1ac2e76c0d8dbb0dfa809df6788f66bbeeb837b2b5fae4f64c00639060200160405180910390a15b611e24565b6003856006811115611d4757611d47613afb565b03611e24576001600160a01b0386166000908152600d602052604081206002018054849290611d779084906144df565b90915550506001600160a01b0386166000908152600d6020526040902060020154811015611e24576001600160a01b0386166000908152600b60205260409020600401805486919061ff001916610100836006811115611dd957611dd9613afb565b0217905550611de786612861565b6040516001600160a01b03871681527f5a90817477dd8f83cfe5d429e1dc84ad5a25cb72b83291c707c6f8f5c4f2ac849060200160405180910390a15b7f30dae55c386c6176f3f7b7ee6ad4df33970f2e442cb0142e978cf78fd8ae138d868660405161105c92919061457d565b33611e5f8161291b565b611e6882612c9c565b60405182151581527fd94c9bc4d43c51d8dc345a016d8e3d994432fac68e72832e4cf3a616bd8efae09060200160405180910390a15050565b600e6020528160005260406000208181548110611ebd57600080fd5b9060005260206000209060050201600091509150508060000154908060010160405180604001604052908160008201548152602001600182018054611f019061416c565b80601f0160208091040260200160405190810160405280929190818152602001828054611f2d9061416c565b8015611f7a5780601f10611f4f57610100808354040283529160200191611f7a565b820191906000526020600020905b815481529060010190602001808311611f5d57829003601f168201915b505050919092525050506003820154600483018054929360ff90921692611fa09061416c565b80601f0160208091040260200160405190810160405280929190818152602001828054611fcc9061416c565b80156120195780601f10611fee57610100808354040283529160200191612019565b820191906000526020600020905b815481529060010190602001808311611ffc57829003601f168201915b5050505050905084565b60006108a682612ce3565b60008180602001905181019061204491906145a5565b90506120508382612cf8565b7f91efa3d50feccde0d0d202f8ae5c41ca0b2be614cebcb2bd2f4b019396e6568a83836040516120819291906146cd565b60405180910390a1505050565b61209661211e565b61209e612169565b6120a88282612f03565b5050565b6120b461211e565b80600260008282546120c691906144df565b909155506120d390508181565b50565b6001600160a01b0382166000908152600e60205260408120805483908110612100576121006141c3565b600091825260209091206005909102016003015460ff169392505050565b336001600160a01b037f000000000000000000000000000000000000000000000000000000000000000016146121675760405163075fd2b160e01b815260040160405180910390fd5b565b60015460000361216757604051630f68fe6360e21b815260040160405180910390fd5b6001600160a01b03811630146121e45760405162461bcd60e51b815260206004820152601760248201527f554e415554484f52495a454420646973747269627574650000000000000000006044820152606401610b4a565b825160005b8181101561221c57612214858281518110612206576122066141c3565b60200260200101518461322d565b6001016121e9565b5050505050565b600061222d61359d565b600080600080612250604051806040016040528060008152602001606081525090565b60045460ff16156122a5578780602001905181019061226f919061477c565b929850909650925090506122838688612769565b6122a05760405163075fd2b160e01b815260040160405180910390fd5b612312565b878060200190518101906122b9919061477c565b9297509095506001600160a01b0386161515945092509050826122dc57846122de565b835b95508280156122f457506122f28688612769565b155b156123125760405163075fd2b160e01b815260040160405180910390fd5b60045462010000900460ff168015612328575081155b15612346576040516303b167dd60e01b815260040160405180910390fd5b60026001600160a01b0387166000908152600b602052604090206004015460ff16600681111561237857612378613afb565b036123965760405163083a81f760e31b815260040160405180910390fd5b600454610100900460ff1680156123b9575060208101515115806123b957508051155b156123d75760405163c19e07c560e01b815260040160405180910390fd5b6040805160c0810190915260045460009190819060ff166123f857856123fb565b60015b151581526001600160a01b0388166020820152604081018590526060810184905260800160028152602001600190526001600160a01b038881166000908152600b602090815260409182902084518154868401516001600160a81b0319909116911515610100600160a81b031916919091176101009190951602939093178355908301516001830155606083015180516002840190815591810151939450849390919060038401906124ad90826143b8565b505050608082015160048201805460ff191660018360068111156124d3576124d3613afb565b021790555060a082015160048201805461ff0019166101008360068111156124fd576124fd613afb565b0217905550905050866001600160a01b03167fa197306e3dd5494a61a695381aa809a53b8e377a685e84e404a85d5a8da6cc628a8a6040516125409291906147e9565b60405180910390a250505050505092915050565b6001546040516329e40d4b60e01b81526000916001600160a01b037f000000000000000000000000000000000000000000000000000000000000000016916329e40d4b916125b89186906004019182526001600160a01b0316602082015260400190565b602060405180830381865afa1580156125d5573d6000803e3d6000fd5b505050506040513d601f19601f820116820180604052508101906108a691906141a6565b6126016136d5565b6001600160a01b038083166000908152600b6020908152604091829020825160c081018452815460ff8116151582526101009004909416848301526001810154848401528251808401909352600281018054845260038201805492946060870194909390840191906126729061416c565b80601f016020809104026020016040519081016040528092919081815260200182805461269e9061416c565b80156126eb5780601f106126c0576101008083540402835291602001916126eb565b820191906000526020600020905b8154815290600101906020018083116126ce57829003601f168201915b505050919092525050508152600482015460209091019060ff16600681111561271657612716613afb565b600681111561272757612727613afb565b81526020016004820160019054906101000a900460ff16600681111561274f5761274f613afb565b600681111561276057612760613afb565b90525092915050565b60075460405163dd93da4360e01b81526001600160a01b038481166004830152600092839291169063dd93da4390602401600060405180830381865afa1580156127b7573d6000803e3d6000fd5b505050506040513d6000823e601f3d908101601f191682016040526127df9190810190614813565b6007548151604051635e8a791560e01b815260048101919091526001600160a01b038681166024830152929350911690635e8a791590604401602060405180830381865afa158015612835573d6000803e3d6000fd5b505050506040513d601f19601f8201168201806040525081019061285991906141a6565b949350505050565b60005b600a548110156128e4576000600d6000846001600160a01b03166001600160a01b031681526020019081526020016000206003016000600a84815481106128ad576128ad6141c3565b60009182526020808320909101546001600160a01b03168352820192909252604001902055806128dc8161448d565b915050612864565b506001600160a01b0381166000908152600d60205260408120906129088282613730565b5060006001820181905560029091015550565b6001546040516329e40d4b60e01b815260048101919091526001600160a01b0382811660248301527f000000000000000000000000000000000000000000000000000000000000000016906329e40d4b90604401602060405180830381865afa15801561298c573d6000803e3d6000fd5b505050506040513d601f19601f820116820180604052508101906129b091906141a6565b6120d35760405163075fd2b160e01b815260040160405180910390fd5b604080518082019091526000808252602082015260006129ec846125f9565b6040805180820182526020808401516001600160a01b0316825291909201519082015291505092915050565b6001600160a01b0382166000908152600e602052604081205415612a57576001600160a01b0383166000908152600e60205260408120612a5791613730565b815160005b81811015612b7d576000848281518110612a7857612a786141c3565b6020026020010151905060006006811115612a9557612a95613afb565b81604001516006811115612aab57612aab613afb565b14612ac957604051635b2fe71d60e11b815260040160405180910390fd5b8051612ad590856144df565b6001600160a01b0387166000908152600e6020908152604082208054600181810183559184529282902085516005909402019283558482015180519184019182559182015193975084936002840190612b2e90826143b8565b505050604082015160038201805460ff19166001836006811115612b5457612b54613afb565b021790555060608201516004820190612b6d90826143b8565b505060019092019150612a5c9050565b5081670de0b6b3a764000014612ba6576040516397a1f28d60e01b815260040160405180910390fd5b6000846002600554604051602001612bc0939291906148d9565b60408051601f19818403018152908290526001546305d8703160e31b83529092506001600160a01b037f00000000000000000000000000000000000000000000000000000000000000001691632ec3818891612c209185906004016146cd565b600060405180830381600087803b158015612c3a57600080fd5b505af1158015612c4e573d6000803e3d6000fd5b5050604080516001600160a01b0389168152602081018690527fb000fb1507aac2465ccb4f6bd1b601c7053279005e9e9932c41946b35c84949b935001905060405180910390a15050505050565b6000805460ff19168215159081179091556040519081527fd94c9bc4d43c51d8dc345a016d8e3d994432fac68e72832e4cf3a616bd8efae09060200160405180910390a150565b6000612cee826125f9565b6080015192915050565b612d01826135c0565b805160048054602084015160408501511515620100000262ff0000199115156101000261ff00199515159590951661ffff19909316929092179390931792909216919091179055606081015160005b8151811015612e5657600a828281518110612d6d57612d6d6141c3565b6020908102919091018101515182546001810184556000938452919092200180546001600160a01b0319166001600160a01b039092169190911790558151829082908110612dbd57612dbd6141c3565b602002602001015160200151600c6000848481518110612ddf57612ddf6141c3565b6020026020010151600001516001600160a01b03166001600160a01b0316815260200190815260200160002081905550818181518110612e2157612e216141c3565b60200260200101516020015160056000828254612e3e91906144df565b90915550819050612e4e8161448d565b915050612d50565b507f00000000000000000000000000000000000000000000000000000000000000006001600160a01b0316635ab1bd536040518163ffffffff1660e01b8152600401602060405180830381865afa158015612eb5573d6000803e3d6000fd5b505050506040513d601f19601f82011682018060405250810190612ed99190614904565b600780546001600160a01b0319166001600160a01b03929092169190911790556108766001612c9c565b612f0b61360f565b6001600160a01b0381163014612f5b5760405162461bcd60e51b8152602060048201526015602482015274554e415554484f52495a454420616c6c6f6361746560581b6044820152606401610b4a565b600080600084806020019051810190612f749190614921565b6001600160a01b0383166000908152600b60209081526040808320600f9092529091205493965091945092509015612fbf576040516305ca31d360e51b815260040160405180910390fd5b6002600482015460ff166006811115612fda57612fda613afb565b14158015612ff957506002836006811115612ff757612ff7613afb565b145b156131945760015460405163068bcd8d60e01b81526000916001600160a01b037f0000000000000000000000000000000000000000000000000000000000000000169163068bcd8d916130529160040190815260200190565b600060405180830381865afa15801561306f573d6000803e3d6000fd5b505050506040513d6000823e601f3d908101601f191682016040526130979190810190614964565b905082600860008282546130ab91906144df565b909155505060025460085411156130d557604051638e81b16f60e01b815260040160405180910390fd5b6001820183905560048201805460ff191660029081179091556040517f94593b52aa436dd31a63e313045c2eb23d43eb2d6f5b4d7797b4432e7b2774909161311f9188919061457d565b60405180910390a1846001600160a01b03167f463ffc2cf8b1596445c417388ed30e53eb67cf6668cb2be7f0addf8a78c8441b8360010154836040015189604051613186939291909283526001600160a01b03918216602084015216604082015260600190565b60405180910390a25061321f565b6003600482015460ff1660068111156131af576131af613afb565b141580156131ce575060038360068111156131cc576131cc613afb565b145b1561321f5760048101805460ff191660039081179091556040517f94593b52aa436dd31a63e313045c2eb23d43eb2d6f5b4d7797b4432e7b277490916132169187919061457d565b60405180910390a15b505050506120a86001600355565b6001600160a01b038083166000908152600f6020908152604080832054600e8352818420600b8452828520835160c081018552815460ff811615158252610100900490971687860152600181015487850152835180850190945260028101805485526003820180549498939796939592946060870194840191906132b09061416c565b80601f01602080910402602001604051908101604052809291908181526020018280546132dc9061416c565b80156133295780601f106132fe57610100808354040283529160200191613329565b820191906000526020600020905b81548152906001019060200180831161330c57829003601f168201915b505050919092525050508152600482015460209091019060ff16600681111561335457613354613afb565b600681111561336557613365613afb565b81526020016004820160019054906101000a900460ff16600681111561338d5761338d613afb565b600681111561339e5761339e613afb565b81525050905060008284815481106133b8576133b86141c3565b9060005260206000209060050201905082805490508411156133ed57604051632f1f68e160e11b815260040160405180910390fd5b6002600382015460ff16600681111561340857613408613afb565b1461342657604051635b2fe71d60e11b815260040160405180910390fd5b6000670de0b6b3a76400008260000154846040015161344591906144a6565b61344f91906144bd565b905060007f00000000000000000000000000000000000000000000000000000000000000006001600160a01b031663068bcd8d6001546040518263ffffffff1660e01b81526004016134a391815260200190565b600060405180830381865afa1580156134c0573d6000803e3d6000fd5b505050506040513d6000823e601f3d908101601f191682016040526134e89190810190614964565b905081600260008282546134fc9190614a17565b925050819055506135168160400151856020015184613639565b6001600160a01b0388166000908152600f6020526040812080549161353a8361448d565b9091555050602080850151604080516001600160a01b039283168152928301859052898216908301528916907fb5b51454adfa840bd593658325a60a50b0216f12eb5d2937efe6cea935675b7d9060600160405180910390a25050505050505050565b60005460ff166121675760405163cfe7975b60e01b815260040160405180910390fd5b6135c861211e565b600154156135e95760405163439a74c960e01b815260040160405180910390fd5b8060000361360a57604051637fcce2a960e01b815260040160405180910390fd5b600155565b60026003540361363257604051633ee5aeb560e01b815260040160405180910390fd5b6002600355565b73eeeeeeeeeeeeeeeeeeeeeeeeeeeeeeeeeeeeeeed196001600160a01b03841601613668576108768282613673565b61087683838361368f565b60003860003884865af16120a85763b12d13eb6000526004601cfd5b816014528060345263a9059cbb60601b60005260206000604460106000875af13d1560016000511417166136cb576390b8ec186000526004601cfd5b6000603452505050565b6040518060c0016040528060001515815260200160006001600160a01b031681526020016000815260200161371d604051806040016040528060008152602001606081525090565b8152602001600081526020016000905290565b50805460008255600502906000526020600020908101906120d391905b80821115613794576000808255600182018181558161376f6002850182613798565b505060038201805460ff1916905561378b600483016000613798565b5060050161374d565b5090565b5080546137a49061416c565b6000825580601f106137b4575050565b601f0160209004906000526020600020908101906120d391905b8082111561379457600081556001016137ce565b634e487b7160e01b600052604160045260246000fd5b604051608081016001600160401b038111828210171561381a5761381a6137e2565b60405290565b604080519081016001600160401b038111828210171561381a5761381a6137e2565b60405160c081016001600160401b038111828210171561381a5761381a6137e2565b604051601f8201601f191681016001600160401b038111828210171561388c5761388c6137e2565b604052919050565b60006001600160401b038211156138ad576138ad6137e2565b5060051b60200190565b6001600160a01b03811681146120d357600080fd5b600082601f8301126138dd57600080fd5b813560206138f26138ed83613894565b613864565b82815260059290921b8401810191818101908684111561391157600080fd5b8286015b84811015613935578035613928816138b7565b8352918301918301613915565b509695505050505050565b60006001600160401b03821115613959576139596137e2565b50601f01601f191660200190565b600082601f83011261397857600080fd5b81356139866138ed82613940565b81815284602083860101111561399b57600080fd5b816020850160208301376000918101602001919091529392505050565b6000806000606084860312156139cd57600080fd5b83356001600160401b03808211156139e457600080fd5b6139f0878388016138cc565b94506020860135915080821115613a0657600080fd5b50613a1386828701613967565b9250506040840135613a24816138b7565b809150509250925092565b60008060408385031215613a4257600080fd5b8235613a4d816138b7565b91506020830135613a5d816138b7565b809150509250929050565b600060208284031215613a7a57600080fd5b8135613a85816138b7565b9392505050565b60005b83811015613aa7578181015183820152602001613a8f565b50506000910152565b60008151808452613ac8816020860160208601613a8c565b601f01601f19169290920160200192915050565b8051825260006020820151604060208501526128596040850182613ab0565b634e487b7160e01b600052602160045260246000fd5b60078110613b2f57634e487b7160e01b600052602160045260246000fd5b9052565b60006020808301818452808551808352604092508286019150828160051b87010184880160005b83811015613bca57603f19898403018552815160808151855288820151818a870152613b8882870182613adc565b91505087820151613b9b89870182613b11565b5060608083015192508582038187015250613bb68183613ab0565b968901969450505090860190600101613b5a565b509098975050505050505050565b60008060408385031215613beb57600080fd5b50508035926020909101359150565b60008060408385031215613c0d57600080fd5b82356001600160401b03811115613c2357600080fd5b613c2f85828601613967565b9250506020830135613a5d816138b7565b600080600060608486031215613c5557600080fd5b8335613c60816138b7565b92506020840135915060408401356001600160401b03811115613c8257600080fd5b840160408187031215613a2457600080fd5b600060208284031215613ca657600080fd5b5035919050565b60008060408385031215613cc057600080fd5b823591506020830135613a5d816138b7565b6020815281511515602082015260018060a01b036020830151166040820152604082015160608201526000606083015160c06080840152613d1660e0840182613adc565b90506080840151613d2a60a0850182613b11565b5060a0840151613d3d60c0850182613b11565b509392505050565b600781106120d357600080fd5b8035613d5d81613d45565b919050565b60008060408385031215613d7557600080fd5b613d7f83356138b7565b823591506001600160401b038060208501351115613d9c57600080fd5b6020840135840185601f820112613db257600080fd5b613dbf6138ed8235613894565b81358082526020808301929160051b840101881015613ddd57600080fd5b602083015b6020843560051b850101811015613ede578481351115613e0157600080fd5b80358401601f196080828c0382011215613e1a57600080fd5b613e226137f8565b602083013581528760408401351115613e3a57600080fd5b60408301358301604083828f03011215613e5357600080fd5b613e5b613820565b9250602081013583528860408201351115613e7557600080fd5b613e888d60206040840135840101613967565b602084015250816020820152613ea060608401613d52565b60408201528760808401351115613eb657600080fd5b613ec98c60206080860135860101613967565b60608201528552505060209283019201613de2565b50809450505050509250929050565b600080600060608486031215613f0257600080fd5b8335613f0d816138b7565b9250602084013591506040840135613a2481613d45565b60008060408385031215613f3757600080fd5b82356001600160401b0380821115613f4e57600080fd5b613f5a868387016138cc565b9350602091508185013581811115613f7157600080fd5b8501601f81018713613f8257600080fd5b8035613f906138ed82613894565b81815260059190911b82018401908481019089831115613faf57600080fd5b8584015b83811015613fe757803586811115613fcb5760008081fd5b613fd98c8983890101613967565b845250918601918601613fb3565b508096505050505050509250929050565b602080825282518282018190526000919060409081850190868401855b8281101561404357815180516001600160a01b03168552860151868501529284019290850190600101614015565b5091979650505050505050565b6000806040838503121561406357600080fd5b823561406e816138b7565b91506020830135613a5d81613d45565b80151581146120d357600080fd5b60006020828403121561409e57600080fd5b8135613a858161407e565b600080604083850312156140bc57600080fd5b82356140c7816138b7565b946020939093013593505050565b8481526080602082015260006140ee6080830186613adc565b6140fb6040840186613b11565b828103606084015261410d8185613ab0565b979650505050505050565b602081016108a68284613b11565b6000806040838503121561413957600080fd5b8235915060208301356001600160401b0381111561415657600080fd5b61416285828601613967565b9150509250929050565b600181811c9082168061418057607f821691505b6020821081036141a057634e487b7160e01b600052602260045260246000fd5b50919050565b6000602082840312156141b857600080fd5b8151613a858161407e565b634e487b7160e01b600052603260045260246000fd5b601f82111561087657600081815260208120601f850160051c810160208610156142005750805b601f850160051c820191505b8181101561421f5782815560010161420c565b505050505050565b813581556001808201602080850135601e1986360301811261424857600080fd5b850180356001600160401b0381111561426057600080fd5b803603838301131561427157600080fd5b6142858161427f865461416c565b866141d9565b6000601f8211600181146142bb57600083156142a357508382018501355b600019600385901b1c1916600184901b178655614314565b600086815260209020601f19841690835b828110156142eb578685018801358255938701939089019087016142cc565b508482101561430a5760001960f88660031b161c198785880101351681555b50508683881b0186555b505050505050505050565b60018060a01b0384168152826020820152606060408201528135606082015260006020830135601e1984360301811261435757600080fd5b83016020810190356001600160401b0381111561437357600080fd5b80360382131561438257600080fd5b604060808501528060a0850152808260c0860137600060c0828601015260c0601f19601f83011685010192505050949350505050565b81516001600160401b038111156143d1576143d16137e2565b6143e5816143df845461416c565b846141d9565b602080601f83116001811461441a57600084156144025750858301515b600019600386901b1c1916600185901b17855561421f565b600085815260208120601f198616915b828110156144495788860151825594840194600190910190840161442a565b50858210156144675787850151600019600388901b60f8161c191681555b5050505050600190811b01905550565b634e487b7160e01b600052601160045260246000fd5b60006001820161449f5761449f614477565b5060010190565b80820281158282048414176108a6576108a6614477565b6000826144da57634e487b7160e01b600052601260045260246000fd5b500490565b808201808211156108a6576108a6614477565b6000606082018483526020606081850152818551808452608086019150828701935060005b8181101561453c5784516001600160a01b031683529383019391830191600101614517565b505084810360408601526000815281810193505050509392505050565b6001600160a01b038416815260208101839052606081016128596040830184613b11565b6001600160a01b038316815260408101613a856020830184613b11565b8051613d5d816138b7565b600060208083850312156145b857600080fd5b82516001600160401b03808211156145cf57600080fd5b90840190608082870312156145e357600080fd5b6145eb6137f8565b82516145f68161407e565b8152828401516146058161407e565b818501526040838101516146188161407e565b8282015260608401518381111561462e57600080fd5b80850194505087601f85011261464357600080fd5b835192506146536138ed84613894565b83815260069390931b8401850192858101908985111561467257600080fd5b948601945b848610156146bb5782868b03121561468f5760008081fd5b614697613820565b86516146a2816138b7565b8152868801518882015282529482019490860190614677565b60608401525090979650505050505050565b8281526040602082015260006128596040830184613ab0565b600082601f8301126146f757600080fd5b81516147056138ed82613940565b81815284602083860101111561471a57600080fd5b612859826020830160208701613a8c565b60006040828403121561473d57600080fd5b614745613820565b90508151815260208201516001600160401b0381111561476457600080fd5b614770848285016146e6565b60208301525092915050565b6000806000806080858703121561479257600080fd5b845161479d816138b7565b60208601519094506147ae816138b7565b6040860151606087015191945092506001600160401b038111156147d157600080fd5b6147dd8782880161472b565b91505092959194509250565b6040815260006147fc6040830185613ab0565b905060018060a01b03831660208301529392505050565b60006020828403121561482557600080fd5b81516001600160401b038082111561483c57600080fd5b9083019060c0828603121561485057600080fd5b614858613842565b825181526020830151602082015260408301518281111561487857600080fd5b614884878286016146e6565b60408301525060608301518281111561489c57600080fd5b6148a88782860161472b565b6060830152506148ba6080840161459a565b60808201526148cb60a0840161459a565b60a082015295945050505050565b6001600160a01b0384168152606081016148f66020830185613b11565b826040830152949350505050565b60006020828403121561491657600080fd5b8151613a85816138b7565b60008060006060848603121561493657600080fd5b8351614941816138b7565b602085015190935061495281613d45565b80925050604084015190509250925092565b60006020828403121561497657600080fd5b81516001600160401b038082111561498d57600080fd5b9083019060c082860312156149a157600080fd5b6149a9613842565b8251815260208301516149bb816138b7565b602082015260408301516149ce816138b7565b60408201526060830151828111156149e557600080fd5b6149f18782860161472b565b6060830152506080830151608082015260a083015160a082015280935050505092915050565b818103818111156108a6576108a661447756fea2646970667358221220c47225ec83522ca6982d7a02abcc5a8a43d78aa9fd864d78f3b3abb19c6294ab64736f6c63430008140033","opcodes":"PUSH1 0xC0 PUSH1 0x40 MSTORE PUSH1 0x46 PUSH1 0x6 SSTORE CALLVALUE DUP1 ISZERO PUSH3 0x16 JUMPI PUSH1 0x0 DUP1 REVERT JUMPDEST POP PUSH1 0x40 MLOAD PUSH3 0x4C92 CODESIZE SUB DUP1 PUSH3 0x4C92 DUP4 CODECOPY DUP2 ADD PUSH1 0x40 DUP2 SWAP1 MSTORE PUSH3 0x39 SWAP2 PUSH3 0xC4 JUMP JUMPDEST PUSH1 0x1 PUSH1 0x1 PUSH1 0xA0 SHL SUB DUP3 AND PUSH1 0x80 MSTORE PUSH1 0x40 MLOAD DUP3 SWAP1 DUP3 SWAP1 PUSH3 0x5D SWAP1 DUP3 SWAP1 PUSH1 0x20 ADD PUSH3 0x19F JUMP JUMPDEST PUSH1 0x40 DUP1 MLOAD PUSH1 0x1F NOT DUP2 DUP5 SUB ADD DUP2 MSTORE SWAP2 SWAP1 MSTORE DUP1 MLOAD PUSH1 0x20 SWAP1 SWAP2 ADD KECCAK256 PUSH1 0xA0 MSTORE POP POP PUSH1 0x1 PUSH1 0x3 SSTORE POP PUSH3 0x1D4 SWAP1 POP JUMP JUMPDEST PUSH4 0x4E487B71 PUSH1 0xE0 SHL PUSH1 0x0 MSTORE PUSH1 0x41 PUSH1 0x4 MSTORE PUSH1 0x24 PUSH1 0x0 REVERT JUMPDEST PUSH1 0x0 JUMPDEST DUP4 DUP2 LT ISZERO PUSH3 0xBB JUMPI DUP2 DUP2 ADD MLOAD DUP4 DUP3 ADD MSTORE PUSH1 0x20 ADD PUSH3 0xA1 JUMP JUMPDEST POP POP PUSH1 0x0 SWAP2 ADD MSTORE JUMP JUMPDEST PUSH1 0x0 DUP1 PUSH1 0x40 DUP4 DUP6 SUB SLT ISZERO PUSH3 0xD8 JUMPI PUSH1 0x0 DUP1 REVERT JUMPDEST DUP3 MLOAD PUSH1 0x1 PUSH1 0x1 PUSH1 0xA0 SHL SUB DUP2 AND DUP2 EQ PUSH3 0xF0 JUMPI PUSH1 0x0 DUP1 REVERT JUMPDEST PUSH1 0x20 DUP5 ADD MLOAD SWAP1 SWAP3 POP PUSH1 0x1 PUSH1 0x1 PUSH1 0x40 SHL SUB DUP1 DUP3 GT ISZERO PUSH3 0x10E JUMPI PUSH1 0x0 DUP1 REVERT JUMPDEST DUP2 DUP6 ADD SWAP2 POP DUP6 PUSH1 0x1F DUP4 ADD SLT PUSH3 0x123 JUMPI PUSH1 0x0 DUP1 REVERT JUMPDEST DUP2 MLOAD DUP2 DUP2 GT ISZERO PUSH3 0x138 JUMPI PUSH3 0x138 PUSH3 0x88 JUMP JUMPDEST PUSH1 0x40 MLOAD PUSH1 0x1F DUP3 ADD PUSH1 0x1F NOT SWAP1 DUP2 AND PUSH1 0x3F ADD AND DUP2 ADD SWAP1 DUP4 DUP3 GT DUP2 DUP4 LT OR ISZERO PUSH3 0x163 JUMPI PUSH3 0x163 PUSH3 0x88 JUMP JUMPDEST DUP2 PUSH1 0x40 MSTORE DUP3 DUP2 MSTORE DUP9 PUSH1 0x20 DUP5 DUP8 ADD ADD GT ISZERO PUSH3 0x17D JUMPI PUSH1 0x0 DUP1 REVERT JUMPDEST PUSH3 0x190 DUP4 PUSH1 0x20 DUP4 ADD PUSH1 0x20 DUP9 ADD PUSH3 0x9E JUMP JUMPDEST DUP1 SWAP6 POP POP POP POP POP POP SWAP3 POP SWAP3 SWAP1 POP JUMP JUMPDEST PUSH1 0x20 DUP2 MSTORE PUSH1 0x0 DUP3 MLOAD DUP1 PUSH1 0x20 DUP5 ADD MSTORE PUSH3 0x1C0 DUP2 PUSH1 0x40 DUP6 ADD PUSH1 0x20 DUP8 ADD PUSH3 0x9E JUMP JUMPDEST PUSH1 0x1F ADD PUSH1 0x1F NOT AND SWAP2 SWAP1 SWAP2 ADD PUSH1 0x40 ADD SWAP3 SWAP2 POP POP JUMP JUMPDEST PUSH1 0x80 MLOAD PUSH1 0xA0 MLOAD PUSH2 0x4A60 PUSH3 0x232 PUSH1 0x0 CODECOPY PUSH1 0x0 PUSH2 0x440 ADD MSTORE PUSH1 0x0 DUP2 DUP2 PUSH2 0x27C ADD MSTORE DUP2 DUP2 PUSH2 0x1625 ADD MSTORE DUP2 DUP2 PUSH2 0x2129 ADD MSTORE DUP2 DUP2 PUSH2 0x2571 ADD MSTORE DUP2 DUP2 PUSH2 0x2945 ADD MSTORE DUP2 DUP2 PUSH2 0x2BEB ADD MSTORE DUP2 DUP2 PUSH2 0x2E59 ADD MSTORE DUP2 DUP2 PUSH2 0x301B ADD MSTORE PUSH2 0x3455 ADD MSTORE PUSH2 0x4A60 PUSH1 0x0 RETURN INVALID PUSH1 0x80 PUSH1 0x40 MSTORE PUSH1 0x4 CALLDATASIZE LT PUSH2 0x23F JUMPI PUSH1 0x0 CALLDATALOAD PUSH1 0xE0 SHR DUP1 PUSH4 0x9FFAA875 GT PUSH2 0x12E JUMPI DUP1 PUSH4 0xDF868ED3 GT PUSH2 0xAB JUMPI DUP1 PUSH4 0xEDD146CC GT PUSH2 0x6F JUMPI DUP1 PUSH4 0xEDD146CC EQ PUSH2 0x7B8 JUMPI DUP1 PUSH4 0xEE120300 EQ PUSH2 0x7D8 JUMPI DUP1 PUSH4 0xEF2920FC EQ PUSH2 0x808 JUMPI DUP1 PUSH4 0xF5B0DFB7 EQ PUSH2 0x81B JUMPI DUP1 PUSH4 0xF83067E7 EQ PUSH2 0x83B JUMPI PUSH1 0x0 DUP1 REVERT JUMPDEST DUP1 PUSH4 0xDF868ED3 EQ PUSH2 0x6F7 JUMPI DUP1 PUSH4 0xE2372B58 EQ PUSH2 0x70F JUMPI DUP1 PUSH4 0xE477B6BD EQ PUSH2 0x73C JUMPI DUP1 PUSH4 0xE8EEB806 EQ PUSH2 0x775 JUMPI DUP1 PUSH4 0xEB11AF93 EQ PUSH2 0x78B JUMPI PUSH1 0x0 DUP1 REVERT JUMPDEST DUP1 PUSH4 0xB5F620CE GT PUSH2 0xF2 JUMPI DUP1 PUSH4 0xB5F620CE EQ PUSH2 0x622 JUMPI DUP1 PUSH4 0xC1AAF44A EQ PUSH2 0x642 JUMPI DUP1 PUSH4 0xC7A892BF EQ PUSH2 0x66F JUMPI DUP1 PUSH4 0xCB0E85A6 EQ PUSH2 0x69F JUMPI DUP1 PUSH4 0xCB2415FB EQ PUSH2 0x6BE JUMPI PUSH1 0x0 DUP1 REVERT JUMPDEST DUP1 PUSH4 0x9FFAA875 EQ PUSH2 0x573 JUMPI DUP1 PUSH4 0xA0CF0AEA EQ PUSH2 0x593 JUMPI DUP1 PUSH4 0xA647D23E EQ PUSH2 0x5BB JUMPI DUP1 PUSH4 0xB2B878D0 EQ PUSH2 0x5D5 JUMPI DUP1 PUSH4 0xB3EAE7AB EQ PUSH2 0x602 JUMPI PUSH1 0x0 DUP1 REVERT JUMPDEST DUP1 PUSH4 0x3BF3577D GT PUSH2 0x1BC JUMPI DUP1 PUSH4 0x4ED2859E GT PUSH2 0x180 JUMPI DUP1 PUSH4 0x4ED2859E EQ PUSH2 0x4A9 JUMPI DUP1 PUSH4 0x605E1C66 EQ PUSH2 0x4BF JUMPI DUP1 PUSH4 0x62812A39 EQ PUSH2 0x506 JUMPI DUP1 PUSH4 0x78F0184D EQ PUSH2 0x533 JUMPI DUP1 PUSH4 0x9BE2CCF5 EQ PUSH2 0x553 JUMPI PUSH1 0x0 DUP1 REVERT JUMPDEST DUP1 PUSH4 0x3BF3577D EQ PUSH2 0x3C8 JUMPI DUP1 PUSH4 0x404E73E2 EQ PUSH2 0x3E8 JUMPI DUP1 PUSH4 0x42FDA9C7 EQ PUSH2 0x431 JUMPI DUP1 PUSH4 0x4AB4BA42 EQ PUSH2 0x464 JUMPI DUP1 PUSH4 0x4D31D087 EQ PUSH2 0x479 JUMPI PUSH1 0x0 DUP1 REVERT JUMPDEST DUP1 PUSH4 0x2A835B4B GT PUSH2 0x203 JUMPI DUP1 PUSH4 0x2A835B4B EQ PUSH2 0x32A JUMPI DUP1 PUSH4 0x2BBE0CAE EQ PUSH2 0x34A JUMPI DUP1 PUSH4 0x2FF0E6C4 EQ PUSH2 0x35D JUMPI DUP1 PUSH4 0x36592C0E EQ PUSH2 0x393 JUMPI DUP1 PUSH4 0x38FFF2D0 EQ PUSH2 0x3B3 JUMPI PUSH1 0x0 DUP1 REVERT JUMPDEST DUP1 PUSH4 0xA6F0EE9 EQ PUSH2 0x24B JUMPI DUP1 PUSH4 0x15CC481E EQ PUSH2 0x26D JUMPI DUP1 PUSH4 0x18160DDD EQ PUSH2 0x2B9 JUMPI DUP1 PUSH4 0x197EA814 EQ PUSH2 0x2DD JUMPI DUP1 PUSH4 0x22A4E42D EQ PUSH2 0x2FD JUMPI PUSH1 0x0 DUP1 REVERT JUMPDEST CALLDATASIZE PUSH2 0x246 JUMPI STOP JUMPDEST PUSH1 0x0 DUP1 REVERT JUMPDEST CALLVALUE DUP1 ISZERO PUSH2 0x257 JUMPI PUSH1 0x0 DUP1 REVERT JUMPDEST POP PUSH2 0x26B PUSH2 0x266 CALLDATASIZE PUSH1 0x4 PUSH2 0x39B8 JUMP JUMPDEST PUSH2 0x85B JUMP JUMPDEST STOP JUMPDEST CALLVALUE DUP1 ISZERO PUSH2 0x279 JUMPI PUSH1 0x0 DUP1 REVERT JUMPDEST POP PUSH32 0x0 JUMPDEST PUSH1 0x40 MLOAD PUSH1 0x1 PUSH1 0x1 PUSH1 0xA0 SHL SUB SWAP1 SWAP2 AND DUP2 MSTORE PUSH1 0x20 ADD JUMPDEST PUSH1 0x40 MLOAD DUP1 SWAP2 SUB SWAP1 RETURN JUMPDEST CALLVALUE DUP1 ISZERO PUSH2 0x2C5 JUMPI PUSH1 0x0 DUP1 REVERT JUMPDEST POP PUSH2 0x2CF PUSH1 0x5 SLOAD DUP2 JUMP JUMPDEST PUSH1 0x40 MLOAD SWAP1 DUP2 MSTORE PUSH1 0x20 ADD PUSH2 0x2B0 JUMP JUMPDEST CALLVALUE DUP1 ISZERO PUSH2 0x2E9 JUMPI PUSH1 0x0 DUP1 REVERT JUMPDEST POP PUSH2 0x2CF PUSH2 0x2F8 CALLDATASIZE PUSH1 0x4 PUSH2 0x3A2F JUMP JUMPDEST PUSH2 0x87B JUMP JUMPDEST CALLVALUE DUP1 ISZERO PUSH2 0x309 JUMPI PUSH1 0x0 DUP1 REVERT JUMPDEST POP PUSH2 0x31D PUSH2 0x318 CALLDATASIZE PUSH1 0x4 PUSH2 0x3A68 JUMP JUMPDEST PUSH2 0x8AC JUMP JUMPDEST PUSH1 0x40 MLOAD PUSH2 0x2B0 SWAP2 SWAP1 PUSH2 0x3B33 JUMP JUMPDEST CALLVALUE DUP1 ISZERO PUSH2 0x336 JUMPI PUSH1 0x0 DUP1 REVERT JUMPDEST POP PUSH2 0x26B PUSH2 0x345 CALLDATASIZE PUSH1 0x4 PUSH2 0x3BD8 JUMP JUMPDEST PUSH2 0xAA0 JUMP JUMPDEST PUSH2 0x29C PUSH2 0x358 CALLDATASIZE PUSH1 0x4 PUSH2 0x3BFA JUMP JUMPDEST PUSH2 0xB9F JUMP JUMPDEST CALLVALUE DUP1 ISZERO PUSH2 0x369 JUMPI PUSH1 0x0 DUP1 REVERT JUMPDEST POP PUSH2 0x2CF PUSH2 0x378 CALLDATASIZE PUSH1 0x4 PUSH2 0x3A68 JUMP JUMPDEST PUSH1 0x1 PUSH1 0x1 PUSH1 0xA0 SHL SUB AND PUSH1 0x0 SWAP1 DUP2 MSTORE PUSH1 0xF PUSH1 0x20 MSTORE PUSH1 0x40 SWAP1 KECCAK256 SLOAD SWAP1 JUMP JUMPDEST CALLVALUE DUP1 ISZERO PUSH2 0x39F JUMPI PUSH1 0x0 DUP1 REVERT JUMPDEST POP PUSH2 0x31D PUSH2 0x3AE CALLDATASIZE PUSH1 0x4 PUSH2 0x3A68 JUMP JUMPDEST PUSH2 0xBC2 JUMP JUMPDEST CALLVALUE DUP1 ISZERO PUSH2 0x3BF JUMPI PUSH1 0x0 DUP1 REVERT JUMPDEST POP PUSH1 0x1 SLOAD PUSH2 0x2CF JUMP JUMPDEST CALLVALUE DUP1 ISZERO PUSH2 0x3D4 JUMPI PUSH1 0x0 DUP1 REVERT JUMPDEST POP PUSH2 0x26B PUSH2 0x3E3 CALLDATASIZE PUSH1 0x4 PUSH2 0x3C40 JUMP JUMPDEST PUSH2 0xDAB JUMP JUMPDEST CALLVALUE DUP1 ISZERO PUSH2 0x3F4 JUMPI PUSH1 0x0 DUP1 REVERT JUMPDEST POP PUSH2 0x41C PUSH2 0x403 CALLDATASIZE PUSH1 0x4 PUSH2 0x3C94 JUMP JUMPDEST PUSH1 0x10 PUSH1 0x20 MSTORE PUSH1 0x0 SWAP1 DUP2 MSTORE PUSH1 0x40 SWAP1 KECCAK256 DUP1 SLOAD PUSH1 0x1 SWAP1 SWAP2 ADD SLOAD DUP3 JUMP JUMPDEST PUSH1 0x40 DUP1 MLOAD SWAP3 DUP4 MSTORE PUSH1 0x20 DUP4 ADD SWAP2 SWAP1 SWAP2 MSTORE ADD PUSH2 0x2B0 JUMP JUMPDEST CALLVALUE DUP1 ISZERO PUSH2 0x43D JUMPI PUSH1 0x0 DUP1 REVERT JUMPDEST POP PUSH32 0x0 PUSH2 0x2CF JUMP JUMPDEST CALLVALUE DUP1 ISZERO PUSH2 0x470 JUMPI PUSH1 0x0 DUP1 REVERT JUMPDEST POP PUSH1 0x2 SLOAD PUSH2 0x2CF JUMP JUMPDEST CALLVALUE DUP1 ISZERO PUSH2 0x485 JUMPI PUSH1 0x0 DUP1 REVERT JUMPDEST POP PUSH2 0x499 PUSH2 0x494 CALLDATASIZE PUSH1 0x4 PUSH2 0x3A68 JUMP JUMPDEST PUSH2 0x106C JUMP JUMPDEST PUSH1 0x40 MLOAD SWAP1 ISZERO ISZERO DUP2 MSTORE PUSH1 0x20 ADD PUSH2 0x2B0 JUMP JUMPDEST CALLVALUE DUP1 ISZERO PUSH2 0x4B5 JUMPI PUSH1 0x0 DUP1 REVERT JUMPDEST POP PUSH2 0x2CF PUSH1 0x6 SLOAD DUP2 JUMP JUMPDEST CALLVALUE DUP1 ISZERO PUSH2 0x4CB JUMPI PUSH1 0x0 DUP1 REVERT JUMPDEST POP PUSH2 0x2CF PUSH2 0x4DA CALLDATASIZE PUSH1 0x4 PUSH2 0x3CAD JUMP JUMPDEST PUSH1 0x0 DUP3 DUP2 MSTORE PUSH1 0x10 PUSH1 0x20 SWAP1 DUP2 MSTORE PUSH1 0x40 DUP1 DUP4 KECCAK256 PUSH1 0x1 PUSH1 0x1 PUSH1 0xA0 SHL SUB DUP6 AND DUP5 MSTORE PUSH1 0x2 ADD SWAP1 SWAP2 MSTORE SWAP1 KECCAK256 SLOAD SWAP3 SWAP2 POP POP JUMP JUMPDEST CALLVALUE DUP1 ISZERO PUSH2 0x512 JUMPI PUSH1 0x0 DUP1 REVERT JUMPDEST POP PUSH2 0x526 PUSH2 0x521 CALLDATASIZE PUSH1 0x4 PUSH2 0x3A68 JUMP JUMPDEST PUSH2 0x1077 JUMP JUMPDEST PUSH1 0x40 MLOAD PUSH2 0x2B0 SWAP2 SWAP1 PUSH2 0x3CD2 JUMP JUMPDEST CALLVALUE DUP1 ISZERO PUSH2 0x53F JUMPI PUSH1 0x0 DUP1 REVERT JUMPDEST POP PUSH2 0x26B PUSH2 0x54E CALLDATASIZE PUSH1 0x4 PUSH2 0x3D62 JUMP JUMPDEST PUSH2 0x1088 JUMP JUMPDEST CALLVALUE DUP1 ISZERO PUSH2 0x55F JUMPI PUSH1 0x0 DUP1 REVERT JUMPDEST POP PUSH1 0x4 SLOAD PUSH2 0x499 SWAP1 PUSH3 0x10000 SWAP1 DIV PUSH1 0xFF AND DUP2 JUMP JUMPDEST CALLVALUE DUP1 ISZERO PUSH2 0x57F JUMPI PUSH1 0x0 DUP1 REVERT JUMPDEST POP PUSH2 0x26B PUSH2 0x58E CALLDATASIZE PUSH1 0x4 PUSH2 0x3EED JUMP JUMPDEST PUSH2 0x1284 JUMP JUMPDEST CALLVALUE DUP1 ISZERO PUSH2 0x59F JUMPI PUSH1 0x0 DUP1 REVERT JUMPDEST POP PUSH2 0x29C PUSH20 0xEEEEEEEEEEEEEEEEEEEEEEEEEEEEEEEEEEEEEEEE DUP2 JUMP JUMPDEST CALLVALUE DUP1 ISZERO PUSH2 0x5C7 JUMPI PUSH1 0x0 DUP1 REVERT JUMPDEST POP PUSH1 0x4 SLOAD PUSH2 0x499 SWAP1 PUSH1 0xFF AND DUP2 JUMP JUMPDEST CALLVALUE DUP1 ISZERO PUSH2 0x5E1 JUMPI PUSH1 0x0 DUP1 REVERT JUMPDEST POP PUSH2 0x5F5 PUSH2 0x5F0 CALLDATASIZE PUSH1 0x4 PUSH2 0x3F24 JUMP JUMPDEST PUSH2 0x185A JUMP JUMPDEST PUSH1 0x40 MLOAD PUSH2 0x2B0 SWAP2 SWAP1 PUSH2 0x3FF8 JUMP JUMPDEST CALLVALUE DUP1 ISZERO PUSH2 0x60E JUMPI PUSH1 0x0 DUP1 REVERT JUMPDEST POP PUSH2 0x26B PUSH2 0x61D CALLDATASIZE PUSH1 0x4 PUSH2 0x4050 JUMP JUMPDEST PUSH2 0x1958 JUMP JUMPDEST CALLVALUE DUP1 ISZERO PUSH2 0x62E JUMPI PUSH1 0x0 DUP1 REVERT JUMPDEST POP PUSH2 0x26B PUSH2 0x63D CALLDATASIZE PUSH1 0x4 PUSH2 0x408C JUMP JUMPDEST PUSH2 0x1E55 JUMP JUMPDEST CALLVALUE DUP1 ISZERO PUSH2 0x64E JUMPI PUSH1 0x0 DUP1 REVERT JUMPDEST POP PUSH2 0x2CF PUSH2 0x65D CALLDATASIZE PUSH1 0x4 PUSH2 0x3C94 JUMP JUMPDEST PUSH1 0x0 SWAP1 DUP2 MSTORE PUSH1 0x10 PUSH1 0x20 MSTORE PUSH1 0x40 SWAP1 KECCAK256 SLOAD SWAP1 JUMP JUMPDEST CALLVALUE DUP1 ISZERO PUSH2 0x67B JUMPI PUSH1 0x0 DUP1 REVERT JUMPDEST POP PUSH2 0x68F PUSH2 0x68A CALLDATASIZE PUSH1 0x4 PUSH2 0x40A9 JUMP JUMPDEST PUSH2 0x1EA1 JUMP JUMPDEST PUSH1 0x40 MLOAD PUSH2 0x2B0 SWAP5 SWAP4 SWAP3 SWAP2 SWAP1 PUSH2 0x40D5 JUMP JUMPDEST CALLVALUE DUP1 ISZERO PUSH2 0x6AB JUMPI PUSH1 0x0 DUP1 REVERT JUMPDEST POP PUSH1 0x4 SLOAD PUSH2 0x499 SWAP1 PUSH2 0x100 SWAP1 DIV PUSH1 0xFF AND DUP2 JUMP JUMPDEST CALLVALUE DUP1 ISZERO PUSH2 0x6CA JUMPI PUSH1 0x0 DUP1 REVERT JUMPDEST POP PUSH2 0x2CF PUSH2 0x6D9 CALLDATASIZE PUSH1 0x4 PUSH2 0x3A68 JUMP JUMPDEST PUSH1 0x1 PUSH1 0x1 PUSH1 0xA0 SHL SUB AND PUSH1 0x0 SWAP1 DUP2 MSTORE PUSH1 0xD PUSH1 0x20 MSTORE PUSH1 0x40 SWAP1 KECCAK256 PUSH1 0x2 ADD SLOAD SWAP1 JUMP JUMPDEST CALLVALUE DUP1 ISZERO PUSH2 0x703 JUMPI PUSH1 0x0 DUP1 REVERT JUMPDEST POP PUSH1 0x0 SLOAD PUSH1 0xFF AND PUSH2 0x499 JUMP JUMPDEST CALLVALUE DUP1 ISZERO PUSH2 0x71B JUMPI PUSH1 0x0 DUP1 REVERT JUMPDEST POP PUSH2 0x2CF PUSH2 0x72A CALLDATASIZE PUSH1 0x4 PUSH2 0x3A68 JUMP JUMPDEST PUSH1 0xF PUSH1 0x20 MSTORE PUSH1 0x0 SWAP1 DUP2 MSTORE PUSH1 0x40 SWAP1 KECCAK256 SLOAD DUP2 JUMP JUMPDEST CALLVALUE DUP1 ISZERO PUSH2 0x748 JUMPI PUSH1 0x0 DUP1 REVERT JUMPDEST POP PUSH2 0x2CF PUSH2 0x757 CALLDATASIZE PUSH1 0x4 PUSH2 0x3A68 JUMP JUMPDEST PUSH1 0x1 PUSH1 0x1 PUSH1 0xA0 SHL SUB AND PUSH1 0x0 SWAP1 DUP2 MSTORE PUSH1 0xD PUSH1 0x20 MSTORE PUSH1 0x40 SWAP1 KECCAK256 PUSH1 0x1 ADD SLOAD SWAP1 JUMP JUMPDEST CALLVALUE DUP1 ISZERO PUSH2 0x781 JUMPI PUSH1 0x0 DUP1 REVERT JUMPDEST POP PUSH2 0x2CF PUSH1 0x8 SLOAD DUP2 JUMP JUMPDEST CALLVALUE DUP1 ISZERO PUSH2 0x797 JUMPI PUSH1 0x0 DUP1 REVERT JUMPDEST POP PUSH2 0x7AB PUSH2 0x7A6 CALLDATASIZE PUSH1 0x4 PUSH2 0x3A68 JUMP JUMPDEST PUSH2 0x2023 JUMP JUMPDEST PUSH1 0x40 MLOAD PUSH2 0x2B0 SWAP2 SWAP1 PUSH2 0x4118 JUMP JUMPDEST CALLVALUE DUP1 ISZERO PUSH2 0x7C4 JUMPI PUSH1 0x0 DUP1 REVERT JUMPDEST POP PUSH2 0x26B PUSH2 0x7D3 CALLDATASIZE PUSH1 0x4 PUSH2 0x4126 JUMP JUMPDEST PUSH2 0x202E JUMP JUMPDEST CALLVALUE DUP1 ISZERO PUSH2 0x7E4 JUMPI PUSH1 0x0 DUP1 REVERT JUMPDEST POP PUSH2 0x2CF PUSH2 0x7F3 CALLDATASIZE PUSH1 0x4 PUSH2 0x3C94 JUMP JUMPDEST PUSH1 0x0 SWAP1 DUP2 MSTORE PUSH1 0x10 PUSH1 0x20 MSTORE PUSH1 0x40 SWAP1 KECCAK256 PUSH1 0x1 ADD SLOAD SWAP1 JUMP JUMPDEST PUSH2 0x26B PUSH2 0x816 CALLDATASIZE PUSH1 0x4 PUSH2 0x3BFA JUMP JUMPDEST PUSH2 0x208E JUMP JUMPDEST CALLVALUE DUP1 ISZERO PUSH2 0x827 JUMPI PUSH1 0x0 DUP1 REVERT JUMPDEST POP PUSH2 0x26B PUSH2 0x836 CALLDATASIZE PUSH1 0x4 PUSH2 0x3C94 JUMP JUMPDEST PUSH2 0x20AC JUMP JUMPDEST CALLVALUE DUP1 ISZERO PUSH2 0x847 JUMPI PUSH1 0x0 DUP1 REVERT JUMPDEST POP PUSH2 0x7AB PUSH2 0x856 CALLDATASIZE PUSH1 0x4 PUSH2 0x40A9 JUMP JUMPDEST PUSH2 0x20D6 JUMP JUMPDEST PUSH2 0x863 PUSH2 0x211E JUMP JUMPDEST PUSH2 0x86B PUSH2 0x2169 JUMP JUMPDEST PUSH2 0x876 DUP4 DUP4 DUP4 PUSH2 0x218C JUMP JUMPDEST POP POP POP JUMP JUMPDEST PUSH1 0x1 PUSH1 0x1 PUSH1 0xA0 SHL SUB DUP1 DUP4 AND PUSH1 0x0 SWAP1 DUP2 MSTORE PUSH1 0xD PUSH1 0x20 SWAP1 DUP2 MSTORE PUSH1 0x40 DUP1 DUP4 KECCAK256 SWAP4 DUP6 AND DUP4 MSTORE PUSH1 0x3 SWAP1 SWAP4 ADD SWAP1 MSTORE KECCAK256 SLOAD JUMPDEST SWAP3 SWAP2 POP POP JUMP JUMPDEST PUSH1 0x1 PUSH1 0x1 PUSH1 0xA0 SHL SUB DUP2 AND PUSH1 0x0 SWAP1 DUP2 MSTORE PUSH1 0xE PUSH1 0x20 SWAP1 DUP2 MSTORE PUSH1 0x40 DUP1 DUP4 KECCAK256 DUP1 SLOAD DUP3 MLOAD DUP2 DUP6 MUL DUP2 ADD DUP6 ADD SWAP1 SWAP4 MSTORE DUP1 DUP4 MSTORE PUSH1 0x60 SWAP5 SWAP3 SWAP4 SWAP2 SWAP3 SWAP1 SWAP2 DUP5 ADD JUMPDEST DUP3 DUP3 LT ISZERO PUSH2 0xA95 JUMPI DUP4 DUP3 SWAP1 PUSH1 0x0 MSTORE PUSH1 0x20 PUSH1 0x0 KECCAK256 SWAP1 PUSH1 0x5 MUL ADD PUSH1 0x40 MLOAD DUP1 PUSH1 0x80 ADD PUSH1 0x40 MSTORE SWAP1 DUP2 PUSH1 0x0 DUP3 ADD SLOAD DUP2 MSTORE PUSH1 0x20 ADD PUSH1 0x1 DUP3 ADD PUSH1 0x40 MLOAD DUP1 PUSH1 0x40 ADD PUSH1 0x40 MSTORE SWAP1 DUP2 PUSH1 0x0 DUP3 ADD SLOAD DUP2 MSTORE PUSH1 0x20 ADD PUSH1 0x1 DUP3 ADD DUP1 SLOAD PUSH2 0x93B SWAP1 PUSH2 0x416C JUMP JUMPDEST DUP1 PUSH1 0x1F ADD PUSH1 0x20 DUP1 SWAP2 DIV MUL PUSH1 0x20 ADD PUSH1 0x40 MLOAD SWAP1 DUP2 ADD PUSH1 0x40 MSTORE DUP1 SWAP3 SWAP2 SWAP1 DUP2 DUP2 MSTORE PUSH1 0x20 ADD DUP3 DUP1 SLOAD PUSH2 0x967 SWAP1 PUSH2 0x416C JUMP JUMPDEST DUP1 ISZERO PUSH2 0x9B4 JUMPI DUP1 PUSH1 0x1F LT PUSH2 0x989 JUMPI PUSH2 0x100 DUP1 DUP4 SLOAD DIV MUL DUP4 MSTORE SWAP2 PUSH1 0x20 ADD SWAP2 PUSH2 0x9B4 JUMP JUMPDEST DUP3 ADD SWAP2 SWAP1 PUSH1 0x0 MSTORE PUSH1 0x20 PUSH1 0x0 KECCAK256 SWAP1 JUMPDEST DUP2 SLOAD DUP2 MSTORE SWAP1 PUSH1 0x1 ADD SWAP1 PUSH1 0x20 ADD DUP1 DUP4 GT PUSH2 0x997 JUMPI DUP3 SWAP1 SUB PUSH1 0x1F AND DUP3 ADD SWAP2 JUMPDEST POP POP POP SWAP2 SWAP1 SWAP3 MSTORE POP POP POP DUP2 MSTORE PUSH1 0x3 DUP3 ADD SLOAD PUSH1 0x20 SWAP1 SWAP2 ADD SWAP1 PUSH1 0xFF AND PUSH1 0x6 DUP2 GT ISZERO PUSH2 0x9DF JUMPI PUSH2 0x9DF PUSH2 0x3AFB JUMP JUMPDEST PUSH1 0x6 DUP2 GT ISZERO PUSH2 0x9F0 JUMPI PUSH2 0x9F0 PUSH2 0x3AFB JUMP JUMPDEST DUP2 MSTORE PUSH1 0x20 ADD PUSH1 0x4 DUP3 ADD DUP1 SLOAD PUSH2 0xA04 SWAP1 PUSH2 0x416C JUMP JUMPDEST DUP1 PUSH1 0x1F ADD PUSH1 0x20 DUP1 SWAP2 DIV MUL PUSH1 0x20 ADD PUSH1 0x40 MLOAD SWAP1 DUP2 ADD PUSH1 0x40 MSTORE DUP1 SWAP3 SWAP2 SWAP1 DUP2 DUP2 MSTORE PUSH1 0x20 ADD DUP3 DUP1 SLOAD PUSH2 0xA30 SWAP1 PUSH2 0x416C JUMP JUMPDEST DUP1 ISZERO PUSH2 0xA7D JUMPI DUP1 PUSH1 0x1F LT PUSH2 0xA52 JUMPI PUSH2 0x100 DUP1 DUP4 SLOAD DIV MUL DUP4 MSTORE SWAP2 PUSH1 0x20 ADD SWAP2 PUSH2 0xA7D JUMP JUMPDEST DUP3 ADD SWAP2 SWAP1 PUSH1 0x0 MSTORE PUSH1 0x20 PUSH1 0x0 KECCAK256 SWAP1 JUMPDEST DUP2 SLOAD DUP2 MSTORE SWAP1 PUSH1 0x1 ADD SWAP1 PUSH1 0x20 ADD DUP1 DUP4 GT PUSH2 0xA60 JUMPI DUP3 SWAP1 SUB PUSH1 0x1F AND DUP3 ADD SWAP2 JUMPDEST POP POP POP POP POP DUP2 MSTORE POP POP DUP2 MSTORE PUSH1 0x20 ADD SWAP1 PUSH1 0x1 ADD SWAP1 PUSH2 0x8E4 JUMP JUMPDEST POP POP POP POP SWAP1 POP SWAP2 SWAP1 POP JUMP JUMPDEST PUSH1 0x7 SLOAD PUSH1 0x40 MLOAD PUSH4 0xE6E1AE3 PUSH1 0xE2 SHL DUP2 MSTORE PUSH1 0x4 DUP2 ADD DUP4 SWAP1 MSTORE CALLER PUSH1 0x24 DUP3 ADD MSTORE PUSH1 0x1 PUSH1 0x1 PUSH1 0xA0 SHL SUB SWAP1 SWAP2 AND SWAP1 PUSH4 0x39B86B8C SWAP1 PUSH1 0x44 ADD PUSH1 0x20 PUSH1 0x40 MLOAD DUP1 DUP4 SUB DUP2 DUP7 GAS STATICCALL ISZERO DUP1 ISZERO PUSH2 0xAEF JUMPI RETURNDATASIZE PUSH1 0x0 DUP1 RETURNDATACOPY RETURNDATASIZE PUSH1 0x0 REVERT JUMPDEST POP POP POP POP PUSH1 0x40 MLOAD RETURNDATASIZE PUSH1 0x1F NOT PUSH1 0x1F DUP3 ADD AND DUP3 ADD DUP1 PUSH1 0x40 MSTORE POP DUP2 ADD SWAP1 PUSH2 0xB13 SWAP2 SWAP1 PUSH2 0x41A6 JUMP JUMPDEST PUSH2 0xB53 JUMPI PUSH1 0x40 MLOAD PUSH3 0x461BCD PUSH1 0xE5 SHL DUP2 MSTORE PUSH1 0x20 PUSH1 0x4 DUP3 ADD MSTORE PUSH1 0xC PUSH1 0x24 DUP3 ADD MSTORE PUSH12 0x15539055551213D492569151 PUSH1 0xA2 SHL PUSH1 0x44 DUP3 ADD MSTORE PUSH1 0x64 ADD JUMPDEST PUSH1 0x40 MLOAD DUP1 SWAP2 SUB SWAP1 REVERT JUMPDEST PUSH1 0x64 DUP3 GT ISZERO PUSH2 0xB99 JUMPI PUSH1 0x40 MLOAD PUSH3 0x461BCD PUSH1 0xE5 SHL DUP2 MSTORE PUSH1 0x20 PUSH1 0x4 DUP3 ADD MSTORE PUSH1 0x12 PUSH1 0x24 DUP3 ADD MSTORE PUSH18 0x496E76616C69642070657263656E74616765 PUSH1 0x70 SHL PUSH1 0x44 DUP3 ADD MSTORE PUSH1 0x64 ADD PUSH2 0xB4A JUMP JUMPDEST POP PUSH1 0x6 SSTORE JUMP JUMPDEST PUSH1 0x0 PUSH2 0xBA9 PUSH2 0x211E JUMP JUMPDEST PUSH2 0xBB1 PUSH2 0x2169 JUMP JUMPDEST PUSH2 0xBBB DUP4 DUP4 PUSH2 0x2223 JUMP JUMPDEST SWAP1 POP PUSH2 0x8A6 JUMP JUMPDEST PUSH1 0x1 PUSH1 0x1 PUSH1 0xA0 SHL SUB DUP2 AND PUSH1 0x0 SWAP1 DUP2 MSTORE PUSH1 0xD PUSH1 0x20 SWAP1 DUP2 MSTORE PUSH1 0x40 DUP1 DUP4 KECCAK256 DUP1 SLOAD DUP3 MLOAD DUP2 DUP6 MUL DUP2 ADD DUP6 ADD SWAP1 SWAP4 MSTORE DUP1 DUP4 MSTORE PUSH1 0x60 SWAP5 SWAP3 SWAP4 SWAP2 SWAP3 SWAP1 SWAP2 DUP5 ADD JUMPDEST DUP3 DUP3 LT ISZERO PUSH2 0xA95 JUMPI DUP4 DUP3 SWAP1 PUSH1 0x0 MSTORE PUSH1 0x20 PUSH1 0x0 KECCAK256 SWAP1 PUSH1 0x5 MUL ADD PUSH1 0x40 MLOAD DUP1 PUSH1 0x80 ADD PUSH1 0x40 MSTORE SWAP1 DUP2 PUSH1 0x0 DUP3 ADD SLOAD DUP2 MSTORE PUSH1 0x20 ADD PUSH1 0x1 DUP3 ADD PUSH1 0x40 MLOAD DUP1 PUSH1 0x40 ADD PUSH1 0x40 MSTORE SWAP1 DUP2 PUSH1 0x0 DUP3 ADD SLOAD DUP2 MSTORE PUSH1 0x20 ADD PUSH1 0x1 DUP3 ADD DUP1 SLOAD PUSH2 0xC51 SWAP1 PUSH2 0x416C JUMP JUMPDEST DUP1 PUSH1 0x1F ADD PUSH1 0x20 DUP1 SWAP2 DIV MUL PUSH1 0x20 ADD PUSH1 0x40 MLOAD SWAP1 DUP2 ADD PUSH1 0x40 MSTORE DUP1 SWAP3 SWAP2 SWAP1 DUP2 DUP2 MSTORE PUSH1 0x20 ADD DUP3 DUP1 SLOAD PUSH2 0xC7D SWAP1 PUSH2 0x416C JUMP JUMPDEST DUP1 ISZERO PUSH2 0xCCA JUMPI DUP1 PUSH1 0x1F LT PUSH2 0xC9F JUMPI PUSH2 0x100 DUP1 DUP4 SLOAD DIV MUL DUP4 MSTORE SWAP2 PUSH1 0x20 ADD SWAP2 PUSH2 0xCCA JUMP JUMPDEST DUP3 ADD SWAP2 SWAP1 PUSH1 0x0 MSTORE PUSH1 0x20 PUSH1 0x0 KECCAK256 SWAP1 JUMPDEST DUP2 SLOAD DUP2 MSTORE SWAP1 PUSH1 0x1 ADD SWAP1 PUSH1 0x20 ADD DUP1 DUP4 GT PUSH2 0xCAD JUMPI DUP3 SWAP1 SUB PUSH1 0x1F AND DUP3 ADD SWAP2 JUMPDEST POP POP POP SWAP2 SWAP1 SWAP3 MSTORE POP POP POP DUP2 MSTORE PUSH1 0x3 DUP3 ADD SLOAD PUSH1 0x20 SWAP1 SWAP2 ADD SWAP1 PUSH1 0xFF AND PUSH1 0x6 DUP2 GT ISZERO PUSH2 0xCF5 JUMPI PUSH2 0xCF5 PUSH2 0x3AFB JUMP JUMPDEST PUSH1 0x6 DUP2 GT ISZERO PUSH2 0xD06 JUMPI PUSH2 0xD06 PUSH2 0x3AFB JUMP JUMPDEST DUP2 MSTORE PUSH1 0x20 ADD PUSH1 0x4 DUP3 ADD DUP1 SLOAD PUSH2 0xD1A SWAP1 PUSH2 0x416C JUMP JUMPDEST DUP1 PUSH1 0x1F ADD PUSH1 0x20 DUP1 SWAP2 DIV MUL PUSH1 0x20 ADD PUSH1 0x40 MLOAD SWAP1 DUP2 ADD PUSH1 0x40 MSTORE DUP1 SWAP3 SWAP2 SWAP1 DUP2 DUP2 MSTORE PUSH1 0x20 ADD DUP3 DUP1 SLOAD PUSH2 0xD46 SWAP1 PUSH2 0x416C JUMP JUMPDEST DUP1 ISZERO PUSH2 0xD93 JUMPI DUP1 PUSH1 0x1F LT PUSH2 0xD68 JUMPI PUSH2 0x100 DUP1 DUP4 SLOAD DIV MUL DUP4 MSTORE SWAP2 PUSH1 0x20 ADD SWAP2 PUSH2 0xD93 JUMP JUMPDEST DUP3 ADD SWAP2 SWAP1 PUSH1 0x0 MSTORE PUSH1 0x20 PUSH1 0x0 KECCAK256 SWAP1 JUMPDEST DUP2 SLOAD DUP2 MSTORE SWAP1 PUSH1 0x1 ADD SWAP1 PUSH1 0x20 ADD DUP1 DUP4 GT PUSH2 0xD76 JUMPI DUP3 SWAP1 SUB PUSH1 0x1F AND DUP3 ADD SWAP2 JUMPDEST POP POP POP POP POP DUP2 MSTORE POP POP DUP2 MSTORE PUSH1 0x20 ADD SWAP1 PUSH1 0x1 ADD SWAP1 PUSH2 0xBFA JUMP JUMPDEST PUSH1 0x1 PUSH1 0x1 PUSH1 0xA0 SHL SUB DUP4 AND CALLER EQ PUSH2 0xDD4 JUMPI PUSH1 0x40 MLOAD PUSH4 0x75FD2B1 PUSH1 0xE0 SHL DUP2 MSTORE PUSH1 0x4 ADD PUSH1 0x40 MLOAD DUP1 SWAP2 SUB SWAP1 REVERT JUMPDEST PUSH1 0x1 PUSH1 0x1 PUSH1 0xA0 SHL SUB DUP1 DUP5 AND PUSH1 0x0 SWAP1 DUP2 MSTORE PUSH1 0xB PUSH1 0x20 SWAP1 DUP2 MSTORE PUSH1 0x40 DUP1 DUP4 KECCAK256 DUP2 MLOAD PUSH1 0xC0 DUP2 ADD DUP4 MSTORE DUP2 SLOAD PUSH1 0xFF DUP2 AND ISZERO ISZERO DUP3 MSTORE PUSH2 0x100 SWAP1 DIV SWAP1 SWAP6 AND DUP6 DUP5 ADD MSTORE PUSH1 0x1 DUP2 ADD SLOAD DUP6 DUP4 ADD MSTORE DUP2 MLOAD DUP1 DUP4 ADD SWAP1 SWAP3 MSTORE PUSH1 0x2 DUP2 ADD DUP1 SLOAD DUP4 MSTORE PUSH1 0x3 DUP3 ADD DUP1 SLOAD SWAP6 SWAP7 SWAP6 SWAP3 SWAP5 PUSH1 0x60 DUP8 ADD SWAP5 SWAP4 SWAP1 DUP5 ADD SWAP2 SWAP1 PUSH2 0xE46 SWAP1 PUSH2 0x416C JUMP JUMPDEST DUP1 PUSH1 0x1F ADD PUSH1 0x20 DUP1 SWAP2 DIV MUL PUSH1 0x20 ADD PUSH1 0x40 MLOAD SWAP1 DUP2 ADD PUSH1 0x40 MSTORE DUP1 SWAP3 SWAP2 SWAP1 DUP2 DUP2 MSTORE PUSH1 0x20 ADD DUP3 DUP1 SLOAD PUSH2 0xE72 SWAP1 PUSH2 0x416C JUMP JUMPDEST DUP1 ISZERO PUSH2 0xEBF JUMPI DUP1 PUSH1 0x1F LT PUSH2 0xE94 JUMPI PUSH2 0x100 DUP1 DUP4 SLOAD DIV MUL DUP4 MSTORE SWAP2 PUSH1 0x20 ADD SWAP2 PUSH2 0xEBF JUMP JUMPDEST DUP3 ADD SWAP2 SWAP1 PUSH1 0x0 MSTORE PUSH1 0x20 PUSH1 0x0 KECCAK256 SWAP1 JUMPDEST DUP2 SLOAD DUP2 MSTORE SWAP1 PUSH1 0x1 ADD SWAP1 PUSH1 0x20 ADD DUP1 DUP4 GT PUSH2 0xEA2 JUMPI DUP3 SWAP1 SUB PUSH1 0x1F AND DUP3 ADD SWAP2 JUMPDEST POP POP POP SWAP2 SWAP1 SWAP3 MSTORE POP POP POP DUP2 MSTORE PUSH1 0x4 DUP3 ADD SLOAD PUSH1 0x20 SWAP1 SWAP2 ADD SWAP1 PUSH1 0xFF AND PUSH1 0x6 DUP2 GT ISZERO PUSH2 0xEEA JUMPI PUSH2 0xEEA PUSH2 0x3AFB JUMP JUMPDEST PUSH1 0x6 DUP2 GT ISZERO PUSH2 0xEFB JUMPI PUSH2 0xEFB PUSH2 0x3AFB JUMP JUMPDEST DUP2 MSTORE PUSH1 0x20 ADD PUSH1 0x4 DUP3 ADD PUSH1 0x1 SWAP1 SLOAD SWAP1 PUSH2 0x100 EXP SWAP1 DIV PUSH1 0xFF AND PUSH1 0x6 DUP2 GT ISZERO PUSH2 0xF23 JUMPI PUSH2 0xF23 PUSH2 0x3AFB JUMP JUMPDEST PUSH1 0x6 DUP2 GT ISZERO PUSH2 0xF34 JUMPI PUSH2 0xF34 PUSH2 0x3AFB JUMP JUMPDEST SWAP1 MSTORE POP SWAP1 POP PUSH1 0x2 DUP2 PUSH1 0x80 ADD MLOAD PUSH1 0x6 DUP2 GT ISZERO PUSH2 0xF51 JUMPI PUSH2 0xF51 PUSH2 0x3AFB JUMP JUMPDEST EQ PUSH2 0xF6F JUMPI PUSH1 0x40 MLOAD PUSH4 0x392C16FB PUSH1 0xE2 SHL DUP2 MSTORE PUSH1 0x4 ADD PUSH1 0x40 MLOAD DUP1 SWAP2 SUB SWAP1 REVERT JUMPDEST PUSH1 0x1 PUSH1 0x1 PUSH1 0xA0 SHL SUB DUP5 AND PUSH1 0x0 SWAP1 DUP2 MSTORE PUSH1 0xE PUSH1 0x20 MSTORE PUSH1 0x40 SWAP1 KECCAK256 DUP1 SLOAD DUP5 GT ISZERO PUSH2 0xFA9 JUMPI PUSH1 0x40 MLOAD PUSH4 0x2F1F68E1 PUSH1 0xE1 SHL DUP2 MSTORE PUSH1 0x4 ADD PUSH1 0x40 MLOAD DUP1 SWAP2 SUB SWAP1 REVERT JUMPDEST PUSH1 0x0 DUP2 DUP6 DUP2 SLOAD DUP2 LT PUSH2 0xFBD JUMPI PUSH2 0xFBD PUSH2 0x41C3 JUMP JUMPDEST PUSH1 0x0 SWAP2 DUP3 MSTORE PUSH1 0x20 SWAP1 SWAP2 KECCAK256 PUSH1 0x5 SWAP1 SWAP2 MUL ADD SWAP1 POP PUSH1 0x2 PUSH1 0x3 DUP3 ADD SLOAD PUSH1 0xFF AND PUSH1 0x6 DUP2 GT ISZERO PUSH2 0xFEA JUMPI PUSH2 0xFEA PUSH2 0x3AFB JUMP JUMPDEST SUB PUSH2 0x1008 JUMPI PUSH1 0x40 MLOAD PUSH4 0x7F46ED27 PUSH1 0xE1 SHL DUP2 MSTORE PUSH1 0x4 ADD PUSH1 0x40 MLOAD DUP1 SWAP2 SUB SWAP1 REVERT JUMPDEST DUP4 PUSH1 0x1 DUP3 ADD PUSH2 0x1017 DUP3 DUP3 PUSH2 0x4227 JUMP JUMPDEST POP POP PUSH1 0x3 DUP2 ADD DUP1 SLOAD PUSH1 0xFF NOT AND PUSH1 0x1 OR SWAP1 SSTORE PUSH1 0x40 MLOAD PUSH32 0x8673CFB5A2CBAD812463BDFD7C85511F29C804579A86D318889AB92515539961 SWAP1 PUSH2 0x105C SWAP1 DUP9 SWAP1 DUP9 SWAP1 DUP9 SWAP1 PUSH2 0x431F JUMP JUMPDEST PUSH1 0x40 MLOAD DUP1 SWAP2 SUB SWAP1 LOG1 POP POP POP POP POP POP JUMP JUMPDEST PUSH1 0x0 PUSH2 0x8A6 DUP3 PUSH2 0x2554 JUMP JUMPDEST PUSH2 0x107F PUSH2 0x36D5 JUMP JUMPDEST PUSH2 0x8A6 DUP3 PUSH2 0x25F9 JUMP JUMPDEST PUSH1 0x0 CALLER PUSH1 0x1 PUSH1 0x1 PUSH1 0xA0 SHL SUB DUP5 AND EQ DUP1 PUSH2 0x10A6 JUMPI POP PUSH2 0x10A6 DUP4 CALLER PUSH2 0x2769 JUMP JUMPDEST SWAP1 POP DUP1 PUSH2 0x10C6 JUMPI PUSH1 0x40 MLOAD PUSH4 0x75FD2B1 PUSH1 0xE0 SHL DUP2 MSTORE PUSH1 0x4 ADD PUSH1 0x40 MLOAD DUP1 SWAP2 SUB SWAP1 REVERT JUMPDEST PUSH1 0x1 PUSH1 0x1 PUSH1 0xA0 SHL SUB DUP4 AND PUSH1 0x0 SWAP1 DUP2 MSTORE PUSH1 0xB PUSH1 0x20 MSTORE PUSH1 0x40 SWAP1 KECCAK256 PUSH1 0x2 PUSH1 0x4 DUP3 ADD SLOAD PUSH1 0xFF AND PUSH1 0x6 DUP2 GT ISZERO PUSH2 0x10F9 JUMPI PUSH2 0x10F9 PUSH2 0x3AFB JUMP JUMPDEST EQ PUSH2 0x1117 JUMPI PUSH1 0x40 MLOAD PUSH4 0x392C16FB PUSH1 0xE2 SHL DUP2 MSTORE PUSH1 0x4 ADD PUSH1 0x40 MLOAD DUP1 SWAP2 SUB SWAP1 REVERT JUMPDEST PUSH1 0x2 PUSH1 0x4 DUP3 ADD SLOAD PUSH2 0x100 SWAP1 DIV PUSH1 0xFF AND PUSH1 0x6 DUP2 GT ISZERO PUSH2 0x1137 JUMPI PUSH2 0x1137 PUSH2 0x3AFB JUMP JUMPDEST SUB PUSH2 0x1155 JUMPI PUSH1 0x40 MLOAD PUSH4 0x5CA31D3 PUSH1 0xE5 SHL DUP2 MSTORE PUSH1 0x4 ADD PUSH1 0x40 MLOAD DUP1 SWAP2 SUB SWAP1 REVERT JUMPDEST PUSH2 0x115E DUP5 PUSH2 0x2861 JUMP JUMPDEST PUSH1 0x0 JUMPDEST DUP4 MLOAD DUP2 LT ISZERO PUSH2 0x1238 JUMPI PUSH1 0x1 PUSH1 0x1 PUSH1 0xA0 SHL SUB DUP6 AND PUSH1 0x0 SWAP1 DUP2 MSTORE PUSH1 0xD PUSH1 0x20 MSTORE PUSH1 0x40 SWAP1 KECCAK256 DUP5 MLOAD DUP6 SWAP1 DUP4 SWAP1 DUP2 LT PUSH2 0x1196 JUMPI PUSH2 0x1196 PUSH2 0x41C3 JUMP JUMPDEST PUSH1 0x20 SWAP1 DUP2 MUL SWAP2 SWAP1 SWAP2 ADD DUP2 ADD MLOAD DUP3 SLOAD PUSH1 0x1 DUP2 DUP2 ADD DUP6 SSTORE PUSH1 0x0 SWAP5 DUP6 MSTORE SWAP4 DUP4 SWAP1 KECCAK256 DUP3 MLOAD PUSH1 0x5 SWAP1 SWAP3 MUL ADD SWAP1 DUP2 SSTORE DUP2 DUP4 ADD MLOAD DUP1 MLOAD SWAP5 DUP3 ADD SWAP5 DUP6 SSTORE SWAP3 DUP4 ADD MLOAD SWAP2 SWAP4 SWAP1 SWAP3 SWAP2 PUSH1 0x2 DUP5 ADD SWAP1 PUSH2 0x11E3 SWAP1 DUP3 PUSH2 0x43B8 JUMP JUMPDEST POP POP POP PUSH1 0x40 DUP3 ADD MLOAD PUSH1 0x3 DUP3 ADD DUP1 SLOAD PUSH1 0xFF NOT AND PUSH1 0x1 DUP4 PUSH1 0x6 DUP2 GT ISZERO PUSH2 0x1209 JUMPI PUSH2 0x1209 PUSH2 0x3AFB JUMP JUMPDEST MUL OR SWAP1 SSTORE POP PUSH1 0x60 DUP3 ADD MLOAD PUSH1 0x4 DUP3 ADD SWAP1 PUSH2 0x1222 SWAP1 DUP3 PUSH2 0x43B8 JUMP JUMPDEST POP POP POP DUP1 DUP1 PUSH2 0x1230 SWAP1 PUSH2 0x448D JUMP JUMPDEST SWAP2 POP POP PUSH2 0x1161 JUMP JUMPDEST POP DUP3 MLOAD PUSH1 0x40 DUP1 MLOAD PUSH1 0x1 PUSH1 0x1 PUSH1 0xA0 SHL SUB DUP8 AND DUP2 MSTORE PUSH1 0x20 DUP2 ADD SWAP3 SWAP1 SWAP3 MSTORE PUSH32 0x8A5603111F154F43104AFE04452C6A93024A972CB6A0AF72E6F38BCCE68625D5 SWAP2 ADD PUSH1 0x40 MLOAD DUP1 SWAP2 SUB SWAP1 LOG1 POP POP POP POP JUMP JUMPDEST CALLER PUSH2 0x128E DUP2 PUSH2 0x291B JUMP JUMPDEST PUSH1 0x0 DUP4 DUP2 MSTORE PUSH1 0x10 PUSH1 0x20 SWAP1 DUP2 MSTORE PUSH1 0x40 DUP1 DUP4 KECCAK256 CALLER DUP5 MSTORE PUSH1 0x2 ADD SWAP1 SWAP2 MSTORE SWAP1 KECCAK256 SLOAD ISZERO PUSH2 0x12C9 JUMPI PUSH1 0x40 MLOAD PUSH4 0x448BAE6F PUSH1 0xE0 SHL DUP2 MSTORE PUSH1 0x4 ADD PUSH1 0x40 MLOAD DUP1 SWAP2 SUB SWAP1 REVERT JUMPDEST PUSH1 0x1 PUSH1 0x1 PUSH1 0xA0 SHL SUB DUP1 DUP6 AND PUSH1 0x0 SWAP1 DUP2 MSTORE PUSH1 0xB PUSH1 0x20 SWAP1 DUP2 MSTORE PUSH1 0x40 DUP1 DUP4 KECCAK256 DUP2 MLOAD PUSH1 0xC0 DUP2 ADD DUP4 MSTORE DUP2 SLOAD PUSH1 0xFF DUP2 AND ISZERO ISZERO DUP3 MSTORE PUSH2 0x100 SWAP1 DIV SWAP1 SWAP6 AND DUP6 DUP5 ADD MSTORE PUSH1 0x1 DUP2 ADD SLOAD DUP6 DUP4 ADD MSTORE DUP2 MLOAD DUP1 DUP4 ADD SWAP1 SWAP3 MSTORE PUSH1 0x2 DUP2 ADD DUP1 SLOAD DUP4 MSTORE PUSH1 0x3 DUP3 ADD DUP1 SLOAD SWAP6 SWAP7 SWAP6 SWAP3 SWAP5 PUSH1 0x60 DUP8 ADD SWAP5 SWAP4 SWAP1 DUP5 ADD SWAP2 SWAP1 PUSH2 0x133B SWAP1 PUSH2 0x416C JUMP JUMPDEST DUP1 PUSH1 0x1F ADD PUSH1 0x20 DUP1 SWAP2 DIV MUL PUSH1 0x20 ADD PUSH1 0x40 MLOAD SWAP1 DUP2 ADD PUSH1 0x40 MSTORE DUP1 SWAP3 SWAP2 SWAP1 DUP2 DUP2 MSTORE PUSH1 0x20 ADD DUP3 DUP1 SLOAD PUSH2 0x1367 SWAP1 PUSH2 0x416C JUMP JUMPDEST DUP1 ISZERO PUSH2 0x13B4 JUMPI DUP1 PUSH1 0x1F LT PUSH2 0x1389 JUMPI PUSH2 0x100 DUP1 DUP4 SLOAD DIV MUL DUP4 MSTORE SWAP2 PUSH1 0x20 ADD SWAP2 PUSH2 0x13B4 JUMP JUMPDEST DUP3 ADD SWAP2 SWAP1 PUSH1 0x0 MSTORE PUSH1 0x20 PUSH1 0x0 KECCAK256 SWAP1 JUMPDEST DUP2 SLOAD DUP2 MSTORE SWAP1 PUSH1 0x1 ADD SWAP1 PUSH1 0x20 ADD DUP1 DUP4 GT PUSH2 0x1397 JUMPI DUP3 SWAP1 SUB PUSH1 0x1F AND DUP3 ADD SWAP2 JUMPDEST POP POP POP SWAP2 SWAP1 SWAP3 MSTORE POP POP POP DUP2 MSTORE PUSH1 0x4 DUP3 ADD SLOAD PUSH1 0x20 SWAP1 SWAP2 ADD SWAP1 PUSH1 0xFF AND PUSH1 0x6 DUP2 GT ISZERO PUSH2 0x13DF JUMPI PUSH2 0x13DF PUSH2 0x3AFB JUMP JUMPDEST PUSH1 0x6 DUP2 GT ISZERO PUSH2 0x13F0 JUMPI PUSH2 0x13F0 PUSH2 0x3AFB JUMP JUMPDEST DUP2 MSTORE PUSH1 0x20 ADD PUSH1 0x4 DUP3 ADD PUSH1 0x1 SWAP1 SLOAD SWAP1 PUSH2 0x100 EXP SWAP1 DIV PUSH1 0xFF AND PUSH1 0x6 DUP2 GT ISZERO PUSH2 0x1418 JUMPI PUSH2 0x1418 PUSH2 0x3AFB JUMP JUMPDEST PUSH1 0x6 DUP2 GT ISZERO PUSH2 0x1429 JUMPI PUSH2 0x1429 PUSH2 0x3AFB JUMP JUMPDEST SWAP1 MSTORE POP SWAP1 POP PUSH1 0x2 DUP2 PUSH1 0x80 ADD MLOAD PUSH1 0x6 DUP2 GT ISZERO PUSH2 0x1446 JUMPI PUSH2 0x1446 PUSH2 0x3AFB JUMP JUMPDEST EQ PUSH2 0x1464 JUMPI PUSH1 0x40 MLOAD PUSH4 0x392C16FB PUSH1 0xE2 SHL DUP2 MSTORE PUSH1 0x4 ADD PUSH1 0x40 MLOAD DUP1 SWAP2 SUB SWAP1 REVERT JUMPDEST PUSH1 0x1 PUSH1 0x1 PUSH1 0xA0 SHL SUB DUP6 AND PUSH1 0x0 SWAP1 DUP2 MSTORE PUSH1 0xE PUSH1 0x20 MSTORE PUSH1 0x40 SWAP1 KECCAK256 DUP1 SLOAD DUP6 GT ISZERO PUSH2 0x149E JUMPI PUSH1 0x40 MLOAD PUSH4 0x2F1F68E1 PUSH1 0xE1 SHL DUP2 MSTORE PUSH1 0x4 ADD PUSH1 0x40 MLOAD DUP1 SWAP2 SUB SWAP1 REVERT JUMPDEST PUSH1 0x0 DUP2 DUP7 DUP2 SLOAD DUP2 LT PUSH2 0x14B2 JUMPI PUSH2 0x14B2 PUSH2 0x41C3 JUMP JUMPDEST PUSH1 0x0 SWAP2 DUP3 MSTORE PUSH1 0x20 SWAP1 SWAP2 KECCAK256 PUSH1 0x5 SWAP1 SWAP2 MUL ADD SWAP1 POP PUSH1 0x1 PUSH1 0x3 DUP3 ADD SLOAD PUSH1 0xFF AND PUSH1 0x6 DUP2 GT ISZERO PUSH2 0x14DF JUMPI PUSH2 0x14DF PUSH2 0x3AFB JUMP JUMPDEST EQ PUSH2 0x14FD JUMPI PUSH1 0x40 MLOAD PUSH4 0x5B2FE71D PUSH1 0xE1 SHL DUP2 MSTORE PUSH1 0x4 ADD PUSH1 0x40 MLOAD DUP1 SWAP2 SUB SWAP1 REVERT JUMPDEST CALLER PUSH1 0x0 SWAP1 DUP2 MSTORE PUSH1 0xC PUSH1 0x20 MSTORE PUSH1 0x40 DUP2 KECCAK256 SLOAD PUSH1 0x6 SLOAD PUSH1 0x5 SLOAD SWAP2 SWAP3 SWAP2 PUSH1 0x64 SWAP2 PUSH2 0x1522 SWAP2 PUSH2 0x44A6 JUMP JUMPDEST PUSH2 0x152C SWAP2 SWAP1 PUSH2 0x44BD JUMP JUMPDEST PUSH1 0x0 DUP10 DUP2 MSTORE PUSH1 0x10 PUSH1 0x20 SWAP1 DUP2 MSTORE PUSH1 0x40 DUP1 DUP4 KECCAK256 CALLER DUP5 MSTORE PUSH1 0x2 SWAP1 DUP2 ADD SWAP1 SWAP3 MSTORE SWAP1 SWAP2 KECCAK256 DUP5 SWAP1 SSTORE SWAP1 SWAP2 POP DUP8 PUSH1 0x6 DUP2 GT ISZERO PUSH2 0x1563 JUMPI PUSH2 0x1563 PUSH2 0x3AFB JUMP JUMPDEST SUB PUSH2 0x16D0 JUMPI PUSH1 0x0 DUP9 DUP2 MSTORE PUSH1 0x10 PUSH1 0x20 MSTORE PUSH1 0x40 DUP2 KECCAK256 DUP1 SLOAD DUP5 SWAP3 SWAP1 PUSH2 0x1586 SWAP1 DUP5 SWAP1 PUSH2 0x44DF JUMP JUMPDEST SWAP1 SWAP2 SSTORE POP POP PUSH1 0x0 DUP9 DUP2 MSTORE PUSH1 0x10 PUSH1 0x20 MSTORE PUSH1 0x40 SWAP1 KECCAK256 SLOAD DUP2 LT ISZERO PUSH2 0x16CB JUMPI PUSH1 0x3 DUP4 ADD DUP1 SLOAD DUP9 SWAP2 SWAP1 PUSH1 0xFF NOT AND PUSH1 0x1 DUP4 PUSH1 0x6 DUP2 GT ISZERO PUSH2 0x15C2 JUMPI PUSH2 0x15C2 PUSH2 0x3AFB JUMP JUMPDEST MUL OR SWAP1 SSTORE POP PUSH1 0x40 DUP1 MLOAD PUSH1 0x1 DUP1 DUP3 MSTORE DUP2 DUP4 ADD SWAP1 SWAP3 MSTORE PUSH1 0x0 SWAP2 PUSH1 0x20 DUP1 DUP4 ADD SWAP1 DUP1 CALLDATASIZE DUP4 CALLDATACOPY ADD SWAP1 POP POP SWAP1 POP DUP10 DUP2 PUSH1 0x0 DUP2 MLOAD DUP2 LT PUSH2 0x15FD JUMPI PUSH2 0x15FD PUSH2 0x41C3 JUMP JUMPDEST PUSH1 0x1 PUSH1 0x1 PUSH1 0xA0 SHL SUB SWAP3 DUP4 AND PUSH1 0x20 SWAP2 DUP3 MUL SWAP3 SWAP1 SWAP3 ADD ADD MSTORE PUSH1 0x1 SLOAD PUSH1 0x40 MLOAD PUSH4 0x1D2FDEC9 PUSH1 0xE1 SHL DUP2 MSTORE PUSH32 0x0 SWAP1 SWAP3 AND SWAP2 PUSH4 0x3A5FBD92 SWAP2 PUSH2 0x165C SWAP2 DUP6 SWAP1 PUSH1 0x4 ADD PUSH2 0x44F2 JUMP JUMPDEST PUSH1 0x0 PUSH1 0x40 MLOAD DUP1 DUP4 SUB DUP2 PUSH1 0x0 DUP8 DUP1 EXTCODESIZE ISZERO DUP1 ISZERO PUSH2 0x1676 JUMPI PUSH1 0x0 DUP1 REVERT JUMPDEST POP GAS CALL ISZERO DUP1 ISZERO PUSH2 0x168A JUMPI RETURNDATASIZE PUSH1 0x0 DUP1 RETURNDATACOPY RETURNDATASIZE PUSH1 0x0 REVERT JUMPDEST POP POP POP POP PUSH32 0xF1AF82B65C631A030029B10EA8F00F68290285C7C797644155B8F23969CA1D63 DUP11 DUP11 DUP11 PUSH1 0x40 MLOAD PUSH2 0x16C1 SWAP4 SWAP3 SWAP2 SWAP1 PUSH2 0x4559 JUMP JUMPDEST PUSH1 0x40 MLOAD DUP1 SWAP2 SUB SWAP1 LOG1 POP JUMPDEST PUSH2 0x1814 JUMP JUMPDEST PUSH1 0x3 DUP8 PUSH1 0x6 DUP2 GT ISZERO PUSH2 0x16E4 JUMPI PUSH2 0x16E4 PUSH2 0x3AFB JUMP JUMPDEST SUB PUSH2 0x1814 JUMPI PUSH1 0x0 DUP9 DUP2 MSTORE PUSH1 0x10 PUSH1 0x20 MSTORE PUSH1 0x40 DUP2 KECCAK256 PUSH1 0x1 ADD DUP1 SLOAD DUP5 SWAP3 SWAP1 PUSH2 0x170A SWAP1 DUP5 SWAP1 PUSH2 0x44DF JUMP JUMPDEST SWAP1 SWAP2 SSTORE POP POP PUSH1 0x0 DUP9 DUP2 MSTORE PUSH1 0x10 PUSH1 0x20 MSTORE PUSH1 0x40 SWAP1 KECCAK256 PUSH1 0x1 ADD SLOAD DUP2 LT ISZERO PUSH2 0x1814 JUMPI PUSH1 0x3 DUP4 ADD DUP1 SLOAD DUP9 SWAP2 SWAP1 PUSH1 0xFF NOT AND PUSH1 0x1 DUP4 PUSH1 0x6 DUP2 GT ISZERO PUSH2 0x1749 JUMPI PUSH2 0x1749 PUSH2 0x3AFB JUMP JUMPDEST MUL OR SWAP1 SSTORE POP PUSH1 0x0 JUMPDEST PUSH1 0xA SLOAD DUP2 LT ISZERO PUSH2 0x17BF JUMPI PUSH1 0x0 PUSH1 0x10 PUSH1 0x0 DUP12 DUP2 MSTORE PUSH1 0x20 ADD SWAP1 DUP2 MSTORE PUSH1 0x20 ADD PUSH1 0x0 KECCAK256 PUSH1 0x2 ADD PUSH1 0x0 PUSH1 0xA DUP5 DUP2 SLOAD DUP2 LT PUSH2 0x1788 JUMPI PUSH2 0x1788 PUSH2 0x41C3 JUMP JUMPDEST PUSH1 0x0 SWAP2 DUP3 MSTORE PUSH1 0x20 DUP1 DUP4 KECCAK256 SWAP1 SWAP2 ADD SLOAD PUSH1 0x1 PUSH1 0x1 PUSH1 0xA0 SHL SUB AND DUP4 MSTORE DUP3 ADD SWAP3 SWAP1 SWAP3 MSTORE PUSH1 0x40 ADD SWAP1 KECCAK256 SSTORE DUP1 PUSH2 0x17B7 DUP2 PUSH2 0x448D JUMP JUMPDEST SWAP2 POP POP PUSH2 0x1751 JUMP JUMPDEST POP PUSH1 0x0 DUP9 DUP2 MSTORE PUSH1 0x10 PUSH1 0x20 MSTORE PUSH1 0x40 DUP1 DUP3 KECCAK256 DUP3 DUP2 SSTORE PUSH1 0x1 ADD SWAP2 SWAP1 SWAP2 SSTORE MLOAD PUSH32 0xF1AF82B65C631A030029B10EA8F00F68290285C7C797644155B8F23969CA1D63 SWAP1 PUSH2 0x180B SWAP1 DUP12 SWAP1 DUP12 SWAP1 DUP12 SWAP1 PUSH2 0x4559 JUMP JUMPDEST PUSH1 0x40 MLOAD DUP1 SWAP2 SUB SWAP1 LOG1 JUMPDEST PUSH32 0x4460BEB477B3843656610A89BD67C551D2A78131B5A955DDCCD5EB9AA218C8C3 DUP10 DUP10 DUP10 PUSH1 0x40 MLOAD PUSH2 0x1847 SWAP4 SWAP3 SWAP2 SWAP1 PUSH2 0x4559 JUMP JUMPDEST PUSH1 0x40 MLOAD DUP1 SWAP2 SUB SWAP1 LOG1 POP POP POP POP POP POP POP POP POP JUMP JUMPDEST DUP2 MLOAD DUP2 MLOAD PUSH1 0x60 SWAP2 SWAP1 DUP2 EQ PUSH2 0x1881 JUMPI PUSH1 0x40 MLOAD PUSH4 0x3DA4C02B PUSH1 0xE1 SHL DUP2 MSTORE PUSH1 0x4 ADD PUSH1 0x40 MLOAD DUP1 SWAP2 SUB SWAP1 REVERT JUMPDEST PUSH1 0x0 DUP2 PUSH1 0x1 PUSH1 0x1 PUSH1 0x40 SHL SUB DUP2 GT ISZERO PUSH2 0x189B JUMPI PUSH2 0x189B PUSH2 0x37E2 JUMP JUMPDEST PUSH1 0x40 MLOAD SWAP1 DUP1 DUP3 MSTORE DUP1 PUSH1 0x20 MUL PUSH1 0x20 ADD DUP3 ADD PUSH1 0x40 MSTORE DUP1 ISZERO PUSH2 0x18E0 JUMPI DUP2 PUSH1 0x20 ADD JUMPDEST PUSH1 0x40 DUP1 MLOAD DUP1 DUP3 ADD SWAP1 SWAP2 MSTORE PUSH1 0x0 DUP1 DUP3 MSTORE PUSH1 0x20 DUP3 ADD MSTORE DUP2 MSTORE PUSH1 0x20 ADD SWAP1 PUSH1 0x1 SWAP1 SUB SWAP1 DUP2 PUSH2 0x18B9 JUMPI SWAP1 POP JUMPDEST POP SWAP1 POP PUSH1 0x0 JUMPDEST DUP3 DUP2 LT ISZERO PUSH2 0x194F JUMPI PUSH2 0x192A DUP7 DUP3 DUP2 MLOAD DUP2 LT PUSH2 0x1903 JUMPI PUSH2 0x1903 PUSH2 0x41C3 JUMP JUMPDEST PUSH1 0x20 MUL PUSH1 0x20 ADD ADD MLOAD DUP7 DUP4 DUP2 MLOAD DUP2 LT PUSH2 0x191D JUMPI PUSH2 0x191D PUSH2 0x41C3 JUMP JUMPDEST PUSH1 0x20 MUL PUSH1 0x20 ADD ADD MLOAD PUSH2 0x29CD JUMP JUMPDEST DUP3 DUP3 DUP2 MLOAD DUP2 LT PUSH2 0x193C JUMPI PUSH2 0x193C PUSH2 0x41C3 JUMP JUMPDEST PUSH1 0x20 SWAP1 DUP2 MUL SWAP2 SWAP1 SWAP2 ADD ADD MSTORE PUSH1 0x1 ADD PUSH2 0x18E6 JUMP JUMPDEST POP SWAP5 SWAP4 POP POP POP POP JUMP JUMPDEST CALLER PUSH2 0x1962 DUP2 PUSH2 0x291B JUMP JUMPDEST PUSH1 0x1 PUSH1 0x1 PUSH1 0xA0 SHL SUB DUP4 AND PUSH1 0x0 SWAP1 DUP2 MSTORE PUSH1 0xD PUSH1 0x20 SWAP1 DUP2 MSTORE PUSH1 0x40 DUP1 DUP4 KECCAK256 CALLER DUP5 MSTORE PUSH1 0x3 ADD SWAP1 SWAP2 MSTORE SWAP1 KECCAK256 SLOAD ISZERO PUSH2 0x19A7 JUMPI PUSH1 0x40 MLOAD PUSH4 0x448BAE6F PUSH1 0xE0 SHL DUP2 MSTORE PUSH1 0x4 ADD PUSH1 0x40 MLOAD DUP1 SWAP2 SUB SWAP1 REVERT JUMPDEST PUSH1 0x1 PUSH1 0x1 PUSH1 0xA0 SHL SUB DUP4 AND PUSH1 0x0 SWAP1 DUP2 MSTORE PUSH1 0xB PUSH1 0x20 MSTORE PUSH1 0x40 SWAP1 KECCAK256 PUSH1 0x2 PUSH1 0x4 DUP3 ADD SLOAD PUSH2 0x100 SWAP1 DIV PUSH1 0xFF AND PUSH1 0x6 DUP2 GT ISZERO PUSH2 0x19DF JUMPI PUSH2 0x19DF PUSH2 0x3AFB JUMP JUMPDEST SUB PUSH2 0x19FD JUMPI PUSH1 0x40 MLOAD PUSH4 0x5CA31D3 PUSH1 0xE5 SHL DUP2 MSTORE PUSH1 0x4 ADD PUSH1 0x40 MLOAD DUP1 SWAP2 SUB SWAP1 REVERT JUMPDEST CALLER PUSH1 0x0 SWAP1 DUP2 MSTORE PUSH1 0xC PUSH1 0x20 MSTORE PUSH1 0x40 DUP2 KECCAK256 SLOAD PUSH1 0x6 SLOAD PUSH1 0x5 SLOAD SWAP2 SWAP3 SWAP2 PUSH1 0x64 SWAP2 PUSH2 0x1A22 SWAP2 PUSH2 0x44A6 JUMP JUMPDEST PUSH2 0x1A2C SWAP2 SWAP1 PUSH2 0x44BD JUMP JUMPDEST PUSH1 0x1 PUSH1 0x1 PUSH1 0xA0 SHL SUB DUP8 AND PUSH1 0x0 SWAP1 DUP2 MSTORE PUSH1 0xD PUSH1 0x20 SWAP1 DUP2 MSTORE PUSH1 0x40 DUP1 DUP4 KECCAK256 CALLER DUP5 MSTORE PUSH1 0x3 ADD SWAP1 SWAP2 MSTORE SWAP1 KECCAK256 DUP4 SWAP1 SSTORE SWAP1 POP PUSH1 0x2 DUP6 PUSH1 0x6 DUP2 GT ISZERO PUSH2 0x1A6B JUMPI PUSH2 0x1A6B PUSH2 0x3AFB JUMP JUMPDEST SUB PUSH2 0x1D33 JUMPI PUSH1 0x1 PUSH1 0x1 PUSH1 0xA0 SHL SUB DUP7 AND PUSH1 0x0 SWAP1 DUP2 MSTORE PUSH1 0xD PUSH1 0x20 MSTORE PUSH1 0x40 DUP2 KECCAK256 PUSH1 0x1 ADD DUP1 SLOAD DUP5 SWAP3 SWAP1 PUSH2 0x1A9B SWAP1 DUP5 SWAP1 PUSH2 0x44DF JUMP JUMPDEST SWAP1 SWAP2 SSTORE POP POP PUSH1 0x1 PUSH1 0x1 PUSH1 0xA0 SHL SUB DUP7 AND PUSH1 0x0 SWAP1 DUP2 MSTORE PUSH1 0xD PUSH1 0x20 MSTORE PUSH1 0x40 SWAP1 KECCAK256 PUSH1 0x1 ADD SLOAD DUP2 LT ISZERO PUSH2 0x1D2E JUMPI PUSH1 0x1 PUSH1 0x1 PUSH1 0xA0 SHL SUB DUP7 AND PUSH1 0x0 SWAP1 DUP2 MSTORE PUSH1 0xB PUSH1 0x20 MSTORE PUSH1 0x40 SWAP1 KECCAK256 PUSH1 0x4 ADD DUP1 SLOAD DUP7 SWAP2 SWAP1 PUSH2 0xFF00 NOT AND PUSH2 0x100 DUP4 PUSH1 0x6 DUP2 GT ISZERO PUSH2 0x1AFD JUMPI PUSH2 0x1AFD PUSH2 0x3AFB JUMP JUMPDEST MUL OR SWAP1 SSTORE POP PUSH1 0x1 PUSH1 0x1 PUSH1 0xA0 SHL SUB DUP7 AND PUSH1 0x0 SWAP1 DUP2 MSTORE PUSH1 0xD PUSH1 0x20 SWAP1 DUP2 MSTORE PUSH1 0x40 DUP1 DUP4 KECCAK256 DUP1 SLOAD DUP3 MLOAD DUP2 DUP6 MUL DUP2 ADD DUP6 ADD SWAP1 SWAP4 MSTORE DUP1 DUP4 MSTORE PUSH2 0x1CF1 SWAP5 DUP12 SWAP5 DUP5 ADD JUMPDEST DUP3 DUP3 LT ISZERO PUSH2 0x1CE8 JUMPI DUP4 DUP3 SWAP1 PUSH1 0x0 MSTORE PUSH1 0x20 PUSH1 0x0 KECCAK256 SWAP1 PUSH1 0x5 MUL ADD PUSH1 0x40 MLOAD DUP1 PUSH1 0x80 ADD PUSH1 0x40 MSTORE SWAP1 DUP2 PUSH1 0x0 DUP3 ADD SLOAD DUP2 MSTORE PUSH1 0x20 ADD PUSH1 0x1 DUP3 ADD PUSH1 0x40 MLOAD DUP1 PUSH1 0x40 ADD PUSH1 0x40 MSTORE SWAP1 DUP2 PUSH1 0x0 DUP3 ADD SLOAD DUP2 MSTORE PUSH1 0x20 ADD PUSH1 0x1 DUP3 ADD DUP1 SLOAD PUSH2 0x1B8E SWAP1 PUSH2 0x416C JUMP JUMPDEST DUP1 PUSH1 0x1F ADD PUSH1 0x20 DUP1 SWAP2 DIV MUL PUSH1 0x20 ADD PUSH1 0x40 MLOAD SWAP1 DUP2 ADD PUSH1 0x40 MSTORE DUP1 SWAP3 SWAP2 SWAP1 DUP2 DUP2 MSTORE PUSH1 0x20 ADD DUP3 DUP1 SLOAD PUSH2 0x1BBA SWAP1 PUSH2 0x416C JUMP JUMPDEST DUP1 ISZERO PUSH2 0x1C07 JUMPI DUP1 PUSH1 0x1F LT PUSH2 0x1BDC JUMPI PUSH2 0x100 DUP1 DUP4 SLOAD DIV MUL DUP4 MSTORE SWAP2 PUSH1 0x20 ADD SWAP2 PUSH2 0x1C07 JUMP JUMPDEST DUP3 ADD SWAP2 SWAP1 PUSH1 0x0 MSTORE PUSH1 0x20 PUSH1 0x0 KECCAK256 SWAP1 JUMPDEST DUP2 SLOAD DUP2 MSTORE SWAP1 PUSH1 0x1 ADD SWAP1 PUSH1 0x20 ADD DUP1 DUP4 GT PUSH2 0x1BEA JUMPI DUP3 SWAP1 SUB PUSH1 0x1F AND DUP3 ADD SWAP2 JUMPDEST POP POP POP SWAP2 SWAP1 SWAP3 MSTORE POP POP POP DUP2 MSTORE PUSH1 0x3 DUP3 ADD SLOAD PUSH1 0x20 SWAP1 SWAP2 ADD SWAP1 PUSH1 0xFF AND PUSH1 0x6 DUP2 GT ISZERO PUSH2 0x1C32 JUMPI PUSH2 0x1C32 PUSH2 0x3AFB JUMP JUMPDEST PUSH1 0x6 DUP2 GT ISZERO PUSH2 0x1C43 JUMPI PUSH2 0x1C43 PUSH2 0x3AFB JUMP JUMPDEST DUP2 MSTORE PUSH1 0x20 ADD PUSH1 0x4 DUP3 ADD DUP1 SLOAD PUSH2 0x1C57 SWAP1 PUSH2 0x416C JUMP JUMPDEST DUP1 PUSH1 0x1F ADD PUSH1 0x20 DUP1 SWAP2 DIV MUL PUSH1 0x20 ADD PUSH1 0x40 MLOAD SWAP1 DUP2 ADD PUSH1 0x40 MSTORE DUP1 SWAP3 SWAP2 SWAP1 DUP2 DUP2 MSTORE PUSH1 0x20 ADD DUP3 DUP1 SLOAD PUSH2 0x1C83 SWAP1 PUSH2 0x416C JUMP JUMPDEST DUP1 ISZERO PUSH2 0x1CD0 JUMPI DUP1 PUSH1 0x1F LT PUSH2 0x1CA5 JUMPI PUSH2 0x100 DUP1 DUP4 SLOAD DIV MUL DUP4 MSTORE SWAP2 PUSH1 0x20 ADD SWAP2 PUSH2 0x1CD0 JUMP JUMPDEST DUP3 ADD SWAP2 SWAP1 PUSH1 0x0 MSTORE PUSH1 0x20 PUSH1 0x0 KECCAK256 SWAP1 JUMPDEST DUP2 SLOAD DUP2 MSTORE SWAP1 PUSH1 0x1 ADD SWAP1 PUSH1 0x20 ADD DUP1 DUP4 GT PUSH2 0x1CB3 JUMPI DUP3 SWAP1 SUB PUSH1 0x1F AND DUP3 ADD SWAP2 JUMPDEST POP POP POP POP POP DUP2 MSTORE POP POP DUP2 MSTORE PUSH1 0x20 ADD SWAP1 PUSH1 0x1 ADD SWAP1 PUSH2 0x1B37 JUMP JUMPDEST POP POP POP POP PUSH2 0x2A18 JUMP JUMPDEST PUSH1 0x40 MLOAD PUSH1 0x1 PUSH1 0x1 PUSH1 0xA0 SHL SUB DUP8 AND DUP2 MSTORE PUSH32 0x7B05D1F85B1AC2E76C0D8DBB0DFA809DF6788F66BBEEB837B2B5FAE4F64C0063 SWAP1 PUSH1 0x20 ADD PUSH1 0x40 MLOAD DUP1 SWAP2 SUB SWAP1 LOG1 JUMPDEST PUSH2 0x1E24 JUMP JUMPDEST PUSH1 0x3 DUP6 PUSH1 0x6 DUP2 GT ISZERO PUSH2 0x1D47 JUMPI PUSH2 0x1D47 PUSH2 0x3AFB JUMP JUMPDEST SUB PUSH2 0x1E24 JUMPI PUSH1 0x1 PUSH1 0x1 PUSH1 0xA0 SHL SUB DUP7 AND PUSH1 0x0 SWAP1 DUP2 MSTORE PUSH1 0xD PUSH1 0x20 MSTORE PUSH1 0x40 DUP2 KECCAK256 PUSH1 0x2 ADD DUP1 SLOAD DUP5 SWAP3 SWAP1 PUSH2 0x1D77 SWAP1 DUP5 SWAP1 PUSH2 0x44DF JUMP JUMPDEST SWAP1 SWAP2 SSTORE POP POP PUSH1 0x1 PUSH1 0x1 PUSH1 0xA0 SHL SUB DUP7 AND PUSH1 0x0 SWAP1 DUP2 MSTORE PUSH1 0xD PUSH1 0x20 MSTORE PUSH1 0x40 SWAP1 KECCAK256 PUSH1 0x2 ADD SLOAD DUP2 LT ISZERO PUSH2 0x1E24 JUMPI PUSH1 0x1 PUSH1 0x1 PUSH1 0xA0 SHL SUB DUP7 AND PUSH1 0x0 SWAP1 DUP2 MSTORE PUSH1 0xB PUSH1 0x20 MSTORE PUSH1 0x40 SWAP1 KECCAK256 PUSH1 0x4 ADD DUP1 SLOAD DUP7 SWAP2 SWAP1 PUSH2 0xFF00 NOT AND PUSH2 0x100 DUP4 PUSH1 0x6 DUP2 GT ISZERO PUSH2 0x1DD9 JUMPI PUSH2 0x1DD9 PUSH2 0x3AFB JUMP JUMPDEST MUL OR SWAP1 SSTORE POP PUSH2 0x1DE7 DUP7 PUSH2 0x2861 JUMP JUMPDEST PUSH1 0x40 MLOAD PUSH1 0x1 PUSH1 0x1 PUSH1 0xA0 SHL SUB DUP8 AND DUP2 MSTORE PUSH32 0x5A90817477DD8F83CFE5D429E1DC84AD5A25CB72B83291C707C6F8F5C4F2AC84 SWAP1 PUSH1 0x20 ADD PUSH1 0x40 MLOAD DUP1 SWAP2 SUB SWAP1 LOG1 JUMPDEST PUSH32 0x30DAE55C386C6176F3F7B7EE6AD4DF33970F2E442CB0142E978CF78FD8AE138D DUP7 DUP7 PUSH1 0x40 MLOAD PUSH2 0x105C SWAP3 SWAP2 SWAP1 PUSH2 0x457D JUMP JUMPDEST CALLER PUSH2 0x1E5F DUP2 PUSH2 0x291B JUMP JUMPDEST PUSH2 0x1E68 DUP3 PUSH2 0x2C9C JUMP JUMPDEST PUSH1 0x40 MLOAD DUP3 ISZERO ISZERO DUP2 MSTORE PUSH32 0xD94C9BC4D43C51D8DC345A016D8E3D994432FAC68E72832E4CF3A616BD8EFAE0 SWAP1 PUSH1 0x20 ADD PUSH1 0x40 MLOAD DUP1 SWAP2 SUB SWAP1 LOG1 POP POP JUMP JUMPDEST PUSH1 0xE PUSH1 0x20 MSTORE DUP2 PUSH1 0x0 MSTORE PUSH1 0x40 PUSH1 0x0 KECCAK256 DUP2 DUP2 SLOAD DUP2 LT PUSH2 0x1EBD JUMPI PUSH1 0x0 DUP1 REVERT JUMPDEST SWAP1 PUSH1 0x0 MSTORE PUSH1 0x20 PUSH1 0x0 KECCAK256 SWAP1 PUSH1 0x5 MUL ADD PUSH1 0x0 SWAP2 POP SWAP2 POP POP DUP1 PUSH1 0x0 ADD SLOAD SWAP1 DUP1 PUSH1 0x1 ADD PUSH1 0x40 MLOAD DUP1 PUSH1 0x40 ADD PUSH1 0x40 MSTORE SWAP1 DUP2 PUSH1 0x0 DUP3 ADD SLOAD DUP2 MSTORE PUSH1 0x20 ADD PUSH1 0x1 DUP3 ADD DUP1 SLOAD PUSH2 0x1F01 SWAP1 PUSH2 0x416C JUMP JUMPDEST DUP1 PUSH1 0x1F ADD PUSH1 0x20 DUP1 SWAP2 DIV MUL PUSH1 0x20 ADD PUSH1 0x40 MLOAD SWAP1 DUP2 ADD PUSH1 0x40 MSTORE DUP1 SWAP3 SWAP2 SWAP1 DUP2 DUP2 MSTORE PUSH1 0x20 ADD DUP3 DUP1 SLOAD PUSH2 0x1F2D SWAP1 PUSH2 0x416C JUMP JUMPDEST DUP1 ISZERO PUSH2 0x1F7A JUMPI DUP1 PUSH1 0x1F LT PUSH2 0x1F4F JUMPI PUSH2 0x100 DUP1 DUP4 SLOAD DIV MUL DUP4 MSTORE SWAP2 PUSH1 0x20 ADD SWAP2 PUSH2 0x1F7A JUMP JUMPDEST DUP3 ADD SWAP2 SWAP1 PUSH1 0x0 MSTORE PUSH1 0x20 PUSH1 0x0 KECCAK256 SWAP1 JUMPDEST DUP2 SLOAD DUP2 MSTORE SWAP1 PUSH1 0x1 ADD SWAP1 PUSH1 0x20 ADD DUP1 DUP4 GT PUSH2 0x1F5D JUMPI DUP3 SWAP1 SUB PUSH1 0x1F AND DUP3 ADD SWAP2 JUMPDEST POP POP POP SWAP2 SWAP1 SWAP3 MSTORE POP POP POP PUSH1 0x3 DUP3 ADD SLOAD PUSH1 0x4 DUP4 ADD DUP1 SLOAD SWAP3 SWAP4 PUSH1 0xFF SWAP1 SWAP3 AND SWAP3 PUSH2 0x1FA0 SWAP1 PUSH2 0x416C JUMP JUMPDEST DUP1 PUSH1 0x1F ADD PUSH1 0x20 DUP1 SWAP2 DIV MUL PUSH1 0x20 ADD PUSH1 0x40 MLOAD SWAP1 DUP2 ADD PUSH1 0x40 MSTORE DUP1 SWAP3 SWAP2 SWAP1 DUP2 DUP2 MSTORE PUSH1 0x20 ADD DUP3 DUP1 SLOAD PUSH2 0x1FCC SWAP1 PUSH2 0x416C JUMP JUMPDEST DUP1 ISZERO PUSH2 0x2019 JUMPI DUP1 PUSH1 0x1F LT PUSH2 0x1FEE JUMPI PUSH2 0x100 DUP1 DUP4 SLOAD DIV MUL DUP4 MSTORE SWAP2 PUSH1 0x20 ADD SWAP2 PUSH2 0x2019 JUMP JUMPDEST DUP3 ADD SWAP2 SWAP1 PUSH1 0x0 MSTORE PUSH1 0x20 PUSH1 0x0 KECCAK256 SWAP1 JUMPDEST DUP2 SLOAD DUP2 MSTORE SWAP1 PUSH1 0x1 ADD SWAP1 PUSH1 0x20 ADD DUP1 DUP4 GT PUSH2 0x1FFC JUMPI DUP3 SWAP1 SUB PUSH1 0x1F AND DUP3 ADD SWAP2 JUMPDEST POP POP POP POP POP SWAP1 POP DUP5 JUMP JUMPDEST PUSH1 0x0 PUSH2 0x8A6 DUP3 PUSH2 0x2CE3 JUMP JUMPDEST PUSH1 0x0 DUP2 DUP1 PUSH1 0x20 ADD SWAP1 MLOAD DUP2 ADD SWAP1 PUSH2 0x2044 SWAP2 SWAP1 PUSH2 0x45A5 JUMP JUMPDEST SWAP1 POP PUSH2 0x2050 DUP4 DUP3 PUSH2 0x2CF8 JUMP JUMPDEST PUSH32 0x91EFA3D50FECCDE0D0D202F8AE5C41CA0B2BE614CEBCB2BD2F4B019396E6568A DUP4 DUP4 PUSH1 0x40 MLOAD PUSH2 0x2081 SWAP3 SWAP2 SWAP1 PUSH2 0x46CD JUMP JUMPDEST PUSH1 0x40 MLOAD DUP1 SWAP2 SUB SWAP1 LOG1 POP POP POP JUMP JUMPDEST PUSH2 0x2096 PUSH2 0x211E JUMP JUMPDEST PUSH2 0x209E PUSH2 0x2169 JUMP JUMPDEST PUSH2 0x20A8 DUP3 DUP3 PUSH2 0x2F03 JUMP JUMPDEST POP POP JUMP JUMPDEST PUSH2 0x20B4 PUSH2 0x211E JUMP JUMPDEST DUP1 PUSH1 0x2 PUSH1 0x0 DUP3 DUP3 SLOAD PUSH2 0x20C6 SWAP2 SWAP1 PUSH2 0x44DF JUMP JUMPDEST SWAP1 SWAP2 SSTORE POP PUSH2 0x20D3 SWAP1 POP DUP2 DUP2 JUMP JUMPDEST POP JUMP JUMPDEST PUSH1 0x1 PUSH1 0x1 PUSH1 0xA0 SHL SUB DUP3 AND PUSH1 0x0 SWAP1 DUP2 MSTORE PUSH1 0xE PUSH1 0x20 MSTORE PUSH1 0x40 DUP2 KECCAK256 DUP1 SLOAD DUP4 SWAP1 DUP2 LT PUSH2 0x2100 JUMPI PUSH2 0x2100 PUSH2 0x41C3 JUMP JUMPDEST PUSH1 0x0 SWAP2 DUP3 MSTORE PUSH1 0x20 SWAP1 SWAP2 KECCAK256 PUSH1 0x5 SWAP1 SWAP2 MUL ADD PUSH1 0x3 ADD SLOAD PUSH1 0xFF AND SWAP4 SWAP3 POP POP POP JUMP JUMPDEST CALLER PUSH1 0x1 PUSH1 0x1 PUSH1 0xA0 SHL SUB PUSH32 0x0 AND EQ PUSH2 0x2167 JUMPI PUSH1 0x40 MLOAD PUSH4 0x75FD2B1 PUSH1 0xE0 SHL DUP2 MSTORE PUSH1 0x4 ADD PUSH1 0x40 MLOAD DUP1 SWAP2 SUB SWAP1 REVERT JUMPDEST JUMP JUMPDEST PUSH1 0x1 SLOAD PUSH1 0x0 SUB PUSH2 0x2167 JUMPI PUSH1 0x40 MLOAD PUSH4 0xF68FE63 PUSH1 0xE2 SHL DUP2 MSTORE PUSH1 0x4 ADD PUSH1 0x40 MLOAD DUP1 SWAP2 SUB SWAP1 REVERT JUMPDEST PUSH1 0x1 PUSH1 0x1 PUSH1 0xA0 SHL SUB DUP2 AND ADDRESS EQ PUSH2 0x21E4 JUMPI PUSH1 0x40 MLOAD PUSH3 0x461BCD PUSH1 0xE5 SHL DUP2 MSTORE PUSH1 0x20 PUSH1 0x4 DUP3 ADD MSTORE PUSH1 0x17 PUSH1 0x24 DUP3 ADD MSTORE PUSH32 0x554E415554484F52495A45442064697374726962757465000000000000000000 PUSH1 0x44 DUP3 ADD MSTORE PUSH1 0x64 ADD PUSH2 0xB4A JUMP JUMPDEST DUP3 MLOAD PUSH1 0x0 JUMPDEST DUP2 DUP2 LT ISZERO PUSH2 0x221C JUMPI PUSH2 0x2214 DUP6 DUP3 DUP2 MLOAD DUP2 LT PUSH2 0x2206 JUMPI PUSH2 0x2206 PUSH2 0x41C3 JUMP JUMPDEST PUSH1 0x20 MUL PUSH1 0x20 ADD ADD MLOAD DUP5 PUSH2 0x322D JUMP JUMPDEST PUSH1 0x1 ADD PUSH2 0x21E9 JUMP JUMPDEST POP POP POP POP POP JUMP JUMPDEST PUSH1 0x0 PUSH2 0x222D PUSH2 0x359D JUMP JUMPDEST PUSH1 0x0 DUP1 PUSH1 0x0 DUP1 PUSH2 0x2250 PUSH1 0x40 MLOAD DUP1 PUSH1 0x40 ADD PUSH1 0x40 MSTORE DUP1 PUSH1 0x0 DUP2 MSTORE PUSH1 0x20 ADD PUSH1 0x60 DUP2 MSTORE POP SWAP1 JUMP JUMPDEST PUSH1 0x4 SLOAD PUSH1 0xFF AND ISZERO PUSH2 0x22A5 JUMPI DUP8 DUP1 PUSH1 0x20 ADD SWAP1 MLOAD DUP2 ADD SWAP1 PUSH2 0x226F SWAP2 SWAP1 PUSH2 0x477C JUMP JUMPDEST SWAP3 SWAP9 POP SWAP1 SWAP7 POP SWAP3 POP SWAP1 POP PUSH2 0x2283 DUP7 DUP9 PUSH2 0x2769 JUMP JUMPDEST PUSH2 0x22A0 JUMPI PUSH1 0x40 MLOAD PUSH4 0x75FD2B1 PUSH1 0xE0 SHL DUP2 MSTORE PUSH1 0x4 ADD PUSH1 0x40 MLOAD DUP1 SWAP2 SUB SWAP1 REVERT JUMPDEST PUSH2 0x2312 JUMP JUMPDEST DUP8 DUP1 PUSH1 0x20 ADD SWAP1 MLOAD DUP2 ADD SWAP1 PUSH2 0x22B9 SWAP2 SWAP1 PUSH2 0x477C JUMP JUMPDEST SWAP3 SWAP8 POP SWAP1 SWAP6 POP PUSH1 0x1 PUSH1 0x1 PUSH1 0xA0 SHL SUB DUP7 AND ISZERO ISZERO SWAP5 POP SWAP3 POP SWAP1 POP DUP3 PUSH2 0x22DC JUMPI DUP5 PUSH2 0x22DE JUMP JUMPDEST DUP4 JUMPDEST SWAP6 POP DUP3 DUP1 ISZERO PUSH2 0x22F4 JUMPI POP PUSH2 0x22F2 DUP7 DUP9 PUSH2 0x2769 JUMP JUMPDEST ISZERO JUMPDEST ISZERO PUSH2 0x2312 JUMPI PUSH1 0x40 MLOAD PUSH4 0x75FD2B1 PUSH1 0xE0 SHL DUP2 MSTORE PUSH1 0x4 ADD PUSH1 0x40 MLOAD DUP1 SWAP2 SUB SWAP1 REVERT JUMPDEST PUSH1 0x4 SLOAD PUSH3 0x10000 SWAP1 DIV PUSH1 0xFF AND DUP1 ISZERO PUSH2 0x2328 JUMPI POP DUP2 ISZERO JUMPDEST ISZERO PUSH2 0x2346 JUMPI PUSH1 0x40 MLOAD PUSH4 0x3B167DD PUSH1 0xE0 SHL DUP2 MSTORE PUSH1 0x4 ADD PUSH1 0x40 MLOAD DUP1 SWAP2 SUB SWAP1 REVERT JUMPDEST PUSH1 0x2 PUSH1 0x1 PUSH1 0x1 PUSH1 0xA0 SHL SUB DUP8 AND PUSH1 0x0 SWAP1 DUP2 MSTORE PUSH1 0xB PUSH1 0x20 MSTORE PUSH1 0x40 SWAP1 KECCAK256 PUSH1 0x4 ADD SLOAD PUSH1 0xFF AND PUSH1 0x6 DUP2 GT ISZERO PUSH2 0x2378 JUMPI PUSH2 0x2378 PUSH2 0x3AFB JUMP JUMPDEST SUB PUSH2 0x2396 JUMPI PUSH1 0x40 MLOAD PUSH4 0x83A81F7 PUSH1 0xE3 SHL DUP2 MSTORE PUSH1 0x4 ADD PUSH1 0x40 MLOAD DUP1 SWAP2 SUB SWAP1 REVERT JUMPDEST PUSH1 0x4 SLOAD PUSH2 0x100 SWAP1 DIV PUSH1 0xFF AND DUP1 ISZERO PUSH2 0x23B9 JUMPI POP PUSH1 0x20 DUP2 ADD MLOAD MLOAD ISZERO DUP1 PUSH2 0x23B9 JUMPI POP DUP1 MLOAD ISZERO JUMPDEST ISZERO PUSH2 0x23D7 JUMPI PUSH1 0x40 MLOAD PUSH4 0xC19E07C5 PUSH1 0xE0 SHL DUP2 MSTORE PUSH1 0x4 ADD PUSH1 0x40 MLOAD DUP1 SWAP2 SUB SWAP1 REVERT JUMPDEST PUSH1 0x40 DUP1 MLOAD PUSH1 0xC0 DUP2 ADD SWAP1 SWAP2 MSTORE PUSH1 0x4 SLOAD PUSH1 0x0 SWAP2 SWAP1 DUP2 SWAP1 PUSH1 0xFF AND PUSH2 0x23F8 JUMPI DUP6 PUSH2 0x23FB JUMP JUMPDEST PUSH1 0x1 JUMPDEST ISZERO ISZERO DUP2 MSTORE PUSH1 0x1 PUSH1 0x1 PUSH1 0xA0 SHL SUB DUP9 AND PUSH1 0x20 DUP3 ADD MSTORE PUSH1 0x40 DUP2 ADD DUP6 SWAP1 MSTORE PUSH1 0x60 DUP2 ADD DUP5 SWAP1 MSTORE PUSH1 0x80 ADD PUSH1 0x2 DUP2 MSTORE PUSH1 0x20 ADD PUSH1 0x1 SWAP1 MSTORE PUSH1 0x1 PUSH1 0x1 PUSH1 0xA0 SHL SUB DUP9 DUP2 AND PUSH1 0x0 SWAP1 DUP2 MSTORE PUSH1 0xB PUSH1 0x20 SWAP1 DUP2 MSTORE PUSH1 0x40 SWAP2 DUP3 SWAP1 KECCAK256 DUP5 MLOAD DUP2 SLOAD DUP7 DUP5 ADD MLOAD PUSH1 0x1 PUSH1 0x1 PUSH1 0xA8 SHL SUB NOT SWAP1 SWAP2 AND SWAP2 ISZERO ISZERO PUSH2 0x100 PUSH1 0x1 PUSH1 0xA8 SHL SUB NOT AND SWAP2 SWAP1 SWAP2 OR PUSH2 0x100 SWAP2 SWAP1 SWAP6 AND MUL SWAP4 SWAP1 SWAP4 OR DUP4 SSTORE SWAP1 DUP4 ADD MLOAD PUSH1 0x1 DUP4 ADD SSTORE PUSH1 0x60 DUP4 ADD MLOAD DUP1 MLOAD PUSH1 0x2 DUP5 ADD SWAP1 DUP2 SSTORE SWAP2 DUP2 ADD MLOAD SWAP4 SWAP5 POP DUP5 SWAP4 SWAP1 SWAP2 SWAP1 PUSH1 0x3 DUP5 ADD SWAP1 PUSH2 0x24AD SWAP1 DUP3 PUSH2 0x43B8 JUMP JUMPDEST POP POP POP PUSH1 0x80 DUP3 ADD MLOAD PUSH1 0x4 DUP3 ADD DUP1 SLOAD PUSH1 0xFF NOT AND PUSH1 0x1 DUP4 PUSH1 0x6 DUP2 GT ISZERO PUSH2 0x24D3 JUMPI PUSH2 0x24D3 PUSH2 0x3AFB JUMP JUMPDEST MUL OR SWAP1 SSTORE POP PUSH1 0xA0 DUP3 ADD MLOAD PUSH1 0x4 DUP3 ADD DUP1 SLOAD PUSH2 0xFF00 NOT AND PUSH2 0x100 DUP4 PUSH1 0x6 DUP2 GT ISZERO PUSH2 0x24FD JUMPI PUSH2 0x24FD PUSH2 0x3AFB JUMP JUMPDEST MUL OR SWAP1 SSTORE POP SWAP1 POP POP DUP7 PUSH1 0x1 PUSH1 0x1 PUSH1 0xA0 SHL SUB AND PUSH32 0xA197306E3DD5494A61A695381AA809A53B8E377A685E84E404A85D5A8DA6CC62 DUP11 DUP11 PUSH1 0x40 MLOAD PUSH2 0x2540 SWAP3 SWAP2 SWAP1 PUSH2 0x47E9 JUMP JUMPDEST PUSH1 0x40 MLOAD DUP1 SWAP2 SUB SWAP1 LOG2 POP POP POP POP POP POP SWAP3 SWAP2 POP POP JUMP JUMPDEST PUSH1 0x1 SLOAD PUSH1 0x40 MLOAD PUSH4 0x29E40D4B PUSH1 0xE0 SHL DUP2 MSTORE PUSH1 0x0 SWAP2 PUSH1 0x1 PUSH1 0x1 PUSH1 0xA0 SHL SUB PUSH32 0x0 AND SWAP2 PUSH4 0x29E40D4B SWAP2 PUSH2 0x25B8 SWAP2 DUP7 SWAP1 PUSH1 0x4 ADD SWAP2 DUP3 MSTORE PUSH1 0x1 PUSH1 0x1 PUSH1 0xA0 SHL SUB AND PUSH1 0x20 DUP3 ADD MSTORE PUSH1 0x40 ADD SWAP1 JUMP JUMPDEST PUSH1 0x20 PUSH1 0x40 MLOAD DUP1 DUP4 SUB DUP2 DUP7 GAS STATICCALL ISZERO DUP1 ISZERO PUSH2 0x25D5 JUMPI RETURNDATASIZE PUSH1 0x0 DUP1 RETURNDATACOPY RETURNDATASIZE PUSH1 0x0 REVERT JUMPDEST POP POP POP POP PUSH1 0x40 MLOAD RETURNDATASIZE PUSH1 0x1F NOT PUSH1 0x1F DUP3 ADD AND DUP3 ADD DUP1 PUSH1 0x40 MSTORE POP DUP2 ADD SWAP1 PUSH2 0x8A6 SWAP2 SWAP1 PUSH2 0x41A6 JUMP JUMPDEST PUSH2 0x2601 PUSH2 0x36D5 JUMP JUMPDEST PUSH1 0x1 PUSH1 0x1 PUSH1 0xA0 SHL SUB DUP1 DUP4 AND PUSH1 0x0 SWAP1 DUP2 MSTORE PUSH1 0xB PUSH1 0x20 SWAP1 DUP2 MSTORE PUSH1 0x40 SWAP2 DUP3 SWAP1 KECCAK256 DUP3 MLOAD PUSH1 0xC0 DUP2 ADD DUP5 MSTORE DUP2 SLOAD PUSH1 0xFF DUP2 AND ISZERO ISZERO DUP3 MSTORE PUSH2 0x100 SWAP1 DIV SWAP1 SWAP5 AND DUP5 DUP4 ADD MSTORE PUSH1 0x1 DUP2 ADD SLOAD DUP5 DUP5 ADD MSTORE DUP3 MLOAD DUP1 DUP5 ADD SWAP1 SWAP4 MSTORE PUSH1 0x2 DUP2 ADD DUP1 SLOAD DUP5 MSTORE PUSH1 0x3 DUP3 ADD DUP1 SLOAD SWAP3 SWAP5 PUSH1 0x60 DUP8 ADD SWAP5 SWAP1 SWAP4 SWAP1 DUP5 ADD SWAP2 SWAP1 PUSH2 0x2672 SWAP1 PUSH2 0x416C JUMP JUMPDEST DUP1 PUSH1 0x1F ADD PUSH1 0x20 DUP1 SWAP2 DIV MUL PUSH1 0x20 ADD PUSH1 0x40 MLOAD SWAP1 DUP2 ADD PUSH1 0x40 MSTORE DUP1 SWAP3 SWAP2 SWAP1 DUP2 DUP2 MSTORE PUSH1 0x20 ADD DUP3 DUP1 SLOAD PUSH2 0x269E SWAP1 PUSH2 0x416C JUMP JUMPDEST DUP1 ISZERO PUSH2 0x26EB JUMPI DUP1 PUSH1 0x1F LT PUSH2 0x26C0 JUMPI PUSH2 0x100 DUP1 DUP4 SLOAD DIV MUL DUP4 MSTORE SWAP2 PUSH1 0x20 ADD SWAP2 PUSH2 0x26EB JUMP JUMPDEST DUP3 ADD SWAP2 SWAP1 PUSH1 0x0 MSTORE PUSH1 0x20 PUSH1 0x0 KECCAK256 SWAP1 JUMPDEST DUP2 SLOAD DUP2 MSTORE SWAP1 PUSH1 0x1 ADD SWAP1 PUSH1 0x20 ADD DUP1 DUP4 GT PUSH2 0x26CE JUMPI DUP3 SWAP1 SUB PUSH1 0x1F AND DUP3 ADD SWAP2 JUMPDEST POP POP POP SWAP2 SWAP1 SWAP3 MSTORE POP POP POP DUP2 MSTORE PUSH1 0x4 DUP3 ADD SLOAD PUSH1 0x20 SWAP1 SWAP2 ADD SWAP1 PUSH1 0xFF AND PUSH1 0x6 DUP2 GT ISZERO PUSH2 0x2716 JUMPI PUSH2 0x2716 PUSH2 0x3AFB JUMP JUMPDEST PUSH1 0x6 DUP2 GT ISZERO PUSH2 0x2727 JUMPI PUSH2 0x2727 PUSH2 0x3AFB JUMP JUMPDEST DUP2 MSTORE PUSH1 0x20 ADD PUSH1 0x4 DUP3 ADD PUSH1 0x1 SWAP1 SLOAD SWAP1 PUSH2 0x100 EXP SWAP1 DIV PUSH1 0xFF AND PUSH1 0x6 DUP2 GT ISZERO PUSH2 0x274F JUMPI PUSH2 0x274F PUSH2 0x3AFB JUMP JUMPDEST PUSH1 0x6 DUP2 GT ISZERO PUSH2 0x2760 JUMPI PUSH2 0x2760 PUSH2 0x3AFB JUMP JUMPDEST SWAP1 MSTORE POP SWAP3 SWAP2 POP POP JUMP JUMPDEST PUSH1 0x7 SLOAD PUSH1 0x40 MLOAD PUSH4 0xDD93DA43 PUSH1 0xE0 SHL DUP2 MSTORE PUSH1 0x1 PUSH1 0x1 PUSH1 0xA0 SHL SUB DUP5 DUP2 AND PUSH1 0x4 DUP4 ADD MSTORE PUSH1 0x0 SWAP3 DUP4 SWAP3 SWAP2 AND SWAP1 PUSH4 0xDD93DA43 SWAP1 PUSH1 0x24 ADD PUSH1 0x0 PUSH1 0x40 MLOAD DUP1 DUP4 SUB DUP2 DUP7 GAS STATICCALL ISZERO DUP1 ISZERO PUSH2 0x27B7 JUMPI RETURNDATASIZE PUSH1 0x0 DUP1 RETURNDATACOPY RETURNDATASIZE PUSH1 0x0 REVERT JUMPDEST POP POP POP POP PUSH1 0x40 MLOAD RETURNDATASIZE PUSH1 0x0 DUP3 RETURNDATACOPY PUSH1 0x1F RETURNDATASIZE SWAP1 DUP2 ADD PUSH1 0x1F NOT AND DUP3 ADD PUSH1 0x40 MSTORE PUSH2 0x27DF SWAP2 SWAP1 DUP2 ADD SWAP1 PUSH2 0x4813 JUMP JUMPDEST PUSH1 0x7 SLOAD DUP2 MLOAD PUSH1 0x40 MLOAD PUSH4 0x5E8A7915 PUSH1 0xE0 SHL DUP2 MSTORE PUSH1 0x4 DUP2 ADD SWAP2 SWAP1 SWAP2 MSTORE PUSH1 0x1 PUSH1 0x1 PUSH1 0xA0 SHL SUB DUP7 DUP2 AND PUSH1 0x24 DUP4 ADD MSTORE SWAP3 SWAP4 POP SWAP2 AND SWAP1 PUSH4 0x5E8A7915 SWAP1 PUSH1 0x44 ADD PUSH1 0x20 PUSH1 0x40 MLOAD DUP1 DUP4 SUB DUP2 DUP7 GAS STATICCALL ISZERO DUP1 ISZERO PUSH2 0x2835 JUMPI RETURNDATASIZE PUSH1 0x0 DUP1 RETURNDATACOPY RETURNDATASIZE PUSH1 0x0 REVERT JUMPDEST POP POP POP POP PUSH1 0x40 MLOAD RETURNDATASIZE PUSH1 0x1F NOT PUSH1 0x1F DUP3 ADD AND DUP3 ADD DUP1 PUSH1 0x40 MSTORE POP DUP2 ADD SWAP1 PUSH2 0x2859 SWAP2 SWAP1 PUSH2 0x41A6 JUMP JUMPDEST SWAP5 SWAP4 POP POP POP POP JUMP JUMPDEST PUSH1 0x0 JUMPDEST PUSH1 0xA SLOAD DUP2 LT ISZERO PUSH2 0x28E4 JUMPI PUSH1 0x0 PUSH1 0xD PUSH1 0x0 DUP5 PUSH1 0x1 PUSH1 0x1 PUSH1 0xA0 SHL SUB AND PUSH1 0x1 PUSH1 0x1 PUSH1 0xA0 SHL SUB AND DUP2 MSTORE PUSH1 0x20 ADD SWAP1 DUP2 MSTORE PUSH1 0x20 ADD PUSH1 0x0 KECCAK256 PUSH1 0x3 ADD PUSH1 0x0 PUSH1 0xA DUP5 DUP2 SLOAD DUP2 LT PUSH2 0x28AD JUMPI PUSH2 0x28AD PUSH2 0x41C3 JUMP JUMPDEST PUSH1 0x0 SWAP2 DUP3 MSTORE PUSH1 0x20 DUP1 DUP4 KECCAK256 SWAP1 SWAP2 ADD SLOAD PUSH1 0x1 PUSH1 0x1 PUSH1 0xA0 SHL SUB AND DUP4 MSTORE DUP3 ADD SWAP3 SWAP1 SWAP3 MSTORE PUSH1 0x40 ADD SWAP1 KECCAK256 SSTORE DUP1 PUSH2 0x28DC DUP2 PUSH2 0x448D JUMP JUMPDEST SWAP2 POP POP PUSH2 0x2864 JUMP JUMPDEST POP PUSH1 0x1 PUSH1 0x1 PUSH1 0xA0 SHL SUB DUP2 AND PUSH1 0x0 SWAP1 DUP2 MSTORE PUSH1 0xD PUSH1 0x20 MSTORE PUSH1 0x40 DUP2 KECCAK256 SWAP1 PUSH2 0x2908 DUP3 DUP3 PUSH2 0x3730 JUMP JUMPDEST POP PUSH1 0x0 PUSH1 0x1 DUP3 ADD DUP2 SWAP1 SSTORE PUSH1 0x2 SWAP1 SWAP2 ADD SSTORE POP JUMP JUMPDEST PUSH1 0x1 SLOAD PUSH1 0x40 MLOAD PUSH4 0x29E40D4B PUSH1 0xE0 SHL DUP2 MSTORE PUSH1 0x4 DUP2 ADD SWAP2 SWAP1 SWAP2 MSTORE PUSH1 0x1 PUSH1 0x1 PUSH1 0xA0 SHL SUB DUP3 DUP2 AND PUSH1 0x24 DUP4 ADD MSTORE PUSH32 0x0 AND SWAP1 PUSH4 0x29E40D4B SWAP1 PUSH1 0x44 ADD PUSH1 0x20 PUSH1 0x40 MLOAD DUP1 DUP4 SUB DUP2 DUP7 GAS STATICCALL ISZERO DUP1 ISZERO PUSH2 0x298C JUMPI RETURNDATASIZE PUSH1 0x0 DUP1 RETURNDATACOPY RETURNDATASIZE PUSH1 0x0 REVERT JUMPDEST POP POP POP POP PUSH1 0x40 MLOAD RETURNDATASIZE PUSH1 0x1F NOT PUSH1 0x1F DUP3 ADD AND DUP3 ADD DUP1 PUSH1 0x40 MSTORE POP DUP2 ADD SWAP1 PUSH2 0x29B0 SWAP2 SWAP1 PUSH2 0x41A6 JUMP JUMPDEST PUSH2 0x20D3 JUMPI PUSH1 0x40 MLOAD PUSH4 0x75FD2B1 PUSH1 0xE0 SHL DUP2 MSTORE PUSH1 0x4 ADD PUSH1 0x40 MLOAD DUP1 SWAP2 SUB SWAP1 REVERT JUMPDEST PUSH1 0x40 DUP1 MLOAD DUP1 DUP3 ADD SWAP1 SWAP2 MSTORE PUSH1 0x0 DUP1 DUP3 MSTORE PUSH1 0x20 DUP3 ADD MSTORE PUSH1 0x0 PUSH2 0x29EC DUP5 PUSH2 0x25F9 JUMP JUMPDEST PUSH1 0x40 DUP1 MLOAD DUP1 DUP3 ADD DUP3 MSTORE PUSH1 0x20 DUP1 DUP5 ADD MLOAD PUSH1 0x1 PUSH1 0x1 PUSH1 0xA0 SHL SUB AND DUP3 MSTORE SWAP2 SWAP1 SWAP3 ADD MLOAD SWAP1 DUP3 ADD MSTORE SWAP2 POP POP SWAP3 SWAP2 POP POP JUMP JUMPDEST PUSH1 0x1 PUSH1 0x1 PUSH1 0xA0 SHL SUB DUP3 AND PUSH1 0x0 SWAP1 DUP2 MSTORE PUSH1 0xE PUSH1 0x20 MSTORE PUSH1 0x40 DUP2 KECCAK256 SLOAD ISZERO PUSH2 0x2A57 JUMPI PUSH1 0x1 PUSH1 0x1 PUSH1 0xA0 SHL SUB DUP4 AND PUSH1 0x0 SWAP1 DUP2 MSTORE PUSH1 0xE PUSH1 0x20 MSTORE PUSH1 0x40 DUP2 KECCAK256 PUSH2 0x2A57 SWAP2 PUSH2 0x3730 JUMP JUMPDEST DUP2 MLOAD PUSH1 0x0 JUMPDEST DUP2 DUP2 LT ISZERO PUSH2 0x2B7D JUMPI PUSH1 0x0 DUP5 DUP3 DUP2 MLOAD DUP2 LT PUSH2 0x2A78 JUMPI PUSH2 0x2A78 PUSH2 0x41C3 JUMP JUMPDEST PUSH1 0x20 MUL PUSH1 0x20 ADD ADD MLOAD SWAP1 POP PUSH1 0x0 PUSH1 0x6 DUP2 GT ISZERO PUSH2 0x2A95 JUMPI PUSH2 0x2A95 PUSH2 0x3AFB JUMP JUMPDEST DUP2 PUSH1 0x40 ADD MLOAD PUSH1 0x6 DUP2 GT ISZERO PUSH2 0x2AAB JUMPI PUSH2 0x2AAB PUSH2 0x3AFB JUMP JUMPDEST EQ PUSH2 0x2AC9 JUMPI PUSH1 0x40 MLOAD PUSH4 0x5B2FE71D PUSH1 0xE1 SHL DUP2 MSTORE PUSH1 0x4 ADD PUSH1 0x40 MLOAD DUP1 SWAP2 SUB SWAP1 REVERT JUMPDEST DUP1 MLOAD PUSH2 0x2AD5 SWAP1 DUP6 PUSH2 0x44DF JUMP JUMPDEST PUSH1 0x1 PUSH1 0x1 PUSH1 0xA0 SHL SUB DUP8 AND PUSH1 0x0 SWAP1 DUP2 MSTORE PUSH1 0xE PUSH1 0x20 SWAP1 DUP2 MSTORE PUSH1 0x40 DUP3 KECCAK256 DUP1 SLOAD PUSH1 0x1 DUP2 DUP2 ADD DUP4 SSTORE SWAP2 DUP5 MSTORE SWAP3 DUP3 SWAP1 KECCAK256 DUP6 MLOAD PUSH1 0x5 SWAP1 SWAP5 MUL ADD SWAP3 DUP4 SSTORE DUP5 DUP3 ADD MLOAD DUP1 MLOAD SWAP2 DUP5 ADD SWAP2 DUP3 SSTORE SWAP2 DUP3 ADD MLOAD SWAP4 SWAP8 POP DUP5 SWAP4 PUSH1 0x2 DUP5 ADD SWAP1 PUSH2 0x2B2E SWAP1 DUP3 PUSH2 0x43B8 JUMP JUMPDEST POP POP POP PUSH1 0x40 DUP3 ADD MLOAD PUSH1 0x3 DUP3 ADD DUP1 SLOAD PUSH1 0xFF NOT AND PUSH1 0x1 DUP4 PUSH1 0x6 DUP2 GT ISZERO PUSH2 0x2B54 JUMPI PUSH2 0x2B54 PUSH2 0x3AFB JUMP JUMPDEST MUL OR SWAP1 SSTORE POP PUSH1 0x60 DUP3 ADD MLOAD PUSH1 0x4 DUP3 ADD SWAP1 PUSH2 0x2B6D SWAP1 DUP3 PUSH2 0x43B8 JUMP JUMPDEST POP POP PUSH1 0x1 SWAP1 SWAP3 ADD SWAP2 POP PUSH2 0x2A5C SWAP1 POP JUMP JUMPDEST POP DUP2 PUSH8 0xDE0B6B3A7640000 EQ PUSH2 0x2BA6 JUMPI PUSH1 0x40 MLOAD PUSH4 0x97A1F28D PUSH1 0xE0 SHL DUP2 MSTORE PUSH1 0x4 ADD PUSH1 0x40 MLOAD DUP1 SWAP2 SUB SWAP1 REVERT JUMPDEST PUSH1 0x0 DUP5 PUSH1 0x2 PUSH1 0x5 SLOAD PUSH1 0x40 MLOAD PUSH1 0x20 ADD PUSH2 0x2BC0 SWAP4 SWAP3 SWAP2 SWAP1 PUSH2 0x48D9 JUMP JUMPDEST PUSH1 0x40 DUP1 MLOAD PUSH1 0x1F NOT DUP2 DUP5 SUB ADD DUP2 MSTORE SWAP1 DUP3 SWAP1 MSTORE PUSH1 0x1 SLOAD PUSH4 0x5D87031 PUSH1 0xE3 SHL DUP4 MSTORE SWAP1 SWAP3 POP PUSH1 0x1 PUSH1 0x1 PUSH1 0xA0 SHL SUB PUSH32 0x0 AND SWAP2 PUSH4 0x2EC38188 SWAP2 PUSH2 0x2C20 SWAP2 DUP6 SWAP1 PUSH1 0x4 ADD PUSH2 0x46CD JUMP JUMPDEST PUSH1 0x0 PUSH1 0x40 MLOAD DUP1 DUP4 SUB DUP2 PUSH1 0x0 DUP8 DUP1 EXTCODESIZE ISZERO DUP1 ISZERO PUSH2 0x2C3A JUMPI PUSH1 0x0 DUP1 REVERT JUMPDEST POP GAS CALL ISZERO DUP1 ISZERO PUSH2 0x2C4E JUMPI RETURNDATASIZE PUSH1 0x0 DUP1 RETURNDATACOPY RETURNDATASIZE PUSH1 0x0 REVERT JUMPDEST POP POP PUSH1 0x40 DUP1 MLOAD PUSH1 0x1 PUSH1 0x1 PUSH1 0xA0 SHL SUB DUP10 AND DUP2 MSTORE PUSH1 0x20 DUP2 ADD DUP7 SWAP1 MSTORE PUSH32 0xB000FB1507AAC2465CCB4F6BD1B601C7053279005E9E9932C41946B35C84949B SWAP4 POP ADD SWAP1 POP PUSH1 0x40 MLOAD DUP1 SWAP2 SUB SWAP1 LOG1 POP POP POP POP POP JUMP JUMPDEST PUSH1 0x0 DUP1 SLOAD PUSH1 0xFF NOT AND DUP3 ISZERO ISZERO SWAP1 DUP2 OR SWAP1 SWAP2 SSTORE PUSH1 0x40 MLOAD SWAP1 DUP2 MSTORE PUSH32 0xD94C9BC4D43C51D8DC345A016D8E3D994432FAC68E72832E4CF3A616BD8EFAE0 SWAP1 PUSH1 0x20 ADD PUSH1 0x40 MLOAD DUP1 SWAP2 SUB SWAP1 LOG1 POP JUMP JUMPDEST PUSH1 0x0 PUSH2 0x2CEE DUP3 PUSH2 0x25F9 JUMP JUMPDEST PUSH1 0x80 ADD MLOAD SWAP3 SWAP2 POP POP JUMP JUMPDEST PUSH2 0x2D01 DUP3 PUSH2 0x35C0 JUMP JUMPDEST DUP1 MLOAD PUSH1 0x4 DUP1 SLOAD PUSH1 0x20 DUP5 ADD MLOAD PUSH1 0x40 DUP6 ADD MLOAD ISZERO ISZERO PUSH3 0x10000 MUL PUSH3 0xFF0000 NOT SWAP2 ISZERO ISZERO PUSH2 0x100 MUL PUSH2 0xFF00 NOT SWAP6 ISZERO ISZERO SWAP6 SWAP1 SWAP6 AND PUSH2 0xFFFF NOT SWAP1 SWAP4 AND SWAP3 SWAP1 SWAP3 OR SWAP4 SWAP1 SWAP4 OR SWAP3 SWAP1 SWAP3 AND SWAP2 SWAP1 SWAP2 OR SWAP1 SSTORE PUSH1 0x60 DUP2 ADD MLOAD PUSH1 0x0 JUMPDEST DUP2 MLOAD DUP2 LT ISZERO PUSH2 0x2E56 JUMPI PUSH1 0xA DUP3 DUP3 DUP2 MLOAD DUP2 LT PUSH2 0x2D6D JUMPI PUSH2 0x2D6D PUSH2 0x41C3 JUMP JUMPDEST PUSH1 0x20 SWAP1 DUP2 MUL SWAP2 SWAP1 SWAP2 ADD DUP2 ADD MLOAD MLOAD DUP3 SLOAD PUSH1 0x1 DUP2 ADD DUP5 SSTORE PUSH1 0x0 SWAP4 DUP5 MSTORE SWAP2 SWAP1 SWAP3 KECCAK256 ADD DUP1 SLOAD PUSH1 0x1 PUSH1 0x1 PUSH1 0xA0 SHL SUB NOT AND PUSH1 0x1 PUSH1 0x1 PUSH1 0xA0 SHL SUB SWAP1 SWAP3 AND SWAP2 SWAP1 SWAP2 OR SWAP1 SSTORE DUP2 MLOAD DUP3 SWAP1 DUP3 SWAP1 DUP2 LT PUSH2 0x2DBD JUMPI PUSH2 0x2DBD PUSH2 0x41C3 JUMP JUMPDEST PUSH1 0x20 MUL PUSH1 0x20 ADD ADD MLOAD PUSH1 0x20 ADD MLOAD PUSH1 0xC PUSH1 0x0 DUP5 DUP5 DUP2 MLOAD DUP2 LT PUSH2 0x2DDF JUMPI PUSH2 0x2DDF PUSH2 0x41C3 JUMP JUMPDEST PUSH1 0x20 MUL PUSH1 0x20 ADD ADD MLOAD PUSH1 0x0 ADD MLOAD PUSH1 0x1 PUSH1 0x1 PUSH1 0xA0 SHL SUB AND PUSH1 0x1 PUSH1 0x1 PUSH1 0xA0 SHL SUB AND DUP2 MSTORE PUSH1 0x20 ADD SWAP1 DUP2 MSTORE PUSH1 0x20 ADD PUSH1 0x0 KECCAK256 DUP2 SWAP1 SSTORE POP DUP2 DUP2 DUP2 MLOAD DUP2 LT PUSH2 0x2E21 JUMPI PUSH2 0x2E21 PUSH2 0x41C3 JUMP JUMPDEST PUSH1 0x20 MUL PUSH1 0x20 ADD ADD MLOAD PUSH1 0x20 ADD MLOAD PUSH1 0x5 PUSH1 0x0 DUP3 DUP3 SLOAD PUSH2 0x2E3E SWAP2 SWAP1 PUSH2 0x44DF JUMP JUMPDEST SWAP1 SWAP2 SSTORE POP DUP2 SWAP1 POP PUSH2 0x2E4E DUP2 PUSH2 0x448D JUMP JUMPDEST SWAP2 POP POP PUSH2 0x2D50 JUMP JUMPDEST POP PUSH32 0x0 PUSH1 0x1 PUSH1 0x1 PUSH1 0xA0 SHL SUB AND PUSH4 0x5AB1BD53 PUSH1 0x40 MLOAD DUP2 PUSH4 0xFFFFFFFF AND PUSH1 0xE0 SHL DUP2 MSTORE PUSH1 0x4 ADD PUSH1 0x20 PUSH1 0x40 MLOAD DUP1 DUP4 SUB DUP2 DUP7 GAS STATICCALL ISZERO DUP1 ISZERO PUSH2 0x2EB5 JUMPI RETURNDATASIZE PUSH1 0x0 DUP1 RETURNDATACOPY RETURNDATASIZE PUSH1 0x0 REVERT JUMPDEST POP POP POP POP PUSH1 0x40 MLOAD RETURNDATASIZE PUSH1 0x1F NOT PUSH1 0x1F DUP3 ADD AND DUP3 ADD DUP1 PUSH1 0x40 MSTORE POP DUP2 ADD SWAP1 PUSH2 0x2ED9 SWAP2 SWAP1 PUSH2 0x4904 JUMP JUMPDEST PUSH1 0x7 DUP1 SLOAD PUSH1 0x1 PUSH1 0x1 PUSH1 0xA0 SHL SUB NOT AND PUSH1 0x1 PUSH1 0x1 PUSH1 0xA0 SHL SUB SWAP3 SWAP1 SWAP3 AND SWAP2 SWAP1 SWAP2 OR SWAP1 SSTORE PUSH2 0x876 PUSH1 0x1 PUSH2 0x2C9C JUMP JUMPDEST PUSH2 0x2F0B PUSH2 0x360F JUMP JUMPDEST PUSH1 0x1 PUSH1 0x1 PUSH1 0xA0 SHL SUB DUP2 AND ADDRESS EQ PUSH2 0x2F5B JUMPI PUSH1 0x40 MLOAD PUSH3 0x461BCD PUSH1 0xE5 SHL DUP2 MSTORE PUSH1 0x20 PUSH1 0x4 DUP3 ADD MSTORE PUSH1 0x15 PUSH1 0x24 DUP3 ADD MSTORE PUSH21 0x554E415554484F52495A454420616C6C6F63617465 PUSH1 0x58 SHL PUSH1 0x44 DUP3 ADD MSTORE PUSH1 0x64 ADD PUSH2 0xB4A JUMP JUMPDEST PUSH1 0x0 DUP1 PUSH1 0x0 DUP5 DUP1 PUSH1 0x20 ADD SWAP1 MLOAD DUP2 ADD SWAP1 PUSH2 0x2F74 SWAP2 SWAP1 PUSH2 0x4921 JUMP JUMPDEST PUSH1 0x1 PUSH1 0x1 PUSH1 0xA0 SHL SUB DUP4 AND PUSH1 0x0 SWAP1 DUP2 MSTORE PUSH1 0xB PUSH1 0x20 SWAP1 DUP2 MSTORE PUSH1 0x40 DUP1 DUP4 KECCAK256 PUSH1 0xF SWAP1 SWAP3 MSTORE SWAP1 SWAP2 KECCAK256 SLOAD SWAP4 SWAP7 POP SWAP2 SWAP5 POP SWAP3 POP SWAP1 ISZERO PUSH2 0x2FBF JUMPI PUSH1 0x40 MLOAD PUSH4 0x5CA31D3 PUSH1 0xE5 SHL DUP2 MSTORE PUSH1 0x4 ADD PUSH1 0x40 MLOAD DUP1 SWAP2 SUB SWAP1 REVERT JUMPDEST PUSH1 0x2 PUSH1 0x4 DUP3 ADD SLOAD PUSH1 0xFF AND PUSH1 0x6 DUP2 GT ISZERO PUSH2 0x2FDA JUMPI PUSH2 0x2FDA PUSH2 0x3AFB JUMP JUMPDEST EQ ISZERO DUP1 ISZERO PUSH2 0x2FF9 JUMPI POP PUSH1 0x2 DUP4 PUSH1 0x6 DUP2 GT ISZERO PUSH2 0x2FF7 JUMPI PUSH2 0x2FF7 PUSH2 0x3AFB JUMP JUMPDEST EQ JUMPDEST ISZERO PUSH2 0x3194 JUMPI PUSH1 0x1 SLOAD PUSH1 0x40 MLOAD PUSH4 0x68BCD8D PUSH1 0xE0 SHL DUP2 MSTORE PUSH1 0x0 SWAP2 PUSH1 0x1 PUSH1 0x1 PUSH1 0xA0 SHL SUB PUSH32 0x0 AND SWAP2 PUSH4 0x68BCD8D SWAP2 PUSH2 0x3052 SWAP2 PUSH1 0x4 ADD SWAP1 DUP2 MSTORE PUSH1 0x20 ADD SWAP1 JUMP JUMPDEST PUSH1 0x0 PUSH1 0x40 MLOAD DUP1 DUP4 SUB DUP2 DUP7 GAS STATICCALL ISZERO DUP1 ISZERO PUSH2 0x306F JUMPI RETURNDATASIZE PUSH1 0x0 DUP1 RETURNDATACOPY RETURNDATASIZE PUSH1 0x0 REVERT JUMPDEST POP POP POP POP PUSH1 0x40 MLOAD RETURNDATASIZE PUSH1 0x0 DUP3 RETURNDATACOPY PUSH1 0x1F RETURNDATASIZE SWAP1 DUP2 ADD PUSH1 0x1F NOT AND DUP3 ADD PUSH1 0x40 MSTORE PUSH2 0x3097 SWAP2 SWAP1 DUP2 ADD SWAP1 PUSH2 0x4964 JUMP JUMPDEST SWAP1 POP DUP3 PUSH1 0x8 PUSH1 0x0 DUP3 DUP3 SLOAD PUSH2 0x30AB SWAP2 SWAP1 PUSH2 0x44DF JUMP JUMPDEST SWAP1 SWAP2 SSTORE POP POP PUSH1 0x2 SLOAD PUSH1 0x8 SLOAD GT ISZERO PUSH2 0x30D5 JUMPI PUSH1 0x40 MLOAD PUSH4 0x8E81B16F PUSH1 0xE0 SHL DUP2 MSTORE PUSH1 0x4 ADD PUSH1 0x40 MLOAD DUP1 SWAP2 SUB SWAP1 REVERT JUMPDEST PUSH1 0x1 DUP3 ADD DUP4 SWAP1 SSTORE PUSH1 0x4 DUP3 ADD DUP1 SLOAD PUSH1 0xFF NOT AND PUSH1 0x2 SWAP1 DUP2 OR SWAP1 SWAP2 SSTORE PUSH1 0x40 MLOAD PUSH32 0x94593B52AA436DD31A63E313045C2EB23D43EB2D6F5B4D7797B4432E7B277490 SWAP2 PUSH2 0x311F SWAP2 DUP9 SWAP2 SWAP1 PUSH2 0x457D JUMP JUMPDEST PUSH1 0x40 MLOAD DUP1 SWAP2 SUB SWAP1 LOG1 DUP5 PUSH1 0x1 PUSH1 0x1 PUSH1 0xA0 SHL SUB AND PUSH32 0x463FFC2CF8B1596445C417388ED30E53EB67CF6668CB2BE7F0ADDF8A78C8441B DUP4 PUSH1 0x1 ADD SLOAD DUP4 PUSH1 0x40 ADD MLOAD DUP10 PUSH1 0x40 MLOAD PUSH2 0x3186 SWAP4 SWAP3 SWAP2 SWAP1 SWAP3 DUP4 MSTORE PUSH1 0x1 PUSH1 0x1 PUSH1 0xA0 SHL SUB SWAP2 DUP3 AND PUSH1 0x20 DUP5 ADD MSTORE AND PUSH1 0x40 DUP3 ADD MSTORE PUSH1 0x60 ADD SWAP1 JUMP JUMPDEST PUSH1 0x40 MLOAD DUP1 SWAP2 SUB SWAP1 LOG2 POP PUSH2 0x321F JUMP JUMPDEST PUSH1 0x3 PUSH1 0x4 DUP3 ADD SLOAD PUSH1 0xFF AND PUSH1 0x6 DUP2 GT ISZERO PUSH2 0x31AF JUMPI PUSH2 0x31AF PUSH2 0x3AFB JUMP JUMPDEST EQ ISZERO DUP1 ISZERO PUSH2 0x31CE JUMPI POP PUSH1 0x3 DUP4 PUSH1 0x6 DUP2 GT ISZERO PUSH2 0x31CC JUMPI PUSH2 0x31CC PUSH2 0x3AFB JUMP JUMPDEST EQ JUMPDEST ISZERO PUSH2 0x321F JUMPI PUSH1 0x4 DUP2 ADD DUP1 SLOAD PUSH1 0xFF NOT AND PUSH1 0x3 SWAP1 DUP2 OR SWAP1 SWAP2 SSTORE PUSH1 0x40 MLOAD PUSH32 0x94593B52AA436DD31A63E313045C2EB23D43EB2D6F5B4D7797B4432E7B277490 SWAP2 PUSH2 0x3216 SWAP2 DUP8 SWAP2 SWAP1 PUSH2 0x457D JUMP JUMPDEST PUSH1 0x40 MLOAD DUP1 SWAP2 SUB SWAP1 LOG1 JUMPDEST POP POP POP POP PUSH2 0x20A8 PUSH1 0x1 PUSH1 0x3 SSTORE JUMP JUMPDEST PUSH1 0x1 PUSH1 0x1 PUSH1 0xA0 SHL SUB DUP1 DUP4 AND PUSH1 0x0 SWAP1 DUP2 MSTORE PUSH1 0xF PUSH1 0x20 SWAP1 DUP2 MSTORE PUSH1 0x40 DUP1 DUP4 KECCAK256 SLOAD PUSH1 0xE DUP4 MSTORE DUP2 DUP5 KECCAK256 PUSH1 0xB DUP5 MSTORE DUP3 DUP6 KECCAK256 DUP4 MLOAD PUSH1 0xC0 DUP2 ADD DUP6 MSTORE DUP2 SLOAD PUSH1 0xFF DUP2 AND ISZERO ISZERO DUP3 MSTORE PUSH2 0x100 SWAP1 DIV SWAP1 SWAP8 AND DUP8 DUP7 ADD MSTORE PUSH1 0x1 DUP2 ADD SLOAD DUP8 DUP6 ADD MSTORE DUP4 MLOAD DUP1 DUP6 ADD SWAP1 SWAP5 MSTORE PUSH1 0x2 DUP2 ADD DUP1 SLOAD DUP6 MSTORE PUSH1 0x3 DUP3 ADD DUP1 SLOAD SWAP5 SWAP9 SWAP4 SWAP8 SWAP7 SWAP4 SWAP6 SWAP3 SWAP5 PUSH1 0x60 DUP8 ADD SWAP5 DUP5 ADD SWAP2 SWAP1 PUSH2 0x32B0 SWAP1 PUSH2 0x416C JUMP JUMPDEST DUP1 PUSH1 0x1F ADD PUSH1 0x20 DUP1 SWAP2 DIV MUL PUSH1 0x20 ADD PUSH1 0x40 MLOAD SWAP1 DUP2 ADD PUSH1 0x40 MSTORE DUP1 SWAP3 SWAP2 SWAP1 DUP2 DUP2 MSTORE PUSH1 0x20 ADD DUP3 DUP1 SLOAD PUSH2 0x32DC SWAP1 PUSH2 0x416C JUMP JUMPDEST DUP1 ISZERO PUSH2 0x3329 JUMPI DUP1 PUSH1 0x1F LT PUSH2 0x32FE JUMPI PUSH2 0x100 DUP1 DUP4 SLOAD DIV MUL DUP4 MSTORE SWAP2 PUSH1 0x20 ADD SWAP2 PUSH2 0x3329 JUMP JUMPDEST DUP3 ADD SWAP2 SWAP1 PUSH1 0x0 MSTORE PUSH1 0x20 PUSH1 0x0 KECCAK256 SWAP1 JUMPDEST DUP2 SLOAD DUP2 MSTORE SWAP1 PUSH1 0x1 ADD SWAP1 PUSH1 0x20 ADD DUP1 DUP4 GT PUSH2 0x330C JUMPI DUP3 SWAP1 SUB PUSH1 0x1F AND DUP3 ADD SWAP2 JUMPDEST POP POP POP SWAP2 SWAP1 SWAP3 MSTORE POP POP POP DUP2 MSTORE PUSH1 0x4 DUP3 ADD SLOAD PUSH1 0x20 SWAP1 SWAP2 ADD SWAP1 PUSH1 0xFF AND PUSH1 0x6 DUP2 GT ISZERO PUSH2 0x3354 JUMPI PUSH2 0x3354 PUSH2 0x3AFB JUMP JUMPDEST PUSH1 0x6 DUP2 GT ISZERO PUSH2 0x3365 JUMPI PUSH2 0x3365 PUSH2 0x3AFB JUMP JUMPDEST DUP2 MSTORE PUSH1 0x20 ADD PUSH1 0x4 DUP3 ADD PUSH1 0x1 SWAP1 SLOAD SWAP1 PUSH2 0x100 EXP SWAP1 DIV PUSH1 0xFF AND PUSH1 0x6 DUP2 GT ISZERO PUSH2 0x338D JUMPI PUSH2 0x338D PUSH2 0x3AFB JUMP JUMPDEST PUSH1 0x6 DUP2 GT ISZERO PUSH2 0x339E JUMPI PUSH2 0x339E PUSH2 0x3AFB JUMP JUMPDEST DUP2 MSTORE POP POP SWAP1 POP PUSH1 0x0 DUP3 DUP5 DUP2 SLOAD DUP2 LT PUSH2 0x33B8 JUMPI PUSH2 0x33B8 PUSH2 0x41C3 JUMP JUMPDEST SWAP1 PUSH1 0x0 MSTORE PUSH1 0x20 PUSH1 0x0 KECCAK256 SWAP1 PUSH1 0x5 MUL ADD SWAP1 POP DUP3 DUP1 SLOAD SWAP1 POP DUP5 GT ISZERO PUSH2 0x33ED JUMPI PUSH1 0x40 MLOAD PUSH4 0x2F1F68E1 PUSH1 0xE1 SHL DUP2 MSTORE PUSH1 0x4 ADD PUSH1 0x40 MLOAD DUP1 SWAP2 SUB SWAP1 REVERT JUMPDEST PUSH1 0x2 PUSH1 0x3 DUP3 ADD SLOAD PUSH1 0xFF AND PUSH1 0x6 DUP2 GT ISZERO PUSH2 0x3408 JUMPI PUSH2 0x3408 PUSH2 0x3AFB JUMP JUMPDEST EQ PUSH2 0x3426 JUMPI PUSH1 0x40 MLOAD PUSH4 0x5B2FE71D PUSH1 0xE1 SHL DUP2 MSTORE PUSH1 0x4 ADD PUSH1 0x40 MLOAD DUP1 SWAP2 SUB SWAP1 REVERT JUMPDEST PUSH1 0x0 PUSH8 0xDE0B6B3A7640000 DUP3 PUSH1 0x0 ADD SLOAD DUP5 PUSH1 0x40 ADD MLOAD PUSH2 0x3445 SWAP2 SWAP1 PUSH2 0x44A6 JUMP JUMPDEST PUSH2 0x344F SWAP2 SWAP1 PUSH2 0x44BD JUMP JUMPDEST SWAP1 POP PUSH1 0x0 PUSH32 0x0 PUSH1 0x1 PUSH1 0x1 PUSH1 0xA0 SHL SUB AND PUSH4 0x68BCD8D PUSH1 0x1 SLOAD PUSH1 0x40 MLOAD DUP3 PUSH4 0xFFFFFFFF AND PUSH1 0xE0 SHL DUP2 MSTORE PUSH1 0x4 ADD PUSH2 0x34A3 SWAP2 DUP2 MSTORE PUSH1 0x20 ADD SWAP1 JUMP JUMPDEST PUSH1 0x0 PUSH1 0x40 MLOAD DUP1 DUP4 SUB DUP2 DUP7 GAS STATICCALL ISZERO DUP1 ISZERO PUSH2 0x34C0 JUMPI RETURNDATASIZE PUSH1 0x0 DUP1 RETURNDATACOPY RETURNDATASIZE PUSH1 0x0 REVERT JUMPDEST POP POP POP POP PUSH1 0x40 MLOAD RETURNDATASIZE PUSH1 0x0 DUP3 RETURNDATACOPY PUSH1 0x1F RETURNDATASIZE SWAP1 DUP2 ADD PUSH1 0x1F NOT AND DUP3 ADD PUSH1 0x40 MSTORE PUSH2 0x34E8 SWAP2 SWAP1 DUP2 ADD SWAP1 PUSH2 0x4964 JUMP JUMPDEST SWAP1 POP DUP2 PUSH1 0x2 PUSH1 0x0 DUP3 DUP3 SLOAD PUSH2 0x34FC SWAP2 SWAP1 PUSH2 0x4A17 JUMP JUMPDEST SWAP3 POP POP DUP2 SWAP1 SSTORE POP PUSH2 0x3516 DUP2 PUSH1 0x40 ADD MLOAD DUP6 PUSH1 0x20 ADD MLOAD DUP5 PUSH2 0x3639 JUMP JUMPDEST PUSH1 0x1 PUSH1 0x1 PUSH1 0xA0 SHL SUB DUP9 AND PUSH1 0x0 SWAP1 DUP2 MSTORE PUSH1 0xF PUSH1 0x20 MSTORE PUSH1 0x40 DUP2 KECCAK256 DUP1 SLOAD SWAP2 PUSH2 0x353A DUP4 PUSH2 0x448D JUMP JUMPDEST SWAP1 SWAP2 SSTORE POP POP PUSH1 0x20 DUP1 DUP6 ADD MLOAD PUSH1 0x40 DUP1 MLOAD PUSH1 0x1 PUSH1 0x1 PUSH1 0xA0 SHL SUB SWAP3 DUP4 AND DUP2 MSTORE SWAP3 DUP4 ADD DUP6 SWAP1 MSTORE DUP10 DUP3 AND SWAP1 DUP4 ADD MSTORE DUP10 AND SWAP1 PUSH32 0xB5B51454ADFA840BD593658325A60A50B0216F12EB5D2937EFE6CEA935675B7D SWAP1 PUSH1 0x60 ADD PUSH1 0x40 MLOAD DUP1 SWAP2 SUB SWAP1 LOG2 POP POP POP POP POP POP POP POP JUMP JUMPDEST PUSH1 0x0 SLOAD PUSH1 0xFF AND PUSH2 0x2167 JUMPI PUSH1 0x40 MLOAD PUSH4 0xCFE7975B PUSH1 0xE0 SHL DUP2 MSTORE PUSH1 0x4 ADD PUSH1 0x40 MLOAD DUP1 SWAP2 SUB SWAP1 REVERT JUMPDEST PUSH2 0x35C8 PUSH2 0x211E JUMP JUMPDEST PUSH1 0x1 SLOAD ISZERO PUSH2 0x35E9 JUMPI PUSH1 0x40 MLOAD PUSH4 0x439A74C9 PUSH1 0xE0 SHL DUP2 MSTORE PUSH1 0x4 ADD PUSH1 0x40 MLOAD DUP1 SWAP2 SUB SWAP1 REVERT JUMPDEST DUP1 PUSH1 0x0 SUB PUSH2 0x360A JUMPI PUSH1 0x40 MLOAD PUSH4 0x7FCCE2A9 PUSH1 0xE0 SHL DUP2 MSTORE PUSH1 0x4 ADD PUSH1 0x40 MLOAD DUP1 SWAP2 SUB SWAP1 REVERT JUMPDEST PUSH1 0x1 SSTORE JUMP JUMPDEST PUSH1 0x2 PUSH1 0x3 SLOAD SUB PUSH2 0x3632 JUMPI PUSH1 0x40 MLOAD PUSH4 0x3EE5AEB5 PUSH1 0xE0 SHL DUP2 MSTORE PUSH1 0x4 ADD PUSH1 0x40 MLOAD DUP1 SWAP2 SUB SWAP1 REVERT JUMPDEST PUSH1 0x2 PUSH1 0x3 SSTORE JUMP JUMPDEST PUSH20 0xEEEEEEEEEEEEEEEEEEEEEEEEEEEEEEEEEEEEEEED NOT PUSH1 0x1 PUSH1 0x1 PUSH1 0xA0 SHL SUB DUP5 AND ADD PUSH2 0x3668 JUMPI PUSH2 0x876 DUP3 DUP3 PUSH2 0x3673 JUMP JUMPDEST PUSH2 0x876 DUP4 DUP4 DUP4 PUSH2 0x368F JUMP JUMPDEST PUSH1 0x0 CODESIZE PUSH1 0x0 CODESIZE DUP5 DUP7 GAS CALL PUSH2 0x20A8 JUMPI PUSH4 0xB12D13EB PUSH1 0x0 MSTORE PUSH1 0x4 PUSH1 0x1C REVERT JUMPDEST DUP2 PUSH1 0x14 MSTORE DUP1 PUSH1 0x34 MSTORE PUSH4 0xA9059CBB PUSH1 0x60 SHL PUSH1 0x0 MSTORE PUSH1 0x20 PUSH1 0x0 PUSH1 0x44 PUSH1 0x10 PUSH1 0x0 DUP8 GAS CALL RETURNDATASIZE ISZERO PUSH1 0x1 PUSH1 0x0 MLOAD EQ OR AND PUSH2 0x36CB JUMPI PUSH4 0x90B8EC18 PUSH1 0x0 MSTORE PUSH1 0x4 PUSH1 0x1C REVERT JUMPDEST PUSH1 0x0 PUSH1 0x34 MSTORE POP POP POP JUMP JUMPDEST PUSH1 0x40 MLOAD DUP1 PUSH1 0xC0 ADD PUSH1 0x40 MSTORE DUP1 PUSH1 0x0 ISZERO ISZERO DUP2 MSTORE PUSH1 0x20 ADD PUSH1 0x0 PUSH1 0x1 PUSH1 0x1 PUSH1 0xA0 SHL SUB AND DUP2 MSTORE PUSH1 0x20 ADD PUSH1 0x0 DUP2 MSTORE PUSH1 0x20 ADD PUSH2 0x371D PUSH1 0x40 MLOAD DUP1 PUSH1 0x40 ADD PUSH1 0x40 MSTORE DUP1 PUSH1 0x0 DUP2 MSTORE PUSH1 0x20 ADD PUSH1 0x60 DUP2 MSTORE POP SWAP1 JUMP JUMPDEST DUP2 MSTORE PUSH1 0x20 ADD PUSH1 0x0 DUP2 MSTORE PUSH1 0x20 ADD PUSH1 0x0 SWAP1 MSTORE SWAP1 JUMP JUMPDEST POP DUP1 SLOAD PUSH1 0x0 DUP3 SSTORE PUSH1 0x5 MUL SWAP1 PUSH1 0x0 MSTORE PUSH1 0x20 PUSH1 0x0 KECCAK256 SWAP1 DUP2 ADD SWAP1 PUSH2 0x20D3 SWAP2 SWAP1 JUMPDEST DUP1 DUP3 GT ISZERO PUSH2 0x3794 JUMPI PUSH1 0x0 DUP1 DUP3 SSTORE PUSH1 0x1 DUP3 ADD DUP2 DUP2 SSTORE DUP2 PUSH2 0x376F PUSH1 0x2 DUP6 ADD DUP3 PUSH2 0x3798 JUMP JUMPDEST POP POP PUSH1 0x3 DUP3 ADD DUP1 SLOAD PUSH1 0xFF NOT AND SWAP1 SSTORE PUSH2 0x378B PUSH1 0x4 DUP4 ADD PUSH1 0x0 PUSH2 0x3798 JUMP JUMPDEST POP PUSH1 0x5 ADD PUSH2 0x374D JUMP JUMPDEST POP SWAP1 JUMP JUMPDEST POP DUP1 SLOAD PUSH2 0x37A4 SWAP1 PUSH2 0x416C JUMP JUMPDEST PUSH1 0x0 DUP3 SSTORE DUP1 PUSH1 0x1F LT PUSH2 0x37B4 JUMPI POP POP JUMP JUMPDEST PUSH1 0x1F ADD PUSH1 0x20 SWAP1 DIV SWAP1 PUSH1 0x0 MSTORE PUSH1 0x20 PUSH1 0x0 KECCAK256 SWAP1 DUP2 ADD SWAP1 PUSH2 0x20D3 SWAP2 SWAP1 JUMPDEST DUP1 DUP3 GT ISZERO PUSH2 0x3794 JUMPI PUSH1 0x0 DUP2 SSTORE PUSH1 0x1 ADD PUSH2 0x37CE JUMP JUMPDEST PUSH4 0x4E487B71 PUSH1 0xE0 SHL PUSH1 0x0 MSTORE PUSH1 0x41 PUSH1 0x4 MSTORE PUSH1 0x24 PUSH1 0x0 REVERT JUMPDEST PUSH1 0x40 MLOAD PUSH1 0x80 DUP2 ADD PUSH1 0x1 PUSH1 0x1 PUSH1 0x40 SHL SUB DUP2 GT DUP3 DUP3 LT OR ISZERO PUSH2 0x381A JUMPI PUSH2 0x381A PUSH2 0x37E2 JUMP JUMPDEST PUSH1 0x40 MSTORE SWAP1 JUMP JUMPDEST PUSH1 0x40 DUP1 MLOAD SWAP1 DUP2 ADD PUSH1 0x1 PUSH1 0x1 PUSH1 0x40 SHL SUB DUP2 GT DUP3 DUP3 LT OR ISZERO PUSH2 0x381A JUMPI PUSH2 0x381A PUSH2 0x37E2 JUMP JUMPDEST PUSH1 0x40 MLOAD PUSH1 0xC0 DUP2 ADD PUSH1 0x1 PUSH1 0x1 PUSH1 0x40 SHL SUB DUP2 GT DUP3 DUP3 LT OR ISZERO PUSH2 0x381A JUMPI PUSH2 0x381A PUSH2 0x37E2 JUMP JUMPDEST PUSH1 0x40 MLOAD PUSH1 0x1F DUP3 ADD PUSH1 0x1F NOT AND DUP2 ADD PUSH1 0x1 PUSH1 0x1 PUSH1 0x40 SHL SUB DUP2 GT DUP3 DUP3 LT OR ISZERO PUSH2 0x388C JUMPI PUSH2 0x388C PUSH2 0x37E2 JUMP JUMPDEST PUSH1 0x40 MSTORE SWAP2 SWAP1 POP JUMP JUMPDEST PUSH1 0x0 PUSH1 0x1 PUSH1 0x1 PUSH1 0x40 SHL SUB DUP3 GT ISZERO PUSH2 0x38AD JUMPI PUSH2 0x38AD PUSH2 0x37E2 JUMP JUMPDEST POP PUSH1 0x5 SHL PUSH1 0x20 ADD SWAP1 JUMP JUMPDEST PUSH1 0x1 PUSH1 0x1 PUSH1 0xA0 SHL SUB DUP2 AND DUP2 EQ PUSH2 0x20D3 JUMPI PUSH1 0x0 DUP1 REVERT JUMPDEST PUSH1 0x0 DUP3 PUSH1 0x1F DUP4 ADD SLT PUSH2 0x38DD JUMPI PUSH1 0x0 DUP1 REVERT JUMPDEST DUP2 CALLDATALOAD PUSH1 0x20 PUSH2 0x38F2 PUSH2 0x38ED DUP4 PUSH2 0x3894 JUMP JUMPDEST PUSH2 0x3864 JUMP JUMPDEST DUP3 DUP2 MSTORE PUSH1 0x5 SWAP3 SWAP1 SWAP3 SHL DUP5 ADD DUP2 ADD SWAP2 DUP2 DUP2 ADD SWAP1 DUP7 DUP5 GT ISZERO PUSH2 0x3911 JUMPI PUSH1 0x0 DUP1 REVERT JUMPDEST DUP3 DUP7 ADD JUMPDEST DUP5 DUP2 LT ISZERO PUSH2 0x3935 JUMPI DUP1 CALLDATALOAD PUSH2 0x3928 DUP2 PUSH2 0x38B7 JUMP JUMPDEST DUP4 MSTORE SWAP2 DUP4 ADD SWAP2 DUP4 ADD PUSH2 0x3915 JUMP JUMPDEST POP SWAP7 SWAP6 POP POP POP POP POP POP JUMP JUMPDEST PUSH1 0x0 PUSH1 0x1 PUSH1 0x1 PUSH1 0x40 SHL SUB DUP3 GT ISZERO PUSH2 0x3959 JUMPI PUSH2 0x3959 PUSH2 0x37E2 JUMP JUMPDEST POP PUSH1 0x1F ADD PUSH1 0x1F NOT AND PUSH1 0x20 ADD SWAP1 JUMP JUMPDEST PUSH1 0x0 DUP3 PUSH1 0x1F DUP4 ADD SLT PUSH2 0x3978 JUMPI PUSH1 0x0 DUP1 REVERT JUMPDEST DUP2 CALLDATALOAD PUSH2 0x3986 PUSH2 0x38ED DUP3 PUSH2 0x3940 JUMP JUMPDEST DUP2 DUP2 MSTORE DUP5 PUSH1 0x20 DUP4 DUP7 ADD ADD GT ISZERO PUSH2 0x399B JUMPI PUSH1 0x0 DUP1 REVERT JUMPDEST DUP2 PUSH1 0x20 DUP6 ADD PUSH1 0x20 DUP4 ADD CALLDATACOPY PUSH1 0x0 SWAP2 DUP2 ADD PUSH1 0x20 ADD SWAP2 SWAP1 SWAP2 MSTORE SWAP4 SWAP3 POP POP POP JUMP JUMPDEST PUSH1 0x0 DUP1 PUSH1 0x0 PUSH1 0x60 DUP5 DUP7 SUB SLT ISZERO PUSH2 0x39CD JUMPI PUSH1 0x0 DUP1 REVERT JUMPDEST DUP4 CALLDATALOAD PUSH1 0x1 PUSH1 0x1 PUSH1 0x40 SHL SUB DUP1 DUP3 GT ISZERO PUSH2 0x39E4 JUMPI PUSH1 0x0 DUP1 REVERT JUMPDEST PUSH2 0x39F0 DUP8 DUP4 DUP9 ADD PUSH2 0x38CC JUMP JUMPDEST SWAP5 POP PUSH1 0x20 DUP7 ADD CALLDATALOAD SWAP2 POP DUP1 DUP3 GT ISZERO PUSH2 0x3A06 JUMPI PUSH1 0x0 DUP1 REVERT JUMPDEST POP PUSH2 0x3A13 DUP7 DUP3 DUP8 ADD PUSH2 0x3967 JUMP JUMPDEST SWAP3 POP POP PUSH1 0x40 DUP5 ADD CALLDATALOAD PUSH2 0x3A24 DUP2 PUSH2 0x38B7 JUMP JUMPDEST DUP1 SWAP2 POP POP SWAP3 POP SWAP3 POP SWAP3 JUMP JUMPDEST PUSH1 0x0 DUP1 PUSH1 0x40 DUP4 DUP6 SUB SLT ISZERO PUSH2 0x3A42 JUMPI PUSH1 0x0 DUP1 REVERT JUMPDEST DUP3 CALLDATALOAD PUSH2 0x3A4D DUP2 PUSH2 0x38B7 JUMP JUMPDEST SWAP2 POP PUSH1 0x20 DUP4 ADD CALLDATALOAD PUSH2 0x3A5D DUP2 PUSH2 0x38B7 JUMP JUMPDEST DUP1 SWAP2 POP POP SWAP3 POP SWAP3 SWAP1 POP JUMP JUMPDEST PUSH1 0x0 PUSH1 0x20 DUP3 DUP5 SUB SLT ISZERO PUSH2 0x3A7A JUMPI PUSH1 0x0 DUP1 REVERT JUMPDEST DUP2 CALLDATALOAD PUSH2 0x3A85 DUP2 PUSH2 0x38B7 JUMP JUMPDEST SWAP4 SWAP3 POP POP POP JUMP JUMPDEST PUSH1 0x0 JUMPDEST DUP4 DUP2 LT ISZERO PUSH2 0x3AA7 JUMPI DUP2 DUP2 ADD MLOAD DUP4 DUP3 ADD MSTORE PUSH1 0x20 ADD PUSH2 0x3A8F JUMP JUMPDEST POP POP PUSH1 0x0 SWAP2 ADD MSTORE JUMP JUMPDEST PUSH1 0x0 DUP2 MLOAD DUP1 DUP5 MSTORE PUSH2 0x3AC8 DUP2 PUSH1 0x20 DUP7 ADD PUSH1 0x20 DUP7 ADD PUSH2 0x3A8C JUMP JUMPDEST PUSH1 0x1F ADD PUSH1 0x1F NOT AND SWAP3 SWAP1 SWAP3 ADD PUSH1 0x20 ADD SWAP3 SWAP2 POP POP JUMP JUMPDEST DUP1 MLOAD DUP3 MSTORE PUSH1 0x0 PUSH1 0x20 DUP3 ADD MLOAD PUSH1 0x40 PUSH1 0x20 DUP6 ADD MSTORE PUSH2 0x2859 PUSH1 0x40 DUP6 ADD DUP3 PUSH2 0x3AB0 JUMP JUMPDEST PUSH4 0x4E487B71 PUSH1 0xE0 SHL PUSH1 0x0 MSTORE PUSH1 0x21 PUSH1 0x4 MSTORE PUSH1 0x24 PUSH1 0x0 REVERT JUMPDEST PUSH1 0x7 DUP2 LT PUSH2 0x3B2F JUMPI PUSH4 0x4E487B71 PUSH1 0xE0 SHL PUSH1 0x0 MSTORE PUSH1 0x21 PUSH1 0x4 MSTORE PUSH1 0x24 PUSH1 0x0 REVERT JUMPDEST SWAP1 MSTORE JUMP JUMPDEST PUSH1 0x0 PUSH1 0x20 DUP1 DUP4 ADD DUP2 DUP5 MSTORE DUP1 DUP6 MLOAD DUP1 DUP4 MSTORE PUSH1 0x40 SWAP3 POP DUP3 DUP7 ADD SWAP2 POP DUP3 DUP2 PUSH1 0x5 SHL DUP8 ADD ADD DUP5 DUP9 ADD PUSH1 0x0 JUMPDEST DUP4 DUP2 LT ISZERO PUSH2 0x3BCA JUMPI PUSH1 0x3F NOT DUP10 DUP5 SUB ADD DUP6 MSTORE DUP2 MLOAD PUSH1 0x80 DUP2 MLOAD DUP6 MSTORE DUP9 DUP3 ADD MLOAD DUP2 DUP11 DUP8 ADD MSTORE PUSH2 0x3B88 DUP3 DUP8 ADD DUP3 PUSH2 0x3ADC JUMP JUMPDEST SWAP2 POP POP DUP8 DUP3 ADD MLOAD PUSH2 0x3B9B DUP10 DUP8 ADD DUP3 PUSH2 0x3B11 JUMP JUMPDEST POP PUSH1 0x60 DUP1 DUP4 ADD MLOAD SWAP3 POP DUP6 DUP3 SUB DUP2 DUP8 ADD MSTORE POP PUSH2 0x3BB6 DUP2 DUP4 PUSH2 0x3AB0 JUMP JUMPDEST SWAP7 DUP10 ADD SWAP7 SWAP5 POP POP POP SWAP1 DUP7 ADD SWAP1 PUSH1 0x1 ADD PUSH2 0x3B5A JUMP JUMPDEST POP SWAP1 SWAP9 SWAP8 POP POP POP POP POP POP POP POP JUMP JUMPDEST PUSH1 0x0 DUP1 PUSH1 0x40 DUP4 DUP6 SUB SLT ISZERO PUSH2 0x3BEB JUMPI PUSH1 0x0 DUP1 REVERT JUMPDEST POP POP DUP1 CALLDATALOAD SWAP3 PUSH1 0x20 SWAP1 SWAP2 ADD CALLDATALOAD SWAP2 POP JUMP JUMPDEST PUSH1 0x0 DUP1 PUSH1 0x40 DUP4 DUP6 SUB SLT ISZERO PUSH2 0x3C0D JUMPI PUSH1 0x0 DUP1 REVERT JUMPDEST DUP3 CALLDATALOAD PUSH1 0x1 PUSH1 0x1 PUSH1 0x40 SHL SUB DUP2 GT ISZERO PUSH2 0x3C23 JUMPI PUSH1 0x0 DUP1 REVERT JUMPDEST PUSH2 0x3C2F DUP6 DUP3 DUP7 ADD PUSH2 0x3967 JUMP JUMPDEST SWAP3 POP POP PUSH1 0x20 DUP4 ADD CALLDATALOAD PUSH2 0x3A5D DUP2 PUSH2 0x38B7 JUMP JUMPDEST PUSH1 0x0 DUP1 PUSH1 0x0 PUSH1 0x60 DUP5 DUP7 SUB SLT ISZERO PUSH2 0x3C55 JUMPI PUSH1 0x0 DUP1 REVERT JUMPDEST DUP4 CALLDATALOAD PUSH2 0x3C60 DUP2 PUSH2 0x38B7 JUMP JUMPDEST SWAP3 POP PUSH1 0x20 DUP5 ADD CALLDATALOAD SWAP2 POP PUSH1 0x40 DUP5 ADD CALLDATALOAD PUSH1 0x1 PUSH1 0x1 PUSH1 0x40 SHL SUB DUP2 GT ISZERO PUSH2 0x3C82 JUMPI PUSH1 0x0 DUP1 REVERT JUMPDEST DUP5 ADD PUSH1 0x40 DUP2 DUP8 SUB SLT ISZERO PUSH2 0x3A24 JUMPI PUSH1 0x0 DUP1 REVERT JUMPDEST PUSH1 0x0 PUSH1 0x20 DUP3 DUP5 SUB SLT ISZERO PUSH2 0x3CA6 JUMPI PUSH1 0x0 DUP1 REVERT JUMPDEST POP CALLDATALOAD SWAP2 SWAP1 POP JUMP JUMPDEST PUSH1 0x0 DUP1 PUSH1 0x40 DUP4 DUP6 SUB SLT ISZERO PUSH2 0x3CC0 JUMPI PUSH1 0x0 DUP1 REVERT JUMPDEST DUP3 CALLDATALOAD SWAP2 POP PUSH1 0x20 DUP4 ADD CALLDATALOAD PUSH2 0x3A5D DUP2 PUSH2 0x38B7 JUMP JUMPDEST PUSH1 0x20 DUP2 MSTORE DUP2 MLOAD ISZERO ISZERO PUSH1 0x20 DUP3 ADD MSTORE PUSH1 0x1 DUP1 PUSH1 0xA0 SHL SUB PUSH1 0x20 DUP4 ADD MLOAD AND PUSH1 0x40 DUP3 ADD MSTORE PUSH1 0x40 DUP3 ADD MLOAD PUSH1 0x60 DUP3 ADD MSTORE PUSH1 0x0 PUSH1 0x60 DUP4 ADD MLOAD PUSH1 0xC0 PUSH1 0x80 DUP5 ADD MSTORE PUSH2 0x3D16 PUSH1 0xE0 DUP5 ADD DUP3 PUSH2 0x3ADC JUMP JUMPDEST SWAP1 POP PUSH1 0x80 DUP5 ADD MLOAD PUSH2 0x3D2A PUSH1 0xA0 DUP6 ADD DUP3 PUSH2 0x3B11 JUMP JUMPDEST POP PUSH1 0xA0 DUP5 ADD MLOAD PUSH2 0x3D3D PUSH1 0xC0 DUP6 ADD DUP3 PUSH2 0x3B11 JUMP JUMPDEST POP SWAP4 SWAP3 POP POP POP JUMP JUMPDEST PUSH1 0x7 DUP2 LT PUSH2 0x20D3 JUMPI PUSH1 0x0 DUP1 REVERT JUMPDEST DUP1 CALLDATALOAD PUSH2 0x3D5D DUP2 PUSH2 0x3D45 JUMP JUMPDEST SWAP2 SWAP1 POP JUMP JUMPDEST PUSH1 0x0 DUP1 PUSH1 0x40 DUP4 DUP6 SUB SLT ISZERO PUSH2 0x3D75 JUMPI PUSH1 0x0 DUP1 REVERT JUMPDEST PUSH2 0x3D7F DUP4 CALLDATALOAD PUSH2 0x38B7 JUMP JUMPDEST DUP3 CALLDATALOAD SWAP2 POP PUSH1 0x1 PUSH1 0x1 PUSH1 0x40 SHL SUB DUP1 PUSH1 0x20 DUP6 ADD CALLDATALOAD GT ISZERO PUSH2 0x3D9C JUMPI PUSH1 0x0 DUP1 REVERT JUMPDEST PUSH1 0x20 DUP5 ADD CALLDATALOAD DUP5 ADD DUP6 PUSH1 0x1F DUP3 ADD SLT PUSH2 0x3DB2 JUMPI PUSH1 0x0 DUP1 REVERT JUMPDEST PUSH2 0x3DBF PUSH2 0x38ED DUP3 CALLDATALOAD PUSH2 0x3894 JUMP JUMPDEST DUP2 CALLDATALOAD DUP1 DUP3 MSTORE PUSH1 0x20 DUP1 DUP4 ADD SWAP3 SWAP2 PUSH1 0x5 SHL DUP5 ADD ADD DUP9 LT ISZERO PUSH2 0x3DDD JUMPI PUSH1 0x0 DUP1 REVERT JUMPDEST PUSH1 0x20 DUP4 ADD JUMPDEST PUSH1 0x20 DUP5 CALLDATALOAD PUSH1 0x5 SHL DUP6 ADD ADD DUP2 LT ISZERO PUSH2 0x3EDE JUMPI DUP5 DUP2 CALLDATALOAD GT ISZERO PUSH2 0x3E01 JUMPI PUSH1 0x0 DUP1 REVERT JUMPDEST DUP1 CALLDATALOAD DUP5 ADD PUSH1 0x1F NOT PUSH1 0x80 DUP3 DUP13 SUB DUP3 ADD SLT ISZERO PUSH2 0x3E1A JUMPI PUSH1 0x0 DUP1 REVERT JUMPDEST PUSH2 0x3E22 PUSH2 0x37F8 JUMP JUMPDEST PUSH1 0x20 DUP4 ADD CALLDATALOAD DUP2 MSTORE DUP8 PUSH1 0x40 DUP5 ADD CALLDATALOAD GT ISZERO PUSH2 0x3E3A JUMPI PUSH1 0x0 DUP1 REVERT JUMPDEST PUSH1 0x40 DUP4 ADD CALLDATALOAD DUP4 ADD PUSH1 0x40 DUP4 DUP3 DUP16 SUB ADD SLT ISZERO PUSH2 0x3E53 JUMPI PUSH1 0x0 DUP1 REVERT JUMPDEST PUSH2 0x3E5B PUSH2 0x3820 JUMP JUMPDEST SWAP3 POP PUSH1 0x20 DUP2 ADD CALLDATALOAD DUP4 MSTORE DUP9 PUSH1 0x40 DUP3 ADD CALLDATALOAD GT ISZERO PUSH2 0x3E75 JUMPI PUSH1 0x0 DUP1 REVERT JUMPDEST PUSH2 0x3E88 DUP14 PUSH1 0x20 PUSH1 0x40 DUP5 ADD CALLDATALOAD DUP5 ADD ADD PUSH2 0x3967 JUMP JUMPDEST PUSH1 0x20 DUP5 ADD MSTORE POP DUP2 PUSH1 0x20 DUP3 ADD MSTORE PUSH2 0x3EA0 PUSH1 0x60 DUP5 ADD PUSH2 0x3D52 JUMP JUMPDEST PUSH1 0x40 DUP3 ADD MSTORE DUP8 PUSH1 0x80 DUP5 ADD CALLDATALOAD GT ISZERO PUSH2 0x3EB6 JUMPI PUSH1 0x0 DUP1 REVERT JUMPDEST PUSH2 0x3EC9 DUP13 PUSH1 0x20 PUSH1 0x80 DUP7 ADD CALLDATALOAD DUP7 ADD ADD PUSH2 0x3967 JUMP JUMPDEST PUSH1 0x60 DUP3 ADD MSTORE DUP6 MSTORE POP POP PUSH1 0x20 SWAP3 DUP4 ADD SWAP3 ADD PUSH2 0x3DE2 JUMP JUMPDEST POP DUP1 SWAP5 POP POP POP POP POP SWAP3 POP SWAP3 SWAP1 POP JUMP JUMPDEST PUSH1 0x0 DUP1 PUSH1 0x0 PUSH1 0x60 DUP5 DUP7 SUB SLT ISZERO PUSH2 0x3F02 JUMPI PUSH1 0x0 DUP1 REVERT JUMPDEST DUP4 CALLDATALOAD PUSH2 0x3F0D DUP2 PUSH2 0x38B7 JUMP JUMPDEST SWAP3 POP PUSH1 0x20 DUP5 ADD CALLDATALOAD SWAP2 POP PUSH1 0x40 DUP5 ADD CALLDATALOAD PUSH2 0x3A24 DUP2 PUSH2 0x3D45 JUMP JUMPDEST PUSH1 0x0 DUP1 PUSH1 0x40 DUP4 DUP6 SUB SLT ISZERO PUSH2 0x3F37 JUMPI PUSH1 0x0 DUP1 REVERT JUMPDEST DUP3 CALLDATALOAD PUSH1 0x1 PUSH1 0x1 PUSH1 0x40 SHL SUB DUP1 DUP3 GT ISZERO PUSH2 0x3F4E JUMPI PUSH1 0x0 DUP1 REVERT JUMPDEST PUSH2 0x3F5A DUP7 DUP4 DUP8 ADD PUSH2 0x38CC JUMP JUMPDEST SWAP4 POP PUSH1 0x20 SWAP2 POP DUP2 DUP6 ADD CALLDATALOAD DUP2 DUP2 GT ISZERO PUSH2 0x3F71 JUMPI PUSH1 0x0 DUP1 REVERT JUMPDEST DUP6 ADD PUSH1 0x1F DUP2 ADD DUP8 SGT PUSH2 0x3F82 JUMPI PUSH1 0x0 DUP1 REVERT JUMPDEST DUP1 CALLDATALOAD PUSH2 0x3F90 PUSH2 0x38ED DUP3 PUSH2 0x3894 JUMP JUMPDEST DUP2 DUP2 MSTORE PUSH1 0x5 SWAP2 SWAP1 SWAP2 SHL DUP3 ADD DUP5 ADD SWAP1 DUP5 DUP2 ADD SWAP1 DUP10 DUP4 GT ISZERO PUSH2 0x3FAF JUMPI PUSH1 0x0 DUP1 REVERT JUMPDEST DUP6 DUP5 ADD JUMPDEST DUP4 DUP2 LT ISZERO PUSH2 0x3FE7 JUMPI DUP1 CALLDATALOAD DUP7 DUP2 GT ISZERO PUSH2 0x3FCB JUMPI PUSH1 0x0 DUP1 DUP2 REVERT JUMPDEST PUSH2 0x3FD9 DUP13 DUP10 DUP4 DUP10 ADD ADD PUSH2 0x3967 JUMP JUMPDEST DUP5 MSTORE POP SWAP2 DUP7 ADD SWAP2 DUP7 ADD PUSH2 0x3FB3 JUMP JUMPDEST POP DUP1 SWAP7 POP POP POP POP POP POP POP SWAP3 POP SWAP3 SWAP1 POP JUMP JUMPDEST PUSH1 0x20 DUP1 DUP3 MSTORE DUP3 MLOAD DUP3 DUP3 ADD DUP2 SWAP1 MSTORE PUSH1 0x0 SWAP2 SWAP1 PUSH1 0x40 SWAP1 DUP2 DUP6 ADD SWAP1 DUP7 DUP5 ADD DUP6 JUMPDEST DUP3 DUP2 LT ISZERO PUSH2 0x4043 JUMPI DUP2 MLOAD DUP1 MLOAD PUSH1 0x1 PUSH1 0x1 PUSH1 0xA0 SHL SUB AND DUP6 MSTORE DUP7 ADD MLOAD DUP7 DUP6 ADD MSTORE SWAP3 DUP5 ADD SWAP3 SWAP1 DUP6 ADD SWAP1 PUSH1 0x1 ADD PUSH2 0x4015 JUMP JUMPDEST POP SWAP2 SWAP8 SWAP7 POP POP POP POP POP POP POP JUMP JUMPDEST PUSH1 0x0 DUP1 PUSH1 0x40 DUP4 DUP6 SUB SLT ISZERO PUSH2 0x4063 JUMPI PUSH1 0x0 DUP1 REVERT JUMPDEST DUP3 CALLDATALOAD PUSH2 0x406E DUP2 PUSH2 0x38B7 JUMP JUMPDEST SWAP2 POP PUSH1 0x20 DUP4 ADD CALLDATALOAD PUSH2 0x3A5D DUP2 PUSH2 0x3D45 JUMP JUMPDEST DUP1 ISZERO ISZERO DUP2 EQ PUSH2 0x20D3 JUMPI PUSH1 0x0 DUP1 REVERT JUMPDEST PUSH1 0x0 PUSH1 0x20 DUP3 DUP5 SUB SLT ISZERO PUSH2 0x409E JUMPI PUSH1 0x0 DUP1 REVERT JUMPDEST DUP2 CALLDATALOAD PUSH2 0x3A85 DUP2 PUSH2 0x407E JUMP JUMPDEST PUSH1 0x0 DUP1 PUSH1 0x40 DUP4 DUP6 SUB SLT ISZERO PUSH2 0x40BC JUMPI PUSH1 0x0 DUP1 REVERT JUMPDEST DUP3 CALLDATALOAD PUSH2 0x40C7 DUP2 PUSH2 0x38B7 JUMP JUMPDEST SWAP5 PUSH1 0x20 SWAP4 SWAP1 SWAP4 ADD CALLDATALOAD SWAP4 POP POP POP JUMP JUMPDEST DUP5 DUP2 MSTORE PUSH1 0x80 PUSH1 0x20 DUP3 ADD MSTORE PUSH1 0x0 PUSH2 0x40EE PUSH1 0x80 DUP4 ADD DUP7 PUSH2 0x3ADC JUMP JUMPDEST PUSH2 0x40FB PUSH1 0x40 DUP5 ADD DUP7 PUSH2 0x3B11 JUMP JUMPDEST DUP3 DUP2 SUB PUSH1 0x60 DUP5 ADD MSTORE PUSH2 0x410D DUP2 DUP6 PUSH2 0x3AB0 JUMP JUMPDEST SWAP8 SWAP7 POP POP POP POP POP POP POP JUMP JUMPDEST PUSH1 0x20 DUP2 ADD PUSH2 0x8A6 DUP3 DUP5 PUSH2 0x3B11 JUMP JUMPDEST PUSH1 0x0 DUP1 PUSH1 0x40 DUP4 DUP6 SUB SLT ISZERO PUSH2 0x4139 JUMPI PUSH1 0x0 DUP1 REVERT JUMPDEST DUP3 CALLDATALOAD SWAP2 POP PUSH1 0x20 DUP4 ADD CALLDATALOAD PUSH1 0x1 PUSH1 0x1 PUSH1 0x40 SHL SUB DUP2 GT ISZERO PUSH2 0x4156 JUMPI PUSH1 0x0 DUP1 REVERT JUMPDEST PUSH2 0x4162 DUP6 DUP3 DUP7 ADD PUSH2 0x3967 JUMP JUMPDEST SWAP2 POP POP SWAP3 POP SWAP3 SWAP1 POP JUMP JUMPDEST PUSH1 0x1 DUP2 DUP2 SHR SWAP1 DUP3 AND DUP1 PUSH2 0x4180 JUMPI PUSH1 0x7F DUP3 AND SWAP2 POP JUMPDEST PUSH1 0x20 DUP3 LT DUP2 SUB PUSH2 0x41A0 JUMPI PUSH4 0x4E487B71 PUSH1 0xE0 SHL PUSH1 0x0 MSTORE PUSH1 0x22 PUSH1 0x4 MSTORE PUSH1 0x24 PUSH1 0x0 REVERT JUMPDEST POP SWAP2 SWAP1 POP JUMP JUMPDEST PUSH1 0x0 PUSH1 0x20 DUP3 DUP5 SUB SLT ISZERO PUSH2 0x41B8 JUMPI PUSH1 0x0 DUP1 REVERT JUMPDEST DUP2 MLOAD PUSH2 0x3A85 DUP2 PUSH2 0x407E JUMP JUMPDEST PUSH4 0x4E487B71 PUSH1 0xE0 SHL PUSH1 0x0 MSTORE PUSH1 0x32 PUSH1 0x4 MSTORE PUSH1 0x24 PUSH1 0x0 REVERT JUMPDEST PUSH1 0x1F DUP3 GT ISZERO PUSH2 0x876 JUMPI PUSH1 0x0 DUP2 DUP2 MSTORE PUSH1 0x20 DUP2 KECCAK256 PUSH1 0x1F DUP6 ADD PUSH1 0x5 SHR DUP2 ADD PUSH1 0x20 DUP7 LT ISZERO PUSH2 0x4200 JUMPI POP DUP1 JUMPDEST PUSH1 0x1F DUP6 ADD PUSH1 0x5 SHR DUP3 ADD SWAP2 POP JUMPDEST DUP2 DUP2 LT ISZERO PUSH2 0x421F JUMPI DUP3 DUP2 SSTORE PUSH1 0x1 ADD PUSH2 0x420C JUMP JUMPDEST POP POP POP POP POP POP JUMP JUMPDEST DUP2 CALLDATALOAD DUP2 SSTORE PUSH1 0x1 DUP1 DUP3 ADD PUSH1 0x20 DUP1 DUP6 ADD CALLDATALOAD PUSH1 0x1E NOT DUP7 CALLDATASIZE SUB ADD DUP2 SLT PUSH2 0x4248 JUMPI PUSH1 0x0 DUP1 REVERT JUMPDEST DUP6 ADD DUP1 CALLDATALOAD PUSH1 0x1 PUSH1 0x1 PUSH1 0x40 SHL SUB DUP2 GT ISZERO PUSH2 0x4260 JUMPI PUSH1 0x0 DUP1 REVERT JUMPDEST DUP1 CALLDATASIZE SUB DUP4 DUP4 ADD SGT ISZERO PUSH2 0x4271 JUMPI PUSH1 0x0 DUP1 REVERT JUMPDEST PUSH2 0x4285 DUP2 PUSH2 0x427F DUP7 SLOAD PUSH2 0x416C JUMP JUMPDEST DUP7 PUSH2 0x41D9 JUMP JUMPDEST PUSH1 0x0 PUSH1 0x1F DUP3 GT PUSH1 0x1 DUP2 EQ PUSH2 0x42BB JUMPI PUSH1 0x0 DUP4 ISZERO PUSH2 0x42A3 JUMPI POP DUP4 DUP3 ADD DUP6 ADD CALLDATALOAD JUMPDEST PUSH1 0x0 NOT PUSH1 0x3 DUP6 SWAP1 SHL SHR NOT AND PUSH1 0x1 DUP5 SWAP1 SHL OR DUP7 SSTORE PUSH2 0x4314 JUMP JUMPDEST PUSH1 0x0 DUP7 DUP2 MSTORE PUSH1 0x20 SWAP1 KECCAK256 PUSH1 0x1F NOT DUP5 AND SWAP1 DUP4 JUMPDEST DUP3 DUP2 LT ISZERO PUSH2 0x42EB JUMPI DUP7 DUP6 ADD DUP9 ADD CALLDATALOAD DUP3 SSTORE SWAP4 DUP8 ADD SWAP4 SWAP1 DUP10 ADD SWAP1 DUP8 ADD PUSH2 0x42CC JUMP JUMPDEST POP DUP5 DUP3 LT ISZERO PUSH2 0x430A JUMPI PUSH1 0x0 NOT PUSH1 0xF8 DUP7 PUSH1 0x3 SHL AND SHR NOT DUP8 DUP6 DUP9 ADD ADD CALLDATALOAD AND DUP2 SSTORE JUMPDEST POP POP DUP7 DUP4 DUP9 SHL ADD DUP7 SSTORE JUMPDEST POP POP POP POP POP POP POP POP POP JUMP JUMPDEST PUSH1 0x1 DUP1 PUSH1 0xA0 SHL SUB DUP5 AND DUP2 MSTORE DUP3 PUSH1 0x20 DUP3 ADD MSTORE PUSH1 0x60 PUSH1 0x40 DUP3 ADD MSTORE DUP2 CALLDATALOAD PUSH1 0x60 DUP3 ADD MSTORE PUSH1 0x0 PUSH1 0x20 DUP4 ADD CALLDATALOAD PUSH1 0x1E NOT DUP5 CALLDATASIZE SUB ADD DUP2 SLT PUSH2 0x4357 JUMPI PUSH1 0x0 DUP1 REVERT JUMPDEST DUP4 ADD PUSH1 0x20 DUP2 ADD SWAP1 CALLDATALOAD PUSH1 0x1 PUSH1 0x1 PUSH1 0x40 SHL SUB DUP2 GT ISZERO PUSH2 0x4373 JUMPI PUSH1 0x0 DUP1 REVERT JUMPDEST DUP1 CALLDATASIZE SUB DUP3 SGT ISZERO PUSH2 0x4382 JUMPI PUSH1 0x0 DUP1 REVERT JUMPDEST PUSH1 0x40 PUSH1 0x80 DUP6 ADD MSTORE DUP1 PUSH1 0xA0 DUP6 ADD MSTORE DUP1 DUP3 PUSH1 0xC0 DUP7 ADD CALLDATACOPY PUSH1 0x0 PUSH1 0xC0 DUP3 DUP7 ADD ADD MSTORE PUSH1 0xC0 PUSH1 0x1F NOT PUSH1 0x1F DUP4 ADD AND DUP6 ADD ADD SWAP3 POP POP POP SWAP5 SWAP4 POP POP POP POP JUMP JUMPDEST DUP2 MLOAD PUSH1 0x1 PUSH1 0x1 PUSH1 0x40 SHL SUB DUP2 GT ISZERO PUSH2 0x43D1 JUMPI PUSH2 0x43D1 PUSH2 0x37E2 JUMP JUMPDEST PUSH2 0x43E5 DUP2 PUSH2 0x43DF DUP5 SLOAD PUSH2 0x416C JUMP JUMPDEST DUP5 PUSH2 0x41D9 JUMP JUMPDEST PUSH1 0x20 DUP1 PUSH1 0x1F DUP4 GT PUSH1 0x1 DUP2 EQ PUSH2 0x441A JUMPI PUSH1 0x0 DUP5 ISZERO PUSH2 0x4402 JUMPI POP DUP6 DUP4 ADD MLOAD JUMPDEST PUSH1 0x0 NOT PUSH1 0x3 DUP7 SWAP1 SHL SHR NOT AND PUSH1 0x1 DUP6 SWAP1 SHL OR DUP6 SSTORE PUSH2 0x421F JUMP JUMPDEST PUSH1 0x0 DUP6 DUP2 MSTORE PUSH1 0x20 DUP2 KECCAK256 PUSH1 0x1F NOT DUP7 AND SWAP2 JUMPDEST DUP3 DUP2 LT ISZERO PUSH2 0x4449 JUMPI DUP9 DUP7 ADD MLOAD DUP3 SSTORE SWAP5 DUP5 ADD SWAP5 PUSH1 0x1 SWAP1 SWAP2 ADD SWAP1 DUP5 ADD PUSH2 0x442A JUMP JUMPDEST POP DUP6 DUP3 LT ISZERO PUSH2 0x4467 JUMPI DUP8 DUP6 ADD MLOAD PUSH1 0x0 NOT PUSH1 0x3 DUP9 SWAP1 SHL PUSH1 0xF8 AND SHR NOT AND DUP2 SSTORE JUMPDEST POP POP POP POP POP PUSH1 0x1 SWAP1 DUP2 SHL ADD SWAP1 SSTORE POP JUMP JUMPDEST PUSH4 0x4E487B71 PUSH1 0xE0 SHL PUSH1 0x0 MSTORE PUSH1 0x11 PUSH1 0x4 MSTORE PUSH1 0x24 PUSH1 0x0 REVERT JUMPDEST PUSH1 0x0 PUSH1 0x1 DUP3 ADD PUSH2 0x449F JUMPI PUSH2 0x449F PUSH2 0x4477 JUMP JUMPDEST POP PUSH1 0x1 ADD SWAP1 JUMP JUMPDEST DUP1 DUP3 MUL DUP2 ISZERO DUP3 DUP3 DIV DUP5 EQ OR PUSH2 0x8A6 JUMPI PUSH2 0x8A6 PUSH2 0x4477 JUMP JUMPDEST PUSH1 0x0 DUP3 PUSH2 0x44DA JUMPI PUSH4 0x4E487B71 PUSH1 0xE0 SHL PUSH1 0x0 MSTORE PUSH1 0x12 PUSH1 0x4 MSTORE PUSH1 0x24 PUSH1 0x0 REVERT JUMPDEST POP DIV SWAP1 JUMP JUMPDEST DUP1 DUP3 ADD DUP1 DUP3 GT ISZERO PUSH2 0x8A6 JUMPI PUSH2 0x8A6 PUSH2 0x4477 JUMP JUMPDEST PUSH1 0x0 PUSH1 0x60 DUP3 ADD DUP5 DUP4 MSTORE PUSH1 0x20 PUSH1 0x60 DUP2 DUP6 ADD MSTORE DUP2 DUP6 MLOAD DUP1 DUP5 MSTORE PUSH1 0x80 DUP7 ADD SWAP2 POP DUP3 DUP8 ADD SWAP4 POP PUSH1 0x0 JUMPDEST DUP2 DUP2 LT ISZERO PUSH2 0x453C JUMPI DUP5 MLOAD PUSH1 0x1 PUSH1 0x1 PUSH1 0xA0 SHL SUB AND DUP4 MSTORE SWAP4 DUP4 ADD SWAP4 SWAP2 DUP4 ADD SWAP2 PUSH1 0x1 ADD PUSH2 0x4517 JUMP JUMPDEST POP POP DUP5 DUP2 SUB PUSH1 0x40 DUP7 ADD MSTORE PUSH1 0x0 DUP2 MSTORE DUP2 DUP2 ADD SWAP4 POP POP POP POP SWAP4 SWAP3 POP POP POP JUMP JUMPDEST PUSH1 0x1 PUSH1 0x1 PUSH1 0xA0 SHL SUB DUP5 AND DUP2 MSTORE PUSH1 0x20 DUP2 ADD DUP4 SWAP1 MSTORE PUSH1 0x60 DUP2 ADD PUSH2 0x2859 PUSH1 0x40 DUP4 ADD DUP5 PUSH2 0x3B11 JUMP JUMPDEST PUSH1 0x1 PUSH1 0x1 PUSH1 0xA0 SHL SUB DUP4 AND DUP2 MSTORE PUSH1 0x40 DUP2 ADD PUSH2 0x3A85 PUSH1 0x20 DUP4 ADD DUP5 PUSH2 0x3B11 JUMP JUMPDEST DUP1 MLOAD PUSH2 0x3D5D DUP2 PUSH2 0x38B7 JUMP JUMPDEST PUSH1 0x0 PUSH1 0x20 DUP1 DUP4 DUP6 SUB SLT ISZERO PUSH2 0x45B8 JUMPI PUSH1 0x0 DUP1 REVERT JUMPDEST DUP3 MLOAD PUSH1 0x1 PUSH1 0x1 PUSH1 0x40 SHL SUB DUP1 DUP3 GT ISZERO PUSH2 0x45CF JUMPI PUSH1 0x0 DUP1 REVERT JUMPDEST SWAP1 DUP5 ADD SWAP1 PUSH1 0x80 DUP3 DUP8 SUB SLT ISZERO PUSH2 0x45E3 JUMPI PUSH1 0x0 DUP1 REVERT JUMPDEST PUSH2 0x45EB PUSH2 0x37F8 JUMP JUMPDEST DUP3 MLOAD PUSH2 0x45F6 DUP2 PUSH2 0x407E JUMP JUMPDEST DUP2 MSTORE DUP3 DUP5 ADD MLOAD PUSH2 0x4605 DUP2 PUSH2 0x407E JUMP JUMPDEST DUP2 DUP6 ADD MSTORE PUSH1 0x40 DUP4 DUP2 ADD MLOAD PUSH2 0x4618 DUP2 PUSH2 0x407E JUMP JUMPDEST DUP3 DUP3 ADD MSTORE PUSH1 0x60 DUP5 ADD MLOAD DUP4 DUP2 GT ISZERO PUSH2 0x462E JUMPI PUSH1 0x0 DUP1 REVERT JUMPDEST DUP1 DUP6 ADD SWAP5 POP POP DUP8 PUSH1 0x1F DUP6 ADD SLT PUSH2 0x4643 JUMPI PUSH1 0x0 DUP1 REVERT JUMPDEST DUP4 MLOAD SWAP3 POP PUSH2 0x4653 PUSH2 0x38ED DUP5 PUSH2 0x3894 JUMP JUMPDEST DUP4 DUP2 MSTORE PUSH1 0x6 SWAP4 SWAP1 SWAP4 SHL DUP5 ADD DUP6 ADD SWAP3 DUP6 DUP2 ADD SWAP1 DUP10 DUP6 GT ISZERO PUSH2 0x4672 JUMPI PUSH1 0x0 DUP1 REVERT JUMPDEST SWAP5 DUP7 ADD SWAP5 JUMPDEST DUP5 DUP7 LT ISZERO PUSH2 0x46BB JUMPI DUP3 DUP7 DUP12 SUB SLT ISZERO PUSH2 0x468F JUMPI PUSH1 0x0 DUP1 DUP2 REVERT JUMPDEST PUSH2 0x4697 PUSH2 0x3820 JUMP JUMPDEST DUP7 MLOAD PUSH2 0x46A2 DUP2 PUSH2 0x38B7 JUMP JUMPDEST DUP2 MSTORE DUP7 DUP9 ADD MLOAD DUP9 DUP3 ADD MSTORE DUP3 MSTORE SWAP5 DUP3 ADD SWAP5 SWAP1 DUP7 ADD SWAP1 PUSH2 0x4677 JUMP JUMPDEST PUSH1 0x60 DUP5 ADD MSTORE POP SWAP1 SWAP8 SWAP7 POP POP POP POP POP POP POP JUMP JUMPDEST DUP3 DUP2 MSTORE PUSH1 0x40 PUSH1 0x20 DUP3 ADD MSTORE PUSH1 0x0 PUSH2 0x2859 PUSH1 0x40 DUP4 ADD DUP5 PUSH2 0x3AB0 JUMP JUMPDEST PUSH1 0x0 DUP3 PUSH1 0x1F DUP4 ADD SLT PUSH2 0x46F7 JUMPI PUSH1 0x0 DUP1 REVERT JUMPDEST DUP2 MLOAD PUSH2 0x4705 PUSH2 0x38ED DUP3 PUSH2 0x3940 JUMP JUMPDEST DUP2 DUP2 MSTORE DUP5 PUSH1 0x20 DUP4 DUP7 ADD ADD GT ISZERO PUSH2 0x471A JUMPI PUSH1 0x0 DUP1 REVERT JUMPDEST PUSH2 0x2859 DUP3 PUSH1 0x20 DUP4 ADD PUSH1 0x20 DUP8 ADD PUSH2 0x3A8C JUMP JUMPDEST PUSH1 0x0 PUSH1 0x40 DUP3 DUP5 SUB SLT ISZERO PUSH2 0x473D JUMPI PUSH1 0x0 DUP1 REVERT JUMPDEST PUSH2 0x4745 PUSH2 0x3820 JUMP JUMPDEST SWAP1 POP DUP2 MLOAD DUP2 MSTORE PUSH1 0x20 DUP3 ADD MLOAD PUSH1 0x1 PUSH1 0x1 PUSH1 0x40 SHL SUB DUP2 GT ISZERO PUSH2 0x4764 JUMPI PUSH1 0x0 DUP1 REVERT JUMPDEST PUSH2 0x4770 DUP5 DUP3 DUP6 ADD PUSH2 0x46E6 JUMP JUMPDEST PUSH1 0x20 DUP4 ADD MSTORE POP SWAP3 SWAP2 POP POP JUMP JUMPDEST PUSH1 0x0 DUP1 PUSH1 0x0 DUP1 PUSH1 0x80 DUP6 DUP8 SUB SLT ISZERO PUSH2 0x4792 JUMPI PUSH1 0x0 DUP1 REVERT JUMPDEST DUP5 MLOAD PUSH2 0x479D DUP2 PUSH2 0x38B7 JUMP JUMPDEST PUSH1 0x20 DUP7 ADD MLOAD SWAP1 SWAP5 POP PUSH2 0x47AE DUP2 PUSH2 0x38B7 JUMP JUMPDEST PUSH1 0x40 DUP7 ADD MLOAD PUSH1 0x60 DUP8 ADD MLOAD SWAP2 SWAP5 POP SWAP3 POP PUSH1 0x1 PUSH1 0x1 PUSH1 0x40 SHL SUB DUP2 GT ISZERO PUSH2 0x47D1 JUMPI PUSH1 0x0 DUP1 REVERT JUMPDEST PUSH2 0x47DD DUP8 DUP3 DUP9 ADD PUSH2 0x472B JUMP JUMPDEST SWAP2 POP POP SWAP3 SWAP6 SWAP2 SWAP5 POP SWAP3 POP JUMP JUMPDEST PUSH1 0x40 DUP2 MSTORE PUSH1 0x0 PUSH2 0x47FC PUSH1 0x40 DUP4 ADD DUP6 PUSH2 0x3AB0 JUMP JUMPDEST SWAP1 POP PUSH1 0x1 DUP1 PUSH1 0xA0 SHL SUB DUP4 AND PUSH1 0x20 DUP4 ADD MSTORE SWAP4 SWAP3 POP POP POP JUMP JUMPDEST PUSH1 0x0 PUSH1 0x20 DUP3 DUP5 SUB SLT ISZERO PUSH2 0x4825 JUMPI PUSH1 0x0 DUP1 REVERT JUMPDEST DUP2 MLOAD PUSH1 0x1 PUSH1 0x1 PUSH1 0x40 SHL SUB DUP1 DUP3 GT ISZERO PUSH2 0x483C JUMPI PUSH1 0x0 DUP1 REVERT JUMPDEST SWAP1 DUP4 ADD SWAP1 PUSH1 0xC0 DUP3 DUP7 SUB SLT ISZERO PUSH2 0x4850 JUMPI PUSH1 0x0 DUP1 REVERT JUMPDEST PUSH2 0x4858 PUSH2 0x3842 JUMP JUMPDEST DUP3 MLOAD DUP2 MSTORE PUSH1 0x20 DUP4 ADD MLOAD PUSH1 0x20 DUP3 ADD MSTORE PUSH1 0x40 DUP4 ADD MLOAD DUP3 DUP2 GT ISZERO PUSH2 0x4878 JUMPI PUSH1 0x0 DUP1 REVERT JUMPDEST PUSH2 0x4884 DUP8 DUP3 DUP7 ADD PUSH2 0x46E6 JUMP JUMPDEST PUSH1 0x40 DUP4 ADD MSTORE POP PUSH1 0x60 DUP4 ADD MLOAD DUP3 DUP2 GT ISZERO PUSH2 0x489C JUMPI PUSH1 0x0 DUP1 REVERT JUMPDEST PUSH2 0x48A8 DUP8 DUP3 DUP7 ADD PUSH2 0x472B JUMP JUMPDEST PUSH1 0x60 DUP4 ADD MSTORE POP PUSH2 0x48BA PUSH1 0x80 DUP5 ADD PUSH2 0x459A JUMP JUMPDEST PUSH1 0x80 DUP3 ADD MSTORE PUSH2 0x48CB PUSH1 0xA0 DUP5 ADD PUSH2 0x459A JUMP JUMPDEST PUSH1 0xA0 DUP3 ADD MSTORE SWAP6 SWAP5 POP POP POP POP POP JUMP JUMPDEST PUSH1 0x1 PUSH1 0x1 PUSH1 0xA0 SHL SUB DUP5 AND DUP2 MSTORE PUSH1 0x60 DUP2 ADD PUSH2 0x48F6 PUSH1 0x20 DUP4 ADD DUP6 PUSH2 0x3B11 JUMP JUMPDEST DUP3 PUSH1 0x40 DUP4 ADD MSTORE SWAP5 SWAP4 POP POP POP POP JUMP JUMPDEST PUSH1 0x0 PUSH1 0x20 DUP3 DUP5 SUB SLT ISZERO PUSH2 0x4916 JUMPI PUSH1 0x0 DUP1 REVERT JUMPDEST DUP2 MLOAD PUSH2 0x3A85 DUP2 PUSH2 0x38B7 JUMP JUMPDEST PUSH1 0x0 DUP1 PUSH1 0x0 PUSH1 0x60 DUP5 DUP7 SUB SLT ISZERO PUSH2 0x4936 JUMPI PUSH1 0x0 DUP1 REVERT JUMPDEST DUP4 MLOAD PUSH2 0x4941 DUP2 PUSH2 0x38B7 JUMP JUMPDEST PUSH1 0x20 DUP6 ADD MLOAD SWAP1 SWAP4 POP PUSH2 0x4952 DUP2 PUSH2 0x3D45 JUMP JUMPDEST DUP1 SWAP3 POP POP PUSH1 0x40 DUP5 ADD MLOAD SWAP1 POP SWAP3 POP SWAP3 POP SWAP3 JUMP JUMPDEST PUSH1 0x0 PUSH1 0x20 DUP3 DUP5 SUB SLT ISZERO PUSH2 0x4976 JUMPI PUSH1 0x0 DUP1 REVERT JUMPDEST DUP2 MLOAD PUSH1 0x1 PUSH1 0x1 PUSH1 0x40 SHL SUB DUP1 DUP3 GT ISZERO PUSH2 0x498D JUMPI PUSH1 0x0 DUP1 REVERT JUMPDEST SWAP1 DUP4 ADD SWAP1 PUSH1 0xC0 DUP3 DUP7 SUB SLT ISZERO PUSH2 0x49A1 JUMPI PUSH1 0x0 DUP1 REVERT JUMPDEST PUSH2 0x49A9 PUSH2 0x3842 JUMP JUMPDEST DUP3 MLOAD DUP2 MSTORE PUSH1 0x20 DUP4 ADD MLOAD PUSH2 0x49BB DUP2 PUSH2 0x38B7 JUMP JUMPDEST PUSH1 0x20 DUP3 ADD MSTORE PUSH1 0x40 DUP4 ADD MLOAD PUSH2 0x49CE DUP2 PUSH2 0x38B7 JUMP JUMPDEST PUSH1 0x40 DUP3 ADD MSTORE PUSH1 0x60 DUP4 ADD MLOAD DUP3 DUP2 GT ISZERO PUSH2 0x49E5 JUMPI PUSH1 0x0 DUP1 REVERT JUMPDEST PUSH2 0x49F1 DUP8 DUP3 DUP7 ADD PUSH2 0x472B JUMP JUMPDEST PUSH1 0x60 DUP4 ADD MSTORE POP PUSH1 0x80 DUP4 ADD MLOAD PUSH1 0x80 DUP3 ADD MSTORE PUSH1 0xA0 DUP4 ADD MLOAD PUSH1 0xA0 DUP3 ADD MSTORE DUP1 SWAP4 POP POP POP POP SWAP3 SWAP2 POP POP JUMP JUMPDEST DUP2 DUP2 SUB DUP2 DUP2 GT ISZERO PUSH2 0x8A6 JUMPI PUSH2 0x8A6 PUSH2 0x4477 JUMP INVALID LOG2 PUSH5 0x6970667358 0x22 SLT KECCAK256 0xC4 PUSH19 0x25EC83522CA6982D7A02ABCC5A8A43D78AA9FD DUP7 0x4D PUSH25 0xF3B3ABB19C6294AB64736F6C63430008140033000000000000 "},"methodIdentifiers":{"NATIVE()":"a0cf0aea","allocate(bytes,address)":"ef2920fc","allocatedGrantAmount()":"e8eeb806","distribute(address[],bytes,address)":"0a6f0ee9","getAllo()":"15cc481e","getMilestoneStatus(address,uint256)":"f83067e7","getMilestones(address)":"22a4e42d","getOffeeredMilestones(address)":"36592c0e","getOfferedMilestonesVotesAgainst(address)":"cb2415fb","getOfferedMilestonesVotesFor(address)":"e477b6bd","getPayouts(address[],bytes[])":"b2b878d0","getPoolAmount()":"4ab4ba42","getPoolId()":"38fff2d0","getRecipient(address)":"62812a39","getRecipientStatus(address)":"eb11af93","getStrategyId()":"42fda9c7","getSubmittedMilestonesVotesAgainst(uint256)":"ee120300","getSubmittedMilestonesVotesFor(uint256)":"c1aaf44a","getSupplierOfferedMilestonesVote(address,address)":"197ea814","getSupplierSubmittedMilestonesVote(uint256,address)":"605e1c66","getUpcomingMilestone(address)":"2ff0e6c4","grantAmountRequired()":"9be2ccf5","increasePoolAmount(uint256)":"f5b0dfb7","initialize(uint256,bytes)":"edd146cc","isPoolActive()":"df868ed3","isValidAllocator(address)":"4d31d087","metadataRequired()":"cb0e85a6","milestones(address,uint256)":"c7a892bf","offerMilestones(address,(uint256,(uint256,string),uint8,string)[])":"78f0184d","registerRecipient(bytes,address)":"2bbe0cae","registryGating()":"a647d23e","reviewOfferedtMilestones(address,uint8)":"b3eae7ab","reviewSubmitedMilestone(address,uint256,uint8)":"9ffaa875","setPoolActive(bool)":"b5f620ce","setThresholdPercentage(uint256,bytes32)":"2a835b4b","submitMilestone(address,uint256,(uint256,string))":"3bf3577d","submittedvMilestones(uint256)":"404e73e2","thresholdPercentage()":"4ed2859e","totalSupply()":"18160ddd","upcomingMilestone(address)":"e2372b58"}}}}}