{"contracts/libraries/Transfer.sol":{"Transfer":{"abi":[{"inputs":[],"name":"AMOUNT_MISMATCH","type":"error"},{"inputs":[],"name":"NATIVE","outputs":[{"internalType":"address","name":"","type":"address"}],"stateMutability":"view","type":"function"}],"evm":{"bytecode":{"linkReferences":{},"object":"6080604052348015600f57600080fd5b5060998061001e6000396000f3fe6080604052348015600f57600080fd5b506004361060285760003560e01c8063a0cf0aea14602d575b600080fd5b604773eeeeeeeeeeeeeeeeeeeeeeeeeeeeeeeeeeeeeeee81565b6040516001600160a01b03909116815260200160405180910390f3fea26469706673582212200b0233e6338836f1c3d157ab9d0c67eae9bdf9338cc4a3a1161bf1f379003fd064736f6c63430008140033","opcodes":"PUSH1 0x80 PUSH1 0x40 MSTORE CALLVALUE DUP1 ISZERO PUSH1 0xF JUMPI PUSH1 0x0 DUP1 REVERT JUMPDEST POP PUSH1 0x99 DUP1 PUSH2 0x1E PUSH1 0x0 CODECOPY PUSH1 0x0 RETURN INVALID PUSH1 0x80 PUSH1 0x40 MSTORE CALLVALUE DUP1 ISZERO PUSH1 0xF JUMPI PUSH1 0x0 DUP1 REVERT JUMPDEST POP PUSH1 0x4 CALLDATASIZE LT PUSH1 0x28 JUMPI PUSH1 0x0 CALLDATALOAD PUSH1 0xE0 SHR DUP1 PUSH4 0xA0CF0AEA EQ PUSH1 0x2D JUMPI JUMPDEST PUSH1 0x0 DUP1 REVERT JUMPDEST PUSH1 0x47 PUSH20 0xEEEEEEEEEEEEEEEEEEEEEEEEEEEEEEEEEEEEEEEE DUP2 JUMP JUMPDEST PUSH1 0x40 MLOAD PUSH1 0x1 PUSH1 0x1 PUSH1 0xA0 SHL SUB SWAP1 SWAP2 AND DUP2 MSTORE PUSH1 0x20 ADD PUSH1 0x40 MLOAD DUP1 SWAP2 SUB SWAP1 RETURN INVALID LOG2 PUSH5 0x6970667358 0x22 SLT KECCAK256 SIGNEXTEND MUL CALLER 0xE6 CALLER DUP9 CALLDATASIZE CALL 0xC3 0xD1 JUMPI 0xAB SWAP14 0xC PUSH8 0xEAE9BDF9338CC4A3 LOG1 AND SHL CALL RETURN PUSH26 0x3FD064736F6C63430008140033000000000000000000000000 "},"methodIdentifiers":{"NATIVE()":"a0cf0aea"}}}}}