{"contracts/ExecutorSupplierVotingStrategy.sol":{"ExecutorSupplierVotingStrategy":{"abi":[{"inputs":[{"internalType":"address","name":"_allo","type":"address"},{"internalType":"string","name":"_name","type":"string"}],"stateMutability":"nonpayable","type":"constructor"},{"inputs":[],"name":"ALLOCATION_ACTIVE","type":"error"},{"inputs":[],"name":"ALLOCATION_EXCEEDS_POOL_AMOUNT","type":"error"},{"inputs":[],"name":"ALLOCATION_NOT_ACTIVE","type":"error"},{"inputs":[],"name":"ALLOCATION_NOT_ENDED","type":"error"},{"inputs":[],"name":"ALREADY_INITIALIZED","type":"error"},{"inputs":[],"name":"ALREADY_REVIEWED","type":"error"},{"inputs":[],"name":"AMOUNT_MISMATCH","type":"error"},{"inputs":[],"name":"ANCHOR_ERROR","type":"error"},{"inputs":[],"name":"ARRAY_MISMATCH","type":"error"},{"inputs":[],"name":"INVALID","type":"error"},{"inputs":[],"name":"INVALID_ADDRESS","type":"error"},{"inputs":[],"name":"INVALID_FEE","type":"error"},{"inputs":[],"name":"INVALID_METADATA","type":"error"},{"inputs":[],"name":"INVALID_MILESTONE","type":"error"},{"inputs":[],"name":"INVALID_MILESTONES_PERCENTAGE","type":"error"},{"inputs":[],"name":"INVALID_MILESTONE_STATUS","type":"error"},{"inputs":[],"name":"INVALID_REGISTRATION","type":"error"},{"inputs":[],"name":"INVALID_STATUS","type":"error"},{"inputs":[],"name":"IS_APPROVED_STRATEGY","type":"error"},{"inputs":[],"name":"MILESTONES_ALREADY_SET","type":"error"},{"inputs":[],"name":"MILESTONE_ALREADY_ACCEPTED","type":"error"},{"inputs":[],"name":"MISMATCH","type":"error"},{"inputs":[],"name":"NONCE_NOT_AVAILABLE","type":"error"},{"inputs":[],"name":"NOT_APPROVED_STRATEGY","type":"error"},{"inputs":[],"name":"NOT_ENOUGH_FUNDS","type":"error"},{"inputs":[],"name":"NOT_IMPLEMENTED","type":"error"},{"inputs":[],"name":"NOT_INITIALIZED","type":"error"},{"inputs":[],"name":"NOT_PENDING_OWNER","type":"error"},{"inputs":[],"name":"POOL_ACTIVE","type":"error"},{"inputs":[],"name":"POOL_INACTIVE","type":"error"},{"inputs":[],"name":"RECIPIENT_ALREADY_ACCEPTED","type":"error"},{"inputs":[{"internalType":"address","name":"recipientId","type":"address"}],"name":"RECIPIENT_ERROR","type":"error"},{"inputs":[],"name":"RECIPIENT_NOT_ACCEPTED","type":"error"},{"inputs":[],"name":"REGISTRATION_NOT_ACTIVE","type":"error"},{"inputs":[],"name":"ReentrancyGuardReentrantCall","type":"error"},{"inputs":[],"name":"SUPPLY_IS_ALLOWED_ONLY_ONCE","type":"error"},{"inputs":[],"name":"SUPPLY_NOT_FOUND","type":"error"},{"inputs":[],"name":"UNAUTHORIZED","type":"error"},{"inputs":[],"name":"ZERO_ADDRESS","type":"error"},{"anonymous":false,"inputs":[{"indexed":true,"internalType":"address","name":"recipientId","type":"address"},{"indexed":false,"internalType":"uint256","name":"amount","type":"uint256"},{"indexed":false,"internalType":"address","name":"token","type":"address"},{"indexed":false,"internalType":"address","name":"sender","type":"address"}],"name":"Allocated","type":"event"},{"anonymous":false,"inputs":[{"indexed":true,"internalType":"address","name":"recipientId","type":"address"},{"indexed":false,"internalType":"address","name":"recipientAddress","type":"address"},{"indexed":false,"internalType":"uint256","name":"amount","type":"uint256"},{"indexed":false,"internalType":"address","name":"sender","type":"address"}],"name":"Distributed","type":"event"},{"anonymous":false,"inputs":[{"indexed":false,"internalType":"uint256","name":"poolId","type":"uint256"},{"indexed":false,"internalType":"bytes","name":"data","type":"bytes"}],"name":"Initialized","type":"event"},{"anonymous":false,"inputs":[{"indexed":false,"internalType":"address","name":"recipientId","type":"address"},{"indexed":false,"internalType":"uint256","name":"milestoneId","type":"uint256"},{"indexed":false,"internalType":"enum IStrategy.Status","name":"status","type":"uint8"}],"name":"MilestoneStatusChanged","type":"event"},{"anonymous":false,"inputs":[{"indexed":false,"internalType":"address","name":"recipientId","type":"address"},{"indexed":false,"internalType":"uint256","name":"milestoneId","type":"uint256"},{"components":[{"internalType":"uint256","name":"protocol","type":"uint256"},{"internalType":"string","name":"pointer","type":"string"}],"indexed":false,"internalType":"struct Metadata","name":"metadata","type":"tuple"}],"name":"MilestoneSubmitted","type":"event"},{"anonymous":false,"inputs":[{"indexed":false,"internalType":"address","name":"recipientId","type":"address"},{"indexed":false,"internalType":"uint256","name":"milestonesLength","type":"uint256"}],"name":"MilestonesOffered","type":"event"},{"anonymous":false,"inputs":[{"indexed":false,"internalType":"address","name":"recipientId","type":"address"},{"indexed":false,"internalType":"enum IStrategy.Status","name":"status","type":"uint8"}],"name":"MilestonesReviewed","type":"event"},{"anonymous":false,"inputs":[{"indexed":false,"internalType":"address","name":"recipientId","type":"address"},{"indexed":false,"internalType":"uint256","name":"milestonesLength","type":"uint256"}],"name":"MilestonesSet","type":"event"},{"anonymous":false,"inputs":[{"indexed":false,"internalType":"address","name":"recipientId","type":"address"}],"name":"OfferedMilestonesAccepted","type":"event"},{"anonymous":false,"inputs":[{"indexed":false,"internalType":"address","name":"recipientId","type":"address"}],"name":"OfferedMilestonesRejected","type":"event"},{"anonymous":false,"inputs":[{"indexed":false,"internalType":"bool","name":"active","type":"bool"}],"name":"PoolActive","type":"event"},{"anonymous":false,"inputs":[],"name":"ProjectRejectDeclined","type":"event"},{"anonymous":false,"inputs":[],"name":"ProjectRejected","type":"event"},{"anonymous":false,"inputs":[{"indexed":false,"internalType":"address","name":"recipientId","type":"address"},{"indexed":false,"internalType":"enum IStrategy.Status","name":"status","type":"uint8"}],"name":"RecipientStatusChanged","type":"event"},{"anonymous":false,"inputs":[{"indexed":true,"internalType":"address","name":"recipientId","type":"address"},{"indexed":false,"internalType":"bytes","name":"data","type":"bytes"},{"indexed":false,"internalType":"address","name":"sender","type":"address"}],"name":"Registered","type":"event"},{"anonymous":false,"inputs":[{"indexed":false,"internalType":"address","name":"recipientId","type":"address"},{"indexed":false,"internalType":"uint256","name":"milestoneId","type":"uint256"},{"indexed":false,"internalType":"enum IStrategy.Status","name":"status","type":"uint8"}],"name":"SubmittedvMilestoneReviewed","type":"event"},{"inputs":[],"name":"NATIVE","outputs":[{"internalType":"address","name":"","type":"address"}],"stateMutability":"view","type":"function"},{"inputs":[{"internalType":"bytes","name":"_data","type":"bytes"},{"internalType":"address","name":"_sender","type":"address"}],"name":"allocate","outputs":[],"stateMutability":"payable","type":"function"},{"inputs":[],"name":"allocatedGrantAmount","outputs":[{"internalType":"uint256","name":"","type":"uint256"}],"stateMutability":"view","type":"function"},{"inputs":[{"internalType":"address[]","name":"_recipientIds","type":"address[]"},{"internalType":"bytes","name":"_data","type":"bytes"},{"internalType":"address","name":"_sender","type":"address"}],"name":"distribute","outputs":[],"stateMutability":"nonpayable","type":"function"},{"inputs":[],"name":"getAllo","outputs":[{"internalType":"contract IAllo","name":"","type":"address"}],"stateMutability":"view","type":"function"},{"inputs":[{"internalType":"address","name":"_recipientId","type":"address"},{"internalType":"uint256","name":"_milestoneId","type":"uint256"}],"name":"getMilestoneStatus","outputs":[{"internalType":"enum IStrategy.Status","name":"","type":"uint8"}],"stateMutability":"view","type":"function"},{"inputs":[{"internalType":"address","name":"_recipientId","type":"address"}],"name":"getMilestones","outputs":[{"components":[{"internalType":"uint256","name":"amountPercentage","type":"uint256"},{"components":[{"internalType":"uint256","name":"protocol","type":"uint256"},{"internalType":"string","name":"pointer","type":"string"}],"internalType":"struct Metadata","name":"metadata","type":"tuple"},{"internalType":"enum IStrategy.Status","name":"milestoneStatus","type":"uint8"},{"internalType":"string","name":"description","type":"string"}],"internalType":"struct ExecutorSupplierVotingStrategy.Milestone[]","name":"","type":"tuple[]"}],"stateMutability":"view","type":"function"},{"inputs":[{"internalType":"address","name":"_recipientId","type":"address"}],"name":"getOffeeredMilestones","outputs":[{"components":[{"internalType":"uint256","name":"amountPercentage","type":"uint256"},{"components":[{"internalType":"uint256","name":"protocol","type":"uint256"},{"internalType":"string","name":"pointer","type":"string"}],"internalType":"struct Metadata","name":"metadata","type":"tuple"},{"internalType":"enum IStrategy.Status","name":"milestoneStatus","type":"uint8"},{"internalType":"string","name":"description","type":"string"}],"internalType":"struct ExecutorSupplierVotingStrategy.Milestone[]","name":"","type":"tuple[]"}],"stateMutability":"view","type":"function"},{"inputs":[{"internalType":"address","name":"_recipientId","type":"address"}],"name":"getOfferedMilestonesVotesAgainst","outputs":[{"internalType":"uint256","name":"","type":"uint256"}],"stateMutability":"view","type":"function"},{"inputs":[{"internalType":"address","name":"_recipientId","type":"address"}],"name":"getOfferedMilestonesVotesFor","outputs":[{"internalType":"uint256","name":"","type":"uint256"}],"stateMutability":"view","type":"function"},{"inputs":[{"internalType":"address[]","name":"_recipientIds","type":"address[]"},{"internalType":"bytes[]","name":"_data","type":"bytes[]"}],"name":"getPayouts","outputs":[{"components":[{"internalType":"address","name":"recipientAddress","type":"address"},{"internalType":"uint256","name":"amount","type":"uint256"}],"internalType":"struct IStrategy.PayoutSummary[]","name":"","type":"tuple[]"}],"stateMutability":"view","type":"function"},{"inputs":[],"name":"getPoolAmount","outputs":[{"internalType":"uint256","name":"","type":"uint256"}],"stateMutability":"view","type":"function"},{"inputs":[],"name":"getPoolId","outputs":[{"internalType":"uint256","name":"","type":"uint256"}],"stateMutability":"view","type":"function"},{"inputs":[{"internalType":"address","name":"_recipientId","type":"address"}],"name":"getRecipient","outputs":[{"components":[{"internalType":"bool","name":"useRegistryAnchor","type":"bool"},{"internalType":"address","name":"recipientAddress","type":"address"},{"internalType":"uint256","name":"grantAmount","type":"uint256"},{"components":[{"internalType":"uint256","name":"protocol","type":"uint256"},{"internalType":"string","name":"pointer","type":"string"}],"internalType":"struct Metadata","name":"metadata","type":"tuple"},{"internalType":"enum IStrategy.Status","name":"recipientStatus","type":"uint8"},{"internalType":"enum IStrategy.Status","name":"milestonesReviewStatus","type":"uint8"}],"internalType":"struct ExecutorSupplierVotingStrategy.Recipient","name":"","type":"tuple"}],"stateMutability":"view","type":"function"},{"inputs":[{"internalType":"address","name":"_recipientId","type":"address"}],"name":"getRecipientStatus","outputs":[{"internalType":"enum IStrategy.Status","name":"","type":"uint8"}],"stateMutability":"view","type":"function"},{"inputs":[],"name":"getRejectProjectVotesAgainst","outputs":[{"internalType":"uint256","name":"","type":"uint256"}],"stateMutability":"view","type":"function"},{"inputs":[],"name":"getRejectProjectVotesFor","outputs":[{"internalType":"uint256","name":"","type":"uint256"}],"stateMutability":"view","type":"function"},{"inputs":[],"name":"getStrategyId","outputs":[{"internalType":"bytes32","name":"","type":"bytes32"}],"stateMutability":"view","type":"function"},{"inputs":[{"internalType":"uint256","name":"_milestoneId","type":"uint256"}],"name":"getSubmittedMilestonesVotesAgainst","outputs":[{"internalType":"uint256","name":"","type":"uint256"}],"stateMutability":"view","type":"function"},{"inputs":[{"internalType":"uint256","name":"_milestoneId","type":"uint256"}],"name":"getSubmittedMilestonesVotesFor","outputs":[{"internalType":"uint256","name":"","type":"uint256"}],"stateMutability":"view","type":"function"},{"inputs":[{"internalType":"address","name":"_recipientId","type":"address"},{"internalType":"address","name":"_supplier","type":"address"}],"name":"getSupplierOfferedMilestonesVote","outputs":[{"internalType":"uint256","name":"","type":"uint256"}],"stateMutability":"view","type":"function"},{"inputs":[{"internalType":"uint256","name":"_milestoneId","type":"uint256"},{"internalType":"address","name":"_supplier","type":"address"}],"name":"getSupplierSubmittedMilestonesVote","outputs":[{"internalType":"uint256","name":"","type":"uint256"}],"stateMutability":"view","type":"function"},{"inputs":[{"internalType":"address","name":"_recipientId","type":"address"}],"name":"getUpcomingMilestone","outputs":[{"internalType":"uint256","name":"","type":"uint256"}],"stateMutability":"view","type":"function"},{"inputs":[],"name":"grantAmountRequired","outputs":[{"internalType":"bool","name":"","type":"bool"}],"stateMutability":"view","type":"function"},{"inputs":[{"internalType":"uint256","name":"_amount","type":"uint256"}],"name":"increasePoolAmount","outputs":[],"stateMutability":"nonpayable","type":"function"},{"inputs":[{"internalType":"uint256","name":"_poolId","type":"uint256"},{"internalType":"bytes","name":"_data","type":"bytes"}],"name":"initialize","outputs":[],"stateMutability":"nonpayable","type":"function"},{"inputs":[],"name":"isPoolActive","outputs":[{"internalType":"bool","name":"","type":"bool"}],"stateMutability":"view","type":"function"},{"inputs":[{"internalType":"address","name":"_allocator","type":"address"}],"name":"isValidAllocator","outputs":[{"internalType":"bool","name":"","type":"bool"}],"stateMutability":"view","type":"function"},{"inputs":[],"name":"metadataRequired","outputs":[{"internalType":"bool","name":"","type":"bool"}],"stateMutability":"view","type":"function"},{"inputs":[{"internalType":"address","name":"","type":"address"},{"internalType":"uint256","name":"","type":"uint256"}],"name":"milestones","outputs":[{"internalType":"uint256","name":"amountPercentage","type":"uint256"},{"components":[{"internalType":"uint256","name":"protocol","type":"uint256"},{"internalType":"string","name":"pointer","type":"string"}],"internalType":"struct Metadata","name":"metadata","type":"tuple"},{"internalType":"enum IStrategy.Status","name":"milestoneStatus","type":"uint8"},{"internalType":"string","name":"description","type":"string"}],"stateMutability":"view","type":"function"},{"inputs":[{"internalType":"address","name":"_recipientId","type":"address"},{"components":[{"internalType":"uint256","name":"amountPercentage","type":"uint256"},{"components":[{"internalType":"uint256","name":"protocol","type":"uint256"},{"internalType":"string","name":"pointer","type":"string"}],"internalType":"struct Metadata","name":"metadata","type":"tuple"},{"internalType":"enum IStrategy.Status","name":"milestoneStatus","type":"uint8"},{"internalType":"string","name":"description","type":"string"}],"internalType":"struct ExecutorSupplierVotingStrategy.Milestone[]","name":"_milestones","type":"tuple[]"}],"name":"offerMilestones","outputs":[],"stateMutability":"nonpayable","type":"function"},{"inputs":[{"internalType":"bytes","name":"_data","type":"bytes"},{"internalType":"address","name":"_sender","type":"address"}],"name":"registerRecipient","outputs":[{"internalType":"address","name":"recipientId","type":"address"}],"stateMutability":"payable","type":"function"},{"inputs":[],"name":"registryGating","outputs":[{"internalType":"bool","name":"","type":"bool"}],"stateMutability":"view","type":"function"},{"inputs":[{"internalType":"enum IStrategy.Status","name":"_status","type":"uint8"}],"name":"rejetProject","outputs":[],"stateMutability":"nonpayable","type":"function"},{"inputs":[{"internalType":"address","name":"_recipientId","type":"address"},{"internalType":"enum IStrategy.Status","name":"_status","type":"uint8"}],"name":"reviewOfferedtMilestones","outputs":[],"stateMutability":"nonpayable","type":"function"},{"inputs":[{"internalType":"address","name":"_recipientId","type":"address"},{"internalType":"uint256","name":"_milestoneId","type":"uint256"},{"internalType":"enum IStrategy.Status","name":"_status","type":"uint8"}],"name":"reviewSubmitedMilestone","outputs":[],"stateMutability":"nonpayable","type":"function"},{"inputs":[{"internalType":"uint256","name":"_newPercentage","type":"uint256"},{"internalType":"bytes32","name":"_profileId","type":"bytes32"}],"name":"setThresholdPercentage","outputs":[],"stateMutability":"nonpayable","type":"function"},{"inputs":[{"internalType":"address","name":"_recipientId","type":"address"},{"internalType":"uint256","name":"_milestoneId","type":"uint256"},{"components":[{"internalType":"uint256","name":"protocol","type":"uint256"},{"internalType":"string","name":"pointer","type":"string"}],"internalType":"struct Metadata","name":"_metadata","type":"tuple"}],"name":"submitMilestone","outputs":[],"stateMutability":"nonpayable","type":"function"},{"inputs":[{"internalType":"uint256","name":"","type":"uint256"}],"name":"submittedvMilestones","outputs":[{"internalType":"uint256","name":"votesFor","type":"uint256"},{"internalType":"uint256","name":"votesAgainst","type":"uint256"}],"stateMutability":"view","type":"function"},{"inputs":[],"name":"thresholdPercentage","outputs":[{"internalType":"uint256","name":"","type":"uint256"}],"stateMutability":"view","type":"function"},{"inputs":[],"name":"totalSupply","outputs":[{"internalType":"uint256","name":"","type":"uint256"}],"stateMutability":"view","type":"function"},{"inputs":[{"internalType":"address","name":"","type":"address"}],"name":"upcomingMilestone","outputs":[{"internalType":"uint256","name":"","type":"uint256"}],"stateMutability":"view","type":"function"},{"stateMutability":"payable","type":"receive"}],"evm":{"bytecode":{"linkReferences":{},"object":"60c06040523480156200001157600080fd5b506040516200511e3803806200511e8339810160408190526200003491620000bf565b6001600160a01b03821660805260405182908290620000589082906020016200019a565b60408051601f19818403018152919052805160209091012060a0525050600160035550620001cf9050565b634e487b7160e01b600052604160045260246000fd5b60005b83811015620000b65781810151838201526020016200009c565b50506000910152565b60008060408385031215620000d357600080fd5b82516001600160a01b0381168114620000eb57600080fd5b60208401519092506001600160401b03808211156200010957600080fd5b818501915085601f8301126200011e57600080fd5b81518181111562000133576200013362000083565b604051601f8201601f19908116603f011681019083821181831017156200015e576200015e62000083565b816040528281528860208487010111156200017857600080fd5b6200018b83602083016020880162000099565b80955050505050509250929050565b6020815260008251806020840152620001bb81604085016020870162000099565b601f01601f19169190910160400192915050565b60805160a051614eea620002346000396000610456015260008181610292015281816116650152818161232e0152818161277601528181612b4a01528181612df001528181612f5e01528181613231015281816133f3015261382d0152614eea6000f3fe6080604052600436106102555760003560e01c80639ffaa87511610139578063cb2415fb116100b6578063eb11af931161007a578063eb11af93146107cb578063edd146cc146107f8578063ee12030014610818578063ef2920fc14610848578063f5b0dfb71461085b578063f83067e71461087b57600080fd5b8063cb2415fb146106fe578063df868ed314610737578063e2372b581461074f578063e477b6bd1461077c578063e8eeb806146107b557600080fd5b8063b3eae7ab116100fd578063b3eae7ab14610642578063c1aaf44a14610662578063c7a892bf1461068f578063c9701fd4146106bf578063cb0e85a6146106df57600080fd5b80639ffaa8751461059e578063a0cf0aea146105be578063a647d23e146105e6578063a965521014610600578063b2b878d01461061557600080fd5b80633bf3577d116101d25780634ed2859e116101965780634ed2859e146104bf5780635b10b597146104d5578063605e1c66146104ea57806362812a391461053157806378f0184d1461055e5780639be2ccf51461057e57600080fd5b80633bf3577d146103de578063404e73e2146103fe57806342fda9c7146104475780634ab4ba421461047a5780634d31d0871461048f57600080fd5b80632a835b4b116102195780632a835b4b146103405780632bbe0cae146103605780632ff0e6c41461037357806336592c0e146103a957806338fff2d0146103c957600080fd5b80630a6f0ee91461026157806315cc481e1461028357806318160ddd146102cf578063197ea814146102f357806322a4e42d1461031357600080fd5b3661025c57005b600080fd5b34801561026d57600080fd5b5061028161027c366004613e03565b61089b565b005b34801561028f57600080fd5b507f00000000000000000000000000000000000000000000000000000000000000005b6040516001600160a01b0390911681526020015b60405180910390f35b3480156102db57600080fd5b506102e560055481565b6040519081526020016102c6565b3480156102ff57600080fd5b506102e561030e366004613e7a565b6108bb565b34801561031f57600080fd5b5061033361032e366004613eb3565b6108ec565b6040516102c69190613f7e565b34801561034c57600080fd5b5061028161035b366004614023565b610ae0565b6102b261036e366004614045565b610bdf565b34801561037f57600080fd5b506102e561038e366004613eb3565b6001600160a01b031660009081526012602052604090205490565b3480156103b557600080fd5b506103336103c4366004613eb3565b610c02565b3480156103d557600080fd5b506001546102e5565b3480156103ea57600080fd5b506102816103f936600461408b565b610deb565b34801561040a57600080fd5b506104326104193660046140df565b6013602052600090815260409020805460019091015482565b604080519283526020830191909152016102c6565b34801561045357600080fd5b507f00000000000000000000000000000000000000000000000000000000000000006102e5565b34801561048657600080fd5b506002546102e5565b34801561049b57600080fd5b506104af6104aa366004613eb3565b6110ac565b60405190151581526020016102c6565b3480156104cb57600080fd5b506102e560065481565b3480156104e157600080fd5b50600e546102e5565b3480156104f657600080fd5b506102e56105053660046140f8565b60008281526013602090815260408083206001600160a01b038516845260020190915290205492915050565b34801561053d57600080fd5b5061055161054c366004613eb3565b6110b7565b6040516102c6919061411d565b34801561056a57600080fd5b506102816105793660046141ad565b6110c8565b34801561058a57600080fd5b506004546104af9062010000900460ff1681565b3480156105aa57600080fd5b506102816105b9366004614338565b6112c4565b3480156105ca57600080fd5b506102b273eeeeeeeeeeeeeeeeeeeeeeeeeeeeeeeeeeeeeeee81565b3480156105f257600080fd5b506004546104af9060ff1681565b34801561060c57600080fd5b50600f546102e5565b34801561062157600080fd5b5061063561063036600461436f565b61189a565b6040516102c69190614443565b34801561064e57600080fd5b5061028161065d36600461449b565b611998565b34801561066e57600080fd5b506102e561067d3660046140df565b60009081526013602052604090205490565b34801561069b57600080fd5b506106af6106aa3660046144c9565b611e95565b6040516102c694939291906144f5565b3480156106cb57600080fd5b506102816106da366004614538565b612017565b3480156106eb57600080fd5b506004546104af90610100900460ff1681565b34801561070a57600080fd5b506102e5610719366004613eb3565b6001600160a01b03166000908152600d602052604090206002015490565b34801561074357600080fd5b5060005460ff166104af565b34801561075b57600080fd5b506102e561076a366004613eb3565b60126020526000908152604090205481565b34801561078857600080fd5b506102e5610797366004613eb3565b6001600160a01b03166000908152600d602052604090206001015490565b3480156107c157600080fd5b506102e560085481565b3480156107d757600080fd5b506107eb6107e6366004613eb3565b612228565b6040516102c69190614555565b34801561080457600080fd5b50610281610813366004614563565b612233565b34801561082457600080fd5b506102e56108333660046140df565b60009081526013602052604090206001015490565b610281610856366004614045565b612293565b34801561086757600080fd5b506102816108763660046140df565b6122b1565b34801561088757600080fd5b506107eb6108963660046144c9565b6122db565b6108a3612323565b6108ab61236e565b6108b6838383612391565b505050565b6001600160a01b038083166000908152600d6020908152604080832093851683526003909301905220545b92915050565b6001600160a01b0381166000908152601160209081526040808320805482518185028101850190935280835260609492939192909184015b82821015610ad5578382906000526020600020906005020160405180608001604052908160008201548152602001600182016040518060400160405290816000820154815260200160018201805461097b906145a9565b80601f01602080910402602001604051908101604052809291908181526020018280546109a7906145a9565b80156109f45780601f106109c9576101008083540402835291602001916109f4565b820191906000526020600020905b8154815290600101906020018083116109d757829003601f168201915b505050919092525050508152600382015460209091019060ff166006811115610a1f57610a1f613f46565b6006811115610a3057610a30613f46565b8152602001600482018054610a44906145a9565b80601f0160208091040260200160405190810160405280929190818152602001828054610a70906145a9565b8015610abd5780601f10610a9257610100808354040283529160200191610abd565b820191906000526020600020905b815481529060010190602001808311610aa057829003601f168201915b50505050508152505081526020019060010190610924565b505050509050919050565b600754604051630e6e1ae360e21b8152600481018390523360248201526001600160a01b03909116906339b86b8c90604401602060405180830381865afa158015610b2f573d6000803e3d6000fd5b505050506040513d601f19601f82011682018060405250810190610b5391906145f3565b610b935760405162461bcd60e51b815260206004820152600c60248201526b15539055551213d49256915160a21b60448201526064015b60405180910390fd5b6064821115610bd95760405162461bcd60e51b8152602060048201526012602482015271496e76616c69642070657263656e7461676560701b6044820152606401610b8a565b50600655565b6000610be9612323565b610bf161236e565b610bfb8383612428565b90506108e6565b6001600160a01b0381166000908152600d60209081526040808320805482518185028101850190935280835260609492939192909184015b82821015610ad55783829060005260206000209060050201604051806080016040529081600082015481526020016001820160405180604001604052908160008201548152602001600182018054610c91906145a9565b80601f0160208091040260200160405190810160405280929190818152602001828054610cbd906145a9565b8015610d0a5780601f10610cdf57610100808354040283529160200191610d0a565b820191906000526020600020905b815481529060010190602001808311610ced57829003601f168201915b505050919092525050508152600382015460209091019060ff166006811115610d3557610d35613f46565b6006811115610d4657610d46613f46565b8152602001600482018054610d5a906145a9565b80601f0160208091040260200160405190810160405280929190818152602001828054610d86906145a9565b8015610dd35780601f10610da857610100808354040283529160200191610dd3565b820191906000526020600020905b815481529060010190602001808311610db657829003601f168201915b50505050508152505081526020019060010190610c3a565b6001600160a01b0383163314610e145760405163075fd2b160e01b815260040160405180910390fd5b6001600160a01b038084166000908152600b60209081526040808320815160c081018352815460ff8116151582526101009004909516858401526001810154858301528151808301909252600281018054835260038201805495969592946060870194939084019190610e86906145a9565b80601f0160208091040260200160405190810160405280929190818152602001828054610eb2906145a9565b8015610eff5780601f10610ed457610100808354040283529160200191610eff565b820191906000526020600020905b815481529060010190602001808311610ee257829003601f168201915b505050919092525050508152600482015460209091019060ff166006811115610f2a57610f2a613f46565b6006811115610f3b57610f3b613f46565b81526020016004820160019054906101000a900460ff166006811115610f6357610f63613f46565b6006811115610f7457610f74613f46565b9052509050600281608001516006811115610f9157610f91613f46565b14610faf5760405163392c16fb60e21b815260040160405180910390fd5b6001600160a01b03841660009081526011602052604090208054841115610fe957604051632f1f68e160e11b815260040160405180910390fd5b6000818581548110610ffd57610ffd61460e565b6000918252602090912060059091020190506002600382015460ff16600681111561102a5761102a613f46565b0361104857604051637f46ed2760e11b815260040160405180910390fd5b83600182016110578282614672565b505060038101805460ff191660011790556040517f8673cfb5a2cbad812463bdfd7c85511f29c804579a86d318889ab925155399619061109c9088908890889061476a565b60405180910390a1505050505050565b60006108e682612759565b6110bf613b20565b6108e6826127fe565b6000336001600160a01b03841614806110e657506110e6833361296e565b9050806111065760405163075fd2b160e01b815260040160405180910390fd5b6001600160a01b0383166000908152600b602052604090206002600482015460ff16600681111561113957611139613f46565b146111575760405163392c16fb60e21b815260040160405180910390fd5b60026004820154610100900460ff16600681111561117757611177613f46565b03611195576040516305ca31d360e51b815260040160405180910390fd5b61119e84612a66565b60005b8351811015611278576001600160a01b0385166000908152600d6020526040902084518590839081106111d6576111d661460e565b602090810291909101810151825460018181018555600094855293839020825160059092020190815581830151805194820194855592830151919390929160028401906112239082614803565b505050604082015160038201805460ff1916600183600681111561124957611249613f46565b0217905550606082015160048201906112629082614803565b5050508080611270906148d8565b9150506111a1565b508251604080516001600160a01b038716815260208101929092527f8a5603111f154f43104afe04452c6a93024a972cb6a0af72e6f38bcce68625d5910160405180910390a150505050565b336112ce81612b20565b6000838152601360209081526040808320338452600201909152902054156113095760405163448bae6f60e01b815260040160405180910390fd5b6001600160a01b038085166000908152600b60209081526040808320815160c081018352815460ff811615158252610100900490951685840152600181015485830152815180830190925260028101805483526003820180549596959294606087019493908401919061137b906145a9565b80601f01602080910402602001604051908101604052809291908181526020018280546113a7906145a9565b80156113f45780601f106113c9576101008083540402835291602001916113f4565b820191906000526020600020905b8154815290600101906020018083116113d757829003601f168201915b505050919092525050508152600482015460209091019060ff16600681111561141f5761141f613f46565b600681111561143057611430613f46565b81526020016004820160019054906101000a900460ff16600681111561145857611458613f46565b600681111561146957611469613f46565b905250905060028160800151600681111561148657611486613f46565b146114a45760405163392c16fb60e21b815260040160405180910390fd5b6001600160a01b038516600090815260116020526040902080548511156114de57604051632f1f68e160e11b815260040160405180910390fd5b60008186815481106114f2576114f261460e565b6000918252602090912060059091020190506001600382015460ff16600681111561151f5761151f613f46565b1461153d57604051635b2fe71d60e11b815260040160405180910390fd5b336000908152600c6020526040812054600654600554919291606491611562916148f1565b61156c9190614908565b600089815260136020908152604080832033845260029081019092529091208490559091508760068111156115a3576115a3613f46565b0361171057600088815260136020526040812080548492906115c690849061492a565b909155505060008881526013602052604090205481101561170b5760038301805488919060ff1916600183600681111561160257611602613f46565b021790555060408051600180825281830190925260009160208083019080368337019050509050898160008151811061163d5761163d61460e565b6001600160a01b039283166020918202929092010152600154604051631d2fdec960e11b81527f000000000000000000000000000000000000000000000000000000000000000090921691633a5fbd929161169c91859060040161493d565b600060405180830381600087803b1580156116b657600080fd5b505af11580156116ca573d6000803e3d6000fd5b505050507ff1af82b65c631a030029b10ea8f00f68290285c7c797644155b8f23969ca1d638a8a8a604051611701939291906149a4565b60405180910390a1505b611854565b600387600681111561172457611724613f46565b03611854576000888152601360205260408120600101805484929061174a90849061492a565b90915550506000888152601360205260409020600101548110156118545760038301805488919060ff1916600183600681111561178957611789613f46565b021790555060005b600a548110156117ff576000601360008b81526020019081526020016000206002016000600a84815481106117c8576117c861460e565b60009182526020808320909101546001600160a01b03168352820192909252604001902055806117f7816148d8565b915050611791565b5060008881526013602052604080822082815560010191909155517ff1af82b65c631a030029b10ea8f00f68290285c7c797644155b8f23969ca1d639061184b908b908b908b906149a4565b60405180910390a15b7f4460beb477b3843656610a89bd67c551d2a78131b5a955ddccd5eb9aa218c8c3898989604051611887939291906149a4565b60405180910390a1505050505050505050565b815181516060919081146118c157604051633da4c02b60e11b815260040160405180910390fd5b6000816001600160401b038111156118db576118db613c2d565b60405190808252806020026020018201604052801561192057816020015b60408051808201909152600080825260208201528152602001906001900390816118f95790505b50905060005b8281101561198f5761196a8682815181106119435761194361460e565b602002602001015186838151811061195d5761195d61460e565b6020026020010151612bd2565b82828151811061197c5761197c61460e565b6020908102919091010152600101611926565b50949350505050565b336119a281612b20565b6001600160a01b0383166000908152600d60209081526040808320338452600301909152902054156119e75760405163448bae6f60e01b815260040160405180910390fd5b6001600160a01b0383166000908152600b6020526040902060026004820154610100900460ff166006811115611a1f57611a1f613f46565b03611a3d576040516305ca31d360e51b815260040160405180910390fd5b336000908152600c6020526040812054600654600554919291606491611a62916148f1565b611a6c9190614908565b6001600160a01b0387166000908152600d60209081526040808320338452600301909152902083905590506002856006811115611aab57611aab613f46565b03611d73576001600160a01b0386166000908152600d602052604081206001018054849290611adb90849061492a565b90915550506001600160a01b0386166000908152600d6020526040902060010154811015611d6e576001600160a01b0386166000908152600b60205260409020600401805486919061ff001916610100836006811115611b3d57611b3d613f46565b02179055506001600160a01b0386166000908152600d602090815260408083208054825181850281018501909352808352611d31948b9484015b82821015611d285783829060005260206000209060050201604051806080016040529081600082015481526020016001820160405180604001604052908160008201548152602001600182018054611bce906145a9565b80601f0160208091040260200160405190810160405280929190818152602001828054611bfa906145a9565b8015611c475780601f10611c1c57610100808354040283529160200191611c47565b820191906000526020600020905b815481529060010190602001808311611c2a57829003601f168201915b505050919092525050508152600382015460209091019060ff166006811115611c7257611c72613f46565b6006811115611c8357611c83613f46565b8152602001600482018054611c97906145a9565b80601f0160208091040260200160405190810160405280929190818152602001828054611cc3906145a9565b8015611d105780601f10611ce557610100808354040283529160200191611d10565b820191906000526020600020905b815481529060010190602001808311611cf357829003601f168201915b50505050508152505081526020019060010190611b77565b50505050612c1d565b6040516001600160a01b03871681527f7b05d1f85b1ac2e76c0d8dbb0dfa809df6788f66bbeeb837b2b5fae4f64c00639060200160405180910390a15b611e64565b6003856006811115611d8757611d87613f46565b03611e64576001600160a01b0386166000908152600d602052604081206002018054849290611db790849061492a565b90915550506001600160a01b0386166000908152600d6020526040902060020154811015611e64576001600160a01b0386166000908152600b60205260409020600401805486919061ff001916610100836006811115611e1957611e19613f46565b0217905550611e2786612a66565b6040516001600160a01b03871681527f5a90817477dd8f83cfe5d429e1dc84ad5a25cb72b83291c707c6f8f5c4f2ac849060200160405180910390a15b7f30dae55c386c6176f3f7b7ee6ad4df33970f2e442cb0142e978cf78fd8ae138d868660405161109c9291906149c8565b60116020528160005260406000208181548110611eb157600080fd5b9060005260206000209060050201600091509150508060000154908060010160405180604001604052908160008201548152602001600182018054611ef5906145a9565b80601f0160208091040260200160405190810160405280929190818152602001828054611f21906145a9565b8015611f6e5780601f10611f4357610100808354040283529160200191611f6e565b820191906000526020600020905b815481529060010190602001808311611f5157829003601f168201915b505050919092525050506003820154600483018054929360ff90921692611f94906145a9565b80601f0160208091040260200160405190810160405280929190818152602001828054611fc0906145a9565b801561200d5780601f10611fe25761010080835404028352916020019161200d565b820191906000526020600020905b815481529060010190602001808311611ff057829003601f168201915b5050505050905084565b3361202181612b20565b600282600681111561203557612035613f46565b141580156120555750600382600681111561205257612052613f46565b14155b156120735760405163343b80b160e01b815260040160405180910390fd5b33600090815260106020526040902054156120a15760405163448bae6f60e01b815260040160405180910390fd5b336000908152600c60205260408120546006546005549192916064916120c6916148f1565b6120d09190614908565b905060028460068111156120e6576120e6613f46565b036121505781600e6000016000828254612100919061492a565b9091555050600e5481101561214b576121196000612ea1565b612121612ee8565b6040517fd32d40de3c1ce9d2fa081d8cd5a6b778eaea7095966658ace12863ce23d09a6090600090a15b612222565b600384600681111561216457612164613f46565b036122225781600e600101600082825461217e919061492a565b9091555050600f548110156122225760005b600a548110156121ed576000600e6002016000600a84815481106121b6576121b661460e565b60009182526020808320909101546001600160a01b03168352820192909252604001902055806121e5816148d8565b915050612190565b506000600e819055600f8190556040517f7a5d554e29a9295668ae87eb63589a5dd4d751e9c16b4a8173c28b9f0bc4a1d09190a15b50505050565b60006108e6826130b6565b60008180602001905181019061224991906149f0565b905061225583826130cb565b7f91efa3d50feccde0d0d202f8ae5c41ca0b2be614cebcb2bd2f4b019396e6568a8383604051612286929190614b12565b60405180910390a1505050565b61229b612323565b6122a361236e565b6122ad82826132db565b5050565b6122b9612323565b80600260008282546122cb919061492a565b909155506122d890508181565b50565b6001600160a01b03821660009081526011602052604081208054839081106123055761230561460e565b600091825260209091206005909102016003015460ff169392505050565b336001600160a01b037f0000000000000000000000000000000000000000000000000000000000000000161461236c5760405163075fd2b160e01b815260040160405180910390fd5b565b60015460000361236c57604051630f68fe6360e21b815260040160405180910390fd5b6001600160a01b03811630146123e95760405162461bcd60e51b815260206004820152601760248201527f554e415554484f52495a454420646973747269627574650000000000000000006044820152606401610b8a565b825160005b818110156124215761241985828151811061240b5761240b61460e565b602002602001015184613605565b6001016123ee565b5050505050565b6000612432613975565b600080600080612455604051806040016040528060008152602001606081525090565b60045460ff16156124aa57878060200190518101906124749190614bc1565b92985090965092509050612488868861296e565b6124a55760405163075fd2b160e01b815260040160405180910390fd5b612517565b878060200190518101906124be9190614bc1565b9297509095506001600160a01b0386161515945092509050826124e157846124e3565b835b95508280156124f957506124f7868861296e565b155b156125175760405163075fd2b160e01b815260040160405180910390fd5b60045462010000900460ff16801561252d575081155b1561254b576040516303b167dd60e01b815260040160405180910390fd5b60026001600160a01b0387166000908152600b602052604090206004015460ff16600681111561257d5761257d613f46565b0361259b5760405163083a81f760e31b815260040160405180910390fd5b600454610100900460ff1680156125be575060208101515115806125be57508051155b156125dc5760405163c19e07c560e01b815260040160405180910390fd5b6040805160c0810190915260045460009190819060ff166125fd5785612600565b60015b151581526001600160a01b0388166020820152604081018590526060810184905260800160028152602001600190526001600160a01b038881166000908152600b602090815260409182902084518154868401516001600160a81b0319909116911515610100600160a81b031916919091176101009190951602939093178355908301516001830155606083015180516002840190815591810151939450849390919060038401906126b29082614803565b505050608082015160048201805460ff191660018360068111156126d8576126d8613f46565b021790555060a082015160048201805461ff00191661010083600681111561270257612702613f46565b0217905550905050866001600160a01b03167fa197306e3dd5494a61a695381aa809a53b8e377a685e84e404a85d5a8da6cc628a8a604051612745929190614c2e565b60405180910390a250505050505092915050565b6001546040516329e40d4b60e01b81526000916001600160a01b037f000000000000000000000000000000000000000000000000000000000000000016916329e40d4b916127bd9186906004019182526001600160a01b0316602082015260400190565b602060405180830381865afa1580156127da573d6000803e3d6000fd5b505050506040513d601f19601f820116820180604052508101906108e691906145f3565b612806613b20565b6001600160a01b038083166000908152600b6020908152604091829020825160c081018452815460ff811615158252610100900490941684830152600181015484840152825180840190935260028101805484526003820180549294606087019490939084019190612877906145a9565b80601f01602080910402602001604051908101604052809291908181526020018280546128a3906145a9565b80156128f05780601f106128c5576101008083540402835291602001916128f0565b820191906000526020600020905b8154815290600101906020018083116128d357829003601f168201915b505050919092525050508152600482015460209091019060ff16600681111561291b5761291b613f46565b600681111561292c5761292c613f46565b81526020016004820160019054906101000a900460ff16600681111561295457612954613f46565b600681111561296557612965613f46565b90525092915050565b60075460405163dd93da4360e01b81526001600160a01b038481166004830152600092839291169063dd93da4390602401600060405180830381865afa1580156129bc573d6000803e3d6000fd5b505050506040513d6000823e601f3d908101601f191682016040526129e49190810190614c58565b6007548151604051635e8a791560e01b815260048101919091526001600160a01b038681166024830152929350911690635e8a791590604401602060405180830381865afa158015612a3a573d6000803e3d6000fd5b505050506040513d601f19601f82011682018060405250810190612a5e91906145f3565b949350505050565b60005b600a54811015612ae9576000600d6000846001600160a01b03166001600160a01b031681526020019081526020016000206003016000600a8481548110612ab257612ab261460e565b60009182526020808320909101546001600160a01b0316835282019290925260400190205580612ae1816148d8565b915050612a69565b506001600160a01b0381166000908152600d6020526040812090612b0d8282613b7b565b5060006001820181905560029091015550565b6001546040516329e40d4b60e01b815260048101919091526001600160a01b0382811660248301527f000000000000000000000000000000000000000000000000000000000000000016906329e40d4b90604401602060405180830381865afa158015612b91573d6000803e3d6000fd5b505050506040513d601f19601f82011682018060405250810190612bb591906145f3565b6122d85760405163075fd2b160e01b815260040160405180910390fd5b60408051808201909152600080825260208201526000612bf1846127fe565b6040805180820182526020808401516001600160a01b0316825291909201519082015291505092915050565b6001600160a01b03821660009081526011602052604081205415612c5c576001600160a01b0383166000908152601160205260408120612c5c91613b7b565b815160005b81811015612d82576000848281518110612c7d57612c7d61460e565b6020026020010151905060006006811115612c9a57612c9a613f46565b81604001516006811115612cb057612cb0613f46565b14612cce57604051635b2fe71d60e11b815260040160405180910390fd5b8051612cda908561492a565b6001600160a01b038716600090815260116020908152604082208054600181810183559184529282902085516005909402019283558482015180519184019182559182015193975084936002840190612d339082614803565b505050604082015160038201805460ff19166001836006811115612d5957612d59613f46565b021790555060608201516004820190612d729082614803565b505060019092019150612c619050565b5081670de0b6b3a764000014612dab576040516397a1f28d60e01b815260040160405180910390fd5b6000846002600554604051602001612dc593929190614d1e565b60408051601f19818403018152908290526001546305d8703160e31b83529092506001600160a01b037f00000000000000000000000000000000000000000000000000000000000000001691632ec3818891612e25918590600401614b12565b600060405180830381600087803b158015612e3f57600080fd5b505af1158015612e53573d6000803e3d6000fd5b5050604080516001600160a01b0389168152602081018690527fb000fb1507aac2465ccb4f6bd1b601c7053279005e9e9932c41946b35c84949b935001905060405180910390a15050505050565b6000805460ff19168215159081179091556040519081527fd94c9bc4d43c51d8dc345a016d8e3d994432fac68e72832e4cf3a616bd8efae09060200160405180910390a150565b60005b600a548110156122d8576000600c6000600a8481548110612f0e57612f0e61460e565b60009182526020808320909101546001600160a01b03168352820192909252604001812054600254909250670de0b6b3a764000090612f4e9084906148f1565b612f589190614908565b905060007f00000000000000000000000000000000000000000000000000000000000000006001600160a01b031663068bcd8d6001546040518263ffffffff1660e01b8152600401612fac91815260200190565b600060405180830381865afa158015612fc9573d6000803e3d6000fd5b505050506040513d6000823e601f3d908101601f19168201604052612ff19190810190614d49565b905061306a6040518060400160405280601081526020016f1e9e9e9e9e9e9f1029b2b73234b7339d60811b815250836040518060400160405280600481526020016316aa379d60e11b815250600a88815481106130505761305061460e565b6000918252602090912001546001600160a01b0316613998565b6130a08160400151600a86815481106130855761308561460e565b6000918252602090912001546001600160a01b0316846139e1565b50505080806130ae906148d8565b915050612eeb565b60006130c1826127fe565b6080015192915050565b6130d482613a1b565b805160048054602084015160408501511515620100000262ff0000199115156101000261ff00199515159590951661ffff199093169290921793909317929092169190911790556046600655606081015160005b815181101561322e57600a8282815181106131455761314561460e565b6020908102919091018101515182546001810184556000938452919092200180546001600160a01b0319166001600160a01b0390921691909117905581518290829081106131955761319561460e565b602002602001015160200151600c60008484815181106131b7576131b761460e565b6020026020010151600001516001600160a01b03166001600160a01b03168152602001908152602001600020819055508181815181106131f9576131f961460e565b60200260200101516020015160056000828254613216919061492a565b90915550819050613226816148d8565b915050613128565b507f00000000000000000000000000000000000000000000000000000000000000006001600160a01b0316635ab1bd536040518163ffffffff1660e01b8152600401602060405180830381865afa15801561328d573d6000803e3d6000fd5b505050506040513d601f19601f820116820180604052508101906132b19190614dfc565b600780546001600160a01b0319166001600160a01b03929092169190911790556108b66001612ea1565b6132e3613a6a565b6001600160a01b03811630146133335760405162461bcd60e51b8152602060048201526015602482015274554e415554484f52495a454420616c6c6f6361746560581b6044820152606401610b8a565b60008060008480602001905181019061334c9190614e19565b6001600160a01b0383166000908152600b6020908152604080832060129092529091205493965091945092509015613397576040516305ca31d360e51b815260040160405180910390fd5b6002600482015460ff1660068111156133b2576133b2613f46565b141580156133d1575060028360068111156133cf576133cf613f46565b145b1561356c5760015460405163068bcd8d60e01b81526000916001600160a01b037f0000000000000000000000000000000000000000000000000000000000000000169163068bcd8d9161342a9160040190815260200190565b600060405180830381865afa158015613447573d6000803e3d6000fd5b505050506040513d6000823e601f3d908101601f1916820160405261346f9190810190614d49565b90508260086000828254613483919061492a565b909155505060025460085411156134ad57604051638e81b16f60e01b815260040160405180910390fd5b6001820183905560048201805460ff191660029081179091556040517f94593b52aa436dd31a63e313045c2eb23d43eb2d6f5b4d7797b4432e7b277490916134f7918891906149c8565b60405180910390a1846001600160a01b03167f463ffc2cf8b1596445c417388ed30e53eb67cf6668cb2be7f0addf8a78c8441b836001015483604001518960405161355e939291909283526001600160a01b03918216602084015216604082015260600190565b60405180910390a2506135f7565b6003600482015460ff16600681111561358757613587613f46565b141580156135a6575060038360068111156135a4576135a4613f46565b145b156135f75760048101805460ff191660039081179091556040517f94593b52aa436dd31a63e313045c2eb23d43eb2d6f5b4d7797b4432e7b277490916135ee918791906149c8565b60405180910390a15b505050506122ad6001600355565b6001600160a01b0380831660009081526012602090815260408083205460118352818420600b8452828520835160c081018552815460ff81161515825261010090049097168786015260018101548785015283518085019094526002810180548552600382018054949893979693959294606087019484019190613688906145a9565b80601f01602080910402602001604051908101604052809291908181526020018280546136b4906145a9565b80156137015780601f106136d657610100808354040283529160200191613701565b820191906000526020600020905b8154815290600101906020018083116136e457829003601f168201915b505050919092525050508152600482015460209091019060ff16600681111561372c5761372c613f46565b600681111561373d5761373d613f46565b81526020016004820160019054906101000a900460ff16600681111561376557613765613f46565b600681111561377657613776613f46565b81525050905060008284815481106137905761379061460e565b9060005260206000209060050201905082805490508411156137c557604051632f1f68e160e11b815260040160405180910390fd5b6002600382015460ff1660068111156137e0576137e0613f46565b146137fe57604051635b2fe71d60e11b815260040160405180910390fd5b6000670de0b6b3a76400008260000154846040015161381d91906148f1565b6138279190614908565b905060007f00000000000000000000000000000000000000000000000000000000000000006001600160a01b031663068bcd8d6001546040518263ffffffff1660e01b815260040161387b91815260200190565b600060405180830381865afa158015613898573d6000803e3d6000fd5b505050506040513d6000823e601f3d908101601f191682016040526138c09190810190614d49565b905081600260008282546138d49190614e5c565b925050819055506138ee81604001518560200151846139e1565b6001600160a01b0388166000908152601260205260408120805491613912836148d8565b9091555050602080850151604080516001600160a01b039283168152928301859052898216908301528916907fb5b51454adfa840bd593658325a60a50b0216f12eb5d2937efe6cea935675b7d9060600160405180910390a25050505050505050565b60005460ff1661236c5760405163cfe7975b60e01b815260040160405180910390fd5b612222848484846040516024016139b29493929190614e6f565b60408051601f198184030181529190526020810180516001600160e01b0316631f118ca960e21b179052613a94565b73eeeeeeeeeeeeeeeeeeeeeeeeeeeeeeeeeeeeeeed196001600160a01b03841601613a10576108b68282613a9d565b6108b6838383613ab9565b613a23612323565b60015415613a445760405163439a74c960e01b815260040160405180910390fd5b80600003613a6557604051637fcce2a960e01b815260040160405180910390fd5b600155565b600260035403613a8d57604051633ee5aeb560e01b815260040160405180910390fd5b6002600355565b6122d881613aff565b60003860003884865af16122ad5763b12d13eb6000526004601cfd5b816014528060345263a9059cbb60601b60005260206000604460106000875af13d156001600051141716613af5576390b8ec186000526004601cfd5b6000603452505050565b60006a636f6e736f6c652e6c6f679050600080835160208501845afa505050565b6040518060c0016040528060001515815260200160006001600160a01b0316815260200160008152602001613b68604051806040016040528060008152602001606081525090565b8152602001600081526020016000905290565b50805460008255600502906000526020600020908101906122d891905b80821115613bdf5760008082556001820181815581613bba6002850182613be3565b505060038201805460ff19169055613bd6600483016000613be3565b50600501613b98565b5090565b508054613bef906145a9565b6000825580601f10613bff575050565b601f0160209004906000526020600020908101906122d891905b80821115613bdf5760008155600101613c19565b634e487b7160e01b600052604160045260246000fd5b604051608081016001600160401b0381118282101715613c6557613c65613c2d565b60405290565b604080519081016001600160401b0381118282101715613c6557613c65613c2d565b60405160c081016001600160401b0381118282101715613c6557613c65613c2d565b604051601f8201601f191681016001600160401b0381118282101715613cd757613cd7613c2d565b604052919050565b60006001600160401b03821115613cf857613cf8613c2d565b5060051b60200190565b6001600160a01b03811681146122d857600080fd5b600082601f830112613d2857600080fd5b81356020613d3d613d3883613cdf565b613caf565b82815260059290921b84018101918181019086841115613d5c57600080fd5b8286015b84811015613d80578035613d7381613d02565b8352918301918301613d60565b509695505050505050565b60006001600160401b03821115613da457613da4613c2d565b50601f01601f191660200190565b600082601f830112613dc357600080fd5b8135613dd1613d3882613d8b565b818152846020838601011115613de657600080fd5b816020850160208301376000918101602001919091529392505050565b600080600060608486031215613e1857600080fd5b83356001600160401b0380821115613e2f57600080fd5b613e3b87838801613d17565b94506020860135915080821115613e5157600080fd5b50613e5e86828701613db2565b9250506040840135613e6f81613d02565b809150509250925092565b60008060408385031215613e8d57600080fd5b8235613e9881613d02565b91506020830135613ea881613d02565b809150509250929050565b600060208284031215613ec557600080fd5b8135613ed081613d02565b9392505050565b60005b83811015613ef2578181015183820152602001613eda565b50506000910152565b60008151808452613f13816020860160208601613ed7565b601f01601f19169290920160200192915050565b805182526000602082015160406020850152612a5e6040850182613efb565b634e487b7160e01b600052602160045260246000fd5b60078110613f7a57634e487b7160e01b600052602160045260246000fd5b9052565b60006020808301818452808551808352604092508286019150828160051b87010184880160005b8381101561401557603f19898403018552815160808151855288820151818a870152613fd382870182613f27565b91505087820151613fe689870182613f5c565b50606080830151925085820381870152506140018183613efb565b968901969450505090860190600101613fa5565b509098975050505050505050565b6000806040838503121561403657600080fd5b50508035926020909101359150565b6000806040838503121561405857600080fd5b82356001600160401b0381111561406e57600080fd5b61407a85828601613db2565b9250506020830135613ea881613d02565b6000806000606084860312156140a057600080fd5b83356140ab81613d02565b92506020840135915060408401356001600160401b038111156140cd57600080fd5b840160408187031215613e6f57600080fd5b6000602082840312156140f157600080fd5b5035919050565b6000806040838503121561410b57600080fd5b823591506020830135613ea881613d02565b6020815281511515602082015260018060a01b036020830151166040820152604082015160608201526000606083015160c0608084015261416160e0840182613f27565b9050608084015161417560a0850182613f5c565b5060a084015161418860c0850182613f5c565b509392505050565b600781106122d857600080fd5b80356141a881614190565b919050565b600080604083850312156141c057600080fd5b6141ca8335613d02565b823591506001600160401b0380602085013511156141e757600080fd5b6020840135840185601f8201126141fd57600080fd5b61420a613d388235613cdf565b81358082526020808301929160051b84010188101561422857600080fd5b602083015b6020843560051b85010181101561432957848135111561424c57600080fd5b80358401601f196080828c038201121561426557600080fd5b61426d613c43565b60208301358152876040840135111561428557600080fd5b60408301358301604083828f0301121561429e57600080fd5b6142a6613c6b565b92506020810135835288604082013511156142c057600080fd5b6142d38d60206040840135840101613db2565b6020840152508160208201526142eb6060840161419d565b6040820152876080840135111561430157600080fd5b6143148c60206080860135860101613db2565b6060820152855250506020928301920161422d565b50809450505050509250929050565b60008060006060848603121561434d57600080fd5b833561435881613d02565b9250602084013591506040840135613e6f81614190565b6000806040838503121561438257600080fd5b82356001600160401b038082111561439957600080fd5b6143a586838701613d17565b93506020915081850135818111156143bc57600080fd5b8501601f810187136143cd57600080fd5b80356143db613d3882613cdf565b81815260059190911b820184019084810190898311156143fa57600080fd5b8584015b83811015614432578035868111156144165760008081fd5b6144248c8983890101613db2565b8452509186019186016143fe565b508096505050505050509250929050565b602080825282518282018190526000919060409081850190868401855b8281101561448e57815180516001600160a01b03168552860151868501529284019290850190600101614460565b5091979650505050505050565b600080604083850312156144ae57600080fd5b82356144b981613d02565b91506020830135613ea881614190565b600080604083850312156144dc57600080fd5b82356144e781613d02565b946020939093013593505050565b84815260806020820152600061450e6080830186613f27565b61451b6040840186613f5c565b828103606084015261452d8185613efb565b979650505050505050565b60006020828403121561454a57600080fd5b8135613ed081614190565b602081016108e68284613f5c565b6000806040838503121561457657600080fd5b8235915060208301356001600160401b0381111561459357600080fd5b61459f85828601613db2565b9150509250929050565b600181811c908216806145bd57607f821691505b6020821081036145dd57634e487b7160e01b600052602260045260246000fd5b50919050565b805180151581146141a857600080fd5b60006020828403121561460557600080fd5b613ed0826145e3565b634e487b7160e01b600052603260045260246000fd5b601f8211156108b657600081815260208120601f850160051c8101602086101561464b5750805b601f850160051c820191505b8181101561466a57828155600101614657565b505050505050565b813581556001808201602080850135601e1986360301811261469357600080fd5b850180356001600160401b038111156146ab57600080fd5b80360383830113156146bc57600080fd5b6146d0816146ca86546145a9565b86614624565b6000601f82116001811461470657600083156146ee57508382018501355b600019600385901b1c1916600184901b17865561475f565b600086815260209020601f19841690835b8281101561473657868501880135825593870193908901908701614717565b50848210156147555760001960f88660031b161c198785880101351681555b50508683881b0186555b505050505050505050565b60018060a01b0384168152826020820152606060408201528135606082015260006020830135601e198436030181126147a257600080fd5b83016020810190356001600160401b038111156147be57600080fd5b8036038213156147cd57600080fd5b604060808501528060a0850152808260c0860137600060c0828601015260c0601f19601f83011685010192505050949350505050565b81516001600160401b0381111561481c5761481c613c2d565b6148308161482a84546145a9565b84614624565b602080601f831160018114614865576000841561484d5750858301515b600019600386901b1c1916600185901b17855561466a565b600085815260208120601f198616915b8281101561489457888601518255948401946001909101908401614875565b50858210156148b25787850151600019600388901b60f8161c191681555b5050505050600190811b01905550565b634e487b7160e01b600052601160045260246000fd5b6000600182016148ea576148ea6148c2565b5060010190565b80820281158282048414176108e6576108e66148c2565b60008261492557634e487b7160e01b600052601260045260246000fd5b500490565b808201808211156108e6576108e66148c2565b6000606082018483526020606081850152818551808452608086019150828701935060005b818110156149875784516001600160a01b031683529383019391830191600101614962565b505084810360408601526000815281810193505050509392505050565b6001600160a01b03841681526020810183905260608101612a5e6040830184613f5c565b6001600160a01b038316815260408101613ed06020830184613f5c565b80516141a881613d02565b60006020808385031215614a0357600080fd5b82516001600160401b0380821115614a1a57600080fd5b9084019060808287031215614a2e57600080fd5b614a36613c43565b614a3f836145e3565b8152614a4c8484016145e3565b848201526040614a5d8185016145e3565b81830152606084015183811115614a7357600080fd5b80850194505087601f850112614a8857600080fd5b83519250614a98613d3884613cdf565b83815260069390931b84018501928581019089851115614ab757600080fd5b948601945b84861015614b005782868b031215614ad45760008081fd5b614adc613c6b565b8651614ae781613d02565b8152868801518882015282529482019490860190614abc565b60608401525090979650505050505050565b828152604060208201526000612a5e6040830184613efb565b600082601f830112614b3c57600080fd5b8151614b4a613d3882613d8b565b818152846020838601011115614b5f57600080fd5b612a5e826020830160208701613ed7565b600060408284031215614b8257600080fd5b614b8a613c6b565b90508151815260208201516001600160401b03811115614ba957600080fd5b614bb584828501614b2b565b60208301525092915050565b60008060008060808587031215614bd757600080fd5b8451614be281613d02565b6020860151909450614bf381613d02565b6040860151606087015191945092506001600160401b03811115614c1657600080fd5b614c2287828801614b70565b91505092959194509250565b604081526000614c416040830185613efb565b905060018060a01b03831660208301529392505050565b600060208284031215614c6a57600080fd5b81516001600160401b0380821115614c8157600080fd5b9083019060c08286031215614c9557600080fd5b614c9d613c8d565b8251815260208301516020820152604083015182811115614cbd57600080fd5b614cc987828601614b2b565b604083015250606083015182811115614ce157600080fd5b614ced87828601614b70565b606083015250614cff608084016149e5565b6080820152614d1060a084016149e5565b60a082015295945050505050565b6001600160a01b038416815260608101614d3b6020830185613f5c565b826040830152949350505050565b600060208284031215614d5b57600080fd5b81516001600160401b0380821115614d7257600080fd5b9083019060c08286031215614d8657600080fd5b614d8e613c8d565b825181526020830151614da081613d02565b60208201526040830151614db381613d02565b6040820152606083015182811115614dca57600080fd5b614dd687828601614b70565b6060830152506080830151608082015260a083015160a082015280935050505092915050565b600060208284031215614e0e57600080fd5b8151613ed081613d02565b600080600060608486031215614e2e57600080fd5b8351614e3981613d02565b6020850151909350614e4a81614190565b80925050604084015190509250925092565b818103818111156108e6576108e66148c2565b608081526000614e826080830187613efb565b8560208401528281036040840152614e9a8186613efb565b91505060018060a01b03831660608301529594505050505056fea264697066735822122078f3c4ee6f2b2d5c1f5eb6fc0009fc682d4620c59e0a9186d724cb116611fe3764736f6c63430008140033","opcodes":"PUSH1 0xC0 PUSH1 0x40 MSTORE CALLVALUE DUP1 ISZERO PUSH3 0x11 JUMPI PUSH1 0x0 DUP1 REVERT JUMPDEST POP PUSH1 0x40 MLOAD PUSH3 0x511E CODESIZE SUB DUP1 PUSH3 0x511E DUP4 CODECOPY DUP2 ADD PUSH1 0x40 DUP2 SWAP1 MSTORE PUSH3 0x34 SWAP2 PUSH3 0xBF JUMP JUMPDEST PUSH1 0x1 PUSH1 0x1 PUSH1 0xA0 SHL SUB DUP3 AND PUSH1 0x80 MSTORE PUSH1 0x40 MLOAD DUP3 SWAP1 DUP3 SWAP1 PUSH3 0x58 SWAP1 DUP3 SWAP1 PUSH1 0x20 ADD PUSH3 0x19A JUMP JUMPDEST PUSH1 0x40 DUP1 MLOAD PUSH1 0x1F NOT DUP2 DUP5 SUB ADD DUP2 MSTORE SWAP2 SWAP1 MSTORE DUP1 MLOAD PUSH1 0x20 SWAP1 SWAP2 ADD KECCAK256 PUSH1 0xA0 MSTORE POP POP PUSH1 0x1 PUSH1 0x3 SSTORE POP PUSH3 0x1CF SWAP1 POP JUMP JUMPDEST PUSH4 0x4E487B71 PUSH1 0xE0 SHL PUSH1 0x0 MSTORE PUSH1 0x41 PUSH1 0x4 MSTORE PUSH1 0x24 PUSH1 0x0 REVERT JUMPDEST PUSH1 0x0 JUMPDEST DUP4 DUP2 LT ISZERO PUSH3 0xB6 JUMPI DUP2 DUP2 ADD MLOAD DUP4 DUP3 ADD MSTORE PUSH1 0x20 ADD PUSH3 0x9C JUMP JUMPDEST POP POP PUSH1 0x0 SWAP2 ADD MSTORE JUMP JUMPDEST PUSH1 0x0 DUP1 PUSH1 0x40 DUP4 DUP6 SUB SLT ISZERO PUSH3 0xD3 JUMPI PUSH1 0x0 DUP1 REVERT JUMPDEST DUP3 MLOAD PUSH1 0x1 PUSH1 0x1 PUSH1 0xA0 SHL SUB DUP2 AND DUP2 EQ PUSH3 0xEB JUMPI PUSH1 0x0 DUP1 REVERT JUMPDEST PUSH1 0x20 DUP5 ADD MLOAD SWAP1 SWAP3 POP PUSH1 0x1 PUSH1 0x1 PUSH1 0x40 SHL SUB DUP1 DUP3 GT ISZERO PUSH3 0x109 JUMPI PUSH1 0x0 DUP1 REVERT JUMPDEST DUP2 DUP6 ADD SWAP2 POP DUP6 PUSH1 0x1F DUP4 ADD SLT PUSH3 0x11E JUMPI PUSH1 0x0 DUP1 REVERT JUMPDEST DUP2 MLOAD DUP2 DUP2 GT ISZERO PUSH3 0x133 JUMPI PUSH3 0x133 PUSH3 0x83 JUMP JUMPDEST PUSH1 0x40 MLOAD PUSH1 0x1F DUP3 ADD PUSH1 0x1F NOT SWAP1 DUP2 AND PUSH1 0x3F ADD AND DUP2 ADD SWAP1 DUP4 DUP3 GT DUP2 DUP4 LT OR ISZERO PUSH3 0x15E JUMPI PUSH3 0x15E PUSH3 0x83 JUMP JUMPDEST DUP2 PUSH1 0x40 MSTORE DUP3 DUP2 MSTORE DUP9 PUSH1 0x20 DUP5 DUP8 ADD ADD GT ISZERO PUSH3 0x178 JUMPI PUSH1 0x0 DUP1 REVERT JUMPDEST PUSH3 0x18B DUP4 PUSH1 0x20 DUP4 ADD PUSH1 0x20 DUP9 ADD PUSH3 0x99 JUMP JUMPDEST DUP1 SWAP6 POP POP POP POP POP POP SWAP3 POP SWAP3 SWAP1 POP JUMP JUMPDEST PUSH1 0x20 DUP2 MSTORE PUSH1 0x0 DUP3 MLOAD DUP1 PUSH1 0x20 DUP5 ADD MSTORE PUSH3 0x1BB DUP2 PUSH1 0x40 DUP6 ADD PUSH1 0x20 DUP8 ADD PUSH3 0x99 JUMP JUMPDEST PUSH1 0x1F ADD PUSH1 0x1F NOT AND SWAP2 SWAP1 SWAP2 ADD PUSH1 0x40 ADD SWAP3 SWAP2 POP POP JUMP JUMPDEST PUSH1 0x80 MLOAD PUSH1 0xA0 MLOAD PUSH2 0x4EEA PUSH3 0x234 PUSH1 0x0 CODECOPY PUSH1 0x0 PUSH2 0x456 ADD MSTORE PUSH1 0x0 DUP2 DUP2 PUSH2 0x292 ADD MSTORE DUP2 DUP2 PUSH2 0x1665 ADD MSTORE DUP2 DUP2 PUSH2 0x232E ADD MSTORE DUP2 DUP2 PUSH2 0x2776 ADD MSTORE DUP2 DUP2 PUSH2 0x2B4A ADD MSTORE DUP2 DUP2 PUSH2 0x2DF0 ADD MSTORE DUP2 DUP2 PUSH2 0x2F5E ADD MSTORE DUP2 DUP2 PUSH2 0x3231 ADD MSTORE DUP2 DUP2 PUSH2 0x33F3 ADD MSTORE PUSH2 0x382D ADD MSTORE PUSH2 0x4EEA PUSH1 0x0 RETURN INVALID PUSH1 0x80 PUSH1 0x40 MSTORE PUSH1 0x4 CALLDATASIZE LT PUSH2 0x255 JUMPI PUSH1 0x0 CALLDATALOAD PUSH1 0xE0 SHR DUP1 PUSH4 0x9FFAA875 GT PUSH2 0x139 JUMPI DUP1 PUSH4 0xCB2415FB GT PUSH2 0xB6 JUMPI DUP1 PUSH4 0xEB11AF93 GT PUSH2 0x7A JUMPI DUP1 PUSH4 0xEB11AF93 EQ PUSH2 0x7CB JUMPI DUP1 PUSH4 0xEDD146CC EQ PUSH2 0x7F8 JUMPI DUP1 PUSH4 0xEE120300 EQ PUSH2 0x818 JUMPI DUP1 PUSH4 0xEF2920FC EQ PUSH2 0x848 JUMPI DUP1 PUSH4 0xF5B0DFB7 EQ PUSH2 0x85B JUMPI DUP1 PUSH4 0xF83067E7 EQ PUSH2 0x87B JUMPI PUSH1 0x0 DUP1 REVERT JUMPDEST DUP1 PUSH4 0xCB2415FB EQ PUSH2 0x6FE JUMPI DUP1 PUSH4 0xDF868ED3 EQ PUSH2 0x737 JUMPI DUP1 PUSH4 0xE2372B58 EQ PUSH2 0x74F JUMPI DUP1 PUSH4 0xE477B6BD EQ PUSH2 0x77C JUMPI DUP1 PUSH4 0xE8EEB806 EQ PUSH2 0x7B5 JUMPI PUSH1 0x0 DUP1 REVERT JUMPDEST DUP1 PUSH4 0xB3EAE7AB GT PUSH2 0xFD JUMPI DUP1 PUSH4 0xB3EAE7AB EQ PUSH2 0x642 JUMPI DUP1 PUSH4 0xC1AAF44A EQ PUSH2 0x662 JUMPI DUP1 PUSH4 0xC7A892BF EQ PUSH2 0x68F JUMPI DUP1 PUSH4 0xC9701FD4 EQ PUSH2 0x6BF JUMPI DUP1 PUSH4 0xCB0E85A6 EQ PUSH2 0x6DF JUMPI PUSH1 0x0 DUP1 REVERT JUMPDEST DUP1 PUSH4 0x9FFAA875 EQ PUSH2 0x59E JUMPI DUP1 PUSH4 0xA0CF0AEA EQ PUSH2 0x5BE JUMPI DUP1 PUSH4 0xA647D23E EQ PUSH2 0x5E6 JUMPI DUP1 PUSH4 0xA9655210 EQ PUSH2 0x600 JUMPI DUP1 PUSH4 0xB2B878D0 EQ PUSH2 0x615 JUMPI PUSH1 0x0 DUP1 REVERT JUMPDEST DUP1 PUSH4 0x3BF3577D GT PUSH2 0x1D2 JUMPI DUP1 PUSH4 0x4ED2859E GT PUSH2 0x196 JUMPI DUP1 PUSH4 0x4ED2859E EQ PUSH2 0x4BF JUMPI DUP1 PUSH4 0x5B10B597 EQ PUSH2 0x4D5 JUMPI DUP1 PUSH4 0x605E1C66 EQ PUSH2 0x4EA JUMPI DUP1 PUSH4 0x62812A39 EQ PUSH2 0x531 JUMPI DUP1 PUSH4 0x78F0184D EQ PUSH2 0x55E JUMPI DUP1 PUSH4 0x9BE2CCF5 EQ PUSH2 0x57E JUMPI PUSH1 0x0 DUP1 REVERT JUMPDEST DUP1 PUSH4 0x3BF3577D EQ PUSH2 0x3DE JUMPI DUP1 PUSH4 0x404E73E2 EQ PUSH2 0x3FE JUMPI DUP1 PUSH4 0x42FDA9C7 EQ PUSH2 0x447 JUMPI DUP1 PUSH4 0x4AB4BA42 EQ PUSH2 0x47A JUMPI DUP1 PUSH4 0x4D31D087 EQ PUSH2 0x48F JUMPI PUSH1 0x0 DUP1 REVERT JUMPDEST DUP1 PUSH4 0x2A835B4B GT PUSH2 0x219 JUMPI DUP1 PUSH4 0x2A835B4B EQ PUSH2 0x340 JUMPI DUP1 PUSH4 0x2BBE0CAE EQ PUSH2 0x360 JUMPI DUP1 PUSH4 0x2FF0E6C4 EQ PUSH2 0x373 JUMPI DUP1 PUSH4 0x36592C0E EQ PUSH2 0x3A9 JUMPI DUP1 PUSH4 0x38FFF2D0 EQ PUSH2 0x3C9 JUMPI PUSH1 0x0 DUP1 REVERT JUMPDEST DUP1 PUSH4 0xA6F0EE9 EQ PUSH2 0x261 JUMPI DUP1 PUSH4 0x15CC481E EQ PUSH2 0x283 JUMPI DUP1 PUSH4 0x18160DDD EQ PUSH2 0x2CF JUMPI DUP1 PUSH4 0x197EA814 EQ PUSH2 0x2F3 JUMPI DUP1 PUSH4 0x22A4E42D EQ PUSH2 0x313 JUMPI PUSH1 0x0 DUP1 REVERT JUMPDEST CALLDATASIZE PUSH2 0x25C JUMPI STOP JUMPDEST PUSH1 0x0 DUP1 REVERT JUMPDEST CALLVALUE DUP1 ISZERO PUSH2 0x26D JUMPI PUSH1 0x0 DUP1 REVERT JUMPDEST POP PUSH2 0x281 PUSH2 0x27C CALLDATASIZE PUSH1 0x4 PUSH2 0x3E03 JUMP JUMPDEST PUSH2 0x89B JUMP JUMPDEST STOP JUMPDEST CALLVALUE DUP1 ISZERO PUSH2 0x28F JUMPI PUSH1 0x0 DUP1 REVERT JUMPDEST POP PUSH32 0x0 JUMPDEST PUSH1 0x40 MLOAD PUSH1 0x1 PUSH1 0x1 PUSH1 0xA0 SHL SUB SWAP1 SWAP2 AND DUP2 MSTORE PUSH1 0x20 ADD JUMPDEST PUSH1 0x40 MLOAD DUP1 SWAP2 SUB SWAP1 RETURN JUMPDEST CALLVALUE DUP1 ISZERO PUSH2 0x2DB JUMPI PUSH1 0x0 DUP1 REVERT JUMPDEST POP PUSH2 0x2E5 PUSH1 0x5 SLOAD DUP2 JUMP JUMPDEST PUSH1 0x40 MLOAD SWAP1 DUP2 MSTORE PUSH1 0x20 ADD PUSH2 0x2C6 JUMP JUMPDEST CALLVALUE DUP1 ISZERO PUSH2 0x2FF JUMPI PUSH1 0x0 DUP1 REVERT JUMPDEST POP PUSH2 0x2E5 PUSH2 0x30E CALLDATASIZE PUSH1 0x4 PUSH2 0x3E7A JUMP JUMPDEST PUSH2 0x8BB JUMP JUMPDEST CALLVALUE DUP1 ISZERO PUSH2 0x31F JUMPI PUSH1 0x0 DUP1 REVERT JUMPDEST POP PUSH2 0x333 PUSH2 0x32E CALLDATASIZE PUSH1 0x4 PUSH2 0x3EB3 JUMP JUMPDEST PUSH2 0x8EC JUMP JUMPDEST PUSH1 0x40 MLOAD PUSH2 0x2C6 SWAP2 SWAP1 PUSH2 0x3F7E JUMP JUMPDEST CALLVALUE DUP1 ISZERO PUSH2 0x34C JUMPI PUSH1 0x0 DUP1 REVERT JUMPDEST POP PUSH2 0x281 PUSH2 0x35B CALLDATASIZE PUSH1 0x4 PUSH2 0x4023 JUMP JUMPDEST PUSH2 0xAE0 JUMP JUMPDEST PUSH2 0x2B2 PUSH2 0x36E CALLDATASIZE PUSH1 0x4 PUSH2 0x4045 JUMP JUMPDEST PUSH2 0xBDF JUMP JUMPDEST CALLVALUE DUP1 ISZERO PUSH2 0x37F JUMPI PUSH1 0x0 DUP1 REVERT JUMPDEST POP PUSH2 0x2E5 PUSH2 0x38E CALLDATASIZE PUSH1 0x4 PUSH2 0x3EB3 JUMP JUMPDEST PUSH1 0x1 PUSH1 0x1 PUSH1 0xA0 SHL SUB AND PUSH1 0x0 SWAP1 DUP2 MSTORE PUSH1 0x12 PUSH1 0x20 MSTORE PUSH1 0x40 SWAP1 KECCAK256 SLOAD SWAP1 JUMP JUMPDEST CALLVALUE DUP1 ISZERO PUSH2 0x3B5 JUMPI PUSH1 0x0 DUP1 REVERT JUMPDEST POP PUSH2 0x333 PUSH2 0x3C4 CALLDATASIZE PUSH1 0x4 PUSH2 0x3EB3 JUMP JUMPDEST PUSH2 0xC02 JUMP JUMPDEST CALLVALUE DUP1 ISZERO PUSH2 0x3D5 JUMPI PUSH1 0x0 DUP1 REVERT JUMPDEST POP PUSH1 0x1 SLOAD PUSH2 0x2E5 JUMP JUMPDEST CALLVALUE DUP1 ISZERO PUSH2 0x3EA JUMPI PUSH1 0x0 DUP1 REVERT JUMPDEST POP PUSH2 0x281 PUSH2 0x3F9 CALLDATASIZE PUSH1 0x4 PUSH2 0x408B JUMP JUMPDEST PUSH2 0xDEB JUMP JUMPDEST CALLVALUE DUP1 ISZERO PUSH2 0x40A JUMPI PUSH1 0x0 DUP1 REVERT JUMPDEST POP PUSH2 0x432 PUSH2 0x419 CALLDATASIZE PUSH1 0x4 PUSH2 0x40DF JUMP JUMPDEST PUSH1 0x13 PUSH1 0x20 MSTORE PUSH1 0x0 SWAP1 DUP2 MSTORE PUSH1 0x40 SWAP1 KECCAK256 DUP1 SLOAD PUSH1 0x1 SWAP1 SWAP2 ADD SLOAD DUP3 JUMP JUMPDEST PUSH1 0x40 DUP1 MLOAD SWAP3 DUP4 MSTORE PUSH1 0x20 DUP4 ADD SWAP2 SWAP1 SWAP2 MSTORE ADD PUSH2 0x2C6 JUMP JUMPDEST CALLVALUE DUP1 ISZERO PUSH2 0x453 JUMPI PUSH1 0x0 DUP1 REVERT JUMPDEST POP PUSH32 0x0 PUSH2 0x2E5 JUMP JUMPDEST CALLVALUE DUP1 ISZERO PUSH2 0x486 JUMPI PUSH1 0x0 DUP1 REVERT JUMPDEST POP PUSH1 0x2 SLOAD PUSH2 0x2E5 JUMP JUMPDEST CALLVALUE DUP1 ISZERO PUSH2 0x49B JUMPI PUSH1 0x0 DUP1 REVERT JUMPDEST POP PUSH2 0x4AF PUSH2 0x4AA CALLDATASIZE PUSH1 0x4 PUSH2 0x3EB3 JUMP JUMPDEST PUSH2 0x10AC JUMP JUMPDEST PUSH1 0x40 MLOAD SWAP1 ISZERO ISZERO DUP2 MSTORE PUSH1 0x20 ADD PUSH2 0x2C6 JUMP JUMPDEST CALLVALUE DUP1 ISZERO PUSH2 0x4CB JUMPI PUSH1 0x0 DUP1 REVERT JUMPDEST POP PUSH2 0x2E5 PUSH1 0x6 SLOAD DUP2 JUMP JUMPDEST CALLVALUE DUP1 ISZERO PUSH2 0x4E1 JUMPI PUSH1 0x0 DUP1 REVERT JUMPDEST POP PUSH1 0xE SLOAD PUSH2 0x2E5 JUMP JUMPDEST CALLVALUE DUP1 ISZERO PUSH2 0x4F6 JUMPI PUSH1 0x0 DUP1 REVERT JUMPDEST POP PUSH2 0x2E5 PUSH2 0x505 CALLDATASIZE PUSH1 0x4 PUSH2 0x40F8 JUMP JUMPDEST PUSH1 0x0 DUP3 DUP2 MSTORE PUSH1 0x13 PUSH1 0x20 SWAP1 DUP2 MSTORE PUSH1 0x40 DUP1 DUP4 KECCAK256 PUSH1 0x1 PUSH1 0x1 PUSH1 0xA0 SHL SUB DUP6 AND DUP5 MSTORE PUSH1 0x2 ADD SWAP1 SWAP2 MSTORE SWAP1 KECCAK256 SLOAD SWAP3 SWAP2 POP POP JUMP JUMPDEST CALLVALUE DUP1 ISZERO PUSH2 0x53D JUMPI PUSH1 0x0 DUP1 REVERT JUMPDEST POP PUSH2 0x551 PUSH2 0x54C CALLDATASIZE PUSH1 0x4 PUSH2 0x3EB3 JUMP JUMPDEST PUSH2 0x10B7 JUMP JUMPDEST PUSH1 0x40 MLOAD PUSH2 0x2C6 SWAP2 SWAP1 PUSH2 0x411D JUMP JUMPDEST CALLVALUE DUP1 ISZERO PUSH2 0x56A JUMPI PUSH1 0x0 DUP1 REVERT JUMPDEST POP PUSH2 0x281 PUSH2 0x579 CALLDATASIZE PUSH1 0x4 PUSH2 0x41AD JUMP JUMPDEST PUSH2 0x10C8 JUMP JUMPDEST CALLVALUE DUP1 ISZERO PUSH2 0x58A JUMPI PUSH1 0x0 DUP1 REVERT JUMPDEST POP PUSH1 0x4 SLOAD PUSH2 0x4AF SWAP1 PUSH3 0x10000 SWAP1 DIV PUSH1 0xFF AND DUP2 JUMP JUMPDEST CALLVALUE DUP1 ISZERO PUSH2 0x5AA JUMPI PUSH1 0x0 DUP1 REVERT JUMPDEST POP PUSH2 0x281 PUSH2 0x5B9 CALLDATASIZE PUSH1 0x4 PUSH2 0x4338 JUMP JUMPDEST PUSH2 0x12C4 JUMP JUMPDEST CALLVALUE DUP1 ISZERO PUSH2 0x5CA JUMPI PUSH1 0x0 DUP1 REVERT JUMPDEST POP PUSH2 0x2B2 PUSH20 0xEEEEEEEEEEEEEEEEEEEEEEEEEEEEEEEEEEEEEEEE DUP2 JUMP JUMPDEST CALLVALUE DUP1 ISZERO PUSH2 0x5F2 JUMPI PUSH1 0x0 DUP1 REVERT JUMPDEST POP PUSH1 0x4 SLOAD PUSH2 0x4AF SWAP1 PUSH1 0xFF AND DUP2 JUMP JUMPDEST CALLVALUE DUP1 ISZERO PUSH2 0x60C JUMPI PUSH1 0x0 DUP1 REVERT JUMPDEST POP PUSH1 0xF SLOAD PUSH2 0x2E5 JUMP JUMPDEST CALLVALUE DUP1 ISZERO PUSH2 0x621 JUMPI PUSH1 0x0 DUP1 REVERT JUMPDEST POP PUSH2 0x635 PUSH2 0x630 CALLDATASIZE PUSH1 0x4 PUSH2 0x436F JUMP JUMPDEST PUSH2 0x189A JUMP JUMPDEST PUSH1 0x40 MLOAD PUSH2 0x2C6 SWAP2 SWAP1 PUSH2 0x4443 JUMP JUMPDEST CALLVALUE DUP1 ISZERO PUSH2 0x64E JUMPI PUSH1 0x0 DUP1 REVERT JUMPDEST POP PUSH2 0x281 PUSH2 0x65D CALLDATASIZE PUSH1 0x4 PUSH2 0x449B JUMP JUMPDEST PUSH2 0x1998 JUMP JUMPDEST CALLVALUE DUP1 ISZERO PUSH2 0x66E JUMPI PUSH1 0x0 DUP1 REVERT JUMPDEST POP PUSH2 0x2E5 PUSH2 0x67D CALLDATASIZE PUSH1 0x4 PUSH2 0x40DF JUMP JUMPDEST PUSH1 0x0 SWAP1 DUP2 MSTORE PUSH1 0x13 PUSH1 0x20 MSTORE PUSH1 0x40 SWAP1 KECCAK256 SLOAD SWAP1 JUMP JUMPDEST CALLVALUE DUP1 ISZERO PUSH2 0x69B JUMPI PUSH1 0x0 DUP1 REVERT JUMPDEST POP PUSH2 0x6AF PUSH2 0x6AA CALLDATASIZE PUSH1 0x4 PUSH2 0x44C9 JUMP JUMPDEST PUSH2 0x1E95 JUMP JUMPDEST PUSH1 0x40 MLOAD PUSH2 0x2C6 SWAP5 SWAP4 SWAP3 SWAP2 SWAP1 PUSH2 0x44F5 JUMP JUMPDEST CALLVALUE DUP1 ISZERO PUSH2 0x6CB JUMPI PUSH1 0x0 DUP1 REVERT JUMPDEST POP PUSH2 0x281 PUSH2 0x6DA CALLDATASIZE PUSH1 0x4 PUSH2 0x4538 JUMP JUMPDEST PUSH2 0x2017 JUMP JUMPDEST CALLVALUE DUP1 ISZERO PUSH2 0x6EB JUMPI PUSH1 0x0 DUP1 REVERT JUMPDEST POP PUSH1 0x4 SLOAD PUSH2 0x4AF SWAP1 PUSH2 0x100 SWAP1 DIV PUSH1 0xFF AND DUP2 JUMP JUMPDEST CALLVALUE DUP1 ISZERO PUSH2 0x70A JUMPI PUSH1 0x0 DUP1 REVERT JUMPDEST POP PUSH2 0x2E5 PUSH2 0x719 CALLDATASIZE PUSH1 0x4 PUSH2 0x3EB3 JUMP JUMPDEST PUSH1 0x1 PUSH1 0x1 PUSH1 0xA0 SHL SUB AND PUSH1 0x0 SWAP1 DUP2 MSTORE PUSH1 0xD PUSH1 0x20 MSTORE PUSH1 0x40 SWAP1 KECCAK256 PUSH1 0x2 ADD SLOAD SWAP1 JUMP JUMPDEST CALLVALUE DUP1 ISZERO PUSH2 0x743 JUMPI PUSH1 0x0 DUP1 REVERT JUMPDEST POP PUSH1 0x0 SLOAD PUSH1 0xFF AND PUSH2 0x4AF JUMP JUMPDEST CALLVALUE DUP1 ISZERO PUSH2 0x75B JUMPI PUSH1 0x0 DUP1 REVERT JUMPDEST POP PUSH2 0x2E5 PUSH2 0x76A CALLDATASIZE PUSH1 0x4 PUSH2 0x3EB3 JUMP JUMPDEST PUSH1 0x12 PUSH1 0x20 MSTORE PUSH1 0x0 SWAP1 DUP2 MSTORE PUSH1 0x40 SWAP1 KECCAK256 SLOAD DUP2 JUMP JUMPDEST CALLVALUE DUP1 ISZERO PUSH2 0x788 JUMPI PUSH1 0x0 DUP1 REVERT JUMPDEST POP PUSH2 0x2E5 PUSH2 0x797 CALLDATASIZE PUSH1 0x4 PUSH2 0x3EB3 JUMP JUMPDEST PUSH1 0x1 PUSH1 0x1 PUSH1 0xA0 SHL SUB AND PUSH1 0x0 SWAP1 DUP2 MSTORE PUSH1 0xD PUSH1 0x20 MSTORE PUSH1 0x40 SWAP1 KECCAK256 PUSH1 0x1 ADD SLOAD SWAP1 JUMP JUMPDEST CALLVALUE DUP1 ISZERO PUSH2 0x7C1 JUMPI PUSH1 0x0 DUP1 REVERT JUMPDEST POP PUSH2 0x2E5 PUSH1 0x8 SLOAD DUP2 JUMP JUMPDEST CALLVALUE DUP1 ISZERO PUSH2 0x7D7 JUMPI PUSH1 0x0 DUP1 REVERT JUMPDEST POP PUSH2 0x7EB PUSH2 0x7E6 CALLDATASIZE PUSH1 0x4 PUSH2 0x3EB3 JUMP JUMPDEST PUSH2 0x2228 JUMP JUMPDEST PUSH1 0x40 MLOAD PUSH2 0x2C6 SWAP2 SWAP1 PUSH2 0x4555 JUMP JUMPDEST CALLVALUE DUP1 ISZERO PUSH2 0x804 JUMPI PUSH1 0x0 DUP1 REVERT JUMPDEST POP PUSH2 0x281 PUSH2 0x813 CALLDATASIZE PUSH1 0x4 PUSH2 0x4563 JUMP JUMPDEST PUSH2 0x2233 JUMP JUMPDEST CALLVALUE DUP1 ISZERO PUSH2 0x824 JUMPI PUSH1 0x0 DUP1 REVERT JUMPDEST POP PUSH2 0x2E5 PUSH2 0x833 CALLDATASIZE PUSH1 0x4 PUSH2 0x40DF JUMP JUMPDEST PUSH1 0x0 SWAP1 DUP2 MSTORE PUSH1 0x13 PUSH1 0x20 MSTORE PUSH1 0x40 SWAP1 KECCAK256 PUSH1 0x1 ADD SLOAD SWAP1 JUMP JUMPDEST PUSH2 0x281 PUSH2 0x856 CALLDATASIZE PUSH1 0x4 PUSH2 0x4045 JUMP JUMPDEST PUSH2 0x2293 JUMP JUMPDEST CALLVALUE DUP1 ISZERO PUSH2 0x867 JUMPI PUSH1 0x0 DUP1 REVERT JUMPDEST POP PUSH2 0x281 PUSH2 0x876 CALLDATASIZE PUSH1 0x4 PUSH2 0x40DF JUMP JUMPDEST PUSH2 0x22B1 JUMP JUMPDEST CALLVALUE DUP1 ISZERO PUSH2 0x887 JUMPI PUSH1 0x0 DUP1 REVERT JUMPDEST POP PUSH2 0x7EB PUSH2 0x896 CALLDATASIZE PUSH1 0x4 PUSH2 0x44C9 JUMP JUMPDEST PUSH2 0x22DB JUMP JUMPDEST PUSH2 0x8A3 PUSH2 0x2323 JUMP JUMPDEST PUSH2 0x8AB PUSH2 0x236E JUMP JUMPDEST PUSH2 0x8B6 DUP4 DUP4 DUP4 PUSH2 0x2391 JUMP JUMPDEST POP POP POP JUMP JUMPDEST PUSH1 0x1 PUSH1 0x1 PUSH1 0xA0 SHL SUB DUP1 DUP4 AND PUSH1 0x0 SWAP1 DUP2 MSTORE PUSH1 0xD PUSH1 0x20 SWAP1 DUP2 MSTORE PUSH1 0x40 DUP1 DUP4 KECCAK256 SWAP4 DUP6 AND DUP4 MSTORE PUSH1 0x3 SWAP1 SWAP4 ADD SWAP1 MSTORE KECCAK256 SLOAD JUMPDEST SWAP3 SWAP2 POP POP JUMP JUMPDEST PUSH1 0x1 PUSH1 0x1 PUSH1 0xA0 SHL SUB DUP2 AND PUSH1 0x0 SWAP1 DUP2 MSTORE PUSH1 0x11 PUSH1 0x20 SWAP1 DUP2 MSTORE PUSH1 0x40 DUP1 DUP4 KECCAK256 DUP1 SLOAD DUP3 MLOAD DUP2 DUP6 MUL DUP2 ADD DUP6 ADD SWAP1 SWAP4 MSTORE DUP1 DUP4 MSTORE PUSH1 0x60 SWAP5 SWAP3 SWAP4 SWAP2 SWAP3 SWAP1 SWAP2 DUP5 ADD JUMPDEST DUP3 DUP3 LT ISZERO PUSH2 0xAD5 JUMPI DUP4 DUP3 SWAP1 PUSH1 0x0 MSTORE PUSH1 0x20 PUSH1 0x0 KECCAK256 SWAP1 PUSH1 0x5 MUL ADD PUSH1 0x40 MLOAD DUP1 PUSH1 0x80 ADD PUSH1 0x40 MSTORE SWAP1 DUP2 PUSH1 0x0 DUP3 ADD SLOAD DUP2 MSTORE PUSH1 0x20 ADD PUSH1 0x1 DUP3 ADD PUSH1 0x40 MLOAD DUP1 PUSH1 0x40 ADD PUSH1 0x40 MSTORE SWAP1 DUP2 PUSH1 0x0 DUP3 ADD SLOAD DUP2 MSTORE PUSH1 0x20 ADD PUSH1 0x1 DUP3 ADD DUP1 SLOAD PUSH2 0x97B SWAP1 PUSH2 0x45A9 JUMP JUMPDEST DUP1 PUSH1 0x1F ADD PUSH1 0x20 DUP1 SWAP2 DIV MUL PUSH1 0x20 ADD PUSH1 0x40 MLOAD SWAP1 DUP2 ADD PUSH1 0x40 MSTORE DUP1 SWAP3 SWAP2 SWAP1 DUP2 DUP2 MSTORE PUSH1 0x20 ADD DUP3 DUP1 SLOAD PUSH2 0x9A7 SWAP1 PUSH2 0x45A9 JUMP JUMPDEST DUP1 ISZERO PUSH2 0x9F4 JUMPI DUP1 PUSH1 0x1F LT PUSH2 0x9C9 JUMPI PUSH2 0x100 DUP1 DUP4 SLOAD DIV MUL DUP4 MSTORE SWAP2 PUSH1 0x20 ADD SWAP2 PUSH2 0x9F4 JUMP JUMPDEST DUP3 ADD SWAP2 SWAP1 PUSH1 0x0 MSTORE PUSH1 0x20 PUSH1 0x0 KECCAK256 SWAP1 JUMPDEST DUP2 SLOAD DUP2 MSTORE SWAP1 PUSH1 0x1 ADD SWAP1 PUSH1 0x20 ADD DUP1 DUP4 GT PUSH2 0x9D7 JUMPI DUP3 SWAP1 SUB PUSH1 0x1F AND DUP3 ADD SWAP2 JUMPDEST POP POP POP SWAP2 SWAP1 SWAP3 MSTORE POP POP POP DUP2 MSTORE PUSH1 0x3 DUP3 ADD SLOAD PUSH1 0x20 SWAP1 SWAP2 ADD SWAP1 PUSH1 0xFF AND PUSH1 0x6 DUP2 GT ISZERO PUSH2 0xA1F JUMPI PUSH2 0xA1F PUSH2 0x3F46 JUMP JUMPDEST PUSH1 0x6 DUP2 GT ISZERO PUSH2 0xA30 JUMPI PUSH2 0xA30 PUSH2 0x3F46 JUMP JUMPDEST DUP2 MSTORE PUSH1 0x20 ADD PUSH1 0x4 DUP3 ADD DUP1 SLOAD PUSH2 0xA44 SWAP1 PUSH2 0x45A9 JUMP JUMPDEST DUP1 PUSH1 0x1F ADD PUSH1 0x20 DUP1 SWAP2 DIV MUL PUSH1 0x20 ADD PUSH1 0x40 MLOAD SWAP1 DUP2 ADD PUSH1 0x40 MSTORE DUP1 SWAP3 SWAP2 SWAP1 DUP2 DUP2 MSTORE PUSH1 0x20 ADD DUP3 DUP1 SLOAD PUSH2 0xA70 SWAP1 PUSH2 0x45A9 JUMP JUMPDEST DUP1 ISZERO PUSH2 0xABD JUMPI DUP1 PUSH1 0x1F LT PUSH2 0xA92 JUMPI PUSH2 0x100 DUP1 DUP4 SLOAD DIV MUL DUP4 MSTORE SWAP2 PUSH1 0x20 ADD SWAP2 PUSH2 0xABD JUMP JUMPDEST DUP3 ADD SWAP2 SWAP1 PUSH1 0x0 MSTORE PUSH1 0x20 PUSH1 0x0 KECCAK256 SWAP1 JUMPDEST DUP2 SLOAD DUP2 MSTORE SWAP1 PUSH1 0x1 ADD SWAP1 PUSH1 0x20 ADD DUP1 DUP4 GT PUSH2 0xAA0 JUMPI DUP3 SWAP1 SUB PUSH1 0x1F AND DUP3 ADD SWAP2 JUMPDEST POP POP POP POP POP DUP2 MSTORE POP POP DUP2 MSTORE PUSH1 0x20 ADD SWAP1 PUSH1 0x1 ADD SWAP1 PUSH2 0x924 JUMP JUMPDEST POP POP POP POP SWAP1 POP SWAP2 SWAP1 POP JUMP JUMPDEST PUSH1 0x7 SLOAD PUSH1 0x40 MLOAD PUSH4 0xE6E1AE3 PUSH1 0xE2 SHL DUP2 MSTORE PUSH1 0x4 DUP2 ADD DUP4 SWAP1 MSTORE CALLER PUSH1 0x24 DUP3 ADD MSTORE PUSH1 0x1 PUSH1 0x1 PUSH1 0xA0 SHL SUB SWAP1 SWAP2 AND SWAP1 PUSH4 0x39B86B8C SWAP1 PUSH1 0x44 ADD PUSH1 0x20 PUSH1 0x40 MLOAD DUP1 DUP4 SUB DUP2 DUP7 GAS STATICCALL ISZERO DUP1 ISZERO PUSH2 0xB2F JUMPI RETURNDATASIZE PUSH1 0x0 DUP1 RETURNDATACOPY RETURNDATASIZE PUSH1 0x0 REVERT JUMPDEST POP POP POP POP PUSH1 0x40 MLOAD RETURNDATASIZE PUSH1 0x1F NOT PUSH1 0x1F DUP3 ADD AND DUP3 ADD DUP1 PUSH1 0x40 MSTORE POP DUP2 ADD SWAP1 PUSH2 0xB53 SWAP2 SWAP1 PUSH2 0x45F3 JUMP JUMPDEST PUSH2 0xB93 JUMPI PUSH1 0x40 MLOAD PUSH3 0x461BCD PUSH1 0xE5 SHL DUP2 MSTORE PUSH1 0x20 PUSH1 0x4 DUP3 ADD MSTORE PUSH1 0xC PUSH1 0x24 DUP3 ADD MSTORE PUSH12 0x15539055551213D492569151 PUSH1 0xA2 SHL PUSH1 0x44 DUP3 ADD MSTORE PUSH1 0x64 ADD JUMPDEST PUSH1 0x40 MLOAD DUP1 SWAP2 SUB SWAP1 REVERT JUMPDEST PUSH1 0x64 DUP3 GT ISZERO PUSH2 0xBD9 JUMPI PUSH1 0x40 MLOAD PUSH3 0x461BCD PUSH1 0xE5 SHL DUP2 MSTORE PUSH1 0x20 PUSH1 0x4 DUP3 ADD MSTORE PUSH1 0x12 PUSH1 0x24 DUP3 ADD MSTORE PUSH18 0x496E76616C69642070657263656E74616765 PUSH1 0x70 SHL PUSH1 0x44 DUP3 ADD MSTORE PUSH1 0x64 ADD PUSH2 0xB8A JUMP JUMPDEST POP PUSH1 0x6 SSTORE JUMP JUMPDEST PUSH1 0x0 PUSH2 0xBE9 PUSH2 0x2323 JUMP JUMPDEST PUSH2 0xBF1 PUSH2 0x236E JUMP JUMPDEST PUSH2 0xBFB DUP4 DUP4 PUSH2 0x2428 JUMP JUMPDEST SWAP1 POP PUSH2 0x8E6 JUMP JUMPDEST PUSH1 0x1 PUSH1 0x1 PUSH1 0xA0 SHL SUB DUP2 AND PUSH1 0x0 SWAP1 DUP2 MSTORE PUSH1 0xD PUSH1 0x20 SWAP1 DUP2 MSTORE PUSH1 0x40 DUP1 DUP4 KECCAK256 DUP1 SLOAD DUP3 MLOAD DUP2 DUP6 MUL DUP2 ADD DUP6 ADD SWAP1 SWAP4 MSTORE DUP1 DUP4 MSTORE PUSH1 0x60 SWAP5 SWAP3 SWAP4 SWAP2 SWAP3 SWAP1 SWAP2 DUP5 ADD JUMPDEST DUP3 DUP3 LT ISZERO PUSH2 0xAD5 JUMPI DUP4 DUP3 SWAP1 PUSH1 0x0 MSTORE PUSH1 0x20 PUSH1 0x0 KECCAK256 SWAP1 PUSH1 0x5 MUL ADD PUSH1 0x40 MLOAD DUP1 PUSH1 0x80 ADD PUSH1 0x40 MSTORE SWAP1 DUP2 PUSH1 0x0 DUP3 ADD SLOAD DUP2 MSTORE PUSH1 0x20 ADD PUSH1 0x1 DUP3 ADD PUSH1 0x40 MLOAD DUP1 PUSH1 0x40 ADD PUSH1 0x40 MSTORE SWAP1 DUP2 PUSH1 0x0 DUP3 ADD SLOAD DUP2 MSTORE PUSH1 0x20 ADD PUSH1 0x1 DUP3 ADD DUP1 SLOAD PUSH2 0xC91 SWAP1 PUSH2 0x45A9 JUMP JUMPDEST DUP1 PUSH1 0x1F ADD PUSH1 0x20 DUP1 SWAP2 DIV MUL PUSH1 0x20 ADD PUSH1 0x40 MLOAD SWAP1 DUP2 ADD PUSH1 0x40 MSTORE DUP1 SWAP3 SWAP2 SWAP1 DUP2 DUP2 MSTORE PUSH1 0x20 ADD DUP3 DUP1 SLOAD PUSH2 0xCBD SWAP1 PUSH2 0x45A9 JUMP JUMPDEST DUP1 ISZERO PUSH2 0xD0A JUMPI DUP1 PUSH1 0x1F LT PUSH2 0xCDF JUMPI PUSH2 0x100 DUP1 DUP4 SLOAD DIV MUL DUP4 MSTORE SWAP2 PUSH1 0x20 ADD SWAP2 PUSH2 0xD0A JUMP JUMPDEST DUP3 ADD SWAP2 SWAP1 PUSH1 0x0 MSTORE PUSH1 0x20 PUSH1 0x0 KECCAK256 SWAP1 JUMPDEST DUP2 SLOAD DUP2 MSTORE SWAP1 PUSH1 0x1 ADD SWAP1 PUSH1 0x20 ADD DUP1 DUP4 GT PUSH2 0xCED JUMPI DUP3 SWAP1 SUB PUSH1 0x1F AND DUP3 ADD SWAP2 JUMPDEST POP POP POP SWAP2 SWAP1 SWAP3 MSTORE POP POP POP DUP2 MSTORE PUSH1 0x3 DUP3 ADD SLOAD PUSH1 0x20 SWAP1 SWAP2 ADD SWAP1 PUSH1 0xFF AND PUSH1 0x6 DUP2 GT ISZERO PUSH2 0xD35 JUMPI PUSH2 0xD35 PUSH2 0x3F46 JUMP JUMPDEST PUSH1 0x6 DUP2 GT ISZERO PUSH2 0xD46 JUMPI PUSH2 0xD46 PUSH2 0x3F46 JUMP JUMPDEST DUP2 MSTORE PUSH1 0x20 ADD PUSH1 0x4 DUP3 ADD DUP1 SLOAD PUSH2 0xD5A SWAP1 PUSH2 0x45A9 JUMP JUMPDEST DUP1 PUSH1 0x1F ADD PUSH1 0x20 DUP1 SWAP2 DIV MUL PUSH1 0x20 ADD PUSH1 0x40 MLOAD SWAP1 DUP2 ADD PUSH1 0x40 MSTORE DUP1 SWAP3 SWAP2 SWAP1 DUP2 DUP2 MSTORE PUSH1 0x20 ADD DUP3 DUP1 SLOAD PUSH2 0xD86 SWAP1 PUSH2 0x45A9 JUMP JUMPDEST DUP1 ISZERO PUSH2 0xDD3 JUMPI DUP1 PUSH1 0x1F LT PUSH2 0xDA8 JUMPI PUSH2 0x100 DUP1 DUP4 SLOAD DIV MUL DUP4 MSTORE SWAP2 PUSH1 0x20 ADD SWAP2 PUSH2 0xDD3 JUMP JUMPDEST DUP3 ADD SWAP2 SWAP1 PUSH1 0x0 MSTORE PUSH1 0x20 PUSH1 0x0 KECCAK256 SWAP1 JUMPDEST DUP2 SLOAD DUP2 MSTORE SWAP1 PUSH1 0x1 ADD SWAP1 PUSH1 0x20 ADD DUP1 DUP4 GT PUSH2 0xDB6 JUMPI DUP3 SWAP1 SUB PUSH1 0x1F AND DUP3 ADD SWAP2 JUMPDEST POP POP POP POP POP DUP2 MSTORE POP POP DUP2 MSTORE PUSH1 0x20 ADD SWAP1 PUSH1 0x1 ADD SWAP1 PUSH2 0xC3A JUMP JUMPDEST PUSH1 0x1 PUSH1 0x1 PUSH1 0xA0 SHL SUB DUP4 AND CALLER EQ PUSH2 0xE14 JUMPI PUSH1 0x40 MLOAD PUSH4 0x75FD2B1 PUSH1 0xE0 SHL DUP2 MSTORE PUSH1 0x4 ADD PUSH1 0x40 MLOAD DUP1 SWAP2 SUB SWAP1 REVERT JUMPDEST PUSH1 0x1 PUSH1 0x1 PUSH1 0xA0 SHL SUB DUP1 DUP5 AND PUSH1 0x0 SWAP1 DUP2 MSTORE PUSH1 0xB PUSH1 0x20 SWAP1 DUP2 MSTORE PUSH1 0x40 DUP1 DUP4 KECCAK256 DUP2 MLOAD PUSH1 0xC0 DUP2 ADD DUP4 MSTORE DUP2 SLOAD PUSH1 0xFF DUP2 AND ISZERO ISZERO DUP3 MSTORE PUSH2 0x100 SWAP1 DIV SWAP1 SWAP6 AND DUP6 DUP5 ADD MSTORE PUSH1 0x1 DUP2 ADD SLOAD DUP6 DUP4 ADD MSTORE DUP2 MLOAD DUP1 DUP4 ADD SWAP1 SWAP3 MSTORE PUSH1 0x2 DUP2 ADD DUP1 SLOAD DUP4 MSTORE PUSH1 0x3 DUP3 ADD DUP1 SLOAD SWAP6 SWAP7 SWAP6 SWAP3 SWAP5 PUSH1 0x60 DUP8 ADD SWAP5 SWAP4 SWAP1 DUP5 ADD SWAP2 SWAP1 PUSH2 0xE86 SWAP1 PUSH2 0x45A9 JUMP JUMPDEST DUP1 PUSH1 0x1F ADD PUSH1 0x20 DUP1 SWAP2 DIV MUL PUSH1 0x20 ADD PUSH1 0x40 MLOAD SWAP1 DUP2 ADD PUSH1 0x40 MSTORE DUP1 SWAP3 SWAP2 SWAP1 DUP2 DUP2 MSTORE PUSH1 0x20 ADD DUP3 DUP1 SLOAD PUSH2 0xEB2 SWAP1 PUSH2 0x45A9 JUMP JUMPDEST DUP1 ISZERO PUSH2 0xEFF JUMPI DUP1 PUSH1 0x1F LT PUSH2 0xED4 JUMPI PUSH2 0x100 DUP1 DUP4 SLOAD DIV MUL DUP4 MSTORE SWAP2 PUSH1 0x20 ADD SWAP2 PUSH2 0xEFF JUMP JUMPDEST DUP3 ADD SWAP2 SWAP1 PUSH1 0x0 MSTORE PUSH1 0x20 PUSH1 0x0 KECCAK256 SWAP1 JUMPDEST DUP2 SLOAD DUP2 MSTORE SWAP1 PUSH1 0x1 ADD SWAP1 PUSH1 0x20 ADD DUP1 DUP4 GT PUSH2 0xEE2 JUMPI DUP3 SWAP1 SUB PUSH1 0x1F AND DUP3 ADD SWAP2 JUMPDEST POP POP POP SWAP2 SWAP1 SWAP3 MSTORE POP POP POP DUP2 MSTORE PUSH1 0x4 DUP3 ADD SLOAD PUSH1 0x20 SWAP1 SWAP2 ADD SWAP1 PUSH1 0xFF AND PUSH1 0x6 DUP2 GT ISZERO PUSH2 0xF2A JUMPI PUSH2 0xF2A PUSH2 0x3F46 JUMP JUMPDEST PUSH1 0x6 DUP2 GT ISZERO PUSH2 0xF3B JUMPI PUSH2 0xF3B PUSH2 0x3F46 JUMP JUMPDEST DUP2 MSTORE PUSH1 0x20 ADD PUSH1 0x4 DUP3 ADD PUSH1 0x1 SWAP1 SLOAD SWAP1 PUSH2 0x100 EXP SWAP1 DIV PUSH1 0xFF AND PUSH1 0x6 DUP2 GT ISZERO PUSH2 0xF63 JUMPI PUSH2 0xF63 PUSH2 0x3F46 JUMP JUMPDEST PUSH1 0x6 DUP2 GT ISZERO PUSH2 0xF74 JUMPI PUSH2 0xF74 PUSH2 0x3F46 JUMP JUMPDEST SWAP1 MSTORE POP SWAP1 POP PUSH1 0x2 DUP2 PUSH1 0x80 ADD MLOAD PUSH1 0x6 DUP2 GT ISZERO PUSH2 0xF91 JUMPI PUSH2 0xF91 PUSH2 0x3F46 JUMP JUMPDEST EQ PUSH2 0xFAF JUMPI PUSH1 0x40 MLOAD PUSH4 0x392C16FB PUSH1 0xE2 SHL DUP2 MSTORE PUSH1 0x4 ADD PUSH1 0x40 MLOAD DUP1 SWAP2 SUB SWAP1 REVERT JUMPDEST PUSH1 0x1 PUSH1 0x1 PUSH1 0xA0 SHL SUB DUP5 AND PUSH1 0x0 SWAP1 DUP2 MSTORE PUSH1 0x11 PUSH1 0x20 MSTORE PUSH1 0x40 SWAP1 KECCAK256 DUP1 SLOAD DUP5 GT ISZERO PUSH2 0xFE9 JUMPI PUSH1 0x40 MLOAD PUSH4 0x2F1F68E1 PUSH1 0xE1 SHL DUP2 MSTORE PUSH1 0x4 ADD PUSH1 0x40 MLOAD DUP1 SWAP2 SUB SWAP1 REVERT JUMPDEST PUSH1 0x0 DUP2 DUP6 DUP2 SLOAD DUP2 LT PUSH2 0xFFD JUMPI PUSH2 0xFFD PUSH2 0x460E JUMP JUMPDEST PUSH1 0x0 SWAP2 DUP3 MSTORE PUSH1 0x20 SWAP1 SWAP2 KECCAK256 PUSH1 0x5 SWAP1 SWAP2 MUL ADD SWAP1 POP PUSH1 0x2 PUSH1 0x3 DUP3 ADD SLOAD PUSH1 0xFF AND PUSH1 0x6 DUP2 GT ISZERO PUSH2 0x102A JUMPI PUSH2 0x102A PUSH2 0x3F46 JUMP JUMPDEST SUB PUSH2 0x1048 JUMPI PUSH1 0x40 MLOAD PUSH4 0x7F46ED27 PUSH1 0xE1 SHL DUP2 MSTORE PUSH1 0x4 ADD PUSH1 0x40 MLOAD DUP1 SWAP2 SUB SWAP1 REVERT JUMPDEST DUP4 PUSH1 0x1 DUP3 ADD PUSH2 0x1057 DUP3 DUP3 PUSH2 0x4672 JUMP JUMPDEST POP POP PUSH1 0x3 DUP2 ADD DUP1 SLOAD PUSH1 0xFF NOT AND PUSH1 0x1 OR SWAP1 SSTORE PUSH1 0x40 MLOAD PUSH32 0x8673CFB5A2CBAD812463BDFD7C85511F29C804579A86D318889AB92515539961 SWAP1 PUSH2 0x109C SWAP1 DUP9 SWAP1 DUP9 SWAP1 DUP9 SWAP1 PUSH2 0x476A JUMP JUMPDEST PUSH1 0x40 MLOAD DUP1 SWAP2 SUB SWAP1 LOG1 POP POP POP POP POP POP JUMP JUMPDEST PUSH1 0x0 PUSH2 0x8E6 DUP3 PUSH2 0x2759 JUMP JUMPDEST PUSH2 0x10BF PUSH2 0x3B20 JUMP JUMPDEST PUSH2 0x8E6 DUP3 PUSH2 0x27FE JUMP JUMPDEST PUSH1 0x0 CALLER PUSH1 0x1 PUSH1 0x1 PUSH1 0xA0 SHL SUB DUP5 AND EQ DUP1 PUSH2 0x10E6 JUMPI POP PUSH2 0x10E6 DUP4 CALLER PUSH2 0x296E JUMP JUMPDEST SWAP1 POP DUP1 PUSH2 0x1106 JUMPI PUSH1 0x40 MLOAD PUSH4 0x75FD2B1 PUSH1 0xE0 SHL DUP2 MSTORE PUSH1 0x4 ADD PUSH1 0x40 MLOAD DUP1 SWAP2 SUB SWAP1 REVERT JUMPDEST PUSH1 0x1 PUSH1 0x1 PUSH1 0xA0 SHL SUB DUP4 AND PUSH1 0x0 SWAP1 DUP2 MSTORE PUSH1 0xB PUSH1 0x20 MSTORE PUSH1 0x40 SWAP1 KECCAK256 PUSH1 0x2 PUSH1 0x4 DUP3 ADD SLOAD PUSH1 0xFF AND PUSH1 0x6 DUP2 GT ISZERO PUSH2 0x1139 JUMPI PUSH2 0x1139 PUSH2 0x3F46 JUMP JUMPDEST EQ PUSH2 0x1157 JUMPI PUSH1 0x40 MLOAD PUSH4 0x392C16FB PUSH1 0xE2 SHL DUP2 MSTORE PUSH1 0x4 ADD PUSH1 0x40 MLOAD DUP1 SWAP2 SUB SWAP1 REVERT JUMPDEST PUSH1 0x2 PUSH1 0x4 DUP3 ADD SLOAD PUSH2 0x100 SWAP1 DIV PUSH1 0xFF AND PUSH1 0x6 DUP2 GT ISZERO PUSH2 0x1177 JUMPI PUSH2 0x1177 PUSH2 0x3F46 JUMP JUMPDEST SUB PUSH2 0x1195 JUMPI PUSH1 0x40 MLOAD PUSH4 0x5CA31D3 PUSH1 0xE5 SHL DUP2 MSTORE PUSH1 0x4 ADD PUSH1 0x40 MLOAD DUP1 SWAP2 SUB SWAP1 REVERT JUMPDEST PUSH2 0x119E DUP5 PUSH2 0x2A66 JUMP JUMPDEST PUSH1 0x0 JUMPDEST DUP4 MLOAD DUP2 LT ISZERO PUSH2 0x1278 JUMPI PUSH1 0x1 PUSH1 0x1 PUSH1 0xA0 SHL SUB DUP6 AND PUSH1 0x0 SWAP1 DUP2 MSTORE PUSH1 0xD PUSH1 0x20 MSTORE PUSH1 0x40 SWAP1 KECCAK256 DUP5 MLOAD DUP6 SWAP1 DUP4 SWAP1 DUP2 LT PUSH2 0x11D6 JUMPI PUSH2 0x11D6 PUSH2 0x460E JUMP JUMPDEST PUSH1 0x20 SWAP1 DUP2 MUL SWAP2 SWAP1 SWAP2 ADD DUP2 ADD MLOAD DUP3 SLOAD PUSH1 0x1 DUP2 DUP2 ADD DUP6 SSTORE PUSH1 0x0 SWAP5 DUP6 MSTORE SWAP4 DUP4 SWAP1 KECCAK256 DUP3 MLOAD PUSH1 0x5 SWAP1 SWAP3 MUL ADD SWAP1 DUP2 SSTORE DUP2 DUP4 ADD MLOAD DUP1 MLOAD SWAP5 DUP3 ADD SWAP5 DUP6 SSTORE SWAP3 DUP4 ADD MLOAD SWAP2 SWAP4 SWAP1 SWAP3 SWAP2 PUSH1 0x2 DUP5 ADD SWAP1 PUSH2 0x1223 SWAP1 DUP3 PUSH2 0x4803 JUMP JUMPDEST POP POP POP PUSH1 0x40 DUP3 ADD MLOAD PUSH1 0x3 DUP3 ADD DUP1 SLOAD PUSH1 0xFF NOT AND PUSH1 0x1 DUP4 PUSH1 0x6 DUP2 GT ISZERO PUSH2 0x1249 JUMPI PUSH2 0x1249 PUSH2 0x3F46 JUMP JUMPDEST MUL OR SWAP1 SSTORE POP PUSH1 0x60 DUP3 ADD MLOAD PUSH1 0x4 DUP3 ADD SWAP1 PUSH2 0x1262 SWAP1 DUP3 PUSH2 0x4803 JUMP JUMPDEST POP POP POP DUP1 DUP1 PUSH2 0x1270 SWAP1 PUSH2 0x48D8 JUMP JUMPDEST SWAP2 POP POP PUSH2 0x11A1 JUMP JUMPDEST POP DUP3 MLOAD PUSH1 0x40 DUP1 MLOAD PUSH1 0x1 PUSH1 0x1 PUSH1 0xA0 SHL SUB DUP8 AND DUP2 MSTORE PUSH1 0x20 DUP2 ADD SWAP3 SWAP1 SWAP3 MSTORE PUSH32 0x8A5603111F154F43104AFE04452C6A93024A972CB6A0AF72E6F38BCCE68625D5 SWAP2 ADD PUSH1 0x40 MLOAD DUP1 SWAP2 SUB SWAP1 LOG1 POP POP POP POP JUMP JUMPDEST CALLER PUSH2 0x12CE DUP2 PUSH2 0x2B20 JUMP JUMPDEST PUSH1 0x0 DUP4 DUP2 MSTORE PUSH1 0x13 PUSH1 0x20 SWAP1 DUP2 MSTORE PUSH1 0x40 DUP1 DUP4 KECCAK256 CALLER DUP5 MSTORE PUSH1 0x2 ADD SWAP1 SWAP2 MSTORE SWAP1 KECCAK256 SLOAD ISZERO PUSH2 0x1309 JUMPI PUSH1 0x40 MLOAD PUSH4 0x448BAE6F PUSH1 0xE0 SHL DUP2 MSTORE PUSH1 0x4 ADD PUSH1 0x40 MLOAD DUP1 SWAP2 SUB SWAP1 REVERT JUMPDEST PUSH1 0x1 PUSH1 0x1 PUSH1 0xA0 SHL SUB DUP1 DUP6 AND PUSH1 0x0 SWAP1 DUP2 MSTORE PUSH1 0xB PUSH1 0x20 SWAP1 DUP2 MSTORE PUSH1 0x40 DUP1 DUP4 KECCAK256 DUP2 MLOAD PUSH1 0xC0 DUP2 ADD DUP4 MSTORE DUP2 SLOAD PUSH1 0xFF DUP2 AND ISZERO ISZERO DUP3 MSTORE PUSH2 0x100 SWAP1 DIV SWAP1 SWAP6 AND DUP6 DUP5 ADD MSTORE PUSH1 0x1 DUP2 ADD SLOAD DUP6 DUP4 ADD MSTORE DUP2 MLOAD DUP1 DUP4 ADD SWAP1 SWAP3 MSTORE PUSH1 0x2 DUP2 ADD DUP1 SLOAD DUP4 MSTORE PUSH1 0x3 DUP3 ADD DUP1 SLOAD SWAP6 SWAP7 SWAP6 SWAP3 SWAP5 PUSH1 0x60 DUP8 ADD SWAP5 SWAP4 SWAP1 DUP5 ADD SWAP2 SWAP1 PUSH2 0x137B SWAP1 PUSH2 0x45A9 JUMP JUMPDEST DUP1 PUSH1 0x1F ADD PUSH1 0x20 DUP1 SWAP2 DIV MUL PUSH1 0x20 ADD PUSH1 0x40 MLOAD SWAP1 DUP2 ADD PUSH1 0x40 MSTORE DUP1 SWAP3 SWAP2 SWAP1 DUP2 DUP2 MSTORE PUSH1 0x20 ADD DUP3 DUP1 SLOAD PUSH2 0x13A7 SWAP1 PUSH2 0x45A9 JUMP JUMPDEST DUP1 ISZERO PUSH2 0x13F4 JUMPI DUP1 PUSH1 0x1F LT PUSH2 0x13C9 JUMPI PUSH2 0x100 DUP1 DUP4 SLOAD DIV MUL DUP4 MSTORE SWAP2 PUSH1 0x20 ADD SWAP2 PUSH2 0x13F4 JUMP JUMPDEST DUP3 ADD SWAP2 SWAP1 PUSH1 0x0 MSTORE PUSH1 0x20 PUSH1 0x0 KECCAK256 SWAP1 JUMPDEST DUP2 SLOAD DUP2 MSTORE SWAP1 PUSH1 0x1 ADD SWAP1 PUSH1 0x20 ADD DUP1 DUP4 GT PUSH2 0x13D7 JUMPI DUP3 SWAP1 SUB PUSH1 0x1F AND DUP3 ADD SWAP2 JUMPDEST POP POP POP SWAP2 SWAP1 SWAP3 MSTORE POP POP POP DUP2 MSTORE PUSH1 0x4 DUP3 ADD SLOAD PUSH1 0x20 SWAP1 SWAP2 ADD SWAP1 PUSH1 0xFF AND PUSH1 0x6 DUP2 GT ISZERO PUSH2 0x141F JUMPI PUSH2 0x141F PUSH2 0x3F46 JUMP JUMPDEST PUSH1 0x6 DUP2 GT ISZERO PUSH2 0x1430 JUMPI PUSH2 0x1430 PUSH2 0x3F46 JUMP JUMPDEST DUP2 MSTORE PUSH1 0x20 ADD PUSH1 0x4 DUP3 ADD PUSH1 0x1 SWAP1 SLOAD SWAP1 PUSH2 0x100 EXP SWAP1 DIV PUSH1 0xFF AND PUSH1 0x6 DUP2 GT ISZERO PUSH2 0x1458 JUMPI PUSH2 0x1458 PUSH2 0x3F46 JUMP JUMPDEST PUSH1 0x6 DUP2 GT ISZERO PUSH2 0x1469 JUMPI PUSH2 0x1469 PUSH2 0x3F46 JUMP JUMPDEST SWAP1 MSTORE POP SWAP1 POP PUSH1 0x2 DUP2 PUSH1 0x80 ADD MLOAD PUSH1 0x6 DUP2 GT ISZERO PUSH2 0x1486 JUMPI PUSH2 0x1486 PUSH2 0x3F46 JUMP JUMPDEST EQ PUSH2 0x14A4 JUMPI PUSH1 0x40 MLOAD PUSH4 0x392C16FB PUSH1 0xE2 SHL DUP2 MSTORE PUSH1 0x4 ADD PUSH1 0x40 MLOAD DUP1 SWAP2 SUB SWAP1 REVERT JUMPDEST PUSH1 0x1 PUSH1 0x1 PUSH1 0xA0 SHL SUB DUP6 AND PUSH1 0x0 SWAP1 DUP2 MSTORE PUSH1 0x11 PUSH1 0x20 MSTORE PUSH1 0x40 SWAP1 KECCAK256 DUP1 SLOAD DUP6 GT ISZERO PUSH2 0x14DE JUMPI PUSH1 0x40 MLOAD PUSH4 0x2F1F68E1 PUSH1 0xE1 SHL DUP2 MSTORE PUSH1 0x4 ADD PUSH1 0x40 MLOAD DUP1 SWAP2 SUB SWAP1 REVERT JUMPDEST PUSH1 0x0 DUP2 DUP7 DUP2 SLOAD DUP2 LT PUSH2 0x14F2 JUMPI PUSH2 0x14F2 PUSH2 0x460E JUMP JUMPDEST PUSH1 0x0 SWAP2 DUP3 MSTORE PUSH1 0x20 SWAP1 SWAP2 KECCAK256 PUSH1 0x5 SWAP1 SWAP2 MUL ADD SWAP1 POP PUSH1 0x1 PUSH1 0x3 DUP3 ADD SLOAD PUSH1 0xFF AND PUSH1 0x6 DUP2 GT ISZERO PUSH2 0x151F JUMPI PUSH2 0x151F PUSH2 0x3F46 JUMP JUMPDEST EQ PUSH2 0x153D JUMPI PUSH1 0x40 MLOAD PUSH4 0x5B2FE71D PUSH1 0xE1 SHL DUP2 MSTORE PUSH1 0x4 ADD PUSH1 0x40 MLOAD DUP1 SWAP2 SUB SWAP1 REVERT JUMPDEST CALLER PUSH1 0x0 SWAP1 DUP2 MSTORE PUSH1 0xC PUSH1 0x20 MSTORE PUSH1 0x40 DUP2 KECCAK256 SLOAD PUSH1 0x6 SLOAD PUSH1 0x5 SLOAD SWAP2 SWAP3 SWAP2 PUSH1 0x64 SWAP2 PUSH2 0x1562 SWAP2 PUSH2 0x48F1 JUMP JUMPDEST PUSH2 0x156C SWAP2 SWAP1 PUSH2 0x4908 JUMP JUMPDEST PUSH1 0x0 DUP10 DUP2 MSTORE PUSH1 0x13 PUSH1 0x20 SWAP1 DUP2 MSTORE PUSH1 0x40 DUP1 DUP4 KECCAK256 CALLER DUP5 MSTORE PUSH1 0x2 SWAP1 DUP2 ADD SWAP1 SWAP3 MSTORE SWAP1 SWAP2 KECCAK256 DUP5 SWAP1 SSTORE SWAP1 SWAP2 POP DUP8 PUSH1 0x6 DUP2 GT ISZERO PUSH2 0x15A3 JUMPI PUSH2 0x15A3 PUSH2 0x3F46 JUMP JUMPDEST SUB PUSH2 0x1710 JUMPI PUSH1 0x0 DUP9 DUP2 MSTORE PUSH1 0x13 PUSH1 0x20 MSTORE PUSH1 0x40 DUP2 KECCAK256 DUP1 SLOAD DUP5 SWAP3 SWAP1 PUSH2 0x15C6 SWAP1 DUP5 SWAP1 PUSH2 0x492A JUMP JUMPDEST SWAP1 SWAP2 SSTORE POP POP PUSH1 0x0 DUP9 DUP2 MSTORE PUSH1 0x13 PUSH1 0x20 MSTORE PUSH1 0x40 SWAP1 KECCAK256 SLOAD DUP2 LT ISZERO PUSH2 0x170B JUMPI PUSH1 0x3 DUP4 ADD DUP1 SLOAD DUP9 SWAP2 SWAP1 PUSH1 0xFF NOT AND PUSH1 0x1 DUP4 PUSH1 0x6 DUP2 GT ISZERO PUSH2 0x1602 JUMPI PUSH2 0x1602 PUSH2 0x3F46 JUMP JUMPDEST MUL OR SWAP1 SSTORE POP PUSH1 0x40 DUP1 MLOAD PUSH1 0x1 DUP1 DUP3 MSTORE DUP2 DUP4 ADD SWAP1 SWAP3 MSTORE PUSH1 0x0 SWAP2 PUSH1 0x20 DUP1 DUP4 ADD SWAP1 DUP1 CALLDATASIZE DUP4 CALLDATACOPY ADD SWAP1 POP POP SWAP1 POP DUP10 DUP2 PUSH1 0x0 DUP2 MLOAD DUP2 LT PUSH2 0x163D JUMPI PUSH2 0x163D PUSH2 0x460E JUMP JUMPDEST PUSH1 0x1 PUSH1 0x1 PUSH1 0xA0 SHL SUB SWAP3 DUP4 AND PUSH1 0x20 SWAP2 DUP3 MUL SWAP3 SWAP1 SWAP3 ADD ADD MSTORE PUSH1 0x1 SLOAD PUSH1 0x40 MLOAD PUSH4 0x1D2FDEC9 PUSH1 0xE1 SHL DUP2 MSTORE PUSH32 0x0 SWAP1 SWAP3 AND SWAP2 PUSH4 0x3A5FBD92 SWAP2 PUSH2 0x169C SWAP2 DUP6 SWAP1 PUSH1 0x4 ADD PUSH2 0x493D JUMP JUMPDEST PUSH1 0x0 PUSH1 0x40 MLOAD DUP1 DUP4 SUB DUP2 PUSH1 0x0 DUP8 DUP1 EXTCODESIZE ISZERO DUP1 ISZERO PUSH2 0x16B6 JUMPI PUSH1 0x0 DUP1 REVERT JUMPDEST POP GAS CALL ISZERO DUP1 ISZERO PUSH2 0x16CA JUMPI RETURNDATASIZE PUSH1 0x0 DUP1 RETURNDATACOPY RETURNDATASIZE PUSH1 0x0 REVERT JUMPDEST POP POP POP POP PUSH32 0xF1AF82B65C631A030029B10EA8F00F68290285C7C797644155B8F23969CA1D63 DUP11 DUP11 DUP11 PUSH1 0x40 MLOAD PUSH2 0x1701 SWAP4 SWAP3 SWAP2 SWAP1 PUSH2 0x49A4 JUMP JUMPDEST PUSH1 0x40 MLOAD DUP1 SWAP2 SUB SWAP1 LOG1 POP JUMPDEST PUSH2 0x1854 JUMP JUMPDEST PUSH1 0x3 DUP8 PUSH1 0x6 DUP2 GT ISZERO PUSH2 0x1724 JUMPI PUSH2 0x1724 PUSH2 0x3F46 JUMP JUMPDEST SUB PUSH2 0x1854 JUMPI PUSH1 0x0 DUP9 DUP2 MSTORE PUSH1 0x13 PUSH1 0x20 MSTORE PUSH1 0x40 DUP2 KECCAK256 PUSH1 0x1 ADD DUP1 SLOAD DUP5 SWAP3 SWAP1 PUSH2 0x174A SWAP1 DUP5 SWAP1 PUSH2 0x492A JUMP JUMPDEST SWAP1 SWAP2 SSTORE POP POP PUSH1 0x0 DUP9 DUP2 MSTORE PUSH1 0x13 PUSH1 0x20 MSTORE PUSH1 0x40 SWAP1 KECCAK256 PUSH1 0x1 ADD SLOAD DUP2 LT ISZERO PUSH2 0x1854 JUMPI PUSH1 0x3 DUP4 ADD DUP1 SLOAD DUP9 SWAP2 SWAP1 PUSH1 0xFF NOT AND PUSH1 0x1 DUP4 PUSH1 0x6 DUP2 GT ISZERO PUSH2 0x1789 JUMPI PUSH2 0x1789 PUSH2 0x3F46 JUMP JUMPDEST MUL OR SWAP1 SSTORE POP PUSH1 0x0 JUMPDEST PUSH1 0xA SLOAD DUP2 LT ISZERO PUSH2 0x17FF JUMPI PUSH1 0x0 PUSH1 0x13 PUSH1 0x0 DUP12 DUP2 MSTORE PUSH1 0x20 ADD SWAP1 DUP2 MSTORE PUSH1 0x20 ADD PUSH1 0x0 KECCAK256 PUSH1 0x2 ADD PUSH1 0x0 PUSH1 0xA DUP5 DUP2 SLOAD DUP2 LT PUSH2 0x17C8 JUMPI PUSH2 0x17C8 PUSH2 0x460E JUMP JUMPDEST PUSH1 0x0 SWAP2 DUP3 MSTORE PUSH1 0x20 DUP1 DUP4 KECCAK256 SWAP1 SWAP2 ADD SLOAD PUSH1 0x1 PUSH1 0x1 PUSH1 0xA0 SHL SUB AND DUP4 MSTORE DUP3 ADD SWAP3 SWAP1 SWAP3 MSTORE PUSH1 0x40 ADD SWAP1 KECCAK256 SSTORE DUP1 PUSH2 0x17F7 DUP2 PUSH2 0x48D8 JUMP JUMPDEST SWAP2 POP POP PUSH2 0x1791 JUMP JUMPDEST POP PUSH1 0x0 DUP9 DUP2 MSTORE PUSH1 0x13 PUSH1 0x20 MSTORE PUSH1 0x40 DUP1 DUP3 KECCAK256 DUP3 DUP2 SSTORE PUSH1 0x1 ADD SWAP2 SWAP1 SWAP2 SSTORE MLOAD PUSH32 0xF1AF82B65C631A030029B10EA8F00F68290285C7C797644155B8F23969CA1D63 SWAP1 PUSH2 0x184B SWAP1 DUP12 SWAP1 DUP12 SWAP1 DUP12 SWAP1 PUSH2 0x49A4 JUMP JUMPDEST PUSH1 0x40 MLOAD DUP1 SWAP2 SUB SWAP1 LOG1 JUMPDEST PUSH32 0x4460BEB477B3843656610A89BD67C551D2A78131B5A955DDCCD5EB9AA218C8C3 DUP10 DUP10 DUP10 PUSH1 0x40 MLOAD PUSH2 0x1887 SWAP4 SWAP3 SWAP2 SWAP1 PUSH2 0x49A4 JUMP JUMPDEST PUSH1 0x40 MLOAD DUP1 SWAP2 SUB SWAP1 LOG1 POP POP POP POP POP POP POP POP POP JUMP JUMPDEST DUP2 MLOAD DUP2 MLOAD PUSH1 0x60 SWAP2 SWAP1 DUP2 EQ PUSH2 0x18C1 JUMPI PUSH1 0x40 MLOAD PUSH4 0x3DA4C02B PUSH1 0xE1 SHL DUP2 MSTORE PUSH1 0x4 ADD PUSH1 0x40 MLOAD DUP1 SWAP2 SUB SWAP1 REVERT JUMPDEST PUSH1 0x0 DUP2 PUSH1 0x1 PUSH1 0x1 PUSH1 0x40 SHL SUB DUP2 GT ISZERO PUSH2 0x18DB JUMPI PUSH2 0x18DB PUSH2 0x3C2D JUMP JUMPDEST PUSH1 0x40 MLOAD SWAP1 DUP1 DUP3 MSTORE DUP1 PUSH1 0x20 MUL PUSH1 0x20 ADD DUP3 ADD PUSH1 0x40 MSTORE DUP1 ISZERO PUSH2 0x1920 JUMPI DUP2 PUSH1 0x20 ADD JUMPDEST PUSH1 0x40 DUP1 MLOAD DUP1 DUP3 ADD SWAP1 SWAP2 MSTORE PUSH1 0x0 DUP1 DUP3 MSTORE PUSH1 0x20 DUP3 ADD MSTORE DUP2 MSTORE PUSH1 0x20 ADD SWAP1 PUSH1 0x1 SWAP1 SUB SWAP1 DUP2 PUSH2 0x18F9 JUMPI SWAP1 POP JUMPDEST POP SWAP1 POP PUSH1 0x0 JUMPDEST DUP3 DUP2 LT ISZERO PUSH2 0x198F JUMPI PUSH2 0x196A DUP7 DUP3 DUP2 MLOAD DUP2 LT PUSH2 0x1943 JUMPI PUSH2 0x1943 PUSH2 0x460E JUMP JUMPDEST PUSH1 0x20 MUL PUSH1 0x20 ADD ADD MLOAD DUP7 DUP4 DUP2 MLOAD DUP2 LT PUSH2 0x195D JUMPI PUSH2 0x195D PUSH2 0x460E JUMP JUMPDEST PUSH1 0x20 MUL PUSH1 0x20 ADD ADD MLOAD PUSH2 0x2BD2 JUMP JUMPDEST DUP3 DUP3 DUP2 MLOAD DUP2 LT PUSH2 0x197C JUMPI PUSH2 0x197C PUSH2 0x460E JUMP JUMPDEST PUSH1 0x20 SWAP1 DUP2 MUL SWAP2 SWAP1 SWAP2 ADD ADD MSTORE PUSH1 0x1 ADD PUSH2 0x1926 JUMP JUMPDEST POP SWAP5 SWAP4 POP POP POP POP JUMP JUMPDEST CALLER PUSH2 0x19A2 DUP2 PUSH2 0x2B20 JUMP JUMPDEST PUSH1 0x1 PUSH1 0x1 PUSH1 0xA0 SHL SUB DUP4 AND PUSH1 0x0 SWAP1 DUP2 MSTORE PUSH1 0xD PUSH1 0x20 SWAP1 DUP2 MSTORE PUSH1 0x40 DUP1 DUP4 KECCAK256 CALLER DUP5 MSTORE PUSH1 0x3 ADD SWAP1 SWAP2 MSTORE SWAP1 KECCAK256 SLOAD ISZERO PUSH2 0x19E7 JUMPI PUSH1 0x40 MLOAD PUSH4 0x448BAE6F PUSH1 0xE0 SHL DUP2 MSTORE PUSH1 0x4 ADD PUSH1 0x40 MLOAD DUP1 SWAP2 SUB SWAP1 REVERT JUMPDEST PUSH1 0x1 PUSH1 0x1 PUSH1 0xA0 SHL SUB DUP4 AND PUSH1 0x0 SWAP1 DUP2 MSTORE PUSH1 0xB PUSH1 0x20 MSTORE PUSH1 0x40 SWAP1 KECCAK256 PUSH1 0x2 PUSH1 0x4 DUP3 ADD SLOAD PUSH2 0x100 SWAP1 DIV PUSH1 0xFF AND PUSH1 0x6 DUP2 GT ISZERO PUSH2 0x1A1F JUMPI PUSH2 0x1A1F PUSH2 0x3F46 JUMP JUMPDEST SUB PUSH2 0x1A3D JUMPI PUSH1 0x40 MLOAD PUSH4 0x5CA31D3 PUSH1 0xE5 SHL DUP2 MSTORE PUSH1 0x4 ADD PUSH1 0x40 MLOAD DUP1 SWAP2 SUB SWAP1 REVERT JUMPDEST CALLER PUSH1 0x0 SWAP1 DUP2 MSTORE PUSH1 0xC PUSH1 0x20 MSTORE PUSH1 0x40 DUP2 KECCAK256 SLOAD PUSH1 0x6 SLOAD PUSH1 0x5 SLOAD SWAP2 SWAP3 SWAP2 PUSH1 0x64 SWAP2 PUSH2 0x1A62 SWAP2 PUSH2 0x48F1 JUMP JUMPDEST PUSH2 0x1A6C SWAP2 SWAP1 PUSH2 0x4908 JUMP JUMPDEST PUSH1 0x1 PUSH1 0x1 PUSH1 0xA0 SHL SUB DUP8 AND PUSH1 0x0 SWAP1 DUP2 MSTORE PUSH1 0xD PUSH1 0x20 SWAP1 DUP2 MSTORE PUSH1 0x40 DUP1 DUP4 KECCAK256 CALLER DUP5 MSTORE PUSH1 0x3 ADD SWAP1 SWAP2 MSTORE SWAP1 KECCAK256 DUP4 SWAP1 SSTORE SWAP1 POP PUSH1 0x2 DUP6 PUSH1 0x6 DUP2 GT ISZERO PUSH2 0x1AAB JUMPI PUSH2 0x1AAB PUSH2 0x3F46 JUMP JUMPDEST SUB PUSH2 0x1D73 JUMPI PUSH1 0x1 PUSH1 0x1 PUSH1 0xA0 SHL SUB DUP7 AND PUSH1 0x0 SWAP1 DUP2 MSTORE PUSH1 0xD PUSH1 0x20 MSTORE PUSH1 0x40 DUP2 KECCAK256 PUSH1 0x1 ADD DUP1 SLOAD DUP5 SWAP3 SWAP1 PUSH2 0x1ADB SWAP1 DUP5 SWAP1 PUSH2 0x492A JUMP JUMPDEST SWAP1 SWAP2 SSTORE POP POP PUSH1 0x1 PUSH1 0x1 PUSH1 0xA0 SHL SUB DUP7 AND PUSH1 0x0 SWAP1 DUP2 MSTORE PUSH1 0xD PUSH1 0x20 MSTORE PUSH1 0x40 SWAP1 KECCAK256 PUSH1 0x1 ADD SLOAD DUP2 LT ISZERO PUSH2 0x1D6E JUMPI PUSH1 0x1 PUSH1 0x1 PUSH1 0xA0 SHL SUB DUP7 AND PUSH1 0x0 SWAP1 DUP2 MSTORE PUSH1 0xB PUSH1 0x20 MSTORE PUSH1 0x40 SWAP1 KECCAK256 PUSH1 0x4 ADD DUP1 SLOAD DUP7 SWAP2 SWAP1 PUSH2 0xFF00 NOT AND PUSH2 0x100 DUP4 PUSH1 0x6 DUP2 GT ISZERO PUSH2 0x1B3D JUMPI PUSH2 0x1B3D PUSH2 0x3F46 JUMP JUMPDEST MUL OR SWAP1 SSTORE POP PUSH1 0x1 PUSH1 0x1 PUSH1 0xA0 SHL SUB DUP7 AND PUSH1 0x0 SWAP1 DUP2 MSTORE PUSH1 0xD PUSH1 0x20 SWAP1 DUP2 MSTORE PUSH1 0x40 DUP1 DUP4 KECCAK256 DUP1 SLOAD DUP3 MLOAD DUP2 DUP6 MUL DUP2 ADD DUP6 ADD SWAP1 SWAP4 MSTORE DUP1 DUP4 MSTORE PUSH2 0x1D31 SWAP5 DUP12 SWAP5 DUP5 ADD JUMPDEST DUP3 DUP3 LT ISZERO PUSH2 0x1D28 JUMPI DUP4 DUP3 SWAP1 PUSH1 0x0 MSTORE PUSH1 0x20 PUSH1 0x0 KECCAK256 SWAP1 PUSH1 0x5 MUL ADD PUSH1 0x40 MLOAD DUP1 PUSH1 0x80 ADD PUSH1 0x40 MSTORE SWAP1 DUP2 PUSH1 0x0 DUP3 ADD SLOAD DUP2 MSTORE PUSH1 0x20 ADD PUSH1 0x1 DUP3 ADD PUSH1 0x40 MLOAD DUP1 PUSH1 0x40 ADD PUSH1 0x40 MSTORE SWAP1 DUP2 PUSH1 0x0 DUP3 ADD SLOAD DUP2 MSTORE PUSH1 0x20 ADD PUSH1 0x1 DUP3 ADD DUP1 SLOAD PUSH2 0x1BCE SWAP1 PUSH2 0x45A9 JUMP JUMPDEST DUP1 PUSH1 0x1F ADD PUSH1 0x20 DUP1 SWAP2 DIV MUL PUSH1 0x20 ADD PUSH1 0x40 MLOAD SWAP1 DUP2 ADD PUSH1 0x40 MSTORE DUP1 SWAP3 SWAP2 SWAP1 DUP2 DUP2 MSTORE PUSH1 0x20 ADD DUP3 DUP1 SLOAD PUSH2 0x1BFA SWAP1 PUSH2 0x45A9 JUMP JUMPDEST DUP1 ISZERO PUSH2 0x1C47 JUMPI DUP1 PUSH1 0x1F LT PUSH2 0x1C1C JUMPI PUSH2 0x100 DUP1 DUP4 SLOAD DIV MUL DUP4 MSTORE SWAP2 PUSH1 0x20 ADD SWAP2 PUSH2 0x1C47 JUMP JUMPDEST DUP3 ADD SWAP2 SWAP1 PUSH1 0x0 MSTORE PUSH1 0x20 PUSH1 0x0 KECCAK256 SWAP1 JUMPDEST DUP2 SLOAD DUP2 MSTORE SWAP1 PUSH1 0x1 ADD SWAP1 PUSH1 0x20 ADD DUP1 DUP4 GT PUSH2 0x1C2A JUMPI DUP3 SWAP1 SUB PUSH1 0x1F AND DUP3 ADD SWAP2 JUMPDEST POP POP POP SWAP2 SWAP1 SWAP3 MSTORE POP POP POP DUP2 MSTORE PUSH1 0x3 DUP3 ADD SLOAD PUSH1 0x20 SWAP1 SWAP2 ADD SWAP1 PUSH1 0xFF AND PUSH1 0x6 DUP2 GT ISZERO PUSH2 0x1C72 JUMPI PUSH2 0x1C72 PUSH2 0x3F46 JUMP JUMPDEST PUSH1 0x6 DUP2 GT ISZERO PUSH2 0x1C83 JUMPI PUSH2 0x1C83 PUSH2 0x3F46 JUMP JUMPDEST DUP2 MSTORE PUSH1 0x20 ADD PUSH1 0x4 DUP3 ADD DUP1 SLOAD PUSH2 0x1C97 SWAP1 PUSH2 0x45A9 JUMP JUMPDEST DUP1 PUSH1 0x1F ADD PUSH1 0x20 DUP1 SWAP2 DIV MUL PUSH1 0x20 ADD PUSH1 0x40 MLOAD SWAP1 DUP2 ADD PUSH1 0x40 MSTORE DUP1 SWAP3 SWAP2 SWAP1 DUP2 DUP2 MSTORE PUSH1 0x20 ADD DUP3 DUP1 SLOAD PUSH2 0x1CC3 SWAP1 PUSH2 0x45A9 JUMP JUMPDEST DUP1 ISZERO PUSH2 0x1D10 JUMPI DUP1 PUSH1 0x1F LT PUSH2 0x1CE5 JUMPI PUSH2 0x100 DUP1 DUP4 SLOAD DIV MUL DUP4 MSTORE SWAP2 PUSH1 0x20 ADD SWAP2 PUSH2 0x1D10 JUMP JUMPDEST DUP3 ADD SWAP2 SWAP1 PUSH1 0x0 MSTORE PUSH1 0x20 PUSH1 0x0 KECCAK256 SWAP1 JUMPDEST DUP2 SLOAD DUP2 MSTORE SWAP1 PUSH1 0x1 ADD SWAP1 PUSH1 0x20 ADD DUP1 DUP4 GT PUSH2 0x1CF3 JUMPI DUP3 SWAP1 SUB PUSH1 0x1F AND DUP3 ADD SWAP2 JUMPDEST POP POP POP POP POP DUP2 MSTORE POP POP DUP2 MSTORE PUSH1 0x20 ADD SWAP1 PUSH1 0x1 ADD SWAP1 PUSH2 0x1B77 JUMP JUMPDEST POP POP POP POP PUSH2 0x2C1D JUMP JUMPDEST PUSH1 0x40 MLOAD PUSH1 0x1 PUSH1 0x1 PUSH1 0xA0 SHL SUB DUP8 AND DUP2 MSTORE PUSH32 0x7B05D1F85B1AC2E76C0D8DBB0DFA809DF6788F66BBEEB837B2B5FAE4F64C0063 SWAP1 PUSH1 0x20 ADD PUSH1 0x40 MLOAD DUP1 SWAP2 SUB SWAP1 LOG1 JUMPDEST PUSH2 0x1E64 JUMP JUMPDEST PUSH1 0x3 DUP6 PUSH1 0x6 DUP2 GT ISZERO PUSH2 0x1D87 JUMPI PUSH2 0x1D87 PUSH2 0x3F46 JUMP JUMPDEST SUB PUSH2 0x1E64 JUMPI PUSH1 0x1 PUSH1 0x1 PUSH1 0xA0 SHL SUB DUP7 AND PUSH1 0x0 SWAP1 DUP2 MSTORE PUSH1 0xD PUSH1 0x20 MSTORE PUSH1 0x40 DUP2 KECCAK256 PUSH1 0x2 ADD DUP1 SLOAD DUP5 SWAP3 SWAP1 PUSH2 0x1DB7 SWAP1 DUP5 SWAP1 PUSH2 0x492A JUMP JUMPDEST SWAP1 SWAP2 SSTORE POP POP PUSH1 0x1 PUSH1 0x1 PUSH1 0xA0 SHL SUB DUP7 AND PUSH1 0x0 SWAP1 DUP2 MSTORE PUSH1 0xD PUSH1 0x20 MSTORE PUSH1 0x40 SWAP1 KECCAK256 PUSH1 0x2 ADD SLOAD DUP2 LT ISZERO PUSH2 0x1E64 JUMPI PUSH1 0x1 PUSH1 0x1 PUSH1 0xA0 SHL SUB DUP7 AND PUSH1 0x0 SWAP1 DUP2 MSTORE PUSH1 0xB PUSH1 0x20 MSTORE PUSH1 0x40 SWAP1 KECCAK256 PUSH1 0x4 ADD DUP1 SLOAD DUP7 SWAP2 SWAP1 PUSH2 0xFF00 NOT AND PUSH2 0x100 DUP4 PUSH1 0x6 DUP2 GT ISZERO PUSH2 0x1E19 JUMPI PUSH2 0x1E19 PUSH2 0x3F46 JUMP JUMPDEST MUL OR SWAP1 SSTORE POP PUSH2 0x1E27 DUP7 PUSH2 0x2A66 JUMP JUMPDEST PUSH1 0x40 MLOAD PUSH1 0x1 PUSH1 0x1 PUSH1 0xA0 SHL SUB DUP8 AND DUP2 MSTORE PUSH32 0x5A90817477DD8F83CFE5D429E1DC84AD5A25CB72B83291C707C6F8F5C4F2AC84 SWAP1 PUSH1 0x20 ADD PUSH1 0x40 MLOAD DUP1 SWAP2 SUB SWAP1 LOG1 JUMPDEST PUSH32 0x30DAE55C386C6176F3F7B7EE6AD4DF33970F2E442CB0142E978CF78FD8AE138D DUP7 DUP7 PUSH1 0x40 MLOAD PUSH2 0x109C SWAP3 SWAP2 SWAP1 PUSH2 0x49C8 JUMP JUMPDEST PUSH1 0x11 PUSH1 0x20 MSTORE DUP2 PUSH1 0x0 MSTORE PUSH1 0x40 PUSH1 0x0 KECCAK256 DUP2 DUP2 SLOAD DUP2 LT PUSH2 0x1EB1 JUMPI PUSH1 0x0 DUP1 REVERT JUMPDEST SWAP1 PUSH1 0x0 MSTORE PUSH1 0x20 PUSH1 0x0 KECCAK256 SWAP1 PUSH1 0x5 MUL ADD PUSH1 0x0 SWAP2 POP SWAP2 POP POP DUP1 PUSH1 0x0 ADD SLOAD SWAP1 DUP1 PUSH1 0x1 ADD PUSH1 0x40 MLOAD DUP1 PUSH1 0x40 ADD PUSH1 0x40 MSTORE SWAP1 DUP2 PUSH1 0x0 DUP3 ADD SLOAD DUP2 MSTORE PUSH1 0x20 ADD PUSH1 0x1 DUP3 ADD DUP1 SLOAD PUSH2 0x1EF5 SWAP1 PUSH2 0x45A9 JUMP JUMPDEST DUP1 PUSH1 0x1F ADD PUSH1 0x20 DUP1 SWAP2 DIV MUL PUSH1 0x20 ADD PUSH1 0x40 MLOAD SWAP1 DUP2 ADD PUSH1 0x40 MSTORE DUP1 SWAP3 SWAP2 SWAP1 DUP2 DUP2 MSTORE PUSH1 0x20 ADD DUP3 DUP1 SLOAD PUSH2 0x1F21 SWAP1 PUSH2 0x45A9 JUMP JUMPDEST DUP1 ISZERO PUSH2 0x1F6E JUMPI DUP1 PUSH1 0x1F LT PUSH2 0x1F43 JUMPI PUSH2 0x100 DUP1 DUP4 SLOAD DIV MUL DUP4 MSTORE SWAP2 PUSH1 0x20 ADD SWAP2 PUSH2 0x1F6E JUMP JUMPDEST DUP3 ADD SWAP2 SWAP1 PUSH1 0x0 MSTORE PUSH1 0x20 PUSH1 0x0 KECCAK256 SWAP1 JUMPDEST DUP2 SLOAD DUP2 MSTORE SWAP1 PUSH1 0x1 ADD SWAP1 PUSH1 0x20 ADD DUP1 DUP4 GT PUSH2 0x1F51 JUMPI DUP3 SWAP1 SUB PUSH1 0x1F AND DUP3 ADD SWAP2 JUMPDEST POP POP POP SWAP2 SWAP1 SWAP3 MSTORE POP POP POP PUSH1 0x3 DUP3 ADD SLOAD PUSH1 0x4 DUP4 ADD DUP1 SLOAD SWAP3 SWAP4 PUSH1 0xFF SWAP1 SWAP3 AND SWAP3 PUSH2 0x1F94 SWAP1 PUSH2 0x45A9 JUMP JUMPDEST DUP1 PUSH1 0x1F ADD PUSH1 0x20 DUP1 SWAP2 DIV MUL PUSH1 0x20 ADD PUSH1 0x40 MLOAD SWAP1 DUP2 ADD PUSH1 0x40 MSTORE DUP1 SWAP3 SWAP2 SWAP1 DUP2 DUP2 MSTORE PUSH1 0x20 ADD DUP3 DUP1 SLOAD PUSH2 0x1FC0 SWAP1 PUSH2 0x45A9 JUMP JUMPDEST DUP1 ISZERO PUSH2 0x200D JUMPI DUP1 PUSH1 0x1F LT PUSH2 0x1FE2 JUMPI PUSH2 0x100 DUP1 DUP4 SLOAD DIV MUL DUP4 MSTORE SWAP2 PUSH1 0x20 ADD SWAP2 PUSH2 0x200D JUMP JUMPDEST DUP3 ADD SWAP2 SWAP1 PUSH1 0x0 MSTORE PUSH1 0x20 PUSH1 0x0 KECCAK256 SWAP1 JUMPDEST DUP2 SLOAD DUP2 MSTORE SWAP1 PUSH1 0x1 ADD SWAP1 PUSH1 0x20 ADD DUP1 DUP4 GT PUSH2 0x1FF0 JUMPI DUP3 SWAP1 SUB PUSH1 0x1F AND DUP3 ADD SWAP2 JUMPDEST POP POP POP POP POP SWAP1 POP DUP5 JUMP JUMPDEST CALLER PUSH2 0x2021 DUP2 PUSH2 0x2B20 JUMP JUMPDEST PUSH1 0x2 DUP3 PUSH1 0x6 DUP2 GT ISZERO PUSH2 0x2035 JUMPI PUSH2 0x2035 PUSH2 0x3F46 JUMP JUMPDEST EQ ISZERO DUP1 ISZERO PUSH2 0x2055 JUMPI POP PUSH1 0x3 DUP3 PUSH1 0x6 DUP2 GT ISZERO PUSH2 0x2052 JUMPI PUSH2 0x2052 PUSH2 0x3F46 JUMP JUMPDEST EQ ISZERO JUMPDEST ISZERO PUSH2 0x2073 JUMPI PUSH1 0x40 MLOAD PUSH4 0x343B80B1 PUSH1 0xE0 SHL DUP2 MSTORE PUSH1 0x4 ADD PUSH1 0x40 MLOAD DUP1 SWAP2 SUB SWAP1 REVERT JUMPDEST CALLER PUSH1 0x0 SWAP1 DUP2 MSTORE PUSH1 0x10 PUSH1 0x20 MSTORE PUSH1 0x40 SWAP1 KECCAK256 SLOAD ISZERO PUSH2 0x20A1 JUMPI PUSH1 0x40 MLOAD PUSH4 0x448BAE6F PUSH1 0xE0 SHL DUP2 MSTORE PUSH1 0x4 ADD PUSH1 0x40 MLOAD DUP1 SWAP2 SUB SWAP1 REVERT JUMPDEST CALLER PUSH1 0x0 SWAP1 DUP2 MSTORE PUSH1 0xC PUSH1 0x20 MSTORE PUSH1 0x40 DUP2 KECCAK256 SLOAD PUSH1 0x6 SLOAD PUSH1 0x5 SLOAD SWAP2 SWAP3 SWAP2 PUSH1 0x64 SWAP2 PUSH2 0x20C6 SWAP2 PUSH2 0x48F1 JUMP JUMPDEST PUSH2 0x20D0 SWAP2 SWAP1 PUSH2 0x4908 JUMP JUMPDEST SWAP1 POP PUSH1 0x2 DUP5 PUSH1 0x6 DUP2 GT ISZERO PUSH2 0x20E6 JUMPI PUSH2 0x20E6 PUSH2 0x3F46 JUMP JUMPDEST SUB PUSH2 0x2150 JUMPI DUP2 PUSH1 0xE PUSH1 0x0 ADD PUSH1 0x0 DUP3 DUP3 SLOAD PUSH2 0x2100 SWAP2 SWAP1 PUSH2 0x492A JUMP JUMPDEST SWAP1 SWAP2 SSTORE POP POP PUSH1 0xE SLOAD DUP2 LT ISZERO PUSH2 0x214B JUMPI PUSH2 0x2119 PUSH1 0x0 PUSH2 0x2EA1 JUMP JUMPDEST PUSH2 0x2121 PUSH2 0x2EE8 JUMP JUMPDEST PUSH1 0x40 MLOAD PUSH32 0xD32D40DE3C1CE9D2FA081D8CD5A6B778EAEA7095966658ACE12863CE23D09A60 SWAP1 PUSH1 0x0 SWAP1 LOG1 JUMPDEST PUSH2 0x2222 JUMP JUMPDEST PUSH1 0x3 DUP5 PUSH1 0x6 DUP2 GT ISZERO PUSH2 0x2164 JUMPI PUSH2 0x2164 PUSH2 0x3F46 JUMP JUMPDEST SUB PUSH2 0x2222 JUMPI DUP2 PUSH1 0xE PUSH1 0x1 ADD PUSH1 0x0 DUP3 DUP3 SLOAD PUSH2 0x217E SWAP2 SWAP1 PUSH2 0x492A JUMP JUMPDEST SWAP1 SWAP2 SSTORE POP POP PUSH1 0xF SLOAD DUP2 LT ISZERO PUSH2 0x2222 JUMPI PUSH1 0x0 JUMPDEST PUSH1 0xA SLOAD DUP2 LT ISZERO PUSH2 0x21ED JUMPI PUSH1 0x0 PUSH1 0xE PUSH1 0x2 ADD PUSH1 0x0 PUSH1 0xA DUP5 DUP2 SLOAD DUP2 LT PUSH2 0x21B6 JUMPI PUSH2 0x21B6 PUSH2 0x460E JUMP JUMPDEST PUSH1 0x0 SWAP2 DUP3 MSTORE PUSH1 0x20 DUP1 DUP4 KECCAK256 SWAP1 SWAP2 ADD SLOAD PUSH1 0x1 PUSH1 0x1 PUSH1 0xA0 SHL SUB AND DUP4 MSTORE DUP3 ADD SWAP3 SWAP1 SWAP3 MSTORE PUSH1 0x40 ADD SWAP1 KECCAK256 SSTORE DUP1 PUSH2 0x21E5 DUP2 PUSH2 0x48D8 JUMP JUMPDEST SWAP2 POP POP PUSH2 0x2190 JUMP JUMPDEST POP PUSH1 0x0 PUSH1 0xE DUP2 SWAP1 SSTORE PUSH1 0xF DUP2 SWAP1 SSTORE PUSH1 0x40 MLOAD PUSH32 0x7A5D554E29A9295668AE87EB63589A5DD4D751E9C16B4A8173C28B9F0BC4A1D0 SWAP2 SWAP1 LOG1 JUMPDEST POP POP POP POP JUMP JUMPDEST PUSH1 0x0 PUSH2 0x8E6 DUP3 PUSH2 0x30B6 JUMP JUMPDEST PUSH1 0x0 DUP2 DUP1 PUSH1 0x20 ADD SWAP1 MLOAD DUP2 ADD SWAP1 PUSH2 0x2249 SWAP2 SWAP1 PUSH2 0x49F0 JUMP JUMPDEST SWAP1 POP PUSH2 0x2255 DUP4 DUP3 PUSH2 0x30CB JUMP JUMPDEST PUSH32 0x91EFA3D50FECCDE0D0D202F8AE5C41CA0B2BE614CEBCB2BD2F4B019396E6568A DUP4 DUP4 PUSH1 0x40 MLOAD PUSH2 0x2286 SWAP3 SWAP2 SWAP1 PUSH2 0x4B12 JUMP JUMPDEST PUSH1 0x40 MLOAD DUP1 SWAP2 SUB SWAP1 LOG1 POP POP POP JUMP JUMPDEST PUSH2 0x229B PUSH2 0x2323 JUMP JUMPDEST PUSH2 0x22A3 PUSH2 0x236E JUMP JUMPDEST PUSH2 0x22AD DUP3 DUP3 PUSH2 0x32DB JUMP JUMPDEST POP POP JUMP JUMPDEST PUSH2 0x22B9 PUSH2 0x2323 JUMP JUMPDEST DUP1 PUSH1 0x2 PUSH1 0x0 DUP3 DUP3 SLOAD PUSH2 0x22CB SWAP2 SWAP1 PUSH2 0x492A JUMP JUMPDEST SWAP1 SWAP2 SSTORE POP PUSH2 0x22D8 SWAP1 POP DUP2 DUP2 JUMP JUMPDEST POP JUMP JUMPDEST PUSH1 0x1 PUSH1 0x1 PUSH1 0xA0 SHL SUB DUP3 AND PUSH1 0x0 SWAP1 DUP2 MSTORE PUSH1 0x11 PUSH1 0x20 MSTORE PUSH1 0x40 DUP2 KECCAK256 DUP1 SLOAD DUP4 SWAP1 DUP2 LT PUSH2 0x2305 JUMPI PUSH2 0x2305 PUSH2 0x460E JUMP JUMPDEST PUSH1 0x0 SWAP2 DUP3 MSTORE PUSH1 0x20 SWAP1 SWAP2 KECCAK256 PUSH1 0x5 SWAP1 SWAP2 MUL ADD PUSH1 0x3 ADD SLOAD PUSH1 0xFF AND SWAP4 SWAP3 POP POP POP JUMP JUMPDEST CALLER PUSH1 0x1 PUSH1 0x1 PUSH1 0xA0 SHL SUB PUSH32 0x0 AND EQ PUSH2 0x236C JUMPI PUSH1 0x40 MLOAD PUSH4 0x75FD2B1 PUSH1 0xE0 SHL DUP2 MSTORE PUSH1 0x4 ADD PUSH1 0x40 MLOAD DUP1 SWAP2 SUB SWAP1 REVERT JUMPDEST JUMP JUMPDEST PUSH1 0x1 SLOAD PUSH1 0x0 SUB PUSH2 0x236C JUMPI PUSH1 0x40 MLOAD PUSH4 0xF68FE63 PUSH1 0xE2 SHL DUP2 MSTORE PUSH1 0x4 ADD PUSH1 0x40 MLOAD DUP1 SWAP2 SUB SWAP1 REVERT JUMPDEST PUSH1 0x1 PUSH1 0x1 PUSH1 0xA0 SHL SUB DUP2 AND ADDRESS EQ PUSH2 0x23E9 JUMPI PUSH1 0x40 MLOAD PUSH3 0x461BCD PUSH1 0xE5 SHL DUP2 MSTORE PUSH1 0x20 PUSH1 0x4 DUP3 ADD MSTORE PUSH1 0x17 PUSH1 0x24 DUP3 ADD MSTORE PUSH32 0x554E415554484F52495A45442064697374726962757465000000000000000000 PUSH1 0x44 DUP3 ADD MSTORE PUSH1 0x64 ADD PUSH2 0xB8A JUMP JUMPDEST DUP3 MLOAD PUSH1 0x0 JUMPDEST DUP2 DUP2 LT ISZERO PUSH2 0x2421 JUMPI PUSH2 0x2419 DUP6 DUP3 DUP2 MLOAD DUP2 LT PUSH2 0x240B JUMPI PUSH2 0x240B PUSH2 0x460E JUMP JUMPDEST PUSH1 0x20 MUL PUSH1 0x20 ADD ADD MLOAD DUP5 PUSH2 0x3605 JUMP JUMPDEST PUSH1 0x1 ADD PUSH2 0x23EE JUMP JUMPDEST POP POP POP POP POP JUMP JUMPDEST PUSH1 0x0 PUSH2 0x2432 PUSH2 0x3975 JUMP JUMPDEST PUSH1 0x0 DUP1 PUSH1 0x0 DUP1 PUSH2 0x2455 PUSH1 0x40 MLOAD DUP1 PUSH1 0x40 ADD PUSH1 0x40 MSTORE DUP1 PUSH1 0x0 DUP2 MSTORE PUSH1 0x20 ADD PUSH1 0x60 DUP2 MSTORE POP SWAP1 JUMP JUMPDEST PUSH1 0x4 SLOAD PUSH1 0xFF AND ISZERO PUSH2 0x24AA JUMPI DUP8 DUP1 PUSH1 0x20 ADD SWAP1 MLOAD DUP2 ADD SWAP1 PUSH2 0x2474 SWAP2 SWAP1 PUSH2 0x4BC1 JUMP JUMPDEST SWAP3 SWAP9 POP SWAP1 SWAP7 POP SWAP3 POP SWAP1 POP PUSH2 0x2488 DUP7 DUP9 PUSH2 0x296E JUMP JUMPDEST PUSH2 0x24A5 JUMPI PUSH1 0x40 MLOAD PUSH4 0x75FD2B1 PUSH1 0xE0 SHL DUP2 MSTORE PUSH1 0x4 ADD PUSH1 0x40 MLOAD DUP1 SWAP2 SUB SWAP1 REVERT JUMPDEST PUSH2 0x2517 JUMP JUMPDEST DUP8 DUP1 PUSH1 0x20 ADD SWAP1 MLOAD DUP2 ADD SWAP1 PUSH2 0x24BE SWAP2 SWAP1 PUSH2 0x4BC1 JUMP JUMPDEST SWAP3 SWAP8 POP SWAP1 SWAP6 POP PUSH1 0x1 PUSH1 0x1 PUSH1 0xA0 SHL SUB DUP7 AND ISZERO ISZERO SWAP5 POP SWAP3 POP SWAP1 POP DUP3 PUSH2 0x24E1 JUMPI DUP5 PUSH2 0x24E3 JUMP JUMPDEST DUP4 JUMPDEST SWAP6 POP DUP3 DUP1 ISZERO PUSH2 0x24F9 JUMPI POP PUSH2 0x24F7 DUP7 DUP9 PUSH2 0x296E JUMP JUMPDEST ISZERO JUMPDEST ISZERO PUSH2 0x2517 JUMPI PUSH1 0x40 MLOAD PUSH4 0x75FD2B1 PUSH1 0xE0 SHL DUP2 MSTORE PUSH1 0x4 ADD PUSH1 0x40 MLOAD DUP1 SWAP2 SUB SWAP1 REVERT JUMPDEST PUSH1 0x4 SLOAD PUSH3 0x10000 SWAP1 DIV PUSH1 0xFF AND DUP1 ISZERO PUSH2 0x252D JUMPI POP DUP2 ISZERO JUMPDEST ISZERO PUSH2 0x254B JUMPI PUSH1 0x40 MLOAD PUSH4 0x3B167DD PUSH1 0xE0 SHL DUP2 MSTORE PUSH1 0x4 ADD PUSH1 0x40 MLOAD DUP1 SWAP2 SUB SWAP1 REVERT JUMPDEST PUSH1 0x2 PUSH1 0x1 PUSH1 0x1 PUSH1 0xA0 SHL SUB DUP8 AND PUSH1 0x0 SWAP1 DUP2 MSTORE PUSH1 0xB PUSH1 0x20 MSTORE PUSH1 0x40 SWAP1 KECCAK256 PUSH1 0x4 ADD SLOAD PUSH1 0xFF AND PUSH1 0x6 DUP2 GT ISZERO PUSH2 0x257D JUMPI PUSH2 0x257D PUSH2 0x3F46 JUMP JUMPDEST SUB PUSH2 0x259B JUMPI PUSH1 0x40 MLOAD PUSH4 0x83A81F7 PUSH1 0xE3 SHL DUP2 MSTORE PUSH1 0x4 ADD PUSH1 0x40 MLOAD DUP1 SWAP2 SUB SWAP1 REVERT JUMPDEST PUSH1 0x4 SLOAD PUSH2 0x100 SWAP1 DIV PUSH1 0xFF AND DUP1 ISZERO PUSH2 0x25BE JUMPI POP PUSH1 0x20 DUP2 ADD MLOAD MLOAD ISZERO DUP1 PUSH2 0x25BE JUMPI POP DUP1 MLOAD ISZERO JUMPDEST ISZERO PUSH2 0x25DC JUMPI PUSH1 0x40 MLOAD PUSH4 0xC19E07C5 PUSH1 0xE0 SHL DUP2 MSTORE PUSH1 0x4 ADD PUSH1 0x40 MLOAD DUP1 SWAP2 SUB SWAP1 REVERT JUMPDEST PUSH1 0x40 DUP1 MLOAD PUSH1 0xC0 DUP2 ADD SWAP1 SWAP2 MSTORE PUSH1 0x4 SLOAD PUSH1 0x0 SWAP2 SWAP1 DUP2 SWAP1 PUSH1 0xFF AND PUSH2 0x25FD JUMPI DUP6 PUSH2 0x2600 JUMP JUMPDEST PUSH1 0x1 JUMPDEST ISZERO ISZERO DUP2 MSTORE PUSH1 0x1 PUSH1 0x1 PUSH1 0xA0 SHL SUB DUP9 AND PUSH1 0x20 DUP3 ADD MSTORE PUSH1 0x40 DUP2 ADD DUP6 SWAP1 MSTORE PUSH1 0x60 DUP2 ADD DUP5 SWAP1 MSTORE PUSH1 0x80 ADD PUSH1 0x2 DUP2 MSTORE PUSH1 0x20 ADD PUSH1 0x1 SWAP1 MSTORE PUSH1 0x1 PUSH1 0x1 PUSH1 0xA0 SHL SUB DUP9 DUP2 AND PUSH1 0x0 SWAP1 DUP2 MSTORE PUSH1 0xB PUSH1 0x20 SWAP1 DUP2 MSTORE PUSH1 0x40 SWAP2 DUP3 SWAP1 KECCAK256 DUP5 MLOAD DUP2 SLOAD DUP7 DUP5 ADD MLOAD PUSH1 0x1 PUSH1 0x1 PUSH1 0xA8 SHL SUB NOT SWAP1 SWAP2 AND SWAP2 ISZERO ISZERO PUSH2 0x100 PUSH1 0x1 PUSH1 0xA8 SHL SUB NOT AND SWAP2 SWAP1 SWAP2 OR PUSH2 0x100 SWAP2 SWAP1 SWAP6 AND MUL SWAP4 SWAP1 SWAP4 OR DUP4 SSTORE SWAP1 DUP4 ADD MLOAD PUSH1 0x1 DUP4 ADD SSTORE PUSH1 0x60 DUP4 ADD MLOAD DUP1 MLOAD PUSH1 0x2 DUP5 ADD SWAP1 DUP2 SSTORE SWAP2 DUP2 ADD MLOAD SWAP4 SWAP5 POP DUP5 SWAP4 SWAP1 SWAP2 SWAP1 PUSH1 0x3 DUP5 ADD SWAP1 PUSH2 0x26B2 SWAP1 DUP3 PUSH2 0x4803 JUMP JUMPDEST POP POP POP PUSH1 0x80 DUP3 ADD MLOAD PUSH1 0x4 DUP3 ADD DUP1 SLOAD PUSH1 0xFF NOT AND PUSH1 0x1 DUP4 PUSH1 0x6 DUP2 GT ISZERO PUSH2 0x26D8 JUMPI PUSH2 0x26D8 PUSH2 0x3F46 JUMP JUMPDEST MUL OR SWAP1 SSTORE POP PUSH1 0xA0 DUP3 ADD MLOAD PUSH1 0x4 DUP3 ADD DUP1 SLOAD PUSH2 0xFF00 NOT AND PUSH2 0x100 DUP4 PUSH1 0x6 DUP2 GT ISZERO PUSH2 0x2702 JUMPI PUSH2 0x2702 PUSH2 0x3F46 JUMP JUMPDEST MUL OR SWAP1 SSTORE POP SWAP1 POP POP DUP7 PUSH1 0x1 PUSH1 0x1 PUSH1 0xA0 SHL SUB AND PUSH32 0xA197306E3DD5494A61A695381AA809A53B8E377A685E84E404A85D5A8DA6CC62 DUP11 DUP11 PUSH1 0x40 MLOAD PUSH2 0x2745 SWAP3 SWAP2 SWAP1 PUSH2 0x4C2E JUMP JUMPDEST PUSH1 0x40 MLOAD DUP1 SWAP2 SUB SWAP1 LOG2 POP POP POP POP POP POP SWAP3 SWAP2 POP POP JUMP JUMPDEST PUSH1 0x1 SLOAD PUSH1 0x40 MLOAD PUSH4 0x29E40D4B PUSH1 0xE0 SHL DUP2 MSTORE PUSH1 0x0 SWAP2 PUSH1 0x1 PUSH1 0x1 PUSH1 0xA0 SHL SUB PUSH32 0x0 AND SWAP2 PUSH4 0x29E40D4B SWAP2 PUSH2 0x27BD SWAP2 DUP7 SWAP1 PUSH1 0x4 ADD SWAP2 DUP3 MSTORE PUSH1 0x1 PUSH1 0x1 PUSH1 0xA0 SHL SUB AND PUSH1 0x20 DUP3 ADD MSTORE PUSH1 0x40 ADD SWAP1 JUMP JUMPDEST PUSH1 0x20 PUSH1 0x40 MLOAD DUP1 DUP4 SUB DUP2 DUP7 GAS STATICCALL ISZERO DUP1 ISZERO PUSH2 0x27DA JUMPI RETURNDATASIZE PUSH1 0x0 DUP1 RETURNDATACOPY RETURNDATASIZE PUSH1 0x0 REVERT JUMPDEST POP POP POP POP PUSH1 0x40 MLOAD RETURNDATASIZE PUSH1 0x1F NOT PUSH1 0x1F DUP3 ADD AND DUP3 ADD DUP1 PUSH1 0x40 MSTORE POP DUP2 ADD SWAP1 PUSH2 0x8E6 SWAP2 SWAP1 PUSH2 0x45F3 JUMP JUMPDEST PUSH2 0x2806 PUSH2 0x3B20 JUMP JUMPDEST PUSH1 0x1 PUSH1 0x1 PUSH1 0xA0 SHL SUB DUP1 DUP4 AND PUSH1 0x0 SWAP1 DUP2 MSTORE PUSH1 0xB PUSH1 0x20 SWAP1 DUP2 MSTORE PUSH1 0x40 SWAP2 DUP3 SWAP1 KECCAK256 DUP3 MLOAD PUSH1 0xC0 DUP2 ADD DUP5 MSTORE DUP2 SLOAD PUSH1 0xFF DUP2 AND ISZERO ISZERO DUP3 MSTORE PUSH2 0x100 SWAP1 DIV SWAP1 SWAP5 AND DUP5 DUP4 ADD MSTORE PUSH1 0x1 DUP2 ADD SLOAD DUP5 DUP5 ADD MSTORE DUP3 MLOAD DUP1 DUP5 ADD SWAP1 SWAP4 MSTORE PUSH1 0x2 DUP2 ADD DUP1 SLOAD DUP5 MSTORE PUSH1 0x3 DUP3 ADD DUP1 SLOAD SWAP3 SWAP5 PUSH1 0x60 DUP8 ADD SWAP5 SWAP1 SWAP4 SWAP1 DUP5 ADD SWAP2 SWAP1 PUSH2 0x2877 SWAP1 PUSH2 0x45A9 JUMP JUMPDEST DUP1 PUSH1 0x1F ADD PUSH1 0x20 DUP1 SWAP2 DIV MUL PUSH1 0x20 ADD PUSH1 0x40 MLOAD SWAP1 DUP2 ADD PUSH1 0x40 MSTORE DUP1 SWAP3 SWAP2 SWAP1 DUP2 DUP2 MSTORE PUSH1 0x20 ADD DUP3 DUP1 SLOAD PUSH2 0x28A3 SWAP1 PUSH2 0x45A9 JUMP JUMPDEST DUP1 ISZERO PUSH2 0x28F0 JUMPI DUP1 PUSH1 0x1F LT PUSH2 0x28C5 JUMPI PUSH2 0x100 DUP1 DUP4 SLOAD DIV MUL DUP4 MSTORE SWAP2 PUSH1 0x20 ADD SWAP2 PUSH2 0x28F0 JUMP JUMPDEST DUP3 ADD SWAP2 SWAP1 PUSH1 0x0 MSTORE PUSH1 0x20 PUSH1 0x0 KECCAK256 SWAP1 JUMPDEST DUP2 SLOAD DUP2 MSTORE SWAP1 PUSH1 0x1 ADD SWAP1 PUSH1 0x20 ADD DUP1 DUP4 GT PUSH2 0x28D3 JUMPI DUP3 SWAP1 SUB PUSH1 0x1F AND DUP3 ADD SWAP2 JUMPDEST POP POP POP SWAP2 SWAP1 SWAP3 MSTORE POP POP POP DUP2 MSTORE PUSH1 0x4 DUP3 ADD SLOAD PUSH1 0x20 SWAP1 SWAP2 ADD SWAP1 PUSH1 0xFF AND PUSH1 0x6 DUP2 GT ISZERO PUSH2 0x291B JUMPI PUSH2 0x291B PUSH2 0x3F46 JUMP JUMPDEST PUSH1 0x6 DUP2 GT ISZERO PUSH2 0x292C JUMPI PUSH2 0x292C PUSH2 0x3F46 JUMP JUMPDEST DUP2 MSTORE PUSH1 0x20 ADD PUSH1 0x4 DUP3 ADD PUSH1 0x1 SWAP1 SLOAD SWAP1 PUSH2 0x100 EXP SWAP1 DIV PUSH1 0xFF AND PUSH1 0x6 DUP2 GT ISZERO PUSH2 0x2954 JUMPI PUSH2 0x2954 PUSH2 0x3F46 JUMP JUMPDEST PUSH1 0x6 DUP2 GT ISZERO PUSH2 0x2965 JUMPI PUSH2 0x2965 PUSH2 0x3F46 JUMP JUMPDEST SWAP1 MSTORE POP SWAP3 SWAP2 POP POP JUMP JUMPDEST PUSH1 0x7 SLOAD PUSH1 0x40 MLOAD PUSH4 0xDD93DA43 PUSH1 0xE0 SHL DUP2 MSTORE PUSH1 0x1 PUSH1 0x1 PUSH1 0xA0 SHL SUB DUP5 DUP2 AND PUSH1 0x4 DUP4 ADD MSTORE PUSH1 0x0 SWAP3 DUP4 SWAP3 SWAP2 AND SWAP1 PUSH4 0xDD93DA43 SWAP1 PUSH1 0x24 ADD PUSH1 0x0 PUSH1 0x40 MLOAD DUP1 DUP4 SUB DUP2 DUP7 GAS STATICCALL ISZERO DUP1 ISZERO PUSH2 0x29BC JUMPI RETURNDATASIZE PUSH1 0x0 DUP1 RETURNDATACOPY RETURNDATASIZE PUSH1 0x0 REVERT JUMPDEST POP POP POP POP PUSH1 0x40 MLOAD RETURNDATASIZE PUSH1 0x0 DUP3 RETURNDATACOPY PUSH1 0x1F RETURNDATASIZE SWAP1 DUP2 ADD PUSH1 0x1F NOT AND DUP3 ADD PUSH1 0x40 MSTORE PUSH2 0x29E4 SWAP2 SWAP1 DUP2 ADD SWAP1 PUSH2 0x4C58 JUMP JUMPDEST PUSH1 0x7 SLOAD DUP2 MLOAD PUSH1 0x40 MLOAD PUSH4 0x5E8A7915 PUSH1 0xE0 SHL DUP2 MSTORE PUSH1 0x4 DUP2 ADD SWAP2 SWAP1 SWAP2 MSTORE PUSH1 0x1 PUSH1 0x1 PUSH1 0xA0 SHL SUB DUP7 DUP2 AND PUSH1 0x24 DUP4 ADD MSTORE SWAP3 SWAP4 POP SWAP2 AND SWAP1 PUSH4 0x5E8A7915 SWAP1 PUSH1 0x44 ADD PUSH1 0x20 PUSH1 0x40 MLOAD DUP1 DUP4 SUB DUP2 DUP7 GAS STATICCALL ISZERO DUP1 ISZERO PUSH2 0x2A3A JUMPI RETURNDATASIZE PUSH1 0x0 DUP1 RETURNDATACOPY RETURNDATASIZE PUSH1 0x0 REVERT JUMPDEST POP POP POP POP PUSH1 0x40 MLOAD RETURNDATASIZE PUSH1 0x1F NOT PUSH1 0x1F DUP3 ADD AND DUP3 ADD DUP1 PUSH1 0x40 MSTORE POP DUP2 ADD SWAP1 PUSH2 0x2A5E SWAP2 SWAP1 PUSH2 0x45F3 JUMP JUMPDEST SWAP5 SWAP4 POP POP POP POP JUMP JUMPDEST PUSH1 0x0 JUMPDEST PUSH1 0xA SLOAD DUP2 LT ISZERO PUSH2 0x2AE9 JUMPI PUSH1 0x0 PUSH1 0xD PUSH1 0x0 DUP5 PUSH1 0x1 PUSH1 0x1 PUSH1 0xA0 SHL SUB AND PUSH1 0x1 PUSH1 0x1 PUSH1 0xA0 SHL SUB AND DUP2 MSTORE PUSH1 0x20 ADD SWAP1 DUP2 MSTORE PUSH1 0x20 ADD PUSH1 0x0 KECCAK256 PUSH1 0x3 ADD PUSH1 0x0 PUSH1 0xA DUP5 DUP2 SLOAD DUP2 LT PUSH2 0x2AB2 JUMPI PUSH2 0x2AB2 PUSH2 0x460E JUMP JUMPDEST PUSH1 0x0 SWAP2 DUP3 MSTORE PUSH1 0x20 DUP1 DUP4 KECCAK256 SWAP1 SWAP2 ADD SLOAD PUSH1 0x1 PUSH1 0x1 PUSH1 0xA0 SHL SUB AND DUP4 MSTORE DUP3 ADD SWAP3 SWAP1 SWAP3 MSTORE PUSH1 0x40 ADD SWAP1 KECCAK256 SSTORE DUP1 PUSH2 0x2AE1 DUP2 PUSH2 0x48D8 JUMP JUMPDEST SWAP2 POP POP PUSH2 0x2A69 JUMP JUMPDEST POP PUSH1 0x1 PUSH1 0x1 PUSH1 0xA0 SHL SUB DUP2 AND PUSH1 0x0 SWAP1 DUP2 MSTORE PUSH1 0xD PUSH1 0x20 MSTORE PUSH1 0x40 DUP2 KECCAK256 SWAP1 PUSH2 0x2B0D DUP3 DUP3 PUSH2 0x3B7B JUMP JUMPDEST POP PUSH1 0x0 PUSH1 0x1 DUP3 ADD DUP2 SWAP1 SSTORE PUSH1 0x2 SWAP1 SWAP2 ADD SSTORE POP JUMP JUMPDEST PUSH1 0x1 SLOAD PUSH1 0x40 MLOAD PUSH4 0x29E40D4B PUSH1 0xE0 SHL DUP2 MSTORE PUSH1 0x4 DUP2 ADD SWAP2 SWAP1 SWAP2 MSTORE PUSH1 0x1 PUSH1 0x1 PUSH1 0xA0 SHL SUB DUP3 DUP2 AND PUSH1 0x24 DUP4 ADD MSTORE PUSH32 0x0 AND SWAP1 PUSH4 0x29E40D4B SWAP1 PUSH1 0x44 ADD PUSH1 0x20 PUSH1 0x40 MLOAD DUP1 DUP4 SUB DUP2 DUP7 GAS STATICCALL ISZERO DUP1 ISZERO PUSH2 0x2B91 JUMPI RETURNDATASIZE PUSH1 0x0 DUP1 RETURNDATACOPY RETURNDATASIZE PUSH1 0x0 REVERT JUMPDEST POP POP POP POP PUSH1 0x40 MLOAD RETURNDATASIZE PUSH1 0x1F NOT PUSH1 0x1F DUP3 ADD AND DUP3 ADD DUP1 PUSH1 0x40 MSTORE POP DUP2 ADD SWAP1 PUSH2 0x2BB5 SWAP2 SWAP1 PUSH2 0x45F3 JUMP JUMPDEST PUSH2 0x22D8 JUMPI PUSH1 0x40 MLOAD PUSH4 0x75FD2B1 PUSH1 0xE0 SHL DUP2 MSTORE PUSH1 0x4 ADD PUSH1 0x40 MLOAD DUP1 SWAP2 SUB SWAP1 REVERT JUMPDEST PUSH1 0x40 DUP1 MLOAD DUP1 DUP3 ADD SWAP1 SWAP2 MSTORE PUSH1 0x0 DUP1 DUP3 MSTORE PUSH1 0x20 DUP3 ADD MSTORE PUSH1 0x0 PUSH2 0x2BF1 DUP5 PUSH2 0x27FE JUMP JUMPDEST PUSH1 0x40 DUP1 MLOAD DUP1 DUP3 ADD DUP3 MSTORE PUSH1 0x20 DUP1 DUP5 ADD MLOAD PUSH1 0x1 PUSH1 0x1 PUSH1 0xA0 SHL SUB AND DUP3 MSTORE SWAP2 SWAP1 SWAP3 ADD MLOAD SWAP1 DUP3 ADD MSTORE SWAP2 POP POP SWAP3 SWAP2 POP POP JUMP JUMPDEST PUSH1 0x1 PUSH1 0x1 PUSH1 0xA0 SHL SUB DUP3 AND PUSH1 0x0 SWAP1 DUP2 MSTORE PUSH1 0x11 PUSH1 0x20 MSTORE PUSH1 0x40 DUP2 KECCAK256 SLOAD ISZERO PUSH2 0x2C5C JUMPI PUSH1 0x1 PUSH1 0x1 PUSH1 0xA0 SHL SUB DUP4 AND PUSH1 0x0 SWAP1 DUP2 MSTORE PUSH1 0x11 PUSH1 0x20 MSTORE PUSH1 0x40 DUP2 KECCAK256 PUSH2 0x2C5C SWAP2 PUSH2 0x3B7B JUMP JUMPDEST DUP2 MLOAD PUSH1 0x0 JUMPDEST DUP2 DUP2 LT ISZERO PUSH2 0x2D82 JUMPI PUSH1 0x0 DUP5 DUP3 DUP2 MLOAD DUP2 LT PUSH2 0x2C7D JUMPI PUSH2 0x2C7D PUSH2 0x460E JUMP JUMPDEST PUSH1 0x20 MUL PUSH1 0x20 ADD ADD MLOAD SWAP1 POP PUSH1 0x0 PUSH1 0x6 DUP2 GT ISZERO PUSH2 0x2C9A JUMPI PUSH2 0x2C9A PUSH2 0x3F46 JUMP JUMPDEST DUP2 PUSH1 0x40 ADD MLOAD PUSH1 0x6 DUP2 GT ISZERO PUSH2 0x2CB0 JUMPI PUSH2 0x2CB0 PUSH2 0x3F46 JUMP JUMPDEST EQ PUSH2 0x2CCE JUMPI PUSH1 0x40 MLOAD PUSH4 0x5B2FE71D PUSH1 0xE1 SHL DUP2 MSTORE PUSH1 0x4 ADD PUSH1 0x40 MLOAD DUP1 SWAP2 SUB SWAP1 REVERT JUMPDEST DUP1 MLOAD PUSH2 0x2CDA SWAP1 DUP6 PUSH2 0x492A JUMP JUMPDEST PUSH1 0x1 PUSH1 0x1 PUSH1 0xA0 SHL SUB DUP8 AND PUSH1 0x0 SWAP1 DUP2 MSTORE PUSH1 0x11 PUSH1 0x20 SWAP1 DUP2 MSTORE PUSH1 0x40 DUP3 KECCAK256 DUP1 SLOAD PUSH1 0x1 DUP2 DUP2 ADD DUP4 SSTORE SWAP2 DUP5 MSTORE SWAP3 DUP3 SWAP1 KECCAK256 DUP6 MLOAD PUSH1 0x5 SWAP1 SWAP5 MUL ADD SWAP3 DUP4 SSTORE DUP5 DUP3 ADD MLOAD DUP1 MLOAD SWAP2 DUP5 ADD SWAP2 DUP3 SSTORE SWAP2 DUP3 ADD MLOAD SWAP4 SWAP8 POP DUP5 SWAP4 PUSH1 0x2 DUP5 ADD SWAP1 PUSH2 0x2D33 SWAP1 DUP3 PUSH2 0x4803 JUMP JUMPDEST POP POP POP PUSH1 0x40 DUP3 ADD MLOAD PUSH1 0x3 DUP3 ADD DUP1 SLOAD PUSH1 0xFF NOT AND PUSH1 0x1 DUP4 PUSH1 0x6 DUP2 GT ISZERO PUSH2 0x2D59 JUMPI PUSH2 0x2D59 PUSH2 0x3F46 JUMP JUMPDEST MUL OR SWAP1 SSTORE POP PUSH1 0x60 DUP3 ADD MLOAD PUSH1 0x4 DUP3 ADD SWAP1 PUSH2 0x2D72 SWAP1 DUP3 PUSH2 0x4803 JUMP JUMPDEST POP POP PUSH1 0x1 SWAP1 SWAP3 ADD SWAP2 POP PUSH2 0x2C61 SWAP1 POP JUMP JUMPDEST POP DUP2 PUSH8 0xDE0B6B3A7640000 EQ PUSH2 0x2DAB JUMPI PUSH1 0x40 MLOAD PUSH4 0x97A1F28D PUSH1 0xE0 SHL DUP2 MSTORE PUSH1 0x4 ADD PUSH1 0x40 MLOAD DUP1 SWAP2 SUB SWAP1 REVERT JUMPDEST PUSH1 0x0 DUP5 PUSH1 0x2 PUSH1 0x5 SLOAD PUSH1 0x40 MLOAD PUSH1 0x20 ADD PUSH2 0x2DC5 SWAP4 SWAP3 SWAP2 SWAP1 PUSH2 0x4D1E JUMP JUMPDEST PUSH1 0x40 DUP1 MLOAD PUSH1 0x1F NOT DUP2 DUP5 SUB ADD DUP2 MSTORE SWAP1 DUP3 SWAP1 MSTORE PUSH1 0x1 SLOAD PUSH4 0x5D87031 PUSH1 0xE3 SHL DUP4 MSTORE SWAP1 SWAP3 POP PUSH1 0x1 PUSH1 0x1 PUSH1 0xA0 SHL SUB PUSH32 0x0 AND SWAP2 PUSH4 0x2EC38188 SWAP2 PUSH2 0x2E25 SWAP2 DUP6 SWAP1 PUSH1 0x4 ADD PUSH2 0x4B12 JUMP JUMPDEST PUSH1 0x0 PUSH1 0x40 MLOAD DUP1 DUP4 SUB DUP2 PUSH1 0x0 DUP8 DUP1 EXTCODESIZE ISZERO DUP1 ISZERO PUSH2 0x2E3F JUMPI PUSH1 0x0 DUP1 REVERT JUMPDEST POP GAS CALL ISZERO DUP1 ISZERO PUSH2 0x2E53 JUMPI RETURNDATASIZE PUSH1 0x0 DUP1 RETURNDATACOPY RETURNDATASIZE PUSH1 0x0 REVERT JUMPDEST POP POP PUSH1 0x40 DUP1 MLOAD PUSH1 0x1 PUSH1 0x1 PUSH1 0xA0 SHL SUB DUP10 AND DUP2 MSTORE PUSH1 0x20 DUP2 ADD DUP7 SWAP1 MSTORE PUSH32 0xB000FB1507AAC2465CCB4F6BD1B601C7053279005E9E9932C41946B35C84949B SWAP4 POP ADD SWAP1 POP PUSH1 0x40 MLOAD DUP1 SWAP2 SUB SWAP1 LOG1 POP POP POP POP POP JUMP JUMPDEST PUSH1 0x0 DUP1 SLOAD PUSH1 0xFF NOT AND DUP3 ISZERO ISZERO SWAP1 DUP2 OR SWAP1 SWAP2 SSTORE PUSH1 0x40 MLOAD SWAP1 DUP2 MSTORE PUSH32 0xD94C9BC4D43C51D8DC345A016D8E3D994432FAC68E72832E4CF3A616BD8EFAE0 SWAP1 PUSH1 0x20 ADD PUSH1 0x40 MLOAD DUP1 SWAP2 SUB SWAP1 LOG1 POP JUMP JUMPDEST PUSH1 0x0 JUMPDEST PUSH1 0xA SLOAD DUP2 LT ISZERO PUSH2 0x22D8 JUMPI PUSH1 0x0 PUSH1 0xC PUSH1 0x0 PUSH1 0xA DUP5 DUP2 SLOAD DUP2 LT PUSH2 0x2F0E JUMPI PUSH2 0x2F0E PUSH2 0x460E JUMP JUMPDEST PUSH1 0x0 SWAP2 DUP3 MSTORE PUSH1 0x20 DUP1 DUP4 KECCAK256 SWAP1 SWAP2 ADD SLOAD PUSH1 0x1 PUSH1 0x1 PUSH1 0xA0 SHL SUB AND DUP4 MSTORE DUP3 ADD SWAP3 SWAP1 SWAP3 MSTORE PUSH1 0x40 ADD DUP2 KECCAK256 SLOAD PUSH1 0x2 SLOAD SWAP1 SWAP3 POP PUSH8 0xDE0B6B3A7640000 SWAP1 PUSH2 0x2F4E SWAP1 DUP5 SWAP1 PUSH2 0x48F1 JUMP JUMPDEST PUSH2 0x2F58 SWAP2 SWAP1 PUSH2 0x4908 JUMP JUMPDEST SWAP1 POP PUSH1 0x0 PUSH32 0x0 PUSH1 0x1 PUSH1 0x1 PUSH1 0xA0 SHL SUB AND PUSH4 0x68BCD8D PUSH1 0x1 SLOAD PUSH1 0x40 MLOAD DUP3 PUSH4 0xFFFFFFFF AND PUSH1 0xE0 SHL DUP2 MSTORE PUSH1 0x4 ADD PUSH2 0x2FAC SWAP2 DUP2 MSTORE PUSH1 0x20 ADD SWAP1 JUMP JUMPDEST PUSH1 0x0 PUSH1 0x40 MLOAD DUP1 DUP4 SUB DUP2 DUP7 GAS STATICCALL ISZERO DUP1 ISZERO PUSH2 0x2FC9 JUMPI RETURNDATASIZE PUSH1 0x0 DUP1 RETURNDATACOPY RETURNDATASIZE PUSH1 0x0 REVERT JUMPDEST POP POP POP POP PUSH1 0x40 MLOAD RETURNDATASIZE PUSH1 0x0 DUP3 RETURNDATACOPY PUSH1 0x1F RETURNDATASIZE SWAP1 DUP2 ADD PUSH1 0x1F NOT AND DUP3 ADD PUSH1 0x40 MSTORE PUSH2 0x2FF1 SWAP2 SWAP1 DUP2 ADD SWAP1 PUSH2 0x4D49 JUMP JUMPDEST SWAP1 POP PUSH2 0x306A PUSH1 0x40 MLOAD DUP1 PUSH1 0x40 ADD PUSH1 0x40 MSTORE DUP1 PUSH1 0x10 DUP2 MSTORE PUSH1 0x20 ADD PUSH16 0x1E9E9E9E9E9E9F1029B2B73234B7339D PUSH1 0x81 SHL DUP2 MSTORE POP DUP4 PUSH1 0x40 MLOAD DUP1 PUSH1 0x40 ADD PUSH1 0x40 MSTORE DUP1 PUSH1 0x4 DUP2 MSTORE PUSH1 0x20 ADD PUSH4 0x16AA379D PUSH1 0xE1 SHL DUP2 MSTORE POP PUSH1 0xA DUP9 DUP2 SLOAD DUP2 LT PUSH2 0x3050 JUMPI PUSH2 0x3050 PUSH2 0x460E JUMP JUMPDEST PUSH1 0x0 SWAP2 DUP3 MSTORE PUSH1 0x20 SWAP1 SWAP2 KECCAK256 ADD SLOAD PUSH1 0x1 PUSH1 0x1 PUSH1 0xA0 SHL SUB AND PUSH2 0x3998 JUMP JUMPDEST PUSH2 0x30A0 DUP2 PUSH1 0x40 ADD MLOAD PUSH1 0xA DUP7 DUP2 SLOAD DUP2 LT PUSH2 0x3085 JUMPI PUSH2 0x3085 PUSH2 0x460E JUMP JUMPDEST PUSH1 0x0 SWAP2 DUP3 MSTORE PUSH1 0x20 SWAP1 SWAP2 KECCAK256 ADD SLOAD PUSH1 0x1 PUSH1 0x1 PUSH1 0xA0 SHL SUB AND DUP5 PUSH2 0x39E1 JUMP JUMPDEST POP POP POP DUP1 DUP1 PUSH2 0x30AE SWAP1 PUSH2 0x48D8 JUMP JUMPDEST SWAP2 POP POP PUSH2 0x2EEB JUMP JUMPDEST PUSH1 0x0 PUSH2 0x30C1 DUP3 PUSH2 0x27FE JUMP JUMPDEST PUSH1 0x80 ADD MLOAD SWAP3 SWAP2 POP POP JUMP JUMPDEST PUSH2 0x30D4 DUP3 PUSH2 0x3A1B JUMP JUMPDEST DUP1 MLOAD PUSH1 0x4 DUP1 SLOAD PUSH1 0x20 DUP5 ADD MLOAD PUSH1 0x40 DUP6 ADD MLOAD ISZERO ISZERO PUSH3 0x10000 MUL PUSH3 0xFF0000 NOT SWAP2 ISZERO ISZERO PUSH2 0x100 MUL PUSH2 0xFF00 NOT SWAP6 ISZERO ISZERO SWAP6 SWAP1 SWAP6 AND PUSH2 0xFFFF NOT SWAP1 SWAP4 AND SWAP3 SWAP1 SWAP3 OR SWAP4 SWAP1 SWAP4 OR SWAP3 SWAP1 SWAP3 AND SWAP2 SWAP1 SWAP2 OR SWAP1 SSTORE PUSH1 0x46 PUSH1 0x6 SSTORE PUSH1 0x60 DUP2 ADD MLOAD PUSH1 0x0 JUMPDEST DUP2 MLOAD DUP2 LT ISZERO PUSH2 0x322E JUMPI PUSH1 0xA DUP3 DUP3 DUP2 MLOAD DUP2 LT PUSH2 0x3145 JUMPI PUSH2 0x3145 PUSH2 0x460E JUMP JUMPDEST PUSH1 0x20 SWAP1 DUP2 MUL SWAP2 SWAP1 SWAP2 ADD DUP2 ADD MLOAD MLOAD DUP3 SLOAD PUSH1 0x1 DUP2 ADD DUP5 SSTORE PUSH1 0x0 SWAP4 DUP5 MSTORE SWAP2 SWAP1 SWAP3 KECCAK256 ADD DUP1 SLOAD PUSH1 0x1 PUSH1 0x1 PUSH1 0xA0 SHL SUB NOT AND PUSH1 0x1 PUSH1 0x1 PUSH1 0xA0 SHL SUB SWAP1 SWAP3 AND SWAP2 SWAP1 SWAP2 OR SWAP1 SSTORE DUP2 MLOAD DUP3 SWAP1 DUP3 SWAP1 DUP2 LT PUSH2 0x3195 JUMPI PUSH2 0x3195 PUSH2 0x460E JUMP JUMPDEST PUSH1 0x20 MUL PUSH1 0x20 ADD ADD MLOAD PUSH1 0x20 ADD MLOAD PUSH1 0xC PUSH1 0x0 DUP5 DUP5 DUP2 MLOAD DUP2 LT PUSH2 0x31B7 JUMPI PUSH2 0x31B7 PUSH2 0x460E JUMP JUMPDEST PUSH1 0x20 MUL PUSH1 0x20 ADD ADD MLOAD PUSH1 0x0 ADD MLOAD PUSH1 0x1 PUSH1 0x1 PUSH1 0xA0 SHL SUB AND PUSH1 0x1 PUSH1 0x1 PUSH1 0xA0 SHL SUB AND DUP2 MSTORE PUSH1 0x20 ADD SWAP1 DUP2 MSTORE PUSH1 0x20 ADD PUSH1 0x0 KECCAK256 DUP2 SWAP1 SSTORE POP DUP2 DUP2 DUP2 MLOAD DUP2 LT PUSH2 0x31F9 JUMPI PUSH2 0x31F9 PUSH2 0x460E JUMP JUMPDEST PUSH1 0x20 MUL PUSH1 0x20 ADD ADD MLOAD PUSH1 0x20 ADD MLOAD PUSH1 0x5 PUSH1 0x0 DUP3 DUP3 SLOAD PUSH2 0x3216 SWAP2 SWAP1 PUSH2 0x492A JUMP JUMPDEST SWAP1 SWAP2 SSTORE POP DUP2 SWAP1 POP PUSH2 0x3226 DUP2 PUSH2 0x48D8 JUMP JUMPDEST SWAP2 POP POP PUSH2 0x3128 JUMP JUMPDEST POP PUSH32 0x0 PUSH1 0x1 PUSH1 0x1 PUSH1 0xA0 SHL SUB AND PUSH4 0x5AB1BD53 PUSH1 0x40 MLOAD DUP2 PUSH4 0xFFFFFFFF AND PUSH1 0xE0 SHL DUP2 MSTORE PUSH1 0x4 ADD PUSH1 0x20 PUSH1 0x40 MLOAD DUP1 DUP4 SUB DUP2 DUP7 GAS STATICCALL ISZERO DUP1 ISZERO PUSH2 0x328D JUMPI RETURNDATASIZE PUSH1 0x0 DUP1 RETURNDATACOPY RETURNDATASIZE PUSH1 0x0 REVERT JUMPDEST POP POP POP POP PUSH1 0x40 MLOAD RETURNDATASIZE PUSH1 0x1F NOT PUSH1 0x1F DUP3 ADD AND DUP3 ADD DUP1 PUSH1 0x40 MSTORE POP DUP2 ADD SWAP1 PUSH2 0x32B1 SWAP2 SWAP1 PUSH2 0x4DFC JUMP JUMPDEST PUSH1 0x7 DUP1 SLOAD PUSH1 0x1 PUSH1 0x1 PUSH1 0xA0 SHL SUB NOT AND PUSH1 0x1 PUSH1 0x1 PUSH1 0xA0 SHL SUB SWAP3 SWAP1 SWAP3 AND SWAP2 SWAP1 SWAP2 OR SWAP1 SSTORE PUSH2 0x8B6 PUSH1 0x1 PUSH2 0x2EA1 JUMP JUMPDEST PUSH2 0x32E3 PUSH2 0x3A6A JUMP JUMPDEST PUSH1 0x1 PUSH1 0x1 PUSH1 0xA0 SHL SUB DUP2 AND ADDRESS EQ PUSH2 0x3333 JUMPI PUSH1 0x40 MLOAD PUSH3 0x461BCD PUSH1 0xE5 SHL DUP2 MSTORE PUSH1 0x20 PUSH1 0x4 DUP3 ADD MSTORE PUSH1 0x15 PUSH1 0x24 DUP3 ADD MSTORE PUSH21 0x554E415554484F52495A454420616C6C6F63617465 PUSH1 0x58 SHL PUSH1 0x44 DUP3 ADD MSTORE PUSH1 0x64 ADD PUSH2 0xB8A JUMP JUMPDEST PUSH1 0x0 DUP1 PUSH1 0x0 DUP5 DUP1 PUSH1 0x20 ADD SWAP1 MLOAD DUP2 ADD SWAP1 PUSH2 0x334C SWAP2 SWAP1 PUSH2 0x4E19 JUMP JUMPDEST PUSH1 0x1 PUSH1 0x1 PUSH1 0xA0 SHL SUB DUP4 AND PUSH1 0x0 SWAP1 DUP2 MSTORE PUSH1 0xB PUSH1 0x20 SWAP1 DUP2 MSTORE PUSH1 0x40 DUP1 DUP4 KECCAK256 PUSH1 0x12 SWAP1 SWAP3 MSTORE SWAP1 SWAP2 KECCAK256 SLOAD SWAP4 SWAP7 POP SWAP2 SWAP5 POP SWAP3 POP SWAP1 ISZERO PUSH2 0x3397 JUMPI PUSH1 0x40 MLOAD PUSH4 0x5CA31D3 PUSH1 0xE5 SHL DUP2 MSTORE PUSH1 0x4 ADD PUSH1 0x40 MLOAD DUP1 SWAP2 SUB SWAP1 REVERT JUMPDEST PUSH1 0x2 PUSH1 0x4 DUP3 ADD SLOAD PUSH1 0xFF AND PUSH1 0x6 DUP2 GT ISZERO PUSH2 0x33B2 JUMPI PUSH2 0x33B2 PUSH2 0x3F46 JUMP JUMPDEST EQ ISZERO DUP1 ISZERO PUSH2 0x33D1 JUMPI POP PUSH1 0x2 DUP4 PUSH1 0x6 DUP2 GT ISZERO PUSH2 0x33CF JUMPI PUSH2 0x33CF PUSH2 0x3F46 JUMP JUMPDEST EQ JUMPDEST ISZERO PUSH2 0x356C JUMPI PUSH1 0x1 SLOAD PUSH1 0x40 MLOAD PUSH4 0x68BCD8D PUSH1 0xE0 SHL DUP2 MSTORE PUSH1 0x0 SWAP2 PUSH1 0x1 PUSH1 0x1 PUSH1 0xA0 SHL SUB PUSH32 0x0 AND SWAP2 PUSH4 0x68BCD8D SWAP2 PUSH2 0x342A SWAP2 PUSH1 0x4 ADD SWAP1 DUP2 MSTORE PUSH1 0x20 ADD SWAP1 JUMP JUMPDEST PUSH1 0x0 PUSH1 0x40 MLOAD DUP1 DUP4 SUB DUP2 DUP7 GAS STATICCALL ISZERO DUP1 ISZERO PUSH2 0x3447 JUMPI RETURNDATASIZE PUSH1 0x0 DUP1 RETURNDATACOPY RETURNDATASIZE PUSH1 0x0 REVERT JUMPDEST POP POP POP POP PUSH1 0x40 MLOAD RETURNDATASIZE PUSH1 0x0 DUP3 RETURNDATACOPY PUSH1 0x1F RETURNDATASIZE SWAP1 DUP2 ADD PUSH1 0x1F NOT AND DUP3 ADD PUSH1 0x40 MSTORE PUSH2 0x346F SWAP2 SWAP1 DUP2 ADD SWAP1 PUSH2 0x4D49 JUMP JUMPDEST SWAP1 POP DUP3 PUSH1 0x8 PUSH1 0x0 DUP3 DUP3 SLOAD PUSH2 0x3483 SWAP2 SWAP1 PUSH2 0x492A JUMP JUMPDEST SWAP1 SWAP2 SSTORE POP POP PUSH1 0x2 SLOAD PUSH1 0x8 SLOAD GT ISZERO PUSH2 0x34AD JUMPI PUSH1 0x40 MLOAD PUSH4 0x8E81B16F PUSH1 0xE0 SHL DUP2 MSTORE PUSH1 0x4 ADD PUSH1 0x40 MLOAD DUP1 SWAP2 SUB SWAP1 REVERT JUMPDEST PUSH1 0x1 DUP3 ADD DUP4 SWAP1 SSTORE PUSH1 0x4 DUP3 ADD DUP1 SLOAD PUSH1 0xFF NOT AND PUSH1 0x2 SWAP1 DUP2 OR SWAP1 SWAP2 SSTORE PUSH1 0x40 MLOAD PUSH32 0x94593B52AA436DD31A63E313045C2EB23D43EB2D6F5B4D7797B4432E7B277490 SWAP2 PUSH2 0x34F7 SWAP2 DUP9 SWAP2 SWAP1 PUSH2 0x49C8 JUMP JUMPDEST PUSH1 0x40 MLOAD DUP1 SWAP2 SUB SWAP1 LOG1 DUP5 PUSH1 0x1 PUSH1 0x1 PUSH1 0xA0 SHL SUB AND PUSH32 0x463FFC2CF8B1596445C417388ED30E53EB67CF6668CB2BE7F0ADDF8A78C8441B DUP4 PUSH1 0x1 ADD SLOAD DUP4 PUSH1 0x40 ADD MLOAD DUP10 PUSH1 0x40 MLOAD PUSH2 0x355E SWAP4 SWAP3 SWAP2 SWAP1 SWAP3 DUP4 MSTORE PUSH1 0x1 PUSH1 0x1 PUSH1 0xA0 SHL SUB SWAP2 DUP3 AND PUSH1 0x20 DUP5 ADD MSTORE AND PUSH1 0x40 DUP3 ADD MSTORE PUSH1 0x60 ADD SWAP1 JUMP JUMPDEST PUSH1 0x40 MLOAD DUP1 SWAP2 SUB SWAP1 LOG2 POP PUSH2 0x35F7 JUMP JUMPDEST PUSH1 0x3 PUSH1 0x4 DUP3 ADD SLOAD PUSH1 0xFF AND PUSH1 0x6 DUP2 GT ISZERO PUSH2 0x3587 JUMPI PUSH2 0x3587 PUSH2 0x3F46 JUMP JUMPDEST EQ ISZERO DUP1 ISZERO PUSH2 0x35A6 JUMPI POP PUSH1 0x3 DUP4 PUSH1 0x6 DUP2 GT ISZERO PUSH2 0x35A4 JUMPI PUSH2 0x35A4 PUSH2 0x3F46 JUMP JUMPDEST EQ JUMPDEST ISZERO PUSH2 0x35F7 JUMPI PUSH1 0x4 DUP2 ADD DUP1 SLOAD PUSH1 0xFF NOT AND PUSH1 0x3 SWAP1 DUP2 OR SWAP1 SWAP2 SSTORE PUSH1 0x40 MLOAD PUSH32 0x94593B52AA436DD31A63E313045C2EB23D43EB2D6F5B4D7797B4432E7B277490 SWAP2 PUSH2 0x35EE SWAP2 DUP8 SWAP2 SWAP1 PUSH2 0x49C8 JUMP JUMPDEST PUSH1 0x40 MLOAD DUP1 SWAP2 SUB SWAP1 LOG1 JUMPDEST POP POP POP POP PUSH2 0x22AD PUSH1 0x1 PUSH1 0x3 SSTORE JUMP JUMPDEST PUSH1 0x1 PUSH1 0x1 PUSH1 0xA0 SHL SUB DUP1 DUP4 AND PUSH1 0x0 SWAP1 DUP2 MSTORE PUSH1 0x12 PUSH1 0x20 SWAP1 DUP2 MSTORE PUSH1 0x40 DUP1 DUP4 KECCAK256 SLOAD PUSH1 0x11 DUP4 MSTORE DUP2 DUP5 KECCAK256 PUSH1 0xB DUP5 MSTORE DUP3 DUP6 KECCAK256 DUP4 MLOAD PUSH1 0xC0 DUP2 ADD DUP6 MSTORE DUP2 SLOAD PUSH1 0xFF DUP2 AND ISZERO ISZERO DUP3 MSTORE PUSH2 0x100 SWAP1 DIV SWAP1 SWAP8 AND DUP8 DUP7 ADD MSTORE PUSH1 0x1 DUP2 ADD SLOAD DUP8 DUP6 ADD MSTORE DUP4 MLOAD DUP1 DUP6 ADD SWAP1 SWAP5 MSTORE PUSH1 0x2 DUP2 ADD DUP1 SLOAD DUP6 MSTORE PUSH1 0x3 DUP3 ADD DUP1 SLOAD SWAP5 SWAP9 SWAP4 SWAP8 SWAP7 SWAP4 SWAP6 SWAP3 SWAP5 PUSH1 0x60 DUP8 ADD SWAP5 DUP5 ADD SWAP2 SWAP1 PUSH2 0x3688 SWAP1 PUSH2 0x45A9 JUMP JUMPDEST DUP1 PUSH1 0x1F ADD PUSH1 0x20 DUP1 SWAP2 DIV MUL PUSH1 0x20 ADD PUSH1 0x40 MLOAD SWAP1 DUP2 ADD PUSH1 0x40 MSTORE DUP1 SWAP3 SWAP2 SWAP1 DUP2 DUP2 MSTORE PUSH1 0x20 ADD DUP3 DUP1 SLOAD PUSH2 0x36B4 SWAP1 PUSH2 0x45A9 JUMP JUMPDEST DUP1 ISZERO PUSH2 0x3701 JUMPI DUP1 PUSH1 0x1F LT PUSH2 0x36D6 JUMPI PUSH2 0x100 DUP1 DUP4 SLOAD DIV MUL DUP4 MSTORE SWAP2 PUSH1 0x20 ADD SWAP2 PUSH2 0x3701 JUMP JUMPDEST DUP3 ADD SWAP2 SWAP1 PUSH1 0x0 MSTORE PUSH1 0x20 PUSH1 0x0 KECCAK256 SWAP1 JUMPDEST DUP2 SLOAD DUP2 MSTORE SWAP1 PUSH1 0x1 ADD SWAP1 PUSH1 0x20 ADD DUP1 DUP4 GT PUSH2 0x36E4 JUMPI DUP3 SWAP1 SUB PUSH1 0x1F AND DUP3 ADD SWAP2 JUMPDEST POP POP POP SWAP2 SWAP1 SWAP3 MSTORE POP POP POP DUP2 MSTORE PUSH1 0x4 DUP3 ADD SLOAD PUSH1 0x20 SWAP1 SWAP2 ADD SWAP1 PUSH1 0xFF AND PUSH1 0x6 DUP2 GT ISZERO PUSH2 0x372C JUMPI PUSH2 0x372C PUSH2 0x3F46 JUMP JUMPDEST PUSH1 0x6 DUP2 GT ISZERO PUSH2 0x373D JUMPI PUSH2 0x373D PUSH2 0x3F46 JUMP JUMPDEST DUP2 MSTORE PUSH1 0x20 ADD PUSH1 0x4 DUP3 ADD PUSH1 0x1 SWAP1 SLOAD SWAP1 PUSH2 0x100 EXP SWAP1 DIV PUSH1 0xFF AND PUSH1 0x6 DUP2 GT ISZERO PUSH2 0x3765 JUMPI PUSH2 0x3765 PUSH2 0x3F46 JUMP JUMPDEST PUSH1 0x6 DUP2 GT ISZERO PUSH2 0x3776 JUMPI PUSH2 0x3776 PUSH2 0x3F46 JUMP JUMPDEST DUP2 MSTORE POP POP SWAP1 POP PUSH1 0x0 DUP3 DUP5 DUP2 SLOAD DUP2 LT PUSH2 0x3790 JUMPI PUSH2 0x3790 PUSH2 0x460E JUMP JUMPDEST SWAP1 PUSH1 0x0 MSTORE PUSH1 0x20 PUSH1 0x0 KECCAK256 SWAP1 PUSH1 0x5 MUL ADD SWAP1 POP DUP3 DUP1 SLOAD SWAP1 POP DUP5 GT ISZERO PUSH2 0x37C5 JUMPI PUSH1 0x40 MLOAD PUSH4 0x2F1F68E1 PUSH1 0xE1 SHL DUP2 MSTORE PUSH1 0x4 ADD PUSH1 0x40 MLOAD DUP1 SWAP2 SUB SWAP1 REVERT JUMPDEST PUSH1 0x2 PUSH1 0x3 DUP3 ADD SLOAD PUSH1 0xFF AND PUSH1 0x6 DUP2 GT ISZERO PUSH2 0x37E0 JUMPI PUSH2 0x37E0 PUSH2 0x3F46 JUMP JUMPDEST EQ PUSH2 0x37FE JUMPI PUSH1 0x40 MLOAD PUSH4 0x5B2FE71D PUSH1 0xE1 SHL DUP2 MSTORE PUSH1 0x4 ADD PUSH1 0x40 MLOAD DUP1 SWAP2 SUB SWAP1 REVERT JUMPDEST PUSH1 0x0 PUSH8 0xDE0B6B3A7640000 DUP3 PUSH1 0x0 ADD SLOAD DUP5 PUSH1 0x40 ADD MLOAD PUSH2 0x381D SWAP2 SWAP1 PUSH2 0x48F1 JUMP JUMPDEST PUSH2 0x3827 SWAP2 SWAP1 PUSH2 0x4908 JUMP JUMPDEST SWAP1 POP PUSH1 0x0 PUSH32 0x0 PUSH1 0x1 PUSH1 0x1 PUSH1 0xA0 SHL SUB AND PUSH4 0x68BCD8D PUSH1 0x1 SLOAD PUSH1 0x40 MLOAD DUP3 PUSH4 0xFFFFFFFF AND PUSH1 0xE0 SHL DUP2 MSTORE PUSH1 0x4 ADD PUSH2 0x387B SWAP2 DUP2 MSTORE PUSH1 0x20 ADD SWAP1 JUMP JUMPDEST PUSH1 0x0 PUSH1 0x40 MLOAD DUP1 DUP4 SUB DUP2 DUP7 GAS STATICCALL ISZERO DUP1 ISZERO PUSH2 0x3898 JUMPI RETURNDATASIZE PUSH1 0x0 DUP1 RETURNDATACOPY RETURNDATASIZE PUSH1 0x0 REVERT JUMPDEST POP POP POP POP PUSH1 0x40 MLOAD RETURNDATASIZE PUSH1 0x0 DUP3 RETURNDATACOPY PUSH1 0x1F RETURNDATASIZE SWAP1 DUP2 ADD PUSH1 0x1F NOT AND DUP3 ADD PUSH1 0x40 MSTORE PUSH2 0x38C0 SWAP2 SWAP1 DUP2 ADD SWAP1 PUSH2 0x4D49 JUMP JUMPDEST SWAP1 POP DUP2 PUSH1 0x2 PUSH1 0x0 DUP3 DUP3 SLOAD PUSH2 0x38D4 SWAP2 SWAP1 PUSH2 0x4E5C JUMP JUMPDEST SWAP3 POP POP DUP2 SWAP1 SSTORE POP PUSH2 0x38EE DUP2 PUSH1 0x40 ADD MLOAD DUP6 PUSH1 0x20 ADD MLOAD DUP5 PUSH2 0x39E1 JUMP JUMPDEST PUSH1 0x1 PUSH1 0x1 PUSH1 0xA0 SHL SUB DUP9 AND PUSH1 0x0 SWAP1 DUP2 MSTORE PUSH1 0x12 PUSH1 0x20 MSTORE PUSH1 0x40 DUP2 KECCAK256 DUP1 SLOAD SWAP2 PUSH2 0x3912 DUP4 PUSH2 0x48D8 JUMP JUMPDEST SWAP1 SWAP2 SSTORE POP POP PUSH1 0x20 DUP1 DUP6 ADD MLOAD PUSH1 0x40 DUP1 MLOAD PUSH1 0x1 PUSH1 0x1 PUSH1 0xA0 SHL SUB SWAP3 DUP4 AND DUP2 MSTORE SWAP3 DUP4 ADD DUP6 SWAP1 MSTORE DUP10 DUP3 AND SWAP1 DUP4 ADD MSTORE DUP10 AND SWAP1 PUSH32 0xB5B51454ADFA840BD593658325A60A50B0216F12EB5D2937EFE6CEA935675B7D SWAP1 PUSH1 0x60 ADD PUSH1 0x40 MLOAD DUP1 SWAP2 SUB SWAP1 LOG2 POP POP POP POP POP POP POP POP JUMP JUMPDEST PUSH1 0x0 SLOAD PUSH1 0xFF AND PUSH2 0x236C JUMPI PUSH1 0x40 MLOAD PUSH4 0xCFE7975B PUSH1 0xE0 SHL DUP2 MSTORE PUSH1 0x4 ADD PUSH1 0x40 MLOAD DUP1 SWAP2 SUB SWAP1 REVERT JUMPDEST PUSH2 0x2222 DUP5 DUP5 DUP5 DUP5 PUSH1 0x40 MLOAD PUSH1 0x24 ADD PUSH2 0x39B2 SWAP5 SWAP4 SWAP3 SWAP2 SWAP1 PUSH2 0x4E6F JUMP JUMPDEST PUSH1 0x40 DUP1 MLOAD PUSH1 0x1F NOT DUP2 DUP5 SUB ADD DUP2 MSTORE SWAP2 SWAP1 MSTORE PUSH1 0x20 DUP2 ADD DUP1 MLOAD PUSH1 0x1 PUSH1 0x1 PUSH1 0xE0 SHL SUB AND PUSH4 0x1F118CA9 PUSH1 0xE2 SHL OR SWAP1 MSTORE PUSH2 0x3A94 JUMP JUMPDEST PUSH20 0xEEEEEEEEEEEEEEEEEEEEEEEEEEEEEEEEEEEEEEED NOT PUSH1 0x1 PUSH1 0x1 PUSH1 0xA0 SHL SUB DUP5 AND ADD PUSH2 0x3A10 JUMPI PUSH2 0x8B6 DUP3 DUP3 PUSH2 0x3A9D JUMP JUMPDEST PUSH2 0x8B6 DUP4 DUP4 DUP4 PUSH2 0x3AB9 JUMP JUMPDEST PUSH2 0x3A23 PUSH2 0x2323 JUMP JUMPDEST PUSH1 0x1 SLOAD ISZERO PUSH2 0x3A44 JUMPI PUSH1 0x40 MLOAD PUSH4 0x439A74C9 PUSH1 0xE0 SHL DUP2 MSTORE PUSH1 0x4 ADD PUSH1 0x40 MLOAD DUP1 SWAP2 SUB SWAP1 REVERT JUMPDEST DUP1 PUSH1 0x0 SUB PUSH2 0x3A65 JUMPI PUSH1 0x40 MLOAD PUSH4 0x7FCCE2A9 PUSH1 0xE0 SHL DUP2 MSTORE PUSH1 0x4 ADD PUSH1 0x40 MLOAD DUP1 SWAP2 SUB SWAP1 REVERT JUMPDEST PUSH1 0x1 SSTORE JUMP JUMPDEST PUSH1 0x2 PUSH1 0x3 SLOAD SUB PUSH2 0x3A8D JUMPI PUSH1 0x40 MLOAD PUSH4 0x3EE5AEB5 PUSH1 0xE0 SHL DUP2 MSTORE PUSH1 0x4 ADD PUSH1 0x40 MLOAD DUP1 SWAP2 SUB SWAP1 REVERT JUMPDEST PUSH1 0x2 PUSH1 0x3 SSTORE JUMP JUMPDEST PUSH2 0x22D8 DUP2 PUSH2 0x3AFF JUMP JUMPDEST PUSH1 0x0 CODESIZE PUSH1 0x0 CODESIZE DUP5 DUP7 GAS CALL PUSH2 0x22AD JUMPI PUSH4 0xB12D13EB PUSH1 0x0 MSTORE PUSH1 0x4 PUSH1 0x1C REVERT JUMPDEST DUP2 PUSH1 0x14 MSTORE DUP1 PUSH1 0x34 MSTORE PUSH4 0xA9059CBB PUSH1 0x60 SHL PUSH1 0x0 MSTORE PUSH1 0x20 PUSH1 0x0 PUSH1 0x44 PUSH1 0x10 PUSH1 0x0 DUP8 GAS CALL RETURNDATASIZE ISZERO PUSH1 0x1 PUSH1 0x0 MLOAD EQ OR AND PUSH2 0x3AF5 JUMPI PUSH4 0x90B8EC18 PUSH1 0x0 MSTORE PUSH1 0x4 PUSH1 0x1C REVERT JUMPDEST PUSH1 0x0 PUSH1 0x34 MSTORE POP POP POP JUMP JUMPDEST PUSH1 0x0 PUSH11 0x636F6E736F6C652E6C6F67 SWAP1 POP PUSH1 0x0 DUP1 DUP4 MLOAD PUSH1 0x20 DUP6 ADD DUP5 GAS STATICCALL POP POP POP JUMP JUMPDEST PUSH1 0x40 MLOAD DUP1 PUSH1 0xC0 ADD PUSH1 0x40 MSTORE DUP1 PUSH1 0x0 ISZERO ISZERO DUP2 MSTORE PUSH1 0x20 ADD PUSH1 0x0 PUSH1 0x1 PUSH1 0x1 PUSH1 0xA0 SHL SUB AND DUP2 MSTORE PUSH1 0x20 ADD PUSH1 0x0 DUP2 MSTORE PUSH1 0x20 ADD PUSH2 0x3B68 PUSH1 0x40 MLOAD DUP1 PUSH1 0x40 ADD PUSH1 0x40 MSTORE DUP1 PUSH1 0x0 DUP2 MSTORE PUSH1 0x20 ADD PUSH1 0x60 DUP2 MSTORE POP SWAP1 JUMP JUMPDEST DUP2 MSTORE PUSH1 0x20 ADD PUSH1 0x0 DUP2 MSTORE PUSH1 0x20 ADD PUSH1 0x0 SWAP1 MSTORE SWAP1 JUMP JUMPDEST POP DUP1 SLOAD PUSH1 0x0 DUP3 SSTORE PUSH1 0x5 MUL SWAP1 PUSH1 0x0 MSTORE PUSH1 0x20 PUSH1 0x0 KECCAK256 SWAP1 DUP2 ADD SWAP1 PUSH2 0x22D8 SWAP2 SWAP1 JUMPDEST DUP1 DUP3 GT ISZERO PUSH2 0x3BDF JUMPI PUSH1 0x0 DUP1 DUP3 SSTORE PUSH1 0x1 DUP3 ADD DUP2 DUP2 SSTORE DUP2 PUSH2 0x3BBA PUSH1 0x2 DUP6 ADD DUP3 PUSH2 0x3BE3 JUMP JUMPDEST POP POP PUSH1 0x3 DUP3 ADD DUP1 SLOAD PUSH1 0xFF NOT AND SWAP1 SSTORE PUSH2 0x3BD6 PUSH1 0x4 DUP4 ADD PUSH1 0x0 PUSH2 0x3BE3 JUMP JUMPDEST POP PUSH1 0x5 ADD PUSH2 0x3B98 JUMP JUMPDEST POP SWAP1 JUMP JUMPDEST POP DUP1 SLOAD PUSH2 0x3BEF SWAP1 PUSH2 0x45A9 JUMP JUMPDEST PUSH1 0x0 DUP3 SSTORE DUP1 PUSH1 0x1F LT PUSH2 0x3BFF JUMPI POP POP JUMP JUMPDEST PUSH1 0x1F ADD PUSH1 0x20 SWAP1 DIV SWAP1 PUSH1 0x0 MSTORE PUSH1 0x20 PUSH1 0x0 KECCAK256 SWAP1 DUP2 ADD SWAP1 PUSH2 0x22D8 SWAP2 SWAP1 JUMPDEST DUP1 DUP3 GT ISZERO PUSH2 0x3BDF JUMPI PUSH1 0x0 DUP2 SSTORE PUSH1 0x1 ADD PUSH2 0x3C19 JUMP JUMPDEST PUSH4 0x4E487B71 PUSH1 0xE0 SHL PUSH1 0x0 MSTORE PUSH1 0x41 PUSH1 0x4 MSTORE PUSH1 0x24 PUSH1 0x0 REVERT JUMPDEST PUSH1 0x40 MLOAD PUSH1 0x80 DUP2 ADD PUSH1 0x1 PUSH1 0x1 PUSH1 0x40 SHL SUB DUP2 GT DUP3 DUP3 LT OR ISZERO PUSH2 0x3C65 JUMPI PUSH2 0x3C65 PUSH2 0x3C2D JUMP JUMPDEST PUSH1 0x40 MSTORE SWAP1 JUMP JUMPDEST PUSH1 0x40 DUP1 MLOAD SWAP1 DUP2 ADD PUSH1 0x1 PUSH1 0x1 PUSH1 0x40 SHL SUB DUP2 GT DUP3 DUP3 LT OR ISZERO PUSH2 0x3C65 JUMPI PUSH2 0x3C65 PUSH2 0x3C2D JUMP JUMPDEST PUSH1 0x40 MLOAD PUSH1 0xC0 DUP2 ADD PUSH1 0x1 PUSH1 0x1 PUSH1 0x40 SHL SUB DUP2 GT DUP3 DUP3 LT OR ISZERO PUSH2 0x3C65 JUMPI PUSH2 0x3C65 PUSH2 0x3C2D JUMP JUMPDEST PUSH1 0x40 MLOAD PUSH1 0x1F DUP3 ADD PUSH1 0x1F NOT AND DUP2 ADD PUSH1 0x1 PUSH1 0x1 PUSH1 0x40 SHL SUB DUP2 GT DUP3 DUP3 LT OR ISZERO PUSH2 0x3CD7 JUMPI PUSH2 0x3CD7 PUSH2 0x3C2D JUMP JUMPDEST PUSH1 0x40 MSTORE SWAP2 SWAP1 POP JUMP JUMPDEST PUSH1 0x0 PUSH1 0x1 PUSH1 0x1 PUSH1 0x40 SHL SUB DUP3 GT ISZERO PUSH2 0x3CF8 JUMPI PUSH2 0x3CF8 PUSH2 0x3C2D JUMP JUMPDEST POP PUSH1 0x5 SHL PUSH1 0x20 ADD SWAP1 JUMP JUMPDEST PUSH1 0x1 PUSH1 0x1 PUSH1 0xA0 SHL SUB DUP2 AND DUP2 EQ PUSH2 0x22D8 JUMPI PUSH1 0x0 DUP1 REVERT JUMPDEST PUSH1 0x0 DUP3 PUSH1 0x1F DUP4 ADD SLT PUSH2 0x3D28 JUMPI PUSH1 0x0 DUP1 REVERT JUMPDEST DUP2 CALLDATALOAD PUSH1 0x20 PUSH2 0x3D3D PUSH2 0x3D38 DUP4 PUSH2 0x3CDF JUMP JUMPDEST PUSH2 0x3CAF JUMP JUMPDEST DUP3 DUP2 MSTORE PUSH1 0x5 SWAP3 SWAP1 SWAP3 SHL DUP5 ADD DUP2 ADD SWAP2 DUP2 DUP2 ADD SWAP1 DUP7 DUP5 GT ISZERO PUSH2 0x3D5C JUMPI PUSH1 0x0 DUP1 REVERT JUMPDEST DUP3 DUP7 ADD JUMPDEST DUP5 DUP2 LT ISZERO PUSH2 0x3D80 JUMPI DUP1 CALLDATALOAD PUSH2 0x3D73 DUP2 PUSH2 0x3D02 JUMP JUMPDEST DUP4 MSTORE SWAP2 DUP4 ADD SWAP2 DUP4 ADD PUSH2 0x3D60 JUMP JUMPDEST POP SWAP7 SWAP6 POP POP POP POP POP POP JUMP JUMPDEST PUSH1 0x0 PUSH1 0x1 PUSH1 0x1 PUSH1 0x40 SHL SUB DUP3 GT ISZERO PUSH2 0x3DA4 JUMPI PUSH2 0x3DA4 PUSH2 0x3C2D JUMP JUMPDEST POP PUSH1 0x1F ADD PUSH1 0x1F NOT AND PUSH1 0x20 ADD SWAP1 JUMP JUMPDEST PUSH1 0x0 DUP3 PUSH1 0x1F DUP4 ADD SLT PUSH2 0x3DC3 JUMPI PUSH1 0x0 DUP1 REVERT JUMPDEST DUP2 CALLDATALOAD PUSH2 0x3DD1 PUSH2 0x3D38 DUP3 PUSH2 0x3D8B JUMP JUMPDEST DUP2 DUP2 MSTORE DUP5 PUSH1 0x20 DUP4 DUP7 ADD ADD GT ISZERO PUSH2 0x3DE6 JUMPI PUSH1 0x0 DUP1 REVERT JUMPDEST DUP2 PUSH1 0x20 DUP6 ADD PUSH1 0x20 DUP4 ADD CALLDATACOPY PUSH1 0x0 SWAP2 DUP2 ADD PUSH1 0x20 ADD SWAP2 SWAP1 SWAP2 MSTORE SWAP4 SWAP3 POP POP POP JUMP JUMPDEST PUSH1 0x0 DUP1 PUSH1 0x0 PUSH1 0x60 DUP5 DUP7 SUB SLT ISZERO PUSH2 0x3E18 JUMPI PUSH1 0x0 DUP1 REVERT JUMPDEST DUP4 CALLDATALOAD PUSH1 0x1 PUSH1 0x1 PUSH1 0x40 SHL SUB DUP1 DUP3 GT ISZERO PUSH2 0x3E2F JUMPI PUSH1 0x0 DUP1 REVERT JUMPDEST PUSH2 0x3E3B DUP8 DUP4 DUP9 ADD PUSH2 0x3D17 JUMP JUMPDEST SWAP5 POP PUSH1 0x20 DUP7 ADD CALLDATALOAD SWAP2 POP DUP1 DUP3 GT ISZERO PUSH2 0x3E51 JUMPI PUSH1 0x0 DUP1 REVERT JUMPDEST POP PUSH2 0x3E5E DUP7 DUP3 DUP8 ADD PUSH2 0x3DB2 JUMP JUMPDEST SWAP3 POP POP PUSH1 0x40 DUP5 ADD CALLDATALOAD PUSH2 0x3E6F DUP2 PUSH2 0x3D02 JUMP JUMPDEST DUP1 SWAP2 POP POP SWAP3 POP SWAP3 POP SWAP3 JUMP JUMPDEST PUSH1 0x0 DUP1 PUSH1 0x40 DUP4 DUP6 SUB SLT ISZERO PUSH2 0x3E8D JUMPI PUSH1 0x0 DUP1 REVERT JUMPDEST DUP3 CALLDATALOAD PUSH2 0x3E98 DUP2 PUSH2 0x3D02 JUMP JUMPDEST SWAP2 POP PUSH1 0x20 DUP4 ADD CALLDATALOAD PUSH2 0x3EA8 DUP2 PUSH2 0x3D02 JUMP JUMPDEST DUP1 SWAP2 POP POP SWAP3 POP SWAP3 SWAP1 POP JUMP JUMPDEST PUSH1 0x0 PUSH1 0x20 DUP3 DUP5 SUB SLT ISZERO PUSH2 0x3EC5 JUMPI PUSH1 0x0 DUP1 REVERT JUMPDEST DUP2 CALLDATALOAD PUSH2 0x3ED0 DUP2 PUSH2 0x3D02 JUMP JUMPDEST SWAP4 SWAP3 POP POP POP JUMP JUMPDEST PUSH1 0x0 JUMPDEST DUP4 DUP2 LT ISZERO PUSH2 0x3EF2 JUMPI DUP2 DUP2 ADD MLOAD DUP4 DUP3 ADD MSTORE PUSH1 0x20 ADD PUSH2 0x3EDA JUMP JUMPDEST POP POP PUSH1 0x0 SWAP2 ADD MSTORE JUMP JUMPDEST PUSH1 0x0 DUP2 MLOAD DUP1 DUP5 MSTORE PUSH2 0x3F13 DUP2 PUSH1 0x20 DUP7 ADD PUSH1 0x20 DUP7 ADD PUSH2 0x3ED7 JUMP JUMPDEST PUSH1 0x1F ADD PUSH1 0x1F NOT AND SWAP3 SWAP1 SWAP3 ADD PUSH1 0x20 ADD SWAP3 SWAP2 POP POP JUMP JUMPDEST DUP1 MLOAD DUP3 MSTORE PUSH1 0x0 PUSH1 0x20 DUP3 ADD MLOAD PUSH1 0x40 PUSH1 0x20 DUP6 ADD MSTORE PUSH2 0x2A5E PUSH1 0x40 DUP6 ADD DUP3 PUSH2 0x3EFB JUMP JUMPDEST PUSH4 0x4E487B71 PUSH1 0xE0 SHL PUSH1 0x0 MSTORE PUSH1 0x21 PUSH1 0x4 MSTORE PUSH1 0x24 PUSH1 0x0 REVERT JUMPDEST PUSH1 0x7 DUP2 LT PUSH2 0x3F7A JUMPI PUSH4 0x4E487B71 PUSH1 0xE0 SHL PUSH1 0x0 MSTORE PUSH1 0x21 PUSH1 0x4 MSTORE PUSH1 0x24 PUSH1 0x0 REVERT JUMPDEST SWAP1 MSTORE JUMP JUMPDEST PUSH1 0x0 PUSH1 0x20 DUP1 DUP4 ADD DUP2 DUP5 MSTORE DUP1 DUP6 MLOAD DUP1 DUP4 MSTORE PUSH1 0x40 SWAP3 POP DUP3 DUP7 ADD SWAP2 POP DUP3 DUP2 PUSH1 0x5 SHL DUP8 ADD ADD DUP5 DUP9 ADD PUSH1 0x0 JUMPDEST DUP4 DUP2 LT ISZERO PUSH2 0x4015 JUMPI PUSH1 0x3F NOT DUP10 DUP5 SUB ADD DUP6 MSTORE DUP2 MLOAD PUSH1 0x80 DUP2 MLOAD DUP6 MSTORE DUP9 DUP3 ADD MLOAD DUP2 DUP11 DUP8 ADD MSTORE PUSH2 0x3FD3 DUP3 DUP8 ADD DUP3 PUSH2 0x3F27 JUMP JUMPDEST SWAP2 POP POP DUP8 DUP3 ADD MLOAD PUSH2 0x3FE6 DUP10 DUP8 ADD DUP3 PUSH2 0x3F5C JUMP JUMPDEST POP PUSH1 0x60 DUP1 DUP4 ADD MLOAD SWAP3 POP DUP6 DUP3 SUB DUP2 DUP8 ADD MSTORE POP PUSH2 0x4001 DUP2 DUP4 PUSH2 0x3EFB JUMP JUMPDEST SWAP7 DUP10 ADD SWAP7 SWAP5 POP POP POP SWAP1 DUP7 ADD SWAP1 PUSH1 0x1 ADD PUSH2 0x3FA5 JUMP JUMPDEST POP SWAP1 SWAP9 SWAP8 POP POP POP POP POP POP POP POP JUMP JUMPDEST PUSH1 0x0 DUP1 PUSH1 0x40 DUP4 DUP6 SUB SLT ISZERO PUSH2 0x4036 JUMPI PUSH1 0x0 DUP1 REVERT JUMPDEST POP POP DUP1 CALLDATALOAD SWAP3 PUSH1 0x20 SWAP1 SWAP2 ADD CALLDATALOAD SWAP2 POP JUMP JUMPDEST PUSH1 0x0 DUP1 PUSH1 0x40 DUP4 DUP6 SUB SLT ISZERO PUSH2 0x4058 JUMPI PUSH1 0x0 DUP1 REVERT JUMPDEST DUP3 CALLDATALOAD PUSH1 0x1 PUSH1 0x1 PUSH1 0x40 SHL SUB DUP2 GT ISZERO PUSH2 0x406E JUMPI PUSH1 0x0 DUP1 REVERT JUMPDEST PUSH2 0x407A DUP6 DUP3 DUP7 ADD PUSH2 0x3DB2 JUMP JUMPDEST SWAP3 POP POP PUSH1 0x20 DUP4 ADD CALLDATALOAD PUSH2 0x3EA8 DUP2 PUSH2 0x3D02 JUMP JUMPDEST PUSH1 0x0 DUP1 PUSH1 0x0 PUSH1 0x60 DUP5 DUP7 SUB SLT ISZERO PUSH2 0x40A0 JUMPI PUSH1 0x0 DUP1 REVERT JUMPDEST DUP4 CALLDATALOAD PUSH2 0x40AB DUP2 PUSH2 0x3D02 JUMP JUMPDEST SWAP3 POP PUSH1 0x20 DUP5 ADD CALLDATALOAD SWAP2 POP PUSH1 0x40 DUP5 ADD CALLDATALOAD PUSH1 0x1 PUSH1 0x1 PUSH1 0x40 SHL SUB DUP2 GT ISZERO PUSH2 0x40CD JUMPI PUSH1 0x0 DUP1 REVERT JUMPDEST DUP5 ADD PUSH1 0x40 DUP2 DUP8 SUB SLT ISZERO PUSH2 0x3E6F JUMPI PUSH1 0x0 DUP1 REVERT JUMPDEST PUSH1 0x0 PUSH1 0x20 DUP3 DUP5 SUB SLT ISZERO PUSH2 0x40F1 JUMPI PUSH1 0x0 DUP1 REVERT JUMPDEST POP CALLDATALOAD SWAP2 SWAP1 POP JUMP JUMPDEST PUSH1 0x0 DUP1 PUSH1 0x40 DUP4 DUP6 SUB SLT ISZERO PUSH2 0x410B JUMPI PUSH1 0x0 DUP1 REVERT JUMPDEST DUP3 CALLDATALOAD SWAP2 POP PUSH1 0x20 DUP4 ADD CALLDATALOAD PUSH2 0x3EA8 DUP2 PUSH2 0x3D02 JUMP JUMPDEST PUSH1 0x20 DUP2 MSTORE DUP2 MLOAD ISZERO ISZERO PUSH1 0x20 DUP3 ADD MSTORE PUSH1 0x1 DUP1 PUSH1 0xA0 SHL SUB PUSH1 0x20 DUP4 ADD MLOAD AND PUSH1 0x40 DUP3 ADD MSTORE PUSH1 0x40 DUP3 ADD MLOAD PUSH1 0x60 DUP3 ADD MSTORE PUSH1 0x0 PUSH1 0x60 DUP4 ADD MLOAD PUSH1 0xC0 PUSH1 0x80 DUP5 ADD MSTORE PUSH2 0x4161 PUSH1 0xE0 DUP5 ADD DUP3 PUSH2 0x3F27 JUMP JUMPDEST SWAP1 POP PUSH1 0x80 DUP5 ADD MLOAD PUSH2 0x4175 PUSH1 0xA0 DUP6 ADD DUP3 PUSH2 0x3F5C JUMP JUMPDEST POP PUSH1 0xA0 DUP5 ADD MLOAD PUSH2 0x4188 PUSH1 0xC0 DUP6 ADD DUP3 PUSH2 0x3F5C JUMP JUMPDEST POP SWAP4 SWAP3 POP POP POP JUMP JUMPDEST PUSH1 0x7 DUP2 LT PUSH2 0x22D8 JUMPI PUSH1 0x0 DUP1 REVERT JUMPDEST DUP1 CALLDATALOAD PUSH2 0x41A8 DUP2 PUSH2 0x4190 JUMP JUMPDEST SWAP2 SWAP1 POP JUMP JUMPDEST PUSH1 0x0 DUP1 PUSH1 0x40 DUP4 DUP6 SUB SLT ISZERO PUSH2 0x41C0 JUMPI PUSH1 0x0 DUP1 REVERT JUMPDEST PUSH2 0x41CA DUP4 CALLDATALOAD PUSH2 0x3D02 JUMP JUMPDEST DUP3 CALLDATALOAD SWAP2 POP PUSH1 0x1 PUSH1 0x1 PUSH1 0x40 SHL SUB DUP1 PUSH1 0x20 DUP6 ADD CALLDATALOAD GT ISZERO PUSH2 0x41E7 JUMPI PUSH1 0x0 DUP1 REVERT JUMPDEST PUSH1 0x20 DUP5 ADD CALLDATALOAD DUP5 ADD DUP6 PUSH1 0x1F DUP3 ADD SLT PUSH2 0x41FD JUMPI PUSH1 0x0 DUP1 REVERT JUMPDEST PUSH2 0x420A PUSH2 0x3D38 DUP3 CALLDATALOAD PUSH2 0x3CDF JUMP JUMPDEST DUP2 CALLDATALOAD DUP1 DUP3 MSTORE PUSH1 0x20 DUP1 DUP4 ADD SWAP3 SWAP2 PUSH1 0x5 SHL DUP5 ADD ADD DUP9 LT ISZERO PUSH2 0x4228 JUMPI PUSH1 0x0 DUP1 REVERT JUMPDEST PUSH1 0x20 DUP4 ADD JUMPDEST PUSH1 0x20 DUP5 CALLDATALOAD PUSH1 0x5 SHL DUP6 ADD ADD DUP2 LT ISZERO PUSH2 0x4329 JUMPI DUP5 DUP2 CALLDATALOAD GT ISZERO PUSH2 0x424C JUMPI PUSH1 0x0 DUP1 REVERT JUMPDEST DUP1 CALLDATALOAD DUP5 ADD PUSH1 0x1F NOT PUSH1 0x80 DUP3 DUP13 SUB DUP3 ADD SLT ISZERO PUSH2 0x4265 JUMPI PUSH1 0x0 DUP1 REVERT JUMPDEST PUSH2 0x426D PUSH2 0x3C43 JUMP JUMPDEST PUSH1 0x20 DUP4 ADD CALLDATALOAD DUP2 MSTORE DUP8 PUSH1 0x40 DUP5 ADD CALLDATALOAD GT ISZERO PUSH2 0x4285 JUMPI PUSH1 0x0 DUP1 REVERT JUMPDEST PUSH1 0x40 DUP4 ADD CALLDATALOAD DUP4 ADD PUSH1 0x40 DUP4 DUP3 DUP16 SUB ADD SLT ISZERO PUSH2 0x429E JUMPI PUSH1 0x0 DUP1 REVERT JUMPDEST PUSH2 0x42A6 PUSH2 0x3C6B JUMP JUMPDEST SWAP3 POP PUSH1 0x20 DUP2 ADD CALLDATALOAD DUP4 MSTORE DUP9 PUSH1 0x40 DUP3 ADD CALLDATALOAD GT ISZERO PUSH2 0x42C0 JUMPI PUSH1 0x0 DUP1 REVERT JUMPDEST PUSH2 0x42D3 DUP14 PUSH1 0x20 PUSH1 0x40 DUP5 ADD CALLDATALOAD DUP5 ADD ADD PUSH2 0x3DB2 JUMP JUMPDEST PUSH1 0x20 DUP5 ADD MSTORE POP DUP2 PUSH1 0x20 DUP3 ADD MSTORE PUSH2 0x42EB PUSH1 0x60 DUP5 ADD PUSH2 0x419D JUMP JUMPDEST PUSH1 0x40 DUP3 ADD MSTORE DUP8 PUSH1 0x80 DUP5 ADD CALLDATALOAD GT ISZERO PUSH2 0x4301 JUMPI PUSH1 0x0 DUP1 REVERT JUMPDEST PUSH2 0x4314 DUP13 PUSH1 0x20 PUSH1 0x80 DUP7 ADD CALLDATALOAD DUP7 ADD ADD PUSH2 0x3DB2 JUMP JUMPDEST PUSH1 0x60 DUP3 ADD MSTORE DUP6 MSTORE POP POP PUSH1 0x20 SWAP3 DUP4 ADD SWAP3 ADD PUSH2 0x422D JUMP JUMPDEST POP DUP1 SWAP5 POP POP POP POP POP SWAP3 POP SWAP3 SWAP1 POP JUMP JUMPDEST PUSH1 0x0 DUP1 PUSH1 0x0 PUSH1 0x60 DUP5 DUP7 SUB SLT ISZERO PUSH2 0x434D JUMPI PUSH1 0x0 DUP1 REVERT JUMPDEST DUP4 CALLDATALOAD PUSH2 0x4358 DUP2 PUSH2 0x3D02 JUMP JUMPDEST SWAP3 POP PUSH1 0x20 DUP5 ADD CALLDATALOAD SWAP2 POP PUSH1 0x40 DUP5 ADD CALLDATALOAD PUSH2 0x3E6F DUP2 PUSH2 0x4190 JUMP JUMPDEST PUSH1 0x0 DUP1 PUSH1 0x40 DUP4 DUP6 SUB SLT ISZERO PUSH2 0x4382 JUMPI PUSH1 0x0 DUP1 REVERT JUMPDEST DUP3 CALLDATALOAD PUSH1 0x1 PUSH1 0x1 PUSH1 0x40 SHL SUB DUP1 DUP3 GT ISZERO PUSH2 0x4399 JUMPI PUSH1 0x0 DUP1 REVERT JUMPDEST PUSH2 0x43A5 DUP7 DUP4 DUP8 ADD PUSH2 0x3D17 JUMP JUMPDEST SWAP4 POP PUSH1 0x20 SWAP2 POP DUP2 DUP6 ADD CALLDATALOAD DUP2 DUP2 GT ISZERO PUSH2 0x43BC JUMPI PUSH1 0x0 DUP1 REVERT JUMPDEST DUP6 ADD PUSH1 0x1F DUP2 ADD DUP8 SGT PUSH2 0x43CD JUMPI PUSH1 0x0 DUP1 REVERT JUMPDEST DUP1 CALLDATALOAD PUSH2 0x43DB PUSH2 0x3D38 DUP3 PUSH2 0x3CDF JUMP JUMPDEST DUP2 DUP2 MSTORE PUSH1 0x5 SWAP2 SWAP1 SWAP2 SHL DUP3 ADD DUP5 ADD SWAP1 DUP5 DUP2 ADD SWAP1 DUP10 DUP4 GT ISZERO PUSH2 0x43FA JUMPI PUSH1 0x0 DUP1 REVERT JUMPDEST DUP6 DUP5 ADD JUMPDEST DUP4 DUP2 LT ISZERO PUSH2 0x4432 JUMPI DUP1 CALLDATALOAD DUP7 DUP2 GT ISZERO PUSH2 0x4416 JUMPI PUSH1 0x0 DUP1 DUP2 REVERT JUMPDEST PUSH2 0x4424 DUP13 DUP10 DUP4 DUP10 ADD ADD PUSH2 0x3DB2 JUMP JUMPDEST DUP5 MSTORE POP SWAP2 DUP7 ADD SWAP2 DUP7 ADD PUSH2 0x43FE JUMP JUMPDEST POP DUP1 SWAP7 POP POP POP POP POP POP POP SWAP3 POP SWAP3 SWAP1 POP JUMP JUMPDEST PUSH1 0x20 DUP1 DUP3 MSTORE DUP3 MLOAD DUP3 DUP3 ADD DUP2 SWAP1 MSTORE PUSH1 0x0 SWAP2 SWAP1 PUSH1 0x40 SWAP1 DUP2 DUP6 ADD SWAP1 DUP7 DUP5 ADD DUP6 JUMPDEST DUP3 DUP2 LT ISZERO PUSH2 0x448E JUMPI DUP2 MLOAD DUP1 MLOAD PUSH1 0x1 PUSH1 0x1 PUSH1 0xA0 SHL SUB AND DUP6 MSTORE DUP7 ADD MLOAD DUP7 DUP6 ADD MSTORE SWAP3 DUP5 ADD SWAP3 SWAP1 DUP6 ADD SWAP1 PUSH1 0x1 ADD PUSH2 0x4460 JUMP JUMPDEST POP SWAP2 SWAP8 SWAP7 POP POP POP POP POP POP POP JUMP JUMPDEST PUSH1 0x0 DUP1 PUSH1 0x40 DUP4 DUP6 SUB SLT ISZERO PUSH2 0x44AE JUMPI PUSH1 0x0 DUP1 REVERT JUMPDEST DUP3 CALLDATALOAD PUSH2 0x44B9 DUP2 PUSH2 0x3D02 JUMP JUMPDEST SWAP2 POP PUSH1 0x20 DUP4 ADD CALLDATALOAD PUSH2 0x3EA8 DUP2 PUSH2 0x4190 JUMP JUMPDEST PUSH1 0x0 DUP1 PUSH1 0x40 DUP4 DUP6 SUB SLT ISZERO PUSH2 0x44DC JUMPI PUSH1 0x0 DUP1 REVERT JUMPDEST DUP3 CALLDATALOAD PUSH2 0x44E7 DUP2 PUSH2 0x3D02 JUMP JUMPDEST SWAP5 PUSH1 0x20 SWAP4 SWAP1 SWAP4 ADD CALLDATALOAD SWAP4 POP POP POP JUMP JUMPDEST DUP5 DUP2 MSTORE PUSH1 0x80 PUSH1 0x20 DUP3 ADD MSTORE PUSH1 0x0 PUSH2 0x450E PUSH1 0x80 DUP4 ADD DUP7 PUSH2 0x3F27 JUMP JUMPDEST PUSH2 0x451B PUSH1 0x40 DUP5 ADD DUP7 PUSH2 0x3F5C JUMP JUMPDEST DUP3 DUP2 SUB PUSH1 0x60 DUP5 ADD MSTORE PUSH2 0x452D DUP2 DUP6 PUSH2 0x3EFB JUMP JUMPDEST SWAP8 SWAP7 POP POP POP POP POP POP POP JUMP JUMPDEST PUSH1 0x0 PUSH1 0x20 DUP3 DUP5 SUB SLT ISZERO PUSH2 0x454A JUMPI PUSH1 0x0 DUP1 REVERT JUMPDEST DUP2 CALLDATALOAD PUSH2 0x3ED0 DUP2 PUSH2 0x4190 JUMP JUMPDEST PUSH1 0x20 DUP2 ADD PUSH2 0x8E6 DUP3 DUP5 PUSH2 0x3F5C JUMP JUMPDEST PUSH1 0x0 DUP1 PUSH1 0x40 DUP4 DUP6 SUB SLT ISZERO PUSH2 0x4576 JUMPI PUSH1 0x0 DUP1 REVERT JUMPDEST DUP3 CALLDATALOAD SWAP2 POP PUSH1 0x20 DUP4 ADD CALLDATALOAD PUSH1 0x1 PUSH1 0x1 PUSH1 0x40 SHL SUB DUP2 GT ISZERO PUSH2 0x4593 JUMPI PUSH1 0x0 DUP1 REVERT JUMPDEST PUSH2 0x459F DUP6 DUP3 DUP7 ADD PUSH2 0x3DB2 JUMP JUMPDEST SWAP2 POP POP SWAP3 POP SWAP3 SWAP1 POP JUMP JUMPDEST PUSH1 0x1 DUP2 DUP2 SHR SWAP1 DUP3 AND DUP1 PUSH2 0x45BD JUMPI PUSH1 0x7F DUP3 AND SWAP2 POP JUMPDEST PUSH1 0x20 DUP3 LT DUP2 SUB PUSH2 0x45DD JUMPI PUSH4 0x4E487B71 PUSH1 0xE0 SHL PUSH1 0x0 MSTORE PUSH1 0x22 PUSH1 0x4 MSTORE PUSH1 0x24 PUSH1 0x0 REVERT JUMPDEST POP SWAP2 SWAP1 POP JUMP JUMPDEST DUP1 MLOAD DUP1 ISZERO ISZERO DUP2 EQ PUSH2 0x41A8 JUMPI PUSH1 0x0 DUP1 REVERT JUMPDEST PUSH1 0x0 PUSH1 0x20 DUP3 DUP5 SUB SLT ISZERO PUSH2 0x4605 JUMPI PUSH1 0x0 DUP1 REVERT JUMPDEST PUSH2 0x3ED0 DUP3 PUSH2 0x45E3 JUMP JUMPDEST PUSH4 0x4E487B71 PUSH1 0xE0 SHL PUSH1 0x0 MSTORE PUSH1 0x32 PUSH1 0x4 MSTORE PUSH1 0x24 PUSH1 0x0 REVERT JUMPDEST PUSH1 0x1F DUP3 GT ISZERO PUSH2 0x8B6 JUMPI PUSH1 0x0 DUP2 DUP2 MSTORE PUSH1 0x20 DUP2 KECCAK256 PUSH1 0x1F DUP6 ADD PUSH1 0x5 SHR DUP2 ADD PUSH1 0x20 DUP7 LT ISZERO PUSH2 0x464B JUMPI POP DUP1 JUMPDEST PUSH1 0x1F DUP6 ADD PUSH1 0x5 SHR DUP3 ADD SWAP2 POP JUMPDEST DUP2 DUP2 LT ISZERO PUSH2 0x466A JUMPI DUP3 DUP2 SSTORE PUSH1 0x1 ADD PUSH2 0x4657 JUMP JUMPDEST POP POP POP POP POP POP JUMP JUMPDEST DUP2 CALLDATALOAD DUP2 SSTORE PUSH1 0x1 DUP1 DUP3 ADD PUSH1 0x20 DUP1 DUP6 ADD CALLDATALOAD PUSH1 0x1E NOT DUP7 CALLDATASIZE SUB ADD DUP2 SLT PUSH2 0x4693 JUMPI PUSH1 0x0 DUP1 REVERT JUMPDEST DUP6 ADD DUP1 CALLDATALOAD PUSH1 0x1 PUSH1 0x1 PUSH1 0x40 SHL SUB DUP2 GT ISZERO PUSH2 0x46AB JUMPI PUSH1 0x0 DUP1 REVERT JUMPDEST DUP1 CALLDATASIZE SUB DUP4 DUP4 ADD SGT ISZERO PUSH2 0x46BC JUMPI PUSH1 0x0 DUP1 REVERT JUMPDEST PUSH2 0x46D0 DUP2 PUSH2 0x46CA DUP7 SLOAD PUSH2 0x45A9 JUMP JUMPDEST DUP7 PUSH2 0x4624 JUMP JUMPDEST PUSH1 0x0 PUSH1 0x1F DUP3 GT PUSH1 0x1 DUP2 EQ PUSH2 0x4706 JUMPI PUSH1 0x0 DUP4 ISZERO PUSH2 0x46EE JUMPI POP DUP4 DUP3 ADD DUP6 ADD CALLDATALOAD JUMPDEST PUSH1 0x0 NOT PUSH1 0x3 DUP6 SWAP1 SHL SHR NOT AND PUSH1 0x1 DUP5 SWAP1 SHL OR DUP7 SSTORE PUSH2 0x475F JUMP JUMPDEST PUSH1 0x0 DUP7 DUP2 MSTORE PUSH1 0x20 SWAP1 KECCAK256 PUSH1 0x1F NOT DUP5 AND SWAP1 DUP4 JUMPDEST DUP3 DUP2 LT ISZERO PUSH2 0x4736 JUMPI DUP7 DUP6 ADD DUP9 ADD CALLDATALOAD DUP3 SSTORE SWAP4 DUP8 ADD SWAP4 SWAP1 DUP10 ADD SWAP1 DUP8 ADD PUSH2 0x4717 JUMP JUMPDEST POP DUP5 DUP3 LT ISZERO PUSH2 0x4755 JUMPI PUSH1 0x0 NOT PUSH1 0xF8 DUP7 PUSH1 0x3 SHL AND SHR NOT DUP8 DUP6 DUP9 ADD ADD CALLDATALOAD AND DUP2 SSTORE JUMPDEST POP POP DUP7 DUP4 DUP9 SHL ADD DUP7 SSTORE JUMPDEST POP POP POP POP POP POP POP POP POP JUMP JUMPDEST PUSH1 0x1 DUP1 PUSH1 0xA0 SHL SUB DUP5 AND DUP2 MSTORE DUP3 PUSH1 0x20 DUP3 ADD MSTORE PUSH1 0x60 PUSH1 0x40 DUP3 ADD MSTORE DUP2 CALLDATALOAD PUSH1 0x60 DUP3 ADD MSTORE PUSH1 0x0 PUSH1 0x20 DUP4 ADD CALLDATALOAD PUSH1 0x1E NOT DUP5 CALLDATASIZE SUB ADD DUP2 SLT PUSH2 0x47A2 JUMPI PUSH1 0x0 DUP1 REVERT JUMPDEST DUP4 ADD PUSH1 0x20 DUP2 ADD SWAP1 CALLDATALOAD PUSH1 0x1 PUSH1 0x1 PUSH1 0x40 SHL SUB DUP2 GT ISZERO PUSH2 0x47BE JUMPI PUSH1 0x0 DUP1 REVERT JUMPDEST DUP1 CALLDATASIZE SUB DUP3 SGT ISZERO PUSH2 0x47CD JUMPI PUSH1 0x0 DUP1 REVERT JUMPDEST PUSH1 0x40 PUSH1 0x80 DUP6 ADD MSTORE DUP1 PUSH1 0xA0 DUP6 ADD MSTORE DUP1 DUP3 PUSH1 0xC0 DUP7 ADD CALLDATACOPY PUSH1 0x0 PUSH1 0xC0 DUP3 DUP7 ADD ADD MSTORE PUSH1 0xC0 PUSH1 0x1F NOT PUSH1 0x1F DUP4 ADD AND DUP6 ADD ADD SWAP3 POP POP POP SWAP5 SWAP4 POP POP POP POP JUMP JUMPDEST DUP2 MLOAD PUSH1 0x1 PUSH1 0x1 PUSH1 0x40 SHL SUB DUP2 GT ISZERO PUSH2 0x481C JUMPI PUSH2 0x481C PUSH2 0x3C2D JUMP JUMPDEST PUSH2 0x4830 DUP2 PUSH2 0x482A DUP5 SLOAD PUSH2 0x45A9 JUMP JUMPDEST DUP5 PUSH2 0x4624 JUMP JUMPDEST PUSH1 0x20 DUP1 PUSH1 0x1F DUP4 GT PUSH1 0x1 DUP2 EQ PUSH2 0x4865 JUMPI PUSH1 0x0 DUP5 ISZERO PUSH2 0x484D JUMPI POP DUP6 DUP4 ADD MLOAD JUMPDEST PUSH1 0x0 NOT PUSH1 0x3 DUP7 SWAP1 SHL SHR NOT AND PUSH1 0x1 DUP6 SWAP1 SHL OR DUP6 SSTORE PUSH2 0x466A JUMP JUMPDEST PUSH1 0x0 DUP6 DUP2 MSTORE PUSH1 0x20 DUP2 KECCAK256 PUSH1 0x1F NOT DUP7 AND SWAP2 JUMPDEST DUP3 DUP2 LT ISZERO PUSH2 0x4894 JUMPI DUP9 DUP7 ADD MLOAD DUP3 SSTORE SWAP5 DUP5 ADD SWAP5 PUSH1 0x1 SWAP1 SWAP2 ADD SWAP1 DUP5 ADD PUSH2 0x4875 JUMP JUMPDEST POP DUP6 DUP3 LT ISZERO PUSH2 0x48B2 JUMPI DUP8 DUP6 ADD MLOAD PUSH1 0x0 NOT PUSH1 0x3 DUP9 SWAP1 SHL PUSH1 0xF8 AND SHR NOT AND DUP2 SSTORE JUMPDEST POP POP POP POP POP PUSH1 0x1 SWAP1 DUP2 SHL ADD SWAP1 SSTORE POP JUMP JUMPDEST PUSH4 0x4E487B71 PUSH1 0xE0 SHL PUSH1 0x0 MSTORE PUSH1 0x11 PUSH1 0x4 MSTORE PUSH1 0x24 PUSH1 0x0 REVERT JUMPDEST PUSH1 0x0 PUSH1 0x1 DUP3 ADD PUSH2 0x48EA JUMPI PUSH2 0x48EA PUSH2 0x48C2 JUMP JUMPDEST POP PUSH1 0x1 ADD SWAP1 JUMP JUMPDEST DUP1 DUP3 MUL DUP2 ISZERO DUP3 DUP3 DIV DUP5 EQ OR PUSH2 0x8E6 JUMPI PUSH2 0x8E6 PUSH2 0x48C2 JUMP JUMPDEST PUSH1 0x0 DUP3 PUSH2 0x4925 JUMPI PUSH4 0x4E487B71 PUSH1 0xE0 SHL PUSH1 0x0 MSTORE PUSH1 0x12 PUSH1 0x4 MSTORE PUSH1 0x24 PUSH1 0x0 REVERT JUMPDEST POP DIV SWAP1 JUMP JUMPDEST DUP1 DUP3 ADD DUP1 DUP3 GT ISZERO PUSH2 0x8E6 JUMPI PUSH2 0x8E6 PUSH2 0x48C2 JUMP JUMPDEST PUSH1 0x0 PUSH1 0x60 DUP3 ADD DUP5 DUP4 MSTORE PUSH1 0x20 PUSH1 0x60 DUP2 DUP6 ADD MSTORE DUP2 DUP6 MLOAD DUP1 DUP5 MSTORE PUSH1 0x80 DUP7 ADD SWAP2 POP DUP3 DUP8 ADD SWAP4 POP PUSH1 0x0 JUMPDEST DUP2 DUP2 LT ISZERO PUSH2 0x4987 JUMPI DUP5 MLOAD PUSH1 0x1 PUSH1 0x1 PUSH1 0xA0 SHL SUB AND DUP4 MSTORE SWAP4 DUP4 ADD SWAP4 SWAP2 DUP4 ADD SWAP2 PUSH1 0x1 ADD PUSH2 0x4962 JUMP JUMPDEST POP POP DUP5 DUP2 SUB PUSH1 0x40 DUP7 ADD MSTORE PUSH1 0x0 DUP2 MSTORE DUP2 DUP2 ADD SWAP4 POP POP POP POP SWAP4 SWAP3 POP POP POP JUMP JUMPDEST PUSH1 0x1 PUSH1 0x1 PUSH1 0xA0 SHL SUB DUP5 AND DUP2 MSTORE PUSH1 0x20 DUP2 ADD DUP4 SWAP1 MSTORE PUSH1 0x60 DUP2 ADD PUSH2 0x2A5E PUSH1 0x40 DUP4 ADD DUP5 PUSH2 0x3F5C JUMP JUMPDEST PUSH1 0x1 PUSH1 0x1 PUSH1 0xA0 SHL SUB DUP4 AND DUP2 MSTORE PUSH1 0x40 DUP2 ADD PUSH2 0x3ED0 PUSH1 0x20 DUP4 ADD DUP5 PUSH2 0x3F5C JUMP JUMPDEST DUP1 MLOAD PUSH2 0x41A8 DUP2 PUSH2 0x3D02 JUMP JUMPDEST PUSH1 0x0 PUSH1 0x20 DUP1 DUP4 DUP6 SUB SLT ISZERO PUSH2 0x4A03 JUMPI PUSH1 0x0 DUP1 REVERT JUMPDEST DUP3 MLOAD PUSH1 0x1 PUSH1 0x1 PUSH1 0x40 SHL SUB DUP1 DUP3 GT ISZERO PUSH2 0x4A1A JUMPI PUSH1 0x0 DUP1 REVERT JUMPDEST SWAP1 DUP5 ADD SWAP1 PUSH1 0x80 DUP3 DUP8 SUB SLT ISZERO PUSH2 0x4A2E JUMPI PUSH1 0x0 DUP1 REVERT JUMPDEST PUSH2 0x4A36 PUSH2 0x3C43 JUMP JUMPDEST PUSH2 0x4A3F DUP4 PUSH2 0x45E3 JUMP JUMPDEST DUP2 MSTORE PUSH2 0x4A4C DUP5 DUP5 ADD PUSH2 0x45E3 JUMP JUMPDEST DUP5 DUP3 ADD MSTORE PUSH1 0x40 PUSH2 0x4A5D DUP2 DUP6 ADD PUSH2 0x45E3 JUMP JUMPDEST DUP2 DUP4 ADD MSTORE PUSH1 0x60 DUP5 ADD MLOAD DUP4 DUP2 GT ISZERO PUSH2 0x4A73 JUMPI PUSH1 0x0 DUP1 REVERT JUMPDEST DUP1 DUP6 ADD SWAP5 POP POP DUP8 PUSH1 0x1F DUP6 ADD SLT PUSH2 0x4A88 JUMPI PUSH1 0x0 DUP1 REVERT JUMPDEST DUP4 MLOAD SWAP3 POP PUSH2 0x4A98 PUSH2 0x3D38 DUP5 PUSH2 0x3CDF JUMP JUMPDEST DUP4 DUP2 MSTORE PUSH1 0x6 SWAP4 SWAP1 SWAP4 SHL DUP5 ADD DUP6 ADD SWAP3 DUP6 DUP2 ADD SWAP1 DUP10 DUP6 GT ISZERO PUSH2 0x4AB7 JUMPI PUSH1 0x0 DUP1 REVERT JUMPDEST SWAP5 DUP7 ADD SWAP5 JUMPDEST DUP5 DUP7 LT ISZERO PUSH2 0x4B00 JUMPI DUP3 DUP7 DUP12 SUB SLT ISZERO PUSH2 0x4AD4 JUMPI PUSH1 0x0 DUP1 DUP2 REVERT JUMPDEST PUSH2 0x4ADC PUSH2 0x3C6B JUMP JUMPDEST DUP7 MLOAD PUSH2 0x4AE7 DUP2 PUSH2 0x3D02 JUMP JUMPDEST DUP2 MSTORE DUP7 DUP9 ADD MLOAD DUP9 DUP3 ADD MSTORE DUP3 MSTORE SWAP5 DUP3 ADD SWAP5 SWAP1 DUP7 ADD SWAP1 PUSH2 0x4ABC JUMP JUMPDEST PUSH1 0x60 DUP5 ADD MSTORE POP SWAP1 SWAP8 SWAP7 POP POP POP POP POP POP POP JUMP JUMPDEST DUP3 DUP2 MSTORE PUSH1 0x40 PUSH1 0x20 DUP3 ADD MSTORE PUSH1 0x0 PUSH2 0x2A5E PUSH1 0x40 DUP4 ADD DUP5 PUSH2 0x3EFB JUMP JUMPDEST PUSH1 0x0 DUP3 PUSH1 0x1F DUP4 ADD SLT PUSH2 0x4B3C JUMPI PUSH1 0x0 DUP1 REVERT JUMPDEST DUP2 MLOAD PUSH2 0x4B4A PUSH2 0x3D38 DUP3 PUSH2 0x3D8B JUMP JUMPDEST DUP2 DUP2 MSTORE DUP5 PUSH1 0x20 DUP4 DUP7 ADD ADD GT ISZERO PUSH2 0x4B5F JUMPI PUSH1 0x0 DUP1 REVERT JUMPDEST PUSH2 0x2A5E DUP3 PUSH1 0x20 DUP4 ADD PUSH1 0x20 DUP8 ADD PUSH2 0x3ED7 JUMP JUMPDEST PUSH1 0x0 PUSH1 0x40 DUP3 DUP5 SUB SLT ISZERO PUSH2 0x4B82 JUMPI PUSH1 0x0 DUP1 REVERT JUMPDEST PUSH2 0x4B8A PUSH2 0x3C6B JUMP JUMPDEST SWAP1 POP DUP2 MLOAD DUP2 MSTORE PUSH1 0x20 DUP3 ADD MLOAD PUSH1 0x1 PUSH1 0x1 PUSH1 0x40 SHL SUB DUP2 GT ISZERO PUSH2 0x4BA9 JUMPI PUSH1 0x0 DUP1 REVERT JUMPDEST PUSH2 0x4BB5 DUP5 DUP3 DUP6 ADD PUSH2 0x4B2B JUMP JUMPDEST PUSH1 0x20 DUP4 ADD MSTORE POP SWAP3 SWAP2 POP POP JUMP JUMPDEST PUSH1 0x0 DUP1 PUSH1 0x0 DUP1 PUSH1 0x80 DUP6 DUP8 SUB SLT ISZERO PUSH2 0x4BD7 JUMPI PUSH1 0x0 DUP1 REVERT JUMPDEST DUP5 MLOAD PUSH2 0x4BE2 DUP2 PUSH2 0x3D02 JUMP JUMPDEST PUSH1 0x20 DUP7 ADD MLOAD SWAP1 SWAP5 POP PUSH2 0x4BF3 DUP2 PUSH2 0x3D02 JUMP JUMPDEST PUSH1 0x40 DUP7 ADD MLOAD PUSH1 0x60 DUP8 ADD MLOAD SWAP2 SWAP5 POP SWAP3 POP PUSH1 0x1 PUSH1 0x1 PUSH1 0x40 SHL SUB DUP2 GT ISZERO PUSH2 0x4C16 JUMPI PUSH1 0x0 DUP1 REVERT JUMPDEST PUSH2 0x4C22 DUP8 DUP3 DUP9 ADD PUSH2 0x4B70 JUMP JUMPDEST SWAP2 POP POP SWAP3 SWAP6 SWAP2 SWAP5 POP SWAP3 POP JUMP JUMPDEST PUSH1 0x40 DUP2 MSTORE PUSH1 0x0 PUSH2 0x4C41 PUSH1 0x40 DUP4 ADD DUP6 PUSH2 0x3EFB JUMP JUMPDEST SWAP1 POP PUSH1 0x1 DUP1 PUSH1 0xA0 SHL SUB DUP4 AND PUSH1 0x20 DUP4 ADD MSTORE SWAP4 SWAP3 POP POP POP JUMP JUMPDEST PUSH1 0x0 PUSH1 0x20 DUP3 DUP5 SUB SLT ISZERO PUSH2 0x4C6A JUMPI PUSH1 0x0 DUP1 REVERT JUMPDEST DUP2 MLOAD PUSH1 0x1 PUSH1 0x1 PUSH1 0x40 SHL SUB DUP1 DUP3 GT ISZERO PUSH2 0x4C81 JUMPI PUSH1 0x0 DUP1 REVERT JUMPDEST SWAP1 DUP4 ADD SWAP1 PUSH1 0xC0 DUP3 DUP7 SUB SLT ISZERO PUSH2 0x4C95 JUMPI PUSH1 0x0 DUP1 REVERT JUMPDEST PUSH2 0x4C9D PUSH2 0x3C8D JUMP JUMPDEST DUP3 MLOAD DUP2 MSTORE PUSH1 0x20 DUP4 ADD MLOAD PUSH1 0x20 DUP3 ADD MSTORE PUSH1 0x40 DUP4 ADD MLOAD DUP3 DUP2 GT ISZERO PUSH2 0x4CBD JUMPI PUSH1 0x0 DUP1 REVERT JUMPDEST PUSH2 0x4CC9 DUP8 DUP3 DUP7 ADD PUSH2 0x4B2B JUMP JUMPDEST PUSH1 0x40 DUP4 ADD MSTORE POP PUSH1 0x60 DUP4 ADD MLOAD DUP3 DUP2 GT ISZERO PUSH2 0x4CE1 JUMPI PUSH1 0x0 DUP1 REVERT JUMPDEST PUSH2 0x4CED DUP8 DUP3 DUP7 ADD PUSH2 0x4B70 JUMP JUMPDEST PUSH1 0x60 DUP4 ADD MSTORE POP PUSH2 0x4CFF PUSH1 0x80 DUP5 ADD PUSH2 0x49E5 JUMP JUMPDEST PUSH1 0x80 DUP3 ADD MSTORE PUSH2 0x4D10 PUSH1 0xA0 DUP5 ADD PUSH2 0x49E5 JUMP JUMPDEST PUSH1 0xA0 DUP3 ADD MSTORE SWAP6 SWAP5 POP POP POP POP POP JUMP JUMPDEST PUSH1 0x1 PUSH1 0x1 PUSH1 0xA0 SHL SUB DUP5 AND DUP2 MSTORE PUSH1 0x60 DUP2 ADD PUSH2 0x4D3B PUSH1 0x20 DUP4 ADD DUP6 PUSH2 0x3F5C JUMP JUMPDEST DUP3 PUSH1 0x40 DUP4 ADD MSTORE SWAP5 SWAP4 POP POP POP POP JUMP JUMPDEST PUSH1 0x0 PUSH1 0x20 DUP3 DUP5 SUB SLT ISZERO PUSH2 0x4D5B JUMPI PUSH1 0x0 DUP1 REVERT JUMPDEST DUP2 MLOAD PUSH1 0x1 PUSH1 0x1 PUSH1 0x40 SHL SUB DUP1 DUP3 GT ISZERO PUSH2 0x4D72 JUMPI PUSH1 0x0 DUP1 REVERT JUMPDEST SWAP1 DUP4 ADD SWAP1 PUSH1 0xC0 DUP3 DUP7 SUB SLT ISZERO PUSH2 0x4D86 JUMPI PUSH1 0x0 DUP1 REVERT JUMPDEST PUSH2 0x4D8E PUSH2 0x3C8D JUMP JUMPDEST DUP3 MLOAD DUP2 MSTORE PUSH1 0x20 DUP4 ADD MLOAD PUSH2 0x4DA0 DUP2 PUSH2 0x3D02 JUMP JUMPDEST PUSH1 0x20 DUP3 ADD MSTORE PUSH1 0x40 DUP4 ADD MLOAD PUSH2 0x4DB3 DUP2 PUSH2 0x3D02 JUMP JUMPDEST PUSH1 0x40 DUP3 ADD MSTORE PUSH1 0x60 DUP4 ADD MLOAD DUP3 DUP2 GT ISZERO PUSH2 0x4DCA JUMPI PUSH1 0x0 DUP1 REVERT JUMPDEST PUSH2 0x4DD6 DUP8 DUP3 DUP7 ADD PUSH2 0x4B70 JUMP JUMPDEST PUSH1 0x60 DUP4 ADD MSTORE POP PUSH1 0x80 DUP4 ADD MLOAD PUSH1 0x80 DUP3 ADD MSTORE PUSH1 0xA0 DUP4 ADD MLOAD PUSH1 0xA0 DUP3 ADD MSTORE DUP1 SWAP4 POP POP POP POP SWAP3 SWAP2 POP POP JUMP JUMPDEST PUSH1 0x0 PUSH1 0x20 DUP3 DUP5 SUB SLT ISZERO PUSH2 0x4E0E JUMPI PUSH1 0x0 DUP1 REVERT JUMPDEST DUP2 MLOAD PUSH2 0x3ED0 DUP2 PUSH2 0x3D02 JUMP JUMPDEST PUSH1 0x0 DUP1 PUSH1 0x0 PUSH1 0x60 DUP5 DUP7 SUB SLT ISZERO PUSH2 0x4E2E JUMPI PUSH1 0x0 DUP1 REVERT JUMPDEST DUP4 MLOAD PUSH2 0x4E39 DUP2 PUSH2 0x3D02 JUMP JUMPDEST PUSH1 0x20 DUP6 ADD MLOAD SWAP1 SWAP4 POP PUSH2 0x4E4A DUP2 PUSH2 0x4190 JUMP JUMPDEST DUP1 SWAP3 POP POP PUSH1 0x40 DUP5 ADD MLOAD SWAP1 POP SWAP3 POP SWAP3 POP SWAP3 JUMP JUMPDEST DUP2 DUP2 SUB DUP2 DUP2 GT ISZERO PUSH2 0x8E6 JUMPI PUSH2 0x8E6 PUSH2 0x48C2 JUMP JUMPDEST PUSH1 0x80 DUP2 MSTORE PUSH1 0x0 PUSH2 0x4E82 PUSH1 0x80 DUP4 ADD DUP8 PUSH2 0x3EFB JUMP JUMPDEST DUP6 PUSH1 0x20 DUP5 ADD MSTORE DUP3 DUP2 SUB PUSH1 0x40 DUP5 ADD MSTORE PUSH2 0x4E9A DUP2 DUP7 PUSH2 0x3EFB JUMP JUMPDEST SWAP2 POP POP PUSH1 0x1 DUP1 PUSH1 0xA0 SHL SUB DUP4 AND PUSH1 0x60 DUP4 ADD MSTORE SWAP6 SWAP5 POP POP POP POP POP JUMP INVALID LOG2 PUSH5 0x6970667358 0x22 SLT KECCAK256 PUSH25 0xF3C4EE6F2B2D5C1F5EB6FC0009FC682D4620C59E0A9186D724 0xCB GT PUSH7 0x11FE3764736F6C PUSH4 0x43000814 STOP CALLER "},"methodIdentifiers":{"NATIVE()":"a0cf0aea","allocate(bytes,address)":"ef2920fc","allocatedGrantAmount()":"e8eeb806","distribute(address[],bytes,address)":"0a6f0ee9","getAllo()":"15cc481e","getMilestoneStatus(address,uint256)":"f83067e7","getMilestones(address)":"22a4e42d","getOffeeredMilestones(address)":"36592c0e","getOfferedMilestonesVotesAgainst(address)":"cb2415fb","getOfferedMilestonesVotesFor(address)":"e477b6bd","getPayouts(address[],bytes[])":"b2b878d0","getPoolAmount()":"4ab4ba42","getPoolId()":"38fff2d0","getRecipient(address)":"62812a39","getRecipientStatus(address)":"eb11af93","getRejectProjectVotesAgainst()":"a9655210","getRejectProjectVotesFor()":"5b10b597","getStrategyId()":"42fda9c7","getSubmittedMilestonesVotesAgainst(uint256)":"ee120300","getSubmittedMilestonesVotesFor(uint256)":"c1aaf44a","getSupplierOfferedMilestonesVote(address,address)":"197ea814","getSupplierSubmittedMilestonesVote(uint256,address)":"605e1c66","getUpcomingMilestone(address)":"2ff0e6c4","grantAmountRequired()":"9be2ccf5","increasePoolAmount(uint256)":"f5b0dfb7","initialize(uint256,bytes)":"edd146cc","isPoolActive()":"df868ed3","isValidAllocator(address)":"4d31d087","metadataRequired()":"cb0e85a6","milestones(address,uint256)":"c7a892bf","offerMilestones(address,(uint256,(uint256,string),uint8,string)[])":"78f0184d","registerRecipient(bytes,address)":"2bbe0cae","registryGating()":"a647d23e","rejetProject(uint8)":"c9701fd4","reviewOfferedtMilestones(address,uint8)":"b3eae7ab","reviewSubmitedMilestone(address,uint256,uint8)":"9ffaa875","setThresholdPercentage(uint256,bytes32)":"2a835b4b","submitMilestone(address,uint256,(uint256,string))":"3bf3577d","submittedvMilestones(uint256)":"404e73e2","thresholdPercentage()":"4ed2859e","totalSupply()":"18160ddd","upcomingMilestone(address)":"e2372b58"}}}}}