{"contracts/Manager.sol":{"Manager":{"abi":[{"inputs":[{"internalType":"address","name":"alloAddress","type":"address"},{"internalType":"address","name":"_strategy","type":"address"}],"stateMutability":"nonpayable","type":"constructor"},{"inputs":[],"name":"ALLOCATION_ACTIVE","type":"error"},{"inputs":[],"name":"ALLOCATION_NOT_ACTIVE","type":"error"},{"inputs":[],"name":"ALLOCATION_NOT_ENDED","type":"error"},{"inputs":[],"name":"ALREADY_INITIALIZED","type":"error"},{"inputs":[],"name":"AMOUNT_MISMATCH","type":"error"},{"inputs":[],"name":"ANCHOR_ERROR","type":"error"},{"inputs":[],"name":"ARRAY_MISMATCH","type":"error"},{"inputs":[],"name":"INVALID","type":"error"},{"inputs":[],"name":"INVALID_ADDRESS","type":"error"},{"inputs":[],"name":"INVALID_FEE","type":"error"},{"inputs":[],"name":"INVALID_METADATA","type":"error"},{"inputs":[],"name":"INVALID_MILESTONE_STATUS","type":"error"},{"inputs":[],"name":"INVALID_REGISTRATION","type":"error"},{"inputs":[],"name":"IS_APPROVED_STRATEGY","type":"error"},{"inputs":[],"name":"MISMATCH","type":"error"},{"inputs":[],"name":"NONCE_NOT_AVAILABLE","type":"error"},{"inputs":[],"name":"NOT_APPROVED_STRATEGY","type":"error"},{"inputs":[],"name":"NOT_ENOUGH_FUNDS","type":"error"},{"inputs":[],"name":"NOT_IMPLEMENTED","type":"error"},{"inputs":[],"name":"NOT_INITIALIZED","type":"error"},{"inputs":[],"name":"NOT_PENDING_OWNER","type":"error"},{"inputs":[],"name":"POOL_ACTIVE","type":"error"},{"inputs":[],"name":"POOL_INACTIVE","type":"error"},{"inputs":[],"name":"RECIPIENT_ALREADY_ACCEPTED","type":"error"},{"inputs":[{"internalType":"address","name":"recipientId","type":"address"}],"name":"RECIPIENT_ERROR","type":"error"},{"inputs":[],"name":"RECIPIENT_NOT_ACCEPTED","type":"error"},{"inputs":[],"name":"REGISTRATION_NOT_ACTIVE","type":"error"},{"inputs":[],"name":"ReentrancyGuardReentrantCall","type":"error"},{"inputs":[],"name":"SUPPLY_IS_ALLOWED_ONLY_ONCE","type":"error"},{"inputs":[],"name":"SUPPLY_NOT_FOUND","type":"error"},{"inputs":[],"name":"UNAUTHORIZED","type":"error"},{"inputs":[],"name":"ZERO_ADDRESS","type":"error"},{"anonymous":false,"inputs":[{"indexed":true,"internalType":"bytes32","name":"projectId","type":"bytes32"},{"indexed":false,"internalType":"uint256","name":"amount","type":"uint256"}],"name":"ProjectFunded","type":"event"},{"anonymous":false,"inputs":[{"indexed":false,"internalType":"bytes32","name":"projectId","type":"bytes32"},{"indexed":false,"internalType":"uint256","name":"poolId","type":"uint256"}],"name":"ProjectPoolCreeated","type":"event"},{"inputs":[],"name":"NATIVE","outputs":[{"internalType":"address","name":"","type":"address"}],"stateMutability":"view","type":"function"},{"inputs":[{"internalType":"bytes32","name":"profileId","type":"bytes32"}],"name":"_projectExists","outputs":[{"internalType":"bool","name":"","type":"bool"}],"stateMutability":"view","type":"function"},{"inputs":[{"internalType":"bytes32","name":"_projectId","type":"bytes32"}],"name":"getProfile","outputs":[{"components":[{"internalType":"bytes32","name":"id","type":"bytes32"},{"internalType":"uint256","name":"nonce","type":"uint256"},{"internalType":"string","name":"name","type":"string"},{"components":[{"internalType":"uint256","name":"protocol","type":"uint256"},{"internalType":"string","name":"pointer","type":"string"}],"internalType":"struct Metadata","name":"metadata","type":"tuple"},{"internalType":"address","name":"owner","type":"address"},{"internalType":"address","name":"anchor","type":"address"}],"internalType":"struct IRegistry.Profile","name":"","type":"tuple"}],"stateMutability":"view","type":"function"},{"inputs":[],"name":"getProfiles","outputs":[{"internalType":"bytes32[]","name":"","type":"bytes32[]"}],"stateMutability":"view","type":"function"},{"inputs":[{"internalType":"bytes32","name":"_projectId","type":"bytes32"}],"name":"getProjectPool","outputs":[{"internalType":"uint256","name":"","type":"uint256"}],"stateMutability":"view","type":"function"},{"inputs":[{"internalType":"bytes32","name":"_projectId","type":"bytes32"},{"internalType":"address","name":"_supplier","type":"address"}],"name":"getProjectSupplierById","outputs":[{"internalType":"uint256","name":"","type":"uint256"}],"stateMutability":"view","type":"function"},{"inputs":[{"internalType":"bytes32","name":"_projectId","type":"bytes32"}],"name":"getProjectSuppliers","outputs":[{"internalType":"address[]","name":"","type":"address[]"}],"stateMutability":"view","type":"function"},{"inputs":[{"internalType":"bytes32","name":"_projectId","type":"bytes32"}],"name":"getProjectSupply","outputs":[{"components":[{"internalType":"uint256","name":"need","type":"uint256"},{"internalType":"uint256","name":"has","type":"uint256"},{"internalType":"string","name":"name","type":"string"},{"internalType":"string","name":"description","type":"string"}],"internalType":"struct Manager.ProjectSupply","name":"","type":"tuple"}],"stateMutability":"view","type":"function"},{"inputs":[{"internalType":"uint256","name":"_needs","type":"uint256"},{"internalType":"uint256","name":"_nonce","type":"uint256"},{"internalType":"string","name":"_name","type":"string"},{"components":[{"internalType":"uint256","name":"protocol","type":"uint256"},{"internalType":"string","name":"pointer","type":"string"}],"internalType":"struct Metadata","name":"_metadata","type":"tuple"},{"internalType":"address","name":"_recipient","type":"address"},{"internalType":"string","name":"_description","type":"string"}],"name":"registerProject","outputs":[{"internalType":"bytes32","name":"profileId","type":"bytes32"}],"stateMutability":"nonpayable","type":"function"},{"inputs":[{"internalType":"bytes32","name":"_projectId","type":"bytes32"}],"name":"revokeProjectSupply","outputs":[],"stateMutability":"nonpayable","type":"function"},{"inputs":[{"internalType":"bytes32","name":"_projectId","type":"bytes32"},{"internalType":"uint256","name":"_amount","type":"uint256"}],"name":"supplyProject","outputs":[],"stateMutability":"payable","type":"function"},{"stateMutability":"payable","type":"receive"}],"evm":{"bytecode":{"linkReferences":{},"object":"60806040523480156200001157600080fd5b5060405162001f5738038062001f5783398101604081905262000034916200010e565b60016000908155600280546001600160a01b038086166001600160a01b03199283168117909355600380549186169190921617905560408051635ab1bd5360e01b81529051635ab1bd53916004808201926020929091908290030181865afa158015620000a5573d6000803e3d6000fd5b505050506040513d601f19601f82011682018060405250810190620000cb91906200014d565b600180546001600160a01b0319166001600160a01b03929092169190911790555062000174915050565b6001600160a01b03811681146200010b57600080fd5b50565b600080604083850312156200012257600080fd5b82516200012f81620000f5565b60208401519092506200014281620000f5565b809150509250929050565b6000602082840312156200016057600080fd5b81516200016d81620000f5565b9392505050565b611dd380620001846000396000f3fe6080604052600436106100a05760003560e01c806394a8fb4a1161006457806394a8fb4a1461016e578063a0cf0aea1461019b578063b2137033146101db578063b50991b4146101fd578063c42b06f01461022a578063d1de78e41461025a57600080fd5b806316e46f68146100ac57806340f1ab98146100ec5780636617dd66146101015780637144e4b51461012e5780638d3638311461014e57600080fd5b366100a757005b600080fd5b3480156100b857600080fd5b506100d96100c73660046113e7565b60009081526009602052604090205490565b6040519081526020015b60405180910390f35b6100ff6100fa366004611400565b61027a565b005b34801561010d57600080fd5b5061012161011c3660046113e7565b6108be565b6040516100e39190611466565b34801561013a57600080fd5b506100d96101493660046115b6565b61092a565b34801561015a57600080fd5b506100d9610169366004611699565b610ae3565b34801561017a57600080fd5b5061018e6101893660046113e7565b610b0d565b6040516100e39190611719565b3480156101a757600080fd5b506101c373eeeeeeeeeeeeeeeeeeeeeeeeeeeeeeeeeeeeeeee81565b6040516001600160a01b0390911681526020016100e3565b3480156101e757600080fd5b506101f0610c95565b6040516100e3919061176f565b34801561020957600080fd5b5061021d6102183660046113e7565b610ced565b6040516100e391906117da565b34801561023657600080fd5b5061024a6102453660046113e7565b610d65565b60405190151581526020016100e3565b34801561026657600080fd5b506100ff6102753660046113e7565b610df0565b61028261106c565b61028b82610d65565b6102d55760405162461bcd60e51b8152602060048201526016602482015275141c9bda9958dd08191bd95cc81b9bdd08195e1a5cdd60521b60448201526064015b60405180910390fd5b8015806102e25750348114155b15610300576040516303e09bb960e31b815260040160405180910390fd5b6000828152600760205260408120600101805483929061032190849061186e565b9091555050600082815260066020908152604080832033845290915281205490036103755760008281526005602090815260408220805460018101825590835291200180546001600160a01b031916331790555b60008281526006602090815260408083203384529091528120805483929061039e90849061186e565b909155505060405181815282907f315cb30dd854bd9e9df31e31754930ba16b498240f74a4ef23531f84c4ee49109060200160405180910390a260008281526007602052604090208054600190910154106108b05760006103fe83611096565b905060005b81518110156104ca5761045c604051806040016040528060118152602001701e9e9e9e9e9e9f1029bab8383634b2b91d60791b81525083838151811061044b5761044b611881565b6020026020010151600001516111c4565b6104b86040518060400160405280601781526020017f3d3d3d3d3d3d3e20537570706c69657220506f7765723a0000000000000000008152508383815181106104a7576104a7611881565b602002602001015160200151611209565b806104c281611897565b915050610403565b50604080516080810182526000808252602082018190529181018290526060810183905282519091906104fe90600161186e565b67ffffffffffffffff81111561051657610516611480565b60405190808252806020026020018201604052801561053f578160200160208202803683370190505b50905060005b83518110156105a85783818151811061056057610560611881565b60200260200101516000015182828151811061057e5761057e611881565b6001600160a01b0390921660209283029190910190910152806105a081611897565b915050610545565b5030818451815181106105bd576105bd611881565b6001600160a01b039092166020928302919091018201526040805180820182526001815281518083018352600d81526c32b6b83a3c903837b4b73a32b960991b818501528184015290519091600091610618918691016118b0565b60408051601f1981840301815282825260008a81526007602052918220546002546003546370803ea560e11b865292955090936001600160a01b039182169263e1007d4a92349261068d928f921690899073eeeeeeeeeeeeeeeeeeeeeeeeeeeeeeeeeeeeeeee9089908d908f9060040161193c565b60206040518083038185885af11580156106ab573d6000803e3d6000fd5b50505050506040513d601f19601f820116820180604052508101906106d091906119a7565b60008a8152600760205260409020549091504710156107315760405162461bcd60e51b815260206004820181905260248201527f496e73756666696369656e742062616c616e636520696e20636f6e747261637460448201526064016102cc565b60025460008a815260076020526040908190205490516316b35beb60e21b815260048101849052602481018290526001600160a01b0390921691635acd6fac91906044016000604051808303818588803b15801561078e57600080fd5b505af11580156107a2573d6000803e3d6000fd5b50505060008b81526008602090815260408083205490519294506107d793506001600160a01b031691849187918a91016119c0565b60408051601f19818403018152908290526002546301d703a760e21b83529092506001600160a01b03169063075c0e9c9061081890859085906004016119fd565b6020604051808303816000875af1158015610837573d6000803e3d6000fd5b505050506040513d601f19601f8201168201806040525081019061085b9190611a21565b5060008a81526009602090815260409182902084905581518c81529081018490527fc5d45cf1508cae377cc227a37ea00b97fa9e86e03ce72364a0b7e85e36baacec910160405180910390a150505050505050505b6108ba6001600055565b5050565b60008181526005602090815260409182902080548351818402810184019094528084526060939283018282801561091e57602002820191906000526020600020905b81546001600160a01b03168152600190910190602001808311610900575b50505050509050919050565b60408051600280825260608201835260009283929190602083019080368337019050509050838160008151811061096357610963611881565b60200260200101906001600160a01b031690816001600160a01b031681525050308160018151811061099757610997611881565b6001600160a01b039283166020918202929092010152600154604051633a92f65f60e01b8152911690633a92f65f906109dc908a908a908a9030908890600401611a3e565b6020604051808303816000875af11580156109fb573d6000803e3d6000fd5b505050506040513d601f19601f82011682018060405250810190610a1f91906119a7565b60048054600181019091557f8a35acfbc15ff81a39ae7d344fd709f28e8600b4aa8c65c6b64bfe7fe36bd19b01819055600081815260076020526040812080549294508a92909190610a7290849061186e565b90915550506000828152600760205260409020600201610a928782611b20565b506000828152600760205260409020600301610aae8482611b20565b5050600081815260086020526040902080546001600160a01b0385166001600160a01b03199091161790559695505050505050565b60008281526006602090815260408083206001600160a01b03851684529091529020545b92915050565b610b386040518060800160405280600081526020016000815260200160608152602001606081525090565b600760008381526020019081526020016000206040518060800160405290816000820154815260200160018201548152602001600282018054610b7a90611a98565b80601f0160208091040260200160405190810160405280929190818152602001828054610ba690611a98565b8015610bf35780601f10610bc857610100808354040283529160200191610bf3565b820191906000526020600020905b815481529060010190602001808311610bd657829003601f168201915b50505050508152602001600382018054610c0c90611a98565b80601f0160208091040260200160405190810160405280929190818152602001828054610c3890611a98565b8015610c855780601f10610c5a57610100808354040283529160200191610c85565b820191906000526020600020905b815481529060010190602001808311610c6857829003601f168201915b5050505050815250509050919050565b60606004805480602002602001604051908101604052809291908181526020018280548015610ce357602002820191906000526020600020905b815481526020019060010190808311610ccf575b5050505050905090565b610cf5611319565b600154604051628a678560e11b8152600481018490526001600160a01b0390911690630114cf0a90602401600060405180830381865afa158015610d3d573d6000803e3d6000fd5b505050506040513d6000823e601f3d908101601f19168201604052610b079190810190611c77565b600154604051628a678560e11b81526004810183905260009182916001600160a01b0390911690630114cf0a90602401600060405180830381865afa158015610db2573d6000803e3d6000fd5b505050506040513d6000823e601f3d908101601f19168201604052610dda9190810190611c77565b608001516001600160a01b031615159392505050565b610df861106c565b610e0181610d65565b610e465760405162461bcd60e51b8152602060048201526016602482015275141c9bda9958dd08191bd95cc81b9bdd08195e1a5cdd60521b60448201526064016102cc565b600081815260066020908152604080832033845290915290205480610ea05760405162461bcd60e51b815260206004820152601060248201526f14d554141316481393d5081193d5539160821b60448201526064016102cc565b60008281526006602090815260408083203384528252808320839055848352600790915281206001018054839290610ed9908490611d3e565b9091555050600082815260056020526040812054610ef990600190611d3e565b67ffffffffffffffff811115610f1157610f11611480565b604051908082528060200260200182016040528015610f3a578160200160208202803683370190505b5090506000805b60008581526005602052604090205481101561101c576000858152600560205260409020805433919083908110610f7a57610f7a611881565b6000918252602090912001546001600160a01b03161461100a576000858152600560205260409020805482908110610fb457610fb4611881565b9060005260206000200160009054906101000a90046001600160a01b0316838381518110610fe457610fe4611881565b6001600160a01b03909216602092830291909101909101528161100681611897565b9250505b8061101481611897565b915050610f41565b506000848152600560209081526040909120835161103c9285019061136d565b5061105c73eeeeeeeeeeeeeeeeeeeeeeeeeeeeeeeeeeeeeeee338561124e565b5050506110696001600055565b50565b60026000540361108f57604051633ee5aeb560e01b815260040160405180910390fd5b6002600055565b6000818152600560205260408120546060919067ffffffffffffffff8111156110c1576110c1611480565b60405190808252806020026020018201604052801561110657816020015b60408051808201909152600080825260208201528152602001906001900390816110df5790505b50905060005b6000848152600560205260409020548110156111bd57600084815260056020526040812080548390811061114257611142611881565b60009182526020808320909101548783526006825260408084206001600160a01b0390921680855291835292839020548351808501909452818452918301829052855190935090919085908590811061119d5761119d611881565b6020026020010181905250505080806111b590611897565b91505061110c565b5092915050565b6108ba82826040516024016111da929190611d51565b60408051601f198184030181529190526020810180516001600160e01b031663319af33360e01b17905261128d565b6108ba828260405160240161121f929190611d7b565b60408051601f198184030181529190526020810180516001600160e01b0316632d839cb360e21b17905261128d565b73eeeeeeeeeeeeeeeeeeeeeeeeeeeeeeeeeeeeeeed196001600160a01b038416016112825761127d8282611296565b505050565b61127d8383836112b2565b611069816112f8565b60003860003884865af16108ba5763b12d13eb6000526004601cfd5b816014528060345263a9059cbb60601b60005260206000604460106000875af13d1560016000511417166112ee576390b8ec186000526004601cfd5b6000603452505050565b60006a636f6e736f6c652e6c6f679050600080835160208501845afa505050565b6040518060c00160405280600080191681526020016000815260200160608152602001611359604051806040016040528060008152602001606081525090565b815260006020820181905260409091015290565b8280548282559060005260206000209081019282156113c2579160200282015b828111156113c257825182546001600160a01b0319166001600160a01b0390911617825560209092019160019091019061138d565b506113ce9291506113d2565b5090565b5b808211156113ce57600081556001016113d3565b6000602082840312156113f957600080fd5b5035919050565b6000806040838503121561141357600080fd5b50508035926020909101359150565b600081518084526020808501945080840160005b8381101561145b5781516001600160a01b031687529582019590820190600101611436565b509495945050505050565b6020815260006114796020830184611422565b9392505050565b634e487b7160e01b600052604160045260246000fd5b6040805190810167ffffffffffffffff811182821017156114b9576114b9611480565b60405290565b60405160c0810167ffffffffffffffff811182821017156114b9576114b9611480565b604051601f8201601f1916810167ffffffffffffffff8111828210171561150b5761150b611480565b604052919050565b600067ffffffffffffffff82111561152d5761152d611480565b50601f01601f191660200190565b600082601f83011261154c57600080fd5b813561155f61155a82611513565b6114e2565b81815284602083860101111561157457600080fd5b816020850160208301376000918101602001919091529392505050565b6001600160a01b038116811461106957600080fd5b80356115b181611591565b919050565b60008060008060008060c087890312156115cf57600080fd5b8635955060208701359450604087013567ffffffffffffffff808211156115f557600080fd5b6116018a838b0161153b565b9550606089013591508082111561161757600080fd5b908801906040828b03121561162b57600080fd5b611633611496565b8235815260208301358281111561164957600080fd5b6116558c82860161153b565b602083015250945061166960808a016115a6565b935060a089013591508082111561167f57600080fd5b5061168c89828a0161153b565b9150509295509295509295565b600080604083850312156116ac57600080fd5b8235915060208301356116be81611591565b809150509250929050565b60005b838110156116e45781810151838201526020016116cc565b50506000910152565b600081518084526117058160208601602086016116c9565b601f01601f19169290920160200192915050565b602081528151602082015260208201516040820152600060408301516080606084015261174960a08401826116ed565b90506060840151601f1984830301608085015261176682826116ed565b95945050505050565b6020808252825182820181905260009190848201906040850190845b818110156117a75783518352928401929184019160010161178b565b50909695505050505050565b8051825260006020820151604060208501526117d260408501826116ed565b949350505050565b6020815281516020820152602082015160408201526000604083015160c0606084015261180a60e08401826116ed565b90506060840151601f1984830301608085015261182782826117b3565b60808601516001600160a01b0390811660a0878101919091529096015190951660c090940193909352509192915050565b634e487b7160e01b600052601160045260246000fd5b80820180821115610b0757610b07611858565b634e487b7160e01b600052603260045260246000fd5b6000600182016118a9576118a9611858565b5060010190565b6000602080835260a0830184511515828501528185015160408115158187015280870151151560608701526060870151915060808087015282825180855260c0880191508584019450600093505b8084101561193057845180516001600160a01b03168352860151868301529385019360019390930192908201906118fe565b50979650505050505050565b878152600060018060a01b03808916602084015260e0604084015261196460e08401896116ed565b818816606085015286608085015283810360a085015261198481876117b3565b91505082810360c08401526119998185611422565b9a9950505050505050505050565b6000602082840312156119b957600080fd5b5051919050565b6001600160a01b03858116825284166020820152604081018390526080606082018190526000906119f3908301846117b3565b9695505050505050565b8281526040602082015260006117d260408301846116ed565b80516115b181611591565b600060208284031215611a3357600080fd5b815161147981611591565b85815260a060208201526000611a5760a08301876116ed565b8281036040840152611a6981876117b3565b6001600160a01b038616606085015283810360808501529050611a8c8185611422565b98975050505050505050565b600181811c90821680611aac57607f821691505b602082108103611acc57634e487b7160e01b600052602260045260246000fd5b50919050565b601f82111561127d57600081815260208120601f850160051c81016020861015611af95750805b601f850160051c820191505b81811015611b1857828155600101611b05565b505050505050565b815167ffffffffffffffff811115611b3a57611b3a611480565b611b4e81611b488454611a98565b84611ad2565b602080601f831160018114611b835760008415611b6b5750858301515b600019600386901b1c1916600185901b178555611b18565b600085815260208120601f198616915b82811015611bb257888601518255948401946001909101908401611b93565b5085821015611bd05787850151600019600388901b60f8161c191681555b5050505050600190811b01905550565b600082601f830112611bf157600080fd5b8151611bff61155a82611513565b818152846020838601011115611c1457600080fd5b6117d28260208301602087016116c9565b600060408284031215611c3757600080fd5b611c3f611496565b905081518152602082015167ffffffffffffffff811115611c5f57600080fd5b611c6b84828501611be0565b60208301525092915050565b600060208284031215611c8957600080fd5b815167ffffffffffffffff80821115611ca157600080fd5b9083019060c08286031215611cb557600080fd5b611cbd6114bf565b8251815260208301516020820152604083015182811115611cdd57600080fd5b611ce987828601611be0565b604083015250606083015182811115611d0157600080fd5b611d0d87828601611c25565b606083015250611d1f60808401611a16565b6080820152611d3060a08401611a16565b60a082015295945050505050565b81810381811115610b0757610b07611858565b604081526000611d6460408301856116ed565b905060018060a01b03831660208301529392505050565b604081526000611d8e60408301856116ed565b9050826020830152939250505056fea2646970667358221220ef74a8357fce6eb67951c6a7fa2143a880d978ecb4a0a5eaa3f9439240eacf8464736f6c63430008140033","opcodes":"PUSH1 0x80 PUSH1 0x40 MSTORE CALLVALUE DUP1 ISZERO PUSH3 0x11 JUMPI PUSH1 0x0 DUP1 REVERT JUMPDEST POP PUSH1 0x40 MLOAD PUSH3 0x1F57 CODESIZE SUB DUP1 PUSH3 0x1F57 DUP4 CODECOPY DUP2 ADD PUSH1 0x40 DUP2 SWAP1 MSTORE PUSH3 0x34 SWAP2 PUSH3 0x10E JUMP JUMPDEST PUSH1 0x1 PUSH1 0x0 SWAP1 DUP2 SSTORE PUSH1 0x2 DUP1 SLOAD PUSH1 0x1 PUSH1 0x1 PUSH1 0xA0 SHL SUB DUP1 DUP7 AND PUSH1 0x1 PUSH1 0x1 PUSH1 0xA0 SHL SUB NOT SWAP3 DUP4 AND DUP2 OR SWAP1 SWAP4 SSTORE PUSH1 0x3 DUP1 SLOAD SWAP2 DUP7 AND SWAP2 SWAP1 SWAP3 AND OR SWAP1 SSTORE PUSH1 0x40 DUP1 MLOAD PUSH4 0x5AB1BD53 PUSH1 0xE0 SHL DUP2 MSTORE SWAP1 MLOAD PUSH4 0x5AB1BD53 SWAP2 PUSH1 0x4 DUP1 DUP3 ADD SWAP3 PUSH1 0x20 SWAP3 SWAP1 SWAP2 SWAP1 DUP3 SWAP1 SUB ADD DUP2 DUP7 GAS STATICCALL ISZERO DUP1 ISZERO PUSH3 0xA5 JUMPI RETURNDATASIZE PUSH1 0x0 DUP1 RETURNDATACOPY RETURNDATASIZE PUSH1 0x0 REVERT JUMPDEST POP POP POP POP PUSH1 0x40 MLOAD RETURNDATASIZE PUSH1 0x1F NOT PUSH1 0x1F DUP3 ADD AND DUP3 ADD DUP1 PUSH1 0x40 MSTORE POP DUP2 ADD SWAP1 PUSH3 0xCB SWAP2 SWAP1 PUSH3 0x14D JUMP JUMPDEST PUSH1 0x1 DUP1 SLOAD PUSH1 0x1 PUSH1 0x1 PUSH1 0xA0 SHL SUB NOT AND PUSH1 0x1 PUSH1 0x1 PUSH1 0xA0 SHL SUB SWAP3 SWAP1 SWAP3 AND SWAP2 SWAP1 SWAP2 OR SWAP1 SSTORE POP PUSH3 0x174 SWAP2 POP POP JUMP JUMPDEST PUSH1 0x1 PUSH1 0x1 PUSH1 0xA0 SHL SUB DUP2 AND DUP2 EQ PUSH3 0x10B JUMPI PUSH1 0x0 DUP1 REVERT JUMPDEST POP JUMP JUMPDEST PUSH1 0x0 DUP1 PUSH1 0x40 DUP4 DUP6 SUB SLT ISZERO PUSH3 0x122 JUMPI PUSH1 0x0 DUP1 REVERT JUMPDEST DUP3 MLOAD PUSH3 0x12F DUP2 PUSH3 0xF5 JUMP JUMPDEST PUSH1 0x20 DUP5 ADD MLOAD SWAP1 SWAP3 POP PUSH3 0x142 DUP2 PUSH3 0xF5 JUMP JUMPDEST DUP1 SWAP2 POP POP SWAP3 POP SWAP3 SWAP1 POP JUMP JUMPDEST PUSH1 0x0 PUSH1 0x20 DUP3 DUP5 SUB SLT ISZERO PUSH3 0x160 JUMPI PUSH1 0x0 DUP1 REVERT JUMPDEST DUP2 MLOAD PUSH3 0x16D DUP2 PUSH3 0xF5 JUMP JUMPDEST SWAP4 SWAP3 POP POP POP JUMP JUMPDEST PUSH2 0x1DD3 DUP1 PUSH3 0x184 PUSH1 0x0 CODECOPY PUSH1 0x0 RETURN INVALID PUSH1 0x80 PUSH1 0x40 MSTORE PUSH1 0x4 CALLDATASIZE LT PUSH2 0xA0 JUMPI PUSH1 0x0 CALLDATALOAD PUSH1 0xE0 SHR DUP1 PUSH4 0x94A8FB4A GT PUSH2 0x64 JUMPI DUP1 PUSH4 0x94A8FB4A EQ PUSH2 0x16E JUMPI DUP1 PUSH4 0xA0CF0AEA EQ PUSH2 0x19B JUMPI DUP1 PUSH4 0xB2137033 EQ PUSH2 0x1DB JUMPI DUP1 PUSH4 0xB50991B4 EQ PUSH2 0x1FD JUMPI DUP1 PUSH4 0xC42B06F0 EQ PUSH2 0x22A JUMPI DUP1 PUSH4 0xD1DE78E4 EQ PUSH2 0x25A JUMPI PUSH1 0x0 DUP1 REVERT JUMPDEST DUP1 PUSH4 0x16E46F68 EQ PUSH2 0xAC JUMPI DUP1 PUSH4 0x40F1AB98 EQ PUSH2 0xEC JUMPI DUP1 PUSH4 0x6617DD66 EQ PUSH2 0x101 JUMPI DUP1 PUSH4 0x7144E4B5 EQ PUSH2 0x12E JUMPI DUP1 PUSH4 0x8D363831 EQ PUSH2 0x14E JUMPI PUSH1 0x0 DUP1 REVERT JUMPDEST CALLDATASIZE PUSH2 0xA7 JUMPI STOP JUMPDEST PUSH1 0x0 DUP1 REVERT JUMPDEST CALLVALUE DUP1 ISZERO PUSH2 0xB8 JUMPI PUSH1 0x0 DUP1 REVERT JUMPDEST POP PUSH2 0xD9 PUSH2 0xC7 CALLDATASIZE PUSH1 0x4 PUSH2 0x13E7 JUMP JUMPDEST PUSH1 0x0 SWAP1 DUP2 MSTORE PUSH1 0x9 PUSH1 0x20 MSTORE PUSH1 0x40 SWAP1 KECCAK256 SLOAD SWAP1 JUMP JUMPDEST PUSH1 0x40 MLOAD SWAP1 DUP2 MSTORE PUSH1 0x20 ADD JUMPDEST PUSH1 0x40 MLOAD DUP1 SWAP2 SUB SWAP1 RETURN JUMPDEST PUSH2 0xFF PUSH2 0xFA CALLDATASIZE PUSH1 0x4 PUSH2 0x1400 JUMP JUMPDEST PUSH2 0x27A JUMP JUMPDEST STOP JUMPDEST CALLVALUE DUP1 ISZERO PUSH2 0x10D JUMPI PUSH1 0x0 DUP1 REVERT JUMPDEST POP PUSH2 0x121 PUSH2 0x11C CALLDATASIZE PUSH1 0x4 PUSH2 0x13E7 JUMP JUMPDEST PUSH2 0x8BE JUMP JUMPDEST PUSH1 0x40 MLOAD PUSH2 0xE3 SWAP2 SWAP1 PUSH2 0x1466 JUMP JUMPDEST CALLVALUE DUP1 ISZERO PUSH2 0x13A JUMPI PUSH1 0x0 DUP1 REVERT JUMPDEST POP PUSH2 0xD9 PUSH2 0x149 CALLDATASIZE PUSH1 0x4 PUSH2 0x15B6 JUMP JUMPDEST PUSH2 0x92A JUMP JUMPDEST CALLVALUE DUP1 ISZERO PUSH2 0x15A JUMPI PUSH1 0x0 DUP1 REVERT JUMPDEST POP PUSH2 0xD9 PUSH2 0x169 CALLDATASIZE PUSH1 0x4 PUSH2 0x1699 JUMP JUMPDEST PUSH2 0xAE3 JUMP JUMPDEST CALLVALUE DUP1 ISZERO PUSH2 0x17A JUMPI PUSH1 0x0 DUP1 REVERT JUMPDEST POP PUSH2 0x18E PUSH2 0x189 CALLDATASIZE PUSH1 0x4 PUSH2 0x13E7 JUMP JUMPDEST PUSH2 0xB0D JUMP JUMPDEST PUSH1 0x40 MLOAD PUSH2 0xE3 SWAP2 SWAP1 PUSH2 0x1719 JUMP JUMPDEST CALLVALUE DUP1 ISZERO PUSH2 0x1A7 JUMPI PUSH1 0x0 DUP1 REVERT JUMPDEST POP PUSH2 0x1C3 PUSH20 0xEEEEEEEEEEEEEEEEEEEEEEEEEEEEEEEEEEEEEEEE DUP2 JUMP JUMPDEST PUSH1 0x40 MLOAD PUSH1 0x1 PUSH1 0x1 PUSH1 0xA0 SHL SUB SWAP1 SWAP2 AND DUP2 MSTORE PUSH1 0x20 ADD PUSH2 0xE3 JUMP JUMPDEST CALLVALUE DUP1 ISZERO PUSH2 0x1E7 JUMPI PUSH1 0x0 DUP1 REVERT JUMPDEST POP PUSH2 0x1F0 PUSH2 0xC95 JUMP JUMPDEST PUSH1 0x40 MLOAD PUSH2 0xE3 SWAP2 SWAP1 PUSH2 0x176F JUMP JUMPDEST CALLVALUE DUP1 ISZERO PUSH2 0x209 JUMPI PUSH1 0x0 DUP1 REVERT JUMPDEST POP PUSH2 0x21D PUSH2 0x218 CALLDATASIZE PUSH1 0x4 PUSH2 0x13E7 JUMP JUMPDEST PUSH2 0xCED JUMP JUMPDEST PUSH1 0x40 MLOAD PUSH2 0xE3 SWAP2 SWAP1 PUSH2 0x17DA JUMP JUMPDEST CALLVALUE DUP1 ISZERO PUSH2 0x236 JUMPI PUSH1 0x0 DUP1 REVERT JUMPDEST POP PUSH2 0x24A PUSH2 0x245 CALLDATASIZE PUSH1 0x4 PUSH2 0x13E7 JUMP JUMPDEST PUSH2 0xD65 JUMP JUMPDEST PUSH1 0x40 MLOAD SWAP1 ISZERO ISZERO DUP2 MSTORE PUSH1 0x20 ADD PUSH2 0xE3 JUMP JUMPDEST CALLVALUE DUP1 ISZERO PUSH2 0x266 JUMPI PUSH1 0x0 DUP1 REVERT JUMPDEST POP PUSH2 0xFF PUSH2 0x275 CALLDATASIZE PUSH1 0x4 PUSH2 0x13E7 JUMP JUMPDEST PUSH2 0xDF0 JUMP JUMPDEST PUSH2 0x282 PUSH2 0x106C JUMP JUMPDEST PUSH2 0x28B DUP3 PUSH2 0xD65 JUMP JUMPDEST PUSH2 0x2D5 JUMPI PUSH1 0x40 MLOAD PUSH3 0x461BCD PUSH1 0xE5 SHL DUP2 MSTORE PUSH1 0x20 PUSH1 0x4 DUP3 ADD MSTORE PUSH1 0x16 PUSH1 0x24 DUP3 ADD MSTORE PUSH22 0x141C9BDA9958DD08191BD95CC81B9BDD08195E1A5CDD PUSH1 0x52 SHL PUSH1 0x44 DUP3 ADD MSTORE PUSH1 0x64 ADD JUMPDEST PUSH1 0x40 MLOAD DUP1 SWAP2 SUB SWAP1 REVERT JUMPDEST DUP1 ISZERO DUP1 PUSH2 0x2E2 JUMPI POP CALLVALUE DUP2 EQ ISZERO JUMPDEST ISZERO PUSH2 0x300 JUMPI PUSH1 0x40 MLOAD PUSH4 0x3E09BB9 PUSH1 0xE3 SHL DUP2 MSTORE PUSH1 0x4 ADD PUSH1 0x40 MLOAD DUP1 SWAP2 SUB SWAP1 REVERT JUMPDEST PUSH1 0x0 DUP3 DUP2 MSTORE PUSH1 0x7 PUSH1 0x20 MSTORE PUSH1 0x40 DUP2 KECCAK256 PUSH1 0x1 ADD DUP1 SLOAD DUP4 SWAP3 SWAP1 PUSH2 0x321 SWAP1 DUP5 SWAP1 PUSH2 0x186E JUMP JUMPDEST SWAP1 SWAP2 SSTORE POP POP PUSH1 0x0 DUP3 DUP2 MSTORE PUSH1 0x6 PUSH1 0x20 SWAP1 DUP2 MSTORE PUSH1 0x40 DUP1 DUP4 KECCAK256 CALLER DUP5 MSTORE SWAP1 SWAP2 MSTORE DUP2 KECCAK256 SLOAD SWAP1 SUB PUSH2 0x375 JUMPI PUSH1 0x0 DUP3 DUP2 MSTORE PUSH1 0x5 PUSH1 0x20 SWAP1 DUP2 MSTORE PUSH1 0x40 DUP3 KECCAK256 DUP1 SLOAD PUSH1 0x1 DUP2 ADD DUP3 SSTORE SWAP1 DUP4 MSTORE SWAP2 KECCAK256 ADD DUP1 SLOAD PUSH1 0x1 PUSH1 0x1 PUSH1 0xA0 SHL SUB NOT AND CALLER OR SWAP1 SSTORE JUMPDEST PUSH1 0x0 DUP3 DUP2 MSTORE PUSH1 0x6 PUSH1 0x20 SWAP1 DUP2 MSTORE PUSH1 0x40 DUP1 DUP4 KECCAK256 CALLER DUP5 MSTORE SWAP1 SWAP2 MSTORE DUP2 KECCAK256 DUP1 SLOAD DUP4 SWAP3 SWAP1 PUSH2 0x39E SWAP1 DUP5 SWAP1 PUSH2 0x186E JUMP JUMPDEST SWAP1 SWAP2 SSTORE POP POP PUSH1 0x40 MLOAD DUP2 DUP2 MSTORE DUP3 SWAP1 PUSH32 0x315CB30DD854BD9E9DF31E31754930BA16B498240F74A4EF23531F84C4EE4910 SWAP1 PUSH1 0x20 ADD PUSH1 0x40 MLOAD DUP1 SWAP2 SUB SWAP1 LOG2 PUSH1 0x0 DUP3 DUP2 MSTORE PUSH1 0x7 PUSH1 0x20 MSTORE PUSH1 0x40 SWAP1 KECCAK256 DUP1 SLOAD PUSH1 0x1 SWAP1 SWAP2 ADD SLOAD LT PUSH2 0x8B0 JUMPI PUSH1 0x0 PUSH2 0x3FE DUP4 PUSH2 0x1096 JUMP JUMPDEST SWAP1 POP PUSH1 0x0 JUMPDEST DUP2 MLOAD DUP2 LT ISZERO PUSH2 0x4CA JUMPI PUSH2 0x45C PUSH1 0x40 MLOAD DUP1 PUSH1 0x40 ADD PUSH1 0x40 MSTORE DUP1 PUSH1 0x11 DUP2 MSTORE PUSH1 0x20 ADD PUSH17 0x1E9E9E9E9E9E9F1029BAB8383634B2B91D PUSH1 0x79 SHL DUP2 MSTORE POP DUP4 DUP4 DUP2 MLOAD DUP2 LT PUSH2 0x44B JUMPI PUSH2 0x44B PUSH2 0x1881 JUMP JUMPDEST PUSH1 0x20 MUL PUSH1 0x20 ADD ADD MLOAD PUSH1 0x0 ADD MLOAD PUSH2 0x11C4 JUMP JUMPDEST PUSH2 0x4B8 PUSH1 0x40 MLOAD DUP1 PUSH1 0x40 ADD PUSH1 0x40 MSTORE DUP1 PUSH1 0x17 DUP2 MSTORE PUSH1 0x20 ADD PUSH32 0x3D3D3D3D3D3D3E20537570706C69657220506F7765723A000000000000000000 DUP2 MSTORE POP DUP4 DUP4 DUP2 MLOAD DUP2 LT PUSH2 0x4A7 JUMPI PUSH2 0x4A7 PUSH2 0x1881 JUMP JUMPDEST PUSH1 0x20 MUL PUSH1 0x20 ADD ADD MLOAD PUSH1 0x20 ADD MLOAD PUSH2 0x1209 JUMP JUMPDEST DUP1 PUSH2 0x4C2 DUP2 PUSH2 0x1897 JUMP JUMPDEST SWAP2 POP POP PUSH2 0x403 JUMP JUMPDEST POP PUSH1 0x40 DUP1 MLOAD PUSH1 0x80 DUP2 ADD DUP3 MSTORE PUSH1 0x0 DUP1 DUP3 MSTORE PUSH1 0x20 DUP3 ADD DUP2 SWAP1 MSTORE SWAP2 DUP2 ADD DUP3 SWAP1 MSTORE PUSH1 0x60 DUP2 ADD DUP4 SWAP1 MSTORE DUP3 MLOAD SWAP1 SWAP2 SWAP1 PUSH2 0x4FE SWAP1 PUSH1 0x1 PUSH2 0x186E JUMP JUMPDEST PUSH8 0xFFFFFFFFFFFFFFFF DUP2 GT ISZERO PUSH2 0x516 JUMPI PUSH2 0x516 PUSH2 0x1480 JUMP JUMPDEST PUSH1 0x40 MLOAD SWAP1 DUP1 DUP3 MSTORE DUP1 PUSH1 0x20 MUL PUSH1 0x20 ADD DUP3 ADD PUSH1 0x40 MSTORE DUP1 ISZERO PUSH2 0x53F JUMPI DUP2 PUSH1 0x20 ADD PUSH1 0x20 DUP3 MUL DUP1 CALLDATASIZE DUP4 CALLDATACOPY ADD SWAP1 POP JUMPDEST POP SWAP1 POP PUSH1 0x0 JUMPDEST DUP4 MLOAD DUP2 LT ISZERO PUSH2 0x5A8 JUMPI DUP4 DUP2 DUP2 MLOAD DUP2 LT PUSH2 0x560 JUMPI PUSH2 0x560 PUSH2 0x1881 JUMP JUMPDEST PUSH1 0x20 MUL PUSH1 0x20 ADD ADD MLOAD PUSH1 0x0 ADD MLOAD DUP3 DUP3 DUP2 MLOAD DUP2 LT PUSH2 0x57E JUMPI PUSH2 0x57E PUSH2 0x1881 JUMP JUMPDEST PUSH1 0x1 PUSH1 0x1 PUSH1 0xA0 SHL SUB SWAP1 SWAP3 AND PUSH1 0x20 SWAP3 DUP4 MUL SWAP2 SWAP1 SWAP2 ADD SWAP1 SWAP2 ADD MSTORE DUP1 PUSH2 0x5A0 DUP2 PUSH2 0x1897 JUMP JUMPDEST SWAP2 POP POP PUSH2 0x545 JUMP JUMPDEST POP ADDRESS DUP2 DUP5 MLOAD DUP2 MLOAD DUP2 LT PUSH2 0x5BD JUMPI PUSH2 0x5BD PUSH2 0x1881 JUMP JUMPDEST PUSH1 0x1 PUSH1 0x1 PUSH1 0xA0 SHL SUB SWAP1 SWAP3 AND PUSH1 0x20 SWAP3 DUP4 MUL SWAP2 SWAP1 SWAP2 ADD DUP3 ADD MSTORE PUSH1 0x40 DUP1 MLOAD DUP1 DUP3 ADD DUP3 MSTORE PUSH1 0x1 DUP2 MSTORE DUP2 MLOAD DUP1 DUP4 ADD DUP4 MSTORE PUSH1 0xD DUP2 MSTORE PUSH13 0x32B6B83A3C903837B4B73A32B9 PUSH1 0x99 SHL DUP2 DUP6 ADD MSTORE DUP2 DUP5 ADD MSTORE SWAP1 MLOAD SWAP1 SWAP2 PUSH1 0x0 SWAP2 PUSH2 0x618 SWAP2 DUP7 SWAP2 ADD PUSH2 0x18B0 JUMP JUMPDEST PUSH1 0x40 DUP1 MLOAD PUSH1 0x1F NOT DUP2 DUP5 SUB ADD DUP2 MSTORE DUP3 DUP3 MSTORE PUSH1 0x0 DUP11 DUP2 MSTORE PUSH1 0x7 PUSH1 0x20 MSTORE SWAP2 DUP3 KECCAK256 SLOAD PUSH1 0x2 SLOAD PUSH1 0x3 SLOAD PUSH4 0x70803EA5 PUSH1 0xE1 SHL DUP7 MSTORE SWAP3 SWAP6 POP SWAP1 SWAP4 PUSH1 0x1 PUSH1 0x1 PUSH1 0xA0 SHL SUB SWAP2 DUP3 AND SWAP3 PUSH4 0xE1007D4A SWAP3 CALLVALUE SWAP3 PUSH2 0x68D SWAP3 DUP16 SWAP3 AND SWAP1 DUP10 SWAP1 PUSH20 0xEEEEEEEEEEEEEEEEEEEEEEEEEEEEEEEEEEEEEEEE SWAP1 DUP10 SWAP1 DUP14 SWAP1 DUP16 SWAP1 PUSH1 0x4 ADD PUSH2 0x193C JUMP JUMPDEST PUSH1 0x20 PUSH1 0x40 MLOAD DUP1 DUP4 SUB DUP2 DUP6 DUP9 GAS CALL ISZERO DUP1 ISZERO PUSH2 0x6AB JUMPI RETURNDATASIZE PUSH1 0x0 DUP1 RETURNDATACOPY RETURNDATASIZE PUSH1 0x0 REVERT JUMPDEST POP POP POP POP POP PUSH1 0x40 MLOAD RETURNDATASIZE PUSH1 0x1F NOT PUSH1 0x1F DUP3 ADD AND DUP3 ADD DUP1 PUSH1 0x40 MSTORE POP DUP2 ADD SWAP1 PUSH2 0x6D0 SWAP2 SWAP1 PUSH2 0x19A7 JUMP JUMPDEST PUSH1 0x0 DUP11 DUP2 MSTORE PUSH1 0x7 PUSH1 0x20 MSTORE PUSH1 0x40 SWAP1 KECCAK256 SLOAD SWAP1 SWAP2 POP SELFBALANCE LT ISZERO PUSH2 0x731 JUMPI PUSH1 0x40 MLOAD PUSH3 0x461BCD PUSH1 0xE5 SHL DUP2 MSTORE PUSH1 0x20 PUSH1 0x4 DUP3 ADD DUP2 SWAP1 MSTORE PUSH1 0x24 DUP3 ADD MSTORE PUSH32 0x496E73756666696369656E742062616C616E636520696E20636F6E7472616374 PUSH1 0x44 DUP3 ADD MSTORE PUSH1 0x64 ADD PUSH2 0x2CC JUMP JUMPDEST PUSH1 0x2 SLOAD PUSH1 0x0 DUP11 DUP2 MSTORE PUSH1 0x7 PUSH1 0x20 MSTORE PUSH1 0x40 SWAP1 DUP2 SWAP1 KECCAK256 SLOAD SWAP1 MLOAD PUSH4 0x16B35BEB PUSH1 0xE2 SHL DUP2 MSTORE PUSH1 0x4 DUP2 ADD DUP5 SWAP1 MSTORE PUSH1 0x24 DUP2 ADD DUP3 SWAP1 MSTORE PUSH1 0x1 PUSH1 0x1 PUSH1 0xA0 SHL SUB SWAP1 SWAP3 AND SWAP2 PUSH4 0x5ACD6FAC SWAP2 SWAP1 PUSH1 0x44 ADD PUSH1 0x0 PUSH1 0x40 MLOAD DUP1 DUP4 SUB DUP2 DUP6 DUP9 DUP1 EXTCODESIZE ISZERO DUP1 ISZERO PUSH2 0x78E JUMPI PUSH1 0x0 DUP1 REVERT JUMPDEST POP GAS CALL ISZERO DUP1 ISZERO PUSH2 0x7A2 JUMPI RETURNDATASIZE PUSH1 0x0 DUP1 RETURNDATACOPY RETURNDATASIZE PUSH1 0x0 REVERT JUMPDEST POP POP POP PUSH1 0x0 DUP12 DUP2 MSTORE PUSH1 0x8 PUSH1 0x20 SWAP1 DUP2 MSTORE PUSH1 0x40 DUP1 DUP4 KECCAK256 SLOAD SWAP1 MLOAD SWAP3 SWAP5 POP PUSH2 0x7D7 SWAP4 POP PUSH1 0x1 PUSH1 0x1 PUSH1 0xA0 SHL SUB AND SWAP2 DUP5 SWAP2 DUP8 SWAP2 DUP11 SWAP2 ADD PUSH2 0x19C0 JUMP JUMPDEST PUSH1 0x40 DUP1 MLOAD PUSH1 0x1F NOT DUP2 DUP5 SUB ADD DUP2 MSTORE SWAP1 DUP3 SWAP1 MSTORE PUSH1 0x2 SLOAD PUSH4 0x1D703A7 PUSH1 0xE2 SHL DUP4 MSTORE SWAP1 SWAP3 POP PUSH1 0x1 PUSH1 0x1 PUSH1 0xA0 SHL SUB AND SWAP1 PUSH4 0x75C0E9C SWAP1 PUSH2 0x818 SWAP1 DUP6 SWAP1 DUP6 SWAP1 PUSH1 0x4 ADD PUSH2 0x19FD JUMP JUMPDEST PUSH1 0x20 PUSH1 0x40 MLOAD DUP1 DUP4 SUB DUP2 PUSH1 0x0 DUP8 GAS CALL ISZERO DUP1 ISZERO PUSH2 0x837 JUMPI RETURNDATASIZE PUSH1 0x0 DUP1 RETURNDATACOPY RETURNDATASIZE PUSH1 0x0 REVERT JUMPDEST POP POP POP POP PUSH1 0x40 MLOAD RETURNDATASIZE PUSH1 0x1F NOT PUSH1 0x1F DUP3 ADD AND DUP3 ADD DUP1 PUSH1 0x40 MSTORE POP DUP2 ADD SWAP1 PUSH2 0x85B SWAP2 SWAP1 PUSH2 0x1A21 JUMP JUMPDEST POP PUSH1 0x0 DUP11 DUP2 MSTORE PUSH1 0x9 PUSH1 0x20 SWAP1 DUP2 MSTORE PUSH1 0x40 SWAP2 DUP3 SWAP1 KECCAK256 DUP5 SWAP1 SSTORE DUP2 MLOAD DUP13 DUP2 MSTORE SWAP1 DUP2 ADD DUP5 SWAP1 MSTORE PUSH32 0xC5D45CF1508CAE377CC227A37EA00B97FA9E86E03CE72364A0B7E85E36BAACEC SWAP2 ADD PUSH1 0x40 MLOAD DUP1 SWAP2 SUB SWAP1 LOG1 POP POP POP POP POP POP POP POP JUMPDEST PUSH2 0x8BA PUSH1 0x1 PUSH1 0x0 SSTORE JUMP JUMPDEST POP POP JUMP JUMPDEST PUSH1 0x0 DUP2 DUP2 MSTORE PUSH1 0x5 PUSH1 0x20 SWAP1 DUP2 MSTORE PUSH1 0x40 SWAP2 DUP3 SWAP1 KECCAK256 DUP1 SLOAD DUP4 MLOAD DUP2 DUP5 MUL DUP2 ADD DUP5 ADD SWAP1 SWAP5 MSTORE DUP1 DUP5 MSTORE PUSH1 0x60 SWAP4 SWAP3 DUP4 ADD DUP3 DUP3 DUP1 ISZERO PUSH2 0x91E JUMPI PUSH1 0x20 MUL DUP3 ADD SWAP2 SWAP1 PUSH1 0x0 MSTORE PUSH1 0x20 PUSH1 0x0 KECCAK256 SWAP1 JUMPDEST DUP2 SLOAD PUSH1 0x1 PUSH1 0x1 PUSH1 0xA0 SHL SUB AND DUP2 MSTORE PUSH1 0x1 SWAP1 SWAP2 ADD SWAP1 PUSH1 0x20 ADD DUP1 DUP4 GT PUSH2 0x900 JUMPI JUMPDEST POP POP POP POP POP SWAP1 POP SWAP2 SWAP1 POP JUMP JUMPDEST PUSH1 0x40 DUP1 MLOAD PUSH1 0x2 DUP1 DUP3 MSTORE PUSH1 0x60 DUP3 ADD DUP4 MSTORE PUSH1 0x0 SWAP3 DUP4 SWAP3 SWAP2 SWAP1 PUSH1 0x20 DUP4 ADD SWAP1 DUP1 CALLDATASIZE DUP4 CALLDATACOPY ADD SWAP1 POP POP SWAP1 POP DUP4 DUP2 PUSH1 0x0 DUP2 MLOAD DUP2 LT PUSH2 0x963 JUMPI PUSH2 0x963 PUSH2 0x1881 JUMP JUMPDEST PUSH1 0x20 MUL PUSH1 0x20 ADD ADD SWAP1 PUSH1 0x1 PUSH1 0x1 PUSH1 0xA0 SHL SUB AND SWAP1 DUP2 PUSH1 0x1 PUSH1 0x1 PUSH1 0xA0 SHL SUB AND DUP2 MSTORE POP POP ADDRESS DUP2 PUSH1 0x1 DUP2 MLOAD DUP2 LT PUSH2 0x997 JUMPI PUSH2 0x997 PUSH2 0x1881 JUMP JUMPDEST PUSH1 0x1 PUSH1 0x1 PUSH1 0xA0 SHL SUB SWAP3 DUP4 AND PUSH1 0x20 SWAP2 DUP3 MUL SWAP3 SWAP1 SWAP3 ADD ADD MSTORE PUSH1 0x1 SLOAD PUSH1 0x40 MLOAD PUSH4 0x3A92F65F PUSH1 0xE0 SHL DUP2 MSTORE SWAP2 AND SWAP1 PUSH4 0x3A92F65F SWAP1 PUSH2 0x9DC SWAP1 DUP11 SWAP1 DUP11 SWAP1 DUP11 SWAP1 ADDRESS SWAP1 DUP9 SWAP1 PUSH1 0x4 ADD PUSH2 0x1A3E JUMP JUMPDEST PUSH1 0x20 PUSH1 0x40 MLOAD DUP1 DUP4 SUB DUP2 PUSH1 0x0 DUP8 GAS CALL ISZERO DUP1 ISZERO PUSH2 0x9FB JUMPI RETURNDATASIZE PUSH1 0x0 DUP1 RETURNDATACOPY RETURNDATASIZE PUSH1 0x0 REVERT JUMPDEST POP POP POP POP PUSH1 0x40 MLOAD RETURNDATASIZE PUSH1 0x1F NOT PUSH1 0x1F DUP3 ADD AND DUP3 ADD DUP1 PUSH1 0x40 MSTORE POP DUP2 ADD SWAP1 PUSH2 0xA1F SWAP2 SWAP1 PUSH2 0x19A7 JUMP JUMPDEST PUSH1 0x4 DUP1 SLOAD PUSH1 0x1 DUP2 ADD SWAP1 SWAP2 SSTORE PUSH32 0x8A35ACFBC15FF81A39AE7D344FD709F28E8600B4AA8C65C6B64BFE7FE36BD19B ADD DUP2 SWAP1 SSTORE PUSH1 0x0 DUP2 DUP2 MSTORE PUSH1 0x7 PUSH1 0x20 MSTORE PUSH1 0x40 DUP2 KECCAK256 DUP1 SLOAD SWAP3 SWAP5 POP DUP11 SWAP3 SWAP1 SWAP2 SWAP1 PUSH2 0xA72 SWAP1 DUP5 SWAP1 PUSH2 0x186E JUMP JUMPDEST SWAP1 SWAP2 SSTORE POP POP PUSH1 0x0 DUP3 DUP2 MSTORE PUSH1 0x7 PUSH1 0x20 MSTORE PUSH1 0x40 SWAP1 KECCAK256 PUSH1 0x2 ADD PUSH2 0xA92 DUP8 DUP3 PUSH2 0x1B20 JUMP JUMPDEST POP PUSH1 0x0 DUP3 DUP2 MSTORE PUSH1 0x7 PUSH1 0x20 MSTORE PUSH1 0x40 SWAP1 KECCAK256 PUSH1 0x3 ADD PUSH2 0xAAE DUP5 DUP3 PUSH2 0x1B20 JUMP JUMPDEST POP POP PUSH1 0x0 DUP2 DUP2 MSTORE PUSH1 0x8 PUSH1 0x20 MSTORE PUSH1 0x40 SWAP1 KECCAK256 DUP1 SLOAD PUSH1 0x1 PUSH1 0x1 PUSH1 0xA0 SHL SUB DUP6 AND PUSH1 0x1 PUSH1 0x1 PUSH1 0xA0 SHL SUB NOT SWAP1 SWAP2 AND OR SWAP1 SSTORE SWAP7 SWAP6 POP POP POP POP POP POP JUMP JUMPDEST PUSH1 0x0 DUP3 DUP2 MSTORE PUSH1 0x6 PUSH1 0x20 SWAP1 DUP2 MSTORE PUSH1 0x40 DUP1 DUP4 KECCAK256 PUSH1 0x1 PUSH1 0x1 PUSH1 0xA0 SHL SUB DUP6 AND DUP5 MSTORE SWAP1 SWAP2 MSTORE SWAP1 KECCAK256 SLOAD JUMPDEST SWAP3 SWAP2 POP POP JUMP JUMPDEST PUSH2 0xB38 PUSH1 0x40 MLOAD DUP1 PUSH1 0x80 ADD PUSH1 0x40 MSTORE DUP1 PUSH1 0x0 DUP2 MSTORE PUSH1 0x20 ADD PUSH1 0x0 DUP2 MSTORE PUSH1 0x20 ADD PUSH1 0x60 DUP2 MSTORE PUSH1 0x20 ADD PUSH1 0x60 DUP2 MSTORE POP SWAP1 JUMP JUMPDEST PUSH1 0x7 PUSH1 0x0 DUP4 DUP2 MSTORE PUSH1 0x20 ADD SWAP1 DUP2 MSTORE PUSH1 0x20 ADD PUSH1 0x0 KECCAK256 PUSH1 0x40 MLOAD DUP1 PUSH1 0x80 ADD PUSH1 0x40 MSTORE SWAP1 DUP2 PUSH1 0x0 DUP3 ADD SLOAD DUP2 MSTORE PUSH1 0x20 ADD PUSH1 0x1 DUP3 ADD SLOAD DUP2 MSTORE PUSH1 0x20 ADD PUSH1 0x2 DUP3 ADD DUP1 SLOAD PUSH2 0xB7A SWAP1 PUSH2 0x1A98 JUMP JUMPDEST DUP1 PUSH1 0x1F ADD PUSH1 0x20 DUP1 SWAP2 DIV MUL PUSH1 0x20 ADD PUSH1 0x40 MLOAD SWAP1 DUP2 ADD PUSH1 0x40 MSTORE DUP1 SWAP3 SWAP2 SWAP1 DUP2 DUP2 MSTORE PUSH1 0x20 ADD DUP3 DUP1 SLOAD PUSH2 0xBA6 SWAP1 PUSH2 0x1A98 JUMP JUMPDEST DUP1 ISZERO PUSH2 0xBF3 JUMPI DUP1 PUSH1 0x1F LT PUSH2 0xBC8 JUMPI PUSH2 0x100 DUP1 DUP4 SLOAD DIV MUL DUP4 MSTORE SWAP2 PUSH1 0x20 ADD SWAP2 PUSH2 0xBF3 JUMP JUMPDEST DUP3 ADD SWAP2 SWAP1 PUSH1 0x0 MSTORE PUSH1 0x20 PUSH1 0x0 KECCAK256 SWAP1 JUMPDEST DUP2 SLOAD DUP2 MSTORE SWAP1 PUSH1 0x1 ADD SWAP1 PUSH1 0x20 ADD DUP1 DUP4 GT PUSH2 0xBD6 JUMPI DUP3 SWAP1 SUB PUSH1 0x1F AND DUP3 ADD SWAP2 JUMPDEST POP POP POP POP POP DUP2 MSTORE PUSH1 0x20 ADD PUSH1 0x3 DUP3 ADD DUP1 SLOAD PUSH2 0xC0C SWAP1 PUSH2 0x1A98 JUMP JUMPDEST DUP1 PUSH1 0x1F ADD PUSH1 0x20 DUP1 SWAP2 DIV MUL PUSH1 0x20 ADD PUSH1 0x40 MLOAD SWAP1 DUP2 ADD PUSH1 0x40 MSTORE DUP1 SWAP3 SWAP2 SWAP1 DUP2 DUP2 MSTORE PUSH1 0x20 ADD DUP3 DUP1 SLOAD PUSH2 0xC38 SWAP1 PUSH2 0x1A98 JUMP JUMPDEST DUP1 ISZERO PUSH2 0xC85 JUMPI DUP1 PUSH1 0x1F LT PUSH2 0xC5A JUMPI PUSH2 0x100 DUP1 DUP4 SLOAD DIV MUL DUP4 MSTORE SWAP2 PUSH1 0x20 ADD SWAP2 PUSH2 0xC85 JUMP JUMPDEST DUP3 ADD SWAP2 SWAP1 PUSH1 0x0 MSTORE PUSH1 0x20 PUSH1 0x0 KECCAK256 SWAP1 JUMPDEST DUP2 SLOAD DUP2 MSTORE SWAP1 PUSH1 0x1 ADD SWAP1 PUSH1 0x20 ADD DUP1 DUP4 GT PUSH2 0xC68 JUMPI DUP3 SWAP1 SUB PUSH1 0x1F AND DUP3 ADD SWAP2 JUMPDEST POP POP POP POP POP DUP2 MSTORE POP POP SWAP1 POP SWAP2 SWAP1 POP JUMP JUMPDEST PUSH1 0x60 PUSH1 0x4 DUP1 SLOAD DUP1 PUSH1 0x20 MUL PUSH1 0x20 ADD PUSH1 0x40 MLOAD SWAP1 DUP2 ADD PUSH1 0x40 MSTORE DUP1 SWAP3 SWAP2 SWAP1 DUP2 DUP2 MSTORE PUSH1 0x20 ADD DUP3 DUP1 SLOAD DUP1 ISZERO PUSH2 0xCE3 JUMPI PUSH1 0x20 MUL DUP3 ADD SWAP2 SWAP1 PUSH1 0x0 MSTORE PUSH1 0x20 PUSH1 0x0 KECCAK256 SWAP1 JUMPDEST DUP2 SLOAD DUP2 MSTORE PUSH1 0x20 ADD SWAP1 PUSH1 0x1 ADD SWAP1 DUP1 DUP4 GT PUSH2 0xCCF JUMPI JUMPDEST POP POP POP POP POP SWAP1 POP SWAP1 JUMP JUMPDEST PUSH2 0xCF5 PUSH2 0x1319 JUMP JUMPDEST PUSH1 0x1 SLOAD PUSH1 0x40 MLOAD PUSH3 0x8A6785 PUSH1 0xE1 SHL DUP2 MSTORE PUSH1 0x4 DUP2 ADD DUP5 SWAP1 MSTORE PUSH1 0x1 PUSH1 0x1 PUSH1 0xA0 SHL SUB SWAP1 SWAP2 AND SWAP1 PUSH4 0x114CF0A SWAP1 PUSH1 0x24 ADD PUSH1 0x0 PUSH1 0x40 MLOAD DUP1 DUP4 SUB DUP2 DUP7 GAS STATICCALL ISZERO DUP1 ISZERO PUSH2 0xD3D JUMPI RETURNDATASIZE PUSH1 0x0 DUP1 RETURNDATACOPY RETURNDATASIZE PUSH1 0x0 REVERT JUMPDEST POP POP POP POP PUSH1 0x40 MLOAD RETURNDATASIZE PUSH1 0x0 DUP3 RETURNDATACOPY PUSH1 0x1F RETURNDATASIZE SWAP1 DUP2 ADD PUSH1 0x1F NOT AND DUP3 ADD PUSH1 0x40 MSTORE PUSH2 0xB07 SWAP2 SWAP1 DUP2 ADD SWAP1 PUSH2 0x1C77 JUMP JUMPDEST PUSH1 0x1 SLOAD PUSH1 0x40 MLOAD PUSH3 0x8A6785 PUSH1 0xE1 SHL DUP2 MSTORE PUSH1 0x4 DUP2 ADD DUP4 SWAP1 MSTORE PUSH1 0x0 SWAP2 DUP3 SWAP2 PUSH1 0x1 PUSH1 0x1 PUSH1 0xA0 SHL SUB SWAP1 SWAP2 AND SWAP1 PUSH4 0x114CF0A SWAP1 PUSH1 0x24 ADD PUSH1 0x0 PUSH1 0x40 MLOAD DUP1 DUP4 SUB DUP2 DUP7 GAS STATICCALL ISZERO DUP1 ISZERO PUSH2 0xDB2 JUMPI RETURNDATASIZE PUSH1 0x0 DUP1 RETURNDATACOPY RETURNDATASIZE PUSH1 0x0 REVERT JUMPDEST POP POP POP POP PUSH1 0x40 MLOAD RETURNDATASIZE PUSH1 0x0 DUP3 RETURNDATACOPY PUSH1 0x1F RETURNDATASIZE SWAP1 DUP2 ADD PUSH1 0x1F NOT AND DUP3 ADD PUSH1 0x40 MSTORE PUSH2 0xDDA SWAP2 SWAP1 DUP2 ADD SWAP1 PUSH2 0x1C77 JUMP JUMPDEST PUSH1 0x80 ADD MLOAD PUSH1 0x1 PUSH1 0x1 PUSH1 0xA0 SHL SUB AND ISZERO ISZERO SWAP4 SWAP3 POP POP POP JUMP JUMPDEST PUSH2 0xDF8 PUSH2 0x106C JUMP JUMPDEST PUSH2 0xE01 DUP2 PUSH2 0xD65 JUMP JUMPDEST PUSH2 0xE46 JUMPI PUSH1 0x40 MLOAD PUSH3 0x461BCD PUSH1 0xE5 SHL DUP2 MSTORE PUSH1 0x20 PUSH1 0x4 DUP3 ADD MSTORE PUSH1 0x16 PUSH1 0x24 DUP3 ADD MSTORE PUSH22 0x141C9BDA9958DD08191BD95CC81B9BDD08195E1A5CDD PUSH1 0x52 SHL PUSH1 0x44 DUP3 ADD MSTORE PUSH1 0x64 ADD PUSH2 0x2CC JUMP JUMPDEST PUSH1 0x0 DUP2 DUP2 MSTORE PUSH1 0x6 PUSH1 0x20 SWAP1 DUP2 MSTORE PUSH1 0x40 DUP1 DUP4 KECCAK256 CALLER DUP5 MSTORE SWAP1 SWAP2 MSTORE SWAP1 KECCAK256 SLOAD DUP1 PUSH2 0xEA0 JUMPI PUSH1 0x40 MLOAD PUSH3 0x461BCD PUSH1 0xE5 SHL DUP2 MSTORE PUSH1 0x20 PUSH1 0x4 DUP3 ADD MSTORE PUSH1 0x10 PUSH1 0x24 DUP3 ADD MSTORE PUSH16 0x14D554141316481393D5081193D55391 PUSH1 0x82 SHL PUSH1 0x44 DUP3 ADD MSTORE PUSH1 0x64 ADD PUSH2 0x2CC JUMP JUMPDEST PUSH1 0x0 DUP3 DUP2 MSTORE PUSH1 0x6 PUSH1 0x20 SWAP1 DUP2 MSTORE PUSH1 0x40 DUP1 DUP4 KECCAK256 CALLER DUP5 MSTORE DUP3 MSTORE DUP1 DUP4 KECCAK256 DUP4 SWAP1 SSTORE DUP5 DUP4 MSTORE PUSH1 0x7 SWAP1 SWAP2 MSTORE DUP2 KECCAK256 PUSH1 0x1 ADD DUP1 SLOAD DUP4 SWAP3 SWAP1 PUSH2 0xED9 SWAP1 DUP5 SWAP1 PUSH2 0x1D3E JUMP JUMPDEST SWAP1 SWAP2 SSTORE POP POP PUSH1 0x0 DUP3 DUP2 MSTORE PUSH1 0x5 PUSH1 0x20 MSTORE PUSH1 0x40 DUP2 KECCAK256 SLOAD PUSH2 0xEF9 SWAP1 PUSH1 0x1 SWAP1 PUSH2 0x1D3E JUMP JUMPDEST PUSH8 0xFFFFFFFFFFFFFFFF DUP2 GT ISZERO PUSH2 0xF11 JUMPI PUSH2 0xF11 PUSH2 0x1480 JUMP JUMPDEST PUSH1 0x40 MLOAD SWAP1 DUP1 DUP3 MSTORE DUP1 PUSH1 0x20 MUL PUSH1 0x20 ADD DUP3 ADD PUSH1 0x40 MSTORE DUP1 ISZERO PUSH2 0xF3A JUMPI DUP2 PUSH1 0x20 ADD PUSH1 0x20 DUP3 MUL DUP1 CALLDATASIZE DUP4 CALLDATACOPY ADD SWAP1 POP JUMPDEST POP SWAP1 POP PUSH1 0x0 DUP1 JUMPDEST PUSH1 0x0 DUP6 DUP2 MSTORE PUSH1 0x5 PUSH1 0x20 MSTORE PUSH1 0x40 SWAP1 KECCAK256 SLOAD DUP2 LT ISZERO PUSH2 0x101C JUMPI PUSH1 0x0 DUP6 DUP2 MSTORE PUSH1 0x5 PUSH1 0x20 MSTORE PUSH1 0x40 SWAP1 KECCAK256 DUP1 SLOAD CALLER SWAP2 SWAP1 DUP4 SWAP1 DUP2 LT PUSH2 0xF7A JUMPI PUSH2 0xF7A PUSH2 0x1881 JUMP JUMPDEST PUSH1 0x0 SWAP2 DUP3 MSTORE PUSH1 0x20 SWAP1 SWAP2 KECCAK256 ADD SLOAD PUSH1 0x1 PUSH1 0x1 PUSH1 0xA0 SHL SUB AND EQ PUSH2 0x100A JUMPI PUSH1 0x0 DUP6 DUP2 MSTORE PUSH1 0x5 PUSH1 0x20 MSTORE PUSH1 0x40 SWAP1 KECCAK256 DUP1 SLOAD DUP3 SWAP1 DUP2 LT PUSH2 0xFB4 JUMPI PUSH2 0xFB4 PUSH2 0x1881 JUMP JUMPDEST SWAP1 PUSH1 0x0 MSTORE PUSH1 0x20 PUSH1 0x0 KECCAK256 ADD PUSH1 0x0 SWAP1 SLOAD SWAP1 PUSH2 0x100 EXP SWAP1 DIV PUSH1 0x1 PUSH1 0x1 PUSH1 0xA0 SHL SUB AND DUP4 DUP4 DUP2 MLOAD DUP2 LT PUSH2 0xFE4 JUMPI PUSH2 0xFE4 PUSH2 0x1881 JUMP JUMPDEST PUSH1 0x1 PUSH1 0x1 PUSH1 0xA0 SHL SUB SWAP1 SWAP3 AND PUSH1 0x20 SWAP3 DUP4 MUL SWAP2 SWAP1 SWAP2 ADD SWAP1 SWAP2 ADD MSTORE DUP2 PUSH2 0x1006 DUP2 PUSH2 0x1897 JUMP JUMPDEST SWAP3 POP POP JUMPDEST DUP1 PUSH2 0x1014 DUP2 PUSH2 0x1897 JUMP JUMPDEST SWAP2 POP POP PUSH2 0xF41 JUMP JUMPDEST POP PUSH1 0x0 DUP5 DUP2 MSTORE PUSH1 0x5 PUSH1 0x20 SWAP1 DUP2 MSTORE PUSH1 0x40 SWAP1 SWAP2 KECCAK256 DUP4 MLOAD PUSH2 0x103C SWAP3 DUP6 ADD SWAP1 PUSH2 0x136D JUMP JUMPDEST POP PUSH2 0x105C PUSH20 0xEEEEEEEEEEEEEEEEEEEEEEEEEEEEEEEEEEEEEEEE CALLER DUP6 PUSH2 0x124E JUMP JUMPDEST POP POP POP PUSH2 0x1069 PUSH1 0x1 PUSH1 0x0 SSTORE JUMP JUMPDEST POP JUMP JUMPDEST PUSH1 0x2 PUSH1 0x0 SLOAD SUB PUSH2 0x108F JUMPI PUSH1 0x40 MLOAD PUSH4 0x3EE5AEB5 PUSH1 0xE0 SHL DUP2 MSTORE PUSH1 0x4 ADD PUSH1 0x40 MLOAD DUP1 SWAP2 SUB SWAP1 REVERT JUMPDEST PUSH1 0x2 PUSH1 0x0 SSTORE JUMP JUMPDEST PUSH1 0x0 DUP2 DUP2 MSTORE PUSH1 0x5 PUSH1 0x20 MSTORE PUSH1 0x40 DUP2 KECCAK256 SLOAD PUSH1 0x60 SWAP2 SWAP1 PUSH8 0xFFFFFFFFFFFFFFFF DUP2 GT ISZERO PUSH2 0x10C1 JUMPI PUSH2 0x10C1 PUSH2 0x1480 JUMP JUMPDEST PUSH1 0x40 MLOAD SWAP1 DUP1 DUP3 MSTORE DUP1 PUSH1 0x20 MUL PUSH1 0x20 ADD DUP3 ADD PUSH1 0x40 MSTORE DUP1 ISZERO PUSH2 0x1106 JUMPI DUP2 PUSH1 0x20 ADD JUMPDEST PUSH1 0x40 DUP1 MLOAD DUP1 DUP3 ADD SWAP1 SWAP2 MSTORE PUSH1 0x0 DUP1 DUP3 MSTORE PUSH1 0x20 DUP3 ADD MSTORE DUP2 MSTORE PUSH1 0x20 ADD SWAP1 PUSH1 0x1 SWAP1 SUB SWAP1 DUP2 PUSH2 0x10DF JUMPI SWAP1 POP JUMPDEST POP SWAP1 POP PUSH1 0x0 JUMPDEST PUSH1 0x0 DUP5 DUP2 MSTORE PUSH1 0x5 PUSH1 0x20 MSTORE PUSH1 0x40 SWAP1 KECCAK256 SLOAD DUP2 LT ISZERO PUSH2 0x11BD JUMPI PUSH1 0x0 DUP5 DUP2 MSTORE PUSH1 0x5 PUSH1 0x20 MSTORE PUSH1 0x40 DUP2 KECCAK256 DUP1 SLOAD DUP4 SWAP1 DUP2 LT PUSH2 0x1142 JUMPI PUSH2 0x1142 PUSH2 0x1881 JUMP JUMPDEST PUSH1 0x0 SWAP2 DUP3 MSTORE PUSH1 0x20 DUP1 DUP4 KECCAK256 SWAP1 SWAP2 ADD SLOAD DUP8 DUP4 MSTORE PUSH1 0x6 DUP3 MSTORE PUSH1 0x40 DUP1 DUP5 KECCAK256 PUSH1 0x1 PUSH1 0x1 PUSH1 0xA0 SHL SUB SWAP1 SWAP3 AND DUP1 DUP6 MSTORE SWAP2 DUP4 MSTORE SWAP3 DUP4 SWAP1 KECCAK256 SLOAD DUP4 MLOAD DUP1 DUP6 ADD SWAP1 SWAP5 MSTORE DUP2 DUP5 MSTORE SWAP2 DUP4 ADD DUP3 SWAP1 MSTORE DUP6 MLOAD SWAP1 SWAP4 POP SWAP1 SWAP2 SWAP1 DUP6 SWAP1 DUP6 SWAP1 DUP2 LT PUSH2 0x119D JUMPI PUSH2 0x119D PUSH2 0x1881 JUMP JUMPDEST PUSH1 0x20 MUL PUSH1 0x20 ADD ADD DUP2 SWAP1 MSTORE POP POP POP DUP1 DUP1 PUSH2 0x11B5 SWAP1 PUSH2 0x1897 JUMP JUMPDEST SWAP2 POP POP PUSH2 0x110C JUMP JUMPDEST POP SWAP3 SWAP2 POP POP JUMP JUMPDEST PUSH2 0x8BA DUP3 DUP3 PUSH1 0x40 MLOAD PUSH1 0x24 ADD PUSH2 0x11DA SWAP3 SWAP2 SWAP1 PUSH2 0x1D51 JUMP JUMPDEST PUSH1 0x40 DUP1 MLOAD PUSH1 0x1F NOT DUP2 DUP5 SUB ADD DUP2 MSTORE SWAP2 SWAP1 MSTORE PUSH1 0x20 DUP2 ADD DUP1 MLOAD PUSH1 0x1 PUSH1 0x1 PUSH1 0xE0 SHL SUB AND PUSH4 0x319AF333 PUSH1 0xE0 SHL OR SWAP1 MSTORE PUSH2 0x128D JUMP JUMPDEST PUSH2 0x8BA DUP3 DUP3 PUSH1 0x40 MLOAD PUSH1 0x24 ADD PUSH2 0x121F SWAP3 SWAP2 SWAP1 PUSH2 0x1D7B JUMP JUMPDEST PUSH1 0x40 DUP1 MLOAD PUSH1 0x1F NOT DUP2 DUP5 SUB ADD DUP2 MSTORE SWAP2 SWAP1 MSTORE PUSH1 0x20 DUP2 ADD DUP1 MLOAD PUSH1 0x1 PUSH1 0x1 PUSH1 0xE0 SHL SUB AND PUSH4 0x2D839CB3 PUSH1 0xE2 SHL OR SWAP1 MSTORE PUSH2 0x128D JUMP JUMPDEST PUSH20 0xEEEEEEEEEEEEEEEEEEEEEEEEEEEEEEEEEEEEEEED NOT PUSH1 0x1 PUSH1 0x1 PUSH1 0xA0 SHL SUB DUP5 AND ADD PUSH2 0x1282 JUMPI PUSH2 0x127D DUP3 DUP3 PUSH2 0x1296 JUMP JUMPDEST POP POP POP JUMP JUMPDEST PUSH2 0x127D DUP4 DUP4 DUP4 PUSH2 0x12B2 JUMP JUMPDEST PUSH2 0x1069 DUP2 PUSH2 0x12F8 JUMP JUMPDEST PUSH1 0x0 CODESIZE PUSH1 0x0 CODESIZE DUP5 DUP7 GAS CALL PUSH2 0x8BA JUMPI PUSH4 0xB12D13EB PUSH1 0x0 MSTORE PUSH1 0x4 PUSH1 0x1C REVERT JUMPDEST DUP2 PUSH1 0x14 MSTORE DUP1 PUSH1 0x34 MSTORE PUSH4 0xA9059CBB PUSH1 0x60 SHL PUSH1 0x0 MSTORE PUSH1 0x20 PUSH1 0x0 PUSH1 0x44 PUSH1 0x10 PUSH1 0x0 DUP8 GAS CALL RETURNDATASIZE ISZERO PUSH1 0x1 PUSH1 0x0 MLOAD EQ OR AND PUSH2 0x12EE JUMPI PUSH4 0x90B8EC18 PUSH1 0x0 MSTORE PUSH1 0x4 PUSH1 0x1C REVERT JUMPDEST PUSH1 0x0 PUSH1 0x34 MSTORE POP POP POP JUMP JUMPDEST PUSH1 0x0 PUSH11 0x636F6E736F6C652E6C6F67 SWAP1 POP PUSH1 0x0 DUP1 DUP4 MLOAD PUSH1 0x20 DUP6 ADD DUP5 GAS STATICCALL POP POP POP JUMP JUMPDEST PUSH1 0x40 MLOAD DUP1 PUSH1 0xC0 ADD PUSH1 0x40 MSTORE DUP1 PUSH1 0x0 DUP1 NOT AND DUP2 MSTORE PUSH1 0x20 ADD PUSH1 0x0 DUP2 MSTORE PUSH1 0x20 ADD PUSH1 0x60 DUP2 MSTORE PUSH1 0x20 ADD PUSH2 0x1359 PUSH1 0x40 MLOAD DUP1 PUSH1 0x40 ADD PUSH1 0x40 MSTORE DUP1 PUSH1 0x0 DUP2 MSTORE PUSH1 0x20 ADD PUSH1 0x60 DUP2 MSTORE POP SWAP1 JUMP JUMPDEST DUP2 MSTORE PUSH1 0x0 PUSH1 0x20 DUP3 ADD DUP2 SWAP1 MSTORE PUSH1 0x40 SWAP1 SWAP2 ADD MSTORE SWAP1 JUMP JUMPDEST DUP3 DUP1 SLOAD DUP3 DUP3 SSTORE SWAP1 PUSH1 0x0 MSTORE PUSH1 0x20 PUSH1 0x0 KECCAK256 SWAP1 DUP2 ADD SWAP3 DUP3 ISZERO PUSH2 0x13C2 JUMPI SWAP2 PUSH1 0x20 MUL DUP3 ADD JUMPDEST DUP3 DUP2 GT ISZERO PUSH2 0x13C2 JUMPI DUP3 MLOAD DUP3 SLOAD PUSH1 0x1 PUSH1 0x1 PUSH1 0xA0 SHL SUB NOT AND PUSH1 0x1 PUSH1 0x1 PUSH1 0xA0 SHL SUB SWAP1 SWAP2 AND OR DUP3 SSTORE PUSH1 0x20 SWAP1 SWAP3 ADD SWAP2 PUSH1 0x1 SWAP1 SWAP2 ADD SWAP1 PUSH2 0x138D JUMP JUMPDEST POP PUSH2 0x13CE SWAP3 SWAP2 POP PUSH2 0x13D2 JUMP JUMPDEST POP SWAP1 JUMP JUMPDEST JUMPDEST DUP1 DUP3 GT ISZERO PUSH2 0x13CE JUMPI PUSH1 0x0 DUP2 SSTORE PUSH1 0x1 ADD PUSH2 0x13D3 JUMP JUMPDEST PUSH1 0x0 PUSH1 0x20 DUP3 DUP5 SUB SLT ISZERO PUSH2 0x13F9 JUMPI PUSH1 0x0 DUP1 REVERT JUMPDEST POP CALLDATALOAD SWAP2 SWAP1 POP JUMP JUMPDEST PUSH1 0x0 DUP1 PUSH1 0x40 DUP4 DUP6 SUB SLT ISZERO PUSH2 0x1413 JUMPI PUSH1 0x0 DUP1 REVERT JUMPDEST POP POP DUP1 CALLDATALOAD SWAP3 PUSH1 0x20 SWAP1 SWAP2 ADD CALLDATALOAD SWAP2 POP JUMP JUMPDEST PUSH1 0x0 DUP2 MLOAD DUP1 DUP5 MSTORE PUSH1 0x20 DUP1 DUP6 ADD SWAP5 POP DUP1 DUP5 ADD PUSH1 0x0 JUMPDEST DUP4 DUP2 LT ISZERO PUSH2 0x145B JUMPI DUP2 MLOAD PUSH1 0x1 PUSH1 0x1 PUSH1 0xA0 SHL SUB AND DUP8 MSTORE SWAP6 DUP3 ADD SWAP6 SWAP1 DUP3 ADD SWAP1 PUSH1 0x1 ADD PUSH2 0x1436 JUMP JUMPDEST POP SWAP5 SWAP6 SWAP5 POP POP POP POP POP JUMP JUMPDEST PUSH1 0x20 DUP2 MSTORE PUSH1 0x0 PUSH2 0x1479 PUSH1 0x20 DUP4 ADD DUP5 PUSH2 0x1422 JUMP JUMPDEST SWAP4 SWAP3 POP POP POP JUMP JUMPDEST PUSH4 0x4E487B71 PUSH1 0xE0 SHL PUSH1 0x0 MSTORE PUSH1 0x41 PUSH1 0x4 MSTORE PUSH1 0x24 PUSH1 0x0 REVERT JUMPDEST PUSH1 0x40 DUP1 MLOAD SWAP1 DUP2 ADD PUSH8 0xFFFFFFFFFFFFFFFF DUP2 GT DUP3 DUP3 LT OR ISZERO PUSH2 0x14B9 JUMPI PUSH2 0x14B9 PUSH2 0x1480 JUMP JUMPDEST PUSH1 0x40 MSTORE SWAP1 JUMP JUMPDEST PUSH1 0x40 MLOAD PUSH1 0xC0 DUP2 ADD PUSH8 0xFFFFFFFFFFFFFFFF DUP2 GT DUP3 DUP3 LT OR ISZERO PUSH2 0x14B9 JUMPI PUSH2 0x14B9 PUSH2 0x1480 JUMP JUMPDEST PUSH1 0x40 MLOAD PUSH1 0x1F DUP3 ADD PUSH1 0x1F NOT AND DUP2 ADD PUSH8 0xFFFFFFFFFFFFFFFF DUP2 GT DUP3 DUP3 LT OR ISZERO PUSH2 0x150B JUMPI PUSH2 0x150B PUSH2 0x1480 JUMP JUMPDEST PUSH1 0x40 MSTORE SWAP2 SWAP1 POP JUMP JUMPDEST PUSH1 0x0 PUSH8 0xFFFFFFFFFFFFFFFF DUP3 GT ISZERO PUSH2 0x152D JUMPI PUSH2 0x152D PUSH2 0x1480 JUMP JUMPDEST POP PUSH1 0x1F ADD PUSH1 0x1F NOT AND PUSH1 0x20 ADD SWAP1 JUMP JUMPDEST PUSH1 0x0 DUP3 PUSH1 0x1F DUP4 ADD SLT PUSH2 0x154C JUMPI PUSH1 0x0 DUP1 REVERT JUMPDEST DUP2 CALLDATALOAD PUSH2 0x155F PUSH2 0x155A DUP3 PUSH2 0x1513 JUMP JUMPDEST PUSH2 0x14E2 JUMP JUMPDEST DUP2 DUP2 MSTORE DUP5 PUSH1 0x20 DUP4 DUP7 ADD ADD GT ISZERO PUSH2 0x1574 JUMPI PUSH1 0x0 DUP1 REVERT JUMPDEST DUP2 PUSH1 0x20 DUP6 ADD PUSH1 0x20 DUP4 ADD CALLDATACOPY PUSH1 0x0 SWAP2 DUP2 ADD PUSH1 0x20 ADD SWAP2 SWAP1 SWAP2 MSTORE SWAP4 SWAP3 POP POP POP JUMP JUMPDEST PUSH1 0x1 PUSH1 0x1 PUSH1 0xA0 SHL SUB DUP2 AND DUP2 EQ PUSH2 0x1069 JUMPI PUSH1 0x0 DUP1 REVERT JUMPDEST DUP1 CALLDATALOAD PUSH2 0x15B1 DUP2 PUSH2 0x1591 JUMP JUMPDEST SWAP2 SWAP1 POP JUMP JUMPDEST PUSH1 0x0 DUP1 PUSH1 0x0 DUP1 PUSH1 0x0 DUP1 PUSH1 0xC0 DUP8 DUP10 SUB SLT ISZERO PUSH2 0x15CF JUMPI PUSH1 0x0 DUP1 REVERT JUMPDEST DUP7 CALLDATALOAD SWAP6 POP PUSH1 0x20 DUP8 ADD CALLDATALOAD SWAP5 POP PUSH1 0x40 DUP8 ADD CALLDATALOAD PUSH8 0xFFFFFFFFFFFFFFFF DUP1 DUP3 GT ISZERO PUSH2 0x15F5 JUMPI PUSH1 0x0 DUP1 REVERT JUMPDEST PUSH2 0x1601 DUP11 DUP4 DUP12 ADD PUSH2 0x153B JUMP JUMPDEST SWAP6 POP PUSH1 0x60 DUP10 ADD CALLDATALOAD SWAP2 POP DUP1 DUP3 GT ISZERO PUSH2 0x1617 JUMPI PUSH1 0x0 DUP1 REVERT JUMPDEST SWAP1 DUP9 ADD SWAP1 PUSH1 0x40 DUP3 DUP12 SUB SLT ISZERO PUSH2 0x162B JUMPI PUSH1 0x0 DUP1 REVERT JUMPDEST PUSH2 0x1633 PUSH2 0x1496 JUMP JUMPDEST DUP3 CALLDATALOAD DUP2 MSTORE PUSH1 0x20 DUP4 ADD CALLDATALOAD DUP3 DUP2 GT ISZERO PUSH2 0x1649 JUMPI PUSH1 0x0 DUP1 REVERT JUMPDEST PUSH2 0x1655 DUP13 DUP3 DUP7 ADD PUSH2 0x153B JUMP JUMPDEST PUSH1 0x20 DUP4 ADD MSTORE POP SWAP5 POP PUSH2 0x1669 PUSH1 0x80 DUP11 ADD PUSH2 0x15A6 JUMP JUMPDEST SWAP4 POP PUSH1 0xA0 DUP10 ADD CALLDATALOAD SWAP2 POP DUP1 DUP3 GT ISZERO PUSH2 0x167F JUMPI PUSH1 0x0 DUP1 REVERT JUMPDEST POP PUSH2 0x168C DUP10 DUP3 DUP11 ADD PUSH2 0x153B JUMP JUMPDEST SWAP2 POP POP SWAP3 SWAP6 POP SWAP3 SWAP6 POP SWAP3 SWAP6 JUMP JUMPDEST PUSH1 0x0 DUP1 PUSH1 0x40 DUP4 DUP6 SUB SLT ISZERO PUSH2 0x16AC JUMPI PUSH1 0x0 DUP1 REVERT JUMPDEST DUP3 CALLDATALOAD SWAP2 POP PUSH1 0x20 DUP4 ADD CALLDATALOAD PUSH2 0x16BE DUP2 PUSH2 0x1591 JUMP JUMPDEST DUP1 SWAP2 POP POP SWAP3 POP SWAP3 SWAP1 POP JUMP JUMPDEST PUSH1 0x0 JUMPDEST DUP4 DUP2 LT ISZERO PUSH2 0x16E4 JUMPI DUP2 DUP2 ADD MLOAD DUP4 DUP3 ADD MSTORE PUSH1 0x20 ADD PUSH2 0x16CC JUMP JUMPDEST POP POP PUSH1 0x0 SWAP2 ADD MSTORE JUMP JUMPDEST PUSH1 0x0 DUP2 MLOAD DUP1 DUP5 MSTORE PUSH2 0x1705 DUP2 PUSH1 0x20 DUP7 ADD PUSH1 0x20 DUP7 ADD PUSH2 0x16C9 JUMP JUMPDEST PUSH1 0x1F ADD PUSH1 0x1F NOT AND SWAP3 SWAP1 SWAP3 ADD PUSH1 0x20 ADD SWAP3 SWAP2 POP POP JUMP JUMPDEST PUSH1 0x20 DUP2 MSTORE DUP2 MLOAD PUSH1 0x20 DUP3 ADD MSTORE PUSH1 0x20 DUP3 ADD MLOAD PUSH1 0x40 DUP3 ADD MSTORE PUSH1 0x0 PUSH1 0x40 DUP4 ADD MLOAD PUSH1 0x80 PUSH1 0x60 DUP5 ADD MSTORE PUSH2 0x1749 PUSH1 0xA0 DUP5 ADD DUP3 PUSH2 0x16ED JUMP JUMPDEST SWAP1 POP PUSH1 0x60 DUP5 ADD MLOAD PUSH1 0x1F NOT DUP5 DUP4 SUB ADD PUSH1 0x80 DUP6 ADD MSTORE PUSH2 0x1766 DUP3 DUP3 PUSH2 0x16ED JUMP JUMPDEST SWAP6 SWAP5 POP POP POP POP POP JUMP JUMPDEST PUSH1 0x20 DUP1 DUP3 MSTORE DUP3 MLOAD DUP3 DUP3 ADD DUP2 SWAP1 MSTORE PUSH1 0x0 SWAP2 SWAP1 DUP5 DUP3 ADD SWAP1 PUSH1 0x40 DUP6 ADD SWAP1 DUP5 JUMPDEST DUP2 DUP2 LT ISZERO PUSH2 0x17A7 JUMPI DUP4 MLOAD DUP4 MSTORE SWAP3 DUP5 ADD SWAP3 SWAP2 DUP5 ADD SWAP2 PUSH1 0x1 ADD PUSH2 0x178B JUMP JUMPDEST POP SWAP1 SWAP7 SWAP6 POP POP POP POP POP POP JUMP JUMPDEST DUP1 MLOAD DUP3 MSTORE PUSH1 0x0 PUSH1 0x20 DUP3 ADD MLOAD PUSH1 0x40 PUSH1 0x20 DUP6 ADD MSTORE PUSH2 0x17D2 PUSH1 0x40 DUP6 ADD DUP3 PUSH2 0x16ED JUMP JUMPDEST SWAP5 SWAP4 POP POP POP POP JUMP JUMPDEST PUSH1 0x20 DUP2 MSTORE DUP2 MLOAD PUSH1 0x20 DUP3 ADD MSTORE PUSH1 0x20 DUP3 ADD MLOAD PUSH1 0x40 DUP3 ADD MSTORE PUSH1 0x0 PUSH1 0x40 DUP4 ADD MLOAD PUSH1 0xC0 PUSH1 0x60 DUP5 ADD MSTORE PUSH2 0x180A PUSH1 0xE0 DUP5 ADD DUP3 PUSH2 0x16ED JUMP JUMPDEST SWAP1 POP PUSH1 0x60 DUP5 ADD MLOAD PUSH1 0x1F NOT DUP5 DUP4 SUB ADD PUSH1 0x80 DUP6 ADD MSTORE PUSH2 0x1827 DUP3 DUP3 PUSH2 0x17B3 JUMP JUMPDEST PUSH1 0x80 DUP7 ADD MLOAD PUSH1 0x1 PUSH1 0x1 PUSH1 0xA0 SHL SUB SWAP1 DUP2 AND PUSH1 0xA0 DUP8 DUP2 ADD SWAP2 SWAP1 SWAP2 MSTORE SWAP1 SWAP7 ADD MLOAD SWAP1 SWAP6 AND PUSH1 0xC0 SWAP1 SWAP5 ADD SWAP4 SWAP1 SWAP4 MSTORE POP SWAP2 SWAP3 SWAP2 POP POP JUMP JUMPDEST PUSH4 0x4E487B71 PUSH1 0xE0 SHL PUSH1 0x0 MSTORE PUSH1 0x11 PUSH1 0x4 MSTORE PUSH1 0x24 PUSH1 0x0 REVERT JUMPDEST DUP1 DUP3 ADD DUP1 DUP3 GT ISZERO PUSH2 0xB07 JUMPI PUSH2 0xB07 PUSH2 0x1858 JUMP JUMPDEST PUSH4 0x4E487B71 PUSH1 0xE0 SHL PUSH1 0x0 MSTORE PUSH1 0x32 PUSH1 0x4 MSTORE PUSH1 0x24 PUSH1 0x0 REVERT JUMPDEST PUSH1 0x0 PUSH1 0x1 DUP3 ADD PUSH2 0x18A9 JUMPI PUSH2 0x18A9 PUSH2 0x1858 JUMP JUMPDEST POP PUSH1 0x1 ADD SWAP1 JUMP JUMPDEST PUSH1 0x0 PUSH1 0x20 DUP1 DUP4 MSTORE PUSH1 0xA0 DUP4 ADD DUP5 MLOAD ISZERO ISZERO DUP3 DUP6 ADD MSTORE DUP2 DUP6 ADD MLOAD PUSH1 0x40 DUP2 ISZERO ISZERO DUP2 DUP8 ADD MSTORE DUP1 DUP8 ADD MLOAD ISZERO ISZERO PUSH1 0x60 DUP8 ADD MSTORE PUSH1 0x60 DUP8 ADD MLOAD SWAP2 POP PUSH1 0x80 DUP1 DUP8 ADD MSTORE DUP3 DUP3 MLOAD DUP1 DUP6 MSTORE PUSH1 0xC0 DUP9 ADD SWAP2 POP DUP6 DUP5 ADD SWAP5 POP PUSH1 0x0 SWAP4 POP JUMPDEST DUP1 DUP5 LT ISZERO PUSH2 0x1930 JUMPI DUP5 MLOAD DUP1 MLOAD PUSH1 0x1 PUSH1 0x1 PUSH1 0xA0 SHL SUB AND DUP4 MSTORE DUP7 ADD MLOAD DUP7 DUP4 ADD MSTORE SWAP4 DUP6 ADD SWAP4 PUSH1 0x1 SWAP4 SWAP1 SWAP4 ADD SWAP3 SWAP1 DUP3 ADD SWAP1 PUSH2 0x18FE JUMP JUMPDEST POP SWAP8 SWAP7 POP POP POP POP POP POP POP JUMP JUMPDEST DUP8 DUP2 MSTORE PUSH1 0x0 PUSH1 0x1 DUP1 PUSH1 0xA0 SHL SUB DUP1 DUP10 AND PUSH1 0x20 DUP5 ADD MSTORE PUSH1 0xE0 PUSH1 0x40 DUP5 ADD MSTORE PUSH2 0x1964 PUSH1 0xE0 DUP5 ADD DUP10 PUSH2 0x16ED JUMP JUMPDEST DUP2 DUP9 AND PUSH1 0x60 DUP6 ADD MSTORE DUP7 PUSH1 0x80 DUP6 ADD MSTORE DUP4 DUP2 SUB PUSH1 0xA0 DUP6 ADD MSTORE PUSH2 0x1984 DUP2 DUP8 PUSH2 0x17B3 JUMP JUMPDEST SWAP2 POP POP DUP3 DUP2 SUB PUSH1 0xC0 DUP5 ADD MSTORE PUSH2 0x1999 DUP2 DUP6 PUSH2 0x1422 JUMP JUMPDEST SWAP11 SWAP10 POP POP POP POP POP POP POP POP POP POP JUMP JUMPDEST PUSH1 0x0 PUSH1 0x20 DUP3 DUP5 SUB SLT ISZERO PUSH2 0x19B9 JUMPI PUSH1 0x0 DUP1 REVERT JUMPDEST POP MLOAD SWAP2 SWAP1 POP JUMP JUMPDEST PUSH1 0x1 PUSH1 0x1 PUSH1 0xA0 SHL SUB DUP6 DUP2 AND DUP3 MSTORE DUP5 AND PUSH1 0x20 DUP3 ADD MSTORE PUSH1 0x40 DUP2 ADD DUP4 SWAP1 MSTORE PUSH1 0x80 PUSH1 0x60 DUP3 ADD DUP2 SWAP1 MSTORE PUSH1 0x0 SWAP1 PUSH2 0x19F3 SWAP1 DUP4 ADD DUP5 PUSH2 0x17B3 JUMP JUMPDEST SWAP7 SWAP6 POP POP POP POP POP POP JUMP JUMPDEST DUP3 DUP2 MSTORE PUSH1 0x40 PUSH1 0x20 DUP3 ADD MSTORE PUSH1 0x0 PUSH2 0x17D2 PUSH1 0x40 DUP4 ADD DUP5 PUSH2 0x16ED JUMP JUMPDEST DUP1 MLOAD PUSH2 0x15B1 DUP2 PUSH2 0x1591 JUMP JUMPDEST PUSH1 0x0 PUSH1 0x20 DUP3 DUP5 SUB SLT ISZERO PUSH2 0x1A33 JUMPI PUSH1 0x0 DUP1 REVERT JUMPDEST DUP2 MLOAD PUSH2 0x1479 DUP2 PUSH2 0x1591 JUMP JUMPDEST DUP6 DUP2 MSTORE PUSH1 0xA0 PUSH1 0x20 DUP3 ADD MSTORE PUSH1 0x0 PUSH2 0x1A57 PUSH1 0xA0 DUP4 ADD DUP8 PUSH2 0x16ED JUMP JUMPDEST DUP3 DUP2 SUB PUSH1 0x40 DUP5 ADD MSTORE PUSH2 0x1A69 DUP2 DUP8 PUSH2 0x17B3 JUMP JUMPDEST PUSH1 0x1 PUSH1 0x1 PUSH1 0xA0 SHL SUB DUP7 AND PUSH1 0x60 DUP6 ADD MSTORE DUP4 DUP2 SUB PUSH1 0x80 DUP6 ADD MSTORE SWAP1 POP PUSH2 0x1A8C DUP2 DUP6 PUSH2 0x1422 JUMP JUMPDEST SWAP9 SWAP8 POP POP POP POP POP POP POP POP JUMP JUMPDEST PUSH1 0x1 DUP2 DUP2 SHR SWAP1 DUP3 AND DUP1 PUSH2 0x1AAC JUMPI PUSH1 0x7F DUP3 AND SWAP2 POP JUMPDEST PUSH1 0x20 DUP3 LT DUP2 SUB PUSH2 0x1ACC JUMPI PUSH4 0x4E487B71 PUSH1 0xE0 SHL PUSH1 0x0 MSTORE PUSH1 0x22 PUSH1 0x4 MSTORE PUSH1 0x24 PUSH1 0x0 REVERT JUMPDEST POP SWAP2 SWAP1 POP JUMP JUMPDEST PUSH1 0x1F DUP3 GT ISZERO PUSH2 0x127D JUMPI PUSH1 0x0 DUP2 DUP2 MSTORE PUSH1 0x20 DUP2 KECCAK256 PUSH1 0x1F DUP6 ADD PUSH1 0x5 SHR DUP2 ADD PUSH1 0x20 DUP7 LT ISZERO PUSH2 0x1AF9 JUMPI POP DUP1 JUMPDEST PUSH1 0x1F DUP6 ADD PUSH1 0x5 SHR DUP3 ADD SWAP2 POP JUMPDEST DUP2 DUP2 LT ISZERO PUSH2 0x1B18 JUMPI DUP3 DUP2 SSTORE PUSH1 0x1 ADD PUSH2 0x1B05 JUMP JUMPDEST POP POP POP POP POP POP JUMP JUMPDEST DUP2 MLOAD PUSH8 0xFFFFFFFFFFFFFFFF DUP2 GT ISZERO PUSH2 0x1B3A JUMPI PUSH2 0x1B3A PUSH2 0x1480 JUMP JUMPDEST PUSH2 0x1B4E DUP2 PUSH2 0x1B48 DUP5 SLOAD PUSH2 0x1A98 JUMP JUMPDEST DUP5 PUSH2 0x1AD2 JUMP JUMPDEST PUSH1 0x20 DUP1 PUSH1 0x1F DUP4 GT PUSH1 0x1 DUP2 EQ PUSH2 0x1B83 JUMPI PUSH1 0x0 DUP5 ISZERO PUSH2 0x1B6B JUMPI POP DUP6 DUP4 ADD MLOAD JUMPDEST PUSH1 0x0 NOT PUSH1 0x3 DUP7 SWAP1 SHL SHR NOT AND PUSH1 0x1 DUP6 SWAP1 SHL OR DUP6 SSTORE PUSH2 0x1B18 JUMP JUMPDEST PUSH1 0x0 DUP6 DUP2 MSTORE PUSH1 0x20 DUP2 KECCAK256 PUSH1 0x1F NOT DUP7 AND SWAP2 JUMPDEST DUP3 DUP2 LT ISZERO PUSH2 0x1BB2 JUMPI DUP9 DUP7 ADD MLOAD DUP3 SSTORE SWAP5 DUP5 ADD SWAP5 PUSH1 0x1 SWAP1 SWAP2 ADD SWAP1 DUP5 ADD PUSH2 0x1B93 JUMP JUMPDEST POP DUP6 DUP3 LT ISZERO PUSH2 0x1BD0 JUMPI DUP8 DUP6 ADD MLOAD PUSH1 0x0 NOT PUSH1 0x3 DUP9 SWAP1 SHL PUSH1 0xF8 AND SHR NOT AND DUP2 SSTORE JUMPDEST POP POP POP POP POP PUSH1 0x1 SWAP1 DUP2 SHL ADD SWAP1 SSTORE POP JUMP JUMPDEST PUSH1 0x0 DUP3 PUSH1 0x1F DUP4 ADD SLT PUSH2 0x1BF1 JUMPI PUSH1 0x0 DUP1 REVERT JUMPDEST DUP2 MLOAD PUSH2 0x1BFF PUSH2 0x155A DUP3 PUSH2 0x1513 JUMP JUMPDEST DUP2 DUP2 MSTORE DUP5 PUSH1 0x20 DUP4 DUP7 ADD ADD GT ISZERO PUSH2 0x1C14 JUMPI PUSH1 0x0 DUP1 REVERT JUMPDEST PUSH2 0x17D2 DUP3 PUSH1 0x20 DUP4 ADD PUSH1 0x20 DUP8 ADD PUSH2 0x16C9 JUMP JUMPDEST PUSH1 0x0 PUSH1 0x40 DUP3 DUP5 SUB SLT ISZERO PUSH2 0x1C37 JUMPI PUSH1 0x0 DUP1 REVERT JUMPDEST PUSH2 0x1C3F PUSH2 0x1496 JUMP JUMPDEST SWAP1 POP DUP2 MLOAD DUP2 MSTORE PUSH1 0x20 DUP3 ADD MLOAD PUSH8 0xFFFFFFFFFFFFFFFF DUP2 GT ISZERO PUSH2 0x1C5F JUMPI PUSH1 0x0 DUP1 REVERT JUMPDEST PUSH2 0x1C6B DUP5 DUP3 DUP6 ADD PUSH2 0x1BE0 JUMP JUMPDEST PUSH1 0x20 DUP4 ADD MSTORE POP SWAP3 SWAP2 POP POP JUMP JUMPDEST PUSH1 0x0 PUSH1 0x20 DUP3 DUP5 SUB SLT ISZERO PUSH2 0x1C89 JUMPI PUSH1 0x0 DUP1 REVERT JUMPDEST DUP2 MLOAD PUSH8 0xFFFFFFFFFFFFFFFF DUP1 DUP3 GT ISZERO PUSH2 0x1CA1 JUMPI PUSH1 0x0 DUP1 REVERT JUMPDEST SWAP1 DUP4 ADD SWAP1 PUSH1 0xC0 DUP3 DUP7 SUB SLT ISZERO PUSH2 0x1CB5 JUMPI PUSH1 0x0 DUP1 REVERT JUMPDEST PUSH2 0x1CBD PUSH2 0x14BF JUMP JUMPDEST DUP3 MLOAD DUP2 MSTORE PUSH1 0x20 DUP4 ADD MLOAD PUSH1 0x20 DUP3 ADD MSTORE PUSH1 0x40 DUP4 ADD MLOAD DUP3 DUP2 GT ISZERO PUSH2 0x1CDD JUMPI PUSH1 0x0 DUP1 REVERT JUMPDEST PUSH2 0x1CE9 DUP8 DUP3 DUP7 ADD PUSH2 0x1BE0 JUMP JUMPDEST PUSH1 0x40 DUP4 ADD MSTORE POP PUSH1 0x60 DUP4 ADD MLOAD DUP3 DUP2 GT ISZERO PUSH2 0x1D01 JUMPI PUSH1 0x0 DUP1 REVERT JUMPDEST PUSH2 0x1D0D DUP8 DUP3 DUP7 ADD PUSH2 0x1C25 JUMP JUMPDEST PUSH1 0x60 DUP4 ADD MSTORE POP PUSH2 0x1D1F PUSH1 0x80 DUP5 ADD PUSH2 0x1A16 JUMP JUMPDEST PUSH1 0x80 DUP3 ADD MSTORE PUSH2 0x1D30 PUSH1 0xA0 DUP5 ADD PUSH2 0x1A16 JUMP JUMPDEST PUSH1 0xA0 DUP3 ADD MSTORE SWAP6 SWAP5 POP POP POP POP POP JUMP JUMPDEST DUP2 DUP2 SUB DUP2 DUP2 GT ISZERO PUSH2 0xB07 JUMPI PUSH2 0xB07 PUSH2 0x1858 JUMP JUMPDEST PUSH1 0x40 DUP2 MSTORE PUSH1 0x0 PUSH2 0x1D64 PUSH1 0x40 DUP4 ADD DUP6 PUSH2 0x16ED JUMP JUMPDEST SWAP1 POP PUSH1 0x1 DUP1 PUSH1 0xA0 SHL SUB DUP4 AND PUSH1 0x20 DUP4 ADD MSTORE SWAP4 SWAP3 POP POP POP JUMP JUMPDEST PUSH1 0x40 DUP2 MSTORE PUSH1 0x0 PUSH2 0x1D8E PUSH1 0x40 DUP4 ADD DUP6 PUSH2 0x16ED JUMP JUMPDEST SWAP1 POP DUP3 PUSH1 0x20 DUP4 ADD MSTORE SWAP4 SWAP3 POP POP POP JUMP INVALID LOG2 PUSH5 0x6970667358 0x22 SLT KECCAK256 0xEF PUSH21 0xA8357FCE6EB67951C6A7FA2143A880D978ECB4A0A5 0xEA LOG3 0xF9 NUMBER SWAP3 BLOCKHASH 0xEA 0xCF DUP5 PUSH5 0x736F6C6343 STOP ADDMOD EQ STOP CALLER "},"methodIdentifiers":{"NATIVE()":"a0cf0aea","_projectExists(bytes32)":"c42b06f0","getProfile(bytes32)":"b50991b4","getProfiles()":"b2137033","getProjectPool(bytes32)":"16e46f68","getProjectSupplierById(bytes32,address)":"8d363831","getProjectSuppliers(bytes32)":"6617dd66","getProjectSupply(bytes32)":"94a8fb4a","registerProject(uint256,uint256,string,(uint256,string),address,string)":"7144e4b5","revokeProjectSupply(bytes32)":"d1de78e4","supplyProject(bytes32,uint256)":"40f1ab98"}}}}}