{"contracts/Manager.sol":{"Manager":{"abi":[{"inputs":[{"internalType":"address","name":"alloAddress","type":"address"},{"internalType":"address","name":"_strategy","type":"address"},{"internalType":"address","name":"_strategyFactory","type":"address"},{"internalType":"address","name":"_hatsContractAddress","type":"address"},{"internalType":"uint256","name":"_managerHatID","type":"uint256"}],"stateMutability":"nonpayable","type":"constructor"},{"inputs":[],"name":"ALLOCATION_ACTIVE","type":"error"},{"inputs":[],"name":"ALLOCATION_NOT_ACTIVE","type":"error"},{"inputs":[],"name":"ALLOCATION_NOT_ENDED","type":"error"},{"inputs":[],"name":"ALREADY_INITIALIZED","type":"error"},{"inputs":[],"name":"AMOUNT_MISMATCH","type":"error"},{"inputs":[],"name":"ANCHOR_ERROR","type":"error"},{"inputs":[],"name":"ARRAY_MISMATCH","type":"error"},{"inputs":[],"name":"INVALID","type":"error"},{"inputs":[],"name":"INVALID_ADDRESS","type":"error"},{"inputs":[],"name":"INVALID_FEE","type":"error"},{"inputs":[],"name":"INVALID_METADATA","type":"error"},{"inputs":[],"name":"INVALID_MILESTONE_STATUS","type":"error"},{"inputs":[],"name":"INVALID_REGISTRATION","type":"error"},{"inputs":[],"name":"IS_APPROVED_STRATEGY","type":"error"},{"inputs":[],"name":"MISMATCH","type":"error"},{"inputs":[],"name":"NONCE_NOT_AVAILABLE","type":"error"},{"inputs":[],"name":"NOT_APPROVED_STRATEGY","type":"error"},{"inputs":[],"name":"NOT_ENOUGH_FUNDS","type":"error"},{"inputs":[],"name":"NOT_IMPLEMENTED","type":"error"},{"inputs":[],"name":"NOT_INITIALIZED","type":"error"},{"inputs":[],"name":"NOT_PENDING_OWNER","type":"error"},{"inputs":[],"name":"POOL_ACTIVE","type":"error"},{"inputs":[],"name":"POOL_INACTIVE","type":"error"},{"inputs":[],"name":"RECIPIENT_ALREADY_ACCEPTED","type":"error"},{"inputs":[{"internalType":"address","name":"recipientId","type":"address"}],"name":"RECIPIENT_ERROR","type":"error"},{"inputs":[],"name":"RECIPIENT_NOT_ACCEPTED","type":"error"},{"inputs":[],"name":"REGISTRATION_NOT_ACTIVE","type":"error"},{"inputs":[],"name":"ReentrancyGuardReentrantCall","type":"error"},{"inputs":[],"name":"SUPPLY_IS_ALLOWED_ONLY_ONCE","type":"error"},{"inputs":[],"name":"SUPPLY_NOT_FOUND","type":"error"},{"inputs":[],"name":"UNAUTHORIZED","type":"error"},{"inputs":[],"name":"ZERO_ADDRESS","type":"error"},{"anonymous":false,"inputs":[{"indexed":true,"internalType":"bytes32","name":"projectId","type":"bytes32"},{"indexed":false,"internalType":"uint256","name":"amount","type":"uint256"}],"name":"ProjectFunded","type":"event"},{"anonymous":false,"inputs":[{"indexed":false,"internalType":"bytes32","name":"projectId","type":"bytes32"},{"indexed":false,"internalType":"uint256","name":"poolId","type":"uint256"}],"name":"ProjectPoolCreeated","type":"event"},{"inputs":[],"name":"NATIVE","outputs":[{"internalType":"address","name":"","type":"address"}],"stateMutability":"view","type":"function"},{"inputs":[{"internalType":"bytes32","name":"profileId","type":"bytes32"}],"name":"_projectExists","outputs":[{"internalType":"bool","name":"","type":"bool"}],"stateMutability":"view","type":"function"},{"inputs":[{"internalType":"bytes32","name":"_projectId","type":"bytes32"}],"name":"getProfile","outputs":[{"components":[{"internalType":"bytes32","name":"id","type":"bytes32"},{"internalType":"uint256","name":"nonce","type":"uint256"},{"internalType":"string","name":"name","type":"string"},{"components":[{"internalType":"uint256","name":"protocol","type":"uint256"},{"internalType":"string","name":"pointer","type":"string"}],"internalType":"struct Metadata","name":"metadata","type":"tuple"},{"internalType":"address","name":"owner","type":"address"},{"internalType":"address","name":"anchor","type":"address"}],"internalType":"struct IRegistry.Profile","name":"","type":"tuple"}],"stateMutability":"view","type":"function"},{"inputs":[],"name":"getProfiles","outputs":[{"internalType":"bytes32[]","name":"","type":"bytes32[]"}],"stateMutability":"view","type":"function"},{"inputs":[{"internalType":"bytes32","name":"_projectId","type":"bytes32"}],"name":"getProjectExecutor","outputs":[{"internalType":"address","name":"","type":"address"}],"stateMutability":"view","type":"function"},{"inputs":[{"internalType":"bytes32","name":"_projectId","type":"bytes32"}],"name":"getProjectPool","outputs":[{"internalType":"uint256","name":"","type":"uint256"}],"stateMutability":"view","type":"function"},{"inputs":[{"internalType":"bytes32","name":"_projectId","type":"bytes32"}],"name":"getProjectStrategy","outputs":[{"internalType":"address","name":"","type":"address"}],"stateMutability":"view","type":"function"},{"inputs":[{"internalType":"bytes32","name":"_projectId","type":"bytes32"},{"internalType":"address","name":"_supplier","type":"address"}],"name":"getProjectSupplierById","outputs":[{"internalType":"uint256","name":"","type":"uint256"}],"stateMutability":"view","type":"function"},{"inputs":[{"internalType":"bytes32","name":"_projectId","type":"bytes32"}],"name":"getProjectSuppliers","outputs":[{"internalType":"address[]","name":"","type":"address[]"}],"stateMutability":"view","type":"function"},{"inputs":[{"internalType":"bytes32","name":"_projectId","type":"bytes32"}],"name":"getProjectSupply","outputs":[{"components":[{"internalType":"uint256","name":"need","type":"uint256"},{"internalType":"uint256","name":"has","type":"uint256"},{"internalType":"string","name":"name","type":"string"},{"internalType":"string","name":"description","type":"string"}],"internalType":"struct Manager.ProjectSupply","name":"","type":"tuple"}],"stateMutability":"view","type":"function"},{"inputs":[],"name":"hatsContract","outputs":[{"internalType":"contract IHats","name":"","type":"address"}],"stateMutability":"view","type":"function"},{"inputs":[{"internalType":"uint256","name":"_needs","type":"uint256"},{"internalType":"uint256","name":"_nonce","type":"uint256"},{"internalType":"string","name":"_name","type":"string"},{"components":[{"internalType":"uint256","name":"protocol","type":"uint256"},{"internalType":"string","name":"pointer","type":"string"}],"internalType":"struct Metadata","name":"_metadata","type":"tuple"},{"internalType":"address","name":"_recipient","type":"address"},{"internalType":"string","name":"_description","type":"string"}],"name":"registerProject","outputs":[{"internalType":"bytes32","name":"profileId","type":"bytes32"}],"stateMutability":"nonpayable","type":"function"},{"inputs":[{"internalType":"bytes32","name":"_projectId","type":"bytes32"}],"name":"revokeProjectSupply","outputs":[],"stateMutability":"nonpayable","type":"function"},{"inputs":[{"internalType":"bytes32","name":"_projectId","type":"bytes32"},{"internalType":"uint256","name":"_amount","type":"uint256"}],"name":"supplyProject","outputs":[],"stateMutability":"payable","type":"function"},{"stateMutability":"payable","type":"receive"}],"evm":{"bytecode":{"linkReferences":{},"object":"60806040523480156200001157600080fd5b50604051620020db380380620020db833981016040819052620000349162000130565b60016000908155600280546001600160a01b03199081166001600160a01b038981169182179093556003805483168985161790556004805483168885161781556005805490931693871693909317909155600684905560408051635ab1bd5360e01b815290519192635ab1bd539282820192602092908290030181865afa158015620000c4573d6000803e3d6000fd5b505050506040513d601f19601f82011682018060405250810190620000ea9190620001a4565b600180546001600160a01b0319166001600160a01b039290921691909117905550620001cb945050505050565b6001600160a01b03811681146200012d57600080fd5b50565b600080600080600060a086880312156200014957600080fd5b8551620001568162000117565b6020870151909550620001698162000117565b60408701519094506200017c8162000117565b60608701519093506200018f8162000117565b80925050608086015190509295509295909350565b600060208284031215620001b757600080fd5b8151620001c48162000117565b9392505050565b611f0080620001db6000396000f3fe6080604052600436106100e15760003560e01c806397e39fef1161007f578063b50991b411610059578063b50991b414610294578063c42b06f0146102c1578063d1de78e4146102f1578063df06c2731461031157600080fd5b806397e39fef1461022a578063a0cf0aea1461024a578063b21370331461027257600080fd5b80636617dd66116100bb5780636617dd66146101905780637144e4b5146101bd5780638d363831146101dd57806394a8fb4a146101fd57600080fd5b806316e46f68146100ed57806340f1ab981461012d5780635d5bba3f1461014257600080fd5b366100e857005b600080fd5b3480156100f957600080fd5b5061011a61010836600461153e565b6000908152600c602052604090205490565b6040519081526020015b60405180910390f35b61014061013b366004611557565b610347565b005b34801561014e57600080fd5b5061017861015d36600461153e565b6000908152600d60205260409020546001600160a01b031690565b6040516001600160a01b039091168152602001610124565b34801561019c57600080fd5b506101b06101ab36600461153e565b610a5a565b60405161012491906115bd565b3480156101c957600080fd5b5061011a6101d836600461170d565b610ac6565b3480156101e957600080fd5b5061011a6101f83660046117f0565b610c7f565b34801561020957600080fd5b5061021d61021836600461153e565b610ca9565b6040516101249190611870565b34801561023657600080fd5b50600554610178906001600160a01b031681565b34801561025657600080fd5b5061017873eeeeeeeeeeeeeeeeeeeeeeeeeeeeeeeeeeeeeeee81565b34801561027e57600080fd5b50610287610e31565b60405161012491906118c6565b3480156102a057600080fd5b506102b46102af36600461153e565b610e89565b6040516101249190611931565b3480156102cd57600080fd5b506102e16102dc36600461153e565b610f01565b6040519015158152602001610124565b3480156102fd57600080fd5b5061014061030c36600461153e565b610f8c565b34801561031d57600080fd5b5061017861032c36600461153e565b6000908152600b60205260409020546001600160a01b031690565b61034f611208565b61035882610f01565b6103a25760405162461bcd60e51b8152602060048201526016602482015275141c9bda9958dd08191bd95cc81b9bdd08195e1a5cdd60521b60448201526064015b60405180910390fd5b8015806103af5750348114155b156103cd576040516303e09bb960e31b815260040160405180910390fd5b6000828152600a6020526040812060010180548392906103ee9084906119c5565b9091555050600082815260096020908152604080832033845290915281205490036104425760008281526008602090815260408220805460018101825590835291200180546001600160a01b031916331790555b60008281526009602090815260408083203384529091528120805483929061046b9084906119c5565b909155505060405181815282907f315cb30dd854bd9e9df31e31754930ba16b498240f74a4ef23531f84c4ee49109060200160405180910390a26000828152600a60205260409020805460019091015410610a4c5760006104cb83611232565b60408051608081018252600080825260208201819052918101829052606081018390528251929350916104ff9060016119c5565b67ffffffffffffffff811115610517576105176115d7565b604051908082528060200260200182016040528015610540578160200160208202803683370190505b50905060005b83518110156105a957838181518110610561576105616119d8565b60200260200101516000015182828151811061057f5761057f6119d8565b6001600160a01b0390921660209283029190910190910152806105a1816119ee565b915050610546565b5030818451815181106105be576105be6119d8565b6001600160a01b039092166020928302919091018201526040805180820182526001815281518083018352600d81526c32b6b83a3c903837b4b73a32b960991b81850152818401529051909160009161061991869101611a07565b60408051808303601f1901815282825260008a8152600a602052919091205460048054600354637316bcd160e01b86526001600160a01b03908116928601929092529294509092911690637316bcd1906024016020604051808303816000875af115801561068b573d6000803e3d6000fd5b505050506040513d601f19601f820116820180604052508101906106af9190611a9e565b6000898152600d602052604080822080546001600160a01b0319166001600160a01b0394851690811790915560025491516370803ea560e11b81529293919091169163e1007d4a913491610725918e91899073eeeeeeeeeeeeeeeeeeeeeeeeeeeeeeeeeeeeeeee9089908d908f90600401611abb565b60206040518083038185885af1158015610743573d6000803e3d6000fd5b50505050506040513d601f19601f820116820180604052508101906107689190611b26565b60008a8152600a60205260409020549091504710156107c95760405162461bcd60e51b815260206004820181905260248201527f496e73756666696369656e742062616c616e636520696e20636f6e74726163746044820152606401610399565b60025460008a8152600a6020526040908190205490516316b35beb60e21b815260048101849052602481018290526001600160a01b0390921691635acd6fac91906044016000604051808303818588803b15801561082657600080fd5b505af115801561083a573d6000803e3d6000fd5b50505060008b8152600b6020908152604080832054905192945061086f93506001600160a01b031691849187918a9101611b3f565b60408051601f19818403018152908290526002546301d703a760e21b83529092506001600160a01b03169063075c0e9c906108b09085908590600401611b7c565b6020604051808303816000875af11580156108cf573d6000803e3d6000fd5b505050506040513d601f19601f820116820180604052508101906108f39190611a9e565b5060008a8152600c602081905260408083208590556005546006548a519251635829492f60e11b8152600481019190915260e0602482015260e48101939093526b14d554141312515497d2105560a21b61010484015263ffffffff909116604483015230606483018190526084830152600160a483015261012060c483015261012482018390526001600160a01b03169063b052925e90610144016020604051808303816000875af11580156109ad573d6000803e3d6000fd5b505050506040513d601f19601f820116820180604052508101906109d19190611b26565b9050610a09604051806040016040528060148152602001731e9e9e9e9e9f1029aaa8282624a2a92fa420aa1d60611b81525082611360565b604080518c8152602081018590527fc5d45cf1508cae377cc227a37ea00b97fa9e86e03ce72364a0b7e85e36baacec910160405180910390a15050505050505050505b610a566001600055565b5050565b600081815260086020908152604091829020805483518184028101840190945280845260609392830182828015610aba57602002820191906000526020600020905b81546001600160a01b03168152600190910190602001808311610a9c575b50505050509050919050565b604080516002808252606082018352600092839291906020830190803683370190505090508381600081518110610aff57610aff6119d8565b60200260200101906001600160a01b031690816001600160a01b0316815250503081600181518110610b3357610b336119d8565b6001600160a01b039283166020918202929092010152600154604051633a92f65f60e01b8152911690633a92f65f90610b78908a908a908a9030908890600401611b95565b6020604051808303816000875af1158015610b97573d6000803e3d6000fd5b505050506040513d601f19601f82011682018060405250810190610bbb9190611b26565b60078054600181019091557fa66cc928b5edb82af9bd49922954155ab7b0942694bea4ce44661d9a8736c688018190556000818152600a6020526040812080549294508a92909190610c0e9084906119c5565b90915550506000828152600a60205260409020600201610c2e8782611c77565b506000828152600a60205260409020600301610c4a8482611c77565b50506000818152600b6020526040902080546001600160a01b0385166001600160a01b03199091161790559695505050505050565b60008281526009602090815260408083206001600160a01b03851684529091529020545b92915050565b610cd46040518060800160405280600081526020016000815260200160608152602001606081525090565b600a60008381526020019081526020016000206040518060800160405290816000820154815260200160018201548152602001600282018054610d1690611bef565b80601f0160208091040260200160405190810160405280929190818152602001828054610d4290611bef565b8015610d8f5780601f10610d6457610100808354040283529160200191610d8f565b820191906000526020600020905b815481529060010190602001808311610d7257829003601f168201915b50505050508152602001600382018054610da890611bef565b80601f0160208091040260200160405190810160405280929190818152602001828054610dd490611bef565b8015610e215780601f10610df657610100808354040283529160200191610e21565b820191906000526020600020905b815481529060010190602001808311610e0457829003601f168201915b5050505050815250509050919050565b60606007805480602002602001604051908101604052809291908181526020018280548015610e7f57602002820191906000526020600020905b815481526020019060010190808311610e6b575b5050505050905090565b610e91611470565b600154604051628a678560e11b8152600481018490526001600160a01b0390911690630114cf0a90602401600060405180830381865afa158015610ed9573d6000803e3d6000fd5b505050506040513d6000823e601f3d908101601f19168201604052610ca39190810190611dce565b600154604051628a678560e11b81526004810183905260009182916001600160a01b0390911690630114cf0a90602401600060405180830381865afa158015610f4e573d6000803e3d6000fd5b505050506040513d6000823e601f3d908101601f19168201604052610f769190810190611dce565b608001516001600160a01b031615159392505050565b610f94611208565b610f9d81610f01565b610fe25760405162461bcd60e51b8152602060048201526016602482015275141c9bda9958dd08191bd95cc81b9bdd08195e1a5cdd60521b6044820152606401610399565b60008181526009602090815260408083203384529091529020548061103c5760405162461bcd60e51b815260206004820152601060248201526f14d554141316481393d5081193d5539160821b6044820152606401610399565b60008281526009602090815260408083203384528252808320839055848352600a90915281206001018054839290611075908490611e95565b909155505060008281526008602052604081205461109590600190611e95565b67ffffffffffffffff8111156110ad576110ad6115d7565b6040519080825280602002602001820160405280156110d6578160200160208202803683370190505b5090506000805b6000858152600860205260409020548110156111b8576000858152600860205260409020805433919083908110611116576111166119d8565b6000918252602090912001546001600160a01b0316146111a6576000858152600860205260409020805482908110611150576111506119d8565b9060005260206000200160009054906101000a90046001600160a01b0316838381518110611180576111806119d8565b6001600160a01b0390921660209283029190910190910152816111a2816119ee565b9250505b806111b0816119ee565b9150506110dd565b50600084815260086020908152604090912083516111d8928501906114c4565b506111f873eeeeeeeeeeeeeeeeeeeeeeeeeeeeeeeeeeeeeeee33856113a5565b5050506112056001600055565b50565b60026000540361122b57604051633ee5aeb560e01b815260040160405180910390fd5b6002600055565b6000818152600860205260408120546060919067ffffffffffffffff81111561125d5761125d6115d7565b6040519080825280602002602001820160405280156112a257816020015b604080518082019091526000808252602082015281526020019060019003908161127b5790505b50905060005b6000848152600860205260409020548110156113595760008481526008602052604081208054839081106112de576112de6119d8565b60009182526020808320909101548783526009825260408084206001600160a01b03909216808552918352928390205483518085019094528184529183018290528551909350909190859085908110611339576113396119d8565b602002602001018190525050508080611351906119ee565b9150506112a8565b5092915050565b610a568282604051602401611376929190611ea8565b60408051601f198184030181529190526020810180516001600160e01b0316632d839cb360e21b1790526113e4565b73eeeeeeeeeeeeeeeeeeeeeeeeeeeeeeeeeeeeeeed196001600160a01b038416016113d9576113d482826113ed565b505050565b6113d4838383611409565b6112058161144f565b60003860003884865af1610a565763b12d13eb6000526004601cfd5b816014528060345263a9059cbb60601b60005260206000604460106000875af13d156001600051141716611445576390b8ec186000526004601cfd5b6000603452505050565b60006a636f6e736f6c652e6c6f679050600080835160208501845afa505050565b6040518060c001604052806000801916815260200160008152602001606081526020016114b0604051806040016040528060008152602001606081525090565b815260006020820181905260409091015290565b828054828255906000526020600020908101928215611519579160200282015b8281111561151957825182546001600160a01b0319166001600160a01b039091161782556020909201916001909101906114e4565b50611525929150611529565b5090565b5b80821115611525576000815560010161152a565b60006020828403121561155057600080fd5b5035919050565b6000806040838503121561156a57600080fd5b50508035926020909101359150565b600081518084526020808501945080840160005b838110156115b25781516001600160a01b03168752958201959082019060010161158d565b509495945050505050565b6020815260006115d06020830184611579565b9392505050565b634e487b7160e01b600052604160045260246000fd5b6040805190810167ffffffffffffffff81118282101715611610576116106115d7565b60405290565b60405160c0810167ffffffffffffffff81118282101715611610576116106115d7565b604051601f8201601f1916810167ffffffffffffffff81118282101715611662576116626115d7565b604052919050565b600067ffffffffffffffff821115611684576116846115d7565b50601f01601f191660200190565b600082601f8301126116a357600080fd5b81356116b66116b18261166a565b611639565b8181528460208386010111156116cb57600080fd5b816020850160208301376000918101602001919091529392505050565b6001600160a01b038116811461120557600080fd5b8035611708816116e8565b919050565b60008060008060008060c0878903121561172657600080fd5b8635955060208701359450604087013567ffffffffffffffff8082111561174c57600080fd5b6117588a838b01611692565b9550606089013591508082111561176e57600080fd5b908801906040828b03121561178257600080fd5b61178a6115ed565b823581526020830135828111156117a057600080fd5b6117ac8c828601611692565b60208301525094506117c060808a016116fd565b935060a08901359150808211156117d657600080fd5b506117e389828a01611692565b9150509295509295509295565b6000806040838503121561180357600080fd5b823591506020830135611815816116e8565b809150509250929050565b60005b8381101561183b578181015183820152602001611823565b50506000910152565b6000815180845261185c816020860160208601611820565b601f01601f19169290920160200192915050565b60208152815160208201526020820151604082015260006040830151608060608401526118a060a0840182611844565b90506060840151601f198483030160808501526118bd8282611844565b95945050505050565b6020808252825182820181905260009190848201906040850190845b818110156118fe578351835292840192918401916001016118e2565b50909695505050505050565b8051825260006020820151604060208501526119296040850182611844565b949350505050565b6020815281516020820152602082015160408201526000604083015160c0606084015261196160e0840182611844565b90506060840151601f1984830301608085015261197e828261190a565b60808601516001600160a01b0390811660a0878101919091529096015190951660c090940193909352509192915050565b634e487b7160e01b600052601160045260246000fd5b80820180821115610ca357610ca36119af565b634e487b7160e01b600052603260045260246000fd5b600060018201611a0057611a006119af565b5060010190565b6000602080835260a0830184511515828501528185015160408115158187015280870151151560608701526060870151915060808087015282825180855260c0880191508584019450600093505b80841015611a8757845180516001600160a01b0316835286015186830152938501936001939093019290820190611a55565b50979650505050505050565b8051611708816116e8565b600060208284031215611ab057600080fd5b81516115d0816116e8565b878152600060018060a01b03808916602084015260e06040840152611ae360e0840189611844565b818816606085015286608085015283810360a0850152611b03818761190a565b91505082810360c0840152611b188185611579565b9a9950505050505050505050565b600060208284031215611b3857600080fd5b5051919050565b6001600160a01b0385811682528416602082015260408101839052608060608201819052600090611b729083018461190a565b9695505050505050565b8281526040602082015260006119296040830184611844565b85815260a060208201526000611bae60a0830187611844565b8281036040840152611bc0818761190a565b6001600160a01b038616606085015283810360808501529050611be38185611579565b98975050505050505050565b600181811c90821680611c0357607f821691505b602082108103611c2357634e487b7160e01b600052602260045260246000fd5b50919050565b601f8211156113d457600081815260208120601f850160051c81016020861015611c505750805b601f850160051c820191505b81811015611c6f57828155600101611c5c565b505050505050565b815167ffffffffffffffff811115611c9157611c916115d7565b611ca581611c9f8454611bef565b84611c29565b602080601f831160018114611cda5760008415611cc25750858301515b600019600386901b1c1916600185901b178555611c6f565b600085815260208120601f198616915b82811015611d0957888601518255948401946001909101908401611cea565b5085821015611d275787850151600019600388901b60f8161c191681555b5050505050600190811b01905550565b600082601f830112611d4857600080fd5b8151611d566116b18261166a565b818152846020838601011115611d6b57600080fd5b611929826020830160208701611820565b600060408284031215611d8e57600080fd5b611d966115ed565b905081518152602082015167ffffffffffffffff811115611db657600080fd5b611dc284828501611d37565b60208301525092915050565b600060208284031215611de057600080fd5b815167ffffffffffffffff80821115611df857600080fd5b9083019060c08286031215611e0c57600080fd5b611e14611616565b8251815260208301516020820152604083015182811115611e3457600080fd5b611e4087828601611d37565b604083015250606083015182811115611e5857600080fd5b611e6487828601611d7c565b606083015250611e7660808401611a93565b6080820152611e8760a08401611a93565b60a082015295945050505050565b81810381811115610ca357610ca36119af565b604081526000611ebb6040830185611844565b9050826020830152939250505056fea26469706673582212203b9d5abdf07482a805e361a8b2cd1a0ef7bda2a5f3f02c003a19ffb64066e3c764736f6c63430008140033","opcodes":"PUSH1 0x80 PUSH1 0x40 MSTORE CALLVALUE DUP1 ISZERO PUSH3 0x11 JUMPI PUSH1 0x0 DUP1 REVERT JUMPDEST POP PUSH1 0x40 MLOAD PUSH3 0x20DB CODESIZE SUB DUP1 PUSH3 0x20DB DUP4 CODECOPY DUP2 ADD PUSH1 0x40 DUP2 SWAP1 MSTORE PUSH3 0x34 SWAP2 PUSH3 0x130 JUMP JUMPDEST PUSH1 0x1 PUSH1 0x0 SWAP1 DUP2 SSTORE PUSH1 0x2 DUP1 SLOAD PUSH1 0x1 PUSH1 0x1 PUSH1 0xA0 SHL SUB NOT SWAP1 DUP2 AND PUSH1 0x1 PUSH1 0x1 PUSH1 0xA0 SHL SUB DUP10 DUP2 AND SWAP2 DUP3 OR SWAP1 SWAP4 SSTORE PUSH1 0x3 DUP1 SLOAD DUP4 AND DUP10 DUP6 AND OR SWAP1 SSTORE PUSH1 0x4 DUP1 SLOAD DUP4 AND DUP9 DUP6 AND OR DUP2 SSTORE PUSH1 0x5 DUP1 SLOAD SWAP1 SWAP4 AND SWAP4 DUP8 AND SWAP4 SWAP1 SWAP4 OR SWAP1 SWAP2 SSTORE PUSH1 0x6 DUP5 SWAP1 SSTORE PUSH1 0x40 DUP1 MLOAD PUSH4 0x5AB1BD53 PUSH1 0xE0 SHL DUP2 MSTORE SWAP1 MLOAD SWAP2 SWAP3 PUSH4 0x5AB1BD53 SWAP3 DUP3 DUP3 ADD SWAP3 PUSH1 0x20 SWAP3 SWAP1 DUP3 SWAP1 SUB ADD DUP2 DUP7 GAS STATICCALL ISZERO DUP1 ISZERO PUSH3 0xC4 JUMPI RETURNDATASIZE PUSH1 0x0 DUP1 RETURNDATACOPY RETURNDATASIZE PUSH1 0x0 REVERT JUMPDEST POP POP POP POP PUSH1 0x40 MLOAD RETURNDATASIZE PUSH1 0x1F NOT PUSH1 0x1F DUP3 ADD AND DUP3 ADD DUP1 PUSH1 0x40 MSTORE POP DUP2 ADD SWAP1 PUSH3 0xEA SWAP2 SWAP1 PUSH3 0x1A4 JUMP JUMPDEST PUSH1 0x1 DUP1 SLOAD PUSH1 0x1 PUSH1 0x1 PUSH1 0xA0 SHL SUB NOT AND PUSH1 0x1 PUSH1 0x1 PUSH1 0xA0 SHL SUB SWAP3 SWAP1 SWAP3 AND SWAP2 SWAP1 SWAP2 OR SWAP1 SSTORE POP PUSH3 0x1CB SWAP5 POP POP POP POP POP JUMP JUMPDEST PUSH1 0x1 PUSH1 0x1 PUSH1 0xA0 SHL SUB DUP2 AND DUP2 EQ PUSH3 0x12D JUMPI PUSH1 0x0 DUP1 REVERT JUMPDEST POP JUMP JUMPDEST PUSH1 0x0 DUP1 PUSH1 0x0 DUP1 PUSH1 0x0 PUSH1 0xA0 DUP7 DUP9 SUB SLT ISZERO PUSH3 0x149 JUMPI PUSH1 0x0 DUP1 REVERT JUMPDEST DUP6 MLOAD PUSH3 0x156 DUP2 PUSH3 0x117 JUMP JUMPDEST PUSH1 0x20 DUP8 ADD MLOAD SWAP1 SWAP6 POP PUSH3 0x169 DUP2 PUSH3 0x117 JUMP JUMPDEST PUSH1 0x40 DUP8 ADD MLOAD SWAP1 SWAP5 POP PUSH3 0x17C DUP2 PUSH3 0x117 JUMP JUMPDEST PUSH1 0x60 DUP8 ADD MLOAD SWAP1 SWAP4 POP PUSH3 0x18F DUP2 PUSH3 0x117 JUMP JUMPDEST DUP1 SWAP3 POP POP PUSH1 0x80 DUP7 ADD MLOAD SWAP1 POP SWAP3 SWAP6 POP SWAP3 SWAP6 SWAP1 SWAP4 POP JUMP JUMPDEST PUSH1 0x0 PUSH1 0x20 DUP3 DUP5 SUB SLT ISZERO PUSH3 0x1B7 JUMPI PUSH1 0x0 DUP1 REVERT JUMPDEST DUP2 MLOAD PUSH3 0x1C4 DUP2 PUSH3 0x117 JUMP JUMPDEST SWAP4 SWAP3 POP POP POP JUMP JUMPDEST PUSH2 0x1F00 DUP1 PUSH3 0x1DB PUSH1 0x0 CODECOPY PUSH1 0x0 RETURN INVALID PUSH1 0x80 PUSH1 0x40 MSTORE PUSH1 0x4 CALLDATASIZE LT PUSH2 0xE1 JUMPI PUSH1 0x0 CALLDATALOAD PUSH1 0xE0 SHR DUP1 PUSH4 0x97E39FEF GT PUSH2 0x7F JUMPI DUP1 PUSH4 0xB50991B4 GT PUSH2 0x59 JUMPI DUP1 PUSH4 0xB50991B4 EQ PUSH2 0x294 JUMPI DUP1 PUSH4 0xC42B06F0 EQ PUSH2 0x2C1 JUMPI DUP1 PUSH4 0xD1DE78E4 EQ PUSH2 0x2F1 JUMPI DUP1 PUSH4 0xDF06C273 EQ PUSH2 0x311 JUMPI PUSH1 0x0 DUP1 REVERT JUMPDEST DUP1 PUSH4 0x97E39FEF EQ PUSH2 0x22A JUMPI DUP1 PUSH4 0xA0CF0AEA EQ PUSH2 0x24A JUMPI DUP1 PUSH4 0xB2137033 EQ PUSH2 0x272 JUMPI PUSH1 0x0 DUP1 REVERT JUMPDEST DUP1 PUSH4 0x6617DD66 GT PUSH2 0xBB JUMPI DUP1 PUSH4 0x6617DD66 EQ PUSH2 0x190 JUMPI DUP1 PUSH4 0x7144E4B5 EQ PUSH2 0x1BD JUMPI DUP1 PUSH4 0x8D363831 EQ PUSH2 0x1DD JUMPI DUP1 PUSH4 0x94A8FB4A EQ PUSH2 0x1FD JUMPI PUSH1 0x0 DUP1 REVERT JUMPDEST DUP1 PUSH4 0x16E46F68 EQ PUSH2 0xED JUMPI DUP1 PUSH4 0x40F1AB98 EQ PUSH2 0x12D JUMPI DUP1 PUSH4 0x5D5BBA3F EQ PUSH2 0x142 JUMPI PUSH1 0x0 DUP1 REVERT JUMPDEST CALLDATASIZE PUSH2 0xE8 JUMPI STOP JUMPDEST PUSH1 0x0 DUP1 REVERT JUMPDEST CALLVALUE DUP1 ISZERO PUSH2 0xF9 JUMPI PUSH1 0x0 DUP1 REVERT JUMPDEST POP PUSH2 0x11A PUSH2 0x108 CALLDATASIZE PUSH1 0x4 PUSH2 0x153E JUMP JUMPDEST PUSH1 0x0 SWAP1 DUP2 MSTORE PUSH1 0xC PUSH1 0x20 MSTORE PUSH1 0x40 SWAP1 KECCAK256 SLOAD SWAP1 JUMP JUMPDEST PUSH1 0x40 MLOAD SWAP1 DUP2 MSTORE PUSH1 0x20 ADD JUMPDEST PUSH1 0x40 MLOAD DUP1 SWAP2 SUB SWAP1 RETURN JUMPDEST PUSH2 0x140 PUSH2 0x13B CALLDATASIZE PUSH1 0x4 PUSH2 0x1557 JUMP JUMPDEST PUSH2 0x347 JUMP JUMPDEST STOP JUMPDEST CALLVALUE DUP1 ISZERO PUSH2 0x14E JUMPI PUSH1 0x0 DUP1 REVERT JUMPDEST POP PUSH2 0x178 PUSH2 0x15D CALLDATASIZE PUSH1 0x4 PUSH2 0x153E JUMP JUMPDEST PUSH1 0x0 SWAP1 DUP2 MSTORE PUSH1 0xD PUSH1 0x20 MSTORE PUSH1 0x40 SWAP1 KECCAK256 SLOAD PUSH1 0x1 PUSH1 0x1 PUSH1 0xA0 SHL SUB AND SWAP1 JUMP JUMPDEST PUSH1 0x40 MLOAD PUSH1 0x1 PUSH1 0x1 PUSH1 0xA0 SHL SUB SWAP1 SWAP2 AND DUP2 MSTORE PUSH1 0x20 ADD PUSH2 0x124 JUMP JUMPDEST CALLVALUE DUP1 ISZERO PUSH2 0x19C JUMPI PUSH1 0x0 DUP1 REVERT JUMPDEST POP PUSH2 0x1B0 PUSH2 0x1AB CALLDATASIZE PUSH1 0x4 PUSH2 0x153E JUMP JUMPDEST PUSH2 0xA5A JUMP JUMPDEST PUSH1 0x40 MLOAD PUSH2 0x124 SWAP2 SWAP1 PUSH2 0x15BD JUMP JUMPDEST CALLVALUE DUP1 ISZERO PUSH2 0x1C9 JUMPI PUSH1 0x0 DUP1 REVERT JUMPDEST POP PUSH2 0x11A PUSH2 0x1D8 CALLDATASIZE PUSH1 0x4 PUSH2 0x170D JUMP JUMPDEST PUSH2 0xAC6 JUMP JUMPDEST CALLVALUE DUP1 ISZERO PUSH2 0x1E9 JUMPI PUSH1 0x0 DUP1 REVERT JUMPDEST POP PUSH2 0x11A PUSH2 0x1F8 CALLDATASIZE PUSH1 0x4 PUSH2 0x17F0 JUMP JUMPDEST PUSH2 0xC7F JUMP JUMPDEST CALLVALUE DUP1 ISZERO PUSH2 0x209 JUMPI PUSH1 0x0 DUP1 REVERT JUMPDEST POP PUSH2 0x21D PUSH2 0x218 CALLDATASIZE PUSH1 0x4 PUSH2 0x153E JUMP JUMPDEST PUSH2 0xCA9 JUMP JUMPDEST PUSH1 0x40 MLOAD PUSH2 0x124 SWAP2 SWAP1 PUSH2 0x1870 JUMP JUMPDEST CALLVALUE DUP1 ISZERO PUSH2 0x236 JUMPI PUSH1 0x0 DUP1 REVERT JUMPDEST POP PUSH1 0x5 SLOAD PUSH2 0x178 SWAP1 PUSH1 0x1 PUSH1 0x1 PUSH1 0xA0 SHL SUB AND DUP2 JUMP JUMPDEST CALLVALUE DUP1 ISZERO PUSH2 0x256 JUMPI PUSH1 0x0 DUP1 REVERT JUMPDEST POP PUSH2 0x178 PUSH20 0xEEEEEEEEEEEEEEEEEEEEEEEEEEEEEEEEEEEEEEEE DUP2 JUMP JUMPDEST CALLVALUE DUP1 ISZERO PUSH2 0x27E JUMPI PUSH1 0x0 DUP1 REVERT JUMPDEST POP PUSH2 0x287 PUSH2 0xE31 JUMP JUMPDEST PUSH1 0x40 MLOAD PUSH2 0x124 SWAP2 SWAP1 PUSH2 0x18C6 JUMP JUMPDEST CALLVALUE DUP1 ISZERO PUSH2 0x2A0 JUMPI PUSH1 0x0 DUP1 REVERT JUMPDEST POP PUSH2 0x2B4 PUSH2 0x2AF CALLDATASIZE PUSH1 0x4 PUSH2 0x153E JUMP JUMPDEST PUSH2 0xE89 JUMP JUMPDEST PUSH1 0x40 MLOAD PUSH2 0x124 SWAP2 SWAP1 PUSH2 0x1931 JUMP JUMPDEST CALLVALUE DUP1 ISZERO PUSH2 0x2CD JUMPI PUSH1 0x0 DUP1 REVERT JUMPDEST POP PUSH2 0x2E1 PUSH2 0x2DC CALLDATASIZE PUSH1 0x4 PUSH2 0x153E JUMP JUMPDEST PUSH2 0xF01 JUMP JUMPDEST PUSH1 0x40 MLOAD SWAP1 ISZERO ISZERO DUP2 MSTORE PUSH1 0x20 ADD PUSH2 0x124 JUMP JUMPDEST CALLVALUE DUP1 ISZERO PUSH2 0x2FD JUMPI PUSH1 0x0 DUP1 REVERT JUMPDEST POP PUSH2 0x140 PUSH2 0x30C CALLDATASIZE PUSH1 0x4 PUSH2 0x153E JUMP JUMPDEST PUSH2 0xF8C JUMP JUMPDEST CALLVALUE DUP1 ISZERO PUSH2 0x31D JUMPI PUSH1 0x0 DUP1 REVERT JUMPDEST POP PUSH2 0x178 PUSH2 0x32C CALLDATASIZE PUSH1 0x4 PUSH2 0x153E JUMP JUMPDEST PUSH1 0x0 SWAP1 DUP2 MSTORE PUSH1 0xB PUSH1 0x20 MSTORE PUSH1 0x40 SWAP1 KECCAK256 SLOAD PUSH1 0x1 PUSH1 0x1 PUSH1 0xA0 SHL SUB AND SWAP1 JUMP JUMPDEST PUSH2 0x34F PUSH2 0x1208 JUMP JUMPDEST PUSH2 0x358 DUP3 PUSH2 0xF01 JUMP JUMPDEST PUSH2 0x3A2 JUMPI PUSH1 0x40 MLOAD PUSH3 0x461BCD PUSH1 0xE5 SHL DUP2 MSTORE PUSH1 0x20 PUSH1 0x4 DUP3 ADD MSTORE PUSH1 0x16 PUSH1 0x24 DUP3 ADD MSTORE PUSH22 0x141C9BDA9958DD08191BD95CC81B9BDD08195E1A5CDD PUSH1 0x52 SHL PUSH1 0x44 DUP3 ADD MSTORE PUSH1 0x64 ADD JUMPDEST PUSH1 0x40 MLOAD DUP1 SWAP2 SUB SWAP1 REVERT JUMPDEST DUP1 ISZERO DUP1 PUSH2 0x3AF JUMPI POP CALLVALUE DUP2 EQ ISZERO JUMPDEST ISZERO PUSH2 0x3CD JUMPI PUSH1 0x40 MLOAD PUSH4 0x3E09BB9 PUSH1 0xE3 SHL DUP2 MSTORE PUSH1 0x4 ADD PUSH1 0x40 MLOAD DUP1 SWAP2 SUB SWAP1 REVERT JUMPDEST PUSH1 0x0 DUP3 DUP2 MSTORE PUSH1 0xA PUSH1 0x20 MSTORE PUSH1 0x40 DUP2 KECCAK256 PUSH1 0x1 ADD DUP1 SLOAD DUP4 SWAP3 SWAP1 PUSH2 0x3EE SWAP1 DUP5 SWAP1 PUSH2 0x19C5 JUMP JUMPDEST SWAP1 SWAP2 SSTORE POP POP PUSH1 0x0 DUP3 DUP2 MSTORE PUSH1 0x9 PUSH1 0x20 SWAP1 DUP2 MSTORE PUSH1 0x40 DUP1 DUP4 KECCAK256 CALLER DUP5 MSTORE SWAP1 SWAP2 MSTORE DUP2 KECCAK256 SLOAD SWAP1 SUB PUSH2 0x442 JUMPI PUSH1 0x0 DUP3 DUP2 MSTORE PUSH1 0x8 PUSH1 0x20 SWAP1 DUP2 MSTORE PUSH1 0x40 DUP3 KECCAK256 DUP1 SLOAD PUSH1 0x1 DUP2 ADD DUP3 SSTORE SWAP1 DUP4 MSTORE SWAP2 KECCAK256 ADD DUP1 SLOAD PUSH1 0x1 PUSH1 0x1 PUSH1 0xA0 SHL SUB NOT AND CALLER OR SWAP1 SSTORE JUMPDEST PUSH1 0x0 DUP3 DUP2 MSTORE PUSH1 0x9 PUSH1 0x20 SWAP1 DUP2 MSTORE PUSH1 0x40 DUP1 DUP4 KECCAK256 CALLER DUP5 MSTORE SWAP1 SWAP2 MSTORE DUP2 KECCAK256 DUP1 SLOAD DUP4 SWAP3 SWAP1 PUSH2 0x46B SWAP1 DUP5 SWAP1 PUSH2 0x19C5 JUMP JUMPDEST SWAP1 SWAP2 SSTORE POP POP PUSH1 0x40 MLOAD DUP2 DUP2 MSTORE DUP3 SWAP1 PUSH32 0x315CB30DD854BD9E9DF31E31754930BA16B498240F74A4EF23531F84C4EE4910 SWAP1 PUSH1 0x20 ADD PUSH1 0x40 MLOAD DUP1 SWAP2 SUB SWAP1 LOG2 PUSH1 0x0 DUP3 DUP2 MSTORE PUSH1 0xA PUSH1 0x20 MSTORE PUSH1 0x40 SWAP1 KECCAK256 DUP1 SLOAD PUSH1 0x1 SWAP1 SWAP2 ADD SLOAD LT PUSH2 0xA4C JUMPI PUSH1 0x0 PUSH2 0x4CB DUP4 PUSH2 0x1232 JUMP JUMPDEST PUSH1 0x40 DUP1 MLOAD PUSH1 0x80 DUP2 ADD DUP3 MSTORE PUSH1 0x0 DUP1 DUP3 MSTORE PUSH1 0x20 DUP3 ADD DUP2 SWAP1 MSTORE SWAP2 DUP2 ADD DUP3 SWAP1 MSTORE PUSH1 0x60 DUP2 ADD DUP4 SWAP1 MSTORE DUP3 MLOAD SWAP3 SWAP4 POP SWAP2 PUSH2 0x4FF SWAP1 PUSH1 0x1 PUSH2 0x19C5 JUMP JUMPDEST PUSH8 0xFFFFFFFFFFFFFFFF DUP2 GT ISZERO PUSH2 0x517 JUMPI PUSH2 0x517 PUSH2 0x15D7 JUMP JUMPDEST PUSH1 0x40 MLOAD SWAP1 DUP1 DUP3 MSTORE DUP1 PUSH1 0x20 MUL PUSH1 0x20 ADD DUP3 ADD PUSH1 0x40 MSTORE DUP1 ISZERO PUSH2 0x540 JUMPI DUP2 PUSH1 0x20 ADD PUSH1 0x20 DUP3 MUL DUP1 CALLDATASIZE DUP4 CALLDATACOPY ADD SWAP1 POP JUMPDEST POP SWAP1 POP PUSH1 0x0 JUMPDEST DUP4 MLOAD DUP2 LT ISZERO PUSH2 0x5A9 JUMPI DUP4 DUP2 DUP2 MLOAD DUP2 LT PUSH2 0x561 JUMPI PUSH2 0x561 PUSH2 0x19D8 JUMP JUMPDEST PUSH1 0x20 MUL PUSH1 0x20 ADD ADD MLOAD PUSH1 0x0 ADD MLOAD DUP3 DUP3 DUP2 MLOAD DUP2 LT PUSH2 0x57F JUMPI PUSH2 0x57F PUSH2 0x19D8 JUMP JUMPDEST PUSH1 0x1 PUSH1 0x1 PUSH1 0xA0 SHL SUB SWAP1 SWAP3 AND PUSH1 0x20 SWAP3 DUP4 MUL SWAP2 SWAP1 SWAP2 ADD SWAP1 SWAP2 ADD MSTORE DUP1 PUSH2 0x5A1 DUP2 PUSH2 0x19EE JUMP JUMPDEST SWAP2 POP POP PUSH2 0x546 JUMP JUMPDEST POP ADDRESS DUP2 DUP5 MLOAD DUP2 MLOAD DUP2 LT PUSH2 0x5BE JUMPI PUSH2 0x5BE PUSH2 0x19D8 JUMP JUMPDEST PUSH1 0x1 PUSH1 0x1 PUSH1 0xA0 SHL SUB SWAP1 SWAP3 AND PUSH1 0x20 SWAP3 DUP4 MUL SWAP2 SWAP1 SWAP2 ADD DUP3 ADD MSTORE PUSH1 0x40 DUP1 MLOAD DUP1 DUP3 ADD DUP3 MSTORE PUSH1 0x1 DUP2 MSTORE DUP2 MLOAD DUP1 DUP4 ADD DUP4 MSTORE PUSH1 0xD DUP2 MSTORE PUSH13 0x32B6B83A3C903837B4B73A32B9 PUSH1 0x99 SHL DUP2 DUP6 ADD MSTORE DUP2 DUP5 ADD MSTORE SWAP1 MLOAD SWAP1 SWAP2 PUSH1 0x0 SWAP2 PUSH2 0x619 SWAP2 DUP7 SWAP2 ADD PUSH2 0x1A07 JUMP JUMPDEST PUSH1 0x40 DUP1 MLOAD DUP1 DUP4 SUB PUSH1 0x1F NOT ADD DUP2 MSTORE DUP3 DUP3 MSTORE PUSH1 0x0 DUP11 DUP2 MSTORE PUSH1 0xA PUSH1 0x20 MSTORE SWAP2 SWAP1 SWAP2 KECCAK256 SLOAD PUSH1 0x4 DUP1 SLOAD PUSH1 0x3 SLOAD PUSH4 0x7316BCD1 PUSH1 0xE0 SHL DUP7 MSTORE PUSH1 0x1 PUSH1 0x1 PUSH1 0xA0 SHL SUB SWAP1 DUP2 AND SWAP3 DUP7 ADD SWAP3 SWAP1 SWAP3 MSTORE SWAP3 SWAP5 POP SWAP1 SWAP3 SWAP2 AND SWAP1 PUSH4 0x7316BCD1 SWAP1 PUSH1 0x24 ADD PUSH1 0x20 PUSH1 0x40 MLOAD DUP1 DUP4 SUB DUP2 PUSH1 0x0 DUP8 GAS CALL ISZERO DUP1 ISZERO PUSH2 0x68B JUMPI RETURNDATASIZE PUSH1 0x0 DUP1 RETURNDATACOPY RETURNDATASIZE PUSH1 0x0 REVERT JUMPDEST POP POP POP POP PUSH1 0x40 MLOAD RETURNDATASIZE PUSH1 0x1F NOT PUSH1 0x1F DUP3 ADD AND DUP3 ADD DUP1 PUSH1 0x40 MSTORE POP DUP2 ADD SWAP1 PUSH2 0x6AF SWAP2 SWAP1 PUSH2 0x1A9E JUMP JUMPDEST PUSH1 0x0 DUP10 DUP2 MSTORE PUSH1 0xD PUSH1 0x20 MSTORE PUSH1 0x40 DUP1 DUP3 KECCAK256 DUP1 SLOAD PUSH1 0x1 PUSH1 0x1 PUSH1 0xA0 SHL SUB NOT AND PUSH1 0x1 PUSH1 0x1 PUSH1 0xA0 SHL SUB SWAP5 DUP6 AND SWAP1 DUP2 OR SWAP1 SWAP2 SSTORE PUSH1 0x2 SLOAD SWAP2 MLOAD PUSH4 0x70803EA5 PUSH1 0xE1 SHL DUP2 MSTORE SWAP3 SWAP4 SWAP2 SWAP1 SWAP2 AND SWAP2 PUSH4 0xE1007D4A SWAP2 CALLVALUE SWAP2 PUSH2 0x725 SWAP2 DUP15 SWAP2 DUP10 SWAP1 PUSH20 0xEEEEEEEEEEEEEEEEEEEEEEEEEEEEEEEEEEEEEEEE SWAP1 DUP10 SWAP1 DUP14 SWAP1 DUP16 SWAP1 PUSH1 0x4 ADD PUSH2 0x1ABB JUMP JUMPDEST PUSH1 0x20 PUSH1 0x40 MLOAD DUP1 DUP4 SUB DUP2 DUP6 DUP9 GAS CALL ISZERO DUP1 ISZERO PUSH2 0x743 JUMPI RETURNDATASIZE PUSH1 0x0 DUP1 RETURNDATACOPY RETURNDATASIZE PUSH1 0x0 REVERT JUMPDEST POP POP POP POP POP PUSH1 0x40 MLOAD RETURNDATASIZE PUSH1 0x1F NOT PUSH1 0x1F DUP3 ADD AND DUP3 ADD DUP1 PUSH1 0x40 MSTORE POP DUP2 ADD SWAP1 PUSH2 0x768 SWAP2 SWAP1 PUSH2 0x1B26 JUMP JUMPDEST PUSH1 0x0 DUP11 DUP2 MSTORE PUSH1 0xA PUSH1 0x20 MSTORE PUSH1 0x40 SWAP1 KECCAK256 SLOAD SWAP1 SWAP2 POP SELFBALANCE LT ISZERO PUSH2 0x7C9 JUMPI PUSH1 0x40 MLOAD PUSH3 0x461BCD PUSH1 0xE5 SHL DUP2 MSTORE PUSH1 0x20 PUSH1 0x4 DUP3 ADD DUP2 SWAP1 MSTORE PUSH1 0x24 DUP3 ADD MSTORE PUSH32 0x496E73756666696369656E742062616C616E636520696E20636F6E7472616374 PUSH1 0x44 DUP3 ADD MSTORE PUSH1 0x64 ADD PUSH2 0x399 JUMP JUMPDEST PUSH1 0x2 SLOAD PUSH1 0x0 DUP11 DUP2 MSTORE PUSH1 0xA PUSH1 0x20 MSTORE PUSH1 0x40 SWAP1 DUP2 SWAP1 KECCAK256 SLOAD SWAP1 MLOAD PUSH4 0x16B35BEB PUSH1 0xE2 SHL DUP2 MSTORE PUSH1 0x4 DUP2 ADD DUP5 SWAP1 MSTORE PUSH1 0x24 DUP2 ADD DUP3 SWAP1 MSTORE PUSH1 0x1 PUSH1 0x1 PUSH1 0xA0 SHL SUB SWAP1 SWAP3 AND SWAP2 PUSH4 0x5ACD6FAC SWAP2 SWAP1 PUSH1 0x44 ADD PUSH1 0x0 PUSH1 0x40 MLOAD DUP1 DUP4 SUB DUP2 DUP6 DUP9 DUP1 EXTCODESIZE ISZERO DUP1 ISZERO PUSH2 0x826 JUMPI PUSH1 0x0 DUP1 REVERT JUMPDEST POP GAS CALL ISZERO DUP1 ISZERO PUSH2 0x83A JUMPI RETURNDATASIZE PUSH1 0x0 DUP1 RETURNDATACOPY RETURNDATASIZE PUSH1 0x0 REVERT JUMPDEST POP POP POP PUSH1 0x0 DUP12 DUP2 MSTORE PUSH1 0xB PUSH1 0x20 SWAP1 DUP2 MSTORE PUSH1 0x40 DUP1 DUP4 KECCAK256 SLOAD SWAP1 MLOAD SWAP3 SWAP5 POP PUSH2 0x86F SWAP4 POP PUSH1 0x1 PUSH1 0x1 PUSH1 0xA0 SHL SUB AND SWAP2 DUP5 SWAP2 DUP8 SWAP2 DUP11 SWAP2 ADD PUSH2 0x1B3F JUMP JUMPDEST PUSH1 0x40 DUP1 MLOAD PUSH1 0x1F NOT DUP2 DUP5 SUB ADD DUP2 MSTORE SWAP1 DUP3 SWAP1 MSTORE PUSH1 0x2 SLOAD PUSH4 0x1D703A7 PUSH1 0xE2 SHL DUP4 MSTORE SWAP1 SWAP3 POP PUSH1 0x1 PUSH1 0x1 PUSH1 0xA0 SHL SUB AND SWAP1 PUSH4 0x75C0E9C SWAP1 PUSH2 0x8B0 SWAP1 DUP6 SWAP1 DUP6 SWAP1 PUSH1 0x4 ADD PUSH2 0x1B7C JUMP JUMPDEST PUSH1 0x20 PUSH1 0x40 MLOAD DUP1 DUP4 SUB DUP2 PUSH1 0x0 DUP8 GAS CALL ISZERO DUP1 ISZERO PUSH2 0x8CF JUMPI RETURNDATASIZE PUSH1 0x0 DUP1 RETURNDATACOPY RETURNDATASIZE PUSH1 0x0 REVERT JUMPDEST POP POP POP POP PUSH1 0x40 MLOAD RETURNDATASIZE PUSH1 0x1F NOT PUSH1 0x1F DUP3 ADD AND DUP3 ADD DUP1 PUSH1 0x40 MSTORE POP DUP2 ADD SWAP1 PUSH2 0x8F3 SWAP2 SWAP1 PUSH2 0x1A9E JUMP JUMPDEST POP PUSH1 0x0 DUP11 DUP2 MSTORE PUSH1 0xC PUSH1 0x20 DUP2 SWAP1 MSTORE PUSH1 0x40 DUP1 DUP4 KECCAK256 DUP6 SWAP1 SSTORE PUSH1 0x5 SLOAD PUSH1 0x6 SLOAD DUP11 MLOAD SWAP3 MLOAD PUSH4 0x5829492F PUSH1 0xE1 SHL DUP2 MSTORE PUSH1 0x4 DUP2 ADD SWAP2 SWAP1 SWAP2 MSTORE PUSH1 0xE0 PUSH1 0x24 DUP3 ADD MSTORE PUSH1 0xE4 DUP2 ADD SWAP4 SWAP1 SWAP4 MSTORE PUSH12 0x14D554141312515497D21055 PUSH1 0xA2 SHL PUSH2 0x104 DUP5 ADD MSTORE PUSH4 0xFFFFFFFF SWAP1 SWAP2 AND PUSH1 0x44 DUP4 ADD MSTORE ADDRESS PUSH1 0x64 DUP4 ADD DUP2 SWAP1 MSTORE PUSH1 0x84 DUP4 ADD MSTORE PUSH1 0x1 PUSH1 0xA4 DUP4 ADD MSTORE PUSH2 0x120 PUSH1 0xC4 DUP4 ADD MSTORE PUSH2 0x124 DUP3 ADD DUP4 SWAP1 MSTORE PUSH1 0x1 PUSH1 0x1 PUSH1 0xA0 SHL SUB AND SWAP1 PUSH4 0xB052925E SWAP1 PUSH2 0x144 ADD PUSH1 0x20 PUSH1 0x40 MLOAD DUP1 DUP4 SUB DUP2 PUSH1 0x0 DUP8 GAS CALL ISZERO DUP1 ISZERO PUSH2 0x9AD JUMPI RETURNDATASIZE PUSH1 0x0 DUP1 RETURNDATACOPY RETURNDATASIZE PUSH1 0x0 REVERT JUMPDEST POP POP POP POP PUSH1 0x40 MLOAD RETURNDATASIZE PUSH1 0x1F NOT PUSH1 0x1F DUP3 ADD AND DUP3 ADD DUP1 PUSH1 0x40 MSTORE POP DUP2 ADD SWAP1 PUSH2 0x9D1 SWAP2 SWAP1 PUSH2 0x1B26 JUMP JUMPDEST SWAP1 POP PUSH2 0xA09 PUSH1 0x40 MLOAD DUP1 PUSH1 0x40 ADD PUSH1 0x40 MSTORE DUP1 PUSH1 0x14 DUP2 MSTORE PUSH1 0x20 ADD PUSH20 0x1E9E9E9E9E9F1029AAA8282624A2A92FA420AA1D PUSH1 0x61 SHL DUP2 MSTORE POP DUP3 PUSH2 0x1360 JUMP JUMPDEST PUSH1 0x40 DUP1 MLOAD DUP13 DUP2 MSTORE PUSH1 0x20 DUP2 ADD DUP6 SWAP1 MSTORE PUSH32 0xC5D45CF1508CAE377CC227A37EA00B97FA9E86E03CE72364A0B7E85E36BAACEC SWAP2 ADD PUSH1 0x40 MLOAD DUP1 SWAP2 SUB SWAP1 LOG1 POP POP POP POP POP POP POP POP POP JUMPDEST PUSH2 0xA56 PUSH1 0x1 PUSH1 0x0 SSTORE JUMP JUMPDEST POP POP JUMP JUMPDEST PUSH1 0x0 DUP2 DUP2 MSTORE PUSH1 0x8 PUSH1 0x20 SWAP1 DUP2 MSTORE PUSH1 0x40 SWAP2 DUP3 SWAP1 KECCAK256 DUP1 SLOAD DUP4 MLOAD DUP2 DUP5 MUL DUP2 ADD DUP5 ADD SWAP1 SWAP5 MSTORE DUP1 DUP5 MSTORE PUSH1 0x60 SWAP4 SWAP3 DUP4 ADD DUP3 DUP3 DUP1 ISZERO PUSH2 0xABA JUMPI PUSH1 0x20 MUL DUP3 ADD SWAP2 SWAP1 PUSH1 0x0 MSTORE PUSH1 0x20 PUSH1 0x0 KECCAK256 SWAP1 JUMPDEST DUP2 SLOAD PUSH1 0x1 PUSH1 0x1 PUSH1 0xA0 SHL SUB AND DUP2 MSTORE PUSH1 0x1 SWAP1 SWAP2 ADD SWAP1 PUSH1 0x20 ADD DUP1 DUP4 GT PUSH2 0xA9C JUMPI JUMPDEST POP POP POP POP POP SWAP1 POP SWAP2 SWAP1 POP JUMP JUMPDEST PUSH1 0x40 DUP1 MLOAD PUSH1 0x2 DUP1 DUP3 MSTORE PUSH1 0x60 DUP3 ADD DUP4 MSTORE PUSH1 0x0 SWAP3 DUP4 SWAP3 SWAP2 SWAP1 PUSH1 0x20 DUP4 ADD SWAP1 DUP1 CALLDATASIZE DUP4 CALLDATACOPY ADD SWAP1 POP POP SWAP1 POP DUP4 DUP2 PUSH1 0x0 DUP2 MLOAD DUP2 LT PUSH2 0xAFF JUMPI PUSH2 0xAFF PUSH2 0x19D8 JUMP JUMPDEST PUSH1 0x20 MUL PUSH1 0x20 ADD ADD SWAP1 PUSH1 0x1 PUSH1 0x1 PUSH1 0xA0 SHL SUB AND SWAP1 DUP2 PUSH1 0x1 PUSH1 0x1 PUSH1 0xA0 SHL SUB AND DUP2 MSTORE POP POP ADDRESS DUP2 PUSH1 0x1 DUP2 MLOAD DUP2 LT PUSH2 0xB33 JUMPI PUSH2 0xB33 PUSH2 0x19D8 JUMP JUMPDEST PUSH1 0x1 PUSH1 0x1 PUSH1 0xA0 SHL SUB SWAP3 DUP4 AND PUSH1 0x20 SWAP2 DUP3 MUL SWAP3 SWAP1 SWAP3 ADD ADD MSTORE PUSH1 0x1 SLOAD PUSH1 0x40 MLOAD PUSH4 0x3A92F65F PUSH1 0xE0 SHL DUP2 MSTORE SWAP2 AND SWAP1 PUSH4 0x3A92F65F SWAP1 PUSH2 0xB78 SWAP1 DUP11 SWAP1 DUP11 SWAP1 DUP11 SWAP1 ADDRESS SWAP1 DUP9 SWAP1 PUSH1 0x4 ADD PUSH2 0x1B95 JUMP JUMPDEST PUSH1 0x20 PUSH1 0x40 MLOAD DUP1 DUP4 SUB DUP2 PUSH1 0x0 DUP8 GAS CALL ISZERO DUP1 ISZERO PUSH2 0xB97 JUMPI RETURNDATASIZE PUSH1 0x0 DUP1 RETURNDATACOPY RETURNDATASIZE PUSH1 0x0 REVERT JUMPDEST POP POP POP POP PUSH1 0x40 MLOAD RETURNDATASIZE PUSH1 0x1F NOT PUSH1 0x1F DUP3 ADD AND DUP3 ADD DUP1 PUSH1 0x40 MSTORE POP DUP2 ADD SWAP1 PUSH2 0xBBB SWAP2 SWAP1 PUSH2 0x1B26 JUMP JUMPDEST PUSH1 0x7 DUP1 SLOAD PUSH1 0x1 DUP2 ADD SWAP1 SWAP2 SSTORE PUSH32 0xA66CC928B5EDB82AF9BD49922954155AB7B0942694BEA4CE44661D9A8736C688 ADD DUP2 SWAP1 SSTORE PUSH1 0x0 DUP2 DUP2 MSTORE PUSH1 0xA PUSH1 0x20 MSTORE PUSH1 0x40 DUP2 KECCAK256 DUP1 SLOAD SWAP3 SWAP5 POP DUP11 SWAP3 SWAP1 SWAP2 SWAP1 PUSH2 0xC0E SWAP1 DUP5 SWAP1 PUSH2 0x19C5 JUMP JUMPDEST SWAP1 SWAP2 SSTORE POP POP PUSH1 0x0 DUP3 DUP2 MSTORE PUSH1 0xA PUSH1 0x20 MSTORE PUSH1 0x40 SWAP1 KECCAK256 PUSH1 0x2 ADD PUSH2 0xC2E DUP8 DUP3 PUSH2 0x1C77 JUMP JUMPDEST POP PUSH1 0x0 DUP3 DUP2 MSTORE PUSH1 0xA PUSH1 0x20 MSTORE PUSH1 0x40 SWAP1 KECCAK256 PUSH1 0x3 ADD PUSH2 0xC4A DUP5 DUP3 PUSH2 0x1C77 JUMP JUMPDEST POP POP PUSH1 0x0 DUP2 DUP2 MSTORE PUSH1 0xB PUSH1 0x20 MSTORE PUSH1 0x40 SWAP1 KECCAK256 DUP1 SLOAD PUSH1 0x1 PUSH1 0x1 PUSH1 0xA0 SHL SUB DUP6 AND PUSH1 0x1 PUSH1 0x1 PUSH1 0xA0 SHL SUB NOT SWAP1 SWAP2 AND OR SWAP1 SSTORE SWAP7 SWAP6 POP POP POP POP POP POP JUMP JUMPDEST PUSH1 0x0 DUP3 DUP2 MSTORE PUSH1 0x9 PUSH1 0x20 SWAP1 DUP2 MSTORE PUSH1 0x40 DUP1 DUP4 KECCAK256 PUSH1 0x1 PUSH1 0x1 PUSH1 0xA0 SHL SUB DUP6 AND DUP5 MSTORE SWAP1 SWAP2 MSTORE SWAP1 KECCAK256 SLOAD JUMPDEST SWAP3 SWAP2 POP POP JUMP JUMPDEST PUSH2 0xCD4 PUSH1 0x40 MLOAD DUP1 PUSH1 0x80 ADD PUSH1 0x40 MSTORE DUP1 PUSH1 0x0 DUP2 MSTORE PUSH1 0x20 ADD PUSH1 0x0 DUP2 MSTORE PUSH1 0x20 ADD PUSH1 0x60 DUP2 MSTORE PUSH1 0x20 ADD PUSH1 0x60 DUP2 MSTORE POP SWAP1 JUMP JUMPDEST PUSH1 0xA PUSH1 0x0 DUP4 DUP2 MSTORE PUSH1 0x20 ADD SWAP1 DUP2 MSTORE PUSH1 0x20 ADD PUSH1 0x0 KECCAK256 PUSH1 0x40 MLOAD DUP1 PUSH1 0x80 ADD PUSH1 0x40 MSTORE SWAP1 DUP2 PUSH1 0x0 DUP3 ADD SLOAD DUP2 MSTORE PUSH1 0x20 ADD PUSH1 0x1 DUP3 ADD SLOAD DUP2 MSTORE PUSH1 0x20 ADD PUSH1 0x2 DUP3 ADD DUP1 SLOAD PUSH2 0xD16 SWAP1 PUSH2 0x1BEF JUMP JUMPDEST DUP1 PUSH1 0x1F ADD PUSH1 0x20 DUP1 SWAP2 DIV MUL PUSH1 0x20 ADD PUSH1 0x40 MLOAD SWAP1 DUP2 ADD PUSH1 0x40 MSTORE DUP1 SWAP3 SWAP2 SWAP1 DUP2 DUP2 MSTORE PUSH1 0x20 ADD DUP3 DUP1 SLOAD PUSH2 0xD42 SWAP1 PUSH2 0x1BEF JUMP JUMPDEST DUP1 ISZERO PUSH2 0xD8F JUMPI DUP1 PUSH1 0x1F LT PUSH2 0xD64 JUMPI PUSH2 0x100 DUP1 DUP4 SLOAD DIV MUL DUP4 MSTORE SWAP2 PUSH1 0x20 ADD SWAP2 PUSH2 0xD8F JUMP JUMPDEST DUP3 ADD SWAP2 SWAP1 PUSH1 0x0 MSTORE PUSH1 0x20 PUSH1 0x0 KECCAK256 SWAP1 JUMPDEST DUP2 SLOAD DUP2 MSTORE SWAP1 PUSH1 0x1 ADD SWAP1 PUSH1 0x20 ADD DUP1 DUP4 GT PUSH2 0xD72 JUMPI DUP3 SWAP1 SUB PUSH1 0x1F AND DUP3 ADD SWAP2 JUMPDEST POP POP POP POP POP DUP2 MSTORE PUSH1 0x20 ADD PUSH1 0x3 DUP3 ADD DUP1 SLOAD PUSH2 0xDA8 SWAP1 PUSH2 0x1BEF JUMP JUMPDEST DUP1 PUSH1 0x1F ADD PUSH1 0x20 DUP1 SWAP2 DIV MUL PUSH1 0x20 ADD PUSH1 0x40 MLOAD SWAP1 DUP2 ADD PUSH1 0x40 MSTORE DUP1 SWAP3 SWAP2 SWAP1 DUP2 DUP2 MSTORE PUSH1 0x20 ADD DUP3 DUP1 SLOAD PUSH2 0xDD4 SWAP1 PUSH2 0x1BEF JUMP JUMPDEST DUP1 ISZERO PUSH2 0xE21 JUMPI DUP1 PUSH1 0x1F LT PUSH2 0xDF6 JUMPI PUSH2 0x100 DUP1 DUP4 SLOAD DIV MUL DUP4 MSTORE SWAP2 PUSH1 0x20 ADD SWAP2 PUSH2 0xE21 JUMP JUMPDEST DUP3 ADD SWAP2 SWAP1 PUSH1 0x0 MSTORE PUSH1 0x20 PUSH1 0x0 KECCAK256 SWAP1 JUMPDEST DUP2 SLOAD DUP2 MSTORE SWAP1 PUSH1 0x1 ADD SWAP1 PUSH1 0x20 ADD DUP1 DUP4 GT PUSH2 0xE04 JUMPI DUP3 SWAP1 SUB PUSH1 0x1F AND DUP3 ADD SWAP2 JUMPDEST POP POP POP POP POP DUP2 MSTORE POP POP SWAP1 POP SWAP2 SWAP1 POP JUMP JUMPDEST PUSH1 0x60 PUSH1 0x7 DUP1 SLOAD DUP1 PUSH1 0x20 MUL PUSH1 0x20 ADD PUSH1 0x40 MLOAD SWAP1 DUP2 ADD PUSH1 0x40 MSTORE DUP1 SWAP3 SWAP2 SWAP1 DUP2 DUP2 MSTORE PUSH1 0x20 ADD DUP3 DUP1 SLOAD DUP1 ISZERO PUSH2 0xE7F JUMPI PUSH1 0x20 MUL DUP3 ADD SWAP2 SWAP1 PUSH1 0x0 MSTORE PUSH1 0x20 PUSH1 0x0 KECCAK256 SWAP1 JUMPDEST DUP2 SLOAD DUP2 MSTORE PUSH1 0x20 ADD SWAP1 PUSH1 0x1 ADD SWAP1 DUP1 DUP4 GT PUSH2 0xE6B JUMPI JUMPDEST POP POP POP POP POP SWAP1 POP SWAP1 JUMP JUMPDEST PUSH2 0xE91 PUSH2 0x1470 JUMP JUMPDEST PUSH1 0x1 SLOAD PUSH1 0x40 MLOAD PUSH3 0x8A6785 PUSH1 0xE1 SHL DUP2 MSTORE PUSH1 0x4 DUP2 ADD DUP5 SWAP1 MSTORE PUSH1 0x1 PUSH1 0x1 PUSH1 0xA0 SHL SUB SWAP1 SWAP2 AND SWAP1 PUSH4 0x114CF0A SWAP1 PUSH1 0x24 ADD PUSH1 0x0 PUSH1 0x40 MLOAD DUP1 DUP4 SUB DUP2 DUP7 GAS STATICCALL ISZERO DUP1 ISZERO PUSH2 0xED9 JUMPI RETURNDATASIZE PUSH1 0x0 DUP1 RETURNDATACOPY RETURNDATASIZE PUSH1 0x0 REVERT JUMPDEST POP POP POP POP PUSH1 0x40 MLOAD RETURNDATASIZE PUSH1 0x0 DUP3 RETURNDATACOPY PUSH1 0x1F RETURNDATASIZE SWAP1 DUP2 ADD PUSH1 0x1F NOT AND DUP3 ADD PUSH1 0x40 MSTORE PUSH2 0xCA3 SWAP2 SWAP1 DUP2 ADD SWAP1 PUSH2 0x1DCE JUMP JUMPDEST PUSH1 0x1 SLOAD PUSH1 0x40 MLOAD PUSH3 0x8A6785 PUSH1 0xE1 SHL DUP2 MSTORE PUSH1 0x4 DUP2 ADD DUP4 SWAP1 MSTORE PUSH1 0x0 SWAP2 DUP3 SWAP2 PUSH1 0x1 PUSH1 0x1 PUSH1 0xA0 SHL SUB SWAP1 SWAP2 AND SWAP1 PUSH4 0x114CF0A SWAP1 PUSH1 0x24 ADD PUSH1 0x0 PUSH1 0x40 MLOAD DUP1 DUP4 SUB DUP2 DUP7 GAS STATICCALL ISZERO DUP1 ISZERO PUSH2 0xF4E JUMPI RETURNDATASIZE PUSH1 0x0 DUP1 RETURNDATACOPY RETURNDATASIZE PUSH1 0x0 REVERT JUMPDEST POP POP POP POP PUSH1 0x40 MLOAD RETURNDATASIZE PUSH1 0x0 DUP3 RETURNDATACOPY PUSH1 0x1F RETURNDATASIZE SWAP1 DUP2 ADD PUSH1 0x1F NOT AND DUP3 ADD PUSH1 0x40 MSTORE PUSH2 0xF76 SWAP2 SWAP1 DUP2 ADD SWAP1 PUSH2 0x1DCE JUMP JUMPDEST PUSH1 0x80 ADD MLOAD PUSH1 0x1 PUSH1 0x1 PUSH1 0xA0 SHL SUB AND ISZERO ISZERO SWAP4 SWAP3 POP POP POP JUMP JUMPDEST PUSH2 0xF94 PUSH2 0x1208 JUMP JUMPDEST PUSH2 0xF9D DUP2 PUSH2 0xF01 JUMP JUMPDEST PUSH2 0xFE2 JUMPI PUSH1 0x40 MLOAD PUSH3 0x461BCD PUSH1 0xE5 SHL DUP2 MSTORE PUSH1 0x20 PUSH1 0x4 DUP3 ADD MSTORE PUSH1 0x16 PUSH1 0x24 DUP3 ADD MSTORE PUSH22 0x141C9BDA9958DD08191BD95CC81B9BDD08195E1A5CDD PUSH1 0x52 SHL PUSH1 0x44 DUP3 ADD MSTORE PUSH1 0x64 ADD PUSH2 0x399 JUMP JUMPDEST PUSH1 0x0 DUP2 DUP2 MSTORE PUSH1 0x9 PUSH1 0x20 SWAP1 DUP2 MSTORE PUSH1 0x40 DUP1 DUP4 KECCAK256 CALLER DUP5 MSTORE SWAP1 SWAP2 MSTORE SWAP1 KECCAK256 SLOAD DUP1 PUSH2 0x103C JUMPI PUSH1 0x40 MLOAD PUSH3 0x461BCD PUSH1 0xE5 SHL DUP2 MSTORE PUSH1 0x20 PUSH1 0x4 DUP3 ADD MSTORE PUSH1 0x10 PUSH1 0x24 DUP3 ADD MSTORE PUSH16 0x14D554141316481393D5081193D55391 PUSH1 0x82 SHL PUSH1 0x44 DUP3 ADD MSTORE PUSH1 0x64 ADD PUSH2 0x399 JUMP JUMPDEST PUSH1 0x0 DUP3 DUP2 MSTORE PUSH1 0x9 PUSH1 0x20 SWAP1 DUP2 MSTORE PUSH1 0x40 DUP1 DUP4 KECCAK256 CALLER DUP5 MSTORE DUP3 MSTORE DUP1 DUP4 KECCAK256 DUP4 SWAP1 SSTORE DUP5 DUP4 MSTORE PUSH1 0xA SWAP1 SWAP2 MSTORE DUP2 KECCAK256 PUSH1 0x1 ADD DUP1 SLOAD DUP4 SWAP3 SWAP1 PUSH2 0x1075 SWAP1 DUP5 SWAP1 PUSH2 0x1E95 JUMP JUMPDEST SWAP1 SWAP2 SSTORE POP POP PUSH1 0x0 DUP3 DUP2 MSTORE PUSH1 0x8 PUSH1 0x20 MSTORE PUSH1 0x40 DUP2 KECCAK256 SLOAD PUSH2 0x1095 SWAP1 PUSH1 0x1 SWAP1 PUSH2 0x1E95 JUMP JUMPDEST PUSH8 0xFFFFFFFFFFFFFFFF DUP2 GT ISZERO PUSH2 0x10AD JUMPI PUSH2 0x10AD PUSH2 0x15D7 JUMP JUMPDEST PUSH1 0x40 MLOAD SWAP1 DUP1 DUP3 MSTORE DUP1 PUSH1 0x20 MUL PUSH1 0x20 ADD DUP3 ADD PUSH1 0x40 MSTORE DUP1 ISZERO PUSH2 0x10D6 JUMPI DUP2 PUSH1 0x20 ADD PUSH1 0x20 DUP3 MUL DUP1 CALLDATASIZE DUP4 CALLDATACOPY ADD SWAP1 POP JUMPDEST POP SWAP1 POP PUSH1 0x0 DUP1 JUMPDEST PUSH1 0x0 DUP6 DUP2 MSTORE PUSH1 0x8 PUSH1 0x20 MSTORE PUSH1 0x40 SWAP1 KECCAK256 SLOAD DUP2 LT ISZERO PUSH2 0x11B8 JUMPI PUSH1 0x0 DUP6 DUP2 MSTORE PUSH1 0x8 PUSH1 0x20 MSTORE PUSH1 0x40 SWAP1 KECCAK256 DUP1 SLOAD CALLER SWAP2 SWAP1 DUP4 SWAP1 DUP2 LT PUSH2 0x1116 JUMPI PUSH2 0x1116 PUSH2 0x19D8 JUMP JUMPDEST PUSH1 0x0 SWAP2 DUP3 MSTORE PUSH1 0x20 SWAP1 SWAP2 KECCAK256 ADD SLOAD PUSH1 0x1 PUSH1 0x1 PUSH1 0xA0 SHL SUB AND EQ PUSH2 0x11A6 JUMPI PUSH1 0x0 DUP6 DUP2 MSTORE PUSH1 0x8 PUSH1 0x20 MSTORE PUSH1 0x40 SWAP1 KECCAK256 DUP1 SLOAD DUP3 SWAP1 DUP2 LT PUSH2 0x1150 JUMPI PUSH2 0x1150 PUSH2 0x19D8 JUMP JUMPDEST SWAP1 PUSH1 0x0 MSTORE PUSH1 0x20 PUSH1 0x0 KECCAK256 ADD PUSH1 0x0 SWAP1 SLOAD SWAP1 PUSH2 0x100 EXP SWAP1 DIV PUSH1 0x1 PUSH1 0x1 PUSH1 0xA0 SHL SUB AND DUP4 DUP4 DUP2 MLOAD DUP2 LT PUSH2 0x1180 JUMPI PUSH2 0x1180 PUSH2 0x19D8 JUMP JUMPDEST PUSH1 0x1 PUSH1 0x1 PUSH1 0xA0 SHL SUB SWAP1 SWAP3 AND PUSH1 0x20 SWAP3 DUP4 MUL SWAP2 SWAP1 SWAP2 ADD SWAP1 SWAP2 ADD MSTORE DUP2 PUSH2 0x11A2 DUP2 PUSH2 0x19EE JUMP JUMPDEST SWAP3 POP POP JUMPDEST DUP1 PUSH2 0x11B0 DUP2 PUSH2 0x19EE JUMP JUMPDEST SWAP2 POP POP PUSH2 0x10DD JUMP JUMPDEST POP PUSH1 0x0 DUP5 DUP2 MSTORE PUSH1 0x8 PUSH1 0x20 SWAP1 DUP2 MSTORE PUSH1 0x40 SWAP1 SWAP2 KECCAK256 DUP4 MLOAD PUSH2 0x11D8 SWAP3 DUP6 ADD SWAP1 PUSH2 0x14C4 JUMP JUMPDEST POP PUSH2 0x11F8 PUSH20 0xEEEEEEEEEEEEEEEEEEEEEEEEEEEEEEEEEEEEEEEE CALLER DUP6 PUSH2 0x13A5 JUMP JUMPDEST POP POP POP PUSH2 0x1205 PUSH1 0x1 PUSH1 0x0 SSTORE JUMP JUMPDEST POP JUMP JUMPDEST PUSH1 0x2 PUSH1 0x0 SLOAD SUB PUSH2 0x122B JUMPI PUSH1 0x40 MLOAD PUSH4 0x3EE5AEB5 PUSH1 0xE0 SHL DUP2 MSTORE PUSH1 0x4 ADD PUSH1 0x40 MLOAD DUP1 SWAP2 SUB SWAP1 REVERT JUMPDEST PUSH1 0x2 PUSH1 0x0 SSTORE JUMP JUMPDEST PUSH1 0x0 DUP2 DUP2 MSTORE PUSH1 0x8 PUSH1 0x20 MSTORE PUSH1 0x40 DUP2 KECCAK256 SLOAD PUSH1 0x60 SWAP2 SWAP1 PUSH8 0xFFFFFFFFFFFFFFFF DUP2 GT ISZERO PUSH2 0x125D JUMPI PUSH2 0x125D PUSH2 0x15D7 JUMP JUMPDEST PUSH1 0x40 MLOAD SWAP1 DUP1 DUP3 MSTORE DUP1 PUSH1 0x20 MUL PUSH1 0x20 ADD DUP3 ADD PUSH1 0x40 MSTORE DUP1 ISZERO PUSH2 0x12A2 JUMPI DUP2 PUSH1 0x20 ADD JUMPDEST PUSH1 0x40 DUP1 MLOAD DUP1 DUP3 ADD SWAP1 SWAP2 MSTORE PUSH1 0x0 DUP1 DUP3 MSTORE PUSH1 0x20 DUP3 ADD MSTORE DUP2 MSTORE PUSH1 0x20 ADD SWAP1 PUSH1 0x1 SWAP1 SUB SWAP1 DUP2 PUSH2 0x127B JUMPI SWAP1 POP JUMPDEST POP SWAP1 POP PUSH1 0x0 JUMPDEST PUSH1 0x0 DUP5 DUP2 MSTORE PUSH1 0x8 PUSH1 0x20 MSTORE PUSH1 0x40 SWAP1 KECCAK256 SLOAD DUP2 LT ISZERO PUSH2 0x1359 JUMPI PUSH1 0x0 DUP5 DUP2 MSTORE PUSH1 0x8 PUSH1 0x20 MSTORE PUSH1 0x40 DUP2 KECCAK256 DUP1 SLOAD DUP4 SWAP1 DUP2 LT PUSH2 0x12DE JUMPI PUSH2 0x12DE PUSH2 0x19D8 JUMP JUMPDEST PUSH1 0x0 SWAP2 DUP3 MSTORE PUSH1 0x20 DUP1 DUP4 KECCAK256 SWAP1 SWAP2 ADD SLOAD DUP8 DUP4 MSTORE PUSH1 0x9 DUP3 MSTORE PUSH1 0x40 DUP1 DUP5 KECCAK256 PUSH1 0x1 PUSH1 0x1 PUSH1 0xA0 SHL SUB SWAP1 SWAP3 AND DUP1 DUP6 MSTORE SWAP2 DUP4 MSTORE SWAP3 DUP4 SWAP1 KECCAK256 SLOAD DUP4 MLOAD DUP1 DUP6 ADD SWAP1 SWAP5 MSTORE DUP2 DUP5 MSTORE SWAP2 DUP4 ADD DUP3 SWAP1 MSTORE DUP6 MLOAD SWAP1 SWAP4 POP SWAP1 SWAP2 SWAP1 DUP6 SWAP1 DUP6 SWAP1 DUP2 LT PUSH2 0x1339 JUMPI PUSH2 0x1339 PUSH2 0x19D8 JUMP JUMPDEST PUSH1 0x20 MUL PUSH1 0x20 ADD ADD DUP2 SWAP1 MSTORE POP POP POP DUP1 DUP1 PUSH2 0x1351 SWAP1 PUSH2 0x19EE JUMP JUMPDEST SWAP2 POP POP PUSH2 0x12A8 JUMP JUMPDEST POP SWAP3 SWAP2 POP POP JUMP JUMPDEST PUSH2 0xA56 DUP3 DUP3 PUSH1 0x40 MLOAD PUSH1 0x24 ADD PUSH2 0x1376 SWAP3 SWAP2 SWAP1 PUSH2 0x1EA8 JUMP JUMPDEST PUSH1 0x40 DUP1 MLOAD PUSH1 0x1F NOT DUP2 DUP5 SUB ADD DUP2 MSTORE SWAP2 SWAP1 MSTORE PUSH1 0x20 DUP2 ADD DUP1 MLOAD PUSH1 0x1 PUSH1 0x1 PUSH1 0xE0 SHL SUB AND PUSH4 0x2D839CB3 PUSH1 0xE2 SHL OR SWAP1 MSTORE PUSH2 0x13E4 JUMP JUMPDEST PUSH20 0xEEEEEEEEEEEEEEEEEEEEEEEEEEEEEEEEEEEEEEED NOT PUSH1 0x1 PUSH1 0x1 PUSH1 0xA0 SHL SUB DUP5 AND ADD PUSH2 0x13D9 JUMPI PUSH2 0x13D4 DUP3 DUP3 PUSH2 0x13ED JUMP JUMPDEST POP POP POP JUMP JUMPDEST PUSH2 0x13D4 DUP4 DUP4 DUP4 PUSH2 0x1409 JUMP JUMPDEST PUSH2 0x1205 DUP2 PUSH2 0x144F JUMP JUMPDEST PUSH1 0x0 CODESIZE PUSH1 0x0 CODESIZE DUP5 DUP7 GAS CALL PUSH2 0xA56 JUMPI PUSH4 0xB12D13EB PUSH1 0x0 MSTORE PUSH1 0x4 PUSH1 0x1C REVERT JUMPDEST DUP2 PUSH1 0x14 MSTORE DUP1 PUSH1 0x34 MSTORE PUSH4 0xA9059CBB PUSH1 0x60 SHL PUSH1 0x0 MSTORE PUSH1 0x20 PUSH1 0x0 PUSH1 0x44 PUSH1 0x10 PUSH1 0x0 DUP8 GAS CALL RETURNDATASIZE ISZERO PUSH1 0x1 PUSH1 0x0 MLOAD EQ OR AND PUSH2 0x1445 JUMPI PUSH4 0x90B8EC18 PUSH1 0x0 MSTORE PUSH1 0x4 PUSH1 0x1C REVERT JUMPDEST PUSH1 0x0 PUSH1 0x34 MSTORE POP POP POP JUMP JUMPDEST PUSH1 0x0 PUSH11 0x636F6E736F6C652E6C6F67 SWAP1 POP PUSH1 0x0 DUP1 DUP4 MLOAD PUSH1 0x20 DUP6 ADD DUP5 GAS STATICCALL POP POP POP JUMP JUMPDEST PUSH1 0x40 MLOAD DUP1 PUSH1 0xC0 ADD PUSH1 0x40 MSTORE DUP1 PUSH1 0x0 DUP1 NOT AND DUP2 MSTORE PUSH1 0x20 ADD PUSH1 0x0 DUP2 MSTORE PUSH1 0x20 ADD PUSH1 0x60 DUP2 MSTORE PUSH1 0x20 ADD PUSH2 0x14B0 PUSH1 0x40 MLOAD DUP1 PUSH1 0x40 ADD PUSH1 0x40 MSTORE DUP1 PUSH1 0x0 DUP2 MSTORE PUSH1 0x20 ADD PUSH1 0x60 DUP2 MSTORE POP SWAP1 JUMP JUMPDEST DUP2 MSTORE PUSH1 0x0 PUSH1 0x20 DUP3 ADD DUP2 SWAP1 MSTORE PUSH1 0x40 SWAP1 SWAP2 ADD MSTORE SWAP1 JUMP JUMPDEST DUP3 DUP1 SLOAD DUP3 DUP3 SSTORE SWAP1 PUSH1 0x0 MSTORE PUSH1 0x20 PUSH1 0x0 KECCAK256 SWAP1 DUP2 ADD SWAP3 DUP3 ISZERO PUSH2 0x1519 JUMPI SWAP2 PUSH1 0x20 MUL DUP3 ADD JUMPDEST DUP3 DUP2 GT ISZERO PUSH2 0x1519 JUMPI DUP3 MLOAD DUP3 SLOAD PUSH1 0x1 PUSH1 0x1 PUSH1 0xA0 SHL SUB NOT AND PUSH1 0x1 PUSH1 0x1 PUSH1 0xA0 SHL SUB SWAP1 SWAP2 AND OR DUP3 SSTORE PUSH1 0x20 SWAP1 SWAP3 ADD SWAP2 PUSH1 0x1 SWAP1 SWAP2 ADD SWAP1 PUSH2 0x14E4 JUMP JUMPDEST POP PUSH2 0x1525 SWAP3 SWAP2 POP PUSH2 0x1529 JUMP JUMPDEST POP SWAP1 JUMP JUMPDEST JUMPDEST DUP1 DUP3 GT ISZERO PUSH2 0x1525 JUMPI PUSH1 0x0 DUP2 SSTORE PUSH1 0x1 ADD PUSH2 0x152A JUMP JUMPDEST PUSH1 0x0 PUSH1 0x20 DUP3 DUP5 SUB SLT ISZERO PUSH2 0x1550 JUMPI PUSH1 0x0 DUP1 REVERT JUMPDEST POP CALLDATALOAD SWAP2 SWAP1 POP JUMP JUMPDEST PUSH1 0x0 DUP1 PUSH1 0x40 DUP4 DUP6 SUB SLT ISZERO PUSH2 0x156A JUMPI PUSH1 0x0 DUP1 REVERT JUMPDEST POP POP DUP1 CALLDATALOAD SWAP3 PUSH1 0x20 SWAP1 SWAP2 ADD CALLDATALOAD SWAP2 POP JUMP JUMPDEST PUSH1 0x0 DUP2 MLOAD DUP1 DUP5 MSTORE PUSH1 0x20 DUP1 DUP6 ADD SWAP5 POP DUP1 DUP5 ADD PUSH1 0x0 JUMPDEST DUP4 DUP2 LT ISZERO PUSH2 0x15B2 JUMPI DUP2 MLOAD PUSH1 0x1 PUSH1 0x1 PUSH1 0xA0 SHL SUB AND DUP8 MSTORE SWAP6 DUP3 ADD SWAP6 SWAP1 DUP3 ADD SWAP1 PUSH1 0x1 ADD PUSH2 0x158D JUMP JUMPDEST POP SWAP5 SWAP6 SWAP5 POP POP POP POP POP JUMP JUMPDEST PUSH1 0x20 DUP2 MSTORE PUSH1 0x0 PUSH2 0x15D0 PUSH1 0x20 DUP4 ADD DUP5 PUSH2 0x1579 JUMP JUMPDEST SWAP4 SWAP3 POP POP POP JUMP JUMPDEST PUSH4 0x4E487B71 PUSH1 0xE0 SHL PUSH1 0x0 MSTORE PUSH1 0x41 PUSH1 0x4 MSTORE PUSH1 0x24 PUSH1 0x0 REVERT JUMPDEST PUSH1 0x40 DUP1 MLOAD SWAP1 DUP2 ADD PUSH8 0xFFFFFFFFFFFFFFFF DUP2 GT DUP3 DUP3 LT OR ISZERO PUSH2 0x1610 JUMPI PUSH2 0x1610 PUSH2 0x15D7 JUMP JUMPDEST PUSH1 0x40 MSTORE SWAP1 JUMP JUMPDEST PUSH1 0x40 MLOAD PUSH1 0xC0 DUP2 ADD PUSH8 0xFFFFFFFFFFFFFFFF DUP2 GT DUP3 DUP3 LT OR ISZERO PUSH2 0x1610 JUMPI PUSH2 0x1610 PUSH2 0x15D7 JUMP JUMPDEST PUSH1 0x40 MLOAD PUSH1 0x1F DUP3 ADD PUSH1 0x1F NOT AND DUP2 ADD PUSH8 0xFFFFFFFFFFFFFFFF DUP2 GT DUP3 DUP3 LT OR ISZERO PUSH2 0x1662 JUMPI PUSH2 0x1662 PUSH2 0x15D7 JUMP JUMPDEST PUSH1 0x40 MSTORE SWAP2 SWAP1 POP JUMP JUMPDEST PUSH1 0x0 PUSH8 0xFFFFFFFFFFFFFFFF DUP3 GT ISZERO PUSH2 0x1684 JUMPI PUSH2 0x1684 PUSH2 0x15D7 JUMP JUMPDEST POP PUSH1 0x1F ADD PUSH1 0x1F NOT AND PUSH1 0x20 ADD SWAP1 JUMP JUMPDEST PUSH1 0x0 DUP3 PUSH1 0x1F DUP4 ADD SLT PUSH2 0x16A3 JUMPI PUSH1 0x0 DUP1 REVERT JUMPDEST DUP2 CALLDATALOAD PUSH2 0x16B6 PUSH2 0x16B1 DUP3 PUSH2 0x166A JUMP JUMPDEST PUSH2 0x1639 JUMP JUMPDEST DUP2 DUP2 MSTORE DUP5 PUSH1 0x20 DUP4 DUP7 ADD ADD GT ISZERO PUSH2 0x16CB JUMPI PUSH1 0x0 DUP1 REVERT JUMPDEST DUP2 PUSH1 0x20 DUP6 ADD PUSH1 0x20 DUP4 ADD CALLDATACOPY PUSH1 0x0 SWAP2 DUP2 ADD PUSH1 0x20 ADD SWAP2 SWAP1 SWAP2 MSTORE SWAP4 SWAP3 POP POP POP JUMP JUMPDEST PUSH1 0x1 PUSH1 0x1 PUSH1 0xA0 SHL SUB DUP2 AND DUP2 EQ PUSH2 0x1205 JUMPI PUSH1 0x0 DUP1 REVERT JUMPDEST DUP1 CALLDATALOAD PUSH2 0x1708 DUP2 PUSH2 0x16E8 JUMP JUMPDEST SWAP2 SWAP1 POP JUMP JUMPDEST PUSH1 0x0 DUP1 PUSH1 0x0 DUP1 PUSH1 0x0 DUP1 PUSH1 0xC0 DUP8 DUP10 SUB SLT ISZERO PUSH2 0x1726 JUMPI PUSH1 0x0 DUP1 REVERT JUMPDEST DUP7 CALLDATALOAD SWAP6 POP PUSH1 0x20 DUP8 ADD CALLDATALOAD SWAP5 POP PUSH1 0x40 DUP8 ADD CALLDATALOAD PUSH8 0xFFFFFFFFFFFFFFFF DUP1 DUP3 GT ISZERO PUSH2 0x174C JUMPI PUSH1 0x0 DUP1 REVERT JUMPDEST PUSH2 0x1758 DUP11 DUP4 DUP12 ADD PUSH2 0x1692 JUMP JUMPDEST SWAP6 POP PUSH1 0x60 DUP10 ADD CALLDATALOAD SWAP2 POP DUP1 DUP3 GT ISZERO PUSH2 0x176E JUMPI PUSH1 0x0 DUP1 REVERT JUMPDEST SWAP1 DUP9 ADD SWAP1 PUSH1 0x40 DUP3 DUP12 SUB SLT ISZERO PUSH2 0x1782 JUMPI PUSH1 0x0 DUP1 REVERT JUMPDEST PUSH2 0x178A PUSH2 0x15ED JUMP JUMPDEST DUP3 CALLDATALOAD DUP2 MSTORE PUSH1 0x20 DUP4 ADD CALLDATALOAD DUP3 DUP2 GT ISZERO PUSH2 0x17A0 JUMPI PUSH1 0x0 DUP1 REVERT JUMPDEST PUSH2 0x17AC DUP13 DUP3 DUP7 ADD PUSH2 0x1692 JUMP JUMPDEST PUSH1 0x20 DUP4 ADD MSTORE POP SWAP5 POP PUSH2 0x17C0 PUSH1 0x80 DUP11 ADD PUSH2 0x16FD JUMP JUMPDEST SWAP4 POP PUSH1 0xA0 DUP10 ADD CALLDATALOAD SWAP2 POP DUP1 DUP3 GT ISZERO PUSH2 0x17D6 JUMPI PUSH1 0x0 DUP1 REVERT JUMPDEST POP PUSH2 0x17E3 DUP10 DUP3 DUP11 ADD PUSH2 0x1692 JUMP JUMPDEST SWAP2 POP POP SWAP3 SWAP6 POP SWAP3 SWAP6 POP SWAP3 SWAP6 JUMP JUMPDEST PUSH1 0x0 DUP1 PUSH1 0x40 DUP4 DUP6 SUB SLT ISZERO PUSH2 0x1803 JUMPI PUSH1 0x0 DUP1 REVERT JUMPDEST DUP3 CALLDATALOAD SWAP2 POP PUSH1 0x20 DUP4 ADD CALLDATALOAD PUSH2 0x1815 DUP2 PUSH2 0x16E8 JUMP JUMPDEST DUP1 SWAP2 POP POP SWAP3 POP SWAP3 SWAP1 POP JUMP JUMPDEST PUSH1 0x0 JUMPDEST DUP4 DUP2 LT ISZERO PUSH2 0x183B JUMPI DUP2 DUP2 ADD MLOAD DUP4 DUP3 ADD MSTORE PUSH1 0x20 ADD PUSH2 0x1823 JUMP JUMPDEST POP POP PUSH1 0x0 SWAP2 ADD MSTORE JUMP JUMPDEST PUSH1 0x0 DUP2 MLOAD DUP1 DUP5 MSTORE PUSH2 0x185C DUP2 PUSH1 0x20 DUP7 ADD PUSH1 0x20 DUP7 ADD PUSH2 0x1820 JUMP JUMPDEST PUSH1 0x1F ADD PUSH1 0x1F NOT AND SWAP3 SWAP1 SWAP3 ADD PUSH1 0x20 ADD SWAP3 SWAP2 POP POP JUMP JUMPDEST PUSH1 0x20 DUP2 MSTORE DUP2 MLOAD PUSH1 0x20 DUP3 ADD MSTORE PUSH1 0x20 DUP3 ADD MLOAD PUSH1 0x40 DUP3 ADD MSTORE PUSH1 0x0 PUSH1 0x40 DUP4 ADD MLOAD PUSH1 0x80 PUSH1 0x60 DUP5 ADD MSTORE PUSH2 0x18A0 PUSH1 0xA0 DUP5 ADD DUP3 PUSH2 0x1844 JUMP JUMPDEST SWAP1 POP PUSH1 0x60 DUP5 ADD MLOAD PUSH1 0x1F NOT DUP5 DUP4 SUB ADD PUSH1 0x80 DUP6 ADD MSTORE PUSH2 0x18BD DUP3 DUP3 PUSH2 0x1844 JUMP JUMPDEST SWAP6 SWAP5 POP POP POP POP POP JUMP JUMPDEST PUSH1 0x20 DUP1 DUP3 MSTORE DUP3 MLOAD DUP3 DUP3 ADD DUP2 SWAP1 MSTORE PUSH1 0x0 SWAP2 SWAP1 DUP5 DUP3 ADD SWAP1 PUSH1 0x40 DUP6 ADD SWAP1 DUP5 JUMPDEST DUP2 DUP2 LT ISZERO PUSH2 0x18FE JUMPI DUP4 MLOAD DUP4 MSTORE SWAP3 DUP5 ADD SWAP3 SWAP2 DUP5 ADD SWAP2 PUSH1 0x1 ADD PUSH2 0x18E2 JUMP JUMPDEST POP SWAP1 SWAP7 SWAP6 POP POP POP POP POP POP JUMP JUMPDEST DUP1 MLOAD DUP3 MSTORE PUSH1 0x0 PUSH1 0x20 DUP3 ADD MLOAD PUSH1 0x40 PUSH1 0x20 DUP6 ADD MSTORE PUSH2 0x1929 PUSH1 0x40 DUP6 ADD DUP3 PUSH2 0x1844 JUMP JUMPDEST SWAP5 SWAP4 POP POP POP POP JUMP JUMPDEST PUSH1 0x20 DUP2 MSTORE DUP2 MLOAD PUSH1 0x20 DUP3 ADD MSTORE PUSH1 0x20 DUP3 ADD MLOAD PUSH1 0x40 DUP3 ADD MSTORE PUSH1 0x0 PUSH1 0x40 DUP4 ADD MLOAD PUSH1 0xC0 PUSH1 0x60 DUP5 ADD MSTORE PUSH2 0x1961 PUSH1 0xE0 DUP5 ADD DUP3 PUSH2 0x1844 JUMP JUMPDEST SWAP1 POP PUSH1 0x60 DUP5 ADD MLOAD PUSH1 0x1F NOT DUP5 DUP4 SUB ADD PUSH1 0x80 DUP6 ADD MSTORE PUSH2 0x197E DUP3 DUP3 PUSH2 0x190A JUMP JUMPDEST PUSH1 0x80 DUP7 ADD MLOAD PUSH1 0x1 PUSH1 0x1 PUSH1 0xA0 SHL SUB SWAP1 DUP2 AND PUSH1 0xA0 DUP8 DUP2 ADD SWAP2 SWAP1 SWAP2 MSTORE SWAP1 SWAP7 ADD MLOAD SWAP1 SWAP6 AND PUSH1 0xC0 SWAP1 SWAP5 ADD SWAP4 SWAP1 SWAP4 MSTORE POP SWAP2 SWAP3 SWAP2 POP POP JUMP JUMPDEST PUSH4 0x4E487B71 PUSH1 0xE0 SHL PUSH1 0x0 MSTORE PUSH1 0x11 PUSH1 0x4 MSTORE PUSH1 0x24 PUSH1 0x0 REVERT JUMPDEST DUP1 DUP3 ADD DUP1 DUP3 GT ISZERO PUSH2 0xCA3 JUMPI PUSH2 0xCA3 PUSH2 0x19AF JUMP JUMPDEST PUSH4 0x4E487B71 PUSH1 0xE0 SHL PUSH1 0x0 MSTORE PUSH1 0x32 PUSH1 0x4 MSTORE PUSH1 0x24 PUSH1 0x0 REVERT JUMPDEST PUSH1 0x0 PUSH1 0x1 DUP3 ADD PUSH2 0x1A00 JUMPI PUSH2 0x1A00 PUSH2 0x19AF JUMP JUMPDEST POP PUSH1 0x1 ADD SWAP1 JUMP JUMPDEST PUSH1 0x0 PUSH1 0x20 DUP1 DUP4 MSTORE PUSH1 0xA0 DUP4 ADD DUP5 MLOAD ISZERO ISZERO DUP3 DUP6 ADD MSTORE DUP2 DUP6 ADD MLOAD PUSH1 0x40 DUP2 ISZERO ISZERO DUP2 DUP8 ADD MSTORE DUP1 DUP8 ADD MLOAD ISZERO ISZERO PUSH1 0x60 DUP8 ADD MSTORE PUSH1 0x60 DUP8 ADD MLOAD SWAP2 POP PUSH1 0x80 DUP1 DUP8 ADD MSTORE DUP3 DUP3 MLOAD DUP1 DUP6 MSTORE PUSH1 0xC0 DUP9 ADD SWAP2 POP DUP6 DUP5 ADD SWAP5 POP PUSH1 0x0 SWAP4 POP JUMPDEST DUP1 DUP5 LT ISZERO PUSH2 0x1A87 JUMPI DUP5 MLOAD DUP1 MLOAD PUSH1 0x1 PUSH1 0x1 PUSH1 0xA0 SHL SUB AND DUP4 MSTORE DUP7 ADD MLOAD DUP7 DUP4 ADD MSTORE SWAP4 DUP6 ADD SWAP4 PUSH1 0x1 SWAP4 SWAP1 SWAP4 ADD SWAP3 SWAP1 DUP3 ADD SWAP1 PUSH2 0x1A55 JUMP JUMPDEST POP SWAP8 SWAP7 POP POP POP POP POP POP POP JUMP JUMPDEST DUP1 MLOAD PUSH2 0x1708 DUP2 PUSH2 0x16E8 JUMP JUMPDEST PUSH1 0x0 PUSH1 0x20 DUP3 DUP5 SUB SLT ISZERO PUSH2 0x1AB0 JUMPI PUSH1 0x0 DUP1 REVERT JUMPDEST DUP2 MLOAD PUSH2 0x15D0 DUP2 PUSH2 0x16E8 JUMP JUMPDEST DUP8 DUP2 MSTORE PUSH1 0x0 PUSH1 0x1 DUP1 PUSH1 0xA0 SHL SUB DUP1 DUP10 AND PUSH1 0x20 DUP5 ADD MSTORE PUSH1 0xE0 PUSH1 0x40 DUP5 ADD MSTORE PUSH2 0x1AE3 PUSH1 0xE0 DUP5 ADD DUP10 PUSH2 0x1844 JUMP JUMPDEST DUP2 DUP9 AND PUSH1 0x60 DUP6 ADD MSTORE DUP7 PUSH1 0x80 DUP6 ADD MSTORE DUP4 DUP2 SUB PUSH1 0xA0 DUP6 ADD MSTORE PUSH2 0x1B03 DUP2 DUP8 PUSH2 0x190A JUMP JUMPDEST SWAP2 POP POP DUP3 DUP2 SUB PUSH1 0xC0 DUP5 ADD MSTORE PUSH2 0x1B18 DUP2 DUP6 PUSH2 0x1579 JUMP JUMPDEST SWAP11 SWAP10 POP POP POP POP POP POP POP POP POP POP JUMP JUMPDEST PUSH1 0x0 PUSH1 0x20 DUP3 DUP5 SUB SLT ISZERO PUSH2 0x1B38 JUMPI PUSH1 0x0 DUP1 REVERT JUMPDEST POP MLOAD SWAP2 SWAP1 POP JUMP JUMPDEST PUSH1 0x1 PUSH1 0x1 PUSH1 0xA0 SHL SUB DUP6 DUP2 AND DUP3 MSTORE DUP5 AND PUSH1 0x20 DUP3 ADD MSTORE PUSH1 0x40 DUP2 ADD DUP4 SWAP1 MSTORE PUSH1 0x80 PUSH1 0x60 DUP3 ADD DUP2 SWAP1 MSTORE PUSH1 0x0 SWAP1 PUSH2 0x1B72 SWAP1 DUP4 ADD DUP5 PUSH2 0x190A JUMP JUMPDEST SWAP7 SWAP6 POP POP POP POP POP POP JUMP JUMPDEST DUP3 DUP2 MSTORE PUSH1 0x40 PUSH1 0x20 DUP3 ADD MSTORE PUSH1 0x0 PUSH2 0x1929 PUSH1 0x40 DUP4 ADD DUP5 PUSH2 0x1844 JUMP JUMPDEST DUP6 DUP2 MSTORE PUSH1 0xA0 PUSH1 0x20 DUP3 ADD MSTORE PUSH1 0x0 PUSH2 0x1BAE PUSH1 0xA0 DUP4 ADD DUP8 PUSH2 0x1844 JUMP JUMPDEST DUP3 DUP2 SUB PUSH1 0x40 DUP5 ADD MSTORE PUSH2 0x1BC0 DUP2 DUP8 PUSH2 0x190A JUMP JUMPDEST PUSH1 0x1 PUSH1 0x1 PUSH1 0xA0 SHL SUB DUP7 AND PUSH1 0x60 DUP6 ADD MSTORE DUP4 DUP2 SUB PUSH1 0x80 DUP6 ADD MSTORE SWAP1 POP PUSH2 0x1BE3 DUP2 DUP6 PUSH2 0x1579 JUMP JUMPDEST SWAP9 SWAP8 POP POP POP POP POP POP POP POP JUMP JUMPDEST PUSH1 0x1 DUP2 DUP2 SHR SWAP1 DUP3 AND DUP1 PUSH2 0x1C03 JUMPI PUSH1 0x7F DUP3 AND SWAP2 POP JUMPDEST PUSH1 0x20 DUP3 LT DUP2 SUB PUSH2 0x1C23 JUMPI PUSH4 0x4E487B71 PUSH1 0xE0 SHL PUSH1 0x0 MSTORE PUSH1 0x22 PUSH1 0x4 MSTORE PUSH1 0x24 PUSH1 0x0 REVERT JUMPDEST POP SWAP2 SWAP1 POP JUMP JUMPDEST PUSH1 0x1F DUP3 GT ISZERO PUSH2 0x13D4 JUMPI PUSH1 0x0 DUP2 DUP2 MSTORE PUSH1 0x20 DUP2 KECCAK256 PUSH1 0x1F DUP6 ADD PUSH1 0x5 SHR DUP2 ADD PUSH1 0x20 DUP7 LT ISZERO PUSH2 0x1C50 JUMPI POP DUP1 JUMPDEST PUSH1 0x1F DUP6 ADD PUSH1 0x5 SHR DUP3 ADD SWAP2 POP JUMPDEST DUP2 DUP2 LT ISZERO PUSH2 0x1C6F JUMPI DUP3 DUP2 SSTORE PUSH1 0x1 ADD PUSH2 0x1C5C JUMP JUMPDEST POP POP POP POP POP POP JUMP JUMPDEST DUP2 MLOAD PUSH8 0xFFFFFFFFFFFFFFFF DUP2 GT ISZERO PUSH2 0x1C91 JUMPI PUSH2 0x1C91 PUSH2 0x15D7 JUMP JUMPDEST PUSH2 0x1CA5 DUP2 PUSH2 0x1C9F DUP5 SLOAD PUSH2 0x1BEF JUMP JUMPDEST DUP5 PUSH2 0x1C29 JUMP JUMPDEST PUSH1 0x20 DUP1 PUSH1 0x1F DUP4 GT PUSH1 0x1 DUP2 EQ PUSH2 0x1CDA JUMPI PUSH1 0x0 DUP5 ISZERO PUSH2 0x1CC2 JUMPI POP DUP6 DUP4 ADD MLOAD JUMPDEST PUSH1 0x0 NOT PUSH1 0x3 DUP7 SWAP1 SHL SHR NOT AND PUSH1 0x1 DUP6 SWAP1 SHL OR DUP6 SSTORE PUSH2 0x1C6F JUMP JUMPDEST PUSH1 0x0 DUP6 DUP2 MSTORE PUSH1 0x20 DUP2 KECCAK256 PUSH1 0x1F NOT DUP7 AND SWAP2 JUMPDEST DUP3 DUP2 LT ISZERO PUSH2 0x1D09 JUMPI DUP9 DUP7 ADD MLOAD DUP3 SSTORE SWAP5 DUP5 ADD SWAP5 PUSH1 0x1 SWAP1 SWAP2 ADD SWAP1 DUP5 ADD PUSH2 0x1CEA JUMP JUMPDEST POP DUP6 DUP3 LT ISZERO PUSH2 0x1D27 JUMPI DUP8 DUP6 ADD MLOAD PUSH1 0x0 NOT PUSH1 0x3 DUP9 SWAP1 SHL PUSH1 0xF8 AND SHR NOT AND DUP2 SSTORE JUMPDEST POP POP POP POP POP PUSH1 0x1 SWAP1 DUP2 SHL ADD SWAP1 SSTORE POP JUMP JUMPDEST PUSH1 0x0 DUP3 PUSH1 0x1F DUP4 ADD SLT PUSH2 0x1D48 JUMPI PUSH1 0x0 DUP1 REVERT JUMPDEST DUP2 MLOAD PUSH2 0x1D56 PUSH2 0x16B1 DUP3 PUSH2 0x166A JUMP JUMPDEST DUP2 DUP2 MSTORE DUP5 PUSH1 0x20 DUP4 DUP7 ADD ADD GT ISZERO PUSH2 0x1D6B JUMPI PUSH1 0x0 DUP1 REVERT JUMPDEST PUSH2 0x1929 DUP3 PUSH1 0x20 DUP4 ADD PUSH1 0x20 DUP8 ADD PUSH2 0x1820 JUMP JUMPDEST PUSH1 0x0 PUSH1 0x40 DUP3 DUP5 SUB SLT ISZERO PUSH2 0x1D8E JUMPI PUSH1 0x0 DUP1 REVERT JUMPDEST PUSH2 0x1D96 PUSH2 0x15ED JUMP JUMPDEST SWAP1 POP DUP2 MLOAD DUP2 MSTORE PUSH1 0x20 DUP3 ADD MLOAD PUSH8 0xFFFFFFFFFFFFFFFF DUP2 GT ISZERO PUSH2 0x1DB6 JUMPI PUSH1 0x0 DUP1 REVERT JUMPDEST PUSH2 0x1DC2 DUP5 DUP3 DUP6 ADD PUSH2 0x1D37 JUMP JUMPDEST PUSH1 0x20 DUP4 ADD MSTORE POP SWAP3 SWAP2 POP POP JUMP JUMPDEST PUSH1 0x0 PUSH1 0x20 DUP3 DUP5 SUB SLT ISZERO PUSH2 0x1DE0 JUMPI PUSH1 0x0 DUP1 REVERT JUMPDEST DUP2 MLOAD PUSH8 0xFFFFFFFFFFFFFFFF DUP1 DUP3 GT ISZERO PUSH2 0x1DF8 JUMPI PUSH1 0x0 DUP1 REVERT JUMPDEST SWAP1 DUP4 ADD SWAP1 PUSH1 0xC0 DUP3 DUP7 SUB SLT ISZERO PUSH2 0x1E0C JUMPI PUSH1 0x0 DUP1 REVERT JUMPDEST PUSH2 0x1E14 PUSH2 0x1616 JUMP JUMPDEST DUP3 MLOAD DUP2 MSTORE PUSH1 0x20 DUP4 ADD MLOAD PUSH1 0x20 DUP3 ADD MSTORE PUSH1 0x40 DUP4 ADD MLOAD DUP3 DUP2 GT ISZERO PUSH2 0x1E34 JUMPI PUSH1 0x0 DUP1 REVERT JUMPDEST PUSH2 0x1E40 DUP8 DUP3 DUP7 ADD PUSH2 0x1D37 JUMP JUMPDEST PUSH1 0x40 DUP4 ADD MSTORE POP PUSH1 0x60 DUP4 ADD MLOAD DUP3 DUP2 GT ISZERO PUSH2 0x1E58 JUMPI PUSH1 0x0 DUP1 REVERT JUMPDEST PUSH2 0x1E64 DUP8 DUP3 DUP7 ADD PUSH2 0x1D7C JUMP JUMPDEST PUSH1 0x60 DUP4 ADD MSTORE POP PUSH2 0x1E76 PUSH1 0x80 DUP5 ADD PUSH2 0x1A93 JUMP JUMPDEST PUSH1 0x80 DUP3 ADD MSTORE PUSH2 0x1E87 PUSH1 0xA0 DUP5 ADD PUSH2 0x1A93 JUMP JUMPDEST PUSH1 0xA0 DUP3 ADD MSTORE SWAP6 SWAP5 POP POP POP POP POP JUMP JUMPDEST DUP2 DUP2 SUB DUP2 DUP2 GT ISZERO PUSH2 0xCA3 JUMPI PUSH2 0xCA3 PUSH2 0x19AF JUMP JUMPDEST PUSH1 0x40 DUP2 MSTORE PUSH1 0x0 PUSH2 0x1EBB PUSH1 0x40 DUP4 ADD DUP6 PUSH2 0x1844 JUMP JUMPDEST SWAP1 POP DUP3 PUSH1 0x20 DUP4 ADD MSTORE SWAP4 SWAP3 POP POP POP JUMP INVALID LOG2 PUSH5 0x6970667358 0x22 SLT KECCAK256 EXTCODESIZE SWAP14 GAS 0xBD CREATE PUSH21 0x82A805E361A8B2CD1A0EF7BDA2A5F3F02C003A19FF 0xB6 BLOCKHASH PUSH7 0xE3C764736F6C63 NUMBER STOP ADDMOD EQ STOP CALLER "},"methodIdentifiers":{"NATIVE()":"a0cf0aea","_projectExists(bytes32)":"c42b06f0","getProfile(bytes32)":"b50991b4","getProfiles()":"b2137033","getProjectExecutor(bytes32)":"df06c273","getProjectPool(bytes32)":"16e46f68","getProjectStrategy(bytes32)":"5d5bba3f","getProjectSupplierById(bytes32,address)":"8d363831","getProjectSuppliers(bytes32)":"6617dd66","getProjectSupply(bytes32)":"94a8fb4a","hatsContract()":"97e39fef","registerProject(uint256,uint256,string,(uint256,string),address,string)":"7144e4b5","revokeProjectSupply(bytes32)":"d1de78e4","supplyProject(bytes32,uint256)":"40f1ab98"}}}}}