{
  "_format": "hh-sol-artifact-1",
  "contractName": "TestContract",
  "sourceName": "contracts/TestContract.sol",
  "abi": [
    {
      "inputs": [],
      "stateMutability": "nonpayable",
      "type": "constructor"
    },
    {
      "inputs": [
        {
          "internalType": "uint256",
          "name": "_poolId",
          "type": "uint256"
        },
        {
          "internalType": "address",
          "name": "_recipientId",
          "type": "address"
        },
        {
          "internalType": "enum TestContract.Status",
          "name": "_recipientStatus",
          "type": "uint8"
        },
        {
          "internalType": "uint256",
          "name": "_grantAmount",
          "type": "uint256"
        }
      ],
      "name": "allocateFundsToRecipient",
      "outputs": [],
      "stateMutability": "nonpayable",
      "type": "function"
    },
    {
      "inputs": [
        {
          "internalType": "bytes32",
          "name": "_profileId",
          "type": "bytes32"
        },
        {
          "internalType": "address",
          "name": "_strategy",
          "type": "address"
        },
        {
          "internalType": "address",
          "name": "_token",
          "type": "address"
        },
        {
          "internalType": "uint256",
          "name": "_amount",
          "type": "uint256"
        },
        {
          "components": [
            {
              "internalType": "uint256",
              "name": "protocol",
              "type": "uint256"
            },
            {
              "internalType": "string",
              "name": "pointer",
              "type": "string"
            }
          ],
          "internalType": "struct Metadata",
          "name": "_metadata",
          "type": "tuple"
        },
        {
          "internalType": "address[]",
          "name": "_managers",
          "type": "address[]"
        }
      ],
      "name": "createPoolForDirectGrants",
      "outputs": [
        {
          "internalType": "uint256",
          "name": "",
          "type": "uint256"
        }
      ],
      "stateMutability": "payable",
      "type": "function"
    },
    {
      "inputs": [
        {
          "internalType": "uint256",
          "name": "_nonce",
          "type": "uint256"
        },
        {
          "internalType": "string",
          "name": "_name",
          "type": "string"
        },
        {
          "components": [
            {
              "internalType": "uint256",
              "name": "protocol",
              "type": "uint256"
            },
            {
              "internalType": "string",
              "name": "pointer",
              "type": "string"
            }
          ],
          "internalType": "struct Metadata",
          "name": "_metadata",
          "type": "tuple"
        },
        {
          "internalType": "address",
          "name": "_owner",
          "type": "address"
        },
        {
          "internalType": "address[]",
          "name": "_members",
          "type": "address[]"
        }
      ],
      "name": "createProfile",
      "outputs": [
        {
          "internalType": "bytes32",
          "name": "profileId",
          "type": "bytes32"
        }
      ],
      "stateMutability": "nonpayable",
      "type": "function"
    },
    {
      "inputs": [
        {
          "internalType": "uint256",
          "name": "_poolId",
          "type": "uint256"
        },
        {
          "internalType": "address[]",
          "name": "_recipientIds",
          "type": "address[]"
        }
      ],
      "name": "distributeFundsToRecipient",
      "outputs": [],
      "stateMutability": "nonpayable",
      "type": "function"
    },
    {
      "inputs": [],
      "name": "getAlloRegistry",
      "outputs": [
        {
          "internalType": "contract IRegistry",
          "name": "",
          "type": "address"
        }
      ],
      "stateMutability": "view",
      "type": "function"
    },
    {
      "inputs": [
        {
          "internalType": "bytes32",
          "name": "profileId",
          "type": "bytes32"
        }
      ],
      "name": "getProfile",
      "outputs": [
        {
          "components": [
            {
              "internalType": "bytes32",
              "name": "id",
              "type": "bytes32"
            },
            {
              "internalType": "uint256",
              "name": "nonce",
              "type": "uint256"
            },
            {
              "internalType": "string",
              "name": "name",
              "type": "string"
            },
            {
              "components": [
                {
                  "internalType": "uint256",
                  "name": "protocol",
                  "type": "uint256"
                },
                {
                  "internalType": "string",
                  "name": "pointer",
                  "type": "string"
                }
              ],
              "internalType": "struct Metadata",
              "name": "metadata",
              "type": "tuple"
            },
            {
              "internalType": "address",
              "name": "owner",
              "type": "address"
            },
            {
              "internalType": "address",
              "name": "anchor",
              "type": "address"
            }
          ],
          "internalType": "struct IRegistry.Profile",
          "name": "",
          "type": "tuple"
        }
      ],
      "stateMutability": "view",
      "type": "function"
    },
    {
      "inputs": [
        {
          "internalType": "uint256",
          "name": "_poolId",
          "type": "uint256"
        },
        {
          "internalType": "address",
          "name": "_recipientAddress",
          "type": "address"
        },
        {
          "internalType": "address",
          "name": "_registryAnchor",
          "type": "address"
        },
        {
          "internalType": "uint256",
          "name": "_grantAmount",
          "type": "uint256"
        },
        {
          "components": [
            {
              "internalType": "uint256",
              "name": "protocol",
              "type": "uint256"
            },
            {
              "internalType": "string",
              "name": "pointer",
              "type": "string"
            }
          ],
          "internalType": "struct Metadata",
          "name": "_metadata",
          "type": "tuple"
        }
      ],
      "name": "registerRecipient",
      "outputs": [
        {
          "internalType": "address",
          "name": "recipientId",
          "type": "address"
        }
      ],
      "stateMutability": "nonpayable",
      "type": "function"
    },
    {
      "inputs": [
        {
          "internalType": "uint256",
          "name": "_poolId",
          "type": "uint256"
        },
        {
          "internalType": "uint256",
          "name": "_amount",
          "type": "uint256"
        }
      ],
      "name": "supplyPool",
      "outputs": [],
      "stateMutability": "payable",
      "type": "function"
    },
    {
      "stateMutability": "payable",
      "type": "receive"
    }
  ],
  "bytecode": "0x608060405234801561001057600080fd5b506000734aacca72145e1df2aec137e1f3c5e3d75db8b5f39050806000806101000a81548173ffffffffffffffffffffffffffffffffffffffff021916908373ffffffffffffffffffffffffffffffffffffffff1602179055506000731133ea7af70876e64665ecd07c0a0476d09465a1905080600160006101000a81548173ffffffffffffffffffffffffffffffffffffffff021916908373ffffffffffffffffffffffffffffffffffffffff1602179055505050611a70806100d56000396000f3fe60806040526004361061007f5760003560e01c80639bd55ad01161004e5780639bd55ad01461013d578063b50991b414610168578063cd5b4225146101a5578063dcc9b8f2146101ce57610086565b80631ba53b191461008b57806336a27abb146100bb5780633a92f65f146100e45780635b6c87e31461012157610086565b3661008657005b600080fd5b6100a560048036038101906100a09190610c06565b61020b565b6040516100b29190610cda565b60405180910390f35b3480156100c757600080fd5b506100e260048036038101906100dd9190610d1a565b610311565b005b3480156100f057600080fd5b5061010b60048036038101906101069190610d81565b6103cf565b6040516101189190610e5f565b60405180910390f35b61013b60048036038101906101369190610e7a565b610481565b005b34801561014957600080fd5b50610152610558565b60405161015f9190610f19565b60405180910390f35b34801561017457600080fd5b5061018f600480360381019061018a9190610f34565b6105f0565b60405161019c91906110da565b60405180910390f35b3480156101b157600080fd5b506101cc60048036038101906101c791906110fc565b61069e565b005b3480156101da57600080fd5b506101f560048036038101906101f09190611158565b610748565b60405161020291906111fe565b60405180910390f35b60008060405180606001604052806000151581526020016000151581526020016000151581525090506000816040516020016102479190611276565b6040516020818303038152906040529050600160009054906101000a900473ffffffffffffffffffffffffffffffffffffffff1673ffffffffffffffffffffffffffffffffffffffff1663e1007d4a348b8b858c8c8c8c6040518963ffffffff1660e01b81526004016102c097969594939291906113d2565b60206040518083038185885af11580156102de573d6000803e3d6000fd5b50505050506040513d601f19601f82011682018060405250810190610303919061146b565b925050509695505050505050565b60008383836040516020016103289392919061150f565b6040516020818303038152906040529050600160009054906101000a900473ffffffffffffffffffffffffffffffffffffffff1673ffffffffffffffffffffffffffffffffffffffff16632ec3818886836040518363ffffffff1660e01b8152600401610396929190611546565b600060405180830381600087803b1580156103b057600080fd5b505af11580156103c4573d6000803e3d6000fd5b505050505050505050565b60008060009054906101000a900473ffffffffffffffffffffffffffffffffffffffff1673ffffffffffffffffffffffffffffffffffffffff16633a92f65f87878787876040518663ffffffff1660e01b81526004016104339594939291906115c0565b6020604051808303816000875af1158015610452573d6000803e3d6000fd5b505050506040513d601f19601f82011682018060405250810190610476919061163d565b905095945050505050565b804710156104c4576040517f08c379a00000000000000000000000000000000000000000000000000000000081526004016104bb906116b6565b60405180910390fd5b600160009054906101000a900473ffffffffffffffffffffffffffffffffffffffff1673ffffffffffffffffffffffffffffffffffffffff16635acd6fac8284846040518463ffffffff1660e01b81526004016105229291906116d6565b6000604051808303818588803b15801561053b57600080fd5b505af115801561054f573d6000803e3d6000fd5b50505050505050565b6000600160009054906101000a900473ffffffffffffffffffffffffffffffffffffffff1673ffffffffffffffffffffffffffffffffffffffff16635ab1bd536040518163ffffffff1660e01b8152600401602060405180830381865afa1580156105c7573d6000803e3d6000fd5b505050506040513d601f19601f820116820180604052508101906105eb919061173d565b905090565b6105f861081f565b60008054906101000a900473ffffffffffffffffffffffffffffffffffffffff1673ffffffffffffffffffffffffffffffffffffffff16630114cf0a836040518263ffffffff1660e01b81526004016106519190610e5f565b600060405180830381865afa15801561066e573d6000803e3d6000fd5b505050506040513d6000823e3d601f19601f820116820180604052508101906106979190611933565b9050919050565b6000604051806020016040528060008152509050600160009054906101000a900473ffffffffffffffffffffffffffffffffffffffff1673ffffffffffffffffffffffffffffffffffffffff16633a5fbd928484846040518463ffffffff1660e01b81526004016107119392919061197c565b600060405180830381600087803b15801561072b57600080fd5b505af115801561073f573d6000803e3d6000fd5b50505050505050565b6000808585858560405160200161076294939291906119c1565b6040516020818303038152906040529050600160009054906101000a900473ffffffffffffffffffffffffffffffffffffffff1673ffffffffffffffffffffffffffffffffffffffff1663075c0e9c88836040518363ffffffff1660e01b81526004016107d0929190611546565b6020604051808303816000875af11580156107ef573d6000803e3d6000fd5b505050506040513d601f19601f820116820180604052508101906108139190611a0d565b91505095945050505050565b6040518060c0016040528060008019168152602001600081526020016060815260200161084a61088a565b8152602001600073ffffffffffffffffffffffffffffffffffffffff168152602001600073ffffffffffffffffffffffffffffffffffffffff1681525090565b604051806040016040528060008152602001606081525090565b6000604051905090565b600080fd5b600080fd5b6000819050919050565b6108cb816108b8565b81146108d657600080fd5b50565b6000813590506108e8816108c2565b92915050565b600073ffffffffffffffffffffffffffffffffffffffff82169050919050565b6000610919826108ee565b9050919050565b6109298161090e565b811461093457600080fd5b50565b60008135905061094681610920565b92915050565b6000819050919050565b61095f8161094c565b811461096a57600080fd5b50565b60008135905061097c81610956565b92915050565b600080fd5b6000601f19601f8301169050919050565b7f4e487b7100000000000000000000000000000000000000000000000000000000600052604160045260246000fd5b6109d082610987565b810181811067ffffffffffffffff821117156109ef576109ee610998565b5b80604052505050565b6000610a026108a4565b9050610a0e82826109c7565b919050565b600080fd5b600080fd5b600080fd5b600067ffffffffffffffff821115610a3d57610a3c610998565b5b610a4682610987565b9050602081019050919050565b82818337600083830152505050565b6000610a75610a7084610a22565b6109f8565b905082815260208101848484011115610a9157610a90610a1d565b5b610a9c848285610a53565b509392505050565b600082601f830112610ab957610ab8610a18565b5b8135610ac9848260208601610a62565b91505092915050565b600060408284031215610ae857610ae7610982565b5b610af260406109f8565b90506000610b028482850161096d565b600083015250602082013567ffffffffffffffff811115610b2657610b25610a13565b5b610b3284828501610aa4565b60208301525092915050565b600067ffffffffffffffff821115610b5957610b58610998565b5b602082029050602081019050919050565b600080fd5b6000610b82610b7d84610b3e565b6109f8565b90508083825260208201905060208402830185811115610ba557610ba4610b6a565b5b835b81811015610bce5780610bba8882610937565b845260208401935050602081019050610ba7565b5050509392505050565b600082601f830112610bed57610bec610a18565b5b8135610bfd848260208601610b6f565b91505092915050565b60008060008060008060c08789031215610c2357610c226108ae565b5b6000610c3189828a016108d9565b9650506020610c4289828a01610937565b9550506040610c5389828a01610937565b9450506060610c6489828a0161096d565b935050608087013567ffffffffffffffff811115610c8557610c846108b3565b5b610c9189828a01610ad2565b92505060a087013567ffffffffffffffff811115610cb257610cb16108b3565b5b610cbe89828a01610bd8565b9150509295509295509295565b610cd48161094c565b82525050565b6000602082019050610cef6000830184610ccb565b92915050565b60078110610d0257600080fd5b50565b600081359050610d1481610cf5565b92915050565b60008060008060808587031215610d3457610d336108ae565b5b6000610d428782880161096d565b9450506020610d5387828801610937565b9350506040610d6487828801610d05565b9250506060610d758782880161096d565b91505092959194509250565b600080600080600060a08688031215610d9d57610d9c6108ae565b5b6000610dab8882890161096d565b955050602086013567ffffffffffffffff811115610dcc57610dcb6108b3565b5b610dd888828901610aa4565b945050604086013567ffffffffffffffff811115610df957610df86108b3565b5b610e0588828901610ad2565b9350506060610e1688828901610937565b925050608086013567ffffffffffffffff811115610e3757610e366108b3565b5b610e4388828901610bd8565b9150509295509295909350565b610e59816108b8565b82525050565b6000602082019050610e746000830184610e50565b92915050565b60008060408385031215610e9157610e906108ae565b5b6000610e9f8582860161096d565b9250506020610eb08582860161096d565b9150509250929050565b6000819050919050565b6000610edf610eda610ed5846108ee565b610eba565b6108ee565b9050919050565b6000610ef182610ec4565b9050919050565b6000610f0382610ee6565b9050919050565b610f1381610ef8565b82525050565b6000602082019050610f2e6000830184610f0a565b92915050565b600060208284031215610f4a57610f496108ae565b5b6000610f58848285016108d9565b91505092915050565b610f6a816108b8565b82525050565b610f798161094c565b82525050565b600081519050919050565b600082825260208201905092915050565b60005b83811015610fb9578082015181840152602081019050610f9e565b60008484015250505050565b6000610fd082610f7f565b610fda8185610f8a565b9350610fea818560208601610f9b565b610ff381610987565b840191505092915050565b60006040830160008301516110166000860182610f70565b506020830151848203602086015261102e8282610fc5565b9150508091505092915050565b6110448161090e565b82525050565b600060c0830160008301516110626000860182610f61565b5060208301516110756020860182610f70565b506040830151848203604086015261108d8282610fc5565b915050606083015184820360608601526110a78282610ffe565b91505060808301516110bc608086018261103b565b5060a08301516110cf60a086018261103b565b508091505092915050565b600060208201905081810360008301526110f4818461104a565b905092915050565b60008060408385031215611113576111126108ae565b5b60006111218582860161096d565b925050602083013567ffffffffffffffff811115611142576111416108b3565b5b61114e85828601610bd8565b9150509250929050565b600080600080600060a08688031215611174576111736108ae565b5b60006111828882890161096d565b955050602061119388828901610937565b94505060406111a488828901610937565b93505060606111b58882890161096d565b925050608086013567ffffffffffffffff8111156111d6576111d56108b3565b5b6111e288828901610ad2565b9150509295509295909350565b6111f88161090e565b82525050565b600060208201905061121360008301846111ef565b92915050565b60008115159050919050565b61122e81611219565b82525050565b60608201600082015161124a6000850182611225565b50602082015161125d6020850182611225565b5060408201516112706040850182611225565b50505050565b600060608201905061128b6000830184611234565b92915050565b600081519050919050565b600082825260208201905092915050565b60006112b882611291565b6112c2818561129c565b93506112d2818560208601610f9b565b6112db81610987565b840191505092915050565b60006040830160008301516112fe6000860182610f70565b50602083015184820360208601526113168282610fc5565b9150508091505092915050565b600081519050919050565b600082825260208201905092915050565b6000819050602082019050919050565b600061135b838361103b565b60208301905092915050565b6000602082019050919050565b600061137f82611323565b611389818561132e565b93506113948361133f565b8060005b838110156113c55781516113ac888261134f565b97506113b783611367565b925050600181019050611398565b5085935050505092915050565b600060e0820190506113e7600083018a610e50565b6113f460208301896111ef565b818103604083015261140681886112ad565b905061141560608301876111ef565b6114226080830186610ccb565b81810360a083015261143481856112e6565b905081810360c08301526114488184611374565b905098975050505050505050565b60008151905061146581610956565b92915050565b600060208284031215611481576114806108ae565b5b600061148f84828501611456565b91505092915050565b7f4e487b7100000000000000000000000000000000000000000000000000000000600052602160045260246000fd5b600781106114d8576114d7611498565b5b50565b60008190506114e9826114c7565b919050565b60006114f9826114db565b9050919050565b611509816114ee565b82525050565b600060608201905061152460008301866111ef565b6115316020830185611500565b61153e6040830184610ccb565b949350505050565b600060408201905061155b6000830185610ccb565b818103602083015261156d81846112ad565b90509392505050565b600082825260208201905092915050565b600061159282610f7f565b61159c8185611576565b93506115ac818560208601610f9b565b6115b581610987565b840191505092915050565b600060a0820190506115d56000830188610ccb565b81810360208301526115e78187611587565b905081810360408301526115fb81866112e6565b905061160a60608301856111ef565b818103608083015261161c8184611374565b90509695505050505050565b600081519050611637816108c2565b92915050565b600060208284031215611653576116526108ae565b5b600061166184828501611628565b91505092915050565b7f496e73756666696369656e742062616c616e636520696e20636f6e7472616374600082015250565b60006116a0602083611576565b91506116ab8261166a565b602082019050919050565b600060208201905081810360008301526116cf81611693565b9050919050565b60006040820190506116eb6000830185610ccb565b6116f86020830184610ccb565b9392505050565b600061170a8261090e565b9050919050565b61171a816116ff565b811461172557600080fd5b50565b60008151905061173781611711565b92915050565b600060208284031215611753576117526108ae565b5b600061176184828501611728565b91505092915050565b600061177d61177884610a22565b6109f8565b90508281526020810184848401111561179957611798610a1d565b5b6117a4848285610f9b565b509392505050565b600082601f8301126117c1576117c0610a18565b5b81516117d184826020860161176a565b91505092915050565b6000604082840312156117f0576117ef610982565b5b6117fa60406109f8565b9050600061180a84828501611456565b600083015250602082015167ffffffffffffffff81111561182e5761182d610a13565b5b61183a848285016117ac565b60208301525092915050565b60008151905061185581610920565b92915050565b600060c0828403121561187157611870610982565b5b61187b60c06109f8565b9050600061188b84828501611628565b600083015250602061189f84828501611456565b602083015250604082015167ffffffffffffffff8111156118c3576118c2610a13565b5b6118cf848285016117ac565b604083015250606082015167ffffffffffffffff8111156118f3576118f2610a13565b5b6118ff848285016117da565b606083015250608061191384828501611846565b60808301525060a061192784828501611846565b60a08301525092915050565b600060208284031215611949576119486108ae565b5b600082015167ffffffffffffffff811115611967576119666108b3565b5b6119738482850161185b565b91505092915050565b60006060820190506119916000830186610ccb565b81810360208301526119a38185611374565b905081810360408301526119b781846112ad565b9050949350505050565b60006080820190506119d660008301876111ef565b6119e360208301866111ef565b6119f06040830185610ccb565b8181036060830152611a0281846112e6565b905095945050505050565b600060208284031215611a2357611a226108ae565b5b6000611a3184828501611846565b9150509291505056fea264697066735822122054540e5413e6fd8f90a9bfefcc7cf6f4e20e6f54767f692936e41005558dc62664736f6c63430008140033",
  "linkReferences": {},
  "deployedLinkReferences": {}
}