{
  "_format": "hh-sol-artifact-1",
  "contractName": "TestContract",
  "sourceName": "contracts/TestContract.sol",
  "abi": [
    {
      "inputs": [],
      "stateMutability": "nonpayable",
      "type": "constructor"
    },
    {
      "inputs": [
        {
          "internalType": "uint256",
          "name": "_poolId",
          "type": "uint256"
        },
        {
          "internalType": "address",
          "name": "_recipientId",
          "type": "address"
        },
        {
          "internalType": "enum TestContract.Status",
          "name": "_recipientStatus",
          "type": "uint8"
        },
        {
          "internalType": "uint256",
          "name": "_grantAmount",
          "type": "uint256"
        }
      ],
      "name": "allocateFundsToRecipient",
      "outputs": [],
      "stateMutability": "nonpayable",
      "type": "function"
    },
    {
      "inputs": [
        {
          "internalType": "bytes32",
          "name": "_profileId",
          "type": "bytes32"
        },
        {
          "internalType": "address",
          "name": "_strategy",
          "type": "address"
        },
        {
          "internalType": "address",
          "name": "_token",
          "type": "address"
        },
        {
          "internalType": "uint256",
          "name": "_amount",
          "type": "uint256"
        },
        {
          "components": [
            {
              "internalType": "uint256",
              "name": "protocol",
              "type": "uint256"
            },
            {
              "internalType": "string",
              "name": "pointer",
              "type": "string"
            }
          ],
          "internalType": "struct Metadata",
          "name": "_metadata",
          "type": "tuple"
        },
        {
          "internalType": "address[]",
          "name": "_managers",
          "type": "address[]"
        }
      ],
      "name": "createPoolForDirectGrants",
      "outputs": [
        {
          "internalType": "uint256",
          "name": "",
          "type": "uint256"
        }
      ],
      "stateMutability": "payable",
      "type": "function"
    },
    {
      "inputs": [
        {
          "internalType": "uint256",
          "name": "_nonce",
          "type": "uint256"
        },
        {
          "internalType": "string",
          "name": "_name",
          "type": "string"
        },
        {
          "components": [
            {
              "internalType": "uint256",
              "name": "protocol",
              "type": "uint256"
            },
            {
              "internalType": "string",
              "name": "pointer",
              "type": "string"
            }
          ],
          "internalType": "struct Metadata",
          "name": "_metadata",
          "type": "tuple"
        },
        {
          "internalType": "address",
          "name": "_owner",
          "type": "address"
        },
        {
          "internalType": "address[]",
          "name": "_members",
          "type": "address[]"
        }
      ],
      "name": "createProfile",
      "outputs": [
        {
          "internalType": "bytes32",
          "name": "profileId",
          "type": "bytes32"
        }
      ],
      "stateMutability": "nonpayable",
      "type": "function"
    },
    {
      "inputs": [],
      "name": "getAlloRegistry",
      "outputs": [
        {
          "internalType": "contract IRegistry",
          "name": "",
          "type": "address"
        }
      ],
      "stateMutability": "view",
      "type": "function"
    },
    {
      "inputs": [
        {
          "internalType": "bytes32",
          "name": "profileId",
          "type": "bytes32"
        }
      ],
      "name": "getProfile",
      "outputs": [
        {
          "components": [
            {
              "internalType": "bytes32",
              "name": "id",
              "type": "bytes32"
            },
            {
              "internalType": "uint256",
              "name": "nonce",
              "type": "uint256"
            },
            {
              "internalType": "string",
              "name": "name",
              "type": "string"
            },
            {
              "components": [
                {
                  "internalType": "uint256",
                  "name": "protocol",
                  "type": "uint256"
                },
                {
                  "internalType": "string",
                  "name": "pointer",
                  "type": "string"
                }
              ],
              "internalType": "struct Metadata",
              "name": "metadata",
              "type": "tuple"
            },
            {
              "internalType": "address",
              "name": "owner",
              "type": "address"
            },
            {
              "internalType": "address",
              "name": "anchor",
              "type": "address"
            }
          ],
          "internalType": "struct IRegistry.Profile",
          "name": "",
          "type": "tuple"
        }
      ],
      "stateMutability": "view",
      "type": "function"
    },
    {
      "inputs": [
        {
          "internalType": "uint256",
          "name": "_poolId",
          "type": "uint256"
        },
        {
          "internalType": "address",
          "name": "_recipientAddress",
          "type": "address"
        },
        {
          "internalType": "address",
          "name": "_registryAnchor",
          "type": "address"
        },
        {
          "internalType": "uint256",
          "name": "_grantAmount",
          "type": "uint256"
        },
        {
          "components": [
            {
              "internalType": "uint256",
              "name": "protocol",
              "type": "uint256"
            },
            {
              "internalType": "string",
              "name": "pointer",
              "type": "string"
            }
          ],
          "internalType": "struct Metadata",
          "name": "_metadata",
          "type": "tuple"
        }
      ],
      "name": "registerRecipient",
      "outputs": [
        {
          "internalType": "address",
          "name": "recipientId",
          "type": "address"
        }
      ],
      "stateMutability": "nonpayable",
      "type": "function"
    },
    {
      "inputs": [
        {
          "internalType": "uint256",
          "name": "_poolId",
          "type": "uint256"
        },
        {
          "internalType": "uint256",
          "name": "_amount",
          "type": "uint256"
        }
      ],
      "name": "supplyPool",
      "outputs": [],
      "stateMutability": "payable",
      "type": "function"
    },
    {
      "stateMutability": "payable",
      "type": "receive"
    }
  ],
  "bytecode": "0x608060405234801561001057600080fd5b506000734aacca72145e1df2aec137e1f3c5e3d75db8b5f39050806000806101000a81548173ffffffffffffffffffffffffffffffffffffffff021916908373ffffffffffffffffffffffffffffffffffffffff1602179055506000731133ea7af70876e64665ecd07c0a0476d09465a1905080600160006101000a81548173ffffffffffffffffffffffffffffffffffffffff021916908373ffffffffffffffffffffffffffffffffffffffff16021790555050506118f1806100d56000396000f3fe6080604052600436106100745760003560e01c80635b6c87e31161004e5780635b6c87e3146101165780639bd55ad014610132578063b50991b41461015d578063dcc9b8f21461019a5761007b565b80631ba53b191461008057806336a27abb146100b05780633a92f65f146100d95761007b565b3661007b57005b600080fd5b61009a60048036038101906100959190610b28565b6101d7565b6040516100a79190610bfc565b60405180910390f35b3480156100bc57600080fd5b506100d760048036038101906100d29190610c3c565b6102dd565b005b3480156100e557600080fd5b5061010060048036038101906100fb9190610ca3565b61039b565b60405161010d9190610d81565b60405180910390f35b610130600480360381019061012b9190610d9c565b61044d565b005b34801561013e57600080fd5b50610147610524565b6040516101549190610e3b565b60405180910390f35b34801561016957600080fd5b50610184600480360381019061017f9190610e56565b6105bc565b6040516101919190610ffc565b60405180910390f35b3480156101a657600080fd5b506101c160048036038101906101bc919061101e565b61066a565b6040516101ce91906110c4565b60405180910390f35b6000806040518060600160405280600015158152602001600015158152602001600015158152509050600081604051602001610213919061113c565b6040516020818303038152906040529050600160009054906101000a900473ffffffffffffffffffffffffffffffffffffffff1673ffffffffffffffffffffffffffffffffffffffff1663e1007d4a348b8b858c8c8c8c6040518963ffffffff1660e01b815260040161028c9796959493929190611298565b60206040518083038185885af11580156102aa573d6000803e3d6000fd5b50505050506040513d601f19601f820116820180604052508101906102cf9190611331565b925050509695505050505050565b60008383836040516020016102f4939291906113d5565b6040516020818303038152906040529050600160009054906101000a900473ffffffffffffffffffffffffffffffffffffffff1673ffffffffffffffffffffffffffffffffffffffff16632ec3818886836040518363ffffffff1660e01b815260040161036292919061140c565b600060405180830381600087803b15801561037c57600080fd5b505af1158015610390573d6000803e3d6000fd5b505050505050505050565b60008060009054906101000a900473ffffffffffffffffffffffffffffffffffffffff1673ffffffffffffffffffffffffffffffffffffffff16633a92f65f87878787876040518663ffffffff1660e01b81526004016103ff959493929190611486565b6020604051808303816000875af115801561041e573d6000803e3d6000fd5b505050506040513d601f19601f820116820180604052508101906104429190611503565b905095945050505050565b80471015610490576040517f08c379a00000000000000000000000000000000000000000000000000000000081526004016104879061157c565b60405180910390fd5b600160009054906101000a900473ffffffffffffffffffffffffffffffffffffffff1673ffffffffffffffffffffffffffffffffffffffff16635acd6fac8284846040518463ffffffff1660e01b81526004016104ee92919061159c565b6000604051808303818588803b15801561050757600080fd5b505af115801561051b573d6000803e3d6000fd5b50505050505050565b6000600160009054906101000a900473ffffffffffffffffffffffffffffffffffffffff1673ffffffffffffffffffffffffffffffffffffffff16635ab1bd536040518163ffffffff1660e01b8152600401602060405180830381865afa158015610593573d6000803e3d6000fd5b505050506040513d601f19601f820116820180604052508101906105b79190611603565b905090565b6105c4610741565b60008054906101000a900473ffffffffffffffffffffffffffffffffffffffff1673ffffffffffffffffffffffffffffffffffffffff16630114cf0a836040518263ffffffff1660e01b815260040161061d9190610d81565b600060405180830381865afa15801561063a573d6000803e3d6000fd5b505050506040513d6000823e3d601f19601f8201168201806040525081019061066391906117f9565b9050919050565b600080858585856040516020016106849493929190611842565b6040516020818303038152906040529050600160009054906101000a900473ffffffffffffffffffffffffffffffffffffffff1673ffffffffffffffffffffffffffffffffffffffff1663075c0e9c88836040518363ffffffff1660e01b81526004016106f292919061140c565b6020604051808303816000875af1158015610711573d6000803e3d6000fd5b505050506040513d601f19601f82011682018060405250810190610735919061188e565b91505095945050505050565b6040518060c0016040528060008019168152602001600081526020016060815260200161076c6107ac565b8152602001600073ffffffffffffffffffffffffffffffffffffffff168152602001600073ffffffffffffffffffffffffffffffffffffffff1681525090565b604051806040016040528060008152602001606081525090565b6000604051905090565b600080fd5b600080fd5b6000819050919050565b6107ed816107da565b81146107f857600080fd5b50565b60008135905061080a816107e4565b92915050565b600073ffffffffffffffffffffffffffffffffffffffff82169050919050565b600061083b82610810565b9050919050565b61084b81610830565b811461085657600080fd5b50565b60008135905061086881610842565b92915050565b6000819050919050565b6108818161086e565b811461088c57600080fd5b50565b60008135905061089e81610878565b92915050565b600080fd5b6000601f19601f8301169050919050565b7f4e487b7100000000000000000000000000000000000000000000000000000000600052604160045260246000fd5b6108f2826108a9565b810181811067ffffffffffffffff82111715610911576109106108ba565b5b80604052505050565b60006109246107c6565b905061093082826108e9565b919050565b600080fd5b600080fd5b600080fd5b600067ffffffffffffffff82111561095f5761095e6108ba565b5b610968826108a9565b9050602081019050919050565b82818337600083830152505050565b600061099761099284610944565b61091a565b9050828152602081018484840111156109b3576109b261093f565b5b6109be848285610975565b509392505050565b600082601f8301126109db576109da61093a565b5b81356109eb848260208601610984565b91505092915050565b600060408284031215610a0a57610a096108a4565b5b610a14604061091a565b90506000610a248482850161088f565b600083015250602082013567ffffffffffffffff811115610a4857610a47610935565b5b610a54848285016109c6565b60208301525092915050565b600067ffffffffffffffff821115610a7b57610a7a6108ba565b5b602082029050602081019050919050565b600080fd5b6000610aa4610a9f84610a60565b61091a565b90508083825260208201905060208402830185811115610ac757610ac6610a8c565b5b835b81811015610af05780610adc8882610859565b845260208401935050602081019050610ac9565b5050509392505050565b600082601f830112610b0f57610b0e61093a565b5b8135610b1f848260208601610a91565b91505092915050565b60008060008060008060c08789031215610b4557610b446107d0565b5b6000610b5389828a016107fb565b9650506020610b6489828a01610859565b9550506040610b7589828a01610859565b9450506060610b8689828a0161088f565b935050608087013567ffffffffffffffff811115610ba757610ba66107d5565b5b610bb389828a016109f4565b92505060a087013567ffffffffffffffff811115610bd457610bd36107d5565b5b610be089828a01610afa565b9150509295509295509295565b610bf68161086e565b82525050565b6000602082019050610c116000830184610bed565b92915050565b60078110610c2457600080fd5b50565b600081359050610c3681610c17565b92915050565b60008060008060808587031215610c5657610c556107d0565b5b6000610c648782880161088f565b9450506020610c7587828801610859565b9350506040610c8687828801610c27565b9250506060610c978782880161088f565b91505092959194509250565b600080600080600060a08688031215610cbf57610cbe6107d0565b5b6000610ccd8882890161088f565b955050602086013567ffffffffffffffff811115610cee57610ced6107d5565b5b610cfa888289016109c6565b945050604086013567ffffffffffffffff811115610d1b57610d1a6107d5565b5b610d27888289016109f4565b9350506060610d3888828901610859565b925050608086013567ffffffffffffffff811115610d5957610d586107d5565b5b610d6588828901610afa565b9150509295509295909350565b610d7b816107da565b82525050565b6000602082019050610d966000830184610d72565b92915050565b60008060408385031215610db357610db26107d0565b5b6000610dc18582860161088f565b9250506020610dd28582860161088f565b9150509250929050565b6000819050919050565b6000610e01610dfc610df784610810565b610ddc565b610810565b9050919050565b6000610e1382610de6565b9050919050565b6000610e2582610e08565b9050919050565b610e3581610e1a565b82525050565b6000602082019050610e506000830184610e2c565b92915050565b600060208284031215610e6c57610e6b6107d0565b5b6000610e7a848285016107fb565b91505092915050565b610e8c816107da565b82525050565b610e9b8161086e565b82525050565b600081519050919050565b600082825260208201905092915050565b60005b83811015610edb578082015181840152602081019050610ec0565b60008484015250505050565b6000610ef282610ea1565b610efc8185610eac565b9350610f0c818560208601610ebd565b610f15816108a9565b840191505092915050565b6000604083016000830151610f386000860182610e92565b5060208301518482036020860152610f508282610ee7565b9150508091505092915050565b610f6681610830565b82525050565b600060c083016000830151610f846000860182610e83565b506020830151610f976020860182610e92565b5060408301518482036040860152610faf8282610ee7565b91505060608301518482036060860152610fc98282610f20565b9150506080830151610fde6080860182610f5d565b5060a0830151610ff160a0860182610f5d565b508091505092915050565b600060208201905081810360008301526110168184610f6c565b905092915050565b600080600080600060a0868803121561103a576110396107d0565b5b60006110488882890161088f565b955050602061105988828901610859565b945050604061106a88828901610859565b935050606061107b8882890161088f565b925050608086013567ffffffffffffffff81111561109c5761109b6107d5565b5b6110a8888289016109f4565b9150509295509295909350565b6110be81610830565b82525050565b60006020820190506110d960008301846110b5565b92915050565b60008115159050919050565b6110f4816110df565b82525050565b60608201600082015161111060008501826110eb565b50602082015161112360208501826110eb565b50604082015161113660408501826110eb565b50505050565b600060608201905061115160008301846110fa565b92915050565b600081519050919050565b600082825260208201905092915050565b600061117e82611157565b6111888185611162565b9350611198818560208601610ebd565b6111a1816108a9565b840191505092915050565b60006040830160008301516111c46000860182610e92565b50602083015184820360208601526111dc8282610ee7565b9150508091505092915050565b600081519050919050565b600082825260208201905092915050565b6000819050602082019050919050565b60006112218383610f5d565b60208301905092915050565b6000602082019050919050565b6000611245826111e9565b61124f81856111f4565b935061125a83611205565b8060005b8381101561128b5781516112728882611215565b975061127d8361122d565b92505060018101905061125e565b5085935050505092915050565b600060e0820190506112ad600083018a610d72565b6112ba60208301896110b5565b81810360408301526112cc8188611173565b90506112db60608301876110b5565b6112e86080830186610bed565b81810360a08301526112fa81856111ac565b905081810360c083015261130e818461123a565b905098975050505050505050565b60008151905061132b81610878565b92915050565b600060208284031215611347576113466107d0565b5b60006113558482850161131c565b91505092915050565b7f4e487b7100000000000000000000000000000000000000000000000000000000600052602160045260246000fd5b6007811061139e5761139d61135e565b5b50565b60008190506113af8261138d565b919050565b60006113bf826113a1565b9050919050565b6113cf816113b4565b82525050565b60006060820190506113ea60008301866110b5565b6113f760208301856113c6565b6114046040830184610bed565b949350505050565b60006040820190506114216000830185610bed565b81810360208301526114338184611173565b90509392505050565b600082825260208201905092915050565b600061145882610ea1565b611462818561143c565b9350611472818560208601610ebd565b61147b816108a9565b840191505092915050565b600060a08201905061149b6000830188610bed565b81810360208301526114ad818761144d565b905081810360408301526114c181866111ac565b90506114d060608301856110b5565b81810360808301526114e2818461123a565b90509695505050505050565b6000815190506114fd816107e4565b92915050565b600060208284031215611519576115186107d0565b5b6000611527848285016114ee565b91505092915050565b7f496e73756666696369656e742062616c616e636520696e20636f6e7472616374600082015250565b600061156660208361143c565b915061157182611530565b602082019050919050565b6000602082019050818103600083015261159581611559565b9050919050565b60006040820190506115b16000830185610bed565b6115be6020830184610bed565b9392505050565b60006115d082610830565b9050919050565b6115e0816115c5565b81146115eb57600080fd5b50565b6000815190506115fd816115d7565b92915050565b600060208284031215611619576116186107d0565b5b6000611627848285016115ee565b91505092915050565b600061164361163e84610944565b61091a565b90508281526020810184848401111561165f5761165e61093f565b5b61166a848285610ebd565b509392505050565b600082601f8301126116875761168661093a565b5b8151611697848260208601611630565b91505092915050565b6000604082840312156116b6576116b56108a4565b5b6116c0604061091a565b905060006116d08482850161131c565b600083015250602082015167ffffffffffffffff8111156116f4576116f3610935565b5b61170084828501611672565b60208301525092915050565b60008151905061171b81610842565b92915050565b600060c08284031215611737576117366108a4565b5b61174160c061091a565b90506000611751848285016114ee565b60008301525060206117658482850161131c565b602083015250604082015167ffffffffffffffff81111561178957611788610935565b5b61179584828501611672565b604083015250606082015167ffffffffffffffff8111156117b9576117b8610935565b5b6117c5848285016116a0565b60608301525060806117d98482850161170c565b60808301525060a06117ed8482850161170c565b60a08301525092915050565b60006020828403121561180f5761180e6107d0565b5b600082015167ffffffffffffffff81111561182d5761182c6107d5565b5b61183984828501611721565b91505092915050565b600060808201905061185760008301876110b5565b61186460208301866110b5565b6118716040830185610bed565b818103606083015261188381846111ac565b905095945050505050565b6000602082840312156118a4576118a36107d0565b5b60006118b28482850161170c565b9150509291505056fea2646970667358221220c5ea4887dc18a8ae21a3c90a90a1d68e48c3a35318a87b379c8919769909ccca64736f6c63430008140033",
  "linkReferences": {},
  "deployedLinkReferences": {}
}