{
  "_format": "hh-sol-artifact-1",
  "contractName": "Manager",
  "sourceName": "contracts/Manager.sol",
  "abi": [
    {
      "inputs": [
        {
          "internalType": "address",
          "name": "alloAddress",
          "type": "address"
        },
        {
          "internalType": "address",
          "name": "_strategy",
          "type": "address"
        }
      ],
      "stateMutability": "nonpayable",
      "type": "constructor"
    },
    {
      "inputs": [],
      "name": "ALLOCATION_ACTIVE",
      "type": "error"
    },
    {
      "inputs": [],
      "name": "ALLOCATION_NOT_ACTIVE",
      "type": "error"
    },
    {
      "inputs": [],
      "name": "ALLOCATION_NOT_ENDED",
      "type": "error"
    },
    {
      "inputs": [],
      "name": "ALREADY_INITIALIZED",
      "type": "error"
    },
    {
      "inputs": [],
      "name": "AMOUNT_MISMATCH",
      "type": "error"
    },
    {
      "inputs": [],
      "name": "ANCHOR_ERROR",
      "type": "error"
    },
    {
      "inputs": [],
      "name": "ARRAY_MISMATCH",
      "type": "error"
    },
    {
      "inputs": [],
      "name": "INVALID",
      "type": "error"
    },
    {
      "inputs": [],
      "name": "INVALID_ADDRESS",
      "type": "error"
    },
    {
      "inputs": [],
      "name": "INVALID_FEE",
      "type": "error"
    },
    {
      "inputs": [],
      "name": "INVALID_METADATA",
      "type": "error"
    },
    {
      "inputs": [],
      "name": "INVALID_REGISTRATION",
      "type": "error"
    },
    {
      "inputs": [],
      "name": "IS_APPROVED_STRATEGY",
      "type": "error"
    },
    {
      "inputs": [],
      "name": "MISMATCH",
      "type": "error"
    },
    {
      "inputs": [],
      "name": "NONCE_NOT_AVAILABLE",
      "type": "error"
    },
    {
      "inputs": [],
      "name": "NOT_APPROVED_STRATEGY",
      "type": "error"
    },
    {
      "inputs": [],
      "name": "NOT_ENOUGH_FUNDS",
      "type": "error"
    },
    {
      "inputs": [],
      "name": "NOT_IMPLEMENTED",
      "type": "error"
    },
    {
      "inputs": [],
      "name": "NOT_INITIALIZED",
      "type": "error"
    },
    {
      "inputs": [],
      "name": "NOT_PENDING_OWNER",
      "type": "error"
    },
    {
      "inputs": [],
      "name": "POOL_ACTIVE",
      "type": "error"
    },
    {
      "inputs": [],
      "name": "POOL_INACTIVE",
      "type": "error"
    },
    {
      "inputs": [],
      "name": "RECIPIENT_ALREADY_ACCEPTED",
      "type": "error"
    },
    {
      "inputs": [
        {
          "internalType": "address",
          "name": "recipientId",
          "type": "address"
        }
      ],
      "name": "RECIPIENT_ERROR",
      "type": "error"
    },
    {
      "inputs": [],
      "name": "RECIPIENT_NOT_ACCEPTED",
      "type": "error"
    },
    {
      "inputs": [],
      "name": "REGISTRATION_NOT_ACTIVE",
      "type": "error"
    },
    {
      "inputs": [],
      "name": "ReentrancyGuardReentrantCall",
      "type": "error"
    },
    {
      "inputs": [],
      "name": "SUPPLY_IS_ALLOWED_ONLY_ONCE",
      "type": "error"
    },
    {
      "inputs": [],
      "name": "SUPPLY_NOT_FOUND",
      "type": "error"
    },
    {
      "inputs": [],
      "name": "UNAUTHORIZED",
      "type": "error"
    },
    {
      "inputs": [],
      "name": "ZERO_ADDRESS",
      "type": "error"
    },
    {
      "anonymous": false,
      "inputs": [
        {
          "indexed": true,
          "internalType": "bytes32",
          "name": "projectId",
          "type": "bytes32"
        },
        {
          "indexed": false,
          "internalType": "uint256",
          "name": "amount",
          "type": "uint256"
        }
      ],
      "name": "ProjectFunded",
      "type": "event"
    },
    {
      "anonymous": false,
      "inputs": [
        {
          "indexed": false,
          "internalType": "bytes32",
          "name": "projectId",
          "type": "bytes32"
        },
        {
          "indexed": false,
          "internalType": "uint256",
          "name": "poolId",
          "type": "uint256"
        }
      ],
      "name": "ProjectPoolCreeated",
      "type": "event"
    },
    {
      "inputs": [],
      "name": "NATIVE",
      "outputs": [
        {
          "internalType": "address",
          "name": "",
          "type": "address"
        }
      ],
      "stateMutability": "view",
      "type": "function"
    },
    {
      "inputs": [
        {
          "internalType": "bytes32",
          "name": "profileId",
          "type": "bytes32"
        }
      ],
      "name": "_projectExists",
      "outputs": [
        {
          "internalType": "bool",
          "name": "",
          "type": "bool"
        }
      ],
      "stateMutability": "view",
      "type": "function"
    },
    {
      "inputs": [
        {
          "internalType": "uint256",
          "name": "_poolId",
          "type": "uint256"
        },
        {
          "internalType": "address",
          "name": "_recipientId",
          "type": "address"
        },
        {
          "internalType": "enum Status",
          "name": "_recipientStatus",
          "type": "uint8"
        },
        {
          "internalType": "uint256",
          "name": "_grantAmount",
          "type": "uint256"
        }
      ],
      "name": "allocateFundsToRecipient",
      "outputs": [],
      "stateMutability": "nonpayable",
      "type": "function"
    },
    {
      "inputs": [
        {
          "internalType": "uint256",
          "name": "_poolId",
          "type": "uint256"
        },
        {
          "internalType": "address[]",
          "name": "_recipientIds",
          "type": "address[]"
        }
      ],
      "name": "distributeFundsToRecipient",
      "outputs": [],
      "stateMutability": "nonpayable",
      "type": "function"
    },
    {
      "inputs": [],
      "name": "getAlloRegistry",
      "outputs": [
        {
          "internalType": "contract IRegistry",
          "name": "",
          "type": "address"
        }
      ],
      "stateMutability": "view",
      "type": "function"
    },
    {
      "inputs": [
        {
          "internalType": "bytes32",
          "name": "profileId",
          "type": "bytes32"
        }
      ],
      "name": "getProfile",
      "outputs": [
        {
          "components": [
            {
              "internalType": "bytes32",
              "name": "id",
              "type": "bytes32"
            },
            {
              "internalType": "uint256",
              "name": "nonce",
              "type": "uint256"
            },
            {
              "internalType": "string",
              "name": "name",
              "type": "string"
            },
            {
              "components": [
                {
                  "internalType": "uint256",
                  "name": "protocol",
                  "type": "uint256"
                },
                {
                  "internalType": "string",
                  "name": "pointer",
                  "type": "string"
                }
              ],
              "internalType": "struct Metadata",
              "name": "metadata",
              "type": "tuple"
            },
            {
              "internalType": "address",
              "name": "owner",
              "type": "address"
            },
            {
              "internalType": "address",
              "name": "anchor",
              "type": "address"
            }
          ],
          "internalType": "struct IRegistry.Profile",
          "name": "",
          "type": "tuple"
        }
      ],
      "stateMutability": "view",
      "type": "function"
    },
    {
      "inputs": [],
      "name": "getProfiles",
      "outputs": [
        {
          "internalType": "bytes32[]",
          "name": "",
          "type": "bytes32[]"
        }
      ],
      "stateMutability": "view",
      "type": "function"
    },
    {
      "inputs": [
        {
          "internalType": "bytes32",
          "name": "_projectId",
          "type": "bytes32"
        }
      ],
      "name": "getProjectSupply",
      "outputs": [
        {
          "components": [
            {
              "internalType": "uint256",
              "name": "need",
              "type": "uint256"
            },
            {
              "internalType": "uint256",
              "name": "has",
              "type": "uint256"
            }
          ],
          "internalType": "struct ProjectSupply",
          "name": "",
          "type": "tuple"
        }
      ],
      "stateMutability": "view",
      "type": "function"
    },
    {
      "inputs": [
        {
          "internalType": "uint256",
          "name": "_needs",
          "type": "uint256"
        },
        {
          "internalType": "uint256",
          "name": "_nonce",
          "type": "uint256"
        },
        {
          "internalType": "string",
          "name": "_name",
          "type": "string"
        },
        {
          "components": [
            {
              "internalType": "uint256",
              "name": "protocol",
              "type": "uint256"
            },
            {
              "internalType": "string",
              "name": "pointer",
              "type": "string"
            }
          ],
          "internalType": "struct Metadata",
          "name": "_metadata",
          "type": "tuple"
        },
        {
          "internalType": "address",
          "name": "_owner",
          "type": "address"
        },
        {
          "internalType": "address",
          "name": "_recipient",
          "type": "address"
        }
      ],
      "name": "registerProject",
      "outputs": [
        {
          "internalType": "bytes32",
          "name": "profileId",
          "type": "bytes32"
        }
      ],
      "stateMutability": "nonpayable",
      "type": "function"
    },
    {
      "inputs": [
        {
          "internalType": "bytes32",
          "name": "_projectId",
          "type": "bytes32"
        }
      ],
      "name": "revokeProjectSupply",
      "outputs": [],
      "stateMutability": "nonpayable",
      "type": "function"
    },
    {
      "inputs": [
        {
          "internalType": "bytes32",
          "name": "_projectId",
          "type": "bytes32"
        },
        {
          "internalType": "uint256",
          "name": "_amount",
          "type": "uint256"
        }
      ],
      "name": "supplyProject",
      "outputs": [],
      "stateMutability": "payable",
      "type": "function"
    },
    {
      "stateMutability": "payable",
      "type": "receive"
    }
  ],
  "bytecode": "0x60806040523480156200001157600080fd5b5060405162001bb138038062001bb183398101604081905262000034916200010e565b60016000908155600280546001600160a01b038086166001600160a01b03199283168117909355600380549186169190921617905560408051635ab1bd5360e01b81529051635ab1bd53916004808201926020929091908290030181865afa158015620000a5573d6000803e3d6000fd5b505050506040513d601f19601f82011682018060405250810190620000cb91906200014d565b600180546001600160a01b0319166001600160a01b03929092169190911790555062000174915050565b6001600160a01b03811681146200010b57600080fd5b50565b600080604083850312156200012257600080fd5b82516200012f81620000f5565b60208401519092506200014281620000f5565b809150509250929050565b6000602082840312156200016057600080fd5b81516200016d81620000f5565b9392505050565b611a2d80620001846000396000f3fe6080604052600436106100a05760003560e01c8063a0cf0aea11610064578063a0cf0aea146101b5578063b2137033146101dd578063b50991b4146101ff578063c42b06f01461022c578063cd5b42251461025c578063d1de78e41461027c57600080fd5b806336a27abb146100ac57806340f1ab98146100ce5780635a7e6abf146100e157806394a8fb4a146101145780639bd55ad01461018857600080fd5b366100a757005b600080fd5b3480156100b857600080fd5b506100cc6100c7366004611132565b61029c565b005b6100cc6100dc36600461117e565b61032d565b3480156100ed57600080fd5b506101016100fc3660046112b1565b61090d565b6040519081526020015b60405180910390f35b34801561012057600080fd5b5061016d61012f366004611381565b604080518082019091526000808252602082015250600090815260066020908152604091829020825180840190935280548352600101549082015290565b6040805182518152602092830151928101929092520161010b565b34801561019457600080fd5b5061019d610a8e565b6040516001600160a01b03909116815260200161010b565b3480156101c157600080fd5b5061019d73eeeeeeeeeeeeeeeeeeeeeeeeeeeeeeeeeeeeeeee81565b3480156101e957600080fd5b506101f2610b01565b60405161010b919061139a565b34801561020b57600080fd5b5061021f61021a366004611381565b610b59565b60405161010b9190611455565b34801561023857600080fd5b5061024c610247366004611381565b610bd7565b604051901515815260200161010b565b34801561026857600080fd5b506100cc6102773660046114d3565b610c62565b34801561028857600080fd5b506100cc610297366004611381565b610cda565b60008383836040516020016102b393929190611591565b60408051601f19818403018152908290526002546305d8703160e31b83529092506001600160a01b031690632ec38188906102f490889085906004016115d0565b600060405180830381600087803b15801561030e57600080fd5b505af1158015610322573d6000803e3d6000fd5b505050505050505050565b610335610e03565b61033e82610bd7565b6103885760405162461bcd60e51b8152602060048201526016602482015275141c9bda9958dd08191bd95cc81b9bdd08195e1a5cdd60521b60448201526064015b60405180910390fd5b8015806103955750348114155b156103b3576040516303e09bb960e31b815260040160405180910390fd5b600082815260076020908152604080832033845260010190915281205412156103ef5760405163446e224d60e01b815260040160405180910390fd5b600082815260066020526040812060010180548392906104109084906115ff565b909155505060008281526007602081815260408084203380865260018083018552838720889055948452815494850182559085529382902090920180546001600160a01b0319169093179092555182815283917f315cb30dd854bd9e9df31e31754930ba16b498240f74a4ef23531f84c4ee4910910160405180910390a260008281526006602052604090208054600190910154106108ff5760006104b483610e2d565b60408051608081018252600080825260208201819052918101829052606081018390528251929350916104e89060016115ff565b67ffffffffffffffff811115610500576105006111a0565b604051908082528060200260200182016040528015610529578160200160208202803683370190505b50905060005b83518110156105925783818151811061054a5761054a611612565b60200260200101516000015182828151811061056857610568611612565b6001600160a01b03909216602092830291909101909101528061058a81611628565b91505061052f565b5030818451815181106105a7576105a7611612565b6001600160a01b039092166020928302919091018201526040805180820182526001815281518083018352600d81526c32b6b83a3c903837b4b73a32b960991b81850152818401529051909160009161060291869101611641565b60408051601f1981840301815282825260008a81526006602052918220546002546003546370803ea560e11b865292955090936001600160a01b039182169263e1007d4a923492610677928f921690899073eeeeeeeeeeeeeeeeeeeeeeeeeeeeeeeeeeeeeeee9089908d908f90600401611711565b60206040518083038185885af1158015610695573d6000803e3d6000fd5b50505050506040513d601f19601f820116820180604052508101906106ba919061177c565b60008a81526006602052604090205490915047101561071b5760405162461bcd60e51b815260206004820181905260248201527f496e73756666696369656e742062616c616e636520696e20636f6e7472616374604482015260640161037f565b60025460008a815260066020526040908190205490516316b35beb60e21b815260048101849052602481018290526001600160a01b0390921691635acd6fac91906044016000604051808303818588803b15801561077857600080fd5b505af115801561078c573d6000803e3d6000fd5b50505060008b81526008602090815260408083205490519294506107c193506001600160a01b031691849187918a9101611795565b60408051601f19818403018152908290526002546301d703a760e21b83529092506001600160a01b03169063075c0e9c9061080290859085906004016115d0565b6020604051808303816000875af1158015610821573d6000803e3d6000fd5b505050506040513d601f19601f8201168201806040525081019061084591906117dd565b506040805180820182528b815260208082018581526005805460018101825560009190915283517f036b6384b5eca791c62761152d0c79bb0604c104a5fb6f4eb0703f3154bb3db060029092029182015590517f036b6384b5eca791c62761152d0c79bb0604c104a5fb6f4eb0703f3154bb3db19091015582518d815290810185905290917fc5d45cf1508cae377cc227a37ea00b97fa9e86e03ce72364a0b7e85e36baacec910160405180910390a15050505050505050505b6109096001600055565b5050565b60408051600280825260608201835260009283929190602083019080368337019050509050828160008151811061094657610946611612565b60200260200101906001600160a01b031690816001600160a01b031681525050308160018151811061097a5761097a611612565b6001600160a01b039283166020918202929092010152600154604051633a92f65f60e01b8152911690633a92f65f906109bf908a908a908a908a908890600401611801565b6020604051808303816000875af11580156109de573d6000803e3d6000fd5b505050506040513d601f19601f82011682018060405250810190610a02919061177c565b60048054600181019091557f8a35acfbc15ff81a39ae7d344fd709f28e8600b4aa8c65c6b64bfe7fe36bd19b01819055600081815260066020526040812080549294508a92909190610a559084906115ff565b909155505050600081815260086020526040902080546001600160a01b0384166001600160a01b03199091161790559695505050505050565b60025460408051635ab1bd5360e01b815290516000926001600160a01b031691635ab1bd539160048083019260209291908290030181865afa158015610ad8573d6000803e3d6000fd5b505050506040513d601f19601f82011682018060405250810190610afc91906117dd565b905090565b60606004805480602002602001604051908101604052809291908181526020018280548015610b4f57602002820191906000526020600020905b815481526020019060010190808311610b3b575b5050505050905090565b610b616110b9565b600154604051628a678560e11b8152600481018490526001600160a01b0390911690630114cf0a90602401600060405180830381865afa158015610ba9573d6000803e3d6000fd5b505050506040513d6000823e601f3d908101601f19168201604052610bd191908101906118f2565b92915050565b600154604051628a678560e11b81526004810183905260009182916001600160a01b0390911690630114cf0a90602401600060405180830381865afa158015610c24573d6000803e3d6000fd5b505050506040513d6000823e601f3d908101601f19168201604052610c4c91908101906118f2565b608001516001600160a01b031615159392505050565b60408051602081018252600081526002549151631d2fdec960e11b815290916001600160a01b031690633a5fbd9290610ca3908690869086906004016119b9565b600060405180830381600087803b158015610cbd57600080fd5b505af1158015610cd1573d6000803e3d6000fd5b50505050505050565b610ce2610e03565b610ceb81610bd7565b610d305760405162461bcd60e51b8152602060048201526016602482015275141c9bda9958dd08191bd95cc81b9bdd08195e1a5cdd60521b604482015260640161037f565b6000818152600760209081526040808320338452600101909152812054908113610d8f5760405162461bcd60e51b815260206004820152601060248201526f14d554141316481393d5081193d5539160821b604482015260640161037f565b6000828152600760209081526040808320338452600190810183528184206000199055858452600690925282200180548392839291610dcf9084906119e4565b90915550610df4905073eeeeeeeeeeeeeeeeeeeeeeeeeeeeeeeeeeeeeeee3383611018565b5050610e006001600055565b50565b600260005403610e2657604051633ee5aeb560e01b815260040160405180910390fd5b6002600055565b600081815260076020526040812080546060929067ffffffffffffffff811115610e5957610e596111a0565b604051908082528060200260200182016040528015610e9e57816020015b6040805180820190915260008082526020820152815260200190600190039081610e775790505b5090506000805b8354811015610f55576000846000018281548110610ec557610ec5611612565b60009182526020808320909101546001600160a01b031680835260018801909152604082205490925090811315610f40576040518060400160405280836001600160a01b0316815260200182815250858581518110610f2657610f26611612565b60200260200101819052508380610f3c90611628565b9450505b50508080610f4d90611628565b915050610ea5565b5060008167ffffffffffffffff811115610f7157610f716111a0565b604051908082528060200260200182016040528015610fb657816020015b6040805180820190915260008082526020820152815260200190600190039081610f8f5790505b50905060005b8281101561100e57838181518110610fd657610fd6611612565b6020026020010151828281518110610ff057610ff0611612565b6020026020010181905250808061100690611628565b915050610fbc565b5095945050505050565b73eeeeeeeeeeeeeeeeeeeeeeeeeeeeeeeeeeeeeeed196001600160a01b0384160161104c576110478282611057565b505050565b611047838383611073565b60003860003884865af16109095763b12d13eb6000526004601cfd5b816014528060345263a9059cbb60601b60005260206000604460106000875af13d1560016000511417166110af576390b8ec186000526004601cfd5b6000603452505050565b6040518060c001604052806000801916815260200160008152602001606081526020016110f9604051806040016040528060008152602001606081525090565b815260006020820181905260409091015290565b6001600160a01b0381168114610e0057600080fd5b803561112d8161110d565b919050565b6000806000806080858703121561114857600080fd5b84359350602085013561115a8161110d565b925060408501356007811061116e57600080fd5b9396929550929360600135925050565b6000806040838503121561119157600080fd5b50508035926020909101359150565b634e487b7160e01b600052604160045260246000fd5b6040805190810167ffffffffffffffff811182821017156111d9576111d96111a0565b60405290565b60405160c0810167ffffffffffffffff811182821017156111d9576111d96111a0565b604051601f8201601f1916810167ffffffffffffffff8111828210171561122b5761122b6111a0565b604052919050565b600067ffffffffffffffff82111561124d5761124d6111a0565b50601f01601f191660200190565b600082601f83011261126c57600080fd5b813561127f61127a82611233565b611202565b81815284602083860101111561129457600080fd5b816020850160208301376000918101602001919091529392505050565b60008060008060008060c087890312156112ca57600080fd5b8635955060208701359450604087013567ffffffffffffffff808211156112f057600080fd5b6112fc8a838b0161125b565b9550606089013591508082111561131257600080fd5b908801906040828b03121561132657600080fd5b61132e6111b6565b8235815260208301358281111561134457600080fd5b6113508c82860161125b565b602083015250945061136791505060808801611122565b915061137560a08801611122565b90509295509295509295565b60006020828403121561139357600080fd5b5035919050565b6020808252825182820181905260009190848201906040850190845b818110156113d2578351835292840192918401916001016113b6565b50909695505050505050565b60005b838110156113f95781810151838201526020016113e1565b50506000910152565b6000815180845261141a8160208601602086016113de565b601f01601f19169290920160200192915050565b80518252600060208201516040602085015261144d6040850182611402565b949350505050565b6020815281516020820152602082015160408201526000604083015160c0606084015261148560e0840182611402565b90506060840151601f198483030160808501526114a2828261142e565b60808601516001600160a01b0390811660a0878101919091529096015190951660c090940193909352509192915050565b600080604083850312156114e657600080fd5b8235915060208084013567ffffffffffffffff8082111561150657600080fd5b818601915086601f83011261151a57600080fd5b81358181111561152c5761152c6111a0565b8060051b915061153d848301611202565b818152918301840191848101908984111561155757600080fd5b938501935b8385101561158157843592506115718361110d565b828252938501939085019061155c565b8096505050505050509250929050565b6001600160a01b038416815260608101600784106115bf57634e487b7160e01b600052602160045260246000fd5b602082019390935260400152919050565b82815260406020820152600061144d6040830184611402565b634e487b7160e01b600052601160045260246000fd5b80820180821115610bd157610bd16115e9565b634e487b7160e01b600052603260045260246000fd5b60006001820161163a5761163a6115e9565b5060010190565b6000602080835260a0830184511515828501528185015160408115158187015280870151151560608701526060870151915060808087015282825180855260c0880191508584019450600093505b808410156116c157845180516001600160a01b031683528601518683015293850193600193909301929082019061168f565b50979650505050505050565b600081518084526020808501945080840160005b838110156117065781516001600160a01b0316875295820195908201906001016116e1565b509495945050505050565b878152600060018060a01b03808916602084015260e0604084015261173960e0840189611402565b818816606085015286608085015283810360a0850152611759818761142e565b91505082810360c084015261176e81856116cd565b9a9950505050505050505050565b60006020828403121561178e57600080fd5b5051919050565b6001600160a01b03858116825284166020820152604081018390526080606082018190526000906117c89083018461142e565b9695505050505050565b805161112d8161110d565b6000602082840312156117ef57600080fd5b81516117fa8161110d565b9392505050565b85815260a06020820152600061181a60a0830187611402565b828103604084015261182c818761142e565b6001600160a01b03861660608501528381036080850152905061184f81856116cd565b98975050505050505050565b600082601f83011261186c57600080fd5b815161187a61127a82611233565b81815284602083860101111561188f57600080fd5b61144d8260208301602087016113de565b6000604082840312156118b257600080fd5b6118ba6111b6565b905081518152602082015167ffffffffffffffff8111156118da57600080fd5b6118e68482850161185b565b60208301525092915050565b60006020828403121561190457600080fd5b815167ffffffffffffffff8082111561191c57600080fd5b9083019060c0828603121561193057600080fd5b6119386111df565b825181526020830151602082015260408301518281111561195857600080fd5b6119648782860161185b565b60408301525060608301518281111561197c57600080fd5b611988878286016118a0565b60608301525061199a608084016117d2565b60808201526119ab60a084016117d2565b60a082015295945050505050565b8381526060602082015260006119d260608301856116cd565b82810360408401526117c88185611402565b81810381811115610bd157610bd16115e956fea2646970667358221220df960dd23ffd04ebc42ff5515a54f90f3474086d28a067d8fde8337c4dfee39864736f6c63430008140033",
  "linkReferences": {},
  "deployedLinkReferences": {}
}