{
  "_format": "hh-sol-artifact-1",
  "contractName": "Manager",
  "sourceName": "contracts/Manager.sol",
  "abi": [
    {
      "inputs": [
        {
          "internalType": "address",
          "name": "alloAddress",
          "type": "address"
        },
        {
          "internalType": "address",
          "name": "_strategy",
          "type": "address"
        }
      ],
      "stateMutability": "nonpayable",
      "type": "constructor"
    },
    {
      "inputs": [],
      "name": "ALLOCATION_ACTIVE",
      "type": "error"
    },
    {
      "inputs": [],
      "name": "ALLOCATION_NOT_ACTIVE",
      "type": "error"
    },
    {
      "inputs": [],
      "name": "ALLOCATION_NOT_ENDED",
      "type": "error"
    },
    {
      "inputs": [],
      "name": "ALREADY_INITIALIZED",
      "type": "error"
    },
    {
      "inputs": [],
      "name": "AMOUNT_MISMATCH",
      "type": "error"
    },
    {
      "inputs": [],
      "name": "ANCHOR_ERROR",
      "type": "error"
    },
    {
      "inputs": [],
      "name": "ARRAY_MISMATCH",
      "type": "error"
    },
    {
      "inputs": [],
      "name": "INVALID",
      "type": "error"
    },
    {
      "inputs": [],
      "name": "INVALID_ADDRESS",
      "type": "error"
    },
    {
      "inputs": [],
      "name": "INVALID_FEE",
      "type": "error"
    },
    {
      "inputs": [],
      "name": "INVALID_METADATA",
      "type": "error"
    },
    {
      "inputs": [],
      "name": "INVALID_REGISTRATION",
      "type": "error"
    },
    {
      "inputs": [],
      "name": "IS_APPROVED_STRATEGY",
      "type": "error"
    },
    {
      "inputs": [],
      "name": "MISMATCH",
      "type": "error"
    },
    {
      "inputs": [],
      "name": "NONCE_NOT_AVAILABLE",
      "type": "error"
    },
    {
      "inputs": [],
      "name": "NOT_APPROVED_STRATEGY",
      "type": "error"
    },
    {
      "inputs": [],
      "name": "NOT_ENOUGH_FUNDS",
      "type": "error"
    },
    {
      "inputs": [],
      "name": "NOT_IMPLEMENTED",
      "type": "error"
    },
    {
      "inputs": [],
      "name": "NOT_INITIALIZED",
      "type": "error"
    },
    {
      "inputs": [],
      "name": "NOT_PENDING_OWNER",
      "type": "error"
    },
    {
      "inputs": [],
      "name": "POOL_ACTIVE",
      "type": "error"
    },
    {
      "inputs": [],
      "name": "POOL_INACTIVE",
      "type": "error"
    },
    {
      "inputs": [],
      "name": "RECIPIENT_ALREADY_ACCEPTED",
      "type": "error"
    },
    {
      "inputs": [
        {
          "internalType": "address",
          "name": "recipientId",
          "type": "address"
        }
      ],
      "name": "RECIPIENT_ERROR",
      "type": "error"
    },
    {
      "inputs": [],
      "name": "RECIPIENT_NOT_ACCEPTED",
      "type": "error"
    },
    {
      "inputs": [],
      "name": "REGISTRATION_NOT_ACTIVE",
      "type": "error"
    },
    {
      "inputs": [],
      "name": "ReentrancyGuardReentrantCall",
      "type": "error"
    },
    {
      "inputs": [],
      "name": "SUPPLY_IS_ALLOWED_ONLY_ONCE",
      "type": "error"
    },
    {
      "inputs": [],
      "name": "SUPPLY_NOT_FOUND",
      "type": "error"
    },
    {
      "inputs": [],
      "name": "UNAUTHORIZED",
      "type": "error"
    },
    {
      "inputs": [],
      "name": "ZERO_ADDRESS",
      "type": "error"
    },
    {
      "anonymous": false,
      "inputs": [
        {
          "indexed": true,
          "internalType": "bytes32",
          "name": "projectId",
          "type": "bytes32"
        },
        {
          "indexed": false,
          "internalType": "uint256",
          "name": "amount",
          "type": "uint256"
        }
      ],
      "name": "ProjectFunded",
      "type": "event"
    },
    {
      "anonymous": false,
      "inputs": [
        {
          "indexed": false,
          "internalType": "bytes32",
          "name": "projectId",
          "type": "bytes32"
        },
        {
          "indexed": false,
          "internalType": "uint256",
          "name": "poolId",
          "type": "uint256"
        }
      ],
      "name": "ProjectPoolCreeated",
      "type": "event"
    },
    {
      "inputs": [],
      "name": "NATIVE",
      "outputs": [
        {
          "internalType": "address",
          "name": "",
          "type": "address"
        }
      ],
      "stateMutability": "view",
      "type": "function"
    },
    {
      "inputs": [
        {
          "internalType": "bytes32",
          "name": "profileId",
          "type": "bytes32"
        }
      ],
      "name": "_projectExists",
      "outputs": [
        {
          "internalType": "bool",
          "name": "",
          "type": "bool"
        }
      ],
      "stateMutability": "view",
      "type": "function"
    },
    {
      "inputs": [
        {
          "internalType": "uint256",
          "name": "_poolId",
          "type": "uint256"
        },
        {
          "internalType": "address",
          "name": "_recipientId",
          "type": "address"
        },
        {
          "internalType": "enum Status",
          "name": "_recipientStatus",
          "type": "uint8"
        },
        {
          "internalType": "uint256",
          "name": "_grantAmount",
          "type": "uint256"
        }
      ],
      "name": "allocateFundsToRecipient",
      "outputs": [],
      "stateMutability": "nonpayable",
      "type": "function"
    },
    {
      "inputs": [
        {
          "internalType": "uint256",
          "name": "_poolId",
          "type": "uint256"
        },
        {
          "internalType": "address[]",
          "name": "_recipientIds",
          "type": "address[]"
        }
      ],
      "name": "distributeFundsToRecipient",
      "outputs": [],
      "stateMutability": "nonpayable",
      "type": "function"
    },
    {
      "inputs": [],
      "name": "getAlloRegistry",
      "outputs": [
        {
          "internalType": "contract IRegistry",
          "name": "",
          "type": "address"
        }
      ],
      "stateMutability": "view",
      "type": "function"
    },
    {
      "inputs": [
        {
          "internalType": "bytes32",
          "name": "profileId",
          "type": "bytes32"
        }
      ],
      "name": "getProfile",
      "outputs": [
        {
          "components": [
            {
              "internalType": "bytes32",
              "name": "id",
              "type": "bytes32"
            },
            {
              "internalType": "uint256",
              "name": "nonce",
              "type": "uint256"
            },
            {
              "internalType": "string",
              "name": "name",
              "type": "string"
            },
            {
              "components": [
                {
                  "internalType": "uint256",
                  "name": "protocol",
                  "type": "uint256"
                },
                {
                  "internalType": "string",
                  "name": "pointer",
                  "type": "string"
                }
              ],
              "internalType": "struct Metadata",
              "name": "metadata",
              "type": "tuple"
            },
            {
              "internalType": "address",
              "name": "owner",
              "type": "address"
            },
            {
              "internalType": "address",
              "name": "anchor",
              "type": "address"
            }
          ],
          "internalType": "struct IRegistry.Profile",
          "name": "",
          "type": "tuple"
        }
      ],
      "stateMutability": "view",
      "type": "function"
    },
    {
      "inputs": [],
      "name": "getProfiles",
      "outputs": [
        {
          "internalType": "bytes32[]",
          "name": "",
          "type": "bytes32[]"
        }
      ],
      "stateMutability": "view",
      "type": "function"
    },
    {
      "inputs": [
        {
          "internalType": "bytes32",
          "name": "_projectId",
          "type": "bytes32"
        }
      ],
      "name": "getProjectSupply",
      "outputs": [
        {
          "components": [
            {
              "internalType": "uint256",
              "name": "need",
              "type": "uint256"
            },
            {
              "internalType": "uint256",
              "name": "has",
              "type": "uint256"
            }
          ],
          "internalType": "struct ProjectSupply",
          "name": "",
          "type": "tuple"
        }
      ],
      "stateMutability": "view",
      "type": "function"
    },
    {
      "inputs": [
        {
          "internalType": "uint256",
          "name": "_needs",
          "type": "uint256"
        },
        {
          "internalType": "uint256",
          "name": "_nonce",
          "type": "uint256"
        },
        {
          "internalType": "string",
          "name": "_name",
          "type": "string"
        },
        {
          "components": [
            {
              "internalType": "uint256",
              "name": "protocol",
              "type": "uint256"
            },
            {
              "internalType": "string",
              "name": "pointer",
              "type": "string"
            }
          ],
          "internalType": "struct Metadata",
          "name": "_metadata",
          "type": "tuple"
        },
        {
          "internalType": "address",
          "name": "_owner",
          "type": "address"
        },
        {
          "internalType": "address",
          "name": "_recipient",
          "type": "address"
        }
      ],
      "name": "registerProject",
      "outputs": [
        {
          "internalType": "bytes32",
          "name": "profileId",
          "type": "bytes32"
        }
      ],
      "stateMutability": "nonpayable",
      "type": "function"
    },
    {
      "inputs": [
        {
          "internalType": "uint256",
          "name": "_poolId",
          "type": "uint256"
        },
        {
          "internalType": "address",
          "name": "_recipientAddress",
          "type": "address"
        },
        {
          "internalType": "address",
          "name": "_registryAnchor",
          "type": "address"
        },
        {
          "internalType": "uint256",
          "name": "_grantAmount",
          "type": "uint256"
        },
        {
          "components": [
            {
              "internalType": "uint256",
              "name": "protocol",
              "type": "uint256"
            },
            {
              "internalType": "string",
              "name": "pointer",
              "type": "string"
            }
          ],
          "internalType": "struct Metadata",
          "name": "_metadata",
          "type": "tuple"
        }
      ],
      "name": "registerRecipient",
      "outputs": [
        {
          "internalType": "address",
          "name": "recipientId",
          "type": "address"
        }
      ],
      "stateMutability": "nonpayable",
      "type": "function"
    },
    {
      "inputs": [
        {
          "internalType": "bytes32",
          "name": "_projectId",
          "type": "bytes32"
        }
      ],
      "name": "revokeProjectSupply",
      "outputs": [],
      "stateMutability": "nonpayable",
      "type": "function"
    },
    {
      "inputs": [
        {
          "internalType": "uint256",
          "name": "_poolId",
          "type": "uint256"
        },
        {
          "internalType": "uint256",
          "name": "_amount",
          "type": "uint256"
        }
      ],
      "name": "supplyPool",
      "outputs": [],
      "stateMutability": "payable",
      "type": "function"
    },
    {
      "inputs": [
        {
          "internalType": "bytes32",
          "name": "_projectId",
          "type": "bytes32"
        },
        {
          "internalType": "uint256",
          "name": "_amount",
          "type": "uint256"
        }
      ],
      "name": "supplyProject",
      "outputs": [],
      "stateMutability": "payable",
      "type": "function"
    },
    {
      "stateMutability": "payable",
      "type": "receive"
    }
  ],
  "bytecode": "0x60806040523480156200001157600080fd5b506040516200325c3803806200325c83398181016040528101906200003791906200020d565b600160008190555081600260006101000a81548173ffffffffffffffffffffffffffffffffffffffff021916908373ffffffffffffffffffffffffffffffffffffffff16021790555080600360006101000a81548173ffffffffffffffffffffffffffffffffffffffff021916908373ffffffffffffffffffffffffffffffffffffffff1602179055506000600260009054906101000a900473ffffffffffffffffffffffffffffffffffffffff1673ffffffffffffffffffffffffffffffffffffffff16635ab1bd536040518163ffffffff1660e01b8152600401602060405180830381865afa15801562000131573d6000803e3d6000fd5b505050506040513d601f19601f8201168201806040525081019062000157919062000299565b905080600160006101000a81548173ffffffffffffffffffffffffffffffffffffffff021916908373ffffffffffffffffffffffffffffffffffffffff160217905550505050620002cb565b600080fd5b600073ffffffffffffffffffffffffffffffffffffffff82169050919050565b6000620001d582620001a8565b9050919050565b620001e781620001c8565b8114620001f357600080fd5b50565b6000815190506200020781620001dc565b92915050565b60008060408385031215620002275762000226620001a3565b5b60006200023785828601620001f6565b92505060206200024a85828601620001f6565b9150509250929050565b60006200026182620001c8565b9050919050565b620002738162000254565b81146200027f57600080fd5b50565b600081519050620002938162000268565b92915050565b600060208284031215620002b257620002b1620001a3565b5b6000620002c28482850162000282565b91505092915050565b612f8180620002db6000396000f3fe6080604052600436106100c65760003560e01c8063a0cf0aea1161007f578063c42b06f011610059578063c42b06f01461026b578063cd5b4225146102a8578063d1de78e4146102d1578063dcc9b8f2146102fa576100cd565b8063a0cf0aea146101d8578063b213703314610203578063b50991b41461022e576100cd565b806336a27abb146100d257806340f1ab98146100fb5780635a7e6abf146101175780635b6c87e31461015457806394a8fb4a146101705780639bd55ad0146101ad576100cd565b366100cd57005b600080fd5b3480156100de57600080fd5b506100f960048036038101906100f491906119f2565b610337565b005b61011560048036038101906101109190611a8f565b6103f5565b005b34801561012357600080fd5b5061013e60048036038101906101399190611c8b565b610baa565b60405161014b9190611d5f565b60405180910390f35b61016e60048036038101906101699190611d7a565b610df2565b005b34801561017c57600080fd5b5061019760048036038101906101929190611dba565b610ec9565b6040516101a49190611e25565b60405180910390f35b3480156101b957600080fd5b506101c2610f0a565b6040516101cf9190611e9f565b60405180910390f35b3480156101e457600080fd5b506101ed610fa2565b6040516101fa9190611ec9565b60405180910390f35b34801561020f57600080fd5b50610218610fba565b6040516102259190611fa2565b60405180910390f35b34801561023a57600080fd5b5061025560048036038101906102509190611dba565b611012565b604051610262919061211f565b60405180910390f35b34801561027757600080fd5b50610292600480360381019061028d9190611dba565b6110c2565b60405161029f919061215c565b60405180910390f35b3480156102b457600080fd5b506102cf60048036038101906102ca919061223f565b6111a5565b005b3480156102dd57600080fd5b506102f860048036038101906102f39190611dba565b61124f565b005b34801561030657600080fd5b50610321600480360381019061031c919061229b565b611410565b60405161032e9190611ec9565b60405180910390f35b600083838360405160200161034e939291906123b8565b6040516020818303038152906040529050600260009054906101000a900473ffffffffffffffffffffffffffffffffffffffff1673ffffffffffffffffffffffffffffffffffffffff16632ec3818886836040518363ffffffff1660e01b81526004016103bc929190612444565b600060405180830381600087803b1580156103d657600080fd5b505af11580156103ea573d6000803e3d6000fd5b505050505050505050565b6103fd6114e7565b610406826110c2565b610445576040517f08c379a000000000000000000000000000000000000000000000000000000000815260040161043c906124d1565b60405180910390fd5b60008114806104545750348114155b1561048b576040517f1f04ddc800000000000000000000000000000000000000000000000000000000815260040160405180910390fd5b60006006600084815260200190815260200160002060010160003373ffffffffffffffffffffffffffffffffffffffff1673ffffffffffffffffffffffffffffffffffffffff168152602001908152602001600020541215610519576040517f446e224d00000000000000000000000000000000000000000000000000000000815260040160405180910390fd5b8060056000848152602001908152602001600020600101600082825461053f9190612520565b92505081905550806006600084815260200190815260200160002060010160003373ffffffffffffffffffffffffffffffffffffffff1673ffffffffffffffffffffffffffffffffffffffff1681526020019081526020016000208190555060066000838152602001908152602001600020600001339080600181540180825580915050600190039060005260206000200160009091909190916101000a81548173ffffffffffffffffffffffffffffffffffffffff021916908373ffffffffffffffffffffffffffffffffffffffff160217905550817f315cb30dd854bd9e9df31e31754930ba16b498240f74a4ef23531f84c4ee4910826040516106459190612554565b60405180910390a26005600083815260200190815260200160002060000154600560008481526020019081526020016000206001015410610b9e57600061068b8361152d565b9050600060405180608001604052806000151581526020016000151581526020016000151581526020018381525090506000600183516106cb9190612520565b67ffffffffffffffff8111156106e4576106e3611aea565b5b6040519080825280602002602001820160405280156107125781602001602082028036833780820191505090505b50905060005b83518110156107a0578381815181106107345761073361256f565b5b6020026020010151600001518282815181106107535761075261256f565b5b602002602001019073ffffffffffffffffffffffffffffffffffffffff16908173ffffffffffffffffffffffffffffffffffffffff168152505080806107989061259e565b915050610718565b5030818451815181106107b6576107b561256f565b5b602002602001019073ffffffffffffffffffffffffffffffffffffffff16908173ffffffffffffffffffffffffffffffffffffffff168152505060006040518060400160405280600181526020016040518060400160405280600d81526020017f656d70747920706f696e7465720000000000000000000000000000000000000081525081525090506000836040516020016108529190612736565b60405160208183030381529060405290506000600260009054906101000a900473ffffffffffffffffffffffffffffffffffffffff1673ffffffffffffffffffffffffffffffffffffffff1663e1007d4a348a600360009054906101000a900473ffffffffffffffffffffffffffffffffffffffff168673eeeeeeeeeeeeeeeeeeeeeeeeeeeeeeeeeeeeeeee60008a8c6040518963ffffffff1660e01b8152600401610904979695949392919061287f565b60206040518083038185885af1158015610922573d6000803e3d6000fd5b50505050506040513d601f19601f820116820180604052508101906109479190612918565b905060056000898152602001908152602001600020600001544710156109a2576040517f08c379a000000000000000000000000000000000000000000000000000000000815260040161099990612991565b60405180910390fd5b600260009054906101000a900473ffffffffffffffffffffffffffffffffffffffff1673ffffffffffffffffffffffffffffffffffffffff16635acd6fac600560008b81526020019081526020016000206000015483600560008d8152602001908152602001600020600001546040518463ffffffff1660e01b8152600401610a2c9291906129b1565b6000604051808303818588803b158015610a4557600080fd5b505af1158015610a59573d6000803e3d6000fd5b50505050506000600760008a815260200190815260200160002060009054906101000a900473ffffffffffffffffffffffffffffffffffffffff1660008086604051602001610aab9493929190612a18565b6040516020818303038152906040529050600260009054906101000a900473ffffffffffffffffffffffffffffffffffffffff1673ffffffffffffffffffffffffffffffffffffffff1663075c0e9c83836040518363ffffffff1660e01b8152600401610b19929190612444565b6020604051808303816000875af1158015610b38573d6000803e3d6000fd5b505050506040513d601f19601f82011682018060405250810190610b5c9190612a79565b507fc5d45cf1508cae377cc227a37ea00b97fa9e86e03ce72364a0b7e85e36baacec8983604051610b8e929190612aa6565b60405180910390a1505050505050505b610ba6611776565b5050565b600080600267ffffffffffffffff811115610bc857610bc7611aea565b5b604051908082528060200260200182016040528015610bf65781602001602082028036833780820191505090505b5090508281600081518110610c0e57610c0d61256f565b5b602002602001019073ffffffffffffffffffffffffffffffffffffffff16908173ffffffffffffffffffffffffffffffffffffffff16815250503081600181518110610c5d57610c5c61256f565b5b602002602001019073ffffffffffffffffffffffffffffffffffffffff16908173ffffffffffffffffffffffffffffffffffffffff1681525050600160009054906101000a900473ffffffffffffffffffffffffffffffffffffffff1673ffffffffffffffffffffffffffffffffffffffff16633a92f65f88888888866040518663ffffffff1660e01b8152600401610cfa959493929190612b08565b6020604051808303816000875af1158015610d19573d6000803e3d6000fd5b505050506040513d601f19601f82011682018060405250810190610d3d9190612b85565b9150600482908060018154018082558091505060019003906000526020600020016000909190919091505587600560008481526020019081526020016000206000016000828254610d8e9190612520565b92505081905550826007600084815260200190815260200160002060006101000a81548173ffffffffffffffffffffffffffffffffffffffff021916908373ffffffffffffffffffffffffffffffffffffffff160217905550509695505050505050565b80471015610e35576040517f08c379a0000000000000000000000000000000000000000000000000000000008152600401610e2c90612991565b60405180910390fd5b600260009054906101000a900473ffffffffffffffffffffffffffffffffffffffff1673ffffffffffffffffffffffffffffffffffffffff16635acd6fac8284846040518463ffffffff1660e01b8152600401610e939291906129b1565b6000604051808303818588803b158015610eac57600080fd5b505af1158015610ec0573d6000803e3d6000fd5b50505050505050565b610ed1611856565b60056000838152602001908152602001600020604051806040016040529081600082015481526020016001820154815250509050919050565b6000600260009054906101000a900473ffffffffffffffffffffffffffffffffffffffff1673ffffffffffffffffffffffffffffffffffffffff16635ab1bd536040518163ffffffff1660e01b8152600401602060405180830381865afa158015610f79573d6000803e3d6000fd5b505050506040513d601f19601f82011682018060405250810190610f9d9190612bf0565b905090565b73eeeeeeeeeeeeeeeeeeeeeeeeeeeeeeeeeeeeeeee81565b6060600480548060200260200160405190810160405280929190818152602001828054801561100857602002820191906000526020600020905b815481526020019060010190808311610ff4575b5050505050905090565b61101a611870565b600160009054906101000a900473ffffffffffffffffffffffffffffffffffffffff1673ffffffffffffffffffffffffffffffffffffffff16630114cf0a836040518263ffffffff1660e01b81526004016110759190611d5f565b600060405180830381865afa158015611092573d6000803e3d6000fd5b505050506040513d6000823e3d601f19601f820116820180604052508101906110bb9190612dd1565b9050919050565b600080600160009054906101000a900473ffffffffffffffffffffffffffffffffffffffff1673ffffffffffffffffffffffffffffffffffffffff16630114cf0a846040518263ffffffff1660e01b81526004016111209190611d5f565b600060405180830381865afa15801561113d573d6000803e3d6000fd5b505050506040513d6000823e3d601f19601f820116820180604052508101906111669190612dd1565b9050600073ffffffffffffffffffffffffffffffffffffffff16816080015173ffffffffffffffffffffffffffffffffffffffff161415915050919050565b6000604051806020016040528060008152509050600260009054906101000a900473ffffffffffffffffffffffffffffffffffffffff1673ffffffffffffffffffffffffffffffffffffffff16633a5fbd928484846040518463ffffffff1660e01b815260040161121893929190612e1a565b600060405180830381600087803b15801561123257600080fd5b505af1158015611246573d6000803e3d6000fd5b50505050505050565b6112576114e7565b611260816110c2565b61129f576040517f08c379a0000000000000000000000000000000000000000000000000000000008152600401611296906124d1565b60405180910390fd5b60006006600083815260200190815260200160002060010160003373ffffffffffffffffffffffffffffffffffffffff1673ffffffffffffffffffffffffffffffffffffffff1681526020019081526020016000205490506000811361133a576040517f08c379a000000000000000000000000000000000000000000000000000000000815260040161133190612eab565b60405180910390fd5b60008190507fffffffffffffffffffffffffffffffffffffffffffffffffffffffffffffffff6006600085815260200190815260200160002060010160003373ffffffffffffffffffffffffffffffffffffffff1673ffffffffffffffffffffffffffffffffffffffff16815260200190815260200160002081905550806005600085815260200190815260200160002060010160008282546113dd9190612ecb565b9250508190555061140373eeeeeeeeeeeeeeeeeeeeeeeeeeeeeeeeeeeeeeee3383611780565b505061140d611776565b50565b6000808585858560405160200161142a9493929190612eff565b6040516020818303038152906040529050600260009054906101000a900473ffffffffffffffffffffffffffffffffffffffff1673ffffffffffffffffffffffffffffffffffffffff1663075c0e9c88836040518363ffffffff1660e01b8152600401611498929190612444565b6020604051808303816000875af11580156114b7573d6000803e3d6000fd5b505050506040513d601f19601f820116820180604052508101906114db9190612a79565b91505095945050505050565b600260005403611523576040517f3ee5aeb500000000000000000000000000000000000000000000000000000000815260040160405180910390fd5b6002600081905550565b606060006006600084815260200190815260200160002090506000816000018054905067ffffffffffffffff81111561156957611568611aea565b5b6040519080825280602002602001820160405280156115a257816020015b61158f6118db565b8152602001906001900390816115875790505b5090506000805b83600001805490508110156116b95760008460000182815481106115d0576115cf61256f565b5b9060005260206000200160009054906101000a900473ffffffffffffffffffffffffffffffffffffffff16905060008560010160008373ffffffffffffffffffffffffffffffffffffffff1673ffffffffffffffffffffffffffffffffffffffff16815260200190815260200160002054905060008113156116a45760405180604001604052808373ffffffffffffffffffffffffffffffffffffffff1681526020018281525085858151811061168a5761168961256f565b5b602002602001018190525083806116a09061259e565b9450505b505080806116b19061259e565b9150506115a9565b5060008167ffffffffffffffff8111156116d6576116d5611aea565b5b60405190808252806020026020018201604052801561170f57816020015b6116fc6118db565b8152602001906001900390816116f45790505b50905060005b82811015611769578381815181106117305761172f61256f565b5b602002602001015182828151811061174b5761174a61256f565b5b602002602001018190525080806117619061259e565b915050611715565b5080945050505050919050565b6001600081905550565b73eeeeeeeeeeeeeeeeeeeeeeeeeeeeeeeeeeeeeeee73ffffffffffffffffffffffffffffffffffffffff168373ffffffffffffffffffffffffffffffffffffffff16036117d6576117d182826117e7565b6117e2565b6117e1838383611807565b5b505050565b60003860003884865af16118035763b12d13eb6000526004601cfd5b5050565b81601452806034526fa9059cbb00000000000000000000000060005260206000604460106000875af13d15600160005114171661184c576390b8ec186000526004601cfd5b6000603452505050565b604051806040016040528060008152602001600081525090565b6040518060c0016040528060008019168152602001600081526020016060815260200161189b61190b565b8152602001600073ffffffffffffffffffffffffffffffffffffffff168152602001600073ffffffffffffffffffffffffffffffffffffffff1681525090565b6040518060400160405280600073ffffffffffffffffffffffffffffffffffffffff168152602001600081525090565b604051806040016040528060008152602001606081525090565b6000604051905090565b600080fd5b600080fd5b6000819050919050565b61194c81611939565b811461195757600080fd5b50565b60008135905061196981611943565b92915050565b600073ffffffffffffffffffffffffffffffffffffffff82169050919050565b600061199a8261196f565b9050919050565b6119aa8161198f565b81146119b557600080fd5b50565b6000813590506119c7816119a1565b92915050565b600781106119da57600080fd5b50565b6000813590506119ec816119cd565b92915050565b60008060008060808587031215611a0c57611a0b61192f565b5b6000611a1a8782880161195a565b9450506020611a2b878288016119b8565b9350506040611a3c878288016119dd565b9250506060611a4d8782880161195a565b91505092959194509250565b6000819050919050565b611a6c81611a59565b8114611a7757600080fd5b50565b600081359050611a8981611a63565b92915050565b60008060408385031215611aa657611aa561192f565b5b6000611ab485828601611a7a565b9250506020611ac58582860161195a565b9150509250929050565b600080fd5b600080fd5b6000601f19601f8301169050919050565b7f4e487b7100000000000000000000000000000000000000000000000000000000600052604160045260246000fd5b611b2282611ad9565b810181811067ffffffffffffffff82111715611b4157611b40611aea565b5b80604052505050565b6000611b54611925565b9050611b608282611b19565b919050565b600067ffffffffffffffff821115611b8057611b7f611aea565b5b611b8982611ad9565b9050602081019050919050565b82818337600083830152505050565b6000611bb8611bb384611b65565b611b4a565b905082815260208101848484011115611bd457611bd3611ad4565b5b611bdf848285611b96565b509392505050565b600082601f830112611bfc57611bfb611acf565b5b8135611c0c848260208601611ba5565b91505092915050565b600080fd5b600080fd5b600060408284031215611c3557611c34611c15565b5b611c3f6040611b4a565b90506000611c4f8482850161195a565b600083015250602082013567ffffffffffffffff811115611c7357611c72611c1a565b5b611c7f84828501611be7565b60208301525092915050565b60008060008060008060c08789031215611ca857611ca761192f565b5b6000611cb689828a0161195a565b9650506020611cc789828a0161195a565b955050604087013567ffffffffffffffff811115611ce857611ce7611934565b5b611cf489828a01611be7565b945050606087013567ffffffffffffffff811115611d1557611d14611934565b5b611d2189828a01611c1f565b9350506080611d3289828a016119b8565b92505060a0611d4389828a016119b8565b9150509295509295509295565b611d5981611a59565b82525050565b6000602082019050611d746000830184611d50565b92915050565b60008060408385031215611d9157611d9061192f565b5b6000611d9f8582860161195a565b9250506020611db08582860161195a565b9150509250929050565b600060208284031215611dd057611dcf61192f565b5b6000611dde84828501611a7a565b91505092915050565b611df081611939565b82525050565b604082016000820151611e0c6000850182611de7565b506020820151611e1f6020850182611de7565b50505050565b6000604082019050611e3a6000830184611df6565b92915050565b6000819050919050565b6000611e65611e60611e5b8461196f565b611e40565b61196f565b9050919050565b6000611e7782611e4a565b9050919050565b6000611e8982611e6c565b9050919050565b611e9981611e7e565b82525050565b6000602082019050611eb46000830184611e90565b92915050565b611ec38161198f565b82525050565b6000602082019050611ede6000830184611eba565b92915050565b600081519050919050565b600082825260208201905092915050565b6000819050602082019050919050565b611f1981611a59565b82525050565b6000611f2b8383611f10565b60208301905092915050565b6000602082019050919050565b6000611f4f82611ee4565b611f598185611eef565b9350611f6483611f00565b8060005b83811015611f95578151611f7c8882611f1f565b9750611f8783611f37565b925050600181019050611f68565b5085935050505092915050565b60006020820190508181036000830152611fbc8184611f44565b905092915050565b600081519050919050565b600082825260208201905092915050565b60005b83811015611ffe578082015181840152602081019050611fe3565b60008484015250505050565b600061201582611fc4565b61201f8185611fcf565b935061202f818560208601611fe0565b61203881611ad9565b840191505092915050565b600060408301600083015161205b6000860182611de7565b5060208301518482036020860152612073828261200a565b9150508091505092915050565b6120898161198f565b82525050565b600060c0830160008301516120a76000860182611f10565b5060208301516120ba6020860182611de7565b50604083015184820360408601526120d2828261200a565b915050606083015184820360608601526120ec8282612043565b91505060808301516121016080860182612080565b5060a083015161211460a0860182612080565b508091505092915050565b60006020820190508181036000830152612139818461208f565b905092915050565b60008115159050919050565b61215681612141565b82525050565b6000602082019050612171600083018461214d565b92915050565b600067ffffffffffffffff82111561219257612191611aea565b5b602082029050602081019050919050565b600080fd5b60006121bb6121b684612177565b611b4a565b905080838252602082019050602084028301858111156121de576121dd6121a3565b5b835b8181101561220757806121f388826119b8565b8452602084019350506020810190506121e0565b5050509392505050565b600082601f83011261222657612225611acf565b5b81356122368482602086016121a8565b91505092915050565b600080604083850312156122565761225561192f565b5b60006122648582860161195a565b925050602083013567ffffffffffffffff81111561228557612284611934565b5b61229185828601612211565b9150509250929050565b600080600080600060a086880312156122b7576122b661192f565b5b60006122c58882890161195a565b95505060206122d6888289016119b8565b94505060406122e7888289016119b8565b93505060606122f88882890161195a565b925050608086013567ffffffffffffffff81111561231957612318611934565b5b61232588828901611c1f565b9150509295509295909350565b7f4e487b7100000000000000000000000000000000000000000000000000000000600052602160045260246000fd5b6007811061237257612371612332565b5b50565b600081905061238382612361565b919050565b600061239382612375565b9050919050565b6123a381612388565b82525050565b6123b281611939565b82525050565b60006060820190506123cd6000830186611eba565b6123da602083018561239a565b6123e760408301846123a9565b949350505050565b600081519050919050565b600082825260208201905092915050565b6000612416826123ef565b61242081856123fa565b9350612430818560208601611fe0565b61243981611ad9565b840191505092915050565b600060408201905061245960008301856123a9565b818103602083015261246b818461240b565b90509392505050565b600082825260208201905092915050565b7f50726f6a65637420646f6573206e6f7420657869737400000000000000000000600082015250565b60006124bb601683612474565b91506124c682612485565b602082019050919050565b600060208201905081810360008301526124ea816124ae565b9050919050565b7f4e487b7100000000000000000000000000000000000000000000000000000000600052601160045260246000fd5b600061252b82611939565b915061253683611939565b925082820190508082111561254e5761254d6124f1565b5b92915050565b600060208201905061256960008301846123a9565b92915050565b7f4e487b7100000000000000000000000000000000000000000000000000000000600052603260045260246000fd5b60006125a982611939565b91507fffffffffffffffffffffffffffffffffffffffffffffffffffffffffffffffff82036125db576125da6124f1565b5b600182019050919050565b6125ef81612141565b82525050565b600081519050919050565b600082825260208201905092915050565b6000819050602082019050919050565b6040820160008201516126376000850182612080565b50602082015161264a6020850182611de7565b50505050565b600061265c8383612621565b60408301905092915050565b6000602082019050919050565b6000612680826125f5565b61268a8185612600565b935061269583612611565b8060005b838110156126c65781516126ad8882612650565b97506126b883612668565b925050600181019050612699565b5085935050505092915050565b60006080830160008301516126eb60008601826125e6565b5060208301516126fe60208601826125e6565b50604083015161271160408601826125e6565b50606083015184820360608601526127298282612675565b9150508091505092915050565b6000602082019050818103600083015261275081846126d3565b905092915050565b6000819050919050565b600061277d61277861277384612758565b611e40565b611939565b9050919050565b61278d81612762565b82525050565b60006040830160008301516127ab6000860182611de7565b50602083015184820360208601526127c3828261200a565b9150508091505092915050565b600081519050919050565b600082825260208201905092915050565b6000819050602082019050919050565b60006128088383612080565b60208301905092915050565b6000602082019050919050565b600061282c826127d0565b61283681856127db565b9350612841836127ec565b8060005b8381101561287257815161285988826127fc565b975061286483612814565b925050600181019050612845565b5085935050505092915050565b600060e082019050612894600083018a611d50565b6128a16020830189611eba565b81810360408301526128b3818861240b565b90506128c26060830187611eba565b6128cf6080830186612784565b81810360a08301526128e18185612793565b905081810360c08301526128f58184612821565b905098975050505050505050565b60008151905061291281611943565b92915050565b60006020828403121561292e5761292d61192f565b5b600061293c84828501612903565b91505092915050565b7f496e73756666696369656e742062616c616e636520696e20636f6e7472616374600082015250565b600061297b602083612474565b915061298682612945565b602082019050919050565b600060208201905081810360008301526129aa8161296e565b9050919050565b60006040820190506129c660008301856123a9565b6129d360208301846123a9565b9392505050565b600060ff82169050919050565b6000612a026129fd6129f884612758565b611e40565b6129da565b9050919050565b612a12816129e7565b82525050565b6000608082019050612a2d6000830187611eba565b612a3a6020830186611eba565b612a476040830185612a09565b8181036060830152612a598184612793565b905095945050505050565b600081519050612a73816119a1565b92915050565b600060208284031215612a8f57612a8e61192f565b5b6000612a9d84828501612a64565b91505092915050565b6000604082019050612abb6000830185611d50565b612ac860208301846123a9565b9392505050565b6000612ada82611fc4565b612ae48185612474565b9350612af4818560208601611fe0565b612afd81611ad9565b840191505092915050565b600060a082019050612b1d60008301886123a9565b8181036020830152612b2f8187612acf565b90508181036040830152612b438186612793565b9050612b526060830185611eba565b8181036080830152612b648184612821565b90509695505050505050565b600081519050612b7f81611a63565b92915050565b600060208284031215612b9b57612b9a61192f565b5b6000612ba984828501612b70565b91505092915050565b6000612bbd8261198f565b9050919050565b612bcd81612bb2565b8114612bd857600080fd5b50565b600081519050612bea81612bc4565b92915050565b600060208284031215612c0657612c0561192f565b5b6000612c1484828501612bdb565b91505092915050565b6000612c30612c2b84611b65565b611b4a565b905082815260208101848484011115612c4c57612c4b611ad4565b5b612c57848285611fe0565b509392505050565b600082601f830112612c7457612c73611acf565b5b8151612c84848260208601612c1d565b91505092915050565b600060408284031215612ca357612ca2611c15565b5b612cad6040611b4a565b90506000612cbd84828501612903565b600083015250602082015167ffffffffffffffff811115612ce157612ce0611c1a565b5b612ced84828501612c5f565b60208301525092915050565b600060c08284031215612d0f57612d0e611c15565b5b612d1960c0611b4a565b90506000612d2984828501612b70565b6000830152506020612d3d84828501612903565b602083015250604082015167ffffffffffffffff811115612d6157612d60611c1a565b5b612d6d84828501612c5f565b604083015250606082015167ffffffffffffffff811115612d9157612d90611c1a565b5b612d9d84828501612c8d565b6060830152506080612db184828501612a64565b60808301525060a0612dc584828501612a64565b60a08301525092915050565b600060208284031215612de757612de661192f565b5b600082015167ffffffffffffffff811115612e0557612e04611934565b5b612e1184828501612cf9565b91505092915050565b6000606082019050612e2f60008301866123a9565b8181036020830152612e418185612821565b90508181036040830152612e55818461240b565b9050949350505050565b7f535550504c59204e4f5420464f554e4400000000000000000000000000000000600082015250565b6000612e95601083612474565b9150612ea082612e5f565b602082019050919050565b60006020820190508181036000830152612ec481612e88565b9050919050565b6000612ed682611939565b9150612ee183611939565b9250828203905081811115612ef957612ef86124f1565b5b92915050565b6000608082019050612f146000830187611eba565b612f216020830186611eba565b612f2e60408301856123a9565b8181036060830152612f408184612793565b90509594505050505056fea2646970667358221220d0d15e2eafcc52720070536504f7c8d546f1ebe0f3d2e41acc0407e69482ac0f64736f6c63430008140033",
  "linkReferences": {},
  "deployedLinkReferences": {}
}