{
  "_format": "hh-sol-artifact-1",
  "contractName": "Manager",
  "sourceName": "contracts/Manager.sol",
  "abi": [
    {
      "inputs": [
        {
          "internalType": "address",
          "name": "alloAddress",
          "type": "address"
        },
        {
          "internalType": "address",
          "name": "_strategy",
          "type": "address"
        },
        {
          "internalType": "address",
          "name": "_strategyFactory",
          "type": "address"
        },
        {
          "internalType": "address",
          "name": "_hatsContractAddress",
          "type": "address"
        },
        {
          "internalType": "uint256",
          "name": "_managerHatID",
          "type": "uint256"
        }
      ],
      "stateMutability": "nonpayable",
      "type": "constructor"
    },
    {
      "inputs": [],
      "name": "AMOUNT_IS_BIGGER_THAN_DECLARED_NEEDEDS",
      "type": "error"
    },
    {
      "inputs": [],
      "name": "AMOUNT_MISMATCH",
      "type": "error"
    },
    {
      "inputs": [],
      "name": "AlreadyInitialized",
      "type": "error"
    },
    {
      "inputs": [],
      "name": "EXECUTOR_IS_NOT_ALLOWED_TO_SUPPLY",
      "type": "error"
    },
    {
      "inputs": [],
      "name": "NOT_ENOUGH_FUNDS",
      "type": "error"
    },
    {
      "inputs": [],
      "name": "NewOwnerIsZeroAddress",
      "type": "error"
    },
    {
      "inputs": [],
      "name": "NoHandoverRequest",
      "type": "error"
    },
    {
      "inputs": [],
      "name": "PROJECT_IS_FUNDED",
      "type": "error"
    },
    {
      "inputs": [],
      "name": "ReentrancyGuardReentrantCall",
      "type": "error"
    },
    {
      "inputs": [],
      "name": "Unauthorized",
      "type": "error"
    },
    {
      "anonymous": false,
      "inputs": [
        {
          "indexed": true,
          "internalType": "address",
          "name": "pendingOwner",
          "type": "address"
        }
      ],
      "name": "OwnershipHandoverCanceled",
      "type": "event"
    },
    {
      "anonymous": false,
      "inputs": [
        {
          "indexed": true,
          "internalType": "address",
          "name": "pendingOwner",
          "type": "address"
        }
      ],
      "name": "OwnershipHandoverRequested",
      "type": "event"
    },
    {
      "anonymous": false,
      "inputs": [
        {
          "indexed": true,
          "internalType": "address",
          "name": "oldOwner",
          "type": "address"
        },
        {
          "indexed": true,
          "internalType": "address",
          "name": "newOwner",
          "type": "address"
        }
      ],
      "name": "OwnershipTransferred",
      "type": "event"
    },
    {
      "anonymous": false,
      "inputs": [
        {
          "indexed": true,
          "internalType": "bytes32",
          "name": "projectId",
          "type": "bytes32"
        },
        {
          "indexed": false,
          "internalType": "uint256",
          "name": "amount",
          "type": "uint256"
        }
      ],
      "name": "ProjectFunded",
      "type": "event"
    },
    {
      "anonymous": false,
      "inputs": [
        {
          "indexed": false,
          "internalType": "bytes32",
          "name": "projectId",
          "type": "bytes32"
        },
        {
          "indexed": false,
          "internalType": "uint256",
          "name": "poolId",
          "type": "uint256"
        }
      ],
      "name": "ProjectPoolCreeated",
      "type": "event"
    },
    {
      "inputs": [],
      "name": "NATIVE",
      "outputs": [
        {
          "internalType": "address",
          "name": "",
          "type": "address"
        }
      ],
      "stateMutability": "view",
      "type": "function"
    },
    {
      "inputs": [],
      "name": "cancelOwnershipHandover",
      "outputs": [],
      "stateMutability": "payable",
      "type": "function"
    },
    {
      "inputs": [
        {
          "internalType": "address",
          "name": "pendingOwner",
          "type": "address"
        }
      ],
      "name": "completeOwnershipHandover",
      "outputs": [],
      "stateMutability": "payable",
      "type": "function"
    },
    {
      "inputs": [
        {
          "internalType": "bytes32",
          "name": "_projectId",
          "type": "bytes32"
        }
      ],
      "name": "getProfile",
      "outputs": [
        {
          "components": [
            {
              "internalType": "bytes32",
              "name": "id",
              "type": "bytes32"
            },
            {
              "internalType": "uint256",
              "name": "nonce",
              "type": "uint256"
            },
            {
              "internalType": "string",
              "name": "name",
              "type": "string"
            },
            {
              "components": [
                {
                  "internalType": "uint256",
                  "name": "protocol",
                  "type": "uint256"
                },
                {
                  "internalType": "string",
                  "name": "pointer",
                  "type": "string"
                }
              ],
              "internalType": "struct Metadata",
              "name": "metadata",
              "type": "tuple"
            },
            {
              "internalType": "address",
              "name": "owner",
              "type": "address"
            },
            {
              "internalType": "address",
              "name": "anchor",
              "type": "address"
            }
          ],
          "internalType": "struct IRegistry.Profile",
          "name": "",
          "type": "tuple"
        }
      ],
      "stateMutability": "view",
      "type": "function"
    },
    {
      "inputs": [],
      "name": "getProfiles",
      "outputs": [
        {
          "internalType": "bytes32[]",
          "name": "",
          "type": "bytes32[]"
        }
      ],
      "stateMutability": "view",
      "type": "function"
    },
    {
      "inputs": [
        {
          "internalType": "bytes32",
          "name": "_projectId",
          "type": "bytes32"
        }
      ],
      "name": "getProjectExecutor",
      "outputs": [
        {
          "internalType": "address",
          "name": "",
          "type": "address"
        }
      ],
      "stateMutability": "view",
      "type": "function"
    },
    {
      "inputs": [
        {
          "internalType": "bytes32",
          "name": "_projectId",
          "type": "bytes32"
        }
      ],
      "name": "getProjectPool",
      "outputs": [
        {
          "internalType": "uint256",
          "name": "",
          "type": "uint256"
        }
      ],
      "stateMutability": "view",
      "type": "function"
    },
    {
      "inputs": [
        {
          "internalType": "bytes32",
          "name": "_projectId",
          "type": "bytes32"
        }
      ],
      "name": "getProjectStrategy",
      "outputs": [
        {
          "internalType": "address",
          "name": "",
          "type": "address"
        }
      ],
      "stateMutability": "view",
      "type": "function"
    },
    {
      "inputs": [
        {
          "internalType": "bytes32",
          "name": "_projectId",
          "type": "bytes32"
        },
        {
          "internalType": "address",
          "name": "_supplier",
          "type": "address"
        }
      ],
      "name": "getProjectSupplierById",
      "outputs": [
        {
          "internalType": "uint256",
          "name": "",
          "type": "uint256"
        }
      ],
      "stateMutability": "view",
      "type": "function"
    },
    {
      "inputs": [
        {
          "internalType": "bytes32",
          "name": "_projectId",
          "type": "bytes32"
        }
      ],
      "name": "getProjectSuppliers",
      "outputs": [
        {
          "internalType": "address[]",
          "name": "",
          "type": "address[]"
        }
      ],
      "stateMutability": "view",
      "type": "function"
    },
    {
      "inputs": [
        {
          "internalType": "bytes32",
          "name": "_projectId",
          "type": "bytes32"
        }
      ],
      "name": "getProjectSupply",
      "outputs": [
        {
          "components": [
            {
              "internalType": "uint256",
              "name": "need",
              "type": "uint256"
            },
            {
              "internalType": "uint256",
              "name": "has",
              "type": "uint256"
            },
            {
              "internalType": "string",
              "name": "name",
              "type": "string"
            },
            {
              "internalType": "string",
              "name": "description",
              "type": "string"
            }
          ],
          "internalType": "struct Manager.ProjectSupply",
          "name": "",
          "type": "tuple"
        }
      ],
      "stateMutability": "view",
      "type": "function"
    },
    {
      "inputs": [],
      "name": "hatsContract",
      "outputs": [
        {
          "internalType": "contract IHats",
          "name": "",
          "type": "address"
        }
      ],
      "stateMutability": "view",
      "type": "function"
    },
    {
      "inputs": [],
      "name": "owner",
      "outputs": [
        {
          "internalType": "address",
          "name": "result",
          "type": "address"
        }
      ],
      "stateMutability": "view",
      "type": "function"
    },
    {
      "inputs": [
        {
          "internalType": "address",
          "name": "pendingOwner",
          "type": "address"
        }
      ],
      "name": "ownershipHandoverExpiresAt",
      "outputs": [
        {
          "internalType": "uint256",
          "name": "result",
          "type": "uint256"
        }
      ],
      "stateMutability": "view",
      "type": "function"
    },
    {
      "inputs": [
        {
          "internalType": "uint256",
          "name": "_needs",
          "type": "uint256"
        },
        {
          "internalType": "uint256",
          "name": "_nonce",
          "type": "uint256"
        },
        {
          "internalType": "string",
          "name": "_name",
          "type": "string"
        },
        {
          "components": [
            {
              "internalType": "uint256",
              "name": "protocol",
              "type": "uint256"
            },
            {
              "internalType": "string",
              "name": "pointer",
              "type": "string"
            }
          ],
          "internalType": "struct Metadata",
          "name": "_metadata",
          "type": "tuple"
        },
        {
          "internalType": "address",
          "name": "_recipient",
          "type": "address"
        },
        {
          "internalType": "string",
          "name": "_description",
          "type": "string"
        }
      ],
      "name": "registerProject",
      "outputs": [
        {
          "internalType": "bytes32",
          "name": "profileId",
          "type": "bytes32"
        }
      ],
      "stateMutability": "nonpayable",
      "type": "function"
    },
    {
      "inputs": [],
      "name": "renounceOwnership",
      "outputs": [],
      "stateMutability": "payable",
      "type": "function"
    },
    {
      "inputs": [],
      "name": "requestOwnershipHandover",
      "outputs": [],
      "stateMutability": "payable",
      "type": "function"
    },
    {
      "inputs": [
        {
          "internalType": "bytes32",
          "name": "_projectId",
          "type": "bytes32"
        }
      ],
      "name": "revokeProjectSupply",
      "outputs": [],
      "stateMutability": "nonpayable",
      "type": "function"
    },
    {
      "inputs": [
        {
          "internalType": "address",
          "name": "newAlloAddress",
          "type": "address"
        }
      ],
      "name": "setAlloAddress",
      "outputs": [],
      "stateMutability": "nonpayable",
      "type": "function"
    },
    {
      "inputs": [
        {
          "internalType": "address",
          "name": "newHatsContractAddress",
          "type": "address"
        }
      ],
      "name": "setHatsContractAddress",
      "outputs": [],
      "stateMutability": "nonpayable",
      "type": "function"
    },
    {
      "inputs": [
        {
          "internalType": "uint256",
          "name": "newManagerHatID",
          "type": "uint256"
        }
      ],
      "name": "setManagerHatID",
      "outputs": [],
      "stateMutability": "nonpayable",
      "type": "function"
    },
    {
      "inputs": [
        {
          "internalType": "address",
          "name": "newStrategy",
          "type": "address"
        }
      ],
      "name": "setStrategyAddress",
      "outputs": [],
      "stateMutability": "nonpayable",
      "type": "function"
    },
    {
      "inputs": [
        {
          "internalType": "address",
          "name": "newStrategyFactory",
          "type": "address"
        }
      ],
      "name": "setStrategyFactoryAddress",
      "outputs": [],
      "stateMutability": "nonpayable",
      "type": "function"
    },
    {
      "inputs": [
        {
          "internalType": "bytes32",
          "name": "_projectId",
          "type": "bytes32"
        },
        {
          "internalType": "uint256",
          "name": "_amount",
          "type": "uint256"
        }
      ],
      "name": "supplyProject",
      "outputs": [],
      "stateMutability": "payable",
      "type": "function"
    },
    {
      "inputs": [
        {
          "internalType": "address",
          "name": "newOwner",
          "type": "address"
        }
      ],
      "name": "transferOwnership",
      "outputs": [],
      "stateMutability": "payable",
      "type": "function"
    },
    {
      "stateMutability": "payable",
      "type": "receive"
    }
  ],
  "bytecode": "0x60806040523480156200001157600080fd5b50604051620028103803806200281083398101604081905262000034916200013a565b60016000908155600280546001600160a01b038089166001600160a01b031992831681179093556003805489831690841617905560048054888316908416178155600780549288169284168317905560058054909316909117909155600684905560408051635ab1bd5360e01b81529051635ab1bd53928281019260209291908290030181865afa158015620000ce573d6000803e3d6000fd5b505050506040513d601f19601f82011682018060405250810190620000f49190620001ae565b600180546001600160a01b0319166001600160a01b039290921691909117905550620001d5945050505050565b6001600160a01b03811681146200013757600080fd5b50565b600080600080600060a086880312156200015357600080fd5b8551620001608162000121565b6020870151909550620001738162000121565b6040870151909450620001868162000121565b6060870151909350620001998162000121565b80925050608086015190509295509295909350565b600060208284031215620001c157600080fd5b8151620001ce8162000121565b9392505050565b61262b80620001e56000396000f3fe60806040526004361061016a5760003560e01c80638d363831116100d1578063b21370331161008a578063df06c27311610064578063df06c2731461043b578063f04e283e14610471578063f2fde38b14610484578063fee81cf41461049757600080fd5b8063b2137033146103cc578063b50991b4146103ee578063d1de78e41461041b57600080fd5b80638d363831146102fe5780638da5cb5b1461031e57806394a8fb4a1461033757806396c80c3a1461036457806397e39fef14610384578063a0cf0aea146103a457600080fd5b80635d5bba3f116101235780635d5bba3f1461021b5780636617dd66146102695780637057d8aa14610296578063711d7606146102b65780637144e4b5146102d6578063715018a6146102f657600080fd5b806316e46f681461017657806324cfba9f146101b657806325692962146101d857806340f1ab98146101e057806345fcf5cf146101f357806354d1f13d1461021357600080fd5b3661017157005b600080fd5b34801561018257600080fd5b506101a3610191366004611b74565b6000908152600d602052604090205490565b6040519081526020015b60405180910390f35b3480156101c257600080fd5b506101d66101d1366004611bb2565b6104ca565b005b6101d66104f4565b6101d66101ee366004611bd6565b610544565b3480156101ff57600080fd5b506101d661020e366004611b74565b610d47565b6101d6610d54565b34801561022757600080fd5b50610251610236366004611b74565b6000908152600e60205260409020546001600160a01b031690565b6040516001600160a01b0390911681526020016101ad565b34801561027557600080fd5b50610289610284366004611b74565b610d90565b6040516101ad9190611c3c565b3480156102a257600080fd5b506101d66102b1366004611bb2565b610dfc565b3480156102c257600080fd5b506101d66102d1366004611bb2565b610e30565b3480156102e257600080fd5b506101a36102f1366004611d60565b610e5a565b6101d66110a6565b34801561030a57600080fd5b506101a3610319366004611e43565b6110ba565b34801561032a57600080fd5b50638b78c6d81954610251565b34801561034357600080fd5b50610357610352366004611b74565b6110e4565b6040516101ad9190611ec3565b34801561037057600080fd5b506101d661037f366004611bb2565b61126c565b34801561039057600080fd5b50600554610251906001600160a01b031681565b3480156103b057600080fd5b5061025173eeeeeeeeeeeeeeeeeeeeeeeeeeeeeeeeeeeeeeee81565b3480156103d857600080fd5b506103e1611296565b6040516101ad9190611f19565b3480156103fa57600080fd5b5061040e610409366004611b74565b6112ee565b6040516101ad9190611f84565b34801561042757600080fd5b506101d6610436366004611b74565b611366565b34801561044757600080fd5b50610251610456366004611b74565b6000908152600c60205260409020546001600160a01b031690565b6101d661047f366004611bb2565b6115e2565b6101d6610492366004611bb2565b61161f565b3480156104a357600080fd5b506101a36104b2366004611bb2565b63389a75e1600c908152600091909152602090205490565b6104d2611646565b600380546001600160a01b0319166001600160a01b0392909216919091179055565b60006202a30067ffffffffffffffff164201905063389a75e1600c5233600052806020600c2055337fdbf36a107da19e49527a7176a1babf963b4b0ff8cde35ee35d6cd8f1f9ac7e1d600080a250565b61054c611661565b6000828152600b60205260409020805460019091015461056d908390612018565b111561058c57604051636678cfdf60e01b815260040160405180910390fd5b6105958261168b565b6105df5760405162461bcd60e51b8152602060048201526016602482015275141c9bda9958dd08191bd95cc81b9bdd08195e1a5cdd60521b60448201526064015b60405180910390fd5b8015806105ec5750348114155b1561060a576040516303e09bb960e31b815260040160405180910390fd5b6000828152600d60205260409020541561063757604051631efd3de160e31b815260040160405180910390fd5b6000828152600c6020526040902054336001600160a01b03909116036106705760405163e6d10a8160e01b815260040160405180910390fd5b6000828152600b602052604081206001018054839290610691908490612018565b90915550506000828152600a6020908152604080832033845290915281205490036106e55760008281526009602090815260408220805460018101825590835291200180546001600160a01b031916331790555b6000828152600a602090815260408083203384529091528120805483929061070e908490612018565b909155505060405181815282907f315cb30dd854bd9e9df31e31754930ba16b498240f74a4ef23531f84c4ee49109060200160405180910390a26000828152600b60205260409020805460019091015410610d3957600061076e83611716565b90506000815160016107809190612018565b67ffffffffffffffff81111561079857610798611c4f565b6040519080825280602002602001820160405280156107c1578160200160208202803683370190505b50905060005b825181101561082a578281815181106107e2576107e261202b565b6020026020010151600001518282815181106108005761080061202b565b6001600160a01b03909216602092830291909101909101528061082281612041565b9150506107c7565b50308183518151811061083f5761083f61202b565b60200260200101906001600160a01b031690816001600160a01b0316815250506108a96040518060400160405280600c81526020016b14d554141312515497d2105560a21b815250826040518060800160405280604381526020016125b360439139876001611844565b604080516001808252818301909252600091602080830190803683375050506000868152600c602052604081205482519293506001600160a01b0316918391906108f5576108f561202b565b60200260200101906001600160a01b031690816001600160a01b03168152505061095f6040518060400160405280600c81526020016b11561150d55513d497d2105560a21b8152508260405180608001604052806043815260200161257060439139886000611844565b604080516080810182526000878152600f6020818152848320600181015485528a84529181529054818401528284018790526007546001600160a01b03166060840152925190926109b192910161205a565b60408051808303601f190181529082905260048054600354637316bcd160e01b85526001600160a01b03908116928501929092529193501690637316bcd1906024016020604051808303816000875af1158015610a12573d6000803e3d6000fd5b505050506040513d601f19601f82011682018060405250810190610a3691906120f5565b6000878152600e6020908152604080832080546001600160a01b0319166001600160a01b0395861690811790915560025482518084018452600181528351808501855260148152736d616e616765722077656270616765206c696e6b60601b818701529481019490945291516370803ea560e11b81529394919091169263e1007d4a923492610ae5928d92899173eeeeeeeeeeeeeeeeeeeeeeeeeeeeeeeeeeeeeeee918a918e90600401612112565b60206040518083038185885af1158015610b03573d6000803e3d6000fd5b50505050506040513d601f19601f82011682018060405250810190610b28919061217d565b6000888152600b6020526040902054909150471015610b895760405162461bcd60e51b815260206004820181905260248201527f496e73756666696369656e742062616c616e636520696e20636f6e747261637460448201526064016105d6565b6002546000888152600b6020526040908190205490516316b35beb60e21b815260048101849052602481018290526001600160a01b0390921691635acd6fac91906044016000604051808303818588803b158015610be657600080fd5b505af1158015610bfa573d6000803e3d6000fd5b5050506000898152600c6020908152604080832054600b835281842054825180840184526001815283518085018552600881526732bc32b1baba37b960c11b81870152818601529251949650610c6295506001600160a01b0390911693869391929101612196565b60408051601f19818403018152908290526002546301d703a760e21b83529092506001600160a01b03169063075c0e9c90610ca390859085906004016121d3565b6020604051808303816000875af1158015610cc2573d6000803e3d6000fd5b505050506040513d601f19601f82011682018060405250810190610ce691906120f5565b506000888152600d602090815260409182902084905581518a81529081018490527fc5d45cf1508cae377cc227a37ea00b97fa9e86e03ce72364a0b7e85e36baacec910160405180910390a15050505050505b610d436001600055565b5050565b610d4f611646565b600655565b63389a75e1600c523360005260006020600c2055337ffa7b8eab7da67f412cc9575ed43464468f9bfbae89d1675917346ca6d8fe3c92600080a2565b600081815260096020908152604091829020805483518184028101840190945280845260609392830182828015610df057602002820191906000526020600020905b81546001600160a01b03168152600190910190602001808311610dd2575b50505050509050919050565b610e04611646565b600780546001600160a01b039092166001600160a01b0319928316811790915560058054909216179055565b610e38611646565b600480546001600160a01b0319166001600160a01b0392909216919091179055565b604080516002808252606082018352600092839291906020830190803683370190505090508381600081518110610e9357610e9361202b565b60200260200101906001600160a01b031690816001600160a01b0316815250503081600181518110610ec757610ec761202b565b6001600160a01b03928316602091820292909201810191909152600254604080516313b6eab760e21b815290519190931692634edbaadc9260048083019391928290030181865afa158015610f20573d6000803e3d6000fd5b505050506040513d601f19601f82011682018060405250810190610f44919061217d565b6000838152600b602052604081208054909190610f62908490612018565b9091555050600154604051633a92f65f60e01b81526001600160a01b0390911690633a92f65f90610f9f908a908a908a90309088906004016121ec565b6020604051808303816000875af1158015610fbe573d6000803e3d6000fd5b505050506040513d601f19601f82011682018060405250810190610fe2919061217d565b60088054600181019091557ff3f7a9fe364faab93b216da50a3214154f22a0a2b415b23a84c8169e8b636ee3018190556000818152600b6020526040812080549294508a92909190611035908490612018565b90915550506000828152600b6020526040902060020161105587826122c6565b506000828152600b6020526040902060030161107184826122c6565b50506000818152600c6020526040902080546001600160a01b0385166001600160a01b03199091161790559695505050505050565b6110ae611646565b6110b860006119c7565b565b6000828152600a602090815260408083206001600160a01b03851684529091529020545b92915050565b61110f6040518060800160405280600081526020016000815260200160608152602001606081525090565b600b6000838152602001908152602001600020604051806080016040529081600082015481526020016001820154815260200160028201805461115190612246565b80601f016020809104026020016040519081016040528092919081815260200182805461117d90612246565b80156111ca5780601f1061119f576101008083540402835291602001916111ca565b820191906000526020600020905b8154815290600101906020018083116111ad57829003601f168201915b505050505081526020016003820180546111e390612246565b80601f016020809104026020016040519081016040528092919081815260200182805461120f90612246565b801561125c5780601f106112315761010080835404028352916020019161125c565b820191906000526020600020905b81548152906001019060200180831161123f57829003601f168201915b5050505050815250509050919050565b611274611646565b600280546001600160a01b0319166001600160a01b0392909216919091179055565b606060088054806020026020016040519081016040528092919081815260200182805480156112e457602002820191906000526020600020905b8154815260200190600101908083116112d0575b5050505050905090565b6112f6611aa6565b600154604051628a678560e11b8152600481018490526001600160a01b0390911690630114cf0a90602401600060405180830381865afa15801561133e573d6000803e3d6000fd5b505050506040513d6000823e601f3d908101601f191682016040526110de919081019061241d565b61136e611661565b6113778161168b565b6113bc5760405162461bcd60e51b8152602060048201526016602482015275141c9bda9958dd08191bd95cc81b9bdd08195e1a5cdd60521b60448201526064016105d6565b6000818152600a60209081526040808320338452909152902054806114165760405162461bcd60e51b815260206004820152601060248201526f14d554141316481393d5081193d5539160821b60448201526064016105d6565b6000828152600a602090815260408083203384528252808320839055848352600b9091528120600101805483929061144f9084906124e4565b909155505060008281526009602052604081205461146f906001906124e4565b67ffffffffffffffff81111561148757611487611c4f565b6040519080825280602002602001820160405280156114b0578160200160208202803683370190505b5090506000805b6000858152600960205260409020548110156115925760008581526009602052604090208054339190839081106114f0576114f061202b565b6000918252602090912001546001600160a01b03161461158057600085815260096020526040902080548290811061152a5761152a61202b565b9060005260206000200160009054906101000a90046001600160a01b031683838151811061155a5761155a61202b565b6001600160a01b03909216602092830291909101909101528161157c81612041565b9250505b8061158a81612041565b9150506114b7565b50600084815260096020908152604090912083516115b292850190611afa565b506115d273eeeeeeeeeeeeeeeeeeeeeeeeeeeeeeeeeeeeeeee3385611a05565b5050506115df6001600055565b50565b6115ea611646565b63389a75e1600c52806000526020600c20805442111561161257636f5e88186000526004601cfd5b600090556115df816119c7565b611627611646565b8060601b61163d57637448fbae6000526004601cfd5b6115df816119c7565b638b78c6d8195433146110b8576382b429006000526004601cfd5b60026000540361168457604051633ee5aeb560e01b815260040160405180910390fd5b6002600055565b600154604051628a678560e11b81526004810183905260009182916001600160a01b0390911690630114cf0a90602401600060405180830381865afa1580156116d8573d6000803e3d6000fd5b505050506040513d6000823e601f3d908101601f19168201604052611700919081019061241d565b608001516001600160a01b031615159392505050565b6000818152600960205260408120546060919067ffffffffffffffff81111561174157611741611c4f565b60405190808252806020026020018201604052801561178657816020015b604080518082019091526000808252602082015281526020019060019003908161175f5790505b50905060005b60008481526009602052604090205481101561183d5760008481526009602052604081208054839081106117c2576117c261202b565b6000918252602080832090910154878352600a825260408084206001600160a01b0390921680855291835292839020548351808501909452818452918301829052855190935090919085908590811061181d5761181d61202b565b60200260200101819052505050808061183590612041565b91505061178c565b5092915050565b6005546006548551604051635829492f60e11b81526000936001600160a01b03169263b052925e92611884928b9190309081906001908d906004016124f7565b6020604051808303816000875af11580156118a3573d6000803e3d6000fd5b505050506040513d601f19601f820116820180604052508101906118c7919061217d565b905060005b855181101561198d5760055486516001600160a01b039091169063641f776e9084908990859081106119005761190061202b565b60200260200101516040518363ffffffff1660e01b81526004016119379291909182526001600160a01b0316602082015260400190565b6020604051808303816000875af1158015611956573d6000803e3d6000fd5b505050506040513d601f19601f8201168201806040525081019061197a919061254d565b508061198581612041565b9150506118cc565b5081156119ad576000838152600f602052604090206001018190556119bf565b6000838152600f602052604090208190555b505050505050565b638b78c6d81980546001600160a01b039092169182907f8be0079c531659141344cd1fd0a4f28419497f9722a3daafe3b4186f6b6457e0600080a355565b73eeeeeeeeeeeeeeeeeeeeeeeeeeeeeeeeeeeeeeed196001600160a01b03841601611a3957611a348282611a44565b505050565b611a34838383611a60565b60003860003884865af1610d435763b12d13eb6000526004601cfd5b816014528060345263a9059cbb60601b60005260206000604460106000875af13d156001600051141716611a9c576390b8ec186000526004601cfd5b6000603452505050565b6040518060c00160405280600080191681526020016000815260200160608152602001611ae6604051806040016040528060008152602001606081525090565b815260006020820181905260409091015290565b828054828255906000526020600020908101928215611b4f579160200282015b82811115611b4f57825182546001600160a01b0319166001600160a01b03909116178255602090920191600190910190611b1a565b50611b5b929150611b5f565b5090565b5b80821115611b5b5760008155600101611b60565b600060208284031215611b8657600080fd5b5035919050565b6001600160a01b03811681146115df57600080fd5b8035611bad81611b8d565b919050565b600060208284031215611bc457600080fd5b8135611bcf81611b8d565b9392505050565b60008060408385031215611be957600080fd5b50508035926020909101359150565b600081518084526020808501945080840160005b83811015611c315781516001600160a01b031687529582019590820190600101611c0c565b509495945050505050565b602081526000611bcf6020830184611bf8565b634e487b7160e01b600052604160045260246000fd5b6040805190810167ffffffffffffffff81118282101715611c8857611c88611c4f565b60405290565b60405160c0810167ffffffffffffffff81118282101715611c8857611c88611c4f565b604051601f8201601f1916810167ffffffffffffffff81118282101715611cda57611cda611c4f565b604052919050565b600067ffffffffffffffff821115611cfc57611cfc611c4f565b50601f01601f191660200190565b600082601f830112611d1b57600080fd5b8135611d2e611d2982611ce2565b611cb1565b818152846020838601011115611d4357600080fd5b816020850160208301376000918101602001919091529392505050565b60008060008060008060c08789031215611d7957600080fd5b8635955060208701359450604087013567ffffffffffffffff80821115611d9f57600080fd5b611dab8a838b01611d0a565b95506060890135915080821115611dc157600080fd5b908801906040828b031215611dd557600080fd5b611ddd611c65565b82358152602083013582811115611df357600080fd5b611dff8c828601611d0a565b6020830152509450611e1360808a01611ba2565b935060a0890135915080821115611e2957600080fd5b50611e3689828a01611d0a565b9150509295509295509295565b60008060408385031215611e5657600080fd5b823591506020830135611e6881611b8d565b809150509250929050565b60005b83811015611e8e578181015183820152602001611e76565b50506000910152565b60008151808452611eaf816020860160208601611e73565b601f01601f19169290920160200192915050565b6020815281516020820152602082015160408201526000604083015160806060840152611ef360a0840182611e97565b90506060840151601f19848303016080850152611f108282611e97565b95945050505050565b6020808252825182820181905260009190848201906040850190845b81811015611f5157835183529284019291840191600101611f35565b50909695505050505050565b805182526000602082015160406020850152611f7c6040850182611e97565b949350505050565b6020815281516020820152602082015160408201526000604083015160c06060840152611fb460e0840182611e97565b90506060840151601f19848303016080850152611fd18282611f5d565b60808601516001600160a01b0390811660a0878101919091529096015190951660c090940193909352509192915050565b634e487b7160e01b600052601160045260246000fd5b808201808211156110de576110de612002565b634e487b7160e01b600052603260045260246000fd5b60006001820161205357612053612002565b5060010190565b6020808252825182820152828101516040808401919091528084015160806060850152805160a085018190526000939291830191849160c08701905b808410156120c857845180516001600160a01b0316835286015186830152938501936001939093019290820190612096565b5060608801516001600160a01b03811660808901529450979650505050505050565b8051611bad81611b8d565b60006020828403121561210757600080fd5b8151611bcf81611b8d565b878152600060018060a01b03808916602084015260e0604084015261213a60e0840189611e97565b818816606085015286608085015283810360a085015261215a8187611f5d565b91505082810360c084015261216f8185611bf8565b9a9950505050505050505050565b60006020828403121561218f57600080fd5b5051919050565b6001600160a01b03858116825284166020820152604081018390526080606082018190526000906121c990830184611f5d565b9695505050505050565b828152604060208201526000611f7c6040830184611e97565b85815260a06020820152600061220560a0830187611e97565b82810360408401526122178187611f5d565b6001600160a01b03861660608501528381036080850152905061223a8185611bf8565b98975050505050505050565b600181811c9082168061225a57607f821691505b60208210810361227a57634e487b7160e01b600052602260045260246000fd5b50919050565b601f821115611a3457600081815260208120601f850160051c810160208610156122a75750805b601f850160051c820191505b818110156119bf578281556001016122b3565b815167ffffffffffffffff8111156122e0576122e0611c4f565b6122f4816122ee8454612246565b84612280565b602080601f83116001811461232957600084156123115750858301515b600019600386901b1c1916600185901b1785556119bf565b600085815260208120601f198616915b8281101561235857888601518255948401946001909101908401612339565b50858210156123765787850151600019600388901b60f8161c191681555b5050505050600190811b01905550565b600082601f83011261239757600080fd5b81516123a5611d2982611ce2565b8181528460208386010111156123ba57600080fd5b611f7c826020830160208701611e73565b6000604082840312156123dd57600080fd5b6123e5611c65565b905081518152602082015167ffffffffffffffff81111561240557600080fd5b61241184828501612386565b60208301525092915050565b60006020828403121561242f57600080fd5b815167ffffffffffffffff8082111561244757600080fd5b9083019060c0828603121561245b57600080fd5b612463611c8e565b825181526020830151602082015260408301518281111561248357600080fd5b61248f87828601612386565b6040830152506060830151828111156124a757600080fd5b6124b3878286016123cb565b6060830152506124c5608084016120ea565b60808201526124d660a084016120ea565b60a082015295945050505050565b818103818111156110de576110de612002565b87815260e06020820152600061251060e0830189611e97565b63ffffffff881660408401526001600160a01b0387811660608501528616608084015284151560a084015282810360c084015261216f8185611e97565b60006020828403121561255f57600080fd5b81518015158114611bcf57600080fdfe697066733a2f2f6261666b7265696837686a6734656866346c71646f7173746c6b6a78766a79377a666e7a61346b6568326b6e6f68736c6533696b6a6a61336732692f697066733a2f2f6261666b72656965793261356a7471766a6c3465686b336a78376668376564736a716d716c36767178646834377a6e736c65657475673434756d792fa26469706673582212204b309716eee5fa044d83e592c86dd5ec844f3f9d33310f412a36d6e9add6276b64736f6c63430008140033",
  "linkReferences": {},
  "deployedLinkReferences": {}
}