{
  "_format": "hh-sol-artifact-1",
  "contractName": "Manager",
  "sourceName": "contracts/Manager.sol",
  "abi": [
    {
      "inputs": [
        {
          "internalType": "address",
          "name": "alloAddress",
          "type": "address"
        },
        {
          "internalType": "address",
          "name": "_strategy",
          "type": "address"
        }
      ],
      "stateMutability": "nonpayable",
      "type": "constructor"
    },
    {
      "inputs": [],
      "name": "ALLOCATION_ACTIVE",
      "type": "error"
    },
    {
      "inputs": [],
      "name": "ALLOCATION_NOT_ACTIVE",
      "type": "error"
    },
    {
      "inputs": [],
      "name": "ALLOCATION_NOT_ENDED",
      "type": "error"
    },
    {
      "inputs": [],
      "name": "ALREADY_INITIALIZED",
      "type": "error"
    },
    {
      "inputs": [],
      "name": "AMOUNT_MISMATCH",
      "type": "error"
    },
    {
      "inputs": [],
      "name": "ANCHOR_ERROR",
      "type": "error"
    },
    {
      "inputs": [],
      "name": "ARRAY_MISMATCH",
      "type": "error"
    },
    {
      "inputs": [],
      "name": "INVALID",
      "type": "error"
    },
    {
      "inputs": [],
      "name": "INVALID_ADDRESS",
      "type": "error"
    },
    {
      "inputs": [],
      "name": "INVALID_FEE",
      "type": "error"
    },
    {
      "inputs": [],
      "name": "INVALID_METADATA",
      "type": "error"
    },
    {
      "inputs": [],
      "name": "INVALID_REGISTRATION",
      "type": "error"
    },
    {
      "inputs": [],
      "name": "IS_APPROVED_STRATEGY",
      "type": "error"
    },
    {
      "inputs": [],
      "name": "MISMATCH",
      "type": "error"
    },
    {
      "inputs": [],
      "name": "NONCE_NOT_AVAILABLE",
      "type": "error"
    },
    {
      "inputs": [],
      "name": "NOT_APPROVED_STRATEGY",
      "type": "error"
    },
    {
      "inputs": [],
      "name": "NOT_ENOUGH_FUNDS",
      "type": "error"
    },
    {
      "inputs": [],
      "name": "NOT_IMPLEMENTED",
      "type": "error"
    },
    {
      "inputs": [],
      "name": "NOT_INITIALIZED",
      "type": "error"
    },
    {
      "inputs": [],
      "name": "NOT_PENDING_OWNER",
      "type": "error"
    },
    {
      "inputs": [],
      "name": "POOL_ACTIVE",
      "type": "error"
    },
    {
      "inputs": [],
      "name": "POOL_INACTIVE",
      "type": "error"
    },
    {
      "inputs": [],
      "name": "RECIPIENT_ALREADY_ACCEPTED",
      "type": "error"
    },
    {
      "inputs": [
        {
          "internalType": "address",
          "name": "recipientId",
          "type": "address"
        }
      ],
      "name": "RECIPIENT_ERROR",
      "type": "error"
    },
    {
      "inputs": [],
      "name": "RECIPIENT_NOT_ACCEPTED",
      "type": "error"
    },
    {
      "inputs": [],
      "name": "REGISTRATION_NOT_ACTIVE",
      "type": "error"
    },
    {
      "inputs": [],
      "name": "ReentrancyGuardReentrantCall",
      "type": "error"
    },
    {
      "inputs": [],
      "name": "SUPPLY_IS_ALLOWED_ONLY_ONCE",
      "type": "error"
    },
    {
      "inputs": [],
      "name": "SUPPLY_NOT_FOUND",
      "type": "error"
    },
    {
      "inputs": [],
      "name": "UNAUTHORIZED",
      "type": "error"
    },
    {
      "inputs": [],
      "name": "ZERO_ADDRESS",
      "type": "error"
    },
    {
      "anonymous": false,
      "inputs": [
        {
          "indexed": true,
          "internalType": "bytes32",
          "name": "projectId",
          "type": "bytes32"
        },
        {
          "indexed": false,
          "internalType": "uint256",
          "name": "amount",
          "type": "uint256"
        }
      ],
      "name": "ProjectFunded",
      "type": "event"
    },
    {
      "inputs": [],
      "name": "NATIVE",
      "outputs": [
        {
          "internalType": "address",
          "name": "",
          "type": "address"
        }
      ],
      "stateMutability": "view",
      "type": "function"
    },
    {
      "inputs": [
        {
          "internalType": "bytes32",
          "name": "profileId",
          "type": "bytes32"
        }
      ],
      "name": "_projectExists",
      "outputs": [
        {
          "internalType": "bool",
          "name": "",
          "type": "bool"
        }
      ],
      "stateMutability": "view",
      "type": "function"
    },
    {
      "inputs": [
        {
          "internalType": "uint256",
          "name": "_poolId",
          "type": "uint256"
        },
        {
          "internalType": "address",
          "name": "_recipientId",
          "type": "address"
        },
        {
          "internalType": "enum Status",
          "name": "_recipientStatus",
          "type": "uint8"
        },
        {
          "internalType": "uint256",
          "name": "_grantAmount",
          "type": "uint256"
        }
      ],
      "name": "allocateFundsToRecipient",
      "outputs": [],
      "stateMutability": "nonpayable",
      "type": "function"
    },
    {
      "inputs": [
        {
          "internalType": "bytes32",
          "name": "_profileId",
          "type": "bytes32"
        },
        {
          "internalType": "address",
          "name": "_strategy",
          "type": "address"
        },
        {
          "internalType": "address",
          "name": "_token",
          "type": "address"
        },
        {
          "internalType": "uint256",
          "name": "_amount",
          "type": "uint256"
        },
        {
          "components": [
            {
              "internalType": "uint256",
              "name": "protocol",
              "type": "uint256"
            },
            {
              "internalType": "string",
              "name": "pointer",
              "type": "string"
            }
          ],
          "internalType": "struct Metadata",
          "name": "_metadata",
          "type": "tuple"
        },
        {
          "internalType": "address[]",
          "name": "_managers",
          "type": "address[]"
        }
      ],
      "name": "createPoolForDirectGrants",
      "outputs": [
        {
          "internalType": "uint256",
          "name": "",
          "type": "uint256"
        }
      ],
      "stateMutability": "payable",
      "type": "function"
    },
    {
      "inputs": [
        {
          "internalType": "uint256",
          "name": "_poolId",
          "type": "uint256"
        },
        {
          "internalType": "address[]",
          "name": "_recipientIds",
          "type": "address[]"
        }
      ],
      "name": "distributeFundsToRecipient",
      "outputs": [],
      "stateMutability": "nonpayable",
      "type": "function"
    },
    {
      "inputs": [],
      "name": "getAlloRegistry",
      "outputs": [
        {
          "internalType": "contract IRegistry",
          "name": "",
          "type": "address"
        }
      ],
      "stateMutability": "view",
      "type": "function"
    },
    {
      "inputs": [
        {
          "internalType": "bytes32",
          "name": "profileId",
          "type": "bytes32"
        }
      ],
      "name": "getProfile",
      "outputs": [
        {
          "components": [
            {
              "internalType": "bytes32",
              "name": "id",
              "type": "bytes32"
            },
            {
              "internalType": "uint256",
              "name": "nonce",
              "type": "uint256"
            },
            {
              "internalType": "string",
              "name": "name",
              "type": "string"
            },
            {
              "components": [
                {
                  "internalType": "uint256",
                  "name": "protocol",
                  "type": "uint256"
                },
                {
                  "internalType": "string",
                  "name": "pointer",
                  "type": "string"
                }
              ],
              "internalType": "struct Metadata",
              "name": "metadata",
              "type": "tuple"
            },
            {
              "internalType": "address",
              "name": "owner",
              "type": "address"
            },
            {
              "internalType": "address",
              "name": "anchor",
              "type": "address"
            }
          ],
          "internalType": "struct IRegistry.Profile",
          "name": "",
          "type": "tuple"
        }
      ],
      "stateMutability": "view",
      "type": "function"
    },
    {
      "inputs": [],
      "name": "getProfiles",
      "outputs": [
        {
          "internalType": "bytes32[]",
          "name": "",
          "type": "bytes32[]"
        }
      ],
      "stateMutability": "view",
      "type": "function"
    },
    {
      "inputs": [
        {
          "internalType": "bytes32",
          "name": "_projectId",
          "type": "bytes32"
        }
      ],
      "name": "getProjectSupply",
      "outputs": [
        {
          "components": [
            {
              "internalType": "uint256",
              "name": "need",
              "type": "uint256"
            },
            {
              "internalType": "uint256",
              "name": "has",
              "type": "uint256"
            }
          ],
          "internalType": "struct ProjectSupply",
          "name": "",
          "type": "tuple"
        }
      ],
      "stateMutability": "view",
      "type": "function"
    },
    {
      "inputs": [
        {
          "internalType": "uint256",
          "name": "_needs",
          "type": "uint256"
        },
        {
          "internalType": "uint256",
          "name": "_nonce",
          "type": "uint256"
        },
        {
          "internalType": "string",
          "name": "_name",
          "type": "string"
        },
        {
          "components": [
            {
              "internalType": "uint256",
              "name": "protocol",
              "type": "uint256"
            },
            {
              "internalType": "string",
              "name": "pointer",
              "type": "string"
            }
          ],
          "internalType": "struct Metadata",
          "name": "_metadata",
          "type": "tuple"
        },
        {
          "internalType": "address",
          "name": "_owner",
          "type": "address"
        },
        {
          "internalType": "address[]",
          "name": "_members",
          "type": "address[]"
        }
      ],
      "name": "registerProject",
      "outputs": [
        {
          "internalType": "bytes32",
          "name": "profileId",
          "type": "bytes32"
        }
      ],
      "stateMutability": "nonpayable",
      "type": "function"
    },
    {
      "inputs": [
        {
          "internalType": "uint256",
          "name": "_poolId",
          "type": "uint256"
        },
        {
          "internalType": "address",
          "name": "_recipientAddress",
          "type": "address"
        },
        {
          "internalType": "address",
          "name": "_registryAnchor",
          "type": "address"
        },
        {
          "internalType": "uint256",
          "name": "_grantAmount",
          "type": "uint256"
        },
        {
          "components": [
            {
              "internalType": "uint256",
              "name": "protocol",
              "type": "uint256"
            },
            {
              "internalType": "string",
              "name": "pointer",
              "type": "string"
            }
          ],
          "internalType": "struct Metadata",
          "name": "_metadata",
          "type": "tuple"
        }
      ],
      "name": "registerRecipient",
      "outputs": [
        {
          "internalType": "address",
          "name": "recipientId",
          "type": "address"
        }
      ],
      "stateMutability": "nonpayable",
      "type": "function"
    },
    {
      "inputs": [
        {
          "internalType": "bytes32",
          "name": "_projectId",
          "type": "bytes32"
        }
      ],
      "name": "revokeProjectSupply",
      "outputs": [],
      "stateMutability": "nonpayable",
      "type": "function"
    },
    {
      "inputs": [
        {
          "internalType": "uint256",
          "name": "_poolId",
          "type": "uint256"
        },
        {
          "internalType": "uint256",
          "name": "_amount",
          "type": "uint256"
        }
      ],
      "name": "supplyPool",
      "outputs": [],
      "stateMutability": "payable",
      "type": "function"
    },
    {
      "inputs": [
        {
          "internalType": "bytes32",
          "name": "_projectId",
          "type": "bytes32"
        },
        {
          "internalType": "uint256",
          "name": "_amount",
          "type": "uint256"
        }
      ],
      "name": "supplyProject",
      "outputs": [],
      "stateMutability": "payable",
      "type": "function"
    },
    {
      "stateMutability": "payable",
      "type": "receive"
    }
  ],
  "bytecode": "0x60806040523480156200001157600080fd5b50604051620030843803806200308483398181016040528101906200003791906200020d565b600160008190555081600260006101000a81548173ffffffffffffffffffffffffffffffffffffffff021916908373ffffffffffffffffffffffffffffffffffffffff16021790555080600360006101000a81548173ffffffffffffffffffffffffffffffffffffffff021916908373ffffffffffffffffffffffffffffffffffffffff1602179055506000600260009054906101000a900473ffffffffffffffffffffffffffffffffffffffff1673ffffffffffffffffffffffffffffffffffffffff16635ab1bd536040518163ffffffff1660e01b8152600401602060405180830381865afa15801562000131573d6000803e3d6000fd5b505050506040513d601f19601f8201168201806040525081019062000157919062000299565b905080600160006101000a81548173ffffffffffffffffffffffffffffffffffffffff021916908373ffffffffffffffffffffffffffffffffffffffff160217905550505050620002cb565b600080fd5b600073ffffffffffffffffffffffffffffffffffffffff82169050919050565b6000620001d582620001a8565b9050919050565b620001e781620001c8565b8114620001f357600080fd5b50565b6000815190506200020781620001dc565b92915050565b60008060408385031215620002275762000226620001a3565b5b60006200023785828601620001f6565b92505060206200024a85828601620001f6565b9150509250929050565b60006200026182620001c8565b9050919050565b620002738162000254565b81146200027f57600080fd5b50565b600081519050620002938162000268565b92915050565b600060208284031215620002b257620002b1620001a3565b5b6000620002c28482850162000282565b91505092915050565b612da980620002db6000396000f3fe6080604052600436106100e15760003560e01c8063b21370331161007f578063cd5b422511610059578063cd5b4225146102b6578063d1de78e4146102df578063dcc9b8f214610308578063fc73f0c214610345576100e8565b8063b213703314610211578063b50991b41461023c578063c42b06f014610279576100e8565b80635b6c87e3116100bb5780635b6c87e31461016257806394a8fb4a1461017e5780639bd55ad0146101bb578063a0cf0aea146101e6576100e8565b80631ba53b19146100ed57806336a27abb1461011d57806340f1ab9814610146576100e8565b366100e857005b600080fd5b61010760048036038101906101029190611a22565b610382565b6040516101149190611af6565b60405180910390f35b34801561012957600080fd5b50610144600480360381019061013f9190611b36565b61038e565b005b610160600480360381019061015b9190611b9d565b61044c565b005b61017c60048036038101906101779190611bdd565b610997565b005b34801561018a57600080fd5b506101a560048036038101906101a09190611c1d565b610a6e565b6040516101b29190611c88565b60405180910390f35b3480156101c757600080fd5b506101d0610aaf565b6040516101dd9190611d02565b60405180910390f35b3480156101f257600080fd5b506101fb610b47565b6040516102089190611d2c565b60405180910390f35b34801561021d57600080fd5b50610226610b5f565b6040516102339190611e05565b60405180910390f35b34801561024857600080fd5b50610263600480360381019061025e9190611c1d565b610bb7565b6040516102709190611f82565b60405180910390f35b34801561028557600080fd5b506102a0600480360381019061029b9190611c1d565b610c67565b6040516102ad9190611fbf565b60405180910390f35b3480156102c257600080fd5b506102dd60048036038101906102d89190611fda565b610d4a565b005b3480156102eb57600080fd5b5061030660048036038101906103019190611c1d565b610df4565b005b34801561031457600080fd5b5061032f600480360381019061032a9190612036565b610fb5565b60405161033c9190611d2c565b60405180910390f35b34801561035157600080fd5b5061036c600480360381019061036791906120cd565b61108c565b60405161037991906121bd565b60405180910390f35b60009695505050505050565b60008383836040516020016103a59392919061224f565b6040516020818303038152906040529050600260009054906101000a900473ffffffffffffffffffffffffffffffffffffffff1673ffffffffffffffffffffffffffffffffffffffff16632ec3818886836040518363ffffffff1660e01b81526004016104139291906122db565b600060405180830381600087803b15801561042d57600080fd5b505af1158015610441573d6000803e3d6000fd5b505050505050505050565b610454611196565b61045d82610c67565b61049c576040517f08c379a000000000000000000000000000000000000000000000000000000000815260040161049390612368565b60405180910390fd5b60008114806104ab5750348114155b156104e2576040517f1f04ddc800000000000000000000000000000000000000000000000000000000815260040160405180910390fd5b60006006600084815260200190815260200160002060010160003373ffffffffffffffffffffffffffffffffffffffff1673ffffffffffffffffffffffffffffffffffffffff168152602001908152602001600020541215610570576040517f446e224d00000000000000000000000000000000000000000000000000000000815260040160405180910390fd5b8060056000848152602001908152602001600020600101600082825461059691906123b7565b92505081905550806006600084815260200190815260200160002060010160003373ffffffffffffffffffffffffffffffffffffffff1673ffffffffffffffffffffffffffffffffffffffff1681526020019081526020016000208190555060066000838152602001908152602001600020600001339080600181540180825580915050600190039060005260206000200160009091909190916101000a81548173ffffffffffffffffffffffffffffffffffffffff021916908373ffffffffffffffffffffffffffffffffffffffff160217905550817f315cb30dd854bd9e9df31e31754930ba16b498240f74a4ef23531f84c4ee49108260405161069c9190611af6565b60405180910390a2600560008381526020019081526020016000206000015460056000848152602001908152602001600020600101541061098b5760006106e2836111dc565b9050600060405180608001604052806000151581526020016000151581526020016000151581526020018381525090506000825167ffffffffffffffff81111561072f5761072e6117b4565b5b60405190808252806020026020018201604052801561075d5781602001602082028036833780820191505090505b50905060005b83518110156107eb5783818151811061077f5761077e6123eb565b5b60200260200101516000015182828151811061079e5761079d6123eb565b5b602002602001019073ffffffffffffffffffffffffffffffffffffffff16908173ffffffffffffffffffffffffffffffffffffffff168152505080806107e39061241a565b915050610763565b5060006040518060400160405280600181526020016040518060400160405280600d81526020017f656d70747920706f696e74657200000000000000000000000000000000000000815250815250905060008360405160200161084e91906125b2565b60405160208183030381529060405290506000600260009054906101000a900473ffffffffffffffffffffffffffffffffffffffff1673ffffffffffffffffffffffffffffffffffffffff1663e1007d4a348a600360009054906101000a900473ffffffffffffffffffffffffffffffffffffffff168673eeeeeeeeeeeeeeeeeeeeeeeeeeeeeeeeeeeeeeee60008a8c6040518963ffffffff1660e01b815260040161090097969594939291906126fb565b60206040518083038185885af115801561091e573d6000803e3d6000fd5b50505050506040513d601f19601f820116820180604052508101906109439190612794565b90506109846040518060400160405280601181526020017f3d3d3d3d3d3d3e204e455720504f4f4c3a00000000000000000000000000000081525082611425565b5050505050505b6109936114c1565b5050565b804710156109da576040517f08c379a00000000000000000000000000000000000000000000000000000000081526004016109d19061280d565b60405180910390fd5b600260009054906101000a900473ffffffffffffffffffffffffffffffffffffffff1673ffffffffffffffffffffffffffffffffffffffff16635acd6fac8284846040518463ffffffff1660e01b8152600401610a3892919061282d565b6000604051808303818588803b158015610a5157600080fd5b505af1158015610a65573d6000803e3d6000fd5b50505050505050565b610a766115e7565b60056000838152602001908152602001600020604051806040016040529081600082015481526020016001820154815250509050919050565b6000600260009054906101000a900473ffffffffffffffffffffffffffffffffffffffff1673ffffffffffffffffffffffffffffffffffffffff16635ab1bd536040518163ffffffff1660e01b8152600401602060405180830381865afa158015610b1e573d6000803e3d6000fd5b505050506040513d601f19601f82011682018060405250810190610b429190612894565b905090565b73eeeeeeeeeeeeeeeeeeeeeeeeeeeeeeeeeeeeeeee81565b60606004805480602002602001604051908101604052809291908181526020018280548015610bad57602002820191906000526020600020905b815481526020019060010190808311610b99575b5050505050905090565b610bbf611601565b600160009054906101000a900473ffffffffffffffffffffffffffffffffffffffff1673ffffffffffffffffffffffffffffffffffffffff16630114cf0a836040518263ffffffff1660e01b8152600401610c1a91906121bd565b600060405180830381865afa158015610c37573d6000803e3d6000fd5b505050506040513d6000823e3d601f19601f82011682018060405250810190610c609190612a9f565b9050919050565b600080600160009054906101000a900473ffffffffffffffffffffffffffffffffffffffff1673ffffffffffffffffffffffffffffffffffffffff16630114cf0a846040518263ffffffff1660e01b8152600401610cc591906121bd565b600060405180830381865afa158015610ce2573d6000803e3d6000fd5b505050506040513d6000823e3d601f19601f82011682018060405250810190610d0b9190612a9f565b9050600073ffffffffffffffffffffffffffffffffffffffff16816080015173ffffffffffffffffffffffffffffffffffffffff161415915050919050565b6000604051806020016040528060008152509050600260009054906101000a900473ffffffffffffffffffffffffffffffffffffffff1673ffffffffffffffffffffffffffffffffffffffff16633a5fbd928484846040518463ffffffff1660e01b8152600401610dbd93929190612ae8565b600060405180830381600087803b158015610dd757600080fd5b505af1158015610deb573d6000803e3d6000fd5b50505050505050565b610dfc611196565b610e0581610c67565b610e44576040517f08c379a0000000000000000000000000000000000000000000000000000000008152600401610e3b90612368565b60405180910390fd5b60006006600083815260200190815260200160002060010160003373ffffffffffffffffffffffffffffffffffffffff1673ffffffffffffffffffffffffffffffffffffffff16815260200190815260200160002054905060008113610edf576040517f08c379a0000000000000000000000000000000000000000000000000000000008152600401610ed690612b79565b60405180910390fd5b60008190507fffffffffffffffffffffffffffffffffffffffffffffffffffffffffffffffff6006600085815260200190815260200160002060010160003373ffffffffffffffffffffffffffffffffffffffff1673ffffffffffffffffffffffffffffffffffffffff1681526020019081526020016000208190555080600560008581526020019081526020016000206001016000828254610f829190612b99565b92505081905550610fa873eeeeeeeeeeeeeeeeeeeeeeeeeeeeeeeeeeeeeeee33836114cb565b5050610fb26114c1565b50565b60008085858585604051602001610fcf9493929190612bcd565b6040516020818303038152906040529050600260009054906101000a900473ffffffffffffffffffffffffffffffffffffffff1673ffffffffffffffffffffffffffffffffffffffff1663075c0e9c88836040518363ffffffff1660e01b815260040161103d9291906122db565b6020604051808303816000875af115801561105c573d6000803e3d6000fd5b505050506040513d601f19601f820116820180604052508101906110809190612c19565b91505095945050505050565b6000600160009054906101000a900473ffffffffffffffffffffffffffffffffffffffff1673ffffffffffffffffffffffffffffffffffffffff16633a92f65f87878787876040518663ffffffff1660e01b81526004016110f1959493929190612c7f565b6020604051808303816000875af1158015611110573d6000803e3d6000fd5b505050506040513d601f19601f820116820180604052508101906111349190612ce7565b905060048190806001815401808255809150506001900390600052602060002001600090919091909150558660056000838152602001908152602001600020600001600082825461118591906123b7565b925050819055509695505050505050565b6002600054036111d2576040517f3ee5aeb500000000000000000000000000000000000000000000000000000000815260040160405180910390fd5b6002600081905550565b606060006006600084815260200190815260200160002090506000816000018054905067ffffffffffffffff811115611218576112176117b4565b5b60405190808252806020026020018201604052801561125157816020015b61123e61166c565b8152602001906001900390816112365790505b5090506000805b836000018054905081101561136857600084600001828154811061127f5761127e6123eb565b5b9060005260206000200160009054906101000a900473ffffffffffffffffffffffffffffffffffffffff16905060008560010160008373ffffffffffffffffffffffffffffffffffffffff1673ffffffffffffffffffffffffffffffffffffffff16815260200190815260200160002054905060008113156113535760405180604001604052808373ffffffffffffffffffffffffffffffffffffffff16815260200182815250858581518110611339576113386123eb565b5b6020026020010181905250838061134f9061241a565b9450505b505080806113609061241a565b915050611258565b5060008167ffffffffffffffff811115611385576113846117b4565b5b6040519080825280602002602001820160405280156113be57816020015b6113ab61166c565b8152602001906001900390816113a35790505b50905060005b82811015611418578381815181106113df576113de6123eb565b5b60200260200101518282815181106113fa576113f96123eb565b5b602002602001018190525080806114109061241a565b9150506113c4565b5080945050505050919050565b6114bd828260405160240161143b929190612d14565b6040516020818303038152906040527fb60e72cc000000000000000000000000000000000000000000000000000000007bffffffffffffffffffffffffffffffffffffffffffffffffffffffff19166020820180517bffffffffffffffffffffffffffffffffffffffffffffffffffffffff8381831617835250505050611532565b5050565b6001600081905550565b73eeeeeeeeeeeeeeeeeeeeeeeeeeeeeeeeeeeeeeee73ffffffffffffffffffffffffffffffffffffffff168373ffffffffffffffffffffffffffffffffffffffff16036115215761151c828261154c565b61152d565b61152c83838361156c565b5b505050565b611549816115416115bb6115dc565b63ffffffff16565b50565b60003860003884865af16115685763b12d13eb6000526004601cfd5b5050565b81601452806034526fa9059cbb00000000000000000000000060005260206000604460106000875af13d1560016000511417166115b1576390b8ec186000526004601cfd5b6000603452505050565b60006a636f6e736f6c652e6c6f679050600080835160208501845afa505050565b61169c819050919050565b604051806040016040528060008152602001600081525090565b6040518060c0016040528060008019168152602001600081526020016060815260200161162c6116a6565b8152602001600073ffffffffffffffffffffffffffffffffffffffff168152602001600073ffffffffffffffffffffffffffffffffffffffff1681525090565b6040518060400160405280600073ffffffffffffffffffffffffffffffffffffffff168152602001600081525090565b6116a4612d44565b565b604051806040016040528060008152602001606081525090565b6000604051905090565b600080fd5b600080fd5b6000819050919050565b6116e7816116d4565b81146116f257600080fd5b50565b600081359050611704816116de565b92915050565b600073ffffffffffffffffffffffffffffffffffffffff82169050919050565b60006117358261170a565b9050919050565b6117458161172a565b811461175057600080fd5b50565b6000813590506117628161173c565b92915050565b6000819050919050565b61177b81611768565b811461178657600080fd5b50565b60008135905061179881611772565b92915050565b600080fd5b6000601f19601f8301169050919050565b7f4e487b7100000000000000000000000000000000000000000000000000000000600052604160045260246000fd5b6117ec826117a3565b810181811067ffffffffffffffff8211171561180b5761180a6117b4565b5b80604052505050565b600061181e6116c0565b905061182a82826117e3565b919050565b600080fd5b600080fd5b600080fd5b600067ffffffffffffffff821115611859576118586117b4565b5b611862826117a3565b9050602081019050919050565b82818337600083830152505050565b600061189161188c8461183e565b611814565b9050828152602081018484840111156118ad576118ac611839565b5b6118b884828561186f565b509392505050565b600082601f8301126118d5576118d4611834565b5b81356118e584826020860161187e565b91505092915050565b6000604082840312156119045761190361179e565b5b61190e6040611814565b9050600061191e84828501611789565b600083015250602082013567ffffffffffffffff8111156119425761194161182f565b5b61194e848285016118c0565b60208301525092915050565b600067ffffffffffffffff821115611975576119746117b4565b5b602082029050602081019050919050565b600080fd5b600061199e6119998461195a565b611814565b905080838252602082019050602084028301858111156119c1576119c0611986565b5b835b818110156119ea57806119d68882611753565b8452602084019350506020810190506119c3565b5050509392505050565b600082601f830112611a0957611a08611834565b5b8135611a1984826020860161198b565b91505092915050565b60008060008060008060c08789031215611a3f57611a3e6116ca565b5b6000611a4d89828a016116f5565b9650506020611a5e89828a01611753565b9550506040611a6f89828a01611753565b9450506060611a8089828a01611789565b935050608087013567ffffffffffffffff811115611aa157611aa06116cf565b5b611aad89828a016118ee565b92505060a087013567ffffffffffffffff811115611ace57611acd6116cf565b5b611ada89828a016119f4565b9150509295509295509295565b611af081611768565b82525050565b6000602082019050611b0b6000830184611ae7565b92915050565b60078110611b1e57600080fd5b50565b600081359050611b3081611b11565b92915050565b60008060008060808587031215611b5057611b4f6116ca565b5b6000611b5e87828801611789565b9450506020611b6f87828801611753565b9350506040611b8087828801611b21565b9250506060611b9187828801611789565b91505092959194509250565b60008060408385031215611bb457611bb36116ca565b5b6000611bc2858286016116f5565b9250506020611bd385828601611789565b9150509250929050565b60008060408385031215611bf457611bf36116ca565b5b6000611c0285828601611789565b9250506020611c1385828601611789565b9150509250929050565b600060208284031215611c3357611c326116ca565b5b6000611c41848285016116f5565b91505092915050565b611c5381611768565b82525050565b604082016000820151611c6f6000850182611c4a565b506020820151611c826020850182611c4a565b50505050565b6000604082019050611c9d6000830184611c59565b92915050565b6000819050919050565b6000611cc8611cc3611cbe8461170a565b611ca3565b61170a565b9050919050565b6000611cda82611cad565b9050919050565b6000611cec82611ccf565b9050919050565b611cfc81611ce1565b82525050565b6000602082019050611d176000830184611cf3565b92915050565b611d268161172a565b82525050565b6000602082019050611d416000830184611d1d565b92915050565b600081519050919050565b600082825260208201905092915050565b6000819050602082019050919050565b611d7c816116d4565b82525050565b6000611d8e8383611d73565b60208301905092915050565b6000602082019050919050565b6000611db282611d47565b611dbc8185611d52565b9350611dc783611d63565b8060005b83811015611df8578151611ddf8882611d82565b9750611dea83611d9a565b925050600181019050611dcb565b5085935050505092915050565b60006020820190508181036000830152611e1f8184611da7565b905092915050565b600081519050919050565b600082825260208201905092915050565b60005b83811015611e61578082015181840152602081019050611e46565b60008484015250505050565b6000611e7882611e27565b611e828185611e32565b9350611e92818560208601611e43565b611e9b816117a3565b840191505092915050565b6000604083016000830151611ebe6000860182611c4a565b5060208301518482036020860152611ed68282611e6d565b9150508091505092915050565b611eec8161172a565b82525050565b600060c083016000830151611f0a6000860182611d73565b506020830151611f1d6020860182611c4a565b5060408301518482036040860152611f358282611e6d565b91505060608301518482036060860152611f4f8282611ea6565b9150506080830151611f646080860182611ee3565b5060a0830151611f7760a0860182611ee3565b508091505092915050565b60006020820190508181036000830152611f9c8184611ef2565b905092915050565b60008115159050919050565b611fb981611fa4565b82525050565b6000602082019050611fd46000830184611fb0565b92915050565b60008060408385031215611ff157611ff06116ca565b5b6000611fff85828601611789565b925050602083013567ffffffffffffffff8111156120205761201f6116cf565b5b61202c858286016119f4565b9150509250929050565b600080600080600060a08688031215612052576120516116ca565b5b600061206088828901611789565b955050602061207188828901611753565b945050604061208288828901611753565b935050606061209388828901611789565b925050608086013567ffffffffffffffff8111156120b4576120b36116cf565b5b6120c0888289016118ee565b9150509295509295909350565b60008060008060008060c087890312156120ea576120e96116ca565b5b60006120f889828a01611789565b965050602061210989828a01611789565b955050604087013567ffffffffffffffff81111561212a576121296116cf565b5b61213689828a016118c0565b945050606087013567ffffffffffffffff811115612157576121566116cf565b5b61216389828a016118ee565b935050608061217489828a01611753565b92505060a087013567ffffffffffffffff811115612195576121946116cf565b5b6121a189828a016119f4565b9150509295509295509295565b6121b7816116d4565b82525050565b60006020820190506121d260008301846121ae565b92915050565b7f4e487b7100000000000000000000000000000000000000000000000000000000600052602160045260246000fd5b60078110612218576122176121d8565b5b50565b600081905061222982612207565b919050565b60006122398261221b565b9050919050565b6122498161222e565b82525050565b60006060820190506122646000830186611d1d565b6122716020830185612240565b61227e6040830184611ae7565b949350505050565b600081519050919050565b600082825260208201905092915050565b60006122ad82612286565b6122b78185612291565b93506122c7818560208601611e43565b6122d0816117a3565b840191505092915050565b60006040820190506122f06000830185611ae7565b818103602083015261230281846122a2565b90509392505050565b600082825260208201905092915050565b7f50726f6a65637420646f6573206e6f7420657869737400000000000000000000600082015250565b600061235260168361230b565b915061235d8261231c565b602082019050919050565b6000602082019050818103600083015261238181612345565b9050919050565b7f4e487b7100000000000000000000000000000000000000000000000000000000600052601160045260246000fd5b60006123c282611768565b91506123cd83611768565b92508282019050808211156123e5576123e4612388565b5b92915050565b7f4e487b7100000000000000000000000000000000000000000000000000000000600052603260045260246000fd5b600061242582611768565b91507fffffffffffffffffffffffffffffffffffffffffffffffffffffffffffffffff820361245757612456612388565b5b600182019050919050565b61246b81611fa4565b82525050565b600081519050919050565b600082825260208201905092915050565b6000819050602082019050919050565b6040820160008201516124b36000850182611ee3565b5060208201516124c66020850182611c4a565b50505050565b60006124d8838361249d565b60408301905092915050565b6000602082019050919050565b60006124fc82612471565b612506818561247c565b93506125118361248d565b8060005b8381101561254257815161252988826124cc565b9750612534836124e4565b925050600181019050612515565b5085935050505092915050565b60006080830160008301516125676000860182612462565b50602083015161257a6020860182612462565b50604083015161258d6040860182612462565b50606083015184820360608601526125a582826124f1565b9150508091505092915050565b600060208201905081810360008301526125cc818461254f565b905092915050565b6000819050919050565b60006125f96125f46125ef846125d4565b611ca3565b611768565b9050919050565b612609816125de565b82525050565b60006040830160008301516126276000860182611c4a565b506020830151848203602086015261263f8282611e6d565b9150508091505092915050565b600081519050919050565b600082825260208201905092915050565b6000819050602082019050919050565b60006126848383611ee3565b60208301905092915050565b6000602082019050919050565b60006126a88261264c565b6126b28185612657565b93506126bd83612668565b8060005b838110156126ee5781516126d58882612678565b97506126e083612690565b9250506001810190506126c1565b5085935050505092915050565b600060e082019050612710600083018a6121ae565b61271d6020830189611d1d565b818103604083015261272f81886122a2565b905061273e6060830187611d1d565b61274b6080830186612600565b81810360a083015261275d818561260f565b905081810360c0830152612771818461269d565b905098975050505050505050565b60008151905061278e81611772565b92915050565b6000602082840312156127aa576127a96116ca565b5b60006127b88482850161277f565b91505092915050565b7f496e73756666696369656e742062616c616e636520696e20636f6e7472616374600082015250565b60006127f760208361230b565b9150612802826127c1565b602082019050919050565b60006020820190508181036000830152612826816127ea565b9050919050565b60006040820190506128426000830185611ae7565b61284f6020830184611ae7565b9392505050565b60006128618261172a565b9050919050565b61287181612856565b811461287c57600080fd5b50565b60008151905061288e81612868565b92915050565b6000602082840312156128aa576128a96116ca565b5b60006128b88482850161287f565b91505092915050565b6000815190506128d0816116de565b92915050565b60006128e96128e48461183e565b611814565b90508281526020810184848401111561290557612904611839565b5b612910848285611e43565b509392505050565b600082601f83011261292d5761292c611834565b5b815161293d8482602086016128d6565b91505092915050565b60006040828403121561295c5761295b61179e565b5b6129666040611814565b905060006129768482850161277f565b600083015250602082015167ffffffffffffffff81111561299a5761299961182f565b5b6129a684828501612918565b60208301525092915050565b6000815190506129c18161173c565b92915050565b600060c082840312156129dd576129dc61179e565b5b6129e760c0611814565b905060006129f7848285016128c1565b6000830152506020612a0b8482850161277f565b602083015250604082015167ffffffffffffffff811115612a2f57612a2e61182f565b5b612a3b84828501612918565b604083015250606082015167ffffffffffffffff811115612a5f57612a5e61182f565b5b612a6b84828501612946565b6060830152506080612a7f848285016129b2565b60808301525060a0612a93848285016129b2565b60a08301525092915050565b600060208284031215612ab557612ab46116ca565b5b600082015167ffffffffffffffff811115612ad357612ad26116cf565b5b612adf848285016129c7565b91505092915050565b6000606082019050612afd6000830186611ae7565b8181036020830152612b0f818561269d565b90508181036040830152612b2381846122a2565b9050949350505050565b7f535550504c59204e4f5420464f554e4400000000000000000000000000000000600082015250565b6000612b6360108361230b565b9150612b6e82612b2d565b602082019050919050565b60006020820190508181036000830152612b9281612b56565b9050919050565b6000612ba482611768565b9150612baf83611768565b9250828203905081811115612bc757612bc6612388565b5b92915050565b6000608082019050612be26000830187611d1d565b612bef6020830186611d1d565b612bfc6040830185611ae7565b8181036060830152612c0e818461260f565b905095945050505050565b600060208284031215612c2f57612c2e6116ca565b5b6000612c3d848285016129b2565b91505092915050565b6000612c5182611e27565b612c5b818561230b565b9350612c6b818560208601611e43565b612c74816117a3565b840191505092915050565b600060a082019050612c946000830188611ae7565b8181036020830152612ca68187612c46565b90508181036040830152612cba818661260f565b9050612cc96060830185611d1d565b8181036080830152612cdb818461269d565b90509695505050505050565b600060208284031215612cfd57612cfc6116ca565b5b6000612d0b848285016128c1565b91505092915050565b60006040820190508181036000830152612d2e8185612c46565b9050612d3d6020830184611ae7565b9392505050565b7f4e487b7100000000000000000000000000000000000000000000000000000000600052605160045260246000fdfea264697066735822122064212627e131bab33d04512b43ca3a1c9d6fee6ee006c7d8b72a3645f59b122264736f6c63430008140033",
  "linkReferences": {},
  "deployedLinkReferences": {}
}