{
  "_format": "hh-sol-artifact-1",
  "contractName": "Manager",
  "sourceName": "contracts/Manager.sol",
  "abi": [
    {
      "inputs": [
        {
          "internalType": "address",
          "name": "alloAddress",
          "type": "address"
        },
        {
          "internalType": "address",
          "name": "_strategy",
          "type": "address"
        }
      ],
      "stateMutability": "nonpayable",
      "type": "constructor"
    },
    {
      "inputs": [],
      "name": "ALLOCATION_ACTIVE",
      "type": "error"
    },
    {
      "inputs": [],
      "name": "ALLOCATION_NOT_ACTIVE",
      "type": "error"
    },
    {
      "inputs": [],
      "name": "ALLOCATION_NOT_ENDED",
      "type": "error"
    },
    {
      "inputs": [],
      "name": "ALREADY_INITIALIZED",
      "type": "error"
    },
    {
      "inputs": [],
      "name": "AMOUNT_MISMATCH",
      "type": "error"
    },
    {
      "inputs": [],
      "name": "ANCHOR_ERROR",
      "type": "error"
    },
    {
      "inputs": [],
      "name": "ARRAY_MISMATCH",
      "type": "error"
    },
    {
      "inputs": [],
      "name": "INVALID",
      "type": "error"
    },
    {
      "inputs": [],
      "name": "INVALID_ADDRESS",
      "type": "error"
    },
    {
      "inputs": [],
      "name": "INVALID_FEE",
      "type": "error"
    },
    {
      "inputs": [],
      "name": "INVALID_METADATA",
      "type": "error"
    },
    {
      "inputs": [],
      "name": "INVALID_MILESTONE_STATUS",
      "type": "error"
    },
    {
      "inputs": [],
      "name": "INVALID_REGISTRATION",
      "type": "error"
    },
    {
      "inputs": [],
      "name": "IS_APPROVED_STRATEGY",
      "type": "error"
    },
    {
      "inputs": [],
      "name": "MISMATCH",
      "type": "error"
    },
    {
      "inputs": [],
      "name": "NONCE_NOT_AVAILABLE",
      "type": "error"
    },
    {
      "inputs": [],
      "name": "NOT_APPROVED_STRATEGY",
      "type": "error"
    },
    {
      "inputs": [],
      "name": "NOT_ENOUGH_FUNDS",
      "type": "error"
    },
    {
      "inputs": [],
      "name": "NOT_IMPLEMENTED",
      "type": "error"
    },
    {
      "inputs": [],
      "name": "NOT_INITIALIZED",
      "type": "error"
    },
    {
      "inputs": [],
      "name": "NOT_PENDING_OWNER",
      "type": "error"
    },
    {
      "inputs": [],
      "name": "POOL_ACTIVE",
      "type": "error"
    },
    {
      "inputs": [],
      "name": "POOL_INACTIVE",
      "type": "error"
    },
    {
      "inputs": [],
      "name": "RECIPIENT_ALREADY_ACCEPTED",
      "type": "error"
    },
    {
      "inputs": [
        {
          "internalType": "address",
          "name": "recipientId",
          "type": "address"
        }
      ],
      "name": "RECIPIENT_ERROR",
      "type": "error"
    },
    {
      "inputs": [],
      "name": "RECIPIENT_NOT_ACCEPTED",
      "type": "error"
    },
    {
      "inputs": [],
      "name": "REGISTRATION_NOT_ACTIVE",
      "type": "error"
    },
    {
      "inputs": [],
      "name": "ReentrancyGuardReentrantCall",
      "type": "error"
    },
    {
      "inputs": [],
      "name": "SUPPLY_IS_ALLOWED_ONLY_ONCE",
      "type": "error"
    },
    {
      "inputs": [],
      "name": "SUPPLY_NOT_FOUND",
      "type": "error"
    },
    {
      "inputs": [],
      "name": "UNAUTHORIZED",
      "type": "error"
    },
    {
      "inputs": [],
      "name": "ZERO_ADDRESS",
      "type": "error"
    },
    {
      "anonymous": false,
      "inputs": [
        {
          "indexed": true,
          "internalType": "bytes32",
          "name": "projectId",
          "type": "bytes32"
        },
        {
          "indexed": false,
          "internalType": "uint256",
          "name": "amount",
          "type": "uint256"
        }
      ],
      "name": "ProjectFunded",
      "type": "event"
    },
    {
      "anonymous": false,
      "inputs": [
        {
          "indexed": false,
          "internalType": "bytes32",
          "name": "projectId",
          "type": "bytes32"
        },
        {
          "indexed": false,
          "internalType": "uint256",
          "name": "poolId",
          "type": "uint256"
        }
      ],
      "name": "ProjectPoolCreeated",
      "type": "event"
    },
    {
      "inputs": [],
      "name": "NATIVE",
      "outputs": [
        {
          "internalType": "address",
          "name": "",
          "type": "address"
        }
      ],
      "stateMutability": "view",
      "type": "function"
    },
    {
      "inputs": [
        {
          "internalType": "bytes32",
          "name": "profileId",
          "type": "bytes32"
        }
      ],
      "name": "_projectExists",
      "outputs": [
        {
          "internalType": "bool",
          "name": "",
          "type": "bool"
        }
      ],
      "stateMutability": "view",
      "type": "function"
    },
    {
      "inputs": [
        {
          "internalType": "bytes32",
          "name": "profileId",
          "type": "bytes32"
        }
      ],
      "name": "getProfile",
      "outputs": [
        {
          "components": [
            {
              "internalType": "bytes32",
              "name": "id",
              "type": "bytes32"
            },
            {
              "internalType": "uint256",
              "name": "nonce",
              "type": "uint256"
            },
            {
              "internalType": "string",
              "name": "name",
              "type": "string"
            },
            {
              "components": [
                {
                  "internalType": "uint256",
                  "name": "protocol",
                  "type": "uint256"
                },
                {
                  "internalType": "string",
                  "name": "pointer",
                  "type": "string"
                }
              ],
              "internalType": "struct Metadata",
              "name": "metadata",
              "type": "tuple"
            },
            {
              "internalType": "address",
              "name": "owner",
              "type": "address"
            },
            {
              "internalType": "address",
              "name": "anchor",
              "type": "address"
            }
          ],
          "internalType": "struct IRegistry.Profile",
          "name": "",
          "type": "tuple"
        }
      ],
      "stateMutability": "view",
      "type": "function"
    },
    {
      "inputs": [],
      "name": "getProfiles",
      "outputs": [
        {
          "internalType": "bytes32[]",
          "name": "",
          "type": "bytes32[]"
        }
      ],
      "stateMutability": "view",
      "type": "function"
    },
    {
      "inputs": [
        {
          "internalType": "bytes32",
          "name": "_projectId",
          "type": "bytes32"
        }
      ],
      "name": "getProjectSupply",
      "outputs": [
        {
          "components": [
            {
              "internalType": "uint256",
              "name": "need",
              "type": "uint256"
            },
            {
              "internalType": "uint256",
              "name": "has",
              "type": "uint256"
            }
          ],
          "internalType": "struct ProjectSupply",
          "name": "",
          "type": "tuple"
        }
      ],
      "stateMutability": "view",
      "type": "function"
    },
    {
      "inputs": [
        {
          "internalType": "uint256",
          "name": "_needs",
          "type": "uint256"
        },
        {
          "internalType": "uint256",
          "name": "_nonce",
          "type": "uint256"
        },
        {
          "internalType": "string",
          "name": "_name",
          "type": "string"
        },
        {
          "components": [
            {
              "internalType": "uint256",
              "name": "protocol",
              "type": "uint256"
            },
            {
              "internalType": "string",
              "name": "pointer",
              "type": "string"
            }
          ],
          "internalType": "struct Metadata",
          "name": "_metadata",
          "type": "tuple"
        },
        {
          "internalType": "address",
          "name": "_owner",
          "type": "address"
        },
        {
          "internalType": "address",
          "name": "_recipient",
          "type": "address"
        }
      ],
      "name": "registerProject",
      "outputs": [
        {
          "internalType": "bytes32",
          "name": "profileId",
          "type": "bytes32"
        }
      ],
      "stateMutability": "nonpayable",
      "type": "function"
    },
    {
      "inputs": [
        {
          "internalType": "bytes32",
          "name": "_projectId",
          "type": "bytes32"
        }
      ],
      "name": "revokeProjectSupply",
      "outputs": [],
      "stateMutability": "nonpayable",
      "type": "function"
    },
    {
      "inputs": [
        {
          "internalType": "bytes32",
          "name": "_projectId",
          "type": "bytes32"
        },
        {
          "internalType": "uint256",
          "name": "_amount",
          "type": "uint256"
        }
      ],
      "name": "supplyProject",
      "outputs": [],
      "stateMutability": "payable",
      "type": "function"
    },
    {
      "stateMutability": "payable",
      "type": "receive"
    }
  ],
  "bytecode": "0x60806040523480156200001157600080fd5b506040516200184b3803806200184b83398101604081905262000034916200010e565b60016000908155600280546001600160a01b038086166001600160a01b03199283168117909355600380549186169190921617905560408051635ab1bd5360e01b81529051635ab1bd53916004808201926020929091908290030181865afa158015620000a5573d6000803e3d6000fd5b505050506040513d601f19601f82011682018060405250810190620000cb91906200014d565b600180546001600160a01b0319166001600160a01b03929092169190911790555062000174915050565b6001600160a01b03811681146200010b57600080fd5b50565b600080604083850312156200012257600080fd5b82516200012f81620000f5565b60208401519092506200014281620000f5565b809150509250929050565b6000602082840312156200016057600080fd5b81516200016d81620000f5565b9392505050565b6116c780620001846000396000f3fe60806040526004361061007f5760003560e01c8063b21370331161004e578063b213703314610187578063b50991b4146101a9578063c42b06f0146101d6578063d1de78e41461020657600080fd5b806340f1ab981461008b5780635a7e6abf146100a057806394a8fb4a146100d3578063a0cf0aea1461014757600080fd5b3661008657005b600080fd5b61009e610099366004610f1b565b610226565b005b3480156100ac57600080fd5b506100c06100bb366004611073565b610806565b6040519081526020015b60405180910390f35b3480156100df57600080fd5b5061012c6100ee366004611143565b604080518082019091526000808252602082015250600090815260066020908152604091829020825180840190935280548352600101549082015290565b604080518251815260209283015192810192909252016100ca565b34801561015357600080fd5b5061016f73eeeeeeeeeeeeeeeeeeeeeeeeeeeeeeeeeeeeeeee81565b6040516001600160a01b0390911681526020016100ca565b34801561019357600080fd5b5061019c610987565b6040516100ca919061115c565b3480156101b557600080fd5b506101c96101c4366004611143565b6109df565b6040516100ca9190611217565b3480156101e257600080fd5b506101f66101f1366004611143565b610a5d565b60405190151581526020016100ca565b34801561021257600080fd5b5061009e610221366004611143565b610ae8565b61022e610c11565b61023782610a5d565b6102815760405162461bcd60e51b8152602060048201526016602482015275141c9bda9958dd08191bd95cc81b9bdd08195e1a5cdd60521b60448201526064015b60405180910390fd5b80158061028e5750348114155b156102ac576040516303e09bb960e31b815260040160405180910390fd5b600082815260076020908152604080832033845260010190915281205412156102e85760405163446e224d60e01b815260040160405180910390fd5b600082815260066020526040812060010180548392906103099084906112ab565b909155505060008281526007602081815260408084203380865260018083018552838720889055948452815494850182559085529382902090920180546001600160a01b0319169093179092555182815283917f315cb30dd854bd9e9df31e31754930ba16b498240f74a4ef23531f84c4ee4910910160405180910390a260008281526006602052604090208054600190910154106107f85760006103ad83610c3b565b60408051608081018252600080825260208201819052918101829052606081018390528251929350916103e19060016112ab565b67ffffffffffffffff8111156103f9576103f9610f3d565b604051908082528060200260200182016040528015610422578160200160208202803683370190505b50905060005b835181101561048b57838181518110610443576104436112be565b602002602001015160000151828281518110610461576104616112be565b6001600160a01b039092166020928302919091019091015280610483816112d4565b915050610428565b5030818451815181106104a0576104a06112be565b6001600160a01b039092166020928302919091018201526040805180820182526001815281518083018352600d81526c32b6b83a3c903837b4b73a32b960991b8185015281840152905190916000916104fb918691016112ed565b60408051601f1981840301815282825260008a81526006602052918220546002546003546370803ea560e11b865292955090936001600160a01b039182169263e1007d4a923492610570928f921690899073eeeeeeeeeeeeeeeeeeeeeeeeeeeeeeeeeeeeeeee9089908d908f906004016113bd565b60206040518083038185885af115801561058e573d6000803e3d6000fd5b50505050506040513d601f19601f820116820180604052508101906105b39190611428565b60008a8152600660205260409020549091504710156106145760405162461bcd60e51b815260206004820181905260248201527f496e73756666696369656e742062616c616e636520696e20636f6e74726163746044820152606401610278565b60025460008a815260066020526040908190205490516316b35beb60e21b815260048101849052602481018290526001600160a01b0390921691635acd6fac91906044016000604051808303818588803b15801561067157600080fd5b505af1158015610685573d6000803e3d6000fd5b50505060008b81526008602090815260408083205490519294506106ba93506001600160a01b031691849187918a9101611441565b60408051601f19818403018152908290526002546301d703a760e21b83529092506001600160a01b03169063075c0e9c906106fb908590859060040161147e565b6020604051808303816000875af115801561071a573d6000803e3d6000fd5b505050506040513d601f19601f8201168201806040525081019061073e91906114a2565b506040805180820182528b815260208082018581526005805460018101825560009190915283517f036b6384b5eca791c62761152d0c79bb0604c104a5fb6f4eb0703f3154bb3db060029092029182015590517f036b6384b5eca791c62761152d0c79bb0604c104a5fb6f4eb0703f3154bb3db19091015582518d815290810185905290917fc5d45cf1508cae377cc227a37ea00b97fa9e86e03ce72364a0b7e85e36baacec910160405180910390a15050505050505050505b6108026001600055565b5050565b60408051600280825260608201835260009283929190602083019080368337019050509050828160008151811061083f5761083f6112be565b60200260200101906001600160a01b031690816001600160a01b0316815250503081600181518110610873576108736112be565b6001600160a01b039283166020918202929092010152600154604051633a92f65f60e01b8152911690633a92f65f906108b8908a908a908a908a9088906004016114c6565b6020604051808303816000875af11580156108d7573d6000803e3d6000fd5b505050506040513d601f19601f820116820180604052508101906108fb9190611428565b60048054600181019091557f8a35acfbc15ff81a39ae7d344fd709f28e8600b4aa8c65c6b64bfe7fe36bd19b01819055600081815260066020526040812080549294508a9290919061094e9084906112ab565b909155505050600081815260086020526040902080546001600160a01b0384166001600160a01b03199091161790559695505050505050565b606060048054806020026020016040519081016040528092919081815260200182805480156109d557602002820191906000526020600020905b8154815260200190600101908083116109c1575b5050505050905090565b6109e7610ec7565b600154604051628a678560e11b8152600481018490526001600160a01b0390911690630114cf0a90602401600060405180830381865afa158015610a2f573d6000803e3d6000fd5b505050506040513d6000823e601f3d908101601f19168201604052610a5791908101906115b7565b92915050565b600154604051628a678560e11b81526004810183905260009182916001600160a01b0390911690630114cf0a90602401600060405180830381865afa158015610aaa573d6000803e3d6000fd5b505050506040513d6000823e601f3d908101601f19168201604052610ad291908101906115b7565b608001516001600160a01b031615159392505050565b610af0610c11565b610af981610a5d565b610b3e5760405162461bcd60e51b8152602060048201526016602482015275141c9bda9958dd08191bd95cc81b9bdd08195e1a5cdd60521b6044820152606401610278565b6000818152600760209081526040808320338452600101909152812054908113610b9d5760405162461bcd60e51b815260206004820152601060248201526f14d554141316481393d5081193d5539160821b6044820152606401610278565b6000828152600760209081526040808320338452600190810183528184206000199055858452600690925282200180548392839291610bdd90849061167e565b90915550610c02905073eeeeeeeeeeeeeeeeeeeeeeeeeeeeeeeeeeeeeeee3383610e26565b5050610c0e6001600055565b50565b600260005403610c3457604051633ee5aeb560e01b815260040160405180910390fd5b6002600055565b600081815260076020526040812080546060929067ffffffffffffffff811115610c6757610c67610f3d565b604051908082528060200260200182016040528015610cac57816020015b6040805180820190915260008082526020820152815260200190600190039081610c855790505b5090506000805b8354811015610d63576000846000018281548110610cd357610cd36112be565b60009182526020808320909101546001600160a01b031680835260018801909152604082205490925090811315610d4e576040518060400160405280836001600160a01b0316815260200182815250858581518110610d3457610d346112be565b60200260200101819052508380610d4a906112d4565b9450505b50508080610d5b906112d4565b915050610cb3565b5060008167ffffffffffffffff811115610d7f57610d7f610f3d565b604051908082528060200260200182016040528015610dc457816020015b6040805180820190915260008082526020820152815260200190600190039081610d9d5790505b50905060005b82811015610e1c57838181518110610de457610de46112be565b6020026020010151828281518110610dfe57610dfe6112be565b60200260200101819052508080610e14906112d4565b915050610dca565b5095945050505050565b73eeeeeeeeeeeeeeeeeeeeeeeeeeeeeeeeeeeeeeed196001600160a01b03841601610e5a57610e558282610e65565b505050565b610e55838383610e81565b60003860003884865af16108025763b12d13eb6000526004601cfd5b816014528060345263a9059cbb60601b60005260206000604460106000875af13d156001600051141716610ebd576390b8ec186000526004601cfd5b6000603452505050565b6040518060c00160405280600080191681526020016000815260200160608152602001610f07604051806040016040528060008152602001606081525090565b815260006020820181905260409091015290565b60008060408385031215610f2e57600080fd5b50508035926020909101359150565b634e487b7160e01b600052604160045260246000fd5b6040805190810167ffffffffffffffff81118282101715610f7657610f76610f3d565b60405290565b60405160c0810167ffffffffffffffff81118282101715610f7657610f76610f3d565b604051601f8201601f1916810167ffffffffffffffff81118282101715610fc857610fc8610f3d565b604052919050565b600067ffffffffffffffff821115610fea57610fea610f3d565b50601f01601f191660200190565b600082601f83011261100957600080fd5b813561101c61101782610fd0565b610f9f565b81815284602083860101111561103157600080fd5b816020850160208301376000918101602001919091529392505050565b6001600160a01b0381168114610c0e57600080fd5b803561106e8161104e565b919050565b60008060008060008060c0878903121561108c57600080fd5b8635955060208701359450604087013567ffffffffffffffff808211156110b257600080fd5b6110be8a838b01610ff8565b955060608901359150808211156110d457600080fd5b908801906040828b0312156110e857600080fd5b6110f0610f53565b8235815260208301358281111561110657600080fd5b6111128c828601610ff8565b602083015250945061112991505060808801611063565b915061113760a08801611063565b90509295509295509295565b60006020828403121561115557600080fd5b5035919050565b6020808252825182820181905260009190848201906040850190845b8181101561119457835183529284019291840191600101611178565b50909695505050505050565b60005b838110156111bb5781810151838201526020016111a3565b50506000910152565b600081518084526111dc8160208601602086016111a0565b601f01601f19169290920160200192915050565b80518252600060208201516040602085015261120f60408501826111c4565b949350505050565b6020815281516020820152602082015160408201526000604083015160c0606084015261124760e08401826111c4565b90506060840151601f1984830301608085015261126482826111f0565b60808601516001600160a01b0390811660a0878101919091529096015190951660c090940193909352509192915050565b634e487b7160e01b600052601160045260246000fd5b80820180821115610a5757610a57611295565b634e487b7160e01b600052603260045260246000fd5b6000600182016112e6576112e6611295565b5060010190565b6000602080835260a0830184511515828501528185015160408115158187015280870151151560608701526060870151915060808087015282825180855260c0880191508584019450600093505b8084101561136d57845180516001600160a01b031683528601518683015293850193600193909301929082019061133b565b50979650505050505050565b600081518084526020808501945080840160005b838110156113b25781516001600160a01b03168752958201959082019060010161138d565b509495945050505050565b878152600060018060a01b03808916602084015260e060408401526113e560e08401896111c4565b818816606085015286608085015283810360a085015261140581876111f0565b91505082810360c084015261141a8185611379565b9a9950505050505050505050565b60006020828403121561143a57600080fd5b5051919050565b6001600160a01b0385811682528416602082015260408101839052608060608201819052600090611474908301846111f0565b9695505050505050565b82815260406020820152600061120f60408301846111c4565b805161106e8161104e565b6000602082840312156114b457600080fd5b81516114bf8161104e565b9392505050565b85815260a0602082015260006114df60a08301876111c4565b82810360408401526114f181876111f0565b6001600160a01b0386166060850152838103608085015290506115148185611379565b98975050505050505050565b600082601f83011261153157600080fd5b815161153f61101782610fd0565b81815284602083860101111561155457600080fd5b61120f8260208301602087016111a0565b60006040828403121561157757600080fd5b61157f610f53565b905081518152602082015167ffffffffffffffff81111561159f57600080fd5b6115ab84828501611520565b60208301525092915050565b6000602082840312156115c957600080fd5b815167ffffffffffffffff808211156115e157600080fd5b9083019060c082860312156115f557600080fd5b6115fd610f7c565b825181526020830151602082015260408301518281111561161d57600080fd5b61162987828601611520565b60408301525060608301518281111561164157600080fd5b61164d87828601611565565b60608301525061165f60808401611497565b608082015261167060a08401611497565b60a082015295945050505050565b81810381811115610a5757610a5761129556fea264697066735822122035b711a8a3e1acf05eebb1970ce4c0058466c4f9ded2f93ffd1f3e80b1afe2ec64736f6c63430008140033",
  "linkReferences": {},
  "deployedLinkReferences": {}
}