{
  "_format": "hh-sol-artifact-1",
  "contractName": "Manager",
  "sourceName": "contracts/Manager.sol",
  "abi": [
    {
      "inputs": [
        {
          "internalType": "address",
          "name": "alloAddress",
          "type": "address"
        },
        {
          "internalType": "address",
          "name": "_strategy",
          "type": "address"
        }
      ],
      "stateMutability": "nonpayable",
      "type": "constructor"
    },
    {
      "inputs": [],
      "name": "ALLOCATION_ACTIVE",
      "type": "error"
    },
    {
      "inputs": [],
      "name": "ALLOCATION_NOT_ACTIVE",
      "type": "error"
    },
    {
      "inputs": [],
      "name": "ALLOCATION_NOT_ENDED",
      "type": "error"
    },
    {
      "inputs": [],
      "name": "ALREADY_INITIALIZED",
      "type": "error"
    },
    {
      "inputs": [],
      "name": "AMOUNT_MISMATCH",
      "type": "error"
    },
    {
      "inputs": [],
      "name": "ANCHOR_ERROR",
      "type": "error"
    },
    {
      "inputs": [],
      "name": "ARRAY_MISMATCH",
      "type": "error"
    },
    {
      "inputs": [],
      "name": "INVALID",
      "type": "error"
    },
    {
      "inputs": [],
      "name": "INVALID_ADDRESS",
      "type": "error"
    },
    {
      "inputs": [],
      "name": "INVALID_FEE",
      "type": "error"
    },
    {
      "inputs": [],
      "name": "INVALID_METADATA",
      "type": "error"
    },
    {
      "inputs": [],
      "name": "INVALID_MILESTONE_STATUS",
      "type": "error"
    },
    {
      "inputs": [],
      "name": "INVALID_REGISTRATION",
      "type": "error"
    },
    {
      "inputs": [],
      "name": "IS_APPROVED_STRATEGY",
      "type": "error"
    },
    {
      "inputs": [],
      "name": "MISMATCH",
      "type": "error"
    },
    {
      "inputs": [],
      "name": "NONCE_NOT_AVAILABLE",
      "type": "error"
    },
    {
      "inputs": [],
      "name": "NOT_APPROVED_STRATEGY",
      "type": "error"
    },
    {
      "inputs": [],
      "name": "NOT_ENOUGH_FUNDS",
      "type": "error"
    },
    {
      "inputs": [],
      "name": "NOT_IMPLEMENTED",
      "type": "error"
    },
    {
      "inputs": [],
      "name": "NOT_INITIALIZED",
      "type": "error"
    },
    {
      "inputs": [],
      "name": "NOT_PENDING_OWNER",
      "type": "error"
    },
    {
      "inputs": [],
      "name": "POOL_ACTIVE",
      "type": "error"
    },
    {
      "inputs": [],
      "name": "POOL_INACTIVE",
      "type": "error"
    },
    {
      "inputs": [],
      "name": "RECIPIENT_ALREADY_ACCEPTED",
      "type": "error"
    },
    {
      "inputs": [
        {
          "internalType": "address",
          "name": "recipientId",
          "type": "address"
        }
      ],
      "name": "RECIPIENT_ERROR",
      "type": "error"
    },
    {
      "inputs": [],
      "name": "RECIPIENT_NOT_ACCEPTED",
      "type": "error"
    },
    {
      "inputs": [],
      "name": "REGISTRATION_NOT_ACTIVE",
      "type": "error"
    },
    {
      "inputs": [],
      "name": "ReentrancyGuardReentrantCall",
      "type": "error"
    },
    {
      "inputs": [],
      "name": "SUPPLY_IS_ALLOWED_ONLY_ONCE",
      "type": "error"
    },
    {
      "inputs": [],
      "name": "SUPPLY_NOT_FOUND",
      "type": "error"
    },
    {
      "inputs": [],
      "name": "UNAUTHORIZED",
      "type": "error"
    },
    {
      "inputs": [],
      "name": "ZERO_ADDRESS",
      "type": "error"
    },
    {
      "anonymous": false,
      "inputs": [
        {
          "indexed": true,
          "internalType": "bytes32",
          "name": "projectId",
          "type": "bytes32"
        },
        {
          "indexed": false,
          "internalType": "uint256",
          "name": "amount",
          "type": "uint256"
        }
      ],
      "name": "ProjectFunded",
      "type": "event"
    },
    {
      "anonymous": false,
      "inputs": [
        {
          "indexed": false,
          "internalType": "bytes32",
          "name": "projectId",
          "type": "bytes32"
        },
        {
          "indexed": false,
          "internalType": "uint256",
          "name": "poolId",
          "type": "uint256"
        }
      ],
      "name": "ProjectPoolCreeated",
      "type": "event"
    },
    {
      "inputs": [],
      "name": "NATIVE",
      "outputs": [
        {
          "internalType": "address",
          "name": "",
          "type": "address"
        }
      ],
      "stateMutability": "view",
      "type": "function"
    },
    {
      "inputs": [
        {
          "internalType": "bytes32",
          "name": "profileId",
          "type": "bytes32"
        }
      ],
      "name": "_projectExists",
      "outputs": [
        {
          "internalType": "bool",
          "name": "",
          "type": "bool"
        }
      ],
      "stateMutability": "view",
      "type": "function"
    },
    {
      "inputs": [
        {
          "internalType": "bytes32",
          "name": "profileId",
          "type": "bytes32"
        }
      ],
      "name": "getProfile",
      "outputs": [
        {
          "components": [
            {
              "internalType": "bytes32",
              "name": "id",
              "type": "bytes32"
            },
            {
              "internalType": "uint256",
              "name": "nonce",
              "type": "uint256"
            },
            {
              "internalType": "string",
              "name": "name",
              "type": "string"
            },
            {
              "components": [
                {
                  "internalType": "uint256",
                  "name": "protocol",
                  "type": "uint256"
                },
                {
                  "internalType": "string",
                  "name": "pointer",
                  "type": "string"
                }
              ],
              "internalType": "struct Metadata",
              "name": "metadata",
              "type": "tuple"
            },
            {
              "internalType": "address",
              "name": "owner",
              "type": "address"
            },
            {
              "internalType": "address",
              "name": "anchor",
              "type": "address"
            }
          ],
          "internalType": "struct IRegistry.Profile",
          "name": "",
          "type": "tuple"
        }
      ],
      "stateMutability": "view",
      "type": "function"
    },
    {
      "inputs": [],
      "name": "getProfiles",
      "outputs": [
        {
          "internalType": "bytes32[]",
          "name": "",
          "type": "bytes32[]"
        }
      ],
      "stateMutability": "view",
      "type": "function"
    },
    {
      "inputs": [
        {
          "internalType": "bytes32",
          "name": "_projectId",
          "type": "bytes32"
        }
      ],
      "name": "getProjectSupply",
      "outputs": [
        {
          "components": [
            {
              "internalType": "uint256",
              "name": "need",
              "type": "uint256"
            },
            {
              "internalType": "uint256",
              "name": "has",
              "type": "uint256"
            },
            {
              "internalType": "string",
              "name": "name",
              "type": "string"
            },
            {
              "internalType": "string",
              "name": "description",
              "type": "string"
            }
          ],
          "internalType": "struct Manager.ProjectSupply",
          "name": "",
          "type": "tuple"
        }
      ],
      "stateMutability": "view",
      "type": "function"
    },
    {
      "inputs": [
        {
          "internalType": "uint256",
          "name": "_needs",
          "type": "uint256"
        },
        {
          "internalType": "uint256",
          "name": "_nonce",
          "type": "uint256"
        },
        {
          "internalType": "string",
          "name": "_name",
          "type": "string"
        },
        {
          "components": [
            {
              "internalType": "uint256",
              "name": "protocol",
              "type": "uint256"
            },
            {
              "internalType": "string",
              "name": "pointer",
              "type": "string"
            }
          ],
          "internalType": "struct Metadata",
          "name": "_metadata",
          "type": "tuple"
        },
        {
          "internalType": "address",
          "name": "_recipient",
          "type": "address"
        },
        {
          "internalType": "string",
          "name": "_description",
          "type": "string"
        }
      ],
      "name": "registerProject",
      "outputs": [
        {
          "internalType": "bytes32",
          "name": "profileId",
          "type": "bytes32"
        }
      ],
      "stateMutability": "nonpayable",
      "type": "function"
    },
    {
      "inputs": [
        {
          "internalType": "bytes32",
          "name": "_projectId",
          "type": "bytes32"
        }
      ],
      "name": "revokeProjectSupply",
      "outputs": [],
      "stateMutability": "nonpayable",
      "type": "function"
    },
    {
      "inputs": [
        {
          "internalType": "bytes32",
          "name": "_projectId",
          "type": "bytes32"
        },
        {
          "internalType": "uint256",
          "name": "_amount",
          "type": "uint256"
        }
      ],
      "name": "supplyProject",
      "outputs": [],
      "stateMutability": "payable",
      "type": "function"
    },
    {
      "stateMutability": "payable",
      "type": "receive"
    }
  ],
  "bytecode": "0x60806040523480156200001157600080fd5b5060405162001b1038038062001b1083398101604081905262000034916200010e565b60016000908155600280546001600160a01b038086166001600160a01b03199283168117909355600380549186169190921617905560408051635ab1bd5360e01b81529051635ab1bd53916004808201926020929091908290030181865afa158015620000a5573d6000803e3d6000fd5b505050506040513d601f19601f82011682018060405250810190620000cb91906200014d565b600180546001600160a01b0319166001600160a01b03929092169190911790555062000174915050565b6001600160a01b03811681146200010b57600080fd5b50565b600080604083850312156200012257600080fd5b82516200012f81620000f5565b60208401519092506200014281620000f5565b809150509250929050565b6000602082840312156200016057600080fd5b81516200016d81620000f5565b9392505050565b61198c80620001846000396000f3fe60806040526004361061007f5760003560e01c8063b21370331161004e578063b213703314610140578063b50991b414610162578063c42b06f01461018f578063d1de78e4146101bf57600080fd5b806340f1ab981461008b5780637144e4b5146100a057806394a8fb4a146100d3578063a0cf0aea1461010057600080fd5b3661008657005b600080fd5b61009e61009936600461102f565b6101df565b005b3480156100ac57600080fd5b506100c06100bb366004611187565b61075a565b6040519081526020015b60405180910390f35b3480156100df57600080fd5b506100f36100ee36600461126a565b610913565b6040516100ca91906112d3565b34801561010c57600080fd5b5061012873eeeeeeeeeeeeeeeeeeeeeeeeeeeeeeeeeeeeeeee81565b6040516001600160a01b0390911681526020016100ca565b34801561014c57600080fd5b50610155610a9b565b6040516100ca9190611329565b34801561016e57600080fd5b5061018261017d36600461126a565b610af3565b6040516100ca9190611394565b34801561019b57600080fd5b506101af6101aa36600461126a565b610b71565b60405190151581526020016100ca565b3480156101cb57600080fd5b5061009e6101da36600461126a565b610bfc565b6101e7610d25565b6101f082610b71565b61023a5760405162461bcd60e51b8152602060048201526016602482015275141c9bda9958dd08191bd95cc81b9bdd08195e1a5cdd60521b60448201526064015b60405180910390fd5b8015806102475750348114155b15610265576040516303e09bb960e31b815260040160405180910390fd5b600082815260066020908152604080832033845260010190915281205412156102a15760405163446e224d60e01b815260040160405180910390fd5b600082815260056020526040812060010180548392906102c2908490611428565b909155505060008281526006602081815260408084203380865260018083018552838720889055948452815494850182559085529382902090920180546001600160a01b0319169093179092555182815283917f315cb30dd854bd9e9df31e31754930ba16b498240f74a4ef23531f84c4ee4910910160405180910390a2600082815260056020526040902080546001909101541061074c57600061036683610d4f565b604080516080810182526000808252602082018190529181018290526060810183905282519293509161039a906001611428565b67ffffffffffffffff8111156103b2576103b2611051565b6040519080825280602002602001820160405280156103db578160200160208202803683370190505b50905060005b8351811015610444578381815181106103fc576103fc61143b565b60200260200101516000015182828151811061041a5761041a61143b565b6001600160a01b03909216602092830291909101909101528061043c81611451565b9150506103e1565b5030818451815181106104595761045961143b565b6001600160a01b039092166020928302919091018201526040805180820182526001815281518083018352600d81526c32b6b83a3c903837b4b73a32b960991b8185015281840152905190916000916104b49186910161146a565b60408051601f1981840301815282825260008a81526005602052918220546002546003546370803ea560e11b865292955090936001600160a01b039182169263e1007d4a923492610529928f921690899073eeeeeeeeeeeeeeeeeeeeeeeeeeeeeeeeeeeeeeee9089908d908f9060040161153a565b60206040518083038185885af1158015610547573d6000803e3d6000fd5b50505050506040513d601f19601f8201168201806040525081019061056c91906115a5565b60008a8152600560205260409020549091504710156105cd5760405162461bcd60e51b815260206004820181905260248201527f496e73756666696369656e742062616c616e636520696e20636f6e74726163746044820152606401610231565b60025460008a815260056020526040908190205490516316b35beb60e21b815260048101849052602481018290526001600160a01b0390921691635acd6fac91906044016000604051808303818588803b15801561062a57600080fd5b505af115801561063e573d6000803e3d6000fd5b50505060008b815260076020908152604080832054905192945061067393506001600160a01b031691849187918a91016115be565b60408051601f19818403018152908290526002546301d703a760e21b83529092506001600160a01b03169063075c0e9c906106b490859085906004016115fb565b6020604051808303816000875af11580156106d3573d6000803e3d6000fd5b505050506040513d601f19601f820116820180604052508101906106f7919061161f565b5060008a81526008602090815260409182902084905581518c81529081018490527fc5d45cf1508cae377cc227a37ea00b97fa9e86e03ce72364a0b7e85e36baacec910160405180910390a150505050505050505b6107566001600055565b5050565b6040805160028082526060820183526000928392919060208301908036833701905050905083816000815181106107935761079361143b565b60200260200101906001600160a01b031690816001600160a01b03168152505030816001815181106107c7576107c761143b565b6001600160a01b039283166020918202929092010152600154604051633a92f65f60e01b8152911690633a92f65f9061080c908a908a908a9030908890600401611643565b6020604051808303816000875af115801561082b573d6000803e3d6000fd5b505050506040513d601f19601f8201168201806040525081019061084f91906115a5565b60048054600181019091557f8a35acfbc15ff81a39ae7d344fd709f28e8600b4aa8c65c6b64bfe7fe36bd19b01819055600081815260056020526040812080549294508a929091906108a2908490611428565b909155505060008281526005602052604090206002016108c28782611725565b5060008281526005602052604090206003016108de8482611725565b5050600081815260076020526040902080546001600160a01b0385166001600160a01b03199091161790559695505050505050565b61093e6040518060800160405280600081526020016000815260200160608152602001606081525090565b6005600083815260200190815260200160002060405180608001604052908160008201548152602001600182015481526020016002820180546109809061169d565b80601f01602080910402602001604051908101604052809291908181526020018280546109ac9061169d565b80156109f95780601f106109ce576101008083540402835291602001916109f9565b820191906000526020600020905b8154815290600101906020018083116109dc57829003601f168201915b50505050508152602001600382018054610a129061169d565b80601f0160208091040260200160405190810160405280929190818152602001828054610a3e9061169d565b8015610a8b5780601f10610a6057610100808354040283529160200191610a8b565b820191906000526020600020905b815481529060010190602001808311610a6e57829003601f168201915b5050505050815250509050919050565b60606004805480602002602001604051908101604052809291908181526020018280548015610ae957602002820191906000526020600020905b815481526020019060010190808311610ad5575b5050505050905090565b610afb610fdb565b600154604051628a678560e11b8152600481018490526001600160a01b0390911690630114cf0a90602401600060405180830381865afa158015610b43573d6000803e3d6000fd5b505050506040513d6000823e601f3d908101601f19168201604052610b6b919081019061187c565b92915050565b600154604051628a678560e11b81526004810183905260009182916001600160a01b0390911690630114cf0a90602401600060405180830381865afa158015610bbe573d6000803e3d6000fd5b505050506040513d6000823e601f3d908101601f19168201604052610be6919081019061187c565b608001516001600160a01b031615159392505050565b610c04610d25565b610c0d81610b71565b610c525760405162461bcd60e51b8152602060048201526016602482015275141c9bda9958dd08191bd95cc81b9bdd08195e1a5cdd60521b6044820152606401610231565b6000818152600660209081526040808320338452600101909152812054908113610cb15760405162461bcd60e51b815260206004820152601060248201526f14d554141316481393d5081193d5539160821b6044820152606401610231565b6000828152600660209081526040808320338452600190810183528184206000199055858452600590925282200180548392839291610cf1908490611943565b90915550610d16905073eeeeeeeeeeeeeeeeeeeeeeeeeeeeeeeeeeeeeeee3383610f3a565b5050610d226001600055565b50565b600260005403610d4857604051633ee5aeb560e01b815260040160405180910390fd5b6002600055565b600081815260066020526040812080546060929067ffffffffffffffff811115610d7b57610d7b611051565b604051908082528060200260200182016040528015610dc057816020015b6040805180820190915260008082526020820152815260200190600190039081610d995790505b5090506000805b8354811015610e77576000846000018281548110610de757610de761143b565b60009182526020808320909101546001600160a01b031680835260018801909152604082205490925090811315610e62576040518060400160405280836001600160a01b0316815260200182815250858581518110610e4857610e4861143b565b60200260200101819052508380610e5e90611451565b9450505b50508080610e6f90611451565b915050610dc7565b5060008167ffffffffffffffff811115610e9357610e93611051565b604051908082528060200260200182016040528015610ed857816020015b6040805180820190915260008082526020820152815260200190600190039081610eb15790505b50905060005b82811015610f3057838181518110610ef857610ef861143b565b6020026020010151828281518110610f1257610f1261143b565b60200260200101819052508080610f2890611451565b915050610ede565b5095945050505050565b73eeeeeeeeeeeeeeeeeeeeeeeeeeeeeeeeeeeeeeed196001600160a01b03841601610f6e57610f698282610f79565b505050565b610f69838383610f95565b60003860003884865af16107565763b12d13eb6000526004601cfd5b816014528060345263a9059cbb60601b60005260206000604460106000875af13d156001600051141716610fd1576390b8ec186000526004601cfd5b6000603452505050565b6040518060c0016040528060008019168152602001600081526020016060815260200161101b604051806040016040528060008152602001606081525090565b815260006020820181905260409091015290565b6000806040838503121561104257600080fd5b50508035926020909101359150565b634e487b7160e01b600052604160045260246000fd5b6040805190810167ffffffffffffffff8111828210171561108a5761108a611051565b60405290565b60405160c0810167ffffffffffffffff8111828210171561108a5761108a611051565b604051601f8201601f1916810167ffffffffffffffff811182821017156110dc576110dc611051565b604052919050565b600067ffffffffffffffff8211156110fe576110fe611051565b50601f01601f191660200190565b600082601f83011261111d57600080fd5b813561113061112b826110e4565b6110b3565b81815284602083860101111561114557600080fd5b816020850160208301376000918101602001919091529392505050565b6001600160a01b0381168114610d2257600080fd5b803561118281611162565b919050565b60008060008060008060c087890312156111a057600080fd5b8635955060208701359450604087013567ffffffffffffffff808211156111c657600080fd5b6111d28a838b0161110c565b955060608901359150808211156111e857600080fd5b908801906040828b0312156111fc57600080fd5b611204611067565b8235815260208301358281111561121a57600080fd5b6112268c82860161110c565b602083015250945061123a60808a01611177565b935060a089013591508082111561125057600080fd5b5061125d89828a0161110c565b9150509295509295509295565b60006020828403121561127c57600080fd5b5035919050565b60005b8381101561129e578181015183820152602001611286565b50506000910152565b600081518084526112bf816020860160208601611283565b601f01601f19169290920160200192915050565b602081528151602082015260208201516040820152600060408301516080606084015261130360a08401826112a7565b90506060840151601f1984830301608085015261132082826112a7565b95945050505050565b6020808252825182820181905260009190848201906040850190845b8181101561136157835183529284019291840191600101611345565b50909695505050505050565b80518252600060208201516040602085015261138c60408501826112a7565b949350505050565b6020815281516020820152602082015160408201526000604083015160c060608401526113c460e08401826112a7565b90506060840151601f198483030160808501526113e1828261136d565b60808601516001600160a01b0390811660a0878101919091529096015190951660c090940193909352509192915050565b634e487b7160e01b600052601160045260246000fd5b80820180821115610b6b57610b6b611412565b634e487b7160e01b600052603260045260246000fd5b60006001820161146357611463611412565b5060010190565b6000602080835260a0830184511515828501528185015160408115158187015280870151151560608701526060870151915060808087015282825180855260c0880191508584019450600093505b808410156114ea57845180516001600160a01b03168352860151868301529385019360019390930192908201906114b8565b50979650505050505050565b600081518084526020808501945080840160005b8381101561152f5781516001600160a01b03168752958201959082019060010161150a565b509495945050505050565b878152600060018060a01b03808916602084015260e0604084015261156260e08401896112a7565b818816606085015286608085015283810360a0850152611582818761136d565b91505082810360c084015261159781856114f6565b9a9950505050505050505050565b6000602082840312156115b757600080fd5b5051919050565b6001600160a01b03858116825284166020820152604081018390526080606082018190526000906115f19083018461136d565b9695505050505050565b82815260406020820152600061138c60408301846112a7565b805161118281611162565b60006020828403121561163157600080fd5b815161163c81611162565b9392505050565b85815260a06020820152600061165c60a08301876112a7565b828103604084015261166e818761136d565b6001600160a01b03861660608501528381036080850152905061169181856114f6565b98975050505050505050565b600181811c908216806116b157607f821691505b6020821081036116d157634e487b7160e01b600052602260045260246000fd5b50919050565b601f821115610f6957600081815260208120601f850160051c810160208610156116fe5750805b601f850160051c820191505b8181101561171d5782815560010161170a565b505050505050565b815167ffffffffffffffff81111561173f5761173f611051565b6117538161174d845461169d565b846116d7565b602080601f83116001811461178857600084156117705750858301515b600019600386901b1c1916600185901b17855561171d565b600085815260208120601f198616915b828110156117b757888601518255948401946001909101908401611798565b50858210156117d55787850151600019600388901b60f8161c191681555b5050505050600190811b01905550565b600082601f8301126117f657600080fd5b815161180461112b826110e4565b81815284602083860101111561181957600080fd5b61138c826020830160208701611283565b60006040828403121561183c57600080fd5b611844611067565b905081518152602082015167ffffffffffffffff81111561186457600080fd5b611870848285016117e5565b60208301525092915050565b60006020828403121561188e57600080fd5b815167ffffffffffffffff808211156118a657600080fd5b9083019060c082860312156118ba57600080fd5b6118c2611090565b82518152602083015160208201526040830151828111156118e257600080fd5b6118ee878286016117e5565b60408301525060608301518281111561190657600080fd5b6119128782860161182a565b60608301525061192460808401611614565b608082015261193560a08401611614565b60a082015295945050505050565b81810381811115610b6b57610b6b61141256fea2646970667358221220685949cbca269c36d99cc7043b0cc5854924511040d1c44e6b558ab4a307fa2a64736f6c63430008140033",
  "linkReferences": {},
  "deployedLinkReferences": {}
}