{
  "_format": "hh-sol-artifact-1",
  "contractName": "Manager",
  "sourceName": "contracts/Manager.sol",
  "abi": [
    {
      "inputs": [
        {
          "internalType": "address",
          "name": "alloAddress",
          "type": "address"
        },
        {
          "internalType": "address",
          "name": "_strategy",
          "type": "address"
        }
      ],
      "stateMutability": "nonpayable",
      "type": "constructor"
    },
    {
      "inputs": [],
      "name": "ALLOCATION_ACTIVE",
      "type": "error"
    },
    {
      "inputs": [],
      "name": "ALLOCATION_NOT_ACTIVE",
      "type": "error"
    },
    {
      "inputs": [],
      "name": "ALLOCATION_NOT_ENDED",
      "type": "error"
    },
    {
      "inputs": [],
      "name": "ALREADY_INITIALIZED",
      "type": "error"
    },
    {
      "inputs": [],
      "name": "AMOUNT_MISMATCH",
      "type": "error"
    },
    {
      "inputs": [],
      "name": "ANCHOR_ERROR",
      "type": "error"
    },
    {
      "inputs": [],
      "name": "ARRAY_MISMATCH",
      "type": "error"
    },
    {
      "inputs": [],
      "name": "INVALID",
      "type": "error"
    },
    {
      "inputs": [],
      "name": "INVALID_ADDRESS",
      "type": "error"
    },
    {
      "inputs": [],
      "name": "INVALID_FEE",
      "type": "error"
    },
    {
      "inputs": [],
      "name": "INVALID_METADATA",
      "type": "error"
    },
    {
      "inputs": [],
      "name": "INVALID_MILESTONE_STATUS",
      "type": "error"
    },
    {
      "inputs": [],
      "name": "INVALID_REGISTRATION",
      "type": "error"
    },
    {
      "inputs": [],
      "name": "IS_APPROVED_STRATEGY",
      "type": "error"
    },
    {
      "inputs": [],
      "name": "MISMATCH",
      "type": "error"
    },
    {
      "inputs": [],
      "name": "NONCE_NOT_AVAILABLE",
      "type": "error"
    },
    {
      "inputs": [],
      "name": "NOT_APPROVED_STRATEGY",
      "type": "error"
    },
    {
      "inputs": [],
      "name": "NOT_ENOUGH_FUNDS",
      "type": "error"
    },
    {
      "inputs": [],
      "name": "NOT_IMPLEMENTED",
      "type": "error"
    },
    {
      "inputs": [],
      "name": "NOT_INITIALIZED",
      "type": "error"
    },
    {
      "inputs": [],
      "name": "NOT_PENDING_OWNER",
      "type": "error"
    },
    {
      "inputs": [],
      "name": "POOL_ACTIVE",
      "type": "error"
    },
    {
      "inputs": [],
      "name": "POOL_INACTIVE",
      "type": "error"
    },
    {
      "inputs": [],
      "name": "RECIPIENT_ALREADY_ACCEPTED",
      "type": "error"
    },
    {
      "inputs": [
        {
          "internalType": "address",
          "name": "recipientId",
          "type": "address"
        }
      ],
      "name": "RECIPIENT_ERROR",
      "type": "error"
    },
    {
      "inputs": [],
      "name": "RECIPIENT_NOT_ACCEPTED",
      "type": "error"
    },
    {
      "inputs": [],
      "name": "REGISTRATION_NOT_ACTIVE",
      "type": "error"
    },
    {
      "inputs": [],
      "name": "ReentrancyGuardReentrantCall",
      "type": "error"
    },
    {
      "inputs": [],
      "name": "SUPPLY_IS_ALLOWED_ONLY_ONCE",
      "type": "error"
    },
    {
      "inputs": [],
      "name": "SUPPLY_NOT_FOUND",
      "type": "error"
    },
    {
      "inputs": [],
      "name": "UNAUTHORIZED",
      "type": "error"
    },
    {
      "inputs": [],
      "name": "ZERO_ADDRESS",
      "type": "error"
    },
    {
      "anonymous": false,
      "inputs": [
        {
          "indexed": true,
          "internalType": "bytes32",
          "name": "projectId",
          "type": "bytes32"
        },
        {
          "indexed": false,
          "internalType": "uint256",
          "name": "amount",
          "type": "uint256"
        }
      ],
      "name": "ProjectFunded",
      "type": "event"
    },
    {
      "anonymous": false,
      "inputs": [
        {
          "indexed": false,
          "internalType": "bytes32",
          "name": "projectId",
          "type": "bytes32"
        },
        {
          "indexed": false,
          "internalType": "uint256",
          "name": "poolId",
          "type": "uint256"
        }
      ],
      "name": "ProjectPoolCreeated",
      "type": "event"
    },
    {
      "inputs": [],
      "name": "NATIVE",
      "outputs": [
        {
          "internalType": "address",
          "name": "",
          "type": "address"
        }
      ],
      "stateMutability": "view",
      "type": "function"
    },
    {
      "inputs": [
        {
          "internalType": "bytes32",
          "name": "profileId",
          "type": "bytes32"
        }
      ],
      "name": "_projectExists",
      "outputs": [
        {
          "internalType": "bool",
          "name": "",
          "type": "bool"
        }
      ],
      "stateMutability": "view",
      "type": "function"
    },
    {
      "inputs": [
        {
          "internalType": "bytes32",
          "name": "profileId",
          "type": "bytes32"
        }
      ],
      "name": "getProfile",
      "outputs": [
        {
          "components": [
            {
              "internalType": "bytes32",
              "name": "id",
              "type": "bytes32"
            },
            {
              "internalType": "uint256",
              "name": "nonce",
              "type": "uint256"
            },
            {
              "internalType": "string",
              "name": "name",
              "type": "string"
            },
            {
              "components": [
                {
                  "internalType": "uint256",
                  "name": "protocol",
                  "type": "uint256"
                },
                {
                  "internalType": "string",
                  "name": "pointer",
                  "type": "string"
                }
              ],
              "internalType": "struct Metadata",
              "name": "metadata",
              "type": "tuple"
            },
            {
              "internalType": "address",
              "name": "owner",
              "type": "address"
            },
            {
              "internalType": "address",
              "name": "anchor",
              "type": "address"
            }
          ],
          "internalType": "struct IRegistry.Profile",
          "name": "",
          "type": "tuple"
        }
      ],
      "stateMutability": "view",
      "type": "function"
    },
    {
      "inputs": [],
      "name": "getProfiles",
      "outputs": [
        {
          "internalType": "bytes32[]",
          "name": "",
          "type": "bytes32[]"
        }
      ],
      "stateMutability": "view",
      "type": "function"
    },
    {
      "inputs": [
        {
          "internalType": "bytes32",
          "name": "_projectId",
          "type": "bytes32"
        }
      ],
      "name": "getProjectSupply",
      "outputs": [
        {
          "components": [
            {
              "internalType": "uint256",
              "name": "need",
              "type": "uint256"
            },
            {
              "internalType": "uint256",
              "name": "has",
              "type": "uint256"
            }
          ],
          "internalType": "struct Manager.ProjectSupply",
          "name": "",
          "type": "tuple"
        }
      ],
      "stateMutability": "view",
      "type": "function"
    },
    {
      "inputs": [
        {
          "internalType": "uint256",
          "name": "_needs",
          "type": "uint256"
        },
        {
          "internalType": "uint256",
          "name": "_nonce",
          "type": "uint256"
        },
        {
          "internalType": "string",
          "name": "_name",
          "type": "string"
        },
        {
          "components": [
            {
              "internalType": "uint256",
              "name": "protocol",
              "type": "uint256"
            },
            {
              "internalType": "string",
              "name": "pointer",
              "type": "string"
            }
          ],
          "internalType": "struct Metadata",
          "name": "_metadata",
          "type": "tuple"
        },
        {
          "internalType": "address",
          "name": "_owner",
          "type": "address"
        },
        {
          "internalType": "address",
          "name": "_recipient",
          "type": "address"
        }
      ],
      "name": "registerProject",
      "outputs": [
        {
          "internalType": "bytes32",
          "name": "profileId",
          "type": "bytes32"
        }
      ],
      "stateMutability": "nonpayable",
      "type": "function"
    },
    {
      "inputs": [
        {
          "internalType": "bytes32",
          "name": "_projectId",
          "type": "bytes32"
        }
      ],
      "name": "revokeProjectSupply",
      "outputs": [],
      "stateMutability": "nonpayable",
      "type": "function"
    },
    {
      "inputs": [
        {
          "internalType": "bytes32",
          "name": "_projectId",
          "type": "bytes32"
        },
        {
          "internalType": "uint256",
          "name": "_amount",
          "type": "uint256"
        }
      ],
      "name": "supplyProject",
      "outputs": [],
      "stateMutability": "payable",
      "type": "function"
    },
    {
      "stateMutability": "payable",
      "type": "receive"
    }
  ],
  "bytecode": "0x60806040523480156200001157600080fd5b50604051620019263803806200192683398101604081905262000034916200010e565b60016000908155600280546001600160a01b038086166001600160a01b03199283168117909355600380549186169190921617905560408051635ab1bd5360e01b81529051635ab1bd53916004808201926020929091908290030181865afa158015620000a5573d6000803e3d6000fd5b505050506040513d601f19601f82011682018060405250810190620000cb91906200014d565b600180546001600160a01b0319166001600160a01b03929092169190911790555062000174915050565b6001600160a01b03811681146200010b57600080fd5b50565b600080604083850312156200012257600080fd5b82516200012f81620000f5565b60208401519092506200014281620000f5565b809150509250929050565b6000602082840312156200016057600080fd5b81516200016d81620000f5565b9392505050565b6117a280620001846000396000f3fe60806040526004361061007f5760003560e01c8063b21370331161004e578063b213703314610187578063b50991b4146101a9578063c42b06f0146101d6578063d1de78e41461020657600080fd5b806340f1ab981461008b5780635a7e6abf146100a057806394a8fb4a146100d3578063a0cf0aea1461014757600080fd5b3661008657005b600080fd5b61009e610099366004610fbc565b610226565b005b3480156100ac57600080fd5b506100c06100bb366004611114565b610806565b6040519081526020015b60405180910390f35b3480156100df57600080fd5b5061012c6100ee3660046111e4565b604080518082019091526000808252602082015250600090815260066020908152604091829020825180840190935280548352600101549082015290565b604080518251815260209283015192810192909252016100ca565b34801561015357600080fd5b5061016f73eeeeeeeeeeeeeeeeeeeeeeeeeeeeeeeeeeeeeeee81565b6040516001600160a01b0390911681526020016100ca565b34801561019357600080fd5b5061019c6109bb565b6040516100ca91906111fd565b3480156101b557600080fd5b506101c96101c43660046111e4565b610a13565b6040516100ca91906112b8565b3480156101e257600080fd5b506101f66101f13660046111e4565b610a91565b60405190151581526020016100ca565b34801561021257600080fd5b5061009e6102213660046111e4565b610b1c565b61022e610c45565b61023782610a91565b6102815760405162461bcd60e51b8152602060048201526016602482015275141c9bda9958dd08191bd95cc81b9bdd08195e1a5cdd60521b60448201526064015b60405180910390fd5b80158061028e5750348114155b156102ac576040516303e09bb960e31b815260040160405180910390fd5b600082815260076020908152604080832033845260010190915281205412156102e85760405163446e224d60e01b815260040160405180910390fd5b6000828152600660205260408120600101805483929061030990849061134c565b909155505060008281526007602081815260408084203380865260018083018552838720889055948452815494850182559085529382902090920180546001600160a01b0319169093179092555182815283917f315cb30dd854bd9e9df31e31754930ba16b498240f74a4ef23531f84c4ee4910910160405180910390a260008281526006602052604090208054600190910154106107f85760006103ad83610c6f565b60408051608081018252600080825260208201819052918101829052606081018390528251929350916103e190600161134c565b67ffffffffffffffff8111156103f9576103f9610fde565b604051908082528060200260200182016040528015610422578160200160208202803683370190505b50905060005b835181101561048b578381815181106104435761044361135f565b6020026020010151600001518282815181106104615761046161135f565b6001600160a01b03909216602092830291909101909101528061048381611375565b915050610428565b5030818451815181106104a0576104a061135f565b6001600160a01b039092166020928302919091018201526040805180820182526001815281518083018352600d81526c32b6b83a3c903837b4b73a32b960991b8185015281840152905190916000916104fb9186910161138e565b60408051601f1981840301815282825260008a81526006602052918220546002546003546370803ea560e11b865292955090936001600160a01b039182169263e1007d4a923492610570928f921690899073eeeeeeeeeeeeeeeeeeeeeeeeeeeeeeeeeeeeeeee9089908d908f9060040161145e565b60206040518083038185885af115801561058e573d6000803e3d6000fd5b50505050506040513d601f19601f820116820180604052508101906105b391906114c9565b60008a8152600660205260409020549091504710156106145760405162461bcd60e51b815260206004820181905260248201527f496e73756666696369656e742062616c616e636520696e20636f6e74726163746044820152606401610278565b60025460008a815260066020526040908190205490516316b35beb60e21b815260048101849052602481018290526001600160a01b0390921691635acd6fac91906044016000604051808303818588803b15801561067157600080fd5b505af1158015610685573d6000803e3d6000fd5b50505060008b81526008602090815260408083205490519294506106ba93506001600160a01b031691849187918a91016114e2565b60408051601f19818403018152908290526002546301d703a760e21b83529092506001600160a01b03169063075c0e9c906106fb908590859060040161151f565b6020604051808303816000875af115801561071a573d6000803e3d6000fd5b505050506040513d601f19601f8201168201806040525081019061073e9190611543565b506040805180820182528b815260208082018581526005805460018101825560009190915283517f036b6384b5eca791c62761152d0c79bb0604c104a5fb6f4eb0703f3154bb3db060029092029182015590517f036b6384b5eca791c62761152d0c79bb0604c104a5fb6f4eb0703f3154bb3db19091015582518d815290810185905290917fc5d45cf1508cae377cc227a37ea00b97fa9e86e03ce72364a0b7e85e36baacec910160405180910390a15050505050505050505b6108026001600055565b5050565b60408051600280825260608201835260009283929190602083019080368337019050509050828160008151811061083f5761083f61135f565b60200260200101906001600160a01b031690816001600160a01b03168152505030816001815181106108735761087361135f565b60200260200101906001600160a01b031690816001600160a01b0316815250506108b460405180606001604052806027815260200161174660279139610e5a565b600154604051633a92f65f60e01b81526001600160a01b0390911690633a92f65f906108ec908a908a908a908a908890600401611567565b6020604051808303816000875af115801561090b573d6000803e3d6000fd5b505050506040513d601f19601f8201168201806040525081019061092f91906114c9565b60048054600181019091557f8a35acfbc15ff81a39ae7d344fd709f28e8600b4aa8c65c6b64bfe7fe36bd19b01819055600081815260066020526040812080549294508a9290919061098290849061134c565b909155505050600081815260086020526040902080546001600160a01b0384166001600160a01b03199091161790559695505050505050565b60606004805480602002602001604051908101604052809291908181526020018280548015610a0957602002820191906000526020600020905b8154815260200190600101908083116109f5575b5050505050905090565b610a1b610f68565b600154604051628a678560e11b8152600481018490526001600160a01b0390911690630114cf0a90602401600060405180830381865afa158015610a63573d6000803e3d6000fd5b505050506040513d6000823e601f3d908101601f19168201604052610a8b9190810190611658565b92915050565b600154604051628a678560e11b81526004810183905260009182916001600160a01b0390911690630114cf0a90602401600060405180830381865afa158015610ade573d6000803e3d6000fd5b505050506040513d6000823e601f3d908101601f19168201604052610b069190810190611658565b608001516001600160a01b031615159392505050565b610b24610c45565b610b2d81610a91565b610b725760405162461bcd60e51b8152602060048201526016602482015275141c9bda9958dd08191bd95cc81b9bdd08195e1a5cdd60521b6044820152606401610278565b6000818152600760209081526040808320338452600101909152812054908113610bd15760405162461bcd60e51b815260206004820152601060248201526f14d554141316481393d5081193d5539160821b6044820152606401610278565b6000828152600760209081526040808320338452600190810183528184206000199055858452600690925282200180548392839291610c1190849061171f565b90915550610c36905073eeeeeeeeeeeeeeeeeeeeeeeeeeeeeeeeeeeeeeee3383610e9d565b5050610c426001600055565b50565b600260005403610c6857604051633ee5aeb560e01b815260040160405180910390fd5b6002600055565b600081815260076020526040812080546060929067ffffffffffffffff811115610c9b57610c9b610fde565b604051908082528060200260200182016040528015610ce057816020015b6040805180820190915260008082526020820152815260200190600190039081610cb95790505b5090506000805b8354811015610d97576000846000018281548110610d0757610d0761135f565b60009182526020808320909101546001600160a01b031680835260018801909152604082205490925090811315610d82576040518060400160405280836001600160a01b0316815260200182815250858581518110610d6857610d6861135f565b60200260200101819052508380610d7e90611375565b9450505b50508080610d8f90611375565b915050610ce7565b5060008167ffffffffffffffff811115610db357610db3610fde565b604051908082528060200260200182016040528015610df857816020015b6040805180820190915260008082526020820152815260200190600190039081610dd15790505b50905060005b82811015610e5057838181518110610e1857610e1861135f565b6020026020010151828281518110610e3257610e3261135f565b60200260200101819052508080610e4890611375565b915050610dfe565b5095945050505050565b610c4281604051602401610e6e9190611732565b60408051601f198184030181529190526020810180516001600160e01b031663104c13eb60e21b179052610edc565b73eeeeeeeeeeeeeeeeeeeeeeeeeeeeeeeeeeeeeeed196001600160a01b03841601610ed157610ecc8282610ee5565b505050565b610ecc838383610f01565b610c4281610f47565b60003860003884865af16108025763b12d13eb6000526004601cfd5b816014528060345263a9059cbb60601b60005260206000604460106000875af13d156001600051141716610f3d576390b8ec186000526004601cfd5b6000603452505050565b60006a636f6e736f6c652e6c6f679050600080835160208501845afa505050565b6040518060c00160405280600080191681526020016000815260200160608152602001610fa8604051806040016040528060008152602001606081525090565b815260006020820181905260409091015290565b60008060408385031215610fcf57600080fd5b50508035926020909101359150565b634e487b7160e01b600052604160045260246000fd5b6040805190810167ffffffffffffffff8111828210171561101757611017610fde565b60405290565b60405160c0810167ffffffffffffffff8111828210171561101757611017610fde565b604051601f8201601f1916810167ffffffffffffffff8111828210171561106957611069610fde565b604052919050565b600067ffffffffffffffff82111561108b5761108b610fde565b50601f01601f191660200190565b600082601f8301126110aa57600080fd5b81356110bd6110b882611071565b611040565b8181528460208386010111156110d257600080fd5b816020850160208301376000918101602001919091529392505050565b6001600160a01b0381168114610c4257600080fd5b803561110f816110ef565b919050565b60008060008060008060c0878903121561112d57600080fd5b8635955060208701359450604087013567ffffffffffffffff8082111561115357600080fd5b61115f8a838b01611099565b9550606089013591508082111561117557600080fd5b908801906040828b03121561118957600080fd5b611191610ff4565b823581526020830135828111156111a757600080fd5b6111b38c828601611099565b60208301525094506111ca91505060808801611104565b91506111d860a08801611104565b90509295509295509295565b6000602082840312156111f657600080fd5b5035919050565b6020808252825182820181905260009190848201906040850190845b8181101561123557835183529284019291840191600101611219565b50909695505050505050565b60005b8381101561125c578181015183820152602001611244565b50506000910152565b6000815180845261127d816020860160208601611241565b601f01601f19169290920160200192915050565b8051825260006020820151604060208501526112b06040850182611265565b949350505050565b6020815281516020820152602082015160408201526000604083015160c060608401526112e860e0840182611265565b90506060840151601f198483030160808501526113058282611291565b60808601516001600160a01b0390811660a0878101919091529096015190951660c090940193909352509192915050565b634e487b7160e01b600052601160045260246000fd5b80820180821115610a8b57610a8b611336565b634e487b7160e01b600052603260045260246000fd5b60006001820161138757611387611336565b5060010190565b6000602080835260a0830184511515828501528185015160408115158187015280870151151560608701526060870151915060808087015282825180855260c0880191508584019450600093505b8084101561140e57845180516001600160a01b03168352860151868301529385019360019390930192908201906113dc565b50979650505050505050565b600081518084526020808501945080840160005b838110156114535781516001600160a01b03168752958201959082019060010161142e565b509495945050505050565b878152600060018060a01b03808916602084015260e0604084015261148660e0840189611265565b818816606085015286608085015283810360a08501526114a68187611291565b91505082810360c08401526114bb818561141a565b9a9950505050505050505050565b6000602082840312156114db57600080fd5b5051919050565b6001600160a01b038581168252841660208201526040810183905260806060820181905260009061151590830184611291565b9695505050505050565b8281526040602082015260006112b06040830184611265565b805161110f816110ef565b60006020828403121561155557600080fd5b8151611560816110ef565b9392505050565b85815260a06020820152600061158060a0830187611265565b82810360408401526115928187611291565b6001600160a01b0386166060850152838103608085015290506115b5818561141a565b98975050505050505050565b600082601f8301126115d257600080fd5b81516115e06110b882611071565b8181528460208386010111156115f557600080fd5b6112b0826020830160208701611241565b60006040828403121561161857600080fd5b611620610ff4565b905081518152602082015167ffffffffffffffff81111561164057600080fd5b61164c848285016115c1565b60208301525092915050565b60006020828403121561166a57600080fd5b815167ffffffffffffffff8082111561168257600080fd5b9083019060c0828603121561169657600080fd5b61169e61101d565b82518152602083015160208201526040830151828111156116be57600080fd5b6116ca878286016115c1565b6040830152506060830151828111156116e257600080fd5b6116ee87828601611606565b60608301525061170060808401611538565b608082015261171160a08401611538565b60a082015295945050505050565b81810381811115610a8b57610a8b611336565b602081526000611560602083018461126556fe3d3d3d3d3d3d204d616e6167657220636f6e747261637420726567697374657250726f6a656374a26469706673582212201946c9a36d0f384d4bf01b5b6fe3ab12ac978d50336ee5968bb31efd82f7bd8c64736f6c63430008140033",
  "linkReferences": {},
  "deployedLinkReferences": {}
}