{
  "_format": "hh-sol-artifact-1",
  "contractName": "Manager",
  "sourceName": "contracts/Manager.sol",
  "abi": [
    {
      "inputs": [
        {
          "internalType": "address",
          "name": "alloAddress",
          "type": "address"
        },
        {
          "internalType": "address",
          "name": "_strategy",
          "type": "address"
        }
      ],
      "stateMutability": "nonpayable",
      "type": "constructor"
    },
    {
      "inputs": [],
      "name": "ALLOCATION_ACTIVE",
      "type": "error"
    },
    {
      "inputs": [],
      "name": "ALLOCATION_NOT_ACTIVE",
      "type": "error"
    },
    {
      "inputs": [],
      "name": "ALLOCATION_NOT_ENDED",
      "type": "error"
    },
    {
      "inputs": [],
      "name": "ALREADY_INITIALIZED",
      "type": "error"
    },
    {
      "inputs": [],
      "name": "AMOUNT_MISMATCH",
      "type": "error"
    },
    {
      "inputs": [],
      "name": "ANCHOR_ERROR",
      "type": "error"
    },
    {
      "inputs": [],
      "name": "ARRAY_MISMATCH",
      "type": "error"
    },
    {
      "inputs": [],
      "name": "INVALID",
      "type": "error"
    },
    {
      "inputs": [],
      "name": "INVALID_ADDRESS",
      "type": "error"
    },
    {
      "inputs": [],
      "name": "INVALID_FEE",
      "type": "error"
    },
    {
      "inputs": [],
      "name": "INVALID_METADATA",
      "type": "error"
    },
    {
      "inputs": [],
      "name": "INVALID_MILESTONE_STATUS",
      "type": "error"
    },
    {
      "inputs": [],
      "name": "INVALID_REGISTRATION",
      "type": "error"
    },
    {
      "inputs": [],
      "name": "IS_APPROVED_STRATEGY",
      "type": "error"
    },
    {
      "inputs": [],
      "name": "MISMATCH",
      "type": "error"
    },
    {
      "inputs": [],
      "name": "NONCE_NOT_AVAILABLE",
      "type": "error"
    },
    {
      "inputs": [],
      "name": "NOT_APPROVED_STRATEGY",
      "type": "error"
    },
    {
      "inputs": [],
      "name": "NOT_ENOUGH_FUNDS",
      "type": "error"
    },
    {
      "inputs": [],
      "name": "NOT_IMPLEMENTED",
      "type": "error"
    },
    {
      "inputs": [],
      "name": "NOT_INITIALIZED",
      "type": "error"
    },
    {
      "inputs": [],
      "name": "NOT_PENDING_OWNER",
      "type": "error"
    },
    {
      "inputs": [],
      "name": "POOL_ACTIVE",
      "type": "error"
    },
    {
      "inputs": [],
      "name": "POOL_INACTIVE",
      "type": "error"
    },
    {
      "inputs": [],
      "name": "RECIPIENT_ALREADY_ACCEPTED",
      "type": "error"
    },
    {
      "inputs": [
        {
          "internalType": "address",
          "name": "recipientId",
          "type": "address"
        }
      ],
      "name": "RECIPIENT_ERROR",
      "type": "error"
    },
    {
      "inputs": [],
      "name": "RECIPIENT_NOT_ACCEPTED",
      "type": "error"
    },
    {
      "inputs": [],
      "name": "REGISTRATION_NOT_ACTIVE",
      "type": "error"
    },
    {
      "inputs": [],
      "name": "ReentrancyGuardReentrantCall",
      "type": "error"
    },
    {
      "inputs": [],
      "name": "SUPPLY_IS_ALLOWED_ONLY_ONCE",
      "type": "error"
    },
    {
      "inputs": [],
      "name": "SUPPLY_NOT_FOUND",
      "type": "error"
    },
    {
      "inputs": [],
      "name": "UNAUTHORIZED",
      "type": "error"
    },
    {
      "inputs": [],
      "name": "ZERO_ADDRESS",
      "type": "error"
    },
    {
      "anonymous": false,
      "inputs": [
        {
          "indexed": true,
          "internalType": "bytes32",
          "name": "projectId",
          "type": "bytes32"
        },
        {
          "indexed": false,
          "internalType": "uint256",
          "name": "amount",
          "type": "uint256"
        }
      ],
      "name": "ProjectFunded",
      "type": "event"
    },
    {
      "anonymous": false,
      "inputs": [
        {
          "indexed": false,
          "internalType": "bytes32",
          "name": "projectId",
          "type": "bytes32"
        },
        {
          "indexed": false,
          "internalType": "uint256",
          "name": "poolId",
          "type": "uint256"
        }
      ],
      "name": "ProjectPoolCreeated",
      "type": "event"
    },
    {
      "inputs": [],
      "name": "NATIVE",
      "outputs": [
        {
          "internalType": "address",
          "name": "",
          "type": "address"
        }
      ],
      "stateMutability": "view",
      "type": "function"
    },
    {
      "inputs": [
        {
          "internalType": "bytes32",
          "name": "profileId",
          "type": "bytes32"
        }
      ],
      "name": "_projectExists",
      "outputs": [
        {
          "internalType": "bool",
          "name": "",
          "type": "bool"
        }
      ],
      "stateMutability": "view",
      "type": "function"
    },
    {
      "inputs": [
        {
          "internalType": "bytes32",
          "name": "_projectId",
          "type": "bytes32"
        }
      ],
      "name": "getProfile",
      "outputs": [
        {
          "components": [
            {
              "internalType": "bytes32",
              "name": "id",
              "type": "bytes32"
            },
            {
              "internalType": "uint256",
              "name": "nonce",
              "type": "uint256"
            },
            {
              "internalType": "string",
              "name": "name",
              "type": "string"
            },
            {
              "components": [
                {
                  "internalType": "uint256",
                  "name": "protocol",
                  "type": "uint256"
                },
                {
                  "internalType": "string",
                  "name": "pointer",
                  "type": "string"
                }
              ],
              "internalType": "struct Metadata",
              "name": "metadata",
              "type": "tuple"
            },
            {
              "internalType": "address",
              "name": "owner",
              "type": "address"
            },
            {
              "internalType": "address",
              "name": "anchor",
              "type": "address"
            }
          ],
          "internalType": "struct IRegistry.Profile",
          "name": "",
          "type": "tuple"
        }
      ],
      "stateMutability": "view",
      "type": "function"
    },
    {
      "inputs": [],
      "name": "getProfiles",
      "outputs": [
        {
          "internalType": "bytes32[]",
          "name": "",
          "type": "bytes32[]"
        }
      ],
      "stateMutability": "view",
      "type": "function"
    },
    {
      "inputs": [
        {
          "internalType": "bytes32",
          "name": "_projectId",
          "type": "bytes32"
        }
      ],
      "name": "getProjectExecutor",
      "outputs": [
        {
          "internalType": "address",
          "name": "",
          "type": "address"
        }
      ],
      "stateMutability": "view",
      "type": "function"
    },
    {
      "inputs": [
        {
          "internalType": "bytes32",
          "name": "_projectId",
          "type": "bytes32"
        }
      ],
      "name": "getProjectPool",
      "outputs": [
        {
          "internalType": "uint256",
          "name": "",
          "type": "uint256"
        }
      ],
      "stateMutability": "view",
      "type": "function"
    },
    {
      "inputs": [
        {
          "internalType": "bytes32",
          "name": "_projectId",
          "type": "bytes32"
        },
        {
          "internalType": "address",
          "name": "_supplier",
          "type": "address"
        }
      ],
      "name": "getProjectSupplierById",
      "outputs": [
        {
          "internalType": "uint256",
          "name": "",
          "type": "uint256"
        }
      ],
      "stateMutability": "view",
      "type": "function"
    },
    {
      "inputs": [
        {
          "internalType": "bytes32",
          "name": "_projectId",
          "type": "bytes32"
        }
      ],
      "name": "getProjectSuppliers",
      "outputs": [
        {
          "internalType": "address[]",
          "name": "",
          "type": "address[]"
        }
      ],
      "stateMutability": "view",
      "type": "function"
    },
    {
      "inputs": [
        {
          "internalType": "bytes32",
          "name": "_projectId",
          "type": "bytes32"
        }
      ],
      "name": "getProjectSupply",
      "outputs": [
        {
          "components": [
            {
              "internalType": "uint256",
              "name": "need",
              "type": "uint256"
            },
            {
              "internalType": "uint256",
              "name": "has",
              "type": "uint256"
            },
            {
              "internalType": "string",
              "name": "name",
              "type": "string"
            },
            {
              "internalType": "string",
              "name": "description",
              "type": "string"
            }
          ],
          "internalType": "struct Manager.ProjectSupply",
          "name": "",
          "type": "tuple"
        }
      ],
      "stateMutability": "view",
      "type": "function"
    },
    {
      "inputs": [
        {
          "internalType": "uint256",
          "name": "_needs",
          "type": "uint256"
        },
        {
          "internalType": "uint256",
          "name": "_nonce",
          "type": "uint256"
        },
        {
          "internalType": "string",
          "name": "_name",
          "type": "string"
        },
        {
          "components": [
            {
              "internalType": "uint256",
              "name": "protocol",
              "type": "uint256"
            },
            {
              "internalType": "string",
              "name": "pointer",
              "type": "string"
            }
          ],
          "internalType": "struct Metadata",
          "name": "_metadata",
          "type": "tuple"
        },
        {
          "internalType": "address",
          "name": "_recipient",
          "type": "address"
        },
        {
          "internalType": "string",
          "name": "_description",
          "type": "string"
        }
      ],
      "name": "registerProject",
      "outputs": [
        {
          "internalType": "bytes32",
          "name": "profileId",
          "type": "bytes32"
        }
      ],
      "stateMutability": "nonpayable",
      "type": "function"
    },
    {
      "inputs": [
        {
          "internalType": "bytes32",
          "name": "_projectId",
          "type": "bytes32"
        }
      ],
      "name": "revokeProjectSupply",
      "outputs": [],
      "stateMutability": "nonpayable",
      "type": "function"
    },
    {
      "inputs": [
        {
          "internalType": "bytes32",
          "name": "_projectId",
          "type": "bytes32"
        },
        {
          "internalType": "uint256",
          "name": "_amount",
          "type": "uint256"
        }
      ],
      "name": "supplyProject",
      "outputs": [],
      "stateMutability": "payable",
      "type": "function"
    },
    {
      "stateMutability": "payable",
      "type": "receive"
    }
  ],
  "bytecode": "0x60806040523480156200001157600080fd5b5060405162001dcc38038062001dcc83398101604081905262000034916200010e565b60016000908155600280546001600160a01b038086166001600160a01b03199283168117909355600380549186169190921617905560408051635ab1bd5360e01b81529051635ab1bd53916004808201926020929091908290030181865afa158015620000a5573d6000803e3d6000fd5b505050506040513d601f19601f82011682018060405250810190620000cb91906200014d565b600180546001600160a01b0319166001600160a01b03929092169190911790555062000174915050565b6001600160a01b03811681146200010b57600080fd5b50565b600080604083850312156200012257600080fd5b82516200012f81620000f5565b60208401519092506200014281620000f5565b809150509250929050565b6000602082840312156200016057600080fd5b81516200016d81620000f5565b9392505050565b611c4880620001846000396000f3fe6080604052600436106100ab5760003560e01c8063a0cf0aea11610064578063a0cf0aea146101a6578063b2137033146101e6578063b50991b414610208578063c42b06f014610235578063d1de78e414610265578063df06c2731461028557600080fd5b806316e46f68146100b757806340f1ab98146100f75780636617dd661461010c5780637144e4b5146101395780638d3638311461015957806394a8fb4a1461017957600080fd5b366100b257005b600080fd5b3480156100c357600080fd5b506100e46100d23660046112a8565b60009081526009602052604090205490565b6040519081526020015b60405180910390f35b61010a6101053660046112c1565b6102bb565b005b34801561011857600080fd5b5061012c6101273660046112a8565b610833565b6040516100ee9190611327565b34801561014557600080fd5b506100e4610154366004611477565b61089f565b34801561016557600080fd5b506100e461017436600461155a565b610a58565b34801561018557600080fd5b506101996101943660046112a8565b610a82565b6040516100ee91906115da565b3480156101b257600080fd5b506101ce73eeeeeeeeeeeeeeeeeeeeeeeeeeeeeeeeeeeeeeee81565b6040516001600160a01b0390911681526020016100ee565b3480156101f257600080fd5b506101fb610c0a565b6040516100ee9190611630565b34801561021457600080fd5b506102286102233660046112a8565b610c62565b6040516100ee919061169b565b34801561024157600080fd5b506102556102503660046112a8565b610cda565b60405190151581526020016100ee565b34801561027157600080fd5b5061010a6102803660046112a8565b610d65565b34801561029157600080fd5b506101ce6102a03660046112a8565b6000908152600860205260409020546001600160a01b031690565b6102c3610fe1565b6102cc82610cda565b6103165760405162461bcd60e51b8152602060048201526016602482015275141c9bda9958dd08191bd95cc81b9bdd08195e1a5cdd60521b60448201526064015b60405180910390fd5b8015806103235750348114155b15610341576040516303e09bb960e31b815260040160405180910390fd5b6000828152600760205260408120600101805483929061036290849061172f565b9091555050600082815260066020908152604080832033845290915281205490036103b65760008281526005602090815260408220805460018101825590835291200180546001600160a01b031916331790555b6000828152600660209081526040808320338452909152812080548392906103df90849061172f565b909155505060405181815282907f315cb30dd854bd9e9df31e31754930ba16b498240f74a4ef23531f84c4ee49109060200160405180910390a2600082815260076020526040902080546001909101541061082557600061043f8361100b565b604080516080810182526000808252602082018190529181018290526060810183905282519293509161047390600161172f565b67ffffffffffffffff81111561048b5761048b611341565b6040519080825280602002602001820160405280156104b4578160200160208202803683370190505b50905060005b835181101561051d578381815181106104d5576104d5611742565b6020026020010151600001518282815181106104f3576104f3611742565b6001600160a01b03909216602092830291909101909101528061051581611758565b9150506104ba565b50308184518151811061053257610532611742565b6001600160a01b039092166020928302919091018201526040805180820182526001815281518083018352600d81526c32b6b83a3c903837b4b73a32b960991b81850152818401529051909160009161058d91869101611771565b60408051601f1981840301815282825260008a81526007602052918220546002546003546370803ea560e11b865292955090936001600160a01b039182169263e1007d4a923492610602928f921690899073eeeeeeeeeeeeeeeeeeeeeeeeeeeeeeeeeeeeeeee9089908d908f906004016117fd565b60206040518083038185885af1158015610620573d6000803e3d6000fd5b50505050506040513d601f19601f820116820180604052508101906106459190611868565b60008a8152600760205260409020549091504710156106a65760405162461bcd60e51b815260206004820181905260248201527f496e73756666696369656e742062616c616e636520696e20636f6e7472616374604482015260640161030d565b60025460008a815260076020526040908190205490516316b35beb60e21b815260048101849052602481018290526001600160a01b0390921691635acd6fac91906044016000604051808303818588803b15801561070357600080fd5b505af1158015610717573d6000803e3d6000fd5b50505060008b815260086020908152604080832054905192945061074c93506001600160a01b031691849187918a9101611881565b60408051601f19818403018152908290526002546301d703a760e21b83529092506001600160a01b03169063075c0e9c9061078d90859085906004016118be565b6020604051808303816000875af11580156107ac573d6000803e3d6000fd5b505050506040513d601f19601f820116820180604052508101906107d091906118e2565b5060008a81526009602090815260409182902084905581518c81529081018490527fc5d45cf1508cae377cc227a37ea00b97fa9e86e03ce72364a0b7e85e36baacec910160405180910390a150505050505050505b61082f6001600055565b5050565b60008181526005602090815260409182902080548351818402810184019094528084526060939283018282801561089357602002820191906000526020600020905b81546001600160a01b03168152600190910190602001808311610875575b50505050509050919050565b6040805160028082526060820183526000928392919060208301908036833701905050905083816000815181106108d8576108d8611742565b60200260200101906001600160a01b031690816001600160a01b031681525050308160018151811061090c5761090c611742565b6001600160a01b039283166020918202929092010152600154604051633a92f65f60e01b8152911690633a92f65f90610951908a908a908a90309088906004016118ff565b6020604051808303816000875af1158015610970573d6000803e3d6000fd5b505050506040513d601f19601f820116820180604052508101906109949190611868565b60048054600181019091557f8a35acfbc15ff81a39ae7d344fd709f28e8600b4aa8c65c6b64bfe7fe36bd19b01819055600081815260076020526040812080549294508a929091906109e790849061172f565b90915550506000828152600760205260409020600201610a0787826119e1565b506000828152600760205260409020600301610a2384826119e1565b5050600081815260086020526040902080546001600160a01b0385166001600160a01b03199091161790559695505050505050565b60008281526006602090815260408083206001600160a01b03851684529091529020545b92915050565b610aad6040518060800160405280600081526020016000815260200160608152602001606081525090565b600760008381526020019081526020016000206040518060800160405290816000820154815260200160018201548152602001600282018054610aef90611959565b80601f0160208091040260200160405190810160405280929190818152602001828054610b1b90611959565b8015610b685780601f10610b3d57610100808354040283529160200191610b68565b820191906000526020600020905b815481529060010190602001808311610b4b57829003601f168201915b50505050508152602001600382018054610b8190611959565b80601f0160208091040260200160405190810160405280929190818152602001828054610bad90611959565b8015610bfa5780601f10610bcf57610100808354040283529160200191610bfa565b820191906000526020600020905b815481529060010190602001808311610bdd57829003601f168201915b5050505050815250509050919050565b60606004805480602002602001604051908101604052809291908181526020018280548015610c5857602002820191906000526020600020905b815481526020019060010190808311610c44575b5050505050905090565b610c6a6111da565b600154604051628a678560e11b8152600481018490526001600160a01b0390911690630114cf0a90602401600060405180830381865afa158015610cb2573d6000803e3d6000fd5b505050506040513d6000823e601f3d908101601f19168201604052610a7c9190810190611b38565b600154604051628a678560e11b81526004810183905260009182916001600160a01b0390911690630114cf0a90602401600060405180830381865afa158015610d27573d6000803e3d6000fd5b505050506040513d6000823e601f3d908101601f19168201604052610d4f9190810190611b38565b608001516001600160a01b031615159392505050565b610d6d610fe1565b610d7681610cda565b610dbb5760405162461bcd60e51b8152602060048201526016602482015275141c9bda9958dd08191bd95cc81b9bdd08195e1a5cdd60521b604482015260640161030d565b600081815260066020908152604080832033845290915290205480610e155760405162461bcd60e51b815260206004820152601060248201526f14d554141316481393d5081193d5539160821b604482015260640161030d565b60008281526006602090815260408083203384528252808320839055848352600790915281206001018054839290610e4e908490611bff565b9091555050600082815260056020526040812054610e6e90600190611bff565b67ffffffffffffffff811115610e8657610e86611341565b604051908082528060200260200182016040528015610eaf578160200160208202803683370190505b5090506000805b600085815260056020526040902054811015610f91576000858152600560205260409020805433919083908110610eef57610eef611742565b6000918252602090912001546001600160a01b031614610f7f576000858152600560205260409020805482908110610f2957610f29611742565b9060005260206000200160009054906101000a90046001600160a01b0316838381518110610f5957610f59611742565b6001600160a01b039092166020928302919091019091015281610f7b81611758565b9250505b80610f8981611758565b915050610eb6565b5060008481526005602090815260409091208351610fb19285019061122e565b50610fd173eeeeeeeeeeeeeeeeeeeeeeeeeeeeeeeeeeeeeeee3385611139565b505050610fde6001600055565b50565b60026000540361100457604051633ee5aeb560e01b815260040160405180910390fd5b6002600055565b6000818152600560205260408120546060919067ffffffffffffffff81111561103657611036611341565b60405190808252806020026020018201604052801561107b57816020015b60408051808201909152600080825260208201528152602001906001900390816110545790505b50905060005b6000848152600560205260409020548110156111325760008481526005602052604081208054839081106110b7576110b7611742565b60009182526020808320909101548783526006825260408084206001600160a01b0390921680855291835292839020548351808501909452818452918301829052855190935090919085908590811061111257611112611742565b60200260200101819052505050808061112a90611758565b915050611081565b5092915050565b73eeeeeeeeeeeeeeeeeeeeeeeeeeeeeeeeeeeeeeed196001600160a01b0384160161116d576111688282611178565b505050565b611168838383611194565b60003860003884865af161082f5763b12d13eb6000526004601cfd5b816014528060345263a9059cbb60601b60005260206000604460106000875af13d1560016000511417166111d0576390b8ec186000526004601cfd5b6000603452505050565b6040518060c0016040528060008019168152602001600081526020016060815260200161121a604051806040016040528060008152602001606081525090565b815260006020820181905260409091015290565b828054828255906000526020600020908101928215611283579160200282015b8281111561128357825182546001600160a01b0319166001600160a01b0390911617825560209092019160019091019061124e565b5061128f929150611293565b5090565b5b8082111561128f5760008155600101611294565b6000602082840312156112ba57600080fd5b5035919050565b600080604083850312156112d457600080fd5b50508035926020909101359150565b600081518084526020808501945080840160005b8381101561131c5781516001600160a01b0316875295820195908201906001016112f7565b509495945050505050565b60208152600061133a60208301846112e3565b9392505050565b634e487b7160e01b600052604160045260246000fd5b6040805190810167ffffffffffffffff8111828210171561137a5761137a611341565b60405290565b60405160c0810167ffffffffffffffff8111828210171561137a5761137a611341565b604051601f8201601f1916810167ffffffffffffffff811182821017156113cc576113cc611341565b604052919050565b600067ffffffffffffffff8211156113ee576113ee611341565b50601f01601f191660200190565b600082601f83011261140d57600080fd5b813561142061141b826113d4565b6113a3565b81815284602083860101111561143557600080fd5b816020850160208301376000918101602001919091529392505050565b6001600160a01b0381168114610fde57600080fd5b803561147281611452565b919050565b60008060008060008060c0878903121561149057600080fd5b8635955060208701359450604087013567ffffffffffffffff808211156114b657600080fd5b6114c28a838b016113fc565b955060608901359150808211156114d857600080fd5b908801906040828b0312156114ec57600080fd5b6114f4611357565b8235815260208301358281111561150a57600080fd5b6115168c8286016113fc565b602083015250945061152a60808a01611467565b935060a089013591508082111561154057600080fd5b5061154d89828a016113fc565b9150509295509295509295565b6000806040838503121561156d57600080fd5b82359150602083013561157f81611452565b809150509250929050565b60005b838110156115a557818101518382015260200161158d565b50506000910152565b600081518084526115c681602086016020860161158a565b601f01601f19169290920160200192915050565b602081528151602082015260208201516040820152600060408301516080606084015261160a60a08401826115ae565b90506060840151601f1984830301608085015261162782826115ae565b95945050505050565b6020808252825182820181905260009190848201906040850190845b818110156116685783518352928401929184019160010161164c565b50909695505050505050565b80518252600060208201516040602085015261169360408501826115ae565b949350505050565b6020815281516020820152602082015160408201526000604083015160c060608401526116cb60e08401826115ae565b90506060840151601f198483030160808501526116e88282611674565b60808601516001600160a01b0390811660a0878101919091529096015190951660c090940193909352509192915050565b634e487b7160e01b600052601160045260246000fd5b80820180821115610a7c57610a7c611719565b634e487b7160e01b600052603260045260246000fd5b60006001820161176a5761176a611719565b5060010190565b6000602080835260a0830184511515828501528185015160408115158187015280870151151560608701526060870151915060808087015282825180855260c0880191508584019450600093505b808410156117f157845180516001600160a01b03168352860151868301529385019360019390930192908201906117bf565b50979650505050505050565b878152600060018060a01b03808916602084015260e0604084015261182560e08401896115ae565b818816606085015286608085015283810360a08501526118458187611674565b91505082810360c084015261185a81856112e3565b9a9950505050505050505050565b60006020828403121561187a57600080fd5b5051919050565b6001600160a01b03858116825284166020820152604081018390526080606082018190526000906118b490830184611674565b9695505050505050565b82815260406020820152600061169360408301846115ae565b805161147281611452565b6000602082840312156118f457600080fd5b815161133a81611452565b85815260a06020820152600061191860a08301876115ae565b828103604084015261192a8187611674565b6001600160a01b03861660608501528381036080850152905061194d81856112e3565b98975050505050505050565b600181811c9082168061196d57607f821691505b60208210810361198d57634e487b7160e01b600052602260045260246000fd5b50919050565b601f82111561116857600081815260208120601f850160051c810160208610156119ba5750805b601f850160051c820191505b818110156119d9578281556001016119c6565b505050505050565b815167ffffffffffffffff8111156119fb576119fb611341565b611a0f81611a098454611959565b84611993565b602080601f831160018114611a445760008415611a2c5750858301515b600019600386901b1c1916600185901b1785556119d9565b600085815260208120601f198616915b82811015611a7357888601518255948401946001909101908401611a54565b5085821015611a915787850151600019600388901b60f8161c191681555b5050505050600190811b01905550565b600082601f830112611ab257600080fd5b8151611ac061141b826113d4565b818152846020838601011115611ad557600080fd5b61169382602083016020870161158a565b600060408284031215611af857600080fd5b611b00611357565b905081518152602082015167ffffffffffffffff811115611b2057600080fd5b611b2c84828501611aa1565b60208301525092915050565b600060208284031215611b4a57600080fd5b815167ffffffffffffffff80821115611b6257600080fd5b9083019060c08286031215611b7657600080fd5b611b7e611380565b8251815260208301516020820152604083015182811115611b9e57600080fd5b611baa87828601611aa1565b604083015250606083015182811115611bc257600080fd5b611bce87828601611ae6565b606083015250611be0608084016118d7565b6080820152611bf160a084016118d7565b60a082015295945050505050565b81810381811115610a7c57610a7c61171956fea2646970667358221220b065971956e352d2afc029ed6f8371e47fe9f46faba37255df96c8466580d2a164736f6c63430008140033",
  "linkReferences": {},
  "deployedLinkReferences": {}
}