{
  "_format": "hh-sol-artifact-1",
  "contractName": "Manager",
  "sourceName": "contracts/Manager.sol",
  "abi": [
    {
      "inputs": [
        {
          "internalType": "address",
          "name": "alloAddress",
          "type": "address"
        },
        {
          "internalType": "address",
          "name": "_strategy",
          "type": "address"
        }
      ],
      "stateMutability": "nonpayable",
      "type": "constructor"
    },
    {
      "inputs": [],
      "name": "ALLOCATION_ACTIVE",
      "type": "error"
    },
    {
      "inputs": [],
      "name": "ALLOCATION_NOT_ACTIVE",
      "type": "error"
    },
    {
      "inputs": [],
      "name": "ALLOCATION_NOT_ENDED",
      "type": "error"
    },
    {
      "inputs": [],
      "name": "ALREADY_INITIALIZED",
      "type": "error"
    },
    {
      "inputs": [],
      "name": "AMOUNT_MISMATCH",
      "type": "error"
    },
    {
      "inputs": [],
      "name": "ANCHOR_ERROR",
      "type": "error"
    },
    {
      "inputs": [],
      "name": "ARRAY_MISMATCH",
      "type": "error"
    },
    {
      "inputs": [],
      "name": "INVALID",
      "type": "error"
    },
    {
      "inputs": [],
      "name": "INVALID_ADDRESS",
      "type": "error"
    },
    {
      "inputs": [],
      "name": "INVALID_FEE",
      "type": "error"
    },
    {
      "inputs": [],
      "name": "INVALID_METADATA",
      "type": "error"
    },
    {
      "inputs": [],
      "name": "INVALID_REGISTRATION",
      "type": "error"
    },
    {
      "inputs": [],
      "name": "IS_APPROVED_STRATEGY",
      "type": "error"
    },
    {
      "inputs": [],
      "name": "MISMATCH",
      "type": "error"
    },
    {
      "inputs": [],
      "name": "NONCE_NOT_AVAILABLE",
      "type": "error"
    },
    {
      "inputs": [],
      "name": "NOT_APPROVED_STRATEGY",
      "type": "error"
    },
    {
      "inputs": [],
      "name": "NOT_ENOUGH_FUNDS",
      "type": "error"
    },
    {
      "inputs": [],
      "name": "NOT_IMPLEMENTED",
      "type": "error"
    },
    {
      "inputs": [],
      "name": "NOT_INITIALIZED",
      "type": "error"
    },
    {
      "inputs": [],
      "name": "NOT_PENDING_OWNER",
      "type": "error"
    },
    {
      "inputs": [],
      "name": "POOL_ACTIVE",
      "type": "error"
    },
    {
      "inputs": [],
      "name": "POOL_INACTIVE",
      "type": "error"
    },
    {
      "inputs": [],
      "name": "RECIPIENT_ALREADY_ACCEPTED",
      "type": "error"
    },
    {
      "inputs": [
        {
          "internalType": "address",
          "name": "recipientId",
          "type": "address"
        }
      ],
      "name": "RECIPIENT_ERROR",
      "type": "error"
    },
    {
      "inputs": [],
      "name": "RECIPIENT_NOT_ACCEPTED",
      "type": "error"
    },
    {
      "inputs": [],
      "name": "REGISTRATION_NOT_ACTIVE",
      "type": "error"
    },
    {
      "inputs": [],
      "name": "ReentrancyGuardReentrantCall",
      "type": "error"
    },
    {
      "inputs": [],
      "name": "SUPPLY_IS_ALLOWED_ONLY_ONCE",
      "type": "error"
    },
    {
      "inputs": [],
      "name": "SUPPLY_NOT_FOUND",
      "type": "error"
    },
    {
      "inputs": [],
      "name": "UNAUTHORIZED",
      "type": "error"
    },
    {
      "inputs": [],
      "name": "ZERO_ADDRESS",
      "type": "error"
    },
    {
      "anonymous": false,
      "inputs": [
        {
          "indexed": true,
          "internalType": "bytes32",
          "name": "projectId",
          "type": "bytes32"
        },
        {
          "indexed": false,
          "internalType": "uint256",
          "name": "amount",
          "type": "uint256"
        }
      ],
      "name": "ProjectFunded",
      "type": "event"
    },
    {
      "anonymous": false,
      "inputs": [
        {
          "indexed": false,
          "internalType": "bytes32",
          "name": "projectId",
          "type": "bytes32"
        },
        {
          "indexed": false,
          "internalType": "uint256",
          "name": "poolId",
          "type": "uint256"
        }
      ],
      "name": "ProjectPoolCreeated",
      "type": "event"
    },
    {
      "inputs": [],
      "name": "NATIVE",
      "outputs": [
        {
          "internalType": "address",
          "name": "",
          "type": "address"
        }
      ],
      "stateMutability": "view",
      "type": "function"
    },
    {
      "inputs": [
        {
          "internalType": "bytes32",
          "name": "profileId",
          "type": "bytes32"
        }
      ],
      "name": "_projectExists",
      "outputs": [
        {
          "internalType": "bool",
          "name": "",
          "type": "bool"
        }
      ],
      "stateMutability": "view",
      "type": "function"
    },
    {
      "inputs": [
        {
          "internalType": "uint256",
          "name": "_poolId",
          "type": "uint256"
        },
        {
          "internalType": "address",
          "name": "_recipientId",
          "type": "address"
        },
        {
          "internalType": "enum Status",
          "name": "_recipientStatus",
          "type": "uint8"
        },
        {
          "internalType": "uint256",
          "name": "_grantAmount",
          "type": "uint256"
        }
      ],
      "name": "allocateFundsToRecipient",
      "outputs": [],
      "stateMutability": "nonpayable",
      "type": "function"
    },
    {
      "inputs": [
        {
          "internalType": "uint256",
          "name": "_poolId",
          "type": "uint256"
        },
        {
          "internalType": "address[]",
          "name": "_recipientIds",
          "type": "address[]"
        }
      ],
      "name": "distributeFundsToRecipient",
      "outputs": [],
      "stateMutability": "nonpayable",
      "type": "function"
    },
    {
      "inputs": [],
      "name": "getAlloRegistry",
      "outputs": [
        {
          "internalType": "contract IRegistry",
          "name": "",
          "type": "address"
        }
      ],
      "stateMutability": "view",
      "type": "function"
    },
    {
      "inputs": [
        {
          "internalType": "bytes32",
          "name": "profileId",
          "type": "bytes32"
        }
      ],
      "name": "getProfile",
      "outputs": [
        {
          "components": [
            {
              "internalType": "bytes32",
              "name": "id",
              "type": "bytes32"
            },
            {
              "internalType": "uint256",
              "name": "nonce",
              "type": "uint256"
            },
            {
              "internalType": "string",
              "name": "name",
              "type": "string"
            },
            {
              "components": [
                {
                  "internalType": "uint256",
                  "name": "protocol",
                  "type": "uint256"
                },
                {
                  "internalType": "string",
                  "name": "pointer",
                  "type": "string"
                }
              ],
              "internalType": "struct Metadata",
              "name": "metadata",
              "type": "tuple"
            },
            {
              "internalType": "address",
              "name": "owner",
              "type": "address"
            },
            {
              "internalType": "address",
              "name": "anchor",
              "type": "address"
            }
          ],
          "internalType": "struct IRegistry.Profile",
          "name": "",
          "type": "tuple"
        }
      ],
      "stateMutability": "view",
      "type": "function"
    },
    {
      "inputs": [],
      "name": "getProfiles",
      "outputs": [
        {
          "internalType": "bytes32[]",
          "name": "",
          "type": "bytes32[]"
        }
      ],
      "stateMutability": "view",
      "type": "function"
    },
    {
      "inputs": [
        {
          "internalType": "bytes32",
          "name": "_projectId",
          "type": "bytes32"
        }
      ],
      "name": "getProjectSupply",
      "outputs": [
        {
          "components": [
            {
              "internalType": "uint256",
              "name": "need",
              "type": "uint256"
            },
            {
              "internalType": "uint256",
              "name": "has",
              "type": "uint256"
            }
          ],
          "internalType": "struct ProjectSupply",
          "name": "",
          "type": "tuple"
        }
      ],
      "stateMutability": "view",
      "type": "function"
    },
    {
      "inputs": [
        {
          "internalType": "uint256",
          "name": "_needs",
          "type": "uint256"
        },
        {
          "internalType": "uint256",
          "name": "_nonce",
          "type": "uint256"
        },
        {
          "internalType": "string",
          "name": "_name",
          "type": "string"
        },
        {
          "components": [
            {
              "internalType": "uint256",
              "name": "protocol",
              "type": "uint256"
            },
            {
              "internalType": "string",
              "name": "pointer",
              "type": "string"
            }
          ],
          "internalType": "struct Metadata",
          "name": "_metadata",
          "type": "tuple"
        },
        {
          "internalType": "address",
          "name": "_owner",
          "type": "address"
        },
        {
          "internalType": "address",
          "name": "_recipient",
          "type": "address"
        }
      ],
      "name": "registerProject",
      "outputs": [
        {
          "internalType": "bytes32",
          "name": "profileId",
          "type": "bytes32"
        }
      ],
      "stateMutability": "nonpayable",
      "type": "function"
    },
    {
      "inputs": [
        {
          "internalType": "bytes32",
          "name": "_projectId",
          "type": "bytes32"
        }
      ],
      "name": "revokeProjectSupply",
      "outputs": [],
      "stateMutability": "nonpayable",
      "type": "function"
    },
    {
      "inputs": [
        {
          "internalType": "bytes32",
          "name": "_projectId",
          "type": "bytes32"
        },
        {
          "internalType": "uint256",
          "name": "_amount",
          "type": "uint256"
        }
      ],
      "name": "supplyProject",
      "outputs": [],
      "stateMutability": "payable",
      "type": "function"
    },
    {
      "stateMutability": "payable",
      "type": "receive"
    }
  ],
  "bytecode": "0x60806040523480156200001157600080fd5b5060405162002f6838038062002f6883398181016040528101906200003791906200020d565b600160008190555081600260006101000a81548173ffffffffffffffffffffffffffffffffffffffff021916908373ffffffffffffffffffffffffffffffffffffffff16021790555080600360006101000a81548173ffffffffffffffffffffffffffffffffffffffff021916908373ffffffffffffffffffffffffffffffffffffffff1602179055506000600260009054906101000a900473ffffffffffffffffffffffffffffffffffffffff1673ffffffffffffffffffffffffffffffffffffffff16635ab1bd536040518163ffffffff1660e01b8152600401602060405180830381865afa15801562000131573d6000803e3d6000fd5b505050506040513d601f19601f8201168201806040525081019062000157919062000299565b905080600160006101000a81548173ffffffffffffffffffffffffffffffffffffffff021916908373ffffffffffffffffffffffffffffffffffffffff160217905550505050620002cb565b600080fd5b600073ffffffffffffffffffffffffffffffffffffffff82169050919050565b6000620001d582620001a8565b9050919050565b620001e781620001c8565b8114620001f357600080fd5b50565b6000815190506200020781620001dc565b92915050565b60008060408385031215620002275762000226620001a3565b5b60006200023785828601620001f6565b92505060206200024a85828601620001f6565b9150509250929050565b60006200026182620001c8565b9050919050565b620002738162000254565b81146200027f57600080fd5b50565b600081519050620002938162000268565b92915050565b600060208284031215620002b257620002b1620001a3565b5b6000620002c28482850162000282565b91505092915050565b612c8d80620002db6000396000f3fe6080604052600436106100a05760003560e01c8063a0cf0aea11610064578063a0cf0aea14610196578063b2137033146101c1578063b50991b4146101ec578063c42b06f014610229578063cd5b422514610266578063d1de78e41461028f576100a7565b806336a27abb146100ac57806340f1ab98146100d55780635a7e6abf146100f157806394a8fb4a1461012e5780639bd55ad01461016b576100a7565b366100a757005b600080fd5b3480156100b857600080fd5b506100d360048036038101906100ce9190611821565b6102b8565b005b6100ef60048036038101906100ea91906118be565b610376565b005b3480156100fd57600080fd5b5061011860048036038101906101139190611aba565b610b87565b6040516101259190611b8e565b60405180910390f35b34801561013a57600080fd5b5061015560048036038101906101509190611ba9565b610dcf565b6040516101629190611c14565b60405180910390f35b34801561017757600080fd5b50610180610e10565b60405161018d9190611c8e565b60405180910390f35b3480156101a257600080fd5b506101ab610ea8565b6040516101b89190611cb8565b60405180910390f35b3480156101cd57600080fd5b506101d6610ec0565b6040516101e39190611d91565b60405180910390f35b3480156101f857600080fd5b50610213600480360381019061020e9190611ba9565b610f18565b6040516102209190611f0e565b60405180910390f35b34801561023557600080fd5b50610250600480360381019061024b9190611ba9565b610fc8565b60405161025d9190611f4b565b60405180910390f35b34801561027257600080fd5b5061028d6004803603810190610288919061202e565b6110ab565b005b34801561029b57600080fd5b506102b660048036038101906102b19190611ba9565b611155565b005b60008383836040516020016102cf93929190612110565b6040516020818303038152906040529050600260009054906101000a900473ffffffffffffffffffffffffffffffffffffffff1673ffffffffffffffffffffffffffffffffffffffff16632ec3818886836040518363ffffffff1660e01b815260040161033d92919061219c565b600060405180830381600087803b15801561035757600080fd5b505af115801561036b573d6000803e3d6000fd5b505050505050505050565b61037e611316565b61038782610fc8565b6103c6576040517f08c379a00000000000000000000000000000000000000000000000000000000081526004016103bd90612229565b60405180910390fd5b60008114806103d55750348114155b1561040c576040517f1f04ddc800000000000000000000000000000000000000000000000000000000815260040160405180910390fd5b60006007600084815260200190815260200160002060010160003373ffffffffffffffffffffffffffffffffffffffff1673ffffffffffffffffffffffffffffffffffffffff16815260200190815260200160002054121561049a576040517f446e224d00000000000000000000000000000000000000000000000000000000815260040160405180910390fd5b806006600084815260200190815260200160002060010160008282546104c09190612278565b92505081905550806007600084815260200190815260200160002060010160003373ffffffffffffffffffffffffffffffffffffffff1673ffffffffffffffffffffffffffffffffffffffff1681526020019081526020016000208190555060076000838152602001908152602001600020600001339080600181540180825580915050600190039060005260206000200160009091909190916101000a81548173ffffffffffffffffffffffffffffffffffffffff021916908373ffffffffffffffffffffffffffffffffffffffff160217905550817f315cb30dd854bd9e9df31e31754930ba16b498240f74a4ef23531f84c4ee4910826040516105c691906122ac565b60405180910390a26006600083815260200190815260200160002060000154600660008481526020019081526020016000206001015410610b7b57600061060c8361135c565b90506000604051806080016040528060001515815260200160001515815260200160001515815260200183815250905060006001835161064c9190612278565b67ffffffffffffffff81111561066557610664611919565b5b6040519080825280602002602001820160405280156106935781602001602082028036833780820191505090505b50905060005b8351811015610721578381815181106106b5576106b46122c7565b5b6020026020010151600001518282815181106106d4576106d36122c7565b5b602002602001019073ffffffffffffffffffffffffffffffffffffffff16908173ffffffffffffffffffffffffffffffffffffffff16815250508080610719906122f6565b915050610699565b503081845181518110610737576107366122c7565b5b602002602001019073ffffffffffffffffffffffffffffffffffffffff16908173ffffffffffffffffffffffffffffffffffffffff168152505060006040518060400160405280600181526020016040518060400160405280600d81526020017f656d70747920706f696e7465720000000000000000000000000000000000000081525081525090506000836040516020016107d3919061248e565b60405160208183030381529060405290506000600260009054906101000a900473ffffffffffffffffffffffffffffffffffffffff1673ffffffffffffffffffffffffffffffffffffffff1663e1007d4a348a600360009054906101000a900473ffffffffffffffffffffffffffffffffffffffff168673eeeeeeeeeeeeeeeeeeeeeeeeeeeeeeeeeeeeeeee60008a8c6040518963ffffffff1660e01b815260040161088597969594939291906125d7565b60206040518083038185885af11580156108a3573d6000803e3d6000fd5b50505050506040513d601f19601f820116820180604052508101906108c89190612670565b90506006600089815260200190815260200160002060000154471015610923576040517f08c379a000000000000000000000000000000000000000000000000000000000815260040161091a906126e9565b60405180910390fd5b600260009054906101000a900473ffffffffffffffffffffffffffffffffffffffff1673ffffffffffffffffffffffffffffffffffffffff16635acd6fac600660008b81526020019081526020016000206000015483600660008d8152602001908152602001600020600001546040518463ffffffff1660e01b81526004016109ad929190612709565b6000604051808303818588803b1580156109c657600080fd5b505af11580156109da573d6000803e3d6000fd5b50505050506000600860008a815260200190815260200160002060009054906101000a900473ffffffffffffffffffffffffffffffffffffffff1660008086604051602001610a2c9493929190612770565b6040516020818303038152906040529050600260009054906101000a900473ffffffffffffffffffffffffffffffffffffffff1673ffffffffffffffffffffffffffffffffffffffff1663075c0e9c83836040518363ffffffff1660e01b8152600401610a9a92919061219c565b6020604051808303816000875af1158015610ab9573d6000803e3d6000fd5b505050506040513d601f19601f82011682018060405250810190610add91906127d1565b50600060405180604001604052808b81526020018481525090506005819080600181540180825580915050600190039060005260206000209060020201600090919091909150600082015181600001556020820151816001015550507fc5d45cf1508cae377cc227a37ea00b97fa9e86e03ce72364a0b7e85e36baacec8a84604051610b6a9291906127fe565b60405180910390a150505050505050505b610b836115a5565b5050565b600080600267ffffffffffffffff811115610ba557610ba4611919565b5b604051908082528060200260200182016040528015610bd35781602001602082028036833780820191505090505b5090508281600081518110610beb57610bea6122c7565b5b602002602001019073ffffffffffffffffffffffffffffffffffffffff16908173ffffffffffffffffffffffffffffffffffffffff16815250503081600181518110610c3a57610c396122c7565b5b602002602001019073ffffffffffffffffffffffffffffffffffffffff16908173ffffffffffffffffffffffffffffffffffffffff1681525050600160009054906101000a900473ffffffffffffffffffffffffffffffffffffffff1673ffffffffffffffffffffffffffffffffffffffff16633a92f65f88888888866040518663ffffffff1660e01b8152600401610cd7959493929190612860565b6020604051808303816000875af1158015610cf6573d6000803e3d6000fd5b505050506040513d601f19601f82011682018060405250810190610d1a91906128dd565b9150600482908060018154018082558091505060019003906000526020600020016000909190919091505587600660008481526020019081526020016000206000016000828254610d6b9190612278565b92505081905550826008600084815260200190815260200160002060006101000a81548173ffffffffffffffffffffffffffffffffffffffff021916908373ffffffffffffffffffffffffffffffffffffffff160217905550509695505050505050565b610dd7611685565b60066000838152602001908152602001600020604051806040016040529081600082015481526020016001820154815250509050919050565b6000600260009054906101000a900473ffffffffffffffffffffffffffffffffffffffff1673ffffffffffffffffffffffffffffffffffffffff16635ab1bd536040518163ffffffff1660e01b8152600401602060405180830381865afa158015610e7f573d6000803e3d6000fd5b505050506040513d601f19601f82011682018060405250810190610ea39190612948565b905090565b73eeeeeeeeeeeeeeeeeeeeeeeeeeeeeeeeeeeeeeee81565b60606004805480602002602001604051908101604052809291908181526020018280548015610f0e57602002820191906000526020600020905b815481526020019060010190808311610efa575b5050505050905090565b610f2061169f565b600160009054906101000a900473ffffffffffffffffffffffffffffffffffffffff1673ffffffffffffffffffffffffffffffffffffffff16630114cf0a836040518263ffffffff1660e01b8152600401610f7b9190611b8e565b600060405180830381865afa158015610f98573d6000803e3d6000fd5b505050506040513d6000823e3d601f19601f82011682018060405250810190610fc19190612b29565b9050919050565b600080600160009054906101000a900473ffffffffffffffffffffffffffffffffffffffff1673ffffffffffffffffffffffffffffffffffffffff16630114cf0a846040518263ffffffff1660e01b81526004016110269190611b8e565b600060405180830381865afa158015611043573d6000803e3d6000fd5b505050506040513d6000823e3d601f19601f8201168201806040525081019061106c9190612b29565b9050600073ffffffffffffffffffffffffffffffffffffffff16816080015173ffffffffffffffffffffffffffffffffffffffff161415915050919050565b6000604051806020016040528060008152509050600260009054906101000a900473ffffffffffffffffffffffffffffffffffffffff1673ffffffffffffffffffffffffffffffffffffffff16633a5fbd928484846040518463ffffffff1660e01b815260040161111e93929190612b72565b600060405180830381600087803b15801561113857600080fd5b505af115801561114c573d6000803e3d6000fd5b50505050505050565b61115d611316565b61116681610fc8565b6111a5576040517f08c379a000000000000000000000000000000000000000000000000000000000815260040161119c90612229565b60405180910390fd5b60006007600083815260200190815260200160002060010160003373ffffffffffffffffffffffffffffffffffffffff1673ffffffffffffffffffffffffffffffffffffffff16815260200190815260200160002054905060008113611240576040517f08c379a000000000000000000000000000000000000000000000000000000000815260040161123790612c03565b60405180910390fd5b60008190507fffffffffffffffffffffffffffffffffffffffffffffffffffffffffffffffff6007600085815260200190815260200160002060010160003373ffffffffffffffffffffffffffffffffffffffff1673ffffffffffffffffffffffffffffffffffffffff16815260200190815260200160002081905550806006600085815260200190815260200160002060010160008282546112e39190612c23565b9250508190555061130973eeeeeeeeeeeeeeeeeeeeeeeeeeeeeeeeeeeeeeee33836115af565b50506113136115a5565b50565b600260005403611352576040517f3ee5aeb500000000000000000000000000000000000000000000000000000000815260040160405180910390fd5b6002600081905550565b606060006007600084815260200190815260200160002090506000816000018054905067ffffffffffffffff81111561139857611397611919565b5b6040519080825280602002602001820160405280156113d157816020015b6113be61170a565b8152602001906001900390816113b65790505b5090506000805b83600001805490508110156114e85760008460000182815481106113ff576113fe6122c7565b5b9060005260206000200160009054906101000a900473ffffffffffffffffffffffffffffffffffffffff16905060008560010160008373ffffffffffffffffffffffffffffffffffffffff1673ffffffffffffffffffffffffffffffffffffffff16815260200190815260200160002054905060008113156114d35760405180604001604052808373ffffffffffffffffffffffffffffffffffffffff168152602001828152508585815181106114b9576114b86122c7565b5b602002602001018190525083806114cf906122f6565b9450505b505080806114e0906122f6565b9150506113d8565b5060008167ffffffffffffffff81111561150557611504611919565b5b60405190808252806020026020018201604052801561153e57816020015b61152b61170a565b8152602001906001900390816115235790505b50905060005b828110156115985783818151811061155f5761155e6122c7565b5b602002602001015182828151811061157a576115796122c7565b5b60200260200101819052508080611590906122f6565b915050611544565b5080945050505050919050565b6001600081905550565b73eeeeeeeeeeeeeeeeeeeeeeeeeeeeeeeeeeeeeeee73ffffffffffffffffffffffffffffffffffffffff168373ffffffffffffffffffffffffffffffffffffffff1603611605576116008282611616565b611611565b611610838383611636565b5b505050565b60003860003884865af16116325763b12d13eb6000526004601cfd5b5050565b81601452806034526fa9059cbb00000000000000000000000060005260206000604460106000875af13d15600160005114171661167b576390b8ec186000526004601cfd5b6000603452505050565b604051806040016040528060008152602001600081525090565b6040518060c001604052806000801916815260200160008152602001606081526020016116ca61173a565b8152602001600073ffffffffffffffffffffffffffffffffffffffff168152602001600073ffffffffffffffffffffffffffffffffffffffff1681525090565b6040518060400160405280600073ffffffffffffffffffffffffffffffffffffffff168152602001600081525090565b604051806040016040528060008152602001606081525090565b6000604051905090565b600080fd5b600080fd5b6000819050919050565b61177b81611768565b811461178657600080fd5b50565b60008135905061179881611772565b92915050565b600073ffffffffffffffffffffffffffffffffffffffff82169050919050565b60006117c98261179e565b9050919050565b6117d9816117be565b81146117e457600080fd5b50565b6000813590506117f6816117d0565b92915050565b6007811061180957600080fd5b50565b60008135905061181b816117fc565b92915050565b6000806000806080858703121561183b5761183a61175e565b5b600061184987828801611789565b945050602061185a878288016117e7565b935050604061186b8782880161180c565b925050606061187c87828801611789565b91505092959194509250565b6000819050919050565b61189b81611888565b81146118a657600080fd5b50565b6000813590506118b881611892565b92915050565b600080604083850312156118d5576118d461175e565b5b60006118e3858286016118a9565b92505060206118f485828601611789565b9150509250929050565b600080fd5b600080fd5b6000601f19601f8301169050919050565b7f4e487b7100000000000000000000000000000000000000000000000000000000600052604160045260246000fd5b61195182611908565b810181811067ffffffffffffffff821117156119705761196f611919565b5b80604052505050565b6000611983611754565b905061198f8282611948565b919050565b600067ffffffffffffffff8211156119af576119ae611919565b5b6119b882611908565b9050602081019050919050565b82818337600083830152505050565b60006119e76119e284611994565b611979565b905082815260208101848484011115611a0357611a02611903565b5b611a0e8482856119c5565b509392505050565b600082601f830112611a2b57611a2a6118fe565b5b8135611a3b8482602086016119d4565b91505092915050565b600080fd5b600080fd5b600060408284031215611a6457611a63611a44565b5b611a6e6040611979565b90506000611a7e84828501611789565b600083015250602082013567ffffffffffffffff811115611aa257611aa1611a49565b5b611aae84828501611a16565b60208301525092915050565b60008060008060008060c08789031215611ad757611ad661175e565b5b6000611ae589828a01611789565b9650506020611af689828a01611789565b955050604087013567ffffffffffffffff811115611b1757611b16611763565b5b611b2389828a01611a16565b945050606087013567ffffffffffffffff811115611b4457611b43611763565b5b611b5089828a01611a4e565b9350506080611b6189828a016117e7565b92505060a0611b7289828a016117e7565b9150509295509295509295565b611b8881611888565b82525050565b6000602082019050611ba36000830184611b7f565b92915050565b600060208284031215611bbf57611bbe61175e565b5b6000611bcd848285016118a9565b91505092915050565b611bdf81611768565b82525050565b604082016000820151611bfb6000850182611bd6565b506020820151611c0e6020850182611bd6565b50505050565b6000604082019050611c296000830184611be5565b92915050565b6000819050919050565b6000611c54611c4f611c4a8461179e565b611c2f565b61179e565b9050919050565b6000611c6682611c39565b9050919050565b6000611c7882611c5b565b9050919050565b611c8881611c6d565b82525050565b6000602082019050611ca36000830184611c7f565b92915050565b611cb2816117be565b82525050565b6000602082019050611ccd6000830184611ca9565b92915050565b600081519050919050565b600082825260208201905092915050565b6000819050602082019050919050565b611d0881611888565b82525050565b6000611d1a8383611cff565b60208301905092915050565b6000602082019050919050565b6000611d3e82611cd3565b611d488185611cde565b9350611d5383611cef565b8060005b83811015611d84578151611d6b8882611d0e565b9750611d7683611d26565b925050600181019050611d57565b5085935050505092915050565b60006020820190508181036000830152611dab8184611d33565b905092915050565b600081519050919050565b600082825260208201905092915050565b60005b83811015611ded578082015181840152602081019050611dd2565b60008484015250505050565b6000611e0482611db3565b611e0e8185611dbe565b9350611e1e818560208601611dcf565b611e2781611908565b840191505092915050565b6000604083016000830151611e4a6000860182611bd6565b5060208301518482036020860152611e628282611df9565b9150508091505092915050565b611e78816117be565b82525050565b600060c083016000830151611e966000860182611cff565b506020830151611ea96020860182611bd6565b5060408301518482036040860152611ec18282611df9565b91505060608301518482036060860152611edb8282611e32565b9150506080830151611ef06080860182611e6f565b5060a0830151611f0360a0860182611e6f565b508091505092915050565b60006020820190508181036000830152611f288184611e7e565b905092915050565b60008115159050919050565b611f4581611f30565b82525050565b6000602082019050611f606000830184611f3c565b92915050565b600067ffffffffffffffff821115611f8157611f80611919565b5b602082029050602081019050919050565b600080fd5b6000611faa611fa584611f66565b611979565b90508083825260208201905060208402830185811115611fcd57611fcc611f92565b5b835b81811015611ff65780611fe288826117e7565b845260208401935050602081019050611fcf565b5050509392505050565b600082601f830112612015576120146118fe565b5b8135612025848260208601611f97565b91505092915050565b600080604083850312156120455761204461175e565b5b600061205385828601611789565b925050602083013567ffffffffffffffff81111561207457612073611763565b5b61208085828601612000565b9150509250929050565b7f4e487b7100000000000000000000000000000000000000000000000000000000600052602160045260246000fd5b600781106120ca576120c961208a565b5b50565b60008190506120db826120b9565b919050565b60006120eb826120cd565b9050919050565b6120fb816120e0565b82525050565b61210a81611768565b82525050565b60006060820190506121256000830186611ca9565b61213260208301856120f2565b61213f6040830184612101565b949350505050565b600081519050919050565b600082825260208201905092915050565b600061216e82612147565b6121788185612152565b9350612188818560208601611dcf565b61219181611908565b840191505092915050565b60006040820190506121b16000830185612101565b81810360208301526121c38184612163565b90509392505050565b600082825260208201905092915050565b7f50726f6a65637420646f6573206e6f7420657869737400000000000000000000600082015250565b60006122136016836121cc565b915061221e826121dd565b602082019050919050565b6000602082019050818103600083015261224281612206565b9050919050565b7f4e487b7100000000000000000000000000000000000000000000000000000000600052601160045260246000fd5b600061228382611768565b915061228e83611768565b92508282019050808211156122a6576122a5612249565b5b92915050565b60006020820190506122c16000830184612101565b92915050565b7f4e487b7100000000000000000000000000000000000000000000000000000000600052603260045260246000fd5b600061230182611768565b91507fffffffffffffffffffffffffffffffffffffffffffffffffffffffffffffffff820361233357612332612249565b5b600182019050919050565b61234781611f30565b82525050565b600081519050919050565b600082825260208201905092915050565b6000819050602082019050919050565b60408201600082015161238f6000850182611e6f565b5060208201516123a26020850182611bd6565b50505050565b60006123b48383612379565b60408301905092915050565b6000602082019050919050565b60006123d88261234d565b6123e28185612358565b93506123ed83612369565b8060005b8381101561241e57815161240588826123a8565b9750612410836123c0565b9250506001810190506123f1565b5085935050505092915050565b6000608083016000830151612443600086018261233e565b506020830151612456602086018261233e565b506040830151612469604086018261233e565b506060830151848203606086015261248182826123cd565b9150508091505092915050565b600060208201905081810360008301526124a8818461242b565b905092915050565b6000819050919050565b60006124d56124d06124cb846124b0565b611c2f565b611768565b9050919050565b6124e5816124ba565b82525050565b60006040830160008301516125036000860182611bd6565b506020830151848203602086015261251b8282611df9565b9150508091505092915050565b600081519050919050565b600082825260208201905092915050565b6000819050602082019050919050565b60006125608383611e6f565b60208301905092915050565b6000602082019050919050565b600061258482612528565b61258e8185612533565b935061259983612544565b8060005b838110156125ca5781516125b18882612554565b97506125bc8361256c565b92505060018101905061259d565b5085935050505092915050565b600060e0820190506125ec600083018a611b7f565b6125f96020830189611ca9565b818103604083015261260b8188612163565b905061261a6060830187611ca9565b61262760808301866124dc565b81810360a083015261263981856124eb565b905081810360c083015261264d8184612579565b905098975050505050505050565b60008151905061266a81611772565b92915050565b6000602082840312156126865761268561175e565b5b60006126948482850161265b565b91505092915050565b7f496e73756666696369656e742062616c616e636520696e20636f6e7472616374600082015250565b60006126d36020836121cc565b91506126de8261269d565b602082019050919050565b60006020820190508181036000830152612702816126c6565b9050919050565b600060408201905061271e6000830185612101565b61272b6020830184612101565b9392505050565b600060ff82169050919050565b600061275a612755612750846124b0565b611c2f565b612732565b9050919050565b61276a8161273f565b82525050565b60006080820190506127856000830187611ca9565b6127926020830186611ca9565b61279f6040830185612761565b81810360608301526127b181846124eb565b905095945050505050565b6000815190506127cb816117d0565b92915050565b6000602082840312156127e7576127e661175e565b5b60006127f5848285016127bc565b91505092915050565b60006040820190506128136000830185611b7f565b6128206020830184612101565b9392505050565b600061283282611db3565b61283c81856121cc565b935061284c818560208601611dcf565b61285581611908565b840191505092915050565b600060a0820190506128756000830188612101565b81810360208301526128878187612827565b9050818103604083015261289b81866124eb565b90506128aa6060830185611ca9565b81810360808301526128bc8184612579565b90509695505050505050565b6000815190506128d781611892565b92915050565b6000602082840312156128f3576128f261175e565b5b6000612901848285016128c8565b91505092915050565b6000612915826117be565b9050919050565b6129258161290a565b811461293057600080fd5b50565b6000815190506129428161291c565b92915050565b60006020828403121561295e5761295d61175e565b5b600061296c84828501612933565b91505092915050565b600061298861298384611994565b611979565b9050828152602081018484840111156129a4576129a3611903565b5b6129af848285611dcf565b509392505050565b600082601f8301126129cc576129cb6118fe565b5b81516129dc848260208601612975565b91505092915050565b6000604082840312156129fb576129fa611a44565b5b612a056040611979565b90506000612a158482850161265b565b600083015250602082015167ffffffffffffffff811115612a3957612a38611a49565b5b612a45848285016129b7565b60208301525092915050565b600060c08284031215612a6757612a66611a44565b5b612a7160c0611979565b90506000612a81848285016128c8565b6000830152506020612a958482850161265b565b602083015250604082015167ffffffffffffffff811115612ab957612ab8611a49565b5b612ac5848285016129b7565b604083015250606082015167ffffffffffffffff811115612ae957612ae8611a49565b5b612af5848285016129e5565b6060830152506080612b09848285016127bc565b60808301525060a0612b1d848285016127bc565b60a08301525092915050565b600060208284031215612b3f57612b3e61175e565b5b600082015167ffffffffffffffff811115612b5d57612b5c611763565b5b612b6984828501612a51565b91505092915050565b6000606082019050612b876000830186612101565b8181036020830152612b998185612579565b90508181036040830152612bad8184612163565b9050949350505050565b7f535550504c59204e4f5420464f554e4400000000000000000000000000000000600082015250565b6000612bed6010836121cc565b9150612bf882612bb7565b602082019050919050565b60006020820190508181036000830152612c1c81612be0565b9050919050565b6000612c2e82611768565b9150612c3983611768565b9250828203905081811115612c5157612c50612249565b5b9291505056fea26469706673582212203eb06fbe0b31f57b7d45c858aeebec05aacee98a6fadefd848c6368899817dba64736f6c63430008140033",
  "linkReferences": {},
  "deployedLinkReferences": {}
}