{
  "_format": "hh-sol-artifact-1",
  "contractName": "Manager",
  "sourceName": "contracts/Manager.sol",
  "abi": [
    {
      "inputs": [
        {
          "internalType": "address",
          "name": "alloAddress",
          "type": "address"
        },
        {
          "internalType": "address",
          "name": "_strategy",
          "type": "address"
        },
        {
          "internalType": "address",
          "name": "_strategyFactory",
          "type": "address"
        },
        {
          "internalType": "address",
          "name": "_hatsContractAddress",
          "type": "address"
        },
        {
          "internalType": "uint256",
          "name": "_managerHatID",
          "type": "uint256"
        }
      ],
      "stateMutability": "nonpayable",
      "type": "constructor"
    },
    {
      "inputs": [],
      "name": "ALLOCATION_ACTIVE",
      "type": "error"
    },
    {
      "inputs": [],
      "name": "ALLOCATION_NOT_ACTIVE",
      "type": "error"
    },
    {
      "inputs": [],
      "name": "ALLOCATION_NOT_ENDED",
      "type": "error"
    },
    {
      "inputs": [],
      "name": "ALREADY_INITIALIZED",
      "type": "error"
    },
    {
      "inputs": [],
      "name": "AMOUNT_MISMATCH",
      "type": "error"
    },
    {
      "inputs": [],
      "name": "ANCHOR_ERROR",
      "type": "error"
    },
    {
      "inputs": [],
      "name": "ARRAY_MISMATCH",
      "type": "error"
    },
    {
      "inputs": [],
      "name": "INVALID",
      "type": "error"
    },
    {
      "inputs": [],
      "name": "INVALID_ADDRESS",
      "type": "error"
    },
    {
      "inputs": [],
      "name": "INVALID_FEE",
      "type": "error"
    },
    {
      "inputs": [],
      "name": "INVALID_METADATA",
      "type": "error"
    },
    {
      "inputs": [],
      "name": "INVALID_MILESTONE_STATUS",
      "type": "error"
    },
    {
      "inputs": [],
      "name": "INVALID_REGISTRATION",
      "type": "error"
    },
    {
      "inputs": [],
      "name": "IS_APPROVED_STRATEGY",
      "type": "error"
    },
    {
      "inputs": [],
      "name": "MISMATCH",
      "type": "error"
    },
    {
      "inputs": [],
      "name": "NONCE_NOT_AVAILABLE",
      "type": "error"
    },
    {
      "inputs": [],
      "name": "NOT_APPROVED_STRATEGY",
      "type": "error"
    },
    {
      "inputs": [],
      "name": "NOT_ENOUGH_FUNDS",
      "type": "error"
    },
    {
      "inputs": [],
      "name": "NOT_IMPLEMENTED",
      "type": "error"
    },
    {
      "inputs": [],
      "name": "NOT_INITIALIZED",
      "type": "error"
    },
    {
      "inputs": [],
      "name": "NOT_PENDING_OWNER",
      "type": "error"
    },
    {
      "inputs": [],
      "name": "POOL_ACTIVE",
      "type": "error"
    },
    {
      "inputs": [],
      "name": "POOL_INACTIVE",
      "type": "error"
    },
    {
      "inputs": [],
      "name": "RECIPIENT_ALREADY_ACCEPTED",
      "type": "error"
    },
    {
      "inputs": [
        {
          "internalType": "address",
          "name": "recipientId",
          "type": "address"
        }
      ],
      "name": "RECIPIENT_ERROR",
      "type": "error"
    },
    {
      "inputs": [],
      "name": "RECIPIENT_NOT_ACCEPTED",
      "type": "error"
    },
    {
      "inputs": [],
      "name": "REGISTRATION_NOT_ACTIVE",
      "type": "error"
    },
    {
      "inputs": [],
      "name": "ReentrancyGuardReentrantCall",
      "type": "error"
    },
    {
      "inputs": [],
      "name": "SUPPLY_IS_ALLOWED_ONLY_ONCE",
      "type": "error"
    },
    {
      "inputs": [],
      "name": "SUPPLY_NOT_FOUND",
      "type": "error"
    },
    {
      "inputs": [],
      "name": "UNAUTHORIZED",
      "type": "error"
    },
    {
      "inputs": [],
      "name": "ZERO_ADDRESS",
      "type": "error"
    },
    {
      "anonymous": false,
      "inputs": [
        {
          "indexed": true,
          "internalType": "bytes32",
          "name": "projectId",
          "type": "bytes32"
        },
        {
          "indexed": false,
          "internalType": "uint256",
          "name": "amount",
          "type": "uint256"
        }
      ],
      "name": "ProjectFunded",
      "type": "event"
    },
    {
      "anonymous": false,
      "inputs": [
        {
          "indexed": false,
          "internalType": "bytes32",
          "name": "projectId",
          "type": "bytes32"
        },
        {
          "indexed": false,
          "internalType": "uint256",
          "name": "poolId",
          "type": "uint256"
        }
      ],
      "name": "ProjectPoolCreeated",
      "type": "event"
    },
    {
      "inputs": [],
      "name": "NATIVE",
      "outputs": [
        {
          "internalType": "address",
          "name": "",
          "type": "address"
        }
      ],
      "stateMutability": "view",
      "type": "function"
    },
    {
      "inputs": [
        {
          "internalType": "bytes32",
          "name": "_projectId",
          "type": "bytes32"
        }
      ],
      "name": "getProfile",
      "outputs": [
        {
          "components": [
            {
              "internalType": "bytes32",
              "name": "id",
              "type": "bytes32"
            },
            {
              "internalType": "uint256",
              "name": "nonce",
              "type": "uint256"
            },
            {
              "internalType": "string",
              "name": "name",
              "type": "string"
            },
            {
              "components": [
                {
                  "internalType": "uint256",
                  "name": "protocol",
                  "type": "uint256"
                },
                {
                  "internalType": "string",
                  "name": "pointer",
                  "type": "string"
                }
              ],
              "internalType": "struct Metadata",
              "name": "metadata",
              "type": "tuple"
            },
            {
              "internalType": "address",
              "name": "owner",
              "type": "address"
            },
            {
              "internalType": "address",
              "name": "anchor",
              "type": "address"
            }
          ],
          "internalType": "struct IRegistry.Profile",
          "name": "",
          "type": "tuple"
        }
      ],
      "stateMutability": "view",
      "type": "function"
    },
    {
      "inputs": [],
      "name": "getProfiles",
      "outputs": [
        {
          "internalType": "bytes32[]",
          "name": "",
          "type": "bytes32[]"
        }
      ],
      "stateMutability": "view",
      "type": "function"
    },
    {
      "inputs": [
        {
          "internalType": "bytes32",
          "name": "_projectId",
          "type": "bytes32"
        }
      ],
      "name": "getProjectExecutor",
      "outputs": [
        {
          "internalType": "address",
          "name": "",
          "type": "address"
        }
      ],
      "stateMutability": "view",
      "type": "function"
    },
    {
      "inputs": [
        {
          "internalType": "bytes32",
          "name": "_projectId",
          "type": "bytes32"
        }
      ],
      "name": "getProjectPool",
      "outputs": [
        {
          "internalType": "uint256",
          "name": "",
          "type": "uint256"
        }
      ],
      "stateMutability": "view",
      "type": "function"
    },
    {
      "inputs": [
        {
          "internalType": "bytes32",
          "name": "_projectId",
          "type": "bytes32"
        }
      ],
      "name": "getProjectStrategy",
      "outputs": [
        {
          "internalType": "address",
          "name": "",
          "type": "address"
        }
      ],
      "stateMutability": "view",
      "type": "function"
    },
    {
      "inputs": [
        {
          "internalType": "bytes32",
          "name": "_projectId",
          "type": "bytes32"
        },
        {
          "internalType": "address",
          "name": "_supplier",
          "type": "address"
        }
      ],
      "name": "getProjectSupplierById",
      "outputs": [
        {
          "internalType": "uint256",
          "name": "",
          "type": "uint256"
        }
      ],
      "stateMutability": "view",
      "type": "function"
    },
    {
      "inputs": [
        {
          "internalType": "bytes32",
          "name": "_projectId",
          "type": "bytes32"
        }
      ],
      "name": "getProjectSuppliers",
      "outputs": [
        {
          "internalType": "address[]",
          "name": "",
          "type": "address[]"
        }
      ],
      "stateMutability": "view",
      "type": "function"
    },
    {
      "inputs": [
        {
          "internalType": "bytes32",
          "name": "_projectId",
          "type": "bytes32"
        }
      ],
      "name": "getProjectSupply",
      "outputs": [
        {
          "components": [
            {
              "internalType": "uint256",
              "name": "need",
              "type": "uint256"
            },
            {
              "internalType": "uint256",
              "name": "has",
              "type": "uint256"
            },
            {
              "internalType": "string",
              "name": "name",
              "type": "string"
            },
            {
              "internalType": "string",
              "name": "description",
              "type": "string"
            }
          ],
          "internalType": "struct Manager.ProjectSupply",
          "name": "",
          "type": "tuple"
        }
      ],
      "stateMutability": "view",
      "type": "function"
    },
    {
      "inputs": [],
      "name": "hatsContract",
      "outputs": [
        {
          "internalType": "contract IHats",
          "name": "",
          "type": "address"
        }
      ],
      "stateMutability": "view",
      "type": "function"
    },
    {
      "inputs": [
        {
          "internalType": "uint256",
          "name": "_needs",
          "type": "uint256"
        },
        {
          "internalType": "uint256",
          "name": "_nonce",
          "type": "uint256"
        },
        {
          "internalType": "string",
          "name": "_name",
          "type": "string"
        },
        {
          "components": [
            {
              "internalType": "uint256",
              "name": "protocol",
              "type": "uint256"
            },
            {
              "internalType": "string",
              "name": "pointer",
              "type": "string"
            }
          ],
          "internalType": "struct Metadata",
          "name": "_metadata",
          "type": "tuple"
        },
        {
          "internalType": "address",
          "name": "_recipient",
          "type": "address"
        },
        {
          "internalType": "string",
          "name": "_description",
          "type": "string"
        }
      ],
      "name": "registerProject",
      "outputs": [
        {
          "internalType": "bytes32",
          "name": "profileId",
          "type": "bytes32"
        }
      ],
      "stateMutability": "nonpayable",
      "type": "function"
    },
    {
      "inputs": [
        {
          "internalType": "bytes32",
          "name": "_projectId",
          "type": "bytes32"
        }
      ],
      "name": "revokeProjectSupply",
      "outputs": [],
      "stateMutability": "nonpayable",
      "type": "function"
    },
    {
      "inputs": [
        {
          "internalType": "bytes32",
          "name": "_projectId",
          "type": "bytes32"
        },
        {
          "internalType": "uint256",
          "name": "_amount",
          "type": "uint256"
        }
      ],
      "name": "supplyProject",
      "outputs": [],
      "stateMutability": "payable",
      "type": "function"
    },
    {
      "stateMutability": "payable",
      "type": "receive"
    }
  ],
  "bytecode": "0x60806040523480156200001157600080fd5b50604051620023e0380380620023e0833981016040819052620000349162000130565b60016000908155600280546001600160a01b03199081166001600160a01b038981169182179093556003805483168985161790556004805483168885161781556005805490931693871693909317909155600684905560408051635ab1bd5360e01b815290519192635ab1bd539282820192602092908290030181865afa158015620000c4573d6000803e3d6000fd5b505050506040513d601f19601f82011682018060405250810190620000ea9190620001a4565b600180546001600160a01b0319166001600160a01b039290921691909117905550620001cb945050505050565b6001600160a01b03811681146200012d57600080fd5b50565b600080600080600060a086880312156200014957600080fd5b8551620001568162000117565b6020870151909550620001698162000117565b60408701519094506200017c8162000117565b60608701519093506200018f8162000117565b80925050608086015190509295509295909350565b600060208284031215620001b757600080fd5b8151620001c48162000117565b9392505050565b61220580620001db6000396000f3fe6080604052600436106100c65760003560e01c806394a8fb4a1161007f578063b213703311610059578063b213703314610257578063b50991b414610279578063d1de78e4146102a6578063df06c273146102c657600080fd5b806394a8fb4a146101e257806397e39fef1461020f578063a0cf0aea1461022f57600080fd5b806316e46f68146100d257806340f1ab98146101125780635d5bba3f146101275780636617dd66146101755780637144e4b5146101a25780638d363831146101c257600080fd5b366100cd57005b600080fd5b3480156100de57600080fd5b506100ff6100ed36600461174d565b6000908152600c602052604090205490565b6040519081526020015b60405180910390f35b610125610120366004611766565b6102fc565b005b34801561013357600080fd5b5061015d61014236600461174d565b6000908152600d60205260409020546001600160a01b031690565b6040516001600160a01b039091168152602001610109565b34801561018157600080fd5b5061019561019036600461174d565b610ae6565b60405161010991906117cc565b3480156101ae57600080fd5b506100ff6101bd36600461191c565b610b52565b3480156101ce57600080fd5b506100ff6101dd3660046119ff565b610d0b565b3480156101ee57600080fd5b506102026101fd36600461174d565b610d35565b6040516101099190611a7f565b34801561021b57600080fd5b5060055461015d906001600160a01b031681565b34801561023b57600080fd5b5061015d73eeeeeeeeeeeeeeeeeeeeeeeeeeeeeeeeeeeeeeee81565b34801561026357600080fd5b5061026c610ebd565b6040516101099190611ad5565b34801561028557600080fd5b5061029961029436600461174d565b610f15565b6040516101099190611b40565b3480156102b257600080fd5b506101256102c136600461174d565b610f8d565b3480156102d257600080fd5b5061015d6102e136600461174d565b6000908152600b60205260409020546001600160a01b031690565b610304611209565b61030d82611233565b6103575760405162461bcd60e51b8152602060048201526016602482015275141c9bda9958dd08191bd95cc81b9bdd08195e1a5cdd60521b60448201526064015b60405180910390fd5b8015806103645750348114155b15610382576040516303e09bb960e31b815260040160405180910390fd5b6000828152600a6020526040812060010180548392906103a3908490611bd4565b9091555050600082815260096020908152604080832033845290915281205490036103f75760008281526008602090815260408220805460018101825590835291200180546001600160a01b031916331790555b600082815260096020908152604080832033845290915281208054839290610420908490611bd4565b909155505060405181815282907f315cb30dd854bd9e9df31e31754930ba16b498240f74a4ef23531f84c4ee49109060200160405180910390a26000828152600a60205260409020805460019091015410610ad8576000610480836112be565b90506000815160016104929190611bd4565b67ffffffffffffffff8111156104aa576104aa6117e6565b6040519080825280602002602001820160405280156104d3578160200160208202803683370190505b50905060005b825181101561053c578281815181106104f4576104f4611be7565b60200260200101516000015182828151811061051257610512611be7565b6001600160a01b03909216602092830291909101909101528061053481611bfd565b9150506104d9565b50308183518151811061055157610551611be7565b60200260200101906001600160a01b031690816001600160a01b0316815250506105bb6040518060400160405280600c81526020016b14d554141312515497d2105560a21b8152508260405180608001604052806043815260200161218d604391398760016113ec565b604080516001808252818301909252600091602080830190803683375050506000868152600b602052604081205482519293506001600160a01b03169183919061060757610607611be7565b60200260200101906001600160a01b031690816001600160a01b0316815250506106716040518060400160405280600c81526020016b11561150d55513d497d2105560a21b8152508260405180608001604052806043815260200161214a604391398860006113ec565b6106c1604051806040016040528060188152602001771e9e9e9e9e9e9f1029aaa8282624a2a9102420aa1024a21d60411b815250600e60008881526020019081526020016000206001015461156f565b610711604051806040016040528060188152602001771e9e9e9e9e9e9f1029aaa8282624a2a9102420aa1024a21d60411b815250600e60008881526020019081526020016000206000015461156f565b60408051608081018252600080825260208083018290528284018290526060830187905292519092610744929101611c16565b60408051808303601f190181529082905260048054600354637316bcd160e01b85526001600160a01b03908116928501929092529193501690637316bcd1906024016020604051808303816000875af11580156107a5573d6000803e3d6000fd5b505050506040513d601f19601f820116820180604052508101906107c99190611cad565b6000878152600d6020908152604080832080546001600160a01b0319166001600160a01b0395861690811790915560025482518084018452600181528351808501855260148152736d616e616765722077656270616765206c696e6b60601b818701529481019490945291516370803ea560e11b81529394919091169263e1007d4a923492610878928d92899173eeeeeeeeeeeeeeeeeeeeeeeeeeeeeeeeeeeeeeee918a918e90600401611cca565b60206040518083038185885af1158015610896573d6000803e3d6000fd5b50505050506040513d601f19601f820116820180604052508101906108bb9190611d35565b6000888152600a602052604090205490915047101561091c5760405162461bcd60e51b815260206004820181905260248201527f496e73756666696369656e742062616c616e636520696e20636f6e7472616374604482015260640161034e565b6002546000888152600a6020526040908190205490516316b35beb60e21b815260048101849052602481018290526001600160a01b0390921691635acd6fac91906044016000604051808303818588803b15801561097957600080fd5b505af115801561098d573d6000803e3d6000fd5b5050506000898152600b6020908152604080832054600a83528184205482518084018452600181528351808501855260148152736d616e616765722077656270616765206c696e6b60601b81870152818601529251949650610a0195506001600160a01b0390911693869391929101611d4e565b60408051601f19818403018152908290526002546301d703a760e21b83529092506001600160a01b03169063075c0e9c90610a429085908590600401611d8b565b6020604051808303816000875af1158015610a61573d6000803e3d6000fd5b505050506040513d601f19601f82011682018060405250810190610a859190611cad565b506000888152600c602090815260409182902084905581518a81529081018490527fc5d45cf1508cae377cc227a37ea00b97fa9e86e03ce72364a0b7e85e36baacec910160405180910390a15050505050505b610ae26001600055565b5050565b600081815260086020908152604091829020805483518184028101840190945280845260609392830182828015610b4657602002820191906000526020600020905b81546001600160a01b03168152600190910190602001808311610b28575b50505050509050919050565b604080516002808252606082018352600092839291906020830190803683370190505090508381600081518110610b8b57610b8b611be7565b60200260200101906001600160a01b031690816001600160a01b0316815250503081600181518110610bbf57610bbf611be7565b6001600160a01b039283166020918202929092010152600154604051633a92f65f60e01b8152911690633a92f65f90610c04908a908a908a9030908890600401611da4565b6020604051808303816000875af1158015610c23573d6000803e3d6000fd5b505050506040513d601f19601f82011682018060405250810190610c479190611d35565b60078054600181019091557fa66cc928b5edb82af9bd49922954155ab7b0942694bea4ce44661d9a8736c688018190556000818152600a6020526040812080549294508a92909190610c9a908490611bd4565b90915550506000828152600a60205260409020600201610cba8782611e7e565b506000828152600a60205260409020600301610cd68482611e7e565b50506000818152600b6020526040902080546001600160a01b0385166001600160a01b03199091161790559695505050505050565b60008281526009602090815260408083206001600160a01b03851684529091529020545b92915050565b610d606040518060800160405280600081526020016000815260200160608152602001606081525090565b600a60008381526020019081526020016000206040518060800160405290816000820154815260200160018201548152602001600282018054610da290611dfe565b80601f0160208091040260200160405190810160405280929190818152602001828054610dce90611dfe565b8015610e1b5780601f10610df057610100808354040283529160200191610e1b565b820191906000526020600020905b815481529060010190602001808311610dfe57829003601f168201915b50505050508152602001600382018054610e3490611dfe565b80601f0160208091040260200160405190810160405280929190818152602001828054610e6090611dfe565b8015610ead5780601f10610e8257610100808354040283529160200191610ead565b820191906000526020600020905b815481529060010190602001808311610e9057829003601f168201915b5050505050815250509050919050565b60606007805480602002602001604051908101604052809291908181526020018280548015610f0b57602002820191906000526020600020905b815481526020019060010190808311610ef7575b5050505050905090565b610f1d61167f565b600154604051628a678560e11b8152600481018490526001600160a01b0390911690630114cf0a90602401600060405180830381865afa158015610f65573d6000803e3d6000fd5b505050506040513d6000823e601f3d908101601f19168201604052610d2f9190810190611fd5565b610f95611209565b610f9e81611233565b610fe35760405162461bcd60e51b8152602060048201526016602482015275141c9bda9958dd08191bd95cc81b9bdd08195e1a5cdd60521b604482015260640161034e565b60008181526009602090815260408083203384529091529020548061103d5760405162461bcd60e51b815260206004820152601060248201526f14d554141316481393d5081193d5539160821b604482015260640161034e565b60008281526009602090815260408083203384528252808320839055848352600a9091528120600101805483929061107690849061209c565b90915550506000828152600860205260408120546110969060019061209c565b67ffffffffffffffff8111156110ae576110ae6117e6565b6040519080825280602002602001820160405280156110d7578160200160208202803683370190505b5090506000805b6000858152600860205260409020548110156111b957600085815260086020526040902080543391908390811061111757611117611be7565b6000918252602090912001546001600160a01b0316146111a757600085815260086020526040902080548290811061115157611151611be7565b9060005260206000200160009054906101000a90046001600160a01b031683838151811061118157611181611be7565b6001600160a01b0390921660209283029190910190910152816111a381611bfd565b9250505b806111b181611bfd565b9150506110de565b50600084815260086020908152604090912083516111d9928501906116d3565b506111f973eeeeeeeeeeeeeeeeeeeeeeeeeeeeeeeeeeeeeeee33856115b4565b5050506112066001600055565b50565b60026000540361122c57604051633ee5aeb560e01b815260040160405180910390fd5b6002600055565b600154604051628a678560e11b81526004810183905260009182916001600160a01b0390911690630114cf0a90602401600060405180830381865afa158015611280573d6000803e3d6000fd5b505050506040513d6000823e601f3d908101601f191682016040526112a89190810190611fd5565b608001516001600160a01b031615159392505050565b6000818152600860205260408120546060919067ffffffffffffffff8111156112e9576112e96117e6565b60405190808252806020026020018201604052801561132e57816020015b60408051808201909152600080825260208201528152602001906001900390816113075790505b50905060005b6000848152600860205260409020548110156113e557600084815260086020526040812080548390811061136a5761136a611be7565b60009182526020808320909101548783526009825260408084206001600160a01b039092168085529183529283902054835180850190945281845291830182905285519093509091908590859081106113c5576113c5611be7565b6020026020010181905250505080806113dd90611bfd565b915050611334565b5092915050565b6005546006548551604051635829492f60e11b81526000936001600160a01b03169263b052925e9261142c928b9190309081906001908d906004016120af565b6020604051808303816000875af115801561144b573d6000803e3d6000fd5b505050506040513d601f19601f8201168201806040525081019061146f9190611d35565b905060005b85518110156115355760055486516001600160a01b039091169063641f776e9084908990859081106114a8576114a8611be7565b60200260200101516040518363ffffffff1660e01b81526004016114df9291909182526001600160a01b0316602082015260400190565b6020604051808303816000875af11580156114fe573d6000803e3d6000fd5b505050506040513d601f19601f820116820180604052508101906115229190612105565b508061152d81611bfd565b915050611474565b508115611555576000838152600e60205260409020600101819055611567565b6000838152600e602052604090208190555b505050505050565b610ae28282604051602401611585929190612127565b60408051601f198184030181529190526020810180516001600160e01b0316632d839cb360e21b1790526115f3565b73eeeeeeeeeeeeeeeeeeeeeeeeeeeeeeeeeeeeeeed196001600160a01b038416016115e8576115e382826115fc565b505050565b6115e3838383611618565b6112068161165e565b60003860003884865af1610ae25763b12d13eb6000526004601cfd5b816014528060345263a9059cbb60601b60005260206000604460106000875af13d156001600051141716611654576390b8ec186000526004601cfd5b6000603452505050565b60006a636f6e736f6c652e6c6f679050600080835160208501845afa505050565b6040518060c001604052806000801916815260200160008152602001606081526020016116bf604051806040016040528060008152602001606081525090565b815260006020820181905260409091015290565b828054828255906000526020600020908101928215611728579160200282015b8281111561172857825182546001600160a01b0319166001600160a01b039091161782556020909201916001909101906116f3565b50611734929150611738565b5090565b5b808211156117345760008155600101611739565b60006020828403121561175f57600080fd5b5035919050565b6000806040838503121561177957600080fd5b50508035926020909101359150565b600081518084526020808501945080840160005b838110156117c15781516001600160a01b03168752958201959082019060010161179c565b509495945050505050565b6020815260006117df6020830184611788565b9392505050565b634e487b7160e01b600052604160045260246000fd5b6040805190810167ffffffffffffffff8111828210171561181f5761181f6117e6565b60405290565b60405160c0810167ffffffffffffffff8111828210171561181f5761181f6117e6565b604051601f8201601f1916810167ffffffffffffffff81118282101715611871576118716117e6565b604052919050565b600067ffffffffffffffff821115611893576118936117e6565b50601f01601f191660200190565b600082601f8301126118b257600080fd5b81356118c56118c082611879565b611848565b8181528460208386010111156118da57600080fd5b816020850160208301376000918101602001919091529392505050565b6001600160a01b038116811461120657600080fd5b8035611917816118f7565b919050565b60008060008060008060c0878903121561193557600080fd5b8635955060208701359450604087013567ffffffffffffffff8082111561195b57600080fd5b6119678a838b016118a1565b9550606089013591508082111561197d57600080fd5b908801906040828b03121561199157600080fd5b6119996117fc565b823581526020830135828111156119af57600080fd5b6119bb8c8286016118a1565b60208301525094506119cf60808a0161190c565b935060a08901359150808211156119e557600080fd5b506119f289828a016118a1565b9150509295509295509295565b60008060408385031215611a1257600080fd5b823591506020830135611a24816118f7565b809150509250929050565b60005b83811015611a4a578181015183820152602001611a32565b50506000910152565b60008151808452611a6b816020860160208601611a2f565b601f01601f19169290920160200192915050565b6020815281516020820152602082015160408201526000604083015160806060840152611aaf60a0840182611a53565b90506060840151601f19848303016080850152611acc8282611a53565b95945050505050565b6020808252825182820181905260009190848201906040850190845b81811015611b0d57835183529284019291840191600101611af1565b50909695505050505050565b805182526000602082015160406020850152611b386040850182611a53565b949350505050565b6020815281516020820152602082015160408201526000604083015160c06060840152611b7060e0840182611a53565b90506060840151601f19848303016080850152611b8d8282611b19565b60808601516001600160a01b0390811660a0878101919091529096015190951660c090940193909352509192915050565b634e487b7160e01b600052601160045260246000fd5b80820180821115610d2f57610d2f611bbe565b634e487b7160e01b600052603260045260246000fd5b600060018201611c0f57611c0f611bbe565b5060010190565b6000602080835260a0830184511515828501528185015160408115158187015280870151151560608701526060870151915060808087015282825180855260c0880191508584019450600093505b80841015611c9657845180516001600160a01b0316835286015186830152938501936001939093019290820190611c64565b50979650505050505050565b8051611917816118f7565b600060208284031215611cbf57600080fd5b81516117df816118f7565b878152600060018060a01b03808916602084015260e06040840152611cf260e0840189611a53565b818816606085015286608085015283810360a0850152611d128187611b19565b91505082810360c0840152611d278185611788565b9a9950505050505050505050565b600060208284031215611d4757600080fd5b5051919050565b6001600160a01b0385811682528416602082015260408101839052608060608201819052600090611d8190830184611b19565b9695505050505050565b828152604060208201526000611b386040830184611a53565b85815260a060208201526000611dbd60a0830187611a53565b8281036040840152611dcf8187611b19565b6001600160a01b038616606085015283810360808501529050611df28185611788565b98975050505050505050565b600181811c90821680611e1257607f821691505b602082108103611e3257634e487b7160e01b600052602260045260246000fd5b50919050565b601f8211156115e357600081815260208120601f850160051c81016020861015611e5f5750805b601f850160051c820191505b8181101561156757828155600101611e6b565b815167ffffffffffffffff811115611e9857611e986117e6565b611eac81611ea68454611dfe565b84611e38565b602080601f831160018114611ee15760008415611ec95750858301515b600019600386901b1c1916600185901b178555611567565b600085815260208120601f198616915b82811015611f1057888601518255948401946001909101908401611ef1565b5085821015611f2e5787850151600019600388901b60f8161c191681555b5050505050600190811b01905550565b600082601f830112611f4f57600080fd5b8151611f5d6118c082611879565b818152846020838601011115611f7257600080fd5b611b38826020830160208701611a2f565b600060408284031215611f9557600080fd5b611f9d6117fc565b905081518152602082015167ffffffffffffffff811115611fbd57600080fd5b611fc984828501611f3e565b60208301525092915050565b600060208284031215611fe757600080fd5b815167ffffffffffffffff80821115611fff57600080fd5b9083019060c0828603121561201357600080fd5b61201b611825565b825181526020830151602082015260408301518281111561203b57600080fd5b61204787828601611f3e565b60408301525060608301518281111561205f57600080fd5b61206b87828601611f83565b60608301525061207d60808401611ca2565b608082015261208e60a08401611ca2565b60a082015295945050505050565b81810381811115610d2f57610d2f611bbe565b87815260e0602082015260006120c860e0830189611a53565b63ffffffff881660408401526001600160a01b0387811660608501528616608084015284151560a084015282810360c0840152611d278185611a53565b60006020828403121561211757600080fd5b815180151581146117df57600080fd5b60408152600061213a6040830185611a53565b9050826020830152939250505056fe697066733a2f2f6261666b7265696837686a6734656866346c71646f7173746c6b6a78766a79377a666e7a61346b6568326b6e6f68736c6533696b6a6a61336732692f697066733a2f2f6261666b72656965793261356a7471766a6c3465686b336a78376668376564736a716d716c36767178646834377a6e736c65657475673434756d792fa2646970667358221220491b9a4c57ec4e9a97b0ba864337cf7ce33c9a6abc2a1da4b51e34da86b5a92e64736f6c63430008140033",
  "linkReferences": {},
  "deployedLinkReferences": {}
}