{
  "_format": "hh-sol-artifact-1",
  "contractName": "Manager",
  "sourceName": "contracts/Manager.sol",
  "abi": [
    {
      "inputs": [
        {
          "internalType": "address",
          "name": "alloAddress",
          "type": "address"
        },
        {
          "internalType": "address",
          "name": "_strategy",
          "type": "address"
        },
        {
          "internalType": "address",
          "name": "_strategyFactory",
          "type": "address"
        },
        {
          "internalType": "address",
          "name": "_hatsContractAddress",
          "type": "address"
        },
        {
          "internalType": "uint256",
          "name": "_managerHatID",
          "type": "uint256"
        }
      ],
      "stateMutability": "nonpayable",
      "type": "constructor"
    },
    {
      "inputs": [],
      "name": "ALLOCATION_ACTIVE",
      "type": "error"
    },
    {
      "inputs": [],
      "name": "ALLOCATION_NOT_ACTIVE",
      "type": "error"
    },
    {
      "inputs": [],
      "name": "ALLOCATION_NOT_ENDED",
      "type": "error"
    },
    {
      "inputs": [],
      "name": "ALREADY_INITIALIZED",
      "type": "error"
    },
    {
      "inputs": [],
      "name": "AMOUNT_MISMATCH",
      "type": "error"
    },
    {
      "inputs": [],
      "name": "ANCHOR_ERROR",
      "type": "error"
    },
    {
      "inputs": [],
      "name": "ARRAY_MISMATCH",
      "type": "error"
    },
    {
      "inputs": [],
      "name": "INVALID",
      "type": "error"
    },
    {
      "inputs": [],
      "name": "INVALID_ADDRESS",
      "type": "error"
    },
    {
      "inputs": [],
      "name": "INVALID_FEE",
      "type": "error"
    },
    {
      "inputs": [],
      "name": "INVALID_METADATA",
      "type": "error"
    },
    {
      "inputs": [],
      "name": "INVALID_REGISTRATION",
      "type": "error"
    },
    {
      "inputs": [],
      "name": "IS_APPROVED_STRATEGY",
      "type": "error"
    },
    {
      "inputs": [],
      "name": "MISMATCH",
      "type": "error"
    },
    {
      "inputs": [],
      "name": "NONCE_NOT_AVAILABLE",
      "type": "error"
    },
    {
      "inputs": [],
      "name": "NOT_APPROVED_STRATEGY",
      "type": "error"
    },
    {
      "inputs": [],
      "name": "NOT_ENOUGH_FUNDS",
      "type": "error"
    },
    {
      "inputs": [],
      "name": "NOT_IMPLEMENTED",
      "type": "error"
    },
    {
      "inputs": [],
      "name": "NOT_INITIALIZED",
      "type": "error"
    },
    {
      "inputs": [],
      "name": "NOT_PENDING_OWNER",
      "type": "error"
    },
    {
      "inputs": [],
      "name": "POOL_ACTIVE",
      "type": "error"
    },
    {
      "inputs": [],
      "name": "POOL_INACTIVE",
      "type": "error"
    },
    {
      "inputs": [],
      "name": "PROJECT_IS_FUNDED",
      "type": "error"
    },
    {
      "inputs": [],
      "name": "RECIPIENT_ALREADY_ACCEPTED",
      "type": "error"
    },
    {
      "inputs": [
        {
          "internalType": "address",
          "name": "recipientId",
          "type": "address"
        }
      ],
      "name": "RECIPIENT_ERROR",
      "type": "error"
    },
    {
      "inputs": [],
      "name": "RECIPIENT_NOT_ACCEPTED",
      "type": "error"
    },
    {
      "inputs": [],
      "name": "REGISTRATION_NOT_ACTIVE",
      "type": "error"
    },
    {
      "inputs": [],
      "name": "ReentrancyGuardReentrantCall",
      "type": "error"
    },
    {
      "inputs": [],
      "name": "UNAUTHORIZED",
      "type": "error"
    },
    {
      "inputs": [],
      "name": "ZERO_ADDRESS",
      "type": "error"
    },
    {
      "anonymous": false,
      "inputs": [
        {
          "indexed": true,
          "internalType": "bytes32",
          "name": "projectId",
          "type": "bytes32"
        },
        {
          "indexed": false,
          "internalType": "uint256",
          "name": "amount",
          "type": "uint256"
        }
      ],
      "name": "ProjectFunded",
      "type": "event"
    },
    {
      "anonymous": false,
      "inputs": [
        {
          "indexed": false,
          "internalType": "bytes32",
          "name": "projectId",
          "type": "bytes32"
        },
        {
          "indexed": false,
          "internalType": "uint256",
          "name": "poolId",
          "type": "uint256"
        }
      ],
      "name": "ProjectPoolCreeated",
      "type": "event"
    },
    {
      "inputs": [],
      "name": "NATIVE",
      "outputs": [
        {
          "internalType": "address",
          "name": "",
          "type": "address"
        }
      ],
      "stateMutability": "view",
      "type": "function"
    },
    {
      "inputs": [
        {
          "internalType": "bytes32",
          "name": "_projectId",
          "type": "bytes32"
        }
      ],
      "name": "getProfile",
      "outputs": [
        {
          "components": [
            {
              "internalType": "bytes32",
              "name": "id",
              "type": "bytes32"
            },
            {
              "internalType": "uint256",
              "name": "nonce",
              "type": "uint256"
            },
            {
              "internalType": "string",
              "name": "name",
              "type": "string"
            },
            {
              "components": [
                {
                  "internalType": "uint256",
                  "name": "protocol",
                  "type": "uint256"
                },
                {
                  "internalType": "string",
                  "name": "pointer",
                  "type": "string"
                }
              ],
              "internalType": "struct Metadata",
              "name": "metadata",
              "type": "tuple"
            },
            {
              "internalType": "address",
              "name": "owner",
              "type": "address"
            },
            {
              "internalType": "address",
              "name": "anchor",
              "type": "address"
            }
          ],
          "internalType": "struct IRegistry.Profile",
          "name": "",
          "type": "tuple"
        }
      ],
      "stateMutability": "view",
      "type": "function"
    },
    {
      "inputs": [],
      "name": "getProfiles",
      "outputs": [
        {
          "internalType": "bytes32[]",
          "name": "",
          "type": "bytes32[]"
        }
      ],
      "stateMutability": "view",
      "type": "function"
    },
    {
      "inputs": [
        {
          "internalType": "bytes32",
          "name": "_projectId",
          "type": "bytes32"
        }
      ],
      "name": "getProjectExecutor",
      "outputs": [
        {
          "internalType": "address",
          "name": "",
          "type": "address"
        }
      ],
      "stateMutability": "view",
      "type": "function"
    },
    {
      "inputs": [
        {
          "internalType": "bytes32",
          "name": "_projectId",
          "type": "bytes32"
        }
      ],
      "name": "getProjectPool",
      "outputs": [
        {
          "internalType": "uint256",
          "name": "",
          "type": "uint256"
        }
      ],
      "stateMutability": "view",
      "type": "function"
    },
    {
      "inputs": [
        {
          "internalType": "bytes32",
          "name": "_projectId",
          "type": "bytes32"
        }
      ],
      "name": "getProjectStrategy",
      "outputs": [
        {
          "internalType": "address",
          "name": "",
          "type": "address"
        }
      ],
      "stateMutability": "view",
      "type": "function"
    },
    {
      "inputs": [
        {
          "internalType": "bytes32",
          "name": "_projectId",
          "type": "bytes32"
        },
        {
          "internalType": "address",
          "name": "_supplier",
          "type": "address"
        }
      ],
      "name": "getProjectSupplierById",
      "outputs": [
        {
          "internalType": "uint256",
          "name": "",
          "type": "uint256"
        }
      ],
      "stateMutability": "view",
      "type": "function"
    },
    {
      "inputs": [
        {
          "internalType": "bytes32",
          "name": "_projectId",
          "type": "bytes32"
        }
      ],
      "name": "getProjectSuppliers",
      "outputs": [
        {
          "internalType": "address[]",
          "name": "",
          "type": "address[]"
        }
      ],
      "stateMutability": "view",
      "type": "function"
    },
    {
      "inputs": [
        {
          "internalType": "bytes32",
          "name": "_projectId",
          "type": "bytes32"
        }
      ],
      "name": "getProjectSupply",
      "outputs": [
        {
          "components": [
            {
              "internalType": "uint256",
              "name": "need",
              "type": "uint256"
            },
            {
              "internalType": "uint256",
              "name": "has",
              "type": "uint256"
            },
            {
              "internalType": "string",
              "name": "name",
              "type": "string"
            },
            {
              "internalType": "string",
              "name": "description",
              "type": "string"
            }
          ],
          "internalType": "struct Manager.ProjectSupply",
          "name": "",
          "type": "tuple"
        }
      ],
      "stateMutability": "view",
      "type": "function"
    },
    {
      "inputs": [],
      "name": "hatsContract",
      "outputs": [
        {
          "internalType": "contract IHats",
          "name": "",
          "type": "address"
        }
      ],
      "stateMutability": "view",
      "type": "function"
    },
    {
      "inputs": [
        {
          "internalType": "uint256",
          "name": "_needs",
          "type": "uint256"
        },
        {
          "internalType": "uint256",
          "name": "_nonce",
          "type": "uint256"
        },
        {
          "internalType": "string",
          "name": "_name",
          "type": "string"
        },
        {
          "components": [
            {
              "internalType": "uint256",
              "name": "protocol",
              "type": "uint256"
            },
            {
              "internalType": "string",
              "name": "pointer",
              "type": "string"
            }
          ],
          "internalType": "struct Metadata",
          "name": "_metadata",
          "type": "tuple"
        },
        {
          "internalType": "address",
          "name": "_recipient",
          "type": "address"
        },
        {
          "internalType": "string",
          "name": "_description",
          "type": "string"
        }
      ],
      "name": "registerProject",
      "outputs": [
        {
          "internalType": "bytes32",
          "name": "profileId",
          "type": "bytes32"
        }
      ],
      "stateMutability": "nonpayable",
      "type": "function"
    },
    {
      "inputs": [
        {
          "internalType": "bytes32",
          "name": "_projectId",
          "type": "bytes32"
        }
      ],
      "name": "revokeProjectSupply",
      "outputs": [],
      "stateMutability": "nonpayable",
      "type": "function"
    },
    {
      "inputs": [
        {
          "internalType": "bytes32",
          "name": "_projectId",
          "type": "bytes32"
        },
        {
          "internalType": "uint256",
          "name": "_amount",
          "type": "uint256"
        }
      ],
      "name": "supplyProject",
      "outputs": [],
      "stateMutability": "payable",
      "type": "function"
    },
    {
      "stateMutability": "payable",
      "type": "receive"
    }
  ],
  "bytecode": "0x60806040523480156200001157600080fd5b50604051620022fd380380620022fd83398101604081905262000034916200013a565b60016000908155600280546001600160a01b038089166001600160a01b031992831681179093556003805489831690841617905560048054888316908416178155600780549288169284168317905560058054909316909117909155600684905560408051635ab1bd5360e01b81529051635ab1bd53928281019260209291908290030181865afa158015620000ce573d6000803e3d6000fd5b505050506040513d601f19601f82011682018060405250810190620000f49190620001ae565b600180546001600160a01b0319166001600160a01b039290921691909117905550620001d5945050505050565b6001600160a01b03811681146200013757600080fd5b50565b600080600080600060a086880312156200015357600080fd5b8551620001608162000121565b6020870151909550620001738162000121565b6040870151909450620001868162000121565b6060870151909350620001998162000121565b80925050608086015190509295509295909350565b600060208284031215620001c157600080fd5b8151620001ce8162000121565b9392505050565b61211880620001e56000396000f3fe6080604052600436106100c65760003560e01c806394a8fb4a1161007f578063b213703311610059578063b213703314610257578063b50991b414610279578063d1de78e4146102a6578063df06c273146102c657600080fd5b806394a8fb4a146101e257806397e39fef1461020f578063a0cf0aea1461022f57600080fd5b806316e46f68146100d257806340f1ab98146101125780635d5bba3f146101275780636617dd66146101755780637144e4b5146101a25780638d363831146101c257600080fd5b366100cd57005b600080fd5b3480156100de57600080fd5b506100ff6100ed36600461167e565b6000908152600d602052604090205490565b6040519081526020015b60405180910390f35b610125610120366004611697565b6102fc565b005b34801561013357600080fd5b5061015d61014236600461167e565b6000908152600e60205260409020546001600160a01b031690565b6040516001600160a01b039091168152602001610109565b34801561018157600080fd5b5061019561019036600461167e565b610a86565b60405161010991906116fd565b3480156101ae57600080fd5b506100ff6101bd36600461184d565b610af2565b3480156101ce57600080fd5b506100ff6101dd366004611930565b610cab565b3480156101ee57600080fd5b506102026101fd36600461167e565b610cd5565b60405161010991906119b0565b34801561021b57600080fd5b5060055461015d906001600160a01b031681565b34801561023b57600080fd5b5061015d73eeeeeeeeeeeeeeeeeeeeeeeeeeeeeeeeeeeeeeee81565b34801561026357600080fd5b5061026c610e5d565b6040516101099190611a06565b34801561028557600080fd5b5061029961029436600461167e565b610eb5565b6040516101099190611a71565b3480156102b257600080fd5b506101256102c136600461167e565b610f2d565b3480156102d257600080fd5b5061015d6102e136600461167e565b6000908152600c60205260409020546001600160a01b031690565b6103046111a9565b61030d826111d3565b6103575760405162461bcd60e51b8152602060048201526016602482015275141c9bda9958dd08191bd95cc81b9bdd08195e1a5cdd60521b60448201526064015b60405180910390fd5b8015806103645750348114155b15610382576040516303e09bb960e31b815260040160405180910390fd5b6000828152600d6020526040902054156103af57604051631efd3de160e31b815260040160405180910390fd5b6000828152600b6020526040812060010180548392906103d0908490611b05565b90915550506000828152600a6020908152604080832033845290915281205490036104245760008281526009602090815260408220805460018101825590835291200180546001600160a01b031916331790555b6000828152600a602090815260408083203384529091528120805483929061044d908490611b05565b909155505060405181815282907f315cb30dd854bd9e9df31e31754930ba16b498240f74a4ef23531f84c4ee49109060200160405180910390a26000828152600b60205260409020805460019091015410610a785760006104ad8361125e565b90506000815160016104bf9190611b05565b67ffffffffffffffff8111156104d7576104d7611717565b604051908082528060200260200182016040528015610500578160200160208202803683370190505b50905060005b82518110156105695782818151811061052157610521611b18565b60200260200101516000015182828151811061053f5761053f611b18565b6001600160a01b03909216602092830291909101909101528061056181611b2e565b915050610506565b50308183518151811061057e5761057e611b18565b60200260200101906001600160a01b031690816001600160a01b0316815250506105e86040518060400160405280600c81526020016b14d554141312515497d2105560a21b815250826040518060800160405280604381526020016120a06043913987600161138c565b604080516001808252818301909252600091602080830190803683375050506000868152600c602052604081205482519293506001600160a01b03169183919061063457610634611b18565b60200260200101906001600160a01b031690816001600160a01b03168152505061069e6040518060400160405280600c81526020016b11561150d55513d497d2105560a21b8152508260405180608001604052806043815260200161205d6043913988600061138c565b604080516080810182526000878152600f6020818152848320600181015485528a84529181529054818401528284018790526007546001600160a01b03166060840152925190926106f0929101611b47565b60408051808303601f190181529082905260048054600354637316bcd160e01b85526001600160a01b03908116928501929092529193501690637316bcd1906024016020604051808303816000875af1158015610751573d6000803e3d6000fd5b505050506040513d601f19601f820116820180604052508101906107759190611be2565b6000878152600e6020908152604080832080546001600160a01b0319166001600160a01b0395861690811790915560025482518084018452600181528351808501855260148152736d616e616765722077656270616765206c696e6b60601b818701529481019490945291516370803ea560e11b81529394919091169263e1007d4a923492610824928d92899173eeeeeeeeeeeeeeeeeeeeeeeeeeeeeeeeeeeeeeee918a918e90600401611bff565b60206040518083038185885af1158015610842573d6000803e3d6000fd5b50505050506040513d601f19601f820116820180604052508101906108679190611c6a565b6000888152600b60205260409020549091504710156108c85760405162461bcd60e51b815260206004820181905260248201527f496e73756666696369656e742062616c616e636520696e20636f6e7472616374604482015260640161034e565b6002546000888152600b6020526040908190205490516316b35beb60e21b815260048101849052602481018290526001600160a01b0390921691635acd6fac91906044016000604051808303818588803b15801561092557600080fd5b505af1158015610939573d6000803e3d6000fd5b5050506000898152600c6020908152604080832054600b835281842054825180840184526001815283518085018552600881526732bc32b1baba37b960c11b818701528186015292519496506109a195506001600160a01b0390911693869391929101611c83565b60408051601f19818403018152908290526002546301d703a760e21b83529092506001600160a01b03169063075c0e9c906109e29085908590600401611cc0565b6020604051808303816000875af1158015610a01573d6000803e3d6000fd5b505050506040513d601f19601f82011682018060405250810190610a259190611be2565b506000888152600d602090815260409182902084905581518a81529081018490527fc5d45cf1508cae377cc227a37ea00b97fa9e86e03ce72364a0b7e85e36baacec910160405180910390a15050505050505b610a826001600055565b5050565b600081815260096020908152604091829020805483518184028101840190945280845260609392830182828015610ae657602002820191906000526020600020905b81546001600160a01b03168152600190910190602001808311610ac8575b50505050509050919050565b604080516002808252606082018352600092839291906020830190803683370190505090508381600081518110610b2b57610b2b611b18565b60200260200101906001600160a01b031690816001600160a01b0316815250503081600181518110610b5f57610b5f611b18565b6001600160a01b039283166020918202929092010152600154604051633a92f65f60e01b8152911690633a92f65f90610ba4908a908a908a9030908890600401611cd9565b6020604051808303816000875af1158015610bc3573d6000803e3d6000fd5b505050506040513d601f19601f82011682018060405250810190610be79190611c6a565b60088054600181019091557ff3f7a9fe364faab93b216da50a3214154f22a0a2b415b23a84c8169e8b636ee3018190556000818152600b6020526040812080549294508a92909190610c3a908490611b05565b90915550506000828152600b60205260409020600201610c5a8782611db3565b506000828152600b60205260409020600301610c768482611db3565b50506000818152600c6020526040902080546001600160a01b0385166001600160a01b03199091161790559695505050505050565b6000828152600a602090815260408083206001600160a01b03851684529091529020545b92915050565b610d006040518060800160405280600081526020016000815260200160608152602001606081525090565b600b60008381526020019081526020016000206040518060800160405290816000820154815260200160018201548152602001600282018054610d4290611d33565b80601f0160208091040260200160405190810160405280929190818152602001828054610d6e90611d33565b8015610dbb5780601f10610d9057610100808354040283529160200191610dbb565b820191906000526020600020905b815481529060010190602001808311610d9e57829003601f168201915b50505050508152602001600382018054610dd490611d33565b80601f0160208091040260200160405190810160405280929190818152602001828054610e0090611d33565b8015610e4d5780601f10610e2257610100808354040283529160200191610e4d565b820191906000526020600020905b815481529060010190602001808311610e3057829003601f168201915b5050505050815250509050919050565b60606008805480602002602001604051908101604052809291908181526020018280548015610eab57602002820191906000526020600020905b815481526020019060010190808311610e97575b5050505050905090565b610ebd6115b0565b600154604051628a678560e11b8152600481018490526001600160a01b0390911690630114cf0a90602401600060405180830381865afa158015610f05573d6000803e3d6000fd5b505050506040513d6000823e601f3d908101601f19168201604052610ccf9190810190611f0a565b610f356111a9565b610f3e816111d3565b610f835760405162461bcd60e51b8152602060048201526016602482015275141c9bda9958dd08191bd95cc81b9bdd08195e1a5cdd60521b604482015260640161034e565b6000818152600a6020908152604080832033845290915290205480610fdd5760405162461bcd60e51b815260206004820152601060248201526f14d554141316481393d5081193d5539160821b604482015260640161034e565b6000828152600a602090815260408083203384528252808320839055848352600b90915281206001018054839290611016908490611fd1565b909155505060008281526009602052604081205461103690600190611fd1565b67ffffffffffffffff81111561104e5761104e611717565b604051908082528060200260200182016040528015611077578160200160208202803683370190505b5090506000805b6000858152600960205260409020548110156111595760008581526009602052604090208054339190839081106110b7576110b7611b18565b6000918252602090912001546001600160a01b0316146111475760008581526009602052604090208054829081106110f1576110f1611b18565b9060005260206000200160009054906101000a90046001600160a01b031683838151811061112157611121611b18565b6001600160a01b03909216602092830291909101909101528161114381611b2e565b9250505b8061115181611b2e565b91505061107e565b506000848152600960209081526040909120835161117992850190611604565b5061119973eeeeeeeeeeeeeeeeeeeeeeeeeeeeeeeeeeeeeeee338561150f565b5050506111a66001600055565b50565b6002600054036111cc57604051633ee5aeb560e01b815260040160405180910390fd5b6002600055565b600154604051628a678560e11b81526004810183905260009182916001600160a01b0390911690630114cf0a90602401600060405180830381865afa158015611220573d6000803e3d6000fd5b505050506040513d6000823e601f3d908101601f191682016040526112489190810190611f0a565b608001516001600160a01b031615159392505050565b6000818152600960205260408120546060919067ffffffffffffffff81111561128957611289611717565b6040519080825280602002602001820160405280156112ce57816020015b60408051808201909152600080825260208201528152602001906001900390816112a75790505b50905060005b60008481526009602052604090205481101561138557600084815260096020526040812080548390811061130a5761130a611b18565b6000918252602080832090910154878352600a825260408084206001600160a01b0390921680855291835292839020548351808501909452818452918301829052855190935090919085908590811061136557611365611b18565b60200260200101819052505050808061137d90611b2e565b9150506112d4565b5092915050565b6005546006548551604051635829492f60e11b81526000936001600160a01b03169263b052925e926113cc928b9190309081906001908d90600401611fe4565b6020604051808303816000875af11580156113eb573d6000803e3d6000fd5b505050506040513d601f19601f8201168201806040525081019061140f9190611c6a565b905060005b85518110156114d55760055486516001600160a01b039091169063641f776e90849089908590811061144857611448611b18565b60200260200101516040518363ffffffff1660e01b815260040161147f9291909182526001600160a01b0316602082015260400190565b6020604051808303816000875af115801561149e573d6000803e3d6000fd5b505050506040513d601f19601f820116820180604052508101906114c2919061203a565b50806114cd81611b2e565b915050611414565b5081156114f5576000838152600f60205260409020600101819055611507565b6000838152600f602052604090208190555b505050505050565b73eeeeeeeeeeeeeeeeeeeeeeeeeeeeeeeeeeeeeeed196001600160a01b038416016115435761153e828261154e565b505050565b61153e83838361156a565b60003860003884865af1610a825763b12d13eb6000526004601cfd5b816014528060345263a9059cbb60601b60005260206000604460106000875af13d1560016000511417166115a6576390b8ec186000526004601cfd5b6000603452505050565b6040518060c001604052806000801916815260200160008152602001606081526020016115f0604051806040016040528060008152602001606081525090565b815260006020820181905260409091015290565b828054828255906000526020600020908101928215611659579160200282015b8281111561165957825182546001600160a01b0319166001600160a01b03909116178255602090920191600190910190611624565b50611665929150611669565b5090565b5b80821115611665576000815560010161166a565b60006020828403121561169057600080fd5b5035919050565b600080604083850312156116aa57600080fd5b50508035926020909101359150565b600081518084526020808501945080840160005b838110156116f25781516001600160a01b0316875295820195908201906001016116cd565b509495945050505050565b60208152600061171060208301846116b9565b9392505050565b634e487b7160e01b600052604160045260246000fd5b6040805190810167ffffffffffffffff8111828210171561175057611750611717565b60405290565b60405160c0810167ffffffffffffffff8111828210171561175057611750611717565b604051601f8201601f1916810167ffffffffffffffff811182821017156117a2576117a2611717565b604052919050565b600067ffffffffffffffff8211156117c4576117c4611717565b50601f01601f191660200190565b600082601f8301126117e357600080fd5b81356117f66117f1826117aa565b611779565b81815284602083860101111561180b57600080fd5b816020850160208301376000918101602001919091529392505050565b6001600160a01b03811681146111a657600080fd5b803561184881611828565b919050565b60008060008060008060c0878903121561186657600080fd5b8635955060208701359450604087013567ffffffffffffffff8082111561188c57600080fd5b6118988a838b016117d2565b955060608901359150808211156118ae57600080fd5b908801906040828b0312156118c257600080fd5b6118ca61172d565b823581526020830135828111156118e057600080fd5b6118ec8c8286016117d2565b602083015250945061190060808a0161183d565b935060a089013591508082111561191657600080fd5b5061192389828a016117d2565b9150509295509295509295565b6000806040838503121561194357600080fd5b82359150602083013561195581611828565b809150509250929050565b60005b8381101561197b578181015183820152602001611963565b50506000910152565b6000815180845261199c816020860160208601611960565b601f01601f19169290920160200192915050565b60208152815160208201526020820151604082015260006040830151608060608401526119e060a0840182611984565b90506060840151601f198483030160808501526119fd8282611984565b95945050505050565b6020808252825182820181905260009190848201906040850190845b81811015611a3e57835183529284019291840191600101611a22565b50909695505050505050565b805182526000602082015160406020850152611a696040850182611984565b949350505050565b6020815281516020820152602082015160408201526000604083015160c06060840152611aa160e0840182611984565b90506060840151601f19848303016080850152611abe8282611a4a565b60808601516001600160a01b0390811660a0878101919091529096015190951660c090940193909352509192915050565b634e487b7160e01b600052601160045260246000fd5b80820180821115610ccf57610ccf611aef565b634e487b7160e01b600052603260045260246000fd5b600060018201611b4057611b40611aef565b5060010190565b6020808252825182820152828101516040808401919091528084015160806060850152805160a085018190526000939291830191849160c08701905b80841015611bb557845180516001600160a01b0316835286015186830152938501936001939093019290820190611b83565b5060608801516001600160a01b03811660808901529450979650505050505050565b805161184881611828565b600060208284031215611bf457600080fd5b815161171081611828565b878152600060018060a01b03808916602084015260e06040840152611c2760e0840189611984565b818816606085015286608085015283810360a0850152611c478187611a4a565b91505082810360c0840152611c5c81856116b9565b9a9950505050505050505050565b600060208284031215611c7c57600080fd5b5051919050565b6001600160a01b0385811682528416602082015260408101839052608060608201819052600090611cb690830184611a4a565b9695505050505050565b828152604060208201526000611a696040830184611984565b85815260a060208201526000611cf260a0830187611984565b8281036040840152611d048187611a4a565b6001600160a01b038616606085015283810360808501529050611d2781856116b9565b98975050505050505050565b600181811c90821680611d4757607f821691505b602082108103611d6757634e487b7160e01b600052602260045260246000fd5b50919050565b601f82111561153e57600081815260208120601f850160051c81016020861015611d945750805b601f850160051c820191505b8181101561150757828155600101611da0565b815167ffffffffffffffff811115611dcd57611dcd611717565b611de181611ddb8454611d33565b84611d6d565b602080601f831160018114611e165760008415611dfe5750858301515b600019600386901b1c1916600185901b178555611507565b600085815260208120601f198616915b82811015611e4557888601518255948401946001909101908401611e26565b5085821015611e635787850151600019600388901b60f8161c191681555b5050505050600190811b01905550565b600082601f830112611e8457600080fd5b8151611e926117f1826117aa565b818152846020838601011115611ea757600080fd5b611a69826020830160208701611960565b600060408284031215611eca57600080fd5b611ed261172d565b905081518152602082015167ffffffffffffffff811115611ef257600080fd5b611efe84828501611e73565b60208301525092915050565b600060208284031215611f1c57600080fd5b815167ffffffffffffffff80821115611f3457600080fd5b9083019060c08286031215611f4857600080fd5b611f50611756565b8251815260208301516020820152604083015182811115611f7057600080fd5b611f7c87828601611e73565b604083015250606083015182811115611f9457600080fd5b611fa087828601611eb8565b606083015250611fb260808401611bd7565b6080820152611fc360a08401611bd7565b60a082015295945050505050565b81810381811115610ccf57610ccf611aef565b87815260e060208201526000611ffd60e0830189611984565b63ffffffff881660408401526001600160a01b0387811660608501528616608084015284151560a084015282810360c0840152611c5c8185611984565b60006020828403121561204c57600080fd5b8151801515811461171057600080fdfe697066733a2f2f6261666b7265696837686a6734656866346c71646f7173746c6b6a78766a79377a666e7a61346b6568326b6e6f68736c6533696b6a6a61336732692f697066733a2f2f6261666b72656965793261356a7471766a6c3465686b336a78376668376564736a716d716c36767178646834377a6e736c65657475673434756d792fa2646970667358221220eb054143f8bd36aa95fec5a013f9224bc71b0cdc27d4c3424e6b1b975677e40064736f6c63430008140033",
  "linkReferences": {},
  "deployedLinkReferences": {}
}