{
  "_format": "hh-sol-artifact-1",
  "contractName": "Manager",
  "sourceName": "contracts/Manager.sol",
  "abi": [
    {
      "inputs": [
        {
          "internalType": "address",
          "name": "alloAddress",
          "type": "address"
        },
        {
          "internalType": "address",
          "name": "_strategy",
          "type": "address"
        }
      ],
      "stateMutability": "nonpayable",
      "type": "constructor"
    },
    {
      "inputs": [],
      "name": "ALLOCATION_ACTIVE",
      "type": "error"
    },
    {
      "inputs": [],
      "name": "ALLOCATION_NOT_ACTIVE",
      "type": "error"
    },
    {
      "inputs": [],
      "name": "ALLOCATION_NOT_ENDED",
      "type": "error"
    },
    {
      "inputs": [],
      "name": "ALREADY_INITIALIZED",
      "type": "error"
    },
    {
      "inputs": [],
      "name": "AMOUNT_MISMATCH",
      "type": "error"
    },
    {
      "inputs": [],
      "name": "ANCHOR_ERROR",
      "type": "error"
    },
    {
      "inputs": [],
      "name": "ARRAY_MISMATCH",
      "type": "error"
    },
    {
      "inputs": [],
      "name": "INVALID",
      "type": "error"
    },
    {
      "inputs": [],
      "name": "INVALID_ADDRESS",
      "type": "error"
    },
    {
      "inputs": [],
      "name": "INVALID_FEE",
      "type": "error"
    },
    {
      "inputs": [],
      "name": "INVALID_METADATA",
      "type": "error"
    },
    {
      "inputs": [],
      "name": "INVALID_MILESTONE_STATUS",
      "type": "error"
    },
    {
      "inputs": [],
      "name": "INVALID_REGISTRATION",
      "type": "error"
    },
    {
      "inputs": [],
      "name": "IS_APPROVED_STRATEGY",
      "type": "error"
    },
    {
      "inputs": [],
      "name": "MISMATCH",
      "type": "error"
    },
    {
      "inputs": [],
      "name": "NONCE_NOT_AVAILABLE",
      "type": "error"
    },
    {
      "inputs": [],
      "name": "NOT_APPROVED_STRATEGY",
      "type": "error"
    },
    {
      "inputs": [],
      "name": "NOT_ENOUGH_FUNDS",
      "type": "error"
    },
    {
      "inputs": [],
      "name": "NOT_IMPLEMENTED",
      "type": "error"
    },
    {
      "inputs": [],
      "name": "NOT_INITIALIZED",
      "type": "error"
    },
    {
      "inputs": [],
      "name": "NOT_PENDING_OWNER",
      "type": "error"
    },
    {
      "inputs": [],
      "name": "POOL_ACTIVE",
      "type": "error"
    },
    {
      "inputs": [],
      "name": "POOL_INACTIVE",
      "type": "error"
    },
    {
      "inputs": [],
      "name": "RECIPIENT_ALREADY_ACCEPTED",
      "type": "error"
    },
    {
      "inputs": [
        {
          "internalType": "address",
          "name": "recipientId",
          "type": "address"
        }
      ],
      "name": "RECIPIENT_ERROR",
      "type": "error"
    },
    {
      "inputs": [],
      "name": "RECIPIENT_NOT_ACCEPTED",
      "type": "error"
    },
    {
      "inputs": [],
      "name": "REGISTRATION_NOT_ACTIVE",
      "type": "error"
    },
    {
      "inputs": [],
      "name": "ReentrancyGuardReentrantCall",
      "type": "error"
    },
    {
      "inputs": [],
      "name": "SUPPLY_IS_ALLOWED_ONLY_ONCE",
      "type": "error"
    },
    {
      "inputs": [],
      "name": "SUPPLY_NOT_FOUND",
      "type": "error"
    },
    {
      "inputs": [],
      "name": "UNAUTHORIZED",
      "type": "error"
    },
    {
      "inputs": [],
      "name": "ZERO_ADDRESS",
      "type": "error"
    },
    {
      "anonymous": false,
      "inputs": [
        {
          "indexed": true,
          "internalType": "bytes32",
          "name": "projectId",
          "type": "bytes32"
        },
        {
          "indexed": false,
          "internalType": "uint256",
          "name": "amount",
          "type": "uint256"
        }
      ],
      "name": "ProjectFunded",
      "type": "event"
    },
    {
      "anonymous": false,
      "inputs": [
        {
          "indexed": false,
          "internalType": "bytes32",
          "name": "projectId",
          "type": "bytes32"
        },
        {
          "indexed": false,
          "internalType": "uint256",
          "name": "poolId",
          "type": "uint256"
        }
      ],
      "name": "ProjectPoolCreeated",
      "type": "event"
    },
    {
      "inputs": [],
      "name": "NATIVE",
      "outputs": [
        {
          "internalType": "address",
          "name": "",
          "type": "address"
        }
      ],
      "stateMutability": "view",
      "type": "function"
    },
    {
      "inputs": [
        {
          "internalType": "bytes32",
          "name": "profileId",
          "type": "bytes32"
        }
      ],
      "name": "_projectExists",
      "outputs": [
        {
          "internalType": "bool",
          "name": "",
          "type": "bool"
        }
      ],
      "stateMutability": "view",
      "type": "function"
    },
    {
      "inputs": [
        {
          "internalType": "bytes32",
          "name": "profileId",
          "type": "bytes32"
        }
      ],
      "name": "getProfile",
      "outputs": [
        {
          "components": [
            {
              "internalType": "bytes32",
              "name": "id",
              "type": "bytes32"
            },
            {
              "internalType": "uint256",
              "name": "nonce",
              "type": "uint256"
            },
            {
              "internalType": "string",
              "name": "name",
              "type": "string"
            },
            {
              "components": [
                {
                  "internalType": "uint256",
                  "name": "protocol",
                  "type": "uint256"
                },
                {
                  "internalType": "string",
                  "name": "pointer",
                  "type": "string"
                }
              ],
              "internalType": "struct Metadata",
              "name": "metadata",
              "type": "tuple"
            },
            {
              "internalType": "address",
              "name": "owner",
              "type": "address"
            },
            {
              "internalType": "address",
              "name": "anchor",
              "type": "address"
            }
          ],
          "internalType": "struct IRegistry.Profile",
          "name": "",
          "type": "tuple"
        }
      ],
      "stateMutability": "view",
      "type": "function"
    },
    {
      "inputs": [],
      "name": "getProfiles",
      "outputs": [
        {
          "internalType": "bytes32[]",
          "name": "",
          "type": "bytes32[]"
        }
      ],
      "stateMutability": "view",
      "type": "function"
    },
    {
      "inputs": [
        {
          "internalType": "bytes32",
          "name": "projectId",
          "type": "bytes32"
        }
      ],
      "name": "getProjectPool",
      "outputs": [
        {
          "internalType": "uint256",
          "name": "",
          "type": "uint256"
        }
      ],
      "stateMutability": "view",
      "type": "function"
    },
    {
      "inputs": [
        {
          "internalType": "bytes32",
          "name": "_projectId",
          "type": "bytes32"
        }
      ],
      "name": "getProjectSupply",
      "outputs": [
        {
          "components": [
            {
              "internalType": "uint256",
              "name": "need",
              "type": "uint256"
            },
            {
              "internalType": "uint256",
              "name": "has",
              "type": "uint256"
            },
            {
              "internalType": "string",
              "name": "name",
              "type": "string"
            },
            {
              "internalType": "string",
              "name": "description",
              "type": "string"
            }
          ],
          "internalType": "struct Manager.ProjectSupply",
          "name": "",
          "type": "tuple"
        }
      ],
      "stateMutability": "view",
      "type": "function"
    },
    {
      "inputs": [
        {
          "internalType": "uint256",
          "name": "_needs",
          "type": "uint256"
        },
        {
          "internalType": "uint256",
          "name": "_nonce",
          "type": "uint256"
        },
        {
          "internalType": "string",
          "name": "_name",
          "type": "string"
        },
        {
          "components": [
            {
              "internalType": "uint256",
              "name": "protocol",
              "type": "uint256"
            },
            {
              "internalType": "string",
              "name": "pointer",
              "type": "string"
            }
          ],
          "internalType": "struct Metadata",
          "name": "_metadata",
          "type": "tuple"
        },
        {
          "internalType": "address",
          "name": "_recipient",
          "type": "address"
        },
        {
          "internalType": "string",
          "name": "_description",
          "type": "string"
        }
      ],
      "name": "registerProject",
      "outputs": [
        {
          "internalType": "bytes32",
          "name": "profileId",
          "type": "bytes32"
        }
      ],
      "stateMutability": "nonpayable",
      "type": "function"
    },
    {
      "inputs": [
        {
          "internalType": "bytes32",
          "name": "_projectId",
          "type": "bytes32"
        }
      ],
      "name": "revokeProjectSupply",
      "outputs": [],
      "stateMutability": "nonpayable",
      "type": "function"
    },
    {
      "inputs": [
        {
          "internalType": "bytes32",
          "name": "_projectId",
          "type": "bytes32"
        },
        {
          "internalType": "uint256",
          "name": "_amount",
          "type": "uint256"
        }
      ],
      "name": "supplyProject",
      "outputs": [],
      "stateMutability": "payable",
      "type": "function"
    },
    {
      "stateMutability": "payable",
      "type": "receive"
    }
  ],
  "bytecode": "0x60806040523480156200001157600080fd5b5060405162001b4838038062001b4883398101604081905262000034916200010e565b60016000908155600280546001600160a01b038086166001600160a01b03199283168117909355600380549186169190921617905560408051635ab1bd5360e01b81529051635ab1bd53916004808201926020929091908290030181865afa158015620000a5573d6000803e3d6000fd5b505050506040513d601f19601f82011682018060405250810190620000cb91906200014d565b600180546001600160a01b0319166001600160a01b03929092169190911790555062000174915050565b6001600160a01b03811681146200010b57600080fd5b50565b600080604083850312156200012257600080fd5b82516200012f81620000f5565b60208401519092506200014281620000f5565b809150509250929050565b6000602082840312156200016057600080fd5b81516200016d81620000f5565b9392505050565b6119c480620001846000396000f3fe60806040526004361061008a5760003560e01c8063a0cf0aea11610059578063a0cf0aea14610138578063b213703314610178578063b50991b41461019a578063c42b06f0146101c7578063d1de78e4146101f757600080fd5b806316e46f681461009657806340f1ab98146100d65780637144e4b5146100eb57806394a8fb4a1461010b57600080fd5b3661009157005b600080fd5b3480156100a257600080fd5b506100c36100b1366004611067565b60009081526008602052604090205490565b6040519081526020015b60405180910390f35b6100e96100e4366004611080565b610217565b005b3480156100f757600080fd5b506100c36101063660046111d8565b610792565b34801561011757600080fd5b5061012b610126366004611067565b61094b565b6040516100cd919061130b565b34801561014457600080fd5b5061016073eeeeeeeeeeeeeeeeeeeeeeeeeeeeeeeeeeeeeeee81565b6040516001600160a01b0390911681526020016100cd565b34801561018457600080fd5b5061018d610ad3565b6040516100cd9190611361565b3480156101a657600080fd5b506101ba6101b5366004611067565b610b2b565b6040516100cd91906113cc565b3480156101d357600080fd5b506101e76101e2366004611067565b610ba9565b60405190151581526020016100cd565b34801561020357600080fd5b506100e9610212366004611067565b610c34565b61021f610d5d565b61022882610ba9565b6102725760405162461bcd60e51b8152602060048201526016602482015275141c9bda9958dd08191bd95cc81b9bdd08195e1a5cdd60521b60448201526064015b60405180910390fd5b80158061027f5750348114155b1561029d576040516303e09bb960e31b815260040160405180910390fd5b600082815260066020908152604080832033845260010190915281205412156102d95760405163446e224d60e01b815260040160405180910390fd5b600082815260056020526040812060010180548392906102fa908490611460565b909155505060008281526006602081815260408084203380865260018083018552838720889055948452815494850182559085529382902090920180546001600160a01b0319169093179092555182815283917f315cb30dd854bd9e9df31e31754930ba16b498240f74a4ef23531f84c4ee4910910160405180910390a2600082815260056020526040902080546001909101541061078457600061039e83610d87565b60408051608081018252600080825260208201819052918101829052606081018390528251929350916103d2906001611460565b67ffffffffffffffff8111156103ea576103ea6110a2565b604051908082528060200260200182016040528015610413578160200160208202803683370190505b50905060005b835181101561047c5783818151811061043457610434611473565b60200260200101516000015182828151811061045257610452611473565b6001600160a01b03909216602092830291909101909101528061047481611489565b915050610419565b50308184518151811061049157610491611473565b6001600160a01b039092166020928302919091018201526040805180820182526001815281518083018352600d81526c32b6b83a3c903837b4b73a32b960991b8185015281840152905190916000916104ec918691016114a2565b60408051601f1981840301815282825260008a81526005602052918220546002546003546370803ea560e11b865292955090936001600160a01b039182169263e1007d4a923492610561928f921690899073eeeeeeeeeeeeeeeeeeeeeeeeeeeeeeeeeeeeeeee9089908d908f90600401611572565b60206040518083038185885af115801561057f573d6000803e3d6000fd5b50505050506040513d601f19601f820116820180604052508101906105a491906115dd565b60008a8152600560205260409020549091504710156106055760405162461bcd60e51b815260206004820181905260248201527f496e73756666696369656e742062616c616e636520696e20636f6e74726163746044820152606401610269565b60025460008a815260056020526040908190205490516316b35beb60e21b815260048101849052602481018290526001600160a01b0390921691635acd6fac91906044016000604051808303818588803b15801561066257600080fd5b505af1158015610676573d6000803e3d6000fd5b50505060008b81526007602090815260408083205490519294506106ab93506001600160a01b031691849187918a91016115f6565b60408051601f19818403018152908290526002546301d703a760e21b83529092506001600160a01b03169063075c0e9c906106ec9085908590600401611633565b6020604051808303816000875af115801561070b573d6000803e3d6000fd5b505050506040513d601f19601f8201168201806040525081019061072f9190611657565b5060008a81526008602090815260409182902084905581518c81529081018490527fc5d45cf1508cae377cc227a37ea00b97fa9e86e03ce72364a0b7e85e36baacec910160405180910390a150505050505050505b61078e6001600055565b5050565b6040805160028082526060820183526000928392919060208301908036833701905050905083816000815181106107cb576107cb611473565b60200260200101906001600160a01b031690816001600160a01b03168152505030816001815181106107ff576107ff611473565b6001600160a01b039283166020918202929092010152600154604051633a92f65f60e01b8152911690633a92f65f90610844908a908a908a903090889060040161167b565b6020604051808303816000875af1158015610863573d6000803e3d6000fd5b505050506040513d601f19601f8201168201806040525081019061088791906115dd565b60048054600181019091557f8a35acfbc15ff81a39ae7d344fd709f28e8600b4aa8c65c6b64bfe7fe36bd19b01819055600081815260056020526040812080549294508a929091906108da908490611460565b909155505060008281526005602052604090206002016108fa878261175d565b506000828152600560205260409020600301610916848261175d565b5050600081815260076020526040902080546001600160a01b0385166001600160a01b03199091161790559695505050505050565b6109766040518060800160405280600081526020016000815260200160608152602001606081525090565b6005600083815260200190815260200160002060405180608001604052908160008201548152602001600182015481526020016002820180546109b8906116d5565b80601f01602080910402602001604051908101604052809291908181526020018280546109e4906116d5565b8015610a315780601f10610a0657610100808354040283529160200191610a31565b820191906000526020600020905b815481529060010190602001808311610a1457829003601f168201915b50505050508152602001600382018054610a4a906116d5565b80601f0160208091040260200160405190810160405280929190818152602001828054610a76906116d5565b8015610ac35780601f10610a9857610100808354040283529160200191610ac3565b820191906000526020600020905b815481529060010190602001808311610aa657829003601f168201915b5050505050815250509050919050565b60606004805480602002602001604051908101604052809291908181526020018280548015610b2157602002820191906000526020600020905b815481526020019060010190808311610b0d575b5050505050905090565b610b33611013565b600154604051628a678560e11b8152600481018490526001600160a01b0390911690630114cf0a90602401600060405180830381865afa158015610b7b573d6000803e3d6000fd5b505050506040513d6000823e601f3d908101601f19168201604052610ba391908101906118b4565b92915050565b600154604051628a678560e11b81526004810183905260009182916001600160a01b0390911690630114cf0a90602401600060405180830381865afa158015610bf6573d6000803e3d6000fd5b505050506040513d6000823e601f3d908101601f19168201604052610c1e91908101906118b4565b608001516001600160a01b031615159392505050565b610c3c610d5d565b610c4581610ba9565b610c8a5760405162461bcd60e51b8152602060048201526016602482015275141c9bda9958dd08191bd95cc81b9bdd08195e1a5cdd60521b6044820152606401610269565b6000818152600660209081526040808320338452600101909152812054908113610ce95760405162461bcd60e51b815260206004820152601060248201526f14d554141316481393d5081193d5539160821b6044820152606401610269565b6000828152600660209081526040808320338452600190810183528184206000199055858452600590925282200180548392839291610d2990849061197b565b90915550610d4e905073eeeeeeeeeeeeeeeeeeeeeeeeeeeeeeeeeeeeeeee3383610f72565b5050610d5a6001600055565b50565b600260005403610d8057604051633ee5aeb560e01b815260040160405180910390fd5b6002600055565b600081815260066020526040812080546060929067ffffffffffffffff811115610db357610db36110a2565b604051908082528060200260200182016040528015610df857816020015b6040805180820190915260008082526020820152815260200190600190039081610dd15790505b5090506000805b8354811015610eaf576000846000018281548110610e1f57610e1f611473565b60009182526020808320909101546001600160a01b031680835260018801909152604082205490925090811315610e9a576040518060400160405280836001600160a01b0316815260200182815250858581518110610e8057610e80611473565b60200260200101819052508380610e9690611489565b9450505b50508080610ea790611489565b915050610dff565b5060008167ffffffffffffffff811115610ecb57610ecb6110a2565b604051908082528060200260200182016040528015610f1057816020015b6040805180820190915260008082526020820152815260200190600190039081610ee95790505b50905060005b82811015610f6857838181518110610f3057610f30611473565b6020026020010151828281518110610f4a57610f4a611473565b60200260200101819052508080610f6090611489565b915050610f16565b5095945050505050565b73eeeeeeeeeeeeeeeeeeeeeeeeeeeeeeeeeeeeeeed196001600160a01b03841601610fa657610fa18282610fb1565b505050565b610fa1838383610fcd565b60003860003884865af161078e5763b12d13eb6000526004601cfd5b816014528060345263a9059cbb60601b60005260206000604460106000875af13d156001600051141716611009576390b8ec186000526004601cfd5b6000603452505050565b6040518060c00160405280600080191681526020016000815260200160608152602001611053604051806040016040528060008152602001606081525090565b815260006020820181905260409091015290565b60006020828403121561107957600080fd5b5035919050565b6000806040838503121561109357600080fd5b50508035926020909101359150565b634e487b7160e01b600052604160045260246000fd5b6040805190810167ffffffffffffffff811182821017156110db576110db6110a2565b60405290565b60405160c0810167ffffffffffffffff811182821017156110db576110db6110a2565b604051601f8201601f1916810167ffffffffffffffff8111828210171561112d5761112d6110a2565b604052919050565b600067ffffffffffffffff82111561114f5761114f6110a2565b50601f01601f191660200190565b600082601f83011261116e57600080fd5b813561118161117c82611135565b611104565b81815284602083860101111561119657600080fd5b816020850160208301376000918101602001919091529392505050565b6001600160a01b0381168114610d5a57600080fd5b80356111d3816111b3565b919050565b60008060008060008060c087890312156111f157600080fd5b8635955060208701359450604087013567ffffffffffffffff8082111561121757600080fd5b6112238a838b0161115d565b9550606089013591508082111561123957600080fd5b908801906040828b03121561124d57600080fd5b6112556110b8565b8235815260208301358281111561126b57600080fd5b6112778c82860161115d565b602083015250945061128b60808a016111c8565b935060a08901359150808211156112a157600080fd5b506112ae89828a0161115d565b9150509295509295509295565b60005b838110156112d65781810151838201526020016112be565b50506000910152565b600081518084526112f78160208601602086016112bb565b601f01601f19169290920160200192915050565b602081528151602082015260208201516040820152600060408301516080606084015261133b60a08401826112df565b90506060840151601f1984830301608085015261135882826112df565b95945050505050565b6020808252825182820181905260009190848201906040850190845b818110156113995783518352928401929184019160010161137d565b50909695505050505050565b8051825260006020820151604060208501526113c460408501826112df565b949350505050565b6020815281516020820152602082015160408201526000604083015160c060608401526113fc60e08401826112df565b90506060840151601f1984830301608085015261141982826113a5565b60808601516001600160a01b0390811660a0878101919091529096015190951660c090940193909352509192915050565b634e487b7160e01b600052601160045260246000fd5b80820180821115610ba357610ba361144a565b634e487b7160e01b600052603260045260246000fd5b60006001820161149b5761149b61144a565b5060010190565b6000602080835260a0830184511515828501528185015160408115158187015280870151151560608701526060870151915060808087015282825180855260c0880191508584019450600093505b8084101561152257845180516001600160a01b03168352860151868301529385019360019390930192908201906114f0565b50979650505050505050565b600081518084526020808501945080840160005b838110156115675781516001600160a01b031687529582019590820190600101611542565b509495945050505050565b878152600060018060a01b03808916602084015260e0604084015261159a60e08401896112df565b818816606085015286608085015283810360a08501526115ba81876113a5565b91505082810360c08401526115cf818561152e565b9a9950505050505050505050565b6000602082840312156115ef57600080fd5b5051919050565b6001600160a01b0385811682528416602082015260408101839052608060608201819052600090611629908301846113a5565b9695505050505050565b8281526040602082015260006113c460408301846112df565b80516111d3816111b3565b60006020828403121561166957600080fd5b8151611674816111b3565b9392505050565b85815260a06020820152600061169460a08301876112df565b82810360408401526116a681876113a5565b6001600160a01b0386166060850152838103608085015290506116c9818561152e565b98975050505050505050565b600181811c908216806116e957607f821691505b60208210810361170957634e487b7160e01b600052602260045260246000fd5b50919050565b601f821115610fa157600081815260208120601f850160051c810160208610156117365750805b601f850160051c820191505b8181101561175557828155600101611742565b505050505050565b815167ffffffffffffffff811115611777576117776110a2565b61178b8161178584546116d5565b8461170f565b602080601f8311600181146117c057600084156117a85750858301515b600019600386901b1c1916600185901b178555611755565b600085815260208120601f198616915b828110156117ef578886015182559484019460019091019084016117d0565b508582101561180d5787850151600019600388901b60f8161c191681555b5050505050600190811b01905550565b600082601f83011261182e57600080fd5b815161183c61117c82611135565b81815284602083860101111561185157600080fd5b6113c48260208301602087016112bb565b60006040828403121561187457600080fd5b61187c6110b8565b905081518152602082015167ffffffffffffffff81111561189c57600080fd5b6118a88482850161181d565b60208301525092915050565b6000602082840312156118c657600080fd5b815167ffffffffffffffff808211156118de57600080fd5b9083019060c082860312156118f257600080fd5b6118fa6110e1565b825181526020830151602082015260408301518281111561191a57600080fd5b6119268782860161181d565b60408301525060608301518281111561193e57600080fd5b61194a87828601611862565b60608301525061195c6080840161164c565b608082015261196d60a0840161164c565b60a082015295945050505050565b81810381811115610ba357610ba361144a56fea264697066735822122083e7a7096b7bc9b5a595ca41bdbeec6890213c88063deba9ae2a65a3e91903b264736f6c63430008140033",
  "linkReferences": {},
  "deployedLinkReferences": {}
}