{
  "_format": "hh-sol-artifact-1",
  "contractName": "DirectGrantsSimpleStrategy",
  "sourceName": "contracts/DirectGrantsSimpleStrategy.sol",
  "abi": [
    {
      "inputs": [
        {
          "internalType": "address",
          "name": "_allo",
          "type": "address"
        },
        {
          "internalType": "string",
          "name": "_name",
          "type": "string"
        }
      ],
      "stateMutability": "nonpayable",
      "type": "constructor"
    },
    {
      "inputs": [],
      "name": "ALLOCATION_ACTIVE",
      "type": "error"
    },
    {
      "inputs": [],
      "name": "ALLOCATION_EXCEEDS_POOL_AMOUNT",
      "type": "error"
    },
    {
      "inputs": [],
      "name": "ALLOCATION_NOT_ACTIVE",
      "type": "error"
    },
    {
      "inputs": [],
      "name": "ALLOCATION_NOT_ENDED",
      "type": "error"
    },
    {
      "inputs": [],
      "name": "ALREADY_INITIALIZED",
      "type": "error"
    },
    {
      "inputs": [],
      "name": "AMOUNT_MISMATCH",
      "type": "error"
    },
    {
      "inputs": [],
      "name": "ANCHOR_ERROR",
      "type": "error"
    },
    {
      "inputs": [],
      "name": "ARRAY_MISMATCH",
      "type": "error"
    },
    {
      "inputs": [],
      "name": "INVALID",
      "type": "error"
    },
    {
      "inputs": [],
      "name": "INVALID_ADDRESS",
      "type": "error"
    },
    {
      "inputs": [],
      "name": "INVALID_FEE",
      "type": "error"
    },
    {
      "inputs": [],
      "name": "INVALID_METADATA",
      "type": "error"
    },
    {
      "inputs": [],
      "name": "INVALID_MILESTONE",
      "type": "error"
    },
    {
      "inputs": [],
      "name": "INVALID_REGISTRATION",
      "type": "error"
    },
    {
      "inputs": [],
      "name": "IS_APPROVED_STRATEGY",
      "type": "error"
    },
    {
      "inputs": [],
      "name": "MILESTONES_ALREADY_SET",
      "type": "error"
    },
    {
      "inputs": [],
      "name": "MILESTONE_ALREADY_ACCEPTED",
      "type": "error"
    },
    {
      "inputs": [],
      "name": "MISMATCH",
      "type": "error"
    },
    {
      "inputs": [],
      "name": "NONCE_NOT_AVAILABLE",
      "type": "error"
    },
    {
      "inputs": [],
      "name": "NOT_APPROVED_STRATEGY",
      "type": "error"
    },
    {
      "inputs": [],
      "name": "NOT_ENOUGH_FUNDS",
      "type": "error"
    },
    {
      "inputs": [],
      "name": "NOT_IMPLEMENTED",
      "type": "error"
    },
    {
      "inputs": [],
      "name": "NOT_INITIALIZED",
      "type": "error"
    },
    {
      "inputs": [],
      "name": "NOT_PENDING_OWNER",
      "type": "error"
    },
    {
      "inputs": [],
      "name": "POOL_ACTIVE",
      "type": "error"
    },
    {
      "inputs": [],
      "name": "POOL_INACTIVE",
      "type": "error"
    },
    {
      "inputs": [],
      "name": "RECIPIENT_ALREADY_ACCEPTED",
      "type": "error"
    },
    {
      "inputs": [
        {
          "internalType": "address",
          "name": "recipientId",
          "type": "address"
        }
      ],
      "name": "RECIPIENT_ERROR",
      "type": "error"
    },
    {
      "inputs": [],
      "name": "RECIPIENT_NOT_ACCEPTED",
      "type": "error"
    },
    {
      "inputs": [],
      "name": "REGISTRATION_NOT_ACTIVE",
      "type": "error"
    },
    {
      "inputs": [],
      "name": "ReentrancyGuardReentrantCall",
      "type": "error"
    },
    {
      "inputs": [],
      "name": "SUPPLY_IS_ALLOWED_ONLY_ONCE",
      "type": "error"
    },
    {
      "inputs": [],
      "name": "SUPPLY_NOT_FOUND",
      "type": "error"
    },
    {
      "inputs": [],
      "name": "UNAUTHORIZED",
      "type": "error"
    },
    {
      "inputs": [],
      "name": "ZERO_ADDRESS",
      "type": "error"
    },
    {
      "anonymous": false,
      "inputs": [
        {
          "indexed": true,
          "internalType": "address",
          "name": "recipientId",
          "type": "address"
        },
        {
          "indexed": false,
          "internalType": "uint256",
          "name": "amount",
          "type": "uint256"
        },
        {
          "indexed": false,
          "internalType": "address",
          "name": "token",
          "type": "address"
        },
        {
          "indexed": false,
          "internalType": "address",
          "name": "sender",
          "type": "address"
        }
      ],
      "name": "Allocated",
      "type": "event"
    },
    {
      "anonymous": false,
      "inputs": [
        {
          "indexed": true,
          "internalType": "address",
          "name": "recipientId",
          "type": "address"
        },
        {
          "indexed": false,
          "internalType": "address",
          "name": "recipientAddress",
          "type": "address"
        },
        {
          "indexed": false,
          "internalType": "uint256",
          "name": "amount",
          "type": "uint256"
        },
        {
          "indexed": false,
          "internalType": "address",
          "name": "sender",
          "type": "address"
        }
      ],
      "name": "Distributed",
      "type": "event"
    },
    {
      "anonymous": false,
      "inputs": [
        {
          "indexed": false,
          "internalType": "uint256",
          "name": "poolId",
          "type": "uint256"
        },
        {
          "indexed": false,
          "internalType": "bytes",
          "name": "data",
          "type": "bytes"
        }
      ],
      "name": "Initialized",
      "type": "event"
    },
    {
      "anonymous": false,
      "inputs": [
        {
          "indexed": false,
          "internalType": "address",
          "name": "recipientId",
          "type": "address"
        },
        {
          "indexed": false,
          "internalType": "uint256",
          "name": "milestoneId",
          "type": "uint256"
        },
        {
          "indexed": false,
          "internalType": "enum IStrategy.Status",
          "name": "status",
          "type": "uint8"
        }
      ],
      "name": "MilestoneStatusChanged",
      "type": "event"
    },
    {
      "anonymous": false,
      "inputs": [
        {
          "indexed": false,
          "internalType": "address",
          "name": "recipientId",
          "type": "address"
        },
        {
          "indexed": false,
          "internalType": "uint256",
          "name": "milestoneId",
          "type": "uint256"
        },
        {
          "components": [
            {
              "internalType": "uint256",
              "name": "protocol",
              "type": "uint256"
            },
            {
              "internalType": "string",
              "name": "pointer",
              "type": "string"
            }
          ],
          "indexed": false,
          "internalType": "struct Metadata",
          "name": "metadata",
          "type": "tuple"
        }
      ],
      "name": "MilestoneSubmitted",
      "type": "event"
    },
    {
      "anonymous": false,
      "inputs": [
        {
          "indexed": false,
          "internalType": "address",
          "name": "recipientId",
          "type": "address"
        },
        {
          "indexed": false,
          "internalType": "enum IStrategy.Status",
          "name": "status",
          "type": "uint8"
        }
      ],
      "name": "MilestonesReviewed",
      "type": "event"
    },
    {
      "anonymous": false,
      "inputs": [
        {
          "indexed": false,
          "internalType": "address",
          "name": "recipientId",
          "type": "address"
        },
        {
          "indexed": false,
          "internalType": "uint256",
          "name": "milestonesLength",
          "type": "uint256"
        }
      ],
      "name": "MilestonesSet",
      "type": "event"
    },
    {
      "anonymous": false,
      "inputs": [
        {
          "indexed": false,
          "internalType": "bool",
          "name": "active",
          "type": "bool"
        }
      ],
      "name": "PoolActive",
      "type": "event"
    },
    {
      "anonymous": false,
      "inputs": [
        {
          "indexed": false,
          "internalType": "address",
          "name": "recipientId",
          "type": "address"
        },
        {
          "indexed": false,
          "internalType": "enum IStrategy.Status",
          "name": "status",
          "type": "uint8"
        }
      ],
      "name": "RecipientStatusChanged",
      "type": "event"
    },
    {
      "anonymous": false,
      "inputs": [
        {
          "indexed": true,
          "internalType": "address",
          "name": "recipientId",
          "type": "address"
        },
        {
          "indexed": false,
          "internalType": "bytes",
          "name": "data",
          "type": "bytes"
        },
        {
          "indexed": false,
          "internalType": "address",
          "name": "sender",
          "type": "address"
        }
      ],
      "name": "Registered",
      "type": "event"
    },
    {
      "inputs": [],
      "name": "NATIVE",
      "outputs": [
        {
          "internalType": "address",
          "name": "",
          "type": "address"
        }
      ],
      "stateMutability": "view",
      "type": "function"
    },
    {
      "inputs": [
        {
          "internalType": "bytes",
          "name": "_data",
          "type": "bytes"
        },
        {
          "internalType": "address",
          "name": "_sender",
          "type": "address"
        }
      ],
      "name": "allocate",
      "outputs": [],
      "stateMutability": "payable",
      "type": "function"
    },
    {
      "inputs": [],
      "name": "allocatedGrantAmount",
      "outputs": [
        {
          "internalType": "uint256",
          "name": "",
          "type": "uint256"
        }
      ],
      "stateMutability": "view",
      "type": "function"
    },
    {
      "inputs": [
        {
          "internalType": "address[]",
          "name": "_recipientIds",
          "type": "address[]"
        },
        {
          "internalType": "bytes",
          "name": "_data",
          "type": "bytes"
        },
        {
          "internalType": "address",
          "name": "_sender",
          "type": "address"
        }
      ],
      "name": "distribute",
      "outputs": [],
      "stateMutability": "nonpayable",
      "type": "function"
    },
    {
      "inputs": [],
      "name": "getAllo",
      "outputs": [
        {
          "internalType": "contract IAllo",
          "name": "",
          "type": "address"
        }
      ],
      "stateMutability": "view",
      "type": "function"
    },
    {
      "inputs": [
        {
          "internalType": "address",
          "name": "_recipientId",
          "type": "address"
        },
        {
          "internalType": "uint256",
          "name": "_milestoneId",
          "type": "uint256"
        }
      ],
      "name": "getMilestoneStatus",
      "outputs": [
        {
          "internalType": "enum IStrategy.Status",
          "name": "",
          "type": "uint8"
        }
      ],
      "stateMutability": "view",
      "type": "function"
    },
    {
      "inputs": [
        {
          "internalType": "address",
          "name": "_recipientId",
          "type": "address"
        }
      ],
      "name": "getMilestones",
      "outputs": [
        {
          "components": [
            {
              "internalType": "uint256",
              "name": "amountPercentage",
              "type": "uint256"
            },
            {
              "components": [
                {
                  "internalType": "uint256",
                  "name": "protocol",
                  "type": "uint256"
                },
                {
                  "internalType": "string",
                  "name": "pointer",
                  "type": "string"
                }
              ],
              "internalType": "struct Metadata",
              "name": "metadata",
              "type": "tuple"
            },
            {
              "internalType": "enum IStrategy.Status",
              "name": "milestoneStatus",
              "type": "uint8"
            }
          ],
          "internalType": "struct DirectGrantsSimpleStrategy.Milestone[]",
          "name": "",
          "type": "tuple[]"
        }
      ],
      "stateMutability": "view",
      "type": "function"
    },
    {
      "inputs": [
        {
          "internalType": "address[]",
          "name": "_recipientIds",
          "type": "address[]"
        },
        {
          "internalType": "bytes[]",
          "name": "_data",
          "type": "bytes[]"
        }
      ],
      "name": "getPayouts",
      "outputs": [
        {
          "components": [
            {
              "internalType": "address",
              "name": "recipientAddress",
              "type": "address"
            },
            {
              "internalType": "uint256",
              "name": "amount",
              "type": "uint256"
            }
          ],
          "internalType": "struct IStrategy.PayoutSummary[]",
          "name": "",
          "type": "tuple[]"
        }
      ],
      "stateMutability": "view",
      "type": "function"
    },
    {
      "inputs": [],
      "name": "getPoolAmount",
      "outputs": [
        {
          "internalType": "uint256",
          "name": "",
          "type": "uint256"
        }
      ],
      "stateMutability": "view",
      "type": "function"
    },
    {
      "inputs": [],
      "name": "getPoolId",
      "outputs": [
        {
          "internalType": "uint256",
          "name": "",
          "type": "uint256"
        }
      ],
      "stateMutability": "view",
      "type": "function"
    },
    {
      "inputs": [
        {
          "internalType": "address",
          "name": "_recipientId",
          "type": "address"
        }
      ],
      "name": "getRecipient",
      "outputs": [
        {
          "components": [
            {
              "internalType": "bool",
              "name": "useRegistryAnchor",
              "type": "bool"
            },
            {
              "internalType": "address",
              "name": "recipientAddress",
              "type": "address"
            },
            {
              "internalType": "uint256",
              "name": "grantAmount",
              "type": "uint256"
            },
            {
              "components": [
                {
                  "internalType": "uint256",
                  "name": "protocol",
                  "type": "uint256"
                },
                {
                  "internalType": "string",
                  "name": "pointer",
                  "type": "string"
                }
              ],
              "internalType": "struct Metadata",
              "name": "metadata",
              "type": "tuple"
            },
            {
              "internalType": "enum IStrategy.Status",
              "name": "recipientStatus",
              "type": "uint8"
            },
            {
              "internalType": "enum IStrategy.Status",
              "name": "milestonesReviewStatus",
              "type": "uint8"
            }
          ],
          "internalType": "struct DirectGrantsSimpleStrategy.Recipient",
          "name": "",
          "type": "tuple"
        }
      ],
      "stateMutability": "view",
      "type": "function"
    },
    {
      "inputs": [
        {
          "internalType": "address",
          "name": "_recipientId",
          "type": "address"
        }
      ],
      "name": "getRecipientStatus",
      "outputs": [
        {
          "internalType": "enum IStrategy.Status",
          "name": "",
          "type": "uint8"
        }
      ],
      "stateMutability": "view",
      "type": "function"
    },
    {
      "inputs": [],
      "name": "getStrategyId",
      "outputs": [
        {
          "internalType": "bytes32",
          "name": "",
          "type": "bytes32"
        }
      ],
      "stateMutability": "view",
      "type": "function"
    },
    {
      "inputs": [],
      "name": "grantAmountRequired",
      "outputs": [
        {
          "internalType": "bool",
          "name": "",
          "type": "bool"
        }
      ],
      "stateMutability": "view",
      "type": "function"
    },
    {
      "inputs": [
        {
          "internalType": "uint256",
          "name": "_amount",
          "type": "uint256"
        }
      ],
      "name": "increasePoolAmount",
      "outputs": [],
      "stateMutability": "nonpayable",
      "type": "function"
    },
    {
      "inputs": [
        {
          "internalType": "uint256",
          "name": "_poolId",
          "type": "uint256"
        },
        {
          "internalType": "bytes",
          "name": "_data",
          "type": "bytes"
        }
      ],
      "name": "initialize",
      "outputs": [],
      "stateMutability": "nonpayable",
      "type": "function"
    },
    {
      "inputs": [],
      "name": "isPoolActive",
      "outputs": [
        {
          "internalType": "bool",
          "name": "",
          "type": "bool"
        }
      ],
      "stateMutability": "view",
      "type": "function"
    },
    {
      "inputs": [
        {
          "internalType": "address",
          "name": "_allocator",
          "type": "address"
        }
      ],
      "name": "isValidAllocator",
      "outputs": [
        {
          "internalType": "bool",
          "name": "",
          "type": "bool"
        }
      ],
      "stateMutability": "view",
      "type": "function"
    },
    {
      "inputs": [],
      "name": "metadataRequired",
      "outputs": [
        {
          "internalType": "bool",
          "name": "",
          "type": "bool"
        }
      ],
      "stateMutability": "view",
      "type": "function"
    },
    {
      "inputs": [
        {
          "internalType": "address",
          "name": "",
          "type": "address"
        },
        {
          "internalType": "uint256",
          "name": "",
          "type": "uint256"
        }
      ],
      "name": "milestones",
      "outputs": [
        {
          "internalType": "uint256",
          "name": "amountPercentage",
          "type": "uint256"
        },
        {
          "components": [
            {
              "internalType": "uint256",
              "name": "protocol",
              "type": "uint256"
            },
            {
              "internalType": "string",
              "name": "pointer",
              "type": "string"
            }
          ],
          "internalType": "struct Metadata",
          "name": "metadata",
          "type": "tuple"
        },
        {
          "internalType": "enum IStrategy.Status",
          "name": "milestoneStatus",
          "type": "uint8"
        }
      ],
      "stateMutability": "view",
      "type": "function"
    },
    {
      "inputs": [
        {
          "internalType": "address",
          "name": "_recipientId",
          "type": "address"
        },
        {
          "components": [
            {
              "internalType": "uint256",
              "name": "amountPercentage",
              "type": "uint256"
            },
            {
              "components": [
                {
                  "internalType": "uint256",
                  "name": "protocol",
                  "type": "uint256"
                },
                {
                  "internalType": "string",
                  "name": "pointer",
                  "type": "string"
                }
              ],
              "internalType": "struct Metadata",
              "name": "metadata",
              "type": "tuple"
            },
            {
              "internalType": "enum IStrategy.Status",
              "name": "milestoneStatus",
              "type": "uint8"
            }
          ],
          "internalType": "struct DirectGrantsSimpleStrategy.Milestone[]",
          "name": "_milestones",
          "type": "tuple[]"
        }
      ],
      "name": "offerMilestones",
      "outputs": [],
      "stateMutability": "nonpayable",
      "type": "function"
    },
    {
      "inputs": [
        {
          "internalType": "bytes",
          "name": "_data",
          "type": "bytes"
        },
        {
          "internalType": "address",
          "name": "_sender",
          "type": "address"
        }
      ],
      "name": "registerRecipient",
      "outputs": [
        {
          "internalType": "address",
          "name": "recipientId",
          "type": "address"
        }
      ],
      "stateMutability": "payable",
      "type": "function"
    },
    {
      "inputs": [],
      "name": "registryGating",
      "outputs": [
        {
          "internalType": "bool",
          "name": "",
          "type": "bool"
        }
      ],
      "stateMutability": "view",
      "type": "function"
    },
    {
      "inputs": [
        {
          "internalType": "address",
          "name": "_recipientId",
          "type": "address"
        },
        {
          "internalType": "uint256",
          "name": "_milestoneId",
          "type": "uint256"
        }
      ],
      "name": "rejectMilestone",
      "outputs": [],
      "stateMutability": "nonpayable",
      "type": "function"
    },
    {
      "inputs": [
        {
          "internalType": "address",
          "name": "_recipientId",
          "type": "address"
        },
        {
          "internalType": "enum IStrategy.Status",
          "name": "_status",
          "type": "uint8"
        }
      ],
      "name": "reviewSetMilestones",
      "outputs": [],
      "stateMutability": "nonpayable",
      "type": "function"
    },
    {
      "inputs": [
        {
          "internalType": "address",
          "name": "_recipientId",
          "type": "address"
        },
        {
          "components": [
            {
              "internalType": "uint256",
              "name": "amountPercentage",
              "type": "uint256"
            },
            {
              "components": [
                {
                  "internalType": "uint256",
                  "name": "protocol",
                  "type": "uint256"
                },
                {
                  "internalType": "string",
                  "name": "pointer",
                  "type": "string"
                }
              ],
              "internalType": "struct Metadata",
              "name": "metadata",
              "type": "tuple"
            },
            {
              "internalType": "enum IStrategy.Status",
              "name": "milestoneStatus",
              "type": "uint8"
            }
          ],
          "internalType": "struct DirectGrantsSimpleStrategy.Milestone[]",
          "name": "_milestones",
          "type": "tuple[]"
        }
      ],
      "name": "setMilestones",
      "outputs": [],
      "stateMutability": "nonpayable",
      "type": "function"
    },
    {
      "inputs": [
        {
          "internalType": "bool",
          "name": "_flag",
          "type": "bool"
        }
      ],
      "name": "setPoolActive",
      "outputs": [],
      "stateMutability": "nonpayable",
      "type": "function"
    },
    {
      "inputs": [
        {
          "internalType": "address[]",
          "name": "_recipientIds",
          "type": "address[]"
        }
      ],
      "name": "setRecipientStatusToInReview",
      "outputs": [],
      "stateMutability": "nonpayable",
      "type": "function"
    },
    {
      "inputs": [
        {
          "internalType": "address",
          "name": "_recipientId",
          "type": "address"
        },
        {
          "internalType": "uint256",
          "name": "_milestoneId",
          "type": "uint256"
        },
        {
          "components": [
            {
              "internalType": "uint256",
              "name": "protocol",
              "type": "uint256"
            },
            {
              "internalType": "string",
              "name": "pointer",
              "type": "string"
            }
          ],
          "internalType": "struct Metadata",
          "name": "_metadata",
          "type": "tuple"
        }
      ],
      "name": "submitMilestone",
      "outputs": [],
      "stateMutability": "nonpayable",
      "type": "function"
    },
    {
      "inputs": [
        {
          "internalType": "address",
          "name": "",
          "type": "address"
        }
      ],
      "name": "upcomingMilestone",
      "outputs": [
        {
          "internalType": "uint256",
          "name": "",
          "type": "uint256"
        }
      ],
      "stateMutability": "view",
      "type": "function"
    },
    {
      "inputs": [
        {
          "internalType": "uint256",
          "name": "_amount",
          "type": "uint256"
        }
      ],
      "name": "withdraw",
      "outputs": [],
      "stateMutability": "nonpayable",
      "type": "function"
    },
    {
      "stateMutability": "payable",
      "type": "receive"
    }
  ],
  "bytecode": "0x60c06040523480156200001157600080fd5b50604051620062d0380380620062d08339818101604052810190620000379190620002a7565b81818173ffffffffffffffffffffffffffffffffffffffff1660808173ffffffffffffffffffffffffffffffffffffffff1681525050806040516020016200008091906200036a565b6040516020818303038152906040528051906020012060a081815250505050600160038190555050506200038e565b6000604051905090565b600080fd5b600080fd5b600073ffffffffffffffffffffffffffffffffffffffff82169050919050565b6000620000f082620000c3565b9050919050565b6200010281620000e3565b81146200010e57600080fd5b50565b6000815190506200012281620000f7565b92915050565b600080fd5b600080fd5b6000601f19601f8301169050919050565b7f4e487b7100000000000000000000000000000000000000000000000000000000600052604160045260246000fd5b6200017d8262000132565b810181811067ffffffffffffffff821117156200019f576200019e62000143565b5b80604052505050565b6000620001b4620000af565b9050620001c2828262000172565b919050565b600067ffffffffffffffff821115620001e557620001e462000143565b5b620001f08262000132565b9050602081019050919050565b60005b838110156200021d57808201518184015260208101905062000200565b60008484015250505050565b6000620002406200023a84620001c7565b620001a8565b9050828152602081018484840111156200025f576200025e6200012d565b5b6200026c848285620001fd565b509392505050565b600082601f8301126200028c576200028b62000128565b5b81516200029e84826020860162000229565b91505092915050565b60008060408385031215620002c157620002c0620000b9565b5b6000620002d18582860162000111565b925050602083015167ffffffffffffffff811115620002f557620002f4620000be565b5b620003038582860162000274565b9150509250929050565b600081519050919050565b600082825260208201905092915050565b600062000336826200030d565b62000342818562000318565b935062000354818560208601620001fd565b6200035f8162000132565b840191505092915050565b6000602082019050818103600083015262000386818462000329565b905092915050565b60805160a051615ee4620003ec60003960006115f5015260008181610b9c01528181610db301528181610fd201528181611c2501528181611cfc0152818161279801528181612ccd01528181612f0d01526135110152615ee46000f3fe6080604052600436106101dc5760003560e01c80639be2ccf511610102578063df868ed311610095578063edd146cc11610064578063edd146cc146106e4578063ef2920fc1461070d578063f5b0dfb714610729578063f83067e714610752576101e3565b8063df868ed314610614578063e2372b581461063f578063e8eeb8061461067c578063eb11af93146106a7576101e3565b8063b5f620ce116100d1578063b5f620ce14610558578063c5b7520014610581578063c7a892bf146105aa578063cb0e85a6146105e9576101e3565b80639be2ccf51461049a578063a0cf0aea146104c5578063a647d23e146104f0578063b2b878d01461051b576101e3565b80632e1a7d4d1161017a57806342fda9c71161014957806342fda9c7146103ca5780634ab4ba42146103f55780634d31d0871461042057806362812a391461045d576101e3565b80632e1a7d4d1461032457806338fff2d01461034d57806339b25a9a146103785780633bf3577d146103a1576101e3565b80630cfad8ee116101b65780630cfad8ee1461026357806315cc481e1461028c57806322a4e42d146102b75780632bbe0cae146102f4576101e3565b8063068ae461146101e857806309c4b8df146102115780630a6f0ee91461023a576101e3565b366101e357005b600080fd5b3480156101f457600080fd5b5061020f600480360381019061020a9190613c4e565b61078f565b005b34801561021d57600080fd5b5061023860048036038101906102339190613cb3565b61091e565b005b34801561024657600080fd5b50610261600480360381019061025c9190613f01565b610b1e565b005b34801561026f57600080fd5b5061028a60048036038101906102859190614204565b610b54565b005b34801561029857600080fd5b506102a1610daf565b6040516102ae91906142bf565b60405180910390f35b3480156102c357600080fd5b506102de60048036038101906102d991906142da565b610dd7565b6040516102eb919061455b565b60405180910390f35b61030e6004803603810190610309919061457d565b610f6a565b60405161031b91906145e8565b60405180910390f35b34801561033057600080fd5b5061034b60048036038101906103469190614603565b610fa2565b005b34801561035957600080fd5b50610362611080565b60405161036f919061463f565b60405180910390f35b34801561038457600080fd5b5061039f600480360381019061039a91906146b5565b61108a565b005b3480156103ad57600080fd5b506103c860048036038101906103c39190614726565b61118d565b005b3480156103d657600080fd5b506103df6115f1565b6040516103ec91906147ae565b60405180910390f35b34801561040157600080fd5b5061040a611619565b604051610417919061463f565b60405180910390f35b34801561042c57600080fd5b50610447600480360381019061044291906142da565b611623565b60405161045491906147e4565b60405180910390f35b34801561046957600080fd5b50610484600480360381019061047f91906142da565b611635565b60405161049191906148a6565b60405180910390f35b3480156104a657600080fd5b506104af61164d565b6040516104bc91906147e4565b60405180910390f35b3480156104d157600080fd5b506104da611660565b6040516104e791906145e8565b60405180910390f35b3480156104fc57600080fd5b50610505611678565b60405161051291906147e4565b60405180910390f35b34801561052757600080fd5b50610542600480360381019061053d91906149a9565b61168b565b60405161054f9190614aff565b60405180910390f35b34801561056457600080fd5b5061057f600480360381019061057a9190614b4d565b6117a5565b005b34801561058d57600080fd5b506105a860048036038101906105a39190614204565b6117f3565b005b3480156105b657600080fd5b506105d160048036038101906105cc9190613c4e565b611995565b6040516105e093929190614bc6565b60405180910390f35b3480156105f557600080fd5b506105fe611a8f565b60405161060b91906147e4565b60405180910390f35b34801561062057600080fd5b50610629611aa2565b60405161063691906147e4565b60405180910390f35b34801561064b57600080fd5b50610666600480360381019061066191906142da565b611ab1565b604051610673919061463f565b60405180910390f35b34801561068857600080fd5b50610691611ac9565b60405161069e919061463f565b60405180910390f35b3480156106b357600080fd5b506106ce60048036038101906106c991906142da565b611acf565b6040516106db9190614c04565b60405180910390f35b3480156106f057600080fd5b5061070b60048036038101906107069190614c1f565b611ae1565b005b6107276004803603810190610722919061457d565b611b41565b005b34801561073557600080fd5b50610750600480360381019061074b9190614603565b611b73565b005b34801561075e57600080fd5b5061077960048036038101906107749190613c4e565b611ba9565b6040516107869190614c04565b60405180910390f35b3361079981611c23565b6000600960008573ffffffffffffffffffffffffffffffffffffffff1673ffffffffffffffffffffffffffffffffffffffff1681526020019081526020016000209050808054905083111561081a576040517f5e3ed1c200000000000000000000000000000000000000000000000000000000815260040160405180910390fd5b600081848154811061082f5761082e614c7b565b5b9060005260206000209060040201905060026006811115610853576108526143fe565b5b8160030160009054906101000a900460ff166006811115610877576108766143fe565b5b036108ae576040517ffe8dda4e00000000000000000000000000000000000000000000000000000000815260040160405180910390fd5b60038160030160006101000a81548160ff021916908360068111156108d6576108d56143fe565b5b02179055507ff1af82b65c631a030029b10ea8f00f68290285c7c797644155b8f23969ca1d638585600360405161090f93929190614caa565b60405180910390a15050505050565b3361092881611c23565b6000600760008573ffffffffffffffffffffffffffffffffffffffff1673ffffffffffffffffffffffffffffffffffffffff16815260200190815260200160002090506000600960008673ffffffffffffffffffffffffffffffffffffffff1673ffffffffffffffffffffffffffffffffffffffff16815260200190815260200160002080549050036109e7576040517f5e3ed1c200000000000000000000000000000000000000000000000000000000815260040160405180910390fd5b600260068111156109fb576109fa6143fe565b5b8160040160019054906101000a900460ff166006811115610a1f57610a1e6143fe565b5b03610a56576040517fb9463a6000000000000000000000000000000000000000000000000000000000815260040160405180910390fd5b60026006811115610a6a57610a696143fe565b5b836006811115610a7d57610a7c6143fe565b5b1480610aad575060036006811115610a9857610a976143fe565b5b836006811115610aab57610aaa6143fe565b5b145b15610b1857828160040160016101000a81548160ff02191690836006811115610ad957610ad86143fe565b5b02179055507f30dae55c386c6176f3f7b7ee6ad4df33970f2e442cb0142e978cf78fd8ae138d8484604051610b0f929190614ce1565b60405180910390a15b50505050565b610b26611cfa565b610b2e611d81565b610b39838383611dbf565b610b44838383611dc4565b610b4f838383611e18565b505050565b60008273ffffffffffffffffffffffffffffffffffffffff163373ffffffffffffffffffffffffffffffffffffffff161480610b965750610b958333611e1d565b5b905060007f000000000000000000000000000000000000000000000000000000000000000073ffffffffffffffffffffffffffffffffffffffff166329e40d4b600154336040518363ffffffff1660e01b8152600401610bf7929190614d0a565b602060405180830381865afa158015610c14573d6000803e3d6000fd5b505050506040513d601f19601f82011682018060405250810190610c389190614d48565b905081158015610c46575080155b15610c7d576040517f075fd2b100000000000000000000000000000000000000000000000000000000815260040160405180910390fd5b6000600760008673ffffffffffffffffffffffffffffffffffffffff1673ffffffffffffffffffffffffffffffffffffffff168152602001908152602001600020905060026006811115610cd457610cd36143fe565b5b8160040160009054906101000a900460ff166006811115610cf857610cf76143fe565b5b14610d2f576040517fe4b05bec00000000000000000000000000000000000000000000000000000000815260040160405180910390fd5b60026006811115610d4357610d426143fe565b5b8160040160019054906101000a900460ff166006811115610d6757610d666143fe565b5b03610d9e576040517fb9463a6000000000000000000000000000000000000000000000000000000000815260040160405180910390fd5b610da88585611f6e565b5050505050565b60007f0000000000000000000000000000000000000000000000000000000000000000905090565b6060600960008373ffffffffffffffffffffffffffffffffffffffff1673ffffffffffffffffffffffffffffffffffffffff168152602001908152602001600020805480602002602001604051908101604052809291908181526020016000905b82821015610f5f5783829060005260206000209060040201604051806060016040529081600082015481526020016001820160405180604001604052908160008201548152602001600182018054610e8f90614da4565b80601f0160208091040260200160405190810160405280929190818152602001828054610ebb90614da4565b8015610f085780601f10610edd57610100808354040283529160200191610f08565b820191906000526020600020905b815481529060010190602001808311610eeb57829003601f168201915b50505050508152505081526020016003820160009054906101000a900460ff166006811115610f3a57610f396143fe565b5b6006811115610f4c57610f4b6143fe565b5b8152505081526020019060010190610e38565b505050509050919050565b6000610f74611cfa565b610f7c611d81565b610f868383612209565b610f90838361220d565b9050610f9c83836126e2565b92915050565b33610fac81611c23565b610fb46126e6565b8160026000828254610fc69190614e04565b9250508190555061107c7f000000000000000000000000000000000000000000000000000000000000000073ffffffffffffffffffffffffffffffffffffffff1663068bcd8d6001546040518263ffffffff1660e01b815260040161102b919061463f565b600060405180830381865afa158015611048573d6000803e3d6000fd5b505050506040513d6000823e3d601f19601f820116820180604052508101906110719190615064565b60400151338461272d565b5050565b6000600154905090565b3361109481611c23565b600083839050905060005b818110156111865760008585838181106110bc576110bb614c7b565b5b90506020020160208101906110d191906142da565b90506005600760008373ffffffffffffffffffffffffffffffffffffffff1673ffffffffffffffffffffffffffffffffffffffff16815260200190815260200160002060040160006101000a81548160ff02191690836006811115611139576111386143fe565b5b02179055507f94593b52aa436dd31a63e313045c2eb23d43eb2d6f5b4d7797b4432e7b277490816005604051611170929190614ce1565b60405180910390a181806001019250505061109f565b5050505050565b3373ffffffffffffffffffffffffffffffffffffffff168373ffffffffffffffffffffffffffffffffffffffff16141580156111d057506111ce8333611e1d565b155b15611207576040517f075fd2b100000000000000000000000000000000000000000000000000000000815260040160405180910390fd5b6000600760008573ffffffffffffffffffffffffffffffffffffffff1673ffffffffffffffffffffffffffffffffffffffff1681526020019081526020016000206040518060c00160405290816000820160009054906101000a900460ff161515151581526020016000820160019054906101000a900473ffffffffffffffffffffffffffffffffffffffff1673ffffffffffffffffffffffffffffffffffffffff1673ffffffffffffffffffffffffffffffffffffffff1681526020016001820154815260200160028201604051806040016040529081600082015481526020016001820180546112f890614da4565b80601f016020809104026020016040519081016040528092919081815260200182805461132490614da4565b80156113715780601f1061134657610100808354040283529160200191611371565b820191906000526020600020905b81548152906001019060200180831161135457829003601f168201915b50505050508152505081526020016004820160009054906101000a900460ff1660068111156113a3576113a26143fe565b5b60068111156113b5576113b46143fe565b5b81526020016004820160019054906101000a900460ff1660068111156113de576113dd6143fe565b5b60068111156113f0576113ef6143fe565b5b8152505090506002600681111561140a576114096143fe565b5b81608001516006811115611421576114206143fe565b5b14611458576040517fe4b05bec00000000000000000000000000000000000000000000000000000000815260040160405180910390fd5b6000600960008673ffffffffffffffffffffffffffffffffffffffff1673ffffffffffffffffffffffffffffffffffffffff168152602001908152602001600020905080805490508411156114d9576040517f5e3ed1c200000000000000000000000000000000000000000000000000000000815260040160405180910390fd5b60008185815481106114ee576114ed614c7b565b5b9060005260206000209060040201905060026006811115611512576115116143fe565b5b8160030160009054906101000a900460ff166006811115611536576115356143fe565b5b0361156d576040517ffe8dda4e00000000000000000000000000000000000000000000000000000000815260040160405180910390fd5b8381600101818161157e919061547a565b90505060018160030160006101000a81548160ff021916908360068111156115a9576115a86143fe565b5b02179055507f8673cfb5a2cbad812463bdfd7c85511f29c804579a86d318889ab925155399618686866040516115e19392919061558d565b60405180910390a1505050505050565b60007f0000000000000000000000000000000000000000000000000000000000000000905090565b6000600254905090565b600061162e82612794565b9050919050565b61163d613a07565b6116468261283b565b9050919050565b600460029054906101000a900460ff1681565b73eeeeeeeeeeeeeeeeeeeeeeeeeeeeeeeeeeeeeeee81565b600460009054906101000a900460ff1681565b6060600083519050825181146116cd576040517f7b49805600000000000000000000000000000000000000000000000000000000815260040160405180910390fd5b60008167ffffffffffffffff8111156116e9576116e8613d09565b5b60405190808252806020026020018201604052801561172257816020015b61170f613a7f565b8152602001906001900390816117075790505b50905060005b828110156117995761176e86828151811061174657611745614c7b565b5b602002602001015186838151811061176157611760614c7b565b5b6020026020010151612a35565b82828151811061178157611780614c7b565b5b60200260200101819052508080600101915050611728565b50809250505092915050565b336117af81611c23565b6117b882612a86565b7fd94c9bc4d43c51d8dc345a016d8e3d994432fac68e72832e4cf3a616bd8efae0826040516117e791906147e4565b60405180910390a15050565b60008273ffffffffffffffffffffffffffffffffffffffff163373ffffffffffffffffffffffffffffffffffffffff16148061183557506118348333611e1d565b5b90508061186e576040517f075fd2b100000000000000000000000000000000000000000000000000000000815260040160405180910390fd5b6000600760008573ffffffffffffffffffffffffffffffffffffffff1673ffffffffffffffffffffffffffffffffffffffff1681526020019081526020016000209050600260068111156118c5576118c46143fe565b5b8160040160009054906101000a900460ff1660068111156118e9576118e86143fe565b5b14611920576040517fe4b05bec00000000000000000000000000000000000000000000000000000000815260040160405180910390fd5b60026006811115611934576119336143fe565b5b8160040160019054906101000a900460ff166006811115611958576119576143fe565b5b0361198f576040517fb9463a6000000000000000000000000000000000000000000000000000000000815260040160405180910390fd5b50505050565b600960205281600052604060002081815481106119b157600080fd5b90600052602060002090600402016000915091505080600001549080600101604051806040016040529081600082015481526020016001820180546119f590614da4565b80601f0160208091040260200160405190810160405280929190818152602001828054611a2190614da4565b8015611a6e5780601f10611a4357610100808354040283529160200191611a6e565b820191906000526020600020905b815481529060010190602001808311611a5157829003601f168201915b505050505081525050908060030160009054906101000a900460ff16905083565b600460019054906101000a900460ff1681565b6000611aac612ad9565b905090565b600a6020528060005260406000206000915090505481565b60055481565b6000611ada82612aef565b9050919050565b600081806020019051810190611af79190615772565b9050611b038382612b05565b7f91efa3d50feccde0d0d202f8ae5c41ca0b2be614cebcb2bd2f4b019396e6568a8383604051611b34929190615810565b60405180910390a1505050565b611b49611cfa565b611b51611d81565b611b5b8282612da9565b611b658282612dad565b611b6f82826131be565b5050565b611b7b611cfa565b611b84816131c2565b8060026000828254611b969190615840565b92505081905550611ba6816131c5565b50565b6000600960008473ffffffffffffffffffffffffffffffffffffffff1673ffffffffffffffffffffffffffffffffffffffff1681526020019081526020016000208281548110611bfc57611bfb614c7b565b5b906000526020600020906004020160030160009054906101000a900460ff16905092915050565b7f000000000000000000000000000000000000000000000000000000000000000073ffffffffffffffffffffffffffffffffffffffff166329e40d4b600154836040518363ffffffff1660e01b8152600401611c80929190614d0a565b602060405180830381865afa158015611c9d573d6000803e3d6000fd5b505050506040513d601f19601f82011682018060405250810190611cc19190614d48565b611cf7576040517f075fd2b100000000000000000000000000000000000000000000000000000000815260040160405180910390fd5b50565b7f000000000000000000000000000000000000000000000000000000000000000073ffffffffffffffffffffffffffffffffffffffff163373ffffffffffffffffffffffffffffffffffffffff1614611d7f576040517f075fd2b100000000000000000000000000000000000000000000000000000000815260040160405180910390fd5b565b600060015403611dbd576040517f3da3f98c00000000000000000000000000000000000000000000000000000000815260040160405180910390fd5b565b505050565b80611dce81611c23565b60008451905060005b81811015611e1057611e03868281518110611df557611df4614c7b565b5b6020026020010151856131c8565b8080600101915050611dd7565b505050505050565b505050565b600080600460039054906101000a900473ffffffffffffffffffffffffffffffffffffffff1673ffffffffffffffffffffffffffffffffffffffff1663dd93da43856040518263ffffffff1660e01b8152600401611e7b91906145e8565b600060405180830381865afa158015611e98573d6000803e3d6000fd5b505050506040513d6000823e3d601f19601f82011682018060405250810190611ec1919061594c565b9050600460039054906101000a900473ffffffffffffffffffffffffffffffffffffffff1673ffffffffffffffffffffffffffffffffffffffff16635e8a79158260000151856040518363ffffffff1660e01b8152600401611f24929190615995565b602060405180830381865afa158015611f41573d6000803e3d6000fd5b505050506040513d601f19601f82011682018060405250810190611f659190614d48565b91505092915050565b600080600960008573ffffffffffffffffffffffffffffffffffffffff1673ffffffffffffffffffffffffffffffffffffffff16815260200190815260200160002080549050111561200657600960008473ffffffffffffffffffffffffffffffffffffffff1673ffffffffffffffffffffffffffffffffffffffff16815260200190815260200160002060006120059190613aaf565b5b60008251905060005b8181101561218857600084828151811061202c5761202b614c7b565b5b602002602001015190506000600681111561204a576120496143fe565b5b81604001516006811115612061576120606143fe565b5b14612098576040517f5e3ed1c200000000000000000000000000000000000000000000000000000000815260040160405180910390fd5b8060000151846120a89190615840565b9350600960008773ffffffffffffffffffffffffffffffffffffffff1673ffffffffffffffffffffffffffffffffffffffff1681526020019081526020016000208190806001815401808255809150506001900390600052602060002090600402016000909190919091506000820151816000015560208201518160010160008201518160000155602082015181600101908161214591906159be565b50505060408201518160030160006101000a81548160ff02191690836006811115612173576121726143fe565b5b0217905550505081806001019250505061200f565b50670de0b6b3a764000082146121ca576040517f5e3ed1c200000000000000000000000000000000000000000000000000000000815260040160405180910390fd5b7fb000fb1507aac2465ccb4f6bd1b601c7053279005e9e9932c41946b35c84949b84826040516121fb929190615a90565b60405180910390a150505050565b5050565b60006122176136fc565b600080600080612225613ad3565b600460009054906101000a900460ff16156122a3578780602001905181019061224e9190615af7565b809450819550829850839950505050506122688688611e1d565b61229e576040517f075fd2b100000000000000000000000000000000000000000000000000000000815260040160405180910390fd5b612355565b878060200190518101906122b79190615af7565b80945081955082975083985050505050600073ffffffffffffffffffffffffffffffffffffffff168473ffffffffffffffffffffffffffffffffffffffff1614159250826123055784612307565b835b955082801561231d575061231b8688611e1d565b155b15612354576040517f075fd2b100000000000000000000000000000000000000000000000000000000815260040160405180910390fd5b5b600460029054906101000a900460ff1680156123715750600082145b156123a8576040517f03b167dd00000000000000000000000000000000000000000000000000000000815260040160405180910390fd5b600260068111156123bc576123bb6143fe565b5b600760008873ffffffffffffffffffffffffffffffffffffffff1673ffffffffffffffffffffffffffffffffffffffff16815260200190815260200160002060040160009054906101000a900460ff16600681111561241e5761241d6143fe565b5b03612455576040517f41d40fb800000000000000000000000000000000000000000000000000000000815260040160405180910390fd5b600460019054906101000a900460ff168015612485575060008160200151511480612484575060008160000151145b5b156124bc576040517fc19e07c500000000000000000000000000000000000000000000000000000000815260040160405180910390fd5b60006040518060c00160405280600460009054906101000a900460ff166124e357856124e6565b60015b151581526020018773ffffffffffffffffffffffffffffffffffffffff16815260200184815260200183815260200160026006811115612529576125286143fe565b5b815260200160016006811115612542576125416143fe565b5b815250905080600760008973ffffffffffffffffffffffffffffffffffffffff1673ffffffffffffffffffffffffffffffffffffffff16815260200190815260200160002060008201518160000160006101000a81548160ff02191690831515021790555060208201518160000160016101000a81548173ffffffffffffffffffffffffffffffffffffffff021916908373ffffffffffffffffffffffffffffffffffffffff1602179055506040820151816001015560608201518160020160008201518160000155602082015181600101908161262091906159be565b50505060808201518160040160006101000a81548160ff0219169083600681111561264e5761264d6143fe565b5b021790555060a08201518160040160016101000a81548160ff0219169083600681111561267e5761267d6143fe565b5b02179055509050508673ffffffffffffffffffffffffffffffffffffffff167fa197306e3dd5494a61a695381aa809a53b8e377a685e84e404a85d5a8da6cc628a8a6040516126ce929190615b7a565b60405180910390a250505050505092915050565b5050565b60008054906101000a900460ff161561272b576040517fb186267000000000000000000000000000000000000000000000000000000000815260040160405180910390fd5b565b73eeeeeeeeeeeeeeeeeeeeeeeeeeeeeeeeeeeeeeee73ffffffffffffffffffffffffffffffffffffffff168373ffffffffffffffffffffffffffffffffffffffff16036127835761277e8282613742565b61278f565b61278e838383613762565b5b505050565b60007f000000000000000000000000000000000000000000000000000000000000000073ffffffffffffffffffffffffffffffffffffffff166329e40d4b600154846040518363ffffffff1660e01b81526004016127f3929190614d0a565b602060405180830381865afa158015612810573d6000803e3d6000fd5b505050506040513d601f19601f820116820180604052508101906128349190614d48565b9050919050565b612843613a07565b600760008373ffffffffffffffffffffffffffffffffffffffff1673ffffffffffffffffffffffffffffffffffffffff1681526020019081526020016000206040518060c00160405290816000820160009054906101000a900460ff161515151581526020016000820160019054906101000a900473ffffffffffffffffffffffffffffffffffffffff1673ffffffffffffffffffffffffffffffffffffffff1673ffffffffffffffffffffffffffffffffffffffff16815260200160018201548152602001600282016040518060400160405290816000820154815260200160018201805461293290614da4565b80601f016020809104026020016040519081016040528092919081815260200182805461295e90614da4565b80156129ab5780601f10612980576101008083540402835291602001916129ab565b820191906000526020600020905b81548152906001019060200180831161298e57829003601f168201915b50505050508152505081526020016004820160009054906101000a900460ff1660068111156129dd576129dc6143fe565b5b60068111156129ef576129ee6143fe565b5b81526020016004820160019054906101000a900460ff166006811115612a1857612a176143fe565b5b6006811115612a2a57612a296143fe565b5b815250509050919050565b612a3d613a7f565b6000612a488461283b565b90506040518060400160405280826020015173ffffffffffffffffffffffffffffffffffffffff168152602001826040015181525091505092915050565b806000806101000a81548160ff0219169083151502179055507fd94c9bc4d43c51d8dc345a016d8e3d994432fac68e72832e4cf3a616bd8efae081604051612ace91906147e4565b60405180910390a150565b60008060009054906101000a900460ff16905090565b6000612afa8261283b565b608001519050919050565b612b0e826137b1565b8060000151600460006101000a81548160ff0219169083151502179055508060200151600460016101000a81548160ff0219169083151502179055508060400151600460026101000a81548160ff02191690831515021790555060008160600151905060005b8151811015612cca57612bda6040518060400160405280601c81526020017f53747261746567792073657474696e67205355504c4945522049443a00000000815250838381518110612bc957612bc8614c7b565b5b602002602001015160000151613839565b612c376040518060400160405280601f81526020017f53747261746567792073657474696e67205355504c49455220504f5745523a00815250838381518110612c2657612c25614c7b565b5b6020026020010151602001516138d5565b818181518110612c4a57612c49614c7b565b5b60200260200101516020015160086000848481518110612c6d57612c6c614c7b565b5b60200260200101516000015173ffffffffffffffffffffffffffffffffffffffff1673ffffffffffffffffffffffffffffffffffffffff168152602001908152602001600020819055508080612cc290615baa565b915050612b74565b507f000000000000000000000000000000000000000000000000000000000000000073ffffffffffffffffffffffffffffffffffffffff16635ab1bd536040518163ffffffff1660e01b8152600401602060405180830381865afa158015612d36573d6000803e3d6000fd5b505050506040513d601f19601f82011682018060405250810190612d5a9190615c30565b600460036101000a81548173ffffffffffffffffffffffffffffffffffffffff021916908373ffffffffffffffffffffffffffffffffffffffff160217905550612da46001612a86565b505050565b5050565b612db5613971565b80612dbf81611c23565b600080600085806020019051810190612dd89190615c72565b9250925092506000600760008573ffffffffffffffffffffffffffffffffffffffff1673ffffffffffffffffffffffffffffffffffffffff16815260200190815260200160002090506000600a60008673ffffffffffffffffffffffffffffffffffffffff1673ffffffffffffffffffffffffffffffffffffffff1681526020019081526020016000205414612e9a576040517fb9463a6000000000000000000000000000000000000000000000000000000000815260040160405180910390fd5b60026006811115612eae57612ead6143fe565b5b8160040160009054906101000a900460ff166006811115612ed257612ed16143fe565b5b14158015612f04575060026006811115612eef57612eee6143fe565b5b836006811115612f0257612f016143fe565b5b145b156130d55760007f000000000000000000000000000000000000000000000000000000000000000073ffffffffffffffffffffffffffffffffffffffff1663068bcd8d6001546040518263ffffffff1660e01b8152600401612f66919061463f565b600060405180830381865afa158015612f83573d6000803e3d6000fd5b505050506040513d6000823e3d601f19601f82011682018060405250810190612fac9190615064565b90508260056000828254612fc09190615840565b925050819055506002546005541115613005576040517f8e81b16f00000000000000000000000000000000000000000000000000000000815260040160405180910390fd5b82826001018190555060028260040160006101000a81548160ff02191690836006811115613036576130356143fe565b5b02179055507f94593b52aa436dd31a63e313045c2eb23d43eb2d6f5b4d7797b4432e7b27749085600260405161306d929190614ce1565b60405180910390a18473ffffffffffffffffffffffffffffffffffffffff167f463ffc2cf8b1596445c417388ed30e53eb67cf6668cb2be7f0addf8a78c8441b836001015483604001518a6040516130c793929190615cc5565b60405180910390a2506131ad565b600360068111156130e9576130e86143fe565b5b8160040160009054906101000a900460ff16600681111561310d5761310c6143fe565b5b1415801561313f57506003600681111561312a576131296143fe565b5b83600681111561313d5761313c6143fe565b5b145b156131ac5760038160040160006101000a81548160ff0219169083600681111561316c5761316b6143fe565b5b02179055507f94593b52aa436dd31a63e313045c2eb23d43eb2d6f5b4d7797b4432e7b2774908460036040516131a3929190614ce1565b60405180910390a15b5b50505050506131ba6139b7565b5050565b5050565b50565b50565b6000600a60008473ffffffffffffffffffffffffffffffffffffffff1673ffffffffffffffffffffffffffffffffffffffff1681526020019081526020016000205490506000600960008573ffffffffffffffffffffffffffffffffffffffff1673ffffffffffffffffffffffffffffffffffffffff16815260200190815260200160002090506000600760008673ffffffffffffffffffffffffffffffffffffffff1673ffffffffffffffffffffffffffffffffffffffff1681526020019081526020016000206040518060c00160405290816000820160009054906101000a900460ff161515151581526020016000820160019054906101000a900473ffffffffffffffffffffffffffffffffffffffff1673ffffffffffffffffffffffffffffffffffffffff1673ffffffffffffffffffffffffffffffffffffffff16815260200160018201548152602001600282016040518060400160405290816000820154815260200160018201805461334090614da4565b80601f016020809104026020016040519081016040528092919081815260200182805461336c90614da4565b80156133b95780601f1061338e576101008083540402835291602001916133b9565b820191906000526020600020905b81548152906001019060200180831161339c57829003601f168201915b50505050508152505081526020016004820160009054906101000a900460ff1660068111156133eb576133ea6143fe565b5b60068111156133fd576133fc6143fe565b5b81526020016004820160019054906101000a900460ff166006811115613426576134256143fe565b5b6006811115613438576134376143fe565b5b815250509050600082848154811061345357613452614c7b565b5b9060005260206000209060040201905082805490508411806134ab575060016006811115613484576134836143fe565b5b8160030160009054906101000a900460ff1660068111156134a8576134a76143fe565b5b14155b156134e2576040517f5e3ed1c200000000000000000000000000000000000000000000000000000000815260040160405180910390fd5b6000670de0b6b3a7640000826000015484604001516135019190615cfc565b61350b9190615d6d565b905060007f000000000000000000000000000000000000000000000000000000000000000073ffffffffffffffffffffffffffffffffffffffff1663068bcd8d6001546040518263ffffffff1660e01b815260040161356a919061463f565b600060405180830381865afa158015613587573d6000803e3d6000fd5b505050506040513d6000823e3d601f19601f820116820180604052508101906135b09190615064565b905081600260008282546135c49190614e04565b925050819055506135de816040015185602001518461272d565b60028360030160006101000a81548160ff02191690836006811115613606576136056143fe565b5b0217905550600a60008973ffffffffffffffffffffffffffffffffffffffff1673ffffffffffffffffffffffffffffffffffffffff168152602001908152602001600020600081548092919061365b90615baa565b91905055507ff1af82b65c631a030029b10ea8f00f68290285c7c797644155b8f23969ca1d638887600260405161369493929190614caa565b60405180910390a18773ffffffffffffffffffffffffffffffffffffffff167fb5b51454adfa840bd593658325a60a50b0216f12eb5d2937efe6cea935675b7d8560200151848a6040516136ea93929190615d9e565b60405180910390a25050505050505050565b60008054906101000a900460ff16613740576040517fcfe7975b00000000000000000000000000000000000000000000000000000000815260040160405180910390fd5b565b60003860003884865af161375e5763b12d13eb6000526004601cfd5b5050565b81601452806034526fa9059cbb00000000000000000000000060005260206000604460106000875af13d1560016000511417166137a7576390b8ec186000526004601cfd5b6000603452505050565b6137b9611cfa565b6000600154146137f5576040517f439a74c900000000000000000000000000000000000000000000000000000000815260040160405180910390fd5b6000810361382f576040517f7fcce2a900000000000000000000000000000000000000000000000000000000815260040160405180910390fd5b8060018190555050565b6138d1828260405160240161384f929190615e1f565b6040516020818303038152906040527f319af333000000000000000000000000000000000000000000000000000000007bffffffffffffffffffffffffffffffffffffffffffffffffffffffff19166020820180517bffffffffffffffffffffffffffffffffffffffffffffffffffffffff83818316178352505050506139c1565b5050565b61396d82826040516024016138eb929190615e4f565b6040516020818303038152906040527fb60e72cc000000000000000000000000000000000000000000000000000000007bffffffffffffffffffffffffffffffffffffffffffffffffffffffff19166020820180517bffffffffffffffffffffffffffffffffffffffffffffffffffffffff83818316178352505050506139c1565b5050565b6002600354036139ad576040517f3ee5aeb500000000000000000000000000000000000000000000000000000000815260040160405180910390fd5b6002600381905550565b6001600381905550565b6139d8816139d06139db6139fc565b63ffffffff16565b50565b60006a636f6e736f6c652e6c6f679050600080835160208501845afa505050565b613aed819050919050565b6040518060c00160405280600015158152602001600073ffffffffffffffffffffffffffffffffffffffff16815260200160008152602001613a47613ad3565b815260200160006006811115613a6057613a5f6143fe565b5b815260200160006006811115613a7957613a786143fe565b5b81525090565b6040518060400160405280600073ffffffffffffffffffffffffffffffffffffffff168152602001600081525090565b5080546000825560040290600052602060002090810190613ad09190613af7565b50565b604051806040016040528060008152602001606081525090565b613af5615e7f565b565b5b80821115613b455760008082016000905560018201600080820160009055600182016000613b269190613b49565b50506003820160006101000a81549060ff021916905550600401613af8565b5090565b508054613b5590614da4565b6000825580601f10613b675750613b86565b601f016020900490600052602060002090810190613b859190613b89565b5b50565b5b80821115613ba2576000816000905550600101613b8a565b5090565b6000604051905090565b600080fd5b600080fd5b600073ffffffffffffffffffffffffffffffffffffffff82169050919050565b6000613be582613bba565b9050919050565b613bf581613bda565b8114613c0057600080fd5b50565b600081359050613c1281613bec565b92915050565b6000819050919050565b613c2b81613c18565b8114613c3657600080fd5b50565b600081359050613c4881613c22565b92915050565b60008060408385031215613c6557613c64613bb0565b5b6000613c7385828601613c03565b9250506020613c8485828601613c39565b9150509250929050565b60078110613c9b57600080fd5b50565b600081359050613cad81613c8e565b92915050565b60008060408385031215613cca57613cc9613bb0565b5b6000613cd885828601613c03565b9250506020613ce985828601613c9e565b9150509250929050565b600080fd5b6000601f19601f8301169050919050565b7f4e487b7100000000000000000000000000000000000000000000000000000000600052604160045260246000fd5b613d4182613cf8565b810181811067ffffffffffffffff82111715613d6057613d5f613d09565b5b80604052505050565b6000613d73613ba6565b9050613d7f8282613d38565b919050565b600067ffffffffffffffff821115613d9f57613d9e613d09565b5b602082029050602081019050919050565b600080fd5b6000613dc8613dc384613d84565b613d69565b90508083825260208201905060208402830185811115613deb57613dea613db0565b5b835b81811015613e145780613e008882613c03565b845260208401935050602081019050613ded565b5050509392505050565b600082601f830112613e3357613e32613cf3565b5b8135613e43848260208601613db5565b91505092915050565b600080fd5b600067ffffffffffffffff821115613e6c57613e6b613d09565b5b613e7582613cf8565b9050602081019050919050565b82818337600083830152505050565b6000613ea4613e9f84613e51565b613d69565b905082815260208101848484011115613ec057613ebf613e4c565b5b613ecb848285613e82565b509392505050565b600082601f830112613ee857613ee7613cf3565b5b8135613ef8848260208601613e91565b91505092915050565b600080600060608486031215613f1a57613f19613bb0565b5b600084013567ffffffffffffffff811115613f3857613f37613bb5565b5b613f4486828701613e1e565b935050602084013567ffffffffffffffff811115613f6557613f64613bb5565b5b613f7186828701613ed3565b9250506040613f8286828701613c03565b9150509250925092565b600067ffffffffffffffff821115613fa757613fa6613d09565b5b602082029050602081019050919050565b600080fd5b600080fd5b600067ffffffffffffffff821115613fdd57613fdc613d09565b5b613fe682613cf8565b9050602081019050919050565b600061400661400184613fc2565b613d69565b90508281526020810184848401111561402257614021613e4c565b5b61402d848285613e82565b509392505050565b600082601f83011261404a57614049613cf3565b5b813561405a848260208601613ff3565b91505092915050565b60006040828403121561407957614078613fb8565b5b6140836040613d69565b9050600061409384828501613c39565b600083015250602082013567ffffffffffffffff8111156140b7576140b6613fbd565b5b6140c384828501614035565b60208301525092915050565b6000606082840312156140e5576140e4613fb8565b5b6140ef6060613d69565b905060006140ff84828501613c39565b600083015250602082013567ffffffffffffffff81111561412357614122613fbd565b5b61412f84828501614063565b602083015250604061414384828501613c9e565b60408301525092915050565b600061416261415d84613f8c565b613d69565b9050808382526020820190506020840283018581111561418557614184613db0565b5b835b818110156141cc57803567ffffffffffffffff8111156141aa576141a9613cf3565b5b8086016141b789826140cf565b85526020850194505050602081019050614187565b5050509392505050565b600082601f8301126141eb576141ea613cf3565b5b81356141fb84826020860161414f565b91505092915050565b6000806040838503121561421b5761421a613bb0565b5b600061422985828601613c03565b925050602083013567ffffffffffffffff81111561424a57614249613bb5565b5b614256858286016141d6565b9150509250929050565b6000819050919050565b600061428561428061427b84613bba565b614260565b613bba565b9050919050565b60006142978261426a565b9050919050565b60006142a98261428c565b9050919050565b6142b98161429e565b82525050565b60006020820190506142d460008301846142b0565b92915050565b6000602082840312156142f0576142ef613bb0565b5b60006142fe84828501613c03565b91505092915050565b600081519050919050565b600082825260208201905092915050565b6000819050602082019050919050565b61433c81613c18565b82525050565b600081519050919050565b600082825260208201905092915050565b60005b8381101561437c578082015181840152602081019050614361565b60008484015250505050565b600061439382614342565b61439d818561434d565b93506143ad81856020860161435e565b6143b681613cf8565b840191505092915050565b60006040830160008301516143d96000860182614333565b50602083015184820360208601526143f18282614388565b9150508091505092915050565b7f4e487b7100000000000000000000000000000000000000000000000000000000600052602160045260246000fd5b6007811061443e5761443d6143fe565b5b50565b600081905061444f8261442d565b919050565b600061445f82614441565b9050919050565b61446f81614454565b82525050565b600060608301600083015161448d6000860182614333565b50602083015184820360208601526144a582826143c1565b91505060408301516144ba6040860182614466565b508091505092915050565b60006144d18383614475565b905092915050565b6000602082019050919050565b60006144f182614307565b6144fb8185614312565b93508360208202850161450d85614323565b8060005b85811015614549578484038952815161452a85826144c5565b9450614535836144d9565b925060208a01995050600181019050614511565b50829750879550505050505092915050565b6000602082019050818103600083015261457581846144e6565b905092915050565b6000806040838503121561459457614593613bb0565b5b600083013567ffffffffffffffff8111156145b2576145b1613bb5565b5b6145be85828601613ed3565b92505060206145cf85828601613c03565b9150509250929050565b6145e281613bda565b82525050565b60006020820190506145fd60008301846145d9565b92915050565b60006020828403121561461957614618613bb0565b5b600061462784828501613c39565b91505092915050565b61463981613c18565b82525050565b60006020820190506146546000830184614630565b92915050565b600080fd5b60008083601f84011261467557614674613cf3565b5b8235905067ffffffffffffffff8111156146925761469161465a565b5b6020830191508360208202830111156146ae576146ad613db0565b5b9250929050565b600080602083850312156146cc576146cb613bb0565b5b600083013567ffffffffffffffff8111156146ea576146e9613bb5565b5b6146f68582860161465f565b92509250509250929050565b600080fd5b60006040828403121561471d5761471c614702565b5b81905092915050565b60008060006060848603121561473f5761473e613bb0565b5b600061474d86828701613c03565b935050602061475e86828701613c39565b925050604084013567ffffffffffffffff81111561477f5761477e613bb5565b5b61478b86828701614707565b9150509250925092565b6000819050919050565b6147a881614795565b82525050565b60006020820190506147c3600083018461479f565b92915050565b60008115159050919050565b6147de816147c9565b82525050565b60006020820190506147f960008301846147d5565b92915050565b614808816147c9565b82525050565b61481781613bda565b82525050565b600060c08301600083015161483560008601826147ff565b506020830151614848602086018261480e565b50604083015161485b6040860182614333565b506060830151848203606086015261487382826143c1565b91505060808301516148886080860182614466565b5060a083015161489b60a0860182614466565b508091505092915050565b600060208201905081810360008301526148c0818461481d565b905092915050565b600067ffffffffffffffff8211156148e3576148e2613d09565b5b602082029050602081019050919050565b6000614907614902846148c8565b613d69565b9050808382526020820190506020840283018581111561492a57614929613db0565b5b835b8181101561497157803567ffffffffffffffff81111561494f5761494e613cf3565b5b80860161495c8982613ed3565b8552602085019450505060208101905061492c565b5050509392505050565b600082601f8301126149905761498f613cf3565b5b81356149a08482602086016148f4565b91505092915050565b600080604083850312156149c0576149bf613bb0565b5b600083013567ffffffffffffffff8111156149de576149dd613bb5565b5b6149ea85828601613e1e565b925050602083013567ffffffffffffffff811115614a0b57614a0a613bb5565b5b614a178582860161497b565b9150509250929050565b600081519050919050565b600082825260208201905092915050565b6000819050602082019050919050565b604082016000820151614a63600085018261480e565b506020820151614a766020850182614333565b50505050565b6000614a888383614a4d565b60408301905092915050565b6000602082019050919050565b6000614aac82614a21565b614ab68185614a2c565b9350614ac183614a3d565b8060005b83811015614af2578151614ad98882614a7c565b9750614ae483614a94565b925050600181019050614ac5565b5085935050505092915050565b60006020820190508181036000830152614b198184614aa1565b905092915050565b614b2a816147c9565b8114614b3557600080fd5b50565b600081359050614b4781614b21565b92915050565b600060208284031215614b6357614b62613bb0565b5b6000614b7184828501614b38565b91505092915050565b6000604083016000830151614b926000860182614333565b5060208301518482036020860152614baa8282614388565b9150508091505092915050565b614bc081614454565b82525050565b6000606082019050614bdb6000830186614630565b8181036020830152614bed8185614b7a565b9050614bfc6040830184614bb7565b949350505050565b6000602082019050614c196000830184614bb7565b92915050565b60008060408385031215614c3657614c35613bb0565b5b6000614c4485828601613c39565b925050602083013567ffffffffffffffff811115614c6557614c64613bb5565b5b614c7185828601613ed3565b9150509250929050565b7f4e487b7100000000000000000000000000000000000000000000000000000000600052603260045260246000fd5b6000606082019050614cbf60008301866145d9565b614ccc6020830185614630565b614cd96040830184614bb7565b949350505050565b6000604082019050614cf660008301856145d9565b614d036020830184614bb7565b9392505050565b6000604082019050614d1f6000830185614630565b614d2c60208301846145d9565b9392505050565b600081519050614d4281614b21565b92915050565b600060208284031215614d5e57614d5d613bb0565b5b6000614d6c84828501614d33565b91505092915050565b7f4e487b7100000000000000000000000000000000000000000000000000000000600052602260045260246000fd5b60006002820490506001821680614dbc57607f821691505b602082108103614dcf57614dce614d75565b5b50919050565b7f4e487b7100000000000000000000000000000000000000000000000000000000600052601160045260246000fd5b6000614e0f82613c18565b9150614e1a83613c18565b9250828203905081811115614e3257614e31614dd5565b5b92915050565b614e4181614795565b8114614e4c57600080fd5b50565b600081519050614e5e81614e38565b92915050565b6000614e6f82613bda565b9050919050565b614e7f81614e64565b8114614e8a57600080fd5b50565b600081519050614e9c81614e76565b92915050565b600081519050614eb181613bec565b92915050565b600081519050614ec681613c22565b92915050565b6000614edf614eda84613fc2565b613d69565b905082815260208101848484011115614efb57614efa613e4c565b5b614f0684828561435e565b509392505050565b600082601f830112614f2357614f22613cf3565b5b8151614f33848260208601614ecc565b91505092915050565b600060408284031215614f5257614f51613fb8565b5b614f5c6040613d69565b90506000614f6c84828501614eb7565b600083015250602082015167ffffffffffffffff811115614f9057614f8f613fbd565b5b614f9c84828501614f0e565b60208301525092915050565b600060c08284031215614fbe57614fbd613fb8565b5b614fc860c0613d69565b90506000614fd884828501614e4f565b6000830152506020614fec84828501614e8d565b602083015250604061500084828501614ea2565b604083015250606082015167ffffffffffffffff81111561502457615023613fbd565b5b61503084828501614f3c565b606083015250608061504484828501614e4f565b60808301525060a061505884828501614e4f565b60a08301525092915050565b60006020828403121561507a57615079613bb0565b5b600082015167ffffffffffffffff81111561509857615097613bb5565b5b6150a484828501614fa8565b91505092915050565b600081356150ba81613c22565b80915050919050565b60008160001b9050919050565b60007fffffffffffffffffffffffffffffffffffffffffffffffffffffffffffffffff6150fc846150c3565b9350801983169250808416831791505092915050565b600061512d61512861512384613c18565b614260565b613c18565b9050919050565b6000819050919050565b61514782615112565b61515a61515382615134565b83546150d0565b8255505050565b600080fd5b600080fd5b600080fd5b6000808335600160200384360303811261518d5761518c615161565b5b80840192508235915067ffffffffffffffff8211156151af576151ae615166565b5b6020830192506001820236038313156151cb576151ca61516b565b5b509250929050565b600082905092915050565b60008190508160005260206000209050919050565b60006020601f8301049050919050565b600082821b905092915050565b6000600883026152407fffffffffffffffffffffffffffffffffffffffffffffffffffffffffffffffff82615203565b61524a8683615203565b95508019841693508086168417925050509392505050565b61526b83615112565b61527f61527782615134565b848454615210565b825550505050565b600090565b615294615287565b61529f818484615262565b505050565b5b818110156152c3576152b860008261528c565b6001810190506152a5565b5050565b601f821115615308576152d9816151de565b6152e2846151f3565b810160208510156152f1578190505b6153056152fd856151f3565b8301826152a4565b50505b505050565b600082821c905092915050565b600061532b6000198460080261530d565b1980831691505092915050565b6000615344838361531a565b9150826002028217905092915050565b61535e83836151d3565b67ffffffffffffffff81111561537757615376613d09565b5b6153818254614da4565b61538c8282856152c7565b6000601f8311600181146153bb57600084156153a9578287013590505b6153b38582615338565b86555061541b565b601f1984166153c9866151de565b60005b828110156153f1578489013582556001820191506020850194506020810190506153cc565b8683101561540e578489013561540a601f89168261531a565b8355505b6001600288020188555050505b50505050505050565b61542f838383615354565b505050565b600081016000830180615446816150ad565b9050615452818461513e565b50505060018101602083016154678185615170565b615472818386615424565b505050505050565b6154848282615434565b5050565b60006154976020840184613c39565b905092915050565b600080fd5b600080fd5b600080fd5b600080833560016020038436030381126154cb576154ca6154a9565b5b83810192508235915060208301925067ffffffffffffffff8211156154f3576154f261549f565b5b600182023603831315615509576155086154a4565b5b509250929050565b600061551d838561434d565b935061552a838584613e82565b61553383613cf8565b840190509392505050565b6000604083016155516000840184615488565b61555e6000860182614333565b5061556c60208401846154ae565b858303602087015261557f838284615511565b925050508091505092915050565b60006060820190506155a260008301866145d9565b6155af6020830185614630565b81810360408301526155c1818461553e565b9050949350505050565b600067ffffffffffffffff8211156155e6576155e5613d09565b5b602082029050602081019050919050565b60006040828403121561560d5761560c613fb8565b5b6156176040613d69565b9050600061562784828501614ea2565b600083015250602061563b84828501614eb7565b60208301525092915050565b600061565a615655846155cb565b613d69565b9050808382526020820190506040840283018581111561567d5761567c613db0565b5b835b818110156156a6578061569288826155f7565b84526020840193505060408101905061567f565b5050509392505050565b600082601f8301126156c5576156c4613cf3565b5b81516156d5848260208601615647565b91505092915050565b6000608082840312156156f4576156f3613fb8565b5b6156fe6080613d69565b9050600061570e84828501614d33565b600083015250602061572284828501614d33565b602083015250604061573684828501614d33565b604083015250606082015167ffffffffffffffff81111561575a57615759613fbd565b5b615766848285016156b0565b60608301525092915050565b60006020828403121561578857615787613bb0565b5b600082015167ffffffffffffffff8111156157a6576157a5613bb5565b5b6157b2848285016156de565b91505092915050565b600081519050919050565b600082825260208201905092915050565b60006157e2826157bb565b6157ec81856157c6565b93506157fc81856020860161435e565b61580581613cf8565b840191505092915050565b60006040820190506158256000830185614630565b818103602083015261583781846157d7565b90509392505050565b600061584b82613c18565b915061585683613c18565b925082820190508082111561586e5761586d614dd5565b5b92915050565b600060c0828403121561588a57615889613fb8565b5b61589460c0613d69565b905060006158a484828501614e4f565b60008301525060206158b884828501614eb7565b602083015250604082015167ffffffffffffffff8111156158dc576158db613fbd565b5b6158e884828501614f0e565b604083015250606082015167ffffffffffffffff81111561590c5761590b613fbd565b5b61591884828501614f3c565b606083015250608061592c84828501614ea2565b60808301525060a061594084828501614ea2565b60a08301525092915050565b60006020828403121561596257615961613bb0565b5b600082015167ffffffffffffffff8111156159805761597f613bb5565b5b61598c84828501615874565b91505092915050565b60006040820190506159aa600083018561479f565b6159b760208301846145d9565b9392505050565b6159c782614342565b67ffffffffffffffff8111156159e0576159df613d09565b5b6159ea8254614da4565b6159f58282856152c7565b600060209050601f831160018114615a285760008415615a16578287015190505b615a208582615338565b865550615a88565b601f198416615a36866151de565b60005b82811015615a5e57848901518255600182019150602085019450602081019050615a39565b86831015615a7b5784890151615a77601f89168261531a565b8355505b6001600288020188555050505b505050505050565b6000604082019050615aa560008301856145d9565b615ab26020830184614630565b9392505050565b6000615ac482613bba565b9050919050565b615ad481615ab9565b8114615adf57600080fd5b50565b600081519050615af181615acb565b92915050565b60008060008060808587031215615b1157615b10613bb0565b5b6000615b1f87828801615ae2565b9450506020615b3087828801615ae2565b9350506040615b4187828801614eb7565b925050606085015167ffffffffffffffff811115615b6257615b61613bb5565b5b615b6e87828801614f3c565b91505092959194509250565b60006040820190508181036000830152615b9481856157d7565b9050615ba360208301846145d9565b9392505050565b6000615bb582613c18565b91507fffffffffffffffffffffffffffffffffffffffffffffffffffffffffffffffff8203615be757615be6614dd5565b5b600182019050919050565b6000615bfd82613bda565b9050919050565b615c0d81615bf2565b8114615c1857600080fd5b50565b600081519050615c2a81615c04565b92915050565b600060208284031215615c4657615c45613bb0565b5b6000615c5484828501615c1b565b91505092915050565b600081519050615c6c81613c8e565b92915050565b600080600060608486031215615c8b57615c8a613bb0565b5b6000615c9986828701615ae2565b9350506020615caa86828701615c5d565b9250506040615cbb86828701614eb7565b9150509250925092565b6000606082019050615cda6000830186614630565b615ce760208301856145d9565b615cf460408301846145d9565b949350505050565b6000615d0782613c18565b9150615d1283613c18565b9250828202615d2081613c18565b91508282048414831517615d3757615d36614dd5565b5b5092915050565b7f4e487b7100000000000000000000000000000000000000000000000000000000600052601260045260246000fd5b6000615d7882613c18565b9150615d8383613c18565b925082615d9357615d92615d3e565b5b828204905092915050565b6000606082019050615db360008301866145d9565b615dc06020830185614630565b615dcd60408301846145d9565b949350505050565b600082825260208201905092915050565b6000615df182614342565b615dfb8185615dd5565b9350615e0b81856020860161435e565b615e1481613cf8565b840191505092915050565b60006040820190508181036000830152615e398185615de6565b9050615e4860208301846145d9565b9392505050565b60006040820190508181036000830152615e698185615de6565b9050615e786020830184614630565b9392505050565b7f4e487b7100000000000000000000000000000000000000000000000000000000600052605160045260246000fdfea264697066735822122068cc52e0a78747e46550deb70a6ab0f08321daa02ad14f803321746e6ad0da0d64736f6c63430008140033",
  "linkReferences": {},
  "deployedLinkReferences": {}
}