{
  "_format": "hh-sol-artifact-1",
  "contractName": "DirectGrantsSimpleStrategy",
  "sourceName": "contracts/DirectGrantsSimpleStrategy.sol",
  "abi": [
    {
      "inputs": [
        {
          "internalType": "address",
          "name": "_allo",
          "type": "address"
        },
        {
          "internalType": "string",
          "name": "_name",
          "type": "string"
        }
      ],
      "stateMutability": "nonpayable",
      "type": "constructor"
    },
    {
      "inputs": [],
      "name": "ALLOCATION_ACTIVE",
      "type": "error"
    },
    {
      "inputs": [],
      "name": "ALLOCATION_EXCEEDS_POOL_AMOUNT",
      "type": "error"
    },
    {
      "inputs": [],
      "name": "ALLOCATION_NOT_ACTIVE",
      "type": "error"
    },
    {
      "inputs": [],
      "name": "ALLOCATION_NOT_ENDED",
      "type": "error"
    },
    {
      "inputs": [],
      "name": "ALREADY_INITIALIZED",
      "type": "error"
    },
    {
      "inputs": [],
      "name": "AMOUNT_MISMATCH",
      "type": "error"
    },
    {
      "inputs": [],
      "name": "ANCHOR_ERROR",
      "type": "error"
    },
    {
      "inputs": [],
      "name": "ARRAY_MISMATCH",
      "type": "error"
    },
    {
      "inputs": [],
      "name": "INVALID",
      "type": "error"
    },
    {
      "inputs": [],
      "name": "INVALID_ADDRESS",
      "type": "error"
    },
    {
      "inputs": [],
      "name": "INVALID_FEE",
      "type": "error"
    },
    {
      "inputs": [],
      "name": "INVALID_METADATA",
      "type": "error"
    },
    {
      "inputs": [],
      "name": "INVALID_MILESTONE",
      "type": "error"
    },
    {
      "inputs": [],
      "name": "INVALID_REGISTRATION",
      "type": "error"
    },
    {
      "inputs": [],
      "name": "IS_APPROVED_STRATEGY",
      "type": "error"
    },
    {
      "inputs": [],
      "name": "MILESTONES_ALREADY_SET",
      "type": "error"
    },
    {
      "inputs": [],
      "name": "MILESTONE_ALREADY_ACCEPTED",
      "type": "error"
    },
    {
      "inputs": [],
      "name": "MISMATCH",
      "type": "error"
    },
    {
      "inputs": [],
      "name": "NONCE_NOT_AVAILABLE",
      "type": "error"
    },
    {
      "inputs": [],
      "name": "NOT_APPROVED_STRATEGY",
      "type": "error"
    },
    {
      "inputs": [],
      "name": "NOT_ENOUGH_FUNDS",
      "type": "error"
    },
    {
      "inputs": [],
      "name": "NOT_IMPLEMENTED",
      "type": "error"
    },
    {
      "inputs": [],
      "name": "NOT_INITIALIZED",
      "type": "error"
    },
    {
      "inputs": [],
      "name": "NOT_PENDING_OWNER",
      "type": "error"
    },
    {
      "inputs": [],
      "name": "POOL_ACTIVE",
      "type": "error"
    },
    {
      "inputs": [],
      "name": "POOL_INACTIVE",
      "type": "error"
    },
    {
      "inputs": [],
      "name": "RECIPIENT_ALREADY_ACCEPTED",
      "type": "error"
    },
    {
      "inputs": [
        {
          "internalType": "address",
          "name": "recipientId",
          "type": "address"
        }
      ],
      "name": "RECIPIENT_ERROR",
      "type": "error"
    },
    {
      "inputs": [],
      "name": "RECIPIENT_NOT_ACCEPTED",
      "type": "error"
    },
    {
      "inputs": [],
      "name": "REGISTRATION_NOT_ACTIVE",
      "type": "error"
    },
    {
      "inputs": [],
      "name": "ReentrancyGuardReentrantCall",
      "type": "error"
    },
    {
      "inputs": [],
      "name": "SUPPLY_IS_ALLOWED_ONLY_ONCE",
      "type": "error"
    },
    {
      "inputs": [],
      "name": "SUPPLY_NOT_FOUND",
      "type": "error"
    },
    {
      "inputs": [],
      "name": "UNAUTHORIZED",
      "type": "error"
    },
    {
      "inputs": [],
      "name": "ZERO_ADDRESS",
      "type": "error"
    },
    {
      "anonymous": false,
      "inputs": [
        {
          "indexed": true,
          "internalType": "address",
          "name": "recipientId",
          "type": "address"
        },
        {
          "indexed": false,
          "internalType": "uint256",
          "name": "amount",
          "type": "uint256"
        },
        {
          "indexed": false,
          "internalType": "address",
          "name": "token",
          "type": "address"
        },
        {
          "indexed": false,
          "internalType": "address",
          "name": "sender",
          "type": "address"
        }
      ],
      "name": "Allocated",
      "type": "event"
    },
    {
      "anonymous": false,
      "inputs": [
        {
          "indexed": true,
          "internalType": "address",
          "name": "recipientId",
          "type": "address"
        },
        {
          "indexed": false,
          "internalType": "address",
          "name": "recipientAddress",
          "type": "address"
        },
        {
          "indexed": false,
          "internalType": "uint256",
          "name": "amount",
          "type": "uint256"
        },
        {
          "indexed": false,
          "internalType": "address",
          "name": "sender",
          "type": "address"
        }
      ],
      "name": "Distributed",
      "type": "event"
    },
    {
      "anonymous": false,
      "inputs": [
        {
          "indexed": false,
          "internalType": "uint256",
          "name": "poolId",
          "type": "uint256"
        },
        {
          "indexed": false,
          "internalType": "bytes",
          "name": "data",
          "type": "bytes"
        }
      ],
      "name": "Initialized",
      "type": "event"
    },
    {
      "anonymous": false,
      "inputs": [
        {
          "indexed": false,
          "internalType": "address",
          "name": "recipientId",
          "type": "address"
        },
        {
          "indexed": false,
          "internalType": "uint256",
          "name": "milestoneId",
          "type": "uint256"
        },
        {
          "indexed": false,
          "internalType": "enum IStrategy.Status",
          "name": "status",
          "type": "uint8"
        }
      ],
      "name": "MilestoneStatusChanged",
      "type": "event"
    },
    {
      "anonymous": false,
      "inputs": [
        {
          "indexed": false,
          "internalType": "address",
          "name": "recipientId",
          "type": "address"
        },
        {
          "indexed": false,
          "internalType": "uint256",
          "name": "milestoneId",
          "type": "uint256"
        },
        {
          "components": [
            {
              "internalType": "uint256",
              "name": "protocol",
              "type": "uint256"
            },
            {
              "internalType": "string",
              "name": "pointer",
              "type": "string"
            }
          ],
          "indexed": false,
          "internalType": "struct Metadata",
          "name": "metadata",
          "type": "tuple"
        }
      ],
      "name": "MilestoneSubmitted",
      "type": "event"
    },
    {
      "anonymous": false,
      "inputs": [
        {
          "indexed": false,
          "internalType": "address",
          "name": "recipientId",
          "type": "address"
        },
        {
          "indexed": false,
          "internalType": "enum IStrategy.Status",
          "name": "status",
          "type": "uint8"
        }
      ],
      "name": "MilestonesReviewed",
      "type": "event"
    },
    {
      "anonymous": false,
      "inputs": [
        {
          "indexed": false,
          "internalType": "address",
          "name": "recipientId",
          "type": "address"
        },
        {
          "indexed": false,
          "internalType": "uint256",
          "name": "milestonesLength",
          "type": "uint256"
        }
      ],
      "name": "MilestonesSet",
      "type": "event"
    },
    {
      "anonymous": false,
      "inputs": [
        {
          "indexed": false,
          "internalType": "bool",
          "name": "active",
          "type": "bool"
        }
      ],
      "name": "PoolActive",
      "type": "event"
    },
    {
      "anonymous": false,
      "inputs": [
        {
          "indexed": false,
          "internalType": "address",
          "name": "recipientId",
          "type": "address"
        },
        {
          "indexed": false,
          "internalType": "enum IStrategy.Status",
          "name": "status",
          "type": "uint8"
        }
      ],
      "name": "RecipientStatusChanged",
      "type": "event"
    },
    {
      "anonymous": false,
      "inputs": [
        {
          "indexed": true,
          "internalType": "address",
          "name": "recipientId",
          "type": "address"
        },
        {
          "indexed": false,
          "internalType": "bytes",
          "name": "data",
          "type": "bytes"
        },
        {
          "indexed": false,
          "internalType": "address",
          "name": "sender",
          "type": "address"
        }
      ],
      "name": "Registered",
      "type": "event"
    },
    {
      "inputs": [],
      "name": "NATIVE",
      "outputs": [
        {
          "internalType": "address",
          "name": "",
          "type": "address"
        }
      ],
      "stateMutability": "view",
      "type": "function"
    },
    {
      "inputs": [
        {
          "internalType": "bytes",
          "name": "_data",
          "type": "bytes"
        },
        {
          "internalType": "address",
          "name": "_sender",
          "type": "address"
        }
      ],
      "name": "allocate",
      "outputs": [],
      "stateMutability": "payable",
      "type": "function"
    },
    {
      "inputs": [],
      "name": "allocatedGrantAmount",
      "outputs": [
        {
          "internalType": "uint256",
          "name": "",
          "type": "uint256"
        }
      ],
      "stateMutability": "view",
      "type": "function"
    },
    {
      "inputs": [
        {
          "internalType": "address[]",
          "name": "_recipientIds",
          "type": "address[]"
        },
        {
          "internalType": "bytes",
          "name": "_data",
          "type": "bytes"
        },
        {
          "internalType": "address",
          "name": "_sender",
          "type": "address"
        }
      ],
      "name": "distribute",
      "outputs": [],
      "stateMutability": "nonpayable",
      "type": "function"
    },
    {
      "inputs": [],
      "name": "getAllo",
      "outputs": [
        {
          "internalType": "contract IAllo",
          "name": "",
          "type": "address"
        }
      ],
      "stateMutability": "view",
      "type": "function"
    },
    {
      "inputs": [
        {
          "internalType": "address",
          "name": "_recipientId",
          "type": "address"
        },
        {
          "internalType": "uint256",
          "name": "_milestoneId",
          "type": "uint256"
        }
      ],
      "name": "getMilestoneStatus",
      "outputs": [
        {
          "internalType": "enum IStrategy.Status",
          "name": "",
          "type": "uint8"
        }
      ],
      "stateMutability": "view",
      "type": "function"
    },
    {
      "inputs": [
        {
          "internalType": "address",
          "name": "_recipientId",
          "type": "address"
        }
      ],
      "name": "getMilestones",
      "outputs": [
        {
          "components": [
            {
              "internalType": "uint256",
              "name": "amountPercentage",
              "type": "uint256"
            },
            {
              "components": [
                {
                  "internalType": "uint256",
                  "name": "protocol",
                  "type": "uint256"
                },
                {
                  "internalType": "string",
                  "name": "pointer",
                  "type": "string"
                }
              ],
              "internalType": "struct Metadata",
              "name": "metadata",
              "type": "tuple"
            },
            {
              "internalType": "enum IStrategy.Status",
              "name": "milestoneStatus",
              "type": "uint8"
            }
          ],
          "internalType": "struct DirectGrantsSimpleStrategy.Milestone[]",
          "name": "",
          "type": "tuple[]"
        }
      ],
      "stateMutability": "view",
      "type": "function"
    },
    {
      "inputs": [
        {
          "internalType": "address[]",
          "name": "_recipientIds",
          "type": "address[]"
        },
        {
          "internalType": "bytes[]",
          "name": "_data",
          "type": "bytes[]"
        }
      ],
      "name": "getPayouts",
      "outputs": [
        {
          "components": [
            {
              "internalType": "address",
              "name": "recipientAddress",
              "type": "address"
            },
            {
              "internalType": "uint256",
              "name": "amount",
              "type": "uint256"
            }
          ],
          "internalType": "struct IStrategy.PayoutSummary[]",
          "name": "",
          "type": "tuple[]"
        }
      ],
      "stateMutability": "view",
      "type": "function"
    },
    {
      "inputs": [],
      "name": "getPoolAmount",
      "outputs": [
        {
          "internalType": "uint256",
          "name": "",
          "type": "uint256"
        }
      ],
      "stateMutability": "view",
      "type": "function"
    },
    {
      "inputs": [],
      "name": "getPoolId",
      "outputs": [
        {
          "internalType": "uint256",
          "name": "",
          "type": "uint256"
        }
      ],
      "stateMutability": "view",
      "type": "function"
    },
    {
      "inputs": [
        {
          "internalType": "address",
          "name": "_recipientId",
          "type": "address"
        }
      ],
      "name": "getRecipient",
      "outputs": [
        {
          "components": [
            {
              "internalType": "bool",
              "name": "useRegistryAnchor",
              "type": "bool"
            },
            {
              "internalType": "address",
              "name": "recipientAddress",
              "type": "address"
            },
            {
              "internalType": "uint256",
              "name": "grantAmount",
              "type": "uint256"
            },
            {
              "components": [
                {
                  "internalType": "uint256",
                  "name": "protocol",
                  "type": "uint256"
                },
                {
                  "internalType": "string",
                  "name": "pointer",
                  "type": "string"
                }
              ],
              "internalType": "struct Metadata",
              "name": "metadata",
              "type": "tuple"
            },
            {
              "internalType": "enum IStrategy.Status",
              "name": "recipientStatus",
              "type": "uint8"
            },
            {
              "internalType": "enum IStrategy.Status",
              "name": "milestonesReviewStatus",
              "type": "uint8"
            }
          ],
          "internalType": "struct DirectGrantsSimpleStrategy.Recipient",
          "name": "",
          "type": "tuple"
        }
      ],
      "stateMutability": "view",
      "type": "function"
    },
    {
      "inputs": [
        {
          "internalType": "address",
          "name": "_recipientId",
          "type": "address"
        }
      ],
      "name": "getRecipientStatus",
      "outputs": [
        {
          "internalType": "enum IStrategy.Status",
          "name": "",
          "type": "uint8"
        }
      ],
      "stateMutability": "view",
      "type": "function"
    },
    {
      "inputs": [],
      "name": "getStrategyId",
      "outputs": [
        {
          "internalType": "bytes32",
          "name": "",
          "type": "bytes32"
        }
      ],
      "stateMutability": "view",
      "type": "function"
    },
    {
      "inputs": [],
      "name": "grantAmountRequired",
      "outputs": [
        {
          "internalType": "bool",
          "name": "",
          "type": "bool"
        }
      ],
      "stateMutability": "view",
      "type": "function"
    },
    {
      "inputs": [
        {
          "internalType": "uint256",
          "name": "_amount",
          "type": "uint256"
        }
      ],
      "name": "increasePoolAmount",
      "outputs": [],
      "stateMutability": "nonpayable",
      "type": "function"
    },
    {
      "inputs": [
        {
          "internalType": "uint256",
          "name": "_poolId",
          "type": "uint256"
        },
        {
          "internalType": "bytes",
          "name": "_data",
          "type": "bytes"
        }
      ],
      "name": "initialize",
      "outputs": [],
      "stateMutability": "nonpayable",
      "type": "function"
    },
    {
      "inputs": [],
      "name": "isPoolActive",
      "outputs": [
        {
          "internalType": "bool",
          "name": "",
          "type": "bool"
        }
      ],
      "stateMutability": "view",
      "type": "function"
    },
    {
      "inputs": [
        {
          "internalType": "address",
          "name": "_allocator",
          "type": "address"
        }
      ],
      "name": "isValidAllocator",
      "outputs": [
        {
          "internalType": "bool",
          "name": "",
          "type": "bool"
        }
      ],
      "stateMutability": "view",
      "type": "function"
    },
    {
      "inputs": [],
      "name": "metadataRequired",
      "outputs": [
        {
          "internalType": "bool",
          "name": "",
          "type": "bool"
        }
      ],
      "stateMutability": "view",
      "type": "function"
    },
    {
      "inputs": [
        {
          "internalType": "address",
          "name": "",
          "type": "address"
        },
        {
          "internalType": "uint256",
          "name": "",
          "type": "uint256"
        }
      ],
      "name": "milestones",
      "outputs": [
        {
          "internalType": "uint256",
          "name": "amountPercentage",
          "type": "uint256"
        },
        {
          "components": [
            {
              "internalType": "uint256",
              "name": "protocol",
              "type": "uint256"
            },
            {
              "internalType": "string",
              "name": "pointer",
              "type": "string"
            }
          ],
          "internalType": "struct Metadata",
          "name": "metadata",
          "type": "tuple"
        },
        {
          "internalType": "enum IStrategy.Status",
          "name": "milestoneStatus",
          "type": "uint8"
        }
      ],
      "stateMutability": "view",
      "type": "function"
    },
    {
      "inputs": [
        {
          "internalType": "bytes",
          "name": "_data",
          "type": "bytes"
        },
        {
          "internalType": "address",
          "name": "_sender",
          "type": "address"
        }
      ],
      "name": "registerRecipient",
      "outputs": [
        {
          "internalType": "address",
          "name": "recipientId",
          "type": "address"
        }
      ],
      "stateMutability": "payable",
      "type": "function"
    },
    {
      "inputs": [],
      "name": "registryGating",
      "outputs": [
        {
          "internalType": "bool",
          "name": "",
          "type": "bool"
        }
      ],
      "stateMutability": "view",
      "type": "function"
    },
    {
      "inputs": [
        {
          "internalType": "address",
          "name": "_recipientId",
          "type": "address"
        },
        {
          "internalType": "uint256",
          "name": "_milestoneId",
          "type": "uint256"
        }
      ],
      "name": "rejectMilestone",
      "outputs": [],
      "stateMutability": "nonpayable",
      "type": "function"
    },
    {
      "inputs": [
        {
          "internalType": "address",
          "name": "_recipientId",
          "type": "address"
        },
        {
          "internalType": "enum IStrategy.Status",
          "name": "_status",
          "type": "uint8"
        }
      ],
      "name": "reviewSetMilestones",
      "outputs": [],
      "stateMutability": "nonpayable",
      "type": "function"
    },
    {
      "inputs": [
        {
          "internalType": "address",
          "name": "_recipientId",
          "type": "address"
        },
        {
          "components": [
            {
              "internalType": "uint256",
              "name": "amountPercentage",
              "type": "uint256"
            },
            {
              "components": [
                {
                  "internalType": "uint256",
                  "name": "protocol",
                  "type": "uint256"
                },
                {
                  "internalType": "string",
                  "name": "pointer",
                  "type": "string"
                }
              ],
              "internalType": "struct Metadata",
              "name": "metadata",
              "type": "tuple"
            },
            {
              "internalType": "enum IStrategy.Status",
              "name": "milestoneStatus",
              "type": "uint8"
            }
          ],
          "internalType": "struct DirectGrantsSimpleStrategy.Milestone[]",
          "name": "_milestones",
          "type": "tuple[]"
        }
      ],
      "name": "setMilestones",
      "outputs": [],
      "stateMutability": "nonpayable",
      "type": "function"
    },
    {
      "inputs": [
        {
          "internalType": "bool",
          "name": "_flag",
          "type": "bool"
        }
      ],
      "name": "setPoolActive",
      "outputs": [],
      "stateMutability": "nonpayable",
      "type": "function"
    },
    {
      "inputs": [
        {
          "internalType": "address[]",
          "name": "_recipientIds",
          "type": "address[]"
        }
      ],
      "name": "setRecipientStatusToInReview",
      "outputs": [],
      "stateMutability": "nonpayable",
      "type": "function"
    },
    {
      "inputs": [
        {
          "internalType": "address",
          "name": "_recipientId",
          "type": "address"
        },
        {
          "internalType": "uint256",
          "name": "_milestoneId",
          "type": "uint256"
        },
        {
          "components": [
            {
              "internalType": "uint256",
              "name": "protocol",
              "type": "uint256"
            },
            {
              "internalType": "string",
              "name": "pointer",
              "type": "string"
            }
          ],
          "internalType": "struct Metadata",
          "name": "_metadata",
          "type": "tuple"
        }
      ],
      "name": "submitMilestone",
      "outputs": [],
      "stateMutability": "nonpayable",
      "type": "function"
    },
    {
      "inputs": [
        {
          "internalType": "address",
          "name": "",
          "type": "address"
        }
      ],
      "name": "upcomingMilestone",
      "outputs": [
        {
          "internalType": "uint256",
          "name": "",
          "type": "uint256"
        }
      ],
      "stateMutability": "view",
      "type": "function"
    },
    {
      "inputs": [
        {
          "internalType": "uint256",
          "name": "_amount",
          "type": "uint256"
        }
      ],
      "name": "withdraw",
      "outputs": [],
      "stateMutability": "nonpayable",
      "type": "function"
    },
    {
      "stateMutability": "payable",
      "type": "receive"
    }
  ],
  "bytecode": "0x60c06040523480156200001157600080fd5b5060405162006168380380620061688339818101604052810190620000379190620002a7565b81818173ffffffffffffffffffffffffffffffffffffffff1660808173ffffffffffffffffffffffffffffffffffffffff1681525050806040516020016200008091906200036a565b6040516020818303038152906040528051906020012060a081815250505050600160038190555050506200038e565b6000604051905090565b600080fd5b600080fd5b600073ffffffffffffffffffffffffffffffffffffffff82169050919050565b6000620000f082620000c3565b9050919050565b6200010281620000e3565b81146200010e57600080fd5b50565b6000815190506200012281620000f7565b92915050565b600080fd5b600080fd5b6000601f19601f8301169050919050565b7f4e487b7100000000000000000000000000000000000000000000000000000000600052604160045260246000fd5b6200017d8262000132565b810181811067ffffffffffffffff821117156200019f576200019e62000143565b5b80604052505050565b6000620001b4620000af565b9050620001c2828262000172565b919050565b600067ffffffffffffffff821115620001e557620001e462000143565b5b620001f08262000132565b9050602081019050919050565b60005b838110156200021d57808201518184015260208101905062000200565b60008484015250505050565b6000620002406200023a84620001c7565b620001a8565b9050828152602081018484840111156200025f576200025e6200012d565b5b6200026c848285620001fd565b509392505050565b600082601f8301126200028c576200028b62000128565b5b81516200029e84826020860162000229565b91505092915050565b60008060408385031215620002c157620002c0620000b9565b5b6000620002d18582860162000111565b925050602083015167ffffffffffffffff811115620002f557620002f4620000be565b5b620003038582860162000274565b9150509250929050565b600081519050919050565b600082825260208201905092915050565b600062000336826200030d565b62000342818562000318565b935062000354818560208601620001fd565b6200035f8162000132565b840191505092915050565b6000602082019050818103600083015262000386818462000329565b905092915050565b60805160a051615d7c620003ec600039600061162f015260008181610b6801528181610ded0152818161100c01528181611abd01528181611b940152818161263001528181612b6501528181612da501526133a90152615d7c6000f3fe6080604052600436106101d15760003560e01c80639be2ccf5116100f7578063df868ed311610095578063edd146cc11610064578063edd146cc146106b0578063ef2920fc146106d9578063f5b0dfb7146106f5578063f83067e71461071e576101d8565b8063df868ed3146105e0578063e2372b581461060b578063e8eeb80614610648578063eb11af9314610673576101d8565b8063b2b878d0116100d1578063b2b878d014610510578063b5f620ce1461054d578063c7a892bf14610576578063cb0e85a6146105b5576101d8565b80639be2ccf51461048f578063a0cf0aea146104ba578063a647d23e146104e5576101d8565b80632e1a7d4d1161016f57806342fda9c71161013e57806342fda9c7146103bf5780634ab4ba42146103ea5780634d31d0871461041557806362812a3914610452576101d8565b80632e1a7d4d1461031957806338fff2d01461034257806339b25a9a1461036d5780633bf3577d14610396576101d8565b80630cfad8ee116101ab5780630cfad8ee1461025857806315cc481e1461028157806322a4e42d146102ac5780632bbe0cae146102e9576101d8565b8063068ae461146101dd57806309c4b8df146102065780630a6f0ee91461022f576101d8565b366101d857005b600080fd5b3480156101e957600080fd5b5061020460048036038101906101ff9190613ae6565b61075b565b005b34801561021257600080fd5b5061022d60048036038101906102289190613b4b565b6108ea565b005b34801561023b57600080fd5b5061025660048036038101906102519190613d99565b610aea565b005b34801561026457600080fd5b5061027f600480360381019061027a919061409c565b610b20565b005b34801561028d57600080fd5b50610296610de9565b6040516102a39190614157565b60405180910390f35b3480156102b857600080fd5b506102d360048036038101906102ce9190614172565b610e11565b6040516102e091906143f3565b60405180910390f35b61030360048036038101906102fe9190614415565b610fa4565b6040516103109190614480565b60405180910390f35b34801561032557600080fd5b50610340600480360381019061033b919061449b565b610fdc565b005b34801561034e57600080fd5b506103576110ba565b60405161036491906144d7565b60405180910390f35b34801561037957600080fd5b50610394600480360381019061038f919061454d565b6110c4565b005b3480156103a257600080fd5b506103bd60048036038101906103b891906145be565b6111c7565b005b3480156103cb57600080fd5b506103d461162b565b6040516103e19190614646565b60405180910390f35b3480156103f657600080fd5b506103ff611653565b60405161040c91906144d7565b60405180910390f35b34801561042157600080fd5b5061043c60048036038101906104379190614172565b61165d565b604051610449919061467c565b60405180910390f35b34801561045e57600080fd5b5061047960048036038101906104749190614172565b61166f565b604051610486919061473e565b60405180910390f35b34801561049b57600080fd5b506104a4611687565b6040516104b1919061467c565b60405180910390f35b3480156104c657600080fd5b506104cf61169a565b6040516104dc9190614480565b60405180910390f35b3480156104f157600080fd5b506104fa6116b2565b604051610507919061467c565b60405180910390f35b34801561051c57600080fd5b5061053760048036038101906105329190614841565b6116c5565b6040516105449190614997565b60405180910390f35b34801561055957600080fd5b50610574600480360381019061056f91906149e5565b6117df565b005b34801561058257600080fd5b5061059d60048036038101906105989190613ae6565b61182d565b6040516105ac93929190614a5e565b60405180910390f35b3480156105c157600080fd5b506105ca611927565b6040516105d7919061467c565b60405180910390f35b3480156105ec57600080fd5b506105f561193a565b604051610602919061467c565b60405180910390f35b34801561061757600080fd5b50610632600480360381019061062d9190614172565b611949565b60405161063f91906144d7565b60405180910390f35b34801561065457600080fd5b5061065d611961565b60405161066a91906144d7565b60405180910390f35b34801561067f57600080fd5b5061069a60048036038101906106959190614172565b611967565b6040516106a79190614a9c565b60405180910390f35b3480156106bc57600080fd5b506106d760048036038101906106d29190614ab7565b611979565b005b6106f360048036038101906106ee9190614415565b6119d9565b005b34801561070157600080fd5b5061071c6004803603810190610717919061449b565b611a0b565b005b34801561072a57600080fd5b5061074560048036038101906107409190613ae6565b611a41565b6040516107529190614a9c565b60405180910390f35b3361076581611abb565b6000600960008573ffffffffffffffffffffffffffffffffffffffff1673ffffffffffffffffffffffffffffffffffffffff168152602001908152602001600020905080805490508311156107e6576040517f5e3ed1c200000000000000000000000000000000000000000000000000000000815260040160405180910390fd5b60008184815481106107fb576107fa614b13565b5b906000526020600020906004020190506002600681111561081f5761081e614296565b5b8160030160009054906101000a900460ff16600681111561084357610842614296565b5b0361087a576040517ffe8dda4e00000000000000000000000000000000000000000000000000000000815260040160405180910390fd5b60038160030160006101000a81548160ff021916908360068111156108a2576108a1614296565b5b02179055507ff1af82b65c631a030029b10ea8f00f68290285c7c797644155b8f23969ca1d63858560036040516108db93929190614b42565b60405180910390a15050505050565b336108f481611abb565b6000600760008573ffffffffffffffffffffffffffffffffffffffff1673ffffffffffffffffffffffffffffffffffffffff16815260200190815260200160002090506000600960008673ffffffffffffffffffffffffffffffffffffffff1673ffffffffffffffffffffffffffffffffffffffff16815260200190815260200160002080549050036109b3576040517f5e3ed1c200000000000000000000000000000000000000000000000000000000815260040160405180910390fd5b600260068111156109c7576109c6614296565b5b8160040160019054906101000a900460ff1660068111156109eb576109ea614296565b5b03610a22576040517fb9463a6000000000000000000000000000000000000000000000000000000000815260040160405180910390fd5b60026006811115610a3657610a35614296565b5b836006811115610a4957610a48614296565b5b1480610a79575060036006811115610a6457610a63614296565b5b836006811115610a7757610a76614296565b5b145b15610ae457828160040160016101000a81548160ff02191690836006811115610aa557610aa4614296565b5b02179055507f30dae55c386c6176f3f7b7ee6ad4df33970f2e442cb0142e978cf78fd8ae138d8484604051610adb929190614b79565b60405180910390a15b50505050565b610af2611b92565b610afa611c19565b610b05838383611c57565b610b10838383611c5c565b610b1b838383611cb0565b505050565b60008273ffffffffffffffffffffffffffffffffffffffff163373ffffffffffffffffffffffffffffffffffffffff161480610b625750610b618333611cb5565b5b905060007f000000000000000000000000000000000000000000000000000000000000000073ffffffffffffffffffffffffffffffffffffffff166329e40d4b600154336040518363ffffffff1660e01b8152600401610bc3929190614ba2565b602060405180830381865afa158015610be0573d6000803e3d6000fd5b505050506040513d601f19601f82011682018060405250810190610c049190614be0565b905081158015610c12575080155b15610c49576040517f075fd2b100000000000000000000000000000000000000000000000000000000815260040160405180910390fd5b6000600760008673ffffffffffffffffffffffffffffffffffffffff1673ffffffffffffffffffffffffffffffffffffffff168152602001908152602001600020905060026006811115610ca057610c9f614296565b5b8160040160009054906101000a900460ff166006811115610cc457610cc3614296565b5b14610cfb576040517fe4b05bec00000000000000000000000000000000000000000000000000000000815260040160405180910390fd5b60026006811115610d0f57610d0e614296565b5b8160040160019054906101000a900460ff166006811115610d3357610d32614296565b5b03610d6a576040517fb9463a6000000000000000000000000000000000000000000000000000000000815260040160405180910390fd5b610d748585611e06565b8115610de25760028160040160016101000a81548160ff02191690836006811115610da257610da1614296565b5b02179055507f30dae55c386c6176f3f7b7ee6ad4df33970f2e442cb0142e978cf78fd8ae138d856002604051610dd9929190614b79565b60405180910390a15b5050505050565b60007f0000000000000000000000000000000000000000000000000000000000000000905090565b6060600960008373ffffffffffffffffffffffffffffffffffffffff1673ffffffffffffffffffffffffffffffffffffffff168152602001908152602001600020805480602002602001604051908101604052809291908181526020016000905b82821015610f995783829060005260206000209060040201604051806060016040529081600082015481526020016001820160405180604001604052908160008201548152602001600182018054610ec990614c3c565b80601f0160208091040260200160405190810160405280929190818152602001828054610ef590614c3c565b8015610f425780601f10610f1757610100808354040283529160200191610f42565b820191906000526020600020905b815481529060010190602001808311610f2557829003601f168201915b50505050508152505081526020016003820160009054906101000a900460ff166006811115610f7457610f73614296565b5b6006811115610f8657610f85614296565b5b8152505081526020019060010190610e72565b505050509050919050565b6000610fae611b92565b610fb6611c19565b610fc083836120a1565b610fca83836120a5565b9050610fd6838361257a565b92915050565b33610fe681611abb565b610fee61257e565b81600260008282546110009190614c9c565b925050819055506110b67f000000000000000000000000000000000000000000000000000000000000000073ffffffffffffffffffffffffffffffffffffffff1663068bcd8d6001546040518263ffffffff1660e01b815260040161106591906144d7565b600060405180830381865afa158015611082573d6000803e3d6000fd5b505050506040513d6000823e3d601f19601f820116820180604052508101906110ab9190614efc565b6040015133846125c5565b5050565b6000600154905090565b336110ce81611abb565b600083839050905060005b818110156111c05760008585838181106110f6576110f5614b13565b5b905060200201602081019061110b9190614172565b90506005600760008373ffffffffffffffffffffffffffffffffffffffff1673ffffffffffffffffffffffffffffffffffffffff16815260200190815260200160002060040160006101000a81548160ff0219169083600681111561117357611172614296565b5b02179055507f94593b52aa436dd31a63e313045c2eb23d43eb2d6f5b4d7797b4432e7b2774908160056040516111aa929190614b79565b60405180910390a18180600101925050506110d9565b5050505050565b3373ffffffffffffffffffffffffffffffffffffffff168373ffffffffffffffffffffffffffffffffffffffff161415801561120a57506112088333611cb5565b155b15611241576040517f075fd2b100000000000000000000000000000000000000000000000000000000815260040160405180910390fd5b6000600760008573ffffffffffffffffffffffffffffffffffffffff1673ffffffffffffffffffffffffffffffffffffffff1681526020019081526020016000206040518060c00160405290816000820160009054906101000a900460ff161515151581526020016000820160019054906101000a900473ffffffffffffffffffffffffffffffffffffffff1673ffffffffffffffffffffffffffffffffffffffff1673ffffffffffffffffffffffffffffffffffffffff16815260200160018201548152602001600282016040518060400160405290816000820154815260200160018201805461133290614c3c565b80601f016020809104026020016040519081016040528092919081815260200182805461135e90614c3c565b80156113ab5780601f10611380576101008083540402835291602001916113ab565b820191906000526020600020905b81548152906001019060200180831161138e57829003601f168201915b50505050508152505081526020016004820160009054906101000a900460ff1660068111156113dd576113dc614296565b5b60068111156113ef576113ee614296565b5b81526020016004820160019054906101000a900460ff16600681111561141857611417614296565b5b600681111561142a57611429614296565b5b8152505090506002600681111561144457611443614296565b5b8160800151600681111561145b5761145a614296565b5b14611492576040517fe4b05bec00000000000000000000000000000000000000000000000000000000815260040160405180910390fd5b6000600960008673ffffffffffffffffffffffffffffffffffffffff1673ffffffffffffffffffffffffffffffffffffffff16815260200190815260200160002090508080549050841115611513576040517f5e3ed1c200000000000000000000000000000000000000000000000000000000815260040160405180910390fd5b600081858154811061152857611527614b13565b5b906000526020600020906004020190506002600681111561154c5761154b614296565b5b8160030160009054906101000a900460ff1660068111156115705761156f614296565b5b036115a7576040517ffe8dda4e00000000000000000000000000000000000000000000000000000000815260040160405180910390fd5b838160010181816115b89190615312565b90505060018160030160006101000a81548160ff021916908360068111156115e3576115e2614296565b5b02179055507f8673cfb5a2cbad812463bdfd7c85511f29c804579a86d318889ab9251553996186868660405161161b93929190615425565b60405180910390a1505050505050565b60007f0000000000000000000000000000000000000000000000000000000000000000905090565b6000600254905090565b60006116688261262c565b9050919050565b61167761389f565b611680826126d3565b9050919050565b600460029054906101000a900460ff1681565b73eeeeeeeeeeeeeeeeeeeeeeeeeeeeeeeeeeeeeeee81565b600460009054906101000a900460ff1681565b606060008351905082518114611707576040517f7b49805600000000000000000000000000000000000000000000000000000000815260040160405180910390fd5b60008167ffffffffffffffff81111561172357611722613ba1565b5b60405190808252806020026020018201604052801561175c57816020015b611749613917565b8152602001906001900390816117415790505b50905060005b828110156117d3576117a88682815181106117805761177f614b13565b5b602002602001015186838151811061179b5761179a614b13565b5b60200260200101516128cd565b8282815181106117bb576117ba614b13565b5b60200260200101819052508080600101915050611762565b50809250505092915050565b336117e981611abb565b6117f28261291e565b7fd94c9bc4d43c51d8dc345a016d8e3d994432fac68e72832e4cf3a616bd8efae082604051611821919061467c565b60405180910390a15050565b6009602052816000526040600020818154811061184957600080fd5b906000526020600020906004020160009150915050806000015490806001016040518060400160405290816000820154815260200160018201805461188d90614c3c565b80601f01602080910402602001604051908101604052809291908181526020018280546118b990614c3c565b80156119065780601f106118db57610100808354040283529160200191611906565b820191906000526020600020905b8154815290600101906020018083116118e957829003601f168201915b505050505081525050908060030160009054906101000a900460ff16905083565b600460019054906101000a900460ff1681565b6000611944612971565b905090565b600a6020528060005260406000206000915090505481565b60055481565b600061197282612987565b9050919050565b60008180602001905181019061198f919061560a565b905061199b838261299d565b7f91efa3d50feccde0d0d202f8ae5c41ca0b2be614cebcb2bd2f4b019396e6568a83836040516119cc9291906156a8565b60405180910390a1505050565b6119e1611b92565b6119e9611c19565b6119f38282612c41565b6119fd8282612c45565b611a078282613056565b5050565b611a13611b92565b611a1c8161305a565b8060026000828254611a2e91906156d8565b92505081905550611a3e8161305d565b50565b6000600960008473ffffffffffffffffffffffffffffffffffffffff1673ffffffffffffffffffffffffffffffffffffffff1681526020019081526020016000208281548110611a9457611a93614b13565b5b906000526020600020906004020160030160009054906101000a900460ff16905092915050565b7f000000000000000000000000000000000000000000000000000000000000000073ffffffffffffffffffffffffffffffffffffffff166329e40d4b600154836040518363ffffffff1660e01b8152600401611b18929190614ba2565b602060405180830381865afa158015611b35573d6000803e3d6000fd5b505050506040513d601f19601f82011682018060405250810190611b599190614be0565b611b8f576040517f075fd2b100000000000000000000000000000000000000000000000000000000815260040160405180910390fd5b50565b7f000000000000000000000000000000000000000000000000000000000000000073ffffffffffffffffffffffffffffffffffffffff163373ffffffffffffffffffffffffffffffffffffffff1614611c17576040517f075fd2b100000000000000000000000000000000000000000000000000000000815260040160405180910390fd5b565b600060015403611c55576040517f3da3f98c00000000000000000000000000000000000000000000000000000000815260040160405180910390fd5b565b505050565b80611c6681611abb565b60008451905060005b81811015611ca857611c9b868281518110611c8d57611c8c614b13565b5b602002602001015185613060565b8080600101915050611c6f565b505050505050565b505050565b600080600460039054906101000a900473ffffffffffffffffffffffffffffffffffffffff1673ffffffffffffffffffffffffffffffffffffffff1663dd93da43856040518263ffffffff1660e01b8152600401611d139190614480565b600060405180830381865afa158015611d30573d6000803e3d6000fd5b505050506040513d6000823e3d601f19601f82011682018060405250810190611d5991906157e4565b9050600460039054906101000a900473ffffffffffffffffffffffffffffffffffffffff1673ffffffffffffffffffffffffffffffffffffffff16635e8a79158260000151856040518363ffffffff1660e01b8152600401611dbc92919061582d565b602060405180830381865afa158015611dd9573d6000803e3d6000fd5b505050506040513d601f19601f82011682018060405250810190611dfd9190614be0565b91505092915050565b600080600960008573ffffffffffffffffffffffffffffffffffffffff1673ffffffffffffffffffffffffffffffffffffffff168152602001908152602001600020805490501115611e9e57600960008473ffffffffffffffffffffffffffffffffffffffff1673ffffffffffffffffffffffffffffffffffffffff1681526020019081526020016000206000611e9d9190613947565b5b60008251905060005b81811015612020576000848281518110611ec457611ec3614b13565b5b6020026020010151905060006006811115611ee257611ee1614296565b5b81604001516006811115611ef957611ef8614296565b5b14611f30576040517f5e3ed1c200000000000000000000000000000000000000000000000000000000815260040160405180910390fd5b806000015184611f4091906156d8565b9350600960008773ffffffffffffffffffffffffffffffffffffffff1673ffffffffffffffffffffffffffffffffffffffff16815260200190815260200160002081908060018154018082558091505060019003906000526020600020906004020160009091909190915060008201518160000155602082015181600101600082015181600001556020820151816001019081611fdd9190615856565b50505060408201518160030160006101000a81548160ff0219169083600681111561200b5761200a614296565b5b02179055505050818060010192505050611ea7565b50670de0b6b3a76400008214612062576040517f5e3ed1c200000000000000000000000000000000000000000000000000000000815260040160405180910390fd5b7fb000fb1507aac2465ccb4f6bd1b601c7053279005e9e9932c41946b35c84949b8482604051612093929190615928565b60405180910390a150505050565b5050565b60006120af613594565b6000806000806120bd61396b565b600460009054906101000a900460ff161561213b57878060200190518101906120e6919061598f565b809450819550829850839950505050506121008688611cb5565b612136576040517f075fd2b100000000000000000000000000000000000000000000000000000000815260040160405180910390fd5b6121ed565b8780602001905181019061214f919061598f565b80945081955082975083985050505050600073ffffffffffffffffffffffffffffffffffffffff168473ffffffffffffffffffffffffffffffffffffffff16141592508261219d578461219f565b835b95508280156121b557506121b38688611cb5565b155b156121ec576040517f075fd2b100000000000000000000000000000000000000000000000000000000815260040160405180910390fd5b5b600460029054906101000a900460ff1680156122095750600082145b15612240576040517f03b167dd00000000000000000000000000000000000000000000000000000000815260040160405180910390fd5b6002600681111561225457612253614296565b5b600760008873ffffffffffffffffffffffffffffffffffffffff1673ffffffffffffffffffffffffffffffffffffffff16815260200190815260200160002060040160009054906101000a900460ff1660068111156122b6576122b5614296565b5b036122ed576040517f41d40fb800000000000000000000000000000000000000000000000000000000815260040160405180910390fd5b600460019054906101000a900460ff16801561231d57506000816020015151148061231c575060008160000151145b5b15612354576040517fc19e07c500000000000000000000000000000000000000000000000000000000815260040160405180910390fd5b60006040518060c00160405280600460009054906101000a900460ff1661237b578561237e565b60015b151581526020018773ffffffffffffffffffffffffffffffffffffffff168152602001848152602001838152602001600160068111156123c1576123c0614296565b5b8152602001600160068111156123da576123d9614296565b5b815250905080600760008973ffffffffffffffffffffffffffffffffffffffff1673ffffffffffffffffffffffffffffffffffffffff16815260200190815260200160002060008201518160000160006101000a81548160ff02191690831515021790555060208201518160000160016101000a81548173ffffffffffffffffffffffffffffffffffffffff021916908373ffffffffffffffffffffffffffffffffffffffff160217905550604082015181600101556060820151816002016000820151816000015560208201518160010190816124b89190615856565b50505060808201518160040160006101000a81548160ff021916908360068111156124e6576124e5614296565b5b021790555060a08201518160040160016101000a81548160ff0219169083600681111561251657612515614296565b5b02179055509050508673ffffffffffffffffffffffffffffffffffffffff167fa197306e3dd5494a61a695381aa809a53b8e377a685e84e404a85d5a8da6cc628a8a604051612566929190615a12565b60405180910390a250505050505092915050565b5050565b60008054906101000a900460ff16156125c3576040517fb186267000000000000000000000000000000000000000000000000000000000815260040160405180910390fd5b565b73eeeeeeeeeeeeeeeeeeeeeeeeeeeeeeeeeeeeeeee73ffffffffffffffffffffffffffffffffffffffff168373ffffffffffffffffffffffffffffffffffffffff160361261b5761261682826135da565b612627565b6126268383836135fa565b5b505050565b60007f000000000000000000000000000000000000000000000000000000000000000073ffffffffffffffffffffffffffffffffffffffff166329e40d4b600154846040518363ffffffff1660e01b815260040161268b929190614ba2565b602060405180830381865afa1580156126a8573d6000803e3d6000fd5b505050506040513d601f19601f820116820180604052508101906126cc9190614be0565b9050919050565b6126db61389f565b600760008373ffffffffffffffffffffffffffffffffffffffff1673ffffffffffffffffffffffffffffffffffffffff1681526020019081526020016000206040518060c00160405290816000820160009054906101000a900460ff161515151581526020016000820160019054906101000a900473ffffffffffffffffffffffffffffffffffffffff1673ffffffffffffffffffffffffffffffffffffffff1673ffffffffffffffffffffffffffffffffffffffff1681526020016001820154815260200160028201604051806040016040529081600082015481526020016001820180546127ca90614c3c565b80601f01602080910402602001604051908101604052809291908181526020018280546127f690614c3c565b80156128435780601f1061281857610100808354040283529160200191612843565b820191906000526020600020905b81548152906001019060200180831161282657829003601f168201915b50505050508152505081526020016004820160009054906101000a900460ff16600681111561287557612874614296565b5b600681111561288757612886614296565b5b81526020016004820160019054906101000a900460ff1660068111156128b0576128af614296565b5b60068111156128c2576128c1614296565b5b815250509050919050565b6128d5613917565b60006128e0846126d3565b90506040518060400160405280826020015173ffffffffffffffffffffffffffffffffffffffff168152602001826040015181525091505092915050565b806000806101000a81548160ff0219169083151502179055507fd94c9bc4d43c51d8dc345a016d8e3d994432fac68e72832e4cf3a616bd8efae081604051612966919061467c565b60405180910390a150565b60008060009054906101000a900460ff16905090565b6000612992826126d3565b608001519050919050565b6129a682613649565b8060000151600460006101000a81548160ff0219169083151502179055508060200151600460016101000a81548160ff0219169083151502179055508060400151600460026101000a81548160ff02191690831515021790555060008160600151905060005b8151811015612b6257612a726040518060400160405280601c81526020017f53747261746567792073657474696e67205355504c4945522049443a00000000815250838381518110612a6157612a60614b13565b5b6020026020010151600001516136d1565b612acf6040518060400160405280601f81526020017f53747261746567792073657474696e67205355504c49455220504f5745523a00815250838381518110612abe57612abd614b13565b5b60200260200101516020015161376d565b818181518110612ae257612ae1614b13565b5b60200260200101516020015160086000848481518110612b0557612b04614b13565b5b60200260200101516000015173ffffffffffffffffffffffffffffffffffffffff1673ffffffffffffffffffffffffffffffffffffffff168152602001908152602001600020819055508080612b5a90615a42565b915050612a0c565b507f000000000000000000000000000000000000000000000000000000000000000073ffffffffffffffffffffffffffffffffffffffff16635ab1bd536040518163ffffffff1660e01b8152600401602060405180830381865afa158015612bce573d6000803e3d6000fd5b505050506040513d601f19601f82011682018060405250810190612bf29190615ac8565b600460036101000a81548173ffffffffffffffffffffffffffffffffffffffff021916908373ffffffffffffffffffffffffffffffffffffffff160217905550612c3c600161291e565b505050565b5050565b612c4d613809565b80612c5781611abb565b600080600085806020019051810190612c709190615b0a565b9250925092506000600760008573ffffffffffffffffffffffffffffffffffffffff1673ffffffffffffffffffffffffffffffffffffffff16815260200190815260200160002090506000600a60008673ffffffffffffffffffffffffffffffffffffffff1673ffffffffffffffffffffffffffffffffffffffff1681526020019081526020016000205414612d32576040517fb9463a6000000000000000000000000000000000000000000000000000000000815260040160405180910390fd5b60026006811115612d4657612d45614296565b5b8160040160009054906101000a900460ff166006811115612d6a57612d69614296565b5b14158015612d9c575060026006811115612d8757612d86614296565b5b836006811115612d9a57612d99614296565b5b145b15612f6d5760007f000000000000000000000000000000000000000000000000000000000000000073ffffffffffffffffffffffffffffffffffffffff1663068bcd8d6001546040518263ffffffff1660e01b8152600401612dfe91906144d7565b600060405180830381865afa158015612e1b573d6000803e3d6000fd5b505050506040513d6000823e3d601f19601f82011682018060405250810190612e449190614efc565b90508260056000828254612e5891906156d8565b925050819055506002546005541115612e9d576040517f8e81b16f00000000000000000000000000000000000000000000000000000000815260040160405180910390fd5b82826001018190555060028260040160006101000a81548160ff02191690836006811115612ece57612ecd614296565b5b02179055507f94593b52aa436dd31a63e313045c2eb23d43eb2d6f5b4d7797b4432e7b277490856002604051612f05929190614b79565b60405180910390a18473ffffffffffffffffffffffffffffffffffffffff167f463ffc2cf8b1596445c417388ed30e53eb67cf6668cb2be7f0addf8a78c8441b836001015483604001518a604051612f5f93929190615b5d565b60405180910390a250613045565b60036006811115612f8157612f80614296565b5b8160040160009054906101000a900460ff166006811115612fa557612fa4614296565b5b14158015612fd7575060036006811115612fc257612fc1614296565b5b836006811115612fd557612fd4614296565b5b145b156130445760038160040160006101000a81548160ff0219169083600681111561300457613003614296565b5b02179055507f94593b52aa436dd31a63e313045c2eb23d43eb2d6f5b4d7797b4432e7b27749084600360405161303b929190614b79565b60405180910390a15b5b505050505061305261384f565b5050565b5050565b50565b50565b6000600a60008473ffffffffffffffffffffffffffffffffffffffff1673ffffffffffffffffffffffffffffffffffffffff1681526020019081526020016000205490506000600960008573ffffffffffffffffffffffffffffffffffffffff1673ffffffffffffffffffffffffffffffffffffffff16815260200190815260200160002090506000600760008673ffffffffffffffffffffffffffffffffffffffff1673ffffffffffffffffffffffffffffffffffffffff1681526020019081526020016000206040518060c00160405290816000820160009054906101000a900460ff161515151581526020016000820160019054906101000a900473ffffffffffffffffffffffffffffffffffffffff1673ffffffffffffffffffffffffffffffffffffffff1673ffffffffffffffffffffffffffffffffffffffff1681526020016001820154815260200160028201604051806040016040529081600082015481526020016001820180546131d890614c3c565b80601f016020809104026020016040519081016040528092919081815260200182805461320490614c3c565b80156132515780601f1061322657610100808354040283529160200191613251565b820191906000526020600020905b81548152906001019060200180831161323457829003601f168201915b50505050508152505081526020016004820160009054906101000a900460ff16600681111561328357613282614296565b5b600681111561329557613294614296565b5b81526020016004820160019054906101000a900460ff1660068111156132be576132bd614296565b5b60068111156132d0576132cf614296565b5b81525050905060008284815481106132eb576132ea614b13565b5b90600052602060002090600402019050828054905084118061334357506001600681111561331c5761331b614296565b5b8160030160009054906101000a900460ff1660068111156133405761333f614296565b5b14155b1561337a576040517f5e3ed1c200000000000000000000000000000000000000000000000000000000815260040160405180910390fd5b6000670de0b6b3a7640000826000015484604001516133999190615b94565b6133a39190615c05565b905060007f000000000000000000000000000000000000000000000000000000000000000073ffffffffffffffffffffffffffffffffffffffff1663068bcd8d6001546040518263ffffffff1660e01b815260040161340291906144d7565b600060405180830381865afa15801561341f573d6000803e3d6000fd5b505050506040513d6000823e3d601f19601f820116820180604052508101906134489190614efc565b9050816002600082825461345c9190614c9c565b9250508190555061347681604001518560200151846125c5565b60028360030160006101000a81548160ff0219169083600681111561349e5761349d614296565b5b0217905550600a60008973ffffffffffffffffffffffffffffffffffffffff1673ffffffffffffffffffffffffffffffffffffffff16815260200190815260200160002060008154809291906134f390615a42565b91905055507ff1af82b65c631a030029b10ea8f00f68290285c7c797644155b8f23969ca1d638887600260405161352c93929190614b42565b60405180910390a18773ffffffffffffffffffffffffffffffffffffffff167fb5b51454adfa840bd593658325a60a50b0216f12eb5d2937efe6cea935675b7d8560200151848a60405161358293929190615c36565b60405180910390a25050505050505050565b60008054906101000a900460ff166135d8576040517fcfe7975b00000000000000000000000000000000000000000000000000000000815260040160405180910390fd5b565b60003860003884865af16135f65763b12d13eb6000526004601cfd5b5050565b81601452806034526fa9059cbb00000000000000000000000060005260206000604460106000875af13d15600160005114171661363f576390b8ec186000526004601cfd5b6000603452505050565b613651611b92565b60006001541461368d576040517f439a74c900000000000000000000000000000000000000000000000000000000815260040160405180910390fd5b600081036136c7576040517f7fcce2a900000000000000000000000000000000000000000000000000000000815260040160405180910390fd5b8060018190555050565b61376982826040516024016136e7929190615cb7565b6040516020818303038152906040527f319af333000000000000000000000000000000000000000000000000000000007bffffffffffffffffffffffffffffffffffffffffffffffffffffffff19166020820180517bffffffffffffffffffffffffffffffffffffffffffffffffffffffff8381831617835250505050613859565b5050565b6138058282604051602401613783929190615ce7565b6040516020818303038152906040527fb60e72cc000000000000000000000000000000000000000000000000000000007bffffffffffffffffffffffffffffffffffffffffffffffffffffffff19166020820180517bffffffffffffffffffffffffffffffffffffffffffffffffffffffff8381831617835250505050613859565b5050565b600260035403613845576040517f3ee5aeb500000000000000000000000000000000000000000000000000000000815260040160405180910390fd5b6002600381905550565b6001600381905550565b61387081613868613873613894565b63ffffffff16565b50565b60006a636f6e736f6c652e6c6f679050600080835160208501845afa505050565b613985819050919050565b6040518060c00160405280600015158152602001600073ffffffffffffffffffffffffffffffffffffffff168152602001600081526020016138df61396b565b8152602001600060068111156138f8576138f7614296565b5b81526020016000600681111561391157613910614296565b5b81525090565b6040518060400160405280600073ffffffffffffffffffffffffffffffffffffffff168152602001600081525090565b5080546000825560040290600052602060002090810190613968919061398f565b50565b604051806040016040528060008152602001606081525090565b61398d615d17565b565b5b808211156139dd57600080820160009055600182016000808201600090556001820160006139be91906139e1565b50506003820160006101000a81549060ff021916905550600401613990565b5090565b5080546139ed90614c3c565b6000825580601f106139ff5750613a1e565b601f016020900490600052602060002090810190613a1d9190613a21565b5b50565b5b80821115613a3a576000816000905550600101613a22565b5090565b6000604051905090565b600080fd5b600080fd5b600073ffffffffffffffffffffffffffffffffffffffff82169050919050565b6000613a7d82613a52565b9050919050565b613a8d81613a72565b8114613a9857600080fd5b50565b600081359050613aaa81613a84565b92915050565b6000819050919050565b613ac381613ab0565b8114613ace57600080fd5b50565b600081359050613ae081613aba565b92915050565b60008060408385031215613afd57613afc613a48565b5b6000613b0b85828601613a9b565b9250506020613b1c85828601613ad1565b9150509250929050565b60078110613b3357600080fd5b50565b600081359050613b4581613b26565b92915050565b60008060408385031215613b6257613b61613a48565b5b6000613b7085828601613a9b565b9250506020613b8185828601613b36565b9150509250929050565b600080fd5b6000601f19601f8301169050919050565b7f4e487b7100000000000000000000000000000000000000000000000000000000600052604160045260246000fd5b613bd982613b90565b810181811067ffffffffffffffff82111715613bf857613bf7613ba1565b5b80604052505050565b6000613c0b613a3e565b9050613c178282613bd0565b919050565b600067ffffffffffffffff821115613c3757613c36613ba1565b5b602082029050602081019050919050565b600080fd5b6000613c60613c5b84613c1c565b613c01565b90508083825260208201905060208402830185811115613c8357613c82613c48565b5b835b81811015613cac5780613c988882613a9b565b845260208401935050602081019050613c85565b5050509392505050565b600082601f830112613ccb57613cca613b8b565b5b8135613cdb848260208601613c4d565b91505092915050565b600080fd5b600067ffffffffffffffff821115613d0457613d03613ba1565b5b613d0d82613b90565b9050602081019050919050565b82818337600083830152505050565b6000613d3c613d3784613ce9565b613c01565b905082815260208101848484011115613d5857613d57613ce4565b5b613d63848285613d1a565b509392505050565b600082601f830112613d8057613d7f613b8b565b5b8135613d90848260208601613d29565b91505092915050565b600080600060608486031215613db257613db1613a48565b5b600084013567ffffffffffffffff811115613dd057613dcf613a4d565b5b613ddc86828701613cb6565b935050602084013567ffffffffffffffff811115613dfd57613dfc613a4d565b5b613e0986828701613d6b565b9250506040613e1a86828701613a9b565b9150509250925092565b600067ffffffffffffffff821115613e3f57613e3e613ba1565b5b602082029050602081019050919050565b600080fd5b600080fd5b600067ffffffffffffffff821115613e7557613e74613ba1565b5b613e7e82613b90565b9050602081019050919050565b6000613e9e613e9984613e5a565b613c01565b905082815260208101848484011115613eba57613eb9613ce4565b5b613ec5848285613d1a565b509392505050565b600082601f830112613ee257613ee1613b8b565b5b8135613ef2848260208601613e8b565b91505092915050565b600060408284031215613f1157613f10613e50565b5b613f1b6040613c01565b90506000613f2b84828501613ad1565b600083015250602082013567ffffffffffffffff811115613f4f57613f4e613e55565b5b613f5b84828501613ecd565b60208301525092915050565b600060608284031215613f7d57613f7c613e50565b5b613f876060613c01565b90506000613f9784828501613ad1565b600083015250602082013567ffffffffffffffff811115613fbb57613fba613e55565b5b613fc784828501613efb565b6020830152506040613fdb84828501613b36565b60408301525092915050565b6000613ffa613ff584613e24565b613c01565b9050808382526020820190506020840283018581111561401d5761401c613c48565b5b835b8181101561406457803567ffffffffffffffff81111561404257614041613b8b565b5b80860161404f8982613f67565b8552602085019450505060208101905061401f565b5050509392505050565b600082601f83011261408357614082613b8b565b5b8135614093848260208601613fe7565b91505092915050565b600080604083850312156140b3576140b2613a48565b5b60006140c185828601613a9b565b925050602083013567ffffffffffffffff8111156140e2576140e1613a4d565b5b6140ee8582860161406e565b9150509250929050565b6000819050919050565b600061411d61411861411384613a52565b6140f8565b613a52565b9050919050565b600061412f82614102565b9050919050565b600061414182614124565b9050919050565b61415181614136565b82525050565b600060208201905061416c6000830184614148565b92915050565b60006020828403121561418857614187613a48565b5b600061419684828501613a9b565b91505092915050565b600081519050919050565b600082825260208201905092915050565b6000819050602082019050919050565b6141d481613ab0565b82525050565b600081519050919050565b600082825260208201905092915050565b60005b838110156142145780820151818401526020810190506141f9565b60008484015250505050565b600061422b826141da565b61423581856141e5565b93506142458185602086016141f6565b61424e81613b90565b840191505092915050565b600060408301600083015161427160008601826141cb565b50602083015184820360208601526142898282614220565b9150508091505092915050565b7f4e487b7100000000000000000000000000000000000000000000000000000000600052602160045260246000fd5b600781106142d6576142d5614296565b5b50565b60008190506142e7826142c5565b919050565b60006142f7826142d9565b9050919050565b614307816142ec565b82525050565b600060608301600083015161432560008601826141cb565b506020830151848203602086015261433d8282614259565b915050604083015161435260408601826142fe565b508091505092915050565b6000614369838361430d565b905092915050565b6000602082019050919050565b60006143898261419f565b61439381856141aa565b9350836020820285016143a5856141bb565b8060005b858110156143e157848403895281516143c2858261435d565b94506143cd83614371565b925060208a019950506001810190506143a9565b50829750879550505050505092915050565b6000602082019050818103600083015261440d818461437e565b905092915050565b6000806040838503121561442c5761442b613a48565b5b600083013567ffffffffffffffff81111561444a57614449613a4d565b5b61445685828601613d6b565b925050602061446785828601613a9b565b9150509250929050565b61447a81613a72565b82525050565b60006020820190506144956000830184614471565b92915050565b6000602082840312156144b1576144b0613a48565b5b60006144bf84828501613ad1565b91505092915050565b6144d181613ab0565b82525050565b60006020820190506144ec60008301846144c8565b92915050565b600080fd5b60008083601f84011261450d5761450c613b8b565b5b8235905067ffffffffffffffff81111561452a576145296144f2565b5b60208301915083602082028301111561454657614545613c48565b5b9250929050565b6000806020838503121561456457614563613a48565b5b600083013567ffffffffffffffff81111561458257614581613a4d565b5b61458e858286016144f7565b92509250509250929050565b600080fd5b6000604082840312156145b5576145b461459a565b5b81905092915050565b6000806000606084860312156145d7576145d6613a48565b5b60006145e586828701613a9b565b93505060206145f686828701613ad1565b925050604084013567ffffffffffffffff81111561461757614616613a4d565b5b6146238682870161459f565b9150509250925092565b6000819050919050565b6146408161462d565b82525050565b600060208201905061465b6000830184614637565b92915050565b60008115159050919050565b61467681614661565b82525050565b6000602082019050614691600083018461466d565b92915050565b6146a081614661565b82525050565b6146af81613a72565b82525050565b600060c0830160008301516146cd6000860182614697565b5060208301516146e060208601826146a6565b5060408301516146f360408601826141cb565b506060830151848203606086015261470b8282614259565b915050608083015161472060808601826142fe565b5060a083015161473360a08601826142fe565b508091505092915050565b6000602082019050818103600083015261475881846146b5565b905092915050565b600067ffffffffffffffff82111561477b5761477a613ba1565b5b602082029050602081019050919050565b600061479f61479a84614760565b613c01565b905080838252602082019050602084028301858111156147c2576147c1613c48565b5b835b8181101561480957803567ffffffffffffffff8111156147e7576147e6613b8b565b5b8086016147f48982613d6b565b855260208501945050506020810190506147c4565b5050509392505050565b600082601f83011261482857614827613b8b565b5b813561483884826020860161478c565b91505092915050565b6000806040838503121561485857614857613a48565b5b600083013567ffffffffffffffff81111561487657614875613a4d565b5b61488285828601613cb6565b925050602083013567ffffffffffffffff8111156148a3576148a2613a4d565b5b6148af85828601614813565b9150509250929050565b600081519050919050565b600082825260208201905092915050565b6000819050602082019050919050565b6040820160008201516148fb60008501826146a6565b50602082015161490e60208501826141cb565b50505050565b600061492083836148e5565b60408301905092915050565b6000602082019050919050565b6000614944826148b9565b61494e81856148c4565b9350614959836148d5565b8060005b8381101561498a5781516149718882614914565b975061497c8361492c565b92505060018101905061495d565b5085935050505092915050565b600060208201905081810360008301526149b18184614939565b905092915050565b6149c281614661565b81146149cd57600080fd5b50565b6000813590506149df816149b9565b92915050565b6000602082840312156149fb576149fa613a48565b5b6000614a09848285016149d0565b91505092915050565b6000604083016000830151614a2a60008601826141cb565b5060208301518482036020860152614a428282614220565b9150508091505092915050565b614a58816142ec565b82525050565b6000606082019050614a7360008301866144c8565b8181036020830152614a858185614a12565b9050614a946040830184614a4f565b949350505050565b6000602082019050614ab16000830184614a4f565b92915050565b60008060408385031215614ace57614acd613a48565b5b6000614adc85828601613ad1565b925050602083013567ffffffffffffffff811115614afd57614afc613a4d565b5b614b0985828601613d6b565b9150509250929050565b7f4e487b7100000000000000000000000000000000000000000000000000000000600052603260045260246000fd5b6000606082019050614b576000830186614471565b614b6460208301856144c8565b614b716040830184614a4f565b949350505050565b6000604082019050614b8e6000830185614471565b614b9b6020830184614a4f565b9392505050565b6000604082019050614bb760008301856144c8565b614bc46020830184614471565b9392505050565b600081519050614bda816149b9565b92915050565b600060208284031215614bf657614bf5613a48565b5b6000614c0484828501614bcb565b91505092915050565b7f4e487b7100000000000000000000000000000000000000000000000000000000600052602260045260246000fd5b60006002820490506001821680614c5457607f821691505b602082108103614c6757614c66614c0d565b5b50919050565b7f4e487b7100000000000000000000000000000000000000000000000000000000600052601160045260246000fd5b6000614ca782613ab0565b9150614cb283613ab0565b9250828203905081811115614cca57614cc9614c6d565b5b92915050565b614cd98161462d565b8114614ce457600080fd5b50565b600081519050614cf681614cd0565b92915050565b6000614d0782613a72565b9050919050565b614d1781614cfc565b8114614d2257600080fd5b50565b600081519050614d3481614d0e565b92915050565b600081519050614d4981613a84565b92915050565b600081519050614d5e81613aba565b92915050565b6000614d77614d7284613e5a565b613c01565b905082815260208101848484011115614d9357614d92613ce4565b5b614d9e8482856141f6565b509392505050565b600082601f830112614dbb57614dba613b8b565b5b8151614dcb848260208601614d64565b91505092915050565b600060408284031215614dea57614de9613e50565b5b614df46040613c01565b90506000614e0484828501614d4f565b600083015250602082015167ffffffffffffffff811115614e2857614e27613e55565b5b614e3484828501614da6565b60208301525092915050565b600060c08284031215614e5657614e55613e50565b5b614e6060c0613c01565b90506000614e7084828501614ce7565b6000830152506020614e8484828501614d25565b6020830152506040614e9884828501614d3a565b604083015250606082015167ffffffffffffffff811115614ebc57614ebb613e55565b5b614ec884828501614dd4565b6060830152506080614edc84828501614ce7565b60808301525060a0614ef084828501614ce7565b60a08301525092915050565b600060208284031215614f1257614f11613a48565b5b600082015167ffffffffffffffff811115614f3057614f2f613a4d565b5b614f3c84828501614e40565b91505092915050565b60008135614f5281613aba565b80915050919050565b60008160001b9050919050565b60007fffffffffffffffffffffffffffffffffffffffffffffffffffffffffffffffff614f9484614f5b565b9350801983169250808416831791505092915050565b6000614fc5614fc0614fbb84613ab0565b6140f8565b613ab0565b9050919050565b6000819050919050565b614fdf82614faa565b614ff2614feb82614fcc565b8354614f68565b8255505050565b600080fd5b600080fd5b600080fd5b6000808335600160200384360303811261502557615024614ff9565b5b80840192508235915067ffffffffffffffff82111561504757615046614ffe565b5b60208301925060018202360383131561506357615062615003565b5b509250929050565b600082905092915050565b60008190508160005260206000209050919050565b60006020601f8301049050919050565b600082821b905092915050565b6000600883026150d87fffffffffffffffffffffffffffffffffffffffffffffffffffffffffffffffff8261509b565b6150e2868361509b565b95508019841693508086168417925050509392505050565b61510383614faa565b61511761510f82614fcc565b8484546150a8565b825550505050565b600090565b61512c61511f565b6151378184846150fa565b505050565b5b8181101561515b57615150600082615124565b60018101905061513d565b5050565b601f8211156151a05761517181615076565b61517a8461508b565b81016020851015615189578190505b61519d6151958561508b565b83018261513c565b50505b505050565b600082821c905092915050565b60006151c3600019846008026151a5565b1980831691505092915050565b60006151dc83836151b2565b9150826002028217905092915050565b6151f6838361506b565b67ffffffffffffffff81111561520f5761520e613ba1565b5b6152198254614c3c565b61522482828561515f565b6000601f8311600181146152535760008415615241578287013590505b61524b85826151d0565b8655506152b3565b601f19841661526186615076565b60005b8281101561528957848901358255600182019150602085019450602081019050615264565b868310156152a657848901356152a2601f8916826151b2565b8355505b6001600288020188555050505b50505050505050565b6152c78383836151ec565b505050565b6000810160008301806152de81614f45565b90506152ea8184614fd6565b50505060018101602083016152ff8185615008565b61530a8183866152bc565b505050505050565b61531c82826152cc565b5050565b600061532f6020840184613ad1565b905092915050565b600080fd5b600080fd5b600080fd5b6000808335600160200384360303811261536357615362615341565b5b83810192508235915060208301925067ffffffffffffffff82111561538b5761538a615337565b5b6001820236038313156153a1576153a061533c565b5b509250929050565b60006153b583856141e5565b93506153c2838584613d1a565b6153cb83613b90565b840190509392505050565b6000604083016153e96000840184615320565b6153f660008601826141cb565b506154046020840184615346565b85830360208701526154178382846153a9565b925050508091505092915050565b600060608201905061543a6000830186614471565b61544760208301856144c8565b818103604083015261545981846153d6565b9050949350505050565b600067ffffffffffffffff82111561547e5761547d613ba1565b5b602082029050602081019050919050565b6000604082840312156154a5576154a4613e50565b5b6154af6040613c01565b905060006154bf84828501614d3a565b60008301525060206154d384828501614d4f565b60208301525092915050565b60006154f26154ed84615463565b613c01565b9050808382526020820190506040840283018581111561551557615514613c48565b5b835b8181101561553e578061552a888261548f565b845260208401935050604081019050615517565b5050509392505050565b600082601f83011261555d5761555c613b8b565b5b815161556d8482602086016154df565b91505092915050565b60006080828403121561558c5761558b613e50565b5b6155966080613c01565b905060006155a684828501614bcb565b60008301525060206155ba84828501614bcb565b60208301525060406155ce84828501614bcb565b604083015250606082015167ffffffffffffffff8111156155f2576155f1613e55565b5b6155fe84828501615548565b60608301525092915050565b6000602082840312156156205761561f613a48565b5b600082015167ffffffffffffffff81111561563e5761563d613a4d565b5b61564a84828501615576565b91505092915050565b600081519050919050565b600082825260208201905092915050565b600061567a82615653565b615684818561565e565b93506156948185602086016141f6565b61569d81613b90565b840191505092915050565b60006040820190506156bd60008301856144c8565b81810360208301526156cf818461566f565b90509392505050565b60006156e382613ab0565b91506156ee83613ab0565b925082820190508082111561570657615705614c6d565b5b92915050565b600060c0828403121561572257615721613e50565b5b61572c60c0613c01565b9050600061573c84828501614ce7565b600083015250602061575084828501614d4f565b602083015250604082015167ffffffffffffffff81111561577457615773613e55565b5b61578084828501614da6565b604083015250606082015167ffffffffffffffff8111156157a4576157a3613e55565b5b6157b084828501614dd4565b60608301525060806157c484828501614d3a565b60808301525060a06157d884828501614d3a565b60a08301525092915050565b6000602082840312156157fa576157f9613a48565b5b600082015167ffffffffffffffff81111561581857615817613a4d565b5b6158248482850161570c565b91505092915050565b60006040820190506158426000830185614637565b61584f6020830184614471565b9392505050565b61585f826141da565b67ffffffffffffffff81111561587857615877613ba1565b5b6158828254614c3c565b61588d82828561515f565b600060209050601f8311600181146158c057600084156158ae578287015190505b6158b885826151d0565b865550615920565b601f1984166158ce86615076565b60005b828110156158f6578489015182556001820191506020850194506020810190506158d1565b86831015615913578489015161590f601f8916826151b2565b8355505b6001600288020188555050505b505050505050565b600060408201905061593d6000830185614471565b61594a60208301846144c8565b9392505050565b600061595c82613a52565b9050919050565b61596c81615951565b811461597757600080fd5b50565b60008151905061598981615963565b92915050565b600080600080608085870312156159a9576159a8613a48565b5b60006159b78782880161597a565b94505060206159c88782880161597a565b93505060406159d987828801614d4f565b925050606085015167ffffffffffffffff8111156159fa576159f9613a4d565b5b615a0687828801614dd4565b91505092959194509250565b60006040820190508181036000830152615a2c818561566f565b9050615a3b6020830184614471565b9392505050565b6000615a4d82613ab0565b91507fffffffffffffffffffffffffffffffffffffffffffffffffffffffffffffffff8203615a7f57615a7e614c6d565b5b600182019050919050565b6000615a9582613a72565b9050919050565b615aa581615a8a565b8114615ab057600080fd5b50565b600081519050615ac281615a9c565b92915050565b600060208284031215615ade57615add613a48565b5b6000615aec84828501615ab3565b91505092915050565b600081519050615b0481613b26565b92915050565b600080600060608486031215615b2357615b22613a48565b5b6000615b318682870161597a565b9350506020615b4286828701615af5565b9250506040615b5386828701614d4f565b9150509250925092565b6000606082019050615b7260008301866144c8565b615b7f6020830185614471565b615b8c6040830184614471565b949350505050565b6000615b9f82613ab0565b9150615baa83613ab0565b9250828202615bb881613ab0565b91508282048414831517615bcf57615bce614c6d565b5b5092915050565b7f4e487b7100000000000000000000000000000000000000000000000000000000600052601260045260246000fd5b6000615c1082613ab0565b9150615c1b83613ab0565b925082615c2b57615c2a615bd6565b5b828204905092915050565b6000606082019050615c4b6000830186614471565b615c5860208301856144c8565b615c656040830184614471565b949350505050565b600082825260208201905092915050565b6000615c89826141da565b615c938185615c6d565b9350615ca38185602086016141f6565b615cac81613b90565b840191505092915050565b60006040820190508181036000830152615cd18185615c7e565b9050615ce06020830184614471565b9392505050565b60006040820190508181036000830152615d018185615c7e565b9050615d1060208301846144c8565b9392505050565b7f4e487b7100000000000000000000000000000000000000000000000000000000600052605160045260246000fdfea26469706673582212203ae8b6d635d9d359e79f7c0e1be84c9e7215464f4fd5f00ce156ab8afcd59b9764736f6c63430008140033",
  "linkReferences": {},
  "deployedLinkReferences": {}
}