{
  "_format": "hh-sol-artifact-1",
  "contractName": "ExecutorSupplierVotingStrategy",
  "sourceName": "contracts/ExecutorSupplierVotingStrategy.sol",
  "abi": [
    {
      "inputs": [
        {
          "internalType": "address",
          "name": "_allo",
          "type": "address"
        },
        {
          "internalType": "string",
          "name": "_name",
          "type": "string"
        }
      ],
      "stateMutability": "nonpayable",
      "type": "constructor"
    },
    {
      "inputs": [],
      "name": "ALLOCATION_ACTIVE",
      "type": "error"
    },
    {
      "inputs": [],
      "name": "ALLOCATION_EXCEEDS_POOL_AMOUNT",
      "type": "error"
    },
    {
      "inputs": [],
      "name": "ALLOCATION_NOT_ACTIVE",
      "type": "error"
    },
    {
      "inputs": [],
      "name": "ALLOCATION_NOT_ENDED",
      "type": "error"
    },
    {
      "inputs": [],
      "name": "ALREADY_INITIALIZED",
      "type": "error"
    },
    {
      "inputs": [],
      "name": "AMOUNT_MISMATCH",
      "type": "error"
    },
    {
      "inputs": [],
      "name": "ANCHOR_ERROR",
      "type": "error"
    },
    {
      "inputs": [],
      "name": "ARRAY_MISMATCH",
      "type": "error"
    },
    {
      "inputs": [],
      "name": "INVALID",
      "type": "error"
    },
    {
      "inputs": [],
      "name": "INVALID_ADDRESS",
      "type": "error"
    },
    {
      "inputs": [],
      "name": "INVALID_FEE",
      "type": "error"
    },
    {
      "inputs": [],
      "name": "INVALID_METADATA",
      "type": "error"
    },
    {
      "inputs": [],
      "name": "INVALID_MILESTONE",
      "type": "error"
    },
    {
      "inputs": [],
      "name": "INVALID_REGISTRATION",
      "type": "error"
    },
    {
      "inputs": [],
      "name": "IS_APPROVED_STRATEGY",
      "type": "error"
    },
    {
      "inputs": [],
      "name": "MILESTONES_ALREADY_SET",
      "type": "error"
    },
    {
      "inputs": [],
      "name": "MILESTONE_ALREADY_ACCEPTED",
      "type": "error"
    },
    {
      "inputs": [],
      "name": "MISMATCH",
      "type": "error"
    },
    {
      "inputs": [],
      "name": "NONCE_NOT_AVAILABLE",
      "type": "error"
    },
    {
      "inputs": [],
      "name": "NOT_APPROVED_STRATEGY",
      "type": "error"
    },
    {
      "inputs": [],
      "name": "NOT_ENOUGH_FUNDS",
      "type": "error"
    },
    {
      "inputs": [],
      "name": "NOT_IMPLEMENTED",
      "type": "error"
    },
    {
      "inputs": [],
      "name": "NOT_INITIALIZED",
      "type": "error"
    },
    {
      "inputs": [],
      "name": "NOT_PENDING_OWNER",
      "type": "error"
    },
    {
      "inputs": [],
      "name": "POOL_ACTIVE",
      "type": "error"
    },
    {
      "inputs": [],
      "name": "POOL_INACTIVE",
      "type": "error"
    },
    {
      "inputs": [],
      "name": "RECIPIENT_ALREADY_ACCEPTED",
      "type": "error"
    },
    {
      "inputs": [
        {
          "internalType": "address",
          "name": "recipientId",
          "type": "address"
        }
      ],
      "name": "RECIPIENT_ERROR",
      "type": "error"
    },
    {
      "inputs": [],
      "name": "RECIPIENT_NOT_ACCEPTED",
      "type": "error"
    },
    {
      "inputs": [],
      "name": "REGISTRATION_NOT_ACTIVE",
      "type": "error"
    },
    {
      "inputs": [],
      "name": "ReentrancyGuardReentrantCall",
      "type": "error"
    },
    {
      "inputs": [],
      "name": "SUPPLY_IS_ALLOWED_ONLY_ONCE",
      "type": "error"
    },
    {
      "inputs": [],
      "name": "SUPPLY_NOT_FOUND",
      "type": "error"
    },
    {
      "inputs": [],
      "name": "UNAUTHORIZED",
      "type": "error"
    },
    {
      "inputs": [],
      "name": "ZERO_ADDRESS",
      "type": "error"
    },
    {
      "anonymous": false,
      "inputs": [
        {
          "indexed": true,
          "internalType": "address",
          "name": "recipientId",
          "type": "address"
        },
        {
          "indexed": false,
          "internalType": "uint256",
          "name": "amount",
          "type": "uint256"
        },
        {
          "indexed": false,
          "internalType": "address",
          "name": "token",
          "type": "address"
        },
        {
          "indexed": false,
          "internalType": "address",
          "name": "sender",
          "type": "address"
        }
      ],
      "name": "Allocated",
      "type": "event"
    },
    {
      "anonymous": false,
      "inputs": [
        {
          "indexed": true,
          "internalType": "address",
          "name": "recipientId",
          "type": "address"
        },
        {
          "indexed": false,
          "internalType": "address",
          "name": "recipientAddress",
          "type": "address"
        },
        {
          "indexed": false,
          "internalType": "uint256",
          "name": "amount",
          "type": "uint256"
        },
        {
          "indexed": false,
          "internalType": "address",
          "name": "sender",
          "type": "address"
        }
      ],
      "name": "Distributed",
      "type": "event"
    },
    {
      "anonymous": false,
      "inputs": [
        {
          "indexed": false,
          "internalType": "uint256",
          "name": "poolId",
          "type": "uint256"
        },
        {
          "indexed": false,
          "internalType": "bytes",
          "name": "data",
          "type": "bytes"
        }
      ],
      "name": "Initialized",
      "type": "event"
    },
    {
      "anonymous": false,
      "inputs": [
        {
          "indexed": false,
          "internalType": "address",
          "name": "recipientId",
          "type": "address"
        },
        {
          "indexed": false,
          "internalType": "uint256",
          "name": "milestoneId",
          "type": "uint256"
        },
        {
          "indexed": false,
          "internalType": "enum IStrategy.Status",
          "name": "status",
          "type": "uint8"
        }
      ],
      "name": "MilestoneStatusChanged",
      "type": "event"
    },
    {
      "anonymous": false,
      "inputs": [
        {
          "indexed": false,
          "internalType": "address",
          "name": "recipientId",
          "type": "address"
        },
        {
          "indexed": false,
          "internalType": "uint256",
          "name": "milestoneId",
          "type": "uint256"
        },
        {
          "components": [
            {
              "internalType": "uint256",
              "name": "protocol",
              "type": "uint256"
            },
            {
              "internalType": "string",
              "name": "pointer",
              "type": "string"
            }
          ],
          "indexed": false,
          "internalType": "struct Metadata",
          "name": "metadata",
          "type": "tuple"
        }
      ],
      "name": "MilestoneSubmitted",
      "type": "event"
    },
    {
      "anonymous": false,
      "inputs": [
        {
          "indexed": false,
          "internalType": "address",
          "name": "recipientId",
          "type": "address"
        },
        {
          "indexed": false,
          "internalType": "uint256",
          "name": "milestonesLength",
          "type": "uint256"
        }
      ],
      "name": "MilestonesOffered",
      "type": "event"
    },
    {
      "anonymous": false,
      "inputs": [
        {
          "indexed": false,
          "internalType": "address",
          "name": "recipientId",
          "type": "address"
        },
        {
          "indexed": false,
          "internalType": "enum IStrategy.Status",
          "name": "status",
          "type": "uint8"
        }
      ],
      "name": "MilestonesReviewed",
      "type": "event"
    },
    {
      "anonymous": false,
      "inputs": [
        {
          "indexed": false,
          "internalType": "address",
          "name": "recipientId",
          "type": "address"
        },
        {
          "indexed": false,
          "internalType": "uint256",
          "name": "milestonesLength",
          "type": "uint256"
        }
      ],
      "name": "MilestonesSet",
      "type": "event"
    },
    {
      "anonymous": false,
      "inputs": [
        {
          "indexed": false,
          "internalType": "address",
          "name": "recipientId",
          "type": "address"
        }
      ],
      "name": "OfferedMilestonesAccepted",
      "type": "event"
    },
    {
      "anonymous": false,
      "inputs": [
        {
          "indexed": false,
          "internalType": "address",
          "name": "recipientId",
          "type": "address"
        }
      ],
      "name": "OfferedMilestonesRejected",
      "type": "event"
    },
    {
      "anonymous": false,
      "inputs": [
        {
          "indexed": false,
          "internalType": "bool",
          "name": "active",
          "type": "bool"
        }
      ],
      "name": "PoolActive",
      "type": "event"
    },
    {
      "anonymous": false,
      "inputs": [
        {
          "indexed": false,
          "internalType": "address",
          "name": "recipientId",
          "type": "address"
        },
        {
          "indexed": false,
          "internalType": "enum IStrategy.Status",
          "name": "status",
          "type": "uint8"
        }
      ],
      "name": "RecipientStatusChanged",
      "type": "event"
    },
    {
      "anonymous": false,
      "inputs": [
        {
          "indexed": true,
          "internalType": "address",
          "name": "recipientId",
          "type": "address"
        },
        {
          "indexed": false,
          "internalType": "bytes",
          "name": "data",
          "type": "bytes"
        },
        {
          "indexed": false,
          "internalType": "address",
          "name": "sender",
          "type": "address"
        }
      ],
      "name": "Registered",
      "type": "event"
    },
    {
      "inputs": [],
      "name": "NATIVE",
      "outputs": [
        {
          "internalType": "address",
          "name": "",
          "type": "address"
        }
      ],
      "stateMutability": "view",
      "type": "function"
    },
    {
      "inputs": [
        {
          "internalType": "bytes",
          "name": "_data",
          "type": "bytes"
        },
        {
          "internalType": "address",
          "name": "_sender",
          "type": "address"
        }
      ],
      "name": "allocate",
      "outputs": [],
      "stateMutability": "payable",
      "type": "function"
    },
    {
      "inputs": [],
      "name": "allocatedGrantAmount",
      "outputs": [
        {
          "internalType": "uint256",
          "name": "",
          "type": "uint256"
        }
      ],
      "stateMutability": "view",
      "type": "function"
    },
    {
      "inputs": [
        {
          "internalType": "address[]",
          "name": "_recipientIds",
          "type": "address[]"
        },
        {
          "internalType": "bytes",
          "name": "_data",
          "type": "bytes"
        },
        {
          "internalType": "address",
          "name": "_sender",
          "type": "address"
        }
      ],
      "name": "distribute",
      "outputs": [],
      "stateMutability": "nonpayable",
      "type": "function"
    },
    {
      "inputs": [],
      "name": "getAllo",
      "outputs": [
        {
          "internalType": "contract IAllo",
          "name": "",
          "type": "address"
        }
      ],
      "stateMutability": "view",
      "type": "function"
    },
    {
      "inputs": [
        {
          "internalType": "address",
          "name": "_recipientId",
          "type": "address"
        },
        {
          "internalType": "uint256",
          "name": "_milestoneId",
          "type": "uint256"
        }
      ],
      "name": "getMilestoneStatus",
      "outputs": [
        {
          "internalType": "enum IStrategy.Status",
          "name": "",
          "type": "uint8"
        }
      ],
      "stateMutability": "view",
      "type": "function"
    },
    {
      "inputs": [
        {
          "internalType": "address",
          "name": "_recipientId",
          "type": "address"
        }
      ],
      "name": "getMilestones",
      "outputs": [
        {
          "components": [
            {
              "internalType": "uint256",
              "name": "amountPercentage",
              "type": "uint256"
            },
            {
              "components": [
                {
                  "internalType": "uint256",
                  "name": "protocol",
                  "type": "uint256"
                },
                {
                  "internalType": "string",
                  "name": "pointer",
                  "type": "string"
                }
              ],
              "internalType": "struct Metadata",
              "name": "metadata",
              "type": "tuple"
            },
            {
              "internalType": "enum IStrategy.Status",
              "name": "milestoneStatus",
              "type": "uint8"
            },
            {
              "internalType": "string",
              "name": "description",
              "type": "string"
            }
          ],
          "internalType": "struct ExecutorSupplierVotingStrategy.Milestone[]",
          "name": "",
          "type": "tuple[]"
        }
      ],
      "stateMutability": "view",
      "type": "function"
    },
    {
      "inputs": [
        {
          "internalType": "address",
          "name": "_recipientId",
          "type": "address"
        }
      ],
      "name": "getOffeeredMilestones",
      "outputs": [
        {
          "components": [
            {
              "internalType": "uint256",
              "name": "amountPercentage",
              "type": "uint256"
            },
            {
              "components": [
                {
                  "internalType": "uint256",
                  "name": "protocol",
                  "type": "uint256"
                },
                {
                  "internalType": "string",
                  "name": "pointer",
                  "type": "string"
                }
              ],
              "internalType": "struct Metadata",
              "name": "metadata",
              "type": "tuple"
            },
            {
              "internalType": "enum IStrategy.Status",
              "name": "milestoneStatus",
              "type": "uint8"
            },
            {
              "internalType": "string",
              "name": "description",
              "type": "string"
            }
          ],
          "internalType": "struct ExecutorSupplierVotingStrategy.Milestone[]",
          "name": "",
          "type": "tuple[]"
        }
      ],
      "stateMutability": "view",
      "type": "function"
    },
    {
      "inputs": [
        {
          "internalType": "address[]",
          "name": "_recipientIds",
          "type": "address[]"
        },
        {
          "internalType": "bytes[]",
          "name": "_data",
          "type": "bytes[]"
        }
      ],
      "name": "getPayouts",
      "outputs": [
        {
          "components": [
            {
              "internalType": "address",
              "name": "recipientAddress",
              "type": "address"
            },
            {
              "internalType": "uint256",
              "name": "amount",
              "type": "uint256"
            }
          ],
          "internalType": "struct IStrategy.PayoutSummary[]",
          "name": "",
          "type": "tuple[]"
        }
      ],
      "stateMutability": "view",
      "type": "function"
    },
    {
      "inputs": [],
      "name": "getPoolAmount",
      "outputs": [
        {
          "internalType": "uint256",
          "name": "",
          "type": "uint256"
        }
      ],
      "stateMutability": "view",
      "type": "function"
    },
    {
      "inputs": [],
      "name": "getPoolId",
      "outputs": [
        {
          "internalType": "uint256",
          "name": "",
          "type": "uint256"
        }
      ],
      "stateMutability": "view",
      "type": "function"
    },
    {
      "inputs": [
        {
          "internalType": "address",
          "name": "_recipientId",
          "type": "address"
        }
      ],
      "name": "getRecipient",
      "outputs": [
        {
          "components": [
            {
              "internalType": "bool",
              "name": "useRegistryAnchor",
              "type": "bool"
            },
            {
              "internalType": "address",
              "name": "recipientAddress",
              "type": "address"
            },
            {
              "internalType": "uint256",
              "name": "grantAmount",
              "type": "uint256"
            },
            {
              "components": [
                {
                  "internalType": "uint256",
                  "name": "protocol",
                  "type": "uint256"
                },
                {
                  "internalType": "string",
                  "name": "pointer",
                  "type": "string"
                }
              ],
              "internalType": "struct Metadata",
              "name": "metadata",
              "type": "tuple"
            },
            {
              "internalType": "enum IStrategy.Status",
              "name": "recipientStatus",
              "type": "uint8"
            },
            {
              "internalType": "enum IStrategy.Status",
              "name": "milestonesReviewStatus",
              "type": "uint8"
            }
          ],
          "internalType": "struct ExecutorSupplierVotingStrategy.Recipient",
          "name": "",
          "type": "tuple"
        }
      ],
      "stateMutability": "view",
      "type": "function"
    },
    {
      "inputs": [
        {
          "internalType": "address",
          "name": "_recipientId",
          "type": "address"
        }
      ],
      "name": "getRecipientStatus",
      "outputs": [
        {
          "internalType": "enum IStrategy.Status",
          "name": "",
          "type": "uint8"
        }
      ],
      "stateMutability": "view",
      "type": "function"
    },
    {
      "inputs": [],
      "name": "getStrategyId",
      "outputs": [
        {
          "internalType": "bytes32",
          "name": "",
          "type": "bytes32"
        }
      ],
      "stateMutability": "view",
      "type": "function"
    },
    {
      "inputs": [],
      "name": "grantAmountRequired",
      "outputs": [
        {
          "internalType": "bool",
          "name": "",
          "type": "bool"
        }
      ],
      "stateMutability": "view",
      "type": "function"
    },
    {
      "inputs": [
        {
          "internalType": "uint256",
          "name": "_amount",
          "type": "uint256"
        }
      ],
      "name": "increasePoolAmount",
      "outputs": [],
      "stateMutability": "nonpayable",
      "type": "function"
    },
    {
      "inputs": [
        {
          "internalType": "uint256",
          "name": "_poolId",
          "type": "uint256"
        },
        {
          "internalType": "bytes",
          "name": "_data",
          "type": "bytes"
        }
      ],
      "name": "initialize",
      "outputs": [],
      "stateMutability": "nonpayable",
      "type": "function"
    },
    {
      "inputs": [],
      "name": "isPoolActive",
      "outputs": [
        {
          "internalType": "bool",
          "name": "",
          "type": "bool"
        }
      ],
      "stateMutability": "view",
      "type": "function"
    },
    {
      "inputs": [
        {
          "internalType": "address",
          "name": "_allocator",
          "type": "address"
        }
      ],
      "name": "isValidAllocator",
      "outputs": [
        {
          "internalType": "bool",
          "name": "",
          "type": "bool"
        }
      ],
      "stateMutability": "view",
      "type": "function"
    },
    {
      "inputs": [],
      "name": "metadataRequired",
      "outputs": [
        {
          "internalType": "bool",
          "name": "",
          "type": "bool"
        }
      ],
      "stateMutability": "view",
      "type": "function"
    },
    {
      "inputs": [
        {
          "internalType": "address",
          "name": "",
          "type": "address"
        },
        {
          "internalType": "uint256",
          "name": "",
          "type": "uint256"
        }
      ],
      "name": "milestones",
      "outputs": [
        {
          "internalType": "uint256",
          "name": "amountPercentage",
          "type": "uint256"
        },
        {
          "components": [
            {
              "internalType": "uint256",
              "name": "protocol",
              "type": "uint256"
            },
            {
              "internalType": "string",
              "name": "pointer",
              "type": "string"
            }
          ],
          "internalType": "struct Metadata",
          "name": "metadata",
          "type": "tuple"
        },
        {
          "internalType": "enum IStrategy.Status",
          "name": "milestoneStatus",
          "type": "uint8"
        },
        {
          "internalType": "string",
          "name": "description",
          "type": "string"
        }
      ],
      "stateMutability": "view",
      "type": "function"
    },
    {
      "inputs": [
        {
          "internalType": "address",
          "name": "_recipientId",
          "type": "address"
        },
        {
          "components": [
            {
              "internalType": "uint256",
              "name": "amountPercentage",
              "type": "uint256"
            },
            {
              "components": [
                {
                  "internalType": "uint256",
                  "name": "protocol",
                  "type": "uint256"
                },
                {
                  "internalType": "string",
                  "name": "pointer",
                  "type": "string"
                }
              ],
              "internalType": "struct Metadata",
              "name": "metadata",
              "type": "tuple"
            },
            {
              "internalType": "enum IStrategy.Status",
              "name": "milestoneStatus",
              "type": "uint8"
            },
            {
              "internalType": "string",
              "name": "description",
              "type": "string"
            }
          ],
          "internalType": "struct ExecutorSupplierVotingStrategy.Milestone[]",
          "name": "_milestones",
          "type": "tuple[]"
        }
      ],
      "name": "offerMilestones",
      "outputs": [],
      "stateMutability": "nonpayable",
      "type": "function"
    },
    {
      "inputs": [
        {
          "internalType": "bytes",
          "name": "_data",
          "type": "bytes"
        },
        {
          "internalType": "address",
          "name": "_sender",
          "type": "address"
        }
      ],
      "name": "registerRecipient",
      "outputs": [
        {
          "internalType": "address",
          "name": "recipientId",
          "type": "address"
        }
      ],
      "stateMutability": "payable",
      "type": "function"
    },
    {
      "inputs": [],
      "name": "registryGating",
      "outputs": [
        {
          "internalType": "bool",
          "name": "",
          "type": "bool"
        }
      ],
      "stateMutability": "view",
      "type": "function"
    },
    {
      "inputs": [
        {
          "internalType": "address",
          "name": "_recipientId",
          "type": "address"
        },
        {
          "internalType": "enum IStrategy.Status",
          "name": "_status",
          "type": "uint8"
        }
      ],
      "name": "reviewOfferedtMilestones",
      "outputs": [],
      "stateMutability": "nonpayable",
      "type": "function"
    },
    {
      "inputs": [
        {
          "internalType": "bool",
          "name": "_flag",
          "type": "bool"
        }
      ],
      "name": "setPoolActive",
      "outputs": [],
      "stateMutability": "nonpayable",
      "type": "function"
    },
    {
      "inputs": [
        {
          "internalType": "uint256",
          "name": "_newPercentage",
          "type": "uint256"
        },
        {
          "internalType": "bytes32",
          "name": "_profileId",
          "type": "bytes32"
        }
      ],
      "name": "setThresholdPercentage",
      "outputs": [],
      "stateMutability": "nonpayable",
      "type": "function"
    },
    {
      "inputs": [
        {
          "internalType": "address",
          "name": "_recipientId",
          "type": "address"
        },
        {
          "internalType": "uint256",
          "name": "_milestoneId",
          "type": "uint256"
        },
        {
          "components": [
            {
              "internalType": "uint256",
              "name": "protocol",
              "type": "uint256"
            },
            {
              "internalType": "string",
              "name": "pointer",
              "type": "string"
            }
          ],
          "internalType": "struct Metadata",
          "name": "_metadata",
          "type": "tuple"
        }
      ],
      "name": "submitMilestone",
      "outputs": [],
      "stateMutability": "nonpayable",
      "type": "function"
    },
    {
      "inputs": [],
      "name": "thresholdPercentage",
      "outputs": [
        {
          "internalType": "uint256",
          "name": "",
          "type": "uint256"
        }
      ],
      "stateMutability": "view",
      "type": "function"
    },
    {
      "inputs": [],
      "name": "totalSupply",
      "outputs": [
        {
          "internalType": "uint256",
          "name": "",
          "type": "uint256"
        }
      ],
      "stateMutability": "view",
      "type": "function"
    },
    {
      "inputs": [
        {
          "internalType": "address",
          "name": "",
          "type": "address"
        }
      ],
      "name": "upcomingMilestone",
      "outputs": [
        {
          "internalType": "uint256",
          "name": "",
          "type": "uint256"
        }
      ],
      "stateMutability": "view",
      "type": "function"
    },
    {
      "stateMutability": "payable",
      "type": "receive"
    }
  ],
  "bytecode": "0x60c060405260466006553480156200001657600080fd5b50604051620040df380380620040df8339810160408190526200003991620000c4565b6001600160a01b038216608052604051829082906200005d9082906020016200019f565b60408051601f19818403018152919052805160209091012060a0525050600160035550620001d49050565b634e487b7160e01b600052604160045260246000fd5b60005b83811015620000bb578181015183820152602001620000a1565b50506000910152565b60008060408385031215620000d857600080fd5b82516001600160a01b0381168114620000f057600080fd5b60208401519092506001600160401b03808211156200010e57600080fd5b818501915085601f8301126200012357600080fd5b81518181111562000138576200013862000088565b604051601f8201601f19908116603f0116810190838211818310171562000163576200016362000088565b816040528281528860208487010111156200017d57600080fd5b620001908360208301602088016200009e565b80955050505050509250929050565b6020815260008251806020840152620001c08160408501602087016200009e565b601f01601f19169190910160400192915050565b60805160a051613ebb62000224600039600061033e0152600081816102190152818161189901528181611d8401528181612027015281816123e70152818161256301526129890152613ebb6000f3fe6080604052600436106101dc5760003560e01c80639be2ccf511610102578063df868ed311610095578063edd146cc11610064578063edd146cc146105b0578063ef2920fc146105d0578063f5b0dfb7146105e3578063f83067e71461060357600080fd5b8063df868ed314610528578063e2372b5814610540578063e8eeb8061461056d578063eb11af931461058357600080fd5b8063b3eae7ab116100d1578063b3eae7ab14610499578063b5f620ce146104b9578063c7a892bf146104d9578063cb0e85a61461050957600080fd5b80639be2ccf51461040a578063a0cf0aea1461042a578063a647d23e14610452578063b2b878d01461046c57600080fd5b806338fff2d01161017a5780634d31d087116101495780634d31d087146103775780634ed2859e146103a757806362812a39146103bd57806378f0184d146103ea57600080fd5b806338fff2d0146102fa5780633bf3577d1461030f57806342fda9c71461032f5780634ab4ba421461036257600080fd5b806322a4e42d116101b657806322a4e42d1461027a5780632a835b4b146102a75780632bbe0cae146102c757806336592c0e146102da57600080fd5b80630a6f0ee9146101e857806315cc481e1461020a57806318160ddd1461025657600080fd5b366101e357005b600080fd5b3480156101f457600080fd5b50610208610203366004612f37565b610623565b005b34801561021657600080fd5b507f00000000000000000000000000000000000000000000000000000000000000005b6040516001600160a01b0390911681526020015b60405180910390f35b34801561026257600080fd5b5061026c60055481565b60405190815260200161024d565b34801561028657600080fd5b5061029a610295366004612fae565b610643565b60405161024d9190613079565b3480156102b357600080fd5b506102086102c236600461311e565b610837565b6102396102d5366004613140565b610936565b3480156102e657600080fd5b5061029a6102f5366004612fae565b61095b565b34801561030657600080fd5b5060015461026c565b34801561031b57600080fd5b5061020861032a366004613191565b610b44565b34801561033b57600080fd5b507f000000000000000000000000000000000000000000000000000000000000000061026c565b34801561036e57600080fd5b5060025461026c565b34801561038357600080fd5b50610397610392366004612fae565b610e1a565b604051901515815260200161024d565b3480156103b357600080fd5b5061026c60065481565b3480156103c957600080fd5b506103dd6103d8366004612fae565b610e25565b60405161024d91906131e5565b3480156103f657600080fd5b50610208610405366004613275565b610e36565b34801561041657600080fd5b506004546103979062010000900460ff1681565b34801561043657600080fd5b5061023973eeeeeeeeeeeeeeeeeeeeeeeeeeeeeeeeeeeeeeee81565b34801561045e57600080fd5b506004546103979060ff1681565b34801561047857600080fd5b5061048c610487366004613400565b611033565b60405161024d91906134d4565b3480156104a557600080fd5b506102086104b436600461352c565b611131565b3480156104c557600080fd5b506102086104d4366004613568565b6115c5565b3480156104e557600080fd5b506104f96104f4366004613585565b611611565b60405161024d94939291906135b1565b34801561051557600080fd5b5060045461039790610100900460ff1681565b34801561053457600080fd5b5060005460ff16610397565b34801561054c57600080fd5b5061026c61055b366004612fae565b600e6020526000908152604090205481565b34801561057957600080fd5b5061026c60085481565b34801561058f57600080fd5b506105a361059e366004612fae565b611793565b60405161024d91906135f4565b3480156105bc57600080fd5b506102086105cb366004613602565b61179e565b6102086105de366004613140565b6117fe565b3480156105ef57600080fd5b506102086105fe366004613648565b61181c565b34801561060f57600080fd5b506105a361061e366004613585565b611846565b61062b61188e565b6106336118d9565b61063e8383836118fc565b505050565b6001600160a01b0381166000908152600d60209081526040808320805482518185028101850190935280835260609492939192909184015b8282101561082c57838290600052602060002090600502016040518060800160405290816000820154815260200160018201604051806040016040529081600082015481526020016001820180546106d290613661565b80601f01602080910402602001604051908101604052809291908181526020018280546106fe90613661565b801561074b5780601f106107205761010080835404028352916020019161074b565b820191906000526020600020905b81548152906001019060200180831161072e57829003601f168201915b505050919092525050508152600382015460209091019060ff16600681111561077657610776613041565b600681111561078757610787613041565b815260200160048201805461079b90613661565b80601f01602080910402602001604051908101604052809291908181526020018280546107c790613661565b80156108145780601f106107e957610100808354040283529160200191610814565b820191906000526020600020905b8154815290600101906020018083116107f757829003601f168201915b5050505050815250508152602001906001019061067b565b505050509050919050565b600754604051630e6e1ae360e21b8152600481018390523360248201526001600160a01b03909116906339b86b8c90604401602060405180830381865afa158015610886573d6000803e3d6000fd5b505050506040513d601f19601f820116820180604052508101906108aa919061369b565b6108ea5760405162461bcd60e51b815260206004820152600c60248201526b15539055551213d49256915160a21b60448201526064015b60405180910390fd5b60648211156109305760405162461bcd60e51b8152602060048201526012602482015271496e76616c69642070657263656e7461676560701b60448201526064016108e1565b50600655565b600061094061188e565b6109486118d9565b610952838361193e565b90505b92915050565b6001600160a01b0381166000908152600c60209081526040808320805482518185028101850190935280835260609492939192909184015b8282101561082c57838290600052602060002090600502016040518060800160405290816000820154815260200160018201604051806040016040529081600082015481526020016001820180546109ea90613661565b80601f0160208091040260200160405190810160405280929190818152602001828054610a1690613661565b8015610a635780601f10610a3857610100808354040283529160200191610a63565b820191906000526020600020905b815481529060010190602001808311610a4657829003601f168201915b505050919092525050508152600382015460209091019060ff166006811115610a8e57610a8e613041565b6006811115610a9f57610a9f613041565b8152602001600482018054610ab390613661565b80601f0160208091040260200160405190810160405280929190818152602001828054610adf90613661565b8015610b2c5780601f10610b0157610100808354040283529160200191610b2c565b820191906000526020600020905b815481529060010190602001808311610b0f57829003601f168201915b50505050508152505081526020019060010190610993565b6001600160a01b0383163314801590610b645750610b628333611c6f565b155b15610b825760405163075fd2b160e01b815260040160405180910390fd5b6001600160a01b038084166000908152600a60209081526040808320815160c081018352815460ff8116151582526101009004909516858401526001810154858301528151808301909252600281018054835260038201805495969592946060870194939084019190610bf490613661565b80601f0160208091040260200160405190810160405280929190818152602001828054610c2090613661565b8015610c6d5780601f10610c4257610100808354040283529160200191610c6d565b820191906000526020600020905b815481529060010190602001808311610c5057829003601f168201915b505050919092525050508152600482015460209091019060ff166006811115610c9857610c98613041565b6006811115610ca957610ca9613041565b81526020016004820160019054906101000a900460ff166006811115610cd157610cd1613041565b6006811115610ce257610ce2613041565b9052509050600281608001516006811115610cff57610cff613041565b14610d1d5760405163392c16fb60e21b815260040160405180910390fd5b6001600160a01b0384166000908152600d602052604090208054841115610d5757604051632f1f68e160e11b815260040160405180910390fd5b6000818581548110610d6b57610d6b6136b8565b6000918252602090912060059091020190506002600382015460ff166006811115610d9857610d98613041565b03610db657604051637f46ed2760e11b815260040160405180910390fd5b8360018201610dc58282613714565b505060038101805460ff191660011790556040517f8673cfb5a2cbad812463bdfd7c85511f29c804579a86d318889ab9251553996190610e0a9088908890889061380c565b60405180910390a1505050505050565b600061095582611d67565b610e2d612c54565b61095582611e0c565b6000336001600160a01b0384161480610e545750610e548333611c6f565b905080610e745760405163075fd2b160e01b815260040160405180910390fd5b6001600160a01b0383166000908152600a602052604090206002600482015460ff166006811115610ea757610ea7613041565b14610ec55760405163392c16fb60e21b815260040160405180910390fd5b60026004820154610100900460ff166006811115610ee557610ee5613041565b03610f03576040516305ca31d360e51b815260040160405180910390fd5b610f0c84611f7c565b60005b8351811015610fe6576001600160a01b0385166000908152600c602052604090208451859083908110610f4457610f446136b8565b60209081029190910181015182546001818101855560009485529383902082516005909202019081558183015180519482019485559283015191939092916002840190610f9190826138a5565b505050604082015160038201805460ff19166001836006811115610fb757610fb7613041565b021790555060608201516004820190610fd090826138a5565b5050508080610fde9061397a565b915050610f0f565b508251604080516001600160a01b038716815260208101929092527f8a5603111f154f43104afe04452c6a93024a972cb6a0af72e6f38bcce68625d591015b60405180910390a150505050565b8151815160609190811461105a57604051633da4c02b60e11b815260040160405180910390fd5b6000816001600160401b0381111561107457611074612d61565b6040519080825280602002602001820160405280156110b957816020015b60408051808201909152600080825260208201528152602001906001900390816110925790505b50905060005b82811015611128576111038682815181106110dc576110dc6136b8565b60200260200101518683815181106110f6576110f66136b8565b6020026020010151611fb2565b828281518110611115576111156136b8565b60209081029190910101526001016110bf565b50949350505050565b3361113b81611ffd565b6001600160a01b0383166000908152600a6020526040902060026004820154610100900460ff16600681111561117357611173613041565b03611191576040516305ca31d360e51b815260040160405180910390fd5b336000908152600b60205260408120546006546005549192916064916111b691613993565b6111c091906139aa565b905060028560068111156111d6576111d6613041565b0361149f576001600160a01b0386166000908152600c6020526040812060010180548492906112069084906139cc565b90915550506001600160a01b0386166000908152600c602052604090206001015481101561149a576001600160a01b0386166000908152600a60205260409020600401805486919061ff00191661010083600681111561126857611268613041565b02179055506001600160a01b0386166000908152600c60209081526040808320805482518185028101850190935280835261145c948b9484015b8282101561145357838290600052602060002090600502016040518060800160405290816000820154815260200160018201604051806040016040529081600082015481526020016001820180546112f990613661565b80601f016020809104026020016040519081016040528092919081815260200182805461132590613661565b80156113725780601f1061134757610100808354040283529160200191611372565b820191906000526020600020905b81548152906001019060200180831161135557829003601f168201915b505050919092525050508152600382015460209091019060ff16600681111561139d5761139d613041565b60068111156113ae576113ae613041565b81526020016004820180546113c290613661565b80601f01602080910402602001604051908101604052809291908181526020018280546113ee90613661565b801561143b5780601f106114105761010080835404028352916020019161143b565b820191906000526020600020905b81548152906001019060200180831161141e57829003601f168201915b505050505081525050815260200190600101906112a2565b505050506120af565b6040516001600160a01b03871681527f7b05d1f85b1ac2e76c0d8dbb0dfa809df6788f66bbeeb837b2b5fae4f64c0063906020015b60405180910390a15b6115bd565b60038560068111156114b3576114b3613041565b0361158c576001600160a01b0386166000908152600c6020526040812060020180548492906114e39084906139cc565b90915550506001600160a01b0386166000908152600c602052604090206002015481101561149a576001600160a01b0386166000908152600a60205260409020600401805486919061ff00191661010083600681111561154557611545613041565b021790555061155386611f7c565b6040516001600160a01b03871681527f5a90817477dd8f83cfe5d429e1dc84ad5a25cb72b83291c707c6f8f5c4f2ac8490602001611491565b7f30dae55c386c6176f3f7b7ee6ad4df33970f2e442cb0142e978cf78fd8ae138d8686604051610e0a9291906139df565b505050505050565b336115cf81611ffd565b6115d88261227c565b60405182151581527fd94c9bc4d43c51d8dc345a016d8e3d994432fac68e72832e4cf3a616bd8efae09060200160405180910390a15050565b600d602052816000526040600020818154811061162d57600080fd5b906000526020600020906005020160009150915050806000015490806001016040518060400160405290816000820154815260200160018201805461167190613661565b80601f016020809104026020016040519081016040528092919081815260200182805461169d90613661565b80156116ea5780601f106116bf576101008083540402835291602001916116ea565b820191906000526020600020905b8154815290600101906020018083116116cd57829003601f168201915b505050919092525050506003820154600483018054929360ff9092169261171090613661565b80601f016020809104026020016040519081016040528092919081815260200182805461173c90613661565b80156117895780601f1061175e57610100808354040283529160200191611789565b820191906000526020600020905b81548152906001019060200180831161176c57829003601f168201915b5050505050905084565b6000610955826122c3565b6000818060200190518101906117b49190613a07565b90506117c083826122d8565b7f91efa3d50feccde0d0d202f8ae5c41ca0b2be614cebcb2bd2f4b019396e6568a83836040516117f1929190613b2f565b60405180910390a1505050565b61180661188e565b61180e6118d9565b6118188282612491565b5050565b61182461188e565b806002600082825461183691906139cc565b9091555061184390508181565b50565b6001600160a01b0382166000908152600d60205260408120805483908110611870576118706136b8565b600091825260209091206005909102016003015460ff169392505050565b336001600160a01b037f000000000000000000000000000000000000000000000000000000000000000016146118d75760405163075fd2b160e01b815260040160405180910390fd5b565b6001546000036118d757604051630f68fe6360e21b815260040160405180910390fd5b8061190681611ffd565b835160005b818110156115bd57611936868281518110611928576119286136b8565b602002602001015185612776565b60010161190b565b6000611948612b1c565b60008060008061196b604051806040016040528060008152602001606081525090565b60045460ff16156119c0578780602001905181019061198a9190613bde565b9298509096509250905061199e8688611c6f565b6119bb5760405163075fd2b160e01b815260040160405180910390fd5b611a2d565b878060200190518101906119d49190613bde565b9297509095506001600160a01b0386161515945092509050826119f757846119f9565b835b9550828015611a0f5750611a0d8688611c6f565b155b15611a2d5760405163075fd2b160e01b815260040160405180910390fd5b60045462010000900460ff168015611a43575081155b15611a61576040516303b167dd60e01b815260040160405180910390fd5b60026001600160a01b0387166000908152600a602052604090206004015460ff166006811115611a9357611a93613041565b03611ab15760405163083a81f760e31b815260040160405180910390fd5b600454610100900460ff168015611ad457506020810151511580611ad457508051155b15611af25760405163c19e07c560e01b815260040160405180910390fd5b6040805160c0810190915260045460009190819060ff16611b135785611b16565b60015b151581526001600160a01b0388166020820152604081018590526060810184905260800160028152602001600190526001600160a01b038881166000908152600a602090815260409182902084518154868401516001600160a81b0319909116911515610100600160a81b03191691909117610100919095160293909317835590830151600183015560608301518051600284019081559181015193945084939091906003840190611bc890826138a5565b505050608082015160048201805460ff19166001836006811115611bee57611bee613041565b021790555060a082015160048201805461ff001916610100836006811115611c1857611c18613041565b0217905550905050866001600160a01b03167fa197306e3dd5494a61a695381aa809a53b8e377a685e84e404a85d5a8da6cc628a8a604051611c5b929190613c4b565b60405180910390a250505050505092915050565b60075460405163dd93da4360e01b81526001600160a01b038481166004830152600092839291169063dd93da4390602401600060405180830381865afa158015611cbd573d6000803e3d6000fd5b505050506040513d6000823e601f3d908101601f19168201604052611ce59190810190613c75565b6007548151604051635e8a791560e01b815260048101919091526001600160a01b038681166024830152929350911690635e8a791590604401602060405180830381865afa158015611d3b573d6000803e3d6000fd5b505050506040513d601f19601f82011682018060405250810190611d5f919061369b565b949350505050565b6001546040516329e40d4b60e01b81526000916001600160a01b037f000000000000000000000000000000000000000000000000000000000000000016916329e40d4b91611dcb9186906004019182526001600160a01b0316602082015260400190565b602060405180830381865afa158015611de8573d6000803e3d6000fd5b505050506040513d601f19601f82011682018060405250810190610955919061369b565b611e14612c54565b6001600160a01b038083166000908152600a6020908152604091829020825160c081018452815460ff811615158252610100900490941684830152600181015484840152825180840190935260028101805484526003820180549294606087019490939084019190611e8590613661565b80601f0160208091040260200160405190810160405280929190818152602001828054611eb190613661565b8015611efe5780601f10611ed357610100808354040283529160200191611efe565b820191906000526020600020905b815481529060010190602001808311611ee157829003601f168201915b505050919092525050508152600482015460209091019060ff166006811115611f2957611f29613041565b6006811115611f3a57611f3a613041565b81526020016004820160019054906101000a900460ff166006811115611f6257611f62613041565b6006811115611f7357611f73613041565b90525092915050565b6001600160a01b0381166000908152600c6020526040812090611f9f8282612caf565b5060006001820181905560029091015550565b60408051808201909152600080825260208201526000611fd184611e0c565b6040805180820182526020808401516001600160a01b0316825291909201519082015291505092915050565b6001546040516329e40d4b60e01b815260048101919091526001600160a01b0382811660248301527f000000000000000000000000000000000000000000000000000000000000000016906329e40d4b90604401602060405180830381865afa15801561206e573d6000803e3d6000fd5b505050506040513d601f19601f82011682018060405250810190612092919061369b565b6118435760405163075fd2b160e01b815260040160405180910390fd5b6001600160a01b0382166000908152600d6020526040812054156120ee576001600160a01b0383166000908152600d602052604081206120ee91612caf565b815160005b8181101561221457600084828151811061210f5761210f6136b8565b602002602001015190506000600681111561212c5761212c613041565b8160400151600681111561214257612142613041565b1461216057604051632f1f68e160e11b815260040160405180910390fd5b805161216c90856139cc565b6001600160a01b0387166000908152600d60209081526040822080546001818101835591845292829020855160059094020192835584820151805191840191825591820151939750849360028401906121c590826138a5565b505050604082015160038201805460ff191660018360068111156121eb576121eb613041565b02179055506060820151600482019061220490826138a5565b5050600190920191506120f39050565b5081670de0b6b3a76400001461223d57604051632f1f68e160e11b815260040160405180910390fd5b604080516001600160a01b0386168152602081018390527fb000fb1507aac2465ccb4f6bd1b601c7053279005e9e9932c41946b35c84949b9101611025565b6000805460ff19168215159081179091556040519081527fd94c9bc4d43c51d8dc345a016d8e3d994432fac68e72832e4cf3a616bd8efae09060200160405180910390a150565b60006122ce82611e0c565b6080015192915050565b6122e182612b3f565b805160048054602084015160408501511515620100000262ff0000199115156101000261ff00199515159590951661ffff19909316929092179390931792909216919091179055606081015160005b81518110156123e45781818151811061234b5761234b6136b8565b602002602001015160200151600b600084848151811061236d5761236d6136b8565b6020026020010151600001516001600160a01b03166001600160a01b03168152602001908152602001600020819055508181815181106123af576123af6136b8565b602002602001015160200151600560008282546123cc91906139cc565b909155508190506123dc8161397a565b915050612330565b507f00000000000000000000000000000000000000000000000000000000000000006001600160a01b0316635ab1bd536040518163ffffffff1660e01b8152600401602060405180830381865afa158015612443573d6000803e3d6000fd5b505050506040513d601f19601f820116820180604052508101906124679190613d3b565b600780546001600160a01b0319166001600160a01b039290921691909117905561063e600161227c565b612499612b8e565b806124a381611ffd565b6000806000858060200190518101906124bc9190613d58565b6001600160a01b0383166000908152600a60209081526040808320600e9092529091205493965091945092509015612507576040516305ca31d360e51b815260040160405180910390fd5b6002600482015460ff16600681111561252257612522613041565b141580156125415750600283600681111561253f5761253f613041565b145b156126dc5760015460405163068bcd8d60e01b81526000916001600160a01b037f0000000000000000000000000000000000000000000000000000000000000000169163068bcd8d9161259a9160040190815260200190565b600060405180830381865afa1580156125b7573d6000803e3d6000fd5b505050506040513d6000823e601f3d908101601f191682016040526125df9190810190613d9b565b905082600860008282546125f391906139cc565b9091555050600254600854111561261d57604051638e81b16f60e01b815260040160405180910390fd5b6001820183905560048201805460ff191660029081179091556040517f94593b52aa436dd31a63e313045c2eb23d43eb2d6f5b4d7797b4432e7b27749091612667918891906139df565b60405180910390a1846001600160a01b03167f463ffc2cf8b1596445c417388ed30e53eb67cf6668cb2be7f0addf8a78c8441b836001015483604001518a6040516126ce939291909283526001600160a01b03918216602084015216604082015260600190565b60405180910390a250612767565b6003600482015460ff1660068111156126f7576126f7613041565b141580156127165750600383600681111561271457612714613041565b145b156127675760048101805460ff191660039081179091556040517f94593b52aa436dd31a63e313045c2eb23d43eb2d6f5b4d7797b4432e7b2774909161275e918791906139df565b60405180910390a15b50505050506118186001600355565b6001600160a01b038083166000908152600e6020908152604080832054600d8352818420600a8452828520835160c081018552815460ff811615158252610100900490971687860152600181015487850152835180850190945260028101805485526003820180549498939796939592946060870194840191906127f990613661565b80601f016020809104026020016040519081016040528092919081815260200182805461282590613661565b80156128725780601f1061284757610100808354040283529160200191612872565b820191906000526020600020905b81548152906001019060200180831161285557829003601f168201915b505050919092525050508152600482015460209091019060ff16600681111561289d5761289d613041565b60068111156128ae576128ae613041565b81526020016004820160019054906101000a900460ff1660068111156128d6576128d6613041565b60068111156128e7576128e7613041565b8152505090506000828481548110612901576129016136b8565b90600052602060002090600502019050828054905084118061293c57506001600382015460ff16600681111561293957612939613041565b14155b1561295a57604051632f1f68e160e11b815260040160405180910390fd5b6000670de0b6b3a7640000826000015484604001516129799190613993565b61298391906139aa565b905060007f00000000000000000000000000000000000000000000000000000000000000006001600160a01b031663068bcd8d6001546040518263ffffffff1660e01b81526004016129d791815260200190565b600060405180830381865afa1580156129f4573d6000803e3d6000fd5b505050506040513d6000823e601f3d908101601f19168201604052612a1c9190810190613d9b565b90508160026000828254612a309190613e4e565b92505081905550612a4a8160400151856020015184612bb8565b60038301805460ff191660021790556001600160a01b0388166000908152600e60205260408120805491612a7d8361397a565b91905055507ff1af82b65c631a030029b10ea8f00f68290285c7c797644155b8f23969ca1d6388876002604051612ab693929190613e61565b60405180910390a1602080850151604080516001600160a01b039283168152928301859052898216908301528916907fb5b51454adfa840bd593658325a60a50b0216f12eb5d2937efe6cea935675b7d9060600160405180910390a25050505050505050565b60005460ff166118d75760405163cfe7975b60e01b815260040160405180910390fd5b612b4761188e565b60015415612b685760405163439a74c960e01b815260040160405180910390fd5b80600003612b8957604051637fcce2a960e01b815260040160405180910390fd5b600155565b600260035403612bb157604051633ee5aeb560e01b815260040160405180910390fd5b6002600355565b73eeeeeeeeeeeeeeeeeeeeeeeeeeeeeeeeeeeeeeed196001600160a01b03841601612be75761063e8282612bf2565b61063e838383612c0e565b60003860003884865af16118185763b12d13eb6000526004601cfd5b816014528060345263a9059cbb60601b60005260206000604460106000875af13d156001600051141716612c4a576390b8ec186000526004601cfd5b6000603452505050565b6040518060c0016040528060001515815260200160006001600160a01b0316815260200160008152602001612c9c604051806040016040528060008152602001606081525090565b8152602001600081526020016000905290565b508054600082556005029060005260206000209081019061184391905b80821115612d135760008082556001820181815581612cee6002850182612d17565b505060038201805460ff19169055612d0a600483016000612d17565b50600501612ccc565b5090565b508054612d2390613661565b6000825580601f10612d33575050565b601f01602090049060005260206000209081019061184391905b80821115612d135760008155600101612d4d565b634e487b7160e01b600052604160045260246000fd5b604051608081016001600160401b0381118282101715612d9957612d99612d61565b60405290565b604080519081016001600160401b0381118282101715612d9957612d99612d61565b60405160c081016001600160401b0381118282101715612d9957612d99612d61565b604051601f8201601f191681016001600160401b0381118282101715612e0b57612e0b612d61565b604052919050565b60006001600160401b03821115612e2c57612e2c612d61565b5060051b60200190565b6001600160a01b038116811461184357600080fd5b600082601f830112612e5c57600080fd5b81356020612e71612e6c83612e13565b612de3565b82815260059290921b84018101918181019086841115612e9057600080fd5b8286015b84811015612eb4578035612ea781612e36565b8352918301918301612e94565b509695505050505050565b60006001600160401b03821115612ed857612ed8612d61565b50601f01601f191660200190565b600082601f830112612ef757600080fd5b8135612f05612e6c82612ebf565b818152846020838601011115612f1a57600080fd5b816020850160208301376000918101602001919091529392505050565b600080600060608486031215612f4c57600080fd5b83356001600160401b0380821115612f6357600080fd5b612f6f87838801612e4b565b94506020860135915080821115612f8557600080fd5b50612f9286828701612ee6565b9250506040840135612fa381612e36565b809150509250925092565b600060208284031215612fc057600080fd5b8135612fcb81612e36565b9392505050565b60005b83811015612fed578181015183820152602001612fd5565b50506000910152565b6000815180845261300e816020860160208601612fd2565b601f01601f19169290920160200192915050565b805182526000602082015160406020850152611d5f6040850182612ff6565b634e487b7160e01b600052602160045260246000fd5b6007811061307557634e487b7160e01b600052602160045260246000fd5b9052565b60006020808301818452808551808352604092508286019150828160051b87010184880160005b8381101561311057603f19898403018552815160808151855288820151818a8701526130ce82870182613022565b915050878201516130e189870182613057565b50606080830151925085820381870152506130fc8183612ff6565b9689019694505050908601906001016130a0565b509098975050505050505050565b6000806040838503121561313157600080fd5b50508035926020909101359150565b6000806040838503121561315357600080fd5b82356001600160401b0381111561316957600080fd5b61317585828601612ee6565b925050602083013561318681612e36565b809150509250929050565b6000806000606084860312156131a657600080fd5b83356131b181612e36565b92506020840135915060408401356001600160401b038111156131d357600080fd5b840160408187031215612fa357600080fd5b6020815281511515602082015260018060a01b036020830151166040820152604082015160608201526000606083015160c0608084015261322960e0840182613022565b9050608084015161323d60a0850182613057565b5060a084015161325060c0850182613057565b509392505050565b6007811061184357600080fd5b803561327081613258565b919050565b6000806040838503121561328857600080fd5b6132928335612e36565b823591506001600160401b0380602085013511156132af57600080fd5b6020840135840185601f8201126132c557600080fd5b6132d2612e6c8235612e13565b81358082526020808301929160051b8401018810156132f057600080fd5b602083015b6020843560051b8501018110156133f157848135111561331457600080fd5b80358401601f196080828c038201121561332d57600080fd5b613335612d77565b60208301358152876040840135111561334d57600080fd5b60408301358301604083828f0301121561336657600080fd5b61336e612d9f565b925060208101358352886040820135111561338857600080fd5b61339b8d60206040840135840101612ee6565b6020840152508160208201526133b360608401613265565b604082015287608084013511156133c957600080fd5b6133dc8c60206080860135860101612ee6565b606082015285525050602092830192016132f5565b50809450505050509250929050565b6000806040838503121561341357600080fd5b82356001600160401b038082111561342a57600080fd5b61343686838701612e4b565b935060209150818501358181111561344d57600080fd5b8501601f8101871361345e57600080fd5b803561346c612e6c82612e13565b81815260059190911b8201840190848101908983111561348b57600080fd5b8584015b838110156134c3578035868111156134a75760008081fd5b6134b58c8983890101612ee6565b84525091860191860161348f565b508096505050505050509250929050565b602080825282518282018190526000919060409081850190868401855b8281101561351f57815180516001600160a01b031685528601518685015292840192908501906001016134f1565b5091979650505050505050565b6000806040838503121561353f57600080fd5b823561354a81612e36565b9150602083013561318681613258565b801515811461184357600080fd5b60006020828403121561357a57600080fd5b8135612fcb8161355a565b6000806040838503121561359857600080fd5b82356135a381612e36565b946020939093013593505050565b8481526080602082015260006135ca6080830186613022565b6135d76040840186613057565b82810360608401526135e98185612ff6565b979650505050505050565b602081016109558284613057565b6000806040838503121561361557600080fd5b8235915060208301356001600160401b0381111561363257600080fd5b61363e85828601612ee6565b9150509250929050565b60006020828403121561365a57600080fd5b5035919050565b600181811c9082168061367557607f821691505b60208210810361369557634e487b7160e01b600052602260045260246000fd5b50919050565b6000602082840312156136ad57600080fd5b8151612fcb8161355a565b634e487b7160e01b600052603260045260246000fd5b601f82111561063e57600081815260208120601f850160051c810160208610156136f55750805b601f850160051c820191505b818110156115bd57828155600101613701565b813581556001808201602080850135601e1986360301811261373557600080fd5b850180356001600160401b0381111561374d57600080fd5b803603838301131561375e57600080fd5b6137728161376c8654613661565b866136ce565b6000601f8211600181146137a8576000831561379057508382018501355b600019600385901b1c1916600184901b178655613801565b600086815260209020601f19841690835b828110156137d8578685018801358255938701939089019087016137b9565b50848210156137f75760001960f88660031b161c198785880101351681555b50508683881b0186555b505050505050505050565b60018060a01b0384168152826020820152606060408201528135606082015260006020830135601e1984360301811261384457600080fd5b83016020810190356001600160401b0381111561386057600080fd5b80360382131561386f57600080fd5b604060808501528060a0850152808260c0860137600060c0828601015260c0601f19601f83011685010192505050949350505050565b81516001600160401b038111156138be576138be612d61565b6138d2816138cc8454613661565b846136ce565b602080601f83116001811461390757600084156138ef5750858301515b600019600386901b1c1916600185901b1785556115bd565b600085815260208120601f198616915b8281101561393657888601518255948401946001909101908401613917565b50858210156139545787850151600019600388901b60f8161c191681555b5050505050600190811b01905550565b634e487b7160e01b600052601160045260246000fd5b60006001820161398c5761398c613964565b5060010190565b808202811582820484141761095557610955613964565b6000826139c757634e487b7160e01b600052601260045260246000fd5b500490565b8082018082111561095557610955613964565b6001600160a01b038316815260408101612fcb6020830184613057565b805161327081612e36565b60006020808385031215613a1a57600080fd5b82516001600160401b0380821115613a3157600080fd5b9084019060808287031215613a4557600080fd5b613a4d612d77565b8251613a588161355a565b815282840151613a678161355a565b81850152604083810151613a7a8161355a565b82820152606084015183811115613a9057600080fd5b80850194505087601f850112613aa557600080fd5b83519250613ab5612e6c84612e13565b83815260069390931b84018501928581019089851115613ad457600080fd5b948601945b84861015613b1d5782868b031215613af15760008081fd5b613af9612d9f565b8651613b0481612e36565b8152868801518882015282529482019490860190613ad9565b60608401525090979650505050505050565b828152604060208201526000611d5f6040830184612ff6565b600082601f830112613b5957600080fd5b8151613b67612e6c82612ebf565b818152846020838601011115613b7c57600080fd5b611d5f826020830160208701612fd2565b600060408284031215613b9f57600080fd5b613ba7612d9f565b90508151815260208201516001600160401b03811115613bc657600080fd5b613bd284828501613b48565b60208301525092915050565b60008060008060808587031215613bf457600080fd5b8451613bff81612e36565b6020860151909450613c1081612e36565b6040860151606087015191945092506001600160401b03811115613c3357600080fd5b613c3f87828801613b8d565b91505092959194509250565b604081526000613c5e6040830185612ff6565b905060018060a01b03831660208301529392505050565b600060208284031215613c8757600080fd5b81516001600160401b0380821115613c9e57600080fd5b9083019060c08286031215613cb257600080fd5b613cba612dc1565b8251815260208301516020820152604083015182811115613cda57600080fd5b613ce687828601613b48565b604083015250606083015182811115613cfe57600080fd5b613d0a87828601613b8d565b606083015250613d1c608084016139fc565b6080820152613d2d60a084016139fc565b60a082015295945050505050565b600060208284031215613d4d57600080fd5b8151612fcb81612e36565b600080600060608486031215613d6d57600080fd5b8351613d7881612e36565b6020850151909350613d8981613258565b80925050604084015190509250925092565b600060208284031215613dad57600080fd5b81516001600160401b0380821115613dc457600080fd5b9083019060c08286031215613dd857600080fd5b613de0612dc1565b825181526020830151613df281612e36565b60208201526040830151613e0581612e36565b6040820152606083015182811115613e1c57600080fd5b613e2887828601613b8d565b6060830152506080830151608082015260a083015160a082015280935050505092915050565b8181038181111561095557610955613964565b6001600160a01b03841681526020810183905260608101611d5f604083018461305756fea26469706673582212207b0b0d34268d9b385ea41aef40633e8f07122e13afa4ba37374367f19ec20bfc64736f6c63430008140033",
  "linkReferences": {},
  "deployedLinkReferences": {}
}