{
  "_format": "hh-sol-artifact-1",
  "contractName": "ExecutorSupplierVotingStrategy",
  "sourceName": "contracts/ExecutorSupplierVotingStrategy.sol",
  "abi": [
    {
      "inputs": [
        {
          "internalType": "address",
          "name": "_allo",
          "type": "address"
        },
        {
          "internalType": "string",
          "name": "_name",
          "type": "string"
        }
      ],
      "stateMutability": "nonpayable",
      "type": "constructor"
    },
    {
      "inputs": [],
      "name": "ALLOCATION_ACTIVE",
      "type": "error"
    },
    {
      "inputs": [],
      "name": "ALLOCATION_EXCEEDS_POOL_AMOUNT",
      "type": "error"
    },
    {
      "inputs": [],
      "name": "ALLOCATION_NOT_ACTIVE",
      "type": "error"
    },
    {
      "inputs": [],
      "name": "ALLOCATION_NOT_ENDED",
      "type": "error"
    },
    {
      "inputs": [],
      "name": "ALREADY_INITIALIZED",
      "type": "error"
    },
    {
      "inputs": [],
      "name": "ALREADY_REVIEWED",
      "type": "error"
    },
    {
      "inputs": [],
      "name": "AMOUNT_MISMATCH",
      "type": "error"
    },
    {
      "inputs": [],
      "name": "ANCHOR_ERROR",
      "type": "error"
    },
    {
      "inputs": [],
      "name": "ARRAY_MISMATCH",
      "type": "error"
    },
    {
      "inputs": [],
      "name": "INVALID",
      "type": "error"
    },
    {
      "inputs": [],
      "name": "INVALID_ADDRESS",
      "type": "error"
    },
    {
      "inputs": [],
      "name": "INVALID_FEE",
      "type": "error"
    },
    {
      "inputs": [],
      "name": "INVALID_METADATA",
      "type": "error"
    },
    {
      "inputs": [],
      "name": "INVALID_MILESTONE",
      "type": "error"
    },
    {
      "inputs": [],
      "name": "INVALID_MILESTONES_PERCENTAGE",
      "type": "error"
    },
    {
      "inputs": [],
      "name": "INVALID_MILESTONE_STATUS",
      "type": "error"
    },
    {
      "inputs": [],
      "name": "INVALID_REGISTRATION",
      "type": "error"
    },
    {
      "inputs": [],
      "name": "INVALID_STATUS",
      "type": "error"
    },
    {
      "inputs": [],
      "name": "IS_APPROVED_STRATEGY",
      "type": "error"
    },
    {
      "inputs": [],
      "name": "MILESTONES_ALREADY_SET",
      "type": "error"
    },
    {
      "inputs": [],
      "name": "MILESTONE_ALREADY_ACCEPTED",
      "type": "error"
    },
    {
      "inputs": [],
      "name": "MISMATCH",
      "type": "error"
    },
    {
      "inputs": [],
      "name": "NONCE_NOT_AVAILABLE",
      "type": "error"
    },
    {
      "inputs": [],
      "name": "NOT_APPROVED_STRATEGY",
      "type": "error"
    },
    {
      "inputs": [],
      "name": "NOT_ENOUGH_FUNDS",
      "type": "error"
    },
    {
      "inputs": [],
      "name": "NOT_IMPLEMENTED",
      "type": "error"
    },
    {
      "inputs": [],
      "name": "NOT_INITIALIZED",
      "type": "error"
    },
    {
      "inputs": [],
      "name": "NOT_PENDING_OWNER",
      "type": "error"
    },
    {
      "inputs": [],
      "name": "POOL_ACTIVE",
      "type": "error"
    },
    {
      "inputs": [],
      "name": "POOL_INACTIVE",
      "type": "error"
    },
    {
      "inputs": [],
      "name": "RECIPIENT_ALREADY_ACCEPTED",
      "type": "error"
    },
    {
      "inputs": [
        {
          "internalType": "address",
          "name": "recipientId",
          "type": "address"
        }
      ],
      "name": "RECIPIENT_ERROR",
      "type": "error"
    },
    {
      "inputs": [],
      "name": "RECIPIENT_NOT_ACCEPTED",
      "type": "error"
    },
    {
      "inputs": [],
      "name": "REGISTRATION_NOT_ACTIVE",
      "type": "error"
    },
    {
      "inputs": [],
      "name": "ReentrancyGuardReentrantCall",
      "type": "error"
    },
    {
      "inputs": [],
      "name": "SUPPLY_IS_ALLOWED_ONLY_ONCE",
      "type": "error"
    },
    {
      "inputs": [],
      "name": "SUPPLY_NOT_FOUND",
      "type": "error"
    },
    {
      "inputs": [],
      "name": "UNAUTHORIZED",
      "type": "error"
    },
    {
      "inputs": [],
      "name": "ZERO_ADDRESS",
      "type": "error"
    },
    {
      "anonymous": false,
      "inputs": [
        {
          "indexed": true,
          "internalType": "address",
          "name": "recipientId",
          "type": "address"
        },
        {
          "indexed": false,
          "internalType": "uint256",
          "name": "amount",
          "type": "uint256"
        },
        {
          "indexed": false,
          "internalType": "address",
          "name": "token",
          "type": "address"
        },
        {
          "indexed": false,
          "internalType": "address",
          "name": "sender",
          "type": "address"
        }
      ],
      "name": "Allocated",
      "type": "event"
    },
    {
      "anonymous": false,
      "inputs": [
        {
          "indexed": true,
          "internalType": "address",
          "name": "recipientId",
          "type": "address"
        },
        {
          "indexed": false,
          "internalType": "address",
          "name": "recipientAddress",
          "type": "address"
        },
        {
          "indexed": false,
          "internalType": "uint256",
          "name": "amount",
          "type": "uint256"
        },
        {
          "indexed": false,
          "internalType": "address",
          "name": "sender",
          "type": "address"
        }
      ],
      "name": "Distributed",
      "type": "event"
    },
    {
      "anonymous": false,
      "inputs": [
        {
          "indexed": false,
          "internalType": "uint256",
          "name": "poolId",
          "type": "uint256"
        },
        {
          "indexed": false,
          "internalType": "bytes",
          "name": "data",
          "type": "bytes"
        }
      ],
      "name": "Initialized",
      "type": "event"
    },
    {
      "anonymous": false,
      "inputs": [
        {
          "indexed": false,
          "internalType": "address",
          "name": "recipientId",
          "type": "address"
        },
        {
          "indexed": false,
          "internalType": "uint256",
          "name": "milestoneId",
          "type": "uint256"
        },
        {
          "indexed": false,
          "internalType": "enum IStrategy.Status",
          "name": "status",
          "type": "uint8"
        }
      ],
      "name": "MilestoneStatusChanged",
      "type": "event"
    },
    {
      "anonymous": false,
      "inputs": [
        {
          "indexed": false,
          "internalType": "address",
          "name": "recipientId",
          "type": "address"
        },
        {
          "indexed": false,
          "internalType": "uint256",
          "name": "milestoneId",
          "type": "uint256"
        },
        {
          "components": [
            {
              "internalType": "uint256",
              "name": "protocol",
              "type": "uint256"
            },
            {
              "internalType": "string",
              "name": "pointer",
              "type": "string"
            }
          ],
          "indexed": false,
          "internalType": "struct Metadata",
          "name": "metadata",
          "type": "tuple"
        }
      ],
      "name": "MilestoneSubmitted",
      "type": "event"
    },
    {
      "anonymous": false,
      "inputs": [
        {
          "indexed": false,
          "internalType": "address",
          "name": "recipientId",
          "type": "address"
        },
        {
          "indexed": false,
          "internalType": "uint256",
          "name": "milestonesLength",
          "type": "uint256"
        }
      ],
      "name": "MilestonesOffered",
      "type": "event"
    },
    {
      "anonymous": false,
      "inputs": [
        {
          "indexed": false,
          "internalType": "address",
          "name": "recipientId",
          "type": "address"
        },
        {
          "indexed": false,
          "internalType": "enum IStrategy.Status",
          "name": "status",
          "type": "uint8"
        }
      ],
      "name": "MilestonesReviewed",
      "type": "event"
    },
    {
      "anonymous": false,
      "inputs": [
        {
          "indexed": false,
          "internalType": "address",
          "name": "recipientId",
          "type": "address"
        },
        {
          "indexed": false,
          "internalType": "uint256",
          "name": "milestonesLength",
          "type": "uint256"
        }
      ],
      "name": "MilestonesSet",
      "type": "event"
    },
    {
      "anonymous": false,
      "inputs": [
        {
          "indexed": false,
          "internalType": "address",
          "name": "recipientId",
          "type": "address"
        }
      ],
      "name": "OfferedMilestonesAccepted",
      "type": "event"
    },
    {
      "anonymous": false,
      "inputs": [
        {
          "indexed": false,
          "internalType": "address",
          "name": "recipientId",
          "type": "address"
        }
      ],
      "name": "OfferedMilestonesRejected",
      "type": "event"
    },
    {
      "anonymous": false,
      "inputs": [
        {
          "indexed": false,
          "internalType": "bool",
          "name": "active",
          "type": "bool"
        }
      ],
      "name": "PoolActive",
      "type": "event"
    },
    {
      "anonymous": false,
      "inputs": [],
      "name": "ProjectRejectDeclined",
      "type": "event"
    },
    {
      "anonymous": false,
      "inputs": [
        {
          "indexed": false,
          "internalType": "address",
          "name": "recipientId",
          "type": "address"
        },
        {
          "indexed": false,
          "internalType": "enum IStrategy.Status",
          "name": "status",
          "type": "uint8"
        }
      ],
      "name": "RecipientStatusChanged",
      "type": "event"
    },
    {
      "anonymous": false,
      "inputs": [
        {
          "indexed": true,
          "internalType": "address",
          "name": "recipientId",
          "type": "address"
        },
        {
          "indexed": false,
          "internalType": "bytes",
          "name": "data",
          "type": "bytes"
        },
        {
          "indexed": false,
          "internalType": "address",
          "name": "sender",
          "type": "address"
        }
      ],
      "name": "Registered",
      "type": "event"
    },
    {
      "anonymous": false,
      "inputs": [
        {
          "indexed": false,
          "internalType": "address",
          "name": "recipientId",
          "type": "address"
        },
        {
          "indexed": false,
          "internalType": "uint256",
          "name": "milestoneId",
          "type": "uint256"
        },
        {
          "indexed": false,
          "internalType": "enum IStrategy.Status",
          "name": "status",
          "type": "uint8"
        }
      ],
      "name": "SubmittedvMilestoneReviewed",
      "type": "event"
    },
    {
      "inputs": [],
      "name": "NATIVE",
      "outputs": [
        {
          "internalType": "address",
          "name": "",
          "type": "address"
        }
      ],
      "stateMutability": "view",
      "type": "function"
    },
    {
      "inputs": [
        {
          "internalType": "bytes",
          "name": "_data",
          "type": "bytes"
        },
        {
          "internalType": "address",
          "name": "_sender",
          "type": "address"
        }
      ],
      "name": "allocate",
      "outputs": [],
      "stateMutability": "payable",
      "type": "function"
    },
    {
      "inputs": [],
      "name": "allocatedGrantAmount",
      "outputs": [
        {
          "internalType": "uint256",
          "name": "",
          "type": "uint256"
        }
      ],
      "stateMutability": "view",
      "type": "function"
    },
    {
      "inputs": [
        {
          "internalType": "address[]",
          "name": "_recipientIds",
          "type": "address[]"
        },
        {
          "internalType": "bytes",
          "name": "_data",
          "type": "bytes"
        },
        {
          "internalType": "address",
          "name": "_sender",
          "type": "address"
        }
      ],
      "name": "distribute",
      "outputs": [],
      "stateMutability": "nonpayable",
      "type": "function"
    },
    {
      "inputs": [],
      "name": "getAllo",
      "outputs": [
        {
          "internalType": "contract IAllo",
          "name": "",
          "type": "address"
        }
      ],
      "stateMutability": "view",
      "type": "function"
    },
    {
      "inputs": [
        {
          "internalType": "address",
          "name": "_recipientId",
          "type": "address"
        },
        {
          "internalType": "uint256",
          "name": "_milestoneId",
          "type": "uint256"
        }
      ],
      "name": "getMilestoneStatus",
      "outputs": [
        {
          "internalType": "enum IStrategy.Status",
          "name": "",
          "type": "uint8"
        }
      ],
      "stateMutability": "view",
      "type": "function"
    },
    {
      "inputs": [
        {
          "internalType": "address",
          "name": "_recipientId",
          "type": "address"
        }
      ],
      "name": "getMilestones",
      "outputs": [
        {
          "components": [
            {
              "internalType": "uint256",
              "name": "amountPercentage",
              "type": "uint256"
            },
            {
              "components": [
                {
                  "internalType": "uint256",
                  "name": "protocol",
                  "type": "uint256"
                },
                {
                  "internalType": "string",
                  "name": "pointer",
                  "type": "string"
                }
              ],
              "internalType": "struct Metadata",
              "name": "metadata",
              "type": "tuple"
            },
            {
              "internalType": "enum IStrategy.Status",
              "name": "milestoneStatus",
              "type": "uint8"
            },
            {
              "internalType": "string",
              "name": "description",
              "type": "string"
            }
          ],
          "internalType": "struct ExecutorSupplierVotingStrategy.Milestone[]",
          "name": "",
          "type": "tuple[]"
        }
      ],
      "stateMutability": "view",
      "type": "function"
    },
    {
      "inputs": [
        {
          "internalType": "address",
          "name": "_recipientId",
          "type": "address"
        }
      ],
      "name": "getOffeeredMilestones",
      "outputs": [
        {
          "components": [
            {
              "internalType": "uint256",
              "name": "amountPercentage",
              "type": "uint256"
            },
            {
              "components": [
                {
                  "internalType": "uint256",
                  "name": "protocol",
                  "type": "uint256"
                },
                {
                  "internalType": "string",
                  "name": "pointer",
                  "type": "string"
                }
              ],
              "internalType": "struct Metadata",
              "name": "metadata",
              "type": "tuple"
            },
            {
              "internalType": "enum IStrategy.Status",
              "name": "milestoneStatus",
              "type": "uint8"
            },
            {
              "internalType": "string",
              "name": "description",
              "type": "string"
            }
          ],
          "internalType": "struct ExecutorSupplierVotingStrategy.Milestone[]",
          "name": "",
          "type": "tuple[]"
        }
      ],
      "stateMutability": "view",
      "type": "function"
    },
    {
      "inputs": [
        {
          "internalType": "address",
          "name": "_recipientId",
          "type": "address"
        }
      ],
      "name": "getOfferedMilestonesVotesAgainst",
      "outputs": [
        {
          "internalType": "uint256",
          "name": "",
          "type": "uint256"
        }
      ],
      "stateMutability": "view",
      "type": "function"
    },
    {
      "inputs": [
        {
          "internalType": "address",
          "name": "_recipientId",
          "type": "address"
        }
      ],
      "name": "getOfferedMilestonesVotesFor",
      "outputs": [
        {
          "internalType": "uint256",
          "name": "",
          "type": "uint256"
        }
      ],
      "stateMutability": "view",
      "type": "function"
    },
    {
      "inputs": [
        {
          "internalType": "address[]",
          "name": "_recipientIds",
          "type": "address[]"
        },
        {
          "internalType": "bytes[]",
          "name": "_data",
          "type": "bytes[]"
        }
      ],
      "name": "getPayouts",
      "outputs": [
        {
          "components": [
            {
              "internalType": "address",
              "name": "recipientAddress",
              "type": "address"
            },
            {
              "internalType": "uint256",
              "name": "amount",
              "type": "uint256"
            }
          ],
          "internalType": "struct IStrategy.PayoutSummary[]",
          "name": "",
          "type": "tuple[]"
        }
      ],
      "stateMutability": "view",
      "type": "function"
    },
    {
      "inputs": [],
      "name": "getPoolAmount",
      "outputs": [
        {
          "internalType": "uint256",
          "name": "",
          "type": "uint256"
        }
      ],
      "stateMutability": "view",
      "type": "function"
    },
    {
      "inputs": [],
      "name": "getPoolId",
      "outputs": [
        {
          "internalType": "uint256",
          "name": "",
          "type": "uint256"
        }
      ],
      "stateMutability": "view",
      "type": "function"
    },
    {
      "inputs": [
        {
          "internalType": "address",
          "name": "_recipientId",
          "type": "address"
        }
      ],
      "name": "getRecipient",
      "outputs": [
        {
          "components": [
            {
              "internalType": "bool",
              "name": "useRegistryAnchor",
              "type": "bool"
            },
            {
              "internalType": "address",
              "name": "recipientAddress",
              "type": "address"
            },
            {
              "internalType": "uint256",
              "name": "grantAmount",
              "type": "uint256"
            },
            {
              "components": [
                {
                  "internalType": "uint256",
                  "name": "protocol",
                  "type": "uint256"
                },
                {
                  "internalType": "string",
                  "name": "pointer",
                  "type": "string"
                }
              ],
              "internalType": "struct Metadata",
              "name": "metadata",
              "type": "tuple"
            },
            {
              "internalType": "enum IStrategy.Status",
              "name": "recipientStatus",
              "type": "uint8"
            },
            {
              "internalType": "enum IStrategy.Status",
              "name": "milestonesReviewStatus",
              "type": "uint8"
            }
          ],
          "internalType": "struct ExecutorSupplierVotingStrategy.Recipient",
          "name": "",
          "type": "tuple"
        }
      ],
      "stateMutability": "view",
      "type": "function"
    },
    {
      "inputs": [
        {
          "internalType": "address",
          "name": "_recipientId",
          "type": "address"
        }
      ],
      "name": "getRecipientStatus",
      "outputs": [
        {
          "internalType": "enum IStrategy.Status",
          "name": "",
          "type": "uint8"
        }
      ],
      "stateMutability": "view",
      "type": "function"
    },
    {
      "inputs": [],
      "name": "getStrategyId",
      "outputs": [
        {
          "internalType": "bytes32",
          "name": "",
          "type": "bytes32"
        }
      ],
      "stateMutability": "view",
      "type": "function"
    },
    {
      "inputs": [
        {
          "internalType": "uint256",
          "name": "_milestoneId",
          "type": "uint256"
        }
      ],
      "name": "getSubmittedMilestonesVotesAgainst",
      "outputs": [
        {
          "internalType": "uint256",
          "name": "",
          "type": "uint256"
        }
      ],
      "stateMutability": "view",
      "type": "function"
    },
    {
      "inputs": [
        {
          "internalType": "uint256",
          "name": "_milestoneId",
          "type": "uint256"
        }
      ],
      "name": "getSubmittedMilestonesVotesFor",
      "outputs": [
        {
          "internalType": "uint256",
          "name": "",
          "type": "uint256"
        }
      ],
      "stateMutability": "view",
      "type": "function"
    },
    {
      "inputs": [
        {
          "internalType": "address",
          "name": "_recipientId",
          "type": "address"
        },
        {
          "internalType": "address",
          "name": "_supplier",
          "type": "address"
        }
      ],
      "name": "getSupplierOfferedMilestonesVote",
      "outputs": [
        {
          "internalType": "uint256",
          "name": "",
          "type": "uint256"
        }
      ],
      "stateMutability": "view",
      "type": "function"
    },
    {
      "inputs": [
        {
          "internalType": "uint256",
          "name": "_milestoneId",
          "type": "uint256"
        },
        {
          "internalType": "address",
          "name": "_supplier",
          "type": "address"
        }
      ],
      "name": "getSupplierSubmittedMilestonesVote",
      "outputs": [
        {
          "internalType": "uint256",
          "name": "",
          "type": "uint256"
        }
      ],
      "stateMutability": "view",
      "type": "function"
    },
    {
      "inputs": [
        {
          "internalType": "address",
          "name": "_recipientId",
          "type": "address"
        }
      ],
      "name": "getUpcomingMilestone",
      "outputs": [
        {
          "internalType": "uint256",
          "name": "",
          "type": "uint256"
        }
      ],
      "stateMutability": "view",
      "type": "function"
    },
    {
      "inputs": [],
      "name": "grantAmountRequired",
      "outputs": [
        {
          "internalType": "bool",
          "name": "",
          "type": "bool"
        }
      ],
      "stateMutability": "view",
      "type": "function"
    },
    {
      "inputs": [
        {
          "internalType": "uint256",
          "name": "_amount",
          "type": "uint256"
        }
      ],
      "name": "increasePoolAmount",
      "outputs": [],
      "stateMutability": "nonpayable",
      "type": "function"
    },
    {
      "inputs": [
        {
          "internalType": "uint256",
          "name": "_poolId",
          "type": "uint256"
        },
        {
          "internalType": "bytes",
          "name": "_data",
          "type": "bytes"
        }
      ],
      "name": "initialize",
      "outputs": [],
      "stateMutability": "nonpayable",
      "type": "function"
    },
    {
      "inputs": [],
      "name": "isPoolActive",
      "outputs": [
        {
          "internalType": "bool",
          "name": "",
          "type": "bool"
        }
      ],
      "stateMutability": "view",
      "type": "function"
    },
    {
      "inputs": [
        {
          "internalType": "address",
          "name": "_allocator",
          "type": "address"
        }
      ],
      "name": "isValidAllocator",
      "outputs": [
        {
          "internalType": "bool",
          "name": "",
          "type": "bool"
        }
      ],
      "stateMutability": "view",
      "type": "function"
    },
    {
      "inputs": [],
      "name": "metadataRequired",
      "outputs": [
        {
          "internalType": "bool",
          "name": "",
          "type": "bool"
        }
      ],
      "stateMutability": "view",
      "type": "function"
    },
    {
      "inputs": [
        {
          "internalType": "address",
          "name": "",
          "type": "address"
        },
        {
          "internalType": "uint256",
          "name": "",
          "type": "uint256"
        }
      ],
      "name": "milestones",
      "outputs": [
        {
          "internalType": "uint256",
          "name": "amountPercentage",
          "type": "uint256"
        },
        {
          "components": [
            {
              "internalType": "uint256",
              "name": "protocol",
              "type": "uint256"
            },
            {
              "internalType": "string",
              "name": "pointer",
              "type": "string"
            }
          ],
          "internalType": "struct Metadata",
          "name": "metadata",
          "type": "tuple"
        },
        {
          "internalType": "enum IStrategy.Status",
          "name": "milestoneStatus",
          "type": "uint8"
        },
        {
          "internalType": "string",
          "name": "description",
          "type": "string"
        }
      ],
      "stateMutability": "view",
      "type": "function"
    },
    {
      "inputs": [
        {
          "internalType": "address",
          "name": "_recipientId",
          "type": "address"
        },
        {
          "components": [
            {
              "internalType": "uint256",
              "name": "amountPercentage",
              "type": "uint256"
            },
            {
              "components": [
                {
                  "internalType": "uint256",
                  "name": "protocol",
                  "type": "uint256"
                },
                {
                  "internalType": "string",
                  "name": "pointer",
                  "type": "string"
                }
              ],
              "internalType": "struct Metadata",
              "name": "metadata",
              "type": "tuple"
            },
            {
              "internalType": "enum IStrategy.Status",
              "name": "milestoneStatus",
              "type": "uint8"
            },
            {
              "internalType": "string",
              "name": "description",
              "type": "string"
            }
          ],
          "internalType": "struct ExecutorSupplierVotingStrategy.Milestone[]",
          "name": "_milestones",
          "type": "tuple[]"
        }
      ],
      "name": "offerMilestones",
      "outputs": [],
      "stateMutability": "nonpayable",
      "type": "function"
    },
    {
      "inputs": [
        {
          "internalType": "bytes",
          "name": "_data",
          "type": "bytes"
        },
        {
          "internalType": "address",
          "name": "_sender",
          "type": "address"
        }
      ],
      "name": "registerRecipient",
      "outputs": [
        {
          "internalType": "address",
          "name": "recipientId",
          "type": "address"
        }
      ],
      "stateMutability": "payable",
      "type": "function"
    },
    {
      "inputs": [],
      "name": "registryGating",
      "outputs": [
        {
          "internalType": "bool",
          "name": "",
          "type": "bool"
        }
      ],
      "stateMutability": "view",
      "type": "function"
    },
    {
      "inputs": [
        {
          "internalType": "enum IStrategy.Status",
          "name": "_status",
          "type": "uint8"
        }
      ],
      "name": "rejetProject",
      "outputs": [],
      "stateMutability": "nonpayable",
      "type": "function"
    },
    {
      "inputs": [
        {
          "internalType": "address",
          "name": "_recipientId",
          "type": "address"
        },
        {
          "internalType": "enum IStrategy.Status",
          "name": "_status",
          "type": "uint8"
        }
      ],
      "name": "reviewOfferedtMilestones",
      "outputs": [],
      "stateMutability": "nonpayable",
      "type": "function"
    },
    {
      "inputs": [
        {
          "internalType": "address",
          "name": "_recipientId",
          "type": "address"
        },
        {
          "internalType": "uint256",
          "name": "_milestoneId",
          "type": "uint256"
        },
        {
          "internalType": "enum IStrategy.Status",
          "name": "_status",
          "type": "uint8"
        }
      ],
      "name": "reviewSubmitedMilestone",
      "outputs": [],
      "stateMutability": "nonpayable",
      "type": "function"
    },
    {
      "inputs": [
        {
          "internalType": "uint256",
          "name": "_newPercentage",
          "type": "uint256"
        },
        {
          "internalType": "bytes32",
          "name": "_profileId",
          "type": "bytes32"
        }
      ],
      "name": "setThresholdPercentage",
      "outputs": [],
      "stateMutability": "nonpayable",
      "type": "function"
    },
    {
      "inputs": [
        {
          "internalType": "address",
          "name": "_recipientId",
          "type": "address"
        },
        {
          "internalType": "uint256",
          "name": "_milestoneId",
          "type": "uint256"
        },
        {
          "components": [
            {
              "internalType": "uint256",
              "name": "protocol",
              "type": "uint256"
            },
            {
              "internalType": "string",
              "name": "pointer",
              "type": "string"
            }
          ],
          "internalType": "struct Metadata",
          "name": "_metadata",
          "type": "tuple"
        }
      ],
      "name": "submitMilestone",
      "outputs": [],
      "stateMutability": "nonpayable",
      "type": "function"
    },
    {
      "inputs": [
        {
          "internalType": "uint256",
          "name": "",
          "type": "uint256"
        }
      ],
      "name": "submittedvMilestones",
      "outputs": [
        {
          "internalType": "uint256",
          "name": "votesFor",
          "type": "uint256"
        },
        {
          "internalType": "uint256",
          "name": "votesAgainst",
          "type": "uint256"
        }
      ],
      "stateMutability": "view",
      "type": "function"
    },
    {
      "inputs": [],
      "name": "thresholdPercentage",
      "outputs": [
        {
          "internalType": "uint256",
          "name": "",
          "type": "uint256"
        }
      ],
      "stateMutability": "view",
      "type": "function"
    },
    {
      "inputs": [],
      "name": "totalSupply",
      "outputs": [
        {
          "internalType": "uint256",
          "name": "",
          "type": "uint256"
        }
      ],
      "stateMutability": "view",
      "type": "function"
    },
    {
      "inputs": [
        {
          "internalType": "address",
          "name": "",
          "type": "address"
        }
      ],
      "name": "upcomingMilestone",
      "outputs": [
        {
          "internalType": "uint256",
          "name": "",
          "type": "uint256"
        }
      ],
      "stateMutability": "view",
      "type": "function"
    },
    {
      "stateMutability": "payable",
      "type": "receive"
    }
  ],
  "bytecode": "0x60c060405260466006553480156200001657600080fd5b50604051620050b4380380620050b48339810160408190526200003991620000c4565b6001600160a01b038216608052604051829082906200005d9082906020016200019f565b60408051601f19818403018152919052805160209091012060a0525050600160035550620001d49050565b634e487b7160e01b600052604160045260246000fd5b60005b83811015620000bb578181015183820152602001620000a1565b50506000910152565b60008060408385031215620000d857600080fd5b82516001600160a01b0381168114620000f057600080fd5b60208401519092506001600160401b03808211156200010e57600080fd5b818501915085601f8301126200012357600080fd5b81518181111562000138576200013862000088565b604051601f8201601f19908116603f0116810190838211818310171562000163576200016362000088565b816040528281528860208487010111156200017d57600080fd5b620001908360208301602088016200009e565b80955050505050509250929050565b6020815260008251806020840152620001c08160408501602087016200009e565b601f01601f19169190910160400192915050565b60805160a051614e7b62000239600039600061044001526000818161027c01528181611625015281816122c40152818161270c01528181612ae001528181612d8601528181612ef4015281816131c20152818161338401526137be0152614e7b6000f3fe60806040526004361061023f5760003560e01c80639ffaa8751161012e578063df868ed3116100ab578063edd146cc1161006f578063edd146cc146107b8578063ee120300146107d8578063ef2920fc14610808578063f5b0dfb71461081b578063f83067e71461083b57600080fd5b8063df868ed3146106f7578063e2372b581461070f578063e477b6bd1461073c578063e8eeb80614610775578063eb11af931461078b57600080fd5b8063c1aaf44a116100f2578063c1aaf44a14610622578063c7a892bf1461064f578063c9701fd41461067f578063cb0e85a61461069f578063cb2415fb146106be57600080fd5b80639ffaa87514610573578063a0cf0aea14610593578063a647d23e146105bb578063b2b878d0146105d5578063b3eae7ab1461060257600080fd5b80633bf3577d116101bc5780634ed2859e116101805780634ed2859e146104a9578063605e1c66146104bf57806362812a391461050657806378f0184d146105335780639be2ccf51461055357600080fd5b80633bf3577d146103c8578063404e73e2146103e857806342fda9c7146104315780634ab4ba42146104645780634d31d0871461047957600080fd5b80632a835b4b116102035780632a835b4b1461032a5780632bbe0cae1461034a5780632ff0e6c41461035d57806336592c0e1461039357806338fff2d0146103b357600080fd5b80630a6f0ee91461024b57806315cc481e1461026d57806318160ddd146102b9578063197ea814146102dd57806322a4e42d146102fd57600080fd5b3661024657005b600080fd5b34801561025757600080fd5b5061026b610266366004613d94565b61085b565b005b34801561027957600080fd5b507f00000000000000000000000000000000000000000000000000000000000000005b6040516001600160a01b0390911681526020015b60405180910390f35b3480156102c557600080fd5b506102cf60055481565b6040519081526020016102b0565b3480156102e957600080fd5b506102cf6102f8366004613e0b565b61087b565b34801561030957600080fd5b5061031d610318366004613e44565b6108ac565b6040516102b09190613f0f565b34801561033657600080fd5b5061026b610345366004613fb4565b610aa0565b61029c610358366004613fd6565b610b9f565b34801561036957600080fd5b506102cf610378366004613e44565b6001600160a01b031660009081526012602052604090205490565b34801561039f57600080fd5b5061031d6103ae366004613e44565b610bc2565b3480156103bf57600080fd5b506001546102cf565b3480156103d457600080fd5b5061026b6103e336600461401c565b610dab565b3480156103f457600080fd5b5061041c610403366004614070565b6013602052600090815260409020805460019091015482565b604080519283526020830191909152016102b0565b34801561043d57600080fd5b507f00000000000000000000000000000000000000000000000000000000000000006102cf565b34801561047057600080fd5b506002546102cf565b34801561048557600080fd5b50610499610494366004613e44565b61106c565b60405190151581526020016102b0565b3480156104b557600080fd5b506102cf60065481565b3480156104cb57600080fd5b506102cf6104da366004614089565b60008281526013602090815260408083206001600160a01b038516845260020190915290205492915050565b34801561051257600080fd5b50610526610521366004613e44565b611077565b6040516102b091906140ae565b34801561053f57600080fd5b5061026b61054e36600461413e565b611088565b34801561055f57600080fd5b506004546104999062010000900460ff1681565b34801561057f57600080fd5b5061026b61058e3660046142c9565b611284565b34801561059f57600080fd5b5061029c73eeeeeeeeeeeeeeeeeeeeeeeeeeeeeeeeeeeeeeee81565b3480156105c757600080fd5b506004546104999060ff1681565b3480156105e157600080fd5b506105f56105f0366004614300565b61185a565b6040516102b091906143d4565b34801561060e57600080fd5b5061026b61061d36600461442c565b611958565b34801561062e57600080fd5b506102cf61063d366004614070565b60009081526013602052604090205490565b34801561065b57600080fd5b5061066f61066a36600461445a565b611e55565b6040516102b09493929190614486565b34801561068b57600080fd5b5061026b61069a3660046144c9565b611fd7565b3480156106ab57600080fd5b5060045461049990610100900460ff1681565b3480156106ca57600080fd5b506102cf6106d9366004613e44565b6001600160a01b03166000908152600d602052604090206002015490565b34801561070357600080fd5b5060005460ff16610499565b34801561071b57600080fd5b506102cf61072a366004613e44565b60126020526000908152604090205481565b34801561074857600080fd5b506102cf610757366004613e44565b6001600160a01b03166000908152600d602052604090206001015490565b34801561078157600080fd5b506102cf60085481565b34801561079757600080fd5b506107ab6107a6366004613e44565b6121be565b6040516102b091906144e6565b3480156107c457600080fd5b5061026b6107d33660046144f4565b6121c9565b3480156107e457600080fd5b506102cf6107f3366004614070565b60009081526013602052604090206001015490565b61026b610816366004613fd6565b612229565b34801561082757600080fd5b5061026b610836366004614070565b612247565b34801561084757600080fd5b506107ab61085636600461445a565b612271565b6108636122b9565b61086b612304565b610876838383612327565b505050565b6001600160a01b038083166000908152600d6020908152604080832093851683526003909301905220545b92915050565b6001600160a01b0381166000908152601160209081526040808320805482518185028101850190935280835260609492939192909184015b82821015610a95578382906000526020600020906005020160405180608001604052908160008201548152602001600182016040518060400160405290816000820154815260200160018201805461093b9061453a565b80601f01602080910402602001604051908101604052809291908181526020018280546109679061453a565b80156109b45780601f10610989576101008083540402835291602001916109b4565b820191906000526020600020905b81548152906001019060200180831161099757829003601f168201915b505050919092525050508152600382015460209091019060ff1660068111156109df576109df613ed7565b60068111156109f0576109f0613ed7565b8152602001600482018054610a049061453a565b80601f0160208091040260200160405190810160405280929190818152602001828054610a309061453a565b8015610a7d5780601f10610a5257610100808354040283529160200191610a7d565b820191906000526020600020905b815481529060010190602001808311610a6057829003601f168201915b505050505081525050815260200190600101906108e4565b505050509050919050565b600754604051630e6e1ae360e21b8152600481018390523360248201526001600160a01b03909116906339b86b8c90604401602060405180830381865afa158015610aef573d6000803e3d6000fd5b505050506040513d601f19601f82011682018060405250810190610b139190614584565b610b535760405162461bcd60e51b815260206004820152600c60248201526b15539055551213d49256915160a21b60448201526064015b60405180910390fd5b6064821115610b995760405162461bcd60e51b8152602060048201526012602482015271496e76616c69642070657263656e7461676560701b6044820152606401610b4a565b50600655565b6000610ba96122b9565b610bb1612304565b610bbb83836123be565b90506108a6565b6001600160a01b0381166000908152600d60209081526040808320805482518185028101850190935280835260609492939192909184015b82821015610a955783829060005260206000209060050201604051806080016040529081600082015481526020016001820160405180604001604052908160008201548152602001600182018054610c519061453a565b80601f0160208091040260200160405190810160405280929190818152602001828054610c7d9061453a565b8015610cca5780601f10610c9f57610100808354040283529160200191610cca565b820191906000526020600020905b815481529060010190602001808311610cad57829003601f168201915b505050919092525050508152600382015460209091019060ff166006811115610cf557610cf5613ed7565b6006811115610d0657610d06613ed7565b8152602001600482018054610d1a9061453a565b80601f0160208091040260200160405190810160405280929190818152602001828054610d469061453a565b8015610d935780601f10610d6857610100808354040283529160200191610d93565b820191906000526020600020905b815481529060010190602001808311610d7657829003601f168201915b50505050508152505081526020019060010190610bfa565b6001600160a01b0383163314610dd45760405163075fd2b160e01b815260040160405180910390fd5b6001600160a01b038084166000908152600b60209081526040808320815160c081018352815460ff8116151582526101009004909516858401526001810154858301528151808301909252600281018054835260038201805495969592946060870194939084019190610e469061453a565b80601f0160208091040260200160405190810160405280929190818152602001828054610e729061453a565b8015610ebf5780601f10610e9457610100808354040283529160200191610ebf565b820191906000526020600020905b815481529060010190602001808311610ea257829003601f168201915b505050919092525050508152600482015460209091019060ff166006811115610eea57610eea613ed7565b6006811115610efb57610efb613ed7565b81526020016004820160019054906101000a900460ff166006811115610f2357610f23613ed7565b6006811115610f3457610f34613ed7565b9052509050600281608001516006811115610f5157610f51613ed7565b14610f6f5760405163392c16fb60e21b815260040160405180910390fd5b6001600160a01b03841660009081526011602052604090208054841115610fa957604051632f1f68e160e11b815260040160405180910390fd5b6000818581548110610fbd57610fbd61459f565b6000918252602090912060059091020190506002600382015460ff166006811115610fea57610fea613ed7565b0361100857604051637f46ed2760e11b815260040160405180910390fd5b83600182016110178282614603565b505060038101805460ff191660011790556040517f8673cfb5a2cbad812463bdfd7c85511f29c804579a86d318889ab925155399619061105c908890889088906146fb565b60405180910390a1505050505050565b60006108a6826126ef565b61107f613ab1565b6108a682612794565b6000336001600160a01b03841614806110a657506110a68333612904565b9050806110c65760405163075fd2b160e01b815260040160405180910390fd5b6001600160a01b0383166000908152600b602052604090206002600482015460ff1660068111156110f9576110f9613ed7565b146111175760405163392c16fb60e21b815260040160405180910390fd5b60026004820154610100900460ff16600681111561113757611137613ed7565b03611155576040516305ca31d360e51b815260040160405180910390fd5b61115e846129fc565b60005b8351811015611238576001600160a01b0385166000908152600d6020526040902084518590839081106111965761119661459f565b602090810291909101810151825460018181018555600094855293839020825160059092020190815581830151805194820194855592830151919390929160028401906111e39082614794565b505050604082015160038201805460ff1916600183600681111561120957611209613ed7565b0217905550606082015160048201906112229082614794565b505050808061123090614869565b915050611161565b508251604080516001600160a01b038716815260208101929092527f8a5603111f154f43104afe04452c6a93024a972cb6a0af72e6f38bcce68625d5910160405180910390a150505050565b3361128e81612ab6565b6000838152601360209081526040808320338452600201909152902054156112c95760405163448bae6f60e01b815260040160405180910390fd5b6001600160a01b038085166000908152600b60209081526040808320815160c081018352815460ff811615158252610100900490951685840152600181015485830152815180830190925260028101805483526003820180549596959294606087019493908401919061133b9061453a565b80601f01602080910402602001604051908101604052809291908181526020018280546113679061453a565b80156113b45780601f10611389576101008083540402835291602001916113b4565b820191906000526020600020905b81548152906001019060200180831161139757829003601f168201915b505050919092525050508152600482015460209091019060ff1660068111156113df576113df613ed7565b60068111156113f0576113f0613ed7565b81526020016004820160019054906101000a900460ff16600681111561141857611418613ed7565b600681111561142957611429613ed7565b905250905060028160800151600681111561144657611446613ed7565b146114645760405163392c16fb60e21b815260040160405180910390fd5b6001600160a01b0385166000908152601160205260409020805485111561149e57604051632f1f68e160e11b815260040160405180910390fd5b60008186815481106114b2576114b261459f565b6000918252602090912060059091020190506001600382015460ff1660068111156114df576114df613ed7565b146114fd57604051635b2fe71d60e11b815260040160405180910390fd5b336000908152600c602052604081205460065460055491929160649161152291614882565b61152c9190614899565b6000898152601360209081526040808320338452600290810190925290912084905590915087600681111561156357611563613ed7565b036116d057600088815260136020526040812080548492906115869084906148bb565b90915550506000888152601360205260409020548110156116cb5760038301805488919060ff191660018360068111156115c2576115c2613ed7565b02179055506040805160018082528183019092526000916020808301908036833701905050905089816000815181106115fd576115fd61459f565b6001600160a01b039283166020918202929092010152600154604051631d2fdec960e11b81527f000000000000000000000000000000000000000000000000000000000000000090921691633a5fbd929161165c9185906004016148ce565b600060405180830381600087803b15801561167657600080fd5b505af115801561168a573d6000803e3d6000fd5b505050507ff1af82b65c631a030029b10ea8f00f68290285c7c797644155b8f23969ca1d638a8a8a6040516116c193929190614935565b60405180910390a1505b611814565b60038760068111156116e4576116e4613ed7565b03611814576000888152601360205260408120600101805484929061170a9084906148bb565b90915550506000888152601360205260409020600101548110156118145760038301805488919060ff1916600183600681111561174957611749613ed7565b021790555060005b600a548110156117bf576000601360008b81526020019081526020016000206002016000600a84815481106117885761178861459f565b60009182526020808320909101546001600160a01b03168352820192909252604001902055806117b781614869565b915050611751565b5060008881526013602052604080822082815560010191909155517ff1af82b65c631a030029b10ea8f00f68290285c7c797644155b8f23969ca1d639061180b908b908b908b90614935565b60405180910390a15b7f4460beb477b3843656610a89bd67c551d2a78131b5a955ddccd5eb9aa218c8c389898960405161184793929190614935565b60405180910390a1505050505050505050565b8151815160609190811461188157604051633da4c02b60e11b815260040160405180910390fd5b6000816001600160401b0381111561189b5761189b613bbe565b6040519080825280602002602001820160405280156118e057816020015b60408051808201909152600080825260208201528152602001906001900390816118b95790505b50905060005b8281101561194f5761192a8682815181106119035761190361459f565b602002602001015186838151811061191d5761191d61459f565b6020026020010151612b68565b82828151811061193c5761193c61459f565b60209081029190910101526001016118e6565b50949350505050565b3361196281612ab6565b6001600160a01b0383166000908152600d60209081526040808320338452600301909152902054156119a75760405163448bae6f60e01b815260040160405180910390fd5b6001600160a01b0383166000908152600b6020526040902060026004820154610100900460ff1660068111156119df576119df613ed7565b036119fd576040516305ca31d360e51b815260040160405180910390fd5b336000908152600c6020526040812054600654600554919291606491611a2291614882565b611a2c9190614899565b6001600160a01b0387166000908152600d60209081526040808320338452600301909152902083905590506002856006811115611a6b57611a6b613ed7565b03611d33576001600160a01b0386166000908152600d602052604081206001018054849290611a9b9084906148bb565b90915550506001600160a01b0386166000908152600d6020526040902060010154811015611d2e576001600160a01b0386166000908152600b60205260409020600401805486919061ff001916610100836006811115611afd57611afd613ed7565b02179055506001600160a01b0386166000908152600d602090815260408083208054825181850281018501909352808352611cf1948b9484015b82821015611ce85783829060005260206000209060050201604051806080016040529081600082015481526020016001820160405180604001604052908160008201548152602001600182018054611b8e9061453a565b80601f0160208091040260200160405190810160405280929190818152602001828054611bba9061453a565b8015611c075780601f10611bdc57610100808354040283529160200191611c07565b820191906000526020600020905b815481529060010190602001808311611bea57829003601f168201915b505050919092525050508152600382015460209091019060ff166006811115611c3257611c32613ed7565b6006811115611c4357611c43613ed7565b8152602001600482018054611c579061453a565b80601f0160208091040260200160405190810160405280929190818152602001828054611c839061453a565b8015611cd05780601f10611ca557610100808354040283529160200191611cd0565b820191906000526020600020905b815481529060010190602001808311611cb357829003601f168201915b50505050508152505081526020019060010190611b37565b50505050612bb3565b6040516001600160a01b03871681527f7b05d1f85b1ac2e76c0d8dbb0dfa809df6788f66bbeeb837b2b5fae4f64c00639060200160405180910390a15b611e24565b6003856006811115611d4757611d47613ed7565b03611e24576001600160a01b0386166000908152600d602052604081206002018054849290611d779084906148bb565b90915550506001600160a01b0386166000908152600d6020526040902060020154811015611e24576001600160a01b0386166000908152600b60205260409020600401805486919061ff001916610100836006811115611dd957611dd9613ed7565b0217905550611de7866129fc565b6040516001600160a01b03871681527f5a90817477dd8f83cfe5d429e1dc84ad5a25cb72b83291c707c6f8f5c4f2ac849060200160405180910390a15b7f30dae55c386c6176f3f7b7ee6ad4df33970f2e442cb0142e978cf78fd8ae138d868660405161105c929190614959565b60116020528160005260406000208181548110611e7157600080fd5b9060005260206000209060050201600091509150508060000154908060010160405180604001604052908160008201548152602001600182018054611eb59061453a565b80601f0160208091040260200160405190810160405280929190818152602001828054611ee19061453a565b8015611f2e5780601f10611f0357610100808354040283529160200191611f2e565b820191906000526020600020905b815481529060010190602001808311611f1157829003601f168201915b505050919092525050506003820154600483018054929360ff90921692611f549061453a565b80601f0160208091040260200160405190810160405280929190818152602001828054611f809061453a565b8015611fcd5780601f10611fa257610100808354040283529160200191611fcd565b820191906000526020600020905b815481529060010190602001808311611fb057829003601f168201915b5050505050905084565b33611fe181612ab6565b6002826006811115611ff557611ff5613ed7565b141580156120155750600382600681111561201257612012613ed7565b14155b156120335760405163343b80b160e01b815260040160405180910390fd5b33600090815260106020526040902054156120615760405163448bae6f60e01b815260040160405180910390fd5b336000908152600c602052604081205460065460055491929160649161208691614882565b6120909190614899565b905060028460068111156120a6576120a6613ed7565b036120e65781600e60000160008282546120c091906148bb565b9091555050600e548110156120e1576120d96000612e37565b6120e1612e7e565b6121b8565b60038460068111156120fa576120fa613ed7565b036121b85781600e600101600082825461211491906148bb565b9091555050600f548110156121b85760005b600a54811015612183576000600e6002016000600a848154811061214c5761214c61459f565b60009182526020808320909101546001600160a01b031683528201929092526040019020558061217b81614869565b915050612126565b506000600e819055600f8190556040517f7a5d554e29a9295668ae87eb63589a5dd4d751e9c16b4a8173c28b9f0bc4a1d09190a15b50505050565b60006108a68261304c565b6000818060200190518101906121df9190614981565b90506121eb8382613061565b7f91efa3d50feccde0d0d202f8ae5c41ca0b2be614cebcb2bd2f4b019396e6568a838360405161221c929190614aa3565b60405180910390a1505050565b6122316122b9565b612239612304565b612243828261326c565b5050565b61224f6122b9565b806002600082825461226191906148bb565b9091555061226e90508181565b50565b6001600160a01b038216600090815260116020526040812080548390811061229b5761229b61459f565b600091825260209091206005909102016003015460ff169392505050565b336001600160a01b037f000000000000000000000000000000000000000000000000000000000000000016146123025760405163075fd2b160e01b815260040160405180910390fd5b565b60015460000361230257604051630f68fe6360e21b815260040160405180910390fd5b6001600160a01b038116301461237f5760405162461bcd60e51b815260206004820152601760248201527f554e415554484f52495a454420646973747269627574650000000000000000006044820152606401610b4a565b825160005b818110156123b7576123af8582815181106123a1576123a161459f565b602002602001015184613596565b600101612384565b5050505050565b60006123c8613906565b6000806000806123eb604051806040016040528060008152602001606081525090565b60045460ff1615612440578780602001905181019061240a9190614b52565b9298509096509250905061241e8688612904565b61243b5760405163075fd2b160e01b815260040160405180910390fd5b6124ad565b878060200190518101906124549190614b52565b9297509095506001600160a01b0386161515945092509050826124775784612479565b835b955082801561248f575061248d8688612904565b155b156124ad5760405163075fd2b160e01b815260040160405180910390fd5b60045462010000900460ff1680156124c3575081155b156124e1576040516303b167dd60e01b815260040160405180910390fd5b60026001600160a01b0387166000908152600b602052604090206004015460ff16600681111561251357612513613ed7565b036125315760405163083a81f760e31b815260040160405180910390fd5b600454610100900460ff1680156125545750602081015151158061255457508051155b156125725760405163c19e07c560e01b815260040160405180910390fd5b6040805160c0810190915260045460009190819060ff166125935785612596565b60015b151581526001600160a01b0388166020820152604081018590526060810184905260800160028152602001600190526001600160a01b038881166000908152600b602090815260409182902084518154868401516001600160a81b0319909116911515610100600160a81b031916919091176101009190951602939093178355908301516001830155606083015180516002840190815591810151939450849390919060038401906126489082614794565b505050608082015160048201805460ff1916600183600681111561266e5761266e613ed7565b021790555060a082015160048201805461ff00191661010083600681111561269857612698613ed7565b0217905550905050866001600160a01b03167fa197306e3dd5494a61a695381aa809a53b8e377a685e84e404a85d5a8da6cc628a8a6040516126db929190614bbf565b60405180910390a250505050505092915050565b6001546040516329e40d4b60e01b81526000916001600160a01b037f000000000000000000000000000000000000000000000000000000000000000016916329e40d4b916127539186906004019182526001600160a01b0316602082015260400190565b602060405180830381865afa158015612770573d6000803e3d6000fd5b505050506040513d601f19601f820116820180604052508101906108a69190614584565b61279c613ab1565b6001600160a01b038083166000908152600b6020908152604091829020825160c081018452815460ff81161515825261010090049094168483015260018101548484015282518084019093526002810180548452600382018054929460608701949093908401919061280d9061453a565b80601f01602080910402602001604051908101604052809291908181526020018280546128399061453a565b80156128865780601f1061285b57610100808354040283529160200191612886565b820191906000526020600020905b81548152906001019060200180831161286957829003601f168201915b505050919092525050508152600482015460209091019060ff1660068111156128b1576128b1613ed7565b60068111156128c2576128c2613ed7565b81526020016004820160019054906101000a900460ff1660068111156128ea576128ea613ed7565b60068111156128fb576128fb613ed7565b90525092915050565b60075460405163dd93da4360e01b81526001600160a01b038481166004830152600092839291169063dd93da4390602401600060405180830381865afa158015612952573d6000803e3d6000fd5b505050506040513d6000823e601f3d908101601f1916820160405261297a9190810190614be9565b6007548151604051635e8a791560e01b815260048101919091526001600160a01b038681166024830152929350911690635e8a791590604401602060405180830381865afa1580156129d0573d6000803e3d6000fd5b505050506040513d601f19601f820116820180604052508101906129f49190614584565b949350505050565b60005b600a54811015612a7f576000600d6000846001600160a01b03166001600160a01b031681526020019081526020016000206003016000600a8481548110612a4857612a4861459f565b60009182526020808320909101546001600160a01b0316835282019290925260400190205580612a7781614869565b9150506129ff565b506001600160a01b0381166000908152600d6020526040812090612aa38282613b0c565b5060006001820181905560029091015550565b6001546040516329e40d4b60e01b815260048101919091526001600160a01b0382811660248301527f000000000000000000000000000000000000000000000000000000000000000016906329e40d4b90604401602060405180830381865afa158015612b27573d6000803e3d6000fd5b505050506040513d601f19601f82011682018060405250810190612b4b9190614584565b61226e5760405163075fd2b160e01b815260040160405180910390fd5b60408051808201909152600080825260208201526000612b8784612794565b6040805180820182526020808401516001600160a01b0316825291909201519082015291505092915050565b6001600160a01b03821660009081526011602052604081205415612bf2576001600160a01b0383166000908152601160205260408120612bf291613b0c565b815160005b81811015612d18576000848281518110612c1357612c1361459f565b6020026020010151905060006006811115612c3057612c30613ed7565b81604001516006811115612c4657612c46613ed7565b14612c6457604051635b2fe71d60e11b815260040160405180910390fd5b8051612c7090856148bb565b6001600160a01b038716600090815260116020908152604082208054600181810183559184529282902085516005909402019283558482015180519184019182559182015193975084936002840190612cc99082614794565b505050604082015160038201805460ff19166001836006811115612cef57612cef613ed7565b021790555060608201516004820190612d089082614794565b505060019092019150612bf79050565b5081670de0b6b3a764000014612d41576040516397a1f28d60e01b815260040160405180910390fd5b6000846002600554604051602001612d5b93929190614caf565b60408051601f19818403018152908290526001546305d8703160e31b83529092506001600160a01b037f00000000000000000000000000000000000000000000000000000000000000001691632ec3818891612dbb918590600401614aa3565b600060405180830381600087803b158015612dd557600080fd5b505af1158015612de9573d6000803e3d6000fd5b5050604080516001600160a01b0389168152602081018690527fb000fb1507aac2465ccb4f6bd1b601c7053279005e9e9932c41946b35c84949b935001905060405180910390a15050505050565b6000805460ff19168215159081179091556040519081527fd94c9bc4d43c51d8dc345a016d8e3d994432fac68e72832e4cf3a616bd8efae09060200160405180910390a150565b60005b600a5481101561226e576000600c6000600a8481548110612ea457612ea461459f565b60009182526020808320909101546001600160a01b03168352820192909252604001812054600254909250670de0b6b3a764000090612ee4908490614882565b612eee9190614899565b905060007f00000000000000000000000000000000000000000000000000000000000000006001600160a01b031663068bcd8d6001546040518263ffffffff1660e01b8152600401612f4291815260200190565b600060405180830381865afa158015612f5f573d6000803e3d6000fd5b505050506040513d6000823e601f3d908101601f19168201604052612f879190810190614cda565b90506130006040518060400160405280601081526020016f1e9e9e9e9e9e9f1029b2b73234b7339d60811b815250836040518060400160405280600481526020016316aa379d60e11b815250600a8881548110612fe657612fe661459f565b6000918252602090912001546001600160a01b0316613929565b6130368160400151600a868154811061301b5761301b61459f565b6000918252602090912001546001600160a01b031684613972565b505050808061304490614869565b915050612e81565b600061305782612794565b6080015192915050565b61306a826139ac565b805160048054602084015160408501511515620100000262ff0000199115156101000261ff00199515159590951661ffff19909316929092179390931792909216919091179055606081015160005b81518110156131bf57600a8282815181106130d6576130d661459f565b6020908102919091018101515182546001810184556000938452919092200180546001600160a01b0319166001600160a01b0390921691909117905581518290829081106131265761312661459f565b602002602001015160200151600c60008484815181106131485761314861459f565b6020026020010151600001516001600160a01b03166001600160a01b031681526020019081526020016000208190555081818151811061318a5761318a61459f565b602002602001015160200151600560008282546131a791906148bb565b909155508190506131b781614869565b9150506130b9565b507f00000000000000000000000000000000000000000000000000000000000000006001600160a01b0316635ab1bd536040518163ffffffff1660e01b8152600401602060405180830381865afa15801561321e573d6000803e3d6000fd5b505050506040513d601f19601f820116820180604052508101906132429190614d8d565b600780546001600160a01b0319166001600160a01b03929092169190911790556108766001612e37565b6132746139fb565b6001600160a01b03811630146132c45760405162461bcd60e51b8152602060048201526015602482015274554e415554484f52495a454420616c6c6f6361746560581b6044820152606401610b4a565b6000806000848060200190518101906132dd9190614daa565b6001600160a01b0383166000908152600b6020908152604080832060129092529091205493965091945092509015613328576040516305ca31d360e51b815260040160405180910390fd5b6002600482015460ff16600681111561334357613343613ed7565b141580156133625750600283600681111561336057613360613ed7565b145b156134fd5760015460405163068bcd8d60e01b81526000916001600160a01b037f0000000000000000000000000000000000000000000000000000000000000000169163068bcd8d916133bb9160040190815260200190565b600060405180830381865afa1580156133d8573d6000803e3d6000fd5b505050506040513d6000823e601f3d908101601f191682016040526134009190810190614cda565b9050826008600082825461341491906148bb565b9091555050600254600854111561343e57604051638e81b16f60e01b815260040160405180910390fd5b6001820183905560048201805460ff191660029081179091556040517f94593b52aa436dd31a63e313045c2eb23d43eb2d6f5b4d7797b4432e7b2774909161348891889190614959565b60405180910390a1846001600160a01b03167f463ffc2cf8b1596445c417388ed30e53eb67cf6668cb2be7f0addf8a78c8441b83600101548360400151896040516134ef939291909283526001600160a01b03918216602084015216604082015260600190565b60405180910390a250613588565b6003600482015460ff16600681111561351857613518613ed7565b141580156135375750600383600681111561353557613535613ed7565b145b156135885760048101805460ff191660039081179091556040517f94593b52aa436dd31a63e313045c2eb23d43eb2d6f5b4d7797b4432e7b2774909161357f91879190614959565b60405180910390a15b505050506122436001600355565b6001600160a01b0380831660009081526012602090815260408083205460118352818420600b8452828520835160c081018552815460ff811615158252610100900490971687860152600181015487850152835180850190945260028101805485526003820180549498939796939592946060870194840191906136199061453a565b80601f01602080910402602001604051908101604052809291908181526020018280546136459061453a565b80156136925780601f1061366757610100808354040283529160200191613692565b820191906000526020600020905b81548152906001019060200180831161367557829003601f168201915b505050919092525050508152600482015460209091019060ff1660068111156136bd576136bd613ed7565b60068111156136ce576136ce613ed7565b81526020016004820160019054906101000a900460ff1660068111156136f6576136f6613ed7565b600681111561370757613707613ed7565b81525050905060008284815481106137215761372161459f565b90600052602060002090600502019050828054905084111561375657604051632f1f68e160e11b815260040160405180910390fd5b6002600382015460ff16600681111561377157613771613ed7565b1461378f57604051635b2fe71d60e11b815260040160405180910390fd5b6000670de0b6b3a7640000826000015484604001516137ae9190614882565b6137b89190614899565b905060007f00000000000000000000000000000000000000000000000000000000000000006001600160a01b031663068bcd8d6001546040518263ffffffff1660e01b815260040161380c91815260200190565b600060405180830381865afa158015613829573d6000803e3d6000fd5b505050506040513d6000823e601f3d908101601f191682016040526138519190810190614cda565b905081600260008282546138659190614ded565b9250508190555061387f8160400151856020015184613972565b6001600160a01b03881660009081526012602052604081208054916138a383614869565b9091555050602080850151604080516001600160a01b039283168152928301859052898216908301528916907fb5b51454adfa840bd593658325a60a50b0216f12eb5d2937efe6cea935675b7d9060600160405180910390a25050505050505050565b60005460ff166123025760405163cfe7975b60e01b815260040160405180910390fd5b6121b8848484846040516024016139439493929190614e00565b60408051601f198184030181529190526020810180516001600160e01b0316631f118ca960e21b179052613a25565b73eeeeeeeeeeeeeeeeeeeeeeeeeeeeeeeeeeeeeeed196001600160a01b038416016139a1576108768282613a2e565b610876838383613a4a565b6139b46122b9565b600154156139d55760405163439a74c960e01b815260040160405180910390fd5b806000036139f657604051637fcce2a960e01b815260040160405180910390fd5b600155565b600260035403613a1e57604051633ee5aeb560e01b815260040160405180910390fd5b6002600355565b61226e81613a90565b60003860003884865af16122435763b12d13eb6000526004601cfd5b816014528060345263a9059cbb60601b60005260206000604460106000875af13d156001600051141716613a86576390b8ec186000526004601cfd5b6000603452505050565b60006a636f6e736f6c652e6c6f679050600080835160208501845afa505050565b6040518060c0016040528060001515815260200160006001600160a01b0316815260200160008152602001613af9604051806040016040528060008152602001606081525090565b8152602001600081526020016000905290565b508054600082556005029060005260206000209081019061226e91905b80821115613b705760008082556001820181815581613b4b6002850182613b74565b505060038201805460ff19169055613b67600483016000613b74565b50600501613b29565b5090565b508054613b809061453a565b6000825580601f10613b90575050565b601f01602090049060005260206000209081019061226e91905b80821115613b705760008155600101613baa565b634e487b7160e01b600052604160045260246000fd5b604051608081016001600160401b0381118282101715613bf657613bf6613bbe565b60405290565b604080519081016001600160401b0381118282101715613bf657613bf6613bbe565b60405160c081016001600160401b0381118282101715613bf657613bf6613bbe565b604051601f8201601f191681016001600160401b0381118282101715613c6857613c68613bbe565b604052919050565b60006001600160401b03821115613c8957613c89613bbe565b5060051b60200190565b6001600160a01b038116811461226e57600080fd5b600082601f830112613cb957600080fd5b81356020613cce613cc983613c70565b613c40565b82815260059290921b84018101918181019086841115613ced57600080fd5b8286015b84811015613d11578035613d0481613c93565b8352918301918301613cf1565b509695505050505050565b60006001600160401b03821115613d3557613d35613bbe565b50601f01601f191660200190565b600082601f830112613d5457600080fd5b8135613d62613cc982613d1c565b818152846020838601011115613d7757600080fd5b816020850160208301376000918101602001919091529392505050565b600080600060608486031215613da957600080fd5b83356001600160401b0380821115613dc057600080fd5b613dcc87838801613ca8565b94506020860135915080821115613de257600080fd5b50613def86828701613d43565b9250506040840135613e0081613c93565b809150509250925092565b60008060408385031215613e1e57600080fd5b8235613e2981613c93565b91506020830135613e3981613c93565b809150509250929050565b600060208284031215613e5657600080fd5b8135613e6181613c93565b9392505050565b60005b83811015613e83578181015183820152602001613e6b565b50506000910152565b60008151808452613ea4816020860160208601613e68565b601f01601f19169290920160200192915050565b8051825260006020820151604060208501526129f46040850182613e8c565b634e487b7160e01b600052602160045260246000fd5b60078110613f0b57634e487b7160e01b600052602160045260246000fd5b9052565b60006020808301818452808551808352604092508286019150828160051b87010184880160005b83811015613fa657603f19898403018552815160808151855288820151818a870152613f6482870182613eb8565b91505087820151613f7789870182613eed565b5060608083015192508582038187015250613f928183613e8c565b968901969450505090860190600101613f36565b509098975050505050505050565b60008060408385031215613fc757600080fd5b50508035926020909101359150565b60008060408385031215613fe957600080fd5b82356001600160401b03811115613fff57600080fd5b61400b85828601613d43565b9250506020830135613e3981613c93565b60008060006060848603121561403157600080fd5b833561403c81613c93565b92506020840135915060408401356001600160401b0381111561405e57600080fd5b840160408187031215613e0057600080fd5b60006020828403121561408257600080fd5b5035919050565b6000806040838503121561409c57600080fd5b823591506020830135613e3981613c93565b6020815281511515602082015260018060a01b036020830151166040820152604082015160608201526000606083015160c060808401526140f260e0840182613eb8565b9050608084015161410660a0850182613eed565b5060a084015161411960c0850182613eed565b509392505050565b6007811061226e57600080fd5b803561413981614121565b919050565b6000806040838503121561415157600080fd5b61415b8335613c93565b823591506001600160401b03806020850135111561417857600080fd5b6020840135840185601f82011261418e57600080fd5b61419b613cc98235613c70565b81358082526020808301929160051b8401018810156141b957600080fd5b602083015b6020843560051b8501018110156142ba5784813511156141dd57600080fd5b80358401601f196080828c03820112156141f657600080fd5b6141fe613bd4565b60208301358152876040840135111561421657600080fd5b60408301358301604083828f0301121561422f57600080fd5b614237613bfc565b925060208101358352886040820135111561425157600080fd5b6142648d60206040840135840101613d43565b60208401525081602082015261427c6060840161412e565b6040820152876080840135111561429257600080fd5b6142a58c60206080860135860101613d43565b606082015285525050602092830192016141be565b50809450505050509250929050565b6000806000606084860312156142de57600080fd5b83356142e981613c93565b9250602084013591506040840135613e0081614121565b6000806040838503121561431357600080fd5b82356001600160401b038082111561432a57600080fd5b61433686838701613ca8565b935060209150818501358181111561434d57600080fd5b8501601f8101871361435e57600080fd5b803561436c613cc982613c70565b81815260059190911b8201840190848101908983111561438b57600080fd5b8584015b838110156143c3578035868111156143a75760008081fd5b6143b58c8983890101613d43565b84525091860191860161438f565b508096505050505050509250929050565b602080825282518282018190526000919060409081850190868401855b8281101561441f57815180516001600160a01b031685528601518685015292840192908501906001016143f1565b5091979650505050505050565b6000806040838503121561443f57600080fd5b823561444a81613c93565b91506020830135613e3981614121565b6000806040838503121561446d57600080fd5b823561447881613c93565b946020939093013593505050565b84815260806020820152600061449f6080830186613eb8565b6144ac6040840186613eed565b82810360608401526144be8185613e8c565b979650505050505050565b6000602082840312156144db57600080fd5b8135613e6181614121565b602081016108a68284613eed565b6000806040838503121561450757600080fd5b8235915060208301356001600160401b0381111561452457600080fd5b61453085828601613d43565b9150509250929050565b600181811c9082168061454e57607f821691505b60208210810361456e57634e487b7160e01b600052602260045260246000fd5b50919050565b8051801515811461413957600080fd5b60006020828403121561459657600080fd5b613e6182614574565b634e487b7160e01b600052603260045260246000fd5b601f82111561087657600081815260208120601f850160051c810160208610156145dc5750805b601f850160051c820191505b818110156145fb578281556001016145e8565b505050505050565b813581556001808201602080850135601e1986360301811261462457600080fd5b850180356001600160401b0381111561463c57600080fd5b803603838301131561464d57600080fd5b6146618161465b865461453a565b866145b5565b6000601f821160018114614697576000831561467f57508382018501355b600019600385901b1c1916600184901b1786556146f0565b600086815260209020601f19841690835b828110156146c7578685018801358255938701939089019087016146a8565b50848210156146e65760001960f88660031b161c198785880101351681555b50508683881b0186555b505050505050505050565b60018060a01b0384168152826020820152606060408201528135606082015260006020830135601e1984360301811261473357600080fd5b83016020810190356001600160401b0381111561474f57600080fd5b80360382131561475e57600080fd5b604060808501528060a0850152808260c0860137600060c0828601015260c0601f19601f83011685010192505050949350505050565b81516001600160401b038111156147ad576147ad613bbe565b6147c1816147bb845461453a565b846145b5565b602080601f8311600181146147f657600084156147de5750858301515b600019600386901b1c1916600185901b1785556145fb565b600085815260208120601f198616915b8281101561482557888601518255948401946001909101908401614806565b50858210156148435787850151600019600388901b60f8161c191681555b5050505050600190811b01905550565b634e487b7160e01b600052601160045260246000fd5b60006001820161487b5761487b614853565b5060010190565b80820281158282048414176108a6576108a6614853565b6000826148b657634e487b7160e01b600052601260045260246000fd5b500490565b808201808211156108a6576108a6614853565b6000606082018483526020606081850152818551808452608086019150828701935060005b818110156149185784516001600160a01b0316835293830193918301916001016148f3565b505084810360408601526000815281810193505050509392505050565b6001600160a01b038416815260208101839052606081016129f46040830184613eed565b6001600160a01b038316815260408101613e616020830184613eed565b805161413981613c93565b6000602080838503121561499457600080fd5b82516001600160401b03808211156149ab57600080fd5b90840190608082870312156149bf57600080fd5b6149c7613bd4565b6149d083614574565b81526149dd848401614574565b8482015260406149ee818501614574565b81830152606084015183811115614a0457600080fd5b80850194505087601f850112614a1957600080fd5b83519250614a29613cc984613c70565b83815260069390931b84018501928581019089851115614a4857600080fd5b948601945b84861015614a915782868b031215614a655760008081fd5b614a6d613bfc565b8651614a7881613c93565b8152868801518882015282529482019490860190614a4d565b60608401525090979650505050505050565b8281526040602082015260006129f46040830184613e8c565b600082601f830112614acd57600080fd5b8151614adb613cc982613d1c565b818152846020838601011115614af057600080fd5b6129f4826020830160208701613e68565b600060408284031215614b1357600080fd5b614b1b613bfc565b90508151815260208201516001600160401b03811115614b3a57600080fd5b614b4684828501614abc565b60208301525092915050565b60008060008060808587031215614b6857600080fd5b8451614b7381613c93565b6020860151909450614b8481613c93565b6040860151606087015191945092506001600160401b03811115614ba757600080fd5b614bb387828801614b01565b91505092959194509250565b604081526000614bd26040830185613e8c565b905060018060a01b03831660208301529392505050565b600060208284031215614bfb57600080fd5b81516001600160401b0380821115614c1257600080fd5b9083019060c08286031215614c2657600080fd5b614c2e613c1e565b8251815260208301516020820152604083015182811115614c4e57600080fd5b614c5a87828601614abc565b604083015250606083015182811115614c7257600080fd5b614c7e87828601614b01565b606083015250614c9060808401614976565b6080820152614ca160a08401614976565b60a082015295945050505050565b6001600160a01b038416815260608101614ccc6020830185613eed565b826040830152949350505050565b600060208284031215614cec57600080fd5b81516001600160401b0380821115614d0357600080fd5b9083019060c08286031215614d1757600080fd5b614d1f613c1e565b825181526020830151614d3181613c93565b60208201526040830151614d4481613c93565b6040820152606083015182811115614d5b57600080fd5b614d6787828601614b01565b6060830152506080830151608082015260a083015160a082015280935050505092915050565b600060208284031215614d9f57600080fd5b8151613e6181613c93565b600080600060608486031215614dbf57600080fd5b8351614dca81613c93565b6020850151909350614ddb81614121565b80925050604084015190509250925092565b818103818111156108a6576108a6614853565b608081526000614e136080830187613e8c565b8560208401528281036040840152614e2b8186613e8c565b91505060018060a01b03831660608301529594505050505056fea26469706673582212203ab20e93a59598dc4af10c3a3926d1e72ac6570c40e982bf7a735cc35f52f02664736f6c63430008140033",
  "linkReferences": {},
  "deployedLinkReferences": {}
}