{
  "_format": "hh-sol-artifact-1",
  "contractName": "ExecutorSupplierVotingStrategy",
  "sourceName": "contracts/ExecutorSupplierVotingStrategy.sol",
  "abi": [
    {
      "inputs": [
        {
          "internalType": "address",
          "name": "_allo",
          "type": "address"
        },
        {
          "internalType": "string",
          "name": "_name",
          "type": "string"
        }
      ],
      "stateMutability": "nonpayable",
      "type": "constructor"
    },
    {
      "inputs": [],
      "name": "ALLOCATION_ACTIVE",
      "type": "error"
    },
    {
      "inputs": [],
      "name": "ALLOCATION_EXCEEDS_POOL_AMOUNT",
      "type": "error"
    },
    {
      "inputs": [],
      "name": "ALLOCATION_NOT_ACTIVE",
      "type": "error"
    },
    {
      "inputs": [],
      "name": "ALLOCATION_NOT_ENDED",
      "type": "error"
    },
    {
      "inputs": [],
      "name": "ALREADY_INITIALIZED",
      "type": "error"
    },
    {
      "inputs": [],
      "name": "AMOUNT_MISMATCH",
      "type": "error"
    },
    {
      "inputs": [],
      "name": "ANCHOR_ERROR",
      "type": "error"
    },
    {
      "inputs": [],
      "name": "ARRAY_MISMATCH",
      "type": "error"
    },
    {
      "inputs": [],
      "name": "INVALID",
      "type": "error"
    },
    {
      "inputs": [],
      "name": "INVALID_ADDRESS",
      "type": "error"
    },
    {
      "inputs": [],
      "name": "INVALID_FEE",
      "type": "error"
    },
    {
      "inputs": [],
      "name": "INVALID_METADATA",
      "type": "error"
    },
    {
      "inputs": [],
      "name": "INVALID_MILESTONE",
      "type": "error"
    },
    {
      "inputs": [],
      "name": "INVALID_REGISTRATION",
      "type": "error"
    },
    {
      "inputs": [],
      "name": "IS_APPROVED_STRATEGY",
      "type": "error"
    },
    {
      "inputs": [],
      "name": "MILESTONES_ALREADY_SET",
      "type": "error"
    },
    {
      "inputs": [],
      "name": "MILESTONE_ALREADY_ACCEPTED",
      "type": "error"
    },
    {
      "inputs": [],
      "name": "MISMATCH",
      "type": "error"
    },
    {
      "inputs": [],
      "name": "NONCE_NOT_AVAILABLE",
      "type": "error"
    },
    {
      "inputs": [],
      "name": "NOT_APPROVED_STRATEGY",
      "type": "error"
    },
    {
      "inputs": [],
      "name": "NOT_ENOUGH_FUNDS",
      "type": "error"
    },
    {
      "inputs": [],
      "name": "NOT_IMPLEMENTED",
      "type": "error"
    },
    {
      "inputs": [],
      "name": "NOT_INITIALIZED",
      "type": "error"
    },
    {
      "inputs": [],
      "name": "NOT_PENDING_OWNER",
      "type": "error"
    },
    {
      "inputs": [],
      "name": "POOL_ACTIVE",
      "type": "error"
    },
    {
      "inputs": [],
      "name": "POOL_INACTIVE",
      "type": "error"
    },
    {
      "inputs": [],
      "name": "RECIPIENT_ALREADY_ACCEPTED",
      "type": "error"
    },
    {
      "inputs": [
        {
          "internalType": "address",
          "name": "recipientId",
          "type": "address"
        }
      ],
      "name": "RECIPIENT_ERROR",
      "type": "error"
    },
    {
      "inputs": [],
      "name": "RECIPIENT_NOT_ACCEPTED",
      "type": "error"
    },
    {
      "inputs": [],
      "name": "REGISTRATION_NOT_ACTIVE",
      "type": "error"
    },
    {
      "inputs": [],
      "name": "ReentrancyGuardReentrantCall",
      "type": "error"
    },
    {
      "inputs": [],
      "name": "SUPPLY_IS_ALLOWED_ONLY_ONCE",
      "type": "error"
    },
    {
      "inputs": [],
      "name": "SUPPLY_NOT_FOUND",
      "type": "error"
    },
    {
      "inputs": [],
      "name": "UNAUTHORIZED",
      "type": "error"
    },
    {
      "inputs": [],
      "name": "ZERO_ADDRESS",
      "type": "error"
    },
    {
      "anonymous": false,
      "inputs": [
        {
          "indexed": true,
          "internalType": "address",
          "name": "recipientId",
          "type": "address"
        },
        {
          "indexed": false,
          "internalType": "uint256",
          "name": "amount",
          "type": "uint256"
        },
        {
          "indexed": false,
          "internalType": "address",
          "name": "token",
          "type": "address"
        },
        {
          "indexed": false,
          "internalType": "address",
          "name": "sender",
          "type": "address"
        }
      ],
      "name": "Allocated",
      "type": "event"
    },
    {
      "anonymous": false,
      "inputs": [
        {
          "indexed": true,
          "internalType": "address",
          "name": "recipientId",
          "type": "address"
        },
        {
          "indexed": false,
          "internalType": "address",
          "name": "recipientAddress",
          "type": "address"
        },
        {
          "indexed": false,
          "internalType": "uint256",
          "name": "amount",
          "type": "uint256"
        },
        {
          "indexed": false,
          "internalType": "address",
          "name": "sender",
          "type": "address"
        }
      ],
      "name": "Distributed",
      "type": "event"
    },
    {
      "anonymous": false,
      "inputs": [
        {
          "indexed": false,
          "internalType": "uint256",
          "name": "poolId",
          "type": "uint256"
        },
        {
          "indexed": false,
          "internalType": "bytes",
          "name": "data",
          "type": "bytes"
        }
      ],
      "name": "Initialized",
      "type": "event"
    },
    {
      "anonymous": false,
      "inputs": [
        {
          "indexed": false,
          "internalType": "address",
          "name": "recipientId",
          "type": "address"
        },
        {
          "indexed": false,
          "internalType": "uint256",
          "name": "milestoneId",
          "type": "uint256"
        },
        {
          "indexed": false,
          "internalType": "enum IStrategy.Status",
          "name": "status",
          "type": "uint8"
        }
      ],
      "name": "MilestoneStatusChanged",
      "type": "event"
    },
    {
      "anonymous": false,
      "inputs": [
        {
          "indexed": false,
          "internalType": "address",
          "name": "recipientId",
          "type": "address"
        },
        {
          "indexed": false,
          "internalType": "uint256",
          "name": "milestoneId",
          "type": "uint256"
        },
        {
          "components": [
            {
              "internalType": "uint256",
              "name": "protocol",
              "type": "uint256"
            },
            {
              "internalType": "string",
              "name": "pointer",
              "type": "string"
            }
          ],
          "indexed": false,
          "internalType": "struct Metadata",
          "name": "metadata",
          "type": "tuple"
        }
      ],
      "name": "MilestoneSubmitted",
      "type": "event"
    },
    {
      "anonymous": false,
      "inputs": [
        {
          "indexed": false,
          "internalType": "address",
          "name": "recipientId",
          "type": "address"
        },
        {
          "indexed": false,
          "internalType": "uint256",
          "name": "milestonesLength",
          "type": "uint256"
        }
      ],
      "name": "MilestonesOffered",
      "type": "event"
    },
    {
      "anonymous": false,
      "inputs": [
        {
          "indexed": false,
          "internalType": "address",
          "name": "recipientId",
          "type": "address"
        },
        {
          "indexed": false,
          "internalType": "enum IStrategy.Status",
          "name": "status",
          "type": "uint8"
        }
      ],
      "name": "MilestonesReviewed",
      "type": "event"
    },
    {
      "anonymous": false,
      "inputs": [
        {
          "indexed": false,
          "internalType": "address",
          "name": "recipientId",
          "type": "address"
        },
        {
          "indexed": false,
          "internalType": "uint256",
          "name": "milestonesLength",
          "type": "uint256"
        }
      ],
      "name": "MilestonesSet",
      "type": "event"
    },
    {
      "anonymous": false,
      "inputs": [
        {
          "indexed": false,
          "internalType": "address",
          "name": "recipientId",
          "type": "address"
        }
      ],
      "name": "OfferedMilestonesAccepted",
      "type": "event"
    },
    {
      "anonymous": false,
      "inputs": [
        {
          "indexed": false,
          "internalType": "address",
          "name": "recipientId",
          "type": "address"
        }
      ],
      "name": "OfferedMilestonesRejected",
      "type": "event"
    },
    {
      "anonymous": false,
      "inputs": [
        {
          "indexed": false,
          "internalType": "bool",
          "name": "active",
          "type": "bool"
        }
      ],
      "name": "PoolActive",
      "type": "event"
    },
    {
      "anonymous": false,
      "inputs": [
        {
          "indexed": false,
          "internalType": "address",
          "name": "recipientId",
          "type": "address"
        },
        {
          "indexed": false,
          "internalType": "enum IStrategy.Status",
          "name": "status",
          "type": "uint8"
        }
      ],
      "name": "RecipientStatusChanged",
      "type": "event"
    },
    {
      "anonymous": false,
      "inputs": [
        {
          "indexed": true,
          "internalType": "address",
          "name": "recipientId",
          "type": "address"
        },
        {
          "indexed": false,
          "internalType": "bytes",
          "name": "data",
          "type": "bytes"
        },
        {
          "indexed": false,
          "internalType": "address",
          "name": "sender",
          "type": "address"
        }
      ],
      "name": "Registered",
      "type": "event"
    },
    {
      "inputs": [],
      "name": "NATIVE",
      "outputs": [
        {
          "internalType": "address",
          "name": "",
          "type": "address"
        }
      ],
      "stateMutability": "view",
      "type": "function"
    },
    {
      "inputs": [
        {
          "internalType": "bytes",
          "name": "_data",
          "type": "bytes"
        },
        {
          "internalType": "address",
          "name": "_sender",
          "type": "address"
        }
      ],
      "name": "allocate",
      "outputs": [],
      "stateMutability": "payable",
      "type": "function"
    },
    {
      "inputs": [],
      "name": "allocatedGrantAmount",
      "outputs": [
        {
          "internalType": "uint256",
          "name": "",
          "type": "uint256"
        }
      ],
      "stateMutability": "view",
      "type": "function"
    },
    {
      "inputs": [
        {
          "internalType": "address[]",
          "name": "_recipientIds",
          "type": "address[]"
        },
        {
          "internalType": "bytes",
          "name": "_data",
          "type": "bytes"
        },
        {
          "internalType": "address",
          "name": "_sender",
          "type": "address"
        }
      ],
      "name": "distribute",
      "outputs": [],
      "stateMutability": "nonpayable",
      "type": "function"
    },
    {
      "inputs": [],
      "name": "getAllo",
      "outputs": [
        {
          "internalType": "contract IAllo",
          "name": "",
          "type": "address"
        }
      ],
      "stateMutability": "view",
      "type": "function"
    },
    {
      "inputs": [
        {
          "internalType": "address",
          "name": "_recipientId",
          "type": "address"
        },
        {
          "internalType": "uint256",
          "name": "_milestoneId",
          "type": "uint256"
        }
      ],
      "name": "getMilestoneStatus",
      "outputs": [
        {
          "internalType": "enum IStrategy.Status",
          "name": "",
          "type": "uint8"
        }
      ],
      "stateMutability": "view",
      "type": "function"
    },
    {
      "inputs": [
        {
          "internalType": "address",
          "name": "_recipientId",
          "type": "address"
        }
      ],
      "name": "getMilestones",
      "outputs": [
        {
          "components": [
            {
              "internalType": "uint256",
              "name": "amountPercentage",
              "type": "uint256"
            },
            {
              "components": [
                {
                  "internalType": "uint256",
                  "name": "protocol",
                  "type": "uint256"
                },
                {
                  "internalType": "string",
                  "name": "pointer",
                  "type": "string"
                }
              ],
              "internalType": "struct Metadata",
              "name": "metadata",
              "type": "tuple"
            },
            {
              "internalType": "enum IStrategy.Status",
              "name": "milestoneStatus",
              "type": "uint8"
            },
            {
              "internalType": "string",
              "name": "description",
              "type": "string"
            }
          ],
          "internalType": "struct ExecutorSupplierVotingStrategy.Milestone[]",
          "name": "",
          "type": "tuple[]"
        }
      ],
      "stateMutability": "view",
      "type": "function"
    },
    {
      "inputs": [
        {
          "internalType": "address",
          "name": "_recipientId",
          "type": "address"
        }
      ],
      "name": "getOffeeredMilestones",
      "outputs": [
        {
          "components": [
            {
              "internalType": "uint256",
              "name": "amountPercentage",
              "type": "uint256"
            },
            {
              "components": [
                {
                  "internalType": "uint256",
                  "name": "protocol",
                  "type": "uint256"
                },
                {
                  "internalType": "string",
                  "name": "pointer",
                  "type": "string"
                }
              ],
              "internalType": "struct Metadata",
              "name": "metadata",
              "type": "tuple"
            },
            {
              "internalType": "enum IStrategy.Status",
              "name": "milestoneStatus",
              "type": "uint8"
            },
            {
              "internalType": "string",
              "name": "description",
              "type": "string"
            }
          ],
          "internalType": "struct ExecutorSupplierVotingStrategy.Milestone[]",
          "name": "",
          "type": "tuple[]"
        }
      ],
      "stateMutability": "view",
      "type": "function"
    },
    {
      "inputs": [
        {
          "internalType": "address[]",
          "name": "_recipientIds",
          "type": "address[]"
        },
        {
          "internalType": "bytes[]",
          "name": "_data",
          "type": "bytes[]"
        }
      ],
      "name": "getPayouts",
      "outputs": [
        {
          "components": [
            {
              "internalType": "address",
              "name": "recipientAddress",
              "type": "address"
            },
            {
              "internalType": "uint256",
              "name": "amount",
              "type": "uint256"
            }
          ],
          "internalType": "struct IStrategy.PayoutSummary[]",
          "name": "",
          "type": "tuple[]"
        }
      ],
      "stateMutability": "view",
      "type": "function"
    },
    {
      "inputs": [],
      "name": "getPoolAmount",
      "outputs": [
        {
          "internalType": "uint256",
          "name": "",
          "type": "uint256"
        }
      ],
      "stateMutability": "view",
      "type": "function"
    },
    {
      "inputs": [],
      "name": "getPoolId",
      "outputs": [
        {
          "internalType": "uint256",
          "name": "",
          "type": "uint256"
        }
      ],
      "stateMutability": "view",
      "type": "function"
    },
    {
      "inputs": [
        {
          "internalType": "address",
          "name": "_recipientId",
          "type": "address"
        }
      ],
      "name": "getRecipient",
      "outputs": [
        {
          "components": [
            {
              "internalType": "bool",
              "name": "useRegistryAnchor",
              "type": "bool"
            },
            {
              "internalType": "address",
              "name": "recipientAddress",
              "type": "address"
            },
            {
              "internalType": "uint256",
              "name": "grantAmount",
              "type": "uint256"
            },
            {
              "components": [
                {
                  "internalType": "uint256",
                  "name": "protocol",
                  "type": "uint256"
                },
                {
                  "internalType": "string",
                  "name": "pointer",
                  "type": "string"
                }
              ],
              "internalType": "struct Metadata",
              "name": "metadata",
              "type": "tuple"
            },
            {
              "internalType": "enum IStrategy.Status",
              "name": "recipientStatus",
              "type": "uint8"
            },
            {
              "internalType": "enum IStrategy.Status",
              "name": "milestonesReviewStatus",
              "type": "uint8"
            }
          ],
          "internalType": "struct ExecutorSupplierVotingStrategy.Recipient",
          "name": "",
          "type": "tuple"
        }
      ],
      "stateMutability": "view",
      "type": "function"
    },
    {
      "inputs": [
        {
          "internalType": "address",
          "name": "_recipientId",
          "type": "address"
        }
      ],
      "name": "getRecipientStatus",
      "outputs": [
        {
          "internalType": "enum IStrategy.Status",
          "name": "",
          "type": "uint8"
        }
      ],
      "stateMutability": "view",
      "type": "function"
    },
    {
      "inputs": [],
      "name": "getStrategyId",
      "outputs": [
        {
          "internalType": "bytes32",
          "name": "",
          "type": "bytes32"
        }
      ],
      "stateMutability": "view",
      "type": "function"
    },
    {
      "inputs": [],
      "name": "grantAmountRequired",
      "outputs": [
        {
          "internalType": "bool",
          "name": "",
          "type": "bool"
        }
      ],
      "stateMutability": "view",
      "type": "function"
    },
    {
      "inputs": [
        {
          "internalType": "uint256",
          "name": "_amount",
          "type": "uint256"
        }
      ],
      "name": "increasePoolAmount",
      "outputs": [],
      "stateMutability": "nonpayable",
      "type": "function"
    },
    {
      "inputs": [
        {
          "internalType": "uint256",
          "name": "_poolId",
          "type": "uint256"
        },
        {
          "internalType": "bytes",
          "name": "_data",
          "type": "bytes"
        }
      ],
      "name": "initialize",
      "outputs": [],
      "stateMutability": "nonpayable",
      "type": "function"
    },
    {
      "inputs": [],
      "name": "isPoolActive",
      "outputs": [
        {
          "internalType": "bool",
          "name": "",
          "type": "bool"
        }
      ],
      "stateMutability": "view",
      "type": "function"
    },
    {
      "inputs": [
        {
          "internalType": "address",
          "name": "_allocator",
          "type": "address"
        }
      ],
      "name": "isValidAllocator",
      "outputs": [
        {
          "internalType": "bool",
          "name": "",
          "type": "bool"
        }
      ],
      "stateMutability": "view",
      "type": "function"
    },
    {
      "inputs": [],
      "name": "metadataRequired",
      "outputs": [
        {
          "internalType": "bool",
          "name": "",
          "type": "bool"
        }
      ],
      "stateMutability": "view",
      "type": "function"
    },
    {
      "inputs": [
        {
          "internalType": "address",
          "name": "",
          "type": "address"
        },
        {
          "internalType": "uint256",
          "name": "",
          "type": "uint256"
        }
      ],
      "name": "milestones",
      "outputs": [
        {
          "internalType": "uint256",
          "name": "amountPercentage",
          "type": "uint256"
        },
        {
          "components": [
            {
              "internalType": "uint256",
              "name": "protocol",
              "type": "uint256"
            },
            {
              "internalType": "string",
              "name": "pointer",
              "type": "string"
            }
          ],
          "internalType": "struct Metadata",
          "name": "metadata",
          "type": "tuple"
        },
        {
          "internalType": "enum IStrategy.Status",
          "name": "milestoneStatus",
          "type": "uint8"
        },
        {
          "internalType": "string",
          "name": "description",
          "type": "string"
        }
      ],
      "stateMutability": "view",
      "type": "function"
    },
    {
      "inputs": [
        {
          "internalType": "address",
          "name": "_recipientId",
          "type": "address"
        },
        {
          "components": [
            {
              "internalType": "uint256",
              "name": "amountPercentage",
              "type": "uint256"
            },
            {
              "components": [
                {
                  "internalType": "uint256",
                  "name": "protocol",
                  "type": "uint256"
                },
                {
                  "internalType": "string",
                  "name": "pointer",
                  "type": "string"
                }
              ],
              "internalType": "struct Metadata",
              "name": "metadata",
              "type": "tuple"
            },
            {
              "internalType": "enum IStrategy.Status",
              "name": "milestoneStatus",
              "type": "uint8"
            },
            {
              "internalType": "string",
              "name": "description",
              "type": "string"
            }
          ],
          "internalType": "struct ExecutorSupplierVotingStrategy.Milestone[]",
          "name": "_milestones",
          "type": "tuple[]"
        }
      ],
      "name": "offerMilestones",
      "outputs": [],
      "stateMutability": "nonpayable",
      "type": "function"
    },
    {
      "inputs": [
        {
          "internalType": "bytes",
          "name": "_data",
          "type": "bytes"
        },
        {
          "internalType": "address",
          "name": "_sender",
          "type": "address"
        }
      ],
      "name": "registerRecipient",
      "outputs": [
        {
          "internalType": "address",
          "name": "recipientId",
          "type": "address"
        }
      ],
      "stateMutability": "payable",
      "type": "function"
    },
    {
      "inputs": [],
      "name": "registryGating",
      "outputs": [
        {
          "internalType": "bool",
          "name": "",
          "type": "bool"
        }
      ],
      "stateMutability": "view",
      "type": "function"
    },
    {
      "inputs": [
        {
          "internalType": "address",
          "name": "_recipientId",
          "type": "address"
        },
        {
          "internalType": "enum IStrategy.Status",
          "name": "_status",
          "type": "uint8"
        }
      ],
      "name": "reviewOfferedtMilestones",
      "outputs": [],
      "stateMutability": "nonpayable",
      "type": "function"
    },
    {
      "inputs": [
        {
          "internalType": "bool",
          "name": "_flag",
          "type": "bool"
        }
      ],
      "name": "setPoolActive",
      "outputs": [],
      "stateMutability": "nonpayable",
      "type": "function"
    },
    {
      "inputs": [
        {
          "internalType": "uint256",
          "name": "_newPercentage",
          "type": "uint256"
        },
        {
          "internalType": "bytes32",
          "name": "_profileId",
          "type": "bytes32"
        }
      ],
      "name": "setThresholdPercentage",
      "outputs": [],
      "stateMutability": "nonpayable",
      "type": "function"
    },
    {
      "inputs": [
        {
          "internalType": "address",
          "name": "_recipientId",
          "type": "address"
        },
        {
          "internalType": "uint256",
          "name": "_milestoneId",
          "type": "uint256"
        },
        {
          "components": [
            {
              "internalType": "uint256",
              "name": "protocol",
              "type": "uint256"
            },
            {
              "internalType": "string",
              "name": "pointer",
              "type": "string"
            }
          ],
          "internalType": "struct Metadata",
          "name": "_metadata",
          "type": "tuple"
        }
      ],
      "name": "submitMilestone",
      "outputs": [],
      "stateMutability": "nonpayable",
      "type": "function"
    },
    {
      "inputs": [],
      "name": "thresholdPercentage",
      "outputs": [
        {
          "internalType": "uint256",
          "name": "",
          "type": "uint256"
        }
      ],
      "stateMutability": "view",
      "type": "function"
    },
    {
      "inputs": [],
      "name": "totalSupply",
      "outputs": [
        {
          "internalType": "uint256",
          "name": "",
          "type": "uint256"
        }
      ],
      "stateMutability": "view",
      "type": "function"
    },
    {
      "inputs": [
        {
          "internalType": "address",
          "name": "",
          "type": "address"
        }
      ],
      "name": "upcomingMilestone",
      "outputs": [
        {
          "internalType": "uint256",
          "name": "",
          "type": "uint256"
        }
      ],
      "stateMutability": "view",
      "type": "function"
    },
    {
      "stateMutability": "payable",
      "type": "receive"
    }
  ],
  "bytecode": "0x60c060405260466006553480156200001657600080fd5b50604051620041ee380380620041ee8339810160408190526200003991620000c4565b6001600160a01b038216608052604051829082906200005d9082906020016200019f565b60408051601f19818403018152919052805160209091012060a0525050600160035550620001d49050565b634e487b7160e01b600052604160045260246000fd5b60005b83811015620000bb578181015183820152602001620000a1565b50506000910152565b60008060408385031215620000d857600080fd5b82516001600160a01b0381168114620000f057600080fd5b60208401519092506001600160401b03808211156200010e57600080fd5b818501915085601f8301126200012357600080fd5b81518181111562000138576200013862000088565b604051601f8201601f19908116603f0116810190838211818310171562000163576200016362000088565b816040528281528860208487010111156200017d57600080fd5b620001908360208301602088016200009e565b80955050505050509250929050565b6020815260008251806020840152620001c08160408501602087016200009e565b601f01601f19169190910160400192915050565b60805160a051613fc36200022b600039600061033e0152600081816102190152818161188301528181611c76015281816120110152818161226c01528181612488015281816126410152612a660152613fc36000f3fe6080604052600436106101dc5760003560e01c80639be2ccf511610102578063df868ed311610095578063edd146cc11610064578063edd146cc146105b0578063ef2920fc146105d0578063f5b0dfb7146105e3578063f83067e71461060357600080fd5b8063df868ed314610528578063e2372b5814610540578063e8eeb8061461056d578063eb11af931461058357600080fd5b8063b3eae7ab116100d1578063b3eae7ab14610499578063b5f620ce146104b9578063c7a892bf146104d9578063cb0e85a61461050957600080fd5b80639be2ccf51461040a578063a0cf0aea1461042a578063a647d23e14610452578063b2b878d01461046c57600080fd5b806338fff2d01161017a5780634d31d087116101495780634d31d087146103775780634ed2859e146103a757806362812a39146103bd57806378f0184d146103ea57600080fd5b806338fff2d0146102fa5780633bf3577d1461030f57806342fda9c71461032f5780634ab4ba421461036257600080fd5b806322a4e42d116101b657806322a4e42d1461027a5780632a835b4b146102a75780632bbe0cae146102c757806336592c0e146102da57600080fd5b80630a6f0ee9146101e857806315cc481e1461020a57806318160ddd1461025657600080fd5b366101e357005b600080fd5b3480156101f457600080fd5b50610208610203366004613014565b610623565b005b34801561021657600080fd5b507f00000000000000000000000000000000000000000000000000000000000000005b6040516001600160a01b0390911681526020015b60405180910390f35b34801561026257600080fd5b5061026c60055481565b60405190815260200161024d565b34801561028657600080fd5b5061029a61029536600461308b565b610643565b60405161024d9190613156565b3480156102b357600080fd5b506102086102c23660046131fb565b610837565b6102396102d536600461321d565b610936565b3480156102e657600080fd5b5061029a6102f536600461308b565b61095b565b34801561030657600080fd5b5060015461026c565b34801561031b57600080fd5b5061020861032a36600461326e565b610b44565b34801561033b57600080fd5b507f000000000000000000000000000000000000000000000000000000000000000061026c565b34801561036e57600080fd5b5060025461026c565b34801561038357600080fd5b5061039761039236600461308b565b610e05565b604051901515815260200161024d565b3480156103b357600080fd5b5061026c60065481565b3480156103c957600080fd5b506103dd6103d836600461308b565b610e10565b60405161024d91906132c2565b3480156103f657600080fd5b50610208610405366004613352565b610e21565b34801561041657600080fd5b506004546103979062010000900460ff1681565b34801561043657600080fd5b5061023973eeeeeeeeeeeeeeeeeeeeeeeeeeeeeeeeeeeeeeee81565b34801561045e57600080fd5b506004546103979060ff1681565b34801561047857600080fd5b5061048c6104873660046134dd565b61101d565b60405161024d91906135b1565b3480156104a557600080fd5b506102086104b4366004613609565b61111b565b3480156104c557600080fd5b506102086104d4366004613645565b6115af565b3480156104e557600080fd5b506104f96104f4366004613662565b6115fb565b60405161024d949392919061368e565b34801561051557600080fd5b5060045461039790610100900460ff1681565b34801561053457600080fd5b5060005460ff16610397565b34801561054c57600080fd5b5061026c61055b36600461308b565b600e6020526000908152604090205481565b34801561057957600080fd5b5061026c60085481565b34801561058f57600080fd5b506105a361059e36600461308b565b61177d565b60405161024d91906136d1565b3480156105bc57600080fd5b506102086105cb3660046136df565b611788565b6102086105de36600461321d565b6117e8565b3480156105ef57600080fd5b506102086105fe366004613725565b611806565b34801561060f57600080fd5b506105a361061e366004613662565b611830565b61062b611878565b6106336118c3565b61063e8383836118e6565b505050565b6001600160a01b0381166000908152600d60209081526040808320805482518185028101850190935280835260609492939192909184015b8282101561082c57838290600052602060002090600502016040518060800160405290816000820154815260200160018201604051806040016040529081600082015481526020016001820180546106d29061373e565b80601f01602080910402602001604051908101604052809291908181526020018280546106fe9061373e565b801561074b5780601f106107205761010080835404028352916020019161074b565b820191906000526020600020905b81548152906001019060200180831161072e57829003601f168201915b505050919092525050508152600382015460209091019060ff1660068111156107765761077661311e565b60068111156107875761078761311e565b815260200160048201805461079b9061373e565b80601f01602080910402602001604051908101604052809291908181526020018280546107c79061373e565b80156108145780601f106107e957610100808354040283529160200191610814565b820191906000526020600020905b8154815290600101906020018083116107f757829003601f168201915b5050505050815250508152602001906001019061067b565b505050509050919050565b600754604051630e6e1ae360e21b8152600481018390523360248201526001600160a01b03909116906339b86b8c90604401602060405180830381865afa158015610886573d6000803e3d6000fd5b505050506040513d601f19601f820116820180604052508101906108aa9190613778565b6108ea5760405162461bcd60e51b815260206004820152600c60248201526b15539055551213d49256915160a21b60448201526064015b60405180910390fd5b60648211156109305760405162461bcd60e51b8152602060048201526012602482015271496e76616c69642070657263656e7461676560701b60448201526064016108e1565b50600655565b6000610940611878565b6109486118c3565b6109528383611928565b90505b92915050565b6001600160a01b0381166000908152600c60209081526040808320805482518185028101850190935280835260609492939192909184015b8282101561082c57838290600052602060002090600502016040518060800160405290816000820154815260200160018201604051806040016040529081600082015481526020016001820180546109ea9061373e565b80601f0160208091040260200160405190810160405280929190818152602001828054610a169061373e565b8015610a635780601f10610a3857610100808354040283529160200191610a63565b820191906000526020600020905b815481529060010190602001808311610a4657829003601f168201915b505050919092525050508152600382015460209091019060ff166006811115610a8e57610a8e61311e565b6006811115610a9f57610a9f61311e565b8152602001600482018054610ab39061373e565b80601f0160208091040260200160405190810160405280929190818152602001828054610adf9061373e565b8015610b2c5780601f10610b0157610100808354040283529160200191610b2c565b820191906000526020600020905b815481529060010190602001808311610b0f57829003601f168201915b50505050508152505081526020019060010190610993565b6001600160a01b0383163314610b6d5760405163075fd2b160e01b815260040160405180910390fd5b6001600160a01b038084166000908152600a60209081526040808320815160c081018352815460ff8116151582526101009004909516858401526001810154858301528151808301909252600281018054835260038201805495969592946060870194939084019190610bdf9061373e565b80601f0160208091040260200160405190810160405280929190818152602001828054610c0b9061373e565b8015610c585780601f10610c2d57610100808354040283529160200191610c58565b820191906000526020600020905b815481529060010190602001808311610c3b57829003601f168201915b505050919092525050508152600482015460209091019060ff166006811115610c8357610c8361311e565b6006811115610c9457610c9461311e565b81526020016004820160019054906101000a900460ff166006811115610cbc57610cbc61311e565b6006811115610ccd57610ccd61311e565b9052509050600281608001516006811115610cea57610cea61311e565b14610d085760405163392c16fb60e21b815260040160405180910390fd5b6001600160a01b0384166000908152600d602052604090208054841115610d4257604051632f1f68e160e11b815260040160405180910390fd5b6000818581548110610d5657610d56613795565b6000918252602090912060059091020190506002600382015460ff166006811115610d8357610d8361311e565b03610da157604051637f46ed2760e11b815260040160405180910390fd5b8360018201610db082826137f1565b505060038101805460ff191660011790556040517f8673cfb5a2cbad812463bdfd7c85511f29c804579a86d318889ab9251553996190610df5908890889088906138e9565b60405180910390a1505050505050565b600061095582611c59565b610e18612d31565b61095582611cfe565b6000336001600160a01b0384161480610e3f5750610e3f8333611e6e565b905080610e5f5760405163075fd2b160e01b815260040160405180910390fd5b6001600160a01b0383166000908152600a602052604090206002600482015460ff166006811115610e9257610e9261311e565b14610eb05760405163392c16fb60e21b815260040160405180910390fd5b60026004820154610100900460ff166006811115610ed057610ed061311e565b03610eee576040516305ca31d360e51b815260040160405180910390fd5b610ef784611f66565b60005b8351811015610fd1576001600160a01b0385166000908152600c602052604090208451859083908110610f2f57610f2f613795565b60209081029190910181015182546001818101855560009485529383902082516005909202019081558183015180519482019485559283015191939092916002840190610f7c9082613982565b505050604082015160038201805460ff19166001836006811115610fa257610fa261311e565b021790555060608201516004820190610fbb9082613982565b5050508080610fc990613a57565b915050610efa565b508251604080516001600160a01b038716815260208101929092527f8a5603111f154f43104afe04452c6a93024a972cb6a0af72e6f38bcce68625d5910160405180910390a150505050565b8151815160609190811461104457604051633da4c02b60e11b815260040160405180910390fd5b6000816001600160401b0381111561105e5761105e612e3e565b6040519080825280602002602001820160405280156110a357816020015b604080518082019091526000808252602082015281526020019060019003908161107c5790505b50905060005b82811015611112576110ed8682815181106110c6576110c6613795565b60200260200101518683815181106110e0576110e0613795565b6020026020010151611f9c565b8282815181106110ff576110ff613795565b60209081029190910101526001016110a9565b50949350505050565b3361112581611fe7565b6001600160a01b0383166000908152600a6020526040902060026004820154610100900460ff16600681111561115d5761115d61311e565b0361117b576040516305ca31d360e51b815260040160405180910390fd5b336000908152600b60205260408120546006546005549192916064916111a091613a70565b6111aa9190613a87565b905060028560068111156111c0576111c061311e565b03611489576001600160a01b0386166000908152600c6020526040812060010180548492906111f0908490613aa9565b90915550506001600160a01b0386166000908152600c6020526040902060010154811015611484576001600160a01b0386166000908152600a60205260409020600401805486919061ff0019166101008360068111156112525761125261311e565b02179055506001600160a01b0386166000908152600c602090815260408083208054825181850281018501909352808352611446948b9484015b8282101561143d57838290600052602060002090600502016040518060800160405290816000820154815260200160018201604051806040016040529081600082015481526020016001820180546112e39061373e565b80601f016020809104026020016040519081016040528092919081815260200182805461130f9061373e565b801561135c5780601f106113315761010080835404028352916020019161135c565b820191906000526020600020905b81548152906001019060200180831161133f57829003601f168201915b505050919092525050508152600382015460209091019060ff1660068111156113875761138761311e565b60068111156113985761139861311e565b81526020016004820180546113ac9061373e565b80601f01602080910402602001604051908101604052809291908181526020018280546113d89061373e565b80156114255780601f106113fa57610100808354040283529160200191611425565b820191906000526020600020905b81548152906001019060200180831161140857829003601f168201915b5050505050815250508152602001906001019061128c565b50505050612099565b6040516001600160a01b03871681527f7b05d1f85b1ac2e76c0d8dbb0dfa809df6788f66bbeeb837b2b5fae4f64c0063906020015b60405180910390a15b6115a7565b600385600681111561149d5761149d61311e565b03611576576001600160a01b0386166000908152600c6020526040812060020180548492906114cd908490613aa9565b90915550506001600160a01b0386166000908152600c6020526040902060020154811015611484576001600160a01b0386166000908152600a60205260409020600401805486919061ff00191661010083600681111561152f5761152f61311e565b021790555061153d86611f66565b6040516001600160a01b03871681527f5a90817477dd8f83cfe5d429e1dc84ad5a25cb72b83291c707c6f8f5c4f2ac849060200161147b565b7f30dae55c386c6176f3f7b7ee6ad4df33970f2e442cb0142e978cf78fd8ae138d8686604051610df5929190613abc565b505050505050565b336115b981611fe7565b6115c28261231d565b60405182151581527fd94c9bc4d43c51d8dc345a016d8e3d994432fac68e72832e4cf3a616bd8efae09060200160405180910390a15050565b600d602052816000526040600020818154811061161757600080fd5b906000526020600020906005020160009150915050806000015490806001016040518060400160405290816000820154815260200160018201805461165b9061373e565b80601f01602080910402602001604051908101604052809291908181526020018280546116879061373e565b80156116d45780601f106116a9576101008083540402835291602001916116d4565b820191906000526020600020905b8154815290600101906020018083116116b757829003601f168201915b505050919092525050506003820154600483018054929360ff909216926116fa9061373e565b80601f01602080910402602001604051908101604052809291908181526020018280546117269061373e565b80156117735780601f1061174857610100808354040283529160200191611773565b820191906000526020600020905b81548152906001019060200180831161175657829003601f168201915b5050505050905084565b600061095582612364565b60008180602001905181019061179e9190613ae4565b90506117aa8382612379565b7f91efa3d50feccde0d0d202f8ae5c41ca0b2be614cebcb2bd2f4b019396e6568a83836040516117db929190613c0c565b60405180910390a1505050565b6117f0611878565b6117f86118c3565b6118028282612532565b5050565b61180e611878565b80600260008282546118209190613aa9565b9091555061182d90508181565b50565b6001600160a01b0382166000908152600d6020526040812080548390811061185a5761185a613795565b600091825260209091206005909102016003015460ff169392505050565b336001600160a01b037f000000000000000000000000000000000000000000000000000000000000000016146118c15760405163075fd2b160e01b815260040160405180910390fd5b565b6001546000036118c157604051630f68fe6360e21b815260040160405180910390fd5b806118f081611fe7565b835160005b818110156115a75761192086828151811061191257611912613795565b602002602001015185612853565b6001016118f5565b6000611932612bf9565b600080600080611955604051806040016040528060008152602001606081525090565b60045460ff16156119aa57878060200190518101906119749190613cbb565b929850909650925090506119888688611e6e565b6119a55760405163075fd2b160e01b815260040160405180910390fd5b611a17565b878060200190518101906119be9190613cbb565b9297509095506001600160a01b0386161515945092509050826119e157846119e3565b835b95508280156119f957506119f78688611e6e565b155b15611a175760405163075fd2b160e01b815260040160405180910390fd5b60045462010000900460ff168015611a2d575081155b15611a4b576040516303b167dd60e01b815260040160405180910390fd5b60026001600160a01b0387166000908152600a602052604090206004015460ff166006811115611a7d57611a7d61311e565b03611a9b5760405163083a81f760e31b815260040160405180910390fd5b600454610100900460ff168015611abe57506020810151511580611abe57508051155b15611adc5760405163c19e07c560e01b815260040160405180910390fd5b6040805160c0810190915260045460009190819060ff16611afd5785611b00565b60015b151581526001600160a01b0388166020820152604081018590526060810184905260800160028152602001600190526001600160a01b038881166000908152600a602090815260409182902084518154868401516001600160a81b0319909116911515610100600160a81b03191691909117610100919095160293909317835590830151600183015560608301518051600284019081559181015193945084939091906003840190611bb29082613982565b505050608082015160048201805460ff19166001836006811115611bd857611bd861311e565b021790555060a082015160048201805461ff001916610100836006811115611c0257611c0261311e565b0217905550905050866001600160a01b03167fa197306e3dd5494a61a695381aa809a53b8e377a685e84e404a85d5a8da6cc628a8a604051611c45929190613d28565b60405180910390a250505050505092915050565b6001546040516329e40d4b60e01b81526000916001600160a01b037f000000000000000000000000000000000000000000000000000000000000000016916329e40d4b91611cbd9186906004019182526001600160a01b0316602082015260400190565b602060405180830381865afa158015611cda573d6000803e3d6000fd5b505050506040513d601f19601f820116820180604052508101906109559190613778565b611d06612d31565b6001600160a01b038083166000908152600a6020908152604091829020825160c081018452815460ff811615158252610100900490941684830152600181015484840152825180840190935260028101805484526003820180549294606087019490939084019190611d779061373e565b80601f0160208091040260200160405190810160405280929190818152602001828054611da39061373e565b8015611df05780601f10611dc557610100808354040283529160200191611df0565b820191906000526020600020905b815481529060010190602001808311611dd357829003601f168201915b505050919092525050508152600482015460209091019060ff166006811115611e1b57611e1b61311e565b6006811115611e2c57611e2c61311e565b81526020016004820160019054906101000a900460ff166006811115611e5457611e5461311e565b6006811115611e6557611e6561311e565b90525092915050565b60075460405163dd93da4360e01b81526001600160a01b038481166004830152600092839291169063dd93da4390602401600060405180830381865afa158015611ebc573d6000803e3d6000fd5b505050506040513d6000823e601f3d908101601f19168201604052611ee49190810190613d52565b6007548151604051635e8a791560e01b815260048101919091526001600160a01b038681166024830152929350911690635e8a791590604401602060405180830381865afa158015611f3a573d6000803e3d6000fd5b505050506040513d601f19601f82011682018060405250810190611f5e9190613778565b949350505050565b6001600160a01b0381166000908152600c6020526040812090611f898282612d8c565b5060006001820181905560029091015550565b60408051808201909152600080825260208201526000611fbb84611cfe565b6040805180820182526020808401516001600160a01b0316825291909201519082015291505092915050565b6001546040516329e40d4b60e01b815260048101919091526001600160a01b0382811660248301527f000000000000000000000000000000000000000000000000000000000000000016906329e40d4b90604401602060405180830381865afa158015612058573d6000803e3d6000fd5b505050506040513d601f19601f8201168201806040525081019061207c9190613778565b61182d5760405163075fd2b160e01b815260040160405180910390fd5b6001600160a01b0382166000908152600d6020526040812054156120d8576001600160a01b0383166000908152600d602052604081206120d891612d8c565b815160005b818110156121fe5760008482815181106120f9576120f9613795565b60200260200101519050600060068111156121165761211661311e565b8160400151600681111561212c5761212c61311e565b1461214a57604051632f1f68e160e11b815260040160405180910390fd5b80516121569085613aa9565b6001600160a01b0387166000908152600d60209081526040822080546001818101835591845292829020855160059094020192835584820151805191840191825591820151939750849360028401906121af9082613982565b505050604082015160038201805460ff191660018360068111156121d5576121d561311e565b0217905550606082015160048201906121ee9082613982565b5050600190920191506120dd9050565b5081670de0b6b3a76400001461222757604051632f1f68e160e11b815260040160405180910390fd5b600084600260055460405160200161224193929190613e18565b60408051601f19818403018152908290526001546305d8703160e31b83529092506001600160a01b037f00000000000000000000000000000000000000000000000000000000000000001691632ec38188916122a1918590600401613c0c565b600060405180830381600087803b1580156122bb57600080fd5b505af11580156122cf573d6000803e3d6000fd5b5050604080516001600160a01b0389168152602081018690527fb000fb1507aac2465ccb4f6bd1b601c7053279005e9e9932c41946b35c84949b935001905060405180910390a15050505050565b6000805460ff19168215159081179091556040519081527fd94c9bc4d43c51d8dc345a016d8e3d994432fac68e72832e4cf3a616bd8efae09060200160405180910390a150565b600061236f82611cfe565b6080015192915050565b61238282612c1c565b805160048054602084015160408501511515620100000262ff0000199115156101000261ff00199515159590951661ffff19909316929092179390931792909216919091179055606081015160005b8151811015612485578181815181106123ec576123ec613795565b602002602001015160200151600b600084848151811061240e5761240e613795565b6020026020010151600001516001600160a01b03166001600160a01b031681526020019081526020016000208190555081818151811061245057612450613795565b6020026020010151602001516005600082825461246d9190613aa9565b9091555081905061247d81613a57565b9150506123d1565b507f00000000000000000000000000000000000000000000000000000000000000006001600160a01b0316635ab1bd536040518163ffffffff1660e01b8152600401602060405180830381865afa1580156124e4573d6000803e3d6000fd5b505050506040513d601f19601f820116820180604052508101906125089190613e43565b600780546001600160a01b0319166001600160a01b039290921691909117905561063e600161231d565b61253a612c6b565b6001600160a01b03811630146125815760405162461bcd60e51b815260206004820152600c60248201526b15539055551213d49256915160a21b60448201526064016108e1565b60008060008480602001905181019061259a9190613e60565b6001600160a01b0383166000908152600a60209081526040808320600e90925290912054939650919450925090156125e5576040516305ca31d360e51b815260040160405180910390fd5b6002600482015460ff1660068111156126005761260061311e565b1415801561261f5750600283600681111561261d5761261d61311e565b145b156127ba5760015460405163068bcd8d60e01b81526000916001600160a01b037f0000000000000000000000000000000000000000000000000000000000000000169163068bcd8d916126789160040190815260200190565b600060405180830381865afa158015612695573d6000803e3d6000fd5b505050506040513d6000823e601f3d908101601f191682016040526126bd9190810190613ea3565b905082600860008282546126d19190613aa9565b909155505060025460085411156126fb57604051638e81b16f60e01b815260040160405180910390fd5b6001820183905560048201805460ff191660029081179091556040517f94593b52aa436dd31a63e313045c2eb23d43eb2d6f5b4d7797b4432e7b2774909161274591889190613abc565b60405180910390a1846001600160a01b03167f463ffc2cf8b1596445c417388ed30e53eb67cf6668cb2be7f0addf8a78c8441b83600101548360400151896040516127ac939291909283526001600160a01b03918216602084015216604082015260600190565b60405180910390a250612845565b6003600482015460ff1660068111156127d5576127d561311e565b141580156127f4575060038360068111156127f2576127f261311e565b145b156128455760048101805460ff191660039081179091556040517f94593b52aa436dd31a63e313045c2eb23d43eb2d6f5b4d7797b4432e7b2774909161283c91879190613abc565b60405180910390a15b505050506118026001600355565b6001600160a01b038083166000908152600e6020908152604080832054600d8352818420600a8452828520835160c081018552815460ff811615158252610100900490971687860152600181015487850152835180850190945260028101805485526003820180549498939796939592946060870194840191906128d69061373e565b80601f01602080910402602001604051908101604052809291908181526020018280546129029061373e565b801561294f5780601f106129245761010080835404028352916020019161294f565b820191906000526020600020905b81548152906001019060200180831161293257829003601f168201915b505050919092525050508152600482015460209091019060ff16600681111561297a5761297a61311e565b600681111561298b5761298b61311e565b81526020016004820160019054906101000a900460ff1660068111156129b3576129b361311e565b60068111156129c4576129c461311e565b81525050905060008284815481106129de576129de613795565b906000526020600020906005020190508280549050841180612a1957506001600382015460ff166006811115612a1657612a1661311e565b14155b15612a3757604051632f1f68e160e11b815260040160405180910390fd5b6000670de0b6b3a764000082600001548460400151612a569190613a70565b612a609190613a87565b905060007f00000000000000000000000000000000000000000000000000000000000000006001600160a01b031663068bcd8d6001546040518263ffffffff1660e01b8152600401612ab491815260200190565b600060405180830381865afa158015612ad1573d6000803e3d6000fd5b505050506040513d6000823e601f3d908101601f19168201604052612af99190810190613ea3565b90508160026000828254612b0d9190613f56565b92505081905550612b278160400151856020015184612c95565b60038301805460ff191660021790556001600160a01b0388166000908152600e60205260408120805491612b5a83613a57565b91905055507ff1af82b65c631a030029b10ea8f00f68290285c7c797644155b8f23969ca1d6388876002604051612b9393929190613f69565b60405180910390a1602080850151604080516001600160a01b039283168152928301859052898216908301528916907fb5b51454adfa840bd593658325a60a50b0216f12eb5d2937efe6cea935675b7d9060600160405180910390a25050505050505050565b60005460ff166118c15760405163cfe7975b60e01b815260040160405180910390fd5b612c24611878565b60015415612c455760405163439a74c960e01b815260040160405180910390fd5b80600003612c6657604051637fcce2a960e01b815260040160405180910390fd5b600155565b600260035403612c8e57604051633ee5aeb560e01b815260040160405180910390fd5b6002600355565b73eeeeeeeeeeeeeeeeeeeeeeeeeeeeeeeeeeeeeeed196001600160a01b03841601612cc45761063e8282612ccf565b61063e838383612ceb565b60003860003884865af16118025763b12d13eb6000526004601cfd5b816014528060345263a9059cbb60601b60005260206000604460106000875af13d156001600051141716612d27576390b8ec186000526004601cfd5b6000603452505050565b6040518060c0016040528060001515815260200160006001600160a01b0316815260200160008152602001612d79604051806040016040528060008152602001606081525090565b8152602001600081526020016000905290565b508054600082556005029060005260206000209081019061182d91905b80821115612df05760008082556001820181815581612dcb6002850182612df4565b505060038201805460ff19169055612de7600483016000612df4565b50600501612da9565b5090565b508054612e009061373e565b6000825580601f10612e10575050565b601f01602090049060005260206000209081019061182d91905b80821115612df05760008155600101612e2a565b634e487b7160e01b600052604160045260246000fd5b604051608081016001600160401b0381118282101715612e7657612e76612e3e565b60405290565b604080519081016001600160401b0381118282101715612e7657612e76612e3e565b60405160c081016001600160401b0381118282101715612e7657612e76612e3e565b604051601f8201601f191681016001600160401b0381118282101715612ee857612ee8612e3e565b604052919050565b60006001600160401b03821115612f0957612f09612e3e565b5060051b60200190565b6001600160a01b038116811461182d57600080fd5b600082601f830112612f3957600080fd5b81356020612f4e612f4983612ef0565b612ec0565b82815260059290921b84018101918181019086841115612f6d57600080fd5b8286015b84811015612f91578035612f8481612f13565b8352918301918301612f71565b509695505050505050565b60006001600160401b03821115612fb557612fb5612e3e565b50601f01601f191660200190565b600082601f830112612fd457600080fd5b8135612fe2612f4982612f9c565b818152846020838601011115612ff757600080fd5b816020850160208301376000918101602001919091529392505050565b60008060006060848603121561302957600080fd5b83356001600160401b038082111561304057600080fd5b61304c87838801612f28565b9450602086013591508082111561306257600080fd5b5061306f86828701612fc3565b925050604084013561308081612f13565b809150509250925092565b60006020828403121561309d57600080fd5b81356130a881612f13565b9392505050565b60005b838110156130ca5781810151838201526020016130b2565b50506000910152565b600081518084526130eb8160208601602086016130af565b601f01601f19169290920160200192915050565b805182526000602082015160406020850152611f5e60408501826130d3565b634e487b7160e01b600052602160045260246000fd5b6007811061315257634e487b7160e01b600052602160045260246000fd5b9052565b60006020808301818452808551808352604092508286019150828160051b87010184880160005b838110156131ed57603f19898403018552815160808151855288820151818a8701526131ab828701826130ff565b915050878201516131be89870182613134565b50606080830151925085820381870152506131d981836130d3565b96890196945050509086019060010161317d565b509098975050505050505050565b6000806040838503121561320e57600080fd5b50508035926020909101359150565b6000806040838503121561323057600080fd5b82356001600160401b0381111561324657600080fd5b61325285828601612fc3565b925050602083013561326381612f13565b809150509250929050565b60008060006060848603121561328357600080fd5b833561328e81612f13565b92506020840135915060408401356001600160401b038111156132b057600080fd5b84016040818703121561308057600080fd5b6020815281511515602082015260018060a01b036020830151166040820152604082015160608201526000606083015160c0608084015261330660e08401826130ff565b9050608084015161331a60a0850182613134565b5060a084015161332d60c0850182613134565b509392505050565b6007811061182d57600080fd5b803561334d81613335565b919050565b6000806040838503121561336557600080fd5b61336f8335612f13565b823591506001600160401b03806020850135111561338c57600080fd5b6020840135840185601f8201126133a257600080fd5b6133af612f498235612ef0565b81358082526020808301929160051b8401018810156133cd57600080fd5b602083015b6020843560051b8501018110156134ce5784813511156133f157600080fd5b80358401601f196080828c038201121561340a57600080fd5b613412612e54565b60208301358152876040840135111561342a57600080fd5b60408301358301604083828f0301121561344357600080fd5b61344b612e7c565b925060208101358352886040820135111561346557600080fd5b6134788d60206040840135840101612fc3565b60208401525081602082015261349060608401613342565b604082015287608084013511156134a657600080fd5b6134b98c60206080860135860101612fc3565b606082015285525050602092830192016133d2565b50809450505050509250929050565b600080604083850312156134f057600080fd5b82356001600160401b038082111561350757600080fd5b61351386838701612f28565b935060209150818501358181111561352a57600080fd5b8501601f8101871361353b57600080fd5b8035613549612f4982612ef0565b81815260059190911b8201840190848101908983111561356857600080fd5b8584015b838110156135a0578035868111156135845760008081fd5b6135928c8983890101612fc3565b84525091860191860161356c565b508096505050505050509250929050565b602080825282518282018190526000919060409081850190868401855b828110156135fc57815180516001600160a01b031685528601518685015292840192908501906001016135ce565b5091979650505050505050565b6000806040838503121561361c57600080fd5b823561362781612f13565b9150602083013561326381613335565b801515811461182d57600080fd5b60006020828403121561365757600080fd5b81356130a881613637565b6000806040838503121561367557600080fd5b823561368081612f13565b946020939093013593505050565b8481526080602082015260006136a760808301866130ff565b6136b46040840186613134565b82810360608401526136c681856130d3565b979650505050505050565b602081016109558284613134565b600080604083850312156136f257600080fd5b8235915060208301356001600160401b0381111561370f57600080fd5b61371b85828601612fc3565b9150509250929050565b60006020828403121561373757600080fd5b5035919050565b600181811c9082168061375257607f821691505b60208210810361377257634e487b7160e01b600052602260045260246000fd5b50919050565b60006020828403121561378a57600080fd5b81516130a881613637565b634e487b7160e01b600052603260045260246000fd5b601f82111561063e57600081815260208120601f850160051c810160208610156137d25750805b601f850160051c820191505b818110156115a7578281556001016137de565b813581556001808201602080850135601e1986360301811261381257600080fd5b850180356001600160401b0381111561382a57600080fd5b803603838301131561383b57600080fd5b61384f81613849865461373e565b866137ab565b6000601f821160018114613885576000831561386d57508382018501355b600019600385901b1c1916600184901b1786556138de565b600086815260209020601f19841690835b828110156138b557868501880135825593870193908901908701613896565b50848210156138d45760001960f88660031b161c198785880101351681555b50508683881b0186555b505050505050505050565b60018060a01b0384168152826020820152606060408201528135606082015260006020830135601e1984360301811261392157600080fd5b83016020810190356001600160401b0381111561393d57600080fd5b80360382131561394c57600080fd5b604060808501528060a0850152808260c0860137600060c0828601015260c0601f19601f83011685010192505050949350505050565b81516001600160401b0381111561399b5761399b612e3e565b6139af816139a9845461373e565b846137ab565b602080601f8311600181146139e457600084156139cc5750858301515b600019600386901b1c1916600185901b1785556115a7565b600085815260208120601f198616915b82811015613a13578886015182559484019460019091019084016139f4565b5085821015613a315787850151600019600388901b60f8161c191681555b5050505050600190811b01905550565b634e487b7160e01b600052601160045260246000fd5b600060018201613a6957613a69613a41565b5060010190565b808202811582820484141761095557610955613a41565b600082613aa457634e487b7160e01b600052601260045260246000fd5b500490565b8082018082111561095557610955613a41565b6001600160a01b0383168152604081016130a86020830184613134565b805161334d81612f13565b60006020808385031215613af757600080fd5b82516001600160401b0380821115613b0e57600080fd5b9084019060808287031215613b2257600080fd5b613b2a612e54565b8251613b3581613637565b815282840151613b4481613637565b81850152604083810151613b5781613637565b82820152606084015183811115613b6d57600080fd5b80850194505087601f850112613b8257600080fd5b83519250613b92612f4984612ef0565b83815260069390931b84018501928581019089851115613bb157600080fd5b948601945b84861015613bfa5782868b031215613bce5760008081fd5b613bd6612e7c565b8651613be181612f13565b8152868801518882015282529482019490860190613bb6565b60608401525090979650505050505050565b828152604060208201526000611f5e60408301846130d3565b600082601f830112613c3657600080fd5b8151613c44612f4982612f9c565b818152846020838601011115613c5957600080fd5b611f5e8260208301602087016130af565b600060408284031215613c7c57600080fd5b613c84612e7c565b90508151815260208201516001600160401b03811115613ca357600080fd5b613caf84828501613c25565b60208301525092915050565b60008060008060808587031215613cd157600080fd5b8451613cdc81612f13565b6020860151909450613ced81612f13565b6040860151606087015191945092506001600160401b03811115613d1057600080fd5b613d1c87828801613c6a565b91505092959194509250565b604081526000613d3b60408301856130d3565b905060018060a01b03831660208301529392505050565b600060208284031215613d6457600080fd5b81516001600160401b0380821115613d7b57600080fd5b9083019060c08286031215613d8f57600080fd5b613d97612e9e565b8251815260208301516020820152604083015182811115613db757600080fd5b613dc387828601613c25565b604083015250606083015182811115613ddb57600080fd5b613de787828601613c6a565b606083015250613df960808401613ad9565b6080820152613e0a60a08401613ad9565b60a082015295945050505050565b6001600160a01b038416815260608101613e356020830185613134565b826040830152949350505050565b600060208284031215613e5557600080fd5b81516130a881612f13565b600080600060608486031215613e7557600080fd5b8351613e8081612f13565b6020850151909350613e9181613335565b80925050604084015190509250925092565b600060208284031215613eb557600080fd5b81516001600160401b0380821115613ecc57600080fd5b9083019060c08286031215613ee057600080fd5b613ee8612e9e565b825181526020830151613efa81612f13565b60208201526040830151613f0d81612f13565b6040820152606083015182811115613f2457600080fd5b613f3087828601613c6a565b6060830152506080830151608082015260a083015160a082015280935050505092915050565b8181038181111561095557610955613a41565b6001600160a01b03841681526020810183905260608101611f5e604083018461313456fea2646970667358221220101501ffdad9ca0aef6c321e8c457671b6a4f3f4c6e0077323d345cf0ae4393364736f6c63430008140033",
  "linkReferences": {},
  "deployedLinkReferences": {}
}