{
  "_format": "hh-sol-artifact-1",
  "contractName": "ExecutorSupplierVotingStrategy",
  "sourceName": "contracts/ExecutorSupplierVotingStrategy.sol",
  "abi": [
    {
      "inputs": [
        {
          "internalType": "address",
          "name": "_allo",
          "type": "address"
        },
        {
          "internalType": "string",
          "name": "_name",
          "type": "string"
        }
      ],
      "stateMutability": "nonpayable",
      "type": "constructor"
    },
    {
      "inputs": [],
      "name": "ALLOCATION_ACTIVE",
      "type": "error"
    },
    {
      "inputs": [],
      "name": "ALLOCATION_EXCEEDS_POOL_AMOUNT",
      "type": "error"
    },
    {
      "inputs": [],
      "name": "ALLOCATION_NOT_ACTIVE",
      "type": "error"
    },
    {
      "inputs": [],
      "name": "ALLOCATION_NOT_ENDED",
      "type": "error"
    },
    {
      "inputs": [],
      "name": "ALREADY_INITIALIZED",
      "type": "error"
    },
    {
      "inputs": [],
      "name": "ALREADY_REVIEWED",
      "type": "error"
    },
    {
      "inputs": [],
      "name": "AMOUNT_MISMATCH",
      "type": "error"
    },
    {
      "inputs": [],
      "name": "ANCHOR_ERROR",
      "type": "error"
    },
    {
      "inputs": [],
      "name": "ARRAY_MISMATCH",
      "type": "error"
    },
    {
      "inputs": [],
      "name": "INVALID",
      "type": "error"
    },
    {
      "inputs": [],
      "name": "INVALID_ADDRESS",
      "type": "error"
    },
    {
      "inputs": [],
      "name": "INVALID_FEE",
      "type": "error"
    },
    {
      "inputs": [],
      "name": "INVALID_METADATA",
      "type": "error"
    },
    {
      "inputs": [],
      "name": "INVALID_MILESTONE",
      "type": "error"
    },
    {
      "inputs": [],
      "name": "INVALID_MILESTONES_PERCENTAGE",
      "type": "error"
    },
    {
      "inputs": [],
      "name": "INVALID_MILESTONE_STATUS",
      "type": "error"
    },
    {
      "inputs": [],
      "name": "INVALID_REGISTRATION",
      "type": "error"
    },
    {
      "inputs": [],
      "name": "INVALID_STATUS",
      "type": "error"
    },
    {
      "inputs": [],
      "name": "IS_APPROVED_STRATEGY",
      "type": "error"
    },
    {
      "inputs": [],
      "name": "MILESTONES_ALREADY_SET",
      "type": "error"
    },
    {
      "inputs": [],
      "name": "MILESTONE_ALREADY_ACCEPTED",
      "type": "error"
    },
    {
      "inputs": [],
      "name": "MISMATCH",
      "type": "error"
    },
    {
      "inputs": [],
      "name": "NONCE_NOT_AVAILABLE",
      "type": "error"
    },
    {
      "inputs": [],
      "name": "NOT_APPROVED_STRATEGY",
      "type": "error"
    },
    {
      "inputs": [],
      "name": "NOT_ENOUGH_FUNDS",
      "type": "error"
    },
    {
      "inputs": [],
      "name": "NOT_IMPLEMENTED",
      "type": "error"
    },
    {
      "inputs": [],
      "name": "NOT_INITIALIZED",
      "type": "error"
    },
    {
      "inputs": [],
      "name": "NOT_PENDING_OWNER",
      "type": "error"
    },
    {
      "inputs": [],
      "name": "POOL_ACTIVE",
      "type": "error"
    },
    {
      "inputs": [],
      "name": "POOL_INACTIVE",
      "type": "error"
    },
    {
      "inputs": [],
      "name": "RECIPIENT_ALREADY_ACCEPTED",
      "type": "error"
    },
    {
      "inputs": [
        {
          "internalType": "address",
          "name": "recipientId",
          "type": "address"
        }
      ],
      "name": "RECIPIENT_ERROR",
      "type": "error"
    },
    {
      "inputs": [],
      "name": "RECIPIENT_NOT_ACCEPTED",
      "type": "error"
    },
    {
      "inputs": [],
      "name": "REGISTRATION_NOT_ACTIVE",
      "type": "error"
    },
    {
      "inputs": [],
      "name": "ReentrancyGuardReentrantCall",
      "type": "error"
    },
    {
      "inputs": [],
      "name": "SUPPLY_IS_ALLOWED_ONLY_ONCE",
      "type": "error"
    },
    {
      "inputs": [],
      "name": "SUPPLY_NOT_FOUND",
      "type": "error"
    },
    {
      "inputs": [],
      "name": "UNAUTHORIZED",
      "type": "error"
    },
    {
      "inputs": [],
      "name": "ZERO_ADDRESS",
      "type": "error"
    },
    {
      "anonymous": false,
      "inputs": [
        {
          "indexed": true,
          "internalType": "address",
          "name": "recipientId",
          "type": "address"
        },
        {
          "indexed": false,
          "internalType": "uint256",
          "name": "amount",
          "type": "uint256"
        },
        {
          "indexed": false,
          "internalType": "address",
          "name": "token",
          "type": "address"
        },
        {
          "indexed": false,
          "internalType": "address",
          "name": "sender",
          "type": "address"
        }
      ],
      "name": "Allocated",
      "type": "event"
    },
    {
      "anonymous": false,
      "inputs": [
        {
          "indexed": true,
          "internalType": "address",
          "name": "recipientId",
          "type": "address"
        },
        {
          "indexed": false,
          "internalType": "address",
          "name": "recipientAddress",
          "type": "address"
        },
        {
          "indexed": false,
          "internalType": "uint256",
          "name": "amount",
          "type": "uint256"
        },
        {
          "indexed": false,
          "internalType": "address",
          "name": "sender",
          "type": "address"
        }
      ],
      "name": "Distributed",
      "type": "event"
    },
    {
      "anonymous": false,
      "inputs": [
        {
          "indexed": false,
          "internalType": "uint256",
          "name": "poolId",
          "type": "uint256"
        },
        {
          "indexed": false,
          "internalType": "bytes",
          "name": "data",
          "type": "bytes"
        }
      ],
      "name": "Initialized",
      "type": "event"
    },
    {
      "anonymous": false,
      "inputs": [
        {
          "indexed": false,
          "internalType": "address",
          "name": "recipientId",
          "type": "address"
        },
        {
          "indexed": false,
          "internalType": "uint256",
          "name": "milestoneId",
          "type": "uint256"
        },
        {
          "indexed": false,
          "internalType": "enum IStrategy.Status",
          "name": "status",
          "type": "uint8"
        }
      ],
      "name": "MilestoneStatusChanged",
      "type": "event"
    },
    {
      "anonymous": false,
      "inputs": [
        {
          "indexed": false,
          "internalType": "address",
          "name": "recipientId",
          "type": "address"
        },
        {
          "indexed": false,
          "internalType": "uint256",
          "name": "milestoneId",
          "type": "uint256"
        },
        {
          "components": [
            {
              "internalType": "uint256",
              "name": "protocol",
              "type": "uint256"
            },
            {
              "internalType": "string",
              "name": "pointer",
              "type": "string"
            }
          ],
          "indexed": false,
          "internalType": "struct Metadata",
          "name": "metadata",
          "type": "tuple"
        }
      ],
      "name": "MilestoneSubmitted",
      "type": "event"
    },
    {
      "anonymous": false,
      "inputs": [
        {
          "indexed": false,
          "internalType": "address",
          "name": "recipientId",
          "type": "address"
        },
        {
          "indexed": false,
          "internalType": "uint256",
          "name": "milestonesLength",
          "type": "uint256"
        }
      ],
      "name": "MilestonesOffered",
      "type": "event"
    },
    {
      "anonymous": false,
      "inputs": [
        {
          "indexed": false,
          "internalType": "address",
          "name": "recipientId",
          "type": "address"
        },
        {
          "indexed": false,
          "internalType": "enum IStrategy.Status",
          "name": "status",
          "type": "uint8"
        }
      ],
      "name": "MilestonesReviewed",
      "type": "event"
    },
    {
      "anonymous": false,
      "inputs": [
        {
          "indexed": false,
          "internalType": "address",
          "name": "recipientId",
          "type": "address"
        },
        {
          "indexed": false,
          "internalType": "uint256",
          "name": "milestonesLength",
          "type": "uint256"
        }
      ],
      "name": "MilestonesSet",
      "type": "event"
    },
    {
      "anonymous": false,
      "inputs": [
        {
          "indexed": false,
          "internalType": "address",
          "name": "recipientId",
          "type": "address"
        }
      ],
      "name": "OfferedMilestonesAccepted",
      "type": "event"
    },
    {
      "anonymous": false,
      "inputs": [
        {
          "indexed": false,
          "internalType": "address",
          "name": "recipientId",
          "type": "address"
        }
      ],
      "name": "OfferedMilestonesRejected",
      "type": "event"
    },
    {
      "anonymous": false,
      "inputs": [
        {
          "indexed": false,
          "internalType": "bool",
          "name": "active",
          "type": "bool"
        }
      ],
      "name": "PoolActive",
      "type": "event"
    },
    {
      "anonymous": false,
      "inputs": [],
      "name": "ProjectRejectDeclined",
      "type": "event"
    },
    {
      "anonymous": false,
      "inputs": [],
      "name": "ProjectRejected",
      "type": "event"
    },
    {
      "anonymous": false,
      "inputs": [
        {
          "indexed": false,
          "internalType": "address",
          "name": "recipientId",
          "type": "address"
        },
        {
          "indexed": false,
          "internalType": "enum IStrategy.Status",
          "name": "status",
          "type": "uint8"
        }
      ],
      "name": "RecipientStatusChanged",
      "type": "event"
    },
    {
      "anonymous": false,
      "inputs": [
        {
          "indexed": true,
          "internalType": "address",
          "name": "recipientId",
          "type": "address"
        },
        {
          "indexed": false,
          "internalType": "bytes",
          "name": "data",
          "type": "bytes"
        },
        {
          "indexed": false,
          "internalType": "address",
          "name": "sender",
          "type": "address"
        }
      ],
      "name": "Registered",
      "type": "event"
    },
    {
      "anonymous": false,
      "inputs": [
        {
          "indexed": false,
          "internalType": "address",
          "name": "recipientId",
          "type": "address"
        },
        {
          "indexed": false,
          "internalType": "uint256",
          "name": "milestoneId",
          "type": "uint256"
        },
        {
          "indexed": false,
          "internalType": "enum IStrategy.Status",
          "name": "status",
          "type": "uint8"
        }
      ],
      "name": "SubmittedvMilestoneReviewed",
      "type": "event"
    },
    {
      "inputs": [],
      "name": "NATIVE",
      "outputs": [
        {
          "internalType": "address",
          "name": "",
          "type": "address"
        }
      ],
      "stateMutability": "view",
      "type": "function"
    },
    {
      "inputs": [
        {
          "internalType": "bytes",
          "name": "_data",
          "type": "bytes"
        },
        {
          "internalType": "address",
          "name": "_sender",
          "type": "address"
        }
      ],
      "name": "allocate",
      "outputs": [],
      "stateMutability": "payable",
      "type": "function"
    },
    {
      "inputs": [],
      "name": "allocatedGrantAmount",
      "outputs": [
        {
          "internalType": "uint256",
          "name": "",
          "type": "uint256"
        }
      ],
      "stateMutability": "view",
      "type": "function"
    },
    {
      "inputs": [
        {
          "internalType": "address[]",
          "name": "_recipientIds",
          "type": "address[]"
        },
        {
          "internalType": "bytes",
          "name": "_data",
          "type": "bytes"
        },
        {
          "internalType": "address",
          "name": "_sender",
          "type": "address"
        }
      ],
      "name": "distribute",
      "outputs": [],
      "stateMutability": "nonpayable",
      "type": "function"
    },
    {
      "inputs": [],
      "name": "executorHat",
      "outputs": [
        {
          "internalType": "uint256",
          "name": "",
          "type": "uint256"
        }
      ],
      "stateMutability": "view",
      "type": "function"
    },
    {
      "inputs": [],
      "name": "getAllo",
      "outputs": [
        {
          "internalType": "contract IAllo",
          "name": "",
          "type": "address"
        }
      ],
      "stateMutability": "view",
      "type": "function"
    },
    {
      "inputs": [
        {
          "internalType": "address",
          "name": "_recipientId",
          "type": "address"
        },
        {
          "internalType": "uint256",
          "name": "_milestoneId",
          "type": "uint256"
        }
      ],
      "name": "getMilestoneStatus",
      "outputs": [
        {
          "internalType": "enum IStrategy.Status",
          "name": "",
          "type": "uint8"
        }
      ],
      "stateMutability": "view",
      "type": "function"
    },
    {
      "inputs": [
        {
          "internalType": "address",
          "name": "_recipientId",
          "type": "address"
        }
      ],
      "name": "getMilestones",
      "outputs": [
        {
          "components": [
            {
              "internalType": "uint256",
              "name": "amountPercentage",
              "type": "uint256"
            },
            {
              "components": [
                {
                  "internalType": "uint256",
                  "name": "protocol",
                  "type": "uint256"
                },
                {
                  "internalType": "string",
                  "name": "pointer",
                  "type": "string"
                }
              ],
              "internalType": "struct Metadata",
              "name": "metadata",
              "type": "tuple"
            },
            {
              "internalType": "enum IStrategy.Status",
              "name": "milestoneStatus",
              "type": "uint8"
            },
            {
              "internalType": "string",
              "name": "description",
              "type": "string"
            }
          ],
          "internalType": "struct ExecutorSupplierVotingStrategy.Milestone[]",
          "name": "",
          "type": "tuple[]"
        }
      ],
      "stateMutability": "view",
      "type": "function"
    },
    {
      "inputs": [
        {
          "internalType": "address",
          "name": "_recipientId",
          "type": "address"
        }
      ],
      "name": "getOffeeredMilestones",
      "outputs": [
        {
          "components": [
            {
              "internalType": "uint256",
              "name": "amountPercentage",
              "type": "uint256"
            },
            {
              "components": [
                {
                  "internalType": "uint256",
                  "name": "protocol",
                  "type": "uint256"
                },
                {
                  "internalType": "string",
                  "name": "pointer",
                  "type": "string"
                }
              ],
              "internalType": "struct Metadata",
              "name": "metadata",
              "type": "tuple"
            },
            {
              "internalType": "enum IStrategy.Status",
              "name": "milestoneStatus",
              "type": "uint8"
            },
            {
              "internalType": "string",
              "name": "description",
              "type": "string"
            }
          ],
          "internalType": "struct ExecutorSupplierVotingStrategy.Milestone[]",
          "name": "",
          "type": "tuple[]"
        }
      ],
      "stateMutability": "view",
      "type": "function"
    },
    {
      "inputs": [
        {
          "internalType": "address",
          "name": "_recipientId",
          "type": "address"
        }
      ],
      "name": "getOfferedMilestonesVotesAgainst",
      "outputs": [
        {
          "internalType": "uint256",
          "name": "",
          "type": "uint256"
        }
      ],
      "stateMutability": "view",
      "type": "function"
    },
    {
      "inputs": [
        {
          "internalType": "address",
          "name": "_recipientId",
          "type": "address"
        }
      ],
      "name": "getOfferedMilestonesVotesFor",
      "outputs": [
        {
          "internalType": "uint256",
          "name": "",
          "type": "uint256"
        }
      ],
      "stateMutability": "view",
      "type": "function"
    },
    {
      "inputs": [
        {
          "internalType": "address[]",
          "name": "_recipientIds",
          "type": "address[]"
        },
        {
          "internalType": "bytes[]",
          "name": "_data",
          "type": "bytes[]"
        }
      ],
      "name": "getPayouts",
      "outputs": [
        {
          "components": [
            {
              "internalType": "address",
              "name": "recipientAddress",
              "type": "address"
            },
            {
              "internalType": "uint256",
              "name": "amount",
              "type": "uint256"
            }
          ],
          "internalType": "struct IStrategy.PayoutSummary[]",
          "name": "",
          "type": "tuple[]"
        }
      ],
      "stateMutability": "view",
      "type": "function"
    },
    {
      "inputs": [],
      "name": "getPoolAmount",
      "outputs": [
        {
          "internalType": "uint256",
          "name": "",
          "type": "uint256"
        }
      ],
      "stateMutability": "view",
      "type": "function"
    },
    {
      "inputs": [],
      "name": "getPoolId",
      "outputs": [
        {
          "internalType": "uint256",
          "name": "",
          "type": "uint256"
        }
      ],
      "stateMutability": "view",
      "type": "function"
    },
    {
      "inputs": [
        {
          "internalType": "address",
          "name": "_recipientId",
          "type": "address"
        }
      ],
      "name": "getRecipient",
      "outputs": [
        {
          "components": [
            {
              "internalType": "bool",
              "name": "useRegistryAnchor",
              "type": "bool"
            },
            {
              "internalType": "address",
              "name": "recipientAddress",
              "type": "address"
            },
            {
              "internalType": "uint256",
              "name": "grantAmount",
              "type": "uint256"
            },
            {
              "components": [
                {
                  "internalType": "uint256",
                  "name": "protocol",
                  "type": "uint256"
                },
                {
                  "internalType": "string",
                  "name": "pointer",
                  "type": "string"
                }
              ],
              "internalType": "struct Metadata",
              "name": "metadata",
              "type": "tuple"
            },
            {
              "internalType": "enum IStrategy.Status",
              "name": "recipientStatus",
              "type": "uint8"
            },
            {
              "internalType": "enum IStrategy.Status",
              "name": "milestonesReviewStatus",
              "type": "uint8"
            }
          ],
          "internalType": "struct ExecutorSupplierVotingStrategy.Recipient",
          "name": "",
          "type": "tuple"
        }
      ],
      "stateMutability": "view",
      "type": "function"
    },
    {
      "inputs": [
        {
          "internalType": "address",
          "name": "_recipientId",
          "type": "address"
        }
      ],
      "name": "getRecipientStatus",
      "outputs": [
        {
          "internalType": "enum IStrategy.Status",
          "name": "",
          "type": "uint8"
        }
      ],
      "stateMutability": "view",
      "type": "function"
    },
    {
      "inputs": [],
      "name": "getRejectProjectVotesAgainst",
      "outputs": [
        {
          "internalType": "uint256",
          "name": "",
          "type": "uint256"
        }
      ],
      "stateMutability": "view",
      "type": "function"
    },
    {
      "inputs": [],
      "name": "getRejectProjectVotesFor",
      "outputs": [
        {
          "internalType": "uint256",
          "name": "",
          "type": "uint256"
        }
      ],
      "stateMutability": "view",
      "type": "function"
    },
    {
      "inputs": [],
      "name": "getStrategyId",
      "outputs": [
        {
          "internalType": "bytes32",
          "name": "",
          "type": "bytes32"
        }
      ],
      "stateMutability": "view",
      "type": "function"
    },
    {
      "inputs": [
        {
          "internalType": "uint256",
          "name": "_milestoneId",
          "type": "uint256"
        }
      ],
      "name": "getSubmittedMilestonesVotesAgainst",
      "outputs": [
        {
          "internalType": "uint256",
          "name": "",
          "type": "uint256"
        }
      ],
      "stateMutability": "view",
      "type": "function"
    },
    {
      "inputs": [
        {
          "internalType": "uint256",
          "name": "_milestoneId",
          "type": "uint256"
        }
      ],
      "name": "getSubmittedMilestonesVotesFor",
      "outputs": [
        {
          "internalType": "uint256",
          "name": "",
          "type": "uint256"
        }
      ],
      "stateMutability": "view",
      "type": "function"
    },
    {
      "inputs": [
        {
          "internalType": "address",
          "name": "_recipientId",
          "type": "address"
        },
        {
          "internalType": "address",
          "name": "_supplier",
          "type": "address"
        }
      ],
      "name": "getSupplierOfferedMilestonesVote",
      "outputs": [
        {
          "internalType": "uint256",
          "name": "",
          "type": "uint256"
        }
      ],
      "stateMutability": "view",
      "type": "function"
    },
    {
      "inputs": [
        {
          "internalType": "uint256",
          "name": "_milestoneId",
          "type": "uint256"
        },
        {
          "internalType": "address",
          "name": "_supplier",
          "type": "address"
        }
      ],
      "name": "getSupplierSubmittedMilestonesVote",
      "outputs": [
        {
          "internalType": "uint256",
          "name": "",
          "type": "uint256"
        }
      ],
      "stateMutability": "view",
      "type": "function"
    },
    {
      "inputs": [
        {
          "internalType": "address",
          "name": "_recipientId",
          "type": "address"
        }
      ],
      "name": "getUpcomingMilestone",
      "outputs": [
        {
          "internalType": "uint256",
          "name": "",
          "type": "uint256"
        }
      ],
      "stateMutability": "view",
      "type": "function"
    },
    {
      "inputs": [
        {
          "internalType": "uint256",
          "name": "_amount",
          "type": "uint256"
        }
      ],
      "name": "increasePoolAmount",
      "outputs": [],
      "stateMutability": "nonpayable",
      "type": "function"
    },
    {
      "inputs": [
        {
          "internalType": "uint256",
          "name": "_poolId",
          "type": "uint256"
        },
        {
          "internalType": "bytes",
          "name": "_data",
          "type": "bytes"
        }
      ],
      "name": "initialize",
      "outputs": [],
      "stateMutability": "nonpayable",
      "type": "function"
    },
    {
      "inputs": [],
      "name": "isPoolActive",
      "outputs": [
        {
          "internalType": "bool",
          "name": "",
          "type": "bool"
        }
      ],
      "stateMutability": "view",
      "type": "function"
    },
    {
      "inputs": [
        {
          "internalType": "address",
          "name": "_allocator",
          "type": "address"
        }
      ],
      "name": "isValidAllocator",
      "outputs": [
        {
          "internalType": "bool",
          "name": "",
          "type": "bool"
        }
      ],
      "stateMutability": "view",
      "type": "function"
    },
    {
      "inputs": [
        {
          "internalType": "address",
          "name": "",
          "type": "address"
        },
        {
          "internalType": "uint256",
          "name": "",
          "type": "uint256"
        }
      ],
      "name": "milestones",
      "outputs": [
        {
          "internalType": "uint256",
          "name": "amountPercentage",
          "type": "uint256"
        },
        {
          "components": [
            {
              "internalType": "uint256",
              "name": "protocol",
              "type": "uint256"
            },
            {
              "internalType": "string",
              "name": "pointer",
              "type": "string"
            }
          ],
          "internalType": "struct Metadata",
          "name": "metadata",
          "type": "tuple"
        },
        {
          "internalType": "enum IStrategy.Status",
          "name": "milestoneStatus",
          "type": "uint8"
        },
        {
          "internalType": "string",
          "name": "description",
          "type": "string"
        }
      ],
      "stateMutability": "view",
      "type": "function"
    },
    {
      "inputs": [
        {
          "internalType": "address",
          "name": "_recipientId",
          "type": "address"
        },
        {
          "components": [
            {
              "internalType": "uint256",
              "name": "amountPercentage",
              "type": "uint256"
            },
            {
              "components": [
                {
                  "internalType": "uint256",
                  "name": "protocol",
                  "type": "uint256"
                },
                {
                  "internalType": "string",
                  "name": "pointer",
                  "type": "string"
                }
              ],
              "internalType": "struct Metadata",
              "name": "metadata",
              "type": "tuple"
            },
            {
              "internalType": "enum IStrategy.Status",
              "name": "milestoneStatus",
              "type": "uint8"
            },
            {
              "internalType": "string",
              "name": "description",
              "type": "string"
            }
          ],
          "internalType": "struct ExecutorSupplierVotingStrategy.Milestone[]",
          "name": "_milestones",
          "type": "tuple[]"
        }
      ],
      "name": "offerMilestones",
      "outputs": [],
      "stateMutability": "nonpayable",
      "type": "function"
    },
    {
      "inputs": [
        {
          "internalType": "bytes",
          "name": "_data",
          "type": "bytes"
        },
        {
          "internalType": "address",
          "name": "_sender",
          "type": "address"
        }
      ],
      "name": "registerRecipient",
      "outputs": [
        {
          "internalType": "address",
          "name": "recipientId",
          "type": "address"
        }
      ],
      "stateMutability": "payable",
      "type": "function"
    },
    {
      "inputs": [
        {
          "internalType": "enum IStrategy.Status",
          "name": "_status",
          "type": "uint8"
        }
      ],
      "name": "rejetProject",
      "outputs": [],
      "stateMutability": "nonpayable",
      "type": "function"
    },
    {
      "inputs": [
        {
          "internalType": "address",
          "name": "_recipientId",
          "type": "address"
        },
        {
          "internalType": "enum IStrategy.Status",
          "name": "_status",
          "type": "uint8"
        }
      ],
      "name": "reviewOfferedtMilestones",
      "outputs": [],
      "stateMutability": "nonpayable",
      "type": "function"
    },
    {
      "inputs": [
        {
          "internalType": "address",
          "name": "_recipientId",
          "type": "address"
        },
        {
          "internalType": "uint256",
          "name": "_milestoneId",
          "type": "uint256"
        },
        {
          "internalType": "enum IStrategy.Status",
          "name": "_status",
          "type": "uint8"
        }
      ],
      "name": "reviewSubmitedMilestone",
      "outputs": [],
      "stateMutability": "nonpayable",
      "type": "function"
    },
    {
      "inputs": [
        {
          "internalType": "uint256",
          "name": "_newPercentage",
          "type": "uint256"
        },
        {
          "internalType": "bytes32",
          "name": "_profileId",
          "type": "bytes32"
        }
      ],
      "name": "setThresholdPercentage",
      "outputs": [],
      "stateMutability": "nonpayable",
      "type": "function"
    },
    {
      "inputs": [
        {
          "internalType": "address",
          "name": "_recipientId",
          "type": "address"
        },
        {
          "internalType": "uint256",
          "name": "_milestoneId",
          "type": "uint256"
        },
        {
          "components": [
            {
              "internalType": "uint256",
              "name": "protocol",
              "type": "uint256"
            },
            {
              "internalType": "string",
              "name": "pointer",
              "type": "string"
            }
          ],
          "internalType": "struct Metadata",
          "name": "_metadata",
          "type": "tuple"
        }
      ],
      "name": "submitMilestone",
      "outputs": [],
      "stateMutability": "nonpayable",
      "type": "function"
    },
    {
      "inputs": [
        {
          "internalType": "uint256",
          "name": "",
          "type": "uint256"
        }
      ],
      "name": "submittedvMilestones",
      "outputs": [
        {
          "internalType": "uint256",
          "name": "votesFor",
          "type": "uint256"
        },
        {
          "internalType": "uint256",
          "name": "votesAgainst",
          "type": "uint256"
        }
      ],
      "stateMutability": "view",
      "type": "function"
    },
    {
      "inputs": [],
      "name": "supplierHat",
      "outputs": [
        {
          "internalType": "uint256",
          "name": "",
          "type": "uint256"
        }
      ],
      "stateMutability": "view",
      "type": "function"
    },
    {
      "inputs": [],
      "name": "thresholdPercentage",
      "outputs": [
        {
          "internalType": "uint256",
          "name": "",
          "type": "uint256"
        }
      ],
      "stateMutability": "view",
      "type": "function"
    },
    {
      "inputs": [],
      "name": "totalSupply",
      "outputs": [
        {
          "internalType": "uint256",
          "name": "",
          "type": "uint256"
        }
      ],
      "stateMutability": "view",
      "type": "function"
    },
    {
      "inputs": [
        {
          "internalType": "address",
          "name": "",
          "type": "address"
        }
      ],
      "name": "upcomingMilestone",
      "outputs": [
        {
          "internalType": "uint256",
          "name": "",
          "type": "uint256"
        }
      ],
      "stateMutability": "view",
      "type": "function"
    },
    {
      "stateMutability": "payable",
      "type": "receive"
    }
  ],
  "bytecode": "0x60c06040523480156200001157600080fd5b50604051620050b5380380620050b58339810160408190526200003491620000bf565b6001600160a01b03821660805260405182908290620000589082906020016200019a565b60408051601f19818403018152919052805160209091012060a0525050600160035550620001cf9050565b634e487b7160e01b600052604160045260246000fd5b60005b83811015620000b65781810151838201526020016200009c565b50506000910152565b60008060408385031215620000d357600080fd5b82516001600160a01b0381168114620000eb57600080fd5b60208401519092506001600160401b03808211156200010957600080fd5b818501915085601f8301126200011e57600080fd5b81518181111562000133576200013362000083565b604051601f8201601f19908116603f011681019083821181831017156200015e576200015e62000083565b816040528281528860208487010111156200017857600080fd5b6200018b83602083016020880162000099565b80955050505050509250929050565b6020815260008251806020840152620001bb81604085016020870162000099565b601f01601f19169190910160400192915050565b60805160a051614e816200023460003960006104610152600081816102870152818161162d015281816122f60152818161266d01528181612a4101528181612ce701528181612e55015281816131660152818161332801526137620152614e816000f3fe60806040526004361061024a5760003560e01c806378f0184d11610139578063df868ed3116100b6578063eb11af931161007a578063eb11af9314610793578063edd146cc146107c0578063ee120300146107e0578063ef2920fc14610810578063f5b0dfb714610823578063f83067e71461084357600080fd5b8063df868ed3146106e9578063e1c2cf6514610701578063e2372b5814610717578063e477b6bd14610744578063e8eeb8061461077d57600080fd5b8063b3eae7ab116100fd578063b3eae7ab14610613578063c1aaf44a14610633578063c7a892bf14610660578063c9701fd414610690578063cb2415fb146106b057600080fd5b806378f0184d146105695780639ffaa87514610589578063a0cf0aea146105a9578063a9655210146105d1578063b2b878d0146105e657600080fd5b806338fff2d0116101c75780634d31d0871161018b5780634d31d0871461049a5780634ed2859e146104ca5780635b10b597146104e0578063605e1c66146104f557806362812a391461053c57600080fd5b806338fff2d0146103d45780633bf3577d146103e9578063404e73e21461040957806342fda9c7146104525780634ab4ba421461048557600080fd5b80632a835b4b1161020e5780632a835b4b146103355780632bbe0cae146103555780632ff0e6c41461036857806336592c0e1461039e57806336c466d3146103be57600080fd5b80630a6f0ee91461025657806315cc481e1461027857806318160ddd146102c4578063197ea814146102e857806322a4e42d1461030857600080fd5b3661025157005b600080fd5b34801561026257600080fd5b50610276610271366004613d9f565b610863565b005b34801561028457600080fd5b507f00000000000000000000000000000000000000000000000000000000000000005b6040516001600160a01b0390911681526020015b60405180910390f35b3480156102d057600080fd5b506102da60065481565b6040519081526020016102bb565b3480156102f457600080fd5b506102da610303366004613e16565b610883565b34801561031457600080fd5b50610328610323366004613e4f565b6108b4565b6040516102bb9190613f1a565b34801561034157600080fd5b50610276610350366004613fbf565b610aa8565b6102a7610363366004613fe1565b610ba7565b34801561037457600080fd5b506102da610383366004613e4f565b6001600160a01b031660009081526013602052604090205490565b3480156103aa57600080fd5b506103286103b9366004613e4f565b610bca565b3480156103ca57600080fd5b506102da60055481565b3480156103e057600080fd5b506001546102da565b3480156103f557600080fd5b50610276610404366004614027565b610db3565b34801561041557600080fd5b5061043d61042436600461407b565b6014602052600090815260409020805460019091015482565b604080519283526020830191909152016102bb565b34801561045e57600080fd5b507f00000000000000000000000000000000000000000000000000000000000000006102da565b34801561049157600080fd5b506002546102da565b3480156104a657600080fd5b506104ba6104b5366004613e4f565b611074565b60405190151581526020016102bb565b3480156104d657600080fd5b506102da60075481565b3480156104ec57600080fd5b50600f546102da565b34801561050157600080fd5b506102da610510366004614094565b60008281526014602090815260408083206001600160a01b038516845260020190915290205492915050565b34801561054857600080fd5b5061055c610557366004613e4f565b61107f565b6040516102bb91906140b9565b34801561057557600080fd5b50610276610584366004614149565b611090565b34801561059557600080fd5b506102766105a43660046142d4565b61128c565b3480156105b557600080fd5b506102a773eeeeeeeeeeeeeeeeeeeeeeeeeeeeeeeeeeeeeeee81565b3480156105dd57600080fd5b506010546102da565b3480156105f257600080fd5b5061060661060136600461430b565b611862565b6040516102bb91906143df565b34801561061f57600080fd5b5061027661062e366004614437565b611960565b34801561063f57600080fd5b506102da61064e36600461407b565b60009081526014602052604090205490565b34801561066c57600080fd5b5061068061067b366004614465565b611e5d565b6040516102bb9493929190614491565b34801561069c57600080fd5b506102766106ab3660046144d4565b611fdf565b3480156106bc57600080fd5b506102da6106cb366004613e4f565b6001600160a01b03166000908152600e602052604090206002015490565b3480156106f557600080fd5b5060005460ff166104ba565b34801561070d57600080fd5b506102da60045481565b34801561072357600080fd5b506102da610732366004613e4f565b60136020526000908152604090205481565b34801561075057600080fd5b506102da61075f366004613e4f565b6001600160a01b03166000908152600e602052604090206001015490565b34801561078957600080fd5b506102da60095481565b34801561079f57600080fd5b506107b36107ae366004613e4f565b6121f0565b6040516102bb91906144f1565b3480156107cc57600080fd5b506102766107db3660046144ff565b6121fb565b3480156107ec57600080fd5b506102da6107fb36600461407b565b60009081526014602052604090206001015490565b61027661081e366004613fe1565b61225b565b34801561082f57600080fd5b5061027661083e36600461407b565b612279565b34801561084f57600080fd5b506107b361085e366004614465565b6122a3565b61086b6122eb565b610873612336565b61087e838383612359565b505050565b6001600160a01b038083166000908152600e6020908152604080832093851683526003909301905220545b92915050565b6001600160a01b0381166000908152601260209081526040808320805482518185028101850190935280835260609492939192909184015b82821015610a9d578382906000526020600020906005020160405180608001604052908160008201548152602001600182016040518060400160405290816000820154815260200160018201805461094390614545565b80601f016020809104026020016040519081016040528092919081815260200182805461096f90614545565b80156109bc5780601f10610991576101008083540402835291602001916109bc565b820191906000526020600020905b81548152906001019060200180831161099f57829003601f168201915b505050919092525050508152600382015460209091019060ff1660068111156109e7576109e7613ee2565b60068111156109f8576109f8613ee2565b8152602001600482018054610a0c90614545565b80601f0160208091040260200160405190810160405280929190818152602001828054610a3890614545565b8015610a855780601f10610a5a57610100808354040283529160200191610a85565b820191906000526020600020905b815481529060010190602001808311610a6857829003601f168201915b505050505081525050815260200190600101906108ec565b505050509050919050565b600854604051630e6e1ae360e21b8152600481018390523360248201526001600160a01b03909116906339b86b8c90604401602060405180830381865afa158015610af7573d6000803e3d6000fd5b505050506040513d601f19601f82011682018060405250810190610b1b919061457f565b610b5b5760405162461bcd60e51b815260206004820152600c60248201526b15539055551213d49256915160a21b60448201526064015b60405180910390fd5b6064821115610ba15760405162461bcd60e51b8152602060048201526012602482015271496e76616c69642070657263656e7461676560701b6044820152606401610b52565b50600755565b6000610bb16122eb565b610bb9612336565b610bc383836123f0565b90506108ae565b6001600160a01b0381166000908152600e60209081526040808320805482518185028101850190935280835260609492939192909184015b82821015610a9d5783829060005260206000209060050201604051806080016040529081600082015481526020016001820160405180604001604052908160008201548152602001600182018054610c5990614545565b80601f0160208091040260200160405190810160405280929190818152602001828054610c8590614545565b8015610cd25780601f10610ca757610100808354040283529160200191610cd2565b820191906000526020600020905b815481529060010190602001808311610cb557829003601f168201915b505050919092525050508152600382015460209091019060ff166006811115610cfd57610cfd613ee2565b6006811115610d0e57610d0e613ee2565b8152602001600482018054610d2290614545565b80601f0160208091040260200160405190810160405280929190818152602001828054610d4e90614545565b8015610d9b5780601f10610d7057610100808354040283529160200191610d9b565b820191906000526020600020905b815481529060010190602001808311610d7e57829003601f168201915b50505050508152505081526020019060010190610c02565b6001600160a01b0383163314610ddc5760405163075fd2b160e01b815260040160405180910390fd5b6001600160a01b038084166000908152600c60209081526040808320815160c081018352815460ff8116151582526101009004909516858401526001810154858301528151808301909252600281018054835260038201805495969592946060870194939084019190610e4e90614545565b80601f0160208091040260200160405190810160405280929190818152602001828054610e7a90614545565b8015610ec75780601f10610e9c57610100808354040283529160200191610ec7565b820191906000526020600020905b815481529060010190602001808311610eaa57829003601f168201915b505050919092525050508152600482015460209091019060ff166006811115610ef257610ef2613ee2565b6006811115610f0357610f03613ee2565b81526020016004820160019054906101000a900460ff166006811115610f2b57610f2b613ee2565b6006811115610f3c57610f3c613ee2565b9052509050600281608001516006811115610f5957610f59613ee2565b14610f775760405163392c16fb60e21b815260040160405180910390fd5b6001600160a01b03841660009081526012602052604090208054841115610fb157604051632f1f68e160e11b815260040160405180910390fd5b6000818581548110610fc557610fc56145a1565b6000918252602090912060059091020190506002600382015460ff166006811115610ff257610ff2613ee2565b0361101057604051637f46ed2760e11b815260040160405180910390fd5b836001820161101f8282614605565b505060038101805460ff191660011790556040517f8673cfb5a2cbad812463bdfd7c85511f29c804579a86d318889ab9251553996190611064908890889088906146fd565b60405180910390a1505050505050565b60006108ae82612650565b611087613a9a565b6108ae826126f5565b6000336001600160a01b03841614806110ae57506110ae8333612865565b9050806110ce5760405163075fd2b160e01b815260040160405180910390fd5b6001600160a01b0383166000908152600c602052604090206002600482015460ff16600681111561110157611101613ee2565b1461111f5760405163392c16fb60e21b815260040160405180910390fd5b60026004820154610100900460ff16600681111561113f5761113f613ee2565b0361115d576040516305ca31d360e51b815260040160405180910390fd5b6111668461295d565b60005b8351811015611240576001600160a01b0385166000908152600e60205260409020845185908390811061119e5761119e6145a1565b602090810291909101810151825460018181018555600094855293839020825160059092020190815581830151805194820194855592830151919390929160028401906111eb9082614796565b505050604082015160038201805460ff1916600183600681111561121157611211613ee2565b02179055506060820151600482019061122a9082614796565b50505080806112389061486b565b915050611169565b508251604080516001600160a01b038716815260208101929092527f8a5603111f154f43104afe04452c6a93024a972cb6a0af72e6f38bcce68625d5910160405180910390a150505050565b3361129681612a17565b6000838152601460209081526040808320338452600201909152902054156112d15760405163448bae6f60e01b815260040160405180910390fd5b6001600160a01b038085166000908152600c60209081526040808320815160c081018352815460ff811615158252610100900490951685840152600181015485830152815180830190925260028101805483526003820180549596959294606087019493908401919061134390614545565b80601f016020809104026020016040519081016040528092919081815260200182805461136f90614545565b80156113bc5780601f10611391576101008083540402835291602001916113bc565b820191906000526020600020905b81548152906001019060200180831161139f57829003601f168201915b505050919092525050508152600482015460209091019060ff1660068111156113e7576113e7613ee2565b60068111156113f8576113f8613ee2565b81526020016004820160019054906101000a900460ff16600681111561142057611420613ee2565b600681111561143157611431613ee2565b905250905060028160800151600681111561144e5761144e613ee2565b1461146c5760405163392c16fb60e21b815260040160405180910390fd5b6001600160a01b038516600090815260126020526040902080548511156114a657604051632f1f68e160e11b815260040160405180910390fd5b60008186815481106114ba576114ba6145a1565b6000918252602090912060059091020190506001600382015460ff1660068111156114e7576114e7613ee2565b1461150557604051635b2fe71d60e11b815260040160405180910390fd5b336000908152600d602052604081205460075460065491929160649161152a91614884565b611534919061489b565b6000898152601460209081526040808320338452600290810190925290912084905590915087600681111561156b5761156b613ee2565b036116d8576000888152601460205260408120805484929061158e9084906148bd565b90915550506000888152601460205260409020548110156116d35760038301805488919060ff191660018360068111156115ca576115ca613ee2565b0217905550604080516001808252818301909252600091602080830190803683370190505090508981600081518110611605576116056145a1565b6001600160a01b039283166020918202929092010152600154604051631d2fdec960e11b81527f000000000000000000000000000000000000000000000000000000000000000090921691633a5fbd92916116649185906004016148d0565b600060405180830381600087803b15801561167e57600080fd5b505af1158015611692573d6000803e3d6000fd5b505050507ff1af82b65c631a030029b10ea8f00f68290285c7c797644155b8f23969ca1d638a8a8a6040516116c993929190614937565b60405180910390a1505b61181c565b60038760068111156116ec576116ec613ee2565b0361181c57600088815260146020526040812060010180548492906117129084906148bd565b909155505060008881526014602052604090206001015481101561181c5760038301805488919060ff1916600183600681111561175157611751613ee2565b021790555060005b600b548110156117c7576000601460008b81526020019081526020016000206002016000600b8481548110611790576117906145a1565b60009182526020808320909101546001600160a01b03168352820192909252604001902055806117bf8161486b565b915050611759565b5060008881526014602052604080822082815560010191909155517ff1af82b65c631a030029b10ea8f00f68290285c7c797644155b8f23969ca1d6390611813908b908b908b90614937565b60405180910390a15b7f4460beb477b3843656610a89bd67c551d2a78131b5a955ddccd5eb9aa218c8c389898960405161184f93929190614937565b60405180910390a1505050505050505050565b8151815160609190811461188957604051633da4c02b60e11b815260040160405180910390fd5b6000816001600160401b038111156118a3576118a3613ba7565b6040519080825280602002602001820160405280156118e857816020015b60408051808201909152600080825260208201528152602001906001900390816118c15790505b50905060005b828110156119575761193286828151811061190b5761190b6145a1565b6020026020010151868381518110611925576119256145a1565b6020026020010151612ac9565b828281518110611944576119446145a1565b60209081029190910101526001016118ee565b50949350505050565b3361196a81612a17565b6001600160a01b0383166000908152600e60209081526040808320338452600301909152902054156119af5760405163448bae6f60e01b815260040160405180910390fd5b6001600160a01b0383166000908152600c6020526040902060026004820154610100900460ff1660068111156119e7576119e7613ee2565b03611a05576040516305ca31d360e51b815260040160405180910390fd5b336000908152600d6020526040812054600754600654919291606491611a2a91614884565b611a34919061489b565b6001600160a01b0387166000908152600e60209081526040808320338452600301909152902083905590506002856006811115611a7357611a73613ee2565b03611d3b576001600160a01b0386166000908152600e602052604081206001018054849290611aa39084906148bd565b90915550506001600160a01b0386166000908152600e6020526040902060010154811015611d36576001600160a01b0386166000908152600c60205260409020600401805486919061ff001916610100836006811115611b0557611b05613ee2565b02179055506001600160a01b0386166000908152600e602090815260408083208054825181850281018501909352808352611cf9948b9484015b82821015611cf05783829060005260206000209060050201604051806080016040529081600082015481526020016001820160405180604001604052908160008201548152602001600182018054611b9690614545565b80601f0160208091040260200160405190810160405280929190818152602001828054611bc290614545565b8015611c0f5780601f10611be457610100808354040283529160200191611c0f565b820191906000526020600020905b815481529060010190602001808311611bf257829003601f168201915b505050919092525050508152600382015460209091019060ff166006811115611c3a57611c3a613ee2565b6006811115611c4b57611c4b613ee2565b8152602001600482018054611c5f90614545565b80601f0160208091040260200160405190810160405280929190818152602001828054611c8b90614545565b8015611cd85780601f10611cad57610100808354040283529160200191611cd8565b820191906000526020600020905b815481529060010190602001808311611cbb57829003601f168201915b50505050508152505081526020019060010190611b3f565b50505050612b14565b6040516001600160a01b03871681527f7b05d1f85b1ac2e76c0d8dbb0dfa809df6788f66bbeeb837b2b5fae4f64c00639060200160405180910390a15b611e2c565b6003856006811115611d4f57611d4f613ee2565b03611e2c576001600160a01b0386166000908152600e602052604081206002018054849290611d7f9084906148bd565b90915550506001600160a01b0386166000908152600e6020526040902060020154811015611e2c576001600160a01b0386166000908152600c60205260409020600401805486919061ff001916610100836006811115611de157611de1613ee2565b0217905550611def8661295d565b6040516001600160a01b03871681527f5a90817477dd8f83cfe5d429e1dc84ad5a25cb72b83291c707c6f8f5c4f2ac849060200160405180910390a15b7f30dae55c386c6176f3f7b7ee6ad4df33970f2e442cb0142e978cf78fd8ae138d868660405161106492919061495b565b60126020528160005260406000208181548110611e7957600080fd5b9060005260206000209060050201600091509150508060000154908060010160405180604001604052908160008201548152602001600182018054611ebd90614545565b80601f0160208091040260200160405190810160405280929190818152602001828054611ee990614545565b8015611f365780601f10611f0b57610100808354040283529160200191611f36565b820191906000526020600020905b815481529060010190602001808311611f1957829003601f168201915b505050919092525050506003820154600483018054929360ff90921692611f5c90614545565b80601f0160208091040260200160405190810160405280929190818152602001828054611f8890614545565b8015611fd55780601f10611faa57610100808354040283529160200191611fd5565b820191906000526020600020905b815481529060010190602001808311611fb857829003601f168201915b5050505050905084565b33611fe981612a17565b6002826006811115611ffd57611ffd613ee2565b1415801561201d5750600382600681111561201a5761201a613ee2565b14155b1561203b5760405163343b80b160e01b815260040160405180910390fd5b33600090815260116020526040902054156120695760405163448bae6f60e01b815260040160405180910390fd5b336000908152600d602052604081205460075460065491929160649161208e91614884565b612098919061489b565b905060028460068111156120ae576120ae613ee2565b036121185781600f60000160008282546120c891906148bd565b9091555050600f54811015612113576120e16000612d98565b6120e9612ddf565b6040517fd32d40de3c1ce9d2fa081d8cd5a6b778eaea7095966658ace12863ce23d09a6090600090a15b6121ea565b600384600681111561212c5761212c613ee2565b036121ea5781600f600101600082825461214691906148bd565b90915550506010548110156121ea5760005b600b548110156121b5576000600f6002016000600b848154811061217e5761217e6145a1565b60009182526020808320909101546001600160a01b03168352820192909252604001902055806121ad8161486b565b915050612158565b506000600f81905560108190556040517f7a5d554e29a9295668ae87eb63589a5dd4d751e9c16b4a8173c28b9f0bc4a1d09190a15b50505050565b60006108ae82612fad565b6000818060200190518101906122119190614983565b905061221d8382612fc2565b7f91efa3d50feccde0d0d202f8ae5c41ca0b2be614cebcb2bd2f4b019396e6568a838360405161224e929190614a87565b60405180910390a1505050565b6122636122eb565b61226b612336565b6122758282613210565b5050565b6122816122eb565b806002600082825461229391906148bd565b909155506122a090508181565b50565b6001600160a01b03821660009081526012602052604081208054839081106122cd576122cd6145a1565b600091825260209091206005909102016003015460ff169392505050565b336001600160a01b037f000000000000000000000000000000000000000000000000000000000000000016146123345760405163075fd2b160e01b815260040160405180910390fd5b565b60015460000361233457604051630f68fe6360e21b815260040160405180910390fd5b6001600160a01b03811630146123b15760405162461bcd60e51b815260206004820152601760248201527f554e415554484f52495a454420646973747269627574650000000000000000006044820152606401610b52565b825160005b818110156123e9576123e18582815181106123d3576123d36145a1565b60200260200101518461353a565b6001016123b6565b5050505050565b60006123fa6138aa565b60008060008061241d604051806040016040528060008152602001606081525090565b878060200190518101906124319190614b36565b9297509095506001600160a01b0386161515945092509050826124545784612456565b835b955082801561246c575061246a8688612865565b155b1561248a5760405163075fd2b160e01b815260040160405180910390fd5b60026001600160a01b0387166000908152600c602052604090206004015460ff1660068111156124bc576124bc613ee2565b036124da5760405163083a81f760e31b815260040160405180910390fd5b60006040518060c001604052808515158152602001876001600160a01b031681526020018481526020018381526020016002600681111561251d5761251d613ee2565b8152602001600190526001600160a01b038881166000908152600c602090815260409182902084518154868401516001600160a81b0319909116911515610100600160a81b031916919091176101009190951602939093178355908301516001830155606083015180516002840190815591810151939450849390919060038401906125a99082614796565b505050608082015160048201805460ff191660018360068111156125cf576125cf613ee2565b021790555060a082015160048201805461ff0019166101008360068111156125f9576125f9613ee2565b0217905550905050866001600160a01b03167fa197306e3dd5494a61a695381aa809a53b8e377a685e84e404a85d5a8da6cc628a8a60405161263c929190614ba3565b60405180910390a250505050505092915050565b6001546040516329e40d4b60e01b81526000916001600160a01b037f000000000000000000000000000000000000000000000000000000000000000016916329e40d4b916126b49186906004019182526001600160a01b0316602082015260400190565b602060405180830381865afa1580156126d1573d6000803e3d6000fd5b505050506040513d601f19601f820116820180604052508101906108ae919061457f565b6126fd613a9a565b6001600160a01b038083166000908152600c6020908152604091829020825160c081018452815460ff81161515825261010090049094168483015260018101548484015282518084019093526002810180548452600382018054929460608701949093908401919061276e90614545565b80601f016020809104026020016040519081016040528092919081815260200182805461279a90614545565b80156127e75780601f106127bc576101008083540402835291602001916127e7565b820191906000526020600020905b8154815290600101906020018083116127ca57829003601f168201915b505050919092525050508152600482015460209091019060ff16600681111561281257612812613ee2565b600681111561282357612823613ee2565b81526020016004820160019054906101000a900460ff16600681111561284b5761284b613ee2565b600681111561285c5761285c613ee2565b90525092915050565b60085460405163dd93da4360e01b81526001600160a01b038481166004830152600092839291169063dd93da4390602401600060405180830381865afa1580156128b3573d6000803e3d6000fd5b505050506040513d6000823e601f3d908101601f191682016040526128db9190810190614bcd565b6008548151604051635e8a791560e01b815260048101919091526001600160a01b038681166024830152929350911690635e8a791590604401602060405180830381865afa158015612931573d6000803e3d6000fd5b505050506040513d601f19601f82011682018060405250810190612955919061457f565b949350505050565b60005b600b548110156129e0576000600e6000846001600160a01b03166001600160a01b031681526020019081526020016000206003016000600b84815481106129a9576129a96145a1565b60009182526020808320909101546001600160a01b03168352820192909252604001902055806129d88161486b565b915050612960565b506001600160a01b0381166000908152600e6020526040812090612a048282613af5565b5060006001820181905560029091015550565b6001546040516329e40d4b60e01b815260048101919091526001600160a01b0382811660248301527f000000000000000000000000000000000000000000000000000000000000000016906329e40d4b90604401602060405180830381865afa158015612a88573d6000803e3d6000fd5b505050506040513d601f19601f82011682018060405250810190612aac919061457f565b6122a05760405163075fd2b160e01b815260040160405180910390fd5b60408051808201909152600080825260208201526000612ae8846126f5565b6040805180820182526020808401516001600160a01b0316825291909201519082015291505092915050565b6001600160a01b03821660009081526012602052604081205415612b53576001600160a01b0383166000908152601260205260408120612b5391613af5565b815160005b81811015612c79576000848281518110612b7457612b746145a1565b6020026020010151905060006006811115612b9157612b91613ee2565b81604001516006811115612ba757612ba7613ee2565b14612bc557604051635b2fe71d60e11b815260040160405180910390fd5b8051612bd190856148bd565b6001600160a01b038716600090815260126020908152604082208054600181810183559184529282902085516005909402019283558482015180519184019182559182015193975084936002840190612c2a9082614796565b505050604082015160038201805460ff19166001836006811115612c5057612c50613ee2565b021790555060608201516004820190612c699082614796565b505060019092019150612b589050565b5081670de0b6b3a764000014612ca2576040516397a1f28d60e01b815260040160405180910390fd5b6000846002600654604051602001612cbc93929190614c93565b60408051601f19818403018152908290526001546305d8703160e31b83529092506001600160a01b037f00000000000000000000000000000000000000000000000000000000000000001691632ec3818891612d1c918590600401614a87565b600060405180830381600087803b158015612d3657600080fd5b505af1158015612d4a573d6000803e3d6000fd5b5050604080516001600160a01b0389168152602081018690527fb000fb1507aac2465ccb4f6bd1b601c7053279005e9e9932c41946b35c84949b935001905060405180910390a15050505050565b6000805460ff19168215159081179091556040519081527fd94c9bc4d43c51d8dc345a016d8e3d994432fac68e72832e4cf3a616bd8efae09060200160405180910390a150565b60005b600b548110156122a0576000600d6000600b8481548110612e0557612e056145a1565b60009182526020808320909101546001600160a01b03168352820192909252604001812054600254909250670de0b6b3a764000090612e45908490614884565b612e4f919061489b565b905060007f00000000000000000000000000000000000000000000000000000000000000006001600160a01b031663068bcd8d6001546040518263ffffffff1660e01b8152600401612ea391815260200190565b600060405180830381865afa158015612ec0573d6000803e3d6000fd5b505050506040513d6000823e601f3d908101601f19168201604052612ee89190810190614cbe565b9050612f616040518060400160405280601081526020016f1e9e9e9e9e9e9f1029b2b73234b7339d60811b815250836040518060400160405280600481526020016316aa379d60e11b815250600b8881548110612f4757612f476145a1565b6000918252602090912001546001600160a01b03166138cd565b612f978160400151600b8681548110612f7c57612f7c6145a1565b6000918252602090912001546001600160a01b031684613916565b5050508080612fa59061486b565b915050612de2565b6000612fb8826126f5565b6080015192915050565b612fcb82613950565b613007604051806040016040528060168152602001751e9e9e9e9f1029bab8383634b2b9102430ba1024a21d60511b815250826000015161399f565b613043604051806040016040528060168152602001751e9e9e9e9f1022bc32b1baba37b9102430ba1024a21d60511b815250826020015161399f565b805160045560208101516005556046600755604081015160005b815181101561316357600b82828151811061307a5761307a6145a1565b6020908102919091018101515182546001810184556000938452919092200180546001600160a01b0319166001600160a01b0390921691909117905581518290829081106130ca576130ca6145a1565b602002602001015160200151600d60008484815181106130ec576130ec6145a1565b6020026020010151600001516001600160a01b03166001600160a01b031681526020019081526020016000208190555081818151811061312e5761312e6145a1565b6020026020010151602001516006600082825461314b91906148bd565b9091555081905061315b8161486b565b91505061305d565b507f00000000000000000000000000000000000000000000000000000000000000006001600160a01b0316635ab1bd536040518163ffffffff1660e01b8152600401602060405180830381865afa1580156131c2573d6000803e3d6000fd5b505050506040513d601f19601f820116820180604052508101906131e69190614d71565b600880546001600160a01b0319166001600160a01b039290921691909117905561087e6001612d98565b6132186139e4565b6001600160a01b03811630146132685760405162461bcd60e51b8152602060048201526015602482015274554e415554484f52495a454420616c6c6f6361746560581b6044820152606401610b52565b6000806000848060200190518101906132819190614d8e565b6001600160a01b0383166000908152600c60209081526040808320601390925290912054939650919450925090156132cc576040516305ca31d360e51b815260040160405180910390fd5b6002600482015460ff1660068111156132e7576132e7613ee2565b141580156133065750600283600681111561330457613304613ee2565b145b156134a15760015460405163068bcd8d60e01b81526000916001600160a01b037f0000000000000000000000000000000000000000000000000000000000000000169163068bcd8d9161335f9160040190815260200190565b600060405180830381865afa15801561337c573d6000803e3d6000fd5b505050506040513d6000823e601f3d908101601f191682016040526133a49190810190614cbe565b905082600960008282546133b891906148bd565b909155505060025460095411156133e257604051638e81b16f60e01b815260040160405180910390fd5b6001820183905560048201805460ff191660029081179091556040517f94593b52aa436dd31a63e313045c2eb23d43eb2d6f5b4d7797b4432e7b2774909161342c9188919061495b565b60405180910390a1846001600160a01b03167f463ffc2cf8b1596445c417388ed30e53eb67cf6668cb2be7f0addf8a78c8441b8360010154836040015189604051613493939291909283526001600160a01b03918216602084015216604082015260600190565b60405180910390a25061352c565b6003600482015460ff1660068111156134bc576134bc613ee2565b141580156134db575060038360068111156134d9576134d9613ee2565b145b1561352c5760048101805460ff191660039081179091556040517f94593b52aa436dd31a63e313045c2eb23d43eb2d6f5b4d7797b4432e7b277490916135239187919061495b565b60405180910390a15b505050506122756001600355565b6001600160a01b0380831660009081526013602090815260408083205460128352818420600c8452828520835160c081018552815460ff811615158252610100900490971687860152600181015487850152835180850190945260028101805485526003820180549498939796939592946060870194840191906135bd90614545565b80601f01602080910402602001604051908101604052809291908181526020018280546135e990614545565b80156136365780601f1061360b57610100808354040283529160200191613636565b820191906000526020600020905b81548152906001019060200180831161361957829003601f168201915b505050919092525050508152600482015460209091019060ff16600681111561366157613661613ee2565b600681111561367257613672613ee2565b81526020016004820160019054906101000a900460ff16600681111561369a5761369a613ee2565b60068111156136ab576136ab613ee2565b81525050905060008284815481106136c5576136c56145a1565b9060005260206000209060050201905082805490508411156136fa57604051632f1f68e160e11b815260040160405180910390fd5b6002600382015460ff16600681111561371557613715613ee2565b1461373357604051635b2fe71d60e11b815260040160405180910390fd5b6000670de0b6b3a7640000826000015484604001516137529190614884565b61375c919061489b565b905060007f00000000000000000000000000000000000000000000000000000000000000006001600160a01b031663068bcd8d6001546040518263ffffffff1660e01b81526004016137b091815260200190565b600060405180830381865afa1580156137cd573d6000803e3d6000fd5b505050506040513d6000823e601f3d908101601f191682016040526137f59190810190614cbe565b905081600260008282546138099190614dd1565b925050819055506138238160400151856020015184613916565b6001600160a01b03881660009081526013602052604081208054916138478361486b565b9091555050602080850151604080516001600160a01b039283168152928301859052898216908301528916907fb5b51454adfa840bd593658325a60a50b0216f12eb5d2937efe6cea935675b7d9060600160405180910390a25050505050505050565b60005460ff166123345760405163cfe7975b60e01b815260040160405180910390fd5b6121ea848484846040516024016138e79493929190614de4565b60408051601f198184030181529190526020810180516001600160e01b0316631f118ca960e21b179052613a0e565b73eeeeeeeeeeeeeeeeeeeeeeeeeeeeeeeeeeeeeeed196001600160a01b038416016139455761087e8282613a17565b61087e838383613a33565b6139586122eb565b600154156139795760405163439a74c960e01b815260040160405180910390fd5b8060000361399a57604051637fcce2a960e01b815260040160405180910390fd5b600155565b61227582826040516024016139b5929190614e29565b60408051601f198184030181529190526020810180516001600160e01b0316632d839cb360e21b179052613a0e565b600260035403613a0757604051633ee5aeb560e01b815260040160405180910390fd5b6002600355565b6122a081613a79565b60003860003884865af16122755763b12d13eb6000526004601cfd5b816014528060345263a9059cbb60601b60005260206000604460106000875af13d156001600051141716613a6f576390b8ec186000526004601cfd5b6000603452505050565b60006a636f6e736f6c652e6c6f679050600080835160208501845afa505050565b6040518060c0016040528060001515815260200160006001600160a01b0316815260200160008152602001613ae2604051806040016040528060008152602001606081525090565b8152602001600081526020016000905290565b50805460008255600502906000526020600020908101906122a091905b80821115613b595760008082556001820181815581613b346002850182613b5d565b505060038201805460ff19169055613b50600483016000613b5d565b50600501613b12565b5090565b508054613b6990614545565b6000825580601f10613b79575050565b601f0160209004906000526020600020908101906122a091905b80821115613b595760008155600101613b93565b634e487b7160e01b600052604160045260246000fd5b604051608081016001600160401b0381118282101715613bdf57613bdf613ba7565b60405290565b604080519081016001600160401b0381118282101715613bdf57613bdf613ba7565b604051606081016001600160401b0381118282101715613bdf57613bdf613ba7565b60405160c081016001600160401b0381118282101715613bdf57613bdf613ba7565b604051601f8201601f191681016001600160401b0381118282101715613c7357613c73613ba7565b604052919050565b60006001600160401b03821115613c9457613c94613ba7565b5060051b60200190565b6001600160a01b03811681146122a057600080fd5b600082601f830112613cc457600080fd5b81356020613cd9613cd483613c7b565b613c4b565b82815260059290921b84018101918181019086841115613cf857600080fd5b8286015b84811015613d1c578035613d0f81613c9e565b8352918301918301613cfc565b509695505050505050565b60006001600160401b03821115613d4057613d40613ba7565b50601f01601f191660200190565b600082601f830112613d5f57600080fd5b8135613d6d613cd482613d27565b818152846020838601011115613d8257600080fd5b816020850160208301376000918101602001919091529392505050565b600080600060608486031215613db457600080fd5b83356001600160401b0380821115613dcb57600080fd5b613dd787838801613cb3565b94506020860135915080821115613ded57600080fd5b50613dfa86828701613d4e565b9250506040840135613e0b81613c9e565b809150509250925092565b60008060408385031215613e2957600080fd5b8235613e3481613c9e565b91506020830135613e4481613c9e565b809150509250929050565b600060208284031215613e6157600080fd5b8135613e6c81613c9e565b9392505050565b60005b83811015613e8e578181015183820152602001613e76565b50506000910152565b60008151808452613eaf816020860160208601613e73565b601f01601f19169290920160200192915050565b8051825260006020820151604060208501526129556040850182613e97565b634e487b7160e01b600052602160045260246000fd5b60078110613f1657634e487b7160e01b600052602160045260246000fd5b9052565b60006020808301818452808551808352604092508286019150828160051b87010184880160005b83811015613fb157603f19898403018552815160808151855288820151818a870152613f6f82870182613ec3565b91505087820151613f8289870182613ef8565b5060608083015192508582038187015250613f9d8183613e97565b968901969450505090860190600101613f41565b509098975050505050505050565b60008060408385031215613fd257600080fd5b50508035926020909101359150565b60008060408385031215613ff457600080fd5b82356001600160401b0381111561400a57600080fd5b61401685828601613d4e565b9250506020830135613e4481613c9e565b60008060006060848603121561403c57600080fd5b833561404781613c9e565b92506020840135915060408401356001600160401b0381111561406957600080fd5b840160408187031215613e0b57600080fd5b60006020828403121561408d57600080fd5b5035919050565b600080604083850312156140a757600080fd5b823591506020830135613e4481613c9e565b6020815281511515602082015260018060a01b036020830151166040820152604082015160608201526000606083015160c060808401526140fd60e0840182613ec3565b9050608084015161411160a0850182613ef8565b5060a084015161412460c0850182613ef8565b509392505050565b600781106122a057600080fd5b80356141448161412c565b919050565b6000806040838503121561415c57600080fd5b6141668335613c9e565b823591506001600160401b03806020850135111561418357600080fd5b6020840135840185601f82011261419957600080fd5b6141a6613cd48235613c7b565b81358082526020808301929160051b8401018810156141c457600080fd5b602083015b6020843560051b8501018110156142c55784813511156141e857600080fd5b80358401601f196080828c038201121561420157600080fd5b614209613bbd565b60208301358152876040840135111561422157600080fd5b60408301358301604083828f0301121561423a57600080fd5b614242613be5565b925060208101358352886040820135111561425c57600080fd5b61426f8d60206040840135840101613d4e565b60208401525081602082015261428760608401614139565b6040820152876080840135111561429d57600080fd5b6142b08c60206080860135860101613d4e565b606082015285525050602092830192016141c9565b50809450505050509250929050565b6000806000606084860312156142e957600080fd5b83356142f481613c9e565b9250602084013591506040840135613e0b8161412c565b6000806040838503121561431e57600080fd5b82356001600160401b038082111561433557600080fd5b61434186838701613cb3565b935060209150818501358181111561435857600080fd5b8501601f8101871361436957600080fd5b8035614377613cd482613c7b565b81815260059190911b8201840190848101908983111561439657600080fd5b8584015b838110156143ce578035868111156143b25760008081fd5b6143c08c8983890101613d4e565b84525091860191860161439a565b508096505050505050509250929050565b602080825282518282018190526000919060409081850190868401855b8281101561442a57815180516001600160a01b031685528601518685015292840192908501906001016143fc565b5091979650505050505050565b6000806040838503121561444a57600080fd5b823561445581613c9e565b91506020830135613e448161412c565b6000806040838503121561447857600080fd5b823561448381613c9e565b946020939093013593505050565b8481526080602082015260006144aa6080830186613ec3565b6144b76040840186613ef8565b82810360608401526144c98185613e97565b979650505050505050565b6000602082840312156144e657600080fd5b8135613e6c8161412c565b602081016108ae8284613ef8565b6000806040838503121561451257600080fd5b8235915060208301356001600160401b0381111561452f57600080fd5b61453b85828601613d4e565b9150509250929050565b600181811c9082168061455957607f821691505b60208210810361457957634e487b7160e01b600052602260045260246000fd5b50919050565b60006020828403121561459157600080fd5b81518015158114613e6c57600080fd5b634e487b7160e01b600052603260045260246000fd5b601f82111561087e57600081815260208120601f850160051c810160208610156145de5750805b601f850160051c820191505b818110156145fd578281556001016145ea565b505050505050565b813581556001808201602080850135601e1986360301811261462657600080fd5b850180356001600160401b0381111561463e57600080fd5b803603838301131561464f57600080fd5b6146638161465d8654614545565b866145b7565b6000601f821160018114614699576000831561468157508382018501355b600019600385901b1c1916600184901b1786556146f2565b600086815260209020601f19841690835b828110156146c9578685018801358255938701939089019087016146aa565b50848210156146e85760001960f88660031b161c198785880101351681555b50508683881b0186555b505050505050505050565b60018060a01b0384168152826020820152606060408201528135606082015260006020830135601e1984360301811261473557600080fd5b83016020810190356001600160401b0381111561475157600080fd5b80360382131561476057600080fd5b604060808501528060a0850152808260c0860137600060c0828601015260c0601f19601f83011685010192505050949350505050565b81516001600160401b038111156147af576147af613ba7565b6147c3816147bd8454614545565b846145b7565b602080601f8311600181146147f857600084156147e05750858301515b600019600386901b1c1916600185901b1785556145fd565b600085815260208120601f198616915b8281101561482757888601518255948401946001909101908401614808565b50858210156148455787850151600019600388901b60f8161c191681555b5050505050600190811b01905550565b634e487b7160e01b600052601160045260246000fd5b60006001820161487d5761487d614855565b5060010190565b80820281158282048414176108ae576108ae614855565b6000826148b857634e487b7160e01b600052601260045260246000fd5b500490565b808201808211156108ae576108ae614855565b6000606082018483526020606081850152818551808452608086019150828701935060005b8181101561491a5784516001600160a01b0316835293830193918301916001016148f5565b505084810360408601526000815281810193505050509392505050565b6001600160a01b038416815260208101839052606081016129556040830184613ef8565b6001600160a01b038316815260408101613e6c6020830184613ef8565b805161414481613c9e565b6000602080838503121561499657600080fd5b82516001600160401b03808211156149ad57600080fd5b90840190606082870312156149c157600080fd5b6149c9613c07565b825181528383015184820152604080840151838111156149e857600080fd5b80850194505087601f8501126149fd57600080fd5b83519250614a0d613cd484613c7b565b83815260069390931b84018501928581019089851115614a2c57600080fd5b948601945b84861015614a755782868b031215614a495760008081fd5b614a51613be5565b8651614a5c81613c9e565b8152868801518882015282529482019490860190614a31565b91830191909152509695505050505050565b8281526040602082015260006129556040830184613e97565b600082601f830112614ab157600080fd5b8151614abf613cd482613d27565b818152846020838601011115614ad457600080fd5b612955826020830160208701613e73565b600060408284031215614af757600080fd5b614aff613be5565b90508151815260208201516001600160401b03811115614b1e57600080fd5b614b2a84828501614aa0565b60208301525092915050565b60008060008060808587031215614b4c57600080fd5b8451614b5781613c9e565b6020860151909450614b6881613c9e565b6040860151606087015191945092506001600160401b03811115614b8b57600080fd5b614b9787828801614ae5565b91505092959194509250565b604081526000614bb66040830185613e97565b905060018060a01b03831660208301529392505050565b600060208284031215614bdf57600080fd5b81516001600160401b0380821115614bf657600080fd5b9083019060c08286031215614c0a57600080fd5b614c12613c29565b8251815260208301516020820152604083015182811115614c3257600080fd5b614c3e87828601614aa0565b604083015250606083015182811115614c5657600080fd5b614c6287828601614ae5565b606083015250614c7460808401614978565b6080820152614c8560a08401614978565b60a082015295945050505050565b6001600160a01b038416815260608101614cb06020830185613ef8565b826040830152949350505050565b600060208284031215614cd057600080fd5b81516001600160401b0380821115614ce757600080fd5b9083019060c08286031215614cfb57600080fd5b614d03613c29565b825181526020830151614d1581613c9e565b60208201526040830151614d2881613c9e565b6040820152606083015182811115614d3f57600080fd5b614d4b87828601614ae5565b6060830152506080830151608082015260a083015160a082015280935050505092915050565b600060208284031215614d8357600080fd5b8151613e6c81613c9e565b600080600060608486031215614da357600080fd5b8351614dae81613c9e565b6020850151909350614dbf8161412c565b80925050604084015190509250925092565b818103818111156108ae576108ae614855565b608081526000614df76080830187613e97565b8560208401528281036040840152614e0f8186613e97565b91505060018060a01b038316606083015295945050505050565b604081526000614e3c6040830185613e97565b9050826020830152939250505056fea2646970667358221220b327ebb88d33419ce04b43f13ab36065aa54e6e9aa872861218905c2d59b490d64736f6c63430008140033",
  "linkReferences": {},
  "deployedLinkReferences": {}
}