{
  "_format": "hh-sol-artifact-1",
  "contractName": "ExecutorSupplierVotingStrategy",
  "sourceName": "contracts/ExecutorSupplierVotingStrategy.sol",
  "abi": [
    {
      "inputs": [
        {
          "internalType": "address",
          "name": "_allo",
          "type": "address"
        },
        {
          "internalType": "string",
          "name": "_name",
          "type": "string"
        }
      ],
      "stateMutability": "nonpayable",
      "type": "constructor"
    },
    {
      "inputs": [],
      "name": "ALLOCATION_ACTIVE",
      "type": "error"
    },
    {
      "inputs": [],
      "name": "ALLOCATION_EXCEEDS_POOL_AMOUNT",
      "type": "error"
    },
    {
      "inputs": [],
      "name": "ALLOCATION_NOT_ACTIVE",
      "type": "error"
    },
    {
      "inputs": [],
      "name": "ALLOCATION_NOT_ENDED",
      "type": "error"
    },
    {
      "inputs": [],
      "name": "ALREADY_INITIALIZED",
      "type": "error"
    },
    {
      "inputs": [],
      "name": "ALREADY_REVIEWED",
      "type": "error"
    },
    {
      "inputs": [],
      "name": "AMOUNT_MISMATCH",
      "type": "error"
    },
    {
      "inputs": [],
      "name": "ANCHOR_ERROR",
      "type": "error"
    },
    {
      "inputs": [],
      "name": "ARRAY_MISMATCH",
      "type": "error"
    },
    {
      "inputs": [],
      "name": "EXECUTOR_HAT_WEARING_REQUIRED",
      "type": "error"
    },
    {
      "inputs": [],
      "name": "INVALID",
      "type": "error"
    },
    {
      "inputs": [],
      "name": "INVALID_ADDRESS",
      "type": "error"
    },
    {
      "inputs": [],
      "name": "INVALID_FEE",
      "type": "error"
    },
    {
      "inputs": [],
      "name": "INVALID_METADATA",
      "type": "error"
    },
    {
      "inputs": [],
      "name": "INVALID_MILESTONE",
      "type": "error"
    },
    {
      "inputs": [],
      "name": "INVALID_MILESTONES_PERCENTAGE",
      "type": "error"
    },
    {
      "inputs": [],
      "name": "INVALID_MILESTONE_STATUS",
      "type": "error"
    },
    {
      "inputs": [],
      "name": "INVALID_REGISTRATION",
      "type": "error"
    },
    {
      "inputs": [],
      "name": "INVALID_STATUS",
      "type": "error"
    },
    {
      "inputs": [],
      "name": "IS_APPROVED_STRATEGY",
      "type": "error"
    },
    {
      "inputs": [],
      "name": "MILESTONES_ALREADY_SET",
      "type": "error"
    },
    {
      "inputs": [],
      "name": "MILESTONE_ALREADY_ACCEPTED",
      "type": "error"
    },
    {
      "inputs": [],
      "name": "MISMATCH",
      "type": "error"
    },
    {
      "inputs": [],
      "name": "NONCE_NOT_AVAILABLE",
      "type": "error"
    },
    {
      "inputs": [],
      "name": "NOT_APPROVED_STRATEGY",
      "type": "error"
    },
    {
      "inputs": [],
      "name": "NOT_ENOUGH_FUNDS",
      "type": "error"
    },
    {
      "inputs": [],
      "name": "NOT_IMPLEMENTED",
      "type": "error"
    },
    {
      "inputs": [],
      "name": "NOT_INITIALIZED",
      "type": "error"
    },
    {
      "inputs": [],
      "name": "NOT_PENDING_OWNER",
      "type": "error"
    },
    {
      "inputs": [],
      "name": "POOL_ACTIVE",
      "type": "error"
    },
    {
      "inputs": [],
      "name": "POOL_INACTIVE",
      "type": "error"
    },
    {
      "inputs": [],
      "name": "RECIPIENT_ALREADY_ACCEPTED",
      "type": "error"
    },
    {
      "inputs": [
        {
          "internalType": "address",
          "name": "recipientId",
          "type": "address"
        }
      ],
      "name": "RECIPIENT_ERROR",
      "type": "error"
    },
    {
      "inputs": [],
      "name": "RECIPIENT_NOT_ACCEPTED",
      "type": "error"
    },
    {
      "inputs": [],
      "name": "REGISTRATION_NOT_ACTIVE",
      "type": "error"
    },
    {
      "inputs": [],
      "name": "ReentrancyGuardReentrantCall",
      "type": "error"
    },
    {
      "inputs": [],
      "name": "SUPPLIER_HAT_WEARING_REQUIRED",
      "type": "error"
    },
    {
      "inputs": [],
      "name": "SUPPLY_IS_ALLOWED_ONLY_ONCE",
      "type": "error"
    },
    {
      "inputs": [],
      "name": "SUPPLY_NOT_FOUND",
      "type": "error"
    },
    {
      "inputs": [],
      "name": "UNAUTHORIZED",
      "type": "error"
    },
    {
      "inputs": [],
      "name": "ZERO_ADDRESS",
      "type": "error"
    },
    {
      "anonymous": false,
      "inputs": [
        {
          "indexed": true,
          "internalType": "address",
          "name": "recipientId",
          "type": "address"
        },
        {
          "indexed": false,
          "internalType": "uint256",
          "name": "amount",
          "type": "uint256"
        },
        {
          "indexed": false,
          "internalType": "address",
          "name": "token",
          "type": "address"
        },
        {
          "indexed": false,
          "internalType": "address",
          "name": "sender",
          "type": "address"
        }
      ],
      "name": "Allocated",
      "type": "event"
    },
    {
      "anonymous": false,
      "inputs": [
        {
          "indexed": true,
          "internalType": "address",
          "name": "recipientId",
          "type": "address"
        },
        {
          "indexed": false,
          "internalType": "address",
          "name": "recipientAddress",
          "type": "address"
        },
        {
          "indexed": false,
          "internalType": "uint256",
          "name": "amount",
          "type": "uint256"
        },
        {
          "indexed": false,
          "internalType": "address",
          "name": "sender",
          "type": "address"
        }
      ],
      "name": "Distributed",
      "type": "event"
    },
    {
      "anonymous": false,
      "inputs": [
        {
          "indexed": false,
          "internalType": "uint256",
          "name": "poolId",
          "type": "uint256"
        },
        {
          "indexed": false,
          "internalType": "bytes",
          "name": "data",
          "type": "bytes"
        }
      ],
      "name": "Initialized",
      "type": "event"
    },
    {
      "anonymous": false,
      "inputs": [
        {
          "indexed": false,
          "internalType": "address",
          "name": "recipientId",
          "type": "address"
        },
        {
          "indexed": false,
          "internalType": "uint256",
          "name": "milestoneId",
          "type": "uint256"
        },
        {
          "indexed": false,
          "internalType": "enum IStrategy.Status",
          "name": "status",
          "type": "uint8"
        }
      ],
      "name": "MilestoneStatusChanged",
      "type": "event"
    },
    {
      "anonymous": false,
      "inputs": [
        {
          "indexed": false,
          "internalType": "address",
          "name": "recipientId",
          "type": "address"
        },
        {
          "indexed": false,
          "internalType": "uint256",
          "name": "milestoneId",
          "type": "uint256"
        },
        {
          "components": [
            {
              "internalType": "uint256",
              "name": "protocol",
              "type": "uint256"
            },
            {
              "internalType": "string",
              "name": "pointer",
              "type": "string"
            }
          ],
          "indexed": false,
          "internalType": "struct Metadata",
          "name": "metadata",
          "type": "tuple"
        }
      ],
      "name": "MilestoneSubmitted",
      "type": "event"
    },
    {
      "anonymous": false,
      "inputs": [
        {
          "indexed": false,
          "internalType": "address",
          "name": "recipientId",
          "type": "address"
        },
        {
          "indexed": false,
          "internalType": "uint256",
          "name": "milestonesLength",
          "type": "uint256"
        }
      ],
      "name": "MilestonesOffered",
      "type": "event"
    },
    {
      "anonymous": false,
      "inputs": [
        {
          "indexed": false,
          "internalType": "address",
          "name": "recipientId",
          "type": "address"
        },
        {
          "indexed": false,
          "internalType": "enum IStrategy.Status",
          "name": "status",
          "type": "uint8"
        }
      ],
      "name": "MilestonesReviewed",
      "type": "event"
    },
    {
      "anonymous": false,
      "inputs": [
        {
          "indexed": false,
          "internalType": "address",
          "name": "recipientId",
          "type": "address"
        },
        {
          "indexed": false,
          "internalType": "uint256",
          "name": "milestonesLength",
          "type": "uint256"
        }
      ],
      "name": "MilestonesSet",
      "type": "event"
    },
    {
      "anonymous": false,
      "inputs": [
        {
          "indexed": false,
          "internalType": "address",
          "name": "recipientId",
          "type": "address"
        }
      ],
      "name": "OfferedMilestonesAccepted",
      "type": "event"
    },
    {
      "anonymous": false,
      "inputs": [
        {
          "indexed": false,
          "internalType": "address",
          "name": "recipientId",
          "type": "address"
        }
      ],
      "name": "OfferedMilestonesRejected",
      "type": "event"
    },
    {
      "anonymous": false,
      "inputs": [
        {
          "indexed": false,
          "internalType": "bool",
          "name": "active",
          "type": "bool"
        }
      ],
      "name": "PoolActive",
      "type": "event"
    },
    {
      "anonymous": false,
      "inputs": [],
      "name": "ProjectRejectDeclined",
      "type": "event"
    },
    {
      "anonymous": false,
      "inputs": [],
      "name": "ProjectRejected",
      "type": "event"
    },
    {
      "anonymous": false,
      "inputs": [
        {
          "indexed": false,
          "internalType": "address",
          "name": "recipientId",
          "type": "address"
        },
        {
          "indexed": false,
          "internalType": "enum IStrategy.Status",
          "name": "status",
          "type": "uint8"
        }
      ],
      "name": "RecipientStatusChanged",
      "type": "event"
    },
    {
      "anonymous": false,
      "inputs": [
        {
          "indexed": true,
          "internalType": "address",
          "name": "recipientId",
          "type": "address"
        },
        {
          "indexed": false,
          "internalType": "bytes",
          "name": "data",
          "type": "bytes"
        },
        {
          "indexed": false,
          "internalType": "address",
          "name": "sender",
          "type": "address"
        }
      ],
      "name": "Registered",
      "type": "event"
    },
    {
      "anonymous": false,
      "inputs": [
        {
          "indexed": false,
          "internalType": "address",
          "name": "recipientId",
          "type": "address"
        },
        {
          "indexed": false,
          "internalType": "uint256",
          "name": "milestoneId",
          "type": "uint256"
        },
        {
          "indexed": false,
          "internalType": "enum IStrategy.Status",
          "name": "status",
          "type": "uint8"
        }
      ],
      "name": "SubmittedvMilestoneReviewed",
      "type": "event"
    },
    {
      "inputs": [],
      "name": "NATIVE",
      "outputs": [
        {
          "internalType": "address",
          "name": "",
          "type": "address"
        }
      ],
      "stateMutability": "view",
      "type": "function"
    },
    {
      "inputs": [
        {
          "internalType": "bytes",
          "name": "_data",
          "type": "bytes"
        },
        {
          "internalType": "address",
          "name": "_sender",
          "type": "address"
        }
      ],
      "name": "allocate",
      "outputs": [],
      "stateMutability": "payable",
      "type": "function"
    },
    {
      "inputs": [],
      "name": "allocatedGrantAmount",
      "outputs": [
        {
          "internalType": "uint256",
          "name": "",
          "type": "uint256"
        }
      ],
      "stateMutability": "view",
      "type": "function"
    },
    {
      "inputs": [
        {
          "internalType": "address[]",
          "name": "_recipientIds",
          "type": "address[]"
        },
        {
          "internalType": "bytes",
          "name": "_data",
          "type": "bytes"
        },
        {
          "internalType": "address",
          "name": "_sender",
          "type": "address"
        }
      ],
      "name": "distribute",
      "outputs": [],
      "stateMutability": "nonpayable",
      "type": "function"
    },
    {
      "inputs": [],
      "name": "executorHat",
      "outputs": [
        {
          "internalType": "uint256",
          "name": "",
          "type": "uint256"
        }
      ],
      "stateMutability": "view",
      "type": "function"
    },
    {
      "inputs": [],
      "name": "getAllo",
      "outputs": [
        {
          "internalType": "contract IAllo",
          "name": "",
          "type": "address"
        }
      ],
      "stateMutability": "view",
      "type": "function"
    },
    {
      "inputs": [
        {
          "internalType": "address",
          "name": "_recipientId",
          "type": "address"
        },
        {
          "internalType": "uint256",
          "name": "_milestoneId",
          "type": "uint256"
        }
      ],
      "name": "getMilestoneStatus",
      "outputs": [
        {
          "internalType": "enum IStrategy.Status",
          "name": "",
          "type": "uint8"
        }
      ],
      "stateMutability": "view",
      "type": "function"
    },
    {
      "inputs": [
        {
          "internalType": "address",
          "name": "_recipientId",
          "type": "address"
        }
      ],
      "name": "getMilestones",
      "outputs": [
        {
          "components": [
            {
              "internalType": "uint256",
              "name": "amountPercentage",
              "type": "uint256"
            },
            {
              "components": [
                {
                  "internalType": "uint256",
                  "name": "protocol",
                  "type": "uint256"
                },
                {
                  "internalType": "string",
                  "name": "pointer",
                  "type": "string"
                }
              ],
              "internalType": "struct Metadata",
              "name": "metadata",
              "type": "tuple"
            },
            {
              "internalType": "enum IStrategy.Status",
              "name": "milestoneStatus",
              "type": "uint8"
            },
            {
              "internalType": "string",
              "name": "description",
              "type": "string"
            }
          ],
          "internalType": "struct ExecutorSupplierVotingStrategy.Milestone[]",
          "name": "",
          "type": "tuple[]"
        }
      ],
      "stateMutability": "view",
      "type": "function"
    },
    {
      "inputs": [
        {
          "internalType": "address",
          "name": "_recipientId",
          "type": "address"
        }
      ],
      "name": "getOffeeredMilestones",
      "outputs": [
        {
          "components": [
            {
              "internalType": "uint256",
              "name": "amountPercentage",
              "type": "uint256"
            },
            {
              "components": [
                {
                  "internalType": "uint256",
                  "name": "protocol",
                  "type": "uint256"
                },
                {
                  "internalType": "string",
                  "name": "pointer",
                  "type": "string"
                }
              ],
              "internalType": "struct Metadata",
              "name": "metadata",
              "type": "tuple"
            },
            {
              "internalType": "enum IStrategy.Status",
              "name": "milestoneStatus",
              "type": "uint8"
            },
            {
              "internalType": "string",
              "name": "description",
              "type": "string"
            }
          ],
          "internalType": "struct ExecutorSupplierVotingStrategy.Milestone[]",
          "name": "",
          "type": "tuple[]"
        }
      ],
      "stateMutability": "view",
      "type": "function"
    },
    {
      "inputs": [
        {
          "internalType": "address",
          "name": "_recipientId",
          "type": "address"
        }
      ],
      "name": "getOfferedMilestonesVotesAgainst",
      "outputs": [
        {
          "internalType": "uint256",
          "name": "",
          "type": "uint256"
        }
      ],
      "stateMutability": "view",
      "type": "function"
    },
    {
      "inputs": [
        {
          "internalType": "address",
          "name": "_recipientId",
          "type": "address"
        }
      ],
      "name": "getOfferedMilestonesVotesFor",
      "outputs": [
        {
          "internalType": "uint256",
          "name": "",
          "type": "uint256"
        }
      ],
      "stateMutability": "view",
      "type": "function"
    },
    {
      "inputs": [
        {
          "internalType": "address[]",
          "name": "_recipientIds",
          "type": "address[]"
        },
        {
          "internalType": "bytes[]",
          "name": "_data",
          "type": "bytes[]"
        }
      ],
      "name": "getPayouts",
      "outputs": [
        {
          "components": [
            {
              "internalType": "address",
              "name": "recipientAddress",
              "type": "address"
            },
            {
              "internalType": "uint256",
              "name": "amount",
              "type": "uint256"
            }
          ],
          "internalType": "struct IStrategy.PayoutSummary[]",
          "name": "",
          "type": "tuple[]"
        }
      ],
      "stateMutability": "view",
      "type": "function"
    },
    {
      "inputs": [],
      "name": "getPoolAmount",
      "outputs": [
        {
          "internalType": "uint256",
          "name": "",
          "type": "uint256"
        }
      ],
      "stateMutability": "view",
      "type": "function"
    },
    {
      "inputs": [],
      "name": "getPoolId",
      "outputs": [
        {
          "internalType": "uint256",
          "name": "",
          "type": "uint256"
        }
      ],
      "stateMutability": "view",
      "type": "function"
    },
    {
      "inputs": [
        {
          "internalType": "address",
          "name": "_recipientId",
          "type": "address"
        }
      ],
      "name": "getRecipient",
      "outputs": [
        {
          "components": [
            {
              "internalType": "bool",
              "name": "useRegistryAnchor",
              "type": "bool"
            },
            {
              "internalType": "address",
              "name": "recipientAddress",
              "type": "address"
            },
            {
              "internalType": "uint256",
              "name": "grantAmount",
              "type": "uint256"
            },
            {
              "components": [
                {
                  "internalType": "uint256",
                  "name": "protocol",
                  "type": "uint256"
                },
                {
                  "internalType": "string",
                  "name": "pointer",
                  "type": "string"
                }
              ],
              "internalType": "struct Metadata",
              "name": "metadata",
              "type": "tuple"
            },
            {
              "internalType": "enum IStrategy.Status",
              "name": "recipientStatus",
              "type": "uint8"
            },
            {
              "internalType": "enum IStrategy.Status",
              "name": "milestonesReviewStatus",
              "type": "uint8"
            }
          ],
          "internalType": "struct ExecutorSupplierVotingStrategy.Recipient",
          "name": "",
          "type": "tuple"
        }
      ],
      "stateMutability": "view",
      "type": "function"
    },
    {
      "inputs": [
        {
          "internalType": "address",
          "name": "_recipientId",
          "type": "address"
        }
      ],
      "name": "getRecipientStatus",
      "outputs": [
        {
          "internalType": "enum IStrategy.Status",
          "name": "",
          "type": "uint8"
        }
      ],
      "stateMutability": "view",
      "type": "function"
    },
    {
      "inputs": [],
      "name": "getRejectProjectVotesAgainst",
      "outputs": [
        {
          "internalType": "uint256",
          "name": "",
          "type": "uint256"
        }
      ],
      "stateMutability": "view",
      "type": "function"
    },
    {
      "inputs": [],
      "name": "getRejectProjectVotesFor",
      "outputs": [
        {
          "internalType": "uint256",
          "name": "",
          "type": "uint256"
        }
      ],
      "stateMutability": "view",
      "type": "function"
    },
    {
      "inputs": [],
      "name": "getStrategyId",
      "outputs": [
        {
          "internalType": "bytes32",
          "name": "",
          "type": "bytes32"
        }
      ],
      "stateMutability": "view",
      "type": "function"
    },
    {
      "inputs": [
        {
          "internalType": "uint256",
          "name": "_milestoneId",
          "type": "uint256"
        }
      ],
      "name": "getSubmittedMilestonesVotesAgainst",
      "outputs": [
        {
          "internalType": "uint256",
          "name": "",
          "type": "uint256"
        }
      ],
      "stateMutability": "view",
      "type": "function"
    },
    {
      "inputs": [
        {
          "internalType": "uint256",
          "name": "_milestoneId",
          "type": "uint256"
        }
      ],
      "name": "getSubmittedMilestonesVotesFor",
      "outputs": [
        {
          "internalType": "uint256",
          "name": "",
          "type": "uint256"
        }
      ],
      "stateMutability": "view",
      "type": "function"
    },
    {
      "inputs": [
        {
          "internalType": "address",
          "name": "_recipientId",
          "type": "address"
        },
        {
          "internalType": "address",
          "name": "_supplier",
          "type": "address"
        }
      ],
      "name": "getSupplierOfferedMilestonesVote",
      "outputs": [
        {
          "internalType": "uint256",
          "name": "",
          "type": "uint256"
        }
      ],
      "stateMutability": "view",
      "type": "function"
    },
    {
      "inputs": [
        {
          "internalType": "uint256",
          "name": "_milestoneId",
          "type": "uint256"
        },
        {
          "internalType": "address",
          "name": "_supplier",
          "type": "address"
        }
      ],
      "name": "getSupplierSubmittedMilestonesVote",
      "outputs": [
        {
          "internalType": "uint256",
          "name": "",
          "type": "uint256"
        }
      ],
      "stateMutability": "view",
      "type": "function"
    },
    {
      "inputs": [
        {
          "internalType": "address",
          "name": "_recipientId",
          "type": "address"
        }
      ],
      "name": "getUpcomingMilestone",
      "outputs": [
        {
          "internalType": "uint256",
          "name": "",
          "type": "uint256"
        }
      ],
      "stateMutability": "view",
      "type": "function"
    },
    {
      "inputs": [],
      "name": "hatsContract",
      "outputs": [
        {
          "internalType": "contract IHats",
          "name": "",
          "type": "address"
        }
      ],
      "stateMutability": "view",
      "type": "function"
    },
    {
      "inputs": [
        {
          "internalType": "uint256",
          "name": "_amount",
          "type": "uint256"
        }
      ],
      "name": "increasePoolAmount",
      "outputs": [],
      "stateMutability": "nonpayable",
      "type": "function"
    },
    {
      "inputs": [
        {
          "internalType": "uint256",
          "name": "_poolId",
          "type": "uint256"
        },
        {
          "internalType": "bytes",
          "name": "_data",
          "type": "bytes"
        }
      ],
      "name": "initialize",
      "outputs": [],
      "stateMutability": "nonpayable",
      "type": "function"
    },
    {
      "inputs": [],
      "name": "isPoolActive",
      "outputs": [
        {
          "internalType": "bool",
          "name": "",
          "type": "bool"
        }
      ],
      "stateMutability": "view",
      "type": "function"
    },
    {
      "inputs": [
        {
          "internalType": "address",
          "name": "_allocator",
          "type": "address"
        }
      ],
      "name": "isValidAllocator",
      "outputs": [
        {
          "internalType": "bool",
          "name": "",
          "type": "bool"
        }
      ],
      "stateMutability": "view",
      "type": "function"
    },
    {
      "inputs": [
        {
          "internalType": "address",
          "name": "",
          "type": "address"
        },
        {
          "internalType": "uint256",
          "name": "",
          "type": "uint256"
        }
      ],
      "name": "milestones",
      "outputs": [
        {
          "internalType": "uint256",
          "name": "amountPercentage",
          "type": "uint256"
        },
        {
          "components": [
            {
              "internalType": "uint256",
              "name": "protocol",
              "type": "uint256"
            },
            {
              "internalType": "string",
              "name": "pointer",
              "type": "string"
            }
          ],
          "internalType": "struct Metadata",
          "name": "metadata",
          "type": "tuple"
        },
        {
          "internalType": "enum IStrategy.Status",
          "name": "milestoneStatus",
          "type": "uint8"
        },
        {
          "internalType": "string",
          "name": "description",
          "type": "string"
        }
      ],
      "stateMutability": "view",
      "type": "function"
    },
    {
      "inputs": [
        {
          "internalType": "address",
          "name": "_recipientId",
          "type": "address"
        },
        {
          "components": [
            {
              "internalType": "uint256",
              "name": "amountPercentage",
              "type": "uint256"
            },
            {
              "components": [
                {
                  "internalType": "uint256",
                  "name": "protocol",
                  "type": "uint256"
                },
                {
                  "internalType": "string",
                  "name": "pointer",
                  "type": "string"
                }
              ],
              "internalType": "struct Metadata",
              "name": "metadata",
              "type": "tuple"
            },
            {
              "internalType": "enum IStrategy.Status",
              "name": "milestoneStatus",
              "type": "uint8"
            },
            {
              "internalType": "string",
              "name": "description",
              "type": "string"
            }
          ],
          "internalType": "struct ExecutorSupplierVotingStrategy.Milestone[]",
          "name": "_milestones",
          "type": "tuple[]"
        }
      ],
      "name": "offerMilestones",
      "outputs": [],
      "stateMutability": "nonpayable",
      "type": "function"
    },
    {
      "inputs": [
        {
          "internalType": "bytes",
          "name": "_data",
          "type": "bytes"
        },
        {
          "internalType": "address",
          "name": "_sender",
          "type": "address"
        }
      ],
      "name": "registerRecipient",
      "outputs": [
        {
          "internalType": "address",
          "name": "recipientId",
          "type": "address"
        }
      ],
      "stateMutability": "payable",
      "type": "function"
    },
    {
      "inputs": [
        {
          "internalType": "enum IStrategy.Status",
          "name": "_status",
          "type": "uint8"
        }
      ],
      "name": "rejetProject",
      "outputs": [],
      "stateMutability": "nonpayable",
      "type": "function"
    },
    {
      "inputs": [
        {
          "internalType": "address",
          "name": "_recipientId",
          "type": "address"
        },
        {
          "internalType": "enum IStrategy.Status",
          "name": "_status",
          "type": "uint8"
        }
      ],
      "name": "reviewOfferedtMilestones",
      "outputs": [],
      "stateMutability": "nonpayable",
      "type": "function"
    },
    {
      "inputs": [
        {
          "internalType": "address",
          "name": "_recipientId",
          "type": "address"
        },
        {
          "internalType": "uint256",
          "name": "_milestoneId",
          "type": "uint256"
        },
        {
          "internalType": "enum IStrategy.Status",
          "name": "_status",
          "type": "uint8"
        }
      ],
      "name": "reviewSubmitedMilestone",
      "outputs": [],
      "stateMutability": "nonpayable",
      "type": "function"
    },
    {
      "inputs": [
        {
          "internalType": "uint256",
          "name": "_newPercentage",
          "type": "uint256"
        },
        {
          "internalType": "bytes32",
          "name": "_profileId",
          "type": "bytes32"
        }
      ],
      "name": "setThresholdPercentage",
      "outputs": [],
      "stateMutability": "nonpayable",
      "type": "function"
    },
    {
      "inputs": [
        {
          "internalType": "address",
          "name": "_recipientId",
          "type": "address"
        },
        {
          "internalType": "uint256",
          "name": "_milestoneId",
          "type": "uint256"
        },
        {
          "components": [
            {
              "internalType": "uint256",
              "name": "protocol",
              "type": "uint256"
            },
            {
              "internalType": "string",
              "name": "pointer",
              "type": "string"
            }
          ],
          "internalType": "struct Metadata",
          "name": "_metadata",
          "type": "tuple"
        }
      ],
      "name": "submitMilestone",
      "outputs": [],
      "stateMutability": "nonpayable",
      "type": "function"
    },
    {
      "inputs": [
        {
          "internalType": "uint256",
          "name": "",
          "type": "uint256"
        }
      ],
      "name": "submittedvMilestones",
      "outputs": [
        {
          "internalType": "uint256",
          "name": "votesFor",
          "type": "uint256"
        },
        {
          "internalType": "uint256",
          "name": "votesAgainst",
          "type": "uint256"
        }
      ],
      "stateMutability": "view",
      "type": "function"
    },
    {
      "inputs": [],
      "name": "supplierHat",
      "outputs": [
        {
          "internalType": "uint256",
          "name": "",
          "type": "uint256"
        }
      ],
      "stateMutability": "view",
      "type": "function"
    },
    {
      "inputs": [],
      "name": "thresholdPercentage",
      "outputs": [
        {
          "internalType": "uint256",
          "name": "",
          "type": "uint256"
        }
      ],
      "stateMutability": "view",
      "type": "function"
    },
    {
      "inputs": [],
      "name": "totalSupply",
      "outputs": [
        {
          "internalType": "uint256",
          "name": "",
          "type": "uint256"
        }
      ],
      "stateMutability": "view",
      "type": "function"
    },
    {
      "inputs": [
        {
          "internalType": "address",
          "name": "",
          "type": "address"
        }
      ],
      "name": "upcomingMilestone",
      "outputs": [
        {
          "internalType": "uint256",
          "name": "",
          "type": "uint256"
        }
      ],
      "stateMutability": "view",
      "type": "function"
    },
    {
      "stateMutability": "payable",
      "type": "receive"
    }
  ],
  "bytecode": "0x60c06040523480156200001157600080fd5b5060405162005222380380620052228339810160408190526200003491620000bf565b6001600160a01b03821660805260405182908290620000589082906020016200019a565b60408051601f19818403018152919052805160209091012060a0525050600160035550620001cf9050565b634e487b7160e01b600052604160045260246000fd5b60005b83811015620000b65781810151838201526020016200009c565b50506000910152565b60008060408385031215620000d357600080fd5b82516001600160a01b0381168114620000eb57600080fd5b60208401519092506001600160401b03808211156200010957600080fd5b818501915085601f8301126200011e57600080fd5b81518181111562000133576200013362000083565b604051601f8201601f19908116603f011681019083821181831017156200015e576200015e62000083565b816040528281528860208487010111156200017857600080fd5b6200018b83602083016020880162000099565b80955050505050509250929050565b6020815260008251806020840152620001bb81604085016020870162000099565b601f01601f19169190910160400192915050565b60805160a051614fee62000234600039600061046c0152600081816102920152818161187001528181612661015281816129d801528181612dac01528181613052015281816131c001528181613406015281816135c80152613a020152614fee6000f3fe6080604052600436106102555760003560e01c806397e39fef11610139578063df868ed3116100b6578063eb11af931161007a578063eb11af93146107be578063edd146cc146107eb578063ee1203001461080b578063ef2920fc1461083b578063f5b0dfb71461084e578063f83067e71461086e57600080fd5b8063df868ed314610714578063e1c2cf651461072c578063e2372b5814610742578063e477b6bd1461076f578063e8eeb806146107a857600080fd5b8063b3eae7ab116100fd578063b3eae7ab1461063e578063c1aaf44a1461065e578063c7a892bf1461068b578063c9701fd4146106bb578063cb2415fb146106db57600080fd5b806397e39fef146105945780639ffaa875146105b4578063a0cf0aea146105d4578063a9655210146105fc578063b2b878d01461061157600080fd5b806338fff2d0116101d25780634d31d087116101965780634d31d087146104a55780634ed2859e146104d55780635b10b597146104eb578063605e1c661461050057806362812a391461054757806378f0184d1461057457600080fd5b806338fff2d0146103df5780633bf3577d146103f4578063404e73e21461041457806342fda9c71461045d5780634ab4ba421461049057600080fd5b80632a835b4b116102195780632a835b4b146103405780632bbe0cae146103605780632ff0e6c41461037357806336592c0e146103a957806336c466d3146103c957600080fd5b80630a6f0ee91461026157806315cc481e1461028357806318160ddd146102cf578063197ea814146102f357806322a4e42d1461031357600080fd5b3661025c57005b600080fd5b34801561026d57600080fd5b5061028161027c366004613f65565b61088e565b005b34801561028f57600080fd5b507f00000000000000000000000000000000000000000000000000000000000000005b6040516001600160a01b0390911681526020015b60405180910390f35b3480156102db57600080fd5b506102e560065481565b6040519081526020016102c6565b3480156102ff57600080fd5b506102e561030e366004613fdc565b6108ae565b34801561031f57600080fd5b5061033361032e366004614015565b6108df565b6040516102c691906140e0565b34801561034c57600080fd5b5061028161035b366004614185565b610ad3565b6102b261036e3660046141a7565b610c2e565b34801561037f57600080fd5b506102e561038e366004614015565b6001600160a01b031660009081526014602052604090205490565b3480156103b557600080fd5b506103336103c4366004614015565b610c51565b3480156103d557600080fd5b506102e560055481565b3480156103eb57600080fd5b506001546102e5565b34801561040057600080fd5b5061028161040f3660046141ed565b610e3a565b34801561042057600080fd5b5061044861042f366004614241565b6015602052600090815260409020805460019091015482565b604080519283526020830191909152016102c6565b34801561046957600080fd5b507f00000000000000000000000000000000000000000000000000000000000000006102e5565b34801561049c57600080fd5b506002546102e5565b3480156104b157600080fd5b506104c56104c0366004614015565b61118f565b60405190151581526020016102c6565b3480156104e157600080fd5b506102e560075481565b3480156104f757600080fd5b506010546102e5565b34801561050c57600080fd5b506102e561051b36600461425a565b60008281526015602090815260408083206001600160a01b038516845260020190915290205492915050565b34801561055357600080fd5b50610567610562366004614015565b61119a565b6040516102c6919061427f565b34801561058057600080fd5b5061028161058f36600461430f565b6111ab565b3480156105a057600080fd5b50600a546102b2906001600160a01b031681565b3480156105c057600080fd5b506102816105cf36600461449a565b61143b565b3480156105e057600080fd5b506102b273eeeeeeeeeeeeeeeeeeeeeeeeeeeeeeeeeeeeeeee81565b34801561060857600080fd5b506011546102e5565b34801561061d57600080fd5b5061063161062c3660046144d1565b611aa5565b6040516102c691906145a5565b34801561064a57600080fd5b506102816106593660046145fd565b611ba3565b34801561066a57600080fd5b506102e5610679366004614241565b60009081526015602052604090205490565b34801561069757600080fd5b506106ab6106a636600461462b565b612134565b6040516102c69493929190614657565b3480156106c757600080fd5b506102816106d636600461469a565b6122b6565b3480156106e757600080fd5b506102e56106f6366004614015565b6001600160a01b03166000908152600f602052604090206002015490565b34801561072057600080fd5b5060005460ff166104c5565b34801561073857600080fd5b506102e560045481565b34801561074e57600080fd5b506102e561075d366004614015565b60146020526000908152604090205481565b34801561077b57600080fd5b506102e561078a366004614015565b6001600160a01b03166000908152600f602052604090206001015490565b3480156107b457600080fd5b506102e560095481565b3480156107ca57600080fd5b506107de6107d9366004614015565b61255b565b6040516102c691906146b7565b3480156107f757600080fd5b506102816108063660046146c5565b612566565b34801561081757600080fd5b506102e5610826366004614241565b60009081526015602052604090206001015490565b6102816108493660046141a7565b6125c6565b34801561085a57600080fd5b50610281610869366004614241565b6125e4565b34801561087a57600080fd5b506107de61088936600461462b565b61260e565b610896612656565b61089e6126a1565b6108a98383836126c4565b505050565b6001600160a01b038083166000908152600f6020908152604080832093851683526003909301905220545b92915050565b6001600160a01b0381166000908152601360209081526040808320805482518185028101850190935280835260609492939192909184015b82821015610ac8578382906000526020600020906005020160405180608001604052908160008201548152602001600182016040518060400160405290816000820154815260200160018201805461096e9061470b565b80601f016020809104026020016040519081016040528092919081815260200182805461099a9061470b565b80156109e75780601f106109bc576101008083540402835291602001916109e7565b820191906000526020600020905b8154815290600101906020018083116109ca57829003601f168201915b505050919092525050508152600382015460209091019060ff166006811115610a1257610a126140a8565b6006811115610a2357610a236140a8565b8152602001600482018054610a379061470b565b80601f0160208091040260200160405190810160405280929190818152602001828054610a639061470b565b8015610ab05780601f10610a8557610100808354040283529160200191610ab0565b820191906000526020600020905b815481529060010190602001808311610a9357829003601f168201915b50505050508152505081526020019060010190610917565b505050509050919050565b600854604051630e6e1ae360e21b8152600481018390523360248201526001600160a01b03909116906339b86b8c90604401602060405180830381865afa158015610b22573d6000803e3d6000fd5b505050506040513d601f19601f82011682018060405250810190610b469190614745565b610b865760405162461bcd60e51b815260206004820152600c60248201526b15539055551213d49256915160a21b60448201526064015b60405180910390fd5b60008211610be25760405162461bcd60e51b8152602060048201526024808201527f50657263656e74616765206d7573742062652067726561746572207468616e206044820152637a65726f60e01b6064820152608401610b7d565b6064821115610c285760405162461bcd60e51b8152602060048201526012602482015271496e76616c69642070657263656e7461676560701b6044820152606401610b7d565b50600755565b6000610c38612656565b610c406126a1565b610c4a838361275b565b90506108d9565b6001600160a01b0381166000908152600f60209081526040808320805482518185028101850190935280835260609492939192909184015b82821015610ac85783829060005260206000209060050201604051806080016040529081600082015481526020016001820160405180604001604052908160008201548152602001600182018054610ce09061470b565b80601f0160208091040260200160405190810160405280929190818152602001828054610d0c9061470b565b8015610d595780601f10610d2e57610100808354040283529160200191610d59565b820191906000526020600020905b815481529060010190602001808311610d3c57829003601f168201915b505050919092525050508152600382015460209091019060ff166006811115610d8457610d846140a8565b6006811115610d9557610d956140a8565b8152602001600482018054610da99061470b565b80601f0160208091040260200160405190810160405280929190818152602001828054610dd59061470b565b8015610e225780601f10610df757610100808354040283529160200191610e22565b820191906000526020600020905b815481529060010190602001808311610e0557829003601f168201915b50505050508152505081526020019060010190610c89565b600a546005546040516321a9204d60e11b815233600482015260248101919091526001600160a01b0390911690634352409a90604401602060405180830381865afa158015610e8d573d6000803e3d6000fd5b505050506040513d601f19601f82011682018060405250810190610eb19190614745565b610ece5760405163088d893560e11b815260040160405180910390fd5b6001600160a01b0383163314610ef75760405163075fd2b160e01b815260040160405180910390fd5b6001600160a01b038084166000908152600d60209081526040808320815160c081018352815460ff8116151582526101009004909516858401526001810154858301528151808301909252600281018054835260038201805495969592946060870194939084019190610f699061470b565b80601f0160208091040260200160405190810160405280929190818152602001828054610f959061470b565b8015610fe25780601f10610fb757610100808354040283529160200191610fe2565b820191906000526020600020905b815481529060010190602001808311610fc557829003601f168201915b505050919092525050508152600482015460209091019060ff16600681111561100d5761100d6140a8565b600681111561101e5761101e6140a8565b81526020016004820160019054906101000a900460ff166006811115611046576110466140a8565b6006811115611057576110576140a8565b9052509050600281608001516006811115611074576110746140a8565b146110925760405163392c16fb60e21b815260040160405180910390fd5b6001600160a01b038416600090815260136020526040902080548411156110cc57604051632f1f68e160e11b815260040160405180910390fd5b60008185815481106110e0576110e0614767565b6000918252602090912060059091020190506002600382015460ff16600681111561110d5761110d6140a8565b0361112b57604051637f46ed2760e11b815260040160405180910390fd5b836001820161113a82826147cb565b505060038101805460ff191660011790556040517f8673cfb5a2cbad812463bdfd7c85511f29c804579a86d318889ab925155399619061117f908890889088906148c3565b60405180910390a1505050505050565b60006108d9826129bb565b6111a2613c82565b6108d982612a60565b600a546005546040516321a9204d60e11b815233600482015260248101919091526001600160a01b0390911690634352409a90604401602060405180830381865afa1580156111fe573d6000803e3d6000fd5b505050506040513d601f19601f820116820180604052508101906112229190614745565b61123f5760405163088d893560e11b815260040160405180910390fd5b6000336001600160a01b038416148061125d575061125d8333612bd0565b90508061127d5760405163075fd2b160e01b815260040160405180910390fd5b6001600160a01b0383166000908152600d602052604090206002600482015460ff1660068111156112b0576112b06140a8565b146112ce5760405163392c16fb60e21b815260040160405180910390fd5b60026004820154610100900460ff1660068111156112ee576112ee6140a8565b0361130c576040516305ca31d360e51b815260040160405180910390fd5b61131584612cc8565b60005b83518110156113ef576001600160a01b0385166000908152600f60205260409020845185908390811061134d5761134d614767565b6020908102919091018101518254600181810185556000948552938390208251600590920201908155818301518051948201948555928301519193909291600284019061139a908261495c565b505050604082015160038201805460ff191660018360068111156113c0576113c06140a8565b0217905550606082015160048201906113d9908261495c565b50505080806113e790614a31565b915050611318565b508251604080516001600160a01b038716815260208101929092527f8a5603111f154f43104afe04452c6a93024a972cb6a0af72e6f38bcce68625d5910160405180910390a150505050565b3361144581612d82565b600a54600480546040516321a9204d60e11b8152339281019290925260248201526001600160a01b0390911690634352409a90604401602060405180830381865afa158015611498573d6000803e3d6000fd5b505050506040513d601f19601f820116820180604052508101906114bc9190614745565b6114d957604051636bbe41b360e01b815260040160405180910390fd5b6000838152601560209081526040808320338452600201909152902054156115145760405163448bae6f60e01b815260040160405180910390fd5b6001600160a01b038085166000908152600d60209081526040808320815160c081018352815460ff81161515825261010090049095168584015260018101548583015281518083019092526002810180548352600382018054959695929460608701949390840191906115869061470b565b80601f01602080910402602001604051908101604052809291908181526020018280546115b29061470b565b80156115ff5780601f106115d4576101008083540402835291602001916115ff565b820191906000526020600020905b8154815290600101906020018083116115e257829003601f168201915b505050919092525050508152600482015460209091019060ff16600681111561162a5761162a6140a8565b600681111561163b5761163b6140a8565b81526020016004820160019054906101000a900460ff166006811115611663576116636140a8565b6006811115611674576116746140a8565b9052509050600281608001516006811115611691576116916140a8565b146116af5760405163392c16fb60e21b815260040160405180910390fd5b6001600160a01b038516600090815260136020526040902080548511156116e957604051632f1f68e160e11b815260040160405180910390fd5b60008186815481106116fd576116fd614767565b6000918252602090912060059091020190506001600382015460ff16600681111561172a5761172a6140a8565b1461174857604051635b2fe71d60e11b815260040160405180910390fd5b336000908152600e602052604081205460075460065491929160649161176d91614a4a565b6117779190614a61565b600089815260156020908152604080832033845260029081019092529091208490559091508760068111156117ae576117ae6140a8565b0361191b57600088815260156020526040812080548492906117d1908490614a83565b90915550506000888152601560205260409020548110156119165760038301805488919060ff1916600183600681111561180d5761180d6140a8565b021790555060408051600180825281830190925260009160208083019080368337019050509050898160008151811061184857611848614767565b6001600160a01b039283166020918202929092010152600154604051631d2fdec960e11b81527f000000000000000000000000000000000000000000000000000000000000000090921691633a5fbd92916118a7918590600401614a96565b600060405180830381600087803b1580156118c157600080fd5b505af11580156118d5573d6000803e3d6000fd5b505050507ff1af82b65c631a030029b10ea8f00f68290285c7c797644155b8f23969ca1d638a8a8a60405161190c93929190614afd565b60405180910390a1505b611a5f565b600387600681111561192f5761192f6140a8565b03611a5f5760008881526015602052604081206001018054849290611955908490614a83565b9091555050600088815260156020526040902060010154811015611a5f5760038301805488919060ff19166001836006811115611994576119946140a8565b021790555060005b600c54811015611a0a576000601560008b81526020019081526020016000206002016000600c84815481106119d3576119d3614767565b60009182526020808320909101546001600160a01b0316835282019290925260400190205580611a0281614a31565b91505061199c565b5060008881526015602052604080822082815560010191909155517ff1af82b65c631a030029b10ea8f00f68290285c7c797644155b8f23969ca1d6390611a56908b908b908b90614afd565b60405180910390a15b7f4460beb477b3843656610a89bd67c551d2a78131b5a955ddccd5eb9aa218c8c3898989604051611a9293929190614afd565b60405180910390a1505050505050505050565b81518151606091908114611acc57604051633da4c02b60e11b815260040160405180910390fd5b6000816001600160401b03811115611ae657611ae6613d8f565b604051908082528060200260200182016040528015611b2b57816020015b6040805180820190915260008082526020820152815260200190600190039081611b045790505b50905060005b82811015611b9a57611b75868281518110611b4e57611b4e614767565b6020026020010151868381518110611b6857611b68614767565b6020026020010151612e34565b828281518110611b8757611b87614767565b6020908102919091010152600101611b31565b50949350505050565b33611bad81612d82565b600a54600480546040516321a9204d60e11b8152339281019290925260248201526001600160a01b0390911690634352409a90604401602060405180830381865afa158015611c00573d6000803e3d6000fd5b505050506040513d601f19601f82011682018060405250810190611c249190614745565b611c4157604051636bbe41b360e01b815260040160405180910390fd5b6001600160a01b0383166000908152600f6020908152604080832033845260030190915290205415611c865760405163448bae6f60e01b815260040160405180910390fd5b6001600160a01b0383166000908152600d6020526040902060026004820154610100900460ff166006811115611cbe57611cbe6140a8565b03611cdc576040516305ca31d360e51b815260040160405180910390fd5b336000908152600e6020526040812054600754600654919291606491611d0191614a4a565b611d0b9190614a61565b6001600160a01b0387166000908152600f60209081526040808320338452600301909152902083905590506002856006811115611d4a57611d4a6140a8565b03612012576001600160a01b0386166000908152600f602052604081206001018054849290611d7a908490614a83565b90915550506001600160a01b0386166000908152600f602052604090206001015481101561200d576001600160a01b0386166000908152600d60205260409020600401805486919061ff001916610100836006811115611ddc57611ddc6140a8565b02179055506001600160a01b0386166000908152600f602090815260408083208054825181850281018501909352808352611fd0948b9484015b82821015611fc75783829060005260206000209060050201604051806080016040529081600082015481526020016001820160405180604001604052908160008201548152602001600182018054611e6d9061470b565b80601f0160208091040260200160405190810160405280929190818152602001828054611e999061470b565b8015611ee65780601f10611ebb57610100808354040283529160200191611ee6565b820191906000526020600020905b815481529060010190602001808311611ec957829003601f168201915b505050919092525050508152600382015460209091019060ff166006811115611f1157611f116140a8565b6006811115611f2257611f226140a8565b8152602001600482018054611f369061470b565b80601f0160208091040260200160405190810160405280929190818152602001828054611f629061470b565b8015611faf5780601f10611f8457610100808354040283529160200191611faf565b820191906000526020600020905b815481529060010190602001808311611f9257829003601f168201915b50505050508152505081526020019060010190611e16565b50505050612e7f565b6040516001600160a01b03871681527f7b05d1f85b1ac2e76c0d8dbb0dfa809df6788f66bbeeb837b2b5fae4f64c00639060200160405180910390a15b612103565b6003856006811115612026576120266140a8565b03612103576001600160a01b0386166000908152600f602052604081206002018054849290612056908490614a83565b90915550506001600160a01b0386166000908152600f6020526040902060020154811015612103576001600160a01b0386166000908152600d60205260409020600401805486919061ff0019166101008360068111156120b8576120b86140a8565b02179055506120c686612cc8565b6040516001600160a01b03871681527f5a90817477dd8f83cfe5d429e1dc84ad5a25cb72b83291c707c6f8f5c4f2ac849060200160405180910390a15b7f30dae55c386c6176f3f7b7ee6ad4df33970f2e442cb0142e978cf78fd8ae138d868660405161117f929190614b21565b6013602052816000526040600020818154811061215057600080fd5b90600052602060002090600502016000915091505080600001549080600101604051806040016040529081600082015481526020016001820180546121949061470b565b80601f01602080910402602001604051908101604052809291908181526020018280546121c09061470b565b801561220d5780601f106121e25761010080835404028352916020019161220d565b820191906000526020600020905b8154815290600101906020018083116121f057829003601f168201915b505050919092525050506003820154600483018054929360ff909216926122339061470b565b80601f016020809104026020016040519081016040528092919081815260200182805461225f9061470b565b80156122ac5780601f10612281576101008083540402835291602001916122ac565b820191906000526020600020905b81548152906001019060200180831161228f57829003601f168201915b5050505050905084565b336122c081612d82565b600a54600480546040516321a9204d60e11b8152339281019290925260248201526001600160a01b0390911690634352409a90604401602060405180830381865afa158015612313573d6000803e3d6000fd5b505050506040513d601f19601f820116820180604052508101906123379190614745565b61235457604051636bbe41b360e01b815260040160405180910390fd5b6002826006811115612368576123686140a8565b1415801561238857506003826006811115612385576123856140a8565b14155b156123a65760405163343b80b160e01b815260040160405180910390fd5b33600090815260126020526040902054156123d45760405163448bae6f60e01b815260040160405180910390fd5b336000908152600e60205260408120546007546006549192916064916123f991614a4a565b6124039190614a61565b90506002846006811115612419576124196140a8565b036124835781601060000160008282546124339190614a83565b909155505060105481101561247e5761244c6000613103565b61245461314a565b6040517fd32d40de3c1ce9d2fa081d8cd5a6b778eaea7095966658ace12863ce23d09a6090600090a15b612555565b6003846006811115612497576124976140a8565b036125555781601060010160008282546124b19190614a83565b90915550506011548110156125555760005b600c5481101561252057600060106002016000600c84815481106124e9576124e9614767565b60009182526020808320909101546001600160a01b031683528201929092526040019020558061251881614a31565b9150506124c3565b506000601081905560118190556040517f7a5d554e29a9295668ae87eb63589a5dd4d751e9c16b4a8173c28b9f0bc4a1d09190a15b50505050565b60006108d9826132a1565b60008180602001905181019061257c9190614b49565b905061258883826132b6565b7f91efa3d50feccde0d0d202f8ae5c41ca0b2be614cebcb2bd2f4b019396e6568a83836040516125b9929190614c5b565b60405180910390a1505050565b6125ce612656565b6125d66126a1565b6125e082826134b0565b5050565b6125ec612656565b80600260008282546125fe9190614a83565b9091555061260b90508181565b50565b6001600160a01b038216600090815260136020526040812080548390811061263857612638614767565b600091825260209091206005909102016003015460ff169392505050565b336001600160a01b037f0000000000000000000000000000000000000000000000000000000000000000161461269f5760405163075fd2b160e01b815260040160405180910390fd5b565b60015460000361269f57604051630f68fe6360e21b815260040160405180910390fd5b6001600160a01b038116301461271c5760405162461bcd60e51b815260206004820152601760248201527f554e415554484f52495a454420646973747269627574650000000000000000006044820152606401610b7d565b825160005b818110156127545761274c85828151811061273e5761273e614767565b6020026020010151846137da565b600101612721565b5050505050565b6000612765613b4a565b600080600080612788604051806040016040528060008152602001606081525090565b8780602001905181019061279c9190614d0a565b9297509095506001600160a01b0386161515945092509050826127bf57846127c1565b835b95508280156127d757506127d58688612bd0565b155b156127f55760405163075fd2b160e01b815260040160405180910390fd5b60026001600160a01b0387166000908152600d602052604090206004015460ff166006811115612827576128276140a8565b036128455760405163083a81f760e31b815260040160405180910390fd5b60006040518060c001604052808515158152602001876001600160a01b0316815260200184815260200183815260200160026006811115612888576128886140a8565b8152602001600190526001600160a01b038881166000908152600d602090815260409182902084518154868401516001600160a81b0319909116911515610100600160a81b03191691909117610100919095160293909317835590830151600183015560608301518051600284019081559181015193945084939091906003840190612914908261495c565b505050608082015160048201805460ff1916600183600681111561293a5761293a6140a8565b021790555060a082015160048201805461ff001916610100836006811115612964576129646140a8565b0217905550905050866001600160a01b03167fa197306e3dd5494a61a695381aa809a53b8e377a685e84e404a85d5a8da6cc628a8a6040516129a7929190614d77565b60405180910390a250505050505092915050565b6001546040516329e40d4b60e01b81526000916001600160a01b037f000000000000000000000000000000000000000000000000000000000000000016916329e40d4b91612a1f9186906004019182526001600160a01b0316602082015260400190565b602060405180830381865afa158015612a3c573d6000803e3d6000fd5b505050506040513d601f19601f820116820180604052508101906108d99190614745565b612a68613c82565b6001600160a01b038083166000908152600d6020908152604091829020825160c081018452815460ff811615158252610100900490941684830152600181015484840152825180840190935260028101805484526003820180549294606087019490939084019190612ad99061470b565b80601f0160208091040260200160405190810160405280929190818152602001828054612b059061470b565b8015612b525780601f10612b2757610100808354040283529160200191612b52565b820191906000526020600020905b815481529060010190602001808311612b3557829003601f168201915b505050919092525050508152600482015460209091019060ff166006811115612b7d57612b7d6140a8565b6006811115612b8e57612b8e6140a8565b81526020016004820160019054906101000a900460ff166006811115612bb657612bb66140a8565b6006811115612bc757612bc76140a8565b90525092915050565b60085460405163dd93da4360e01b81526001600160a01b038481166004830152600092839291169063dd93da4390602401600060405180830381865afa158015612c1e573d6000803e3d6000fd5b505050506040513d6000823e601f3d908101601f19168201604052612c469190810190614da1565b6008548151604051635e8a791560e01b815260048101919091526001600160a01b038681166024830152929350911690635e8a791590604401602060405180830381865afa158015612c9c573d6000803e3d6000fd5b505050506040513d601f19601f82011682018060405250810190612cc09190614745565b949350505050565b60005b600c54811015612d4b576000600f6000846001600160a01b03166001600160a01b031681526020019081526020016000206003016000600c8481548110612d1457612d14614767565b60009182526020808320909101546001600160a01b0316835282019290925260400190205580612d4381614a31565b915050612ccb565b506001600160a01b0381166000908152600f6020526040812090612d6f8282613cdd565b5060006001820181905560029091015550565b6001546040516329e40d4b60e01b815260048101919091526001600160a01b0382811660248301527f000000000000000000000000000000000000000000000000000000000000000016906329e40d4b90604401602060405180830381865afa158015612df3573d6000803e3d6000fd5b505050506040513d601f19601f82011682018060405250810190612e179190614745565b61260b5760405163075fd2b160e01b815260040160405180910390fd5b60408051808201909152600080825260208201526000612e5384612a60565b6040805180820182526020808401516001600160a01b0316825291909201519082015291505092915050565b6001600160a01b03821660009081526013602052604081205415612ebe576001600160a01b0383166000908152601360205260408120612ebe91613cdd565b815160005b81811015612fe4576000848281518110612edf57612edf614767565b6020026020010151905060006006811115612efc57612efc6140a8565b81604001516006811115612f1257612f126140a8565b14612f3057604051635b2fe71d60e11b815260040160405180910390fd5b8051612f3c9085614a83565b6001600160a01b038716600090815260136020908152604082208054600181810183559184529282902085516005909402019283558482015180519184019182559182015193975084936002840190612f95908261495c565b505050604082015160038201805460ff19166001836006811115612fbb57612fbb6140a8565b021790555060608201516004820190612fd4908261495c565b505060019092019150612ec39050565b5081670de0b6b3a76400001461300d576040516397a1f28d60e01b815260040160405180910390fd5b600084600260065460405160200161302793929190614e67565b60408051601f19818403018152908290526001546305d8703160e31b83529092506001600160a01b037f00000000000000000000000000000000000000000000000000000000000000001691632ec3818891613087918590600401614c5b565b600060405180830381600087803b1580156130a157600080fd5b505af11580156130b5573d6000803e3d6000fd5b5050604080516001600160a01b0389168152602081018690527fb000fb1507aac2465ccb4f6bd1b601c7053279005e9e9932c41946b35c84949b935001905060405180910390a15050505050565b6000805460ff19168215159081179091556040519081527fd94c9bc4d43c51d8dc345a016d8e3d994432fac68e72832e4cf3a616bd8efae09060200160405180910390a150565b60005b600c5481101561260b576000600e6000600c848154811061317057613170614767565b60009182526020808320909101546001600160a01b03168352820192909252604001812054600254909250670de0b6b3a7640000906131b0908490614a4a565b6131ba9190614a61565b905060007f00000000000000000000000000000000000000000000000000000000000000006001600160a01b031663068bcd8d6001546040518263ffffffff1660e01b815260040161320e91815260200190565b600060405180830381865afa15801561322b573d6000803e3d6000fd5b505050506040513d6000823e601f3d908101601f191682016040526132539190810190614e92565b905061328b8160400151600c868154811061327057613270614767565b6000918252602090912001546001600160a01b031684613b6d565b505050808061329990614a31565b91505061314d565b60006132ac82612a60565b6080015192915050565b6132bf82613ba7565b8051600455602081015160055560466007556060810151600a80546001600160a01b0319166001600160a01b03909216919091179055604081015160005b815181101561340357600c82828151811061331a5761331a614767565b6020908102919091018101515182546001810184556000938452919092200180546001600160a01b0319166001600160a01b03909216919091179055815182908290811061336a5761336a614767565b602002602001015160200151600e600084848151811061338c5761338c614767565b6020026020010151600001516001600160a01b03166001600160a01b03168152602001908152602001600020819055508181815181106133ce576133ce614767565b602002602001015160200151600660008282546133eb9190614a83565b909155508190506133fb81614a31565b9150506132fd565b507f00000000000000000000000000000000000000000000000000000000000000006001600160a01b0316635ab1bd536040518163ffffffff1660e01b8152600401602060405180830381865afa158015613462573d6000803e3d6000fd5b505050506040513d601f19601f820116820180604052508101906134869190614f45565b600880546001600160a01b0319166001600160a01b03929092169190911790556108a96001613103565b6134b8613bf6565b6001600160a01b03811630146135085760405162461bcd60e51b8152602060048201526015602482015274554e415554484f52495a454420616c6c6f6361746560581b6044820152606401610b7d565b6000806000848060200190518101906135219190614f62565b6001600160a01b0383166000908152600d602090815260408083206014909252909120549396509194509250901561356c576040516305ca31d360e51b815260040160405180910390fd5b6002600482015460ff166006811115613587576135876140a8565b141580156135a6575060028360068111156135a4576135a46140a8565b145b156137415760015460405163068bcd8d60e01b81526000916001600160a01b037f0000000000000000000000000000000000000000000000000000000000000000169163068bcd8d916135ff9160040190815260200190565b600060405180830381865afa15801561361c573d6000803e3d6000fd5b505050506040513d6000823e601f3d908101601f191682016040526136449190810190614e92565b905082600960008282546136589190614a83565b9091555050600254600954111561368257604051638e81b16f60e01b815260040160405180910390fd5b6001820183905560048201805460ff191660029081179091556040517f94593b52aa436dd31a63e313045c2eb23d43eb2d6f5b4d7797b4432e7b277490916136cc91889190614b21565b60405180910390a1846001600160a01b03167f463ffc2cf8b1596445c417388ed30e53eb67cf6668cb2be7f0addf8a78c8441b8360010154836040015189604051613733939291909283526001600160a01b03918216602084015216604082015260600190565b60405180910390a2506137cc565b6003600482015460ff16600681111561375c5761375c6140a8565b1415801561377b57506003836006811115613779576137796140a8565b145b156137cc5760048101805460ff191660039081179091556040517f94593b52aa436dd31a63e313045c2eb23d43eb2d6f5b4d7797b4432e7b277490916137c391879190614b21565b60405180910390a15b505050506125e06001600355565b6001600160a01b0380831660009081526014602090815260408083205460138352818420600d8452828520835160c081018552815460ff8116151582526101009004909716878601526001810154878501528351808501909452600281018054855260038201805494989397969395929460608701948401919061385d9061470b565b80601f01602080910402602001604051908101604052809291908181526020018280546138899061470b565b80156138d65780601f106138ab576101008083540402835291602001916138d6565b820191906000526020600020905b8154815290600101906020018083116138b957829003601f168201915b505050919092525050508152600482015460209091019060ff166006811115613901576139016140a8565b6006811115613912576139126140a8565b81526020016004820160019054906101000a900460ff16600681111561393a5761393a6140a8565b600681111561394b5761394b6140a8565b815250509050600082848154811061396557613965614767565b90600052602060002090600502019050828054905084111561399a57604051632f1f68e160e11b815260040160405180910390fd5b6002600382015460ff1660068111156139b5576139b56140a8565b146139d357604051635b2fe71d60e11b815260040160405180910390fd5b6000670de0b6b3a7640000826000015484604001516139f29190614a4a565b6139fc9190614a61565b905060007f00000000000000000000000000000000000000000000000000000000000000006001600160a01b031663068bcd8d6001546040518263ffffffff1660e01b8152600401613a5091815260200190565b600060405180830381865afa158015613a6d573d6000803e3d6000fd5b505050506040513d6000823e601f3d908101601f19168201604052613a959190810190614e92565b90508160026000828254613aa99190614fa5565b92505081905550613ac38160400151856020015184613b6d565b6001600160a01b0388166000908152601460205260408120805491613ae783614a31565b9091555050602080850151604080516001600160a01b039283168152928301859052898216908301528916907fb5b51454adfa840bd593658325a60a50b0216f12eb5d2937efe6cea935675b7d9060600160405180910390a25050505050505050565b60005460ff1661269f5760405163cfe7975b60e01b815260040160405180910390fd5b73eeeeeeeeeeeeeeeeeeeeeeeeeeeeeeeeeeeeeeed196001600160a01b03841601613b9c576108a98282613c20565b6108a9838383613c3c565b613baf612656565b60015415613bd05760405163439a74c960e01b815260040160405180910390fd5b80600003613bf157604051637fcce2a960e01b815260040160405180910390fd5b600155565b600260035403613c1957604051633ee5aeb560e01b815260040160405180910390fd5b6002600355565b60003860003884865af16125e05763b12d13eb6000526004601cfd5b816014528060345263a9059cbb60601b60005260206000604460106000875af13d156001600051141716613c78576390b8ec186000526004601cfd5b6000603452505050565b6040518060c0016040528060001515815260200160006001600160a01b0316815260200160008152602001613cca604051806040016040528060008152602001606081525090565b8152602001600081526020016000905290565b508054600082556005029060005260206000209081019061260b91905b80821115613d415760008082556001820181815581613d1c6002850182613d45565b505060038201805460ff19169055613d38600483016000613d45565b50600501613cfa565b5090565b508054613d519061470b565b6000825580601f10613d61575050565b601f01602090049060005260206000209081019061260b91905b80821115613d415760008155600101613d7b565b634e487b7160e01b600052604160045260246000fd5b604051608081016001600160401b0381118282101715613dc757613dc7613d8f565b60405290565b604080519081016001600160401b0381118282101715613dc757613dc7613d8f565b60405160c081016001600160401b0381118282101715613dc757613dc7613d8f565b604051601f8201601f191681016001600160401b0381118282101715613e3957613e39613d8f565b604052919050565b60006001600160401b03821115613e5a57613e5a613d8f565b5060051b60200190565b6001600160a01b038116811461260b57600080fd5b600082601f830112613e8a57600080fd5b81356020613e9f613e9a83613e41565b613e11565b82815260059290921b84018101918181019086841115613ebe57600080fd5b8286015b84811015613ee2578035613ed581613e64565b8352918301918301613ec2565b509695505050505050565b60006001600160401b03821115613f0657613f06613d8f565b50601f01601f191660200190565b600082601f830112613f2557600080fd5b8135613f33613e9a82613eed565b818152846020838601011115613f4857600080fd5b816020850160208301376000918101602001919091529392505050565b600080600060608486031215613f7a57600080fd5b83356001600160401b0380821115613f9157600080fd5b613f9d87838801613e79565b94506020860135915080821115613fb357600080fd5b50613fc086828701613f14565b9250506040840135613fd181613e64565b809150509250925092565b60008060408385031215613fef57600080fd5b8235613ffa81613e64565b9150602083013561400a81613e64565b809150509250929050565b60006020828403121561402757600080fd5b813561403281613e64565b9392505050565b60005b8381101561405457818101518382015260200161403c565b50506000910152565b60008151808452614075816020860160208601614039565b601f01601f19169290920160200192915050565b805182526000602082015160406020850152612cc0604085018261405d565b634e487b7160e01b600052602160045260246000fd5b600781106140dc57634e487b7160e01b600052602160045260246000fd5b9052565b60006020808301818452808551808352604092508286019150828160051b87010184880160005b8381101561417757603f19898403018552815160808151855288820151818a87015261413582870182614089565b91505087820151614148898701826140be565b5060608083015192508582038187015250614163818361405d565b968901969450505090860190600101614107565b509098975050505050505050565b6000806040838503121561419857600080fd5b50508035926020909101359150565b600080604083850312156141ba57600080fd5b82356001600160401b038111156141d057600080fd5b6141dc85828601613f14565b925050602083013561400a81613e64565b60008060006060848603121561420257600080fd5b833561420d81613e64565b92506020840135915060408401356001600160401b0381111561422f57600080fd5b840160408187031215613fd157600080fd5b60006020828403121561425357600080fd5b5035919050565b6000806040838503121561426d57600080fd5b82359150602083013561400a81613e64565b6020815281511515602082015260018060a01b036020830151166040820152604082015160608201526000606083015160c060808401526142c360e0840182614089565b905060808401516142d760a08501826140be565b5060a08401516142ea60c08501826140be565b509392505050565b6007811061260b57600080fd5b803561430a816142f2565b919050565b6000806040838503121561432257600080fd5b61432c8335613e64565b823591506001600160401b03806020850135111561434957600080fd5b6020840135840185601f82011261435f57600080fd5b61436c613e9a8235613e41565b81358082526020808301929160051b84010188101561438a57600080fd5b602083015b6020843560051b85010181101561448b5784813511156143ae57600080fd5b80358401601f196080828c03820112156143c757600080fd5b6143cf613da5565b6020830135815287604084013511156143e757600080fd5b60408301358301604083828f0301121561440057600080fd5b614408613dcd565b925060208101358352886040820135111561442257600080fd5b6144358d60206040840135840101613f14565b60208401525081602082015261444d606084016142ff565b6040820152876080840135111561446357600080fd5b6144768c60206080860135860101613f14565b6060820152855250506020928301920161438f565b50809450505050509250929050565b6000806000606084860312156144af57600080fd5b83356144ba81613e64565b9250602084013591506040840135613fd1816142f2565b600080604083850312156144e457600080fd5b82356001600160401b03808211156144fb57600080fd5b61450786838701613e79565b935060209150818501358181111561451e57600080fd5b8501601f8101871361452f57600080fd5b803561453d613e9a82613e41565b81815260059190911b8201840190848101908983111561455c57600080fd5b8584015b83811015614594578035868111156145785760008081fd5b6145868c8983890101613f14565b845250918601918601614560565b508096505050505050509250929050565b602080825282518282018190526000919060409081850190868401855b828110156145f057815180516001600160a01b031685528601518685015292840192908501906001016145c2565b5091979650505050505050565b6000806040838503121561461057600080fd5b823561461b81613e64565b9150602083013561400a816142f2565b6000806040838503121561463e57600080fd5b823561464981613e64565b946020939093013593505050565b8481526080602082015260006146706080830186614089565b61467d60408401866140be565b828103606084015261468f818561405d565b979650505050505050565b6000602082840312156146ac57600080fd5b8135614032816142f2565b602081016108d982846140be565b600080604083850312156146d857600080fd5b8235915060208301356001600160401b038111156146f557600080fd5b61470185828601613f14565b9150509250929050565b600181811c9082168061471f57607f821691505b60208210810361473f57634e487b7160e01b600052602260045260246000fd5b50919050565b60006020828403121561475757600080fd5b8151801515811461403257600080fd5b634e487b7160e01b600052603260045260246000fd5b601f8211156108a957600081815260208120601f850160051c810160208610156147a45750805b601f850160051c820191505b818110156147c3578281556001016147b0565b505050505050565b813581556001808201602080850135601e198636030181126147ec57600080fd5b850180356001600160401b0381111561480457600080fd5b803603838301131561481557600080fd5b61482981614823865461470b565b8661477d565b6000601f82116001811461485f576000831561484757508382018501355b600019600385901b1c1916600184901b1786556148b8565b600086815260209020601f19841690835b8281101561488f57868501880135825593870193908901908701614870565b50848210156148ae5760001960f88660031b161c198785880101351681555b50508683881b0186555b505050505050505050565b60018060a01b0384168152826020820152606060408201528135606082015260006020830135601e198436030181126148fb57600080fd5b83016020810190356001600160401b0381111561491757600080fd5b80360382131561492657600080fd5b604060808501528060a0850152808260c0860137600060c0828601015260c0601f19601f83011685010192505050949350505050565b81516001600160401b0381111561497557614975613d8f565b61498981614983845461470b565b8461477d565b602080601f8311600181146149be57600084156149a65750858301515b600019600386901b1c1916600185901b1785556147c3565b600085815260208120601f198616915b828110156149ed578886015182559484019460019091019084016149ce565b5085821015614a0b5787850151600019600388901b60f8161c191681555b5050505050600190811b01905550565b634e487b7160e01b600052601160045260246000fd5b600060018201614a4357614a43614a1b565b5060010190565b80820281158282048414176108d9576108d9614a1b565b600082614a7e57634e487b7160e01b600052601260045260246000fd5b500490565b808201808211156108d9576108d9614a1b565b6000606082018483526020606081850152818551808452608086019150828701935060005b81811015614ae05784516001600160a01b031683529383019391830191600101614abb565b505084810360408601526000815281810193505050509392505050565b6001600160a01b03841681526020810183905260608101612cc060408301846140be565b6001600160a01b03831681526040810161403260208301846140be565b805161430a81613e64565b60006020808385031215614b5c57600080fd5b82516001600160401b0380821115614b7357600080fd5b9084019060808287031215614b8757600080fd5b614b8f613da5565b82518152838301518482015260408084015183811115614bae57600080fd5b84019250601f83018813614bc157600080fd5b8251614bcf613e9a82613e41565b81815260069190911b8401860190868101908a831115614bee57600080fd5b948701945b82861015614c375783868c031215614c0b5760008081fd5b614c13613dcd565b8651614c1e81613e64565b8152868901518982015282529483019490870190614bf3565b808486015250505050614c4c60608401614b3e565b60608201529695505050505050565b828152604060208201526000612cc0604083018461405d565b600082601f830112614c8557600080fd5b8151614c93613e9a82613eed565b818152846020838601011115614ca857600080fd5b612cc0826020830160208701614039565b600060408284031215614ccb57600080fd5b614cd3613dcd565b90508151815260208201516001600160401b03811115614cf257600080fd5b614cfe84828501614c74565b60208301525092915050565b60008060008060808587031215614d2057600080fd5b8451614d2b81613e64565b6020860151909450614d3c81613e64565b6040860151606087015191945092506001600160401b03811115614d5f57600080fd5b614d6b87828801614cb9565b91505092959194509250565b604081526000614d8a604083018561405d565b905060018060a01b03831660208301529392505050565b600060208284031215614db357600080fd5b81516001600160401b0380821115614dca57600080fd5b9083019060c08286031215614dde57600080fd5b614de6613def565b8251815260208301516020820152604083015182811115614e0657600080fd5b614e1287828601614c74565b604083015250606083015182811115614e2a57600080fd5b614e3687828601614cb9565b606083015250614e4860808401614b3e565b6080820152614e5960a08401614b3e565b60a082015295945050505050565b6001600160a01b038416815260608101614e8460208301856140be565b826040830152949350505050565b600060208284031215614ea457600080fd5b81516001600160401b0380821115614ebb57600080fd5b9083019060c08286031215614ecf57600080fd5b614ed7613def565b825181526020830151614ee981613e64565b60208201526040830151614efc81613e64565b6040820152606083015182811115614f1357600080fd5b614f1f87828601614cb9565b6060830152506080830151608082015260a083015160a082015280935050505092915050565b600060208284031215614f5757600080fd5b815161403281613e64565b600080600060608486031215614f7757600080fd5b8351614f8281613e64565b6020850151909350614f93816142f2565b80925050604084015190509250925092565b818103818111156108d9576108d9614a1b56fea264697066735822122095c3dec702e6c086b0e54d4f57ec1e143e6f008ad1a41d8c50358fd53bb8d86364736f6c63430008140033",
  "linkReferences": {},
  "deployedLinkReferences": {}
}