{
  "_format": "hh-sol-artifact-1",
  "contractName": "ExecutorSupplierVotingStrategy",
  "sourceName": "contracts/ExecutorSupplierVotingStrategy.sol",
  "abi": [
    {
      "inputs": [
        {
          "internalType": "address",
          "name": "_allo",
          "type": "address"
        },
        {
          "internalType": "string",
          "name": "_name",
          "type": "string"
        }
      ],
      "stateMutability": "nonpayable",
      "type": "constructor"
    },
    {
      "inputs": [],
      "name": "ALLOCATION_ACTIVE",
      "type": "error"
    },
    {
      "inputs": [],
      "name": "ALLOCATION_EXCEEDS_POOL_AMOUNT",
      "type": "error"
    },
    {
      "inputs": [],
      "name": "ALLOCATION_NOT_ACTIVE",
      "type": "error"
    },
    {
      "inputs": [],
      "name": "ALLOCATION_NOT_ENDED",
      "type": "error"
    },
    {
      "inputs": [],
      "name": "ALREADY_INITIALIZED",
      "type": "error"
    },
    {
      "inputs": [],
      "name": "ALREADY_REVIEWED",
      "type": "error"
    },
    {
      "inputs": [],
      "name": "AMOUNT_MISMATCH",
      "type": "error"
    },
    {
      "inputs": [],
      "name": "ANCHOR_ERROR",
      "type": "error"
    },
    {
      "inputs": [],
      "name": "ARRAY_MISMATCH",
      "type": "error"
    },
    {
      "inputs": [],
      "name": "INVALID",
      "type": "error"
    },
    {
      "inputs": [],
      "name": "INVALID_ADDRESS",
      "type": "error"
    },
    {
      "inputs": [],
      "name": "INVALID_FEE",
      "type": "error"
    },
    {
      "inputs": [],
      "name": "INVALID_METADATA",
      "type": "error"
    },
    {
      "inputs": [],
      "name": "INVALID_MILESTONE",
      "type": "error"
    },
    {
      "inputs": [],
      "name": "INVALID_MILESTONES_PERCENTAGE",
      "type": "error"
    },
    {
      "inputs": [],
      "name": "INVALID_MILESTONE_STATUS",
      "type": "error"
    },
    {
      "inputs": [],
      "name": "INVALID_REGISTRATION",
      "type": "error"
    },
    {
      "inputs": [],
      "name": "IS_APPROVED_STRATEGY",
      "type": "error"
    },
    {
      "inputs": [],
      "name": "MILESTONES_ALREADY_SET",
      "type": "error"
    },
    {
      "inputs": [],
      "name": "MILESTONE_ALREADY_ACCEPTED",
      "type": "error"
    },
    {
      "inputs": [],
      "name": "MISMATCH",
      "type": "error"
    },
    {
      "inputs": [],
      "name": "NONCE_NOT_AVAILABLE",
      "type": "error"
    },
    {
      "inputs": [],
      "name": "NOT_APPROVED_STRATEGY",
      "type": "error"
    },
    {
      "inputs": [],
      "name": "NOT_ENOUGH_FUNDS",
      "type": "error"
    },
    {
      "inputs": [],
      "name": "NOT_IMPLEMENTED",
      "type": "error"
    },
    {
      "inputs": [],
      "name": "NOT_INITIALIZED",
      "type": "error"
    },
    {
      "inputs": [],
      "name": "NOT_PENDING_OWNER",
      "type": "error"
    },
    {
      "inputs": [],
      "name": "POOL_ACTIVE",
      "type": "error"
    },
    {
      "inputs": [],
      "name": "POOL_INACTIVE",
      "type": "error"
    },
    {
      "inputs": [],
      "name": "RECIPIENT_ALREADY_ACCEPTED",
      "type": "error"
    },
    {
      "inputs": [
        {
          "internalType": "address",
          "name": "recipientId",
          "type": "address"
        }
      ],
      "name": "RECIPIENT_ERROR",
      "type": "error"
    },
    {
      "inputs": [],
      "name": "RECIPIENT_NOT_ACCEPTED",
      "type": "error"
    },
    {
      "inputs": [],
      "name": "REGISTRATION_NOT_ACTIVE",
      "type": "error"
    },
    {
      "inputs": [],
      "name": "ReentrancyGuardReentrantCall",
      "type": "error"
    },
    {
      "inputs": [],
      "name": "SUPPLY_IS_ALLOWED_ONLY_ONCE",
      "type": "error"
    },
    {
      "inputs": [],
      "name": "SUPPLY_NOT_FOUND",
      "type": "error"
    },
    {
      "inputs": [],
      "name": "UNAUTHORIZED",
      "type": "error"
    },
    {
      "inputs": [],
      "name": "ZERO_ADDRESS",
      "type": "error"
    },
    {
      "anonymous": false,
      "inputs": [
        {
          "indexed": true,
          "internalType": "address",
          "name": "recipientId",
          "type": "address"
        },
        {
          "indexed": false,
          "internalType": "uint256",
          "name": "amount",
          "type": "uint256"
        },
        {
          "indexed": false,
          "internalType": "address",
          "name": "token",
          "type": "address"
        },
        {
          "indexed": false,
          "internalType": "address",
          "name": "sender",
          "type": "address"
        }
      ],
      "name": "Allocated",
      "type": "event"
    },
    {
      "anonymous": false,
      "inputs": [
        {
          "indexed": true,
          "internalType": "address",
          "name": "recipientId",
          "type": "address"
        },
        {
          "indexed": false,
          "internalType": "address",
          "name": "recipientAddress",
          "type": "address"
        },
        {
          "indexed": false,
          "internalType": "uint256",
          "name": "amount",
          "type": "uint256"
        },
        {
          "indexed": false,
          "internalType": "address",
          "name": "sender",
          "type": "address"
        }
      ],
      "name": "Distributed",
      "type": "event"
    },
    {
      "anonymous": false,
      "inputs": [
        {
          "indexed": false,
          "internalType": "uint256",
          "name": "poolId",
          "type": "uint256"
        },
        {
          "indexed": false,
          "internalType": "bytes",
          "name": "data",
          "type": "bytes"
        }
      ],
      "name": "Initialized",
      "type": "event"
    },
    {
      "anonymous": false,
      "inputs": [
        {
          "indexed": false,
          "internalType": "address",
          "name": "recipientId",
          "type": "address"
        },
        {
          "indexed": false,
          "internalType": "uint256",
          "name": "milestoneId",
          "type": "uint256"
        },
        {
          "indexed": false,
          "internalType": "enum IStrategy.Status",
          "name": "status",
          "type": "uint8"
        }
      ],
      "name": "MilestoneStatusChanged",
      "type": "event"
    },
    {
      "anonymous": false,
      "inputs": [
        {
          "indexed": false,
          "internalType": "address",
          "name": "recipientId",
          "type": "address"
        },
        {
          "indexed": false,
          "internalType": "uint256",
          "name": "milestoneId",
          "type": "uint256"
        },
        {
          "components": [
            {
              "internalType": "uint256",
              "name": "protocol",
              "type": "uint256"
            },
            {
              "internalType": "string",
              "name": "pointer",
              "type": "string"
            }
          ],
          "indexed": false,
          "internalType": "struct Metadata",
          "name": "metadata",
          "type": "tuple"
        }
      ],
      "name": "MilestoneSubmitted",
      "type": "event"
    },
    {
      "anonymous": false,
      "inputs": [
        {
          "indexed": false,
          "internalType": "address",
          "name": "recipientId",
          "type": "address"
        },
        {
          "indexed": false,
          "internalType": "uint256",
          "name": "milestonesLength",
          "type": "uint256"
        }
      ],
      "name": "MilestonesOffered",
      "type": "event"
    },
    {
      "anonymous": false,
      "inputs": [
        {
          "indexed": false,
          "internalType": "address",
          "name": "recipientId",
          "type": "address"
        },
        {
          "indexed": false,
          "internalType": "enum IStrategy.Status",
          "name": "status",
          "type": "uint8"
        }
      ],
      "name": "MilestonesReviewed",
      "type": "event"
    },
    {
      "anonymous": false,
      "inputs": [
        {
          "indexed": false,
          "internalType": "address",
          "name": "recipientId",
          "type": "address"
        },
        {
          "indexed": false,
          "internalType": "uint256",
          "name": "milestonesLength",
          "type": "uint256"
        }
      ],
      "name": "MilestonesSet",
      "type": "event"
    },
    {
      "anonymous": false,
      "inputs": [
        {
          "indexed": false,
          "internalType": "address",
          "name": "recipientId",
          "type": "address"
        }
      ],
      "name": "OfferedMilestonesAccepted",
      "type": "event"
    },
    {
      "anonymous": false,
      "inputs": [
        {
          "indexed": false,
          "internalType": "address",
          "name": "recipientId",
          "type": "address"
        }
      ],
      "name": "OfferedMilestonesRejected",
      "type": "event"
    },
    {
      "anonymous": false,
      "inputs": [
        {
          "indexed": false,
          "internalType": "bool",
          "name": "active",
          "type": "bool"
        }
      ],
      "name": "PoolActive",
      "type": "event"
    },
    {
      "anonymous": false,
      "inputs": [
        {
          "indexed": false,
          "internalType": "address",
          "name": "recipientId",
          "type": "address"
        },
        {
          "indexed": false,
          "internalType": "enum IStrategy.Status",
          "name": "status",
          "type": "uint8"
        }
      ],
      "name": "RecipientStatusChanged",
      "type": "event"
    },
    {
      "anonymous": false,
      "inputs": [
        {
          "indexed": true,
          "internalType": "address",
          "name": "recipientId",
          "type": "address"
        },
        {
          "indexed": false,
          "internalType": "bytes",
          "name": "data",
          "type": "bytes"
        },
        {
          "indexed": false,
          "internalType": "address",
          "name": "sender",
          "type": "address"
        }
      ],
      "name": "Registered",
      "type": "event"
    },
    {
      "anonymous": false,
      "inputs": [
        {
          "indexed": false,
          "internalType": "address",
          "name": "recipientId",
          "type": "address"
        },
        {
          "indexed": false,
          "internalType": "uint256",
          "name": "milestoneId",
          "type": "uint256"
        },
        {
          "indexed": false,
          "internalType": "enum IStrategy.Status",
          "name": "status",
          "type": "uint8"
        }
      ],
      "name": "SubmittedvMilestoneReviewed",
      "type": "event"
    },
    {
      "inputs": [],
      "name": "NATIVE",
      "outputs": [
        {
          "internalType": "address",
          "name": "",
          "type": "address"
        }
      ],
      "stateMutability": "view",
      "type": "function"
    },
    {
      "inputs": [
        {
          "internalType": "bytes",
          "name": "_data",
          "type": "bytes"
        },
        {
          "internalType": "address",
          "name": "_sender",
          "type": "address"
        }
      ],
      "name": "allocate",
      "outputs": [],
      "stateMutability": "payable",
      "type": "function"
    },
    {
      "inputs": [],
      "name": "allocatedGrantAmount",
      "outputs": [
        {
          "internalType": "uint256",
          "name": "",
          "type": "uint256"
        }
      ],
      "stateMutability": "view",
      "type": "function"
    },
    {
      "inputs": [
        {
          "internalType": "address[]",
          "name": "_recipientIds",
          "type": "address[]"
        },
        {
          "internalType": "bytes",
          "name": "_data",
          "type": "bytes"
        },
        {
          "internalType": "address",
          "name": "_sender",
          "type": "address"
        }
      ],
      "name": "distribute",
      "outputs": [],
      "stateMutability": "nonpayable",
      "type": "function"
    },
    {
      "inputs": [],
      "name": "getAllo",
      "outputs": [
        {
          "internalType": "contract IAllo",
          "name": "",
          "type": "address"
        }
      ],
      "stateMutability": "view",
      "type": "function"
    },
    {
      "inputs": [
        {
          "internalType": "address",
          "name": "_recipientId",
          "type": "address"
        },
        {
          "internalType": "uint256",
          "name": "_milestoneId",
          "type": "uint256"
        }
      ],
      "name": "getMilestoneStatus",
      "outputs": [
        {
          "internalType": "enum IStrategy.Status",
          "name": "",
          "type": "uint8"
        }
      ],
      "stateMutability": "view",
      "type": "function"
    },
    {
      "inputs": [
        {
          "internalType": "address",
          "name": "_recipientId",
          "type": "address"
        }
      ],
      "name": "getMilestones",
      "outputs": [
        {
          "components": [
            {
              "internalType": "uint256",
              "name": "amountPercentage",
              "type": "uint256"
            },
            {
              "components": [
                {
                  "internalType": "uint256",
                  "name": "protocol",
                  "type": "uint256"
                },
                {
                  "internalType": "string",
                  "name": "pointer",
                  "type": "string"
                }
              ],
              "internalType": "struct Metadata",
              "name": "metadata",
              "type": "tuple"
            },
            {
              "internalType": "enum IStrategy.Status",
              "name": "milestoneStatus",
              "type": "uint8"
            },
            {
              "internalType": "string",
              "name": "description",
              "type": "string"
            }
          ],
          "internalType": "struct ExecutorSupplierVotingStrategy.Milestone[]",
          "name": "",
          "type": "tuple[]"
        }
      ],
      "stateMutability": "view",
      "type": "function"
    },
    {
      "inputs": [
        {
          "internalType": "address",
          "name": "_recipientId",
          "type": "address"
        }
      ],
      "name": "getOffeeredMilestones",
      "outputs": [
        {
          "components": [
            {
              "internalType": "uint256",
              "name": "amountPercentage",
              "type": "uint256"
            },
            {
              "components": [
                {
                  "internalType": "uint256",
                  "name": "protocol",
                  "type": "uint256"
                },
                {
                  "internalType": "string",
                  "name": "pointer",
                  "type": "string"
                }
              ],
              "internalType": "struct Metadata",
              "name": "metadata",
              "type": "tuple"
            },
            {
              "internalType": "enum IStrategy.Status",
              "name": "milestoneStatus",
              "type": "uint8"
            },
            {
              "internalType": "string",
              "name": "description",
              "type": "string"
            }
          ],
          "internalType": "struct ExecutorSupplierVotingStrategy.Milestone[]",
          "name": "",
          "type": "tuple[]"
        }
      ],
      "stateMutability": "view",
      "type": "function"
    },
    {
      "inputs": [
        {
          "internalType": "address",
          "name": "_recipientId",
          "type": "address"
        }
      ],
      "name": "getOfferedMilestonesVotesAgainst",
      "outputs": [
        {
          "internalType": "uint256",
          "name": "",
          "type": "uint256"
        }
      ],
      "stateMutability": "view",
      "type": "function"
    },
    {
      "inputs": [
        {
          "internalType": "address",
          "name": "_recipientId",
          "type": "address"
        }
      ],
      "name": "getOfferedMilestonesVotesFor",
      "outputs": [
        {
          "internalType": "uint256",
          "name": "",
          "type": "uint256"
        }
      ],
      "stateMutability": "view",
      "type": "function"
    },
    {
      "inputs": [
        {
          "internalType": "address[]",
          "name": "_recipientIds",
          "type": "address[]"
        },
        {
          "internalType": "bytes[]",
          "name": "_data",
          "type": "bytes[]"
        }
      ],
      "name": "getPayouts",
      "outputs": [
        {
          "components": [
            {
              "internalType": "address",
              "name": "recipientAddress",
              "type": "address"
            },
            {
              "internalType": "uint256",
              "name": "amount",
              "type": "uint256"
            }
          ],
          "internalType": "struct IStrategy.PayoutSummary[]",
          "name": "",
          "type": "tuple[]"
        }
      ],
      "stateMutability": "view",
      "type": "function"
    },
    {
      "inputs": [],
      "name": "getPoolAmount",
      "outputs": [
        {
          "internalType": "uint256",
          "name": "",
          "type": "uint256"
        }
      ],
      "stateMutability": "view",
      "type": "function"
    },
    {
      "inputs": [],
      "name": "getPoolId",
      "outputs": [
        {
          "internalType": "uint256",
          "name": "",
          "type": "uint256"
        }
      ],
      "stateMutability": "view",
      "type": "function"
    },
    {
      "inputs": [
        {
          "internalType": "address",
          "name": "_recipientId",
          "type": "address"
        }
      ],
      "name": "getRecipient",
      "outputs": [
        {
          "components": [
            {
              "internalType": "bool",
              "name": "useRegistryAnchor",
              "type": "bool"
            },
            {
              "internalType": "address",
              "name": "recipientAddress",
              "type": "address"
            },
            {
              "internalType": "uint256",
              "name": "grantAmount",
              "type": "uint256"
            },
            {
              "components": [
                {
                  "internalType": "uint256",
                  "name": "protocol",
                  "type": "uint256"
                },
                {
                  "internalType": "string",
                  "name": "pointer",
                  "type": "string"
                }
              ],
              "internalType": "struct Metadata",
              "name": "metadata",
              "type": "tuple"
            },
            {
              "internalType": "enum IStrategy.Status",
              "name": "recipientStatus",
              "type": "uint8"
            },
            {
              "internalType": "enum IStrategy.Status",
              "name": "milestonesReviewStatus",
              "type": "uint8"
            }
          ],
          "internalType": "struct ExecutorSupplierVotingStrategy.Recipient",
          "name": "",
          "type": "tuple"
        }
      ],
      "stateMutability": "view",
      "type": "function"
    },
    {
      "inputs": [
        {
          "internalType": "address",
          "name": "_recipientId",
          "type": "address"
        }
      ],
      "name": "getRecipientStatus",
      "outputs": [
        {
          "internalType": "enum IStrategy.Status",
          "name": "",
          "type": "uint8"
        }
      ],
      "stateMutability": "view",
      "type": "function"
    },
    {
      "inputs": [],
      "name": "getStrategyId",
      "outputs": [
        {
          "internalType": "bytes32",
          "name": "",
          "type": "bytes32"
        }
      ],
      "stateMutability": "view",
      "type": "function"
    },
    {
      "inputs": [
        {
          "internalType": "uint256",
          "name": "_milestoneId",
          "type": "uint256"
        }
      ],
      "name": "getSubmittedMilestonesVotesAgainst",
      "outputs": [
        {
          "internalType": "uint256",
          "name": "",
          "type": "uint256"
        }
      ],
      "stateMutability": "view",
      "type": "function"
    },
    {
      "inputs": [
        {
          "internalType": "uint256",
          "name": "_milestoneId",
          "type": "uint256"
        }
      ],
      "name": "getSubmittedMilestonesVotesFor",
      "outputs": [
        {
          "internalType": "uint256",
          "name": "",
          "type": "uint256"
        }
      ],
      "stateMutability": "view",
      "type": "function"
    },
    {
      "inputs": [
        {
          "internalType": "address",
          "name": "_recipientId",
          "type": "address"
        },
        {
          "internalType": "address",
          "name": "_supplier",
          "type": "address"
        }
      ],
      "name": "getSupplierOfferedMilestonesVote",
      "outputs": [
        {
          "internalType": "uint256",
          "name": "",
          "type": "uint256"
        }
      ],
      "stateMutability": "view",
      "type": "function"
    },
    {
      "inputs": [
        {
          "internalType": "uint256",
          "name": "_milestoneId",
          "type": "uint256"
        },
        {
          "internalType": "address",
          "name": "_supplier",
          "type": "address"
        }
      ],
      "name": "getSupplierSubmittedMilestonesVote",
      "outputs": [
        {
          "internalType": "uint256",
          "name": "",
          "type": "uint256"
        }
      ],
      "stateMutability": "view",
      "type": "function"
    },
    {
      "inputs": [
        {
          "internalType": "address",
          "name": "_recipientId",
          "type": "address"
        }
      ],
      "name": "getUpcomingMilestone",
      "outputs": [
        {
          "internalType": "uint256",
          "name": "",
          "type": "uint256"
        }
      ],
      "stateMutability": "view",
      "type": "function"
    },
    {
      "inputs": [],
      "name": "grantAmountRequired",
      "outputs": [
        {
          "internalType": "bool",
          "name": "",
          "type": "bool"
        }
      ],
      "stateMutability": "view",
      "type": "function"
    },
    {
      "inputs": [
        {
          "internalType": "uint256",
          "name": "_amount",
          "type": "uint256"
        }
      ],
      "name": "increasePoolAmount",
      "outputs": [],
      "stateMutability": "nonpayable",
      "type": "function"
    },
    {
      "inputs": [
        {
          "internalType": "uint256",
          "name": "_poolId",
          "type": "uint256"
        },
        {
          "internalType": "bytes",
          "name": "_data",
          "type": "bytes"
        }
      ],
      "name": "initialize",
      "outputs": [],
      "stateMutability": "nonpayable",
      "type": "function"
    },
    {
      "inputs": [],
      "name": "isPoolActive",
      "outputs": [
        {
          "internalType": "bool",
          "name": "",
          "type": "bool"
        }
      ],
      "stateMutability": "view",
      "type": "function"
    },
    {
      "inputs": [
        {
          "internalType": "address",
          "name": "_allocator",
          "type": "address"
        }
      ],
      "name": "isValidAllocator",
      "outputs": [
        {
          "internalType": "bool",
          "name": "",
          "type": "bool"
        }
      ],
      "stateMutability": "view",
      "type": "function"
    },
    {
      "inputs": [],
      "name": "metadataRequired",
      "outputs": [
        {
          "internalType": "bool",
          "name": "",
          "type": "bool"
        }
      ],
      "stateMutability": "view",
      "type": "function"
    },
    {
      "inputs": [
        {
          "internalType": "address",
          "name": "",
          "type": "address"
        },
        {
          "internalType": "uint256",
          "name": "",
          "type": "uint256"
        }
      ],
      "name": "milestones",
      "outputs": [
        {
          "internalType": "uint256",
          "name": "amountPercentage",
          "type": "uint256"
        },
        {
          "components": [
            {
              "internalType": "uint256",
              "name": "protocol",
              "type": "uint256"
            },
            {
              "internalType": "string",
              "name": "pointer",
              "type": "string"
            }
          ],
          "internalType": "struct Metadata",
          "name": "metadata",
          "type": "tuple"
        },
        {
          "internalType": "enum IStrategy.Status",
          "name": "milestoneStatus",
          "type": "uint8"
        },
        {
          "internalType": "string",
          "name": "description",
          "type": "string"
        }
      ],
      "stateMutability": "view",
      "type": "function"
    },
    {
      "inputs": [
        {
          "internalType": "address",
          "name": "_recipientId",
          "type": "address"
        },
        {
          "components": [
            {
              "internalType": "uint256",
              "name": "amountPercentage",
              "type": "uint256"
            },
            {
              "components": [
                {
                  "internalType": "uint256",
                  "name": "protocol",
                  "type": "uint256"
                },
                {
                  "internalType": "string",
                  "name": "pointer",
                  "type": "string"
                }
              ],
              "internalType": "struct Metadata",
              "name": "metadata",
              "type": "tuple"
            },
            {
              "internalType": "enum IStrategy.Status",
              "name": "milestoneStatus",
              "type": "uint8"
            },
            {
              "internalType": "string",
              "name": "description",
              "type": "string"
            }
          ],
          "internalType": "struct ExecutorSupplierVotingStrategy.Milestone[]",
          "name": "_milestones",
          "type": "tuple[]"
        }
      ],
      "name": "offerMilestones",
      "outputs": [],
      "stateMutability": "nonpayable",
      "type": "function"
    },
    {
      "inputs": [
        {
          "internalType": "bytes",
          "name": "_data",
          "type": "bytes"
        },
        {
          "internalType": "address",
          "name": "_sender",
          "type": "address"
        }
      ],
      "name": "registerRecipient",
      "outputs": [
        {
          "internalType": "address",
          "name": "recipientId",
          "type": "address"
        }
      ],
      "stateMutability": "payable",
      "type": "function"
    },
    {
      "inputs": [],
      "name": "registryGating",
      "outputs": [
        {
          "internalType": "bool",
          "name": "",
          "type": "bool"
        }
      ],
      "stateMutability": "view",
      "type": "function"
    },
    {
      "inputs": [
        {
          "internalType": "address",
          "name": "_recipientId",
          "type": "address"
        },
        {
          "internalType": "enum IStrategy.Status",
          "name": "_status",
          "type": "uint8"
        }
      ],
      "name": "reviewOfferedtMilestones",
      "outputs": [],
      "stateMutability": "nonpayable",
      "type": "function"
    },
    {
      "inputs": [
        {
          "internalType": "address",
          "name": "_recipientId",
          "type": "address"
        },
        {
          "internalType": "uint256",
          "name": "_milestoneId",
          "type": "uint256"
        },
        {
          "internalType": "enum IStrategy.Status",
          "name": "_status",
          "type": "uint8"
        }
      ],
      "name": "reviewSubmitedMilestone",
      "outputs": [],
      "stateMutability": "nonpayable",
      "type": "function"
    },
    {
      "inputs": [
        {
          "internalType": "bool",
          "name": "_flag",
          "type": "bool"
        }
      ],
      "name": "setPoolActive",
      "outputs": [],
      "stateMutability": "nonpayable",
      "type": "function"
    },
    {
      "inputs": [
        {
          "internalType": "uint256",
          "name": "_newPercentage",
          "type": "uint256"
        },
        {
          "internalType": "bytes32",
          "name": "_profileId",
          "type": "bytes32"
        }
      ],
      "name": "setThresholdPercentage",
      "outputs": [],
      "stateMutability": "nonpayable",
      "type": "function"
    },
    {
      "inputs": [
        {
          "internalType": "address",
          "name": "_recipientId",
          "type": "address"
        },
        {
          "internalType": "uint256",
          "name": "_milestoneId",
          "type": "uint256"
        },
        {
          "components": [
            {
              "internalType": "uint256",
              "name": "protocol",
              "type": "uint256"
            },
            {
              "internalType": "string",
              "name": "pointer",
              "type": "string"
            }
          ],
          "internalType": "struct Metadata",
          "name": "_metadata",
          "type": "tuple"
        }
      ],
      "name": "submitMilestone",
      "outputs": [],
      "stateMutability": "nonpayable",
      "type": "function"
    },
    {
      "inputs": [
        {
          "internalType": "uint256",
          "name": "",
          "type": "uint256"
        }
      ],
      "name": "submittedvMilestones",
      "outputs": [
        {
          "internalType": "uint256",
          "name": "votesFor",
          "type": "uint256"
        },
        {
          "internalType": "uint256",
          "name": "votesAgainst",
          "type": "uint256"
        }
      ],
      "stateMutability": "view",
      "type": "function"
    },
    {
      "inputs": [],
      "name": "thresholdPercentage",
      "outputs": [
        {
          "internalType": "uint256",
          "name": "",
          "type": "uint256"
        }
      ],
      "stateMutability": "view",
      "type": "function"
    },
    {
      "inputs": [],
      "name": "totalSupply",
      "outputs": [
        {
          "internalType": "uint256",
          "name": "",
          "type": "uint256"
        }
      ],
      "stateMutability": "view",
      "type": "function"
    },
    {
      "inputs": [
        {
          "internalType": "address",
          "name": "",
          "type": "address"
        }
      ],
      "name": "upcomingMilestone",
      "outputs": [
        {
          "internalType": "uint256",
          "name": "",
          "type": "uint256"
        }
      ],
      "stateMutability": "view",
      "type": "function"
    },
    {
      "stateMutability": "payable",
      "type": "receive"
    }
  ],
  "bytecode": "0x60c060405260466006553480156200001657600080fd5b5060405162004c9238038062004c928339810160408190526200003991620000c4565b6001600160a01b038216608052604051829082906200005d9082906020016200019f565b60408051601f19818403018152919052805160209091012060a0525050600160035550620001d49050565b634e487b7160e01b600052604160045260246000fd5b60005b83811015620000bb578181015183820152602001620000a1565b50506000910152565b60008060408385031215620000d857600080fd5b82516001600160a01b0381168114620000f057600080fd5b60208401519092506001600160401b03808211156200010e57600080fd5b818501915085601f8301126200012357600080fd5b81518181111562000138576200013862000088565b604051601f8201601f19908116603f0116810190838211818310171562000163576200016362000088565b816040528281528860208487010111156200017d57600080fd5b620001908360208301602088016200009e565b80955050505050509250929050565b6020815260008251806020840152620001c08160408501602087016200009e565b601f01601f19169190910160400192915050565b60805160a051614a6062000232600039600061044001526000818161027c0152818161162501528181612129015281816125710152818161294501528181612beb01528181612e590152818161301b01526134550152614a606000f3fe60806040526004361061023f5760003560e01c80639ffaa8751161012e578063df868ed3116100ab578063edd146cc1161006f578063edd146cc146107b8578063ee120300146107d8578063ef2920fc14610808578063f5b0dfb71461081b578063f83067e71461083b57600080fd5b8063df868ed3146106f7578063e2372b581461070f578063e477b6bd1461073c578063e8eeb80614610775578063eb11af931461078b57600080fd5b8063b5f620ce116100f2578063b5f620ce14610622578063c1aaf44a14610642578063c7a892bf1461066f578063cb0e85a61461069f578063cb2415fb146106be57600080fd5b80639ffaa87514610573578063a0cf0aea14610593578063a647d23e146105bb578063b2b878d0146105d5578063b3eae7ab1461060257600080fd5b80633bf3577d116101bc5780634ed2859e116101805780634ed2859e146104a9578063605e1c66146104bf57806362812a391461050657806378f0184d146105335780639be2ccf51461055357600080fd5b80633bf3577d146103c8578063404e73e2146103e857806342fda9c7146104315780634ab4ba42146104645780634d31d0871461047957600080fd5b80632a835b4b116102035780632a835b4b1461032a5780632bbe0cae1461034a5780632ff0e6c41461035d57806336592c0e1461039357806338fff2d0146103b357600080fd5b80630a6f0ee91461024b57806315cc481e1461026d57806318160ddd146102b9578063197ea814146102dd57806322a4e42d146102fd57600080fd5b3661024657005b600080fd5b34801561025757600080fd5b5061026b6102663660046139b8565b61085b565b005b34801561027957600080fd5b507f00000000000000000000000000000000000000000000000000000000000000005b6040516001600160a01b0390911681526020015b60405180910390f35b3480156102c557600080fd5b506102cf60055481565b6040519081526020016102b0565b3480156102e957600080fd5b506102cf6102f8366004613a2f565b61087b565b34801561030957600080fd5b5061031d610318366004613a68565b6108ac565b6040516102b09190613b33565b34801561033657600080fd5b5061026b610345366004613bd8565b610aa0565b61029c610358366004613bfa565b610b9f565b34801561036957600080fd5b506102cf610378366004613a68565b6001600160a01b03166000908152600f602052604090205490565b34801561039f57600080fd5b5061031d6103ae366004613a68565b610bc2565b3480156103bf57600080fd5b506001546102cf565b3480156103d457600080fd5b5061026b6103e3366004613c40565b610dab565b3480156103f457600080fd5b5061041c610403366004613c94565b6010602052600090815260409020805460019091015482565b604080519283526020830191909152016102b0565b34801561043d57600080fd5b507f00000000000000000000000000000000000000000000000000000000000000006102cf565b34801561047057600080fd5b506002546102cf565b34801561048557600080fd5b50610499610494366004613a68565b61106c565b60405190151581526020016102b0565b3480156104b557600080fd5b506102cf60065481565b3480156104cb57600080fd5b506102cf6104da366004613cad565b60008281526010602090815260408083206001600160a01b038516845260020190915290205492915050565b34801561051257600080fd5b50610526610521366004613a68565b611077565b6040516102b09190613cd2565b34801561053f57600080fd5b5061026b61054e366004613d62565b611088565b34801561055f57600080fd5b506004546104999062010000900460ff1681565b34801561057f57600080fd5b5061026b61058e366004613eed565b611284565b34801561059f57600080fd5b5061029c73eeeeeeeeeeeeeeeeeeeeeeeeeeeeeeeeeeeeeeee81565b3480156105c757600080fd5b506004546104999060ff1681565b3480156105e157600080fd5b506105f56105f0366004613f24565b61185a565b6040516102b09190613ff8565b34801561060e57600080fd5b5061026b61061d366004614050565b611958565b34801561062e57600080fd5b5061026b61063d36600461408c565b611e55565b34801561064e57600080fd5b506102cf61065d366004613c94565b60009081526010602052604090205490565b34801561067b57600080fd5b5061068f61068a3660046140a9565b611ea1565b6040516102b094939291906140d5565b3480156106ab57600080fd5b5060045461049990610100900460ff1681565b3480156106ca57600080fd5b506102cf6106d9366004613a68565b6001600160a01b03166000908152600d602052604090206002015490565b34801561070357600080fd5b5060005460ff16610499565b34801561071b57600080fd5b506102cf61072a366004613a68565b600f6020526000908152604090205481565b34801561074857600080fd5b506102cf610757366004613a68565b6001600160a01b03166000908152600d602052604090206001015490565b34801561078157600080fd5b506102cf60085481565b34801561079757600080fd5b506107ab6107a6366004613a68565b612023565b6040516102b09190614118565b3480156107c457600080fd5b5061026b6107d3366004614126565b61202e565b3480156107e457600080fd5b506102cf6107f3366004613c94565b60009081526010602052604090206001015490565b61026b610816366004613bfa565b61208e565b34801561082757600080fd5b5061026b610836366004613c94565b6120ac565b34801561084757600080fd5b506107ab6108563660046140a9565b6120d6565b61086361211e565b61086b612169565b61087683838361218c565b505050565b6001600160a01b038083166000908152600d6020908152604080832093851683526003909301905220545b92915050565b6001600160a01b0381166000908152600e60209081526040808320805482518185028101850190935280835260609492939192909184015b82821015610a95578382906000526020600020906005020160405180608001604052908160008201548152602001600182016040518060400160405290816000820154815260200160018201805461093b9061416c565b80601f01602080910402602001604051908101604052809291908181526020018280546109679061416c565b80156109b45780601f10610989576101008083540402835291602001916109b4565b820191906000526020600020905b81548152906001019060200180831161099757829003601f168201915b505050919092525050508152600382015460209091019060ff1660068111156109df576109df613afb565b60068111156109f0576109f0613afb565b8152602001600482018054610a049061416c565b80601f0160208091040260200160405190810160405280929190818152602001828054610a309061416c565b8015610a7d5780601f10610a5257610100808354040283529160200191610a7d565b820191906000526020600020905b815481529060010190602001808311610a6057829003601f168201915b505050505081525050815260200190600101906108e4565b505050509050919050565b600754604051630e6e1ae360e21b8152600481018390523360248201526001600160a01b03909116906339b86b8c90604401602060405180830381865afa158015610aef573d6000803e3d6000fd5b505050506040513d601f19601f82011682018060405250810190610b1391906141a6565b610b535760405162461bcd60e51b815260206004820152600c60248201526b15539055551213d49256915160a21b60448201526064015b60405180910390fd5b6064821115610b995760405162461bcd60e51b8152602060048201526012602482015271496e76616c69642070657263656e7461676560701b6044820152606401610b4a565b50600655565b6000610ba961211e565b610bb1612169565b610bbb8383612223565b90506108a6565b6001600160a01b0381166000908152600d60209081526040808320805482518185028101850190935280835260609492939192909184015b82821015610a955783829060005260206000209060050201604051806080016040529081600082015481526020016001820160405180604001604052908160008201548152602001600182018054610c519061416c565b80601f0160208091040260200160405190810160405280929190818152602001828054610c7d9061416c565b8015610cca5780601f10610c9f57610100808354040283529160200191610cca565b820191906000526020600020905b815481529060010190602001808311610cad57829003601f168201915b505050919092525050508152600382015460209091019060ff166006811115610cf557610cf5613afb565b6006811115610d0657610d06613afb565b8152602001600482018054610d1a9061416c565b80601f0160208091040260200160405190810160405280929190818152602001828054610d469061416c565b8015610d935780601f10610d6857610100808354040283529160200191610d93565b820191906000526020600020905b815481529060010190602001808311610d7657829003601f168201915b50505050508152505081526020019060010190610bfa565b6001600160a01b0383163314610dd45760405163075fd2b160e01b815260040160405180910390fd5b6001600160a01b038084166000908152600b60209081526040808320815160c081018352815460ff8116151582526101009004909516858401526001810154858301528151808301909252600281018054835260038201805495969592946060870194939084019190610e469061416c565b80601f0160208091040260200160405190810160405280929190818152602001828054610e729061416c565b8015610ebf5780601f10610e9457610100808354040283529160200191610ebf565b820191906000526020600020905b815481529060010190602001808311610ea257829003601f168201915b505050919092525050508152600482015460209091019060ff166006811115610eea57610eea613afb565b6006811115610efb57610efb613afb565b81526020016004820160019054906101000a900460ff166006811115610f2357610f23613afb565b6006811115610f3457610f34613afb565b9052509050600281608001516006811115610f5157610f51613afb565b14610f6f5760405163392c16fb60e21b815260040160405180910390fd5b6001600160a01b0384166000908152600e602052604090208054841115610fa957604051632f1f68e160e11b815260040160405180910390fd5b6000818581548110610fbd57610fbd6141c3565b6000918252602090912060059091020190506002600382015460ff166006811115610fea57610fea613afb565b0361100857604051637f46ed2760e11b815260040160405180910390fd5b83600182016110178282614227565b505060038101805460ff191660011790556040517f8673cfb5a2cbad812463bdfd7c85511f29c804579a86d318889ab925155399619061105c9088908890889061431f565b60405180910390a1505050505050565b60006108a682612554565b61107f6136d5565b6108a6826125f9565b6000336001600160a01b03841614806110a657506110a68333612769565b9050806110c65760405163075fd2b160e01b815260040160405180910390fd5b6001600160a01b0383166000908152600b602052604090206002600482015460ff1660068111156110f9576110f9613afb565b146111175760405163392c16fb60e21b815260040160405180910390fd5b60026004820154610100900460ff16600681111561113757611137613afb565b03611155576040516305ca31d360e51b815260040160405180910390fd5b61115e84612861565b60005b8351811015611238576001600160a01b0385166000908152600d602052604090208451859083908110611196576111966141c3565b602090810291909101810151825460018181018555600094855293839020825160059092020190815581830151805194820194855592830151919390929160028401906111e390826143b8565b505050604082015160038201805460ff1916600183600681111561120957611209613afb565b02179055506060820151600482019061122290826143b8565b50505080806112309061448d565b915050611161565b508251604080516001600160a01b038716815260208101929092527f8a5603111f154f43104afe04452c6a93024a972cb6a0af72e6f38bcce68625d5910160405180910390a150505050565b3361128e8161291b565b6000838152601060209081526040808320338452600201909152902054156112c95760405163448bae6f60e01b815260040160405180910390fd5b6001600160a01b038085166000908152600b60209081526040808320815160c081018352815460ff811615158252610100900490951685840152600181015485830152815180830190925260028101805483526003820180549596959294606087019493908401919061133b9061416c565b80601f01602080910402602001604051908101604052809291908181526020018280546113679061416c565b80156113b45780601f10611389576101008083540402835291602001916113b4565b820191906000526020600020905b81548152906001019060200180831161139757829003601f168201915b505050919092525050508152600482015460209091019060ff1660068111156113df576113df613afb565b60068111156113f0576113f0613afb565b81526020016004820160019054906101000a900460ff16600681111561141857611418613afb565b600681111561142957611429613afb565b905250905060028160800151600681111561144657611446613afb565b146114645760405163392c16fb60e21b815260040160405180910390fd5b6001600160a01b0385166000908152600e60205260409020805485111561149e57604051632f1f68e160e11b815260040160405180910390fd5b60008186815481106114b2576114b26141c3565b6000918252602090912060059091020190506001600382015460ff1660068111156114df576114df613afb565b146114fd57604051635b2fe71d60e11b815260040160405180910390fd5b336000908152600c6020526040812054600654600554919291606491611522916144a6565b61152c91906144bd565b6000898152601060209081526040808320338452600290810190925290912084905590915087600681111561156357611563613afb565b036116d057600088815260106020526040812080548492906115869084906144df565b90915550506000888152601060205260409020548110156116cb5760038301805488919060ff191660018360068111156115c2576115c2613afb565b02179055506040805160018082528183019092526000916020808301908036833701905050905089816000815181106115fd576115fd6141c3565b6001600160a01b039283166020918202929092010152600154604051631d2fdec960e11b81527f000000000000000000000000000000000000000000000000000000000000000090921691633a5fbd929161165c9185906004016144f2565b600060405180830381600087803b15801561167657600080fd5b505af115801561168a573d6000803e3d6000fd5b505050507ff1af82b65c631a030029b10ea8f00f68290285c7c797644155b8f23969ca1d638a8a8a6040516116c193929190614559565b60405180910390a1505b611814565b60038760068111156116e4576116e4613afb565b03611814576000888152601060205260408120600101805484929061170a9084906144df565b90915550506000888152601060205260409020600101548110156118145760038301805488919060ff1916600183600681111561174957611749613afb565b021790555060005b600a548110156117bf576000601060008b81526020019081526020016000206002016000600a8481548110611788576117886141c3565b60009182526020808320909101546001600160a01b03168352820192909252604001902055806117b78161448d565b915050611751565b5060008881526010602052604080822082815560010191909155517ff1af82b65c631a030029b10ea8f00f68290285c7c797644155b8f23969ca1d639061180b908b908b908b90614559565b60405180910390a15b7f4460beb477b3843656610a89bd67c551d2a78131b5a955ddccd5eb9aa218c8c389898960405161184793929190614559565b60405180910390a1505050505050505050565b8151815160609190811461188157604051633da4c02b60e11b815260040160405180910390fd5b6000816001600160401b0381111561189b5761189b6137e2565b6040519080825280602002602001820160405280156118e057816020015b60408051808201909152600080825260208201528152602001906001900390816118b95790505b50905060005b8281101561194f5761192a868281518110611903576119036141c3565b602002602001015186838151811061191d5761191d6141c3565b60200260200101516129cd565b82828151811061193c5761193c6141c3565b60209081029190910101526001016118e6565b50949350505050565b336119628161291b565b6001600160a01b0383166000908152600d60209081526040808320338452600301909152902054156119a75760405163448bae6f60e01b815260040160405180910390fd5b6001600160a01b0383166000908152600b6020526040902060026004820154610100900460ff1660068111156119df576119df613afb565b036119fd576040516305ca31d360e51b815260040160405180910390fd5b336000908152600c6020526040812054600654600554919291606491611a22916144a6565b611a2c91906144bd565b6001600160a01b0387166000908152600d60209081526040808320338452600301909152902083905590506002856006811115611a6b57611a6b613afb565b03611d33576001600160a01b0386166000908152600d602052604081206001018054849290611a9b9084906144df565b90915550506001600160a01b0386166000908152600d6020526040902060010154811015611d2e576001600160a01b0386166000908152600b60205260409020600401805486919061ff001916610100836006811115611afd57611afd613afb565b02179055506001600160a01b0386166000908152600d602090815260408083208054825181850281018501909352808352611cf1948b9484015b82821015611ce85783829060005260206000209060050201604051806080016040529081600082015481526020016001820160405180604001604052908160008201548152602001600182018054611b8e9061416c565b80601f0160208091040260200160405190810160405280929190818152602001828054611bba9061416c565b8015611c075780601f10611bdc57610100808354040283529160200191611c07565b820191906000526020600020905b815481529060010190602001808311611bea57829003601f168201915b505050919092525050508152600382015460209091019060ff166006811115611c3257611c32613afb565b6006811115611c4357611c43613afb565b8152602001600482018054611c579061416c565b80601f0160208091040260200160405190810160405280929190818152602001828054611c839061416c565b8015611cd05780601f10611ca557610100808354040283529160200191611cd0565b820191906000526020600020905b815481529060010190602001808311611cb357829003601f168201915b50505050508152505081526020019060010190611b37565b50505050612a18565b6040516001600160a01b03871681527f7b05d1f85b1ac2e76c0d8dbb0dfa809df6788f66bbeeb837b2b5fae4f64c00639060200160405180910390a15b611e24565b6003856006811115611d4757611d47613afb565b03611e24576001600160a01b0386166000908152600d602052604081206002018054849290611d779084906144df565b90915550506001600160a01b0386166000908152600d6020526040902060020154811015611e24576001600160a01b0386166000908152600b60205260409020600401805486919061ff001916610100836006811115611dd957611dd9613afb565b0217905550611de786612861565b6040516001600160a01b03871681527f5a90817477dd8f83cfe5d429e1dc84ad5a25cb72b83291c707c6f8f5c4f2ac849060200160405180910390a15b7f30dae55c386c6176f3f7b7ee6ad4df33970f2e442cb0142e978cf78fd8ae138d868660405161105c92919061457d565b33611e5f8161291b565b611e6882612c9c565b60405182151581527fd94c9bc4d43c51d8dc345a016d8e3d994432fac68e72832e4cf3a616bd8efae09060200160405180910390a15050565b600e6020528160005260406000208181548110611ebd57600080fd5b9060005260206000209060050201600091509150508060000154908060010160405180604001604052908160008201548152602001600182018054611f019061416c565b80601f0160208091040260200160405190810160405280929190818152602001828054611f2d9061416c565b8015611f7a5780601f10611f4f57610100808354040283529160200191611f7a565b820191906000526020600020905b815481529060010190602001808311611f5d57829003601f168201915b505050919092525050506003820154600483018054929360ff90921692611fa09061416c565b80601f0160208091040260200160405190810160405280929190818152602001828054611fcc9061416c565b80156120195780601f10611fee57610100808354040283529160200191612019565b820191906000526020600020905b815481529060010190602001808311611ffc57829003601f168201915b5050505050905084565b60006108a682612ce3565b60008180602001905181019061204491906145a5565b90506120508382612cf8565b7f91efa3d50feccde0d0d202f8ae5c41ca0b2be614cebcb2bd2f4b019396e6568a83836040516120819291906146cd565b60405180910390a1505050565b61209661211e565b61209e612169565b6120a88282612f03565b5050565b6120b461211e565b80600260008282546120c691906144df565b909155506120d390508181565b50565b6001600160a01b0382166000908152600e60205260408120805483908110612100576121006141c3565b600091825260209091206005909102016003015460ff169392505050565b336001600160a01b037f000000000000000000000000000000000000000000000000000000000000000016146121675760405163075fd2b160e01b815260040160405180910390fd5b565b60015460000361216757604051630f68fe6360e21b815260040160405180910390fd5b6001600160a01b03811630146121e45760405162461bcd60e51b815260206004820152601760248201527f554e415554484f52495a454420646973747269627574650000000000000000006044820152606401610b4a565b825160005b8181101561221c57612214858281518110612206576122066141c3565b60200260200101518461322d565b6001016121e9565b5050505050565b600061222d61359d565b600080600080612250604051806040016040528060008152602001606081525090565b60045460ff16156122a5578780602001905181019061226f919061477c565b929850909650925090506122838688612769565b6122a05760405163075fd2b160e01b815260040160405180910390fd5b612312565b878060200190518101906122b9919061477c565b9297509095506001600160a01b0386161515945092509050826122dc57846122de565b835b95508280156122f457506122f28688612769565b155b156123125760405163075fd2b160e01b815260040160405180910390fd5b60045462010000900460ff168015612328575081155b15612346576040516303b167dd60e01b815260040160405180910390fd5b60026001600160a01b0387166000908152600b602052604090206004015460ff16600681111561237857612378613afb565b036123965760405163083a81f760e31b815260040160405180910390fd5b600454610100900460ff1680156123b9575060208101515115806123b957508051155b156123d75760405163c19e07c560e01b815260040160405180910390fd5b6040805160c0810190915260045460009190819060ff166123f857856123fb565b60015b151581526001600160a01b0388166020820152604081018590526060810184905260800160028152602001600190526001600160a01b038881166000908152600b602090815260409182902084518154868401516001600160a81b0319909116911515610100600160a81b031916919091176101009190951602939093178355908301516001830155606083015180516002840190815591810151939450849390919060038401906124ad90826143b8565b505050608082015160048201805460ff191660018360068111156124d3576124d3613afb565b021790555060a082015160048201805461ff0019166101008360068111156124fd576124fd613afb565b0217905550905050866001600160a01b03167fa197306e3dd5494a61a695381aa809a53b8e377a685e84e404a85d5a8da6cc628a8a6040516125409291906147e9565b60405180910390a250505050505092915050565b6001546040516329e40d4b60e01b81526000916001600160a01b037f000000000000000000000000000000000000000000000000000000000000000016916329e40d4b916125b89186906004019182526001600160a01b0316602082015260400190565b602060405180830381865afa1580156125d5573d6000803e3d6000fd5b505050506040513d601f19601f820116820180604052508101906108a691906141a6565b6126016136d5565b6001600160a01b038083166000908152600b6020908152604091829020825160c081018452815460ff8116151582526101009004909416848301526001810154848401528251808401909352600281018054845260038201805492946060870194909390840191906126729061416c565b80601f016020809104026020016040519081016040528092919081815260200182805461269e9061416c565b80156126eb5780601f106126c0576101008083540402835291602001916126eb565b820191906000526020600020905b8154815290600101906020018083116126ce57829003601f168201915b505050919092525050508152600482015460209091019060ff16600681111561271657612716613afb565b600681111561272757612727613afb565b81526020016004820160019054906101000a900460ff16600681111561274f5761274f613afb565b600681111561276057612760613afb565b90525092915050565b60075460405163dd93da4360e01b81526001600160a01b038481166004830152600092839291169063dd93da4390602401600060405180830381865afa1580156127b7573d6000803e3d6000fd5b505050506040513d6000823e601f3d908101601f191682016040526127df9190810190614813565b6007548151604051635e8a791560e01b815260048101919091526001600160a01b038681166024830152929350911690635e8a791590604401602060405180830381865afa158015612835573d6000803e3d6000fd5b505050506040513d601f19601f8201168201806040525081019061285991906141a6565b949350505050565b60005b600a548110156128e4576000600d6000846001600160a01b03166001600160a01b031681526020019081526020016000206003016000600a84815481106128ad576128ad6141c3565b60009182526020808320909101546001600160a01b03168352820192909252604001902055806128dc8161448d565b915050612864565b506001600160a01b0381166000908152600d60205260408120906129088282613730565b5060006001820181905560029091015550565b6001546040516329e40d4b60e01b815260048101919091526001600160a01b0382811660248301527f000000000000000000000000000000000000000000000000000000000000000016906329e40d4b90604401602060405180830381865afa15801561298c573d6000803e3d6000fd5b505050506040513d601f19601f820116820180604052508101906129b091906141a6565b6120d35760405163075fd2b160e01b815260040160405180910390fd5b604080518082019091526000808252602082015260006129ec846125f9565b6040805180820182526020808401516001600160a01b0316825291909201519082015291505092915050565b6001600160a01b0382166000908152600e602052604081205415612a57576001600160a01b0383166000908152600e60205260408120612a5791613730565b815160005b81811015612b7d576000848281518110612a7857612a786141c3565b6020026020010151905060006006811115612a9557612a95613afb565b81604001516006811115612aab57612aab613afb565b14612ac957604051635b2fe71d60e11b815260040160405180910390fd5b8051612ad590856144df565b6001600160a01b0387166000908152600e6020908152604082208054600181810183559184529282902085516005909402019283558482015180519184019182559182015193975084936002840190612b2e90826143b8565b505050604082015160038201805460ff19166001836006811115612b5457612b54613afb565b021790555060608201516004820190612b6d90826143b8565b505060019092019150612a5c9050565b5081670de0b6b3a764000014612ba6576040516397a1f28d60e01b815260040160405180910390fd5b6000846002600554604051602001612bc0939291906148d9565b60408051601f19818403018152908290526001546305d8703160e31b83529092506001600160a01b037f00000000000000000000000000000000000000000000000000000000000000001691632ec3818891612c209185906004016146cd565b600060405180830381600087803b158015612c3a57600080fd5b505af1158015612c4e573d6000803e3d6000fd5b5050604080516001600160a01b0389168152602081018690527fb000fb1507aac2465ccb4f6bd1b601c7053279005e9e9932c41946b35c84949b935001905060405180910390a15050505050565b6000805460ff19168215159081179091556040519081527fd94c9bc4d43c51d8dc345a016d8e3d994432fac68e72832e4cf3a616bd8efae09060200160405180910390a150565b6000612cee826125f9565b6080015192915050565b612d01826135c0565b805160048054602084015160408501511515620100000262ff0000199115156101000261ff00199515159590951661ffff19909316929092179390931792909216919091179055606081015160005b8151811015612e5657600a828281518110612d6d57612d6d6141c3565b6020908102919091018101515182546001810184556000938452919092200180546001600160a01b0319166001600160a01b039092169190911790558151829082908110612dbd57612dbd6141c3565b602002602001015160200151600c6000848481518110612ddf57612ddf6141c3565b6020026020010151600001516001600160a01b03166001600160a01b0316815260200190815260200160002081905550818181518110612e2157612e216141c3565b60200260200101516020015160056000828254612e3e91906144df565b90915550819050612e4e8161448d565b915050612d50565b507f00000000000000000000000000000000000000000000000000000000000000006001600160a01b0316635ab1bd536040518163ffffffff1660e01b8152600401602060405180830381865afa158015612eb5573d6000803e3d6000fd5b505050506040513d601f19601f82011682018060405250810190612ed99190614904565b600780546001600160a01b0319166001600160a01b03929092169190911790556108766001612c9c565b612f0b61360f565b6001600160a01b0381163014612f5b5760405162461bcd60e51b8152602060048201526015602482015274554e415554484f52495a454420616c6c6f6361746560581b6044820152606401610b4a565b600080600084806020019051810190612f749190614921565b6001600160a01b0383166000908152600b60209081526040808320600f9092529091205493965091945092509015612fbf576040516305ca31d360e51b815260040160405180910390fd5b6002600482015460ff166006811115612fda57612fda613afb565b14158015612ff957506002836006811115612ff757612ff7613afb565b145b156131945760015460405163068bcd8d60e01b81526000916001600160a01b037f0000000000000000000000000000000000000000000000000000000000000000169163068bcd8d916130529160040190815260200190565b600060405180830381865afa15801561306f573d6000803e3d6000fd5b505050506040513d6000823e601f3d908101601f191682016040526130979190810190614964565b905082600860008282546130ab91906144df565b909155505060025460085411156130d557604051638e81b16f60e01b815260040160405180910390fd5b6001820183905560048201805460ff191660029081179091556040517f94593b52aa436dd31a63e313045c2eb23d43eb2d6f5b4d7797b4432e7b2774909161311f9188919061457d565b60405180910390a1846001600160a01b03167f463ffc2cf8b1596445c417388ed30e53eb67cf6668cb2be7f0addf8a78c8441b8360010154836040015189604051613186939291909283526001600160a01b03918216602084015216604082015260600190565b60405180910390a25061321f565b6003600482015460ff1660068111156131af576131af613afb565b141580156131ce575060038360068111156131cc576131cc613afb565b145b1561321f5760048101805460ff191660039081179091556040517f94593b52aa436dd31a63e313045c2eb23d43eb2d6f5b4d7797b4432e7b277490916132169187919061457d565b60405180910390a15b505050506120a86001600355565b6001600160a01b038083166000908152600f6020908152604080832054600e8352818420600b8452828520835160c081018552815460ff811615158252610100900490971687860152600181015487850152835180850190945260028101805485526003820180549498939796939592946060870194840191906132b09061416c565b80601f01602080910402602001604051908101604052809291908181526020018280546132dc9061416c565b80156133295780601f106132fe57610100808354040283529160200191613329565b820191906000526020600020905b81548152906001019060200180831161330c57829003601f168201915b505050919092525050508152600482015460209091019060ff16600681111561335457613354613afb565b600681111561336557613365613afb565b81526020016004820160019054906101000a900460ff16600681111561338d5761338d613afb565b600681111561339e5761339e613afb565b81525050905060008284815481106133b8576133b86141c3565b9060005260206000209060050201905082805490508411156133ed57604051632f1f68e160e11b815260040160405180910390fd5b6002600382015460ff16600681111561340857613408613afb565b1461342657604051635b2fe71d60e11b815260040160405180910390fd5b6000670de0b6b3a76400008260000154846040015161344591906144a6565b61344f91906144bd565b905060007f00000000000000000000000000000000000000000000000000000000000000006001600160a01b031663068bcd8d6001546040518263ffffffff1660e01b81526004016134a391815260200190565b600060405180830381865afa1580156134c0573d6000803e3d6000fd5b505050506040513d6000823e601f3d908101601f191682016040526134e89190810190614964565b905081600260008282546134fc9190614a17565b925050819055506135168160400151856020015184613639565b6001600160a01b0388166000908152600f6020526040812080549161353a8361448d565b9091555050602080850151604080516001600160a01b039283168152928301859052898216908301528916907fb5b51454adfa840bd593658325a60a50b0216f12eb5d2937efe6cea935675b7d9060600160405180910390a25050505050505050565b60005460ff166121675760405163cfe7975b60e01b815260040160405180910390fd5b6135c861211e565b600154156135e95760405163439a74c960e01b815260040160405180910390fd5b8060000361360a57604051637fcce2a960e01b815260040160405180910390fd5b600155565b60026003540361363257604051633ee5aeb560e01b815260040160405180910390fd5b6002600355565b73eeeeeeeeeeeeeeeeeeeeeeeeeeeeeeeeeeeeeeed196001600160a01b03841601613668576108768282613673565b61087683838361368f565b60003860003884865af16120a85763b12d13eb6000526004601cfd5b816014528060345263a9059cbb60601b60005260206000604460106000875af13d1560016000511417166136cb576390b8ec186000526004601cfd5b6000603452505050565b6040518060c0016040528060001515815260200160006001600160a01b031681526020016000815260200161371d604051806040016040528060008152602001606081525090565b8152602001600081526020016000905290565b50805460008255600502906000526020600020908101906120d391905b80821115613794576000808255600182018181558161376f6002850182613798565b505060038201805460ff1916905561378b600483016000613798565b5060050161374d565b5090565b5080546137a49061416c565b6000825580601f106137b4575050565b601f0160209004906000526020600020908101906120d391905b8082111561379457600081556001016137ce565b634e487b7160e01b600052604160045260246000fd5b604051608081016001600160401b038111828210171561381a5761381a6137e2565b60405290565b604080519081016001600160401b038111828210171561381a5761381a6137e2565b60405160c081016001600160401b038111828210171561381a5761381a6137e2565b604051601f8201601f191681016001600160401b038111828210171561388c5761388c6137e2565b604052919050565b60006001600160401b038211156138ad576138ad6137e2565b5060051b60200190565b6001600160a01b03811681146120d357600080fd5b600082601f8301126138dd57600080fd5b813560206138f26138ed83613894565b613864565b82815260059290921b8401810191818101908684111561391157600080fd5b8286015b84811015613935578035613928816138b7565b8352918301918301613915565b509695505050505050565b60006001600160401b03821115613959576139596137e2565b50601f01601f191660200190565b600082601f83011261397857600080fd5b81356139866138ed82613940565b81815284602083860101111561399b57600080fd5b816020850160208301376000918101602001919091529392505050565b6000806000606084860312156139cd57600080fd5b83356001600160401b03808211156139e457600080fd5b6139f0878388016138cc565b94506020860135915080821115613a0657600080fd5b50613a1386828701613967565b9250506040840135613a24816138b7565b809150509250925092565b60008060408385031215613a4257600080fd5b8235613a4d816138b7565b91506020830135613a5d816138b7565b809150509250929050565b600060208284031215613a7a57600080fd5b8135613a85816138b7565b9392505050565b60005b83811015613aa7578181015183820152602001613a8f565b50506000910152565b60008151808452613ac8816020860160208601613a8c565b601f01601f19169290920160200192915050565b8051825260006020820151604060208501526128596040850182613ab0565b634e487b7160e01b600052602160045260246000fd5b60078110613b2f57634e487b7160e01b600052602160045260246000fd5b9052565b60006020808301818452808551808352604092508286019150828160051b87010184880160005b83811015613bca57603f19898403018552815160808151855288820151818a870152613b8882870182613adc565b91505087820151613b9b89870182613b11565b5060608083015192508582038187015250613bb68183613ab0565b968901969450505090860190600101613b5a565b509098975050505050505050565b60008060408385031215613beb57600080fd5b50508035926020909101359150565b60008060408385031215613c0d57600080fd5b82356001600160401b03811115613c2357600080fd5b613c2f85828601613967565b9250506020830135613a5d816138b7565b600080600060608486031215613c5557600080fd5b8335613c60816138b7565b92506020840135915060408401356001600160401b03811115613c8257600080fd5b840160408187031215613a2457600080fd5b600060208284031215613ca657600080fd5b5035919050565b60008060408385031215613cc057600080fd5b823591506020830135613a5d816138b7565b6020815281511515602082015260018060a01b036020830151166040820152604082015160608201526000606083015160c06080840152613d1660e0840182613adc565b90506080840151613d2a60a0850182613b11565b5060a0840151613d3d60c0850182613b11565b509392505050565b600781106120d357600080fd5b8035613d5d81613d45565b919050565b60008060408385031215613d7557600080fd5b613d7f83356138b7565b823591506001600160401b038060208501351115613d9c57600080fd5b6020840135840185601f820112613db257600080fd5b613dbf6138ed8235613894565b81358082526020808301929160051b840101881015613ddd57600080fd5b602083015b6020843560051b850101811015613ede578481351115613e0157600080fd5b80358401601f196080828c0382011215613e1a57600080fd5b613e226137f8565b602083013581528760408401351115613e3a57600080fd5b60408301358301604083828f03011215613e5357600080fd5b613e5b613820565b9250602081013583528860408201351115613e7557600080fd5b613e888d60206040840135840101613967565b602084015250816020820152613ea060608401613d52565b60408201528760808401351115613eb657600080fd5b613ec98c60206080860135860101613967565b60608201528552505060209283019201613de2565b50809450505050509250929050565b600080600060608486031215613f0257600080fd5b8335613f0d816138b7565b9250602084013591506040840135613a2481613d45565b60008060408385031215613f3757600080fd5b82356001600160401b0380821115613f4e57600080fd5b613f5a868387016138cc565b9350602091508185013581811115613f7157600080fd5b8501601f81018713613f8257600080fd5b8035613f906138ed82613894565b81815260059190911b82018401908481019089831115613faf57600080fd5b8584015b83811015613fe757803586811115613fcb5760008081fd5b613fd98c8983890101613967565b845250918601918601613fb3565b508096505050505050509250929050565b602080825282518282018190526000919060409081850190868401855b8281101561404357815180516001600160a01b03168552860151868501529284019290850190600101614015565b5091979650505050505050565b6000806040838503121561406357600080fd5b823561406e816138b7565b91506020830135613a5d81613d45565b80151581146120d357600080fd5b60006020828403121561409e57600080fd5b8135613a858161407e565b600080604083850312156140bc57600080fd5b82356140c7816138b7565b946020939093013593505050565b8481526080602082015260006140ee6080830186613adc565b6140fb6040840186613b11565b828103606084015261410d8185613ab0565b979650505050505050565b602081016108a68284613b11565b6000806040838503121561413957600080fd5b8235915060208301356001600160401b0381111561415657600080fd5b61416285828601613967565b9150509250929050565b600181811c9082168061418057607f821691505b6020821081036141a057634e487b7160e01b600052602260045260246000fd5b50919050565b6000602082840312156141b857600080fd5b8151613a858161407e565b634e487b7160e01b600052603260045260246000fd5b601f82111561087657600081815260208120601f850160051c810160208610156142005750805b601f850160051c820191505b8181101561421f5782815560010161420c565b505050505050565b813581556001808201602080850135601e1986360301811261424857600080fd5b850180356001600160401b0381111561426057600080fd5b803603838301131561427157600080fd5b6142858161427f865461416c565b866141d9565b6000601f8211600181146142bb57600083156142a357508382018501355b600019600385901b1c1916600184901b178655614314565b600086815260209020601f19841690835b828110156142eb578685018801358255938701939089019087016142cc565b508482101561430a5760001960f88660031b161c198785880101351681555b50508683881b0186555b505050505050505050565b60018060a01b0384168152826020820152606060408201528135606082015260006020830135601e1984360301811261435757600080fd5b83016020810190356001600160401b0381111561437357600080fd5b80360382131561438257600080fd5b604060808501528060a0850152808260c0860137600060c0828601015260c0601f19601f83011685010192505050949350505050565b81516001600160401b038111156143d1576143d16137e2565b6143e5816143df845461416c565b846141d9565b602080601f83116001811461441a57600084156144025750858301515b600019600386901b1c1916600185901b17855561421f565b600085815260208120601f198616915b828110156144495788860151825594840194600190910190840161442a565b50858210156144675787850151600019600388901b60f8161c191681555b5050505050600190811b01905550565b634e487b7160e01b600052601160045260246000fd5b60006001820161449f5761449f614477565b5060010190565b80820281158282048414176108a6576108a6614477565b6000826144da57634e487b7160e01b600052601260045260246000fd5b500490565b808201808211156108a6576108a6614477565b6000606082018483526020606081850152818551808452608086019150828701935060005b8181101561453c5784516001600160a01b031683529383019391830191600101614517565b505084810360408601526000815281810193505050509392505050565b6001600160a01b038416815260208101839052606081016128596040830184613b11565b6001600160a01b038316815260408101613a856020830184613b11565b8051613d5d816138b7565b600060208083850312156145b857600080fd5b82516001600160401b03808211156145cf57600080fd5b90840190608082870312156145e357600080fd5b6145eb6137f8565b82516145f68161407e565b8152828401516146058161407e565b818501526040838101516146188161407e565b8282015260608401518381111561462e57600080fd5b80850194505087601f85011261464357600080fd5b835192506146536138ed84613894565b83815260069390931b8401850192858101908985111561467257600080fd5b948601945b848610156146bb5782868b03121561468f5760008081fd5b614697613820565b86516146a2816138b7565b8152868801518882015282529482019490860190614677565b60608401525090979650505050505050565b8281526040602082015260006128596040830184613ab0565b600082601f8301126146f757600080fd5b81516147056138ed82613940565b81815284602083860101111561471a57600080fd5b612859826020830160208701613a8c565b60006040828403121561473d57600080fd5b614745613820565b90508151815260208201516001600160401b0381111561476457600080fd5b614770848285016146e6565b60208301525092915050565b6000806000806080858703121561479257600080fd5b845161479d816138b7565b60208601519094506147ae816138b7565b6040860151606087015191945092506001600160401b038111156147d157600080fd5b6147dd8782880161472b565b91505092959194509250565b6040815260006147fc6040830185613ab0565b905060018060a01b03831660208301529392505050565b60006020828403121561482557600080fd5b81516001600160401b038082111561483c57600080fd5b9083019060c0828603121561485057600080fd5b614858613842565b825181526020830151602082015260408301518281111561487857600080fd5b614884878286016146e6565b60408301525060608301518281111561489c57600080fd5b6148a88782860161472b565b6060830152506148ba6080840161459a565b60808201526148cb60a0840161459a565b60a082015295945050505050565b6001600160a01b0384168152606081016148f66020830185613b11565b826040830152949350505050565b60006020828403121561491657600080fd5b8151613a85816138b7565b60008060006060848603121561493657600080fd5b8351614941816138b7565b602085015190935061495281613d45565b80925050604084015190509250925092565b60006020828403121561497657600080fd5b81516001600160401b038082111561498d57600080fd5b9083019060c082860312156149a157600080fd5b6149a9613842565b8251815260208301516149bb816138b7565b602082015260408301516149ce816138b7565b60408201526060830151828111156149e557600080fd5b6149f18782860161472b565b6060830152506080830151608082015260a083015160a082015280935050505092915050565b818103818111156108a6576108a661447756fea2646970667358221220c47225ec83522ca6982d7a02abcc5a8a43d78aa9fd864d78f3b3abb19c6294ab64736f6c63430008140033",
  "linkReferences": {},
  "deployedLinkReferences": {}
}