{
  "_format": "hh-sol-artifact-1",
  "contractName": "ExecutorSupplierVotingStrategy",
  "sourceName": "contracts/ExecutorSupplierVotingStrategy.sol",
  "abi": [
    {
      "inputs": [
        {
          "internalType": "address",
          "name": "_allo",
          "type": "address"
        },
        {
          "internalType": "string",
          "name": "_name",
          "type": "string"
        }
      ],
      "stateMutability": "nonpayable",
      "type": "constructor"
    },
    {
      "inputs": [],
      "name": "ALLOCATION_ACTIVE",
      "type": "error"
    },
    {
      "inputs": [],
      "name": "ALLOCATION_EXCEEDS_POOL_AMOUNT",
      "type": "error"
    },
    {
      "inputs": [],
      "name": "ALLOCATION_NOT_ACTIVE",
      "type": "error"
    },
    {
      "inputs": [],
      "name": "ALLOCATION_NOT_ENDED",
      "type": "error"
    },
    {
      "inputs": [],
      "name": "ALREADY_INITIALIZED",
      "type": "error"
    },
    {
      "inputs": [],
      "name": "ALREADY_REVIEWED",
      "type": "error"
    },
    {
      "inputs": [],
      "name": "AMOUNT_MISMATCH",
      "type": "error"
    },
    {
      "inputs": [],
      "name": "ANCHOR_ERROR",
      "type": "error"
    },
    {
      "inputs": [],
      "name": "ARRAY_MISMATCH",
      "type": "error"
    },
    {
      "inputs": [],
      "name": "EXECUTOR_HAT_WEARING_REQUIRED",
      "type": "error"
    },
    {
      "inputs": [],
      "name": "INVALID",
      "type": "error"
    },
    {
      "inputs": [],
      "name": "INVALID_ADDRESS",
      "type": "error"
    },
    {
      "inputs": [],
      "name": "INVALID_FEE",
      "type": "error"
    },
    {
      "inputs": [],
      "name": "INVALID_METADATA",
      "type": "error"
    },
    {
      "inputs": [],
      "name": "INVALID_MILESTONE",
      "type": "error"
    },
    {
      "inputs": [],
      "name": "INVALID_MILESTONES_PERCENTAGE",
      "type": "error"
    },
    {
      "inputs": [],
      "name": "INVALID_MILESTONE_STATUS",
      "type": "error"
    },
    {
      "inputs": [],
      "name": "INVALID_REGISTRATION",
      "type": "error"
    },
    {
      "inputs": [],
      "name": "INVALID_STATUS",
      "type": "error"
    },
    {
      "inputs": [],
      "name": "IS_APPROVED_STRATEGY",
      "type": "error"
    },
    {
      "inputs": [],
      "name": "MILESTONES_ALREADY_SET",
      "type": "error"
    },
    {
      "inputs": [],
      "name": "MILESTONE_ALREADY_ACCEPTED",
      "type": "error"
    },
    {
      "inputs": [],
      "name": "MISMATCH",
      "type": "error"
    },
    {
      "inputs": [],
      "name": "NONCE_NOT_AVAILABLE",
      "type": "error"
    },
    {
      "inputs": [],
      "name": "NOT_APPROVED_STRATEGY",
      "type": "error"
    },
    {
      "inputs": [],
      "name": "NOT_ENOUGH_FUNDS",
      "type": "error"
    },
    {
      "inputs": [],
      "name": "NOT_IMPLEMENTED",
      "type": "error"
    },
    {
      "inputs": [],
      "name": "NOT_INITIALIZED",
      "type": "error"
    },
    {
      "inputs": [],
      "name": "NOT_PENDING_OWNER",
      "type": "error"
    },
    {
      "inputs": [],
      "name": "POOL_ACTIVE",
      "type": "error"
    },
    {
      "inputs": [],
      "name": "POOL_INACTIVE",
      "type": "error"
    },
    {
      "inputs": [],
      "name": "RECIPIENT_ALREADY_ACCEPTED",
      "type": "error"
    },
    {
      "inputs": [
        {
          "internalType": "address",
          "name": "recipientId",
          "type": "address"
        }
      ],
      "name": "RECIPIENT_ERROR",
      "type": "error"
    },
    {
      "inputs": [],
      "name": "RECIPIENT_NOT_ACCEPTED",
      "type": "error"
    },
    {
      "inputs": [],
      "name": "REGISTRATION_NOT_ACTIVE",
      "type": "error"
    },
    {
      "inputs": [],
      "name": "ReentrancyGuardReentrantCall",
      "type": "error"
    },
    {
      "inputs": [],
      "name": "STRATEGY_IS_STILL_ACIVE",
      "type": "error"
    },
    {
      "inputs": [],
      "name": "SUPPLIER_HAT_WEARING_REQUIRED",
      "type": "error"
    },
    {
      "inputs": [],
      "name": "UNAUTHORIZED",
      "type": "error"
    },
    {
      "inputs": [],
      "name": "ZERO_ADDRESS",
      "type": "error"
    },
    {
      "anonymous": false,
      "inputs": [
        {
          "indexed": true,
          "internalType": "address",
          "name": "recipientId",
          "type": "address"
        },
        {
          "indexed": false,
          "internalType": "uint256",
          "name": "amount",
          "type": "uint256"
        },
        {
          "indexed": false,
          "internalType": "address",
          "name": "token",
          "type": "address"
        },
        {
          "indexed": false,
          "internalType": "address",
          "name": "sender",
          "type": "address"
        }
      ],
      "name": "Allocated",
      "type": "event"
    },
    {
      "anonymous": false,
      "inputs": [
        {
          "indexed": true,
          "internalType": "address",
          "name": "recipientId",
          "type": "address"
        },
        {
          "indexed": false,
          "internalType": "address",
          "name": "recipientAddress",
          "type": "address"
        },
        {
          "indexed": false,
          "internalType": "uint256",
          "name": "amount",
          "type": "uint256"
        },
        {
          "indexed": false,
          "internalType": "address",
          "name": "sender",
          "type": "address"
        }
      ],
      "name": "Distributed",
      "type": "event"
    },
    {
      "anonymous": false,
      "inputs": [
        {
          "indexed": false,
          "internalType": "uint256",
          "name": "poolId",
          "type": "uint256"
        },
        {
          "indexed": false,
          "internalType": "bytes",
          "name": "data",
          "type": "bytes"
        }
      ],
      "name": "Initialized",
      "type": "event"
    },
    {
      "anonymous": false,
      "inputs": [
        {
          "indexed": false,
          "internalType": "address",
          "name": "recipientId",
          "type": "address"
        },
        {
          "indexed": false,
          "internalType": "uint256",
          "name": "milestoneId",
          "type": "uint256"
        },
        {
          "indexed": false,
          "internalType": "enum IStrategy.Status",
          "name": "status",
          "type": "uint8"
        }
      ],
      "name": "MilestoneStatusChanged",
      "type": "event"
    },
    {
      "anonymous": false,
      "inputs": [
        {
          "indexed": false,
          "internalType": "address",
          "name": "recipientId",
          "type": "address"
        },
        {
          "indexed": false,
          "internalType": "uint256",
          "name": "milestoneId",
          "type": "uint256"
        },
        {
          "components": [
            {
              "internalType": "uint256",
              "name": "protocol",
              "type": "uint256"
            },
            {
              "internalType": "string",
              "name": "pointer",
              "type": "string"
            }
          ],
          "indexed": false,
          "internalType": "struct Metadata",
          "name": "metadata",
          "type": "tuple"
        }
      ],
      "name": "MilestoneSubmitted",
      "type": "event"
    },
    {
      "anonymous": false,
      "inputs": [
        {
          "indexed": false,
          "internalType": "address",
          "name": "recipientId",
          "type": "address"
        },
        {
          "indexed": false,
          "internalType": "uint256",
          "name": "milestonesLength",
          "type": "uint256"
        }
      ],
      "name": "MilestonesOffered",
      "type": "event"
    },
    {
      "anonymous": false,
      "inputs": [
        {
          "indexed": false,
          "internalType": "address",
          "name": "recipientId",
          "type": "address"
        },
        {
          "indexed": false,
          "internalType": "enum IStrategy.Status",
          "name": "status",
          "type": "uint8"
        }
      ],
      "name": "MilestonesReviewed",
      "type": "event"
    },
    {
      "anonymous": false,
      "inputs": [
        {
          "indexed": false,
          "internalType": "address",
          "name": "recipientId",
          "type": "address"
        },
        {
          "indexed": false,
          "internalType": "uint256",
          "name": "milestonesLength",
          "type": "uint256"
        }
      ],
      "name": "MilestonesSet",
      "type": "event"
    },
    {
      "anonymous": false,
      "inputs": [
        {
          "indexed": false,
          "internalType": "address",
          "name": "recipientId",
          "type": "address"
        }
      ],
      "name": "OfferedMilestonesAccepted",
      "type": "event"
    },
    {
      "anonymous": false,
      "inputs": [
        {
          "indexed": false,
          "internalType": "address",
          "name": "recipientId",
          "type": "address"
        }
      ],
      "name": "OfferedMilestonesRejected",
      "type": "event"
    },
    {
      "anonymous": false,
      "inputs": [
        {
          "indexed": false,
          "internalType": "bool",
          "name": "active",
          "type": "bool"
        }
      ],
      "name": "PoolActive",
      "type": "event"
    },
    {
      "anonymous": false,
      "inputs": [],
      "name": "ProjectRejectDeclined",
      "type": "event"
    },
    {
      "anonymous": false,
      "inputs": [],
      "name": "ProjectRejected",
      "type": "event"
    },
    {
      "anonymous": false,
      "inputs": [
        {
          "indexed": false,
          "internalType": "address",
          "name": "recipientId",
          "type": "address"
        },
        {
          "indexed": false,
          "internalType": "enum IStrategy.Status",
          "name": "status",
          "type": "uint8"
        }
      ],
      "name": "RecipientStatusChanged",
      "type": "event"
    },
    {
      "anonymous": false,
      "inputs": [
        {
          "indexed": true,
          "internalType": "address",
          "name": "recipientId",
          "type": "address"
        },
        {
          "indexed": false,
          "internalType": "bytes",
          "name": "data",
          "type": "bytes"
        },
        {
          "indexed": false,
          "internalType": "address",
          "name": "sender",
          "type": "address"
        }
      ],
      "name": "Registered",
      "type": "event"
    },
    {
      "anonymous": false,
      "inputs": [
        {
          "indexed": false,
          "internalType": "address",
          "name": "recipientId",
          "type": "address"
        },
        {
          "indexed": false,
          "internalType": "uint256",
          "name": "milestoneId",
          "type": "uint256"
        },
        {
          "indexed": false,
          "internalType": "enum IStrategy.Status",
          "name": "status",
          "type": "uint8"
        }
      ],
      "name": "SubmittedvMilestoneReviewed",
      "type": "event"
    },
    {
      "anonymous": false,
      "inputs": [
        {
          "indexed": false,
          "internalType": "address",
          "name": "supplier",
          "type": "address"
        },
        {
          "indexed": false,
          "internalType": "uint256",
          "name": "amount",
          "type": "uint256"
        }
      ],
      "name": "TokenOfThanksSent",
      "type": "event"
    },
    {
      "inputs": [],
      "name": "NATIVE",
      "outputs": [
        {
          "internalType": "address",
          "name": "",
          "type": "address"
        }
      ],
      "stateMutability": "view",
      "type": "function"
    },
    {
      "inputs": [
        {
          "internalType": "bytes",
          "name": "_data",
          "type": "bytes"
        },
        {
          "internalType": "address",
          "name": "_sender",
          "type": "address"
        }
      ],
      "name": "allocate",
      "outputs": [],
      "stateMutability": "payable",
      "type": "function"
    },
    {
      "inputs": [],
      "name": "allocatedGrantAmount",
      "outputs": [
        {
          "internalType": "uint256",
          "name": "",
          "type": "uint256"
        }
      ],
      "stateMutability": "view",
      "type": "function"
    },
    {
      "inputs": [
        {
          "internalType": "address[]",
          "name": "_recipientIds",
          "type": "address[]"
        },
        {
          "internalType": "bytes",
          "name": "_data",
          "type": "bytes"
        },
        {
          "internalType": "address",
          "name": "_sender",
          "type": "address"
        }
      ],
      "name": "distribute",
      "outputs": [],
      "stateMutability": "nonpayable",
      "type": "function"
    },
    {
      "inputs": [],
      "name": "executorHat",
      "outputs": [
        {
          "internalType": "uint256",
          "name": "",
          "type": "uint256"
        }
      ],
      "stateMutability": "view",
      "type": "function"
    },
    {
      "inputs": [],
      "name": "getAllo",
      "outputs": [
        {
          "internalType": "contract IAllo",
          "name": "",
          "type": "address"
        }
      ],
      "stateMutability": "view",
      "type": "function"
    },
    {
      "inputs": [
        {
          "internalType": "address",
          "name": "_recipientId",
          "type": "address"
        },
        {
          "internalType": "uint256",
          "name": "_milestoneId",
          "type": "uint256"
        }
      ],
      "name": "getMilestoneStatus",
      "outputs": [
        {
          "internalType": "enum IStrategy.Status",
          "name": "",
          "type": "uint8"
        }
      ],
      "stateMutability": "view",
      "type": "function"
    },
    {
      "inputs": [
        {
          "internalType": "address",
          "name": "_recipientId",
          "type": "address"
        }
      ],
      "name": "getMilestones",
      "outputs": [
        {
          "components": [
            {
              "internalType": "uint256",
              "name": "amountPercentage",
              "type": "uint256"
            },
            {
              "components": [
                {
                  "internalType": "uint256",
                  "name": "protocol",
                  "type": "uint256"
                },
                {
                  "internalType": "string",
                  "name": "pointer",
                  "type": "string"
                }
              ],
              "internalType": "struct Metadata",
              "name": "metadata",
              "type": "tuple"
            },
            {
              "internalType": "enum IStrategy.Status",
              "name": "milestoneStatus",
              "type": "uint8"
            },
            {
              "internalType": "string",
              "name": "description",
              "type": "string"
            }
          ],
          "internalType": "struct ExecutorSupplierVotingStrategy.Milestone[]",
          "name": "",
          "type": "tuple[]"
        }
      ],
      "stateMutability": "view",
      "type": "function"
    },
    {
      "inputs": [
        {
          "internalType": "address",
          "name": "_recipientId",
          "type": "address"
        }
      ],
      "name": "getOffeeredMilestones",
      "outputs": [
        {
          "components": [
            {
              "internalType": "uint256",
              "name": "amountPercentage",
              "type": "uint256"
            },
            {
              "components": [
                {
                  "internalType": "uint256",
                  "name": "protocol",
                  "type": "uint256"
                },
                {
                  "internalType": "string",
                  "name": "pointer",
                  "type": "string"
                }
              ],
              "internalType": "struct Metadata",
              "name": "metadata",
              "type": "tuple"
            },
            {
              "internalType": "enum IStrategy.Status",
              "name": "milestoneStatus",
              "type": "uint8"
            },
            {
              "internalType": "string",
              "name": "description",
              "type": "string"
            }
          ],
          "internalType": "struct ExecutorSupplierVotingStrategy.Milestone[]",
          "name": "",
          "type": "tuple[]"
        }
      ],
      "stateMutability": "view",
      "type": "function"
    },
    {
      "inputs": [
        {
          "internalType": "address",
          "name": "_recipientId",
          "type": "address"
        }
      ],
      "name": "getOfferedMilestonesVotesAgainst",
      "outputs": [
        {
          "internalType": "uint256",
          "name": "",
          "type": "uint256"
        }
      ],
      "stateMutability": "view",
      "type": "function"
    },
    {
      "inputs": [
        {
          "internalType": "address",
          "name": "_recipientId",
          "type": "address"
        }
      ],
      "name": "getOfferedMilestonesVotesFor",
      "outputs": [
        {
          "internalType": "uint256",
          "name": "",
          "type": "uint256"
        }
      ],
      "stateMutability": "view",
      "type": "function"
    },
    {
      "inputs": [
        {
          "internalType": "address[]",
          "name": "_recipientIds",
          "type": "address[]"
        },
        {
          "internalType": "bytes[]",
          "name": "_data",
          "type": "bytes[]"
        }
      ],
      "name": "getPayouts",
      "outputs": [
        {
          "components": [
            {
              "internalType": "address",
              "name": "recipientAddress",
              "type": "address"
            },
            {
              "internalType": "uint256",
              "name": "amount",
              "type": "uint256"
            }
          ],
          "internalType": "struct IStrategy.PayoutSummary[]",
          "name": "",
          "type": "tuple[]"
        }
      ],
      "stateMutability": "view",
      "type": "function"
    },
    {
      "inputs": [],
      "name": "getPoolAmount",
      "outputs": [
        {
          "internalType": "uint256",
          "name": "",
          "type": "uint256"
        }
      ],
      "stateMutability": "view",
      "type": "function"
    },
    {
      "inputs": [],
      "name": "getPoolId",
      "outputs": [
        {
          "internalType": "uint256",
          "name": "",
          "type": "uint256"
        }
      ],
      "stateMutability": "view",
      "type": "function"
    },
    {
      "inputs": [
        {
          "internalType": "address",
          "name": "_recipientId",
          "type": "address"
        }
      ],
      "name": "getRecipient",
      "outputs": [
        {
          "components": [
            {
              "internalType": "bool",
              "name": "useRegistryAnchor",
              "type": "bool"
            },
            {
              "internalType": "address",
              "name": "recipientAddress",
              "type": "address"
            },
            {
              "internalType": "uint256",
              "name": "grantAmount",
              "type": "uint256"
            },
            {
              "components": [
                {
                  "internalType": "uint256",
                  "name": "protocol",
                  "type": "uint256"
                },
                {
                  "internalType": "string",
                  "name": "pointer",
                  "type": "string"
                }
              ],
              "internalType": "struct Metadata",
              "name": "metadata",
              "type": "tuple"
            },
            {
              "internalType": "enum IStrategy.Status",
              "name": "recipientStatus",
              "type": "uint8"
            },
            {
              "internalType": "enum IStrategy.Status",
              "name": "milestonesReviewStatus",
              "type": "uint8"
            }
          ],
          "internalType": "struct ExecutorSupplierVotingStrategy.Recipient",
          "name": "",
          "type": "tuple"
        }
      ],
      "stateMutability": "view",
      "type": "function"
    },
    {
      "inputs": [
        {
          "internalType": "address",
          "name": "_recipientId",
          "type": "address"
        }
      ],
      "name": "getRecipientStatus",
      "outputs": [
        {
          "internalType": "enum IStrategy.Status",
          "name": "",
          "type": "uint8"
        }
      ],
      "stateMutability": "view",
      "type": "function"
    },
    {
      "inputs": [],
      "name": "getRejectProjectSupplierVotes",
      "outputs": [
        {
          "internalType": "uint256",
          "name": "",
          "type": "uint256"
        }
      ],
      "stateMutability": "view",
      "type": "function"
    },
    {
      "inputs": [],
      "name": "getRejectProjectVotesAgainst",
      "outputs": [
        {
          "internalType": "uint256",
          "name": "",
          "type": "uint256"
        }
      ],
      "stateMutability": "view",
      "type": "function"
    },
    {
      "inputs": [],
      "name": "getRejectProjectVotesFor",
      "outputs": [
        {
          "internalType": "uint256",
          "name": "",
          "type": "uint256"
        }
      ],
      "stateMutability": "view",
      "type": "function"
    },
    {
      "inputs": [],
      "name": "getStrategyId",
      "outputs": [
        {
          "internalType": "bytes32",
          "name": "",
          "type": "bytes32"
        }
      ],
      "stateMutability": "view",
      "type": "function"
    },
    {
      "inputs": [
        {
          "internalType": "uint256",
          "name": "_milestoneId",
          "type": "uint256"
        }
      ],
      "name": "getSubmittedMilestonesVotesAgainst",
      "outputs": [
        {
          "internalType": "uint256",
          "name": "",
          "type": "uint256"
        }
      ],
      "stateMutability": "view",
      "type": "function"
    },
    {
      "inputs": [
        {
          "internalType": "uint256",
          "name": "_milestoneId",
          "type": "uint256"
        }
      ],
      "name": "getSubmittedMilestonesVotesFor",
      "outputs": [
        {
          "internalType": "uint256",
          "name": "",
          "type": "uint256"
        }
      ],
      "stateMutability": "view",
      "type": "function"
    },
    {
      "inputs": [
        {
          "internalType": "address",
          "name": "_recipientId",
          "type": "address"
        },
        {
          "internalType": "address",
          "name": "_supplier",
          "type": "address"
        }
      ],
      "name": "getSupplierOfferedMilestonesVote",
      "outputs": [
        {
          "internalType": "uint256",
          "name": "",
          "type": "uint256"
        }
      ],
      "stateMutability": "view",
      "type": "function"
    },
    {
      "inputs": [
        {
          "internalType": "uint256",
          "name": "_milestoneId",
          "type": "uint256"
        },
        {
          "internalType": "address",
          "name": "_supplier",
          "type": "address"
        }
      ],
      "name": "getSupplierSubmittedMilestonesVote",
      "outputs": [
        {
          "internalType": "uint256",
          "name": "",
          "type": "uint256"
        }
      ],
      "stateMutability": "view",
      "type": "function"
    },
    {
      "inputs": [
        {
          "internalType": "address",
          "name": "_recipientId",
          "type": "address"
        }
      ],
      "name": "getUpcomingMilestone",
      "outputs": [
        {
          "internalType": "uint256",
          "name": "",
          "type": "uint256"
        }
      ],
      "stateMutability": "view",
      "type": "function"
    },
    {
      "inputs": [],
      "name": "hatsContract",
      "outputs": [
        {
          "internalType": "contract IHats",
          "name": "",
          "type": "address"
        }
      ],
      "stateMutability": "view",
      "type": "function"
    },
    {
      "inputs": [
        {
          "internalType": "uint256",
          "name": "_amount",
          "type": "uint256"
        }
      ],
      "name": "increasePoolAmount",
      "outputs": [],
      "stateMutability": "nonpayable",
      "type": "function"
    },
    {
      "inputs": [
        {
          "internalType": "uint256",
          "name": "_poolId",
          "type": "uint256"
        },
        {
          "internalType": "bytes",
          "name": "_data",
          "type": "bytes"
        }
      ],
      "name": "initialize",
      "outputs": [],
      "stateMutability": "nonpayable",
      "type": "function"
    },
    {
      "inputs": [],
      "name": "isPoolActive",
      "outputs": [
        {
          "internalType": "bool",
          "name": "",
          "type": "bool"
        }
      ],
      "stateMutability": "view",
      "type": "function"
    },
    {
      "inputs": [
        {
          "internalType": "address",
          "name": "_allocator",
          "type": "address"
        }
      ],
      "name": "isValidAllocator",
      "outputs": [
        {
          "internalType": "bool",
          "name": "",
          "type": "bool"
        }
      ],
      "stateMutability": "view",
      "type": "function"
    },
    {
      "inputs": [
        {
          "internalType": "address",
          "name": "",
          "type": "address"
        },
        {
          "internalType": "uint256",
          "name": "",
          "type": "uint256"
        }
      ],
      "name": "milestones",
      "outputs": [
        {
          "internalType": "uint256",
          "name": "amountPercentage",
          "type": "uint256"
        },
        {
          "components": [
            {
              "internalType": "uint256",
              "name": "protocol",
              "type": "uint256"
            },
            {
              "internalType": "string",
              "name": "pointer",
              "type": "string"
            }
          ],
          "internalType": "struct Metadata",
          "name": "metadata",
          "type": "tuple"
        },
        {
          "internalType": "enum IStrategy.Status",
          "name": "milestoneStatus",
          "type": "uint8"
        },
        {
          "internalType": "string",
          "name": "description",
          "type": "string"
        }
      ],
      "stateMutability": "view",
      "type": "function"
    },
    {
      "inputs": [
        {
          "internalType": "address",
          "name": "_recipientId",
          "type": "address"
        },
        {
          "components": [
            {
              "internalType": "uint256",
              "name": "amountPercentage",
              "type": "uint256"
            },
            {
              "components": [
                {
                  "internalType": "uint256",
                  "name": "protocol",
                  "type": "uint256"
                },
                {
                  "internalType": "string",
                  "name": "pointer",
                  "type": "string"
                }
              ],
              "internalType": "struct Metadata",
              "name": "metadata",
              "type": "tuple"
            },
            {
              "internalType": "enum IStrategy.Status",
              "name": "milestoneStatus",
              "type": "uint8"
            },
            {
              "internalType": "string",
              "name": "description",
              "type": "string"
            }
          ],
          "internalType": "struct ExecutorSupplierVotingStrategy.Milestone[]",
          "name": "_milestones",
          "type": "tuple[]"
        }
      ],
      "name": "offerMilestones",
      "outputs": [],
      "stateMutability": "nonpayable",
      "type": "function"
    },
    {
      "inputs": [
        {
          "internalType": "bytes",
          "name": "_data",
          "type": "bytes"
        },
        {
          "internalType": "address",
          "name": "_sender",
          "type": "address"
        }
      ],
      "name": "registerRecipient",
      "outputs": [
        {
          "internalType": "address",
          "name": "recipientId",
          "type": "address"
        }
      ],
      "stateMutability": "payable",
      "type": "function"
    },
    {
      "inputs": [
        {
          "internalType": "enum IStrategy.Status",
          "name": "_status",
          "type": "uint8"
        }
      ],
      "name": "rejectProject",
      "outputs": [],
      "stateMutability": "nonpayable",
      "type": "function"
    },
    {
      "inputs": [
        {
          "internalType": "address",
          "name": "_recipientId",
          "type": "address"
        },
        {
          "internalType": "enum IStrategy.Status",
          "name": "_status",
          "type": "uint8"
        }
      ],
      "name": "reviewOfferedtMilestones",
      "outputs": [],
      "stateMutability": "nonpayable",
      "type": "function"
    },
    {
      "inputs": [
        {
          "internalType": "address",
          "name": "_recipientId",
          "type": "address"
        },
        {
          "internalType": "uint256",
          "name": "_milestoneId",
          "type": "uint256"
        },
        {
          "internalType": "enum IStrategy.Status",
          "name": "_status",
          "type": "uint8"
        }
      ],
      "name": "reviewSubmitedMilestone",
      "outputs": [],
      "stateMutability": "nonpayable",
      "type": "function"
    },
    {
      "inputs": [
        {
          "internalType": "uint256",
          "name": "_amount",
          "type": "uint256"
        }
      ],
      "name": "sendTokenOfThanksToSuppliers",
      "outputs": [],
      "stateMutability": "payable",
      "type": "function"
    },
    {
      "inputs": [
        {
          "internalType": "uint256",
          "name": "_newPercentage",
          "type": "uint256"
        },
        {
          "internalType": "bytes32",
          "name": "_profileId",
          "type": "bytes32"
        }
      ],
      "name": "setThresholdPercentage",
      "outputs": [],
      "stateMutability": "nonpayable",
      "type": "function"
    },
    {
      "inputs": [],
      "name": "state",
      "outputs": [
        {
          "internalType": "enum ExecutorSupplierVotingStrategy.StrategyState",
          "name": "",
          "type": "uint8"
        }
      ],
      "stateMutability": "view",
      "type": "function"
    },
    {
      "inputs": [
        {
          "internalType": "address",
          "name": "_recipientId",
          "type": "address"
        },
        {
          "internalType": "uint256",
          "name": "_milestoneId",
          "type": "uint256"
        },
        {
          "components": [
            {
              "internalType": "uint256",
              "name": "protocol",
              "type": "uint256"
            },
            {
              "internalType": "string",
              "name": "pointer",
              "type": "string"
            }
          ],
          "internalType": "struct Metadata",
          "name": "_metadata",
          "type": "tuple"
        }
      ],
      "name": "submitMilestone",
      "outputs": [],
      "stateMutability": "nonpayable",
      "type": "function"
    },
    {
      "inputs": [
        {
          "internalType": "uint256",
          "name": "",
          "type": "uint256"
        }
      ],
      "name": "submittedvMilestones",
      "outputs": [
        {
          "internalType": "uint256",
          "name": "votesFor",
          "type": "uint256"
        },
        {
          "internalType": "uint256",
          "name": "votesAgainst",
          "type": "uint256"
        }
      ],
      "stateMutability": "view",
      "type": "function"
    },
    {
      "inputs": [],
      "name": "supplierHat",
      "outputs": [
        {
          "internalType": "uint256",
          "name": "",
          "type": "uint256"
        }
      ],
      "stateMutability": "view",
      "type": "function"
    },
    {
      "inputs": [],
      "name": "thresholdPercentage",
      "outputs": [
        {
          "internalType": "uint256",
          "name": "",
          "type": "uint256"
        }
      ],
      "stateMutability": "view",
      "type": "function"
    },
    {
      "inputs": [],
      "name": "totalSupply",
      "outputs": [
        {
          "internalType": "uint256",
          "name": "",
          "type": "uint256"
        }
      ],
      "stateMutability": "view",
      "type": "function"
    },
    {
      "inputs": [
        {
          "internalType": "address",
          "name": "",
          "type": "address"
        }
      ],
      "name": "upcomingMilestone",
      "outputs": [
        {
          "internalType": "uint256",
          "name": "",
          "type": "uint256"
        }
      ],
      "stateMutability": "view",
      "type": "function"
    },
    {
      "stateMutability": "payable",
      "type": "receive"
    }
  ],
  "bytecode": "0x60c06040523480156200001157600080fd5b50604051620055ee380380620055ee8339810160408190526200003491620000bf565b6001600160a01b03821660805260405182908290620000589082906020016200019a565b60408051601f19818403018152919052805160209091012060a0525050600160035550620001cf9050565b634e487b7160e01b600052604160045260246000fd5b60005b83811015620000b65781810151838201526020016200009c565b50506000910152565b60008060408385031215620000d357600080fd5b82516001600160a01b0381168114620000eb57600080fd5b60208401519092506001600160401b03808211156200010957600080fd5b818501915085601f8301126200011e57600080fd5b81518181111562000133576200013362000083565b604051601f8201601f19908116603f011681019083821181831017156200015e576200015e62000083565b816040528281528860208487010111156200017857600080fd5b6200018b83602083016020880162000099565b80955050505050509250929050565b6020815260008251806020840152620001bb81604085016020870162000099565b601f01601f19169190910160400192915050565b60805160a0516153ba62000234600039600061048d0152600081816102b3015281816119760152818161294801528181612cbf0152818161309301528181613191015281816134d7015281816137e0015281816139b50152613def01526153ba6000f3fe6080604052600436106102765760003560e01c80639ffaa8751161014f578063df868ed3116100c1578063edd146cc1161007a578063edd146cc14610846578063ee12030014610866578063ef2920fc14610896578063f5b0dfb7146108a9578063f83067e7146108c9578063f8c607ad146108e957600080fd5b8063df868ed31461076f578063e1c2cf6514610787578063e2372b581461079d578063e477b6bd146107ca578063e8eeb80614610803578063eb11af931461081957600080fd5b8063b3eae7ab11610113578063b3eae7ab1461067f578063c08203431461069f578063c19d93fb146106b2578063c1aaf44a146106d9578063c7a892bf14610706578063cb2415fb1461073657600080fd5b80639ffaa875146105d5578063a0cf0aea146105f5578063a958f2551461061d578063a96552101461063d578063b2b878d01461065257600080fd5b80633bf3577d116101e85780634ed2859e116101ac5780634ed2859e146104f65780635b10b5971461050c578063605e1c661461052157806362812a391461056857806378f0184d1461059557806397e39fef146105b557600080fd5b80633bf3577d14610415578063404e73e21461043557806342fda9c71461047e5780634ab4ba42146104b15780634d31d087146104c657600080fd5b80632a835b4b1161023a5780632a835b4b146103615780632bbe0cae146103815780632ff0e6c41461039457806336592c0e146103ca57806336c466d3146103ea57806338fff2d01461040057600080fd5b80630a6f0ee91461028257806315cc481e146102a457806318160ddd146102f0578063197ea8141461031457806322a4e42d1461033457600080fd5b3661027d57005b600080fd5b34801561028e57600080fd5b506102a261029d366004614325565b61090b565b005b3480156102b057600080fd5b507f00000000000000000000000000000000000000000000000000000000000000005b6040516001600160a01b0390911681526020015b60405180910390f35b3480156102fc57600080fd5b5061030660075481565b6040519081526020016102e7565b34801561032057600080fd5b5061030661032f36600461439c565b61092b565b34801561034057600080fd5b5061035461034f3660046143d5565b61095c565b6040516102e79190614492565b34801561036d57600080fd5b506102a261037c366004614537565b610b50565b6102d361038f366004614559565b610cab565b3480156103a057600080fd5b506103066103af3660046143d5565b6001600160a01b031660009081526015602052604090205490565b3480156103d657600080fd5b506103546103e53660046143d5565b610cce565b3480156103f657600080fd5b5061030660065481565b34801561040c57600080fd5b50600154610306565b34801561042157600080fd5b506102a261043036600461459f565b610eb7565b34801561044157600080fd5b506104696104503660046145f3565b6016602052600090815260409020805460019091015482565b604080519283526020830191909152016102e7565b34801561048a57600080fd5b507f0000000000000000000000000000000000000000000000000000000000000000610306565b3480156104bd57600080fd5b50600254610306565b3480156104d257600080fd5b506104e66104e13660046143d5565b611296565b60405190151581526020016102e7565b34801561050257600080fd5b5061030660085481565b34801561051857600080fd5b50601154610306565b34801561052d57600080fd5b5061030661053c36600461460c565b60008281526016602090815260408083206001600160a01b038516845260020190915290205492915050565b34801561057457600080fd5b506105886105833660046143d5565b6112a1565b6040516102e79190614631565b3480156105a157600080fd5b506102a26105b03660046146c1565b6112b2565b3480156105c157600080fd5b50600b546102d3906001600160a01b031681565b3480156105e157600080fd5b506102a26105f036600461484c565b611542565b34801561060157600080fd5b506102d373eeeeeeeeeeeeeeeeeeeeeeeeeeeeeeeeeeeeeeee81565b34801561062957600080fd5b506102a2610638366004614883565b611bab565b34801561064957600080fd5b50601254610306565b34801561065e57600080fd5b5061067261066d3660046148a0565b611e6f565b6040516102e79190614974565b34801561068b57600080fd5b506102a261069a3660046149cc565b611f6d565b6102a26106ad3660046145f3565b6124fe565b3480156106be57600080fd5b506004546106cc9060ff1681565b6040516102e791906149fa565b3480156106e557600080fd5b506103066106f43660046145f3565b60009081526016602052604090205490565b34801561071257600080fd5b50610726610721366004614a14565b6126c3565b6040516102e79493929190614a40565b34801561074257600080fd5b506103066107513660046143d5565b6001600160a01b031660009081526010602052604090206002015490565b34801561077b57600080fd5b5060005460ff166104e6565b34801561079357600080fd5b5061030660055481565b3480156107a957600080fd5b506103066107b83660046143d5565b60156020526000908152604090205481565b3480156107d657600080fd5b506103066107e53660046143d5565b6001600160a01b031660009081526010602052604090206001015490565b34801561080f57600080fd5b50610306600a5481565b34801561082557600080fd5b506108396108343660046143d5565b612845565b6040516102e79190614a83565b34801561085257600080fd5b506102a2610861366004614a91565b612850565b34801561087257600080fd5b506103066108813660046145f3565b60009081526016602052604090206001015490565b6102a26108a4366004614559565b6128b0565b3480156108b557600080fd5b506102a26108c43660046145f3565b6128ce565b3480156108d557600080fd5b506108396108e4366004614a14565b6128f5565b3480156108f557600080fd5b5033600090815260136020526040902054610306565b61091361293d565b61091b612988565b6109268383836129ab565b505050565b6001600160a01b03808316600090815260106020908152604080832093851683526003909301905220545b92915050565b6001600160a01b0381166000908152601460209081526040808320805482518185028101850190935280835260609492939192909184015b82821015610b4557838290600052602060002090600502016040518060800160405290816000820154815260200160018201604051806040016040529081600082015481526020016001820180546109eb90614ad7565b80601f0160208091040260200160405190810160405280929190818152602001828054610a1790614ad7565b8015610a645780601f10610a3957610100808354040283529160200191610a64565b820191906000526020600020905b815481529060010190602001808311610a4757829003601f168201915b505050919092525050508152600382015460209091019060ff166006811115610a8f57610a8f614468565b6006811115610aa057610aa0614468565b8152602001600482018054610ab490614ad7565b80601f0160208091040260200160405190810160405280929190818152602001828054610ae090614ad7565b8015610b2d5780601f10610b0257610100808354040283529160200191610b2d565b820191906000526020600020905b815481529060010190602001808311610b1057829003601f168201915b50505050508152505081526020019060010190610994565b505050509050919050565b600954604051630e6e1ae360e21b8152600481018390523360248201526001600160a01b03909116906339b86b8c90604401602060405180830381865afa158015610b9f573d6000803e3d6000fd5b505050506040513d601f19601f82011682018060405250810190610bc39190614b11565b610c035760405162461bcd60e51b815260206004820152600c60248201526b15539055551213d49256915160a21b60448201526064015b60405180910390fd5b60008211610c5f5760405162461bcd60e51b8152602060048201526024808201527f50657263656e74616765206d7573742062652067726561746572207468616e206044820152637a65726f60e01b6064820152608401610bfa565b6064821115610ca55760405162461bcd60e51b8152602060048201526012602482015271496e76616c69642070657263656e7461676560701b6044820152606401610bfa565b50600855565b6000610cb561293d565b610cbd612988565b610cc78383612a42565b9050610956565b6001600160a01b0381166000908152601060209081526040808320805482518185028101850190935280835260609492939192909184015b82821015610b455783829060005260206000209060050201604051806080016040529081600082015481526020016001820160405180604001604052908160008201548152602001600182018054610d5d90614ad7565b80601f0160208091040260200160405190810160405280929190818152602001828054610d8990614ad7565b8015610dd65780601f10610dab57610100808354040283529160200191610dd6565b820191906000526020600020905b815481529060010190602001808311610db957829003601f168201915b505050919092525050508152600382015460209091019060ff166006811115610e0157610e01614468565b6006811115610e1257610e12614468565b8152602001600482018054610e2690614ad7565b80601f0160208091040260200160405190810160405280929190818152602001828054610e5290614ad7565b8015610e9f5780601f10610e7457610100808354040283529160200191610e9f565b820191906000526020600020905b815481529060010190602001808311610e8257829003601f168201915b50505050508152505081526020019060010190610d06565b600b546006546040516321a9204d60e11b815233600482015260248101919091526001600160a01b0390911690634352409a90604401602060405180830381865afa158015610f0a573d6000803e3d6000fd5b505050506040513d601f19601f82011682018060405250810190610f2e9190614b11565b610f4b5760405163088d893560e11b815260040160405180910390fd5b6001600160a01b0383163314610f745760405163075fd2b160e01b815260040160405180910390fd5b6001600160a01b038084166000908152600e60209081526040808320815160c081018352815460ff8116151582526101009004909516858401526001810154858301528151808301909252600281018054835260038201805495969592946060870194939084019190610fe690614ad7565b80601f016020809104026020016040519081016040528092919081815260200182805461101290614ad7565b801561105f5780601f106110345761010080835404028352916020019161105f565b820191906000526020600020905b81548152906001019060200180831161104257829003601f168201915b505050919092525050508152600482015460209091019060ff16600681111561108a5761108a614468565b600681111561109b5761109b614468565b81526020016004820160019054906101000a900460ff1660068111156110c3576110c3614468565b60068111156110d4576110d4614468565b90525090506002816080015160068111156110f1576110f1614468565b1461110f5760405163392c16fb60e21b815260040160405180910390fd5b6001600160a01b03841660009081526014602052604090208054841061114857604051632f1f68e160e11b815260040160405180910390fd5b600081858154811061115c5761115c614b33565b6000918252602090912060059091020190506002600382015460ff16600681111561118957611189614468565b036111a757604051637f46ed2760e11b815260040160405180910390fd5b60005b600d54811015611218576000601660008881526020019081526020016000206002016000600d84815481106111e1576111e1614b33565b60009182526020808320909101546001600160a01b031683528201929092526040019020558061121081614b5f565b9150506111aa565b506000858152601660205260408120818155600190810191909155849082016112418282614bc6565b505060038101805460ff191660011790556040517f8673cfb5a2cbad812463bdfd7c85511f29c804579a86d318889ab925155399619061128690889088908890614cbe565b60405180910390a1505050505050565b600061095682612ca2565b6112a9614042565b61095682612d47565b600b546006546040516321a9204d60e11b815233600482015260248101919091526001600160a01b0390911690634352409a90604401602060405180830381865afa158015611305573d6000803e3d6000fd5b505050506040513d601f19601f820116820180604052508101906113299190614b11565b6113465760405163088d893560e11b815260040160405180910390fd5b6000336001600160a01b038416148061136457506113648333612eb7565b9050806113845760405163075fd2b160e01b815260040160405180910390fd5b6001600160a01b0383166000908152600e602052604090206002600482015460ff1660068111156113b7576113b7614468565b146113d55760405163392c16fb60e21b815260040160405180910390fd5b60026004820154610100900460ff1660068111156113f5576113f5614468565b03611413576040516305ca31d360e51b815260040160405180910390fd5b61141c84612faf565b60005b83518110156114f6576001600160a01b0385166000908152601060205260409020845185908390811061145457611454614b33565b602090810291909101810151825460018181018555600094855293839020825160059092020190815581830151805194820194855592830151919390929160028401906114a19082614d57565b505050604082015160038201805460ff191660018360068111156114c7576114c7614468565b0217905550606082015160048201906114e09082614d57565b50505080806114ee90614b5f565b91505061141f565b508251604080516001600160a01b038716815260208101929092527f8a5603111f154f43104afe04452c6a93024a972cb6a0af72e6f38bcce68625d5910160405180910390a150505050565b3361154c81613069565b600b546005546040516321a9204d60e11b815233600482015260248101919091526001600160a01b0390911690634352409a90604401602060405180830381865afa15801561159f573d6000803e3d6000fd5b505050506040513d601f19601f820116820180604052508101906115c39190614b11565b6115e057604051636bbe41b360e01b815260040160405180910390fd5b60008381526016602090815260408083203384526002019091529020541561161b5760405163448bae6f60e01b815260040160405180910390fd5b6001600160a01b038085166000908152600e60209081526040808320815160c081018352815460ff811615158252610100900490951685840152600181015485830152815180830190925260028101805483526003820180549596959294606087019493908401919061168d90614ad7565b80601f01602080910402602001604051908101604052809291908181526020018280546116b990614ad7565b80156117065780601f106116db57610100808354040283529160200191611706565b820191906000526020600020905b8154815290600101906020018083116116e957829003601f168201915b505050919092525050508152600482015460209091019060ff16600681111561173157611731614468565b600681111561174257611742614468565b81526020016004820160019054906101000a900460ff16600681111561176a5761176a614468565b600681111561177b5761177b614468565b905250905060028160800151600681111561179857611798614468565b146117b65760405163392c16fb60e21b815260040160405180910390fd5b6001600160a01b0385166000908152601460205260409020805485106117ef57604051632f1f68e160e11b815260040160405180910390fd5b600081868154811061180357611803614b33565b6000918252602090912060059091020190506001600382015460ff16600681111561183057611830614468565b1461184e57604051635b2fe71d60e11b815260040160405180910390fd5b336000908152600f602052604081205460085460075491929160649161187391614e16565b61187d9190614e2d565b600089815260166020908152604080832033845260029081019092529091208490559091508760068111156118b4576118b4614468565b03611a2157600088815260166020526040812080548492906118d7908490614e4f565b9091555050600088815260166020526040902054811015611a1c5760038301805488919060ff1916600183600681111561191357611913614468565b021790555060408051600180825281830190925260009160208083019080368337019050509050898160008151811061194e5761194e614b33565b6001600160a01b039283166020918202929092010152600154604051631d2fdec960e11b81527f000000000000000000000000000000000000000000000000000000000000000090921691633a5fbd92916119ad918590600401614e62565b600060405180830381600087803b1580156119c757600080fd5b505af11580156119db573d6000803e3d6000fd5b505050507ff1af82b65c631a030029b10ea8f00f68290285c7c797644155b8f23969ca1d638a8a8a604051611a1293929190614ec9565b60405180910390a1505b611b65565b6003876006811115611a3557611a35614468565b03611b655760008881526016602052604081206001018054849290611a5b908490614e4f565b9091555050600088815260166020526040902060010154811015611b655760038301805488919060ff19166001836006811115611a9a57611a9a614468565b021790555060005b600d54811015611b10576000601660008b81526020019081526020016000206002016000600d8481548110611ad957611ad9614b33565b60009182526020808320909101546001600160a01b0316835282019290925260400190205580611b0881614b5f565b915050611aa2565b5060008881526016602052604080822082815560010191909155517ff1af82b65c631a030029b10ea8f00f68290285c7c797644155b8f23969ca1d6390611b5c908b908b908b90614ec9565b60405180910390a15b7f4460beb477b3843656610a89bd67c551d2a78131b5a955ddccd5eb9aa218c8c3898989604051611b9893929190614ec9565b60405180910390a1505050505050505050565b33611bb581613069565b600b546005546040516321a9204d60e11b815233600482015260248101919091526001600160a01b0390911690634352409a90604401602060405180830381865afa158015611c08573d6000803e3d6000fd5b505050506040513d601f19601f82011682018060405250810190611c2c9190614b11565b611c4957604051636bbe41b360e01b815260040160405180910390fd5b6002826006811115611c5d57611c5d614468565b14158015611c7d57506003826006811115611c7a57611c7a614468565b14155b15611c9b5760405163343b80b160e01b815260040160405180910390fd5b3360009081526013602052604090205415611cc95760405163448bae6f60e01b815260040160405180910390fd5b336000908152600f6020526040812054600854600754919291606491611cee91614e16565b611cf89190614e2d565b33600090815260136020526040902083905590506002846006811115611d2057611d20614468565b03611d97578160116000016000828254611d3a9190614e4f565b9091555050601154811015611d9257611d5161311b565b6004805460ff19166003179055611d686000613272565b6040517fd32d40de3c1ce9d2fa081d8cd5a6b778eaea7095966658ace12863ce23d09a6090600090a15b611e69565b6003846006811115611dab57611dab614468565b03611e69578160116001016000828254611dc59190614e4f565b9091555050601254811015611e695760005b600d54811015611e3457600060116002016000600d8481548110611dfd57611dfd614b33565b60009182526020808320909101546001600160a01b0316835282019290925260400190205580611e2c81614b5f565b915050611dd7565b506000601181905560128190556040517f7a5d554e29a9295668ae87eb63589a5dd4d751e9c16b4a8173c28b9f0bc4a1d09190a15b50505050565b81518151606091908114611e9657604051633da4c02b60e11b815260040160405180910390fd5b6000816001600160401b03811115611eb057611eb061414f565b604051908082528060200260200182016040528015611ef557816020015b6040805180820190915260008082526020820152815260200190600190039081611ece5790505b50905060005b82811015611f6457611f3f868281518110611f1857611f18614b33565b6020026020010151868381518110611f3257611f32614b33565b60200260200101516132b9565b828281518110611f5157611f51614b33565b6020908102919091010152600101611efb565b50949350505050565b33611f7781613069565b600b546005546040516321a9204d60e11b815233600482015260248101919091526001600160a01b0390911690634352409a90604401602060405180830381865afa158015611fca573d6000803e3d6000fd5b505050506040513d601f19601f82011682018060405250810190611fee9190614b11565b61200b57604051636bbe41b360e01b815260040160405180910390fd5b6001600160a01b0383166000908152601060209081526040808320338452600301909152902054156120505760405163448bae6f60e01b815260040160405180910390fd5b6001600160a01b0383166000908152600e6020526040902060026004820154610100900460ff16600681111561208857612088614468565b036120a6576040516305ca31d360e51b815260040160405180910390fd5b336000908152600f60205260408120546008546007549192916064916120cb91614e16565b6120d59190614e2d565b6001600160a01b038716600090815260106020908152604080832033845260030190915290208390559050600285600681111561211457612114614468565b036123dc576001600160a01b03861660009081526010602052604081206001018054849290612144908490614e4f565b90915550506001600160a01b0386166000908152601060205260409020600101548110156123d7576001600160a01b0386166000908152600e60205260409020600401805486919061ff0019166101008360068111156121a6576121a6614468565b02179055506001600160a01b0386166000908152601060209081526040808320805482518185028101850190935280835261239a948b9484015b82821015612391578382906000526020600020906005020160405180608001604052908160008201548152602001600182016040518060400160405290816000820154815260200160018201805461223790614ad7565b80601f016020809104026020016040519081016040528092919081815260200182805461226390614ad7565b80156122b05780601f10612285576101008083540402835291602001916122b0565b820191906000526020600020905b81548152906001019060200180831161229357829003601f168201915b505050919092525050508152600382015460209091019060ff1660068111156122db576122db614468565b60068111156122ec576122ec614468565b815260200160048201805461230090614ad7565b80601f016020809104026020016040519081016040528092919081815260200182805461232c90614ad7565b80156123795780601f1061234e57610100808354040283529160200191612379565b820191906000526020600020905b81548152906001019060200180831161235c57829003601f168201915b505050505081525050815260200190600101906121e0565b50505050613304565b6040516001600160a01b03871681527f7b05d1f85b1ac2e76c0d8dbb0dfa809df6788f66bbeeb837b2b5fae4f64c00639060200160405180910390a15b6124cd565b60038560068111156123f0576123f0614468565b036124cd576001600160a01b03861660009081526010602052604081206002018054849290612420908490614e4f565b90915550506001600160a01b0386166000908152601060205260409020600201548110156124cd576001600160a01b0386166000908152600e60205260409020600401805486919061ff00191661010083600681111561248257612482614468565b021790555061249086612faf565b6040516001600160a01b03871681527f5a90817477dd8f83cfe5d429e1dc84ad5a25cb72b83291c707c6f8f5c4f2ac849060200160405180910390a15b7f30dae55c386c6176f3f7b7ee6ad4df33970f2e442cb0142e978cf78fd8ae138d8686604051611286929190614eed565b612506613588565b8015806125135750348114155b15612531576040516303e09bb960e31b815260040160405180910390fd5b600260045460ff16600381111561254a5761254a614468565b1415801561256f5750600360045460ff16600381111561256c5761256c614468565b14155b1561258d5760405163af216dc160e01b815260040160405180910390fd5b60005b600d548110156126b5576000600f6000600d84815481106125b3576125b3614b33565b60009182526020808320909101546001600160a01b031683528201929092526040018120549150670de0b6b3a76400006125ed8386614e16565b6125f79190614e2d565b905061263f73eeeeeeeeeeeeeeeeeeeeeeeeeeeeeeeeeeeeeeee600d858154811061262457612624614b33565b6000918252602090912001546001600160a01b0316836135b2565b7f1b3aaa5108c1298a5d8ae7d7eea4fc6316f15915c3814fe8fc14eb8537820381600d848154811061267357612673614b33565b60009182526020918290200154604080516001600160a01b0390921682529181018490520160405180910390a1505080806126ad90614b5f565b915050612590565b506126c06001600355565b50565b601460205281600052604060002081815481106126df57600080fd5b906000526020600020906005020160009150915050806000015490806001016040518060400160405290816000820154815260200160018201805461272390614ad7565b80601f016020809104026020016040519081016040528092919081815260200182805461274f90614ad7565b801561279c5780601f106127715761010080835404028352916020019161279c565b820191906000526020600020905b81548152906001019060200180831161277f57829003601f168201915b505050919092525050506003820154600483018054929360ff909216926127c290614ad7565b80601f01602080910402602001604051908101604052809291908181526020018280546127ee90614ad7565b801561283b5780601f106128105761010080835404028352916020019161283b565b820191906000526020600020905b81548152906001019060200180831161281e57829003601f168201915b5050505050905084565b6000610956826135ec565b6000818060200190518101906128669190614f15565b90506128728382613601565b7f91efa3d50feccde0d0d202f8ae5c41ca0b2be614cebcb2bd2f4b019396e6568a83836040516128a3929190615027565b60405180910390a1505050565b6128b861293d565b6128c0612988565b6128ca828261389d565b5050565b6128d661293d565b80600260008282546128e89190614e4f565b909155506126c090508181565b6001600160a01b038216600090815260146020526040812080548390811061291f5761291f614b33565b600091825260209091206005909102016003015460ff169392505050565b336001600160a01b037f000000000000000000000000000000000000000000000000000000000000000016146129865760405163075fd2b160e01b815260040160405180910390fd5b565b60015460000361298657604051630f68fe6360e21b815260040160405180910390fd5b6001600160a01b0381163014612a035760405162461bcd60e51b815260206004820152601760248201527f554e415554484f52495a454420646973747269627574650000000000000000006044820152606401610bfa565b825160005b81811015612a3b57612a33858281518110612a2557612a25614b33565b602002602001015184613bc7565b600101612a08565b5050505050565b6000612a4c613f6e565b600080600080612a6f604051806040016040528060008152602001606081525090565b87806020019051810190612a8391906150d6565b9297509095506001600160a01b038616151594509250905082612aa65784612aa8565b835b9550828015612abe5750612abc8688612eb7565b155b15612adc5760405163075fd2b160e01b815260040160405180910390fd5b60026001600160a01b0387166000908152600e602052604090206004015460ff166006811115612b0e57612b0e614468565b03612b2c5760405163083a81f760e31b815260040160405180910390fd5b60006040518060c001604052808515158152602001876001600160a01b0316815260200184815260200183815260200160026006811115612b6f57612b6f614468565b8152602001600190526001600160a01b038881166000908152600e602090815260409182902084518154868401516001600160a81b0319909116911515610100600160a81b03191691909117610100919095160293909317835590830151600183015560608301518051600284019081559181015193945084939091906003840190612bfb9082614d57565b505050608082015160048201805460ff19166001836006811115612c2157612c21614468565b021790555060a082015160048201805461ff001916610100836006811115612c4b57612c4b614468565b0217905550905050866001600160a01b03167fa197306e3dd5494a61a695381aa809a53b8e377a685e84e404a85d5a8da6cc628a8a604051612c8e929190615143565b60405180910390a250505050505092915050565b6001546040516329e40d4b60e01b81526000916001600160a01b037f000000000000000000000000000000000000000000000000000000000000000016916329e40d4b91612d069186906004019182526001600160a01b0316602082015260400190565b602060405180830381865afa158015612d23573d6000803e3d6000fd5b505050506040513d601f19601f820116820180604052508101906109569190614b11565b612d4f614042565b6001600160a01b038083166000908152600e6020908152604091829020825160c081018452815460ff811615158252610100900490941684830152600181015484840152825180840190935260028101805484526003820180549294606087019490939084019190612dc090614ad7565b80601f0160208091040260200160405190810160405280929190818152602001828054612dec90614ad7565b8015612e395780601f10612e0e57610100808354040283529160200191612e39565b820191906000526020600020905b815481529060010190602001808311612e1c57829003601f168201915b505050919092525050508152600482015460209091019060ff166006811115612e6457612e64614468565b6006811115612e7557612e75614468565b81526020016004820160019054906101000a900460ff166006811115612e9d57612e9d614468565b6006811115612eae57612eae614468565b90525092915050565b60095460405163dd93da4360e01b81526001600160a01b038481166004830152600092839291169063dd93da4390602401600060405180830381865afa158015612f05573d6000803e3d6000fd5b505050506040513d6000823e601f3d908101601f19168201604052612f2d919081019061516d565b6009548151604051635e8a791560e01b815260048101919091526001600160a01b038681166024830152929350911690635e8a791590604401602060405180830381865afa158015612f83573d6000803e3d6000fd5b505050506040513d601f19601f82011682018060405250810190612fa79190614b11565b949350505050565b60005b600d5481101561303257600060106000846001600160a01b03166001600160a01b031681526020019081526020016000206003016000600d8481548110612ffb57612ffb614b33565b60009182526020808320909101546001600160a01b031683528201929092526040019020558061302a81614b5f565b915050612fb2565b506001600160a01b038116600090815260106020526040812090613056828261409d565b5060006001820181905560029091015550565b6001546040516329e40d4b60e01b815260048101919091526001600160a01b0382811660248301527f000000000000000000000000000000000000000000000000000000000000000016906329e40d4b90604401602060405180830381865afa1580156130da573d6000803e3d6000fd5b505050506040513d601f19601f820116820180604052508101906130fe9190614b11565b6126c05760405163075fd2b160e01b815260040160405180910390fd5b60005b600d548110156126c0576000600f6000600d848154811061314157613141614b33565b60009182526020808320909101546001600160a01b03168352820192909252604001812054600254909250670de0b6b3a764000090613181908490614e16565b61318b9190614e2d565b905060007f00000000000000000000000000000000000000000000000000000000000000006001600160a01b031663068bcd8d6001546040518263ffffffff1660e01b81526004016131df91815260200190565b600060405180830381865afa1580156131fc573d6000803e3d6000fd5b505050506040513d6000823e601f3d908101601f191682016040526132249190810190615233565b905061325c8160400151600d868154811061324157613241614b33565b6000918252602090912001546001600160a01b0316846135b2565b505050808061326a90614b5f565b91505061311e565b6000805460ff19168215159081179091556040519081527fd94c9bc4d43c51d8dc345a016d8e3d994432fac68e72832e4cf3a616bd8efae09060200160405180910390a150565b604080518082019091526000808252602082015260006132d884612d47565b6040805180820182526020808401516001600160a01b0316825291909201519082015291505092915050565b6001600160a01b03821660009081526014602052604081205415613343576001600160a01b03831660009081526014602052604081206133439161409d565b815160005b8181101561346957600084828151811061336457613364614b33565b602002602001015190506000600681111561338157613381614468565b8160400151600681111561339757613397614468565b146133b557604051635b2fe71d60e11b815260040160405180910390fd5b80516133c19085614e4f565b6001600160a01b03871660009081526014602090815260408220805460018181018355918452928290208551600590940201928355848201518051918401918255918201519397508493600284019061341a9082614d57565b505050604082015160038201805460ff1916600183600681111561344057613440614468565b0217905550606082015160048201906134599082614d57565b5050600190920191506133489050565b5081670de0b6b3a764000014613492576040516397a1f28d60e01b815260040160405180910390fd5b60008460026007546040516020016134ac939291906152e6565b60408051601f19818403018152908290526001546305d8703160e31b83529092506001600160a01b037f00000000000000000000000000000000000000000000000000000000000000001691632ec381889161350c918590600401615027565b600060405180830381600087803b15801561352657600080fd5b505af115801561353a573d6000803e3d6000fd5b5050604080516001600160a01b0389168152602081018690527fb000fb1507aac2465ccb4f6bd1b601c7053279005e9e9932c41946b35c84949b935001905060405180910390a15050505050565b6002600354036135ab57604051633ee5aeb560e01b815260040160405180910390fd5b6002600355565b73eeeeeeeeeeeeeeeeeeeeeeeeeeeeeeeeeeeeeeed196001600160a01b038416016135e1576109268282613f91565b610926838383613fad565b60006135f782612d47565b6080015192915050565b61360a82613ff3565b8051600555602081015160065560466008556060810151600b80546001600160a01b0319166001600160a01b0390921691909117905560408101516000805b825181101561368f5782818151811061366457613664614b33565b6020026020010151602001518261367b9190614e4f565b91508061368781614b5f565b915050613649565b5060005b82518110156137dd57600d8382815181106136b0576136b0614b33565b6020908102919091018101515182546001810184556000938452919092200180546001600160a01b0319166001600160a01b039092169190911790558251829084908390811061370257613702614b33565b602002602001015160200151670de0b6b3a76400006137219190614e16565b61372b9190614e2d565b600f600085848151811061374157613741614b33565b6020026020010151600001516001600160a01b03166001600160a01b0316815260200190815260200160002081905550600f600084838151811061378757613787614b33565b6020026020010151600001516001600160a01b03166001600160a01b0316815260200190815260200160002054600760008282546137c59190614e4f565b909155508190506137d581614b5f565b915050613693565b507f00000000000000000000000000000000000000000000000000000000000000006001600160a01b0316635ab1bd536040518163ffffffff1660e01b8152600401602060405180830381865afa15801561383c573d6000803e3d6000fd5b505050506040513d601f19601f820116820180604052508101906138609190615311565b600980546001600160a01b0319166001600160a01b039290921691909117905561388a6001613272565b50506004805460ff191660011790555050565b6138a5613588565b6001600160a01b03811630146138f55760405162461bcd60e51b8152602060048201526015602482015274554e415554484f52495a454420616c6c6f6361746560581b6044820152606401610bfa565b60008060008480602001905181019061390e919061532e565b6001600160a01b0383166000908152600e6020908152604080832060159092529091205493965091945092509015613959576040516305ca31d360e51b815260040160405180910390fd5b6002600482015460ff16600681111561397457613974614468565b141580156139935750600283600681111561399157613991614468565b145b15613b2e5760015460405163068bcd8d60e01b81526000916001600160a01b037f0000000000000000000000000000000000000000000000000000000000000000169163068bcd8d916139ec9160040190815260200190565b600060405180830381865afa158015613a09573d6000803e3d6000fd5b505050506040513d6000823e601f3d908101601f19168201604052613a319190810190615233565b905082600a6000828254613a459190614e4f565b9091555050600254600a541115613a6f57604051638e81b16f60e01b815260040160405180910390fd5b6001820183905560048201805460ff191660029081179091556040517f94593b52aa436dd31a63e313045c2eb23d43eb2d6f5b4d7797b4432e7b27749091613ab991889190614eed565b60405180910390a1846001600160a01b03167f463ffc2cf8b1596445c417388ed30e53eb67cf6668cb2be7f0addf8a78c8441b8360010154836040015189604051613b20939291909283526001600160a01b03918216602084015216604082015260600190565b60405180910390a250613bb9565b6003600482015460ff166006811115613b4957613b49614468565b14158015613b6857506003836006811115613b6657613b66614468565b145b15613bb95760048101805460ff191660039081179091556040517f94593b52aa436dd31a63e313045c2eb23d43eb2d6f5b4d7797b4432e7b27749091613bb091879190614eed565b60405180910390a15b505050506128ca6001600355565b6001600160a01b0380831660009081526015602090815260408083205460148352818420600e8452828520835160c081018552815460ff81161515825261010090049097168786015260018101548785015283518085019094526002810180548552600382018054949893979693959294606087019484019190613c4a90614ad7565b80601f0160208091040260200160405190810160405280929190818152602001828054613c7690614ad7565b8015613cc35780601f10613c9857610100808354040283529160200191613cc3565b820191906000526020600020905b815481529060010190602001808311613ca657829003601f168201915b505050919092525050508152600482015460209091019060ff166006811115613cee57613cee614468565b6006811115613cff57613cff614468565b81526020016004820160019054906101000a900460ff166006811115613d2757613d27614468565b6006811115613d3857613d38614468565b8152505090506000828481548110613d5257613d52614b33565b906000526020600020906005020190508280549050841115613d8757604051632f1f68e160e11b815260040160405180910390fd5b6002600382015460ff166006811115613da257613da2614468565b14613dc057604051635b2fe71d60e11b815260040160405180910390fd5b6000670de0b6b3a764000082600001548460400151613ddf9190614e16565b613de99190614e2d565b905060007f00000000000000000000000000000000000000000000000000000000000000006001600160a01b031663068bcd8d6001546040518263ffffffff1660e01b8152600401613e3d91815260200190565b600060405180830381865afa158015613e5a573d6000803e3d6000fd5b505050506040513d6000823e601f3d908101601f19168201604052613e829190810190615233565b90508160026000828254613e969190615371565b92505081905550613eb081604001518560200151846135b2565b6001600160a01b0388166000908152601560205260408120805491613ed483614b5f565b909155505084546001600160a01b03891660009081526015602052604090205410613f10576004805460ff19166002179055613f106000613272565b602080850151604080516001600160a01b039283168152928301859052898216908301528916907fb5b51454adfa840bd593658325a60a50b0216f12eb5d2937efe6cea935675b7d9060600160405180910390a25050505050505050565b60005460ff166129865760405163cfe7975b60e01b815260040160405180910390fd5b60003860003884865af16128ca5763b12d13eb6000526004601cfd5b816014528060345263a9059cbb60601b60005260206000604460106000875af13d156001600051141716613fe9576390b8ec186000526004601cfd5b6000603452505050565b613ffb61293d565b6001541561401c5760405163439a74c960e01b815260040160405180910390fd5b8060000361403d57604051637fcce2a960e01b815260040160405180910390fd5b600155565b6040518060c0016040528060001515815260200160006001600160a01b031681526020016000815260200161408a604051806040016040528060008152602001606081525090565b8152602001600081526020016000905290565b50805460008255600502906000526020600020908101906126c091905b8082111561410157600080825560018201818155816140dc6002850182614105565b505060038201805460ff191690556140f8600483016000614105565b506005016140ba565b5090565b50805461411190614ad7565b6000825580601f10614121575050565b601f0160209004906000526020600020908101906126c091905b80821115614101576000815560010161413b565b634e487b7160e01b600052604160045260246000fd5b604051608081016001600160401b03811182821017156141875761418761414f565b60405290565b604080519081016001600160401b03811182821017156141875761418761414f565b60405160c081016001600160401b03811182821017156141875761418761414f565b604051601f8201601f191681016001600160401b03811182821017156141f9576141f961414f565b604052919050565b60006001600160401b0382111561421a5761421a61414f565b5060051b60200190565b6001600160a01b03811681146126c057600080fd5b600082601f83011261424a57600080fd5b8135602061425f61425a83614201565b6141d1565b82815260059290921b8401810191818101908684111561427e57600080fd5b8286015b848110156142a257803561429581614224565b8352918301918301614282565b509695505050505050565b60006001600160401b038211156142c6576142c661414f565b50601f01601f191660200190565b600082601f8301126142e557600080fd5b81356142f361425a826142ad565b81815284602083860101111561430857600080fd5b816020850160208301376000918101602001919091529392505050565b60008060006060848603121561433a57600080fd5b83356001600160401b038082111561435157600080fd5b61435d87838801614239565b9450602086013591508082111561437357600080fd5b50614380868287016142d4565b925050604084013561439181614224565b809150509250925092565b600080604083850312156143af57600080fd5b82356143ba81614224565b915060208301356143ca81614224565b809150509250929050565b6000602082840312156143e757600080fd5b81356143f281614224565b9392505050565b60005b838110156144145781810151838201526020016143fc565b50506000910152565b600081518084526144358160208601602086016143f9565b601f01601f19169290920160200192915050565b805182526000602082015160406020850152612fa7604085018261441d565b634e487b7160e01b600052602160045260246000fd5b6007811061448e5761448e614468565b9052565b60006020808301818452808551808352604092508286019150828160051b87010184880160005b8381101561452957603f19898403018552815160808151855288820151818a8701526144e782870182614449565b915050878201516144fa8987018261447e565b5060608083015192508582038187015250614515818361441d565b9689019694505050908601906001016144b9565b509098975050505050505050565b6000806040838503121561454a57600080fd5b50508035926020909101359150565b6000806040838503121561456c57600080fd5b82356001600160401b0381111561458257600080fd5b61458e858286016142d4565b92505060208301356143ca81614224565b6000806000606084860312156145b457600080fd5b83356145bf81614224565b92506020840135915060408401356001600160401b038111156145e157600080fd5b84016040818703121561439157600080fd5b60006020828403121561460557600080fd5b5035919050565b6000806040838503121561461f57600080fd5b8235915060208301356143ca81614224565b6020815281511515602082015260018060a01b036020830151166040820152604082015160608201526000606083015160c0608084015261467560e0840182614449565b9050608084015161468960a085018261447e565b5060a084015161469c60c085018261447e565b509392505050565b600781106126c057600080fd5b80356146bc816146a4565b919050565b600080604083850312156146d457600080fd5b6146de8335614224565b823591506001600160401b0380602085013511156146fb57600080fd5b6020840135840185601f82011261471157600080fd5b61471e61425a8235614201565b81358082526020808301929160051b84010188101561473c57600080fd5b602083015b6020843560051b85010181101561483d57848135111561476057600080fd5b80358401601f196080828c038201121561477957600080fd5b614781614165565b60208301358152876040840135111561479957600080fd5b60408301358301604083828f030112156147b257600080fd5b6147ba61418d565b92506020810135835288604082013511156147d457600080fd5b6147e78d602060408401358401016142d4565b6020840152508160208201526147ff606084016146b1565b6040820152876080840135111561481557600080fd5b6148288c602060808601358601016142d4565b60608201528552505060209283019201614741565b50809450505050509250929050565b60008060006060848603121561486157600080fd5b833561486c81614224565b9250602084013591506040840135614391816146a4565b60006020828403121561489557600080fd5b81356143f2816146a4565b600080604083850312156148b357600080fd5b82356001600160401b03808211156148ca57600080fd5b6148d686838701614239565b93506020915081850135818111156148ed57600080fd5b8501601f810187136148fe57600080fd5b803561490c61425a82614201565b81815260059190911b8201840190848101908983111561492b57600080fd5b8584015b83811015614963578035868111156149475760008081fd5b6149558c89838901016142d4565b84525091860191860161492f565b508096505050505050509250929050565b602080825282518282018190526000919060409081850190868401855b828110156149bf57815180516001600160a01b03168552860151868501529284019290850190600101614991565b5091979650505050505050565b600080604083850312156149df57600080fd5b82356149ea81614224565b915060208301356143ca816146a4565b6020810160048310614a0e57614a0e614468565b91905290565b60008060408385031215614a2757600080fd5b8235614a3281614224565b946020939093013593505050565b848152608060208201526000614a596080830186614449565b614a66604084018661447e565b8281036060840152614a78818561441d565b979650505050505050565b60208101610956828461447e565b60008060408385031215614aa457600080fd5b8235915060208301356001600160401b03811115614ac157600080fd5b614acd858286016142d4565b9150509250929050565b600181811c90821680614aeb57607f821691505b602082108103614b0b57634e487b7160e01b600052602260045260246000fd5b50919050565b600060208284031215614b2357600080fd5b815180151581146143f257600080fd5b634e487b7160e01b600052603260045260246000fd5b634e487b7160e01b600052601160045260246000fd5b600060018201614b7157614b71614b49565b5060010190565b601f82111561092657600081815260208120601f850160051c81016020861015614b9f5750805b601f850160051c820191505b81811015614bbe57828155600101614bab565b505050505050565b813581556001808201602080850135601e19863603018112614be757600080fd5b850180356001600160401b03811115614bff57600080fd5b8036038383011315614c1057600080fd5b614c2481614c1e8654614ad7565b86614b78565b6000601f821160018114614c5a5760008315614c4257508382018501355b600019600385901b1c1916600184901b178655614cb3565b600086815260209020601f19841690835b82811015614c8a57868501880135825593870193908901908701614c6b565b5084821015614ca95760001960f88660031b161c198785880101351681555b50508683881b0186555b505050505050505050565b60018060a01b0384168152826020820152606060408201528135606082015260006020830135601e19843603018112614cf657600080fd5b83016020810190356001600160401b03811115614d1257600080fd5b803603821315614d2157600080fd5b604060808501528060a0850152808260c0860137600060c0828601015260c0601f19601f83011685010192505050949350505050565b81516001600160401b03811115614d7057614d7061414f565b614d8481614d7e8454614ad7565b84614b78565b602080601f831160018114614db95760008415614da15750858301515b600019600386901b1c1916600185901b178555614bbe565b600085815260208120601f198616915b82811015614de857888601518255948401946001909101908401614dc9565b5085821015614e065787850151600019600388901b60f8161c191681555b5050505050600190811b01905550565b808202811582820484141761095657610956614b49565b600082614e4a57634e487b7160e01b600052601260045260246000fd5b500490565b8082018082111561095657610956614b49565b6000606082018483526020606081850152818551808452608086019150828701935060005b81811015614eac5784516001600160a01b031683529383019391830191600101614e87565b505084810360408601526000815281810193505050509392505050565b6001600160a01b03841681526020810183905260608101612fa7604083018461447e565b6001600160a01b0383168152604081016143f2602083018461447e565b80516146bc81614224565b60006020808385031215614f2857600080fd5b82516001600160401b0380821115614f3f57600080fd5b9084019060808287031215614f5357600080fd5b614f5b614165565b82518152838301518482015260408084015183811115614f7a57600080fd5b84019250601f83018813614f8d57600080fd5b8251614f9b61425a82614201565b81815260069190911b8401860190868101908a831115614fba57600080fd5b948701945b828610156150035783868c031215614fd75760008081fd5b614fdf61418d565b8651614fea81614224565b8152868901518982015282529483019490870190614fbf565b80848601525050505061501860608401614f0a565b60608201529695505050505050565b828152604060208201526000612fa7604083018461441d565b600082601f83011261505157600080fd5b815161505f61425a826142ad565b81815284602083860101111561507457600080fd5b612fa78260208301602087016143f9565b60006040828403121561509757600080fd5b61509f61418d565b90508151815260208201516001600160401b038111156150be57600080fd5b6150ca84828501615040565b60208301525092915050565b600080600080608085870312156150ec57600080fd5b84516150f781614224565b602086015190945061510881614224565b6040860151606087015191945092506001600160401b0381111561512b57600080fd5b61513787828801615085565b91505092959194509250565b604081526000615156604083018561441d565b905060018060a01b03831660208301529392505050565b60006020828403121561517f57600080fd5b81516001600160401b038082111561519657600080fd5b9083019060c082860312156151aa57600080fd5b6151b26141af565b82518152602083015160208201526040830151828111156151d257600080fd5b6151de87828601615040565b6040830152506060830151828111156151f657600080fd5b61520287828601615085565b60608301525061521460808401614f0a565b608082015261522560a08401614f0a565b60a082015295945050505050565b60006020828403121561524557600080fd5b81516001600160401b038082111561525c57600080fd5b9083019060c0828603121561527057600080fd5b6152786141af565b82518152602083015161528a81614224565b6020820152604083015161529d81614224565b60408201526060830151828111156152b457600080fd5b6152c087828601615085565b6060830152506080830151608082015260a083015160a082015280935050505092915050565b6001600160a01b038416815260608101615303602083018561447e565b826040830152949350505050565b60006020828403121561532357600080fd5b81516143f281614224565b60008060006060848603121561534357600080fd5b835161534e81614224565b602085015190935061535f816146a4565b80925050604084015190509250925092565b8181038181111561095657610956614b4956fea2646970667358221220f3318dea2cecc76e97f0022b181fe0c805c9db6fddd4f6907c077fa64135667d64736f6c63430008140033",
  "linkReferences": {},
  "deployedLinkReferences": {}
}