{
  "_format": "hh-sol-artifact-1",
  "contractName": "ExecutorSupplierVotingStrategy",
  "sourceName": "contracts/ExecutorSupplierVotingStrategy.sol",
  "abi": [
    {
      "inputs": [
        {
          "internalType": "address",
          "name": "_allo",
          "type": "address"
        },
        {
          "internalType": "string",
          "name": "_name",
          "type": "string"
        }
      ],
      "stateMutability": "nonpayable",
      "type": "constructor"
    },
    {
      "inputs": [],
      "name": "ALLOCATION_ACTIVE",
      "type": "error"
    },
    {
      "inputs": [],
      "name": "ALLOCATION_EXCEEDS_POOL_AMOUNT",
      "type": "error"
    },
    {
      "inputs": [],
      "name": "ALLOCATION_NOT_ACTIVE",
      "type": "error"
    },
    {
      "inputs": [],
      "name": "ALLOCATION_NOT_ENDED",
      "type": "error"
    },
    {
      "inputs": [],
      "name": "ALREADY_INITIALIZED",
      "type": "error"
    },
    {
      "inputs": [],
      "name": "ALREADY_REVIEWED",
      "type": "error"
    },
    {
      "inputs": [],
      "name": "AMOUNT_MISMATCH",
      "type": "error"
    },
    {
      "inputs": [],
      "name": "ANCHOR_ERROR",
      "type": "error"
    },
    {
      "inputs": [],
      "name": "ARRAY_MISMATCH",
      "type": "error"
    },
    {
      "inputs": [],
      "name": "EXECUTOR_HAT_WEARING_REQUIRED",
      "type": "error"
    },
    {
      "inputs": [],
      "name": "INVALID",
      "type": "error"
    },
    {
      "inputs": [],
      "name": "INVALID_ADDRESS",
      "type": "error"
    },
    {
      "inputs": [],
      "name": "INVALID_FEE",
      "type": "error"
    },
    {
      "inputs": [],
      "name": "INVALID_METADATA",
      "type": "error"
    },
    {
      "inputs": [],
      "name": "INVALID_MILESTONE",
      "type": "error"
    },
    {
      "inputs": [],
      "name": "INVALID_MILESTONES_PERCENTAGE",
      "type": "error"
    },
    {
      "inputs": [],
      "name": "INVALID_MILESTONE_STATUS",
      "type": "error"
    },
    {
      "inputs": [],
      "name": "INVALID_REGISTRATION",
      "type": "error"
    },
    {
      "inputs": [],
      "name": "INVALID_STATUS",
      "type": "error"
    },
    {
      "inputs": [],
      "name": "IS_APPROVED_STRATEGY",
      "type": "error"
    },
    {
      "inputs": [],
      "name": "MILESTONES_ALREADY_SET",
      "type": "error"
    },
    {
      "inputs": [],
      "name": "MILESTONE_ALREADY_ACCEPTED",
      "type": "error"
    },
    {
      "inputs": [],
      "name": "MISMATCH",
      "type": "error"
    },
    {
      "inputs": [],
      "name": "NONCE_NOT_AVAILABLE",
      "type": "error"
    },
    {
      "inputs": [],
      "name": "NOT_APPROVED_STRATEGY",
      "type": "error"
    },
    {
      "inputs": [],
      "name": "NOT_ENOUGH_FUNDS",
      "type": "error"
    },
    {
      "inputs": [],
      "name": "NOT_IMPLEMENTED",
      "type": "error"
    },
    {
      "inputs": [],
      "name": "NOT_INITIALIZED",
      "type": "error"
    },
    {
      "inputs": [],
      "name": "NOT_PENDING_OWNER",
      "type": "error"
    },
    {
      "inputs": [],
      "name": "POOL_ACTIVE",
      "type": "error"
    },
    {
      "inputs": [],
      "name": "POOL_INACTIVE",
      "type": "error"
    },
    {
      "inputs": [],
      "name": "RECIPIENT_ALREADY_ACCEPTED",
      "type": "error"
    },
    {
      "inputs": [
        {
          "internalType": "address",
          "name": "recipientId",
          "type": "address"
        }
      ],
      "name": "RECIPIENT_ERROR",
      "type": "error"
    },
    {
      "inputs": [],
      "name": "RECIPIENT_NOT_ACCEPTED",
      "type": "error"
    },
    {
      "inputs": [],
      "name": "REGISTRATION_NOT_ACTIVE",
      "type": "error"
    },
    {
      "inputs": [],
      "name": "ReentrancyGuardReentrantCall",
      "type": "error"
    },
    {
      "inputs": [],
      "name": "SUPPLIER_HAT_WEARING_REQUIRED",
      "type": "error"
    },
    {
      "inputs": [],
      "name": "UNAUTHORIZED",
      "type": "error"
    },
    {
      "inputs": [],
      "name": "ZERO_ADDRESS",
      "type": "error"
    },
    {
      "anonymous": false,
      "inputs": [
        {
          "indexed": true,
          "internalType": "address",
          "name": "recipientId",
          "type": "address"
        },
        {
          "indexed": false,
          "internalType": "uint256",
          "name": "amount",
          "type": "uint256"
        },
        {
          "indexed": false,
          "internalType": "address",
          "name": "token",
          "type": "address"
        },
        {
          "indexed": false,
          "internalType": "address",
          "name": "sender",
          "type": "address"
        }
      ],
      "name": "Allocated",
      "type": "event"
    },
    {
      "anonymous": false,
      "inputs": [
        {
          "indexed": true,
          "internalType": "address",
          "name": "recipientId",
          "type": "address"
        },
        {
          "indexed": false,
          "internalType": "address",
          "name": "recipientAddress",
          "type": "address"
        },
        {
          "indexed": false,
          "internalType": "uint256",
          "name": "amount",
          "type": "uint256"
        },
        {
          "indexed": false,
          "internalType": "address",
          "name": "sender",
          "type": "address"
        }
      ],
      "name": "Distributed",
      "type": "event"
    },
    {
      "anonymous": false,
      "inputs": [
        {
          "indexed": false,
          "internalType": "uint256",
          "name": "poolId",
          "type": "uint256"
        },
        {
          "indexed": false,
          "internalType": "bytes",
          "name": "data",
          "type": "bytes"
        }
      ],
      "name": "Initialized",
      "type": "event"
    },
    {
      "anonymous": false,
      "inputs": [
        {
          "indexed": false,
          "internalType": "address",
          "name": "recipientId",
          "type": "address"
        },
        {
          "indexed": false,
          "internalType": "uint256",
          "name": "milestoneId",
          "type": "uint256"
        },
        {
          "indexed": false,
          "internalType": "enum IStrategy.Status",
          "name": "status",
          "type": "uint8"
        }
      ],
      "name": "MilestoneStatusChanged",
      "type": "event"
    },
    {
      "anonymous": false,
      "inputs": [
        {
          "indexed": false,
          "internalType": "address",
          "name": "recipientId",
          "type": "address"
        },
        {
          "indexed": false,
          "internalType": "uint256",
          "name": "milestoneId",
          "type": "uint256"
        },
        {
          "components": [
            {
              "internalType": "uint256",
              "name": "protocol",
              "type": "uint256"
            },
            {
              "internalType": "string",
              "name": "pointer",
              "type": "string"
            }
          ],
          "indexed": false,
          "internalType": "struct Metadata",
          "name": "metadata",
          "type": "tuple"
        }
      ],
      "name": "MilestoneSubmitted",
      "type": "event"
    },
    {
      "anonymous": false,
      "inputs": [
        {
          "indexed": false,
          "internalType": "address",
          "name": "recipientId",
          "type": "address"
        },
        {
          "indexed": false,
          "internalType": "uint256",
          "name": "milestonesLength",
          "type": "uint256"
        }
      ],
      "name": "MilestonesOffered",
      "type": "event"
    },
    {
      "anonymous": false,
      "inputs": [
        {
          "indexed": false,
          "internalType": "address",
          "name": "recipientId",
          "type": "address"
        },
        {
          "indexed": false,
          "internalType": "enum IStrategy.Status",
          "name": "status",
          "type": "uint8"
        }
      ],
      "name": "MilestonesReviewed",
      "type": "event"
    },
    {
      "anonymous": false,
      "inputs": [
        {
          "indexed": false,
          "internalType": "address",
          "name": "recipientId",
          "type": "address"
        },
        {
          "indexed": false,
          "internalType": "uint256",
          "name": "milestonesLength",
          "type": "uint256"
        }
      ],
      "name": "MilestonesSet",
      "type": "event"
    },
    {
      "anonymous": false,
      "inputs": [
        {
          "indexed": false,
          "internalType": "address",
          "name": "recipientId",
          "type": "address"
        }
      ],
      "name": "OfferedMilestonesAccepted",
      "type": "event"
    },
    {
      "anonymous": false,
      "inputs": [
        {
          "indexed": false,
          "internalType": "address",
          "name": "recipientId",
          "type": "address"
        }
      ],
      "name": "OfferedMilestonesRejected",
      "type": "event"
    },
    {
      "anonymous": false,
      "inputs": [
        {
          "indexed": false,
          "internalType": "bool",
          "name": "active",
          "type": "bool"
        }
      ],
      "name": "PoolActive",
      "type": "event"
    },
    {
      "anonymous": false,
      "inputs": [],
      "name": "ProjectRejectDeclined",
      "type": "event"
    },
    {
      "anonymous": false,
      "inputs": [],
      "name": "ProjectRejected",
      "type": "event"
    },
    {
      "anonymous": false,
      "inputs": [
        {
          "indexed": false,
          "internalType": "address",
          "name": "recipientId",
          "type": "address"
        },
        {
          "indexed": false,
          "internalType": "enum IStrategy.Status",
          "name": "status",
          "type": "uint8"
        }
      ],
      "name": "RecipientStatusChanged",
      "type": "event"
    },
    {
      "anonymous": false,
      "inputs": [
        {
          "indexed": true,
          "internalType": "address",
          "name": "recipientId",
          "type": "address"
        },
        {
          "indexed": false,
          "internalType": "bytes",
          "name": "data",
          "type": "bytes"
        },
        {
          "indexed": false,
          "internalType": "address",
          "name": "sender",
          "type": "address"
        }
      ],
      "name": "Registered",
      "type": "event"
    },
    {
      "anonymous": false,
      "inputs": [
        {
          "indexed": false,
          "internalType": "address",
          "name": "recipientId",
          "type": "address"
        },
        {
          "indexed": false,
          "internalType": "uint256",
          "name": "milestoneId",
          "type": "uint256"
        },
        {
          "indexed": false,
          "internalType": "enum IStrategy.Status",
          "name": "status",
          "type": "uint8"
        }
      ],
      "name": "SubmittedvMilestoneReviewed",
      "type": "event"
    },
    {
      "inputs": [],
      "name": "NATIVE",
      "outputs": [
        {
          "internalType": "address",
          "name": "",
          "type": "address"
        }
      ],
      "stateMutability": "view",
      "type": "function"
    },
    {
      "inputs": [
        {
          "internalType": "bytes",
          "name": "_data",
          "type": "bytes"
        },
        {
          "internalType": "address",
          "name": "_sender",
          "type": "address"
        }
      ],
      "name": "allocate",
      "outputs": [],
      "stateMutability": "payable",
      "type": "function"
    },
    {
      "inputs": [],
      "name": "allocatedGrantAmount",
      "outputs": [
        {
          "internalType": "uint256",
          "name": "",
          "type": "uint256"
        }
      ],
      "stateMutability": "view",
      "type": "function"
    },
    {
      "inputs": [
        {
          "internalType": "address[]",
          "name": "_recipientIds",
          "type": "address[]"
        },
        {
          "internalType": "bytes",
          "name": "_data",
          "type": "bytes"
        },
        {
          "internalType": "address",
          "name": "_sender",
          "type": "address"
        }
      ],
      "name": "distribute",
      "outputs": [],
      "stateMutability": "nonpayable",
      "type": "function"
    },
    {
      "inputs": [],
      "name": "executorHat",
      "outputs": [
        {
          "internalType": "uint256",
          "name": "",
          "type": "uint256"
        }
      ],
      "stateMutability": "view",
      "type": "function"
    },
    {
      "inputs": [],
      "name": "getAllo",
      "outputs": [
        {
          "internalType": "contract IAllo",
          "name": "",
          "type": "address"
        }
      ],
      "stateMutability": "view",
      "type": "function"
    },
    {
      "inputs": [
        {
          "internalType": "address",
          "name": "_recipientId",
          "type": "address"
        },
        {
          "internalType": "uint256",
          "name": "_milestoneId",
          "type": "uint256"
        }
      ],
      "name": "getMilestoneStatus",
      "outputs": [
        {
          "internalType": "enum IStrategy.Status",
          "name": "",
          "type": "uint8"
        }
      ],
      "stateMutability": "view",
      "type": "function"
    },
    {
      "inputs": [
        {
          "internalType": "address",
          "name": "_recipientId",
          "type": "address"
        }
      ],
      "name": "getMilestones",
      "outputs": [
        {
          "components": [
            {
              "internalType": "uint256",
              "name": "amountPercentage",
              "type": "uint256"
            },
            {
              "components": [
                {
                  "internalType": "uint256",
                  "name": "protocol",
                  "type": "uint256"
                },
                {
                  "internalType": "string",
                  "name": "pointer",
                  "type": "string"
                }
              ],
              "internalType": "struct Metadata",
              "name": "metadata",
              "type": "tuple"
            },
            {
              "internalType": "enum IStrategy.Status",
              "name": "milestoneStatus",
              "type": "uint8"
            },
            {
              "internalType": "string",
              "name": "description",
              "type": "string"
            }
          ],
          "internalType": "struct ExecutorSupplierVotingStrategy.Milestone[]",
          "name": "",
          "type": "tuple[]"
        }
      ],
      "stateMutability": "view",
      "type": "function"
    },
    {
      "inputs": [
        {
          "internalType": "address",
          "name": "_recipientId",
          "type": "address"
        }
      ],
      "name": "getOffeeredMilestones",
      "outputs": [
        {
          "components": [
            {
              "internalType": "uint256",
              "name": "amountPercentage",
              "type": "uint256"
            },
            {
              "components": [
                {
                  "internalType": "uint256",
                  "name": "protocol",
                  "type": "uint256"
                },
                {
                  "internalType": "string",
                  "name": "pointer",
                  "type": "string"
                }
              ],
              "internalType": "struct Metadata",
              "name": "metadata",
              "type": "tuple"
            },
            {
              "internalType": "enum IStrategy.Status",
              "name": "milestoneStatus",
              "type": "uint8"
            },
            {
              "internalType": "string",
              "name": "description",
              "type": "string"
            }
          ],
          "internalType": "struct ExecutorSupplierVotingStrategy.Milestone[]",
          "name": "",
          "type": "tuple[]"
        }
      ],
      "stateMutability": "view",
      "type": "function"
    },
    {
      "inputs": [
        {
          "internalType": "address",
          "name": "_recipientId",
          "type": "address"
        }
      ],
      "name": "getOfferedMilestonesVotesAgainst",
      "outputs": [
        {
          "internalType": "uint256",
          "name": "",
          "type": "uint256"
        }
      ],
      "stateMutability": "view",
      "type": "function"
    },
    {
      "inputs": [
        {
          "internalType": "address",
          "name": "_recipientId",
          "type": "address"
        }
      ],
      "name": "getOfferedMilestonesVotesFor",
      "outputs": [
        {
          "internalType": "uint256",
          "name": "",
          "type": "uint256"
        }
      ],
      "stateMutability": "view",
      "type": "function"
    },
    {
      "inputs": [
        {
          "internalType": "address[]",
          "name": "_recipientIds",
          "type": "address[]"
        },
        {
          "internalType": "bytes[]",
          "name": "_data",
          "type": "bytes[]"
        }
      ],
      "name": "getPayouts",
      "outputs": [
        {
          "components": [
            {
              "internalType": "address",
              "name": "recipientAddress",
              "type": "address"
            },
            {
              "internalType": "uint256",
              "name": "amount",
              "type": "uint256"
            }
          ],
          "internalType": "struct IStrategy.PayoutSummary[]",
          "name": "",
          "type": "tuple[]"
        }
      ],
      "stateMutability": "view",
      "type": "function"
    },
    {
      "inputs": [],
      "name": "getPoolAmount",
      "outputs": [
        {
          "internalType": "uint256",
          "name": "",
          "type": "uint256"
        }
      ],
      "stateMutability": "view",
      "type": "function"
    },
    {
      "inputs": [],
      "name": "getPoolId",
      "outputs": [
        {
          "internalType": "uint256",
          "name": "",
          "type": "uint256"
        }
      ],
      "stateMutability": "view",
      "type": "function"
    },
    {
      "inputs": [
        {
          "internalType": "address",
          "name": "_recipientId",
          "type": "address"
        }
      ],
      "name": "getRecipient",
      "outputs": [
        {
          "components": [
            {
              "internalType": "bool",
              "name": "useRegistryAnchor",
              "type": "bool"
            },
            {
              "internalType": "address",
              "name": "recipientAddress",
              "type": "address"
            },
            {
              "internalType": "uint256",
              "name": "grantAmount",
              "type": "uint256"
            },
            {
              "components": [
                {
                  "internalType": "uint256",
                  "name": "protocol",
                  "type": "uint256"
                },
                {
                  "internalType": "string",
                  "name": "pointer",
                  "type": "string"
                }
              ],
              "internalType": "struct Metadata",
              "name": "metadata",
              "type": "tuple"
            },
            {
              "internalType": "enum IStrategy.Status",
              "name": "recipientStatus",
              "type": "uint8"
            },
            {
              "internalType": "enum IStrategy.Status",
              "name": "milestonesReviewStatus",
              "type": "uint8"
            }
          ],
          "internalType": "struct ExecutorSupplierVotingStrategy.Recipient",
          "name": "",
          "type": "tuple"
        }
      ],
      "stateMutability": "view",
      "type": "function"
    },
    {
      "inputs": [
        {
          "internalType": "address",
          "name": "_recipientId",
          "type": "address"
        }
      ],
      "name": "getRecipientStatus",
      "outputs": [
        {
          "internalType": "enum IStrategy.Status",
          "name": "",
          "type": "uint8"
        }
      ],
      "stateMutability": "view",
      "type": "function"
    },
    {
      "inputs": [],
      "name": "getRejectProjectSupplierVotes",
      "outputs": [
        {
          "internalType": "uint256",
          "name": "",
          "type": "uint256"
        }
      ],
      "stateMutability": "view",
      "type": "function"
    },
    {
      "inputs": [],
      "name": "getRejectProjectVotesAgainst",
      "outputs": [
        {
          "internalType": "uint256",
          "name": "",
          "type": "uint256"
        }
      ],
      "stateMutability": "view",
      "type": "function"
    },
    {
      "inputs": [],
      "name": "getRejectProjectVotesFor",
      "outputs": [
        {
          "internalType": "uint256",
          "name": "",
          "type": "uint256"
        }
      ],
      "stateMutability": "view",
      "type": "function"
    },
    {
      "inputs": [],
      "name": "getStrategyId",
      "outputs": [
        {
          "internalType": "bytes32",
          "name": "",
          "type": "bytes32"
        }
      ],
      "stateMutability": "view",
      "type": "function"
    },
    {
      "inputs": [
        {
          "internalType": "uint256",
          "name": "_milestoneId",
          "type": "uint256"
        }
      ],
      "name": "getSubmittedMilestonesVotesAgainst",
      "outputs": [
        {
          "internalType": "uint256",
          "name": "",
          "type": "uint256"
        }
      ],
      "stateMutability": "view",
      "type": "function"
    },
    {
      "inputs": [
        {
          "internalType": "uint256",
          "name": "_milestoneId",
          "type": "uint256"
        }
      ],
      "name": "getSubmittedMilestonesVotesFor",
      "outputs": [
        {
          "internalType": "uint256",
          "name": "",
          "type": "uint256"
        }
      ],
      "stateMutability": "view",
      "type": "function"
    },
    {
      "inputs": [
        {
          "internalType": "address",
          "name": "_recipientId",
          "type": "address"
        },
        {
          "internalType": "address",
          "name": "_supplier",
          "type": "address"
        }
      ],
      "name": "getSupplierOfferedMilestonesVote",
      "outputs": [
        {
          "internalType": "uint256",
          "name": "",
          "type": "uint256"
        }
      ],
      "stateMutability": "view",
      "type": "function"
    },
    {
      "inputs": [
        {
          "internalType": "uint256",
          "name": "_milestoneId",
          "type": "uint256"
        },
        {
          "internalType": "address",
          "name": "_supplier",
          "type": "address"
        }
      ],
      "name": "getSupplierSubmittedMilestonesVote",
      "outputs": [
        {
          "internalType": "uint256",
          "name": "",
          "type": "uint256"
        }
      ],
      "stateMutability": "view",
      "type": "function"
    },
    {
      "inputs": [
        {
          "internalType": "address",
          "name": "_recipientId",
          "type": "address"
        }
      ],
      "name": "getUpcomingMilestone",
      "outputs": [
        {
          "internalType": "uint256",
          "name": "",
          "type": "uint256"
        }
      ],
      "stateMutability": "view",
      "type": "function"
    },
    {
      "inputs": [],
      "name": "hatsContract",
      "outputs": [
        {
          "internalType": "contract IHats",
          "name": "",
          "type": "address"
        }
      ],
      "stateMutability": "view",
      "type": "function"
    },
    {
      "inputs": [
        {
          "internalType": "uint256",
          "name": "_amount",
          "type": "uint256"
        }
      ],
      "name": "increasePoolAmount",
      "outputs": [],
      "stateMutability": "nonpayable",
      "type": "function"
    },
    {
      "inputs": [
        {
          "internalType": "uint256",
          "name": "_poolId",
          "type": "uint256"
        },
        {
          "internalType": "bytes",
          "name": "_data",
          "type": "bytes"
        }
      ],
      "name": "initialize",
      "outputs": [],
      "stateMutability": "nonpayable",
      "type": "function"
    },
    {
      "inputs": [],
      "name": "isPoolActive",
      "outputs": [
        {
          "internalType": "bool",
          "name": "",
          "type": "bool"
        }
      ],
      "stateMutability": "view",
      "type": "function"
    },
    {
      "inputs": [
        {
          "internalType": "address",
          "name": "_allocator",
          "type": "address"
        }
      ],
      "name": "isValidAllocator",
      "outputs": [
        {
          "internalType": "bool",
          "name": "",
          "type": "bool"
        }
      ],
      "stateMutability": "view",
      "type": "function"
    },
    {
      "inputs": [
        {
          "internalType": "address",
          "name": "",
          "type": "address"
        },
        {
          "internalType": "uint256",
          "name": "",
          "type": "uint256"
        }
      ],
      "name": "milestones",
      "outputs": [
        {
          "internalType": "uint256",
          "name": "amountPercentage",
          "type": "uint256"
        },
        {
          "components": [
            {
              "internalType": "uint256",
              "name": "protocol",
              "type": "uint256"
            },
            {
              "internalType": "string",
              "name": "pointer",
              "type": "string"
            }
          ],
          "internalType": "struct Metadata",
          "name": "metadata",
          "type": "tuple"
        },
        {
          "internalType": "enum IStrategy.Status",
          "name": "milestoneStatus",
          "type": "uint8"
        },
        {
          "internalType": "string",
          "name": "description",
          "type": "string"
        }
      ],
      "stateMutability": "view",
      "type": "function"
    },
    {
      "inputs": [
        {
          "internalType": "address",
          "name": "_recipientId",
          "type": "address"
        },
        {
          "components": [
            {
              "internalType": "uint256",
              "name": "amountPercentage",
              "type": "uint256"
            },
            {
              "components": [
                {
                  "internalType": "uint256",
                  "name": "protocol",
                  "type": "uint256"
                },
                {
                  "internalType": "string",
                  "name": "pointer",
                  "type": "string"
                }
              ],
              "internalType": "struct Metadata",
              "name": "metadata",
              "type": "tuple"
            },
            {
              "internalType": "enum IStrategy.Status",
              "name": "milestoneStatus",
              "type": "uint8"
            },
            {
              "internalType": "string",
              "name": "description",
              "type": "string"
            }
          ],
          "internalType": "struct ExecutorSupplierVotingStrategy.Milestone[]",
          "name": "_milestones",
          "type": "tuple[]"
        }
      ],
      "name": "offerMilestones",
      "outputs": [],
      "stateMutability": "nonpayable",
      "type": "function"
    },
    {
      "inputs": [
        {
          "internalType": "bytes",
          "name": "_data",
          "type": "bytes"
        },
        {
          "internalType": "address",
          "name": "_sender",
          "type": "address"
        }
      ],
      "name": "registerRecipient",
      "outputs": [
        {
          "internalType": "address",
          "name": "recipientId",
          "type": "address"
        }
      ],
      "stateMutability": "payable",
      "type": "function"
    },
    {
      "inputs": [
        {
          "internalType": "enum IStrategy.Status",
          "name": "_status",
          "type": "uint8"
        }
      ],
      "name": "rejectProject",
      "outputs": [],
      "stateMutability": "nonpayable",
      "type": "function"
    },
    {
      "inputs": [
        {
          "internalType": "address",
          "name": "_recipientId",
          "type": "address"
        },
        {
          "internalType": "enum IStrategy.Status",
          "name": "_status",
          "type": "uint8"
        }
      ],
      "name": "reviewOfferedtMilestones",
      "outputs": [],
      "stateMutability": "nonpayable",
      "type": "function"
    },
    {
      "inputs": [
        {
          "internalType": "address",
          "name": "_recipientId",
          "type": "address"
        },
        {
          "internalType": "uint256",
          "name": "_milestoneId",
          "type": "uint256"
        },
        {
          "internalType": "enum IStrategy.Status",
          "name": "_status",
          "type": "uint8"
        }
      ],
      "name": "reviewSubmitedMilestone",
      "outputs": [],
      "stateMutability": "nonpayable",
      "type": "function"
    },
    {
      "inputs": [
        {
          "internalType": "uint256",
          "name": "_newPercentage",
          "type": "uint256"
        },
        {
          "internalType": "bytes32",
          "name": "_profileId",
          "type": "bytes32"
        }
      ],
      "name": "setThresholdPercentage",
      "outputs": [],
      "stateMutability": "nonpayable",
      "type": "function"
    },
    {
      "inputs": [],
      "name": "state",
      "outputs": [
        {
          "internalType": "enum ExecutorSupplierVotingStrategy.StrategyState",
          "name": "",
          "type": "uint8"
        }
      ],
      "stateMutability": "view",
      "type": "function"
    },
    {
      "inputs": [
        {
          "internalType": "address",
          "name": "_recipientId",
          "type": "address"
        },
        {
          "internalType": "uint256",
          "name": "_milestoneId",
          "type": "uint256"
        },
        {
          "components": [
            {
              "internalType": "uint256",
              "name": "protocol",
              "type": "uint256"
            },
            {
              "internalType": "string",
              "name": "pointer",
              "type": "string"
            }
          ],
          "internalType": "struct Metadata",
          "name": "_metadata",
          "type": "tuple"
        }
      ],
      "name": "submitMilestone",
      "outputs": [],
      "stateMutability": "nonpayable",
      "type": "function"
    },
    {
      "inputs": [
        {
          "internalType": "uint256",
          "name": "",
          "type": "uint256"
        }
      ],
      "name": "submittedvMilestones",
      "outputs": [
        {
          "internalType": "uint256",
          "name": "votesFor",
          "type": "uint256"
        },
        {
          "internalType": "uint256",
          "name": "votesAgainst",
          "type": "uint256"
        }
      ],
      "stateMutability": "view",
      "type": "function"
    },
    {
      "inputs": [],
      "name": "supplierHat",
      "outputs": [
        {
          "internalType": "uint256",
          "name": "",
          "type": "uint256"
        }
      ],
      "stateMutability": "view",
      "type": "function"
    },
    {
      "inputs": [],
      "name": "thresholdPercentage",
      "outputs": [
        {
          "internalType": "uint256",
          "name": "",
          "type": "uint256"
        }
      ],
      "stateMutability": "view",
      "type": "function"
    },
    {
      "inputs": [],
      "name": "totalSupply",
      "outputs": [
        {
          "internalType": "uint256",
          "name": "",
          "type": "uint256"
        }
      ],
      "stateMutability": "view",
      "type": "function"
    },
    {
      "inputs": [
        {
          "internalType": "address",
          "name": "",
          "type": "address"
        }
      ],
      "name": "upcomingMilestone",
      "outputs": [
        {
          "internalType": "uint256",
          "name": "",
          "type": "uint256"
        }
      ],
      "stateMutability": "view",
      "type": "function"
    },
    {
      "stateMutability": "payable",
      "type": "receive"
    }
  ],
  "bytecode": "0x60c06040523480156200001157600080fd5b506040516200537e3803806200537e8339810160408190526200003491620000bf565b6001600160a01b03821660805260405182908290620000589082906020016200019a565b60408051601f19818403018152919052805160209091012060a0525050600160035550620001cf9050565b634e487b7160e01b600052604160045260246000fd5b60005b83811015620000b65781810151838201526020016200009c565b50506000910152565b60008060408385031215620000d357600080fd5b82516001600160a01b0381168114620000eb57600080fd5b60208401519092506001600160401b03808211156200010957600080fd5b818501915085601f8301126200011e57600080fd5b81518181111562000133576200013362000083565b604051601f8201601f19908116603f011681019083821181831017156200015e576200015e62000083565b816040528281528860208487010111156200017857600080fd5b6200018b83602083016020880162000099565b80955050505050509250929050565b6020815260008251806020840152620001bb81604085016020870162000099565b601f01601f19169190910160400192915050565b60805160a05161514a6200023460003960006104820152600081816102a8015281816119580152818161276801528181612adf01528181612eb301528181612fb1015281816132f70152818161350d015281816136e10152613b1b015261514a6000f3fe60806040526004361061026b5760003560e01c80639ffaa87511610144578063e1c2cf65116100b6578063edd146cc1161007a578063edd146cc14610828578063ee12030014610848578063ef2920fc14610878578063f5b0dfb71461088b578063f83067e7146108ab578063f8c607ad146108cb57600080fd5b8063e1c2cf6514610769578063e2372b581461077f578063e477b6bd146107ac578063e8eeb806146107e5578063eb11af93146107fb57600080fd5b8063b3eae7ab11610108578063b3eae7ab14610674578063c19d93fb14610694578063c1aaf44a146106bb578063c7a892bf146106e8578063cb2415fb14610718578063df868ed31461075157600080fd5b80639ffaa875146105ca578063a0cf0aea146105ea578063a958f25514610612578063a965521014610632578063b2b878d01461064757600080fd5b80633bf3577d116101dd5780634ed2859e116101a15780634ed2859e146104eb5780635b10b59714610501578063605e1c661461051657806362812a391461055d57806378f0184d1461058a57806397e39fef146105aa57600080fd5b80633bf3577d1461040a578063404e73e21461042a57806342fda9c7146104735780634ab4ba42146104a65780634d31d087146104bb57600080fd5b80632a835b4b1161022f5780632a835b4b146103565780632bbe0cae146103765780632ff0e6c41461038957806336592c0e146103bf57806336c466d3146103df57806338fff2d0146103f557600080fd5b80630a6f0ee91461027757806315cc481e1461029957806318160ddd146102e5578063197ea8141461030957806322a4e42d1461032957600080fd5b3661027257005b600080fd5b34801561028357600080fd5b506102976102923660046140b5565b6108ed565b005b3480156102a557600080fd5b507f00000000000000000000000000000000000000000000000000000000000000005b6040516001600160a01b0390911681526020015b60405180910390f35b3480156102f157600080fd5b506102fb60075481565b6040519081526020016102dc565b34801561031557600080fd5b506102fb61032436600461412c565b61090d565b34801561033557600080fd5b50610349610344366004614165565b61093e565b6040516102dc9190614222565b34801561036257600080fd5b506102976103713660046142c7565b610b32565b6102c86103843660046142e9565b610c8d565b34801561039557600080fd5b506102fb6103a4366004614165565b6001600160a01b031660009081526015602052604090205490565b3480156103cb57600080fd5b506103496103da366004614165565b610cb0565b3480156103eb57600080fd5b506102fb60065481565b34801561040157600080fd5b506001546102fb565b34801561041657600080fd5b5061029761042536600461432f565b610e99565b34801561043657600080fd5b5061045e610445366004614383565b6016602052600090815260409020805460019091015482565b604080519283526020830191909152016102dc565b34801561047f57600080fd5b507f00000000000000000000000000000000000000000000000000000000000000006102fb565b3480156104b257600080fd5b506002546102fb565b3480156104c757600080fd5b506104db6104d6366004614165565b611278565b60405190151581526020016102dc565b3480156104f757600080fd5b506102fb60085481565b34801561050d57600080fd5b506011546102fb565b34801561052257600080fd5b506102fb61053136600461439c565b60008281526016602090815260408083206001600160a01b038516845260020190915290205492915050565b34801561056957600080fd5b5061057d610578366004614165565b611283565b6040516102dc91906143c1565b34801561059657600080fd5b506102976105a5366004614451565b611294565b3480156105b657600080fd5b50600b546102c8906001600160a01b031681565b3480156105d657600080fd5b506102976105e53660046145dc565b611524565b3480156105f657600080fd5b506102c873eeeeeeeeeeeeeeeeeeeeeeeeeeeeeeeeeeeeeeee81565b34801561061e57600080fd5b5061029761062d366004614613565b611b8d565b34801561063e57600080fd5b506012546102fb565b34801561065357600080fd5b50610667610662366004614630565b611e51565b6040516102dc9190614704565b34801561068057600080fd5b5061029761068f36600461475c565b611f4f565b3480156106a057600080fd5b506004546106ae9060ff1681565b6040516102dc919061478a565b3480156106c757600080fd5b506102fb6106d6366004614383565b60009081526016602052604090205490565b3480156106f457600080fd5b506107086107033660046147a4565b6124e0565b6040516102dc94939291906147d0565b34801561072457600080fd5b506102fb610733366004614165565b6001600160a01b031660009081526010602052604090206002015490565b34801561075d57600080fd5b5060005460ff166104db565b34801561077557600080fd5b506102fb60055481565b34801561078b57600080fd5b506102fb61079a366004614165565b60156020526000908152604090205481565b3480156107b857600080fd5b506102fb6107c7366004614165565b6001600160a01b031660009081526010602052604090206001015490565b3480156107f157600080fd5b506102fb600a5481565b34801561080757600080fd5b5061081b610816366004614165565b612662565b6040516102dc9190614813565b34801561083457600080fd5b50610297610843366004614821565b61266d565b34801561085457600080fd5b506102fb610863366004614383565b60009081526016602052604090206001015490565b6102976108863660046142e9565b6126cd565b34801561089757600080fd5b506102976108a6366004614383565b6126eb565b3480156108b757600080fd5b5061081b6108c63660046147a4565b612715565b3480156108d757600080fd5b50336000908152601360205260409020546102fb565b6108f561275d565b6108fd6127a8565b6109088383836127cb565b505050565b6001600160a01b03808316600090815260106020908152604080832093851683526003909301905220545b92915050565b6001600160a01b0381166000908152601460209081526040808320805482518185028101850190935280835260609492939192909184015b82821015610b2757838290600052602060002090600502016040518060800160405290816000820154815260200160018201604051806040016040529081600082015481526020016001820180546109cd90614867565b80601f01602080910402602001604051908101604052809291908181526020018280546109f990614867565b8015610a465780601f10610a1b57610100808354040283529160200191610a46565b820191906000526020600020905b815481529060010190602001808311610a2957829003601f168201915b505050919092525050508152600382015460209091019060ff166006811115610a7157610a716141f8565b6006811115610a8257610a826141f8565b8152602001600482018054610a9690614867565b80601f0160208091040260200160405190810160405280929190818152602001828054610ac290614867565b8015610b0f5780601f10610ae457610100808354040283529160200191610b0f565b820191906000526020600020905b815481529060010190602001808311610af257829003601f168201915b50505050508152505081526020019060010190610976565b505050509050919050565b600954604051630e6e1ae360e21b8152600481018390523360248201526001600160a01b03909116906339b86b8c90604401602060405180830381865afa158015610b81573d6000803e3d6000fd5b505050506040513d601f19601f82011682018060405250810190610ba591906148a1565b610be55760405162461bcd60e51b815260206004820152600c60248201526b15539055551213d49256915160a21b60448201526064015b60405180910390fd5b60008211610c415760405162461bcd60e51b8152602060048201526024808201527f50657263656e74616765206d7573742062652067726561746572207468616e206044820152637a65726f60e01b6064820152608401610bdc565b6064821115610c875760405162461bcd60e51b8152602060048201526012602482015271496e76616c69642070657263656e7461676560701b6044820152606401610bdc565b50600855565b6000610c9761275d565b610c9f6127a8565b610ca98383612862565b9050610938565b6001600160a01b0381166000908152601060209081526040808320805482518185028101850190935280835260609492939192909184015b82821015610b275783829060005260206000209060050201604051806080016040529081600082015481526020016001820160405180604001604052908160008201548152602001600182018054610d3f90614867565b80601f0160208091040260200160405190810160405280929190818152602001828054610d6b90614867565b8015610db85780601f10610d8d57610100808354040283529160200191610db8565b820191906000526020600020905b815481529060010190602001808311610d9b57829003601f168201915b505050919092525050508152600382015460209091019060ff166006811115610de357610de36141f8565b6006811115610df457610df46141f8565b8152602001600482018054610e0890614867565b80601f0160208091040260200160405190810160405280929190818152602001828054610e3490614867565b8015610e815780601f10610e5657610100808354040283529160200191610e81565b820191906000526020600020905b815481529060010190602001808311610e6457829003601f168201915b50505050508152505081526020019060010190610ce8565b600b546006546040516321a9204d60e11b815233600482015260248101919091526001600160a01b0390911690634352409a90604401602060405180830381865afa158015610eec573d6000803e3d6000fd5b505050506040513d601f19601f82011682018060405250810190610f1091906148a1565b610f2d5760405163088d893560e11b815260040160405180910390fd5b6001600160a01b0383163314610f565760405163075fd2b160e01b815260040160405180910390fd5b6001600160a01b038084166000908152600e60209081526040808320815160c081018352815460ff8116151582526101009004909516858401526001810154858301528151808301909252600281018054835260038201805495969592946060870194939084019190610fc890614867565b80601f0160208091040260200160405190810160405280929190818152602001828054610ff490614867565b80156110415780601f1061101657610100808354040283529160200191611041565b820191906000526020600020905b81548152906001019060200180831161102457829003601f168201915b505050919092525050508152600482015460209091019060ff16600681111561106c5761106c6141f8565b600681111561107d5761107d6141f8565b81526020016004820160019054906101000a900460ff1660068111156110a5576110a56141f8565b60068111156110b6576110b66141f8565b90525090506002816080015160068111156110d3576110d36141f8565b146110f15760405163392c16fb60e21b815260040160405180910390fd5b6001600160a01b03841660009081526014602052604090208054841061112a57604051632f1f68e160e11b815260040160405180910390fd5b600081858154811061113e5761113e6148c3565b6000918252602090912060059091020190506002600382015460ff16600681111561116b5761116b6141f8565b0361118957604051637f46ed2760e11b815260040160405180910390fd5b60005b600d548110156111fa576000601660008881526020019081526020016000206002016000600d84815481106111c3576111c36148c3565b60009182526020808320909101546001600160a01b03168352820192909252604001902055806111f2816148ef565b91505061118c565b506000858152601660205260408120818155600190810191909155849082016112238282614956565b505060038101805460ff191660011790556040517f8673cfb5a2cbad812463bdfd7c85511f29c804579a86d318889ab925155399619061126890889088908890614a4e565b60405180910390a1505050505050565b600061093882612ac2565b61128b613dd2565b61093882612b67565b600b546006546040516321a9204d60e11b815233600482015260248101919091526001600160a01b0390911690634352409a90604401602060405180830381865afa1580156112e7573d6000803e3d6000fd5b505050506040513d601f19601f8201168201806040525081019061130b91906148a1565b6113285760405163088d893560e11b815260040160405180910390fd5b6000336001600160a01b038416148061134657506113468333612cd7565b9050806113665760405163075fd2b160e01b815260040160405180910390fd5b6001600160a01b0383166000908152600e602052604090206002600482015460ff166006811115611399576113996141f8565b146113b75760405163392c16fb60e21b815260040160405180910390fd5b60026004820154610100900460ff1660068111156113d7576113d76141f8565b036113f5576040516305ca31d360e51b815260040160405180910390fd5b6113fe84612dcf565b60005b83518110156114d8576001600160a01b03851660009081526010602052604090208451859083908110611436576114366148c3565b602090810291909101810151825460018181018555600094855293839020825160059092020190815581830151805194820194855592830151919390929160028401906114839082614ae7565b505050604082015160038201805460ff191660018360068111156114a9576114a96141f8565b0217905550606082015160048201906114c29082614ae7565b50505080806114d0906148ef565b915050611401565b508251604080516001600160a01b038716815260208101929092527f8a5603111f154f43104afe04452c6a93024a972cb6a0af72e6f38bcce68625d5910160405180910390a150505050565b3361152e81612e89565b600b546005546040516321a9204d60e11b815233600482015260248101919091526001600160a01b0390911690634352409a90604401602060405180830381865afa158015611581573d6000803e3d6000fd5b505050506040513d601f19601f820116820180604052508101906115a591906148a1565b6115c257604051636bbe41b360e01b815260040160405180910390fd5b6000838152601660209081526040808320338452600201909152902054156115fd5760405163448bae6f60e01b815260040160405180910390fd5b6001600160a01b038085166000908152600e60209081526040808320815160c081018352815460ff811615158252610100900490951685840152600181015485830152815180830190925260028101805483526003820180549596959294606087019493908401919061166f90614867565b80601f016020809104026020016040519081016040528092919081815260200182805461169b90614867565b80156116e85780601f106116bd576101008083540402835291602001916116e8565b820191906000526020600020905b8154815290600101906020018083116116cb57829003601f168201915b505050919092525050508152600482015460209091019060ff166006811115611713576117136141f8565b6006811115611724576117246141f8565b81526020016004820160019054906101000a900460ff16600681111561174c5761174c6141f8565b600681111561175d5761175d6141f8565b905250905060028160800151600681111561177a5761177a6141f8565b146117985760405163392c16fb60e21b815260040160405180910390fd5b6001600160a01b0385166000908152601460205260409020805485106117d157604051632f1f68e160e11b815260040160405180910390fd5b60008186815481106117e5576117e56148c3565b6000918252602090912060059091020190506001600382015460ff166006811115611812576118126141f8565b1461183057604051635b2fe71d60e11b815260040160405180910390fd5b336000908152600f602052604081205460085460075491929160649161185591614ba6565b61185f9190614bbd565b60008981526016602090815260408083203384526002908101909252909120849055909150876006811115611896576118966141f8565b03611a0357600088815260166020526040812080548492906118b9908490614bdf565b90915550506000888152601660205260409020548110156119fe5760038301805488919060ff191660018360068111156118f5576118f56141f8565b0217905550604080516001808252818301909252600091602080830190803683370190505090508981600081518110611930576119306148c3565b6001600160a01b039283166020918202929092010152600154604051631d2fdec960e11b81527f000000000000000000000000000000000000000000000000000000000000000090921691633a5fbd929161198f918590600401614bf2565b600060405180830381600087803b1580156119a957600080fd5b505af11580156119bd573d6000803e3d6000fd5b505050507ff1af82b65c631a030029b10ea8f00f68290285c7c797644155b8f23969ca1d638a8a8a6040516119f493929190614c59565b60405180910390a1505b611b47565b6003876006811115611a1757611a176141f8565b03611b475760008881526016602052604081206001018054849290611a3d908490614bdf565b9091555050600088815260166020526040902060010154811015611b475760038301805488919060ff19166001836006811115611a7c57611a7c6141f8565b021790555060005b600d54811015611af2576000601660008b81526020019081526020016000206002016000600d8481548110611abb57611abb6148c3565b60009182526020808320909101546001600160a01b0316835282019290925260400190205580611aea816148ef565b915050611a84565b5060008881526016602052604080822082815560010191909155517ff1af82b65c631a030029b10ea8f00f68290285c7c797644155b8f23969ca1d6390611b3e908b908b908b90614c59565b60405180910390a15b7f4460beb477b3843656610a89bd67c551d2a78131b5a955ddccd5eb9aa218c8c3898989604051611b7a93929190614c59565b60405180910390a1505050505050505050565b33611b9781612e89565b600b546005546040516321a9204d60e11b815233600482015260248101919091526001600160a01b0390911690634352409a90604401602060405180830381865afa158015611bea573d6000803e3d6000fd5b505050506040513d601f19601f82011682018060405250810190611c0e91906148a1565b611c2b57604051636bbe41b360e01b815260040160405180910390fd5b6002826006811115611c3f57611c3f6141f8565b14158015611c5f57506003826006811115611c5c57611c5c6141f8565b14155b15611c7d5760405163343b80b160e01b815260040160405180910390fd5b3360009081526013602052604090205415611cab5760405163448bae6f60e01b815260040160405180910390fd5b336000908152600f6020526040812054600854600754919291606491611cd091614ba6565b611cda9190614bbd565b33600090815260136020526040902083905590506002846006811115611d0257611d026141f8565b03611d79578160116000016000828254611d1c9190614bdf565b9091555050601154811015611d7457611d33612f3b565b6004805460ff19166003179055611d4a6000613092565b6040517fd32d40de3c1ce9d2fa081d8cd5a6b778eaea7095966658ace12863ce23d09a6090600090a15b611e4b565b6003846006811115611d8d57611d8d6141f8565b03611e4b578160116001016000828254611da79190614bdf565b9091555050601254811015611e4b5760005b600d54811015611e1657600060116002016000600d8481548110611ddf57611ddf6148c3565b60009182526020808320909101546001600160a01b0316835282019290925260400190205580611e0e816148ef565b915050611db9565b506000601181905560128190556040517f7a5d554e29a9295668ae87eb63589a5dd4d751e9c16b4a8173c28b9f0bc4a1d09190a15b50505050565b81518151606091908114611e7857604051633da4c02b60e11b815260040160405180910390fd5b6000816001600160401b03811115611e9257611e92613edf565b604051908082528060200260200182016040528015611ed757816020015b6040805180820190915260008082526020820152815260200190600190039081611eb05790505b50905060005b82811015611f4657611f21868281518110611efa57611efa6148c3565b6020026020010151868381518110611f1457611f146148c3565b60200260200101516130d9565b828281518110611f3357611f336148c3565b6020908102919091010152600101611edd565b50949350505050565b33611f5981612e89565b600b546005546040516321a9204d60e11b815233600482015260248101919091526001600160a01b0390911690634352409a90604401602060405180830381865afa158015611fac573d6000803e3d6000fd5b505050506040513d601f19601f82011682018060405250810190611fd091906148a1565b611fed57604051636bbe41b360e01b815260040160405180910390fd5b6001600160a01b0383166000908152601060209081526040808320338452600301909152902054156120325760405163448bae6f60e01b815260040160405180910390fd5b6001600160a01b0383166000908152600e6020526040902060026004820154610100900460ff16600681111561206a5761206a6141f8565b03612088576040516305ca31d360e51b815260040160405180910390fd5b336000908152600f60205260408120546008546007549192916064916120ad91614ba6565b6120b79190614bbd565b6001600160a01b03871660009081526010602090815260408083203384526003019091529020839055905060028560068111156120f6576120f66141f8565b036123be576001600160a01b03861660009081526010602052604081206001018054849290612126908490614bdf565b90915550506001600160a01b0386166000908152601060205260409020600101548110156123b9576001600160a01b0386166000908152600e60205260409020600401805486919061ff001916610100836006811115612188576121886141f8565b02179055506001600160a01b0386166000908152601060209081526040808320805482518185028101850190935280835261237c948b9484015b82821015612373578382906000526020600020906005020160405180608001604052908160008201548152602001600182016040518060400160405290816000820154815260200160018201805461221990614867565b80601f016020809104026020016040519081016040528092919081815260200182805461224590614867565b80156122925780601f1061226757610100808354040283529160200191612292565b820191906000526020600020905b81548152906001019060200180831161227557829003601f168201915b505050919092525050508152600382015460209091019060ff1660068111156122bd576122bd6141f8565b60068111156122ce576122ce6141f8565b81526020016004820180546122e290614867565b80601f016020809104026020016040519081016040528092919081815260200182805461230e90614867565b801561235b5780601f106123305761010080835404028352916020019161235b565b820191906000526020600020905b81548152906001019060200180831161233e57829003601f168201915b505050505081525050815260200190600101906121c2565b50505050613124565b6040516001600160a01b03871681527f7b05d1f85b1ac2e76c0d8dbb0dfa809df6788f66bbeeb837b2b5fae4f64c00639060200160405180910390a15b6124af565b60038560068111156123d2576123d26141f8565b036124af576001600160a01b03861660009081526010602052604081206002018054849290612402908490614bdf565b90915550506001600160a01b0386166000908152601060205260409020600201548110156124af576001600160a01b0386166000908152600e60205260409020600401805486919061ff001916610100836006811115612464576124646141f8565b021790555061247286612dcf565b6040516001600160a01b03871681527f5a90817477dd8f83cfe5d429e1dc84ad5a25cb72b83291c707c6f8f5c4f2ac849060200160405180910390a15b7f30dae55c386c6176f3f7b7ee6ad4df33970f2e442cb0142e978cf78fd8ae138d8686604051611268929190614c7d565b601460205281600052604060002081815481106124fc57600080fd5b906000526020600020906005020160009150915050806000015490806001016040518060400160405290816000820154815260200160018201805461254090614867565b80601f016020809104026020016040519081016040528092919081815260200182805461256c90614867565b80156125b95780601f1061258e576101008083540402835291602001916125b9565b820191906000526020600020905b81548152906001019060200180831161259c57829003601f168201915b505050919092525050506003820154600483018054929360ff909216926125df90614867565b80601f016020809104026020016040519081016040528092919081815260200182805461260b90614867565b80156126585780601f1061262d57610100808354040283529160200191612658565b820191906000526020600020905b81548152906001019060200180831161263b57829003601f168201915b5050505050905084565b6000610938826133a8565b6000818060200190518101906126839190614ca5565b905061268f83826133bd565b7f91efa3d50feccde0d0d202f8ae5c41ca0b2be614cebcb2bd2f4b019396e6568a83836040516126c0929190614db7565b60405180910390a1505050565b6126d561275d565b6126dd6127a8565b6126e782826135c9565b5050565b6126f361275d565b80600260008282546127059190614bdf565b9091555061271290508181565b50565b6001600160a01b038216600090815260146020526040812080548390811061273f5761273f6148c3565b600091825260209091206005909102016003015460ff169392505050565b336001600160a01b037f000000000000000000000000000000000000000000000000000000000000000016146127a65760405163075fd2b160e01b815260040160405180910390fd5b565b6001546000036127a657604051630f68fe6360e21b815260040160405180910390fd5b6001600160a01b03811630146128235760405162461bcd60e51b815260206004820152601760248201527f554e415554484f52495a454420646973747269627574650000000000000000006044820152606401610bdc565b825160005b8181101561285b57612853858281518110612845576128456148c3565b6020026020010151846138f3565b600101612828565b5050505050565b600061286c613c9a565b60008060008061288f604051806040016040528060008152602001606081525090565b878060200190518101906128a39190614e66565b9297509095506001600160a01b0386161515945092509050826128c657846128c8565b835b95508280156128de57506128dc8688612cd7565b155b156128fc5760405163075fd2b160e01b815260040160405180910390fd5b60026001600160a01b0387166000908152600e602052604090206004015460ff16600681111561292e5761292e6141f8565b0361294c5760405163083a81f760e31b815260040160405180910390fd5b60006040518060c001604052808515158152602001876001600160a01b031681526020018481526020018381526020016002600681111561298f5761298f6141f8565b8152602001600190526001600160a01b038881166000908152600e602090815260409182902084518154868401516001600160a81b0319909116911515610100600160a81b03191691909117610100919095160293909317835590830151600183015560608301518051600284019081559181015193945084939091906003840190612a1b9082614ae7565b505050608082015160048201805460ff19166001836006811115612a4157612a416141f8565b021790555060a082015160048201805461ff001916610100836006811115612a6b57612a6b6141f8565b0217905550905050866001600160a01b03167fa197306e3dd5494a61a695381aa809a53b8e377a685e84e404a85d5a8da6cc628a8a604051612aae929190614ed3565b60405180910390a250505050505092915050565b6001546040516329e40d4b60e01b81526000916001600160a01b037f000000000000000000000000000000000000000000000000000000000000000016916329e40d4b91612b269186906004019182526001600160a01b0316602082015260400190565b602060405180830381865afa158015612b43573d6000803e3d6000fd5b505050506040513d601f19601f8201168201806040525081019061093891906148a1565b612b6f613dd2565b6001600160a01b038083166000908152600e6020908152604091829020825160c081018452815460ff811615158252610100900490941684830152600181015484840152825180840190935260028101805484526003820180549294606087019490939084019190612be090614867565b80601f0160208091040260200160405190810160405280929190818152602001828054612c0c90614867565b8015612c595780601f10612c2e57610100808354040283529160200191612c59565b820191906000526020600020905b815481529060010190602001808311612c3c57829003601f168201915b505050919092525050508152600482015460209091019060ff166006811115612c8457612c846141f8565b6006811115612c9557612c956141f8565b81526020016004820160019054906101000a900460ff166006811115612cbd57612cbd6141f8565b6006811115612cce57612cce6141f8565b90525092915050565b60095460405163dd93da4360e01b81526001600160a01b038481166004830152600092839291169063dd93da4390602401600060405180830381865afa158015612d25573d6000803e3d6000fd5b505050506040513d6000823e601f3d908101601f19168201604052612d4d9190810190614efd565b6009548151604051635e8a791560e01b815260048101919091526001600160a01b038681166024830152929350911690635e8a791590604401602060405180830381865afa158015612da3573d6000803e3d6000fd5b505050506040513d601f19601f82011682018060405250810190612dc791906148a1565b949350505050565b60005b600d54811015612e5257600060106000846001600160a01b03166001600160a01b031681526020019081526020016000206003016000600d8481548110612e1b57612e1b6148c3565b60009182526020808320909101546001600160a01b0316835282019290925260400190205580612e4a816148ef565b915050612dd2565b506001600160a01b038116600090815260106020526040812090612e768282613e2d565b5060006001820181905560029091015550565b6001546040516329e40d4b60e01b815260048101919091526001600160a01b0382811660248301527f000000000000000000000000000000000000000000000000000000000000000016906329e40d4b90604401602060405180830381865afa158015612efa573d6000803e3d6000fd5b505050506040513d601f19601f82011682018060405250810190612f1e91906148a1565b6127125760405163075fd2b160e01b815260040160405180910390fd5b60005b600d54811015612712576000600f6000600d8481548110612f6157612f616148c3565b60009182526020808320909101546001600160a01b03168352820192909252604001812054600254909250670de0b6b3a764000090612fa1908490614ba6565b612fab9190614bbd565b905060007f00000000000000000000000000000000000000000000000000000000000000006001600160a01b031663068bcd8d6001546040518263ffffffff1660e01b8152600401612fff91815260200190565b600060405180830381865afa15801561301c573d6000803e3d6000fd5b505050506040513d6000823e601f3d908101601f191682016040526130449190810190614fc3565b905061307c8160400151600d8681548110613061576130616148c3565b6000918252602090912001546001600160a01b031684613cbd565b505050808061308a906148ef565b915050612f3e565b6000805460ff19168215159081179091556040519081527fd94c9bc4d43c51d8dc345a016d8e3d994432fac68e72832e4cf3a616bd8efae09060200160405180910390a150565b604080518082019091526000808252602082015260006130f884612b67565b6040805180820182526020808401516001600160a01b0316825291909201519082015291505092915050565b6001600160a01b03821660009081526014602052604081205415613163576001600160a01b038316600090815260146020526040812061316391613e2d565b815160005b81811015613289576000848281518110613184576131846148c3565b60200260200101519050600060068111156131a1576131a16141f8565b816040015160068111156131b7576131b76141f8565b146131d557604051635b2fe71d60e11b815260040160405180910390fd5b80516131e19085614bdf565b6001600160a01b03871660009081526014602090815260408220805460018181018355918452928290208551600590940201928355848201518051918401918255918201519397508493600284019061323a9082614ae7565b505050604082015160038201805460ff19166001836006811115613260576132606141f8565b0217905550606082015160048201906132799082614ae7565b5050600190920191506131689050565b5081670de0b6b3a7640000146132b2576040516397a1f28d60e01b815260040160405180910390fd5b60008460026007546040516020016132cc93929190615076565b60408051601f19818403018152908290526001546305d8703160e31b83529092506001600160a01b037f00000000000000000000000000000000000000000000000000000000000000001691632ec381889161332c918590600401614db7565b600060405180830381600087803b15801561334657600080fd5b505af115801561335a573d6000803e3d6000fd5b5050604080516001600160a01b0389168152602081018690527fb000fb1507aac2465ccb4f6bd1b601c7053279005e9e9932c41946b35c84949b935001905060405180910390a15050505050565b60006133b382612b67565b6080015192915050565b6133c682613cf7565b8051600555602081015160065560466008556060810151600b80546001600160a01b0319166001600160a01b03909216919091179055604081015160005b815181101561350a57600d828281518110613421576134216148c3565b6020908102919091018101515182546001810184556000938452919092200180546001600160a01b0319166001600160a01b039092169190911790558151829082908110613471576134716148c3565b602002602001015160200151600f6000848481518110613493576134936148c3565b6020026020010151600001516001600160a01b03166001600160a01b03168152602001908152602001600020819055508181815181106134d5576134d56148c3565b602002602001015160200151600760008282546134f29190614bdf565b90915550819050613502816148ef565b915050613404565b507f00000000000000000000000000000000000000000000000000000000000000006001600160a01b0316635ab1bd536040518163ffffffff1660e01b8152600401602060405180830381865afa158015613569573d6000803e3d6000fd5b505050506040513d601f19601f8201168201806040525081019061358d91906150a1565b600980546001600160a01b0319166001600160a01b03929092169190911790556135b76001613092565b50506004805460ff1916600117905550565b6135d1613d46565b6001600160a01b03811630146136215760405162461bcd60e51b8152602060048201526015602482015274554e415554484f52495a454420616c6c6f6361746560581b6044820152606401610bdc565b60008060008480602001905181019061363a91906150be565b6001600160a01b0383166000908152600e6020908152604080832060159092529091205493965091945092509015613685576040516305ca31d360e51b815260040160405180910390fd5b6002600482015460ff1660068111156136a0576136a06141f8565b141580156136bf575060028360068111156136bd576136bd6141f8565b145b1561385a5760015460405163068bcd8d60e01b81526000916001600160a01b037f0000000000000000000000000000000000000000000000000000000000000000169163068bcd8d916137189160040190815260200190565b600060405180830381865afa158015613735573d6000803e3d6000fd5b505050506040513d6000823e601f3d908101601f1916820160405261375d9190810190614fc3565b905082600a60008282546137719190614bdf565b9091555050600254600a54111561379b57604051638e81b16f60e01b815260040160405180910390fd5b6001820183905560048201805460ff191660029081179091556040517f94593b52aa436dd31a63e313045c2eb23d43eb2d6f5b4d7797b4432e7b277490916137e591889190614c7d565b60405180910390a1846001600160a01b03167f463ffc2cf8b1596445c417388ed30e53eb67cf6668cb2be7f0addf8a78c8441b836001015483604001518960405161384c939291909283526001600160a01b03918216602084015216604082015260600190565b60405180910390a2506138e5565b6003600482015460ff166006811115613875576138756141f8565b1415801561389457506003836006811115613892576138926141f8565b145b156138e55760048101805460ff191660039081179091556040517f94593b52aa436dd31a63e313045c2eb23d43eb2d6f5b4d7797b4432e7b277490916138dc91879190614c7d565b60405180910390a15b505050506126e76001600355565b6001600160a01b0380831660009081526015602090815260408083205460148352818420600e8452828520835160c081018552815460ff8116151582526101009004909716878601526001810154878501528351808501909452600281018054855260038201805494989397969395929460608701948401919061397690614867565b80601f01602080910402602001604051908101604052809291908181526020018280546139a290614867565b80156139ef5780601f106139c4576101008083540402835291602001916139ef565b820191906000526020600020905b8154815290600101906020018083116139d257829003601f168201915b505050919092525050508152600482015460209091019060ff166006811115613a1a57613a1a6141f8565b6006811115613a2b57613a2b6141f8565b81526020016004820160019054906101000a900460ff166006811115613a5357613a536141f8565b6006811115613a6457613a646141f8565b8152505090506000828481548110613a7e57613a7e6148c3565b906000526020600020906005020190508280549050841115613ab357604051632f1f68e160e11b815260040160405180910390fd5b6002600382015460ff166006811115613ace57613ace6141f8565b14613aec57604051635b2fe71d60e11b815260040160405180910390fd5b6000670de0b6b3a764000082600001548460400151613b0b9190614ba6565b613b159190614bbd565b905060007f00000000000000000000000000000000000000000000000000000000000000006001600160a01b031663068bcd8d6001546040518263ffffffff1660e01b8152600401613b6991815260200190565b600060405180830381865afa158015613b86573d6000803e3d6000fd5b505050506040513d6000823e601f3d908101601f19168201604052613bae9190810190614fc3565b90508160026000828254613bc29190615101565b92505081905550613bdc8160400151856020015184613cbd565b6001600160a01b0388166000908152601560205260408120805491613c00836148ef565b909155505084546001600160a01b03891660009081526015602052604090205410613c3c576004805460ff19166002179055613c3c6000613092565b602080850151604080516001600160a01b039283168152928301859052898216908301528916907fb5b51454adfa840bd593658325a60a50b0216f12eb5d2937efe6cea935675b7d9060600160405180910390a25050505050505050565b60005460ff166127a65760405163cfe7975b60e01b815260040160405180910390fd5b73eeeeeeeeeeeeeeeeeeeeeeeeeeeeeeeeeeeeeeed196001600160a01b03841601613cec576109088282613d70565b610908838383613d8c565b613cff61275d565b60015415613d205760405163439a74c960e01b815260040160405180910390fd5b80600003613d4157604051637fcce2a960e01b815260040160405180910390fd5b600155565b600260035403613d6957604051633ee5aeb560e01b815260040160405180910390fd5b6002600355565b60003860003884865af16126e75763b12d13eb6000526004601cfd5b816014528060345263a9059cbb60601b60005260206000604460106000875af13d156001600051141716613dc8576390b8ec186000526004601cfd5b6000603452505050565b6040518060c0016040528060001515815260200160006001600160a01b0316815260200160008152602001613e1a604051806040016040528060008152602001606081525090565b8152602001600081526020016000905290565b508054600082556005029060005260206000209081019061271291905b80821115613e915760008082556001820181815581613e6c6002850182613e95565b505060038201805460ff19169055613e88600483016000613e95565b50600501613e4a565b5090565b508054613ea190614867565b6000825580601f10613eb1575050565b601f01602090049060005260206000209081019061271291905b80821115613e915760008155600101613ecb565b634e487b7160e01b600052604160045260246000fd5b604051608081016001600160401b0381118282101715613f1757613f17613edf565b60405290565b604080519081016001600160401b0381118282101715613f1757613f17613edf565b60405160c081016001600160401b0381118282101715613f1757613f17613edf565b604051601f8201601f191681016001600160401b0381118282101715613f8957613f89613edf565b604052919050565b60006001600160401b03821115613faa57613faa613edf565b5060051b60200190565b6001600160a01b038116811461271257600080fd5b600082601f830112613fda57600080fd5b81356020613fef613fea83613f91565b613f61565b82815260059290921b8401810191818101908684111561400e57600080fd5b8286015b8481101561403257803561402581613fb4565b8352918301918301614012565b509695505050505050565b60006001600160401b0382111561405657614056613edf565b50601f01601f191660200190565b600082601f83011261407557600080fd5b8135614083613fea8261403d565b81815284602083860101111561409857600080fd5b816020850160208301376000918101602001919091529392505050565b6000806000606084860312156140ca57600080fd5b83356001600160401b03808211156140e157600080fd5b6140ed87838801613fc9565b9450602086013591508082111561410357600080fd5b5061411086828701614064565b925050604084013561412181613fb4565b809150509250925092565b6000806040838503121561413f57600080fd5b823561414a81613fb4565b9150602083013561415a81613fb4565b809150509250929050565b60006020828403121561417757600080fd5b813561418281613fb4565b9392505050565b60005b838110156141a457818101518382015260200161418c565b50506000910152565b600081518084526141c5816020860160208601614189565b601f01601f19169290920160200192915050565b805182526000602082015160406020850152612dc760408501826141ad565b634e487b7160e01b600052602160045260246000fd5b6007811061421e5761421e6141f8565b9052565b60006020808301818452808551808352604092508286019150828160051b87010184880160005b838110156142b957603f19898403018552815160808151855288820151818a870152614277828701826141d9565b9150508782015161428a8987018261420e565b50606080830151925085820381870152506142a581836141ad565b968901969450505090860190600101614249565b509098975050505050505050565b600080604083850312156142da57600080fd5b50508035926020909101359150565b600080604083850312156142fc57600080fd5b82356001600160401b0381111561431257600080fd5b61431e85828601614064565b925050602083013561415a81613fb4565b60008060006060848603121561434457600080fd5b833561434f81613fb4565b92506020840135915060408401356001600160401b0381111561437157600080fd5b84016040818703121561412157600080fd5b60006020828403121561439557600080fd5b5035919050565b600080604083850312156143af57600080fd5b82359150602083013561415a81613fb4565b6020815281511515602082015260018060a01b036020830151166040820152604082015160608201526000606083015160c0608084015261440560e08401826141d9565b9050608084015161441960a085018261420e565b5060a084015161442c60c085018261420e565b509392505050565b6007811061271257600080fd5b803561444c81614434565b919050565b6000806040838503121561446457600080fd5b61446e8335613fb4565b823591506001600160401b03806020850135111561448b57600080fd5b6020840135840185601f8201126144a157600080fd5b6144ae613fea8235613f91565b81358082526020808301929160051b8401018810156144cc57600080fd5b602083015b6020843560051b8501018110156145cd5784813511156144f057600080fd5b80358401601f196080828c038201121561450957600080fd5b614511613ef5565b60208301358152876040840135111561452957600080fd5b60408301358301604083828f0301121561454257600080fd5b61454a613f1d565b925060208101358352886040820135111561456457600080fd5b6145778d60206040840135840101614064565b60208401525081602082015261458f60608401614441565b604082015287608084013511156145a557600080fd5b6145b88c60206080860135860101614064565b606082015285525050602092830192016144d1565b50809450505050509250929050565b6000806000606084860312156145f157600080fd5b83356145fc81613fb4565b925060208401359150604084013561412181614434565b60006020828403121561462557600080fd5b813561418281614434565b6000806040838503121561464357600080fd5b82356001600160401b038082111561465a57600080fd5b61466686838701613fc9565b935060209150818501358181111561467d57600080fd5b8501601f8101871361468e57600080fd5b803561469c613fea82613f91565b81815260059190911b820184019084810190898311156146bb57600080fd5b8584015b838110156146f3578035868111156146d75760008081fd5b6146e58c8983890101614064565b8452509186019186016146bf565b508096505050505050509250929050565b602080825282518282018190526000919060409081850190868401855b8281101561474f57815180516001600160a01b03168552860151868501529284019290850190600101614721565b5091979650505050505050565b6000806040838503121561476f57600080fd5b823561477a81613fb4565b9150602083013561415a81614434565b602081016004831061479e5761479e6141f8565b91905290565b600080604083850312156147b757600080fd5b82356147c281613fb4565b946020939093013593505050565b8481526080602082015260006147e960808301866141d9565b6147f6604084018661420e565b828103606084015261480881856141ad565b979650505050505050565b60208101610938828461420e565b6000806040838503121561483457600080fd5b8235915060208301356001600160401b0381111561485157600080fd5b61485d85828601614064565b9150509250929050565b600181811c9082168061487b57607f821691505b60208210810361489b57634e487b7160e01b600052602260045260246000fd5b50919050565b6000602082840312156148b357600080fd5b8151801515811461418257600080fd5b634e487b7160e01b600052603260045260246000fd5b634e487b7160e01b600052601160045260246000fd5b600060018201614901576149016148d9565b5060010190565b601f82111561090857600081815260208120601f850160051c8101602086101561492f5750805b601f850160051c820191505b8181101561494e5782815560010161493b565b505050505050565b813581556001808201602080850135601e1986360301811261497757600080fd5b850180356001600160401b0381111561498f57600080fd5b80360383830113156149a057600080fd5b6149b4816149ae8654614867565b86614908565b6000601f8211600181146149ea57600083156149d257508382018501355b600019600385901b1c1916600184901b178655614a43565b600086815260209020601f19841690835b82811015614a1a578685018801358255938701939089019087016149fb565b5084821015614a395760001960f88660031b161c198785880101351681555b50508683881b0186555b505050505050505050565b60018060a01b0384168152826020820152606060408201528135606082015260006020830135601e19843603018112614a8657600080fd5b83016020810190356001600160401b03811115614aa257600080fd5b803603821315614ab157600080fd5b604060808501528060a0850152808260c0860137600060c0828601015260c0601f19601f83011685010192505050949350505050565b81516001600160401b03811115614b0057614b00613edf565b614b1481614b0e8454614867565b84614908565b602080601f831160018114614b495760008415614b315750858301515b600019600386901b1c1916600185901b17855561494e565b600085815260208120601f198616915b82811015614b7857888601518255948401946001909101908401614b59565b5085821015614b965787850151600019600388901b60f8161c191681555b5050505050600190811b01905550565b8082028115828204841417610938576109386148d9565b600082614bda57634e487b7160e01b600052601260045260246000fd5b500490565b80820180821115610938576109386148d9565b6000606082018483526020606081850152818551808452608086019150828701935060005b81811015614c3c5784516001600160a01b031683529383019391830191600101614c17565b505084810360408601526000815281810193505050509392505050565b6001600160a01b03841681526020810183905260608101612dc7604083018461420e565b6001600160a01b038316815260408101614182602083018461420e565b805161444c81613fb4565b60006020808385031215614cb857600080fd5b82516001600160401b0380821115614ccf57600080fd5b9084019060808287031215614ce357600080fd5b614ceb613ef5565b82518152838301518482015260408084015183811115614d0a57600080fd5b84019250601f83018813614d1d57600080fd5b8251614d2b613fea82613f91565b81815260069190911b8401860190868101908a831115614d4a57600080fd5b948701945b82861015614d935783868c031215614d675760008081fd5b614d6f613f1d565b8651614d7a81613fb4565b8152868901518982015282529483019490870190614d4f565b808486015250505050614da860608401614c9a565b60608201529695505050505050565b828152604060208201526000612dc760408301846141ad565b600082601f830112614de157600080fd5b8151614def613fea8261403d565b818152846020838601011115614e0457600080fd5b612dc7826020830160208701614189565b600060408284031215614e2757600080fd5b614e2f613f1d565b90508151815260208201516001600160401b03811115614e4e57600080fd5b614e5a84828501614dd0565b60208301525092915050565b60008060008060808587031215614e7c57600080fd5b8451614e8781613fb4565b6020860151909450614e9881613fb4565b6040860151606087015191945092506001600160401b03811115614ebb57600080fd5b614ec787828801614e15565b91505092959194509250565b604081526000614ee660408301856141ad565b905060018060a01b03831660208301529392505050565b600060208284031215614f0f57600080fd5b81516001600160401b0380821115614f2657600080fd5b9083019060c08286031215614f3a57600080fd5b614f42613f3f565b8251815260208301516020820152604083015182811115614f6257600080fd5b614f6e87828601614dd0565b604083015250606083015182811115614f8657600080fd5b614f9287828601614e15565b606083015250614fa460808401614c9a565b6080820152614fb560a08401614c9a565b60a082015295945050505050565b600060208284031215614fd557600080fd5b81516001600160401b0380821115614fec57600080fd5b9083019060c0828603121561500057600080fd5b615008613f3f565b82518152602083015161501a81613fb4565b6020820152604083015161502d81613fb4565b604082015260608301518281111561504457600080fd5b61505087828601614e15565b6060830152506080830151608082015260a083015160a082015280935050505092915050565b6001600160a01b038416815260608101615093602083018561420e565b826040830152949350505050565b6000602082840312156150b357600080fd5b815161418281613fb4565b6000806000606084860312156150d357600080fd5b83516150de81613fb4565b60208501519093506150ef81614434565b80925050604084015190509250925092565b81810381811115610938576109386148d956fea264697066735822122084800e509afe3e4fe808474df52e9e443b5cd252c776d6f431ac64737c1c855964736f6c63430008140033",
  "linkReferences": {},
  "deployedLinkReferences": {}
}