{
  "_format": "hh-sol-artifact-1",
  "contractName": "ExecutorSupplierVotingStrategy",
  "sourceName": "contracts/ExecutorSupplierVotingStrategy.sol",
  "abi": [
    {
      "inputs": [
        {
          "internalType": "address",
          "name": "_allo",
          "type": "address"
        },
        {
          "internalType": "string",
          "name": "_name",
          "type": "string"
        }
      ],
      "stateMutability": "nonpayable",
      "type": "constructor"
    },
    {
      "inputs": [],
      "name": "ALLOCATION_ACTIVE",
      "type": "error"
    },
    {
      "inputs": [],
      "name": "ALLOCATION_EXCEEDS_POOL_AMOUNT",
      "type": "error"
    },
    {
      "inputs": [],
      "name": "ALLOCATION_NOT_ACTIVE",
      "type": "error"
    },
    {
      "inputs": [],
      "name": "ALLOCATION_NOT_ENDED",
      "type": "error"
    },
    {
      "inputs": [],
      "name": "ALREADY_INITIALIZED",
      "type": "error"
    },
    {
      "inputs": [],
      "name": "ALREADY_REVIEWED",
      "type": "error"
    },
    {
      "inputs": [],
      "name": "AMOUNT_MISMATCH",
      "type": "error"
    },
    {
      "inputs": [],
      "name": "ANCHOR_ERROR",
      "type": "error"
    },
    {
      "inputs": [],
      "name": "ARRAY_MISMATCH",
      "type": "error"
    },
    {
      "inputs": [],
      "name": "INVALID",
      "type": "error"
    },
    {
      "inputs": [],
      "name": "INVALID_ADDRESS",
      "type": "error"
    },
    {
      "inputs": [],
      "name": "INVALID_FEE",
      "type": "error"
    },
    {
      "inputs": [],
      "name": "INVALID_METADATA",
      "type": "error"
    },
    {
      "inputs": [],
      "name": "INVALID_MILESTONE",
      "type": "error"
    },
    {
      "inputs": [],
      "name": "INVALID_MILESTONES_PERCENTAGE",
      "type": "error"
    },
    {
      "inputs": [],
      "name": "INVALID_MILESTONE_STATUS",
      "type": "error"
    },
    {
      "inputs": [],
      "name": "INVALID_REGISTRATION",
      "type": "error"
    },
    {
      "inputs": [],
      "name": "IS_APPROVED_STRATEGY",
      "type": "error"
    },
    {
      "inputs": [],
      "name": "MILESTONES_ALREADY_SET",
      "type": "error"
    },
    {
      "inputs": [],
      "name": "MILESTONE_ALREADY_ACCEPTED",
      "type": "error"
    },
    {
      "inputs": [],
      "name": "MISMATCH",
      "type": "error"
    },
    {
      "inputs": [],
      "name": "NONCE_NOT_AVAILABLE",
      "type": "error"
    },
    {
      "inputs": [],
      "name": "NOT_APPROVED_STRATEGY",
      "type": "error"
    },
    {
      "inputs": [],
      "name": "NOT_ENOUGH_FUNDS",
      "type": "error"
    },
    {
      "inputs": [],
      "name": "NOT_IMPLEMENTED",
      "type": "error"
    },
    {
      "inputs": [],
      "name": "NOT_INITIALIZED",
      "type": "error"
    },
    {
      "inputs": [],
      "name": "NOT_PENDING_OWNER",
      "type": "error"
    },
    {
      "inputs": [],
      "name": "POOL_ACTIVE",
      "type": "error"
    },
    {
      "inputs": [],
      "name": "POOL_INACTIVE",
      "type": "error"
    },
    {
      "inputs": [],
      "name": "RECIPIENT_ALREADY_ACCEPTED",
      "type": "error"
    },
    {
      "inputs": [
        {
          "internalType": "address",
          "name": "recipientId",
          "type": "address"
        }
      ],
      "name": "RECIPIENT_ERROR",
      "type": "error"
    },
    {
      "inputs": [],
      "name": "RECIPIENT_NOT_ACCEPTED",
      "type": "error"
    },
    {
      "inputs": [],
      "name": "REGISTRATION_NOT_ACTIVE",
      "type": "error"
    },
    {
      "inputs": [],
      "name": "ReentrancyGuardReentrantCall",
      "type": "error"
    },
    {
      "inputs": [],
      "name": "SUPPLY_IS_ALLOWED_ONLY_ONCE",
      "type": "error"
    },
    {
      "inputs": [],
      "name": "SUPPLY_NOT_FOUND",
      "type": "error"
    },
    {
      "inputs": [],
      "name": "UNAUTHORIZED",
      "type": "error"
    },
    {
      "inputs": [],
      "name": "ZERO_ADDRESS",
      "type": "error"
    },
    {
      "anonymous": false,
      "inputs": [
        {
          "indexed": true,
          "internalType": "address",
          "name": "recipientId",
          "type": "address"
        },
        {
          "indexed": false,
          "internalType": "uint256",
          "name": "amount",
          "type": "uint256"
        },
        {
          "indexed": false,
          "internalType": "address",
          "name": "token",
          "type": "address"
        },
        {
          "indexed": false,
          "internalType": "address",
          "name": "sender",
          "type": "address"
        }
      ],
      "name": "Allocated",
      "type": "event"
    },
    {
      "anonymous": false,
      "inputs": [
        {
          "indexed": true,
          "internalType": "address",
          "name": "recipientId",
          "type": "address"
        },
        {
          "indexed": false,
          "internalType": "address",
          "name": "recipientAddress",
          "type": "address"
        },
        {
          "indexed": false,
          "internalType": "uint256",
          "name": "amount",
          "type": "uint256"
        },
        {
          "indexed": false,
          "internalType": "address",
          "name": "sender",
          "type": "address"
        }
      ],
      "name": "Distributed",
      "type": "event"
    },
    {
      "anonymous": false,
      "inputs": [
        {
          "indexed": false,
          "internalType": "uint256",
          "name": "poolId",
          "type": "uint256"
        },
        {
          "indexed": false,
          "internalType": "bytes",
          "name": "data",
          "type": "bytes"
        }
      ],
      "name": "Initialized",
      "type": "event"
    },
    {
      "anonymous": false,
      "inputs": [
        {
          "indexed": false,
          "internalType": "address",
          "name": "recipientId",
          "type": "address"
        },
        {
          "indexed": false,
          "internalType": "uint256",
          "name": "milestoneId",
          "type": "uint256"
        },
        {
          "indexed": false,
          "internalType": "enum IStrategy.Status",
          "name": "status",
          "type": "uint8"
        }
      ],
      "name": "MilestoneStatusChanged",
      "type": "event"
    },
    {
      "anonymous": false,
      "inputs": [
        {
          "indexed": false,
          "internalType": "address",
          "name": "recipientId",
          "type": "address"
        },
        {
          "indexed": false,
          "internalType": "uint256",
          "name": "milestoneId",
          "type": "uint256"
        },
        {
          "components": [
            {
              "internalType": "uint256",
              "name": "protocol",
              "type": "uint256"
            },
            {
              "internalType": "string",
              "name": "pointer",
              "type": "string"
            }
          ],
          "indexed": false,
          "internalType": "struct Metadata",
          "name": "metadata",
          "type": "tuple"
        }
      ],
      "name": "MilestoneSubmitted",
      "type": "event"
    },
    {
      "anonymous": false,
      "inputs": [
        {
          "indexed": false,
          "internalType": "address",
          "name": "recipientId",
          "type": "address"
        },
        {
          "indexed": false,
          "internalType": "uint256",
          "name": "milestonesLength",
          "type": "uint256"
        }
      ],
      "name": "MilestonesOffered",
      "type": "event"
    },
    {
      "anonymous": false,
      "inputs": [
        {
          "indexed": false,
          "internalType": "address",
          "name": "recipientId",
          "type": "address"
        },
        {
          "indexed": false,
          "internalType": "enum IStrategy.Status",
          "name": "status",
          "type": "uint8"
        }
      ],
      "name": "MilestonesReviewed",
      "type": "event"
    },
    {
      "anonymous": false,
      "inputs": [
        {
          "indexed": false,
          "internalType": "address",
          "name": "recipientId",
          "type": "address"
        },
        {
          "indexed": false,
          "internalType": "uint256",
          "name": "milestonesLength",
          "type": "uint256"
        }
      ],
      "name": "MilestonesSet",
      "type": "event"
    },
    {
      "anonymous": false,
      "inputs": [
        {
          "indexed": false,
          "internalType": "address",
          "name": "recipientId",
          "type": "address"
        }
      ],
      "name": "OfferedMilestonesAccepted",
      "type": "event"
    },
    {
      "anonymous": false,
      "inputs": [
        {
          "indexed": false,
          "internalType": "address",
          "name": "recipientId",
          "type": "address"
        }
      ],
      "name": "OfferedMilestonesRejected",
      "type": "event"
    },
    {
      "anonymous": false,
      "inputs": [
        {
          "indexed": false,
          "internalType": "bool",
          "name": "active",
          "type": "bool"
        }
      ],
      "name": "PoolActive",
      "type": "event"
    },
    {
      "anonymous": false,
      "inputs": [
        {
          "indexed": false,
          "internalType": "address",
          "name": "recipientId",
          "type": "address"
        },
        {
          "indexed": false,
          "internalType": "enum IStrategy.Status",
          "name": "status",
          "type": "uint8"
        }
      ],
      "name": "RecipientStatusChanged",
      "type": "event"
    },
    {
      "anonymous": false,
      "inputs": [
        {
          "indexed": true,
          "internalType": "address",
          "name": "recipientId",
          "type": "address"
        },
        {
          "indexed": false,
          "internalType": "bytes",
          "name": "data",
          "type": "bytes"
        },
        {
          "indexed": false,
          "internalType": "address",
          "name": "sender",
          "type": "address"
        }
      ],
      "name": "Registered",
      "type": "event"
    },
    {
      "anonymous": false,
      "inputs": [
        {
          "indexed": false,
          "internalType": "address",
          "name": "recipientId",
          "type": "address"
        },
        {
          "indexed": false,
          "internalType": "uint256",
          "name": "milestoneId",
          "type": "uint256"
        },
        {
          "indexed": false,
          "internalType": "enum IStrategy.Status",
          "name": "status",
          "type": "uint8"
        }
      ],
      "name": "SubmittedvMilestoneReviewed",
      "type": "event"
    },
    {
      "inputs": [],
      "name": "NATIVE",
      "outputs": [
        {
          "internalType": "address",
          "name": "",
          "type": "address"
        }
      ],
      "stateMutability": "view",
      "type": "function"
    },
    {
      "inputs": [
        {
          "internalType": "bytes",
          "name": "_data",
          "type": "bytes"
        },
        {
          "internalType": "address",
          "name": "_sender",
          "type": "address"
        }
      ],
      "name": "allocate",
      "outputs": [],
      "stateMutability": "payable",
      "type": "function"
    },
    {
      "inputs": [],
      "name": "allocatedGrantAmount",
      "outputs": [
        {
          "internalType": "uint256",
          "name": "",
          "type": "uint256"
        }
      ],
      "stateMutability": "view",
      "type": "function"
    },
    {
      "inputs": [
        {
          "internalType": "address[]",
          "name": "_recipientIds",
          "type": "address[]"
        },
        {
          "internalType": "bytes",
          "name": "_data",
          "type": "bytes"
        },
        {
          "internalType": "address",
          "name": "_sender",
          "type": "address"
        }
      ],
      "name": "distribute",
      "outputs": [],
      "stateMutability": "nonpayable",
      "type": "function"
    },
    {
      "inputs": [],
      "name": "getAllo",
      "outputs": [
        {
          "internalType": "contract IAllo",
          "name": "",
          "type": "address"
        }
      ],
      "stateMutability": "view",
      "type": "function"
    },
    {
      "inputs": [
        {
          "internalType": "address",
          "name": "_recipientId",
          "type": "address"
        },
        {
          "internalType": "uint256",
          "name": "_milestoneId",
          "type": "uint256"
        }
      ],
      "name": "getMilestoneStatus",
      "outputs": [
        {
          "internalType": "enum IStrategy.Status",
          "name": "",
          "type": "uint8"
        }
      ],
      "stateMutability": "view",
      "type": "function"
    },
    {
      "inputs": [
        {
          "internalType": "address",
          "name": "_recipientId",
          "type": "address"
        }
      ],
      "name": "getMilestones",
      "outputs": [
        {
          "components": [
            {
              "internalType": "uint256",
              "name": "amountPercentage",
              "type": "uint256"
            },
            {
              "components": [
                {
                  "internalType": "uint256",
                  "name": "protocol",
                  "type": "uint256"
                },
                {
                  "internalType": "string",
                  "name": "pointer",
                  "type": "string"
                }
              ],
              "internalType": "struct Metadata",
              "name": "metadata",
              "type": "tuple"
            },
            {
              "internalType": "enum IStrategy.Status",
              "name": "milestoneStatus",
              "type": "uint8"
            },
            {
              "internalType": "string",
              "name": "description",
              "type": "string"
            }
          ],
          "internalType": "struct ExecutorSupplierVotingStrategy.Milestone[]",
          "name": "",
          "type": "tuple[]"
        }
      ],
      "stateMutability": "view",
      "type": "function"
    },
    {
      "inputs": [
        {
          "internalType": "address",
          "name": "_recipientId",
          "type": "address"
        }
      ],
      "name": "getOffeeredMilestones",
      "outputs": [
        {
          "components": [
            {
              "internalType": "uint256",
              "name": "amountPercentage",
              "type": "uint256"
            },
            {
              "components": [
                {
                  "internalType": "uint256",
                  "name": "protocol",
                  "type": "uint256"
                },
                {
                  "internalType": "string",
                  "name": "pointer",
                  "type": "string"
                }
              ],
              "internalType": "struct Metadata",
              "name": "metadata",
              "type": "tuple"
            },
            {
              "internalType": "enum IStrategy.Status",
              "name": "milestoneStatus",
              "type": "uint8"
            },
            {
              "internalType": "string",
              "name": "description",
              "type": "string"
            }
          ],
          "internalType": "struct ExecutorSupplierVotingStrategy.Milestone[]",
          "name": "",
          "type": "tuple[]"
        }
      ],
      "stateMutability": "view",
      "type": "function"
    },
    {
      "inputs": [
        {
          "internalType": "address",
          "name": "_recipientId",
          "type": "address"
        }
      ],
      "name": "getOfferedMilestonesVotesAgainst",
      "outputs": [
        {
          "internalType": "uint256",
          "name": "",
          "type": "uint256"
        }
      ],
      "stateMutability": "view",
      "type": "function"
    },
    {
      "inputs": [
        {
          "internalType": "address",
          "name": "_recipientId",
          "type": "address"
        }
      ],
      "name": "getOfferedMilestonesVotesFor",
      "outputs": [
        {
          "internalType": "uint256",
          "name": "",
          "type": "uint256"
        }
      ],
      "stateMutability": "view",
      "type": "function"
    },
    {
      "inputs": [
        {
          "internalType": "address[]",
          "name": "_recipientIds",
          "type": "address[]"
        },
        {
          "internalType": "bytes[]",
          "name": "_data",
          "type": "bytes[]"
        }
      ],
      "name": "getPayouts",
      "outputs": [
        {
          "components": [
            {
              "internalType": "address",
              "name": "recipientAddress",
              "type": "address"
            },
            {
              "internalType": "uint256",
              "name": "amount",
              "type": "uint256"
            }
          ],
          "internalType": "struct IStrategy.PayoutSummary[]",
          "name": "",
          "type": "tuple[]"
        }
      ],
      "stateMutability": "view",
      "type": "function"
    },
    {
      "inputs": [],
      "name": "getPoolAmount",
      "outputs": [
        {
          "internalType": "uint256",
          "name": "",
          "type": "uint256"
        }
      ],
      "stateMutability": "view",
      "type": "function"
    },
    {
      "inputs": [],
      "name": "getPoolId",
      "outputs": [
        {
          "internalType": "uint256",
          "name": "",
          "type": "uint256"
        }
      ],
      "stateMutability": "view",
      "type": "function"
    },
    {
      "inputs": [
        {
          "internalType": "address",
          "name": "_recipientId",
          "type": "address"
        }
      ],
      "name": "getRecipient",
      "outputs": [
        {
          "components": [
            {
              "internalType": "bool",
              "name": "useRegistryAnchor",
              "type": "bool"
            },
            {
              "internalType": "address",
              "name": "recipientAddress",
              "type": "address"
            },
            {
              "internalType": "uint256",
              "name": "grantAmount",
              "type": "uint256"
            },
            {
              "components": [
                {
                  "internalType": "uint256",
                  "name": "protocol",
                  "type": "uint256"
                },
                {
                  "internalType": "string",
                  "name": "pointer",
                  "type": "string"
                }
              ],
              "internalType": "struct Metadata",
              "name": "metadata",
              "type": "tuple"
            },
            {
              "internalType": "enum IStrategy.Status",
              "name": "recipientStatus",
              "type": "uint8"
            },
            {
              "internalType": "enum IStrategy.Status",
              "name": "milestonesReviewStatus",
              "type": "uint8"
            }
          ],
          "internalType": "struct ExecutorSupplierVotingStrategy.Recipient",
          "name": "",
          "type": "tuple"
        }
      ],
      "stateMutability": "view",
      "type": "function"
    },
    {
      "inputs": [
        {
          "internalType": "address",
          "name": "_recipientId",
          "type": "address"
        }
      ],
      "name": "getRecipientStatus",
      "outputs": [
        {
          "internalType": "enum IStrategy.Status",
          "name": "",
          "type": "uint8"
        }
      ],
      "stateMutability": "view",
      "type": "function"
    },
    {
      "inputs": [],
      "name": "getStrategyId",
      "outputs": [
        {
          "internalType": "bytes32",
          "name": "",
          "type": "bytes32"
        }
      ],
      "stateMutability": "view",
      "type": "function"
    },
    {
      "inputs": [
        {
          "internalType": "address",
          "name": "_recipientId",
          "type": "address"
        },
        {
          "internalType": "address",
          "name": "_supplier",
          "type": "address"
        }
      ],
      "name": "getSupplierOfferedMilestonesVote",
      "outputs": [
        {
          "internalType": "uint256",
          "name": "",
          "type": "uint256"
        }
      ],
      "stateMutability": "view",
      "type": "function"
    },
    {
      "inputs": [],
      "name": "grantAmountRequired",
      "outputs": [
        {
          "internalType": "bool",
          "name": "",
          "type": "bool"
        }
      ],
      "stateMutability": "view",
      "type": "function"
    },
    {
      "inputs": [
        {
          "internalType": "uint256",
          "name": "_amount",
          "type": "uint256"
        }
      ],
      "name": "increasePoolAmount",
      "outputs": [],
      "stateMutability": "nonpayable",
      "type": "function"
    },
    {
      "inputs": [
        {
          "internalType": "uint256",
          "name": "_poolId",
          "type": "uint256"
        },
        {
          "internalType": "bytes",
          "name": "_data",
          "type": "bytes"
        }
      ],
      "name": "initialize",
      "outputs": [],
      "stateMutability": "nonpayable",
      "type": "function"
    },
    {
      "inputs": [],
      "name": "isPoolActive",
      "outputs": [
        {
          "internalType": "bool",
          "name": "",
          "type": "bool"
        }
      ],
      "stateMutability": "view",
      "type": "function"
    },
    {
      "inputs": [
        {
          "internalType": "address",
          "name": "_allocator",
          "type": "address"
        }
      ],
      "name": "isValidAllocator",
      "outputs": [
        {
          "internalType": "bool",
          "name": "",
          "type": "bool"
        }
      ],
      "stateMutability": "view",
      "type": "function"
    },
    {
      "inputs": [],
      "name": "metadataRequired",
      "outputs": [
        {
          "internalType": "bool",
          "name": "",
          "type": "bool"
        }
      ],
      "stateMutability": "view",
      "type": "function"
    },
    {
      "inputs": [
        {
          "internalType": "address",
          "name": "",
          "type": "address"
        },
        {
          "internalType": "uint256",
          "name": "",
          "type": "uint256"
        }
      ],
      "name": "milestones",
      "outputs": [
        {
          "internalType": "uint256",
          "name": "amountPercentage",
          "type": "uint256"
        },
        {
          "components": [
            {
              "internalType": "uint256",
              "name": "protocol",
              "type": "uint256"
            },
            {
              "internalType": "string",
              "name": "pointer",
              "type": "string"
            }
          ],
          "internalType": "struct Metadata",
          "name": "metadata",
          "type": "tuple"
        },
        {
          "internalType": "enum IStrategy.Status",
          "name": "milestoneStatus",
          "type": "uint8"
        },
        {
          "internalType": "string",
          "name": "description",
          "type": "string"
        }
      ],
      "stateMutability": "view",
      "type": "function"
    },
    {
      "inputs": [
        {
          "internalType": "address",
          "name": "_recipientId",
          "type": "address"
        },
        {
          "components": [
            {
              "internalType": "uint256",
              "name": "amountPercentage",
              "type": "uint256"
            },
            {
              "components": [
                {
                  "internalType": "uint256",
                  "name": "protocol",
                  "type": "uint256"
                },
                {
                  "internalType": "string",
                  "name": "pointer",
                  "type": "string"
                }
              ],
              "internalType": "struct Metadata",
              "name": "metadata",
              "type": "tuple"
            },
            {
              "internalType": "enum IStrategy.Status",
              "name": "milestoneStatus",
              "type": "uint8"
            },
            {
              "internalType": "string",
              "name": "description",
              "type": "string"
            }
          ],
          "internalType": "struct ExecutorSupplierVotingStrategy.Milestone[]",
          "name": "_milestones",
          "type": "tuple[]"
        }
      ],
      "name": "offerMilestones",
      "outputs": [],
      "stateMutability": "nonpayable",
      "type": "function"
    },
    {
      "inputs": [
        {
          "internalType": "bytes",
          "name": "_data",
          "type": "bytes"
        },
        {
          "internalType": "address",
          "name": "_sender",
          "type": "address"
        }
      ],
      "name": "registerRecipient",
      "outputs": [
        {
          "internalType": "address",
          "name": "recipientId",
          "type": "address"
        }
      ],
      "stateMutability": "payable",
      "type": "function"
    },
    {
      "inputs": [],
      "name": "registryGating",
      "outputs": [
        {
          "internalType": "bool",
          "name": "",
          "type": "bool"
        }
      ],
      "stateMutability": "view",
      "type": "function"
    },
    {
      "inputs": [
        {
          "internalType": "address",
          "name": "_recipientId",
          "type": "address"
        },
        {
          "internalType": "enum IStrategy.Status",
          "name": "_status",
          "type": "uint8"
        }
      ],
      "name": "reviewOfferedtMilestones",
      "outputs": [],
      "stateMutability": "nonpayable",
      "type": "function"
    },
    {
      "inputs": [
        {
          "internalType": "address",
          "name": "_recipientId",
          "type": "address"
        },
        {
          "internalType": "uint256",
          "name": "_milestoneId",
          "type": "uint256"
        },
        {
          "internalType": "enum IStrategy.Status",
          "name": "_status",
          "type": "uint8"
        }
      ],
      "name": "reviewSubmitedMilestone",
      "outputs": [],
      "stateMutability": "nonpayable",
      "type": "function"
    },
    {
      "inputs": [
        {
          "internalType": "bool",
          "name": "_flag",
          "type": "bool"
        }
      ],
      "name": "setPoolActive",
      "outputs": [],
      "stateMutability": "nonpayable",
      "type": "function"
    },
    {
      "inputs": [
        {
          "internalType": "uint256",
          "name": "_newPercentage",
          "type": "uint256"
        },
        {
          "internalType": "bytes32",
          "name": "_profileId",
          "type": "bytes32"
        }
      ],
      "name": "setThresholdPercentage",
      "outputs": [],
      "stateMutability": "nonpayable",
      "type": "function"
    },
    {
      "inputs": [
        {
          "internalType": "address",
          "name": "_recipientId",
          "type": "address"
        },
        {
          "internalType": "uint256",
          "name": "_milestoneId",
          "type": "uint256"
        },
        {
          "components": [
            {
              "internalType": "uint256",
              "name": "protocol",
              "type": "uint256"
            },
            {
              "internalType": "string",
              "name": "pointer",
              "type": "string"
            }
          ],
          "internalType": "struct Metadata",
          "name": "_metadata",
          "type": "tuple"
        }
      ],
      "name": "submitMilestone",
      "outputs": [],
      "stateMutability": "nonpayable",
      "type": "function"
    },
    {
      "inputs": [
        {
          "internalType": "uint256",
          "name": "",
          "type": "uint256"
        }
      ],
      "name": "submittedvMilestones",
      "outputs": [
        {
          "internalType": "uint256",
          "name": "votesFor",
          "type": "uint256"
        },
        {
          "internalType": "uint256",
          "name": "votesAgainst",
          "type": "uint256"
        }
      ],
      "stateMutability": "view",
      "type": "function"
    },
    {
      "inputs": [],
      "name": "thresholdPercentage",
      "outputs": [
        {
          "internalType": "uint256",
          "name": "",
          "type": "uint256"
        }
      ],
      "stateMutability": "view",
      "type": "function"
    },
    {
      "inputs": [],
      "name": "totalSupply",
      "outputs": [
        {
          "internalType": "uint256",
          "name": "",
          "type": "uint256"
        }
      ],
      "stateMutability": "view",
      "type": "function"
    },
    {
      "inputs": [
        {
          "internalType": "address",
          "name": "",
          "type": "address"
        }
      ],
      "name": "upcomingMilestone",
      "outputs": [
        {
          "internalType": "uint256",
          "name": "",
          "type": "uint256"
        }
      ],
      "stateMutability": "view",
      "type": "function"
    },
    {
      "stateMutability": "payable",
      "type": "receive"
    }
  ],
  "bytecode": "0x60c060405260466006553480156200001657600080fd5b5060405162004a1f38038062004a1f8339810160408190526200003991620000c4565b6001600160a01b038216608052604051829082906200005d9082906020016200019f565b60408051601f19818403018152919052805160209091012060a0525050600160035550620001d49050565b634e487b7160e01b600052604160045260246000fd5b60005b83811015620000bb578181015183820152602001620000a1565b50506000910152565b60008060408385031215620000d857600080fd5b82516001600160a01b0381168114620000f057600080fd5b60208401519092506001600160401b03808211156200010e57600080fd5b818501915085601f8301126200012357600080fd5b81518181111562000138576200013862000088565b604051601f8201601f19908116603f0116810190838211818310171562000163576200016362000088565b816040528281528860208487010111156200017d57600080fd5b620001908360208301602088016200009e565b80955050505050509250929050565b6020815260008251806020840152620001c08160408501602087016200009e565b601f01601f19169190910160400192915050565b60805160a0516147ed6200023260003960006103de0152600081816102500152818161151f01528181611fb1015281816123f901528181612749015281816129ef01528181612c0b01528181612dcd015261320701526147ed6000f3fe6080604052600436106102135760003560e01c80639ffaa87511610118578063df868ed3116100a0578063eb11af931161006f578063eb11af93146106b5578063edd146cc146106e2578063ef2920fc14610702578063f5b0dfb714610715578063f83067e71461073557600080fd5b8063df868ed314610621578063e2372b5814610639578063e477b6bd14610666578063e8eeb8061461069f57600080fd5b8063b3eae7ab116100e7578063b3eae7ab14610559578063b5f620ce14610579578063c7a892bf14610599578063cb0e85a6146105c9578063cb2415fb146105e857600080fd5b80639ffaa875146104ca578063a0cf0aea146104ea578063a647d23e14610512578063b2b878d01461052c57600080fd5b80633bf3577d1161019b5780634d31d0871161016a5780634d31d087146104175780634ed2859e1461044757806362812a391461045d57806378f0184d1461048a5780639be2ccf5146104aa57600080fd5b80633bf3577d14610366578063404e73e21461038657806342fda9c7146103cf5780634ab4ba421461040257600080fd5b806322a4e42d116101e257806322a4e42d146102d15780632a835b4b146102fe5780632bbe0cae1461031e57806336592c0e1461033157806338fff2d01461035157600080fd5b80630a6f0ee91461021f57806315cc481e1461024157806318160ddd1461028d578063197ea814146102b157600080fd5b3661021a57005b600080fd5b34801561022b57600080fd5b5061023f61023a36600461376a565b610755565b005b34801561024d57600080fd5b507f00000000000000000000000000000000000000000000000000000000000000005b6040516001600160a01b0390911681526020015b60405180910390f35b34801561029957600080fd5b506102a360055481565b604051908152602001610284565b3480156102bd57600080fd5b506102a36102cc3660046137e1565b610775565b3480156102dd57600080fd5b506102f16102ec36600461381a565b6107a6565b60405161028491906138e5565b34801561030a57600080fd5b5061023f61031936600461398a565b61099a565b61027061032c3660046139ac565b610a99565b34801561033d57600080fd5b506102f161034c36600461381a565b610abc565b34801561035d57600080fd5b506001546102a3565b34801561037257600080fd5b5061023f6103813660046139f2565b610ca5565b34801561039257600080fd5b506103ba6103a1366004613a46565b600f602052600090815260409020805460019091015482565b60408051928352602083019190915201610284565b3480156103db57600080fd5b507f00000000000000000000000000000000000000000000000000000000000000006102a3565b34801561040e57600080fd5b506002546102a3565b34801561042357600080fd5b5061043761043236600461381a565b610f66565b6040519015158152602001610284565b34801561045357600080fd5b506102a360065481565b34801561046957600080fd5b5061047d61047836600461381a565b610f71565b6040516102849190613a5f565b34801561049657600080fd5b5061023f6104a5366004613aef565b610f82565b3480156104b657600080fd5b506004546104379062010000900460ff1681565b3480156104d657600080fd5b5061023f6104e5366004613c7a565b61117e565b3480156104f657600080fd5b5061027073eeeeeeeeeeeeeeeeeeeeeeeeeeeeeeeeeeeeeeee81565b34801561051e57600080fd5b506004546104379060ff1681565b34801561053857600080fd5b5061054c610547366004613cb1565b6116e2565b6040516102849190613d85565b34801561056557600080fd5b5061023f610574366004613ddd565b6117e0565b34801561058557600080fd5b5061023f610594366004613e19565b611cdd565b3480156105a557600080fd5b506105b96105b4366004613e36565b611d29565b6040516102849493929190613e62565b3480156105d557600080fd5b5060045461043790610100900460ff1681565b3480156105f457600080fd5b506102a361060336600461381a565b6001600160a01b03166000908152600c602052604090206002015490565b34801561062d57600080fd5b5060005460ff16610437565b34801561064557600080fd5b506102a361065436600461381a565b600e6020526000908152604090205481565b34801561067257600080fd5b506102a361068136600461381a565b6001600160a01b03166000908152600c602052604090206001015490565b3480156106ab57600080fd5b506102a360085481565b3480156106c157600080fd5b506106d56106d036600461381a565b611eab565b6040516102849190613ea5565b3480156106ee57600080fd5b5061023f6106fd366004613eb3565b611eb6565b61023f6107103660046139ac565b611f16565b34801561072157600080fd5b5061023f610730366004613a46565b611f34565b34801561074157600080fd5b506106d5610750366004613e36565b611f5e565b61075d611fa6565b610765611ff1565b610770838383612014565b505050565b6001600160a01b038083166000908152600c6020908152604080832093851683526003909301905220545b92915050565b6001600160a01b0381166000908152600d60209081526040808320805482518185028101850190935280835260609492939192909184015b8282101561098f578382906000526020600020906005020160405180608001604052908160008201548152602001600182016040518060400160405290816000820154815260200160018201805461083590613ef9565b80601f016020809104026020016040519081016040528092919081815260200182805461086190613ef9565b80156108ae5780601f10610883576101008083540402835291602001916108ae565b820191906000526020600020905b81548152906001019060200180831161089157829003601f168201915b505050919092525050508152600382015460209091019060ff1660068111156108d9576108d96138ad565b60068111156108ea576108ea6138ad565b81526020016004820180546108fe90613ef9565b80601f016020809104026020016040519081016040528092919081815260200182805461092a90613ef9565b80156109775780601f1061094c57610100808354040283529160200191610977565b820191906000526020600020905b81548152906001019060200180831161095a57829003601f168201915b505050505081525050815260200190600101906107de565b505050509050919050565b600754604051630e6e1ae360e21b8152600481018390523360248201526001600160a01b03909116906339b86b8c90604401602060405180830381865afa1580156109e9573d6000803e3d6000fd5b505050506040513d601f19601f82011682018060405250810190610a0d9190613f33565b610a4d5760405162461bcd60e51b815260206004820152600c60248201526b15539055551213d49256915160a21b60448201526064015b60405180910390fd5b6064821115610a935760405162461bcd60e51b8152602060048201526012602482015271496e76616c69642070657263656e7461676560701b6044820152606401610a44565b50600655565b6000610aa3611fa6565b610aab611ff1565b610ab583836120ab565b90506107a0565b6001600160a01b0381166000908152600c60209081526040808320805482518185028101850190935280835260609492939192909184015b8282101561098f5783829060005260206000209060050201604051806080016040529081600082015481526020016001820160405180604001604052908160008201548152602001600182018054610b4b90613ef9565b80601f0160208091040260200160405190810160405280929190818152602001828054610b7790613ef9565b8015610bc45780601f10610b9957610100808354040283529160200191610bc4565b820191906000526020600020905b815481529060010190602001808311610ba757829003601f168201915b505050919092525050508152600382015460209091019060ff166006811115610bef57610bef6138ad565b6006811115610c0057610c006138ad565b8152602001600482018054610c1490613ef9565b80601f0160208091040260200160405190810160405280929190818152602001828054610c4090613ef9565b8015610c8d5780601f10610c6257610100808354040283529160200191610c8d565b820191906000526020600020905b815481529060010190602001808311610c7057829003601f168201915b50505050508152505081526020019060010190610af4565b6001600160a01b0383163314610cce5760405163075fd2b160e01b815260040160405180910390fd5b6001600160a01b038084166000908152600a60209081526040808320815160c081018352815460ff8116151582526101009004909516858401526001810154858301528151808301909252600281018054835260038201805495969592946060870194939084019190610d4090613ef9565b80601f0160208091040260200160405190810160405280929190818152602001828054610d6c90613ef9565b8015610db95780601f10610d8e57610100808354040283529160200191610db9565b820191906000526020600020905b815481529060010190602001808311610d9c57829003601f168201915b505050919092525050508152600482015460209091019060ff166006811115610de457610de46138ad565b6006811115610df557610df56138ad565b81526020016004820160019054906101000a900460ff166006811115610e1d57610e1d6138ad565b6006811115610e2e57610e2e6138ad565b9052509050600281608001516006811115610e4b57610e4b6138ad565b14610e695760405163392c16fb60e21b815260040160405180910390fd5b6001600160a01b0384166000908152600d602052604090208054841115610ea357604051632f1f68e160e11b815260040160405180910390fd5b6000818581548110610eb757610eb7613f50565b6000918252602090912060059091020190506002600382015460ff166006811115610ee457610ee46138ad565b03610f0257604051637f46ed2760e11b815260040160405180910390fd5b8360018201610f118282613fb4565b505060038101805460ff191660011790556040517f8673cfb5a2cbad812463bdfd7c85511f29c804579a86d318889ab9251553996190610f56908890889088906140ac565b60405180910390a1505050505050565b60006107a0826123dc565b610f79613487565b6107a082612481565b6000336001600160a01b0384161480610fa05750610fa083336125f1565b905080610fc05760405163075fd2b160e01b815260040160405180910390fd5b6001600160a01b0383166000908152600a602052604090206002600482015460ff166006811115610ff357610ff36138ad565b146110115760405163392c16fb60e21b815260040160405180910390fd5b60026004820154610100900460ff166006811115611031576110316138ad565b0361104f576040516305ca31d360e51b815260040160405180910390fd5b611058846126e9565b60005b8351811015611132576001600160a01b0385166000908152600c60205260409020845185908390811061109057611090613f50565b602090810291909101810151825460018181018555600094855293839020825160059092020190815581830151805194820194855592830151919390929160028401906110dd9082614145565b505050604082015160038201805460ff19166001836006811115611103576111036138ad565b02179055506060820151600482019061111c9082614145565b505050808061112a9061421a565b91505061105b565b508251604080516001600160a01b038716815260208101929092527f8a5603111f154f43104afe04452c6a93024a972cb6a0af72e6f38bcce68625d5910160405180910390a150505050565b336111888161271f565b6000838152600f60209081526040808320338452600201909152902054156111c35760405163448bae6f60e01b815260040160405180910390fd5b6001600160a01b038085166000908152600a60209081526040808320815160c081018352815460ff811615158252610100900490951685840152600181015485830152815180830190925260028101805483526003820180549596959294606087019493908401919061123590613ef9565b80601f016020809104026020016040519081016040528092919081815260200182805461126190613ef9565b80156112ae5780601f10611283576101008083540402835291602001916112ae565b820191906000526020600020905b81548152906001019060200180831161129157829003601f168201915b505050919092525050508152600482015460209091019060ff1660068111156112d9576112d96138ad565b60068111156112ea576112ea6138ad565b81526020016004820160019054906101000a900460ff166006811115611312576113126138ad565b6006811115611323576113236138ad565b9052509050600281608001516006811115611340576113406138ad565b1461135e5760405163392c16fb60e21b815260040160405180910390fd5b6001600160a01b0385166000908152600d60205260409020805485111561139857604051632f1f68e160e11b815260040160405180910390fd5b60008186815481106113ac576113ac613f50565b6000918252602090912060059091020190506001600382015460ff1660068111156113d9576113d96138ad565b146113f757604051635b2fe71d60e11b815260040160405180910390fd5b336000908152600b602052604081205460065460055491929160649161141c91614233565b611426919061424a565b6000898152600f60209081526040808320338452600290810190925290912084905590915087600681111561145d5761145d6138ad565b036115ca576000888152600f60205260408120805484929061148090849061426c565b90915550506000888152600f60205260409020548110156115c55760038301805488919060ff191660018360068111156114bc576114bc6138ad565b02179055506040805160018082528183019092526000916020808301908036833701905050905089816000815181106114f7576114f7613f50565b6001600160a01b039283166020918202929092010152600154604051631d2fdec960e11b81527f000000000000000000000000000000000000000000000000000000000000000090921691633a5fbd929161155691859060040161427f565b600060405180830381600087803b15801561157057600080fd5b505af1158015611584573d6000803e3d6000fd5b505050507ff1af82b65c631a030029b10ea8f00f68290285c7c797644155b8f23969ca1d638a8a8a6040516115bb939291906142e6565b60405180910390a1505b61169c565b60038760068111156115de576115de6138ad565b0361169c576000888152600f60205260408120600101805484929061160490849061426c565b90915550506000888152600f602052604090206001015481101561169c5760038301805488919060ff19166001836006811115611643576116436138ad565b02179055506000888152600f602052604080822082815560010191909155517ff1af82b65c631a030029b10ea8f00f68290285c7c797644155b8f23969ca1d6390611693908b908b908b906142e6565b60405180910390a15b7f4460beb477b3843656610a89bd67c551d2a78131b5a955ddccd5eb9aa218c8c38989896040516116cf939291906142e6565b60405180910390a1505050505050505050565b8151815160609190811461170957604051633da4c02b60e11b815260040160405180910390fd5b6000816001600160401b0381111561172357611723613594565b60405190808252806020026020018201604052801561176857816020015b60408051808201909152600080825260208201528152602001906001900390816117415790505b50905060005b828110156117d7576117b286828151811061178b5761178b613f50565b60200260200101518683815181106117a5576117a5613f50565b60200260200101516127d1565b8282815181106117c4576117c4613f50565b602090810291909101015260010161176e565b50949350505050565b336117ea8161271f565b6001600160a01b0383166000908152600c602090815260408083203384526003019091529020541561182f5760405163448bae6f60e01b815260040160405180910390fd5b6001600160a01b0383166000908152600a6020526040902060026004820154610100900460ff166006811115611867576118676138ad565b03611885576040516305ca31d360e51b815260040160405180910390fd5b336000908152600b60205260408120546006546005549192916064916118aa91614233565b6118b4919061424a565b6001600160a01b0387166000908152600c602090815260408083203384526003019091529020839055905060028560068111156118f3576118f36138ad565b03611bbb576001600160a01b0386166000908152600c60205260408120600101805484929061192390849061426c565b90915550506001600160a01b0386166000908152600c6020526040902060010154811015611bb6576001600160a01b0386166000908152600a60205260409020600401805486919061ff001916610100836006811115611985576119856138ad565b02179055506001600160a01b0386166000908152600c602090815260408083208054825181850281018501909352808352611b79948b9484015b82821015611b705783829060005260206000209060050201604051806080016040529081600082015481526020016001820160405180604001604052908160008201548152602001600182018054611a1690613ef9565b80601f0160208091040260200160405190810160405280929190818152602001828054611a4290613ef9565b8015611a8f5780601f10611a6457610100808354040283529160200191611a8f565b820191906000526020600020905b815481529060010190602001808311611a7257829003601f168201915b505050919092525050508152600382015460209091019060ff166006811115611aba57611aba6138ad565b6006811115611acb57611acb6138ad565b8152602001600482018054611adf90613ef9565b80601f0160208091040260200160405190810160405280929190818152602001828054611b0b90613ef9565b8015611b585780601f10611b2d57610100808354040283529160200191611b58565b820191906000526020600020905b815481529060010190602001808311611b3b57829003601f168201915b505050505081525050815260200190600101906119bf565b5050505061281c565b6040516001600160a01b03871681527f7b05d1f85b1ac2e76c0d8dbb0dfa809df6788f66bbeeb837b2b5fae4f64c00639060200160405180910390a15b611cac565b6003856006811115611bcf57611bcf6138ad565b03611cac576001600160a01b0386166000908152600c602052604081206002018054849290611bff90849061426c565b90915550506001600160a01b0386166000908152600c6020526040902060020154811015611cac576001600160a01b0386166000908152600a60205260409020600401805486919061ff001916610100836006811115611c6157611c616138ad565b0217905550611c6f866126e9565b6040516001600160a01b03871681527f5a90817477dd8f83cfe5d429e1dc84ad5a25cb72b83291c707c6f8f5c4f2ac849060200160405180910390a15b7f30dae55c386c6176f3f7b7ee6ad4df33970f2e442cb0142e978cf78fd8ae138d8686604051610f5692919061430a565b33611ce78161271f565b611cf082612aa0565b60405182151581527fd94c9bc4d43c51d8dc345a016d8e3d994432fac68e72832e4cf3a616bd8efae09060200160405180910390a15050565b600d6020528160005260406000208181548110611d4557600080fd5b9060005260206000209060050201600091509150508060000154908060010160405180604001604052908160008201548152602001600182018054611d8990613ef9565b80601f0160208091040260200160405190810160405280929190818152602001828054611db590613ef9565b8015611e025780601f10611dd757610100808354040283529160200191611e02565b820191906000526020600020905b815481529060010190602001808311611de557829003601f168201915b505050919092525050506003820154600483018054929360ff90921692611e2890613ef9565b80601f0160208091040260200160405190810160405280929190818152602001828054611e5490613ef9565b8015611ea15780601f10611e7657610100808354040283529160200191611ea1565b820191906000526020600020905b815481529060010190602001808311611e8457829003601f168201915b5050505050905084565b60006107a082612ae7565b600081806020019051810190611ecc9190614332565b9050611ed88382612afc565b7f91efa3d50feccde0d0d202f8ae5c41ca0b2be614cebcb2bd2f4b019396e6568a8383604051611f0992919061445a565b60405180910390a1505050565b611f1e611fa6565b611f26611ff1565b611f308282612cb5565b5050565b611f3c611fa6565b8060026000828254611f4e919061426c565b90915550611f5b90508181565b50565b6001600160a01b0382166000908152600d60205260408120805483908110611f8857611f88613f50565b600091825260209091206005909102016003015460ff169392505050565b336001600160a01b037f00000000000000000000000000000000000000000000000000000000000000001614611fef5760405163075fd2b160e01b815260040160405180910390fd5b565b600154600003611fef57604051630f68fe6360e21b815260040160405180910390fd5b6001600160a01b038116301461206c5760405162461bcd60e51b815260206004820152601760248201527f554e415554484f52495a454420646973747269627574650000000000000000006044820152606401610a44565b825160005b818110156120a45761209c85828151811061208e5761208e613f50565b602002602001015184612fdf565b600101612071565b5050505050565b60006120b561334f565b6000806000806120d8604051806040016040528060008152602001606081525090565b60045460ff161561212d57878060200190518101906120f79190614509565b9298509096509250905061210b86886125f1565b6121285760405163075fd2b160e01b815260040160405180910390fd5b61219a565b878060200190518101906121419190614509565b9297509095506001600160a01b0386161515945092509050826121645784612166565b835b955082801561217c575061217a86886125f1565b155b1561219a5760405163075fd2b160e01b815260040160405180910390fd5b60045462010000900460ff1680156121b0575081155b156121ce576040516303b167dd60e01b815260040160405180910390fd5b60026001600160a01b0387166000908152600a602052604090206004015460ff166006811115612200576122006138ad565b0361221e5760405163083a81f760e31b815260040160405180910390fd5b600454610100900460ff1680156122415750602081015151158061224157508051155b1561225f5760405163c19e07c560e01b815260040160405180910390fd5b6040805160c0810190915260045460009190819060ff166122805785612283565b60015b151581526001600160a01b0388166020820152604081018590526060810184905260800160028152602001600190526001600160a01b038881166000908152600a602090815260409182902084518154868401516001600160a81b0319909116911515610100600160a81b031916919091176101009190951602939093178355908301516001830155606083015180516002840190815591810151939450849390919060038401906123359082614145565b505050608082015160048201805460ff1916600183600681111561235b5761235b6138ad565b021790555060a082015160048201805461ff001916610100836006811115612385576123856138ad565b0217905550905050866001600160a01b03167fa197306e3dd5494a61a695381aa809a53b8e377a685e84e404a85d5a8da6cc628a8a6040516123c8929190614576565b60405180910390a250505050505092915050565b6001546040516329e40d4b60e01b81526000916001600160a01b037f000000000000000000000000000000000000000000000000000000000000000016916329e40d4b916124409186906004019182526001600160a01b0316602082015260400190565b602060405180830381865afa15801561245d573d6000803e3d6000fd5b505050506040513d601f19601f820116820180604052508101906107a09190613f33565b612489613487565b6001600160a01b038083166000908152600a6020908152604091829020825160c081018452815460ff8116151582526101009004909416848301526001810154848401528251808401909352600281018054845260038201805492946060870194909390840191906124fa90613ef9565b80601f016020809104026020016040519081016040528092919081815260200182805461252690613ef9565b80156125735780601f1061254857610100808354040283529160200191612573565b820191906000526020600020905b81548152906001019060200180831161255657829003601f168201915b505050919092525050508152600482015460209091019060ff16600681111561259e5761259e6138ad565b60068111156125af576125af6138ad565b81526020016004820160019054906101000a900460ff1660068111156125d7576125d76138ad565b60068111156125e8576125e86138ad565b90525092915050565b60075460405163dd93da4360e01b81526001600160a01b038481166004830152600092839291169063dd93da4390602401600060405180830381865afa15801561263f573d6000803e3d6000fd5b505050506040513d6000823e601f3d908101601f1916820160405261266791908101906145a0565b6007548151604051635e8a791560e01b815260048101919091526001600160a01b038681166024830152929350911690635e8a791590604401602060405180830381865afa1580156126bd573d6000803e3d6000fd5b505050506040513d601f19601f820116820180604052508101906126e19190613f33565b949350505050565b6001600160a01b0381166000908152600c602052604081209061270c82826134e2565b5060006001820181905560029091015550565b6001546040516329e40d4b60e01b815260048101919091526001600160a01b0382811660248301527f000000000000000000000000000000000000000000000000000000000000000016906329e40d4b90604401602060405180830381865afa158015612790573d6000803e3d6000fd5b505050506040513d601f19601f820116820180604052508101906127b49190613f33565b611f5b5760405163075fd2b160e01b815260040160405180910390fd5b604080518082019091526000808252602082015260006127f084612481565b6040805180820182526020808401516001600160a01b0316825291909201519082015291505092915050565b6001600160a01b0382166000908152600d60205260408120541561285b576001600160a01b0383166000908152600d6020526040812061285b916134e2565b815160005b8181101561298157600084828151811061287c5761287c613f50565b6020026020010151905060006006811115612899576128996138ad565b816040015160068111156128af576128af6138ad565b146128cd57604051635b2fe71d60e11b815260040160405180910390fd5b80516128d9908561426c565b6001600160a01b0387166000908152600d60209081526040822080546001818101835591845292829020855160059094020192835584820151805191840191825591820151939750849360028401906129329082614145565b505050604082015160038201805460ff19166001836006811115612958576129586138ad565b0217905550606082015160048201906129719082614145565b5050600190920191506128609050565b5081670de0b6b3a7640000146129aa576040516397a1f28d60e01b815260040160405180910390fd5b60008460026005546040516020016129c493929190614666565b60408051601f19818403018152908290526001546305d8703160e31b83529092506001600160a01b037f00000000000000000000000000000000000000000000000000000000000000001691632ec3818891612a2491859060040161445a565b600060405180830381600087803b158015612a3e57600080fd5b505af1158015612a52573d6000803e3d6000fd5b5050604080516001600160a01b0389168152602081018690527fb000fb1507aac2465ccb4f6bd1b601c7053279005e9e9932c41946b35c84949b935001905060405180910390a15050505050565b6000805460ff19168215159081179091556040519081527fd94c9bc4d43c51d8dc345a016d8e3d994432fac68e72832e4cf3a616bd8efae09060200160405180910390a150565b6000612af282612481565b6080015192915050565b612b0582613372565b805160048054602084015160408501511515620100000262ff0000199115156101000261ff00199515159590951661ffff19909316929092179390931792909216919091179055606081015160005b8151811015612c0857818181518110612b6f57612b6f613f50565b602002602001015160200151600b6000848481518110612b9157612b91613f50565b6020026020010151600001516001600160a01b03166001600160a01b0316815260200190815260200160002081905550818181518110612bd357612bd3613f50565b60200260200101516020015160056000828254612bf0919061426c565b90915550819050612c008161421a565b915050612b54565b507f00000000000000000000000000000000000000000000000000000000000000006001600160a01b0316635ab1bd536040518163ffffffff1660e01b8152600401602060405180830381865afa158015612c67573d6000803e3d6000fd5b505050506040513d601f19601f82011682018060405250810190612c8b9190614691565b600780546001600160a01b0319166001600160a01b03929092169190911790556107706001612aa0565b612cbd6133c1565b6001600160a01b0381163014612d0d5760405162461bcd60e51b8152602060048201526015602482015274554e415554484f52495a454420616c6c6f6361746560581b6044820152606401610a44565b600080600084806020019051810190612d2691906146ae565b6001600160a01b0383166000908152600a60209081526040808320600e9092529091205493965091945092509015612d71576040516305ca31d360e51b815260040160405180910390fd5b6002600482015460ff166006811115612d8c57612d8c6138ad565b14158015612dab57506002836006811115612da957612da96138ad565b145b15612f465760015460405163068bcd8d60e01b81526000916001600160a01b037f0000000000000000000000000000000000000000000000000000000000000000169163068bcd8d91612e049160040190815260200190565b600060405180830381865afa158015612e21573d6000803e3d6000fd5b505050506040513d6000823e601f3d908101601f19168201604052612e4991908101906146f1565b90508260086000828254612e5d919061426c565b90915550506002546008541115612e8757604051638e81b16f60e01b815260040160405180910390fd5b6001820183905560048201805460ff191660029081179091556040517f94593b52aa436dd31a63e313045c2eb23d43eb2d6f5b4d7797b4432e7b27749091612ed19188919061430a565b60405180910390a1846001600160a01b03167f463ffc2cf8b1596445c417388ed30e53eb67cf6668cb2be7f0addf8a78c8441b8360010154836040015189604051612f38939291909283526001600160a01b03918216602084015216604082015260600190565b60405180910390a250612fd1565b6003600482015460ff166006811115612f6157612f616138ad565b14158015612f8057506003836006811115612f7e57612f7e6138ad565b145b15612fd15760048101805460ff191660039081179091556040517f94593b52aa436dd31a63e313045c2eb23d43eb2d6f5b4d7797b4432e7b27749091612fc89187919061430a565b60405180910390a15b50505050611f306001600355565b6001600160a01b038083166000908152600e6020908152604080832054600d8352818420600a8452828520835160c081018552815460ff8116151582526101009004909716878601526001810154878501528351808501909452600281018054855260038201805494989397969395929460608701948401919061306290613ef9565b80601f016020809104026020016040519081016040528092919081815260200182805461308e90613ef9565b80156130db5780601f106130b0576101008083540402835291602001916130db565b820191906000526020600020905b8154815290600101906020018083116130be57829003601f168201915b505050919092525050508152600482015460209091019060ff166006811115613106576131066138ad565b6006811115613117576131176138ad565b81526020016004820160019054906101000a900460ff16600681111561313f5761313f6138ad565b6006811115613150576131506138ad565b815250509050600082848154811061316a5761316a613f50565b90600052602060002090600502019050828054905084111561319f57604051632f1f68e160e11b815260040160405180910390fd5b6002600382015460ff1660068111156131ba576131ba6138ad565b146131d857604051635b2fe71d60e11b815260040160405180910390fd5b6000670de0b6b3a7640000826000015484604001516131f79190614233565b613201919061424a565b905060007f00000000000000000000000000000000000000000000000000000000000000006001600160a01b031663068bcd8d6001546040518263ffffffff1660e01b815260040161325591815260200190565b600060405180830381865afa158015613272573d6000803e3d6000fd5b505050506040513d6000823e601f3d908101601f1916820160405261329a91908101906146f1565b905081600260008282546132ae91906147a4565b925050819055506132c881604001518560200151846133eb565b6001600160a01b0388166000908152600e602052604081208054916132ec8361421a565b9091555050602080850151604080516001600160a01b039283168152928301859052898216908301528916907fb5b51454adfa840bd593658325a60a50b0216f12eb5d2937efe6cea935675b7d9060600160405180910390a25050505050505050565b60005460ff16611fef5760405163cfe7975b60e01b815260040160405180910390fd5b61337a611fa6565b6001541561339b5760405163439a74c960e01b815260040160405180910390fd5b806000036133bc57604051637fcce2a960e01b815260040160405180910390fd5b600155565b6002600354036133e457604051633ee5aeb560e01b815260040160405180910390fd5b6002600355565b73eeeeeeeeeeeeeeeeeeeeeeeeeeeeeeeeeeeeeeed196001600160a01b0384160161341a576107708282613425565b610770838383613441565b60003860003884865af1611f305763b12d13eb6000526004601cfd5b816014528060345263a9059cbb60601b60005260206000604460106000875af13d15600160005114171661347d576390b8ec186000526004601cfd5b6000603452505050565b6040518060c0016040528060001515815260200160006001600160a01b03168152602001600081526020016134cf604051806040016040528060008152602001606081525090565b8152602001600081526020016000905290565b5080546000825560050290600052602060002090810190611f5b91905b808211156135465760008082556001820181815581613521600285018261354a565b505060038201805460ff1916905561353d60048301600061354a565b506005016134ff565b5090565b50805461355690613ef9565b6000825580601f10613566575050565b601f016020900490600052602060002090810190611f5b91905b808211156135465760008155600101613580565b634e487b7160e01b600052604160045260246000fd5b604051608081016001600160401b03811182821017156135cc576135cc613594565b60405290565b604080519081016001600160401b03811182821017156135cc576135cc613594565b60405160c081016001600160401b03811182821017156135cc576135cc613594565b604051601f8201601f191681016001600160401b038111828210171561363e5761363e613594565b604052919050565b60006001600160401b0382111561365f5761365f613594565b5060051b60200190565b6001600160a01b0381168114611f5b57600080fd5b600082601f83011261368f57600080fd5b813560206136a461369f83613646565b613616565b82815260059290921b840181019181810190868411156136c357600080fd5b8286015b848110156136e75780356136da81613669565b83529183019183016136c7565b509695505050505050565b60006001600160401b0382111561370b5761370b613594565b50601f01601f191660200190565b600082601f83011261372a57600080fd5b813561373861369f826136f2565b81815284602083860101111561374d57600080fd5b816020850160208301376000918101602001919091529392505050565b60008060006060848603121561377f57600080fd5b83356001600160401b038082111561379657600080fd5b6137a28783880161367e565b945060208601359150808211156137b857600080fd5b506137c586828701613719565b92505060408401356137d681613669565b809150509250925092565b600080604083850312156137f457600080fd5b82356137ff81613669565b9150602083013561380f81613669565b809150509250929050565b60006020828403121561382c57600080fd5b813561383781613669565b9392505050565b60005b83811015613859578181015183820152602001613841565b50506000910152565b6000815180845261387a81602086016020860161383e565b601f01601f19169290920160200192915050565b8051825260006020820151604060208501526126e16040850182613862565b634e487b7160e01b600052602160045260246000fd5b600781106138e157634e487b7160e01b600052602160045260246000fd5b9052565b60006020808301818452808551808352604092508286019150828160051b87010184880160005b8381101561397c57603f19898403018552815160808151855288820151818a87015261393a8287018261388e565b9150508782015161394d898701826138c3565b50606080830151925085820381870152506139688183613862565b96890196945050509086019060010161390c565b509098975050505050505050565b6000806040838503121561399d57600080fd5b50508035926020909101359150565b600080604083850312156139bf57600080fd5b82356001600160401b038111156139d557600080fd5b6139e185828601613719565b925050602083013561380f81613669565b600080600060608486031215613a0757600080fd5b8335613a1281613669565b92506020840135915060408401356001600160401b03811115613a3457600080fd5b8401604081870312156137d657600080fd5b600060208284031215613a5857600080fd5b5035919050565b6020815281511515602082015260018060a01b036020830151166040820152604082015160608201526000606083015160c06080840152613aa360e084018261388e565b90506080840151613ab760a08501826138c3565b5060a0840151613aca60c08501826138c3565b509392505050565b60078110611f5b57600080fd5b8035613aea81613ad2565b919050565b60008060408385031215613b0257600080fd5b613b0c8335613669565b823591506001600160401b038060208501351115613b2957600080fd5b6020840135840185601f820112613b3f57600080fd5b613b4c61369f8235613646565b81358082526020808301929160051b840101881015613b6a57600080fd5b602083015b6020843560051b850101811015613c6b578481351115613b8e57600080fd5b80358401601f196080828c0382011215613ba757600080fd5b613baf6135aa565b602083013581528760408401351115613bc757600080fd5b60408301358301604083828f03011215613be057600080fd5b613be86135d2565b9250602081013583528860408201351115613c0257600080fd5b613c158d60206040840135840101613719565b602084015250816020820152613c2d60608401613adf565b60408201528760808401351115613c4357600080fd5b613c568c60206080860135860101613719565b60608201528552505060209283019201613b6f565b50809450505050509250929050565b600080600060608486031215613c8f57600080fd5b8335613c9a81613669565b92506020840135915060408401356137d681613ad2565b60008060408385031215613cc457600080fd5b82356001600160401b0380821115613cdb57600080fd5b613ce78683870161367e565b9350602091508185013581811115613cfe57600080fd5b8501601f81018713613d0f57600080fd5b8035613d1d61369f82613646565b81815260059190911b82018401908481019089831115613d3c57600080fd5b8584015b83811015613d7457803586811115613d585760008081fd5b613d668c8983890101613719565b845250918601918601613d40565b508096505050505050509250929050565b602080825282518282018190526000919060409081850190868401855b82811015613dd057815180516001600160a01b03168552860151868501529284019290850190600101613da2565b5091979650505050505050565b60008060408385031215613df057600080fd5b8235613dfb81613669565b9150602083013561380f81613ad2565b8015158114611f5b57600080fd5b600060208284031215613e2b57600080fd5b813561383781613e0b565b60008060408385031215613e4957600080fd5b8235613e5481613669565b946020939093013593505050565b848152608060208201526000613e7b608083018661388e565b613e8860408401866138c3565b8281036060840152613e9a8185613862565b979650505050505050565b602081016107a082846138c3565b60008060408385031215613ec657600080fd5b8235915060208301356001600160401b03811115613ee357600080fd5b613eef85828601613719565b9150509250929050565b600181811c90821680613f0d57607f821691505b602082108103613f2d57634e487b7160e01b600052602260045260246000fd5b50919050565b600060208284031215613f4557600080fd5b815161383781613e0b565b634e487b7160e01b600052603260045260246000fd5b601f82111561077057600081815260208120601f850160051c81016020861015613f8d5750805b601f850160051c820191505b81811015613fac57828155600101613f99565b505050505050565b813581556001808201602080850135601e19863603018112613fd557600080fd5b850180356001600160401b03811115613fed57600080fd5b8036038383011315613ffe57600080fd5b6140128161400c8654613ef9565b86613f66565b6000601f821160018114614048576000831561403057508382018501355b600019600385901b1c1916600184901b1786556140a1565b600086815260209020601f19841690835b8281101561407857868501880135825593870193908901908701614059565b50848210156140975760001960f88660031b161c198785880101351681555b50508683881b0186555b505050505050505050565b60018060a01b0384168152826020820152606060408201528135606082015260006020830135601e198436030181126140e457600080fd5b83016020810190356001600160401b0381111561410057600080fd5b80360382131561410f57600080fd5b604060808501528060a0850152808260c0860137600060c0828601015260c0601f19601f83011685010192505050949350505050565b81516001600160401b0381111561415e5761415e613594565b6141728161416c8454613ef9565b84613f66565b602080601f8311600181146141a7576000841561418f5750858301515b600019600386901b1c1916600185901b178555613fac565b600085815260208120601f198616915b828110156141d6578886015182559484019460019091019084016141b7565b50858210156141f45787850151600019600388901b60f8161c191681555b5050505050600190811b01905550565b634e487b7160e01b600052601160045260246000fd5b60006001820161422c5761422c614204565b5060010190565b80820281158282048414176107a0576107a0614204565b60008261426757634e487b7160e01b600052601260045260246000fd5b500490565b808201808211156107a0576107a0614204565b6000606082018483526020606081850152818551808452608086019150828701935060005b818110156142c95784516001600160a01b0316835293830193918301916001016142a4565b505084810360408601526000815281810193505050509392505050565b6001600160a01b038416815260208101839052606081016126e160408301846138c3565b6001600160a01b03831681526040810161383760208301846138c3565b8051613aea81613669565b6000602080838503121561434557600080fd5b82516001600160401b038082111561435c57600080fd5b908401906080828703121561437057600080fd5b6143786135aa565b825161438381613e0b565b81528284015161439281613e0b565b818501526040838101516143a581613e0b565b828201526060840151838111156143bb57600080fd5b80850194505087601f8501126143d057600080fd5b835192506143e061369f84613646565b83815260069390931b840185019285810190898511156143ff57600080fd5b948601945b848610156144485782868b03121561441c5760008081fd5b6144246135d2565b865161442f81613669565b8152868801518882015282529482019490860190614404565b60608401525090979650505050505050565b8281526040602082015260006126e16040830184613862565b600082601f83011261448457600080fd5b815161449261369f826136f2565b8181528460208386010111156144a757600080fd5b6126e182602083016020870161383e565b6000604082840312156144ca57600080fd5b6144d26135d2565b90508151815260208201516001600160401b038111156144f157600080fd5b6144fd84828501614473565b60208301525092915050565b6000806000806080858703121561451f57600080fd5b845161452a81613669565b602086015190945061453b81613669565b6040860151606087015191945092506001600160401b0381111561455e57600080fd5b61456a878288016144b8565b91505092959194509250565b6040815260006145896040830185613862565b905060018060a01b03831660208301529392505050565b6000602082840312156145b257600080fd5b81516001600160401b03808211156145c957600080fd5b9083019060c082860312156145dd57600080fd5b6145e56135f4565b825181526020830151602082015260408301518281111561460557600080fd5b61461187828601614473565b60408301525060608301518281111561462957600080fd5b614635878286016144b8565b60608301525061464760808401614327565b608082015261465860a08401614327565b60a082015295945050505050565b6001600160a01b03841681526060810161468360208301856138c3565b826040830152949350505050565b6000602082840312156146a357600080fd5b815161383781613669565b6000806000606084860312156146c357600080fd5b83516146ce81613669565b60208501519093506146df81613ad2565b80925050604084015190509250925092565b60006020828403121561470357600080fd5b81516001600160401b038082111561471a57600080fd5b9083019060c0828603121561472e57600080fd5b6147366135f4565b82518152602083015161474881613669565b6020820152604083015161475b81613669565b604082015260608301518281111561477257600080fd5b61477e878286016144b8565b6060830152506080830151608082015260a083015160a082015280935050505092915050565b818103818111156107a0576107a061420456fea26469706673582212207e85a02a2a8fd1295a6794732931fb5db041b4d635a304a9a08628119485ae8064736f6c63430008140033",
  "linkReferences": {},
  "deployedLinkReferences": {}
}