{
  "_format": "hh-sol-artifact-1",
  "contractName": "ExecutorSupplierVotingStrategy",
  "sourceName": "contracts/ExecutorSupplierVotingStrategy.sol",
  "abi": [
    {
      "inputs": [
        {
          "internalType": "address",
          "name": "_allo",
          "type": "address"
        },
        {
          "internalType": "string",
          "name": "_name",
          "type": "string"
        }
      ],
      "stateMutability": "nonpayable",
      "type": "constructor"
    },
    {
      "inputs": [],
      "name": "ALLOCATION_ACTIVE",
      "type": "error"
    },
    {
      "inputs": [],
      "name": "ALLOCATION_EXCEEDS_POOL_AMOUNT",
      "type": "error"
    },
    {
      "inputs": [],
      "name": "ALLOCATION_NOT_ACTIVE",
      "type": "error"
    },
    {
      "inputs": [],
      "name": "ALLOCATION_NOT_ENDED",
      "type": "error"
    },
    {
      "inputs": [],
      "name": "ALREADY_INITIALIZED",
      "type": "error"
    },
    {
      "inputs": [],
      "name": "ALREADY_REVIEWED",
      "type": "error"
    },
    {
      "inputs": [],
      "name": "AMOUNT_MISMATCH",
      "type": "error"
    },
    {
      "inputs": [],
      "name": "ANCHOR_ERROR",
      "type": "error"
    },
    {
      "inputs": [],
      "name": "ARRAY_MISMATCH",
      "type": "error"
    },
    {
      "inputs": [],
      "name": "EXECUTOR_HAT_WEARING_REQUIRED",
      "type": "error"
    },
    {
      "inputs": [],
      "name": "INVALID",
      "type": "error"
    },
    {
      "inputs": [],
      "name": "INVALID_ADDRESS",
      "type": "error"
    },
    {
      "inputs": [],
      "name": "INVALID_FEE",
      "type": "error"
    },
    {
      "inputs": [],
      "name": "INVALID_METADATA",
      "type": "error"
    },
    {
      "inputs": [],
      "name": "INVALID_MILESTONE",
      "type": "error"
    },
    {
      "inputs": [],
      "name": "INVALID_MILESTONES_PERCENTAGE",
      "type": "error"
    },
    {
      "inputs": [],
      "name": "INVALID_MILESTONE_STATUS",
      "type": "error"
    },
    {
      "inputs": [],
      "name": "INVALID_REGISTRATION",
      "type": "error"
    },
    {
      "inputs": [],
      "name": "INVALID_STATUS",
      "type": "error"
    },
    {
      "inputs": [],
      "name": "IS_APPROVED_STRATEGY",
      "type": "error"
    },
    {
      "inputs": [],
      "name": "MILESTONES_ALREADY_SET",
      "type": "error"
    },
    {
      "inputs": [],
      "name": "MILESTONE_ALREADY_ACCEPTED",
      "type": "error"
    },
    {
      "inputs": [],
      "name": "MISMATCH",
      "type": "error"
    },
    {
      "inputs": [],
      "name": "NONCE_NOT_AVAILABLE",
      "type": "error"
    },
    {
      "inputs": [],
      "name": "NOT_APPROVED_STRATEGY",
      "type": "error"
    },
    {
      "inputs": [],
      "name": "NOT_ENOUGH_FUNDS",
      "type": "error"
    },
    {
      "inputs": [],
      "name": "NOT_IMPLEMENTED",
      "type": "error"
    },
    {
      "inputs": [],
      "name": "NOT_INITIALIZED",
      "type": "error"
    },
    {
      "inputs": [],
      "name": "NOT_PENDING_OWNER",
      "type": "error"
    },
    {
      "inputs": [],
      "name": "POOL_ACTIVE",
      "type": "error"
    },
    {
      "inputs": [],
      "name": "POOL_INACTIVE",
      "type": "error"
    },
    {
      "inputs": [],
      "name": "RECIPIENT_ALREADY_ACCEPTED",
      "type": "error"
    },
    {
      "inputs": [
        {
          "internalType": "address",
          "name": "recipientId",
          "type": "address"
        }
      ],
      "name": "RECIPIENT_ERROR",
      "type": "error"
    },
    {
      "inputs": [],
      "name": "RECIPIENT_NOT_ACCEPTED",
      "type": "error"
    },
    {
      "inputs": [],
      "name": "REGISTRATION_NOT_ACTIVE",
      "type": "error"
    },
    {
      "inputs": [],
      "name": "ReentrancyGuardReentrantCall",
      "type": "error"
    },
    {
      "inputs": [],
      "name": "SUPPLIER_HAT_WEARING_REQUIRED",
      "type": "error"
    },
    {
      "inputs": [],
      "name": "SUPPLY_IS_ALLOWED_ONLY_ONCE",
      "type": "error"
    },
    {
      "inputs": [],
      "name": "SUPPLY_NOT_FOUND",
      "type": "error"
    },
    {
      "inputs": [],
      "name": "UNAUTHORIZED",
      "type": "error"
    },
    {
      "inputs": [],
      "name": "ZERO_ADDRESS",
      "type": "error"
    },
    {
      "anonymous": false,
      "inputs": [
        {
          "indexed": true,
          "internalType": "address",
          "name": "recipientId",
          "type": "address"
        },
        {
          "indexed": false,
          "internalType": "uint256",
          "name": "amount",
          "type": "uint256"
        },
        {
          "indexed": false,
          "internalType": "address",
          "name": "token",
          "type": "address"
        },
        {
          "indexed": false,
          "internalType": "address",
          "name": "sender",
          "type": "address"
        }
      ],
      "name": "Allocated",
      "type": "event"
    },
    {
      "anonymous": false,
      "inputs": [
        {
          "indexed": true,
          "internalType": "address",
          "name": "recipientId",
          "type": "address"
        },
        {
          "indexed": false,
          "internalType": "address",
          "name": "recipientAddress",
          "type": "address"
        },
        {
          "indexed": false,
          "internalType": "uint256",
          "name": "amount",
          "type": "uint256"
        },
        {
          "indexed": false,
          "internalType": "address",
          "name": "sender",
          "type": "address"
        }
      ],
      "name": "Distributed",
      "type": "event"
    },
    {
      "anonymous": false,
      "inputs": [
        {
          "indexed": false,
          "internalType": "uint256",
          "name": "poolId",
          "type": "uint256"
        },
        {
          "indexed": false,
          "internalType": "bytes",
          "name": "data",
          "type": "bytes"
        }
      ],
      "name": "Initialized",
      "type": "event"
    },
    {
      "anonymous": false,
      "inputs": [
        {
          "indexed": false,
          "internalType": "address",
          "name": "recipientId",
          "type": "address"
        },
        {
          "indexed": false,
          "internalType": "uint256",
          "name": "milestoneId",
          "type": "uint256"
        },
        {
          "indexed": false,
          "internalType": "enum IStrategy.Status",
          "name": "status",
          "type": "uint8"
        }
      ],
      "name": "MilestoneStatusChanged",
      "type": "event"
    },
    {
      "anonymous": false,
      "inputs": [
        {
          "indexed": false,
          "internalType": "address",
          "name": "recipientId",
          "type": "address"
        },
        {
          "indexed": false,
          "internalType": "uint256",
          "name": "milestoneId",
          "type": "uint256"
        },
        {
          "components": [
            {
              "internalType": "uint256",
              "name": "protocol",
              "type": "uint256"
            },
            {
              "internalType": "string",
              "name": "pointer",
              "type": "string"
            }
          ],
          "indexed": false,
          "internalType": "struct Metadata",
          "name": "metadata",
          "type": "tuple"
        }
      ],
      "name": "MilestoneSubmitted",
      "type": "event"
    },
    {
      "anonymous": false,
      "inputs": [
        {
          "indexed": false,
          "internalType": "address",
          "name": "recipientId",
          "type": "address"
        },
        {
          "indexed": false,
          "internalType": "uint256",
          "name": "milestonesLength",
          "type": "uint256"
        }
      ],
      "name": "MilestonesOffered",
      "type": "event"
    },
    {
      "anonymous": false,
      "inputs": [
        {
          "indexed": false,
          "internalType": "address",
          "name": "recipientId",
          "type": "address"
        },
        {
          "indexed": false,
          "internalType": "enum IStrategy.Status",
          "name": "status",
          "type": "uint8"
        }
      ],
      "name": "MilestonesReviewed",
      "type": "event"
    },
    {
      "anonymous": false,
      "inputs": [
        {
          "indexed": false,
          "internalType": "address",
          "name": "recipientId",
          "type": "address"
        },
        {
          "indexed": false,
          "internalType": "uint256",
          "name": "milestonesLength",
          "type": "uint256"
        }
      ],
      "name": "MilestonesSet",
      "type": "event"
    },
    {
      "anonymous": false,
      "inputs": [
        {
          "indexed": false,
          "internalType": "address",
          "name": "recipientId",
          "type": "address"
        }
      ],
      "name": "OfferedMilestonesAccepted",
      "type": "event"
    },
    {
      "anonymous": false,
      "inputs": [
        {
          "indexed": false,
          "internalType": "address",
          "name": "recipientId",
          "type": "address"
        }
      ],
      "name": "OfferedMilestonesRejected",
      "type": "event"
    },
    {
      "anonymous": false,
      "inputs": [
        {
          "indexed": false,
          "internalType": "bool",
          "name": "active",
          "type": "bool"
        }
      ],
      "name": "PoolActive",
      "type": "event"
    },
    {
      "anonymous": false,
      "inputs": [],
      "name": "ProjectRejectDeclined",
      "type": "event"
    },
    {
      "anonymous": false,
      "inputs": [],
      "name": "ProjectRejected",
      "type": "event"
    },
    {
      "anonymous": false,
      "inputs": [
        {
          "indexed": false,
          "internalType": "address",
          "name": "recipientId",
          "type": "address"
        },
        {
          "indexed": false,
          "internalType": "enum IStrategy.Status",
          "name": "status",
          "type": "uint8"
        }
      ],
      "name": "RecipientStatusChanged",
      "type": "event"
    },
    {
      "anonymous": false,
      "inputs": [
        {
          "indexed": true,
          "internalType": "address",
          "name": "recipientId",
          "type": "address"
        },
        {
          "indexed": false,
          "internalType": "bytes",
          "name": "data",
          "type": "bytes"
        },
        {
          "indexed": false,
          "internalType": "address",
          "name": "sender",
          "type": "address"
        }
      ],
      "name": "Registered",
      "type": "event"
    },
    {
      "anonymous": false,
      "inputs": [
        {
          "indexed": false,
          "internalType": "address",
          "name": "recipientId",
          "type": "address"
        },
        {
          "indexed": false,
          "internalType": "uint256",
          "name": "milestoneId",
          "type": "uint256"
        },
        {
          "indexed": false,
          "internalType": "enum IStrategy.Status",
          "name": "status",
          "type": "uint8"
        }
      ],
      "name": "SubmittedvMilestoneReviewed",
      "type": "event"
    },
    {
      "inputs": [],
      "name": "NATIVE",
      "outputs": [
        {
          "internalType": "address",
          "name": "",
          "type": "address"
        }
      ],
      "stateMutability": "view",
      "type": "function"
    },
    {
      "inputs": [
        {
          "internalType": "bytes",
          "name": "_data",
          "type": "bytes"
        },
        {
          "internalType": "address",
          "name": "_sender",
          "type": "address"
        }
      ],
      "name": "allocate",
      "outputs": [],
      "stateMutability": "payable",
      "type": "function"
    },
    {
      "inputs": [],
      "name": "allocatedGrantAmount",
      "outputs": [
        {
          "internalType": "uint256",
          "name": "",
          "type": "uint256"
        }
      ],
      "stateMutability": "view",
      "type": "function"
    },
    {
      "inputs": [
        {
          "internalType": "address[]",
          "name": "_recipientIds",
          "type": "address[]"
        },
        {
          "internalType": "bytes",
          "name": "_data",
          "type": "bytes"
        },
        {
          "internalType": "address",
          "name": "_sender",
          "type": "address"
        }
      ],
      "name": "distribute",
      "outputs": [],
      "stateMutability": "nonpayable",
      "type": "function"
    },
    {
      "inputs": [],
      "name": "executorHat",
      "outputs": [
        {
          "internalType": "uint256",
          "name": "",
          "type": "uint256"
        }
      ],
      "stateMutability": "view",
      "type": "function"
    },
    {
      "inputs": [],
      "name": "getAllo",
      "outputs": [
        {
          "internalType": "contract IAllo",
          "name": "",
          "type": "address"
        }
      ],
      "stateMutability": "view",
      "type": "function"
    },
    {
      "inputs": [
        {
          "internalType": "address",
          "name": "_recipientId",
          "type": "address"
        },
        {
          "internalType": "uint256",
          "name": "_milestoneId",
          "type": "uint256"
        }
      ],
      "name": "getMilestoneStatus",
      "outputs": [
        {
          "internalType": "enum IStrategy.Status",
          "name": "",
          "type": "uint8"
        }
      ],
      "stateMutability": "view",
      "type": "function"
    },
    {
      "inputs": [
        {
          "internalType": "address",
          "name": "_recipientId",
          "type": "address"
        }
      ],
      "name": "getMilestones",
      "outputs": [
        {
          "components": [
            {
              "internalType": "uint256",
              "name": "amountPercentage",
              "type": "uint256"
            },
            {
              "components": [
                {
                  "internalType": "uint256",
                  "name": "protocol",
                  "type": "uint256"
                },
                {
                  "internalType": "string",
                  "name": "pointer",
                  "type": "string"
                }
              ],
              "internalType": "struct Metadata",
              "name": "metadata",
              "type": "tuple"
            },
            {
              "internalType": "enum IStrategy.Status",
              "name": "milestoneStatus",
              "type": "uint8"
            },
            {
              "internalType": "string",
              "name": "description",
              "type": "string"
            }
          ],
          "internalType": "struct ExecutorSupplierVotingStrategy.Milestone[]",
          "name": "",
          "type": "tuple[]"
        }
      ],
      "stateMutability": "view",
      "type": "function"
    },
    {
      "inputs": [
        {
          "internalType": "address",
          "name": "_recipientId",
          "type": "address"
        }
      ],
      "name": "getOffeeredMilestones",
      "outputs": [
        {
          "components": [
            {
              "internalType": "uint256",
              "name": "amountPercentage",
              "type": "uint256"
            },
            {
              "components": [
                {
                  "internalType": "uint256",
                  "name": "protocol",
                  "type": "uint256"
                },
                {
                  "internalType": "string",
                  "name": "pointer",
                  "type": "string"
                }
              ],
              "internalType": "struct Metadata",
              "name": "metadata",
              "type": "tuple"
            },
            {
              "internalType": "enum IStrategy.Status",
              "name": "milestoneStatus",
              "type": "uint8"
            },
            {
              "internalType": "string",
              "name": "description",
              "type": "string"
            }
          ],
          "internalType": "struct ExecutorSupplierVotingStrategy.Milestone[]",
          "name": "",
          "type": "tuple[]"
        }
      ],
      "stateMutability": "view",
      "type": "function"
    },
    {
      "inputs": [
        {
          "internalType": "address",
          "name": "_recipientId",
          "type": "address"
        }
      ],
      "name": "getOfferedMilestonesVotesAgainst",
      "outputs": [
        {
          "internalType": "uint256",
          "name": "",
          "type": "uint256"
        }
      ],
      "stateMutability": "view",
      "type": "function"
    },
    {
      "inputs": [
        {
          "internalType": "address",
          "name": "_recipientId",
          "type": "address"
        }
      ],
      "name": "getOfferedMilestonesVotesFor",
      "outputs": [
        {
          "internalType": "uint256",
          "name": "",
          "type": "uint256"
        }
      ],
      "stateMutability": "view",
      "type": "function"
    },
    {
      "inputs": [
        {
          "internalType": "address[]",
          "name": "_recipientIds",
          "type": "address[]"
        },
        {
          "internalType": "bytes[]",
          "name": "_data",
          "type": "bytes[]"
        }
      ],
      "name": "getPayouts",
      "outputs": [
        {
          "components": [
            {
              "internalType": "address",
              "name": "recipientAddress",
              "type": "address"
            },
            {
              "internalType": "uint256",
              "name": "amount",
              "type": "uint256"
            }
          ],
          "internalType": "struct IStrategy.PayoutSummary[]",
          "name": "",
          "type": "tuple[]"
        }
      ],
      "stateMutability": "view",
      "type": "function"
    },
    {
      "inputs": [],
      "name": "getPoolAmount",
      "outputs": [
        {
          "internalType": "uint256",
          "name": "",
          "type": "uint256"
        }
      ],
      "stateMutability": "view",
      "type": "function"
    },
    {
      "inputs": [],
      "name": "getPoolId",
      "outputs": [
        {
          "internalType": "uint256",
          "name": "",
          "type": "uint256"
        }
      ],
      "stateMutability": "view",
      "type": "function"
    },
    {
      "inputs": [
        {
          "internalType": "address",
          "name": "_recipientId",
          "type": "address"
        }
      ],
      "name": "getRecipient",
      "outputs": [
        {
          "components": [
            {
              "internalType": "bool",
              "name": "useRegistryAnchor",
              "type": "bool"
            },
            {
              "internalType": "address",
              "name": "recipientAddress",
              "type": "address"
            },
            {
              "internalType": "uint256",
              "name": "grantAmount",
              "type": "uint256"
            },
            {
              "components": [
                {
                  "internalType": "uint256",
                  "name": "protocol",
                  "type": "uint256"
                },
                {
                  "internalType": "string",
                  "name": "pointer",
                  "type": "string"
                }
              ],
              "internalType": "struct Metadata",
              "name": "metadata",
              "type": "tuple"
            },
            {
              "internalType": "enum IStrategy.Status",
              "name": "recipientStatus",
              "type": "uint8"
            },
            {
              "internalType": "enum IStrategy.Status",
              "name": "milestonesReviewStatus",
              "type": "uint8"
            }
          ],
          "internalType": "struct ExecutorSupplierVotingStrategy.Recipient",
          "name": "",
          "type": "tuple"
        }
      ],
      "stateMutability": "view",
      "type": "function"
    },
    {
      "inputs": [
        {
          "internalType": "address",
          "name": "_recipientId",
          "type": "address"
        }
      ],
      "name": "getRecipientStatus",
      "outputs": [
        {
          "internalType": "enum IStrategy.Status",
          "name": "",
          "type": "uint8"
        }
      ],
      "stateMutability": "view",
      "type": "function"
    },
    {
      "inputs": [],
      "name": "getRejectProjectVotesAgainst",
      "outputs": [
        {
          "internalType": "uint256",
          "name": "",
          "type": "uint256"
        }
      ],
      "stateMutability": "view",
      "type": "function"
    },
    {
      "inputs": [],
      "name": "getRejectProjectVotesFor",
      "outputs": [
        {
          "internalType": "uint256",
          "name": "",
          "type": "uint256"
        }
      ],
      "stateMutability": "view",
      "type": "function"
    },
    {
      "inputs": [],
      "name": "getStrategyId",
      "outputs": [
        {
          "internalType": "bytes32",
          "name": "",
          "type": "bytes32"
        }
      ],
      "stateMutability": "view",
      "type": "function"
    },
    {
      "inputs": [
        {
          "internalType": "uint256",
          "name": "_milestoneId",
          "type": "uint256"
        }
      ],
      "name": "getSubmittedMilestonesVotesAgainst",
      "outputs": [
        {
          "internalType": "uint256",
          "name": "",
          "type": "uint256"
        }
      ],
      "stateMutability": "view",
      "type": "function"
    },
    {
      "inputs": [
        {
          "internalType": "uint256",
          "name": "_milestoneId",
          "type": "uint256"
        }
      ],
      "name": "getSubmittedMilestonesVotesFor",
      "outputs": [
        {
          "internalType": "uint256",
          "name": "",
          "type": "uint256"
        }
      ],
      "stateMutability": "view",
      "type": "function"
    },
    {
      "inputs": [
        {
          "internalType": "address",
          "name": "_recipientId",
          "type": "address"
        },
        {
          "internalType": "address",
          "name": "_supplier",
          "type": "address"
        }
      ],
      "name": "getSupplierOfferedMilestonesVote",
      "outputs": [
        {
          "internalType": "uint256",
          "name": "",
          "type": "uint256"
        }
      ],
      "stateMutability": "view",
      "type": "function"
    },
    {
      "inputs": [
        {
          "internalType": "uint256",
          "name": "_milestoneId",
          "type": "uint256"
        },
        {
          "internalType": "address",
          "name": "_supplier",
          "type": "address"
        }
      ],
      "name": "getSupplierSubmittedMilestonesVote",
      "outputs": [
        {
          "internalType": "uint256",
          "name": "",
          "type": "uint256"
        }
      ],
      "stateMutability": "view",
      "type": "function"
    },
    {
      "inputs": [
        {
          "internalType": "address",
          "name": "_recipientId",
          "type": "address"
        }
      ],
      "name": "getUpcomingMilestone",
      "outputs": [
        {
          "internalType": "uint256",
          "name": "",
          "type": "uint256"
        }
      ],
      "stateMutability": "view",
      "type": "function"
    },
    {
      "inputs": [],
      "name": "hatsContract",
      "outputs": [
        {
          "internalType": "contract IHats",
          "name": "",
          "type": "address"
        }
      ],
      "stateMutability": "view",
      "type": "function"
    },
    {
      "inputs": [
        {
          "internalType": "uint256",
          "name": "_amount",
          "type": "uint256"
        }
      ],
      "name": "increasePoolAmount",
      "outputs": [],
      "stateMutability": "nonpayable",
      "type": "function"
    },
    {
      "inputs": [
        {
          "internalType": "uint256",
          "name": "_poolId",
          "type": "uint256"
        },
        {
          "internalType": "bytes",
          "name": "_data",
          "type": "bytes"
        }
      ],
      "name": "initialize",
      "outputs": [],
      "stateMutability": "nonpayable",
      "type": "function"
    },
    {
      "inputs": [],
      "name": "isPoolActive",
      "outputs": [
        {
          "internalType": "bool",
          "name": "",
          "type": "bool"
        }
      ],
      "stateMutability": "view",
      "type": "function"
    },
    {
      "inputs": [
        {
          "internalType": "address",
          "name": "_allocator",
          "type": "address"
        }
      ],
      "name": "isValidAllocator",
      "outputs": [
        {
          "internalType": "bool",
          "name": "",
          "type": "bool"
        }
      ],
      "stateMutability": "view",
      "type": "function"
    },
    {
      "inputs": [
        {
          "internalType": "address",
          "name": "",
          "type": "address"
        },
        {
          "internalType": "uint256",
          "name": "",
          "type": "uint256"
        }
      ],
      "name": "milestones",
      "outputs": [
        {
          "internalType": "uint256",
          "name": "amountPercentage",
          "type": "uint256"
        },
        {
          "components": [
            {
              "internalType": "uint256",
              "name": "protocol",
              "type": "uint256"
            },
            {
              "internalType": "string",
              "name": "pointer",
              "type": "string"
            }
          ],
          "internalType": "struct Metadata",
          "name": "metadata",
          "type": "tuple"
        },
        {
          "internalType": "enum IStrategy.Status",
          "name": "milestoneStatus",
          "type": "uint8"
        },
        {
          "internalType": "string",
          "name": "description",
          "type": "string"
        }
      ],
      "stateMutability": "view",
      "type": "function"
    },
    {
      "inputs": [
        {
          "internalType": "address",
          "name": "_recipientId",
          "type": "address"
        },
        {
          "components": [
            {
              "internalType": "uint256",
              "name": "amountPercentage",
              "type": "uint256"
            },
            {
              "components": [
                {
                  "internalType": "uint256",
                  "name": "protocol",
                  "type": "uint256"
                },
                {
                  "internalType": "string",
                  "name": "pointer",
                  "type": "string"
                }
              ],
              "internalType": "struct Metadata",
              "name": "metadata",
              "type": "tuple"
            },
            {
              "internalType": "enum IStrategy.Status",
              "name": "milestoneStatus",
              "type": "uint8"
            },
            {
              "internalType": "string",
              "name": "description",
              "type": "string"
            }
          ],
          "internalType": "struct ExecutorSupplierVotingStrategy.Milestone[]",
          "name": "_milestones",
          "type": "tuple[]"
        }
      ],
      "name": "offerMilestones",
      "outputs": [],
      "stateMutability": "nonpayable",
      "type": "function"
    },
    {
      "inputs": [
        {
          "internalType": "bytes",
          "name": "_data",
          "type": "bytes"
        },
        {
          "internalType": "address",
          "name": "_sender",
          "type": "address"
        }
      ],
      "name": "registerRecipient",
      "outputs": [
        {
          "internalType": "address",
          "name": "recipientId",
          "type": "address"
        }
      ],
      "stateMutability": "payable",
      "type": "function"
    },
    {
      "inputs": [
        {
          "internalType": "enum IStrategy.Status",
          "name": "_status",
          "type": "uint8"
        }
      ],
      "name": "rejectProject",
      "outputs": [],
      "stateMutability": "nonpayable",
      "type": "function"
    },
    {
      "inputs": [
        {
          "internalType": "address",
          "name": "_recipientId",
          "type": "address"
        },
        {
          "internalType": "enum IStrategy.Status",
          "name": "_status",
          "type": "uint8"
        }
      ],
      "name": "reviewOfferedtMilestones",
      "outputs": [],
      "stateMutability": "nonpayable",
      "type": "function"
    },
    {
      "inputs": [
        {
          "internalType": "address",
          "name": "_recipientId",
          "type": "address"
        },
        {
          "internalType": "uint256",
          "name": "_milestoneId",
          "type": "uint256"
        },
        {
          "internalType": "enum IStrategy.Status",
          "name": "_status",
          "type": "uint8"
        }
      ],
      "name": "reviewSubmitedMilestone",
      "outputs": [],
      "stateMutability": "nonpayable",
      "type": "function"
    },
    {
      "inputs": [
        {
          "internalType": "uint256",
          "name": "_newPercentage",
          "type": "uint256"
        },
        {
          "internalType": "bytes32",
          "name": "_profileId",
          "type": "bytes32"
        }
      ],
      "name": "setThresholdPercentage",
      "outputs": [],
      "stateMutability": "nonpayable",
      "type": "function"
    },
    {
      "inputs": [],
      "name": "state",
      "outputs": [
        {
          "internalType": "enum ExecutorSupplierVotingStrategy.StrategyState",
          "name": "",
          "type": "uint8"
        }
      ],
      "stateMutability": "view",
      "type": "function"
    },
    {
      "inputs": [
        {
          "internalType": "address",
          "name": "_recipientId",
          "type": "address"
        },
        {
          "internalType": "uint256",
          "name": "_milestoneId",
          "type": "uint256"
        },
        {
          "components": [
            {
              "internalType": "uint256",
              "name": "protocol",
              "type": "uint256"
            },
            {
              "internalType": "string",
              "name": "pointer",
              "type": "string"
            }
          ],
          "internalType": "struct Metadata",
          "name": "_metadata",
          "type": "tuple"
        }
      ],
      "name": "submitMilestone",
      "outputs": [],
      "stateMutability": "nonpayable",
      "type": "function"
    },
    {
      "inputs": [
        {
          "internalType": "uint256",
          "name": "",
          "type": "uint256"
        }
      ],
      "name": "submittedvMilestones",
      "outputs": [
        {
          "internalType": "uint256",
          "name": "votesFor",
          "type": "uint256"
        },
        {
          "internalType": "uint256",
          "name": "votesAgainst",
          "type": "uint256"
        }
      ],
      "stateMutability": "view",
      "type": "function"
    },
    {
      "inputs": [],
      "name": "supplierHat",
      "outputs": [
        {
          "internalType": "uint256",
          "name": "",
          "type": "uint256"
        }
      ],
      "stateMutability": "view",
      "type": "function"
    },
    {
      "inputs": [],
      "name": "thresholdPercentage",
      "outputs": [
        {
          "internalType": "uint256",
          "name": "",
          "type": "uint256"
        }
      ],
      "stateMutability": "view",
      "type": "function"
    },
    {
      "inputs": [],
      "name": "totalSupply",
      "outputs": [
        {
          "internalType": "uint256",
          "name": "",
          "type": "uint256"
        }
      ],
      "stateMutability": "view",
      "type": "function"
    },
    {
      "inputs": [
        {
          "internalType": "address",
          "name": "",
          "type": "address"
        }
      ],
      "name": "upcomingMilestone",
      "outputs": [
        {
          "internalType": "uint256",
          "name": "",
          "type": "uint256"
        }
      ],
      "stateMutability": "view",
      "type": "function"
    },
    {
      "stateMutability": "payable",
      "type": "receive"
    }
  ],
  "bytecode": "0x60c06040523480156200001157600080fd5b50604051620052b5380380620052b58339810160408190526200003491620000bf565b6001600160a01b03821660805260405182908290620000589082906020016200019a565b60408051601f19818403018152919052805160209091012060a0525050600160035550620001cf9050565b634e487b7160e01b600052604160045260246000fd5b60005b83811015620000b65781810151838201526020016200009c565b50506000910152565b60008060408385031215620000d357600080fd5b82516001600160a01b0381168114620000eb57600080fd5b60208401519092506001600160401b03808211156200010957600080fd5b818501915085601f8301126200011e57600080fd5b81518181111562000133576200013362000083565b604051601f8201601f19908116603f011681019083821181831017156200015e576200015e62000083565b816040528281528860208487010111156200017857600080fd5b6200018b83602083016020880162000099565b80955050505050509250929050565b6020815260008251806020840152620001bb81604085016020870162000099565b601f01601f19169190910160400192915050565b60805160a05161508162000234600039600061047701526000818161029d015281816118a00152818161269e01528181612a1501528181612de901528181612f2e0152818161322d01528181613443015281816136170152613a5101526150816000f3fe6080604052600436106102605760003560e01c806397e39fef11610144578063df868ed3116100b6578063eb11af931161007a578063eb11af93146107f0578063edd146cc1461081d578063ee1203001461083d578063ef2920fc1461086d578063f5b0dfb714610880578063f83067e7146108a057600080fd5b8063df868ed314610746578063e1c2cf651461075e578063e2372b5814610774578063e477b6bd146107a1578063e8eeb806146107da57600080fd5b8063b2b878d011610108578063b2b878d01461063c578063b3eae7ab14610669578063c19d93fb14610689578063c1aaf44a146106b0578063c7a892bf146106dd578063cb2415fb1461070d57600080fd5b806397e39fef1461059f5780639ffaa875146105bf578063a0cf0aea146105df578063a958f25514610607578063a96552101461062757600080fd5b806338fff2d0116101dd5780634d31d087116101a15780634d31d087146104b05780634ed2859e146104e05780635b10b597146104f6578063605e1c661461050b57806362812a391461055257806378f0184d1461057f57600080fd5b806338fff2d0146103ea5780633bf3577d146103ff578063404e73e21461041f57806342fda9c7146104685780634ab4ba421461049b57600080fd5b80632a835b4b116102245780632a835b4b1461034b5780632bbe0cae1461036b5780632ff0e6c41461037e57806336592c0e146103b457806336c466d3146103d457600080fd5b80630a6f0ee91461026c57806315cc481e1461028e57806318160ddd146102da578063197ea814146102fe57806322a4e42d1461031e57600080fd5b3661026757005b600080fd5b34801561027857600080fd5b5061028c610287366004613fec565b6108c0565b005b34801561029a57600080fd5b507f00000000000000000000000000000000000000000000000000000000000000005b6040516001600160a01b0390911681526020015b60405180910390f35b3480156102e657600080fd5b506102f060075481565b6040519081526020016102d1565b34801561030a57600080fd5b506102f0610319366004614063565b6108e0565b34801561032a57600080fd5b5061033e61033936600461409c565b610911565b6040516102d19190614159565b34801561035757600080fd5b5061028c6103663660046141fe565b610b05565b6102bd610379366004614220565b610c60565b34801561038a57600080fd5b506102f061039936600461409c565b6001600160a01b031660009081526015602052604090205490565b3480156103c057600080fd5b5061033e6103cf36600461409c565b610c83565b3480156103e057600080fd5b506102f060065481565b3480156103f657600080fd5b506001546102f0565b34801561040b57600080fd5b5061028c61041a366004614266565b610e6c565b34801561042b57600080fd5b5061045361043a3660046142ba565b6016602052600090815260409020805460019091015482565b604080519283526020830191909152016102d1565b34801561047457600080fd5b507f00000000000000000000000000000000000000000000000000000000000000006102f0565b3480156104a757600080fd5b506002546102f0565b3480156104bc57600080fd5b506104d06104cb36600461409c565b6111c0565b60405190151581526020016102d1565b3480156104ec57600080fd5b506102f060085481565b34801561050257600080fd5b506011546102f0565b34801561051757600080fd5b506102f06105263660046142d3565b60008281526016602090815260408083206001600160a01b038516845260020190915290205492915050565b34801561055e57600080fd5b5061057261056d36600461409c565b6111cb565b6040516102d191906142f8565b34801561058b57600080fd5b5061028c61059a366004614388565b6111dc565b3480156105ab57600080fd5b50600b546102bd906001600160a01b031681565b3480156105cb57600080fd5b5061028c6105da366004614513565b61146c565b3480156105eb57600080fd5b506102bd73eeeeeeeeeeeeeeeeeeeeeeeeeeeeeeeeeeeeeeee81565b34801561061357600080fd5b5061028c61062236600461454a565b611ad5565b34801561063357600080fd5b506012546102f0565b34801561064857600080fd5b5061065c610657366004614567565b611d87565b6040516102d1919061463b565b34801561067557600080fd5b5061028c610684366004614693565b611e85565b34801561069557600080fd5b506004546106a39060ff1681565b6040516102d191906146c1565b3480156106bc57600080fd5b506102f06106cb3660046142ba565b60009081526016602052604090205490565b3480156106e957600080fd5b506106fd6106f83660046146db565b612416565b6040516102d19493929190614707565b34801561071957600080fd5b506102f061072836600461409c565b6001600160a01b031660009081526010602052604090206002015490565b34801561075257600080fd5b5060005460ff166104d0565b34801561076a57600080fd5b506102f060055481565b34801561078057600080fd5b506102f061078f36600461409c565b60156020526000908152604090205481565b3480156107ad57600080fd5b506102f06107bc36600461409c565b6001600160a01b031660009081526010602052604090206001015490565b3480156107e657600080fd5b506102f0600a5481565b3480156107fc57600080fd5b5061081061080b36600461409c565b612598565b6040516102d1919061474a565b34801561082957600080fd5b5061028c610838366004614758565b6125a3565b34801561084957600080fd5b506102f06108583660046142ba565b60009081526016602052604090206001015490565b61028c61087b366004614220565b612603565b34801561088c57600080fd5b5061028c61089b3660046142ba565b612621565b3480156108ac57600080fd5b506108106108bb3660046146db565b61264b565b6108c8612693565b6108d06126de565b6108db838383612701565b505050565b6001600160a01b03808316600090815260106020908152604080832093851683526003909301905220545b92915050565b6001600160a01b0381166000908152601460209081526040808320805482518185028101850190935280835260609492939192909184015b82821015610afa57838290600052602060002090600502016040518060800160405290816000820154815260200160018201604051806040016040529081600082015481526020016001820180546109a09061479e565b80601f01602080910402602001604051908101604052809291908181526020018280546109cc9061479e565b8015610a195780601f106109ee57610100808354040283529160200191610a19565b820191906000526020600020905b8154815290600101906020018083116109fc57829003601f168201915b505050919092525050508152600382015460209091019060ff166006811115610a4457610a4461412f565b6006811115610a5557610a5561412f565b8152602001600482018054610a699061479e565b80601f0160208091040260200160405190810160405280929190818152602001828054610a959061479e565b8015610ae25780601f10610ab757610100808354040283529160200191610ae2565b820191906000526020600020905b815481529060010190602001808311610ac557829003601f168201915b50505050508152505081526020019060010190610949565b505050509050919050565b600954604051630e6e1ae360e21b8152600481018390523360248201526001600160a01b03909116906339b86b8c90604401602060405180830381865afa158015610b54573d6000803e3d6000fd5b505050506040513d601f19601f82011682018060405250810190610b7891906147d8565b610bb85760405162461bcd60e51b815260206004820152600c60248201526b15539055551213d49256915160a21b60448201526064015b60405180910390fd5b60008211610c145760405162461bcd60e51b8152602060048201526024808201527f50657263656e74616765206d7573742062652067726561746572207468616e206044820152637a65726f60e01b6064820152608401610baf565b6064821115610c5a5760405162461bcd60e51b8152602060048201526012602482015271496e76616c69642070657263656e7461676560701b6044820152606401610baf565b50600855565b6000610c6a612693565b610c726126de565b610c7c8383612798565b905061090b565b6001600160a01b0381166000908152601060209081526040808320805482518185028101850190935280835260609492939192909184015b82821015610afa5783829060005260206000209060050201604051806080016040529081600082015481526020016001820160405180604001604052908160008201548152602001600182018054610d129061479e565b80601f0160208091040260200160405190810160405280929190818152602001828054610d3e9061479e565b8015610d8b5780601f10610d6057610100808354040283529160200191610d8b565b820191906000526020600020905b815481529060010190602001808311610d6e57829003601f168201915b505050919092525050508152600382015460209091019060ff166006811115610db657610db661412f565b6006811115610dc757610dc761412f565b8152602001600482018054610ddb9061479e565b80601f0160208091040260200160405190810160405280929190818152602001828054610e079061479e565b8015610e545780601f10610e2957610100808354040283529160200191610e54565b820191906000526020600020905b815481529060010190602001808311610e3757829003601f168201915b50505050508152505081526020019060010190610cbb565b600b546006546040516321a9204d60e11b815233600482015260248101919091526001600160a01b0390911690634352409a90604401602060405180830381865afa158015610ebf573d6000803e3d6000fd5b505050506040513d601f19601f82011682018060405250810190610ee391906147d8565b610f005760405163088d893560e11b815260040160405180910390fd5b6001600160a01b0383163314610f295760405163075fd2b160e01b815260040160405180910390fd5b6001600160a01b038084166000908152600e60209081526040808320815160c081018352815460ff8116151582526101009004909516858401526001810154858301528151808301909252600281018054835260038201805495969592946060870194939084019190610f9b9061479e565b80601f0160208091040260200160405190810160405280929190818152602001828054610fc79061479e565b80156110145780601f10610fe957610100808354040283529160200191611014565b820191906000526020600020905b815481529060010190602001808311610ff757829003601f168201915b505050919092525050508152600482015460209091019060ff16600681111561103f5761103f61412f565b60068111156110505761105061412f565b81526020016004820160019054906101000a900460ff1660068111156110785761107861412f565b60068111156110895761108961412f565b90525090506002816080015160068111156110a6576110a661412f565b146110c45760405163392c16fb60e21b815260040160405180910390fd5b6001600160a01b0384166000908152601460205260409020805484106110fd57604051632f1f68e160e11b815260040160405180910390fd5b6000818581548110611111576111116147fa565b6000918252602090912060059091020190506002600382015460ff16600681111561113e5761113e61412f565b0361115c57604051637f46ed2760e11b815260040160405180910390fd5b836001820161116b828261485e565b505060038101805460ff191660011790556040517f8673cfb5a2cbad812463bdfd7c85511f29c804579a86d318889ab92515539961906111b090889088908890614956565b60405180910390a1505050505050565b600061090b826129f8565b6111d3613d09565b61090b82612a9d565b600b546006546040516321a9204d60e11b815233600482015260248101919091526001600160a01b0390911690634352409a90604401602060405180830381865afa15801561122f573d6000803e3d6000fd5b505050506040513d601f19601f8201168201806040525081019061125391906147d8565b6112705760405163088d893560e11b815260040160405180910390fd5b6000336001600160a01b038416148061128e575061128e8333612c0d565b9050806112ae5760405163075fd2b160e01b815260040160405180910390fd5b6001600160a01b0383166000908152600e602052604090206002600482015460ff1660068111156112e1576112e161412f565b146112ff5760405163392c16fb60e21b815260040160405180910390fd5b60026004820154610100900460ff16600681111561131f5761131f61412f565b0361133d576040516305ca31d360e51b815260040160405180910390fd5b61134684612d05565b60005b8351811015611420576001600160a01b0385166000908152601060205260409020845185908390811061137e5761137e6147fa565b602090810291909101810151825460018181018555600094855293839020825160059092020190815581830151805194820194855592830151919390929160028401906113cb90826149ef565b505050604082015160038201805460ff191660018360068111156113f1576113f161412f565b02179055506060820151600482019061140a90826149ef565b505050808061141890614ac4565b915050611349565b508251604080516001600160a01b038716815260208101929092527f8a5603111f154f43104afe04452c6a93024a972cb6a0af72e6f38bcce68625d5910160405180910390a150505050565b3361147681612dbf565b600b546005546040516321a9204d60e11b815233600482015260248101919091526001600160a01b0390911690634352409a90604401602060405180830381865afa1580156114c9573d6000803e3d6000fd5b505050506040513d601f19601f820116820180604052508101906114ed91906147d8565b61150a57604051636bbe41b360e01b815260040160405180910390fd5b6000838152601660209081526040808320338452600201909152902054156115455760405163448bae6f60e01b815260040160405180910390fd5b6001600160a01b038085166000908152600e60209081526040808320815160c081018352815460ff81161515825261010090049095168584015260018101548583015281518083019092526002810180548352600382018054959695929460608701949390840191906115b79061479e565b80601f01602080910402602001604051908101604052809291908181526020018280546115e39061479e565b80156116305780601f1061160557610100808354040283529160200191611630565b820191906000526020600020905b81548152906001019060200180831161161357829003601f168201915b505050919092525050508152600482015460209091019060ff16600681111561165b5761165b61412f565b600681111561166c5761166c61412f565b81526020016004820160019054906101000a900460ff1660068111156116945761169461412f565b60068111156116a5576116a561412f565b90525090506002816080015160068111156116c2576116c261412f565b146116e05760405163392c16fb60e21b815260040160405180910390fd5b6001600160a01b03851660009081526014602052604090208054851061171957604051632f1f68e160e11b815260040160405180910390fd5b600081868154811061172d5761172d6147fa565b6000918252602090912060059091020190506001600382015460ff16600681111561175a5761175a61412f565b1461177857604051635b2fe71d60e11b815260040160405180910390fd5b336000908152600f602052604081205460085460075491929160649161179d91614add565b6117a79190614af4565b600089815260166020908152604080832033845260029081019092529091208490559091508760068111156117de576117de61412f565b0361194b5760008881526016602052604081208054849290611801908490614b16565b90915550506000888152601660205260409020548110156119465760038301805488919060ff1916600183600681111561183d5761183d61412f565b0217905550604080516001808252818301909252600091602080830190803683370190505090508981600081518110611878576118786147fa565b6001600160a01b039283166020918202929092010152600154604051631d2fdec960e11b81527f000000000000000000000000000000000000000000000000000000000000000090921691633a5fbd92916118d7918590600401614b29565b600060405180830381600087803b1580156118f157600080fd5b505af1158015611905573d6000803e3d6000fd5b505050507ff1af82b65c631a030029b10ea8f00f68290285c7c797644155b8f23969ca1d638a8a8a60405161193c93929190614b90565b60405180910390a1505b611a8f565b600387600681111561195f5761195f61412f565b03611a8f5760008881526016602052604081206001018054849290611985908490614b16565b9091555050600088815260166020526040902060010154811015611a8f5760038301805488919060ff191660018360068111156119c4576119c461412f565b021790555060005b600d54811015611a3a576000601660008b81526020019081526020016000206002016000600d8481548110611a0357611a036147fa565b60009182526020808320909101546001600160a01b0316835282019290925260400190205580611a3281614ac4565b9150506119cc565b5060008881526016602052604080822082815560010191909155517ff1af82b65c631a030029b10ea8f00f68290285c7c797644155b8f23969ca1d6390611a86908b908b908b90614b90565b60405180910390a15b7f4460beb477b3843656610a89bd67c551d2a78131b5a955ddccd5eb9aa218c8c3898989604051611ac293929190614b90565b60405180910390a1505050505050505050565b33611adf81612dbf565b600b546005546040516321a9204d60e11b815233600482015260248101919091526001600160a01b0390911690634352409a90604401602060405180830381865afa158015611b32573d6000803e3d6000fd5b505050506040513d601f19601f82011682018060405250810190611b5691906147d8565b611b7357604051636bbe41b360e01b815260040160405180910390fd5b6002826006811115611b8757611b8761412f565b14158015611ba757506003826006811115611ba457611ba461412f565b14155b15611bc55760405163343b80b160e01b815260040160405180910390fd5b3360009081526013602052604090205415611bf35760405163448bae6f60e01b815260040160405180910390fd5b336000908152600f6020526040812054600854600754919291606491611c1891614add565b611c229190614af4565b90506002846006811115611c3857611c3861412f565b03611caf578160116000016000828254611c529190614b16565b9091555050601154811015611caa57611c6b6000612e71565b611c73612eb8565b6004805460ff191660031790556040517fd32d40de3c1ce9d2fa081d8cd5a6b778eaea7095966658ace12863ce23d09a6090600090a15b611d81565b6003846006811115611cc357611cc361412f565b03611d81578160116001016000828254611cdd9190614b16565b9091555050601254811015611d815760005b600d54811015611d4c57600060116002016000600d8481548110611d1557611d156147fa565b60009182526020808320909101546001600160a01b0316835282019290925260400190205580611d4481614ac4565b915050611cef565b506000601181905560128190556040517f7a5d554e29a9295668ae87eb63589a5dd4d751e9c16b4a8173c28b9f0bc4a1d09190a15b50505050565b81518151606091908114611dae57604051633da4c02b60e11b815260040160405180910390fd5b6000816001600160401b03811115611dc857611dc8613e16565b604051908082528060200260200182016040528015611e0d57816020015b6040805180820190915260008082526020820152815260200190600190039081611de65790505b50905060005b82811015611e7c57611e57868281518110611e3057611e306147fa565b6020026020010151868381518110611e4a57611e4a6147fa565b602002602001015161300f565b828281518110611e6957611e696147fa565b6020908102919091010152600101611e13565b50949350505050565b33611e8f81612dbf565b600b546005546040516321a9204d60e11b815233600482015260248101919091526001600160a01b0390911690634352409a90604401602060405180830381865afa158015611ee2573d6000803e3d6000fd5b505050506040513d601f19601f82011682018060405250810190611f0691906147d8565b611f2357604051636bbe41b360e01b815260040160405180910390fd5b6001600160a01b038316600090815260106020908152604080832033845260030190915290205415611f685760405163448bae6f60e01b815260040160405180910390fd5b6001600160a01b0383166000908152600e6020526040902060026004820154610100900460ff166006811115611fa057611fa061412f565b03611fbe576040516305ca31d360e51b815260040160405180910390fd5b336000908152600f6020526040812054600854600754919291606491611fe391614add565b611fed9190614af4565b6001600160a01b038716600090815260106020908152604080832033845260030190915290208390559050600285600681111561202c5761202c61412f565b036122f4576001600160a01b0386166000908152601060205260408120600101805484929061205c908490614b16565b90915550506001600160a01b0386166000908152601060205260409020600101548110156122ef576001600160a01b0386166000908152600e60205260409020600401805486919061ff0019166101008360068111156120be576120be61412f565b02179055506001600160a01b038616600090815260106020908152604080832080548251818502810185019093528083526122b2948b9484015b828210156122a9578382906000526020600020906005020160405180608001604052908160008201548152602001600182016040518060400160405290816000820154815260200160018201805461214f9061479e565b80601f016020809104026020016040519081016040528092919081815260200182805461217b9061479e565b80156121c85780601f1061219d576101008083540402835291602001916121c8565b820191906000526020600020905b8154815290600101906020018083116121ab57829003601f168201915b505050919092525050508152600382015460209091019060ff1660068111156121f3576121f361412f565b60068111156122045761220461412f565b81526020016004820180546122189061479e565b80601f01602080910402602001604051908101604052809291908181526020018280546122449061479e565b80156122915780601f1061226657610100808354040283529160200191612291565b820191906000526020600020905b81548152906001019060200180831161227457829003601f168201915b505050505081525050815260200190600101906120f8565b5050505061305a565b6040516001600160a01b03871681527f7b05d1f85b1ac2e76c0d8dbb0dfa809df6788f66bbeeb837b2b5fae4f64c00639060200160405180910390a15b6123e5565b60038560068111156123085761230861412f565b036123e5576001600160a01b03861660009081526010602052604081206002018054849290612338908490614b16565b90915550506001600160a01b0386166000908152601060205260409020600201548110156123e5576001600160a01b0386166000908152600e60205260409020600401805486919061ff00191661010083600681111561239a5761239a61412f565b02179055506123a886612d05565b6040516001600160a01b03871681527f5a90817477dd8f83cfe5d429e1dc84ad5a25cb72b83291c707c6f8f5c4f2ac849060200160405180910390a15b7f30dae55c386c6176f3f7b7ee6ad4df33970f2e442cb0142e978cf78fd8ae138d86866040516111b0929190614bb4565b6014602052816000526040600020818154811061243257600080fd5b90600052602060002090600502016000915091505080600001549080600101604051806040016040529081600082015481526020016001820180546124769061479e565b80601f01602080910402602001604051908101604052809291908181526020018280546124a29061479e565b80156124ef5780601f106124c4576101008083540402835291602001916124ef565b820191906000526020600020905b8154815290600101906020018083116124d257829003601f168201915b505050919092525050506003820154600483018054929360ff909216926125159061479e565b80601f01602080910402602001604051908101604052809291908181526020018280546125419061479e565b801561258e5780601f106125635761010080835404028352916020019161258e565b820191906000526020600020905b81548152906001019060200180831161257157829003601f168201915b5050505050905084565b600061090b826132de565b6000818060200190518101906125b99190614bdc565b90506125c583826132f3565b7f91efa3d50feccde0d0d202f8ae5c41ca0b2be614cebcb2bd2f4b019396e6568a83836040516125f6929190614cee565b60405180910390a1505050565b61260b612693565b6126136126de565b61261d82826134ff565b5050565b612629612693565b806002600082825461263b9190614b16565b9091555061264890508181565b50565b6001600160a01b0382166000908152601460205260408120805483908110612675576126756147fa565b600091825260209091206005909102016003015460ff169392505050565b336001600160a01b037f000000000000000000000000000000000000000000000000000000000000000016146126dc5760405163075fd2b160e01b815260040160405180910390fd5b565b6001546000036126dc57604051630f68fe6360e21b815260040160405180910390fd5b6001600160a01b03811630146127595760405162461bcd60e51b815260206004820152601760248201527f554e415554484f52495a454420646973747269627574650000000000000000006044820152606401610baf565b825160005b818110156127915761278985828151811061277b5761277b6147fa565b602002602001015184613829565b60010161275e565b5050505050565b60006127a2613bd1565b6000806000806127c5604051806040016040528060008152602001606081525090565b878060200190518101906127d99190614d9d565b9297509095506001600160a01b0386161515945092509050826127fc57846127fe565b835b955082801561281457506128128688612c0d565b155b156128325760405163075fd2b160e01b815260040160405180910390fd5b60026001600160a01b0387166000908152600e602052604090206004015460ff1660068111156128645761286461412f565b036128825760405163083a81f760e31b815260040160405180910390fd5b60006040518060c001604052808515158152602001876001600160a01b03168152602001848152602001838152602001600260068111156128c5576128c561412f565b8152602001600190526001600160a01b038881166000908152600e602090815260409182902084518154868401516001600160a81b0319909116911515610100600160a81b0319169190911761010091909516029390931783559083015160018301556060830151805160028401908155918101519394508493909190600384019061295190826149ef565b505050608082015160048201805460ff191660018360068111156129775761297761412f565b021790555060a082015160048201805461ff0019166101008360068111156129a1576129a161412f565b0217905550905050866001600160a01b03167fa197306e3dd5494a61a695381aa809a53b8e377a685e84e404a85d5a8da6cc628a8a6040516129e4929190614e0a565b60405180910390a250505050505092915050565b6001546040516329e40d4b60e01b81526000916001600160a01b037f000000000000000000000000000000000000000000000000000000000000000016916329e40d4b91612a5c9186906004019182526001600160a01b0316602082015260400190565b602060405180830381865afa158015612a79573d6000803e3d6000fd5b505050506040513d601f19601f8201168201806040525081019061090b91906147d8565b612aa5613d09565b6001600160a01b038083166000908152600e6020908152604091829020825160c081018452815460ff811615158252610100900490941684830152600181015484840152825180840190935260028101805484526003820180549294606087019490939084019190612b169061479e565b80601f0160208091040260200160405190810160405280929190818152602001828054612b429061479e565b8015612b8f5780601f10612b6457610100808354040283529160200191612b8f565b820191906000526020600020905b815481529060010190602001808311612b7257829003601f168201915b505050919092525050508152600482015460209091019060ff166006811115612bba57612bba61412f565b6006811115612bcb57612bcb61412f565b81526020016004820160019054906101000a900460ff166006811115612bf357612bf361412f565b6006811115612c0457612c0461412f565b90525092915050565b60095460405163dd93da4360e01b81526001600160a01b038481166004830152600092839291169063dd93da4390602401600060405180830381865afa158015612c5b573d6000803e3d6000fd5b505050506040513d6000823e601f3d908101601f19168201604052612c839190810190614e34565b6009548151604051635e8a791560e01b815260048101919091526001600160a01b038681166024830152929350911690635e8a791590604401602060405180830381865afa158015612cd9573d6000803e3d6000fd5b505050506040513d601f19601f82011682018060405250810190612cfd91906147d8565b949350505050565b60005b600d54811015612d8857600060106000846001600160a01b03166001600160a01b031681526020019081526020016000206003016000600d8481548110612d5157612d516147fa565b60009182526020808320909101546001600160a01b0316835282019290925260400190205580612d8081614ac4565b915050612d08565b506001600160a01b038116600090815260106020526040812090612dac8282613d64565b5060006001820181905560029091015550565b6001546040516329e40d4b60e01b815260048101919091526001600160a01b0382811660248301527f000000000000000000000000000000000000000000000000000000000000000016906329e40d4b90604401602060405180830381865afa158015612e30573d6000803e3d6000fd5b505050506040513d601f19601f82011682018060405250810190612e5491906147d8565b6126485760405163075fd2b160e01b815260040160405180910390fd5b6000805460ff19168215159081179091556040519081527fd94c9bc4d43c51d8dc345a016d8e3d994432fac68e72832e4cf3a616bd8efae09060200160405180910390a150565b60005b600d54811015612648576000600f6000600d8481548110612ede57612ede6147fa565b60009182526020808320909101546001600160a01b03168352820192909252604001812054600254909250670de0b6b3a764000090612f1e908490614add565b612f289190614af4565b905060007f00000000000000000000000000000000000000000000000000000000000000006001600160a01b031663068bcd8d6001546040518263ffffffff1660e01b8152600401612f7c91815260200190565b600060405180830381865afa158015612f99573d6000803e3d6000fd5b505050506040513d6000823e601f3d908101601f19168201604052612fc19190810190614efa565b9050612ff98160400151600d8681548110612fde57612fde6147fa565b6000918252602090912001546001600160a01b031684613bf4565b505050808061300790614ac4565b915050612ebb565b6040805180820190915260008082526020820152600061302e84612a9d565b6040805180820182526020808401516001600160a01b0316825291909201519082015291505092915050565b6001600160a01b03821660009081526014602052604081205415613099576001600160a01b038316600090815260146020526040812061309991613d64565b815160005b818110156131bf5760008482815181106130ba576130ba6147fa565b60200260200101519050600060068111156130d7576130d761412f565b816040015160068111156130ed576130ed61412f565b1461310b57604051635b2fe71d60e11b815260040160405180910390fd5b80516131179085614b16565b6001600160a01b03871660009081526014602090815260408220805460018181018355918452928290208551600590940201928355848201518051918401918255918201519397508493600284019061317090826149ef565b505050604082015160038201805460ff191660018360068111156131965761319661412f565b0217905550606082015160048201906131af90826149ef565b50506001909201915061309e9050565b5081670de0b6b3a7640000146131e8576040516397a1f28d60e01b815260040160405180910390fd5b600084600260075460405160200161320293929190614fad565b60408051601f19818403018152908290526001546305d8703160e31b83529092506001600160a01b037f00000000000000000000000000000000000000000000000000000000000000001691632ec3818891613262918590600401614cee565b600060405180830381600087803b15801561327c57600080fd5b505af1158015613290573d6000803e3d6000fd5b5050604080516001600160a01b0389168152602081018690527fb000fb1507aac2465ccb4f6bd1b601c7053279005e9e9932c41946b35c84949b935001905060405180910390a15050505050565b60006132e982612a9d565b6080015192915050565b6132fc82613c2e565b8051600555602081015160065560466008556060810151600b80546001600160a01b0319166001600160a01b03909216919091179055604081015160005b815181101561344057600d828281518110613357576133576147fa565b6020908102919091018101515182546001810184556000938452919092200180546001600160a01b0319166001600160a01b0390921691909117905581518290829081106133a7576133a76147fa565b602002602001015160200151600f60008484815181106133c9576133c96147fa565b6020026020010151600001516001600160a01b03166001600160a01b031681526020019081526020016000208190555081818151811061340b5761340b6147fa565b602002602001015160200151600760008282546134289190614b16565b9091555081905061343881614ac4565b91505061333a565b507f00000000000000000000000000000000000000000000000000000000000000006001600160a01b0316635ab1bd536040518163ffffffff1660e01b8152600401602060405180830381865afa15801561349f573d6000803e3d6000fd5b505050506040513d601f19601f820116820180604052508101906134c39190614fd8565b600980546001600160a01b0319166001600160a01b03929092169190911790556134ed6001612e71565b50506004805460ff1916600117905550565b613507613c7d565b6001600160a01b03811630146135575760405162461bcd60e51b8152602060048201526015602482015274554e415554484f52495a454420616c6c6f6361746560581b6044820152606401610baf565b6000806000848060200190518101906135709190614ff5565b6001600160a01b0383166000908152600e60209081526040808320601590925290912054939650919450925090156135bb576040516305ca31d360e51b815260040160405180910390fd5b6002600482015460ff1660068111156135d6576135d661412f565b141580156135f5575060028360068111156135f3576135f361412f565b145b156137905760015460405163068bcd8d60e01b81526000916001600160a01b037f0000000000000000000000000000000000000000000000000000000000000000169163068bcd8d9161364e9160040190815260200190565b600060405180830381865afa15801561366b573d6000803e3d6000fd5b505050506040513d6000823e601f3d908101601f191682016040526136939190810190614efa565b905082600a60008282546136a79190614b16565b9091555050600254600a5411156136d157604051638e81b16f60e01b815260040160405180910390fd5b6001820183905560048201805460ff191660029081179091556040517f94593b52aa436dd31a63e313045c2eb23d43eb2d6f5b4d7797b4432e7b2774909161371b91889190614bb4565b60405180910390a1846001600160a01b03167f463ffc2cf8b1596445c417388ed30e53eb67cf6668cb2be7f0addf8a78c8441b8360010154836040015189604051613782939291909283526001600160a01b03918216602084015216604082015260600190565b60405180910390a25061381b565b6003600482015460ff1660068111156137ab576137ab61412f565b141580156137ca575060038360068111156137c8576137c861412f565b145b1561381b5760048101805460ff191660039081179091556040517f94593b52aa436dd31a63e313045c2eb23d43eb2d6f5b4d7797b4432e7b2774909161381291879190614bb4565b60405180910390a15b5050505061261d6001600355565b6001600160a01b0380831660009081526015602090815260408083205460148352818420600e8452828520835160c081018552815460ff811615158252610100900490971687860152600181015487850152835180850190945260028101805485526003820180549498939796939592946060870194840191906138ac9061479e565b80601f01602080910402602001604051908101604052809291908181526020018280546138d89061479e565b80156139255780601f106138fa57610100808354040283529160200191613925565b820191906000526020600020905b81548152906001019060200180831161390857829003601f168201915b505050919092525050508152600482015460209091019060ff1660068111156139505761395061412f565b60068111156139615761396161412f565b81526020016004820160019054906101000a900460ff1660068111156139895761398961412f565b600681111561399a5761399a61412f565b81525050905060008284815481106139b4576139b46147fa565b9060005260206000209060050201905082805490508411156139e957604051632f1f68e160e11b815260040160405180910390fd5b6002600382015460ff166006811115613a0457613a0461412f565b14613a2257604051635b2fe71d60e11b815260040160405180910390fd5b6000670de0b6b3a764000082600001548460400151613a419190614add565b613a4b9190614af4565b905060007f00000000000000000000000000000000000000000000000000000000000000006001600160a01b031663068bcd8d6001546040518263ffffffff1660e01b8152600401613a9f91815260200190565b600060405180830381865afa158015613abc573d6000803e3d6000fd5b505050506040513d6000823e601f3d908101601f19168201604052613ae49190810190614efa565b90508160026000828254613af89190615038565b92505081905550613b128160400151856020015184613bf4565b6001600160a01b0388166000908152601560205260408120805491613b3683614ac4565b909155505084546001600160a01b0389166000908152601560205260409020541115613b73576004805460ff19166002179055613b736000612e71565b602080850151604080516001600160a01b039283168152928301859052898216908301528916907fb5b51454adfa840bd593658325a60a50b0216f12eb5d2937efe6cea935675b7d9060600160405180910390a25050505050505050565b60005460ff166126dc5760405163cfe7975b60e01b815260040160405180910390fd5b73eeeeeeeeeeeeeeeeeeeeeeeeeeeeeeeeeeeeeeed196001600160a01b03841601613c23576108db8282613ca7565b6108db838383613cc3565b613c36612693565b60015415613c575760405163439a74c960e01b815260040160405180910390fd5b80600003613c7857604051637fcce2a960e01b815260040160405180910390fd5b600155565b600260035403613ca057604051633ee5aeb560e01b815260040160405180910390fd5b6002600355565b60003860003884865af161261d5763b12d13eb6000526004601cfd5b816014528060345263a9059cbb60601b60005260206000604460106000875af13d156001600051141716613cff576390b8ec186000526004601cfd5b6000603452505050565b6040518060c0016040528060001515815260200160006001600160a01b0316815260200160008152602001613d51604051806040016040528060008152602001606081525090565b8152602001600081526020016000905290565b508054600082556005029060005260206000209081019061264891905b80821115613dc85760008082556001820181815581613da36002850182613dcc565b505060038201805460ff19169055613dbf600483016000613dcc565b50600501613d81565b5090565b508054613dd89061479e565b6000825580601f10613de8575050565b601f01602090049060005260206000209081019061264891905b80821115613dc85760008155600101613e02565b634e487b7160e01b600052604160045260246000fd5b604051608081016001600160401b0381118282101715613e4e57613e4e613e16565b60405290565b604080519081016001600160401b0381118282101715613e4e57613e4e613e16565b60405160c081016001600160401b0381118282101715613e4e57613e4e613e16565b604051601f8201601f191681016001600160401b0381118282101715613ec057613ec0613e16565b604052919050565b60006001600160401b03821115613ee157613ee1613e16565b5060051b60200190565b6001600160a01b038116811461264857600080fd5b600082601f830112613f1157600080fd5b81356020613f26613f2183613ec8565b613e98565b82815260059290921b84018101918181019086841115613f4557600080fd5b8286015b84811015613f69578035613f5c81613eeb565b8352918301918301613f49565b509695505050505050565b60006001600160401b03821115613f8d57613f8d613e16565b50601f01601f191660200190565b600082601f830112613fac57600080fd5b8135613fba613f2182613f74565b818152846020838601011115613fcf57600080fd5b816020850160208301376000918101602001919091529392505050565b60008060006060848603121561400157600080fd5b83356001600160401b038082111561401857600080fd5b61402487838801613f00565b9450602086013591508082111561403a57600080fd5b5061404786828701613f9b565b925050604084013561405881613eeb565b809150509250925092565b6000806040838503121561407657600080fd5b823561408181613eeb565b9150602083013561409181613eeb565b809150509250929050565b6000602082840312156140ae57600080fd5b81356140b981613eeb565b9392505050565b60005b838110156140db5781810151838201526020016140c3565b50506000910152565b600081518084526140fc8160208601602086016140c0565b601f01601f19169290920160200192915050565b805182526000602082015160406020850152612cfd60408501826140e4565b634e487b7160e01b600052602160045260246000fd5b600781106141555761415561412f565b9052565b60006020808301818452808551808352604092508286019150828160051b87010184880160005b838110156141f057603f19898403018552815160808151855288820151818a8701526141ae82870182614110565b915050878201516141c189870182614145565b50606080830151925085820381870152506141dc81836140e4565b968901969450505090860190600101614180565b509098975050505050505050565b6000806040838503121561421157600080fd5b50508035926020909101359150565b6000806040838503121561423357600080fd5b82356001600160401b0381111561424957600080fd5b61425585828601613f9b565b925050602083013561409181613eeb565b60008060006060848603121561427b57600080fd5b833561428681613eeb565b92506020840135915060408401356001600160401b038111156142a857600080fd5b84016040818703121561405857600080fd5b6000602082840312156142cc57600080fd5b5035919050565b600080604083850312156142e657600080fd5b82359150602083013561409181613eeb565b6020815281511515602082015260018060a01b036020830151166040820152604082015160608201526000606083015160c0608084015261433c60e0840182614110565b9050608084015161435060a0850182614145565b5060a084015161436360c0850182614145565b509392505050565b6007811061264857600080fd5b80356143838161436b565b919050565b6000806040838503121561439b57600080fd5b6143a58335613eeb565b823591506001600160401b0380602085013511156143c257600080fd5b6020840135840185601f8201126143d857600080fd5b6143e5613f218235613ec8565b81358082526020808301929160051b84010188101561440357600080fd5b602083015b6020843560051b85010181101561450457848135111561442757600080fd5b80358401601f196080828c038201121561444057600080fd5b614448613e2c565b60208301358152876040840135111561446057600080fd5b60408301358301604083828f0301121561447957600080fd5b614481613e54565b925060208101358352886040820135111561449b57600080fd5b6144ae8d60206040840135840101613f9b565b6020840152508160208201526144c660608401614378565b604082015287608084013511156144dc57600080fd5b6144ef8c60206080860135860101613f9b565b60608201528552505060209283019201614408565b50809450505050509250929050565b60008060006060848603121561452857600080fd5b833561453381613eeb565b92506020840135915060408401356140588161436b565b60006020828403121561455c57600080fd5b81356140b98161436b565b6000806040838503121561457a57600080fd5b82356001600160401b038082111561459157600080fd5b61459d86838701613f00565b93506020915081850135818111156145b457600080fd5b8501601f810187136145c557600080fd5b80356145d3613f2182613ec8565b81815260059190911b820184019084810190898311156145f257600080fd5b8584015b8381101561462a5780358681111561460e5760008081fd5b61461c8c8983890101613f9b565b8452509186019186016145f6565b508096505050505050509250929050565b602080825282518282018190526000919060409081850190868401855b8281101561468657815180516001600160a01b03168552860151868501529284019290850190600101614658565b5091979650505050505050565b600080604083850312156146a657600080fd5b82356146b181613eeb565b915060208301356140918161436b565b60208101600483106146d5576146d561412f565b91905290565b600080604083850312156146ee57600080fd5b82356146f981613eeb565b946020939093013593505050565b8481526080602082015260006147206080830186614110565b61472d6040840186614145565b828103606084015261473f81856140e4565b979650505050505050565b6020810161090b8284614145565b6000806040838503121561476b57600080fd5b8235915060208301356001600160401b0381111561478857600080fd5b61479485828601613f9b565b9150509250929050565b600181811c908216806147b257607f821691505b6020821081036147d257634e487b7160e01b600052602260045260246000fd5b50919050565b6000602082840312156147ea57600080fd5b815180151581146140b957600080fd5b634e487b7160e01b600052603260045260246000fd5b601f8211156108db57600081815260208120601f850160051c810160208610156148375750805b601f850160051c820191505b8181101561485657828155600101614843565b505050505050565b813581556001808201602080850135601e1986360301811261487f57600080fd5b850180356001600160401b0381111561489757600080fd5b80360383830113156148a857600080fd5b6148bc816148b6865461479e565b86614810565b6000601f8211600181146148f257600083156148da57508382018501355b600019600385901b1c1916600184901b17865561494b565b600086815260209020601f19841690835b8281101561492257868501880135825593870193908901908701614903565b50848210156149415760001960f88660031b161c198785880101351681555b50508683881b0186555b505050505050505050565b60018060a01b0384168152826020820152606060408201528135606082015260006020830135601e1984360301811261498e57600080fd5b83016020810190356001600160401b038111156149aa57600080fd5b8036038213156149b957600080fd5b604060808501528060a0850152808260c0860137600060c0828601015260c0601f19601f83011685010192505050949350505050565b81516001600160401b03811115614a0857614a08613e16565b614a1c81614a16845461479e565b84614810565b602080601f831160018114614a515760008415614a395750858301515b600019600386901b1c1916600185901b178555614856565b600085815260208120601f198616915b82811015614a8057888601518255948401946001909101908401614a61565b5085821015614a9e5787850151600019600388901b60f8161c191681555b5050505050600190811b01905550565b634e487b7160e01b600052601160045260246000fd5b600060018201614ad657614ad6614aae565b5060010190565b808202811582820484141761090b5761090b614aae565b600082614b1157634e487b7160e01b600052601260045260246000fd5b500490565b8082018082111561090b5761090b614aae565b6000606082018483526020606081850152818551808452608086019150828701935060005b81811015614b735784516001600160a01b031683529383019391830191600101614b4e565b505084810360408601526000815281810193505050509392505050565b6001600160a01b03841681526020810183905260608101612cfd6040830184614145565b6001600160a01b0383168152604081016140b96020830184614145565b805161438381613eeb565b60006020808385031215614bef57600080fd5b82516001600160401b0380821115614c0657600080fd5b9084019060808287031215614c1a57600080fd5b614c22613e2c565b82518152838301518482015260408084015183811115614c4157600080fd5b84019250601f83018813614c5457600080fd5b8251614c62613f2182613ec8565b81815260069190911b8401860190868101908a831115614c8157600080fd5b948701945b82861015614cca5783868c031215614c9e5760008081fd5b614ca6613e54565b8651614cb181613eeb565b8152868901518982015282529483019490870190614c86565b808486015250505050614cdf60608401614bd1565b60608201529695505050505050565b828152604060208201526000612cfd60408301846140e4565b600082601f830112614d1857600080fd5b8151614d26613f2182613f74565b818152846020838601011115614d3b57600080fd5b612cfd8260208301602087016140c0565b600060408284031215614d5e57600080fd5b614d66613e54565b90508151815260208201516001600160401b03811115614d8557600080fd5b614d9184828501614d07565b60208301525092915050565b60008060008060808587031215614db357600080fd5b8451614dbe81613eeb565b6020860151909450614dcf81613eeb565b6040860151606087015191945092506001600160401b03811115614df257600080fd5b614dfe87828801614d4c565b91505092959194509250565b604081526000614e1d60408301856140e4565b905060018060a01b03831660208301529392505050565b600060208284031215614e4657600080fd5b81516001600160401b0380821115614e5d57600080fd5b9083019060c08286031215614e7157600080fd5b614e79613e76565b8251815260208301516020820152604083015182811115614e9957600080fd5b614ea587828601614d07565b604083015250606083015182811115614ebd57600080fd5b614ec987828601614d4c565b606083015250614edb60808401614bd1565b6080820152614eec60a08401614bd1565b60a082015295945050505050565b600060208284031215614f0c57600080fd5b81516001600160401b0380821115614f2357600080fd5b9083019060c08286031215614f3757600080fd5b614f3f613e76565b825181526020830151614f5181613eeb565b60208201526040830151614f6481613eeb565b6040820152606083015182811115614f7b57600080fd5b614f8787828601614d4c565b6060830152506080830151608082015260a083015160a082015280935050505092915050565b6001600160a01b038416815260608101614fca6020830185614145565b826040830152949350505050565b600060208284031215614fea57600080fd5b81516140b981613eeb565b60008060006060848603121561500a57600080fd5b835161501581613eeb565b60208501519093506150268161436b565b80925050604084015190509250925092565b8181038181111561090b5761090b614aae56fea264697066735822122033c17162061d2f60dec003124ce62689f5293168a7c1fd3113f1cc1675848abd64736f6c63430008140033",
  "linkReferences": {},
  "deployedLinkReferences": {}
}