{
  "_format": "hh-sol-artifact-1",
  "contractName": "ExecutorSupplierVotingStrategy",
  "sourceName": "contracts/ExecutorSupplierVotingStrategy.sol",
  "abi": [
    {
      "inputs": [
        {
          "internalType": "address",
          "name": "_allo",
          "type": "address"
        },
        {
          "internalType": "string",
          "name": "_name",
          "type": "string"
        }
      ],
      "stateMutability": "nonpayable",
      "type": "constructor"
    },
    {
      "inputs": [],
      "name": "ALLOCATION_ACTIVE",
      "type": "error"
    },
    {
      "inputs": [],
      "name": "ALLOCATION_EXCEEDS_POOL_AMOUNT",
      "type": "error"
    },
    {
      "inputs": [],
      "name": "ALLOCATION_NOT_ACTIVE",
      "type": "error"
    },
    {
      "inputs": [],
      "name": "ALLOCATION_NOT_ENDED",
      "type": "error"
    },
    {
      "inputs": [],
      "name": "ALREADY_INITIALIZED",
      "type": "error"
    },
    {
      "inputs": [],
      "name": "AMOUNT_MISMATCH",
      "type": "error"
    },
    {
      "inputs": [],
      "name": "ANCHOR_ERROR",
      "type": "error"
    },
    {
      "inputs": [],
      "name": "ARRAY_MISMATCH",
      "type": "error"
    },
    {
      "inputs": [],
      "name": "INVALID",
      "type": "error"
    },
    {
      "inputs": [],
      "name": "INVALID_ADDRESS",
      "type": "error"
    },
    {
      "inputs": [],
      "name": "INVALID_FEE",
      "type": "error"
    },
    {
      "inputs": [],
      "name": "INVALID_METADATA",
      "type": "error"
    },
    {
      "inputs": [],
      "name": "INVALID_MILESTONE",
      "type": "error"
    },
    {
      "inputs": [],
      "name": "INVALID_MILESTONE_STATUS",
      "type": "error"
    },
    {
      "inputs": [],
      "name": "INVALID_REGISTRATION",
      "type": "error"
    },
    {
      "inputs": [],
      "name": "IS_APPROVED_STRATEGY",
      "type": "error"
    },
    {
      "inputs": [],
      "name": "MILESTONES_ALREADY_SET",
      "type": "error"
    },
    {
      "inputs": [],
      "name": "MILESTONE_ALREADY_ACCEPTED",
      "type": "error"
    },
    {
      "inputs": [],
      "name": "MISMATCH",
      "type": "error"
    },
    {
      "inputs": [],
      "name": "NONCE_NOT_AVAILABLE",
      "type": "error"
    },
    {
      "inputs": [],
      "name": "NOT_APPROVED_STRATEGY",
      "type": "error"
    },
    {
      "inputs": [],
      "name": "NOT_ENOUGH_FUNDS",
      "type": "error"
    },
    {
      "inputs": [],
      "name": "NOT_IMPLEMENTED",
      "type": "error"
    },
    {
      "inputs": [],
      "name": "NOT_INITIALIZED",
      "type": "error"
    },
    {
      "inputs": [],
      "name": "NOT_PENDING_OWNER",
      "type": "error"
    },
    {
      "inputs": [],
      "name": "POOL_ACTIVE",
      "type": "error"
    },
    {
      "inputs": [],
      "name": "POOL_INACTIVE",
      "type": "error"
    },
    {
      "inputs": [],
      "name": "RECIPIENT_ALREADY_ACCEPTED",
      "type": "error"
    },
    {
      "inputs": [
        {
          "internalType": "address",
          "name": "recipientId",
          "type": "address"
        }
      ],
      "name": "RECIPIENT_ERROR",
      "type": "error"
    },
    {
      "inputs": [],
      "name": "RECIPIENT_NOT_ACCEPTED",
      "type": "error"
    },
    {
      "inputs": [],
      "name": "REGISTRATION_NOT_ACTIVE",
      "type": "error"
    },
    {
      "inputs": [],
      "name": "ReentrancyGuardReentrantCall",
      "type": "error"
    },
    {
      "inputs": [],
      "name": "SUPPLY_IS_ALLOWED_ONLY_ONCE",
      "type": "error"
    },
    {
      "inputs": [],
      "name": "SUPPLY_NOT_FOUND",
      "type": "error"
    },
    {
      "inputs": [],
      "name": "UNAUTHORIZED",
      "type": "error"
    },
    {
      "inputs": [],
      "name": "ZERO_ADDRESS",
      "type": "error"
    },
    {
      "anonymous": false,
      "inputs": [
        {
          "indexed": true,
          "internalType": "address",
          "name": "recipientId",
          "type": "address"
        },
        {
          "indexed": false,
          "internalType": "uint256",
          "name": "amount",
          "type": "uint256"
        },
        {
          "indexed": false,
          "internalType": "address",
          "name": "token",
          "type": "address"
        },
        {
          "indexed": false,
          "internalType": "address",
          "name": "sender",
          "type": "address"
        }
      ],
      "name": "Allocated",
      "type": "event"
    },
    {
      "anonymous": false,
      "inputs": [
        {
          "indexed": true,
          "internalType": "address",
          "name": "recipientId",
          "type": "address"
        },
        {
          "indexed": false,
          "internalType": "address",
          "name": "recipientAddress",
          "type": "address"
        },
        {
          "indexed": false,
          "internalType": "uint256",
          "name": "amount",
          "type": "uint256"
        },
        {
          "indexed": false,
          "internalType": "address",
          "name": "sender",
          "type": "address"
        }
      ],
      "name": "Distributed",
      "type": "event"
    },
    {
      "anonymous": false,
      "inputs": [
        {
          "indexed": false,
          "internalType": "uint256",
          "name": "poolId",
          "type": "uint256"
        },
        {
          "indexed": false,
          "internalType": "bytes",
          "name": "data",
          "type": "bytes"
        }
      ],
      "name": "Initialized",
      "type": "event"
    },
    {
      "anonymous": false,
      "inputs": [
        {
          "indexed": false,
          "internalType": "address",
          "name": "recipientId",
          "type": "address"
        },
        {
          "indexed": false,
          "internalType": "uint256",
          "name": "milestoneId",
          "type": "uint256"
        },
        {
          "indexed": false,
          "internalType": "enum IStrategy.Status",
          "name": "status",
          "type": "uint8"
        }
      ],
      "name": "MilestoneStatusChanged",
      "type": "event"
    },
    {
      "anonymous": false,
      "inputs": [
        {
          "indexed": false,
          "internalType": "address",
          "name": "recipientId",
          "type": "address"
        },
        {
          "indexed": false,
          "internalType": "uint256",
          "name": "milestoneId",
          "type": "uint256"
        },
        {
          "components": [
            {
              "internalType": "uint256",
              "name": "protocol",
              "type": "uint256"
            },
            {
              "internalType": "string",
              "name": "pointer",
              "type": "string"
            }
          ],
          "indexed": false,
          "internalType": "struct Metadata",
          "name": "metadata",
          "type": "tuple"
        }
      ],
      "name": "MilestoneSubmitted",
      "type": "event"
    },
    {
      "anonymous": false,
      "inputs": [
        {
          "indexed": false,
          "internalType": "address",
          "name": "recipientId",
          "type": "address"
        },
        {
          "indexed": false,
          "internalType": "uint256",
          "name": "milestonesLength",
          "type": "uint256"
        }
      ],
      "name": "MilestonesOffered",
      "type": "event"
    },
    {
      "anonymous": false,
      "inputs": [
        {
          "indexed": false,
          "internalType": "address",
          "name": "recipientId",
          "type": "address"
        },
        {
          "indexed": false,
          "internalType": "enum IStrategy.Status",
          "name": "status",
          "type": "uint8"
        }
      ],
      "name": "MilestonesReviewed",
      "type": "event"
    },
    {
      "anonymous": false,
      "inputs": [
        {
          "indexed": false,
          "internalType": "address",
          "name": "recipientId",
          "type": "address"
        },
        {
          "indexed": false,
          "internalType": "uint256",
          "name": "milestonesLength",
          "type": "uint256"
        }
      ],
      "name": "MilestonesSet",
      "type": "event"
    },
    {
      "anonymous": false,
      "inputs": [
        {
          "indexed": false,
          "internalType": "address",
          "name": "recipientId",
          "type": "address"
        }
      ],
      "name": "OfferedMilestonesAccepted",
      "type": "event"
    },
    {
      "anonymous": false,
      "inputs": [
        {
          "indexed": false,
          "internalType": "address",
          "name": "recipientId",
          "type": "address"
        }
      ],
      "name": "OfferedMilestonesRejected",
      "type": "event"
    },
    {
      "anonymous": false,
      "inputs": [
        {
          "indexed": false,
          "internalType": "bool",
          "name": "active",
          "type": "bool"
        }
      ],
      "name": "PoolActive",
      "type": "event"
    },
    {
      "anonymous": false,
      "inputs": [
        {
          "indexed": false,
          "internalType": "address",
          "name": "recipientId",
          "type": "address"
        },
        {
          "indexed": false,
          "internalType": "enum IStrategy.Status",
          "name": "status",
          "type": "uint8"
        }
      ],
      "name": "RecipientStatusChanged",
      "type": "event"
    },
    {
      "anonymous": false,
      "inputs": [
        {
          "indexed": true,
          "internalType": "address",
          "name": "recipientId",
          "type": "address"
        },
        {
          "indexed": false,
          "internalType": "bytes",
          "name": "data",
          "type": "bytes"
        },
        {
          "indexed": false,
          "internalType": "address",
          "name": "sender",
          "type": "address"
        }
      ],
      "name": "Registered",
      "type": "event"
    },
    {
      "anonymous": false,
      "inputs": [
        {
          "indexed": false,
          "internalType": "address",
          "name": "recipientId",
          "type": "address"
        },
        {
          "indexed": false,
          "internalType": "uint256",
          "name": "milestoneId",
          "type": "uint256"
        },
        {
          "indexed": false,
          "internalType": "enum IStrategy.Status",
          "name": "status",
          "type": "uint8"
        }
      ],
      "name": "SubmittedvMilestoneReviewed",
      "type": "event"
    },
    {
      "inputs": [],
      "name": "NATIVE",
      "outputs": [
        {
          "internalType": "address",
          "name": "",
          "type": "address"
        }
      ],
      "stateMutability": "view",
      "type": "function"
    },
    {
      "inputs": [
        {
          "internalType": "bytes",
          "name": "_data",
          "type": "bytes"
        },
        {
          "internalType": "address",
          "name": "_sender",
          "type": "address"
        }
      ],
      "name": "allocate",
      "outputs": [],
      "stateMutability": "payable",
      "type": "function"
    },
    {
      "inputs": [],
      "name": "allocatedGrantAmount",
      "outputs": [
        {
          "internalType": "uint256",
          "name": "",
          "type": "uint256"
        }
      ],
      "stateMutability": "view",
      "type": "function"
    },
    {
      "inputs": [
        {
          "internalType": "address[]",
          "name": "_recipientIds",
          "type": "address[]"
        },
        {
          "internalType": "bytes",
          "name": "_data",
          "type": "bytes"
        },
        {
          "internalType": "address",
          "name": "_sender",
          "type": "address"
        }
      ],
      "name": "distribute",
      "outputs": [],
      "stateMutability": "nonpayable",
      "type": "function"
    },
    {
      "inputs": [],
      "name": "getAllo",
      "outputs": [
        {
          "internalType": "contract IAllo",
          "name": "",
          "type": "address"
        }
      ],
      "stateMutability": "view",
      "type": "function"
    },
    {
      "inputs": [
        {
          "internalType": "address",
          "name": "_recipientId",
          "type": "address"
        },
        {
          "internalType": "uint256",
          "name": "_milestoneId",
          "type": "uint256"
        }
      ],
      "name": "getMilestoneStatus",
      "outputs": [
        {
          "internalType": "enum IStrategy.Status",
          "name": "",
          "type": "uint8"
        }
      ],
      "stateMutability": "view",
      "type": "function"
    },
    {
      "inputs": [
        {
          "internalType": "address",
          "name": "_recipientId",
          "type": "address"
        }
      ],
      "name": "getMilestones",
      "outputs": [
        {
          "components": [
            {
              "internalType": "uint256",
              "name": "amountPercentage",
              "type": "uint256"
            },
            {
              "components": [
                {
                  "internalType": "uint256",
                  "name": "protocol",
                  "type": "uint256"
                },
                {
                  "internalType": "string",
                  "name": "pointer",
                  "type": "string"
                }
              ],
              "internalType": "struct Metadata",
              "name": "metadata",
              "type": "tuple"
            },
            {
              "internalType": "enum IStrategy.Status",
              "name": "milestoneStatus",
              "type": "uint8"
            },
            {
              "internalType": "string",
              "name": "description",
              "type": "string"
            }
          ],
          "internalType": "struct ExecutorSupplierVotingStrategy.Milestone[]",
          "name": "",
          "type": "tuple[]"
        }
      ],
      "stateMutability": "view",
      "type": "function"
    },
    {
      "inputs": [
        {
          "internalType": "address",
          "name": "_recipientId",
          "type": "address"
        }
      ],
      "name": "getOffeeredMilestones",
      "outputs": [
        {
          "components": [
            {
              "internalType": "uint256",
              "name": "amountPercentage",
              "type": "uint256"
            },
            {
              "components": [
                {
                  "internalType": "uint256",
                  "name": "protocol",
                  "type": "uint256"
                },
                {
                  "internalType": "string",
                  "name": "pointer",
                  "type": "string"
                }
              ],
              "internalType": "struct Metadata",
              "name": "metadata",
              "type": "tuple"
            },
            {
              "internalType": "enum IStrategy.Status",
              "name": "milestoneStatus",
              "type": "uint8"
            },
            {
              "internalType": "string",
              "name": "description",
              "type": "string"
            }
          ],
          "internalType": "struct ExecutorSupplierVotingStrategy.Milestone[]",
          "name": "",
          "type": "tuple[]"
        }
      ],
      "stateMutability": "view",
      "type": "function"
    },
    {
      "inputs": [
        {
          "internalType": "address[]",
          "name": "_recipientIds",
          "type": "address[]"
        },
        {
          "internalType": "bytes[]",
          "name": "_data",
          "type": "bytes[]"
        }
      ],
      "name": "getPayouts",
      "outputs": [
        {
          "components": [
            {
              "internalType": "address",
              "name": "recipientAddress",
              "type": "address"
            },
            {
              "internalType": "uint256",
              "name": "amount",
              "type": "uint256"
            }
          ],
          "internalType": "struct IStrategy.PayoutSummary[]",
          "name": "",
          "type": "tuple[]"
        }
      ],
      "stateMutability": "view",
      "type": "function"
    },
    {
      "inputs": [],
      "name": "getPoolAmount",
      "outputs": [
        {
          "internalType": "uint256",
          "name": "",
          "type": "uint256"
        }
      ],
      "stateMutability": "view",
      "type": "function"
    },
    {
      "inputs": [],
      "name": "getPoolId",
      "outputs": [
        {
          "internalType": "uint256",
          "name": "",
          "type": "uint256"
        }
      ],
      "stateMutability": "view",
      "type": "function"
    },
    {
      "inputs": [
        {
          "internalType": "address",
          "name": "_recipientId",
          "type": "address"
        }
      ],
      "name": "getRecipient",
      "outputs": [
        {
          "components": [
            {
              "internalType": "bool",
              "name": "useRegistryAnchor",
              "type": "bool"
            },
            {
              "internalType": "address",
              "name": "recipientAddress",
              "type": "address"
            },
            {
              "internalType": "uint256",
              "name": "grantAmount",
              "type": "uint256"
            },
            {
              "components": [
                {
                  "internalType": "uint256",
                  "name": "protocol",
                  "type": "uint256"
                },
                {
                  "internalType": "string",
                  "name": "pointer",
                  "type": "string"
                }
              ],
              "internalType": "struct Metadata",
              "name": "metadata",
              "type": "tuple"
            },
            {
              "internalType": "enum IStrategy.Status",
              "name": "recipientStatus",
              "type": "uint8"
            },
            {
              "internalType": "enum IStrategy.Status",
              "name": "milestonesReviewStatus",
              "type": "uint8"
            }
          ],
          "internalType": "struct ExecutorSupplierVotingStrategy.Recipient",
          "name": "",
          "type": "tuple"
        }
      ],
      "stateMutability": "view",
      "type": "function"
    },
    {
      "inputs": [
        {
          "internalType": "address",
          "name": "_recipientId",
          "type": "address"
        }
      ],
      "name": "getRecipientStatus",
      "outputs": [
        {
          "internalType": "enum IStrategy.Status",
          "name": "",
          "type": "uint8"
        }
      ],
      "stateMutability": "view",
      "type": "function"
    },
    {
      "inputs": [],
      "name": "getStrategyId",
      "outputs": [
        {
          "internalType": "bytes32",
          "name": "",
          "type": "bytes32"
        }
      ],
      "stateMutability": "view",
      "type": "function"
    },
    {
      "inputs": [],
      "name": "grantAmountRequired",
      "outputs": [
        {
          "internalType": "bool",
          "name": "",
          "type": "bool"
        }
      ],
      "stateMutability": "view",
      "type": "function"
    },
    {
      "inputs": [
        {
          "internalType": "uint256",
          "name": "_amount",
          "type": "uint256"
        }
      ],
      "name": "increasePoolAmount",
      "outputs": [],
      "stateMutability": "nonpayable",
      "type": "function"
    },
    {
      "inputs": [
        {
          "internalType": "uint256",
          "name": "_poolId",
          "type": "uint256"
        },
        {
          "internalType": "bytes",
          "name": "_data",
          "type": "bytes"
        }
      ],
      "name": "initialize",
      "outputs": [],
      "stateMutability": "nonpayable",
      "type": "function"
    },
    {
      "inputs": [],
      "name": "isPoolActive",
      "outputs": [
        {
          "internalType": "bool",
          "name": "",
          "type": "bool"
        }
      ],
      "stateMutability": "view",
      "type": "function"
    },
    {
      "inputs": [
        {
          "internalType": "address",
          "name": "_allocator",
          "type": "address"
        }
      ],
      "name": "isValidAllocator",
      "outputs": [
        {
          "internalType": "bool",
          "name": "",
          "type": "bool"
        }
      ],
      "stateMutability": "view",
      "type": "function"
    },
    {
      "inputs": [],
      "name": "metadataRequired",
      "outputs": [
        {
          "internalType": "bool",
          "name": "",
          "type": "bool"
        }
      ],
      "stateMutability": "view",
      "type": "function"
    },
    {
      "inputs": [
        {
          "internalType": "address",
          "name": "",
          "type": "address"
        },
        {
          "internalType": "uint256",
          "name": "",
          "type": "uint256"
        }
      ],
      "name": "milestones",
      "outputs": [
        {
          "internalType": "uint256",
          "name": "amountPercentage",
          "type": "uint256"
        },
        {
          "components": [
            {
              "internalType": "uint256",
              "name": "protocol",
              "type": "uint256"
            },
            {
              "internalType": "string",
              "name": "pointer",
              "type": "string"
            }
          ],
          "internalType": "struct Metadata",
          "name": "metadata",
          "type": "tuple"
        },
        {
          "internalType": "enum IStrategy.Status",
          "name": "milestoneStatus",
          "type": "uint8"
        },
        {
          "internalType": "string",
          "name": "description",
          "type": "string"
        }
      ],
      "stateMutability": "view",
      "type": "function"
    },
    {
      "inputs": [
        {
          "internalType": "address",
          "name": "_recipientId",
          "type": "address"
        },
        {
          "components": [
            {
              "internalType": "uint256",
              "name": "amountPercentage",
              "type": "uint256"
            },
            {
              "components": [
                {
                  "internalType": "uint256",
                  "name": "protocol",
                  "type": "uint256"
                },
                {
                  "internalType": "string",
                  "name": "pointer",
                  "type": "string"
                }
              ],
              "internalType": "struct Metadata",
              "name": "metadata",
              "type": "tuple"
            },
            {
              "internalType": "enum IStrategy.Status",
              "name": "milestoneStatus",
              "type": "uint8"
            },
            {
              "internalType": "string",
              "name": "description",
              "type": "string"
            }
          ],
          "internalType": "struct ExecutorSupplierVotingStrategy.Milestone[]",
          "name": "_milestones",
          "type": "tuple[]"
        }
      ],
      "name": "offerMilestones",
      "outputs": [],
      "stateMutability": "nonpayable",
      "type": "function"
    },
    {
      "inputs": [
        {
          "internalType": "bytes",
          "name": "_data",
          "type": "bytes"
        },
        {
          "internalType": "address",
          "name": "_sender",
          "type": "address"
        }
      ],
      "name": "registerRecipient",
      "outputs": [
        {
          "internalType": "address",
          "name": "recipientId",
          "type": "address"
        }
      ],
      "stateMutability": "payable",
      "type": "function"
    },
    {
      "inputs": [],
      "name": "registryGating",
      "outputs": [
        {
          "internalType": "bool",
          "name": "",
          "type": "bool"
        }
      ],
      "stateMutability": "view",
      "type": "function"
    },
    {
      "inputs": [
        {
          "internalType": "address",
          "name": "_recipientId",
          "type": "address"
        },
        {
          "internalType": "enum IStrategy.Status",
          "name": "_status",
          "type": "uint8"
        }
      ],
      "name": "reviewOfferedtMilestones",
      "outputs": [],
      "stateMutability": "nonpayable",
      "type": "function"
    },
    {
      "inputs": [
        {
          "internalType": "address",
          "name": "_recipientId",
          "type": "address"
        },
        {
          "internalType": "uint256",
          "name": "_milestoneId",
          "type": "uint256"
        },
        {
          "internalType": "enum IStrategy.Status",
          "name": "_status",
          "type": "uint8"
        }
      ],
      "name": "reviewSubmitedMilestone",
      "outputs": [],
      "stateMutability": "nonpayable",
      "type": "function"
    },
    {
      "inputs": [
        {
          "internalType": "bool",
          "name": "_flag",
          "type": "bool"
        }
      ],
      "name": "setPoolActive",
      "outputs": [],
      "stateMutability": "nonpayable",
      "type": "function"
    },
    {
      "inputs": [
        {
          "internalType": "uint256",
          "name": "_newPercentage",
          "type": "uint256"
        },
        {
          "internalType": "bytes32",
          "name": "_profileId",
          "type": "bytes32"
        }
      ],
      "name": "setThresholdPercentage",
      "outputs": [],
      "stateMutability": "nonpayable",
      "type": "function"
    },
    {
      "inputs": [
        {
          "internalType": "address",
          "name": "_recipientId",
          "type": "address"
        },
        {
          "internalType": "uint256",
          "name": "_milestoneId",
          "type": "uint256"
        },
        {
          "components": [
            {
              "internalType": "uint256",
              "name": "protocol",
              "type": "uint256"
            },
            {
              "internalType": "string",
              "name": "pointer",
              "type": "string"
            }
          ],
          "internalType": "struct Metadata",
          "name": "_metadata",
          "type": "tuple"
        }
      ],
      "name": "submitMilestone",
      "outputs": [],
      "stateMutability": "nonpayable",
      "type": "function"
    },
    {
      "inputs": [
        {
          "internalType": "uint256",
          "name": "",
          "type": "uint256"
        }
      ],
      "name": "submittedvMilestones",
      "outputs": [
        {
          "internalType": "uint256",
          "name": "votesFor",
          "type": "uint256"
        },
        {
          "internalType": "uint256",
          "name": "votesAgainst",
          "type": "uint256"
        }
      ],
      "stateMutability": "view",
      "type": "function"
    },
    {
      "inputs": [],
      "name": "thresholdPercentage",
      "outputs": [
        {
          "internalType": "uint256",
          "name": "",
          "type": "uint256"
        }
      ],
      "stateMutability": "view",
      "type": "function"
    },
    {
      "inputs": [],
      "name": "totalSupply",
      "outputs": [
        {
          "internalType": "uint256",
          "name": "",
          "type": "uint256"
        }
      ],
      "stateMutability": "view",
      "type": "function"
    },
    {
      "inputs": [
        {
          "internalType": "address",
          "name": "",
          "type": "address"
        }
      ],
      "name": "upcomingMilestone",
      "outputs": [
        {
          "internalType": "uint256",
          "name": "",
          "type": "uint256"
        }
      ],
      "stateMutability": "view",
      "type": "function"
    },
    {
      "stateMutability": "payable",
      "type": "receive"
    }
  ],
  "bytecode": "0x60c060405260466006553480156200001657600080fd5b5060405162004845380380620048458339810160408190526200003991620000c4565b6001600160a01b038216608052604051829082906200005d9082906020016200019f565b60408051601f19818403018152919052805160209091012060a0525050600160035550620001d49050565b634e487b7160e01b600052604160045260246000fd5b60005b83811015620000bb578181015183820152602001620000a1565b50506000910152565b60008060408385031215620000d857600080fd5b82516001600160a01b0381168114620000f057600080fd5b60208401519092506001600160401b03808211156200010e57600080fd5b818501915085601f8301126200012357600080fd5b81518181111562000138576200013862000088565b604051601f8201601f19908116603f0116810190838211818310171562000163576200016362000088565b816040528281528860208487010111156200017d57600080fd5b620001908360208301602088016200009e565b80955050505050509250929050565b6020815260008251806020840152620001c08160408501602087016200009e565b601f01601f19169190910160400192915050565b60805160a05161461362000232600039600061039d01526000818161022f015281816113e101528181611e050152818161224d0152818161259d0152818161284301528181612a5f01528181612c21015261305b01526146136000f3fe6080604052600436106101f25760003560e01c80639be2ccf51161010d578063cb0e85a6116100a0578063eb11af931161006f578063eb11af9314610602578063edd146cc1461062f578063ef2920fc1461064f578063f5b0dfb714610662578063f83067e71461068257600080fd5b8063cb0e85a614610588578063df868ed3146105a7578063e2372b58146105bf578063e8eeb806146105ec57600080fd5b8063b2b878d0116100dc578063b2b878d0146104eb578063b3eae7ab14610518578063b5f620ce14610538578063c7a892bf1461055857600080fd5b80639be2ccf5146104695780639ffaa87514610489578063a0cf0aea146104a9578063a647d23e146104d157600080fd5b80633bf3577d116101855780634d31d087116101545780634d31d087146103d65780634ed2859e1461040657806362812a391461041c57806378f0184d1461044957600080fd5b80633bf3577d14610325578063404e73e21461034557806342fda9c71461038e5780634ab4ba42146103c157600080fd5b80632a835b4b116101c15780632a835b4b146102bd5780632bbe0cae146102dd57806336592c0e146102f057806338fff2d01461031057600080fd5b80630a6f0ee9146101fe57806315cc481e1461022057806318160ddd1461026c57806322a4e42d1461029057600080fd5b366101f957005b600080fd5b34801561020a57600080fd5b5061021e6102193660046135be565b6106a2565b005b34801561022c57600080fd5b507f00000000000000000000000000000000000000000000000000000000000000005b6040516001600160a01b0390911681526020015b60405180910390f35b34801561027857600080fd5b5061028260055481565b604051908152602001610263565b34801561029c57600080fd5b506102b06102ab366004613635565b6106c2565b6040516102639190613700565b3480156102c957600080fd5b5061021e6102d83660046137a5565b6108b6565b61024f6102eb3660046137c7565b6109b5565b3480156102fc57600080fd5b506102b061030b366004613635565b6109da565b34801561031c57600080fd5b50600154610282565b34801561033157600080fd5b5061021e610340366004613818565b610bc3565b34801561035157600080fd5b5061037961036036600461386c565b600f602052600090815260409020805460019091015482565b60408051928352602083019190915201610263565b34801561039a57600080fd5b507f0000000000000000000000000000000000000000000000000000000000000000610282565b3480156103cd57600080fd5b50600254610282565b3480156103e257600080fd5b506103f66103f1366004613635565b610e84565b6040519015158152602001610263565b34801561041257600080fd5b5061028260065481565b34801561042857600080fd5b5061043c610437366004613635565b610e8f565b6040516102639190613885565b34801561045557600080fd5b5061021e610464366004613915565b610ea0565b34801561047557600080fd5b506004546103f69062010000900460ff1681565b34801561049557600080fd5b5061021e6104a4366004613aa0565b61109c565b3480156104b557600080fd5b5061024f73eeeeeeeeeeeeeeeeeeeeeeeeeeeeeeeeeeeeeeee81565b3480156104dd57600080fd5b506004546103f69060ff1681565b3480156104f757600080fd5b5061050b610506366004613ad7565b6115a4565b6040516102639190613bab565b34801561052457600080fd5b5061021e610533366004613c03565b6116a2565b34801561054457600080fd5b5061021e610553366004613c3f565b611b31565b34801561056457600080fd5b50610578610573366004613c5c565b611b7d565b6040516102639493929190613c88565b34801561059457600080fd5b506004546103f690610100900460ff1681565b3480156105b357600080fd5b5060005460ff166103f6565b3480156105cb57600080fd5b506102826105da366004613635565b600e6020526000908152604090205481565b3480156105f857600080fd5b5061028260085481565b34801561060e57600080fd5b5061062261061d366004613635565b611cff565b6040516102639190613ccb565b34801561063b57600080fd5b5061021e61064a366004613cd9565b611d0a565b61021e61065d3660046137c7565b611d6a565b34801561066e57600080fd5b5061021e61067d36600461386c565b611d88565b34801561068e57600080fd5b5061062261069d366004613c5c565b611db2565b6106aa611dfa565b6106b2611e45565b6106bd838383611e68565b505050565b6001600160a01b0381166000908152600d60209081526040808320805482518185028101850190935280835260609492939192909184015b828210156108ab578382906000526020600020906005020160405180608001604052908160008201548152602001600182016040518060400160405290816000820154815260200160018201805461075190613d1f565b80601f016020809104026020016040519081016040528092919081815260200182805461077d90613d1f565b80156107ca5780601f1061079f576101008083540402835291602001916107ca565b820191906000526020600020905b8154815290600101906020018083116107ad57829003601f168201915b505050919092525050508152600382015460209091019060ff1660068111156107f5576107f56136c8565b6006811115610806576108066136c8565b815260200160048201805461081a90613d1f565b80601f016020809104026020016040519081016040528092919081815260200182805461084690613d1f565b80156108935780601f1061086857610100808354040283529160200191610893565b820191906000526020600020905b81548152906001019060200180831161087657829003601f168201915b505050505081525050815260200190600101906106fa565b505050509050919050565b600754604051630e6e1ae360e21b8152600481018390523360248201526001600160a01b03909116906339b86b8c90604401602060405180830381865afa158015610905573d6000803e3d6000fd5b505050506040513d601f19601f820116820180604052508101906109299190613d59565b6109695760405162461bcd60e51b815260206004820152600c60248201526b15539055551213d49256915160a21b60448201526064015b60405180910390fd5b60648211156109af5760405162461bcd60e51b8152602060048201526012602482015271496e76616c69642070657263656e7461676560701b6044820152606401610960565b50600655565b60006109bf611dfa565b6109c7611e45565b6109d18383611eff565b90505b92915050565b6001600160a01b0381166000908152600c60209081526040808320805482518185028101850190935280835260609492939192909184015b828210156108ab5783829060005260206000209060050201604051806080016040529081600082015481526020016001820160405180604001604052908160008201548152602001600182018054610a6990613d1f565b80601f0160208091040260200160405190810160405280929190818152602001828054610a9590613d1f565b8015610ae25780601f10610ab757610100808354040283529160200191610ae2565b820191906000526020600020905b815481529060010190602001808311610ac557829003601f168201915b505050919092525050508152600382015460209091019060ff166006811115610b0d57610b0d6136c8565b6006811115610b1e57610b1e6136c8565b8152602001600482018054610b3290613d1f565b80601f0160208091040260200160405190810160405280929190818152602001828054610b5e90613d1f565b8015610bab5780601f10610b8057610100808354040283529160200191610bab565b820191906000526020600020905b815481529060010190602001808311610b8e57829003601f168201915b50505050508152505081526020019060010190610a12565b6001600160a01b0383163314610bec5760405163075fd2b160e01b815260040160405180910390fd5b6001600160a01b038084166000908152600a60209081526040808320815160c081018352815460ff8116151582526101009004909516858401526001810154858301528151808301909252600281018054835260038201805495969592946060870194939084019190610c5e90613d1f565b80601f0160208091040260200160405190810160405280929190818152602001828054610c8a90613d1f565b8015610cd75780601f10610cac57610100808354040283529160200191610cd7565b820191906000526020600020905b815481529060010190602001808311610cba57829003601f168201915b505050919092525050508152600482015460209091019060ff166006811115610d0257610d026136c8565b6006811115610d1357610d136136c8565b81526020016004820160019054906101000a900460ff166006811115610d3b57610d3b6136c8565b6006811115610d4c57610d4c6136c8565b9052509050600281608001516006811115610d6957610d696136c8565b14610d875760405163392c16fb60e21b815260040160405180910390fd5b6001600160a01b0384166000908152600d602052604090208054841115610dc157604051632f1f68e160e11b815260040160405180910390fd5b6000818581548110610dd557610dd5613d76565b6000918252602090912060059091020190506002600382015460ff166006811115610e0257610e026136c8565b03610e2057604051637f46ed2760e11b815260040160405180910390fd5b8360018201610e2f8282613dda565b505060038101805460ff191660011790556040517f8673cfb5a2cbad812463bdfd7c85511f29c804579a86d318889ab9251553996190610e7490889088908890613ed2565b60405180910390a1505050505050565b60006109d482612230565b610e976132db565b6109d4826122d5565b6000336001600160a01b0384161480610ebe5750610ebe8333612445565b905080610ede5760405163075fd2b160e01b815260040160405180910390fd5b6001600160a01b0383166000908152600a602052604090206002600482015460ff166006811115610f1157610f116136c8565b14610f2f5760405163392c16fb60e21b815260040160405180910390fd5b60026004820154610100900460ff166006811115610f4f57610f4f6136c8565b03610f6d576040516305ca31d360e51b815260040160405180910390fd5b610f768461253d565b60005b8351811015611050576001600160a01b0385166000908152600c602052604090208451859083908110610fae57610fae613d76565b60209081029190910181015182546001818101855560009485529383902082516005909202019081558183015180519482019485559283015191939092916002840190610ffb9082613f6b565b505050604082015160038201805460ff19166001836006811115611021576110216136c8565b02179055506060820151600482019061103a9082613f6b565b505050808061104890614040565b915050610f79565b508251604080516001600160a01b038716815260208101929092527f8a5603111f154f43104afe04452c6a93024a972cb6a0af72e6f38bcce68625d5910160405180910390a150505050565b336110a681612573565b6001600160a01b038085166000908152600a60209081526040808320815160c081018352815460ff811615158252610100900490951685840152600181015485830152815180830190925260028101805483526003820180549596959294606087019493908401919061111890613d1f565b80601f016020809104026020016040519081016040528092919081815260200182805461114490613d1f565b80156111915780601f1061116657610100808354040283529160200191611191565b820191906000526020600020905b81548152906001019060200180831161117457829003601f168201915b505050919092525050508152600482015460209091019060ff1660068111156111bc576111bc6136c8565b60068111156111cd576111cd6136c8565b81526020016004820160019054906101000a900460ff1660068111156111f5576111f56136c8565b6006811115611206576112066136c8565b9052509050600281608001516006811115611223576112236136c8565b146112415760405163392c16fb60e21b815260040160405180910390fd5b6001600160a01b0385166000908152600d60205260409020805485111561127b57604051632f1f68e160e11b815260040160405180910390fd5b600081868154811061128f5761128f613d76565b6000918252602090912060059091020190506001600382015460ff1660068111156112bc576112bc6136c8565b146112da57604051635b2fe71d60e11b815260040160405180910390fd5b336000908152600b60205260408120546006546005549192916064916112ff91614059565b6113099190614070565b9050600287600681111561131f5761131f6136c8565b0361148c576000888152600f602052604081208054849290611342908490614092565b90915550506000888152600f60205260409020548110156114875760038301805488919060ff1916600183600681111561137e5761137e6136c8565b02179055506040805160018082528183019092526000916020808301908036833701905050905089816000815181106113b9576113b9613d76565b6001600160a01b039283166020918202929092010152600154604051631d2fdec960e11b81527f000000000000000000000000000000000000000000000000000000000000000090921691633a5fbd92916114189185906004016140a5565b600060405180830381600087803b15801561143257600080fd5b505af1158015611446573d6000803e3d6000fd5b505050507ff1af82b65c631a030029b10ea8f00f68290285c7c797644155b8f23969ca1d638a8a8a60405161147d9392919061410c565b60405180910390a1505b61155e565b60038760068111156114a0576114a06136c8565b0361155e576000888152600f6020526040812060010180548492906114c6908490614092565b90915550506000888152600f602052604090206001015481101561155e5760038301805488919060ff19166001836006811115611505576115056136c8565b02179055506000888152600f602052604080822082815560010191909155517ff1af82b65c631a030029b10ea8f00f68290285c7c797644155b8f23969ca1d6390611555908b908b908b9061410c565b60405180910390a15b7f4460beb477b3843656610a89bd67c551d2a78131b5a955ddccd5eb9aa218c8c38989896040516115919392919061410c565b60405180910390a1505050505050505050565b815181516060919081146115cb57604051633da4c02b60e11b815260040160405180910390fd5b6000816001600160401b038111156115e5576115e56133e8565b60405190808252806020026020018201604052801561162a57816020015b60408051808201909152600080825260208201528152602001906001900390816116035790505b50905060005b828110156116995761167486828151811061164d5761164d613d76565b602002602001015186838151811061166757611667613d76565b6020026020010151612625565b82828151811061168657611686613d76565b6020908102919091010152600101611630565b50949350505050565b336116ac81612573565b6001600160a01b0383166000908152600a6020526040902060026004820154610100900460ff1660068111156116e4576116e46136c8565b03611702576040516305ca31d360e51b815260040160405180910390fd5b336000908152600b602052604081205460065460055491929160649161172791614059565b6117319190614070565b90506002856006811115611747576117476136c8565b03611a0f576001600160a01b0386166000908152600c602052604081206001018054849290611777908490614092565b90915550506001600160a01b0386166000908152600c6020526040902060010154811015611a0a576001600160a01b0386166000908152600a60205260409020600401805486919061ff0019166101008360068111156117d9576117d96136c8565b02179055506001600160a01b0386166000908152600c6020908152604080832080548251818502810185019093528083526119cd948b9484015b828210156119c4578382906000526020600020906005020160405180608001604052908160008201548152602001600182016040518060400160405290816000820154815260200160018201805461186a90613d1f565b80601f016020809104026020016040519081016040528092919081815260200182805461189690613d1f565b80156118e35780601f106118b8576101008083540402835291602001916118e3565b820191906000526020600020905b8154815290600101906020018083116118c657829003601f168201915b505050919092525050508152600382015460209091019060ff16600681111561190e5761190e6136c8565b600681111561191f5761191f6136c8565b815260200160048201805461193390613d1f565b80601f016020809104026020016040519081016040528092919081815260200182805461195f90613d1f565b80156119ac5780601f10611981576101008083540402835291602001916119ac565b820191906000526020600020905b81548152906001019060200180831161198f57829003601f168201915b50505050508152505081526020019060010190611813565b50505050612670565b6040516001600160a01b03871681527f7b05d1f85b1ac2e76c0d8dbb0dfa809df6788f66bbeeb837b2b5fae4f64c00639060200160405180910390a15b611b00565b6003856006811115611a2357611a236136c8565b03611b00576001600160a01b0386166000908152600c602052604081206002018054849290611a53908490614092565b90915550506001600160a01b0386166000908152600c6020526040902060020154811015611b00576001600160a01b0386166000908152600a60205260409020600401805486919061ff001916610100836006811115611ab557611ab56136c8565b0217905550611ac38661253d565b6040516001600160a01b03871681527f5a90817477dd8f83cfe5d429e1dc84ad5a25cb72b83291c707c6f8f5c4f2ac849060200160405180910390a15b7f30dae55c386c6176f3f7b7ee6ad4df33970f2e442cb0142e978cf78fd8ae138d8686604051610e74929190614130565b33611b3b81612573565b611b44826128f4565b60405182151581527fd94c9bc4d43c51d8dc345a016d8e3d994432fac68e72832e4cf3a616bd8efae09060200160405180910390a15050565b600d6020528160005260406000208181548110611b9957600080fd5b9060005260206000209060050201600091509150508060000154908060010160405180604001604052908160008201548152602001600182018054611bdd90613d1f565b80601f0160208091040260200160405190810160405280929190818152602001828054611c0990613d1f565b8015611c565780601f10611c2b57610100808354040283529160200191611c56565b820191906000526020600020905b815481529060010190602001808311611c3957829003601f168201915b505050919092525050506003820154600483018054929360ff90921692611c7c90613d1f565b80601f0160208091040260200160405190810160405280929190818152602001828054611ca890613d1f565b8015611cf55780601f10611cca57610100808354040283529160200191611cf5565b820191906000526020600020905b815481529060010190602001808311611cd857829003601f168201915b5050505050905084565b60006109d48261293b565b600081806020019051810190611d209190614158565b9050611d2c8382612950565b7f91efa3d50feccde0d0d202f8ae5c41ca0b2be614cebcb2bd2f4b019396e6568a8383604051611d5d929190614280565b60405180910390a1505050565b611d72611dfa565b611d7a611e45565b611d848282612b09565b5050565b611d90611dfa565b8060026000828254611da29190614092565b90915550611daf90508181565b50565b6001600160a01b0382166000908152600d60205260408120805483908110611ddc57611ddc613d76565b600091825260209091206005909102016003015460ff169392505050565b336001600160a01b037f00000000000000000000000000000000000000000000000000000000000000001614611e435760405163075fd2b160e01b815260040160405180910390fd5b565b600154600003611e4357604051630f68fe6360e21b815260040160405180910390fd5b6001600160a01b0381163014611ec05760405162461bcd60e51b815260206004820152601760248201527f554e415554484f52495a454420646973747269627574650000000000000000006044820152606401610960565b825160005b81811015611ef857611ef0858281518110611ee257611ee2613d76565b602002602001015184612e33565b600101611ec5565b5050505050565b6000611f096131a3565b600080600080611f2c604051806040016040528060008152602001606081525090565b60045460ff1615611f815787806020019051810190611f4b919061432f565b92985090965092509050611f5f8688612445565b611f7c5760405163075fd2b160e01b815260040160405180910390fd5b611fee565b87806020019051810190611f95919061432f565b9297509095506001600160a01b038616151594509250905082611fb85784611fba565b835b9550828015611fd05750611fce8688612445565b155b15611fee5760405163075fd2b160e01b815260040160405180910390fd5b60045462010000900460ff168015612004575081155b15612022576040516303b167dd60e01b815260040160405180910390fd5b60026001600160a01b0387166000908152600a602052604090206004015460ff166006811115612054576120546136c8565b036120725760405163083a81f760e31b815260040160405180910390fd5b600454610100900460ff1680156120955750602081015151158061209557508051155b156120b35760405163c19e07c560e01b815260040160405180910390fd5b6040805160c0810190915260045460009190819060ff166120d457856120d7565b60015b151581526001600160a01b0388166020820152604081018590526060810184905260800160028152602001600190526001600160a01b038881166000908152600a602090815260409182902084518154868401516001600160a81b0319909116911515610100600160a81b031916919091176101009190951602939093178355908301516001830155606083015180516002840190815591810151939450849390919060038401906121899082613f6b565b505050608082015160048201805460ff191660018360068111156121af576121af6136c8565b021790555060a082015160048201805461ff0019166101008360068111156121d9576121d96136c8565b0217905550905050866001600160a01b03167fa197306e3dd5494a61a695381aa809a53b8e377a685e84e404a85d5a8da6cc628a8a60405161221c92919061439c565b60405180910390a250505050505092915050565b6001546040516329e40d4b60e01b81526000916001600160a01b037f000000000000000000000000000000000000000000000000000000000000000016916329e40d4b916122949186906004019182526001600160a01b0316602082015260400190565b602060405180830381865afa1580156122b1573d6000803e3d6000fd5b505050506040513d601f19601f820116820180604052508101906109d49190613d59565b6122dd6132db565b6001600160a01b038083166000908152600a6020908152604091829020825160c081018452815460ff81161515825261010090049094168483015260018101548484015282518084019093526002810180548452600382018054929460608701949093908401919061234e90613d1f565b80601f016020809104026020016040519081016040528092919081815260200182805461237a90613d1f565b80156123c75780601f1061239c576101008083540402835291602001916123c7565b820191906000526020600020905b8154815290600101906020018083116123aa57829003601f168201915b505050919092525050508152600482015460209091019060ff1660068111156123f2576123f26136c8565b6006811115612403576124036136c8565b81526020016004820160019054906101000a900460ff16600681111561242b5761242b6136c8565b600681111561243c5761243c6136c8565b90525092915050565b60075460405163dd93da4360e01b81526001600160a01b038481166004830152600092839291169063dd93da4390602401600060405180830381865afa158015612493573d6000803e3d6000fd5b505050506040513d6000823e601f3d908101601f191682016040526124bb91908101906143c6565b6007548151604051635e8a791560e01b815260048101919091526001600160a01b038681166024830152929350911690635e8a791590604401602060405180830381865afa158015612511573d6000803e3d6000fd5b505050506040513d601f19601f820116820180604052508101906125359190613d59565b949350505050565b6001600160a01b0381166000908152600c60205260408120906125608282613336565b5060006001820181905560029091015550565b6001546040516329e40d4b60e01b815260048101919091526001600160a01b0382811660248301527f000000000000000000000000000000000000000000000000000000000000000016906329e40d4b90604401602060405180830381865afa1580156125e4573d6000803e3d6000fd5b505050506040513d601f19601f820116820180604052508101906126089190613d59565b611daf5760405163075fd2b160e01b815260040160405180910390fd5b60408051808201909152600080825260208201526000612644846122d5565b6040805180820182526020808401516001600160a01b0316825291909201519082015291505092915050565b6001600160a01b0382166000908152600d6020526040812054156126af576001600160a01b0383166000908152600d602052604081206126af91613336565b815160005b818110156127d55760008482815181106126d0576126d0613d76565b60200260200101519050600060068111156126ed576126ed6136c8565b81604001516006811115612703576127036136c8565b1461272157604051632f1f68e160e11b815260040160405180910390fd5b805161272d9085614092565b6001600160a01b0387166000908152600d60209081526040822080546001818101835591845292829020855160059094020192835584820151805191840191825591820151939750849360028401906127869082613f6b565b505050604082015160038201805460ff191660018360068111156127ac576127ac6136c8565b0217905550606082015160048201906127c59082613f6b565b5050600190920191506126b49050565b5081670de0b6b3a7640000146127fe57604051632f1f68e160e11b815260040160405180910390fd5b60008460026005546040516020016128189392919061448c565b60408051601f19818403018152908290526001546305d8703160e31b83529092506001600160a01b037f00000000000000000000000000000000000000000000000000000000000000001691632ec3818891612878918590600401614280565b600060405180830381600087803b15801561289257600080fd5b505af11580156128a6573d6000803e3d6000fd5b5050604080516001600160a01b0389168152602081018690527fb000fb1507aac2465ccb4f6bd1b601c7053279005e9e9932c41946b35c84949b935001905060405180910390a15050505050565b6000805460ff19168215159081179091556040519081527fd94c9bc4d43c51d8dc345a016d8e3d994432fac68e72832e4cf3a616bd8efae09060200160405180910390a150565b6000612946826122d5565b6080015192915050565b612959826131c6565b805160048054602084015160408501511515620100000262ff0000199115156101000261ff00199515159590951661ffff19909316929092179390931792909216919091179055606081015160005b8151811015612a5c578181815181106129c3576129c3613d76565b602002602001015160200151600b60008484815181106129e5576129e5613d76565b6020026020010151600001516001600160a01b03166001600160a01b0316815260200190815260200160002081905550818181518110612a2757612a27613d76565b60200260200101516020015160056000828254612a449190614092565b90915550819050612a5481614040565b9150506129a8565b507f00000000000000000000000000000000000000000000000000000000000000006001600160a01b0316635ab1bd536040518163ffffffff1660e01b8152600401602060405180830381865afa158015612abb573d6000803e3d6000fd5b505050506040513d601f19601f82011682018060405250810190612adf91906144b7565b600780546001600160a01b0319166001600160a01b03929092169190911790556106bd60016128f4565b612b11613215565b6001600160a01b0381163014612b615760405162461bcd60e51b8152602060048201526015602482015274554e415554484f52495a454420616c6c6f6361746560581b6044820152606401610960565b600080600084806020019051810190612b7a91906144d4565b6001600160a01b0383166000908152600a60209081526040808320600e9092529091205493965091945092509015612bc5576040516305ca31d360e51b815260040160405180910390fd5b6002600482015460ff166006811115612be057612be06136c8565b14158015612bff57506002836006811115612bfd57612bfd6136c8565b145b15612d9a5760015460405163068bcd8d60e01b81526000916001600160a01b037f0000000000000000000000000000000000000000000000000000000000000000169163068bcd8d91612c589160040190815260200190565b600060405180830381865afa158015612c75573d6000803e3d6000fd5b505050506040513d6000823e601f3d908101601f19168201604052612c9d9190810190614517565b90508260086000828254612cb19190614092565b90915550506002546008541115612cdb57604051638e81b16f60e01b815260040160405180910390fd5b6001820183905560048201805460ff191660029081179091556040517f94593b52aa436dd31a63e313045c2eb23d43eb2d6f5b4d7797b4432e7b27749091612d2591889190614130565b60405180910390a1846001600160a01b03167f463ffc2cf8b1596445c417388ed30e53eb67cf6668cb2be7f0addf8a78c8441b8360010154836040015189604051612d8c939291909283526001600160a01b03918216602084015216604082015260600190565b60405180910390a250612e25565b6003600482015460ff166006811115612db557612db56136c8565b14158015612dd457506003836006811115612dd257612dd26136c8565b145b15612e255760048101805460ff191660039081179091556040517f94593b52aa436dd31a63e313045c2eb23d43eb2d6f5b4d7797b4432e7b27749091612e1c91879190614130565b60405180910390a15b50505050611d846001600355565b6001600160a01b038083166000908152600e6020908152604080832054600d8352818420600a8452828520835160c081018552815460ff81161515825261010090049097168786015260018101548785015283518085019094526002810180548552600382018054949893979693959294606087019484019190612eb690613d1f565b80601f0160208091040260200160405190810160405280929190818152602001828054612ee290613d1f565b8015612f2f5780601f10612f0457610100808354040283529160200191612f2f565b820191906000526020600020905b815481529060010190602001808311612f1257829003601f168201915b505050919092525050508152600482015460209091019060ff166006811115612f5a57612f5a6136c8565b6006811115612f6b57612f6b6136c8565b81526020016004820160019054906101000a900460ff166006811115612f9357612f936136c8565b6006811115612fa457612fa46136c8565b8152505090506000828481548110612fbe57612fbe613d76565b906000526020600020906005020190508280549050841115612ff357604051632f1f68e160e11b815260040160405180910390fd5b6002600382015460ff16600681111561300e5761300e6136c8565b1461302c57604051635b2fe71d60e11b815260040160405180910390fd5b6000670de0b6b3a76400008260000154846040015161304b9190614059565b6130559190614070565b905060007f00000000000000000000000000000000000000000000000000000000000000006001600160a01b031663068bcd8d6001546040518263ffffffff1660e01b81526004016130a991815260200190565b600060405180830381865afa1580156130c6573d6000803e3d6000fd5b505050506040513d6000823e601f3d908101601f191682016040526130ee9190810190614517565b9050816002600082825461310291906145ca565b9250508190555061311c816040015185602001518461323f565b6001600160a01b0388166000908152600e6020526040812080549161314083614040565b9091555050602080850151604080516001600160a01b039283168152928301859052898216908301528916907fb5b51454adfa840bd593658325a60a50b0216f12eb5d2937efe6cea935675b7d9060600160405180910390a25050505050505050565b60005460ff16611e435760405163cfe7975b60e01b815260040160405180910390fd5b6131ce611dfa565b600154156131ef5760405163439a74c960e01b815260040160405180910390fd5b8060000361321057604051637fcce2a960e01b815260040160405180910390fd5b600155565b60026003540361323857604051633ee5aeb560e01b815260040160405180910390fd5b6002600355565b73eeeeeeeeeeeeeeeeeeeeeeeeeeeeeeeeeeeeeeed196001600160a01b0384160161326e576106bd8282613279565b6106bd838383613295565b60003860003884865af1611d845763b12d13eb6000526004601cfd5b816014528060345263a9059cbb60601b60005260206000604460106000875af13d1560016000511417166132d1576390b8ec186000526004601cfd5b6000603452505050565b6040518060c0016040528060001515815260200160006001600160a01b0316815260200160008152602001613323604051806040016040528060008152602001606081525090565b8152602001600081526020016000905290565b5080546000825560050290600052602060002090810190611daf91905b8082111561339a5760008082556001820181815581613375600285018261339e565b505060038201805460ff1916905561339160048301600061339e565b50600501613353565b5090565b5080546133aa90613d1f565b6000825580601f106133ba575050565b601f016020900490600052602060002090810190611daf91905b8082111561339a57600081556001016133d4565b634e487b7160e01b600052604160045260246000fd5b604051608081016001600160401b0381118282101715613420576134206133e8565b60405290565b604080519081016001600160401b0381118282101715613420576134206133e8565b60405160c081016001600160401b0381118282101715613420576134206133e8565b604051601f8201601f191681016001600160401b0381118282101715613492576134926133e8565b604052919050565b60006001600160401b038211156134b3576134b36133e8565b5060051b60200190565b6001600160a01b0381168114611daf57600080fd5b600082601f8301126134e357600080fd5b813560206134f86134f38361349a565b61346a565b82815260059290921b8401810191818101908684111561351757600080fd5b8286015b8481101561353b57803561352e816134bd565b835291830191830161351b565b509695505050505050565b60006001600160401b0382111561355f5761355f6133e8565b50601f01601f191660200190565b600082601f83011261357e57600080fd5b813561358c6134f382613546565b8181528460208386010111156135a157600080fd5b816020850160208301376000918101602001919091529392505050565b6000806000606084860312156135d357600080fd5b83356001600160401b03808211156135ea57600080fd5b6135f6878388016134d2565b9450602086013591508082111561360c57600080fd5b506136198682870161356d565b925050604084013561362a816134bd565b809150509250925092565b60006020828403121561364757600080fd5b8135613652816134bd565b9392505050565b60005b8381101561367457818101518382015260200161365c565b50506000910152565b60008151808452613695816020860160208601613659565b601f01601f19169290920160200192915050565b805182526000602082015160406020850152612535604085018261367d565b634e487b7160e01b600052602160045260246000fd5b600781106136fc57634e487b7160e01b600052602160045260246000fd5b9052565b60006020808301818452808551808352604092508286019150828160051b87010184880160005b8381101561379757603f19898403018552815160808151855288820151818a870152613755828701826136a9565b91505087820151613768898701826136de565b5060608083015192508582038187015250613783818361367d565b968901969450505090860190600101613727565b509098975050505050505050565b600080604083850312156137b857600080fd5b50508035926020909101359150565b600080604083850312156137da57600080fd5b82356001600160401b038111156137f057600080fd5b6137fc8582860161356d565b925050602083013561380d816134bd565b809150509250929050565b60008060006060848603121561382d57600080fd5b8335613838816134bd565b92506020840135915060408401356001600160401b0381111561385a57600080fd5b84016040818703121561362a57600080fd5b60006020828403121561387e57600080fd5b5035919050565b6020815281511515602082015260018060a01b036020830151166040820152604082015160608201526000606083015160c060808401526138c960e08401826136a9565b905060808401516138dd60a08501826136de565b5060a08401516138f060c08501826136de565b509392505050565b60078110611daf57600080fd5b8035613910816138f8565b919050565b6000806040838503121561392857600080fd5b61393283356134bd565b823591506001600160401b03806020850135111561394f57600080fd5b6020840135840185601f82011261396557600080fd5b6139726134f3823561349a565b81358082526020808301929160051b84010188101561399057600080fd5b602083015b6020843560051b850101811015613a915784813511156139b457600080fd5b80358401601f196080828c03820112156139cd57600080fd5b6139d56133fe565b6020830135815287604084013511156139ed57600080fd5b60408301358301604083828f03011215613a0657600080fd5b613a0e613426565b9250602081013583528860408201351115613a2857600080fd5b613a3b8d6020604084013584010161356d565b602084015250816020820152613a5360608401613905565b60408201528760808401351115613a6957600080fd5b613a7c8c6020608086013586010161356d565b60608201528552505060209283019201613995565b50809450505050509250929050565b600080600060608486031215613ab557600080fd5b8335613ac0816134bd565b925060208401359150604084013561362a816138f8565b60008060408385031215613aea57600080fd5b82356001600160401b0380821115613b0157600080fd5b613b0d868387016134d2565b9350602091508185013581811115613b2457600080fd5b8501601f81018713613b3557600080fd5b8035613b436134f38261349a565b81815260059190911b82018401908481019089831115613b6257600080fd5b8584015b83811015613b9a57803586811115613b7e5760008081fd5b613b8c8c898389010161356d565b845250918601918601613b66565b508096505050505050509250929050565b602080825282518282018190526000919060409081850190868401855b82811015613bf657815180516001600160a01b03168552860151868501529284019290850190600101613bc8565b5091979650505050505050565b60008060408385031215613c1657600080fd5b8235613c21816134bd565b9150602083013561380d816138f8565b8015158114611daf57600080fd5b600060208284031215613c5157600080fd5b813561365281613c31565b60008060408385031215613c6f57600080fd5b8235613c7a816134bd565b946020939093013593505050565b848152608060208201526000613ca160808301866136a9565b613cae60408401866136de565b8281036060840152613cc0818561367d565b979650505050505050565b602081016109d482846136de565b60008060408385031215613cec57600080fd5b8235915060208301356001600160401b03811115613d0957600080fd5b613d158582860161356d565b9150509250929050565b600181811c90821680613d3357607f821691505b602082108103613d5357634e487b7160e01b600052602260045260246000fd5b50919050565b600060208284031215613d6b57600080fd5b815161365281613c31565b634e487b7160e01b600052603260045260246000fd5b601f8211156106bd57600081815260208120601f850160051c81016020861015613db35750805b601f850160051c820191505b81811015613dd257828155600101613dbf565b505050505050565b813581556001808201602080850135601e19863603018112613dfb57600080fd5b850180356001600160401b03811115613e1357600080fd5b8036038383011315613e2457600080fd5b613e3881613e328654613d1f565b86613d8c565b6000601f821160018114613e6e5760008315613e5657508382018501355b600019600385901b1c1916600184901b178655613ec7565b600086815260209020601f19841690835b82811015613e9e57868501880135825593870193908901908701613e7f565b5084821015613ebd5760001960f88660031b161c198785880101351681555b50508683881b0186555b505050505050505050565b60018060a01b0384168152826020820152606060408201528135606082015260006020830135601e19843603018112613f0a57600080fd5b83016020810190356001600160401b03811115613f2657600080fd5b803603821315613f3557600080fd5b604060808501528060a0850152808260c0860137600060c0828601015260c0601f19601f83011685010192505050949350505050565b81516001600160401b03811115613f8457613f846133e8565b613f9881613f928454613d1f565b84613d8c565b602080601f831160018114613fcd5760008415613fb55750858301515b600019600386901b1c1916600185901b178555613dd2565b600085815260208120601f198616915b82811015613ffc57888601518255948401946001909101908401613fdd565b508582101561401a5787850151600019600388901b60f8161c191681555b5050505050600190811b01905550565b634e487b7160e01b600052601160045260246000fd5b6000600182016140525761405261402a565b5060010190565b80820281158282048414176109d4576109d461402a565b60008261408d57634e487b7160e01b600052601260045260246000fd5b500490565b808201808211156109d4576109d461402a565b6000606082018483526020606081850152818551808452608086019150828701935060005b818110156140ef5784516001600160a01b0316835293830193918301916001016140ca565b505084810360408601526000815281810193505050509392505050565b6001600160a01b0384168152602081018390526060810161253560408301846136de565b6001600160a01b03831681526040810161365260208301846136de565b8051613910816134bd565b6000602080838503121561416b57600080fd5b82516001600160401b038082111561418257600080fd5b908401906080828703121561419657600080fd5b61419e6133fe565b82516141a981613c31565b8152828401516141b881613c31565b818501526040838101516141cb81613c31565b828201526060840151838111156141e157600080fd5b80850194505087601f8501126141f657600080fd5b835192506142066134f38461349a565b83815260069390931b8401850192858101908985111561422557600080fd5b948601945b8486101561426e5782868b0312156142425760008081fd5b61424a613426565b8651614255816134bd565b815286880151888201528252948201949086019061422a565b60608401525090979650505050505050565b828152604060208201526000612535604083018461367d565b600082601f8301126142aa57600080fd5b81516142b86134f382613546565b8181528460208386010111156142cd57600080fd5b612535826020830160208701613659565b6000604082840312156142f057600080fd5b6142f8613426565b90508151815260208201516001600160401b0381111561431757600080fd5b61432384828501614299565b60208301525092915050565b6000806000806080858703121561434557600080fd5b8451614350816134bd565b6020860151909450614361816134bd565b6040860151606087015191945092506001600160401b0381111561438457600080fd5b614390878288016142de565b91505092959194509250565b6040815260006143af604083018561367d565b905060018060a01b03831660208301529392505050565b6000602082840312156143d857600080fd5b81516001600160401b03808211156143ef57600080fd5b9083019060c0828603121561440357600080fd5b61440b613448565b825181526020830151602082015260408301518281111561442b57600080fd5b61443787828601614299565b60408301525060608301518281111561444f57600080fd5b61445b878286016142de565b60608301525061446d6080840161414d565b608082015261447e60a0840161414d565b60a082015295945050505050565b6001600160a01b0384168152606081016144a960208301856136de565b826040830152949350505050565b6000602082840312156144c957600080fd5b8151613652816134bd565b6000806000606084860312156144e957600080fd5b83516144f4816134bd565b6020850151909350614505816138f8565b80925050604084015190509250925092565b60006020828403121561452957600080fd5b81516001600160401b038082111561454057600080fd5b9083019060c0828603121561455457600080fd5b61455c613448565b82518152602083015161456e816134bd565b60208201526040830151614581816134bd565b604082015260608301518281111561459857600080fd5b6145a4878286016142de565b6060830152506080830151608082015260a083015160a082015280935050505092915050565b818103818111156109d4576109d461402a56fea2646970667358221220ddae31f57a1f42a1bebe8971e68b40e8a6ea8d21a92055413b2f41ec8cea881264736f6c63430008140033",
  "linkReferences": {},
  "deployedLinkReferences": {}
}