{
  "_format": "hh-sol-artifact-1",
  "contractName": "ExecutorSupplierVotingStrategy",
  "sourceName": "contracts/ExecutorSupplierVotingStrategy.sol",
  "abi": [
    {
      "inputs": [
        {
          "internalType": "address",
          "name": "_allo",
          "type": "address"
        },
        {
          "internalType": "string",
          "name": "_name",
          "type": "string"
        }
      ],
      "stateMutability": "nonpayable",
      "type": "constructor"
    },
    {
      "inputs": [],
      "name": "ALLOCATION_ACTIVE",
      "type": "error"
    },
    {
      "inputs": [],
      "name": "ALLOCATION_EXCEEDS_POOL_AMOUNT",
      "type": "error"
    },
    {
      "inputs": [],
      "name": "ALLOCATION_NOT_ACTIVE",
      "type": "error"
    },
    {
      "inputs": [],
      "name": "ALLOCATION_NOT_ENDED",
      "type": "error"
    },
    {
      "inputs": [],
      "name": "ALREADY_INITIALIZED",
      "type": "error"
    },
    {
      "inputs": [],
      "name": "ALREADY_REVIEWED",
      "type": "error"
    },
    {
      "inputs": [],
      "name": "AMOUNT_MISMATCH",
      "type": "error"
    },
    {
      "inputs": [],
      "name": "ANCHOR_ERROR",
      "type": "error"
    },
    {
      "inputs": [],
      "name": "ARRAY_MISMATCH",
      "type": "error"
    },
    {
      "inputs": [],
      "name": "EXECUTOR_HAT_WEARING_REQUIRED",
      "type": "error"
    },
    {
      "inputs": [],
      "name": "INVALID",
      "type": "error"
    },
    {
      "inputs": [],
      "name": "INVALID_ADDRESS",
      "type": "error"
    },
    {
      "inputs": [],
      "name": "INVALID_FEE",
      "type": "error"
    },
    {
      "inputs": [],
      "name": "INVALID_METADATA",
      "type": "error"
    },
    {
      "inputs": [],
      "name": "INVALID_MILESTONE",
      "type": "error"
    },
    {
      "inputs": [],
      "name": "INVALID_MILESTONES_PERCENTAGE",
      "type": "error"
    },
    {
      "inputs": [],
      "name": "INVALID_MILESTONE_STATUS",
      "type": "error"
    },
    {
      "inputs": [],
      "name": "INVALID_REGISTRATION",
      "type": "error"
    },
    {
      "inputs": [],
      "name": "INVALID_STATUS",
      "type": "error"
    },
    {
      "inputs": [],
      "name": "IS_APPROVED_STRATEGY",
      "type": "error"
    },
    {
      "inputs": [],
      "name": "MILESTONES_ALREADY_SET",
      "type": "error"
    },
    {
      "inputs": [],
      "name": "MILESTONE_ALREADY_ACCEPTED",
      "type": "error"
    },
    {
      "inputs": [],
      "name": "MISMATCH",
      "type": "error"
    },
    {
      "inputs": [],
      "name": "NONCE_NOT_AVAILABLE",
      "type": "error"
    },
    {
      "inputs": [],
      "name": "NOT_APPROVED_STRATEGY",
      "type": "error"
    },
    {
      "inputs": [],
      "name": "NOT_ENOUGH_FUNDS",
      "type": "error"
    },
    {
      "inputs": [],
      "name": "NOT_IMPLEMENTED",
      "type": "error"
    },
    {
      "inputs": [],
      "name": "NOT_INITIALIZED",
      "type": "error"
    },
    {
      "inputs": [],
      "name": "NOT_PENDING_OWNER",
      "type": "error"
    },
    {
      "inputs": [],
      "name": "POOL_ACTIVE",
      "type": "error"
    },
    {
      "inputs": [],
      "name": "POOL_INACTIVE",
      "type": "error"
    },
    {
      "inputs": [],
      "name": "RECIPIENT_ALREADY_ACCEPTED",
      "type": "error"
    },
    {
      "inputs": [
        {
          "internalType": "address",
          "name": "recipientId",
          "type": "address"
        }
      ],
      "name": "RECIPIENT_ERROR",
      "type": "error"
    },
    {
      "inputs": [],
      "name": "RECIPIENT_NOT_ACCEPTED",
      "type": "error"
    },
    {
      "inputs": [],
      "name": "REGISTRATION_NOT_ACTIVE",
      "type": "error"
    },
    {
      "inputs": [],
      "name": "ReentrancyGuardReentrantCall",
      "type": "error"
    },
    {
      "inputs": [],
      "name": "SUPPLIER_HAT_WEARING_REQUIRED",
      "type": "error"
    },
    {
      "inputs": [],
      "name": "UNAUTHORIZED",
      "type": "error"
    },
    {
      "inputs": [],
      "name": "ZERO_ADDRESS",
      "type": "error"
    },
    {
      "anonymous": false,
      "inputs": [
        {
          "indexed": true,
          "internalType": "address",
          "name": "recipientId",
          "type": "address"
        },
        {
          "indexed": false,
          "internalType": "uint256",
          "name": "amount",
          "type": "uint256"
        },
        {
          "indexed": false,
          "internalType": "address",
          "name": "token",
          "type": "address"
        },
        {
          "indexed": false,
          "internalType": "address",
          "name": "sender",
          "type": "address"
        }
      ],
      "name": "Allocated",
      "type": "event"
    },
    {
      "anonymous": false,
      "inputs": [
        {
          "indexed": true,
          "internalType": "address",
          "name": "recipientId",
          "type": "address"
        },
        {
          "indexed": false,
          "internalType": "address",
          "name": "recipientAddress",
          "type": "address"
        },
        {
          "indexed": false,
          "internalType": "uint256",
          "name": "amount",
          "type": "uint256"
        },
        {
          "indexed": false,
          "internalType": "address",
          "name": "sender",
          "type": "address"
        }
      ],
      "name": "Distributed",
      "type": "event"
    },
    {
      "anonymous": false,
      "inputs": [
        {
          "indexed": false,
          "internalType": "uint256",
          "name": "poolId",
          "type": "uint256"
        },
        {
          "indexed": false,
          "internalType": "bytes",
          "name": "data",
          "type": "bytes"
        }
      ],
      "name": "Initialized",
      "type": "event"
    },
    {
      "anonymous": false,
      "inputs": [
        {
          "indexed": false,
          "internalType": "address",
          "name": "recipientId",
          "type": "address"
        },
        {
          "indexed": false,
          "internalType": "uint256",
          "name": "milestoneId",
          "type": "uint256"
        },
        {
          "indexed": false,
          "internalType": "enum IStrategy.Status",
          "name": "status",
          "type": "uint8"
        }
      ],
      "name": "MilestoneStatusChanged",
      "type": "event"
    },
    {
      "anonymous": false,
      "inputs": [
        {
          "indexed": false,
          "internalType": "address",
          "name": "recipientId",
          "type": "address"
        },
        {
          "indexed": false,
          "internalType": "uint256",
          "name": "milestoneId",
          "type": "uint256"
        },
        {
          "components": [
            {
              "internalType": "uint256",
              "name": "protocol",
              "type": "uint256"
            },
            {
              "internalType": "string",
              "name": "pointer",
              "type": "string"
            }
          ],
          "indexed": false,
          "internalType": "struct Metadata",
          "name": "metadata",
          "type": "tuple"
        }
      ],
      "name": "MilestoneSubmitted",
      "type": "event"
    },
    {
      "anonymous": false,
      "inputs": [
        {
          "indexed": false,
          "internalType": "address",
          "name": "recipientId",
          "type": "address"
        },
        {
          "indexed": false,
          "internalType": "uint256",
          "name": "milestonesLength",
          "type": "uint256"
        }
      ],
      "name": "MilestonesOffered",
      "type": "event"
    },
    {
      "anonymous": false,
      "inputs": [
        {
          "indexed": false,
          "internalType": "address",
          "name": "recipientId",
          "type": "address"
        },
        {
          "indexed": false,
          "internalType": "enum IStrategy.Status",
          "name": "status",
          "type": "uint8"
        }
      ],
      "name": "MilestonesReviewed",
      "type": "event"
    },
    {
      "anonymous": false,
      "inputs": [
        {
          "indexed": false,
          "internalType": "address",
          "name": "recipientId",
          "type": "address"
        },
        {
          "indexed": false,
          "internalType": "uint256",
          "name": "milestonesLength",
          "type": "uint256"
        }
      ],
      "name": "MilestonesSet",
      "type": "event"
    },
    {
      "anonymous": false,
      "inputs": [
        {
          "indexed": false,
          "internalType": "address",
          "name": "recipientId",
          "type": "address"
        }
      ],
      "name": "OfferedMilestonesAccepted",
      "type": "event"
    },
    {
      "anonymous": false,
      "inputs": [
        {
          "indexed": false,
          "internalType": "address",
          "name": "recipientId",
          "type": "address"
        }
      ],
      "name": "OfferedMilestonesRejected",
      "type": "event"
    },
    {
      "anonymous": false,
      "inputs": [
        {
          "indexed": false,
          "internalType": "bool",
          "name": "active",
          "type": "bool"
        }
      ],
      "name": "PoolActive",
      "type": "event"
    },
    {
      "anonymous": false,
      "inputs": [],
      "name": "ProjectRejectDeclined",
      "type": "event"
    },
    {
      "anonymous": false,
      "inputs": [],
      "name": "ProjectRejected",
      "type": "event"
    },
    {
      "anonymous": false,
      "inputs": [
        {
          "indexed": false,
          "internalType": "address",
          "name": "recipientId",
          "type": "address"
        },
        {
          "indexed": false,
          "internalType": "enum IStrategy.Status",
          "name": "status",
          "type": "uint8"
        }
      ],
      "name": "RecipientStatusChanged",
      "type": "event"
    },
    {
      "anonymous": false,
      "inputs": [
        {
          "indexed": true,
          "internalType": "address",
          "name": "recipientId",
          "type": "address"
        },
        {
          "indexed": false,
          "internalType": "bytes",
          "name": "data",
          "type": "bytes"
        },
        {
          "indexed": false,
          "internalType": "address",
          "name": "sender",
          "type": "address"
        }
      ],
      "name": "Registered",
      "type": "event"
    },
    {
      "anonymous": false,
      "inputs": [
        {
          "indexed": false,
          "internalType": "address",
          "name": "recipientId",
          "type": "address"
        },
        {
          "indexed": false,
          "internalType": "uint256",
          "name": "milestoneId",
          "type": "uint256"
        },
        {
          "indexed": false,
          "internalType": "enum IStrategy.Status",
          "name": "status",
          "type": "uint8"
        }
      ],
      "name": "SubmittedvMilestoneReviewed",
      "type": "event"
    },
    {
      "inputs": [],
      "name": "NATIVE",
      "outputs": [
        {
          "internalType": "address",
          "name": "",
          "type": "address"
        }
      ],
      "stateMutability": "view",
      "type": "function"
    },
    {
      "inputs": [
        {
          "internalType": "bytes",
          "name": "_data",
          "type": "bytes"
        },
        {
          "internalType": "address",
          "name": "_sender",
          "type": "address"
        }
      ],
      "name": "allocate",
      "outputs": [],
      "stateMutability": "payable",
      "type": "function"
    },
    {
      "inputs": [],
      "name": "allocatedGrantAmount",
      "outputs": [
        {
          "internalType": "uint256",
          "name": "",
          "type": "uint256"
        }
      ],
      "stateMutability": "view",
      "type": "function"
    },
    {
      "inputs": [
        {
          "internalType": "address[]",
          "name": "_recipientIds",
          "type": "address[]"
        },
        {
          "internalType": "bytes",
          "name": "_data",
          "type": "bytes"
        },
        {
          "internalType": "address",
          "name": "_sender",
          "type": "address"
        }
      ],
      "name": "distribute",
      "outputs": [],
      "stateMutability": "nonpayable",
      "type": "function"
    },
    {
      "inputs": [],
      "name": "executorHat",
      "outputs": [
        {
          "internalType": "uint256",
          "name": "",
          "type": "uint256"
        }
      ],
      "stateMutability": "view",
      "type": "function"
    },
    {
      "inputs": [],
      "name": "getAllo",
      "outputs": [
        {
          "internalType": "contract IAllo",
          "name": "",
          "type": "address"
        }
      ],
      "stateMutability": "view",
      "type": "function"
    },
    {
      "inputs": [
        {
          "internalType": "address",
          "name": "_recipientId",
          "type": "address"
        },
        {
          "internalType": "uint256",
          "name": "_milestoneId",
          "type": "uint256"
        }
      ],
      "name": "getMilestoneStatus",
      "outputs": [
        {
          "internalType": "enum IStrategy.Status",
          "name": "",
          "type": "uint8"
        }
      ],
      "stateMutability": "view",
      "type": "function"
    },
    {
      "inputs": [
        {
          "internalType": "address",
          "name": "_recipientId",
          "type": "address"
        }
      ],
      "name": "getMilestones",
      "outputs": [
        {
          "components": [
            {
              "internalType": "uint256",
              "name": "amountPercentage",
              "type": "uint256"
            },
            {
              "components": [
                {
                  "internalType": "uint256",
                  "name": "protocol",
                  "type": "uint256"
                },
                {
                  "internalType": "string",
                  "name": "pointer",
                  "type": "string"
                }
              ],
              "internalType": "struct Metadata",
              "name": "metadata",
              "type": "tuple"
            },
            {
              "internalType": "enum IStrategy.Status",
              "name": "milestoneStatus",
              "type": "uint8"
            },
            {
              "internalType": "string",
              "name": "description",
              "type": "string"
            }
          ],
          "internalType": "struct ExecutorSupplierVotingStrategy.Milestone[]",
          "name": "",
          "type": "tuple[]"
        }
      ],
      "stateMutability": "view",
      "type": "function"
    },
    {
      "inputs": [
        {
          "internalType": "address",
          "name": "_recipientId",
          "type": "address"
        }
      ],
      "name": "getOffeeredMilestones",
      "outputs": [
        {
          "components": [
            {
              "internalType": "uint256",
              "name": "amountPercentage",
              "type": "uint256"
            },
            {
              "components": [
                {
                  "internalType": "uint256",
                  "name": "protocol",
                  "type": "uint256"
                },
                {
                  "internalType": "string",
                  "name": "pointer",
                  "type": "string"
                }
              ],
              "internalType": "struct Metadata",
              "name": "metadata",
              "type": "tuple"
            },
            {
              "internalType": "enum IStrategy.Status",
              "name": "milestoneStatus",
              "type": "uint8"
            },
            {
              "internalType": "string",
              "name": "description",
              "type": "string"
            }
          ],
          "internalType": "struct ExecutorSupplierVotingStrategy.Milestone[]",
          "name": "",
          "type": "tuple[]"
        }
      ],
      "stateMutability": "view",
      "type": "function"
    },
    {
      "inputs": [
        {
          "internalType": "address",
          "name": "_recipientId",
          "type": "address"
        }
      ],
      "name": "getOfferedMilestonesVotesAgainst",
      "outputs": [
        {
          "internalType": "uint256",
          "name": "",
          "type": "uint256"
        }
      ],
      "stateMutability": "view",
      "type": "function"
    },
    {
      "inputs": [
        {
          "internalType": "address",
          "name": "_recipientId",
          "type": "address"
        }
      ],
      "name": "getOfferedMilestonesVotesFor",
      "outputs": [
        {
          "internalType": "uint256",
          "name": "",
          "type": "uint256"
        }
      ],
      "stateMutability": "view",
      "type": "function"
    },
    {
      "inputs": [
        {
          "internalType": "address[]",
          "name": "_recipientIds",
          "type": "address[]"
        },
        {
          "internalType": "bytes[]",
          "name": "_data",
          "type": "bytes[]"
        }
      ],
      "name": "getPayouts",
      "outputs": [
        {
          "components": [
            {
              "internalType": "address",
              "name": "recipientAddress",
              "type": "address"
            },
            {
              "internalType": "uint256",
              "name": "amount",
              "type": "uint256"
            }
          ],
          "internalType": "struct IStrategy.PayoutSummary[]",
          "name": "",
          "type": "tuple[]"
        }
      ],
      "stateMutability": "view",
      "type": "function"
    },
    {
      "inputs": [],
      "name": "getPoolAmount",
      "outputs": [
        {
          "internalType": "uint256",
          "name": "",
          "type": "uint256"
        }
      ],
      "stateMutability": "view",
      "type": "function"
    },
    {
      "inputs": [],
      "name": "getPoolId",
      "outputs": [
        {
          "internalType": "uint256",
          "name": "",
          "type": "uint256"
        }
      ],
      "stateMutability": "view",
      "type": "function"
    },
    {
      "inputs": [
        {
          "internalType": "address",
          "name": "_recipientId",
          "type": "address"
        }
      ],
      "name": "getRecipient",
      "outputs": [
        {
          "components": [
            {
              "internalType": "bool",
              "name": "useRegistryAnchor",
              "type": "bool"
            },
            {
              "internalType": "address",
              "name": "recipientAddress",
              "type": "address"
            },
            {
              "internalType": "uint256",
              "name": "grantAmount",
              "type": "uint256"
            },
            {
              "components": [
                {
                  "internalType": "uint256",
                  "name": "protocol",
                  "type": "uint256"
                },
                {
                  "internalType": "string",
                  "name": "pointer",
                  "type": "string"
                }
              ],
              "internalType": "struct Metadata",
              "name": "metadata",
              "type": "tuple"
            },
            {
              "internalType": "enum IStrategy.Status",
              "name": "recipientStatus",
              "type": "uint8"
            },
            {
              "internalType": "enum IStrategy.Status",
              "name": "milestonesReviewStatus",
              "type": "uint8"
            }
          ],
          "internalType": "struct ExecutorSupplierVotingStrategy.Recipient",
          "name": "",
          "type": "tuple"
        }
      ],
      "stateMutability": "view",
      "type": "function"
    },
    {
      "inputs": [
        {
          "internalType": "address",
          "name": "_recipientId",
          "type": "address"
        }
      ],
      "name": "getRecipientStatus",
      "outputs": [
        {
          "internalType": "enum IStrategy.Status",
          "name": "",
          "type": "uint8"
        }
      ],
      "stateMutability": "view",
      "type": "function"
    },
    {
      "inputs": [],
      "name": "getRejectProjectVotesAgainst",
      "outputs": [
        {
          "internalType": "uint256",
          "name": "",
          "type": "uint256"
        }
      ],
      "stateMutability": "view",
      "type": "function"
    },
    {
      "inputs": [],
      "name": "getRejectProjectVotesFor",
      "outputs": [
        {
          "internalType": "uint256",
          "name": "",
          "type": "uint256"
        }
      ],
      "stateMutability": "view",
      "type": "function"
    },
    {
      "inputs": [],
      "name": "getStrategyId",
      "outputs": [
        {
          "internalType": "bytes32",
          "name": "",
          "type": "bytes32"
        }
      ],
      "stateMutability": "view",
      "type": "function"
    },
    {
      "inputs": [
        {
          "internalType": "uint256",
          "name": "_milestoneId",
          "type": "uint256"
        }
      ],
      "name": "getSubmittedMilestonesVotesAgainst",
      "outputs": [
        {
          "internalType": "uint256",
          "name": "",
          "type": "uint256"
        }
      ],
      "stateMutability": "view",
      "type": "function"
    },
    {
      "inputs": [
        {
          "internalType": "uint256",
          "name": "_milestoneId",
          "type": "uint256"
        }
      ],
      "name": "getSubmittedMilestonesVotesFor",
      "outputs": [
        {
          "internalType": "uint256",
          "name": "",
          "type": "uint256"
        }
      ],
      "stateMutability": "view",
      "type": "function"
    },
    {
      "inputs": [],
      "name": "getSupplierHatID",
      "outputs": [
        {
          "internalType": "uint256",
          "name": "",
          "type": "uint256"
        }
      ],
      "stateMutability": "view",
      "type": "function"
    },
    {
      "inputs": [
        {
          "internalType": "address",
          "name": "_recipientId",
          "type": "address"
        },
        {
          "internalType": "address",
          "name": "_supplier",
          "type": "address"
        }
      ],
      "name": "getSupplierOfferedMilestonesVote",
      "outputs": [
        {
          "internalType": "uint256",
          "name": "",
          "type": "uint256"
        }
      ],
      "stateMutability": "view",
      "type": "function"
    },
    {
      "inputs": [
        {
          "internalType": "uint256",
          "name": "_milestoneId",
          "type": "uint256"
        },
        {
          "internalType": "address",
          "name": "_supplier",
          "type": "address"
        }
      ],
      "name": "getSupplierSubmittedMilestonesVote",
      "outputs": [
        {
          "internalType": "uint256",
          "name": "",
          "type": "uint256"
        }
      ],
      "stateMutability": "view",
      "type": "function"
    },
    {
      "inputs": [
        {
          "internalType": "address",
          "name": "_recipientId",
          "type": "address"
        }
      ],
      "name": "getUpcomingMilestone",
      "outputs": [
        {
          "internalType": "uint256",
          "name": "",
          "type": "uint256"
        }
      ],
      "stateMutability": "view",
      "type": "function"
    },
    {
      "inputs": [],
      "name": "hatsContract",
      "outputs": [
        {
          "internalType": "contract IHats",
          "name": "",
          "type": "address"
        }
      ],
      "stateMutability": "view",
      "type": "function"
    },
    {
      "inputs": [
        {
          "internalType": "uint256",
          "name": "_amount",
          "type": "uint256"
        }
      ],
      "name": "increasePoolAmount",
      "outputs": [],
      "stateMutability": "nonpayable",
      "type": "function"
    },
    {
      "inputs": [
        {
          "internalType": "uint256",
          "name": "_poolId",
          "type": "uint256"
        },
        {
          "internalType": "bytes",
          "name": "_data",
          "type": "bytes"
        }
      ],
      "name": "initialize",
      "outputs": [],
      "stateMutability": "nonpayable",
      "type": "function"
    },
    {
      "inputs": [],
      "name": "isPoolActive",
      "outputs": [
        {
          "internalType": "bool",
          "name": "",
          "type": "bool"
        }
      ],
      "stateMutability": "view",
      "type": "function"
    },
    {
      "inputs": [
        {
          "internalType": "address",
          "name": "_allocator",
          "type": "address"
        }
      ],
      "name": "isValidAllocator",
      "outputs": [
        {
          "internalType": "bool",
          "name": "",
          "type": "bool"
        }
      ],
      "stateMutability": "view",
      "type": "function"
    },
    {
      "inputs": [
        {
          "internalType": "address",
          "name": "",
          "type": "address"
        },
        {
          "internalType": "uint256",
          "name": "",
          "type": "uint256"
        }
      ],
      "name": "milestones",
      "outputs": [
        {
          "internalType": "uint256",
          "name": "amountPercentage",
          "type": "uint256"
        },
        {
          "components": [
            {
              "internalType": "uint256",
              "name": "protocol",
              "type": "uint256"
            },
            {
              "internalType": "string",
              "name": "pointer",
              "type": "string"
            }
          ],
          "internalType": "struct Metadata",
          "name": "metadata",
          "type": "tuple"
        },
        {
          "internalType": "enum IStrategy.Status",
          "name": "milestoneStatus",
          "type": "uint8"
        },
        {
          "internalType": "string",
          "name": "description",
          "type": "string"
        }
      ],
      "stateMutability": "view",
      "type": "function"
    },
    {
      "inputs": [
        {
          "internalType": "address",
          "name": "_recipientId",
          "type": "address"
        },
        {
          "components": [
            {
              "internalType": "uint256",
              "name": "amountPercentage",
              "type": "uint256"
            },
            {
              "components": [
                {
                  "internalType": "uint256",
                  "name": "protocol",
                  "type": "uint256"
                },
                {
                  "internalType": "string",
                  "name": "pointer",
                  "type": "string"
                }
              ],
              "internalType": "struct Metadata",
              "name": "metadata",
              "type": "tuple"
            },
            {
              "internalType": "enum IStrategy.Status",
              "name": "milestoneStatus",
              "type": "uint8"
            },
            {
              "internalType": "string",
              "name": "description",
              "type": "string"
            }
          ],
          "internalType": "struct ExecutorSupplierVotingStrategy.Milestone[]",
          "name": "_milestones",
          "type": "tuple[]"
        }
      ],
      "name": "offerMilestones",
      "outputs": [],
      "stateMutability": "nonpayable",
      "type": "function"
    },
    {
      "inputs": [
        {
          "internalType": "bytes",
          "name": "_data",
          "type": "bytes"
        },
        {
          "internalType": "address",
          "name": "_sender",
          "type": "address"
        }
      ],
      "name": "registerRecipient",
      "outputs": [
        {
          "internalType": "address",
          "name": "recipientId",
          "type": "address"
        }
      ],
      "stateMutability": "payable",
      "type": "function"
    },
    {
      "inputs": [
        {
          "internalType": "enum IStrategy.Status",
          "name": "_status",
          "type": "uint8"
        }
      ],
      "name": "rejectProject",
      "outputs": [],
      "stateMutability": "nonpayable",
      "type": "function"
    },
    {
      "inputs": [
        {
          "internalType": "address",
          "name": "_recipientId",
          "type": "address"
        },
        {
          "internalType": "enum IStrategy.Status",
          "name": "_status",
          "type": "uint8"
        }
      ],
      "name": "reviewOfferedtMilestones",
      "outputs": [],
      "stateMutability": "nonpayable",
      "type": "function"
    },
    {
      "inputs": [
        {
          "internalType": "address",
          "name": "_recipientId",
          "type": "address"
        },
        {
          "internalType": "uint256",
          "name": "_milestoneId",
          "type": "uint256"
        },
        {
          "internalType": "enum IStrategy.Status",
          "name": "_status",
          "type": "uint8"
        }
      ],
      "name": "reviewSubmitedMilestone",
      "outputs": [],
      "stateMutability": "nonpayable",
      "type": "function"
    },
    {
      "inputs": [
        {
          "internalType": "uint256",
          "name": "_newPercentage",
          "type": "uint256"
        },
        {
          "internalType": "bytes32",
          "name": "_profileId",
          "type": "bytes32"
        }
      ],
      "name": "setThresholdPercentage",
      "outputs": [],
      "stateMutability": "nonpayable",
      "type": "function"
    },
    {
      "inputs": [],
      "name": "state",
      "outputs": [
        {
          "internalType": "enum ExecutorSupplierVotingStrategy.StrategyState",
          "name": "",
          "type": "uint8"
        }
      ],
      "stateMutability": "view",
      "type": "function"
    },
    {
      "inputs": [
        {
          "internalType": "address",
          "name": "_recipientId",
          "type": "address"
        },
        {
          "internalType": "uint256",
          "name": "_milestoneId",
          "type": "uint256"
        },
        {
          "components": [
            {
              "internalType": "uint256",
              "name": "protocol",
              "type": "uint256"
            },
            {
              "internalType": "string",
              "name": "pointer",
              "type": "string"
            }
          ],
          "internalType": "struct Metadata",
          "name": "_metadata",
          "type": "tuple"
        }
      ],
      "name": "submitMilestone",
      "outputs": [],
      "stateMutability": "nonpayable",
      "type": "function"
    },
    {
      "inputs": [
        {
          "internalType": "uint256",
          "name": "",
          "type": "uint256"
        }
      ],
      "name": "submittedvMilestones",
      "outputs": [
        {
          "internalType": "uint256",
          "name": "votesFor",
          "type": "uint256"
        },
        {
          "internalType": "uint256",
          "name": "votesAgainst",
          "type": "uint256"
        }
      ],
      "stateMutability": "view",
      "type": "function"
    },
    {
      "inputs": [],
      "name": "supplierHat",
      "outputs": [
        {
          "internalType": "uint256",
          "name": "",
          "type": "uint256"
        }
      ],
      "stateMutability": "view",
      "type": "function"
    },
    {
      "inputs": [],
      "name": "thresholdPercentage",
      "outputs": [
        {
          "internalType": "uint256",
          "name": "",
          "type": "uint256"
        }
      ],
      "stateMutability": "view",
      "type": "function"
    },
    {
      "inputs": [],
      "name": "totalSupply",
      "outputs": [
        {
          "internalType": "uint256",
          "name": "",
          "type": "uint256"
        }
      ],
      "stateMutability": "view",
      "type": "function"
    },
    {
      "inputs": [
        {
          "internalType": "address",
          "name": "",
          "type": "address"
        }
      ],
      "name": "upcomingMilestone",
      "outputs": [
        {
          "internalType": "uint256",
          "name": "",
          "type": "uint256"
        }
      ],
      "stateMutability": "view",
      "type": "function"
    },
    {
      "stateMutability": "payable",
      "type": "receive"
    }
  ],
  "bytecode": "0x60c06040523480156200001157600080fd5b506040516200534a3803806200534a8339810160408190526200003491620000bf565b6001600160a01b03821660805260405182908290620000589082906020016200019a565b60408051601f19818403018152919052805160209091012060a0525050600160035550620001cf9050565b634e487b7160e01b600052604160045260246000fd5b60005b83811015620000b65781810151838201526020016200009c565b50506000910152565b60008060408385031215620000d357600080fd5b82516001600160a01b0381168114620000eb57600080fd5b60208401519092506001600160401b03808211156200010957600080fd5b818501915085601f8301126200011e57600080fd5b81518181111562000133576200013362000083565b604051601f8201601f19908116603f011681019083821181831017156200015e576200015e62000083565b816040528281528860208487010111156200017857600080fd5b6200018b83602083016020880162000099565b80955050505050509250929050565b6020815260008251806020840152620001bb81604085016020870162000099565b601f01601f19169190910160400192915050565b60805160a0516151166200023460003960006104820152600081816102a8015281816119360152818161273401528181612aab01528181612e7f01528181612fc4015281816132c3015281816134d9015281816136ad0152613ae701526151166000f3fe60806040526004361061026b5760003560e01c80639ffaa87511610144578063df868ed3116100b6578063eb11af931161007a578063eb11af93146107fb578063edd146cc14610828578063ee12030014610848578063ef2920fc14610878578063f5b0dfb71461088b578063f83067e7146108ab57600080fd5b8063df868ed314610751578063e1c2cf6514610769578063e2372b581461077f578063e477b6bd146107ac578063e8eeb806146107e557600080fd5b8063b3eae7ab11610108578063b3eae7ab14610674578063c19d93fb14610694578063c1aaf44a146106bb578063c7a892bf146106e8578063cb2415fb14610718578063d9d067a91461063257600080fd5b80639ffaa875146105ca578063a0cf0aea146105ea578063a958f25514610612578063a965521014610632578063b2b878d01461064757600080fd5b80633bf3577d116101dd5780634ed2859e116101a15780634ed2859e146104eb5780635b10b59714610501578063605e1c661461051657806362812a391461055d57806378f0184d1461058a57806397e39fef146105aa57600080fd5b80633bf3577d1461040a578063404e73e21461042a57806342fda9c7146104735780634ab4ba42146104a65780634d31d087146104bb57600080fd5b80632a835b4b1161022f5780632a835b4b146103565780632bbe0cae146103765780632ff0e6c41461038957806336592c0e146103bf57806336c466d3146103df57806338fff2d0146103f557600080fd5b80630a6f0ee91461027757806315cc481e1461029957806318160ddd146102e5578063197ea8141461030957806322a4e42d1461032957600080fd5b3661027257005b600080fd5b34801561028357600080fd5b50610297610292366004614081565b6108cb565b005b3480156102a557600080fd5b507f00000000000000000000000000000000000000000000000000000000000000005b6040516001600160a01b0390911681526020015b60405180910390f35b3480156102f157600080fd5b506102fb60075481565b6040519081526020016102dc565b34801561031557600080fd5b506102fb6103243660046140f8565b6108eb565b34801561033557600080fd5b50610349610344366004614131565b61091c565b6040516102dc91906141ee565b34801561036257600080fd5b50610297610371366004614293565b610b10565b6102c86103843660046142b5565b610c6b565b34801561039557600080fd5b506102fb6103a4366004614131565b6001600160a01b031660009081526015602052604090205490565b3480156103cb57600080fd5b506103496103da366004614131565b610c8e565b3480156103eb57600080fd5b506102fb60065481565b34801561040157600080fd5b506001546102fb565b34801561041657600080fd5b506102976104253660046142fb565b610e77565b34801561043657600080fd5b5061045e61044536600461434f565b6016602052600090815260409020805460019091015482565b604080519283526020830191909152016102dc565b34801561047f57600080fd5b507f00000000000000000000000000000000000000000000000000000000000000006102fb565b3480156104b257600080fd5b506002546102fb565b3480156104c757600080fd5b506104db6104d6366004614131565b611256565b60405190151581526020016102dc565b3480156104f757600080fd5b506102fb60085481565b34801561050d57600080fd5b506011546102fb565b34801561052257600080fd5b506102fb610531366004614368565b60008281526016602090815260408083206001600160a01b038516845260020190915290205492915050565b34801561056957600080fd5b5061057d610578366004614131565b611261565b6040516102dc919061438d565b34801561059657600080fd5b506102976105a536600461441d565b611272565b3480156105b657600080fd5b50600b546102c8906001600160a01b031681565b3480156105d657600080fd5b506102976105e53660046145a8565b611502565b3480156105f657600080fd5b506102c873eeeeeeeeeeeeeeeeeeeeeeeeeeeeeeeeeeeeeeee81565b34801561061e57600080fd5b5061029761062d3660046145df565b611b6b565b34801561063e57600080fd5b506012546102fb565b34801561065357600080fd5b506106676106623660046145fc565b611e1d565b6040516102dc91906146d0565b34801561068057600080fd5b5061029761068f366004614728565b611f1b565b3480156106a057600080fd5b506004546106ae9060ff1681565b6040516102dc9190614756565b3480156106c757600080fd5b506102fb6106d636600461434f565b60009081526016602052604090205490565b3480156106f457600080fd5b50610708610703366004614770565b6124ac565b6040516102dc949392919061479c565b34801561072457600080fd5b506102fb610733366004614131565b6001600160a01b031660009081526010602052604090206002015490565b34801561075d57600080fd5b5060005460ff166104db565b34801561077557600080fd5b506102fb60055481565b34801561078b57600080fd5b506102fb61079a366004614131565b60156020526000908152604090205481565b3480156107b857600080fd5b506102fb6107c7366004614131565b6001600160a01b031660009081526010602052604090206001015490565b3480156107f157600080fd5b506102fb600a5481565b34801561080757600080fd5b5061081b610816366004614131565b61262e565b6040516102dc91906147df565b34801561083457600080fd5b506102976108433660046147ed565b612639565b34801561085457600080fd5b506102fb61086336600461434f565b60009081526016602052604090206001015490565b6102976108863660046142b5565b612699565b34801561089757600080fd5b506102976108a636600461434f565b6126b7565b3480156108b757600080fd5b5061081b6108c6366004614770565b6126e1565b6108d3612729565b6108db612774565b6108e6838383612797565b505050565b6001600160a01b03808316600090815260106020908152604080832093851683526003909301905220545b92915050565b6001600160a01b0381166000908152601460209081526040808320805482518185028101850190935280835260609492939192909184015b82821015610b0557838290600052602060002090600502016040518060800160405290816000820154815260200160018201604051806040016040529081600082015481526020016001820180546109ab90614833565b80601f01602080910402602001604051908101604052809291908181526020018280546109d790614833565b8015610a245780601f106109f957610100808354040283529160200191610a24565b820191906000526020600020905b815481529060010190602001808311610a0757829003601f168201915b505050919092525050508152600382015460209091019060ff166006811115610a4f57610a4f6141c4565b6006811115610a6057610a606141c4565b8152602001600482018054610a7490614833565b80601f0160208091040260200160405190810160405280929190818152602001828054610aa090614833565b8015610aed5780601f10610ac257610100808354040283529160200191610aed565b820191906000526020600020905b815481529060010190602001808311610ad057829003601f168201915b50505050508152505081526020019060010190610954565b505050509050919050565b600954604051630e6e1ae360e21b8152600481018390523360248201526001600160a01b03909116906339b86b8c90604401602060405180830381865afa158015610b5f573d6000803e3d6000fd5b505050506040513d601f19601f82011682018060405250810190610b83919061486d565b610bc35760405162461bcd60e51b815260206004820152600c60248201526b15539055551213d49256915160a21b60448201526064015b60405180910390fd5b60008211610c1f5760405162461bcd60e51b8152602060048201526024808201527f50657263656e74616765206d7573742062652067726561746572207468616e206044820152637a65726f60e01b6064820152608401610bba565b6064821115610c655760405162461bcd60e51b8152602060048201526012602482015271496e76616c69642070657263656e7461676560701b6044820152606401610bba565b50600855565b6000610c75612729565b610c7d612774565b610c87838361282e565b9050610916565b6001600160a01b0381166000908152601060209081526040808320805482518185028101850190935280835260609492939192909184015b82821015610b055783829060005260206000209060050201604051806080016040529081600082015481526020016001820160405180604001604052908160008201548152602001600182018054610d1d90614833565b80601f0160208091040260200160405190810160405280929190818152602001828054610d4990614833565b8015610d965780601f10610d6b57610100808354040283529160200191610d96565b820191906000526020600020905b815481529060010190602001808311610d7957829003601f168201915b505050919092525050508152600382015460209091019060ff166006811115610dc157610dc16141c4565b6006811115610dd257610dd26141c4565b8152602001600482018054610de690614833565b80601f0160208091040260200160405190810160405280929190818152602001828054610e1290614833565b8015610e5f5780601f10610e3457610100808354040283529160200191610e5f565b820191906000526020600020905b815481529060010190602001808311610e4257829003601f168201915b50505050508152505081526020019060010190610cc6565b600b546006546040516321a9204d60e11b815233600482015260248101919091526001600160a01b0390911690634352409a90604401602060405180830381865afa158015610eca573d6000803e3d6000fd5b505050506040513d601f19601f82011682018060405250810190610eee919061486d565b610f0b5760405163088d893560e11b815260040160405180910390fd5b6001600160a01b0383163314610f345760405163075fd2b160e01b815260040160405180910390fd5b6001600160a01b038084166000908152600e60209081526040808320815160c081018352815460ff8116151582526101009004909516858401526001810154858301528151808301909252600281018054835260038201805495969592946060870194939084019190610fa690614833565b80601f0160208091040260200160405190810160405280929190818152602001828054610fd290614833565b801561101f5780601f10610ff45761010080835404028352916020019161101f565b820191906000526020600020905b81548152906001019060200180831161100257829003601f168201915b505050919092525050508152600482015460209091019060ff16600681111561104a5761104a6141c4565b600681111561105b5761105b6141c4565b81526020016004820160019054906101000a900460ff166006811115611083576110836141c4565b6006811115611094576110946141c4565b90525090506002816080015160068111156110b1576110b16141c4565b146110cf5760405163392c16fb60e21b815260040160405180910390fd5b6001600160a01b03841660009081526014602052604090208054841061110857604051632f1f68e160e11b815260040160405180910390fd5b600081858154811061111c5761111c61488f565b6000918252602090912060059091020190506002600382015460ff166006811115611149576111496141c4565b0361116757604051637f46ed2760e11b815260040160405180910390fd5b60005b600d548110156111d8576000601660008881526020019081526020016000206002016000600d84815481106111a1576111a161488f565b60009182526020808320909101546001600160a01b03168352820192909252604001902055806111d0816148bb565b91505061116a565b506000858152601660205260408120818155600190810191909155849082016112018282614922565b505060038101805460ff191660011790556040517f8673cfb5a2cbad812463bdfd7c85511f29c804579a86d318889ab925155399619061124690889088908890614a1a565b60405180910390a1505050505050565b600061091682612a8e565b611269613d9e565b61091682612b33565b600b546006546040516321a9204d60e11b815233600482015260248101919091526001600160a01b0390911690634352409a90604401602060405180830381865afa1580156112c5573d6000803e3d6000fd5b505050506040513d601f19601f820116820180604052508101906112e9919061486d565b6113065760405163088d893560e11b815260040160405180910390fd5b6000336001600160a01b038416148061132457506113248333612ca3565b9050806113445760405163075fd2b160e01b815260040160405180910390fd5b6001600160a01b0383166000908152600e602052604090206002600482015460ff166006811115611377576113776141c4565b146113955760405163392c16fb60e21b815260040160405180910390fd5b60026004820154610100900460ff1660068111156113b5576113b56141c4565b036113d3576040516305ca31d360e51b815260040160405180910390fd5b6113dc84612d9b565b60005b83518110156114b6576001600160a01b038516600090815260106020526040902084518590839081106114145761141461488f565b602090810291909101810151825460018181018555600094855293839020825160059092020190815581830151805194820194855592830151919390929160028401906114619082614ab3565b505050604082015160038201805460ff19166001836006811115611487576114876141c4565b0217905550606082015160048201906114a09082614ab3565b50505080806114ae906148bb565b9150506113df565b508251604080516001600160a01b038716815260208101929092527f8a5603111f154f43104afe04452c6a93024a972cb6a0af72e6f38bcce68625d5910160405180910390a150505050565b3361150c81612e55565b600b546005546040516321a9204d60e11b815233600482015260248101919091526001600160a01b0390911690634352409a90604401602060405180830381865afa15801561155f573d6000803e3d6000fd5b505050506040513d601f19601f82011682018060405250810190611583919061486d565b6115a057604051636bbe41b360e01b815260040160405180910390fd5b6000838152601660209081526040808320338452600201909152902054156115db5760405163448bae6f60e01b815260040160405180910390fd5b6001600160a01b038085166000908152600e60209081526040808320815160c081018352815460ff811615158252610100900490951685840152600181015485830152815180830190925260028101805483526003820180549596959294606087019493908401919061164d90614833565b80601f016020809104026020016040519081016040528092919081815260200182805461167990614833565b80156116c65780601f1061169b576101008083540402835291602001916116c6565b820191906000526020600020905b8154815290600101906020018083116116a957829003601f168201915b505050919092525050508152600482015460209091019060ff1660068111156116f1576116f16141c4565b6006811115611702576117026141c4565b81526020016004820160019054906101000a900460ff16600681111561172a5761172a6141c4565b600681111561173b5761173b6141c4565b9052509050600281608001516006811115611758576117586141c4565b146117765760405163392c16fb60e21b815260040160405180910390fd5b6001600160a01b0385166000908152601460205260409020805485106117af57604051632f1f68e160e11b815260040160405180910390fd5b60008186815481106117c3576117c361488f565b6000918252602090912060059091020190506001600382015460ff1660068111156117f0576117f06141c4565b1461180e57604051635b2fe71d60e11b815260040160405180910390fd5b336000908152600f602052604081205460085460075491929160649161183391614b72565b61183d9190614b89565b60008981526016602090815260408083203384526002908101909252909120849055909150876006811115611874576118746141c4565b036119e15760008881526016602052604081208054849290611897908490614bab565b90915550506000888152601660205260409020548110156119dc5760038301805488919060ff191660018360068111156118d3576118d36141c4565b021790555060408051600180825281830190925260009160208083019080368337019050509050898160008151811061190e5761190e61488f565b6001600160a01b039283166020918202929092010152600154604051631d2fdec960e11b81527f000000000000000000000000000000000000000000000000000000000000000090921691633a5fbd929161196d918590600401614bbe565b600060405180830381600087803b15801561198757600080fd5b505af115801561199b573d6000803e3d6000fd5b505050507ff1af82b65c631a030029b10ea8f00f68290285c7c797644155b8f23969ca1d638a8a8a6040516119d293929190614c25565b60405180910390a1505b611b25565b60038760068111156119f5576119f56141c4565b03611b255760008881526016602052604081206001018054849290611a1b908490614bab565b9091555050600088815260166020526040902060010154811015611b255760038301805488919060ff19166001836006811115611a5a57611a5a6141c4565b021790555060005b600d54811015611ad0576000601660008b81526020019081526020016000206002016000600d8481548110611a9957611a9961488f565b60009182526020808320909101546001600160a01b0316835282019290925260400190205580611ac8816148bb565b915050611a62565b5060008881526016602052604080822082815560010191909155517ff1af82b65c631a030029b10ea8f00f68290285c7c797644155b8f23969ca1d6390611b1c908b908b908b90614c25565b60405180910390a15b7f4460beb477b3843656610a89bd67c551d2a78131b5a955ddccd5eb9aa218c8c3898989604051611b5893929190614c25565b60405180910390a1505050505050505050565b33611b7581612e55565b600b546005546040516321a9204d60e11b815233600482015260248101919091526001600160a01b0390911690634352409a90604401602060405180830381865afa158015611bc8573d6000803e3d6000fd5b505050506040513d601f19601f82011682018060405250810190611bec919061486d565b611c0957604051636bbe41b360e01b815260040160405180910390fd5b6002826006811115611c1d57611c1d6141c4565b14158015611c3d57506003826006811115611c3a57611c3a6141c4565b14155b15611c5b5760405163343b80b160e01b815260040160405180910390fd5b3360009081526013602052604090205415611c895760405163448bae6f60e01b815260040160405180910390fd5b336000908152600f6020526040812054600854600754919291606491611cae91614b72565b611cb89190614b89565b90506002846006811115611cce57611cce6141c4565b03611d45578160116000016000828254611ce89190614bab565b9091555050601154811015611d4057611d016000612f07565b611d09612f4e565b6004805460ff191660031790556040517fd32d40de3c1ce9d2fa081d8cd5a6b778eaea7095966658ace12863ce23d09a6090600090a15b611e17565b6003846006811115611d5957611d596141c4565b03611e17578160116001016000828254611d739190614bab565b9091555050601254811015611e175760005b600d54811015611de257600060116002016000600d8481548110611dab57611dab61488f565b60009182526020808320909101546001600160a01b0316835282019290925260400190205580611dda816148bb565b915050611d85565b506000601181905560128190556040517f7a5d554e29a9295668ae87eb63589a5dd4d751e9c16b4a8173c28b9f0bc4a1d09190a15b50505050565b81518151606091908114611e4457604051633da4c02b60e11b815260040160405180910390fd5b6000816001600160401b03811115611e5e57611e5e613eab565b604051908082528060200260200182016040528015611ea357816020015b6040805180820190915260008082526020820152815260200190600190039081611e7c5790505b50905060005b82811015611f1257611eed868281518110611ec657611ec661488f565b6020026020010151868381518110611ee057611ee061488f565b60200260200101516130a5565b828281518110611eff57611eff61488f565b6020908102919091010152600101611ea9565b50949350505050565b33611f2581612e55565b600b546005546040516321a9204d60e11b815233600482015260248101919091526001600160a01b0390911690634352409a90604401602060405180830381865afa158015611f78573d6000803e3d6000fd5b505050506040513d601f19601f82011682018060405250810190611f9c919061486d565b611fb957604051636bbe41b360e01b815260040160405180910390fd5b6001600160a01b038316600090815260106020908152604080832033845260030190915290205415611ffe5760405163448bae6f60e01b815260040160405180910390fd5b6001600160a01b0383166000908152600e6020526040902060026004820154610100900460ff166006811115612036576120366141c4565b03612054576040516305ca31d360e51b815260040160405180910390fd5b336000908152600f602052604081205460085460075491929160649161207991614b72565b6120839190614b89565b6001600160a01b03871660009081526010602090815260408083203384526003019091529020839055905060028560068111156120c2576120c26141c4565b0361238a576001600160a01b038616600090815260106020526040812060010180548492906120f2908490614bab565b90915550506001600160a01b038616600090815260106020526040902060010154811015612385576001600160a01b0386166000908152600e60205260409020600401805486919061ff001916610100836006811115612154576121546141c4565b02179055506001600160a01b03861660009081526010602090815260408083208054825181850281018501909352808352612348948b9484015b8282101561233f57838290600052602060002090600502016040518060800160405290816000820154815260200160018201604051806040016040529081600082015481526020016001820180546121e590614833565b80601f016020809104026020016040519081016040528092919081815260200182805461221190614833565b801561225e5780601f106122335761010080835404028352916020019161225e565b820191906000526020600020905b81548152906001019060200180831161224157829003601f168201915b505050919092525050508152600382015460209091019060ff166006811115612289576122896141c4565b600681111561229a5761229a6141c4565b81526020016004820180546122ae90614833565b80601f01602080910402602001604051908101604052809291908181526020018280546122da90614833565b80156123275780601f106122fc57610100808354040283529160200191612327565b820191906000526020600020905b81548152906001019060200180831161230a57829003601f168201915b5050505050815250508152602001906001019061218e565b505050506130f0565b6040516001600160a01b03871681527f7b05d1f85b1ac2e76c0d8dbb0dfa809df6788f66bbeeb837b2b5fae4f64c00639060200160405180910390a15b61247b565b600385600681111561239e5761239e6141c4565b0361247b576001600160a01b038616600090815260106020526040812060020180548492906123ce908490614bab565b90915550506001600160a01b03861660009081526010602052604090206002015481101561247b576001600160a01b0386166000908152600e60205260409020600401805486919061ff001916610100836006811115612430576124306141c4565b021790555061243e86612d9b565b6040516001600160a01b03871681527f5a90817477dd8f83cfe5d429e1dc84ad5a25cb72b83291c707c6f8f5c4f2ac849060200160405180910390a15b7f30dae55c386c6176f3f7b7ee6ad4df33970f2e442cb0142e978cf78fd8ae138d8686604051611246929190614c49565b601460205281600052604060002081815481106124c857600080fd5b906000526020600020906005020160009150915050806000015490806001016040518060400160405290816000820154815260200160018201805461250c90614833565b80601f016020809104026020016040519081016040528092919081815260200182805461253890614833565b80156125855780601f1061255a57610100808354040283529160200191612585565b820191906000526020600020905b81548152906001019060200180831161256857829003601f168201915b505050919092525050506003820154600483018054929360ff909216926125ab90614833565b80601f01602080910402602001604051908101604052809291908181526020018280546125d790614833565b80156126245780601f106125f957610100808354040283529160200191612624565b820191906000526020600020905b81548152906001019060200180831161260757829003601f168201915b5050505050905084565b600061091682613374565b60008180602001905181019061264f9190614c71565b905061265b8382613389565b7f91efa3d50feccde0d0d202f8ae5c41ca0b2be614cebcb2bd2f4b019396e6568a838360405161268c929190614d83565b60405180910390a1505050565b6126a1612729565b6126a9612774565b6126b38282613595565b5050565b6126bf612729565b80600260008282546126d19190614bab565b909155506126de90508181565b50565b6001600160a01b038216600090815260146020526040812080548390811061270b5761270b61488f565b600091825260209091206005909102016003015460ff169392505050565b336001600160a01b037f000000000000000000000000000000000000000000000000000000000000000016146127725760405163075fd2b160e01b815260040160405180910390fd5b565b60015460000361277257604051630f68fe6360e21b815260040160405180910390fd5b6001600160a01b03811630146127ef5760405162461bcd60e51b815260206004820152601760248201527f554e415554484f52495a454420646973747269627574650000000000000000006044820152606401610bba565b825160005b818110156128275761281f8582815181106128115761281161488f565b6020026020010151846138bf565b6001016127f4565b5050505050565b6000612838613c66565b60008060008061285b604051806040016040528060008152602001606081525090565b8780602001905181019061286f9190614e32565b9297509095506001600160a01b0386161515945092509050826128925784612894565b835b95508280156128aa57506128a88688612ca3565b155b156128c85760405163075fd2b160e01b815260040160405180910390fd5b60026001600160a01b0387166000908152600e602052604090206004015460ff1660068111156128fa576128fa6141c4565b036129185760405163083a81f760e31b815260040160405180910390fd5b60006040518060c001604052808515158152602001876001600160a01b031681526020018481526020018381526020016002600681111561295b5761295b6141c4565b8152602001600190526001600160a01b038881166000908152600e602090815260409182902084518154868401516001600160a81b0319909116911515610100600160a81b031916919091176101009190951602939093178355908301516001830155606083015180516002840190815591810151939450849390919060038401906129e79082614ab3565b505050608082015160048201805460ff19166001836006811115612a0d57612a0d6141c4565b021790555060a082015160048201805461ff001916610100836006811115612a3757612a376141c4565b0217905550905050866001600160a01b03167fa197306e3dd5494a61a695381aa809a53b8e377a685e84e404a85d5a8da6cc628a8a604051612a7a929190614e9f565b60405180910390a250505050505092915050565b6001546040516329e40d4b60e01b81526000916001600160a01b037f000000000000000000000000000000000000000000000000000000000000000016916329e40d4b91612af29186906004019182526001600160a01b0316602082015260400190565b602060405180830381865afa158015612b0f573d6000803e3d6000fd5b505050506040513d601f19601f82011682018060405250810190610916919061486d565b612b3b613d9e565b6001600160a01b038083166000908152600e6020908152604091829020825160c081018452815460ff811615158252610100900490941684830152600181015484840152825180840190935260028101805484526003820180549294606087019490939084019190612bac90614833565b80601f0160208091040260200160405190810160405280929190818152602001828054612bd890614833565b8015612c255780601f10612bfa57610100808354040283529160200191612c25565b820191906000526020600020905b815481529060010190602001808311612c0857829003601f168201915b505050919092525050508152600482015460209091019060ff166006811115612c5057612c506141c4565b6006811115612c6157612c616141c4565b81526020016004820160019054906101000a900460ff166006811115612c8957612c896141c4565b6006811115612c9a57612c9a6141c4565b90525092915050565b60095460405163dd93da4360e01b81526001600160a01b038481166004830152600092839291169063dd93da4390602401600060405180830381865afa158015612cf1573d6000803e3d6000fd5b505050506040513d6000823e601f3d908101601f19168201604052612d199190810190614ec9565b6009548151604051635e8a791560e01b815260048101919091526001600160a01b038681166024830152929350911690635e8a791590604401602060405180830381865afa158015612d6f573d6000803e3d6000fd5b505050506040513d601f19601f82011682018060405250810190612d93919061486d565b949350505050565b60005b600d54811015612e1e57600060106000846001600160a01b03166001600160a01b031681526020019081526020016000206003016000600d8481548110612de757612de761488f565b60009182526020808320909101546001600160a01b0316835282019290925260400190205580612e16816148bb565b915050612d9e565b506001600160a01b038116600090815260106020526040812090612e428282613df9565b5060006001820181905560029091015550565b6001546040516329e40d4b60e01b815260048101919091526001600160a01b0382811660248301527f000000000000000000000000000000000000000000000000000000000000000016906329e40d4b90604401602060405180830381865afa158015612ec6573d6000803e3d6000fd5b505050506040513d601f19601f82011682018060405250810190612eea919061486d565b6126de5760405163075fd2b160e01b815260040160405180910390fd5b6000805460ff19168215159081179091556040519081527fd94c9bc4d43c51d8dc345a016d8e3d994432fac68e72832e4cf3a616bd8efae09060200160405180910390a150565b60005b600d548110156126de576000600f6000600d8481548110612f7457612f7461488f565b60009182526020808320909101546001600160a01b03168352820192909252604001812054600254909250670de0b6b3a764000090612fb4908490614b72565b612fbe9190614b89565b905060007f00000000000000000000000000000000000000000000000000000000000000006001600160a01b031663068bcd8d6001546040518263ffffffff1660e01b815260040161301291815260200190565b600060405180830381865afa15801561302f573d6000803e3d6000fd5b505050506040513d6000823e601f3d908101601f191682016040526130579190810190614f8f565b905061308f8160400151600d86815481106130745761307461488f565b6000918252602090912001546001600160a01b031684613c89565b505050808061309d906148bb565b915050612f51565b604080518082019091526000808252602082015260006130c484612b33565b6040805180820182526020808401516001600160a01b0316825291909201519082015291505092915050565b6001600160a01b0382166000908152601460205260408120541561312f576001600160a01b038316600090815260146020526040812061312f91613df9565b815160005b818110156132555760008482815181106131505761315061488f565b602002602001015190506000600681111561316d5761316d6141c4565b81604001516006811115613183576131836141c4565b146131a157604051635b2fe71d60e11b815260040160405180910390fd5b80516131ad9085614bab565b6001600160a01b0387166000908152601460209081526040822080546001818101835591845292829020855160059094020192835584820151805191840191825591820151939750849360028401906132069082614ab3565b505050604082015160038201805460ff1916600183600681111561322c5761322c6141c4565b0217905550606082015160048201906132459082614ab3565b5050600190920191506131349050565b5081670de0b6b3a76400001461327e576040516397a1f28d60e01b815260040160405180910390fd5b600084600260075460405160200161329893929190615042565b60408051601f19818403018152908290526001546305d8703160e31b83529092506001600160a01b037f00000000000000000000000000000000000000000000000000000000000000001691632ec38188916132f8918590600401614d83565b600060405180830381600087803b15801561331257600080fd5b505af1158015613326573d6000803e3d6000fd5b5050604080516001600160a01b0389168152602081018690527fb000fb1507aac2465ccb4f6bd1b601c7053279005e9e9932c41946b35c84949b935001905060405180910390a15050505050565b600061337f82612b33565b6080015192915050565b61339282613cc3565b8051600555602081015160065560466008556060810151600b80546001600160a01b0319166001600160a01b03909216919091179055604081015160005b81518110156134d657600d8282815181106133ed576133ed61488f565b6020908102919091018101515182546001810184556000938452919092200180546001600160a01b0319166001600160a01b03909216919091179055815182908290811061343d5761343d61488f565b602002602001015160200151600f600084848151811061345f5761345f61488f565b6020026020010151600001516001600160a01b03166001600160a01b03168152602001908152602001600020819055508181815181106134a1576134a161488f565b602002602001015160200151600760008282546134be9190614bab565b909155508190506134ce816148bb565b9150506133d0565b507f00000000000000000000000000000000000000000000000000000000000000006001600160a01b0316635ab1bd536040518163ffffffff1660e01b8152600401602060405180830381865afa158015613535573d6000803e3d6000fd5b505050506040513d601f19601f82011682018060405250810190613559919061506d565b600980546001600160a01b0319166001600160a01b03929092169190911790556135836001612f07565b50506004805460ff1916600117905550565b61359d613d12565b6001600160a01b03811630146135ed5760405162461bcd60e51b8152602060048201526015602482015274554e415554484f52495a454420616c6c6f6361746560581b6044820152606401610bba565b600080600084806020019051810190613606919061508a565b6001600160a01b0383166000908152600e6020908152604080832060159092529091205493965091945092509015613651576040516305ca31d360e51b815260040160405180910390fd5b6002600482015460ff16600681111561366c5761366c6141c4565b1415801561368b57506002836006811115613689576136896141c4565b145b156138265760015460405163068bcd8d60e01b81526000916001600160a01b037f0000000000000000000000000000000000000000000000000000000000000000169163068bcd8d916136e49160040190815260200190565b600060405180830381865afa158015613701573d6000803e3d6000fd5b505050506040513d6000823e601f3d908101601f191682016040526137299190810190614f8f565b905082600a600082825461373d9190614bab565b9091555050600254600a54111561376757604051638e81b16f60e01b815260040160405180910390fd5b6001820183905560048201805460ff191660029081179091556040517f94593b52aa436dd31a63e313045c2eb23d43eb2d6f5b4d7797b4432e7b277490916137b191889190614c49565b60405180910390a1846001600160a01b03167f463ffc2cf8b1596445c417388ed30e53eb67cf6668cb2be7f0addf8a78c8441b8360010154836040015189604051613818939291909283526001600160a01b03918216602084015216604082015260600190565b60405180910390a2506138b1565b6003600482015460ff166006811115613841576138416141c4565b141580156138605750600383600681111561385e5761385e6141c4565b145b156138b15760048101805460ff191660039081179091556040517f94593b52aa436dd31a63e313045c2eb23d43eb2d6f5b4d7797b4432e7b277490916138a891879190614c49565b60405180910390a15b505050506126b36001600355565b6001600160a01b0380831660009081526015602090815260408083205460148352818420600e8452828520835160c081018552815460ff8116151582526101009004909716878601526001810154878501528351808501909452600281018054855260038201805494989397969395929460608701948401919061394290614833565b80601f016020809104026020016040519081016040528092919081815260200182805461396e90614833565b80156139bb5780601f10613990576101008083540402835291602001916139bb565b820191906000526020600020905b81548152906001019060200180831161399e57829003601f168201915b505050919092525050508152600482015460209091019060ff1660068111156139e6576139e66141c4565b60068111156139f7576139f76141c4565b81526020016004820160019054906101000a900460ff166006811115613a1f57613a1f6141c4565b6006811115613a3057613a306141c4565b8152505090506000828481548110613a4a57613a4a61488f565b906000526020600020906005020190508280549050841115613a7f57604051632f1f68e160e11b815260040160405180910390fd5b6002600382015460ff166006811115613a9a57613a9a6141c4565b14613ab857604051635b2fe71d60e11b815260040160405180910390fd5b6000670de0b6b3a764000082600001548460400151613ad79190614b72565b613ae19190614b89565b905060007f00000000000000000000000000000000000000000000000000000000000000006001600160a01b031663068bcd8d6001546040518263ffffffff1660e01b8152600401613b3591815260200190565b600060405180830381865afa158015613b52573d6000803e3d6000fd5b505050506040513d6000823e601f3d908101601f19168201604052613b7a9190810190614f8f565b90508160026000828254613b8e91906150cd565b92505081905550613ba88160400151856020015184613c89565b6001600160a01b0388166000908152601560205260408120805491613bcc836148bb565b909155505084546001600160a01b03891660009081526015602052604090205410613c08576004805460ff19166002179055613c086000612f07565b602080850151604080516001600160a01b039283168152928301859052898216908301528916907fb5b51454adfa840bd593658325a60a50b0216f12eb5d2937efe6cea935675b7d9060600160405180910390a25050505050505050565b60005460ff166127725760405163cfe7975b60e01b815260040160405180910390fd5b73eeeeeeeeeeeeeeeeeeeeeeeeeeeeeeeeeeeeeeed196001600160a01b03841601613cb8576108e68282613d3c565b6108e6838383613d58565b613ccb612729565b60015415613cec5760405163439a74c960e01b815260040160405180910390fd5b80600003613d0d57604051637fcce2a960e01b815260040160405180910390fd5b600155565b600260035403613d3557604051633ee5aeb560e01b815260040160405180910390fd5b6002600355565b60003860003884865af16126b35763b12d13eb6000526004601cfd5b816014528060345263a9059cbb60601b60005260206000604460106000875af13d156001600051141716613d94576390b8ec186000526004601cfd5b6000603452505050565b6040518060c0016040528060001515815260200160006001600160a01b0316815260200160008152602001613de6604051806040016040528060008152602001606081525090565b8152602001600081526020016000905290565b50805460008255600502906000526020600020908101906126de91905b80821115613e5d5760008082556001820181815581613e386002850182613e61565b505060038201805460ff19169055613e54600483016000613e61565b50600501613e16565b5090565b508054613e6d90614833565b6000825580601f10613e7d575050565b601f0160209004906000526020600020908101906126de91905b80821115613e5d5760008155600101613e97565b634e487b7160e01b600052604160045260246000fd5b604051608081016001600160401b0381118282101715613ee357613ee3613eab565b60405290565b604080519081016001600160401b0381118282101715613ee357613ee3613eab565b60405160c081016001600160401b0381118282101715613ee357613ee3613eab565b604051601f8201601f191681016001600160401b0381118282101715613f5557613f55613eab565b604052919050565b60006001600160401b03821115613f7657613f76613eab565b5060051b60200190565b6001600160a01b03811681146126de57600080fd5b600082601f830112613fa657600080fd5b81356020613fbb613fb683613f5d565b613f2d565b82815260059290921b84018101918181019086841115613fda57600080fd5b8286015b84811015613ffe578035613ff181613f80565b8352918301918301613fde565b509695505050505050565b60006001600160401b0382111561402257614022613eab565b50601f01601f191660200190565b600082601f83011261404157600080fd5b813561404f613fb682614009565b81815284602083860101111561406457600080fd5b816020850160208301376000918101602001919091529392505050565b60008060006060848603121561409657600080fd5b83356001600160401b03808211156140ad57600080fd5b6140b987838801613f95565b945060208601359150808211156140cf57600080fd5b506140dc86828701614030565b92505060408401356140ed81613f80565b809150509250925092565b6000806040838503121561410b57600080fd5b823561411681613f80565b9150602083013561412681613f80565b809150509250929050565b60006020828403121561414357600080fd5b813561414e81613f80565b9392505050565b60005b83811015614170578181015183820152602001614158565b50506000910152565b60008151808452614191816020860160208601614155565b601f01601f19169290920160200192915050565b805182526000602082015160406020850152612d936040850182614179565b634e487b7160e01b600052602160045260246000fd5b600781106141ea576141ea6141c4565b9052565b60006020808301818452808551808352604092508286019150828160051b87010184880160005b8381101561428557603f19898403018552815160808151855288820151818a870152614243828701826141a5565b91505087820151614256898701826141da565b50606080830151925085820381870152506142718183614179565b968901969450505090860190600101614215565b509098975050505050505050565b600080604083850312156142a657600080fd5b50508035926020909101359150565b600080604083850312156142c857600080fd5b82356001600160401b038111156142de57600080fd5b6142ea85828601614030565b925050602083013561412681613f80565b60008060006060848603121561431057600080fd5b833561431b81613f80565b92506020840135915060408401356001600160401b0381111561433d57600080fd5b8401604081870312156140ed57600080fd5b60006020828403121561436157600080fd5b5035919050565b6000806040838503121561437b57600080fd5b82359150602083013561412681613f80565b6020815281511515602082015260018060a01b036020830151166040820152604082015160608201526000606083015160c060808401526143d160e08401826141a5565b905060808401516143e560a08501826141da565b5060a08401516143f860c08501826141da565b509392505050565b600781106126de57600080fd5b803561441881614400565b919050565b6000806040838503121561443057600080fd5b61443a8335613f80565b823591506001600160401b03806020850135111561445757600080fd5b6020840135840185601f82011261446d57600080fd5b61447a613fb68235613f5d565b81358082526020808301929160051b84010188101561449857600080fd5b602083015b6020843560051b8501018110156145995784813511156144bc57600080fd5b80358401601f196080828c03820112156144d557600080fd5b6144dd613ec1565b6020830135815287604084013511156144f557600080fd5b60408301358301604083828f0301121561450e57600080fd5b614516613ee9565b925060208101358352886040820135111561453057600080fd5b6145438d60206040840135840101614030565b60208401525081602082015261455b6060840161440d565b6040820152876080840135111561457157600080fd5b6145848c60206080860135860101614030565b6060820152855250506020928301920161449d565b50809450505050509250929050565b6000806000606084860312156145bd57600080fd5b83356145c881613f80565b92506020840135915060408401356140ed81614400565b6000602082840312156145f157600080fd5b813561414e81614400565b6000806040838503121561460f57600080fd5b82356001600160401b038082111561462657600080fd5b61463286838701613f95565b935060209150818501358181111561464957600080fd5b8501601f8101871361465a57600080fd5b8035614668613fb682613f5d565b81815260059190911b8201840190848101908983111561468757600080fd5b8584015b838110156146bf578035868111156146a35760008081fd5b6146b18c8983890101614030565b84525091860191860161468b565b508096505050505050509250929050565b602080825282518282018190526000919060409081850190868401855b8281101561471b57815180516001600160a01b031685528601518685015292840192908501906001016146ed565b5091979650505050505050565b6000806040838503121561473b57600080fd5b823561474681613f80565b9150602083013561412681614400565b602081016004831061476a5761476a6141c4565b91905290565b6000806040838503121561478357600080fd5b823561478e81613f80565b946020939093013593505050565b8481526080602082015260006147b560808301866141a5565b6147c260408401866141da565b82810360608401526147d48185614179565b979650505050505050565b6020810161091682846141da565b6000806040838503121561480057600080fd5b8235915060208301356001600160401b0381111561481d57600080fd5b61482985828601614030565b9150509250929050565b600181811c9082168061484757607f821691505b60208210810361486757634e487b7160e01b600052602260045260246000fd5b50919050565b60006020828403121561487f57600080fd5b8151801515811461414e57600080fd5b634e487b7160e01b600052603260045260246000fd5b634e487b7160e01b600052601160045260246000fd5b6000600182016148cd576148cd6148a5565b5060010190565b601f8211156108e657600081815260208120601f850160051c810160208610156148fb5750805b601f850160051c820191505b8181101561491a57828155600101614907565b505050505050565b813581556001808201602080850135601e1986360301811261494357600080fd5b850180356001600160401b0381111561495b57600080fd5b803603838301131561496c57600080fd5b6149808161497a8654614833565b866148d4565b6000601f8211600181146149b6576000831561499e57508382018501355b600019600385901b1c1916600184901b178655614a0f565b600086815260209020601f19841690835b828110156149e6578685018801358255938701939089019087016149c7565b5084821015614a055760001960f88660031b161c198785880101351681555b50508683881b0186555b505050505050505050565b60018060a01b0384168152826020820152606060408201528135606082015260006020830135601e19843603018112614a5257600080fd5b83016020810190356001600160401b03811115614a6e57600080fd5b803603821315614a7d57600080fd5b604060808501528060a0850152808260c0860137600060c0828601015260c0601f19601f83011685010192505050949350505050565b81516001600160401b03811115614acc57614acc613eab565b614ae081614ada8454614833565b846148d4565b602080601f831160018114614b155760008415614afd5750858301515b600019600386901b1c1916600185901b17855561491a565b600085815260208120601f198616915b82811015614b4457888601518255948401946001909101908401614b25565b5085821015614b625787850151600019600388901b60f8161c191681555b5050505050600190811b01905550565b8082028115828204841417610916576109166148a5565b600082614ba657634e487b7160e01b600052601260045260246000fd5b500490565b80820180821115610916576109166148a5565b6000606082018483526020606081850152818551808452608086019150828701935060005b81811015614c085784516001600160a01b031683529383019391830191600101614be3565b505084810360408601526000815281810193505050509392505050565b6001600160a01b03841681526020810183905260608101612d9360408301846141da565b6001600160a01b03831681526040810161414e60208301846141da565b805161441881613f80565b60006020808385031215614c8457600080fd5b82516001600160401b0380821115614c9b57600080fd5b9084019060808287031215614caf57600080fd5b614cb7613ec1565b82518152838301518482015260408084015183811115614cd657600080fd5b84019250601f83018813614ce957600080fd5b8251614cf7613fb682613f5d565b81815260069190911b8401860190868101908a831115614d1657600080fd5b948701945b82861015614d5f5783868c031215614d335760008081fd5b614d3b613ee9565b8651614d4681613f80565b8152868901518982015282529483019490870190614d1b565b808486015250505050614d7460608401614c66565b60608201529695505050505050565b828152604060208201526000612d936040830184614179565b600082601f830112614dad57600080fd5b8151614dbb613fb682614009565b818152846020838601011115614dd057600080fd5b612d93826020830160208701614155565b600060408284031215614df357600080fd5b614dfb613ee9565b90508151815260208201516001600160401b03811115614e1a57600080fd5b614e2684828501614d9c565b60208301525092915050565b60008060008060808587031215614e4857600080fd5b8451614e5381613f80565b6020860151909450614e6481613f80565b6040860151606087015191945092506001600160401b03811115614e8757600080fd5b614e9387828801614de1565b91505092959194509250565b604081526000614eb26040830185614179565b905060018060a01b03831660208301529392505050565b600060208284031215614edb57600080fd5b81516001600160401b0380821115614ef257600080fd5b9083019060c08286031215614f0657600080fd5b614f0e613f0b565b8251815260208301516020820152604083015182811115614f2e57600080fd5b614f3a87828601614d9c565b604083015250606083015182811115614f5257600080fd5b614f5e87828601614de1565b606083015250614f7060808401614c66565b6080820152614f8160a08401614c66565b60a082015295945050505050565b600060208284031215614fa157600080fd5b81516001600160401b0380821115614fb857600080fd5b9083019060c08286031215614fcc57600080fd5b614fd4613f0b565b825181526020830151614fe681613f80565b60208201526040830151614ff981613f80565b604082015260608301518281111561501057600080fd5b61501c87828601614de1565b6060830152506080830151608082015260a083015160a082015280935050505092915050565b6001600160a01b03841681526060810161505f60208301856141da565b826040830152949350505050565b60006020828403121561507f57600080fd5b815161414e81613f80565b60008060006060848603121561509f57600080fd5b83516150aa81613f80565b60208501519093506150bb81614400565b80925050604084015190509250925092565b81810381811115610916576109166148a556fea264697066735822122022d3940a04f57b93a4d323d7d616f51b550a4d8f80ffc449078e724fb9b06cba64736f6c63430008140033",
  "linkReferences": {},
  "deployedLinkReferences": {}
}