{
  "_format": "hh-sol-artifact-1",
  "contractName": "ExecutorSupplierVotingStrategy",
  "sourceName": "contracts/ExecutorSupplierVotingStrategy.sol",
  "abi": [
    {
      "inputs": [
        {
          "internalType": "address",
          "name": "_allo",
          "type": "address"
        },
        {
          "internalType": "string",
          "name": "_name",
          "type": "string"
        }
      ],
      "stateMutability": "nonpayable",
      "type": "constructor"
    },
    {
      "inputs": [],
      "name": "ALLOCATION_ACTIVE",
      "type": "error"
    },
    {
      "inputs": [],
      "name": "ALLOCATION_EXCEEDS_POOL_AMOUNT",
      "type": "error"
    },
    {
      "inputs": [],
      "name": "ALLOCATION_NOT_ACTIVE",
      "type": "error"
    },
    {
      "inputs": [],
      "name": "ALLOCATION_NOT_ENDED",
      "type": "error"
    },
    {
      "inputs": [],
      "name": "ALREADY_INITIALIZED",
      "type": "error"
    },
    {
      "inputs": [],
      "name": "AMOUNT_MISMATCH",
      "type": "error"
    },
    {
      "inputs": [],
      "name": "ANCHOR_ERROR",
      "type": "error"
    },
    {
      "inputs": [],
      "name": "ARRAY_MISMATCH",
      "type": "error"
    },
    {
      "inputs": [],
      "name": "INVALID",
      "type": "error"
    },
    {
      "inputs": [],
      "name": "INVALID_ADDRESS",
      "type": "error"
    },
    {
      "inputs": [],
      "name": "INVALID_FEE",
      "type": "error"
    },
    {
      "inputs": [],
      "name": "INVALID_METADATA",
      "type": "error"
    },
    {
      "inputs": [],
      "name": "INVALID_MILESTONE",
      "type": "error"
    },
    {
      "inputs": [],
      "name": "INVALID_REGISTRATION",
      "type": "error"
    },
    {
      "inputs": [],
      "name": "IS_APPROVED_STRATEGY",
      "type": "error"
    },
    {
      "inputs": [],
      "name": "MILESTONES_ALREADY_SET",
      "type": "error"
    },
    {
      "inputs": [],
      "name": "MILESTONE_ALREADY_ACCEPTED",
      "type": "error"
    },
    {
      "inputs": [],
      "name": "MISMATCH",
      "type": "error"
    },
    {
      "inputs": [],
      "name": "NONCE_NOT_AVAILABLE",
      "type": "error"
    },
    {
      "inputs": [],
      "name": "NOT_APPROVED_STRATEGY",
      "type": "error"
    },
    {
      "inputs": [],
      "name": "NOT_ENOUGH_FUNDS",
      "type": "error"
    },
    {
      "inputs": [],
      "name": "NOT_IMPLEMENTED",
      "type": "error"
    },
    {
      "inputs": [],
      "name": "NOT_INITIALIZED",
      "type": "error"
    },
    {
      "inputs": [],
      "name": "NOT_PENDING_OWNER",
      "type": "error"
    },
    {
      "inputs": [],
      "name": "POOL_ACTIVE",
      "type": "error"
    },
    {
      "inputs": [],
      "name": "POOL_INACTIVE",
      "type": "error"
    },
    {
      "inputs": [],
      "name": "RECIPIENT_ALREADY_ACCEPTED",
      "type": "error"
    },
    {
      "inputs": [
        {
          "internalType": "address",
          "name": "recipientId",
          "type": "address"
        }
      ],
      "name": "RECIPIENT_ERROR",
      "type": "error"
    },
    {
      "inputs": [],
      "name": "RECIPIENT_NOT_ACCEPTED",
      "type": "error"
    },
    {
      "inputs": [],
      "name": "REGISTRATION_NOT_ACTIVE",
      "type": "error"
    },
    {
      "inputs": [],
      "name": "ReentrancyGuardReentrantCall",
      "type": "error"
    },
    {
      "inputs": [],
      "name": "SUPPLY_IS_ALLOWED_ONLY_ONCE",
      "type": "error"
    },
    {
      "inputs": [],
      "name": "SUPPLY_NOT_FOUND",
      "type": "error"
    },
    {
      "inputs": [],
      "name": "UNAUTHORIZED",
      "type": "error"
    },
    {
      "inputs": [],
      "name": "ZERO_ADDRESS",
      "type": "error"
    },
    {
      "anonymous": false,
      "inputs": [
        {
          "indexed": true,
          "internalType": "address",
          "name": "recipientId",
          "type": "address"
        },
        {
          "indexed": false,
          "internalType": "uint256",
          "name": "amount",
          "type": "uint256"
        },
        {
          "indexed": false,
          "internalType": "address",
          "name": "token",
          "type": "address"
        },
        {
          "indexed": false,
          "internalType": "address",
          "name": "sender",
          "type": "address"
        }
      ],
      "name": "Allocated",
      "type": "event"
    },
    {
      "anonymous": false,
      "inputs": [
        {
          "indexed": true,
          "internalType": "address",
          "name": "recipientId",
          "type": "address"
        },
        {
          "indexed": false,
          "internalType": "address",
          "name": "recipientAddress",
          "type": "address"
        },
        {
          "indexed": false,
          "internalType": "uint256",
          "name": "amount",
          "type": "uint256"
        },
        {
          "indexed": false,
          "internalType": "address",
          "name": "sender",
          "type": "address"
        }
      ],
      "name": "Distributed",
      "type": "event"
    },
    {
      "anonymous": false,
      "inputs": [
        {
          "indexed": false,
          "internalType": "uint256",
          "name": "poolId",
          "type": "uint256"
        },
        {
          "indexed": false,
          "internalType": "bytes",
          "name": "data",
          "type": "bytes"
        }
      ],
      "name": "Initialized",
      "type": "event"
    },
    {
      "anonymous": false,
      "inputs": [
        {
          "indexed": false,
          "internalType": "address",
          "name": "recipientId",
          "type": "address"
        },
        {
          "indexed": false,
          "internalType": "uint256",
          "name": "milestonesLength",
          "type": "uint256"
        }
      ],
      "name": "MilestoneOffered",
      "type": "event"
    },
    {
      "anonymous": false,
      "inputs": [
        {
          "indexed": false,
          "internalType": "address",
          "name": "recipientId",
          "type": "address"
        },
        {
          "indexed": false,
          "internalType": "uint256",
          "name": "milestoneId",
          "type": "uint256"
        },
        {
          "indexed": false,
          "internalType": "enum IStrategy.Status",
          "name": "status",
          "type": "uint8"
        }
      ],
      "name": "MilestoneStatusChanged",
      "type": "event"
    },
    {
      "anonymous": false,
      "inputs": [
        {
          "indexed": false,
          "internalType": "address",
          "name": "recipientId",
          "type": "address"
        },
        {
          "indexed": false,
          "internalType": "uint256",
          "name": "milestoneId",
          "type": "uint256"
        },
        {
          "components": [
            {
              "internalType": "uint256",
              "name": "protocol",
              "type": "uint256"
            },
            {
              "internalType": "string",
              "name": "pointer",
              "type": "string"
            }
          ],
          "indexed": false,
          "internalType": "struct Metadata",
          "name": "metadata",
          "type": "tuple"
        }
      ],
      "name": "MilestoneSubmitted",
      "type": "event"
    },
    {
      "anonymous": false,
      "inputs": [
        {
          "indexed": false,
          "internalType": "address",
          "name": "recipientId",
          "type": "address"
        },
        {
          "indexed": false,
          "internalType": "enum IStrategy.Status",
          "name": "status",
          "type": "uint8"
        }
      ],
      "name": "MilestonesReviewed",
      "type": "event"
    },
    {
      "anonymous": false,
      "inputs": [
        {
          "indexed": false,
          "internalType": "address",
          "name": "recipientId",
          "type": "address"
        },
        {
          "indexed": false,
          "internalType": "uint256",
          "name": "milestonesLength",
          "type": "uint256"
        }
      ],
      "name": "MilestonesSet",
      "type": "event"
    },
    {
      "anonymous": false,
      "inputs": [
        {
          "indexed": false,
          "internalType": "bool",
          "name": "active",
          "type": "bool"
        }
      ],
      "name": "PoolActive",
      "type": "event"
    },
    {
      "anonymous": false,
      "inputs": [
        {
          "indexed": false,
          "internalType": "address",
          "name": "recipientId",
          "type": "address"
        },
        {
          "indexed": false,
          "internalType": "enum IStrategy.Status",
          "name": "status",
          "type": "uint8"
        }
      ],
      "name": "RecipientStatusChanged",
      "type": "event"
    },
    {
      "anonymous": false,
      "inputs": [
        {
          "indexed": true,
          "internalType": "address",
          "name": "recipientId",
          "type": "address"
        },
        {
          "indexed": false,
          "internalType": "bytes",
          "name": "data",
          "type": "bytes"
        },
        {
          "indexed": false,
          "internalType": "address",
          "name": "sender",
          "type": "address"
        }
      ],
      "name": "Registered",
      "type": "event"
    },
    {
      "inputs": [],
      "name": "NATIVE",
      "outputs": [
        {
          "internalType": "address",
          "name": "",
          "type": "address"
        }
      ],
      "stateMutability": "view",
      "type": "function"
    },
    {
      "inputs": [
        {
          "internalType": "bytes",
          "name": "_data",
          "type": "bytes"
        },
        {
          "internalType": "address",
          "name": "_sender",
          "type": "address"
        }
      ],
      "name": "allocate",
      "outputs": [],
      "stateMutability": "payable",
      "type": "function"
    },
    {
      "inputs": [],
      "name": "allocatedGrantAmount",
      "outputs": [
        {
          "internalType": "uint256",
          "name": "",
          "type": "uint256"
        }
      ],
      "stateMutability": "view",
      "type": "function"
    },
    {
      "inputs": [
        {
          "internalType": "address[]",
          "name": "_recipientIds",
          "type": "address[]"
        },
        {
          "internalType": "bytes",
          "name": "_data",
          "type": "bytes"
        },
        {
          "internalType": "address",
          "name": "_sender",
          "type": "address"
        }
      ],
      "name": "distribute",
      "outputs": [],
      "stateMutability": "nonpayable",
      "type": "function"
    },
    {
      "inputs": [],
      "name": "getAllo",
      "outputs": [
        {
          "internalType": "contract IAllo",
          "name": "",
          "type": "address"
        }
      ],
      "stateMutability": "view",
      "type": "function"
    },
    {
      "inputs": [
        {
          "internalType": "address",
          "name": "_recipientId",
          "type": "address"
        },
        {
          "internalType": "uint256",
          "name": "_milestoneId",
          "type": "uint256"
        }
      ],
      "name": "getMilestoneStatus",
      "outputs": [
        {
          "internalType": "enum IStrategy.Status",
          "name": "",
          "type": "uint8"
        }
      ],
      "stateMutability": "view",
      "type": "function"
    },
    {
      "inputs": [
        {
          "internalType": "address",
          "name": "_recipientId",
          "type": "address"
        }
      ],
      "name": "getMilestones",
      "outputs": [
        {
          "components": [
            {
              "internalType": "uint256",
              "name": "amountPercentage",
              "type": "uint256"
            },
            {
              "components": [
                {
                  "internalType": "uint256",
                  "name": "protocol",
                  "type": "uint256"
                },
                {
                  "internalType": "string",
                  "name": "pointer",
                  "type": "string"
                }
              ],
              "internalType": "struct Metadata",
              "name": "metadata",
              "type": "tuple"
            },
            {
              "internalType": "enum IStrategy.Status",
              "name": "milestoneStatus",
              "type": "uint8"
            },
            {
              "internalType": "string",
              "name": "description",
              "type": "string"
            }
          ],
          "internalType": "struct ExecutorSupplierVotingStrategy.Milestone[]",
          "name": "",
          "type": "tuple[]"
        }
      ],
      "stateMutability": "view",
      "type": "function"
    },
    {
      "inputs": [
        {
          "internalType": "address[]",
          "name": "_recipientIds",
          "type": "address[]"
        },
        {
          "internalType": "bytes[]",
          "name": "_data",
          "type": "bytes[]"
        }
      ],
      "name": "getPayouts",
      "outputs": [
        {
          "components": [
            {
              "internalType": "address",
              "name": "recipientAddress",
              "type": "address"
            },
            {
              "internalType": "uint256",
              "name": "amount",
              "type": "uint256"
            }
          ],
          "internalType": "struct IStrategy.PayoutSummary[]",
          "name": "",
          "type": "tuple[]"
        }
      ],
      "stateMutability": "view",
      "type": "function"
    },
    {
      "inputs": [],
      "name": "getPoolAmount",
      "outputs": [
        {
          "internalType": "uint256",
          "name": "",
          "type": "uint256"
        }
      ],
      "stateMutability": "view",
      "type": "function"
    },
    {
      "inputs": [],
      "name": "getPoolId",
      "outputs": [
        {
          "internalType": "uint256",
          "name": "",
          "type": "uint256"
        }
      ],
      "stateMutability": "view",
      "type": "function"
    },
    {
      "inputs": [
        {
          "internalType": "address",
          "name": "_recipientId",
          "type": "address"
        }
      ],
      "name": "getRecipient",
      "outputs": [
        {
          "components": [
            {
              "internalType": "bool",
              "name": "useRegistryAnchor",
              "type": "bool"
            },
            {
              "internalType": "address",
              "name": "recipientAddress",
              "type": "address"
            },
            {
              "internalType": "uint256",
              "name": "grantAmount",
              "type": "uint256"
            },
            {
              "components": [
                {
                  "internalType": "uint256",
                  "name": "protocol",
                  "type": "uint256"
                },
                {
                  "internalType": "string",
                  "name": "pointer",
                  "type": "string"
                }
              ],
              "internalType": "struct Metadata",
              "name": "metadata",
              "type": "tuple"
            },
            {
              "internalType": "enum IStrategy.Status",
              "name": "recipientStatus",
              "type": "uint8"
            },
            {
              "internalType": "enum IStrategy.Status",
              "name": "milestonesReviewStatus",
              "type": "uint8"
            }
          ],
          "internalType": "struct ExecutorSupplierVotingStrategy.Recipient",
          "name": "",
          "type": "tuple"
        }
      ],
      "stateMutability": "view",
      "type": "function"
    },
    {
      "inputs": [
        {
          "internalType": "address",
          "name": "_recipientId",
          "type": "address"
        }
      ],
      "name": "getRecipientStatus",
      "outputs": [
        {
          "internalType": "enum IStrategy.Status",
          "name": "",
          "type": "uint8"
        }
      ],
      "stateMutability": "view",
      "type": "function"
    },
    {
      "inputs": [],
      "name": "getStrategyId",
      "outputs": [
        {
          "internalType": "bytes32",
          "name": "",
          "type": "bytes32"
        }
      ],
      "stateMutability": "view",
      "type": "function"
    },
    {
      "inputs": [],
      "name": "grantAmountRequired",
      "outputs": [
        {
          "internalType": "bool",
          "name": "",
          "type": "bool"
        }
      ],
      "stateMutability": "view",
      "type": "function"
    },
    {
      "inputs": [
        {
          "internalType": "uint256",
          "name": "_amount",
          "type": "uint256"
        }
      ],
      "name": "increasePoolAmount",
      "outputs": [],
      "stateMutability": "nonpayable",
      "type": "function"
    },
    {
      "inputs": [
        {
          "internalType": "uint256",
          "name": "_poolId",
          "type": "uint256"
        },
        {
          "internalType": "bytes",
          "name": "_data",
          "type": "bytes"
        }
      ],
      "name": "initialize",
      "outputs": [],
      "stateMutability": "nonpayable",
      "type": "function"
    },
    {
      "inputs": [],
      "name": "isPoolActive",
      "outputs": [
        {
          "internalType": "bool",
          "name": "",
          "type": "bool"
        }
      ],
      "stateMutability": "view",
      "type": "function"
    },
    {
      "inputs": [
        {
          "internalType": "address",
          "name": "_allocator",
          "type": "address"
        }
      ],
      "name": "isValidAllocator",
      "outputs": [
        {
          "internalType": "bool",
          "name": "",
          "type": "bool"
        }
      ],
      "stateMutability": "view",
      "type": "function"
    },
    {
      "inputs": [],
      "name": "metadataRequired",
      "outputs": [
        {
          "internalType": "bool",
          "name": "",
          "type": "bool"
        }
      ],
      "stateMutability": "view",
      "type": "function"
    },
    {
      "inputs": [
        {
          "internalType": "address",
          "name": "",
          "type": "address"
        },
        {
          "internalType": "uint256",
          "name": "",
          "type": "uint256"
        }
      ],
      "name": "milestones",
      "outputs": [
        {
          "internalType": "uint256",
          "name": "amountPercentage",
          "type": "uint256"
        },
        {
          "components": [
            {
              "internalType": "uint256",
              "name": "protocol",
              "type": "uint256"
            },
            {
              "internalType": "string",
              "name": "pointer",
              "type": "string"
            }
          ],
          "internalType": "struct Metadata",
          "name": "metadata",
          "type": "tuple"
        },
        {
          "internalType": "enum IStrategy.Status",
          "name": "milestoneStatus",
          "type": "uint8"
        },
        {
          "internalType": "string",
          "name": "description",
          "type": "string"
        }
      ],
      "stateMutability": "view",
      "type": "function"
    },
    {
      "inputs": [
        {
          "internalType": "bytes",
          "name": "_data",
          "type": "bytes"
        },
        {
          "internalType": "address",
          "name": "_sender",
          "type": "address"
        }
      ],
      "name": "registerRecipient",
      "outputs": [
        {
          "internalType": "address",
          "name": "recipientId",
          "type": "address"
        }
      ],
      "stateMutability": "payable",
      "type": "function"
    },
    {
      "inputs": [],
      "name": "registryGating",
      "outputs": [
        {
          "internalType": "bool",
          "name": "",
          "type": "bool"
        }
      ],
      "stateMutability": "view",
      "type": "function"
    },
    {
      "inputs": [
        {
          "internalType": "address",
          "name": "_recipientId",
          "type": "address"
        },
        {
          "internalType": "uint256",
          "name": "_milestoneId",
          "type": "uint256"
        }
      ],
      "name": "rejectMilestone",
      "outputs": [],
      "stateMutability": "nonpayable",
      "type": "function"
    },
    {
      "inputs": [
        {
          "internalType": "address",
          "name": "_recipientId",
          "type": "address"
        },
        {
          "internalType": "enum IStrategy.Status",
          "name": "_status",
          "type": "uint8"
        }
      ],
      "name": "reviewSetMilestones",
      "outputs": [],
      "stateMutability": "nonpayable",
      "type": "function"
    },
    {
      "inputs": [
        {
          "internalType": "address",
          "name": "_recipientId",
          "type": "address"
        },
        {
          "components": [
            {
              "internalType": "uint256",
              "name": "amountPercentage",
              "type": "uint256"
            },
            {
              "components": [
                {
                  "internalType": "uint256",
                  "name": "protocol",
                  "type": "uint256"
                },
                {
                  "internalType": "string",
                  "name": "pointer",
                  "type": "string"
                }
              ],
              "internalType": "struct Metadata",
              "name": "metadata",
              "type": "tuple"
            },
            {
              "internalType": "enum IStrategy.Status",
              "name": "milestoneStatus",
              "type": "uint8"
            },
            {
              "internalType": "string",
              "name": "description",
              "type": "string"
            }
          ],
          "internalType": "struct ExecutorSupplierVotingStrategy.Milestone[]",
          "name": "_milestones",
          "type": "tuple[]"
        }
      ],
      "name": "setMilestones",
      "outputs": [],
      "stateMutability": "nonpayable",
      "type": "function"
    },
    {
      "inputs": [
        {
          "internalType": "bool",
          "name": "_flag",
          "type": "bool"
        }
      ],
      "name": "setPoolActive",
      "outputs": [],
      "stateMutability": "nonpayable",
      "type": "function"
    },
    {
      "inputs": [
        {
          "internalType": "address[]",
          "name": "_recipientIds",
          "type": "address[]"
        }
      ],
      "name": "setRecipientStatusToInReview",
      "outputs": [],
      "stateMutability": "nonpayable",
      "type": "function"
    },
    {
      "inputs": [
        {
          "internalType": "address",
          "name": "_recipientId",
          "type": "address"
        },
        {
          "internalType": "uint256",
          "name": "_milestoneId",
          "type": "uint256"
        },
        {
          "components": [
            {
              "internalType": "uint256",
              "name": "protocol",
              "type": "uint256"
            },
            {
              "internalType": "string",
              "name": "pointer",
              "type": "string"
            }
          ],
          "internalType": "struct Metadata",
          "name": "_metadata",
          "type": "tuple"
        }
      ],
      "name": "submitMilestone",
      "outputs": [],
      "stateMutability": "nonpayable",
      "type": "function"
    },
    {
      "inputs": [
        {
          "internalType": "address",
          "name": "",
          "type": "address"
        }
      ],
      "name": "upcomingMilestone",
      "outputs": [
        {
          "internalType": "uint256",
          "name": "",
          "type": "uint256"
        }
      ],
      "stateMutability": "view",
      "type": "function"
    },
    {
      "inputs": [
        {
          "internalType": "uint256",
          "name": "_amount",
          "type": "uint256"
        }
      ],
      "name": "withdraw",
      "outputs": [],
      "stateMutability": "nonpayable",
      "type": "function"
    },
    {
      "stateMutability": "payable",
      "type": "receive"
    }
  ],
  "bytecode": "0x60c06040523480156200001157600080fd5b50604051620062a0380380620062a08339818101604052810190620000379190620002a7565b81818173ffffffffffffffffffffffffffffffffffffffff1660808173ffffffffffffffffffffffffffffffffffffffff1681525050806040516020016200008091906200036a565b6040516020818303038152906040528051906020012060a081815250505050600160038190555050506200038e565b6000604051905090565b600080fd5b600080fd5b600073ffffffffffffffffffffffffffffffffffffffff82169050919050565b6000620000f082620000c3565b9050919050565b6200010281620000e3565b81146200010e57600080fd5b50565b6000815190506200012281620000f7565b92915050565b600080fd5b600080fd5b6000601f19601f8301169050919050565b7f4e487b7100000000000000000000000000000000000000000000000000000000600052604160045260246000fd5b6200017d8262000132565b810181811067ffffffffffffffff821117156200019f576200019e62000143565b5b80604052505050565b6000620001b4620000af565b9050620001c2828262000172565b919050565b600067ffffffffffffffff821115620001e557620001e462000143565b5b620001f08262000132565b9050602081019050919050565b60005b838110156200021d57808201518184015260208101905062000200565b60008484015250505050565b6000620002406200023a84620001c7565b620001a8565b9050828152602081018484840111156200025f576200025e6200012d565b5b6200026c848285620001fd565b509392505050565b600082601f8301126200028c576200028b62000128565b5b81516200029e84826020860162000229565b91505092915050565b60008060408385031215620002c157620002c0620000b9565b5b6000620002d18582860162000111565b925050602083015167ffffffffffffffff811115620002f557620002f4620000be565b5b620003038582860162000274565b9150509250929050565b600081519050919050565b600082825260208201905092915050565b600062000336826200030d565b62000342818562000318565b935062000354818560208601620001fd565b6200035f8162000132565b840191505092915050565b6000602082019050818103600083015262000386818462000329565b905092915050565b60805160a051615eb4620003ec60003960006113f9015260008181610b2501528181610dd6015281816117da01528181611b7001528181611c470152818161244801528181612c2e01528181612e6e01526134720152615eb46000f3fe6080604052600436106101d15760003560e01c8063a0cf0aea116100f7578063df868ed311610095578063edd146cc11610064578063edd146cc146106b1578063ef2920fc146106da578063f5b0dfb7146106f6578063f83067e71461071f576101d8565b8063df868ed3146105e1578063e2372b581461060c578063e8eeb80614610649578063eb11af9314610674576101d8565b8063b5f620ce116100d1578063b5f620ce14610524578063c7a892bf1461054d578063cb0e85a61461058d578063d474c8aa146105b8576101d8565b8063a0cf0aea14610491578063a647d23e146104bc578063b2b878d0146104e7576101d8565b806338fff2d01161016f5780634ab4ba421161013e5780634ab4ba42146103c15780634d31d087146103ec57806362812a39146104295780639be2ccf514610466576101d8565b806338fff2d01461031957806339b25a9a146103445780633bf3577d1461036d57806342fda9c714610396576101d8565b806315cc481e116101ab57806315cc481e1461025857806322a4e42d146102835780632bbe0cae146102c05780632e1a7d4d146102f0576101d8565b8063068ae461146101dd57806309c4b8df146102065780630a6f0ee91461022f576101d8565b366101d857005b600080fd5b3480156101e957600080fd5b5061020460048036038101906101ff9190613bbf565b61075c565b005b34801561021257600080fd5b5061022d60048036038101906102289190613c24565b6108eb565b005b34801561023b57600080fd5b5061025660048036038101906102519190613e72565b610aeb565b005b34801561026457600080fd5b5061026d610b21565b60405161027a9190613f5c565b60405180910390f35b34801561028f57600080fd5b506102aa60048036038101906102a59190613f77565b610b49565b6040516102b79190614212565b60405180910390f35b6102da60048036038101906102d59190614234565b610d6e565b6040516102e7919061429f565b60405180910390f35b3480156102fc57600080fd5b50610317600480360381019061031291906142ba565b610da6565b005b34801561032557600080fd5b5061032e610e84565b60405161033b91906142f6565b60405180910390f35b34801561035057600080fd5b5061036b6004803603810190610366919061436c565b610e8e565b005b34801561037957600080fd5b50610394600480360381019061038f91906143dd565b610f91565b005b3480156103a257600080fd5b506103ab6113f5565b6040516103b89190614465565b60405180910390f35b3480156103cd57600080fd5b506103d661141d565b6040516103e391906142f6565b60405180910390f35b3480156103f857600080fd5b50610413600480360381019061040e9190613f77565b611427565b604051610420919061449b565b60405180910390f35b34801561043557600080fd5b50610450600480360381019061044b9190613f77565b611439565b60405161045d919061455d565b60405180910390f35b34801561047257600080fd5b5061047b611451565b604051610488919061449b565b60405180910390f35b34801561049d57600080fd5b506104a6611464565b6040516104b3919061429f565b60405180910390f35b3480156104c857600080fd5b506104d161147c565b6040516104de919061449b565b60405180910390f35b3480156104f357600080fd5b5061050e60048036038101906105099190614660565b61148f565b60405161051b91906147b6565b60405180910390f35b34801561053057600080fd5b5061054b60048036038101906105469190614804565b6115a9565b005b34801561055957600080fd5b50610574600480360381019061056f9190613bbf565b6115f7565b60405161058494939291906148c7565b60405180910390f35b34801561059957600080fd5b506105a261177f565b6040516105af919061449b565b60405180910390f35b3480156105c457600080fd5b506105df60048036038101906105da9190614bc2565b611792565b005b3480156105ed57600080fd5b506105f66119ed565b604051610603919061449b565b60405180910390f35b34801561061857600080fd5b50610633600480360381019061062e9190613f77565b6119fc565b60405161064091906142f6565b60405180910390f35b34801561065557600080fd5b5061065e611a14565b60405161066b91906142f6565b60405180910390f35b34801561068057600080fd5b5061069b60048036038101906106969190613f77565b611a1a565b6040516106a89190614c1e565b60405180910390f35b3480156106bd57600080fd5b506106d860048036038101906106d39190614c39565b611a2c565b005b6106f460048036038101906106ef9190614234565b611a8c565b005b34801561070257600080fd5b5061071d600480360381019061071891906142ba565b611abe565b005b34801561072b57600080fd5b5061074660048036038101906107419190613bbf565b611af4565b6040516107539190614c1e565b60405180910390f35b3361076681611b6e565b6000600a60008573ffffffffffffffffffffffffffffffffffffffff1673ffffffffffffffffffffffffffffffffffffffff168152602001908152602001600020905080805490508311156107e7576040517f5e3ed1c200000000000000000000000000000000000000000000000000000000815260040160405180910390fd5b60008184815481106107fc576107fb614c95565b5b90600052602060002090600502019050600260068111156108205761081f61409b565b5b8160030160009054906101000a900460ff1660068111156108445761084361409b565b5b0361087b576040517ffe8dda4e00000000000000000000000000000000000000000000000000000000815260040160405180910390fd5b60038160030160006101000a81548160ff021916908360068111156108a3576108a261409b565b5b02179055507ff1af82b65c631a030029b10ea8f00f68290285c7c797644155b8f23969ca1d63858560036040516108dc93929190614cc4565b60405180910390a15050505050565b336108f581611b6e565b6000600760008573ffffffffffffffffffffffffffffffffffffffff1673ffffffffffffffffffffffffffffffffffffffff16815260200190815260200160002090506000600a60008673ffffffffffffffffffffffffffffffffffffffff1673ffffffffffffffffffffffffffffffffffffffff16815260200190815260200160002080549050036109b4576040517f5e3ed1c200000000000000000000000000000000000000000000000000000000815260040160405180910390fd5b600260068111156109c8576109c761409b565b5b8160040160019054906101000a900460ff1660068111156109ec576109eb61409b565b5b03610a23576040517fb9463a6000000000000000000000000000000000000000000000000000000000815260040160405180910390fd5b60026006811115610a3757610a3661409b565b5b836006811115610a4a57610a4961409b565b5b1480610a7a575060036006811115610a6557610a6461409b565b5b836006811115610a7857610a7761409b565b5b145b15610ae557828160040160016101000a81548160ff02191690836006811115610aa657610aa561409b565b5b02179055507f30dae55c386c6176f3f7b7ee6ad4df33970f2e442cb0142e978cf78fd8ae138d8484604051610adc929190614cfb565b60405180910390a15b50505050565b610af3611c45565b610afb611ccc565b610b06838383611d0a565b610b11838383611d0f565b610b1c838383611d63565b505050565b60007f0000000000000000000000000000000000000000000000000000000000000000905090565b6060600a60008373ffffffffffffffffffffffffffffffffffffffff1673ffffffffffffffffffffffffffffffffffffffff168152602001908152602001600020805480602002602001604051908101604052809291908181526020016000905b82821015610d635783829060005260206000209060050201604051806080016040529081600082015481526020016001820160405180604001604052908160008201548152602001600182018054610c0190614d53565b80601f0160208091040260200160405190810160405280929190818152602001828054610c2d90614d53565b8015610c7a5780601f10610c4f57610100808354040283529160200191610c7a565b820191906000526020600020905b815481529060010190602001808311610c5d57829003601f168201915b50505050508152505081526020016003820160009054906101000a900460ff166006811115610cac57610cab61409b565b5b6006811115610cbe57610cbd61409b565b5b8152602001600482018054610cd290614d53565b80601f0160208091040260200160405190810160405280929190818152602001828054610cfe90614d53565b8015610d4b5780601f10610d2057610100808354040283529160200191610d4b565b820191906000526020600020905b815481529060010190602001808311610d2e57829003601f168201915b50505050508152505081526020019060010190610baa565b505050509050919050565b6000610d78611c45565b610d80611ccc565b610d8a8383611d68565b610d948383611d6c565b9050610da08383612241565b92915050565b33610db081611b6e565b610db8612245565b8160026000828254610dca9190614db3565b92505081905550610e807f000000000000000000000000000000000000000000000000000000000000000073ffffffffffffffffffffffffffffffffffffffff1663068bcd8d6001546040518263ffffffff1660e01b8152600401610e2f91906142f6565b600060405180830381865afa158015610e4c573d6000803e3d6000fd5b505050506040513d6000823e3d601f19601f82011682018060405250810190610e759190615013565b60400151338461228c565b5050565b6000600154905090565b33610e9881611b6e565b600083839050905060005b81811015610f8a576000858583818110610ec057610ebf614c95565b5b9050602002016020810190610ed59190613f77565b90506005600760008373ffffffffffffffffffffffffffffffffffffffff1673ffffffffffffffffffffffffffffffffffffffff16815260200190815260200160002060040160006101000a81548160ff02191690836006811115610f3d57610f3c61409b565b5b02179055507f94593b52aa436dd31a63e313045c2eb23d43eb2d6f5b4d7797b4432e7b277490816005604051610f74929190614cfb565b60405180910390a1818060010192505050610ea3565b5050505050565b3373ffffffffffffffffffffffffffffffffffffffff168373ffffffffffffffffffffffffffffffffffffffff1614158015610fd45750610fd283336122f3565b155b1561100b576040517f075fd2b100000000000000000000000000000000000000000000000000000000815260040160405180910390fd5b6000600760008573ffffffffffffffffffffffffffffffffffffffff1673ffffffffffffffffffffffffffffffffffffffff1681526020019081526020016000206040518060c00160405290816000820160009054906101000a900460ff161515151581526020016000820160019054906101000a900473ffffffffffffffffffffffffffffffffffffffff1673ffffffffffffffffffffffffffffffffffffffff1673ffffffffffffffffffffffffffffffffffffffff1681526020016001820154815260200160028201604051806040016040529081600082015481526020016001820180546110fc90614d53565b80601f016020809104026020016040519081016040528092919081815260200182805461112890614d53565b80156111755780601f1061114a57610100808354040283529160200191611175565b820191906000526020600020905b81548152906001019060200180831161115857829003601f168201915b50505050508152505081526020016004820160009054906101000a900460ff1660068111156111a7576111a661409b565b5b60068111156111b9576111b861409b565b5b81526020016004820160019054906101000a900460ff1660068111156111e2576111e161409b565b5b60068111156111f4576111f361409b565b5b8152505090506002600681111561120e5761120d61409b565b5b816080015160068111156112255761122461409b565b5b1461125c576040517fe4b05bec00000000000000000000000000000000000000000000000000000000815260040160405180910390fd5b6000600a60008673ffffffffffffffffffffffffffffffffffffffff1673ffffffffffffffffffffffffffffffffffffffff168152602001908152602001600020905080805490508411156112dd576040517f5e3ed1c200000000000000000000000000000000000000000000000000000000815260040160405180910390fd5b60008185815481106112f2576112f1614c95565b5b90600052602060002090600502019050600260068111156113165761131561409b565b5b8160030160009054906101000a900460ff16600681111561133a5761133961409b565b5b03611371576040517ffe8dda4e00000000000000000000000000000000000000000000000000000000815260040160405180910390fd5b838160010181816113829190615429565b90505060018160030160006101000a81548160ff021916908360068111156113ad576113ac61409b565b5b02179055507f8673cfb5a2cbad812463bdfd7c85511f29c804579a86d318889ab925155399618686866040516113e59392919061553c565b60405180910390a1505050505050565b60007f0000000000000000000000000000000000000000000000000000000000000000905090565b6000600254905090565b600061143282612444565b9050919050565b611441613968565b61144a826124eb565b9050919050565b600460029054906101000a900460ff1681565b73eeeeeeeeeeeeeeeeeeeeeeeeeeeeeeeeeeeeeeee81565b600460009054906101000a900460ff1681565b6060600083519050825181146114d1576040517f7b49805600000000000000000000000000000000000000000000000000000000815260040160405180910390fd5b60008167ffffffffffffffff8111156114ed576114ec613c7a565b5b60405190808252806020026020018201604052801561152657816020015b6115136139e0565b81526020019060019003908161150b5790505b50905060005b8281101561159d5761157286828151811061154a57611549614c95565b5b602002602001015186838151811061156557611564614c95565b5b60200260200101516126e5565b82828151811061158557611584614c95565b5b6020026020010181905250808060010191505061152c565b50809250505092915050565b336115b381611b6e565b6115bc82612736565b7fd94c9bc4d43c51d8dc345a016d8e3d994432fac68e72832e4cf3a616bd8efae0826040516115eb919061449b565b60405180910390a15050565b600a602052816000526040600020818154811061161357600080fd5b906000526020600020906005020160009150915050806000015490806001016040518060400160405290816000820154815260200160018201805461165790614d53565b80601f016020809104026020016040519081016040528092919081815260200182805461168390614d53565b80156116d05780601f106116a5576101008083540402835291602001916116d0565b820191906000526020600020905b8154815290600101906020018083116116b357829003601f168201915b505050505081525050908060030160009054906101000a900460ff16908060040180546116fc90614d53565b80601f016020809104026020016040519081016040528092919081815260200182805461172890614d53565b80156117755780601f1061174a57610100808354040283529160200191611775565b820191906000526020600020905b81548152906001019060200180831161175857829003601f168201915b5050505050905084565b600460019054906101000a900460ff1681565b60008273ffffffffffffffffffffffffffffffffffffffff163373ffffffffffffffffffffffffffffffffffffffff1614806117d457506117d383336122f3565b5b905060007f000000000000000000000000000000000000000000000000000000000000000073ffffffffffffffffffffffffffffffffffffffff166329e40d4b600154336040518363ffffffff1660e01b815260040161183592919061557a565b602060405180830381865afa158015611852573d6000803e3d6000fd5b505050506040513d601f19601f8201168201806040525081019061187691906155b8565b905081158015611884575080155b156118bb576040517f075fd2b100000000000000000000000000000000000000000000000000000000815260040160405180910390fd5b6000600760008673ffffffffffffffffffffffffffffffffffffffff1673ffffffffffffffffffffffffffffffffffffffff1681526020019081526020016000209050600260068111156119125761191161409b565b5b8160040160009054906101000a900460ff1660068111156119365761193561409b565b5b1461196d576040517fe4b05bec00000000000000000000000000000000000000000000000000000000815260040160405180910390fd5b600260068111156119815761198061409b565b5b8160040160019054906101000a900460ff1660068111156119a5576119a461409b565b5b036119dc576040517fb9463a6000000000000000000000000000000000000000000000000000000000815260040160405180910390fd5b6119e68585612789565b5050505050565b60006119f7612a3a565b905090565b600b6020528060005260406000206000915090505481565b60055481565b6000611a2582612a50565b9050919050565b600081806020019051810190611a42919061578c565b9050611a4e8382612a66565b7f91efa3d50feccde0d0d202f8ae5c41ca0b2be614cebcb2bd2f4b019396e6568a8383604051611a7f92919061582a565b60405180910390a1505050565b611a94611c45565b611a9c611ccc565b611aa68282612d0a565b611ab08282612d0e565b611aba828261311f565b5050565b611ac6611c45565b611acf81613123565b8060026000828254611ae1919061585a565b92505081905550611af181613126565b50565b6000600a60008473ffffffffffffffffffffffffffffffffffffffff1673ffffffffffffffffffffffffffffffffffffffff1681526020019081526020016000208281548110611b4757611b46614c95565b5b906000526020600020906005020160030160009054906101000a900460ff16905092915050565b7f000000000000000000000000000000000000000000000000000000000000000073ffffffffffffffffffffffffffffffffffffffff166329e40d4b600154836040518363ffffffff1660e01b8152600401611bcb92919061557a565b602060405180830381865afa158015611be8573d6000803e3d6000fd5b505050506040513d601f19601f82011682018060405250810190611c0c91906155b8565b611c42576040517f075fd2b100000000000000000000000000000000000000000000000000000000815260040160405180910390fd5b50565b7f000000000000000000000000000000000000000000000000000000000000000073ffffffffffffffffffffffffffffffffffffffff163373ffffffffffffffffffffffffffffffffffffffff1614611cca576040517f075fd2b100000000000000000000000000000000000000000000000000000000815260040160405180910390fd5b565b600060015403611d08576040517f3da3f98c00000000000000000000000000000000000000000000000000000000815260040160405180910390fd5b565b505050565b80611d1981611b6e565b60008451905060005b81811015611d5b57611d4e868281518110611d4057611d3f614c95565b5b602002602001015185613129565b8080600101915050611d22565b505050505050565b505050565b5050565b6000611d7661365d565b600080600080611d84613a10565b600460009054906101000a900460ff1615611e025787806020019051810190611dad91906158cc565b80945081955082985083995050505050611dc786886122f3565b611dfd576040517f075fd2b100000000000000000000000000000000000000000000000000000000815260040160405180910390fd5b611eb4565b87806020019051810190611e1691906158cc565b80945081955082975083985050505050600073ffffffffffffffffffffffffffffffffffffffff168473ffffffffffffffffffffffffffffffffffffffff161415925082611e645784611e66565b835b9550828015611e7c5750611e7a86886122f3565b155b15611eb3576040517f075fd2b100000000000000000000000000000000000000000000000000000000815260040160405180910390fd5b5b600460029054906101000a900460ff168015611ed05750600082145b15611f07576040517f03b167dd00000000000000000000000000000000000000000000000000000000815260040160405180910390fd5b60026006811115611f1b57611f1a61409b565b5b600760008873ffffffffffffffffffffffffffffffffffffffff1673ffffffffffffffffffffffffffffffffffffffff16815260200190815260200160002060040160009054906101000a900460ff166006811115611f7d57611f7c61409b565b5b03611fb4576040517f41d40fb800000000000000000000000000000000000000000000000000000000815260040160405180910390fd5b600460019054906101000a900460ff168015611fe4575060008160200151511480611fe3575060008160000151145b5b1561201b576040517fc19e07c500000000000000000000000000000000000000000000000000000000815260040160405180910390fd5b60006040518060c00160405280600460009054906101000a900460ff166120425785612045565b60015b151581526020018773ffffffffffffffffffffffffffffffffffffffff168152602001848152602001838152602001600260068111156120885761208761409b565b5b8152602001600160068111156120a1576120a061409b565b5b815250905080600760008973ffffffffffffffffffffffffffffffffffffffff1673ffffffffffffffffffffffffffffffffffffffff16815260200190815260200160002060008201518160000160006101000a81548160ff02191690831515021790555060208201518160000160016101000a81548173ffffffffffffffffffffffffffffffffffffffff021916908373ffffffffffffffffffffffffffffffffffffffff1602179055506040820151816001015560608201518160020160008201518160000155602082015181600101908161217f919061594f565b50505060808201518160040160006101000a81548160ff021916908360068111156121ad576121ac61409b565b5b021790555060a08201518160040160016101000a81548160ff021916908360068111156121dd576121dc61409b565b5b02179055509050508673ffffffffffffffffffffffffffffffffffffffff167fa197306e3dd5494a61a695381aa809a53b8e377a685e84e404a85d5a8da6cc628a8a60405161222d929190615a21565b60405180910390a250505050505092915050565b5050565b60008054906101000a900460ff161561228a576040517fb186267000000000000000000000000000000000000000000000000000000000815260040160405180910390fd5b565b73eeeeeeeeeeeeeeeeeeeeeeeeeeeeeeeeeeeeeeee73ffffffffffffffffffffffffffffffffffffffff168373ffffffffffffffffffffffffffffffffffffffff16036122e2576122dd82826136a3565b6122ee565b6122ed8383836136c3565b5b505050565b600080600460039054906101000a900473ffffffffffffffffffffffffffffffffffffffff1673ffffffffffffffffffffffffffffffffffffffff1663dd93da43856040518263ffffffff1660e01b8152600401612351919061429f565b600060405180830381865afa15801561236e573d6000803e3d6000fd5b505050506040513d6000823e3d601f19601f820116820180604052508101906123979190615b29565b9050600460039054906101000a900473ffffffffffffffffffffffffffffffffffffffff1673ffffffffffffffffffffffffffffffffffffffff16635e8a79158260000151856040518363ffffffff1660e01b81526004016123fa929190615b72565b602060405180830381865afa158015612417573d6000803e3d6000fd5b505050506040513d601f19601f8201168201806040525081019061243b91906155b8565b91505092915050565b60007f000000000000000000000000000000000000000000000000000000000000000073ffffffffffffffffffffffffffffffffffffffff166329e40d4b600154846040518363ffffffff1660e01b81526004016124a392919061557a565b602060405180830381865afa1580156124c0573d6000803e3d6000fd5b505050506040513d601f19601f820116820180604052508101906124e491906155b8565b9050919050565b6124f3613968565b600760008373ffffffffffffffffffffffffffffffffffffffff1673ffffffffffffffffffffffffffffffffffffffff1681526020019081526020016000206040518060c00160405290816000820160009054906101000a900460ff161515151581526020016000820160019054906101000a900473ffffffffffffffffffffffffffffffffffffffff1673ffffffffffffffffffffffffffffffffffffffff1673ffffffffffffffffffffffffffffffffffffffff1681526020016001820154815260200160028201604051806040016040529081600082015481526020016001820180546125e290614d53565b80601f016020809104026020016040519081016040528092919081815260200182805461260e90614d53565b801561265b5780601f106126305761010080835404028352916020019161265b565b820191906000526020600020905b81548152906001019060200180831161263e57829003601f168201915b50505050508152505081526020016004820160009054906101000a900460ff16600681111561268d5761268c61409b565b5b600681111561269f5761269e61409b565b5b81526020016004820160019054906101000a900460ff1660068111156126c8576126c761409b565b5b60068111156126da576126d961409b565b5b815250509050919050565b6126ed6139e0565b60006126f8846124eb565b90506040518060400160405280826020015173ffffffffffffffffffffffffffffffffffffffff168152602001826040015181525091505092915050565b806000806101000a81548160ff0219169083151502179055507fd94c9bc4d43c51d8dc345a016d8e3d994432fac68e72832e4cf3a616bd8efae08160405161277e919061449b565b60405180910390a150565b600080600a60008573ffffffffffffffffffffffffffffffffffffffff1673ffffffffffffffffffffffffffffffffffffffff16815260200190815260200160002080549050111561282157600a60008473ffffffffffffffffffffffffffffffffffffffff1673ffffffffffffffffffffffffffffffffffffffff16815260200190815260200160002060006128209190613a2a565b5b60008251905060005b818110156129b957600084828151811061284757612846614c95565b5b60200260200101519050600060068111156128655761286461409b565b5b8160400151600681111561287c5761287b61409b565b5b146128b3576040517f5e3ed1c200000000000000000000000000000000000000000000000000000000815260040160405180910390fd5b8060000151846128c3919061585a565b9350600a60008773ffffffffffffffffffffffffffffffffffffffff1673ffffffffffffffffffffffffffffffffffffffff16815260200190815260200160002081908060018154018082558091505060019003906000526020600020906005020160009091909190915060008201518160000155602082015181600101600082015181600001556020820151816001019081612960919061594f565b50505060408201518160030160006101000a81548160ff0219169083600681111561298e5761298d61409b565b5b021790555060608201518160040190816129a8919061594f565b50505081806001019250505061282a565b50670de0b6b3a764000082146129fb576040517f5e3ed1c200000000000000000000000000000000000000000000000000000000815260040160405180910390fd5b7fb000fb1507aac2465ccb4f6bd1b601c7053279005e9e9932c41946b35c84949b8482604051612a2c929190615b9b565b60405180910390a150505050565b60008060009054906101000a900460ff16905090565b6000612a5b826124eb565b608001519050919050565b612a6f82613712565b8060000151600460006101000a81548160ff0219169083151502179055508060200151600460016101000a81548160ff0219169083151502179055508060400151600460026101000a81548160ff02191690831515021790555060008160600151905060005b8151811015612c2b57612b3b6040518060400160405280601c81526020017f53747261746567792073657474696e67205355504c4945522049443a00000000815250838381518110612b2a57612b29614c95565b5b60200260200101516000015161379a565b612b986040518060400160405280601f81526020017f53747261746567792073657474696e67205355504c49455220504f5745523a00815250838381518110612b8757612b86614c95565b5b602002602001015160200151613836565b818181518110612bab57612baa614c95565b5b60200260200101516020015160086000848481518110612bce57612bcd614c95565b5b60200260200101516000015173ffffffffffffffffffffffffffffffffffffffff1673ffffffffffffffffffffffffffffffffffffffff168152602001908152602001600020819055508080612c2390615bc4565b915050612ad5565b507f000000000000000000000000000000000000000000000000000000000000000073ffffffffffffffffffffffffffffffffffffffff16635ab1bd536040518163ffffffff1660e01b8152600401602060405180830381865afa158015612c97573d6000803e3d6000fd5b505050506040513d601f19601f82011682018060405250810190612cbb9190615c4a565b600460036101000a81548173ffffffffffffffffffffffffffffffffffffffff021916908373ffffffffffffffffffffffffffffffffffffffff160217905550612d056001612736565b505050565b5050565b612d166138d2565b80612d2081611b6e565b600080600085806020019051810190612d399190615c8c565b9250925092506000600760008573ffffffffffffffffffffffffffffffffffffffff1673ffffffffffffffffffffffffffffffffffffffff16815260200190815260200160002090506000600b60008673ffffffffffffffffffffffffffffffffffffffff1673ffffffffffffffffffffffffffffffffffffffff1681526020019081526020016000205414612dfb576040517fb9463a6000000000000000000000000000000000000000000000000000000000815260040160405180910390fd5b60026006811115612e0f57612e0e61409b565b5b8160040160009054906101000a900460ff166006811115612e3357612e3261409b565b5b14158015612e65575060026006811115612e5057612e4f61409b565b5b836006811115612e6357612e6261409b565b5b145b156130365760007f000000000000000000000000000000000000000000000000000000000000000073ffffffffffffffffffffffffffffffffffffffff1663068bcd8d6001546040518263ffffffff1660e01b8152600401612ec791906142f6565b600060405180830381865afa158015612ee4573d6000803e3d6000fd5b505050506040513d6000823e3d601f19601f82011682018060405250810190612f0d9190615013565b90508260056000828254612f21919061585a565b925050819055506002546005541115612f66576040517f8e81b16f00000000000000000000000000000000000000000000000000000000815260040160405180910390fd5b82826001018190555060028260040160006101000a81548160ff02191690836006811115612f9757612f9661409b565b5b02179055507f94593b52aa436dd31a63e313045c2eb23d43eb2d6f5b4d7797b4432e7b277490856002604051612fce929190614cfb565b60405180910390a18473ffffffffffffffffffffffffffffffffffffffff167f463ffc2cf8b1596445c417388ed30e53eb67cf6668cb2be7f0addf8a78c8441b836001015483604001518a60405161302893929190615cdf565b60405180910390a25061310e565b6003600681111561304a5761304961409b565b5b8160040160009054906101000a900460ff16600681111561306e5761306d61409b565b5b141580156130a057506003600681111561308b5761308a61409b565b5b83600681111561309e5761309d61409b565b5b145b1561310d5760038160040160006101000a81548160ff021916908360068111156130cd576130cc61409b565b5b02179055507f94593b52aa436dd31a63e313045c2eb23d43eb2d6f5b4d7797b4432e7b277490846003604051613104929190614cfb565b60405180910390a15b5b505050505061311b613918565b5050565b5050565b50565b50565b6000600b60008473ffffffffffffffffffffffffffffffffffffffff1673ffffffffffffffffffffffffffffffffffffffff1681526020019081526020016000205490506000600a60008573ffffffffffffffffffffffffffffffffffffffff1673ffffffffffffffffffffffffffffffffffffffff16815260200190815260200160002090506000600760008673ffffffffffffffffffffffffffffffffffffffff1673ffffffffffffffffffffffffffffffffffffffff1681526020019081526020016000206040518060c00160405290816000820160009054906101000a900460ff161515151581526020016000820160019054906101000a900473ffffffffffffffffffffffffffffffffffffffff1673ffffffffffffffffffffffffffffffffffffffff1673ffffffffffffffffffffffffffffffffffffffff1681526020016001820154815260200160028201604051806040016040529081600082015481526020016001820180546132a190614d53565b80601f01602080910402602001604051908101604052809291908181526020018280546132cd90614d53565b801561331a5780601f106132ef5761010080835404028352916020019161331a565b820191906000526020600020905b8154815290600101906020018083116132fd57829003601f168201915b50505050508152505081526020016004820160009054906101000a900460ff16600681111561334c5761334b61409b565b5b600681111561335e5761335d61409b565b5b81526020016004820160019054906101000a900460ff1660068111156133875761338661409b565b5b60068111156133995761339861409b565b5b81525050905060008284815481106133b4576133b3614c95565b5b90600052602060002090600502019050828054905084118061340c5750600160068111156133e5576133e461409b565b5b8160030160009054906101000a900460ff1660068111156134095761340861409b565b5b14155b15613443576040517f5e3ed1c200000000000000000000000000000000000000000000000000000000815260040160405180910390fd5b6000670de0b6b3a7640000826000015484604001516134629190615d16565b61346c9190615d87565b905060007f000000000000000000000000000000000000000000000000000000000000000073ffffffffffffffffffffffffffffffffffffffff1663068bcd8d6001546040518263ffffffff1660e01b81526004016134cb91906142f6565b600060405180830381865afa1580156134e8573d6000803e3d6000fd5b505050506040513d6000823e3d601f19601f820116820180604052508101906135119190615013565b905081600260008282546135259190614db3565b9250508190555061353f816040015185602001518461228c565b60028360030160006101000a81548160ff021916908360068111156135675761356661409b565b5b0217905550600b60008973ffffffffffffffffffffffffffffffffffffffff1673ffffffffffffffffffffffffffffffffffffffff16815260200190815260200160002060008154809291906135bc90615bc4565b91905055507ff1af82b65c631a030029b10ea8f00f68290285c7c797644155b8f23969ca1d63888760026040516135f593929190614cc4565b60405180910390a18773ffffffffffffffffffffffffffffffffffffffff167fb5b51454adfa840bd593658325a60a50b0216f12eb5d2937efe6cea935675b7d8560200151848a60405161364b93929190615db8565b60405180910390a25050505050505050565b60008054906101000a900460ff166136a1576040517fcfe7975b00000000000000000000000000000000000000000000000000000000815260040160405180910390fd5b565b60003860003884865af16136bf5763b12d13eb6000526004601cfd5b5050565b81601452806034526fa9059cbb00000000000000000000000060005260206000604460106000875af13d156001600051141716613708576390b8ec186000526004601cfd5b6000603452505050565b61371a611c45565b600060015414613756576040517f439a74c900000000000000000000000000000000000000000000000000000000815260040160405180910390fd5b60008103613790576040517f7fcce2a900000000000000000000000000000000000000000000000000000000815260040160405180910390fd5b8060018190555050565b61383282826040516024016137b0929190615def565b6040516020818303038152906040527f319af333000000000000000000000000000000000000000000000000000000007bffffffffffffffffffffffffffffffffffffffffffffffffffffffff19166020820180517bffffffffffffffffffffffffffffffffffffffffffffffffffffffff8381831617835250505050613922565b5050565b6138ce828260405160240161384c929190615e1f565b6040516020818303038152906040527fb60e72cc000000000000000000000000000000000000000000000000000000007bffffffffffffffffffffffffffffffffffffffffffffffffffffffff19166020820180517bffffffffffffffffffffffffffffffffffffffffffffffffffffffff8381831617835250505050613922565b5050565b60026003540361390e576040517f3ee5aeb500000000000000000000000000000000000000000000000000000000815260040160405180910390fd5b6002600381905550565b6001600381905550565b6139398161393161393c61395d565b63ffffffff16565b50565b60006a636f6e736f6c652e6c6f679050600080835160208501845afa505050565b613a4e819050919050565b6040518060c00160405280600015158152602001600073ffffffffffffffffffffffffffffffffffffffff168152602001600081526020016139a8613a10565b8152602001600060068111156139c1576139c061409b565b5b8152602001600060068111156139da576139d961409b565b5b81525090565b6040518060400160405280600073ffffffffffffffffffffffffffffffffffffffff168152602001600081525090565b604051806040016040528060008152602001606081525090565b5080546000825560050290600052602060002090810190613a4b9190613a58565b50565b613a56615e4f565b565b5b80821115613ab65760008082016000905560018201600080820160009055600182016000613a879190613aba565b50506003820160006101000a81549060ff0219169055600482016000613aad9190613aba565b50600501613a59565b5090565b508054613ac690614d53565b6000825580601f10613ad85750613af7565b601f016020900490600052602060002090810190613af69190613afa565b5b50565b5b80821115613b13576000816000905550600101613afb565b5090565b6000604051905090565b600080fd5b600080fd5b600073ffffffffffffffffffffffffffffffffffffffff82169050919050565b6000613b5682613b2b565b9050919050565b613b6681613b4b565b8114613b7157600080fd5b50565b600081359050613b8381613b5d565b92915050565b6000819050919050565b613b9c81613b89565b8114613ba757600080fd5b50565b600081359050613bb981613b93565b92915050565b60008060408385031215613bd657613bd5613b21565b5b6000613be485828601613b74565b9250506020613bf585828601613baa565b9150509250929050565b60078110613c0c57600080fd5b50565b600081359050613c1e81613bff565b92915050565b60008060408385031215613c3b57613c3a613b21565b5b6000613c4985828601613b74565b9250506020613c5a85828601613c0f565b9150509250929050565b600080fd5b6000601f19601f8301169050919050565b7f4e487b7100000000000000000000000000000000000000000000000000000000600052604160045260246000fd5b613cb282613c69565b810181811067ffffffffffffffff82111715613cd157613cd0613c7a565b5b80604052505050565b6000613ce4613b17565b9050613cf08282613ca9565b919050565b600067ffffffffffffffff821115613d1057613d0f613c7a565b5b602082029050602081019050919050565b600080fd5b6000613d39613d3484613cf5565b613cda565b90508083825260208201905060208402830185811115613d5c57613d5b613d21565b5b835b81811015613d855780613d718882613b74565b845260208401935050602081019050613d5e565b5050509392505050565b600082601f830112613da457613da3613c64565b5b8135613db4848260208601613d26565b91505092915050565b600080fd5b600067ffffffffffffffff821115613ddd57613ddc613c7a565b5b613de682613c69565b9050602081019050919050565b82818337600083830152505050565b6000613e15613e1084613dc2565b613cda565b905082815260208101848484011115613e3157613e30613dbd565b5b613e3c848285613df3565b509392505050565b600082601f830112613e5957613e58613c64565b5b8135613e69848260208601613e02565b91505092915050565b600080600060608486031215613e8b57613e8a613b21565b5b600084013567ffffffffffffffff811115613ea957613ea8613b26565b5b613eb586828701613d8f565b935050602084013567ffffffffffffffff811115613ed657613ed5613b26565b5b613ee286828701613e44565b9250506040613ef386828701613b74565b9150509250925092565b6000819050919050565b6000613f22613f1d613f1884613b2b565b613efd565b613b2b565b9050919050565b6000613f3482613f07565b9050919050565b6000613f4682613f29565b9050919050565b613f5681613f3b565b82525050565b6000602082019050613f716000830184613f4d565b92915050565b600060208284031215613f8d57613f8c613b21565b5b6000613f9b84828501613b74565b91505092915050565b600081519050919050565b600082825260208201905092915050565b6000819050602082019050919050565b613fd981613b89565b82525050565b600081519050919050565b600082825260208201905092915050565b60005b83811015614019578082015181840152602081019050613ffe565b60008484015250505050565b600061403082613fdf565b61403a8185613fea565b935061404a818560208601613ffb565b61405381613c69565b840191505092915050565b60006040830160008301516140766000860182613fd0565b506020830151848203602086015261408e8282614025565b9150508091505092915050565b7f4e487b7100000000000000000000000000000000000000000000000000000000600052602160045260246000fd5b600781106140db576140da61409b565b5b50565b60008190506140ec826140ca565b919050565b60006140fc826140de565b9050919050565b61410c816140f1565b82525050565b600060808301600083015161412a6000860182613fd0565b5060208301518482036020860152614142828261405e565b91505060408301516141576040860182614103565b506060830151848203606086015261416f8282614025565b9150508091505092915050565b60006141888383614112565b905092915050565b6000602082019050919050565b60006141a882613fa4565b6141b28185613faf565b9350836020820285016141c485613fc0565b8060005b8581101561420057848403895281516141e1858261417c565b94506141ec83614190565b925060208a019950506001810190506141c8565b50829750879550505050505092915050565b6000602082019050818103600083015261422c818461419d565b905092915050565b6000806040838503121561424b5761424a613b21565b5b600083013567ffffffffffffffff81111561426957614268613b26565b5b61427585828601613e44565b925050602061428685828601613b74565b9150509250929050565b61429981613b4b565b82525050565b60006020820190506142b46000830184614290565b92915050565b6000602082840312156142d0576142cf613b21565b5b60006142de84828501613baa565b91505092915050565b6142f081613b89565b82525050565b600060208201905061430b60008301846142e7565b92915050565b600080fd5b60008083601f84011261432c5761432b613c64565b5b8235905067ffffffffffffffff81111561434957614348614311565b5b60208301915083602082028301111561436557614364613d21565b5b9250929050565b6000806020838503121561438357614382613b21565b5b600083013567ffffffffffffffff8111156143a1576143a0613b26565b5b6143ad85828601614316565b92509250509250929050565b600080fd5b6000604082840312156143d4576143d36143b9565b5b81905092915050565b6000806000606084860312156143f6576143f5613b21565b5b600061440486828701613b74565b935050602061441586828701613baa565b925050604084013567ffffffffffffffff81111561443657614435613b26565b5b614442868287016143be565b9150509250925092565b6000819050919050565b61445f8161444c565b82525050565b600060208201905061447a6000830184614456565b92915050565b60008115159050919050565b61449581614480565b82525050565b60006020820190506144b0600083018461448c565b92915050565b6144bf81614480565b82525050565b6144ce81613b4b565b82525050565b600060c0830160008301516144ec60008601826144b6565b5060208301516144ff60208601826144c5565b5060408301516145126040860182613fd0565b506060830151848203606086015261452a828261405e565b915050608083015161453f6080860182614103565b5060a083015161455260a0860182614103565b508091505092915050565b6000602082019050818103600083015261457781846144d4565b905092915050565b600067ffffffffffffffff82111561459a57614599613c7a565b5b602082029050602081019050919050565b60006145be6145b98461457f565b613cda565b905080838252602082019050602084028301858111156145e1576145e0613d21565b5b835b8181101561462857803567ffffffffffffffff81111561460657614605613c64565b5b8086016146138982613e44565b855260208501945050506020810190506145e3565b5050509392505050565b600082601f83011261464757614646613c64565b5b81356146578482602086016145ab565b91505092915050565b6000806040838503121561467757614676613b21565b5b600083013567ffffffffffffffff81111561469557614694613b26565b5b6146a185828601613d8f565b925050602083013567ffffffffffffffff8111156146c2576146c1613b26565b5b6146ce85828601614632565b9150509250929050565b600081519050919050565b600082825260208201905092915050565b6000819050602082019050919050565b60408201600082015161471a60008501826144c5565b50602082015161472d6020850182613fd0565b50505050565b600061473f8383614704565b60408301905092915050565b6000602082019050919050565b6000614763826146d8565b61476d81856146e3565b9350614778836146f4565b8060005b838110156147a95781516147908882614733565b975061479b8361474b565b92505060018101905061477c565b5085935050505092915050565b600060208201905081810360008301526147d08184614758565b905092915050565b6147e181614480565b81146147ec57600080fd5b50565b6000813590506147fe816147d8565b92915050565b60006020828403121561481a57614819613b21565b5b6000614828848285016147ef565b91505092915050565b60006040830160008301516148496000860182613fd0565b50602083015184820360208601526148618282614025565b9150508091505092915050565b614877816140f1565b82525050565b600082825260208201905092915050565b600061489982613fdf565b6148a3818561487d565b93506148b3818560208601613ffb565b6148bc81613c69565b840191505092915050565b60006080820190506148dc60008301876142e7565b81810360208301526148ee8186614831565b90506148fd604083018561486e565b818103606083015261490f818461488e565b905095945050505050565b600067ffffffffffffffff82111561493557614934613c7a565b5b602082029050602081019050919050565b600080fd5b600080fd5b600067ffffffffffffffff82111561496b5761496a613c7a565b5b61497482613c69565b9050602081019050919050565b600061499461498f84614950565b613cda565b9050828152602081018484840111156149b0576149af613dbd565b5b6149bb848285613df3565b509392505050565b600082601f8301126149d8576149d7613c64565b5b81356149e8848260208601614981565b91505092915050565b600060408284031215614a0757614a06614946565b5b614a116040613cda565b90506000614a2184828501613baa565b600083015250602082013567ffffffffffffffff811115614a4557614a4461494b565b5b614a51848285016149c3565b60208301525092915050565b600060808284031215614a7357614a72614946565b5b614a7d6080613cda565b90506000614a8d84828501613baa565b600083015250602082013567ffffffffffffffff811115614ab157614ab061494b565b5b614abd848285016149f1565b6020830152506040614ad184828501613c0f565b604083015250606082013567ffffffffffffffff811115614af557614af461494b565b5b614b01848285016149c3565b60608301525092915050565b6000614b20614b1b8461491a565b613cda565b90508083825260208201905060208402830185811115614b4357614b42613d21565b5b835b81811015614b8a57803567ffffffffffffffff811115614b6857614b67613c64565b5b808601614b758982614a5d565b85526020850194505050602081019050614b45565b5050509392505050565b600082601f830112614ba957614ba8613c64565b5b8135614bb9848260208601614b0d565b91505092915050565b60008060408385031215614bd957614bd8613b21565b5b6000614be785828601613b74565b925050602083013567ffffffffffffffff811115614c0857614c07613b26565b5b614c1485828601614b94565b9150509250929050565b6000602082019050614c33600083018461486e565b92915050565b60008060408385031215614c5057614c4f613b21565b5b6000614c5e85828601613baa565b925050602083013567ffffffffffffffff811115614c7f57614c7e613b26565b5b614c8b85828601613e44565b9150509250929050565b7f4e487b7100000000000000000000000000000000000000000000000000000000600052603260045260246000fd5b6000606082019050614cd96000830186614290565b614ce660208301856142e7565b614cf3604083018461486e565b949350505050565b6000604082019050614d106000830185614290565b614d1d602083018461486e565b9392505050565b7f4e487b7100000000000000000000000000000000000000000000000000000000600052602260045260246000fd5b60006002820490506001821680614d6b57607f821691505b602082108103614d7e57614d7d614d24565b5b50919050565b7f4e487b7100000000000000000000000000000000000000000000000000000000600052601160045260246000fd5b6000614dbe82613b89565b9150614dc983613b89565b9250828203905081811115614de157614de0614d84565b5b92915050565b614df08161444c565b8114614dfb57600080fd5b50565b600081519050614e0d81614de7565b92915050565b6000614e1e82613b4b565b9050919050565b614e2e81614e13565b8114614e3957600080fd5b50565b600081519050614e4b81614e25565b92915050565b600081519050614e6081613b5d565b92915050565b600081519050614e7581613b93565b92915050565b6000614e8e614e8984614950565b613cda565b905082815260208101848484011115614eaa57614ea9613dbd565b5b614eb5848285613ffb565b509392505050565b600082601f830112614ed257614ed1613c64565b5b8151614ee2848260208601614e7b565b91505092915050565b600060408284031215614f0157614f00614946565b5b614f0b6040613cda565b90506000614f1b84828501614e66565b600083015250602082015167ffffffffffffffff811115614f3f57614f3e61494b565b5b614f4b84828501614ebd565b60208301525092915050565b600060c08284031215614f6d57614f6c614946565b5b614f7760c0613cda565b90506000614f8784828501614dfe565b6000830152506020614f9b84828501614e3c565b6020830152506040614faf84828501614e51565b604083015250606082015167ffffffffffffffff811115614fd357614fd261494b565b5b614fdf84828501614eeb565b6060830152506080614ff384828501614dfe565b60808301525060a061500784828501614dfe565b60a08301525092915050565b60006020828403121561502957615028613b21565b5b600082015167ffffffffffffffff81111561504757615046613b26565b5b61505384828501614f57565b91505092915050565b6000813561506981613b93565b80915050919050565b60008160001b9050919050565b60007fffffffffffffffffffffffffffffffffffffffffffffffffffffffffffffffff6150ab84615072565b9350801983169250808416831791505092915050565b60006150dc6150d76150d284613b89565b613efd565b613b89565b9050919050565b6000819050919050565b6150f6826150c1565b615109615102826150e3565b835461507f565b8255505050565b600080fd5b600080fd5b600080fd5b6000808335600160200384360303811261513c5761513b615110565b5b80840192508235915067ffffffffffffffff82111561515e5761515d615115565b5b60208301925060018202360383131561517a5761517961511a565b5b509250929050565b600082905092915050565b60008190508160005260206000209050919050565b60006020601f8301049050919050565b600082821b905092915050565b6000600883026151ef7fffffffffffffffffffffffffffffffffffffffffffffffffffffffffffffffff826151b2565b6151f986836151b2565b95508019841693508086168417925050509392505050565b61521a836150c1565b61522e615226826150e3565b8484546151bf565b825550505050565b600090565b615243615236565b61524e818484615211565b505050565b5b818110156152725761526760008261523b565b600181019050615254565b5050565b601f8211156152b7576152888161518d565b615291846151a2565b810160208510156152a0578190505b6152b46152ac856151a2565b830182615253565b50505b505050565b600082821c905092915050565b60006152da600019846008026152bc565b1980831691505092915050565b60006152f383836152c9565b9150826002028217905092915050565b61530d8383615182565b67ffffffffffffffff81111561532657615325613c7a565b5b6153308254614d53565b61533b828285615276565b6000601f83116001811461536a5760008415615358578287013590505b61536285826152e7565b8655506153ca565b601f1984166153788661518d565b60005b828110156153a05784890135825560018201915060208501945060208101905061537b565b868310156153bd57848901356153b9601f8916826152c9565b8355505b6001600288020188555050505b50505050505050565b6153de838383615303565b505050565b6000810160008301806153f58161505c565b905061540181846150ed565b5050506001810160208301615416818561511f565b6154218183866153d3565b505050505050565b61543382826153e3565b5050565b60006154466020840184613baa565b905092915050565b600080fd5b600080fd5b600080fd5b6000808335600160200384360303811261547a57615479615458565b5b83810192508235915060208301925067ffffffffffffffff8211156154a2576154a161544e565b5b6001820236038313156154b8576154b7615453565b5b509250929050565b60006154cc8385613fea565b93506154d9838584613df3565b6154e283613c69565b840190509392505050565b6000604083016155006000840184615437565b61550d6000860182613fd0565b5061551b602084018461545d565b858303602087015261552e8382846154c0565b925050508091505092915050565b60006060820190506155516000830186614290565b61555e60208301856142e7565b818103604083015261557081846154ed565b9050949350505050565b600060408201905061558f60008301856142e7565b61559c6020830184614290565b9392505050565b6000815190506155b2816147d8565b92915050565b6000602082840312156155ce576155cd613b21565b5b60006155dc848285016155a3565b91505092915050565b600067ffffffffffffffff821115615600576155ff613c7a565b5b602082029050602081019050919050565b60006040828403121561562757615626614946565b5b6156316040613cda565b9050600061564184828501614e51565b600083015250602061565584828501614e66565b60208301525092915050565b600061567461566f846155e5565b613cda565b9050808382526020820190506040840283018581111561569757615696613d21565b5b835b818110156156c057806156ac8882615611565b845260208401935050604081019050615699565b5050509392505050565b600082601f8301126156df576156de613c64565b5b81516156ef848260208601615661565b91505092915050565b60006080828403121561570e5761570d614946565b5b6157186080613cda565b90506000615728848285016155a3565b600083015250602061573c848285016155a3565b6020830152506040615750848285016155a3565b604083015250606082015167ffffffffffffffff8111156157745761577361494b565b5b615780848285016156ca565b60608301525092915050565b6000602082840312156157a2576157a1613b21565b5b600082015167ffffffffffffffff8111156157c0576157bf613b26565b5b6157cc848285016156f8565b91505092915050565b600081519050919050565b600082825260208201905092915050565b60006157fc826157d5565b61580681856157e0565b9350615816818560208601613ffb565b61581f81613c69565b840191505092915050565b600060408201905061583f60008301856142e7565b818103602083015261585181846157f1565b90509392505050565b600061586582613b89565b915061587083613b89565b925082820190508082111561588857615887614d84565b5b92915050565b600061589982613b2b565b9050919050565b6158a98161588e565b81146158b457600080fd5b50565b6000815190506158c6816158a0565b92915050565b600080600080608085870312156158e6576158e5613b21565b5b60006158f4878288016158b7565b9450506020615905878288016158b7565b935050604061591687828801614e66565b925050606085015167ffffffffffffffff81111561593757615936613b26565b5b61594387828801614eeb565b91505092959194509250565b61595882613fdf565b67ffffffffffffffff81111561597157615970613c7a565b5b61597b8254614d53565b615986828285615276565b600060209050601f8311600181146159b957600084156159a7578287015190505b6159b185826152e7565b865550615a19565b601f1984166159c78661518d565b60005b828110156159ef578489015182556001820191506020850194506020810190506159ca565b86831015615a0c5784890151615a08601f8916826152c9565b8355505b6001600288020188555050505b505050505050565b60006040820190508181036000830152615a3b81856157f1565b9050615a4a6020830184614290565b9392505050565b600060c08284031215615a6757615a66614946565b5b615a7160c0613cda565b90506000615a8184828501614dfe565b6000830152506020615a9584828501614e66565b602083015250604082015167ffffffffffffffff811115615ab957615ab861494b565b5b615ac584828501614ebd565b604083015250606082015167ffffffffffffffff811115615ae957615ae861494b565b5b615af584828501614eeb565b6060830152506080615b0984828501614e51565b60808301525060a0615b1d84828501614e51565b60a08301525092915050565b600060208284031215615b3f57615b3e613b21565b5b600082015167ffffffffffffffff811115615b5d57615b5c613b26565b5b615b6984828501615a51565b91505092915050565b6000604082019050615b876000830185614456565b615b946020830184614290565b9392505050565b6000604082019050615bb06000830185614290565b615bbd60208301846142e7565b9392505050565b6000615bcf82613b89565b91507fffffffffffffffffffffffffffffffffffffffffffffffffffffffffffffffff8203615c0157615c00614d84565b5b600182019050919050565b6000615c1782613b4b565b9050919050565b615c2781615c0c565b8114615c3257600080fd5b50565b600081519050615c4481615c1e565b92915050565b600060208284031215615c6057615c5f613b21565b5b6000615c6e84828501615c35565b91505092915050565b600081519050615c8681613bff565b92915050565b600080600060608486031215615ca557615ca4613b21565b5b6000615cb3868287016158b7565b9350506020615cc486828701615c77565b9250506040615cd586828701614e66565b9150509250925092565b6000606082019050615cf460008301866142e7565b615d016020830185614290565b615d0e6040830184614290565b949350505050565b6000615d2182613b89565b9150615d2c83613b89565b9250828202615d3a81613b89565b91508282048414831517615d5157615d50614d84565b5b5092915050565b7f4e487b7100000000000000000000000000000000000000000000000000000000600052601260045260246000fd5b6000615d9282613b89565b9150615d9d83613b89565b925082615dad57615dac615d58565b5b828204905092915050565b6000606082019050615dcd6000830186614290565b615dda60208301856142e7565b615de76040830184614290565b949350505050565b60006040820190508181036000830152615e09818561488e565b9050615e186020830184614290565b9392505050565b60006040820190508181036000830152615e39818561488e565b9050615e4860208301846142e7565b9392505050565b7f4e487b7100000000000000000000000000000000000000000000000000000000600052605160045260246000fdfea26469706673582212203341ed0841ff1adc54a9f99b5f0c6ef795b5827bd104233b34858edec41653a664736f6c63430008140033",
  "linkReferences": {},
  "deployedLinkReferences": {}
}