{
  "_format": "hh-sol-artifact-1",
  "contractName": "Native",
  "sourceName": "contracts/libraries/Native.sol",
  "abi": [
    {
      "inputs": [],
      "name": "NATIVE",
      "outputs": [
        {
          "internalType": "address",
          "name": "",
          "type": "address"
        }
      ],
      "stateMutability": "view",
      "type": "function"
    }
  ],
  "bytecode": "0x6080604052348015600f57600080fd5b5060998061001e6000396000f3fe6080604052348015600f57600080fd5b506004361060285760003560e01c8063a0cf0aea14602d575b600080fd5b604773eeeeeeeeeeeeeeeeeeeeeeeeeeeeeeeeeeeeeeee81565b6040516001600160a01b03909116815260200160405180910390f3fea2646970667358221220f4d57a798e76e8d2effba05452db4b87c026a57d715fd632c922741f97d9c27b64736f6c63430008140033",
  "linkReferences": {},
  "deployedLinkReferences": {}
}