{
  "_format": "hh-sol-artifact-1",
  "contractName": "Native",
  "sourceName": "contracts/libraries/Native.sol",
  "abi": [
    {
      "inputs": [],
      "name": "NATIVE",
      "outputs": [
        {
          "internalType": "address",
          "name": "",
          "type": "address"
        }
      ],
      "stateMutability": "view",
      "type": "function"
    }
  ],
  "bytecode": "0x608060405234801561001057600080fd5b5060eb8061001f6000396000f3fe6080604052348015600f57600080fd5b506004361060285760003560e01c8063a0cf0aea14602d575b600080fd5b60336047565b604051603e9190609c565b60405180910390f35b73eeeeeeeeeeeeeeeeeeeeeeeeeeeeeeeeeeeeeeee81565b600073ffffffffffffffffffffffffffffffffffffffff82169050919050565b6000608882605f565b9050919050565b609681607f565b82525050565b600060208201905060af6000830184608f565b9291505056fea26469706673582212201186345811e92a59e4995c5c444fb50997560a873bceb64dda8715d639f434c864736f6c63430008140033",
  "linkReferences": {},
  "deployedLinkReferences": {}
}